{
  "_format": "hh-sol-artifact-1",
  "contractName": "TalentLayerMultipleArbitrableTransaction",
  "sourceName": "contracts/kleros/TalentLayerMultipleArbitrableTransaction.sol",
  "abi": [
    {
      "inputs": [
        {
          "internalType": "address",
          "name": "_serviceRegistryAddress",
          "type": "address"
        },
        {
          "internalType": "address",
          "name": "_talentLayerIDAddress",
          "type": "address"
        },
        {
          "internalType": "address",
          "name": "_talentLayerPlatformIDAddress",
          "type": "address"
        },
        {
          "internalType": "contract Arbitrator",
          "name": "_arbitrator",
          "type": "address"
        },
        {
          "internalType": "bytes",
          "name": "_arbitratorExtraData",
          "type": "bytes"
        },
        {
          "internalType": "uint256",
          "name": "_feeTimeout",
          "type": "uint256"
        }
      ],
      "stateMutability": "nonpayable",
      "type": "constructor"
    },
    {
      "anonymous": false,
      "inputs": [
        {
          "indexed": false,
          "internalType": "uint256",
          "name": "_platformId",
          "type": "uint256"
        },
        {
          "indexed": true,
          "internalType": "address",
          "name": "_token",
          "type": "address"
        },
        {
          "indexed": false,
          "internalType": "uint256",
          "name": "_amount",
          "type": "uint256"
        }
      ],
      "name": "BalanceTransferred",
      "type": "event"
    },
    {
      "anonymous": false,
      "inputs": [
        {
          "indexed": false,
          "internalType": "uint256",
          "name": "_platformId",
          "type": "uint256"
        },
        {
          "indexed": false,
          "internalType": "uint256",
          "name": "_serviceId",
          "type": "uint256"
        },
        {
          "indexed": true,
          "internalType": "address",
          "name": "_token",
          "type": "address"
        },
        {
          "indexed": false,
          "internalType": "uint256",
          "name": "_amount",
          "type": "uint256"
        }
      ],
      "name": "OriginPlatformFeeReleased",
      "type": "event"
    },
    {
      "anonymous": false,
      "inputs": [
        {
          "indexed": false,
          "internalType": "uint256",
          "name": "_originPlatformFee",
          "type": "uint256"
        }
      ],
      "name": "OriginPlatformFeeUpdated",
      "type": "event"
    },
    {
      "anonymous": false,
      "inputs": [
        {
          "indexed": true,
          "internalType": "address",
          "name": "previousOwner",
          "type": "address"
        },
        {
          "indexed": true,
          "internalType": "address",
          "name": "newOwner",
          "type": "address"
        }
      ],
      "name": "OwnershipTransferred",
      "type": "event"
    },
    {
      "anonymous": false,
      "inputs": [
        {
          "indexed": false,
          "internalType": "enum TalentLayerMultipleArbitrableTransaction.PaymentType",
          "name": "_paymentType",
          "type": "uint8"
        },
        {
          "indexed": false,
          "internalType": "uint256",
          "name": "_amount",
          "type": "uint256"
        },
        {
          "indexed": false,
          "internalType": "address",
          "name": "_token",
          "type": "address"
        },
        {
          "indexed": false,
          "internalType": "uint256",
          "name": "_serviceId",
          "type": "uint256"
        }
      ],
      "name": "Payment",
      "type": "event"
    },
    {
      "anonymous": false,
      "inputs": [
        {
          "indexed": false,
          "internalType": "uint256",
          "name": "_serviceId",
          "type": "uint256"
        }
      ],
      "name": "PaymentCompleted",
      "type": "event"
    },
    {
      "anonymous": false,
      "inputs": [
        {
          "indexed": false,
          "internalType": "uint256",
          "name": "_platformId",
          "type": "uint256"
        },
        {
          "indexed": false,
          "internalType": "uint256",
          "name": "_serviceId",
          "type": "uint256"
        },
        {
          "indexed": true,
          "internalType": "address",
          "name": "_token",
          "type": "address"
        },
        {
          "indexed": false,
          "internalType": "uint256",
          "name": "_amount",
          "type": "uint256"
        }
      ],
      "name": "PlatformFeeReleased",
      "type": "event"
    },
    {
      "anonymous": false,
      "inputs": [
        {
          "indexed": false,
          "internalType": "uint256",
          "name": "_protocolFee",
          "type": "uint256"
        }
      ],
      "name": "ProtocolFeeUpdated",
      "type": "event"
    },
    {
      "anonymous": false,
      "inputs": [
        {
          "indexed": false,
          "internalType": "uint256",
          "name": "serviceId",
          "type": "uint256"
        },
        {
          "indexed": false,
          "internalType": "uint256",
          "name": "sellerId",
          "type": "uint256"
        },
        {
          "indexed": false,
          "internalType": "uint256",
          "name": "transactionId",
          "type": "uint256"
        }
      ],
      "name": "ServiceProposalConfirmedWithDeposit",
      "type": "event"
    },
    {
      "inputs": [
        {
          "internalType": "uint256",
          "name": "_platformId",
          "type": "uint256"
        },
        {
          "internalType": "address",
          "name": "_tokenAddress",
          "type": "address"
        }
      ],
      "name": "claim",
      "outputs": [],
      "stateMutability": "nonpayable",
      "type": "function"
    },
    {
      "inputs": [
        {
          "internalType": "uint256",
          "name": "_platformId",
          "type": "uint256"
        }
      ],
      "name": "claimAll",
      "outputs": [],
      "stateMutability": "nonpayable",
      "type": "function"
    },
    {
      "inputs": [
        {
          "internalType": "uint256",
          "name": "_timeoutPayment",
          "type": "uint256"
        },
        {
          "internalType": "string",
          "name": "_metaEvidence",
          "type": "string"
        },
        {
          "internalType": "uint256",
          "name": "_serviceId",
          "type": "uint256"
        },
        {
          "internalType": "uint256",
          "name": "_proposalId",
          "type": "uint256"
        }
      ],
      "name": "createETHTransaction",
      "outputs": [],
      "stateMutability": "payable",
      "type": "function"
    },
    {
      "inputs": [
        {
          "internalType": "uint256",
          "name": "_timeoutPayment",
          "type": "uint256"
        },
        {
          "internalType": "string",
          "name": "_metaEvidence",
          "type": "string"
        },
        {
          "internalType": "uint256",
          "name": "_serviceId",
          "type": "uint256"
        },
        {
          "internalType": "uint256",
          "name": "_proposalId",
          "type": "uint256"
        }
      ],
      "name": "createTokenTransaction",
      "outputs": [],
      "stateMutability": "nonpayable",
      "type": "function"
    },
    {
      "inputs": [
        {
          "internalType": "address",
          "name": "_token",
          "type": "address"
        }
      ],
      "name": "getTokenBalance",
      "outputs": [
        {
          "internalType": "uint256",
          "name": "balance",
          "type": "uint256"
        }
      ],
      "stateMutability": "view",
      "type": "function"
    },
    {
      "inputs": [
        {
          "internalType": "uint256",
          "name": "_transactionId",
          "type": "uint256"
        }
      ],
      "name": "getTransactionDetails",
      "outputs": [
        {
          "components": [
            {
              "internalType": "address",
              "name": "sender",
              "type": "address"
            },
            {
              "internalType": "address",
              "name": "receiver",
              "type": "address"
            },
            {
              "internalType": "address",
              "name": "token",
              "type": "address"
            },
            {
              "internalType": "uint256",
              "name": "amount",
              "type": "uint256"
            },
            {
              "internalType": "uint256",
              "name": "serviceId",
              "type": "uint256"
            },
            {
              "internalType": "uint16",
              "name": "protocolFee",
              "type": "uint16"
            },
            {
              "internalType": "uint16",
              "name": "originPlatformFee",
              "type": "uint16"
            },
            {
              "internalType": "uint16",
              "name": "platformFee",
              "type": "uint16"
            }
          ],
          "internalType": "struct TalentLayerMultipleArbitrableTransaction.Transaction",
          "name": "transaction",
          "type": "tuple"
        }
      ],
      "stateMutability": "view",
      "type": "function"
    },
    {
      "inputs": [],
      "name": "originPlatformFeePerTenThousand",
      "outputs": [
        {
          "internalType": "uint16",
          "name": "",
          "type": "uint16"
        }
      ],
      "stateMutability": "view",
      "type": "function"
    },
    {
      "inputs": [],
      "name": "owner",
      "outputs": [
        {
          "internalType": "address",
          "name": "",
          "type": "address"
        }
      ],
      "stateMutability": "view",
      "type": "function"
    },
    {
      "inputs": [],
      "name": "protocolFeePerTenThousand",
      "outputs": [
        {
          "internalType": "uint16",
          "name": "",
          "type": "uint16"
        }
      ],
      "stateMutability": "view",
      "type": "function"
    },
    {
      "inputs": [
        {
          "internalType": "uint256",
          "name": "_transactionId",
          "type": "uint256"
        },
        {
          "internalType": "uint256",
          "name": "_amount",
          "type": "uint256"
        }
      ],
      "name": "reimburse",
      "outputs": [],
      "stateMutability": "nonpayable",
      "type": "function"
    },
    {
      "inputs": [
        {
          "internalType": "uint256",
          "name": "_transactionId",
          "type": "uint256"
        },
        {
          "internalType": "uint256",
          "name": "_amount",
          "type": "uint256"
        }
      ],
      "name": "release",
      "outputs": [],
      "stateMutability": "nonpayable",
      "type": "function"
    },
    {
      "inputs": [],
      "name": "renounceOwnership",
      "outputs": [],
      "stateMutability": "nonpayable",
      "type": "function"
    },
    {
      "inputs": [
        {
          "internalType": "address",
          "name": "newOwner",
          "type": "address"
        }
      ],
      "name": "transferOwnership",
      "outputs": [],
      "stateMutability": "nonpayable",
      "type": "function"
    },
    {
      "inputs": [
        {
          "internalType": "uint16",
          "name": "_originPlatformFee",
          "type": "uint16"
        }
      ],
      "name": "updateOriginPlatformFee",
      "outputs": [],
      "stateMutability": "nonpayable",
      "type": "function"
    },
    {
      "inputs": [
        {
          "internalType": "uint16",
          "name": "_protocolFee",
          "type": "uint16"
        }
      ],
      "name": "updateProtocolFee",
      "outputs": [],
      "stateMutability": "nonpayable",
      "type": "function"
    },
    {
      "inputs": [
        {
          "internalType": "address payable",
          "name": "_protocolWallet",
          "type": "address"
        }
      ],
      "name": "updateProtocolWallet",
      "outputs": [],
      "stateMutability": "nonpayable",
      "type": "function"
    }
  ],
  "bytecode": "0x60806040523480156200001157600080fd5b5060405162002b1d38038062002b1d8339810160408190526200003491620001db565b6200003f336200015c565b600380546001600160a01b03199081166001600160a01b038981169190911790925560048054909116878316179055600580549186166001600160b01b031990921691909117601960a21b1761ffff60b01b1916601960b31b179055620000ae6000546001600160a01b031690565b600680546001600160a01b0319166001600160a01b0392909216919091179055600554604051600160a01b90910461ffff1681527fd10d75876659a287a59a6ccfa2e3fff42f84d94b542837acd30bc184d562de409060200160405180910390a1600554604051600160b01b90910461ffff1681527f3f96e18595b70057673fcff754fcba8d558da96a28e6476a8a13a1b7e6f2057a9060200160405180910390a150505050505062000319565b600080546001600160a01b038381166001600160a01b0319831681178455604051919092169283917f8be0079c531659141344cd1fd0a4f28419497f9722a3daafe3b4186f6b6457e09190a35050565b6001600160a01b0381168114620001c257600080fd5b50565b634e487b7160e01b600052604160045260246000fd5b60008060008060008060c08789031215620001f557600080fd5b86516200020281620001ac565b809650506020808801516200021781620001ac565b60408901519096506200022a81620001ac565b60608901519095506200023d81620001ac565b60808901519094506001600160401b03808211156200025b57600080fd5b818a0191508a601f8301126200027057600080fd5b815181811115620002855762000285620001c5565b604051601f8201601f19908116603f01168101908382118183101715620002b057620002b0620001c5565b816040528281528d86848701011115620002c957600080fd5b600093505b82841015620002ed5784840186015181850187015292850192620002ce565b82841115620002ff5760008684830101525b80975050505050505060a087015190509295509295509295565b6127f480620003296000396000f3fe6080604052600436106100f35760003560e01c8063715018a61161008a578063ddd5e1b211610059578063ddd5e1b21461029f578063e308a099146102bf578063f2fde38b146102df578063fe43a992146102ff57600080fd5b8063715018a61461022f578063740bd56a1461024457806388574446146102645780638da5cb5b1461027757600080fd5b8063392685b9116100c6578063392685b9146101a15780633aecd0e3146101c3578063574d6c71146101f15780636930fd2a1461021157600080fd5b8063020624d2146100f85780630af1ea491461011a5780630fa683d314610154578063366a412014610181575b600080fd5b34801561010457600080fd5b506101186101133660046120db565b61031f565b005b34801561012657600080fd5b5060055461013c90600160a01b900461ffff1681565b60405161ffff90911681526020015b60405180910390f35b34801561016057600080fd5b5061017461016f3660046120f8565b61037e565b60405161014b9190612111565b34801561018d57600080fd5b5061011861019c36600461218e565b61050c565b3480156101ad57600080fd5b5060055461013c90600160b01b900461ffff1681565b3480156101cf57600080fd5b506101e36101de3660046121c5565b6106c5565b60405190815260200161014b565b3480156101fd57600080fd5b5061011861020c36600461229e565b61082c565b34801561021d57600080fd5b5061011861022c3660046120f8565b50565b34801561023b57600080fd5b50610118610b50565b34801561025057600080fd5b5061011861025f3660046120db565b610b64565b61011861027236600461229e565b610bbc565b34801561028357600080fd5b506000546040516001600160a01b03909116815260200161014b565b3480156102ab57600080fd5b506101186102ba366004612338565b610f88565b3480156102cb57600080fd5b506101186102da3660046121c5565b61115a565b3480156102eb57600080fd5b506101186102fa3660046121c5565b611184565b34801561030b57600080fd5b5061011861031a36600461218e565b6111fa565b610327611398565b6005805461ffff60a01b1916600160a01b61ffff8416908102919091179091556040519081527fd10d75876659a287a59a6ccfa2e3fff42f84d94b542837acd30bc184d562de40906020015b60405180910390a150565b6040805161010081018252600080825260208201819052918101829052606081018290526080810182905260a0810182905260c0810182905260e081019190915260015482106103e95760405162461bcd60e51b81526004016103e090612368565b60405180910390fd5b6000600183815481106103fe576103fe61239f565b6000918252602090912060069091020180549091506001600160a01b0316331480610435575060018101546001600160a01b031633145b6104925760405162461bcd60e51b815260206004820152602860248201527f596f7520617265206e6f742072656c6174656420746f2074686973207472616e60448201526739b0b1ba34b7b71760c11b60648201526084016103e0565b604080516101008101825282546001600160a01b03908116825260018401548116602083015260028401541691810191909152600382015460608201526004820154608082015260059091015461ffff80821660a0840152620100008204811660c08401526401000000009091041660e082015292915050565b600154821061052d5760405162461bcd60e51b81526004016103e090612368565b6000600183815481106105425761054261239f565b6000918252602090912060069091020180549091506001600160a01b0316331461057e5760405162461bcd60e51b81526004016103e0906123b5565b81816003015410156105c85760405162461bcd60e51b815260206004820152601360248201527224b739bab33334b1b4b2b73a10333ab732399760691b60448201526064016103e0565b818160030160008282546105dc91906123f3565b9091555050604080516101008101825282546001600160a01b039081168252600184015481166020830152600284015416918101919091526003820154606082015260048201546080820152600582015461ffff80821660a0840152620100008204811660c08401526401000000009091041660e082015261065e90836113f2565b600281015460048201546040517fdaa591b50a981113dacf06d6569df00c5b022da0ee70df9df0dfab17eaa24129926106a69260009287926001600160a01b03169190612420565b60405180910390a16106c0816004015482600301546118a0565b505050565b6000336106da6000546001600160a01b031690565b6001600160a01b0316141561072457506001600160a01b031660009081527fac33ff75c19e70fe83507db0d683fd3465c996598dc972688b7ace676c89077b602052604090205490565b60055460405163aa44caaf60e01b81523360048201526000916001600160a01b03169063aa44caaf9060240160206040518083038186803b15801561076857600080fd5b505afa15801561077c573d6000803e3d6000fd5b505050506040513d601f19601f820116820180604052508101906107a09190612467565b60055460405162f577a560e81b8152600481018390529192506001600160a01b03169063f577a5009060240160006040518083038186803b1580156107e457600080fd5b505afa1580156107f8573d6000803e3d6000fd5b5050506000918252506002602090815260408083206001600160a01b0390951683529390529190912054919050565b919050565b61083461204c565b61083c612085565b6000806108498686611941565b60055460e0840151604051638f2f3f6b60e01b8152600481019190915294985092965090945092506000916001600160a01b0390911690638f2f3f6b9060240160206040518083038186803b1580156108a157600080fd5b505afa1580156108b5573d6000803e3d6000fd5b505050506040513d601f19601f820116820180604052508101906108d99190612480565b905060006127108261ffff1687606001516108f4919061249d565b600554606089015161091191600160b01b900461ffff169061249d565b60055460608a015161092e91600160a01b900461ffff169061249d565b61093891906124bc565b61094291906124bc565b61094c91906124d4565b866060015161095b91906124bc565b90506004855160048111156109725761097261240a565b146109ba5760405162461bcd60e51b815260206004820152601860248201527729b2b93b34b1b29039ba30ba3ab9903737ba1037b832b71760411b60448201526064016103e0565b6000865160028111156109cf576109cf61240a565b14610a1c5760405162461bcd60e51b815260206004820152601c60248201527f50726f706f73616c20737461747573206e6f742070656e64696e672e0000000060448201526064016103e0565b86866020015114610a685760405162461bcd60e51b815260206004820152601660248201527524b731b7b93932b1ba10383937b837b9b0b61024a21760511b60448201526064016103e0565b6000610a80858589604001518a606001518d88611a85565b6003546040516353eaf57560e11b8152600481018c9052602481018b9052604481018390529192506001600160a01b03169063a7d5eaea90606401600060405180830381600087803b158015610ad557600080fd5b505af1158015610ae9573d6000803e3d6000fd5b50505050610afc85886040015184611c69565b602080880151604080518c81529283019190915281018290527fffc7643b52fc7134d23e37eac3c5c4bdad5cf04655528f24663504e15adc4a4a906060015b60405180910390a15050505050505050505050565b610b58611398565b610b626000611d37565b565b610b6c611398565b6005805461ffff60b01b1916600160b01b61ffff8416908102919091179091556040519081527f3f96e18595b70057673fcff754fcba8d558da96a28e6476a8a13a1b7e6f2057a90602001610373565b610bc461204c565b610bcc612085565b600080610bd98686611941565b60055460e0840151604051638f2f3f6b60e01b8152600481019190915294985092965090945092506000916001600160a01b0390911690638f2f3f6b9060240160206040518083038186803b158015610c3157600080fd5b505afa158015610c45573d6000803e3d6000fd5b505050506040513d601f19601f82011682018060405250810190610c699190612480565b905060006127108261ffff168760600151610c84919061249d565b6005546060890151610ca191600160b01b900461ffff169061249d565b60055460608a0151610cbe91600160a01b900461ffff169061249d565b610cc891906124bc565b610cd291906124bc565b610cdc91906124d4565b8660600151610ceb91906124bc565b9050336001600160a01b03851614610d155760405162461bcd60e51b81526004016103e0906123b5565b803414610d5a5760405162461bcd60e51b81526020600482015260136024820152722737b716b6b0ba31b434b73390333ab732399760691b60448201526064016103e0565b60408601516001600160a01b031615610db55760405162461bcd60e51b815260206004820152601760248201527f50726f706f73616c20746f6b656e206e6f74204554482e00000000000000000060448201526064016103e0565b86866020015114610e015760405162461bcd60e51b815260206004820152601660248201527524b731b7b93932b1ba10383937b837b9b0b61024a21760511b60448201526064016103e0565b600485516004811115610e1657610e1661240a565b14610e5e5760405162461bcd60e51b815260206004820152601860248201527729b2b93b34b1b29039ba30ba3ab9903737ba1037b832b71760411b60448201526064016103e0565b600086516002811115610e7357610e7361240a565b14610ec05760405162461bcd60e51b815260206004820152601c60248201527f50726f706f73616c20737461747573206e6f742070656e64696e672e0000000060448201526064016103e0565b6000610ed8858589604001518a606001518d88611a85565b6003546040516353eaf57560e11b8152600481018c9052602481018b9052604481018390529192506001600160a01b03169063a7d5eaea90606401600060405180830381600087803b158015610f2d57600080fd5b505af1158015610f41573d6000803e3d6000fd5b505050602080890151604080518d81529283019190915281018390527fffc7643b52fc7134d23e37eac3c5c4bdad5cf04655528f24663504e15adc4a4a9150606001610b3b565b600033610f9d6000546001600160a01b031690565b6001600160a01b03161415610fdc578215610fca5760405162461bcd60e51b81526004016103e0906123b5565b506006546001600160a01b03166110de565b60055460405162f577a560e81b8152600481018590526001600160a01b039091169063f577a5009060240160006040518083038186803b15801561101f57600080fd5b505afa158015611033573d6000803e3d6000fd5b50506005546040516331a9108f60e11b8152600481018790523393506001600160a01b039091169150636352211e9060240160206040518083038186803b15801561107d57600080fd5b505afa158015611091573d6000803e3d6000fd5b505050506040513d601f19601f820116820180604052508101906110b591906124f6565b6001600160a01b0316146110db5760405162461bcd60e51b81526004016103e0906123b5565b50335b60008381526002602090815260408083206001600160a01b038616845290915281208054919055611110828483611d87565b60408051858152602081018390526001600160a01b038516917f0258d2bec600f69954d925f84b9257ad866f07f4a169ec29c2381d6cf46ba6d5910160405180910390a250505050565b611162611398565b600680546001600160a01b0319166001600160a01b0392909216919091179055565b61118c611398565b6001600160a01b0381166111f15760405162461bcd60e51b815260206004820152602660248201527f4f776e61626c653a206e6577206f776e657220697320746865207a65726f206160448201526564647265737360d01b60648201526084016103e0565b61022c81611d37565b600154821061121b5760405162461bcd60e51b81526004016103e090612368565b6000600183815481106112305761123061239f565b600091825260209091206001600690920201908101549091506001600160a01b031633146112705760405162461bcd60e51b81526004016103e0906123b5565b81816003015410156112ba5760405162461bcd60e51b815260206004820152601360248201527224b739bab33334b1b4b2b73a10333ab732399760691b60448201526064016103e0565b818160030160008282546112ce91906123f3565b9091555050604080516101008101825282546001600160a01b039081168252600184015481166020830152600284015416918101919091526003820154606082015260048201546080820152600582015461ffff80821660a0840152620100008204811660c08401526401000000009091041660e08201526113509083611e53565b600281015460048201546040517fdaa591b50a981113dacf06d6569df00c5b022da0ee70df9df0dfab17eaa24129926106a69260019287926001600160a01b03169190612420565b6000546001600160a01b03163314610b625760405162461bcd60e51b815260206004820181905260248201527f4f776e61626c653a2063616c6c6572206973206e6f7420746865206f776e657260448201526064016103e0565b600354608083015160405163ef0e239b60e01b815260048101919091526000916001600160a01b03169063ef0e239b9060240160006040518083038186803b15801561143d57600080fd5b505afa158015611451573d6000803e3d6000fd5b505050506040513d6000823e601f3d908101601f191682016040526114799190810190612591565b60048054602086015160405162438b6360e81b81526001600160a01b0391821693810193909352929350600092169063f08f4f6490829063438b63009060240160206040518083038186803b1580156114d157600080fd5b505afa1580156114e5573d6000803e3d6000fd5b505050506040513d601f19601f820116820180604052508101906115099190612467565b6040518263ffffffff1660e01b815260040161152791815260200190565b60006040518083038186803b15801561153f57600080fd5b505afa158015611553573d6000803e3d6000fd5b505050506040513d6000823e601f3d908101601f1916820160405261157b919081019061264f565b60600151905060008260e0015190506000612710858760a0015161ffff166115a3919061249d565b6115ad91906124d4565b90506000612710868860c0015161ffff166115c8919061249d565b6115d291906124d4565b90506000612710878960e0015161ffff166115ed919061249d565b6115f791906124d4565b60408901519091506001600160a01b031661164f5787602001516001600160a01b03166108fc889081150290604051600060405180830381858888f19350505050158015611649573d6000803e3d6000fd5b50611720565b60408089015160208a0151915163a9059cbb60e01b81526001600160a01b039283166004820152602481018a905291169063a9059cbb90604401602060405180830381600087803b1580156116a357600080fd5b505af11580156116b7573d6000803e3d6000fd5b505050506040513d601f19601f820116820180604052508101906116db9190612707565b6117205760405162461bcd60e51b8152602060048201526016602482015275151c985b9cd9995c881b5d5cdd081b9bdd0819985a5b60521b60448201526064016103e0565b60008080526002602090815260408a8101516001600160a01b031683527fac33ff75c19e70fe83507db0d683fd3465c996598dc972688b7ace676c89077b909152812080548592906117739084906124bc565b909155505060008581526002602090815260408083208b8201516001600160a01b03168452909152812080548492906117ad9084906124bc565b909155505060008481526002602090815260408083208b8201516001600160a01b03168452909152812080548392906117e79084906124bc565b909155505060408089015160808a0151825188815260208101919091529182018490526001600160a01b0316907f4295737fccf6c9fdb5562d08f53f32ea89040cee8648445f14b63e74ef2340c89060600160405180910390a260408089015160808a0151825187815260208101919091529182018390526001600160a01b0316907ffb0b45a94ba5e6f6a5787f24ec1cca93129f52cb56ee72ce395736266051152e9060600160405180910390a25050505050505050565b8061193d57600354604051631271956760e21b8152600481018490526001600160a01b03909116906349c6559c90602401600060405180830381600087803b1580156118eb57600080fd5b505af11580156118ff573d6000803e3d6000fd5b505050507f6bef1b5e95b741d6e665eb9b5c2d3e1203c46a771451055a9d41e0b8ff4510b78260405161193491815260200190565b60405180910390a15b5050565b61194961204c565b611951612085565b60008060006119608787611f28565b9050600061196d88611fbe565b6004805460208301516040516331a9108f60e11b8152928301529192506000916001600160a01b031690636352211e9060240160206040518083038186803b1580156119b857600080fd5b505afa1580156119cc573d6000803e3d6000fd5b505050506040513d601f19601f820116820180604052508101906119f091906124f6565b6004805460208601516040516331a9108f60e11b8152928301529192506000916001600160a01b031690636352211e9060240160206040518083038186803b158015611a3b57600080fd5b505afa158015611a4f573d6000803e3d6000fd5b505050506040513d601f19601f82011682018060405250810190611a7391906124f6565b939a9299509097509195509350505050565b60408051610100810182526001600160a01b03808916825287811660208301908152878216938301938452606083018781526080840187815260055461ffff600160a01b8204811660a08801908152600160b01b909204811660c0880190815289821660e0890190815260018054808201825560008281529a5160069091027fb10e2d527612073b26eecdfd717e6a320cf44b4afac2b0732d9fcbe2b7fa0cf681018054928c166001600160a01b031993841617905598517fb10e2d527612073b26eecdfd717e6a320cf44b4afac2b0732d9fcbe2b7fa0cf78a018054918c169183169190911790559a517fb10e2d527612073b26eecdfd717e6a320cf44b4afac2b0732d9fcbe2b7fa0cf88901805491909a169b169a909a1790975593517fb10e2d527612073b26eecdfd717e6a320cf44b4afac2b0732d9fcbe2b7fa0cf986015591517fb10e2d527612073b26eecdfd717e6a320cf44b4afac2b0732d9fcbe2b7fa0cfa850155517fb10e2d527612073b26eecdfd717e6a320cf44b4afac2b0732d9fcbe2b7fa0cfb90930180549251945182166401000000000265ffff0000000019958316620100000263ffffffff199094169490921693909317919091179290921691909117905581549091611c5e916123f3565b979650505050505050565b6040516323b872dd60e01b81526001600160a01b038481166004830152306024830152604482018390528316906323b872dd906064015b602060405180830381600087803b158015611cba57600080fd5b505af1158015611cce573d6000803e3d6000fd5b505050506040513d601f19601f82011682018060405250810190611cf29190612707565b6106c05760405162461bcd60e51b8152602060048201526016602482015275151c985b9cd9995c881b5d5cdd081b9bdd0819985a5b60521b60448201526064016103e0565b600080546001600160a01b038381166001600160a01b0319831681178455604051919092169283917f8be0079c531659141344cd1fd0a4f28419497f9722a3daafe3b4186f6b6457e09190a35050565b6001600160a01b038216611dd1576040516001600160a01b0384169082156108fc029083906000818181858888f19350505050158015611dcb573d6000803e3d6000fd5b50505050565b60405163a9059cbb60e01b81526001600160a01b0384811660048301526024820183905283169063a9059cbb90604401602060405180830381600087803b158015611e1b57600080fd5b505af1158015611e2f573d6000803e3d6000fd5b505050506040513d601f19601f82011682018060405250810190611dcb9190612707565b6000612710828460e001518560c001518660a00151611e729190612729565b611e7c9190612729565b61ffff16611e8a919061249d565b611e9491906124d4565b611e9e90836124bc565b60408401519091506001600160a01b0316611eec5782516040516001600160a01b039091169082156108fc029083906000818181858888f19350505050158015611dcb573d6000803e3d6000fd5b6040838101518451915163a9059cbb60e01b81526001600160a01b0392831660048201526024810184905291169063a9059cbb90604401611ca0565b611f3061204c565b60035460405163aba2100960e01b815260048101859052602481018490526001600160a01b039091169063aba210099060440160006040518083038186803b158015611f7b57600080fd5b505afa158015611f8f573d6000803e3d6000fd5b505050506040513d6000823e601f3d908101601f19168201604052611fb7919081019061274f565b9392505050565b611fc6612085565b60035460405163ef0e239b60e01b8152600481018490526001600160a01b039091169063ef0e239b9060240160006040518083038186803b15801561200a57600080fd5b505afa15801561201e573d6000803e3d6000fd5b505050506040513d6000823e601f3d908101601f191682016040526120469190810190612591565b92915050565b6040805160a0810190915280600081526020016000815260200160006001600160a01b0316815260200160008152602001606081525090565b6040805161010081019091528060008152602001600081526020016000815260200160008152602001606081526020016000815260200160008152602001600081525090565b61ffff8116811461022c57600080fd5b6000602082840312156120ed57600080fd5b8135611fb7816120cb565b60006020828403121561210a57600080fd5b5035919050565b60006101008201905060018060a01b0380845116835280602085015116602084015280604085015116604084015250606083015160608301526080830151608083015260a083015161ffff80821660a08501528060c08601511660c0850152505060e083015161218760e084018261ffff169052565b5092915050565b600080604083850312156121a157600080fd5b50508035926020909101359150565b6001600160a01b038116811461022c57600080fd5b6000602082840312156121d757600080fd5b8135611fb7816121b0565b634e487b7160e01b600052604160045260246000fd5b604051610100810167ffffffffffffffff8111828210171561221c5761221c6121e2565b60405290565b60405160a0810167ffffffffffffffff8111828210171561221c5761221c6121e2565b604051601f8201601f1916810167ffffffffffffffff8111828210171561226e5761226e6121e2565b604052919050565b600067ffffffffffffffff821115612290576122906121e2565b50601f01601f191660200190565b600080600080608085870312156122b457600080fd5b84359350602085013567ffffffffffffffff8111156122d257600080fd5b8501601f810187136122e357600080fd5b80356122f66122f182612276565b612245565b81815288602083850101111561230b57600080fd5b81602084016020830137600091810160200191909152949794965050505060408301359260600135919050565b6000806040838503121561234b57600080fd5b82359150602083013561235d816121b0565b809150509250929050565b6020808252601b908201527f4e6f7420612076616c6964207472616e73616374696f6e2069642e0000000000604082015260600190565b634e487b7160e01b600052603260045260246000fd5b6020808252600e908201526d20b1b1b2b9b9903232b734b2b21760911b604082015260600190565b634e487b7160e01b600052601160045260246000fd5b600082821015612405576124056123dd565b500390565b634e487b7160e01b600052602160045260246000fd5b608081016002861061244257634e487b7160e01b600052602160045260246000fd5b94815260208101939093526001600160a01b0391909116604083015260609091015290565b60006020828403121561247957600080fd5b5051919050565b60006020828403121561249257600080fd5b8151611fb7816120cb565b60008160001904831182151516156124b7576124b76123dd565b500290565b600082198211156124cf576124cf6123dd565b500190565b6000826124f157634e487b7160e01b600052601260045260246000fd5b500490565b60006020828403121561250857600080fd5b8151611fb7816121b0565b80516005811061082757600080fd5b600082601f83011261253357600080fd5b81516125416122f182612276565b8181526020858184870101111561255757600080fd5b60005b8381101561257557858101820151838201830152810161255a565b838111156125865760008285850101525b509095945050505050565b6000602082840312156125a357600080fd5b815167ffffffffffffffff808211156125bb57600080fd5b9083019061010082860312156125d057600080fd5b6125d86121f8565b6125e183612513565b815260208301516020820152604083015160408201526060830151606082015260808301518281111561261357600080fd5b61261f87828601612522565b60808301525060a083015160a082015260c083015160c082015260e083015160e082015280935050505092915050565b60006020828403121561266157600080fd5b815167ffffffffffffffff8082111561267957600080fd5b9083019060a0828603121561268d57600080fd5b612695612222565b825181526020830151828111156126ab57600080fd5b6126b787828601612522565b60208301525060408301516126cb816121b0565b6040820152606083810151908201526080830151828111156126ec57600080fd5b6126f887828601612522565b60808301525095945050505050565b60006020828403121561271957600080fd5b81518015158114611fb757600080fd5b600061ffff808316818516808303821115612746576127466123dd565b01949350505050565b60006020828403121561276157600080fd5b815167ffffffffffffffff8082111561277957600080fd5b9083019060a0828603121561278d57600080fd5b612795612222565b8251600381106127a457600080fd5b81526020838101519082015260408301516126cb816121b056fea2646970667358221220a0804193b34d05dd407d303f5c72349286d95d6d5eefd3e2cd86b006b98291e864736f6c63430008090033",
  "linkReferences": {},
  "deployedLinkReferences": {}
}