{
  "_format": "hh-sol-artifact-1",
  "contractName": "TalentLayerMultipleArbitrableTransaction",
  "sourceName": "contracts/kleros/TalentLayerMultipleArbitrableTransaction.sol",
  "abi": [
    {
      "inputs": [
        {
          "internalType": "address",
          "name": "_jobRegistryAddress",
          "type": "address"
        },
        {
          "internalType": "contract Arbitrator",
          "name": "_arbitrator",
          "type": "address"
        },
        {
          "internalType": "bytes",
          "name": "_arbitratorExtraData",
          "type": "bytes"
        },
        {
          "internalType": "uint256",
          "name": "_feeTimeout",
          "type": "uint256"
        }
      ],
      "stateMutability": "nonpayable",
      "type": "constructor"
    },
    {
      "anonymous": false,
      "inputs": [
        {
          "indexed": true,
          "internalType": "contract Arbitrator",
          "name": "_arbitrator",
          "type": "address"
        },
        {
          "indexed": true,
          "internalType": "uint256",
          "name": "_disputeID",
          "type": "uint256"
        },
        {
          "indexed": false,
          "internalType": "uint256",
          "name": "_metaEvidenceID",
          "type": "uint256"
        },
        {
          "indexed": false,
          "internalType": "uint256",
          "name": "_evidenceGroupID",
          "type": "uint256"
        }
      ],
      "name": "Dispute",
      "type": "event"
    },
    {
      "anonymous": false,
      "inputs": [
        {
          "indexed": true,
          "internalType": "contract Arbitrator",
          "name": "_arbitrator",
          "type": "address"
        },
        {
          "indexed": true,
          "internalType": "uint256",
          "name": "_evidenceGroupID",
          "type": "uint256"
        },
        {
          "indexed": true,
          "internalType": "address",
          "name": "_party",
          "type": "address"
        },
        {
          "indexed": false,
          "internalType": "string",
          "name": "_evidence",
          "type": "string"
        }
      ],
      "name": "Evidence",
      "type": "event"
    },
    {
      "anonymous": false,
      "inputs": [
        {
          "indexed": true,
          "internalType": "uint256",
          "name": "_transactionID",
          "type": "uint256"
        },
        {
          "indexed": false,
          "internalType": "enum TalentLayerMultipleArbitrableTransaction.Party",
          "name": "_party",
          "type": "uint8"
        }
      ],
      "name": "HasToPayFee",
      "type": "event"
    },
    {
      "anonymous": false,
      "inputs": [
        {
          "indexed": false,
          "internalType": "uint256",
          "name": "id",
          "type": "uint256"
        },
        {
          "indexed": false,
          "internalType": "uint256",
          "name": "proposalId",
          "type": "uint256"
        },
        {
          "indexed": false,
          "internalType": "uint256",
          "name": "employeeId",
          "type": "uint256"
        },
        {
          "indexed": false,
          "internalType": "uint256",
          "name": "transactionId",
          "type": "uint256"
        }
      ],
      "name": "JobProposalConfirmedWithDeposit",
      "type": "event"
    },
    {
      "anonymous": false,
      "inputs": [
        {
          "indexed": true,
          "internalType": "uint256",
          "name": "_metaEvidenceID",
          "type": "uint256"
        },
        {
          "indexed": false,
          "internalType": "string",
          "name": "_evidence",
          "type": "string"
        }
      ],
      "name": "MetaEvidence",
      "type": "event"
    },
    {
      "anonymous": false,
      "inputs": [
        {
          "indexed": true,
          "internalType": "uint256",
          "name": "_transactionID",
          "type": "uint256"
        },
        {
          "indexed": false,
          "internalType": "uint256",
          "name": "_amount",
          "type": "uint256"
        },
        {
          "indexed": false,
          "internalType": "address",
          "name": "_party",
          "type": "address"
        }
      ],
      "name": "Payment",
      "type": "event"
    },
    {
      "anonymous": false,
      "inputs": [
        {
          "indexed": false,
          "internalType": "uint256",
          "name": "_jobId",
          "type": "uint256"
        }
      ],
      "name": "PaymentCompleted",
      "type": "event"
    },
    {
      "anonymous": false,
      "inputs": [
        {
          "indexed": true,
          "internalType": "contract Arbitrator",
          "name": "_arbitrator",
          "type": "address"
        },
        {
          "indexed": true,
          "internalType": "uint256",
          "name": "_disputeID",
          "type": "uint256"
        },
        {
          "indexed": false,
          "internalType": "uint256",
          "name": "_ruling",
          "type": "uint256"
        }
      ],
      "name": "Ruling",
      "type": "event"
    },
    {
      "anonymous": false,
      "inputs": [
        {
          "indexed": false,
          "internalType": "uint256",
          "name": "_transactionID",
          "type": "uint256"
        },
        {
          "indexed": true,
          "internalType": "address",
          "name": "_sender",
          "type": "address"
        },
        {
          "indexed": true,
          "internalType": "address",
          "name": "_receiver",
          "type": "address"
        },
        {
          "indexed": false,
          "internalType": "uint256",
          "name": "_amount",
          "type": "uint256"
        }
      ],
      "name": "TransactionCreated",
      "type": "event"
    },
    {
      "inputs": [
        {
          "internalType": "uint256",
          "name": "_transactionID",
          "type": "uint256"
        }
      ],
      "name": "appeal",
      "outputs": [],
      "stateMutability": "payable",
      "type": "function"
    },
    {
      "inputs": [],
      "name": "arbitrator",
      "outputs": [
        {
          "internalType": "contract Arbitrator",
          "name": "",
          "type": "address"
        }
      ],
      "stateMutability": "view",
      "type": "function"
    },
    {
      "inputs": [],
      "name": "arbitratorExtraData",
      "outputs": [
        {
          "internalType": "bytes",
          "name": "",
          "type": "bytes"
        }
      ],
      "stateMutability": "view",
      "type": "function"
    },
    {
      "inputs": [
        {
          "internalType": "uint256",
          "name": "_timeoutPayment",
          "type": "uint256"
        },
        {
          "internalType": "address payable",
          "name": "_sender",
          "type": "address"
        },
        {
          "internalType": "address payable",
          "name": "_receiver",
          "type": "address"
        },
        {
          "internalType": "string",
          "name": "_metaEvidence",
          "type": "string"
        },
        {
          "internalType": "uint256",
          "name": "_amount",
          "type": "uint256"
        },
        {
          "internalType": "address payable",
          "name": "_adminWallet",
          "type": "address"
        },
        {
          "internalType": "uint256",
          "name": "_adminFeeAmount",
          "type": "uint256"
        },
        {
          "internalType": "uint256",
          "name": "_jobId",
          "type": "uint256"
        },
        {
          "internalType": "uint256",
          "name": "_proposalId",
          "type": "uint256"
        }
      ],
      "name": "createETHTransaction",
      "outputs": [
        {
          "internalType": "uint256",
          "name": "transactionID",
          "type": "uint256"
        }
      ],
      "stateMutability": "payable",
      "type": "function"
    },
    {
      "inputs": [
        {
          "internalType": "uint256",
          "name": "_timeoutPayment",
          "type": "uint256"
        },
        {
          "internalType": "address payable",
          "name": "_sender",
          "type": "address"
        },
        {
          "internalType": "address payable",
          "name": "_receiver",
          "type": "address"
        },
        {
          "internalType": "string",
          "name": "_metaEvidence",
          "type": "string"
        },
        {
          "internalType": "uint256",
          "name": "_amount",
          "type": "uint256"
        },
        {
          "internalType": "address",
          "name": "_tokenAddress",
          "type": "address"
        },
        {
          "internalType": "address payable",
          "name": "_adminWallet",
          "type": "address"
        },
        {
          "internalType": "uint256",
          "name": "_adminFeeAmount",
          "type": "uint256"
        },
        {
          "internalType": "uint256",
          "name": "_jobId",
          "type": "uint256"
        },
        {
          "internalType": "uint256",
          "name": "_proposalId",
          "type": "uint256"
        }
      ],
      "name": "createTokenTransaction",
      "outputs": [
        {
          "internalType": "uint256",
          "name": "transactionID",
          "type": "uint256"
        }
      ],
      "stateMutability": "payable",
      "type": "function"
    },
    {
      "inputs": [
        {
          "internalType": "uint256",
          "name": "",
          "type": "uint256"
        }
      ],
      "name": "disputeIDtoTransactionID",
      "outputs": [
        {
          "internalType": "uint256",
          "name": "",
          "type": "uint256"
        }
      ],
      "stateMutability": "view",
      "type": "function"
    },
    {
      "inputs": [
        {
          "internalType": "uint256",
          "name": "_transactionID",
          "type": "uint256"
        }
      ],
      "name": "executeTransaction",
      "outputs": [],
      "stateMutability": "nonpayable",
      "type": "function"
    },
    {
      "inputs": [],
      "name": "feeTimeout",
      "outputs": [
        {
          "internalType": "uint256",
          "name": "",
          "type": "uint256"
        }
      ],
      "stateMutability": "view",
      "type": "function"
    },
    {
      "inputs": [],
      "name": "getCountTransactions",
      "outputs": [
        {
          "internalType": "uint256",
          "name": "countTransactions",
          "type": "uint256"
        }
      ],
      "stateMutability": "view",
      "type": "function"
    },
    {
      "inputs": [
        {
          "internalType": "address",
          "name": "_address",
          "type": "address"
        }
      ],
      "name": "getTransactionIDsByAddress",
      "outputs": [
        {
          "internalType": "uint256[]",
          "name": "transactionIDs",
          "type": "uint256[]"
        }
      ],
      "stateMutability": "view",
      "type": "function"
    },
    {
      "inputs": [
        {
          "internalType": "uint256",
          "name": "_transactionID",
          "type": "uint256"
        },
        {
          "internalType": "uint256",
          "name": "_amount",
          "type": "uint256"
        }
      ],
      "name": "pay",
      "outputs": [],
      "stateMutability": "nonpayable",
      "type": "function"
    },
    {
      "inputs": [
        {
          "internalType": "uint256",
          "name": "_transactionID",
          "type": "uint256"
        }
      ],
      "name": "payArbitrationFeeByReceiver",
      "outputs": [],
      "stateMutability": "payable",
      "type": "function"
    },
    {
      "inputs": [
        {
          "internalType": "uint256",
          "name": "_transactionID",
          "type": "uint256"
        }
      ],
      "name": "payArbitrationFeeBySender",
      "outputs": [],
      "stateMutability": "payable",
      "type": "function"
    },
    {
      "inputs": [
        {
          "internalType": "uint256",
          "name": "_transactionID",
          "type": "uint256"
        },
        {
          "internalType": "uint256",
          "name": "_amountReimbursed",
          "type": "uint256"
        }
      ],
      "name": "reimburse",
      "outputs": [],
      "stateMutability": "nonpayable",
      "type": "function"
    },
    {
      "inputs": [
        {
          "internalType": "uint256",
          "name": "_disputeID",
          "type": "uint256"
        },
        {
          "internalType": "uint256",
          "name": "_ruling",
          "type": "uint256"
        }
      ],
      "name": "rule",
      "outputs": [],
      "stateMutability": "nonpayable",
      "type": "function"
    },
    {
      "inputs": [
        {
          "internalType": "address",
          "name": "_jobRegistryAddress",
          "type": "address"
        }
      ],
      "name": "setJobRegistryAddress",
      "outputs": [],
      "stateMutability": "nonpayable",
      "type": "function"
    },
    {
      "inputs": [
        {
          "internalType": "uint256",
          "name": "_transactionID",
          "type": "uint256"
        },
        {
          "internalType": "string",
          "name": "_evidence",
          "type": "string"
        }
      ],
      "name": "submitEvidence",
      "outputs": [],
      "stateMutability": "nonpayable",
      "type": "function"
    },
    {
      "inputs": [
        {
          "internalType": "uint256",
          "name": "_transactionID",
          "type": "uint256"
        }
      ],
      "name": "timeOutByReceiver",
      "outputs": [],
      "stateMutability": "nonpayable",
      "type": "function"
    },
    {
      "inputs": [
        {
          "internalType": "uint256",
          "name": "_transactionID",
          "type": "uint256"
        }
      ],
      "name": "timeOutBySender",
      "outputs": [],
      "stateMutability": "nonpayable",
      "type": "function"
    },
    {
      "inputs": [
        {
          "internalType": "uint256",
          "name": "",
          "type": "uint256"
        }
      ],
      "name": "transactions",
      "outputs": [
        {
          "internalType": "address",
          "name": "token",
          "type": "address"
        },
        {
          "components": [
            {
              "internalType": "uint256",
              "name": "jobId",
              "type": "uint256"
            },
            {
              "internalType": "uint256",
              "name": "proposalId",
              "type": "uint256"
            },
            {
              "internalType": "address payable",
              "name": "sender",
              "type": "address"
            },
            {
              "internalType": "address payable",
              "name": "receiver",
              "type": "address"
            },
            {
              "internalType": "uint256",
              "name": "amount",
              "type": "uint256"
            },
            {
              "internalType": "uint256",
              "name": "timeoutPayment",
              "type": "uint256"
            },
            {
              "internalType": "uint256",
              "name": "disputeId",
              "type": "uint256"
            },
            {
              "internalType": "uint256",
              "name": "senderFee",
              "type": "uint256"
            },
            {
              "internalType": "uint256",
              "name": "receiverFee",
              "type": "uint256"
            },
            {
              "internalType": "uint256",
              "name": "lastInteraction",
              "type": "uint256"
            },
            {
              "internalType": "enum TalentLayerMultipleArbitrableTransaction.Status",
              "name": "status",
              "type": "uint8"
            }
          ],
          "internalType": "struct TalentLayerMultipleArbitrableTransaction.Transaction",
          "name": "_transaction",
          "type": "tuple"
        },
        {
          "components": [
            {
              "internalType": "address payable",
              "name": "wallet",
              "type": "address"
            },
            {
              "internalType": "uint256",
              "name": "fee",
              "type": "uint256"
            }
          ],
          "internalType": "struct TalentLayerMultipleArbitrableTransaction.WalletFee",
          "name": "adminFee",
          "type": "tuple"
        }
      ],
      "stateMutability": "view",
      "type": "function"
    }
  ],
  "bytecode": "0x60806040523480156200001157600080fd5b506040516200301638038062003016833981016040819052620000349162000162565b600480546001600160a01b0319166001600160a01b038616179055600280546001600160a01b0319166001600160a01b03851617905581516200007f9060019060208501906200008d565b5060035550620002af915050565b8280546200009b9062000272565b90600052602060002090601f016020900481019282620000bf57600085556200010a565b82601f10620000da57805160ff19168380011785556200010a565b828001600101855582156200010a579182015b828111156200010a578251825591602001919060010190620000ed565b50620001189291506200011c565b5090565b5b808211156200011857600081556001016200011d565b6001600160a01b03811681146200014957600080fd5b50565b634e487b7160e01b600052604160045260246000fd5b600080600080608085870312156200017957600080fd5b8451620001868162000133565b809450506020808601516200019b8162000133565b60408701519094506001600160401b0380821115620001b957600080fd5b818801915088601f830112620001ce57600080fd5b815181811115620001e357620001e36200014c565b604051601f8201601f19908116603f011681019083821181831017156200020e576200020e6200014c565b816040528281528b868487010111156200022757600080fd5b600093505b828410156200024b57848401860151818501870152928501926200022c565b828411156200025d5760008684830101525b60609a909a0151989b979a5050505050505050565b600181811c908216806200028757607f821691505b60208210811415620002a957634e487b7160e01b600052602260045260246000fd5b50919050565b612d5780620002bf6000396000f3fe60806040526004361061011f5760003560e01c8063a527aa6a116100a0578063ee22610b11610064578063ee22610b1461031a578063ef48eee61461033a578063f42cadc11461035a578063f94cdf961461037a578063fe43a992146103a757600080fd5b8063a527aa6a146102a9578063a6a7f0eb146102be578063b329036b146102de578063be6aab9d146102f4578063e593e8681461030757600080fd5b80636cc6cde1116100e75780636cc6cde1146102095780636e72b452146102415780637b44cdb5146102545780637e69b7b0146102675780639ace38c21461027a57600080fd5b80630c7ac7b6146101245780631c7be4dc1461014f5780632fbe3b031461018e578063311a6c56146101c95780633de0c7ef146101e9575b600080fd5b34801561013057600080fd5b506101396103c7565b6040516101469190612620565b60405180910390f35b34801561015b57600080fd5b5061018c61016a366004612652565b600480546001600160a01b0319166001600160a01b0392909216919091179055565b005b34801561019a57600080fd5b506101bb6101a936600461266f565b60056020526000908152604090205481565b604051908152602001610146565b3480156101d557600080fd5b5061018c6101e4366004612688565b610455565b3480156101f557600080fd5b5061018c61020436600461266f565b6105b5565b34801561021557600080fd5b50600254610229906001600160a01b031681565b6040516001600160a01b039091168152602001610146565b61018c61024f36600461266f565b6106c8565b61018c61026236600461266f565b6108fb565b61018c61027536600461266f565b610b10565b34801561028657600080fd5b5061029a61029536600461266f565b610ba5565b604051610146939291906126d4565b3480156102b557600080fd5b506000546101bb565b3480156102ca57600080fd5b5061018c6102d936600461284c565b610cad565b3480156102ea57600080fd5b506101bb60035481565b6101bb610302366004612893565b610e31565b6101bb61031536600461294f565b610fa1565b34801561032657600080fd5b5061018c61033536600461266f565b611033565b34801561034657600080fd5b5061018c610355366004612688565b611152565b34801561036657600080fd5b5061018c61037536600461266f565b611389565b34801561038657600080fd5b5061039a610395366004612652565b61149a565b60405161014691906129f7565b3480156103b357600080fd5b5061018c6103c2366004612688565b611669565b600180546103d490612a3b565b80601f016020809104026020016040519081016040528092919081815260200182805461040090612a3b565b801561044d5780601f106104225761010080835404028352916020019161044d565b820191906000526020600020905b81548152906001019060200180831161043057829003601f168201915b505050505081565b600082815260056020526040812054815490919081908390811061047b5761047b612a76565b60009182526020909120600254600e9092020191506001600160a01b031633146104f75760405162461bcd60e51b815260206004820152602260248201527f5468652063616c6c6572206d757374206265207468652061726269747261746f604482015261391760f11b60648201526084015b60405180910390fd5b6003600b82015460ff166004811115610512576105126126aa565b1461056e5760405162461bcd60e51b815260206004820152602660248201527f54686520646973707574652068617320616c7265616479206265656e2072657360448201526537b63b32b21760d11b60648201526084016104ee565b604051838152849033907f394027a5fa6e098a1191094d1719d6929b9abc535fcc0c8f448d6a4e756222769060200160405180910390a36105af828461180b565b50505050565b60008082815481106105c9576105c9612a76565b60009182526020909120600e9091020190506001600b82015460ff1660048111156105f6576105f66126aa565b146106595760405162461bcd60e51b815260206004820152602d60248201527f546865207472616e73616374696f6e206973206e6f742077616974696e67206f60448201526c37103a34329039b2b73232b91760991b60648201526084016104ee565b600354600a82015461066b9042612aa2565b10156106b95760405162461bcd60e51b815260206004820181905260248201527f54696d656f75742074696d6520686173206e6f7420706173736564207965742e60448201526064016104ee565b6106c482600261180b565b5050565b60008082815481106106dc576106dc612a76565b60009182526020822060025460405163f7434ea960e01b8152600e90930290910193506001600160a01b03169063f7434ea99061071e90600190600401612b59565b60206040518083038186803b15801561073657600080fd5b505afa15801561074a573d6000803e3d6000fd5b505050506040513d601f19601f8201168201806040525081019061076e9190612b6c565b90506003600b83015460ff16600481111561078b5761078b6126aa565b106107a85760405162461bcd60e51b81526004016104ee90612b85565b60048201546001600160a01b031633146108045760405162461bcd60e51b815260206004820181905260248201527f5468652063616c6c6572206d757374206265207468652072656365697665722e60448201526064016104ee565b3482600101600801600082825461081b9190612bf9565b9091555050600982015481111561088b5760405162461bcd60e51b815260206004820152602e60248201527f54686520726563656976657220666565206d75737420636f766572206172626960448201526d3a3930ba34b7b71031b7b9ba399760911b60648201526084016104ee565b42600a83015560088201548111156108ec57600b8201805460ff1916600117905560405183907fc74b9f7dedf2887cd3c113b6d8da9cea19e55c1116e25f1f0e1b72d7543179b5906108df90600090612c11565b60405180910390a2505050565b6108f68382611d01565b505050565b600080828154811061090f5761090f612a76565b60009182526020822060025460405163f7434ea960e01b8152600e90930290910193506001600160a01b03169063f7434ea99061095190600190600401612b59565b60206040518083038186803b15801561096957600080fd5b505afa15801561097d573d6000803e3d6000fd5b505050506040513d601f19601f820116820180604052508101906109a19190612b6c565b90506003600b83015460ff1660048111156109be576109be6126aa565b106109db5760405162461bcd60e51b81526004016104ee90612b85565b60038201546001600160a01b03163314610a375760405162461bcd60e51b815260206004820152601e60248201527f5468652063616c6c6572206d757374206265207468652073656e6465722e000060448201526064016104ee565b34826001016007016000828254610a4e9190612bf9565b90915550506008820154811115610abc5760405162461bcd60e51b815260206004820152602c60248201527f5468652073656e64657220666565206d75737420636f7665722061726269747260448201526b30ba34b7b71031b7b9ba399760a11b60648201526084016104ee565b42600a83015560098201548111156108ec57600b8201805460ff1916600217905560405183907fc74b9f7dedf2887cd3c113b6d8da9cea19e55c1116e25f1f0e1b72d7543179b5906108df90600190612c11565b6000808281548110610b2457610b24612a76565b60009182526020909120600254600e90920201600781015460405163093225f160e31b81529193506001600160a01b03909216916349912f88913491610b6f91600190600401612c2b565b6000604051808303818588803b158015610b8857600080fd5b505af1158015610b9c573d6000803e3d6000fd5b50505050505050565b60008181548110610bb557600080fd5b6000918252602091829020600e9091020180546040805161016081018252600184018054825260028501549582019590955260038401546001600160a01b03908116928201929092526004808501548316606083015260058501546080830152600685015460a0830152600785015460c0830152600885015460e08301526009850154610100830152600a850154610120830152600b85015492909316955092939161014084019160ff1690811115610c7057610c706126aa565b6004811115610c8157610c816126aa565b90525060408051808201909152600c8301546001600160a01b03168152600d9092015460208301529083565b6000808381548110610cc157610cc1612a76565b60009182526020909120600e9091020160038101549091506001600160a01b0316331480610cfb575060048101546001600160a01b031633145b610d5e5760405162461bcd60e51b815260206004820152602e60248201527f5468652063616c6c6572206d757374206265207468652073656e646572206f7260448201526d103a3432903932b1b2b4bb32b91760911b60648201526084016104ee565b6004600b82015460ff166004811115610d7957610d796126aa565b10610de15760405162461bcd60e51b815260206004820152603260248201527f4d757374206e6f742073656e642065766964656e63652069662074686520646960448201527139b83aba329034b9903932b9b7b63b32b21760711b60648201526084016104ee565b600254604051339185916001600160a01b03909116907fdccf2f8b2cc26eafcd61905cba744cff4b81d14740725f6376390dc6298a6a3c90610e24908790612620565b60405180910390a4505050565b6040516323b872dd60e01b81523360048201523060248201526044810187905260009086906001600160a01b038216906323b872dd90606401602060405180830381600087803b158015610e8457600080fd5b505af1158015610e98573d6000803e3d6000fd5b505050506040513d601f19601f82011682018060405250810190610ebc9190612c44565b610f1c5760405162461bcd60e51b815260206004820152602b60248201527f53656e64657220646f6573206e6f74206861766520656e6f756768206170707260448201526a37bb32b210333ab732399760a91b60648201526084016104ee565b34610f278680612bf9565b14610f7f5760405162461bcd60e51b815260206004820152602260248201527f4665657320646f6e2774206d61746368207769746820706179656420616d6f756044820152611b9d60f21b60648201526084016104ee565b610f918c8c8c8c8c8c8c8c8c8c611ef9565b9c9b505050505050505050505050565b600034610fae8588612bf9565b146110125760405162461bcd60e51b815260206004820152602e60248201527f46656573206f7220616d6f756e747320646f6e2774206d61746368207769746860448201526d103830bcb2b21030b6b7bab73a1760911b60648201526084016104ee565b6110258a8a8a8a8a60008b8b8b8b611ef9565b9a9950505050505050505050565b600080828154811061104757611047612a76565b90600052602060002090600e0201905080600101600501548160010160090154426110729190612aa2565b10156110c05760405162461bcd60e51b815260206004820152601f60248201527f5468652074696d656f757420686173206e6f7420706173736564207965742e0060448201526064016104ee565b6000600b82015460ff1660048111156110db576110db6126aa565b146110f85760405162461bcd60e51b81526004016104ee90612c66565b60048101546005820154825460408051808201909152600381526270617960e81b60208201526111419386936001600160a01b039182169390926000929091161515908261221e565b600b01805460ff1916600417905550565b600080838154811061116657611166612a76565b600091825260209091206003600e90920201908101549091506001600160a01b031633146111d65760405162461bcd60e51b815260206004820152601e60248201527f5468652063616c6c6572206d757374206265207468652073656e6465722e000060448201526064016104ee565b6000600b82015460ff1660048111156111f1576111f16126aa565b1461120e5760405162461bcd60e51b81526004016104ee90612c66565b600581015482111561128a576040805162461bcd60e51b81526020600482015260248101919091527f54686520616d6f756e7420706169642068617320746f206265206c657373207460448201527f68616e206f7220657175616c20746f20746865207472616e73616374696f6e2e60648201526084016104ee565b600481015460058201546112e49185916001600160a01b039091169085906112b3908290612aa2565b855460408051808201909152600381526270617960e81b60208201526001600160a01b03909116151590600161221e565b60058101546108f657600480546001830154604051631271956760e21b8152928301526001600160a01b0316906349c6559c90602401600060405180830381600087803b15801561133457600080fd5b505af1158015611348573d6000803e3d6000fd5b5050505060018101546040519081527f6bef1b5e95b741d6e665eb9b5c2d3e1203c46a771451055a9d41e0b8ff4510b79060200160405180910390a1505050565b600080828154811061139d5761139d612a76565b60009182526020909120600e9091020190506002600b82015460ff1660048111156113ca576113ca6126aa565b1461142f5760405162461bcd60e51b815260206004820152602f60248201527f546865207472616e73616374696f6e206973206e6f742077616974696e67206f60448201526e37103a3432903932b1b2b4bb32b91760891b60648201526084016104ee565b600354600a8201546114419042612aa2565b101561148f5760405162461bcd60e51b815260206004820181905260248201527f54696d656f75742074696d6520686173206e6f7420706173736564207965742e60448201526064016104ee565b6106c482600161180b565b60606000805b60005481101561154c57836001600160a01b0316600082815481106114c7576114c7612a76565b600091825260209091206003600e9092020101546001600160a01b031614806115275750836001600160a01b03166000828154811061150857611508612a76565b600091825260209091206004600e9092020101546001600160a01b0316145b1561153a578161153681612cac565b9250505b8061154481612cac565b9150506114a0565b508067ffffffffffffffff811115611566576115666127a9565b60405190808252806020026020018201604052801561158f578160200160208202803683370190505b5091506000905060005b60005481101561166257836001600160a01b0316600082815481106115c0576115c0612a76565b600091825260209091206003600e9092020101546001600160a01b031614806116205750836001600160a01b03166000828154811061160157611601612a76565b600091825260209091206004600e9092020101546001600160a01b0316145b156116505780838361163181612cac565b94508151811061164357611643612a76565b6020026020010181815250505b8061165a81612cac565b915050611599565b5050919050565b600080838154811061167d5761167d612a76565b600091825260209091206004600e90920201908101549091506001600160a01b031633146116ed5760405162461bcd60e51b815260206004820181905260248201527f5468652063616c6c6572206d757374206265207468652072656365697665722e60448201526064016104ee565b6000600b82015460ff166004811115611708576117086126aa565b146117255760405162461bcd60e51b81526004016104ee90612c66565b60058101548211156117ab5760405162461bcd60e51b815260206004820152604360248201527f54686520616d6f756e74207265696d6275727365642068617320746f2062652060448201527f6c657373206f7220657175616c207468616e20746865207472616e736163746960648201526237b71760e91b608482015260a4016104ee565b600381015460058201546108f69185916001600160a01b039091169085906117d4908290612aa2565b85546040805180820190915260098152687265696d627572736560b81b60208201526001600160a01b03909116151590600161221e565b600080838154811061181f5761181f612a76565b90600052602060002090600e02019050600260ff168211156118755760405162461bcd60e51b815260206004820152600f60248201526e24b73b30b634b210393ab634b7339760891b60448201526064016104ee565b60018214156119fc576003810154600582015460088301546001600160a01b03909216916108fc916118a691612bf9565b6040518115909202916000818181858888f193505050501580156118ce573d6000803e3d6000fd5b50604080516060808201835283546001600160a01b0390811683528351610160810185526001860180548252600287015460208381019190915260038801548416968301969096526004808801549093169382019390935260058601546080820152600686015460a0820152600786015460c0820152600886015460e08201526009860154610100820152600a860154610120820152600b8601546119f795879490860193909161014084019160ff90911690811115611990576119906126aa565b60048111156119a1576119a16126aa565b9052508152604080518082018252600c8401546001600160a01b03168152600d9093015460208481019190915291820192909252815180830190925260098252687265696d627572736560b81b908201526123b7565b611cda565b6002821415611b78576004810154600582015460098301546001600160a01b03909216916108fc91611a2d91612bf9565b6040518115909202916000818181858888f19350505050158015611a55573d6000803e3d6000fd5b50604080516060808201835283546001600160a01b0390811683528351610160810185526001860180548252600287015460208381019190915260038801548416968301969096526004808801549093169382019390935260058601546080820152600686015460a0820152600786015460c0820152600886015460e08201526009860154610100820152600a860154610120820152600b8601546119f795879490860193909161014084019160ff90911690811115611b1757611b176126aa565b6004811115611b2857611b286126aa565b9052508152604080518082018252600c8401546001600160a01b03168152600d90930154602084810191909152918201929092528151808301909252600382526270617960e81b908201526123b7565b60058101546008820154600091600291611b929190612bf9565b611b9c9190612cc7565b60038301546040519192506001600160a01b03169082156108fc029083906000818181858888f19350505050158015611bd9573d6000803e3d6000fd5b5060048201546040516001600160a01b039091169082156108fc029083906000818181858888f19350505050158015611c16573d6000803e3d6000fd5b50604080516060808201835284546001600160a01b0390811683528351610160810185526001870180548252600288015460208381019190915260038901548416968301969096526004808901549093169382019390935260058701546080820152600687015460a0820152600787015460c0820152600887015460e08201526009870154610100820152600a870154610120820152600b870154611cd895889490860193909161014084019160ff90911690811115611990576119906126aa565b505b600060058201819055600882018190556009820155600b01805460ff191660041790555050565b6000808381548110611d1557611d15612a76565b60009182526020909120600b600e90920201908101805460ff191660031790556002805460405163c13517e160e01b81529293506001600160a01b03169163c13517e1918591611d6b9190600190600401612ce9565b6020604051808303818588803b158015611d8457600080fd5b505af1158015611d98573d6000803e3d6000fd5b50505050506040513d601f19601f82011682018060405250810190611dbd9190612b6c565b600782018181556000918252600560205260409182902085905554600254915190916001600160a01b0316907f74baab670a4015ab2f1b467c5252a96141a2573f2908e58a92081e80d3cfde3d90611e219087908190918252602082015260400190565b60405180910390a36008810154821015611e8f576008810154600090611e48908490612aa2565b6008830184905560038301546040519192506001600160a01b03169082156108fc029083906000818181858888f19350505050158015611e8c573d6000803e3d6000fd5b50505b60098101548210156108f6576009810154600090611eae908490612aa2565b6009830184905560048301546040519192506001600160a01b03169082156108fc029083906000818181858888f19350505050158015611ef2573d6000803e3d6000fd5b5050505050565b604080518082019091526001600160a01b03851681526020810184905260009081611f2685858e8e61246c565b9050888160800181815250508c8160a0018181525050600060405180606001604052808a6001600160a01b0316815260200183815260200184815250905060008190806001815401808255809150506001900390600052602060002090600e020160009091909190915060008201518160000160006101000a8154816001600160a01b0302191690836001600160a01b03160217905550602082015181600101600082015181600001556020820151816001015560408201518160020160006101000a8154816001600160a01b0302191690836001600160a01b0316021790555060608201518160030160006101000a8154816001600160a01b0302191690836001600160a01b031602179055506080820151816004015560a0820151816005015560c0820151816006015560e082015181600701556101008201518160080155610120820151816009015561014082015181600a0160006101000a81548160ff0219169083600481111561209d5761209d6126aa565b02179055505050604091909101518051600c830180546001600160a01b0319166001600160a01b0390921691909117905560200151600d909101556000546120e790600190612aa2565b7f61606860eb6c87306811e2695215385101daab53bd6ab4e9f9049aead9363c7d8c6040516121169190612620565b60405180910390a26004546000546001600160a01b039091169063a7d5eaea908890889061214690600190612aa2565b6040516001600160e01b031960e086901b168152600481019390935260248301919091526044820152606401600060405180830381600087803b15801561218c57600080fd5b505af11580156121a0573d6000803e3d6000fd5b505050507f3a51b63d439ceb0c1cd9c4e2fd20a89a89cd3cf28aeebeccdb6dd55d2a1915c186868760016000805490506121da9190612aa2565b60408051948552602085019390935291830152606082015260800160405180910390a160005461220c90600190612aa2565b9e9d5050505050505050505050505050565b600080888154811061223257612232612a76565b90600052602060002090600e02019050831561232d57805460405163a9059cbb60e01b81526001600160a01b038981166004830152602482018990529091169063a9059cbb90604401602060405180830381600087803b15801561229557600080fd5b505af11580156122a9573d6000803e3d6000fd5b505050506040513d601f19601f820116820180604052508101906122cd9190612c44565b6123285760405162461bcd60e51b815260206004820152602660248201527f54686520607472616e73666572602066756e6374696f6e206d757374206e6f74604482015265103330b4b61760d11b60648201526084016104ee565b612365565b6040516001600160a01b0388169087156108fc029088906000818181858888f19350505050158015612363573d6000803e3d6000fd5b505b6005810185905581156123ad576040805187815233602082015289917fd1432ca9a38d944f01b256a411861b109bc4bfe200c40d7144e919a16b86a8a8910160405180910390a25b5050505050505050565b6123dc816040518060400160405280600381526020016270617960e81b8152506124f3565b1561242357604080830151805160209091015191516001600160a01b039091169180156108fc02916000818181858888f193505050501580156108f6573d6000803e3d6000fd5b8160200151604001516001600160a01b03166108fc8360400151602001519081150290604051600060405180830381858888f193505050501580156108f6573d6000803e3d6000fd5b61247461254c565b604051806101600160405280868152602001858152602001846001600160a01b03168152602001836001600160a01b031681526020016000815260200160008152602001600081526020016000815260200160008152602001428152602001600060048111156124e6576124e66126aa565b905290505b949350505050565b6000816040516020016125069190612d05565b604051602081830303815290604052805190602001208360405160200161252d9190612d05565b6040516020818303038152906040528051906020012014905092915050565b604051806101600160405280600081526020016000815260200160006001600160a01b0316815260200160006001600160a01b03168152602001600081526020016000815260200160008152602001600081526020016000815260200160008152602001600060048111156125c3576125c36126aa565b905290565b60005b838110156125e35781810151838201526020016125cb565b838111156105af5750506000910152565b6000815180845261260c8160208601602086016125c8565b601f01601f19169290920160200192915050565b60208152600061263360208301846125f4565b9392505050565b6001600160a01b038116811461264f57600080fd5b50565b60006020828403121561266457600080fd5b81356126338161263a565b60006020828403121561268157600080fd5b5035919050565b6000806040838503121561269b57600080fd5b50508035926020909101359150565b634e487b7160e01b600052602160045260246000fd5b600581106126d0576126d06126aa565b9052565b60006101c08201905060018060a01b03851682528351602083015260208401516040830152604084015161271360608401826001600160a01b03169052565b5060608401516001600160a01b038116608084015250608084015160a083015260a084015160c083015260c084015160e083015260e08401516101008181850152808601519150506101208181850152808601519150506101408181850152808601519150506127876101608401826126c0565b5082516001600160a01b031661018083015260208301516101a08301526124eb565b634e487b7160e01b600052604160045260246000fd5b600082601f8301126127d057600080fd5b813567ffffffffffffffff808211156127eb576127eb6127a9565b604051601f8301601f19908116603f01168101908282118183101715612813576128136127a9565b8160405283815286602085880101111561282c57600080fd5b836020870160208301376000602085830101528094505050505092915050565b6000806040838503121561285f57600080fd5b82359150602083013567ffffffffffffffff81111561287d57600080fd5b612889858286016127bf565b9150509250929050565b6000806000806000806000806000806101408b8d0312156128b357600080fd5b8a35995060208b01356128c58161263a565b985060408b01356128d58161263a565b975060608b013567ffffffffffffffff8111156128f157600080fd5b6128fd8d828e016127bf565b97505060808b0135955060a08b01356129158161263a565b945060c08b01356129258161263a565b8094505060e08b013592506101008b013591506101208b013590509295989b9194979a5092959850565b60008060008060008060008060006101208a8c03121561296e57600080fd5b8935985060208a01356129808161263a565b975060408a01356129908161263a565b965060608a013567ffffffffffffffff8111156129ac57600080fd5b6129b88c828d016127bf565b96505060808a0135945060a08a01356129d08161263a565b8094505060c08a0135925060e08a013591506101008a013590509295985092959850929598565b6020808252825182820181905260009190848201906040850190845b81811015612a2f57835183529284019291840191600101612a13565b50909695505050505050565b600181811c90821680612a4f57607f821691505b60208210811415612a7057634e487b7160e01b600052602260045260246000fd5b50919050565b634e487b7160e01b600052603260045260246000fd5b634e487b7160e01b600052601160045260246000fd5b600082821015612ab457612ab4612a8c565b500390565b8054600090600181811c9080831680612ad357607f831692505b6020808410821415612af557634e487b7160e01b600052602260045260246000fd5b83885260208801828015612b105760018114612b2157612b4c565b60ff19871682528282019750612b4c565b60008981526020902060005b87811015612b4657815484820152908601908401612b2d565b83019850505b5050505050505092915050565b6020815260006126336020830184612ab9565b600060208284031215612b7e57600080fd5b5051919050565b6020808252604e908201527f446973707574652068617320616c7265616479206265656e206372656174656460408201527f206f72206265636175736520746865207472616e73616374696f6e206861732060608201526d3132b2b71032bc32b1baba32b21760911b608082015260a00190565b60008219821115612c0c57612c0c612a8c565b500190565b6020810160028310612c2557612c256126aa565b91905290565b8281526040602082015260006124eb6040830184612ab9565b600060208284031215612c5657600080fd5b8151801515811461263357600080fd5b60208082526026908201527f546865207472616e73616374696f6e2073686f756c646e277420626520646973604082015265383aba32b21760d11b606082015260800190565b6000600019821415612cc057612cc0612a8c565b5060010190565b600082612ce457634e487b7160e01b600052601260045260246000fd5b500490565b60ff831681526040602082015260006124eb6040830184612ab9565b60008251612d178184602087016125c8565b919091019291505056fea2646970667358221220f1f92bbf6655fcdeed4303910ada0b384d71eef49b25514ef4f3e8fabd2c5f2564736f6c63430008090033",
  "linkReferences": {},
  "deployedLinkReferences": {}
}