{
  "_format": "hh-sol-artifact-1",
  "contractName": "TalentLayerEscrow",
  "sourceName": "contracts/kleros/TalentLayerEscrow.sol",
  "abi": [
    {
      "inputs": [
        {
          "internalType": "address",
          "name": "_serviceRegistryAddress",
          "type": "address"
        },
        {
          "internalType": "address",
          "name": "_talentLayerIDAddress",
          "type": "address"
        },
        {
          "internalType": "address",
          "name": "_talentLayerPlatformIDAddress",
          "type": "address"
        }
      ],
      "stateMutability": "nonpayable",
      "type": "constructor"
    },
    {
      "anonymous": false,
      "inputs": [
        {
          "indexed": true,
          "internalType": "contract Arbitrator",
          "name": "_arbitrator",
          "type": "address"
        },
        {
          "indexed": true,
          "internalType": "uint256",
          "name": "_disputeID",
          "type": "uint256"
        },
        {
          "indexed": false,
          "internalType": "uint256",
          "name": "_metaEvidenceID",
          "type": "uint256"
        },
        {
          "indexed": false,
          "internalType": "uint256",
          "name": "_evidenceGroupID",
          "type": "uint256"
        }
      ],
      "name": "Dispute",
      "type": "event"
    },
    {
      "anonymous": false,
      "inputs": [
        {
          "indexed": true,
          "internalType": "contract Arbitrator",
          "name": "_arbitrator",
          "type": "address"
        },
        {
          "indexed": true,
          "internalType": "uint256",
          "name": "_evidenceGroupID",
          "type": "uint256"
        },
        {
          "indexed": true,
          "internalType": "address",
          "name": "_party",
          "type": "address"
        },
        {
          "indexed": false,
          "internalType": "string",
          "name": "_evidence",
          "type": "string"
        }
      ],
      "name": "Evidence",
      "type": "event"
    },
    {
      "anonymous": false,
      "inputs": [
        {
          "indexed": false,
          "internalType": "uint256",
          "name": "_platformId",
          "type": "uint256"
        },
        {
          "indexed": true,
          "internalType": "address",
          "name": "_token",
          "type": "address"
        },
        {
          "indexed": false,
          "internalType": "uint256",
          "name": "_amount",
          "type": "uint256"
        }
      ],
      "name": "FeesClaimed",
      "type": "event"
    },
    {
      "anonymous": false,
      "inputs": [
        {
          "indexed": true,
          "internalType": "uint256",
          "name": "_serviceId",
          "type": "uint256"
        },
        {
          "indexed": true,
          "internalType": "uint256",
          "name": "_transactionId",
          "type": "uint256"
        },
        {
          "indexed": false,
          "internalType": "enum TalentLayerEscrow.Party",
          "name": "_party",
          "type": "uint8"
        }
      ],
      "name": "HasToPayFee",
      "type": "event"
    },
    {
      "anonymous": false,
      "inputs": [
        {
          "indexed": true,
          "internalType": "uint256",
          "name": "_metaEvidenceID",
          "type": "uint256"
        },
        {
          "indexed": false,
          "internalType": "string",
          "name": "_evidence",
          "type": "string"
        }
      ],
      "name": "MetaEvidence",
      "type": "event"
    },
    {
      "anonymous": false,
      "inputs": [
        {
          "indexed": false,
          "internalType": "uint256",
          "name": "_platformId",
          "type": "uint256"
        },
        {
          "indexed": false,
          "internalType": "uint256",
          "name": "_serviceId",
          "type": "uint256"
        },
        {
          "indexed": true,
          "internalType": "address",
          "name": "_token",
          "type": "address"
        },
        {
          "indexed": false,
          "internalType": "uint256",
          "name": "_amount",
          "type": "uint256"
        }
      ],
      "name": "OriginPlatformFeeReleased",
      "type": "event"
    },
    {
      "anonymous": false,
      "inputs": [
        {
          "indexed": false,
          "internalType": "uint256",
          "name": "_originPlatformFee",
          "type": "uint256"
        }
      ],
      "name": "OriginPlatformFeeUpdated",
      "type": "event"
    },
    {
      "anonymous": false,
      "inputs": [
        {
          "indexed": true,
          "internalType": "address",
          "name": "previousOwner",
          "type": "address"
        },
        {
          "indexed": true,
          "internalType": "address",
          "name": "newOwner",
          "type": "address"
        }
      ],
      "name": "OwnershipTransferred",
      "type": "event"
    },
    {
      "anonymous": false,
      "inputs": [
        {
          "indexed": false,
          "internalType": "enum TalentLayerEscrow.PaymentType",
          "name": "_paymentType",
          "type": "uint8"
        },
        {
          "indexed": false,
          "internalType": "uint256",
          "name": "_amount",
          "type": "uint256"
        },
        {
          "indexed": false,
          "internalType": "address",
          "name": "_token",
          "type": "address"
        },
        {
          "indexed": false,
          "internalType": "uint256",
          "name": "_serviceId",
          "type": "uint256"
        }
      ],
      "name": "Payment",
      "type": "event"
    },
    {
      "anonymous": false,
      "inputs": [
        {
          "indexed": false,
          "internalType": "uint256",
          "name": "_serviceId",
          "type": "uint256"
        }
      ],
      "name": "PaymentCompleted",
      "type": "event"
    },
    {
      "anonymous": false,
      "inputs": [
        {
          "indexed": false,
          "internalType": "uint256",
          "name": "_platformId",
          "type": "uint256"
        },
        {
          "indexed": false,
          "internalType": "uint256",
          "name": "_serviceId",
          "type": "uint256"
        },
        {
          "indexed": true,
          "internalType": "address",
          "name": "_token",
          "type": "address"
        },
        {
          "indexed": false,
          "internalType": "uint256",
          "name": "_amount",
          "type": "uint256"
        }
      ],
      "name": "PlatformFeeReleased",
      "type": "event"
    },
    {
      "anonymous": false,
      "inputs": [
        {
          "indexed": false,
          "internalType": "uint16",
          "name": "_protocolFee",
          "type": "uint16"
        }
      ],
      "name": "ProtocolFeeUpdated",
      "type": "event"
    },
    {
      "anonymous": false,
      "inputs": [
        {
          "indexed": true,
          "internalType": "contract Arbitrator",
          "name": "_arbitrator",
          "type": "address"
        },
        {
          "indexed": true,
          "internalType": "uint256",
          "name": "_disputeID",
          "type": "uint256"
        },
        {
          "indexed": false,
          "internalType": "uint256",
          "name": "_ruling",
          "type": "uint256"
        }
      ],
      "name": "Ruling",
      "type": "event"
    },
    {
      "anonymous": false,
      "inputs": [
        {
          "indexed": false,
          "internalType": "uint256",
          "name": "serviceId",
          "type": "uint256"
        },
        {
          "indexed": false,
          "internalType": "uint256",
          "name": "sellerId",
          "type": "uint256"
        },
        {
          "indexed": false,
          "internalType": "uint256",
          "name": "transactionId",
          "type": "uint256"
        }
      ],
      "name": "ServiceProposalConfirmedWithDeposit",
      "type": "event"
    },
    {
      "anonymous": false,
      "inputs": [
        {
          "indexed": false,
          "internalType": "uint256",
          "name": "_transactionId",
          "type": "uint256"
        },
        {
          "indexed": false,
          "internalType": "address",
          "name": "_sender",
          "type": "address"
        },
        {
          "indexed": false,
          "internalType": "address",
          "name": "_receiver",
          "type": "address"
        },
        {
          "indexed": false,
          "internalType": "address",
          "name": "_token",
          "type": "address"
        },
        {
          "indexed": false,
          "internalType": "uint256",
          "name": "_amount",
          "type": "uint256"
        },
        {
          "indexed": false,
          "internalType": "uint256",
          "name": "_serviceId",
          "type": "uint256"
        },
        {
          "indexed": false,
          "internalType": "uint16",
          "name": "_protocolFee",
          "type": "uint16"
        },
        {
          "indexed": false,
          "internalType": "uint16",
          "name": "_originPlatformFee",
          "type": "uint16"
        },
        {
          "indexed": false,
          "internalType": "uint16",
          "name": "_platformFee",
          "type": "uint16"
        },
        {
          "indexed": false,
          "internalType": "contract Arbitrator",
          "name": "_arbitrator",
          "type": "address"
        },
        {
          "indexed": false,
          "internalType": "bytes",
          "name": "_arbitratorExtraData",
          "type": "bytes"
        },
        {
          "indexed": false,
          "internalType": "uint256",
          "name": "_arbitrationFeeTimeout",
          "type": "uint256"
        }
      ],
      "name": "TransactionCreated",
      "type": "event"
    },
    {
      "inputs": [
        {
          "internalType": "uint256",
          "name": "_transactionId",
          "type": "uint256"
        }
      ],
      "name": "appeal",
      "outputs": [],
      "stateMutability": "payable",
      "type": "function"
    },
    {
      "inputs": [
        {
          "internalType": "uint256",
          "name": "_platformId",
          "type": "uint256"
        },
        {
          "internalType": "address",
          "name": "_tokenAddress",
          "type": "address"
        }
      ],
      "name": "claim",
      "outputs": [],
      "stateMutability": "nonpayable",
      "type": "function"
    },
    {
      "inputs": [
        {
          "internalType": "uint256",
          "name": "_platformId",
          "type": "uint256"
        }
      ],
      "name": "claimAll",
      "outputs": [],
      "stateMutability": "nonpayable",
      "type": "function"
    },
    {
      "inputs": [
        {
          "internalType": "string",
          "name": "_metaEvidence",
          "type": "string"
        },
        {
          "internalType": "uint256",
          "name": "_serviceId",
          "type": "uint256"
        },
        {
          "internalType": "uint256",
          "name": "_proposalId",
          "type": "uint256"
        }
      ],
      "name": "createETHTransaction",
      "outputs": [],
      "stateMutability": "payable",
      "type": "function"
    },
    {
      "inputs": [
        {
          "internalType": "string",
          "name": "_metaEvidence",
          "type": "string"
        },
        {
          "internalType": "uint256",
          "name": "_serviceId",
          "type": "uint256"
        },
        {
          "internalType": "uint256",
          "name": "_proposalId",
          "type": "uint256"
        }
      ],
      "name": "createTokenTransaction",
      "outputs": [],
      "stateMutability": "nonpayable",
      "type": "function"
    },
    {
      "inputs": [
        {
          "internalType": "uint256",
          "name": "",
          "type": "uint256"
        }
      ],
      "name": "disputeIDtoTransactionID",
      "outputs": [
        {
          "internalType": "uint256",
          "name": "",
          "type": "uint256"
        }
      ],
      "stateMutability": "view",
      "type": "function"
    },
    {
      "inputs": [
        {
          "internalType": "address",
          "name": "_token",
          "type": "address"
        }
      ],
      "name": "getClaimableFeeBalance",
      "outputs": [
        {
          "internalType": "uint256",
          "name": "balance",
          "type": "uint256"
        }
      ],
      "stateMutability": "view",
      "type": "function"
    },
    {
      "inputs": [],
      "name": "getProtocolWallet",
      "outputs": [
        {
          "internalType": "address",
          "name": "",
          "type": "address"
        }
      ],
      "stateMutability": "view",
      "type": "function"
    },
    {
      "inputs": [
        {
          "internalType": "uint256",
          "name": "_transactionId",
          "type": "uint256"
        }
      ],
      "name": "getTransactionDetails",
      "outputs": [
        {
          "components": [
            {
              "internalType": "address",
              "name": "sender",
              "type": "address"
            },
            {
              "internalType": "address",
              "name": "receiver",
              "type": "address"
            },
            {
              "internalType": "address",
              "name": "token",
              "type": "address"
            },
            {
              "internalType": "uint256",
              "name": "amount",
              "type": "uint256"
            },
            {
              "internalType": "uint256",
              "name": "serviceId",
              "type": "uint256"
            },
            {
              "internalType": "uint16",
              "name": "protocolFee",
              "type": "uint16"
            },
            {
              "internalType": "uint16",
              "name": "originPlatformFee",
              "type": "uint16"
            },
            {
              "internalType": "uint16",
              "name": "platformFee",
              "type": "uint16"
            },
            {
              "internalType": "uint256",
              "name": "disputeId",
              "type": "uint256"
            },
            {
              "internalType": "uint256",
              "name": "senderFee",
              "type": "uint256"
            },
            {
              "internalType": "uint256",
              "name": "receiverFee",
              "type": "uint256"
            },
            {
              "internalType": "uint256",
              "name": "lastInteraction",
              "type": "uint256"
            },
            {
              "internalType": "enum TalentLayerEscrow.Status",
              "name": "status",
              "type": "uint8"
            },
            {
              "internalType": "contract Arbitrator",
              "name": "arbitrator",
              "type": "address"
            },
            {
              "internalType": "bytes",
              "name": "arbitratorExtraData",
              "type": "bytes"
            },
            {
              "internalType": "uint256",
              "name": "arbitrationFeeTimeout",
              "type": "uint256"
            }
          ],
          "internalType": "struct TalentLayerEscrow.Transaction",
          "name": "transaction",
          "type": "tuple"
        }
      ],
      "stateMutability": "view",
      "type": "function"
    },
    {
      "inputs": [],
      "name": "originPlatformFee",
      "outputs": [
        {
          "internalType": "uint16",
          "name": "",
          "type": "uint16"
        }
      ],
      "stateMutability": "view",
      "type": "function"
    },
    {
      "inputs": [],
      "name": "owner",
      "outputs": [
        {
          "internalType": "address",
          "name": "",
          "type": "address"
        }
      ],
      "stateMutability": "view",
      "type": "function"
    },
    {
      "inputs": [
        {
          "internalType": "uint256",
          "name": "_transactionId",
          "type": "uint256"
        }
      ],
      "name": "payArbitrationFeeByReceiver",
      "outputs": [],
      "stateMutability": "payable",
      "type": "function"
    },
    {
      "inputs": [
        {
          "internalType": "uint256",
          "name": "_transactionId",
          "type": "uint256"
        }
      ],
      "name": "payArbitrationFeeBySender",
      "outputs": [],
      "stateMutability": "payable",
      "type": "function"
    },
    {
      "inputs": [],
      "name": "protocolFee",
      "outputs": [
        {
          "internalType": "uint16",
          "name": "",
          "type": "uint16"
        }
      ],
      "stateMutability": "view",
      "type": "function"
    },
    {
      "inputs": [
        {
          "internalType": "uint256",
          "name": "_transactionId",
          "type": "uint256"
        },
        {
          "internalType": "uint256",
          "name": "_amount",
          "type": "uint256"
        }
      ],
      "name": "reimburse",
      "outputs": [],
      "stateMutability": "nonpayable",
      "type": "function"
    },
    {
      "inputs": [
        {
          "internalType": "uint256",
          "name": "_transactionId",
          "type": "uint256"
        },
        {
          "internalType": "uint256",
          "name": "_amount",
          "type": "uint256"
        }
      ],
      "name": "release",
      "outputs": [],
      "stateMutability": "nonpayable",
      "type": "function"
    },
    {
      "inputs": [],
      "name": "renounceOwnership",
      "outputs": [],
      "stateMutability": "nonpayable",
      "type": "function"
    },
    {
      "inputs": [
        {
          "internalType": "uint256",
          "name": "_disputeID",
          "type": "uint256"
        },
        {
          "internalType": "uint256",
          "name": "_ruling",
          "type": "uint256"
        }
      ],
      "name": "rule",
      "outputs": [],
      "stateMutability": "nonpayable",
      "type": "function"
    },
    {
      "inputs": [
        {
          "internalType": "uint256",
          "name": "_transactionId",
          "type": "uint256"
        },
        {
          "internalType": "string",
          "name": "_evidence",
          "type": "string"
        }
      ],
      "name": "submitEvidence",
      "outputs": [],
      "stateMutability": "nonpayable",
      "type": "function"
    },
    {
      "inputs": [
        {
          "internalType": "uint256",
          "name": "_transactionId",
          "type": "uint256"
        }
      ],
      "name": "timeOutByReceiver",
      "outputs": [],
      "stateMutability": "nonpayable",
      "type": "function"
    },
    {
      "inputs": [
        {
          "internalType": "uint256",
          "name": "_transactionId",
          "type": "uint256"
        }
      ],
      "name": "timeOutBySender",
      "outputs": [],
      "stateMutability": "nonpayable",
      "type": "function"
    },
    {
      "inputs": [
        {
          "internalType": "address",
          "name": "newOwner",
          "type": "address"
        }
      ],
      "name": "transferOwnership",
      "outputs": [],
      "stateMutability": "nonpayable",
      "type": "function"
    },
    {
      "inputs": [
        {
          "internalType": "uint16",
          "name": "_originPlatformFee",
          "type": "uint16"
        }
      ],
      "name": "updateOriginPlatformFee",
      "outputs": [],
      "stateMutability": "nonpayable",
      "type": "function"
    },
    {
      "inputs": [
        {
          "internalType": "uint16",
          "name": "_protocolFee",
          "type": "uint16"
        }
      ],
      "name": "updateProtocolFee",
      "outputs": [],
      "stateMutability": "nonpayable",
      "type": "function"
    },
    {
      "inputs": [
        {
          "internalType": "address payable",
          "name": "_protocolWallet",
          "type": "address"
        }
      ],
      "name": "updateProtocolWallet",
      "outputs": [],
      "stateMutability": "nonpayable",
      "type": "function"
    }
  ],
  "bytecode": "0x60806040523480156200001157600080fd5b506040516200439738038062004397833981016040819052620000349162000145565b6200003f33620000d8565b600380546001600160a01b03199081166001600160a01b038681169190911790925560048054909116848316179055600580549183166001600160b01b031990921691909117601960a21b1761ffff60b01b1916601960b31b179055620000ae6000546001600160a01b031690565b600680546001600160a01b0319166001600160a01b0392909216919091179055506200018f915050565b600080546001600160a01b038381166001600160a01b0319831681178455604051919092169283917f8be0079c531659141344cd1fd0a4f28419497f9722a3daafe3b4186f6b6457e09190a35050565b80516001600160a01b03811681146200014057600080fd5b919050565b6000806000606084860312156200015b57600080fd5b620001668462000128565b9250620001766020850162000128565b9150620001866040850162000128565b90509250925092565b6141f8806200019f6000396000f3fe6080604052600436106101665760003560e01c8063715018a6116100d1578063a6a7f0eb1161008a578063e308a09911610064578063e308a0991461041b578063f2fde38b1461043b578063f42cadc11461045b578063fe43a9921461047b57600080fd5b8063a6a7f0eb146103b9578063b0e21e8a146103d9578063ddd5e1b2146103fb57600080fd5b8063715018a61461032d578063740bd56a146103425780637b44cdb5146103625780637e69b7b0146103755780638363def4146103885780638da5cb5b1461039b57600080fd5b8063366a412011610123578063366a4120146102675780633a5b77fd146102875780633de0c7ef146102bc578063419f648f146102dc5780636930fd2a146102fc5780636e72b4521461031a57600080fd5b8063020624d21461016b5780630a1a47d61461018d5780630fa683d3146101c057806311796434146101ed5780632fbe3b031461021a578063311a6c5614610247575b600080fd5b34801561017757600080fd5b5061018b61018636600461367b565b61049b565b005b34801561019957600080fd5b506101ad6101a83660046136ad565b6104fa565b6040519081526020015b60405180910390f35b3480156101cc57600080fd5b506101e06101db3660046136ca565b610661565b6040516101b79190613765565b3480156101f957600080fd5b50610202610948565b6040516001600160a01b0390911681526020016101b7565b34801561022657600080fd5b506101ad6102353660046136ca565b60076020526000908152604090205481565b34801561025357600080fd5b5061018b610262366004613896565b610962565b34801561027357600080fd5b5061018b610282366004613896565b610ad9565b34801561029357600080fd5b506005546102a990600160b01b900461ffff1681565b60405161ffff90911681526020016101b7565b3480156102c857600080fd5b5061018b6102d73660046136ca565b610de6565b3480156102e857600080fd5b5061018b6102f73660046139ed565b610f4f565b34801561030857600080fd5b5061018b6103173660046136ca565b50565b61018b6103283660046136ca565b6111de565b34801561033957600080fd5b5061018b611419565b34801561034e57600080fd5b5061018b61035d36600461367b565b61142d565b61018b6103703660046136ca565b611485565b61018b6103833660046136ca565b6116a4565b61018b6103963660046139ed565b61174c565b3480156103a757600080fd5b506000546001600160a01b0316610202565b3480156103c557600080fd5b5061018b6103d4366004613a3b565b611a88565b3480156103e557600080fd5b506005546102a990600160a01b900461ffff1681565b34801561040757600080fd5b5061018b610416366004613a82565b611c10565b34801561042757600080fd5b5061018b6104363660046136ad565b611dba565b34801561044757600080fd5b5061018b6104563660046136ad565b611de4565b34801561046757600080fd5b5061018b6104763660046136ca565b611e5a565b34801561048757600080fd5b5061018b610496366004613896565b611fc4565b6104a36122b6565b6005805461ffff60a01b1916600160a01b61ffff8416908102919091179091556040519081527f15189fb9f7333d3c2ac875339ddb50cd49f554b5ed014b4b06111a437ec0b0c5906020015b60405180910390a150565b60003361050f6000546001600160a01b031690565b6001600160a01b0316141561055957506001600160a01b031660009081527fac33ff75c19e70fe83507db0d683fd3465c996598dc972688b7ace676c89077b602052604090205490565b60055460405163aa44caaf60e01b81523360048201526000916001600160a01b03169063aa44caaf9060240160206040518083038186803b15801561059d57600080fd5b505afa1580156105b1573d6000803e3d6000fd5b505050506040513d601f19601f820116820180604052508101906105d59190613ab2565b60055460405162f577a560e81b8152600481018390529192506001600160a01b03169063f577a5009060240160006040518083038186803b15801561061957600080fd5b505afa15801561062d573d6000803e3d6000fd5b5050506000918252506002602090815260408083206001600160a01b0390951683529390529190912054919050565b919050565b604080516102008101825260008082526020820181905291810182905260608082018390526080820183905260a0820183905260c0820183905260e08201839052610100820183905261012082018390526101408201839052610160820183905261018082018390526101a082018390526101c08201526101e0810191909152600154821061070b5760405162461bcd60e51b815260040161070290613acb565b60405180910390fd5b60006001838154811061072057610720613b02565b60009182526020909120600d9091020180549091506001600160a01b0316331480610757575060018101546001600160a01b031633145b6107b45760405162461bcd60e51b815260206004820152602860248201527f596f7520617265206e6f742072656c6174656420746f2074686973207472616e60448201526739b0b1ba34b7b71760c11b6064820152608401610702565b604080516102008101825282546001600160a01b03908116825260018401548116602083015260028401541691810191909152600382015460608201526004808301546080830152600583015461ffff80821660a0850152620100008204811660c08501526401000000009091041660e08301526006830154610100830152600783015461012083015260088301546101408301526009830154610160830152600a830154839161018084019160ff1690811115610874576108746136e3565b6004811115610885576108856136e3565b8152600a82015461010090046001600160a01b03166020820152600b820180546040909201916108b490613b18565b80601f01602080910402602001604051908101604052809291908181526020018280546108e090613b18565b801561092d5780601f106109025761010080835404028352916020019161092d565b820191906000526020600020905b81548152906001019060200180831161091057829003601f168201915b50505050508152602001600c82015481525050915050919050565b60006109526122b6565b506006546001600160a01b031690565b600082815260076020526040812054600180549192918390811061098857610988613b02565b90600052602060002090600d0201905080600a0160019054906101000a90046001600160a01b03166001600160a01b0316336001600160a01b031614610a1b5760405162461bcd60e51b815260206004820152602260248201527f5468652063616c6c6572206d757374206265207468652061726269747261746f604482015261391760f11b6064820152608401610702565b6003600a82015460ff166004811115610a3657610a366136e3565b14610a925760405162461bcd60e51b815260206004820152602660248201527f54686520646973707574652068617320616c7265616479206265656e2072657360448201526537b63b32b21760d11b6064820152608401610702565b604051838152849033907f394027a5fa6e098a1191094d1719d6929b9abc535fcc0c8f448d6a4e756222769060200160405180910390a3610ad38284612310565b50505050565b6001548210610afa5760405162461bcd60e51b815260040161070290613acb565b600060018381548110610b0f57610b0f613b02565b60009182526020909120600d9091020180549091506001600160a01b03163314610b4b5760405162461bcd60e51b815260040161070290613b53565b6000600a82015460ff166004811115610b6657610b666136e3565b14610b835760405162461bcd60e51b815260040161070290613b7b565b8181600301541015610bcd5760405162461bcd60e51b815260206004820152601360248201527224b739bab33334b1b4b2b73a10333ab732399760691b6044820152606401610702565b81816003016000828254610be19190613bd7565b9091555050604080516102008101825282546001600160a01b03908116825260018401548116602083015260028401541691810191909152600382015460608201526004808301546080830152600583015461ffff80821660a0850152620100008204811660c08501526401000000009091041660e08301526006830154610100830152600783015461012083015260088301546101408301526009830154610160830152600a830154610d7f9291849161018084019160ff90911690811115610cad57610cad6136e3565b6004811115610cbe57610cbe6136e3565b8152600a82015461010090046001600160a01b03166020820152600b82018054604090920191610ced90613b18565b80601f0160208091040260200160405190810160405280929190818152602001828054610d1990613b18565b8015610d665780601f10610d3b57610100808354040283529160200191610d66565b820191906000526020600020905b815481529060010190602001808311610d4957829003601f168201915b50505050508152602001600c82015481525050836124c3565b600281015460048201546040517fdaa591b50a981113dacf06d6569df00c5b022da0ee70df9df0dfab17eaa2412992610dc79260009287926001600160a01b03169190613bfe565b60405180910390a1610de1816004015482600301546128fe565b505050565b600060018281548110610dfb57610dfb613b02565b60009182526020909120600d9091020190506001600a82015460ff166004811115610e2857610e286136e3565b14610e8b5760405162461bcd60e51b815260206004820152602d60248201527f546865207472616e73616374696f6e206973206e6f742077616974696e67206f60448201526c37103a34329039b2b73232b91760991b6064820152608401610702565b600c8101546009820154610e9f9042613bd7565b1015610eed5760405162461bcd60e51b815260206004820181905260248201527f54696d656f75742074696d6520686173206e6f7420706173736564207965742e6044820152606401610702565b600781015415610f4057600781018054600091829055825460405191926001600160a01b039091169183156108fc0291849190818181858888f19350505050158015610f3d573d6000803e3d6000fd5b50505b610f4b826002612310565b5050565b610f57613553565b610f5f61358c565b600080610f6c868661299e565b60055460e0840151604051630b7a459360e31b8152600481019190915294985092965090945092506000916001600160a01b0390911690635bd22c989060240160006040518083038186803b158015610fc457600080fd5b505afa158015610fd8573d6000803e3d6000fd5b505050506040513d6000823e601f3d908101601f191682016040526110009190810190613c93565b9050600061101a8660600151836060015161ffff16612ae2565b9050600485516004811115611031576110316136e3565b146110795760405162461bcd60e51b815260206004820152601860248201527729b2b93b34b1b29039ba30ba3ab9903737ba1037b832b71760411b6044820152606401610702565b60008651600281111561108e5761108e6136e3565b146110db5760405162461bcd60e51b815260206004820152601c60248201527f50726f706f73616c20737461747573206e6f742070656e64696e672e000000006044820152606401610702565b868660200151146111275760405162461bcd60e51b815260206004820152601660248201527524b731b7b93932b1ba10383937b837b9b0b61024a21760511b6044820152606401610702565b60006111478989856060015186608001518760a001518860c00151612b50565b6003546040516353eaf57560e11b8152600481018c9052602481018b9052604481018390529192506001600160a01b03169063a7d5eaea90606401600060405180830381600087803b15801561119c57600080fd5b505af11580156111b0573d6000803e3d6000fd5b505050506111c385886040015184612dec565b6111d2818b8960200151612eba565b50505050505050505050565b6000600182815481106111f3576111f3613b02565b600091825260208220600d9190910201600a81015460405163f7434ea960e01b815291935061010090046001600160a01b03169063f7434ea99061123e90600b860190600401613e21565b60206040518083038186803b15801561125657600080fd5b505afa15801561126a573d6000803e3d6000fd5b505050506040513d601f19601f8201168201806040525081019061128e9190613ab2565b90506003600a83015460ff1660048111156112ab576112ab6136e3565b106112c85760405162461bcd60e51b815260040161070290613e34565b60018201546001600160a01b031633146113245760405162461bcd60e51b815260206004820181905260248201527f5468652063616c6c6572206d757374206265207468652072656365697665722e6044820152606401610702565b348260080160008282546113389190613ea8565b909155505060088201548111156113a85760405162461bcd60e51b815260206004820152602e60248201527f54686520726563656976657220666565206d75737420636f766572206172626960448201526d3a3930ba34b7b71031b7b9ba399760911b6064820152608401610702565b426009830155600782015481111561140f57600a8201805460ff1916600117905560048201546040518491907f664a4d49b8abc554cae040cd0fd3e9450da339cb935bd4cbe697db5697571cee9061140290600090613ec0565b60405180910390a3505050565b610de1838261300a565b6114216122b6565b61142b600061321d565b565b6114356122b6565b6005805461ffff60b01b1916600160b01b61ffff8416908102919091179091556040519081527f3f96e18595b70057673fcff754fcba8d558da96a28e6476a8a13a1b7e6f2057a906020016104ef565b60006001828154811061149a5761149a613b02565b600091825260208220600d9190910201600a81015460405163f7434ea960e01b815291935061010090046001600160a01b03169063f7434ea9906114e590600b860190600401613e21565b60206040518083038186803b1580156114fd57600080fd5b505afa158015611511573d6000803e3d6000fd5b505050506040513d601f19601f820116820180604052508101906115359190613ab2565b90506003600a83015460ff166004811115611552576115526136e3565b1061156f5760405162461bcd60e51b815260040161070290613e34565b81546001600160a01b031633146115c85760405162461bcd60e51b815260206004820152601e60248201527f5468652063616c6c6572206d757374206265207468652073656e6465722e00006044820152606401610702565b348260070160008282546115dc9190613ea8565b9091555050600782015481111561164a5760405162461bcd60e51b815260206004820152602c60248201527f5468652073656e64657220666565206d75737420636f7665722061726269747260448201526b30ba34b7b71031b7b9ba399760a11b6064820152608401610702565b426009830155600882015481111561140f57600a8201805460ff1916600217905560048201546040518491907f664a4d49b8abc554cae040cd0fd3e9450da339cb935bd4cbe697db5697571cee9061140290600190613ec0565b6000600182815481106116b9576116b9613b02565b90600052602060002090600d0201905080600a0160019054906101000a90046001600160a01b03166001600160a01b03166349912f8834836006015484600b016040518463ffffffff1660e01b8152600401611716929190613ed3565b6000604051808303818588803b15801561172f57600080fd5b505af1158015611743573d6000803e3d6000fd5b50505050505050565b611754613553565b61175c61358c565b600080611769868661299e565b60055460e0840151604051630b7a459360e31b8152600481019190915294985092965090945092506000916001600160a01b0390911690635bd22c989060240160006040518083038186803b1580156117c157600080fd5b505afa1580156117d5573d6000803e3d6000fd5b505050506040513d6000823e601f3d908101601f191682016040526117fd9190810190613c93565b905060006118178660600151836060015161ffff16612ae2565b9050336001600160a01b038516146118415760405162461bcd60e51b815260040161070290613b53565b8034146118865760405162461bcd60e51b81526020600482015260136024820152722737b716b6b0ba31b434b73390333ab732399760691b6044820152606401610702565b60408601516001600160a01b0316156118e15760405162461bcd60e51b815260206004820152601760248201527f50726f706f73616c20746f6b656e206e6f74204554482e0000000000000000006044820152606401610702565b8686602001511461192d5760405162461bcd60e51b815260206004820152601660248201527524b731b7b93932b1ba10383937b837b9b0b61024a21760511b6044820152606401610702565b600485516004811115611942576119426136e3565b1461198a5760405162461bcd60e51b815260206004820152601860248201527729b2b93b34b1b29039ba30ba3ab9903737ba1037b832b71760411b6044820152606401610702565b60008651600281111561199f5761199f6136e3565b146119ec5760405162461bcd60e51b815260206004820152601c60248201527f50726f706f73616c20737461747573206e6f742070656e64696e672e000000006044820152606401610702565b6000611a0c8989856060015186608001518760a001518860c00151612b50565b6003546040516353eaf57560e11b8152600481018c9052602481018b9052604481018390529192506001600160a01b03169063a7d5eaea90606401600060405180830381600087803b158015611a6157600080fd5b505af1158015611a75573d6000803e3d6000fd5b505050506111d2818b8960200151612eba565b600060018381548110611a9d57611a9d613b02565b60009182526020909120600d9091020180549091506001600160a01b0316331480611ad4575060018101546001600160a01b031633145b611b375760405162461bcd60e51b815260206004820152602e60248201527f5468652063616c6c6572206d757374206265207468652073656e646572206f7260448201526d103a3432903932b1b2b4bb32b91760911b6064820152608401610702565b6004600a82015460ff166004811115611b5257611b526136e3565b10611bba5760405162461bcd60e51b815260206004820152603260248201527f4d757374206e6f742073656e642065766964656e63652069662074686520646960448201527139b83aba329034b9903932b9b7b63b32b21760711b6064820152608401610702565b600a810154604051339185916101009091046001600160a01b0316907fdccf2f8b2cc26eafcd61905cba744cff4b81d14740725f6376390dc6298a6a3c90611c03908790613eec565b60405180910390a4505050565b600033611c256000546001600160a01b031690565b6001600160a01b03161415611c64578215611c525760405162461bcd60e51b815260040161070290613b53565b506006546001600160a01b0316611d3e565b60055460405162f577a560e81b8152600481018590526001600160a01b039091169063f577a5009060240160006040518083038186803b158015611ca757600080fd5b505afa158015611cbb573d6000803e3d6000fd5b50506005546040516331a9108f60e11b8152600481018790526001600160a01b039091169250636352211e915060240160206040518083038186803b158015611d0357600080fd5b505afa158015611d17573d6000803e3d6000fd5b505050506040513d601f19601f82011682018060405250810190611d3b9190613eff565b90505b60008381526002602090815260408083206001600160a01b038616845290915281208054919055611d7082848361326d565b60408051858152602081018390526001600160a01b038516917f2227733fc4c8a9034cb58087dcf6995128b9c0233b038b03366aaf30c92b92d6910160405180910390a250505050565b611dc26122b6565b600680546001600160a01b0319166001600160a01b0392909216919091179055565b611dec6122b6565b6001600160a01b038116611e515760405162461bcd60e51b815260206004820152602660248201527f4f776e61626c653a206e6577206f776e657220697320746865207a65726f206160448201526564647265737360d01b6064820152608401610702565b6103178161321d565b600060018281548110611e6f57611e6f613b02565b60009182526020909120600d9091020190506002600a82015460ff166004811115611e9c57611e9c6136e3565b14611f015760405162461bcd60e51b815260206004820152602f60248201527f546865207472616e73616374696f6e206973206e6f742077616974696e67206f60448201526e37103a3432903932b1b2b4bb32b91760891b6064820152608401610702565b600c8101546009820154611f159042613bd7565b1015611f635760405162461bcd60e51b815260206004820181905260248201527f54696d656f75742074696d6520686173206e6f7420706173736564207965742e6044820152606401610702565b600881015415611fb957600881018054600091829055600183015460405191926001600160a01b039091169183156108fc0291849190818181858888f19350505050158015611fb6573d6000803e3d6000fd5b50505b610f4b826001612310565b6001548210611fe55760405162461bcd60e51b815260040161070290613acb565b600060018381548110611ffa57611ffa613b02565b600091825260209091206001600d90920201908101549091506001600160a01b0316331461203a5760405162461bcd60e51b815260040161070290613b53565b6000600a82015460ff166004811115612055576120556136e3565b146120725760405162461bcd60e51b815260040161070290613b7b565b81816003015410156120bc5760405162461bcd60e51b815260206004820152601360248201527224b739bab33334b1b4b2b73a10333ab732399760691b6044820152606401610702565b818160030160008282546120d09190613bd7565b9091555050604080516102008101825282546001600160a01b03908116825260018401548116602083015260028401541691810191909152600382015460608201526004808301546080830152600583015461ffff80821660a0850152620100008204811660c08501526401000000009091041660e08301526006830154610100830152600783015461012083015260088301546101408301526009830154610160830152600a83015461226e9291849161018084019160ff9091169081111561219c5761219c6136e3565b60048111156121ad576121ad6136e3565b8152600a82015461010090046001600160a01b03166020820152600b820180546040909201916121dc90613b18565b80601f016020809104026020016040519081016040528092919081815260200182805461220890613b18565b80156122555780601f1061222a57610100808354040283529160200191612255565b820191906000526020600020905b81548152906001019060200180831161223857829003601f168201915b50505050508152602001600c8201548152505083613333565b600281015460048201546040517fdaa591b50a981113dacf06d6569df00c5b022da0ee70df9df0dfab17eaa2412992610dc79260019287926001600160a01b03169190613bfe565b6000546001600160a01b0316331461142b5760405162461bcd60e51b815260206004820181905260248201527f4f776e61626c653a2063616c6c6572206973206e6f7420746865206f776e65726044820152606401610702565b60006001838154811061232557612325613b02565b90600052602060002090600d02019050600260ff1682111561237b5760405162461bcd60e51b815260206004820152600f60248201526e24b73b30b634b210393ab634b7339760891b6044820152606401610702565b80546001808301546003840180546007860180546008880180546000958690559285905593909355600a8701805460ff191660041790556001600160a01b039586169590931693909290871415612411576001600160a01b0385166108fc6123e38585613ea8565b6040518115909202916000818181858888f1935050505015801561240b573d6000803e3d6000fd5b506124b9565b6002871415612431576001600160a01b0384166108fc6123e38584613ea8565b6000600261243f8585613ea8565b6124499190613f1c565b6040519091506001600160a01b0387169082156108fc029083906000818181858888f19350505050158015612482573d6000803e3d6000fd5b506040516001600160a01b0386169082156108fc029083906000818181858888f193505050501580156111d2573d6000803e3d6000fd5b5050505050505050565b600354608083015160405163ef0e239b60e01b815260048101919091526000916001600160a01b03169063ef0e239b9060240160006040518083038186803b15801561250e57600080fd5b505afa158015612522573d6000803e3d6000fd5b505050506040513d6000823e601f3d908101601f1916820160405261254a9190810190613f4d565b600480546020860151604051630b89606960e31b81526001600160a01b03918216938101939093529293506000921690635c4b03489060240160206040518083038186803b15801561259b57600080fd5b505afa1580156125af573d6000803e3d6000fd5b505050506040513d601f19601f820116820180604052508101906125d39190613ab2565b60e083015160a086015191925090600090612710906125f790879061ffff1661400b565b6126019190613f1c565b9050600061271061ffff16868860c0015161ffff16612620919061400b565b61262a9190613f1c565b9050600061271061ffff16878960e0015161ffff16612649919061400b565b6126539190613f1c565b60008080526002602090815260408b8101516001600160a01b031683527fac33ff75c19e70fe83507db0d683fd3465c996598dc972688b7ace676c89077b9091528120805492935085929091906126ab908490613ea8565b909155505060008581526002602090815260408083208b8201516001600160a01b03168452909152812080548492906126e5908490613ea8565b909155505060008481526002602090815260408083208b8201516001600160a01b031684529091528120805483929061271f908490613ea8565b909155505060408801516001600160a01b03166127795787602001516001600160a01b03166108fc889081150290604051600060405180830381858888f19350505050158015612773573d6000803e3d6000fd5b5061284a565b60408089015160208a0151915163a9059cbb60e01b81526001600160a01b039283166004820152602481018a905291169063a9059cbb90604401602060405180830381600087803b1580156127cd57600080fd5b505af11580156127e1573d6000803e3d6000fd5b505050506040513d601f19601f82011682018060405250810190612805919061402a565b61284a5760405162461bcd60e51b8152602060048201526016602482015275151c985b9cd9995c881b5d5cdd081b9bdd0819985a5b60521b6044820152606401610702565b60408089015160808a0151825188815260208101919091529182018490526001600160a01b0316907f4295737fccf6c9fdb5562d08f53f32ea89040cee8648445f14b63e74ef2340c89060600160405180910390a260408089015160808a0151825187815260208101919091529182018390526001600160a01b0316907ffb0b45a94ba5e6f6a5787f24ec1cca93129f52cb56ee72ce395736266051152e9060600160405180910390a25050505050505050565b80610f4b57600354604051631271956760e21b8152600481018490526001600160a01b03909116906349c6559c90602401600060405180830381600087803b15801561294957600080fd5b505af115801561295d573d6000803e3d6000fd5b505050507f6bef1b5e95b741d6e665eb9b5c2d3e1203c46a771451055a9d41e0b8ff4510b78260405161299291815260200190565b60405180910390a15050565b6129a6613553565b6129ae61358c565b60008060006129bd878761340c565b905060006129ca8861349b565b6004805460208301516040516331a9108f60e11b8152928301529192506000916001600160a01b031690636352211e9060240160206040518083038186803b158015612a1557600080fd5b505afa158015612a29573d6000803e3d6000fd5b505050506040513d601f19601f82011682018060405250810190612a4d9190613eff565b6004805460208601516040516331a9108f60e11b8152928301529192506000916001600160a01b031690636352211e9060240160206040518083038186803b158015612a9857600080fd5b505afa158015612aac573d6000803e3d6000fd5b505050506040513d601f19601f82011682018060405250810190612ad09190613eff565b939a9299509097509195509350505050565b6000612710612af1838561400b565b600554612b0990600160b01b900461ffff168661400b565b600554612b2190600160a01b900461ffff168761400b565b612b2b9190613ea8565b612b359190613ea8565b612b3f9190613f1c565b612b499084613ea8565b9392505050565b6000612b5a613553565b612b6261358c565b600080612b6f8b8b61299e565b809450819550829650839750505050506001604051806102000160405280846001600160a01b03168152602001836001600160a01b0316815260200186604001516001600160a01b03168152602001866060015181526020018d8152602001600560149054906101000a900461ffff1661ffff168152602001600560169054906101000a900461ffff1661ffff1681526020018b61ffff16815260200160008152602001600081526020016000815260200142815260200160006004811115612c3a57612c3a6136e3565b81526001600160a01b03808c1660208084019190915260408084018d905260609384018c90528554600181810188556000978852968390208651600d9092020180549185166001600160a01b03199283161781559286015183880180549186169183169190911790559085015160028301805491909416911617909155908201516003820155608082015160048083019190915560a083015160058301805460c086015160e087015161ffff9081166401000000000265ffff0000000019928216620100000263ffffffff19909416919095161791909117169190911790556101008301516006830155610120830151600783015561014083015160088301556101608301516009830155610180830151600a83018054949593949193909260ff19909216918490811115612d7157612d716136e3565b02179055506101a0820151600a820180546001600160a01b0390921661010002610100600160a81b03199092169190911790556101c08201518051612dc091600b8401916020909101906135d2565b506101e09190910151600c9091015560018054612ddd9190613bd7565b9b9a5050505050505050505050565b6040516323b872dd60e01b81526001600160a01b038481166004830152306024830152604482018390528316906323b872dd906064015b602060405180830381600087803b158015612e3d57600080fd5b505af1158015612e51573d6000803e3d6000fd5b505050506040513d601f19601f82011682018060405250810190612e75919061402a565b610de15760405162461bcd60e51b8152602060048201526016602482015275151c985b9cd9995c881b5d5cdd081b9bdd0819985a5b60521b6044820152606401610702565b600060018481548110612ecf57612ecf613b02565b90600052602060002090600d02019050837f61606860eb6c87306811e2695215385101daab53bd6ab4e9f9049aead9363c7d84604051612f0f9190613eec565b60405180910390a26004810154604080519182526020820184905281018590527fffc7643b52fc7134d23e37eac3c5c4bdad5cf04655528f24663504e15adc4a4a9060600160405180910390a1805460018201546002830154600384015460048501546005805490870154600a880154600c8901546040517f9618dc9cf7a01c32231fc0132c851ab095dfe326166d8f5551fa90b9388f1f8899612ffc998f996001600160a01b039283169991831698908316979196909561ffff600160a01b8404811696600160b01b90940481169564010000000090930416936101009091041691600b8f019161404c565b60405180910390a150505050565b60006001838154811061301f5761301f613b02565b600091825260208220600a600d90920201908101805460ff19166003179081905560048201549193506001600160a01b036101009091041691906130629061349b565b9050816001600160a01b031663c13517e18560026130838560e00151613529565b6040518463ffffffff1660e01b81526004016130a09291906140d5565b6020604051808303818588803b1580156130b957600080fd5b505af11580156130cd573d6000803e3d6000fd5b50505050506040513d601f19601f820116820180604052508101906130f29190613ab2565b6006840181815560009182526007602090815260409283902088905590548251888152918201889052916001600160a01b038516917f74baab670a4015ab2f1b467c5252a96141a2573f2908e58a92081e80d3cfde3d910160405180910390a383836007015411156131b45760008484600701546131709190613bd7565b6007850186905584546040519192506001600160a01b03169082156108fc029083906000818181858888f193505050501580156131b1573d6000803e3d6000fd5b50505b83836008015411156132165760008484600801546131d29190613bd7565b6008850186905560018501546040519192506001600160a01b03169082156108fc029083906000818181858888f19350505050158015611743573d6000803e3d6000fd5b5050505050565b600080546001600160a01b038381166001600160a01b0319831681178455604051919092169283917f8be0079c531659141344cd1fd0a4f28419497f9722a3daafe3b4186f6b6457e09190a35050565b6001600160a01b0382166132b1576040516001600160a01b0384169082156108fc029083906000818181858888f19350505050158015610ad3573d6000803e3d6000fd5b60405163a9059cbb60e01b81526001600160a01b0384811660048301526024820183905283169063a9059cbb90604401602060405180830381600087803b1580156132fb57600080fd5b505af115801561330f573d6000803e3d6000fd5b505050506040513d601f19601f82011682018060405250810190610ad3919061402a565b600061271061ffff16828460e001518560c001518660a0015161335691906140f1565b61336091906140f1565b61ffff1661336e919061400b565b6133789190613f1c565b6133829083613ea8565b60408401519091506001600160a01b03166133d05782516040516001600160a01b039091169082156108fc029083906000818181858888f19350505050158015610ad3573d6000803e3d6000fd5b6040838101518451915163a9059cbb60e01b81526001600160a01b0392831660048201526024810184905291169063a9059cbb90604401612e23565b613414613553565b60035460405163aba2100960e01b815260048101859052602481018490526001600160a01b039091169063aba210099060440160006040518083038186803b15801561345f57600080fd5b505afa158015613473573d6000803e3d6000fd5b505050506040513d6000823e601f3d908101601f19168201604052612b499190810190614117565b6134a361358c565b60035460405163ef0e239b60e01b8152600481018490526001600160a01b039091169063ef0e239b9060240160006040518083038186803b1580156134e757600080fd5b505afa1580156134fb573d6000803e3d6000fd5b505050506040513d6000823e601f3d908101601f191682016040526135239190810190613f4d565b92915050565b60408051602080825281830190925260609160208201818036833750505060208101929092525090565b6040805160a0810190915280600081526020016000815260200160006001600160a01b0316815260200160008152602001606081525090565b6040805161010081019091528060008152602001600081526020016000815260200160008152602001606081526020016000815260200160008152602001600081525090565b8280546135de90613b18565b90600052602060002090601f0160209004810192826136005760008555613646565b82601f1061361957805160ff1916838001178555613646565b82800160010185558215613646579182015b8281111561364657825182559160200191906001019061362b565b50613652929150613656565b5090565b5b808211156136525760008155600101613657565b61ffff8116811461031757600080fd5b60006020828403121561368d57600080fd5b8135612b498161366b565b6001600160a01b038116811461031757600080fd5b6000602082840312156136bf57600080fd5b8135612b4981613698565b6000602082840312156136dc57600080fd5b5035919050565b634e487b7160e01b600052602160045260246000fd5b60058110613709576137096136e3565b9052565b60005b83811015613728578181015183820152602001613710565b83811115610ad35750506000910152565b6000815180845261375181602086016020860161370d565b601f01601f19169290920160200192915050565b6020815261377f6020820183516001600160a01b03169052565b6000602083015161379b60408401826001600160a01b03169052565b5060408301516001600160a01b03811660608401525060608301516080830152608083015160a083015260a08301516137da60c084018261ffff169052565b5060c083015161ffff811660e08401525060e08301516101006138028185018361ffff169052565b8401516101208481019190915284015161014080850191909152840151610160808501919091528401516101808085019190915284015190506101a061384a818501836136f9565b84015190506101c0613866848201836001600160a01b03169052565b808501519150506102006101e08181860152613886610220860184613739565b9501519301929092525090919050565b600080604083850312156138a957600080fd5b50508035926020909101359150565b634e487b7160e01b600052604160045260246000fd5b60405160e0810167ffffffffffffffff811182821017156138f1576138f16138b8565b60405290565b604051610100810167ffffffffffffffff811182821017156138f1576138f16138b8565b60405160a0810167ffffffffffffffff811182821017156138f1576138f16138b8565b604051601f8201601f1916810167ffffffffffffffff81118282101715613967576139676138b8565b604052919050565b600067ffffffffffffffff821115613989576139896138b8565b50601f01601f191660200190565b600082601f8301126139a857600080fd5b81356139bb6139b68261396f565b61393e565b8181528460208386010111156139d057600080fd5b816020850160208301376000918101602001919091529392505050565b600080600060608486031215613a0257600080fd5b833567ffffffffffffffff811115613a1957600080fd5b613a2586828701613997565b9660208601359650604090950135949350505050565b60008060408385031215613a4e57600080fd5b82359150602083013567ffffffffffffffff811115613a6c57600080fd5b613a7885828601613997565b9150509250929050565b60008060408385031215613a9557600080fd5b823591506020830135613aa781613698565b809150509250929050565b600060208284031215613ac457600080fd5b5051919050565b6020808252601b908201527f4e6f7420612076616c6964207472616e73616374696f6e2069642e0000000000604082015260600190565b634e487b7160e01b600052603260045260246000fd5b600181811c90821680613b2c57607f821691505b60208210811415613b4d57634e487b7160e01b600052602260045260246000fd5b50919050565b6020808252600e908201526d20b1b1b2b9b9903232b734b2b21760911b604082015260600190565b60208082526026908201527f546865207472616e73616374696f6e2073686f756c646e277420626520646973604082015265383aba32b21760d11b606082015260800190565b634e487b7160e01b600052601160045260246000fd5b600082821015613be957613be9613bc1565b500390565b60028110610317576103176136e3565b60808101613c0b86613bee565b94815260208101939093526001600160a01b0391909116604083015260609091015290565b600082601f830112613c4157600080fd5b8151613c4f6139b68261396f565b818152846020838601011115613c6457600080fd5b613c7582602083016020870161370d565b949350505050565b805161065c8161366b565b805161065c81613698565b600060208284031215613ca557600080fd5b815167ffffffffffffffff80821115613cbd57600080fd5b9083019060e08286031215613cd157600080fd5b613cd96138ce565b82518152602083015182811115613cef57600080fd5b613cfb87828601613c30565b602083015250604083015182811115613d1357600080fd5b613d1f87828601613c30565b604083015250613d3160608401613c7d565b6060820152613d4260808401613c88565b608082015260a083015182811115613d5957600080fd5b613d6587828601613c30565b60a08301525060c083015160c082015280935050505092915050565b8054600090600181811c9080831680613d9b57607f831692505b6020808410821415613dbd57634e487b7160e01b600052602260045260246000fd5b83885260208801828015613dd85760018114613de957613e14565b60ff19871682528282019750613e14565b60008981526020902060005b87811015613e0e57815484820152908601908401613df5565b83019850505b5050505050505092915050565b602081526000612b496020830184613d81565b6020808252604e908201527f446973707574652068617320616c7265616479206265656e206372656174656460408201527f206f72206265636175736520746865207472616e73616374696f6e206861732060608201526d3132b2b71032bc32b1baba32b21760911b608082015260a00190565b60008219821115613ebb57613ebb613bc1565b500190565b60208101613ecd83613bee565b91905290565b828152604060208201526000613c756040830184613d81565b602081526000612b496020830184613739565b600060208284031215613f1157600080fd5b8151612b4981613698565b600082613f3957634e487b7160e01b600052601260045260246000fd5b500490565b80516005811061065c57600080fd5b600060208284031215613f5f57600080fd5b815167ffffffffffffffff80821115613f7757600080fd5b908301906101008286031215613f8c57600080fd5b613f946138f7565b613f9d83613f3e565b8152602083015160208201526040830151604082015260608301516060820152608083015182811115613fcf57600080fd5b613fdb87828601613c30565b60808301525060a083015160a082015260c083015160c082015260e083015160e082015280935050505092915050565b600081600019048311821515161561402557614025613bc1565b500290565b60006020828403121561403c57600080fd5b81518015158114612b4957600080fd5b8c81526001600160a01b038c811660208301528b811660408301528a81166060830152608082018a905260a0820189905261ffff88811660c084015287811660e08401528616610100830152841661012082015261018061014082018190526000906140ba83820186613d81565b915050826101608301529d9c50505050505050505050505050565b60ff83168152604060208201526000613c756040830184613739565b600061ffff80831681851680830382111561410e5761410e613bc1565b01949350505050565b60006020828403121561412957600080fd5b815167ffffffffffffffff8082111561414157600080fd5b9083019060a0828603121561415557600080fd5b61415d61391b565b82516003811061416c57600080fd5b815260208381015190820152604083015161418681613698565b6040820152606083810151908201526080830151828111156141a757600080fd5b6141b387828601613c30565b6080830152509594505050505056fea26469706673582212203aa26ffafd9d6827dbfcd1d5a535e8e674c9f7a599659642c923b0294b6a127c64736f6c63430008090033",
  "linkReferences": {},
  "deployedLinkReferences": {}
}