{
  "_format": "hh-sol-artifact-1",
  "contractName": "TalentLayerEscrow",
  "sourceName": "contracts/kleros/TalentLayerEscrow.sol",
  "abi": [
    {
      "inputs": [
        {
          "internalType": "address",
          "name": "_serviceRegistryAddress",
          "type": "address"
        },
        {
          "internalType": "address",
          "name": "_talentLayerIDAddress",
          "type": "address"
        },
        {
          "internalType": "address",
          "name": "_talentLayerPlatformIDAddress",
          "type": "address"
        }
      ],
      "stateMutability": "nonpayable",
      "type": "constructor"
    },
    {
      "anonymous": false,
      "inputs": [
        {
          "indexed": true,
          "internalType": "uint256",
          "name": "_transactionId",
          "type": "uint256"
        },
        {
          "indexed": false,
          "internalType": "enum TalentLayerEscrow.ArbitrationFeePaymentType",
          "name": "_paymentType",
          "type": "uint8"
        },
        {
          "indexed": false,
          "internalType": "enum TalentLayerEscrow.Party",
          "name": "_party",
          "type": "uint8"
        },
        {
          "indexed": false,
          "internalType": "uint256",
          "name": "_amount",
          "type": "uint256"
        }
      ],
      "name": "ArbitrationFeePayment",
      "type": "event"
    },
    {
      "anonymous": false,
      "inputs": [
        {
          "indexed": true,
          "internalType": "contract Arbitrator",
          "name": "_arbitrator",
          "type": "address"
        },
        {
          "indexed": true,
          "internalType": "uint256",
          "name": "_disputeID",
          "type": "uint256"
        },
        {
          "indexed": false,
          "internalType": "uint256",
          "name": "_metaEvidenceID",
          "type": "uint256"
        },
        {
          "indexed": false,
          "internalType": "uint256",
          "name": "_evidenceGroupID",
          "type": "uint256"
        }
      ],
      "name": "Dispute",
      "type": "event"
    },
    {
      "anonymous": false,
      "inputs": [
        {
          "indexed": true,
          "internalType": "contract Arbitrator",
          "name": "_arbitrator",
          "type": "address"
        },
        {
          "indexed": true,
          "internalType": "uint256",
          "name": "_evidenceGroupID",
          "type": "uint256"
        },
        {
          "indexed": true,
          "internalType": "address",
          "name": "_party",
          "type": "address"
        },
        {
          "indexed": false,
          "internalType": "string",
          "name": "_evidence",
          "type": "string"
        }
      ],
      "name": "Evidence",
      "type": "event"
    },
    {
      "anonymous": false,
      "inputs": [
        {
          "indexed": true,
          "internalType": "uint256",
          "name": "_transactionId",
          "type": "uint256"
        },
        {
          "indexed": true,
          "internalType": "uint256",
          "name": "_partyId",
          "type": "uint256"
        },
        {
          "indexed": false,
          "internalType": "string",
          "name": "_evidenceUri",
          "type": "string"
        }
      ],
      "name": "EvidenceSubmitted",
      "type": "event"
    },
    {
      "anonymous": false,
      "inputs": [
        {
          "indexed": false,
          "internalType": "uint256",
          "name": "_platformId",
          "type": "uint256"
        },
        {
          "indexed": true,
          "internalType": "address",
          "name": "_token",
          "type": "address"
        },
        {
          "indexed": false,
          "internalType": "uint256",
          "name": "_amount",
          "type": "uint256"
        }
      ],
      "name": "FeesClaimed",
      "type": "event"
    },
    {
      "anonymous": false,
      "inputs": [
        {
          "indexed": true,
          "internalType": "uint256",
          "name": "_transactionId",
          "type": "uint256"
        },
        {
          "indexed": false,
          "internalType": "enum TalentLayerEscrow.Party",
          "name": "_party",
          "type": "uint8"
        }
      ],
      "name": "HasToPayFee",
      "type": "event"
    },
    {
      "anonymous": false,
      "inputs": [
        {
          "indexed": true,
          "internalType": "uint256",
          "name": "_metaEvidenceID",
          "type": "uint256"
        },
        {
          "indexed": false,
          "internalType": "string",
          "name": "_evidence",
          "type": "string"
        }
      ],
      "name": "MetaEvidence",
      "type": "event"
    },
    {
      "anonymous": false,
      "inputs": [
        {
          "indexed": false,
          "internalType": "uint256",
          "name": "_platformId",
          "type": "uint256"
        },
        {
          "indexed": false,
          "internalType": "uint256",
          "name": "_serviceId",
          "type": "uint256"
        },
        {
          "indexed": true,
          "internalType": "address",
          "name": "_token",
          "type": "address"
        },
        {
          "indexed": false,
          "internalType": "uint256",
          "name": "_amount",
          "type": "uint256"
        }
      ],
      "name": "OriginPlatformFeeReleased",
      "type": "event"
    },
    {
      "anonymous": false,
      "inputs": [
        {
          "indexed": false,
          "internalType": "uint256",
          "name": "_originPlatformFee",
          "type": "uint256"
        }
      ],
      "name": "OriginPlatformFeeUpdated",
      "type": "event"
    },
    {
      "anonymous": false,
      "inputs": [
        {
          "indexed": true,
          "internalType": "address",
          "name": "previousOwner",
          "type": "address"
        },
        {
          "indexed": true,
          "internalType": "address",
          "name": "newOwner",
          "type": "address"
        }
      ],
      "name": "OwnershipTransferred",
      "type": "event"
    },
    {
      "anonymous": false,
      "inputs": [
        {
          "indexed": false,
          "internalType": "uint256",
          "name": "_transactionId",
          "type": "uint256"
        },
        {
          "indexed": false,
          "internalType": "enum TalentLayerEscrow.PaymentType",
          "name": "_paymentType",
          "type": "uint8"
        },
        {
          "indexed": false,
          "internalType": "uint256",
          "name": "_amount",
          "type": "uint256"
        },
        {
          "indexed": false,
          "internalType": "address",
          "name": "_token",
          "type": "address"
        },
        {
          "indexed": false,
          "internalType": "uint256",
          "name": "_serviceId",
          "type": "uint256"
        }
      ],
      "name": "Payment",
      "type": "event"
    },
    {
      "anonymous": false,
      "inputs": [
        {
          "indexed": false,
          "internalType": "uint256",
          "name": "_serviceId",
          "type": "uint256"
        }
      ],
      "name": "PaymentCompleted",
      "type": "event"
    },
    {
      "anonymous": false,
      "inputs": [
        {
          "indexed": false,
          "internalType": "uint256",
          "name": "_platformId",
          "type": "uint256"
        },
        {
          "indexed": false,
          "internalType": "uint256",
          "name": "_serviceId",
          "type": "uint256"
        },
        {
          "indexed": true,
          "internalType": "address",
          "name": "_token",
          "type": "address"
        },
        {
          "indexed": false,
          "internalType": "uint256",
          "name": "_amount",
          "type": "uint256"
        }
      ],
      "name": "PlatformFeeReleased",
      "type": "event"
    },
    {
      "anonymous": false,
      "inputs": [
        {
          "indexed": false,
          "internalType": "uint16",
          "name": "_protocolFee",
          "type": "uint16"
        }
      ],
      "name": "ProtocolFeeUpdated",
      "type": "event"
    },
    {
      "anonymous": false,
      "inputs": [
        {
          "indexed": true,
          "internalType": "contract Arbitrator",
          "name": "_arbitrator",
          "type": "address"
        },
        {
          "indexed": true,
          "internalType": "uint256",
          "name": "_disputeID",
          "type": "uint256"
        },
        {
          "indexed": false,
          "internalType": "uint256",
          "name": "_ruling",
          "type": "uint256"
        }
      ],
      "name": "Ruling",
      "type": "event"
    },
    {
      "anonymous": false,
      "inputs": [
        {
          "indexed": true,
          "internalType": "uint256",
          "name": "_transactionId",
          "type": "uint256"
        },
        {
          "indexed": false,
          "internalType": "uint256",
          "name": "_ruling",
          "type": "uint256"
        }
      ],
      "name": "RulingExecuted",
      "type": "event"
    },
    {
      "anonymous": false,
      "inputs": [
        {
          "indexed": false,
          "internalType": "uint256",
          "name": "serviceId",
          "type": "uint256"
        },
        {
          "indexed": false,
          "internalType": "uint256",
          "name": "sellerId",
          "type": "uint256"
        },
        {
          "indexed": false,
          "internalType": "uint256",
          "name": "transactionId",
          "type": "uint256"
        }
      ],
      "name": "ServiceProposalConfirmedWithDeposit",
      "type": "event"
    },
    {
      "anonymous": false,
      "inputs": [
        {
          "indexed": false,
          "internalType": "uint256",
          "name": "_transactionId",
          "type": "uint256"
        },
        {
          "indexed": false,
          "internalType": "uint256",
          "name": "_senderId",
          "type": "uint256"
        },
        {
          "indexed": false,
          "internalType": "uint256",
          "name": "_receiverId",
          "type": "uint256"
        },
        {
          "indexed": false,
          "internalType": "address",
          "name": "_token",
          "type": "address"
        },
        {
          "indexed": false,
          "internalType": "uint256",
          "name": "_amount",
          "type": "uint256"
        },
        {
          "indexed": false,
          "internalType": "uint256",
          "name": "_serviceId",
          "type": "uint256"
        },
        {
          "indexed": false,
          "internalType": "uint16",
          "name": "_protocolFee",
          "type": "uint16"
        },
        {
          "indexed": false,
          "internalType": "uint16",
          "name": "_originPlatformFee",
          "type": "uint16"
        },
        {
          "indexed": false,
          "internalType": "uint16",
          "name": "_platformFee",
          "type": "uint16"
        },
        {
          "indexed": false,
          "internalType": "contract Arbitrator",
          "name": "_arbitrator",
          "type": "address"
        },
        {
          "indexed": false,
          "internalType": "bytes",
          "name": "_arbitratorExtraData",
          "type": "bytes"
        },
        {
          "indexed": false,
          "internalType": "uint256",
          "name": "_arbitrationFeeTimeout",
          "type": "uint256"
        }
      ],
      "name": "TransactionCreated",
      "type": "event"
    },
    {
      "inputs": [
        {
          "internalType": "uint256",
          "name": "_transactionId",
          "type": "uint256"
        }
      ],
      "name": "appeal",
      "outputs": [],
      "stateMutability": "payable",
      "type": "function"
    },
    {
      "inputs": [
        {
          "internalType": "uint256",
          "name": "_platformId",
          "type": "uint256"
        },
        {
          "internalType": "address",
          "name": "_tokenAddress",
          "type": "address"
        }
      ],
      "name": "claim",
      "outputs": [],
      "stateMutability": "nonpayable",
      "type": "function"
    },
    {
      "inputs": [
        {
          "internalType": "uint256",
          "name": "_platformId",
          "type": "uint256"
        }
      ],
      "name": "claimAll",
      "outputs": [],
      "stateMutability": "nonpayable",
      "type": "function"
    },
    {
      "inputs": [
        {
          "internalType": "string",
          "name": "_metaEvidence",
          "type": "string"
        },
        {
          "internalType": "uint256",
          "name": "_serviceId",
          "type": "uint256"
        },
        {
          "internalType": "uint256",
          "name": "_proposalId",
          "type": "uint256"
        }
      ],
      "name": "createETHTransaction",
      "outputs": [
        {
          "internalType": "uint256",
          "name": "",
          "type": "uint256"
        }
      ],
      "stateMutability": "payable",
      "type": "function"
    },
    {
      "inputs": [
        {
          "internalType": "string",
          "name": "_metaEvidence",
          "type": "string"
        },
        {
          "internalType": "uint256",
          "name": "_serviceId",
          "type": "uint256"
        },
        {
          "internalType": "uint256",
          "name": "_proposalId",
          "type": "uint256"
        }
      ],
      "name": "createTokenTransaction",
      "outputs": [
        {
          "internalType": "uint256",
          "name": "",
          "type": "uint256"
        }
      ],
      "stateMutability": "nonpayable",
      "type": "function"
    },
    {
      "inputs": [
        {
          "internalType": "uint256",
          "name": "",
          "type": "uint256"
        }
      ],
      "name": "disputeIDtoTransactionID",
      "outputs": [
        {
          "internalType": "uint256",
          "name": "",
          "type": "uint256"
        }
      ],
      "stateMutability": "view",
      "type": "function"
    },
    {
      "inputs": [
        {
          "internalType": "address",
          "name": "_token",
          "type": "address"
        }
      ],
      "name": "getClaimableFeeBalance",
      "outputs": [
        {
          "internalType": "uint256",
          "name": "balance",
          "type": "uint256"
        }
      ],
      "stateMutability": "view",
      "type": "function"
    },
    {
      "inputs": [],
      "name": "getProtocolWallet",
      "outputs": [
        {
          "internalType": "address",
          "name": "",
          "type": "address"
        }
      ],
      "stateMutability": "view",
      "type": "function"
    },
    {
      "inputs": [
        {
          "internalType": "uint256",
          "name": "_transactionId",
          "type": "uint256"
        }
      ],
      "name": "getTransactionDetails",
      "outputs": [
        {
          "components": [
            {
              "internalType": "address",
              "name": "sender",
              "type": "address"
            },
            {
              "internalType": "address",
              "name": "receiver",
              "type": "address"
            },
            {
              "internalType": "address",
              "name": "token",
              "type": "address"
            },
            {
              "internalType": "uint256",
              "name": "amount",
              "type": "uint256"
            },
            {
              "internalType": "uint256",
              "name": "serviceId",
              "type": "uint256"
            },
            {
              "internalType": "uint16",
              "name": "protocolFee",
              "type": "uint16"
            },
            {
              "internalType": "uint16",
              "name": "originPlatformFee",
              "type": "uint16"
            },
            {
              "internalType": "uint16",
              "name": "platformFee",
              "type": "uint16"
            },
            {
              "internalType": "uint256",
              "name": "disputeId",
              "type": "uint256"
            },
            {
              "internalType": "uint256",
              "name": "senderFee",
              "type": "uint256"
            },
            {
              "internalType": "uint256",
              "name": "receiverFee",
              "type": "uint256"
            },
            {
              "internalType": "uint256",
              "name": "lastInteraction",
              "type": "uint256"
            },
            {
              "internalType": "enum TalentLayerEscrow.Status",
              "name": "status",
              "type": "uint8"
            },
            {
              "internalType": "contract Arbitrator",
              "name": "arbitrator",
              "type": "address"
            },
            {
              "internalType": "bytes",
              "name": "arbitratorExtraData",
              "type": "bytes"
            },
            {
              "internalType": "uint256",
              "name": "arbitrationFeeTimeout",
              "type": "uint256"
            }
          ],
          "internalType": "struct TalentLayerEscrow.Transaction",
          "name": "transaction",
          "type": "tuple"
        }
      ],
      "stateMutability": "view",
      "type": "function"
    },
    {
      "inputs": [],
      "name": "originPlatformFee",
      "outputs": [
        {
          "internalType": "uint16",
          "name": "",
          "type": "uint16"
        }
      ],
      "stateMutability": "view",
      "type": "function"
    },
    {
      "inputs": [],
      "name": "owner",
      "outputs": [
        {
          "internalType": "address",
          "name": "",
          "type": "address"
        }
      ],
      "stateMutability": "view",
      "type": "function"
    },
    {
      "inputs": [
        {
          "internalType": "uint256",
          "name": "_transactionId",
          "type": "uint256"
        }
      ],
      "name": "payArbitrationFeeByReceiver",
      "outputs": [],
      "stateMutability": "payable",
      "type": "function"
    },
    {
      "inputs": [
        {
          "internalType": "uint256",
          "name": "_transactionId",
          "type": "uint256"
        }
      ],
      "name": "payArbitrationFeeBySender",
      "outputs": [],
      "stateMutability": "payable",
      "type": "function"
    },
    {
      "inputs": [],
      "name": "protocolFee",
      "outputs": [
        {
          "internalType": "uint16",
          "name": "",
          "type": "uint16"
        }
      ],
      "stateMutability": "view",
      "type": "function"
    },
    {
      "inputs": [
        {
          "internalType": "uint256",
          "name": "_transactionId",
          "type": "uint256"
        },
        {
          "internalType": "uint256",
          "name": "_amount",
          "type": "uint256"
        }
      ],
      "name": "reimburse",
      "outputs": [],
      "stateMutability": "nonpayable",
      "type": "function"
    },
    {
      "inputs": [
        {
          "internalType": "uint256",
          "name": "_transactionId",
          "type": "uint256"
        },
        {
          "internalType": "uint256",
          "name": "_amount",
          "type": "uint256"
        }
      ],
      "name": "release",
      "outputs": [],
      "stateMutability": "nonpayable",
      "type": "function"
    },
    {
      "inputs": [],
      "name": "renounceOwnership",
      "outputs": [],
      "stateMutability": "nonpayable",
      "type": "function"
    },
    {
      "inputs": [
        {
          "internalType": "uint256",
          "name": "_disputeID",
          "type": "uint256"
        },
        {
          "internalType": "uint256",
          "name": "_ruling",
          "type": "uint256"
        }
      ],
      "name": "rule",
      "outputs": [],
      "stateMutability": "nonpayable",
      "type": "function"
    },
    {
      "inputs": [
        {
          "internalType": "uint256",
          "name": "_transactionId",
          "type": "uint256"
        },
        {
          "internalType": "string",
          "name": "_evidence",
          "type": "string"
        }
      ],
      "name": "submitEvidence",
      "outputs": [],
      "stateMutability": "nonpayable",
      "type": "function"
    },
    {
      "inputs": [
        {
          "internalType": "uint256",
          "name": "_transactionId",
          "type": "uint256"
        }
      ],
      "name": "timeOutByReceiver",
      "outputs": [],
      "stateMutability": "nonpayable",
      "type": "function"
    },
    {
      "inputs": [
        {
          "internalType": "uint256",
          "name": "_transactionId",
          "type": "uint256"
        }
      ],
      "name": "timeOutBySender",
      "outputs": [],
      "stateMutability": "nonpayable",
      "type": "function"
    },
    {
      "inputs": [
        {
          "internalType": "address",
          "name": "newOwner",
          "type": "address"
        }
      ],
      "name": "transferOwnership",
      "outputs": [],
      "stateMutability": "nonpayable",
      "type": "function"
    },
    {
      "inputs": [
        {
          "internalType": "uint16",
          "name": "_originPlatformFee",
          "type": "uint16"
        }
      ],
      "name": "updateOriginPlatformFee",
      "outputs": [],
      "stateMutability": "nonpayable",
      "type": "function"
    },
    {
      "inputs": [
        {
          "internalType": "uint16",
          "name": "_protocolFee",
          "type": "uint16"
        }
      ],
      "name": "updateProtocolFee",
      "outputs": [],
      "stateMutability": "nonpayable",
      "type": "function"
    },
    {
      "inputs": [
        {
          "internalType": "address payable",
          "name": "_protocolWallet",
          "type": "address"
        }
      ],
      "name": "updateProtocolWallet",
      "outputs": [],
      "stateMutability": "nonpayable",
      "type": "function"
    }
  ],
  "bytecode": "0x60806040523480156200001157600080fd5b506040516200483838038062004838833981016040819052620000349162000145565b6200003f33620000d8565b600380546001600160a01b03199081166001600160a01b038681169190911790925560048054909116848316179055600580549183166001600160b01b031990921691909117601960a21b1761ffff60b01b1916601960b31b179055620000ae6000546001600160a01b031690565b600680546001600160a01b0319166001600160a01b0392909216919091179055506200018f915050565b600080546001600160a01b038381166001600160a01b0319831681178455604051919092169283917f8be0079c531659141344cd1fd0a4f28419497f9722a3daafe3b4186f6b6457e09190a35050565b80516001600160a01b03811681146200014057600080fd5b919050565b6000806000606084860312156200015b57600080fd5b620001668462000128565b9250620001766020850162000128565b9150620001866040850162000128565b90509250925092565b614699806200019f6000396000f3fe6080604052600436106101665760003560e01c8063715018a6116100d1578063a6a7f0eb1161008a578063e308a09911610064578063e308a0991461041b578063f2fde38b1461043b578063f42cadc11461045b578063fe43a9921461047b57600080fd5b8063a6a7f0eb146103b9578063b0e21e8a146103d9578063ddd5e1b2146103fb57600080fd5b8063715018a61461032d578063740bd56a146103425780637b44cdb5146103625780637e69b7b0146103755780638363def4146103885780638da5cb5b1461039b57600080fd5b8063366a412011610123578063366a4120146102675780633a5b77fd146102875780633de0c7ef146102bc578063419f648f146102dc5780636930fd2a146102fc5780636e72b4521461031a57600080fd5b8063020624d21461016b5780630a1a47d61461018d5780630fa683d3146101c057806311796434146101ed5780632fbe3b031461021a578063311a6c5614610247575b600080fd5b34801561017757600080fd5b5061018b610186366004613aca565b61049b565b005b34801561019957600080fd5b506101ad6101a8366004613afc565b6104fa565b6040519081526020015b60405180910390f35b3480156101cc57600080fd5b506101e06101db366004613b19565b610661565b6040516101b79190613bb4565b3480156101f957600080fd5b50610202610948565b6040516001600160a01b0390911681526020016101b7565b34801561022657600080fd5b506101ad610235366004613b19565b60076020526000908152604090205481565b34801561025357600080fd5b5061018b610262366004613ce5565b610962565b34801561027357600080fd5b5061018b610282366004613ce5565b610ad9565b34801561029357600080fd5b506005546102a990600160b01b900461ffff1681565b60405161ffff90911681526020016101b7565b3480156102c857600080fd5b5061018b6102d7366004613b19565b610de9565b3480156102e857600080fd5b506101ad6102f7366004613e3c565b610f6b565b34801561030857600080fd5b5061018b610317366004613b19565b50565b61018b610328366004613b19565b611226565b34801561033957600080fd5b5061018b611489565b34801561034e57600080fd5b5061018b61035d366004613aca565b61149d565b61018b610370366004613b19565b6114f5565b61018b610383366004613b19565b61173b565b6101ad610396366004613e3c565b6117e3565b3480156103a757600080fd5b506000546001600160a01b0316610202565b3480156103c557600080fd5b5061018b6103d4366004613e8a565b611b21565b3480156103e557600080fd5b506005546102a990600160a01b900461ffff1681565b34801561040757600080fd5b5061018b610416366004613ed1565b611d65565b34801561042757600080fd5b5061018b610436366004613afc565b611f0f565b34801561044757600080fd5b5061018b610456366004613afc565b611f39565b34801561046757600080fd5b5061018b610476366004613b19565b611faf565b34801561048757600080fd5b5061018b610496366004613ce5565b612132565b6104a3612427565b6005805461ffff60a01b1916600160a01b61ffff8416908102919091179091556040519081527f15189fb9f7333d3c2ac875339ddb50cd49f554b5ed014b4b06111a437ec0b0c5906020015b60405180910390a150565b60003361050f6000546001600160a01b031690565b6001600160a01b0316141561055957506001600160a01b031660009081527fac33ff75c19e70fe83507db0d683fd3465c996598dc972688b7ace676c89077b602052604090205490565b60055460405163aa44caaf60e01b81523360048201526000916001600160a01b03169063aa44caaf9060240160206040518083038186803b15801561059d57600080fd5b505afa1580156105b1573d6000803e3d6000fd5b505050506040513d601f19601f820116820180604052508101906105d59190613f01565b60055460405162f577a560e81b8152600481018390529192506001600160a01b03169063f577a5009060240160006040518083038186803b15801561061957600080fd5b505afa15801561062d573d6000803e3d6000fd5b5050506000918252506002602090815260408083206001600160a01b0390951683529390529190912054919050565b919050565b604080516102008101825260008082526020820181905291810182905260608082018390526080820183905260a0820183905260c0820183905260e08201839052610100820183905261012082018390526101408201839052610160820183905261018082018390526101a082018390526101c08201526101e0810191909152600154821061070b5760405162461bcd60e51b815260040161070290613f1a565b60405180910390fd5b60006001838154811061072057610720613f51565b60009182526020909120600d9091020180549091506001600160a01b0316331480610757575060018101546001600160a01b031633145b6107b45760405162461bcd60e51b815260206004820152602860248201527f596f7520617265206e6f742072656c6174656420746f2074686973207472616e60448201526739b0b1ba34b7b71760c11b6064820152608401610702565b604080516102008101825282546001600160a01b03908116825260018401548116602083015260028401541691810191909152600382015460608201526004808301546080830152600583015461ffff80821660a0850152620100008204811660c08501526401000000009091041660e08301526006830154610100830152600783015461012083015260088301546101408301526009830154610160830152600a830154839161018084019160ff169081111561087457610874613b32565b600481111561088557610885613b32565b8152600a82015461010090046001600160a01b03166020820152600b820180546040909201916108b490613f67565b80601f01602080910402602001604051908101604052809291908181526020018280546108e090613f67565b801561092d5780601f106109025761010080835404028352916020019161092d565b820191906000526020600020905b81548152906001019060200180831161091057829003601f168201915b50505050508152602001600c82015481525050915050919050565b6000610952612427565b506006546001600160a01b031690565b600082815260076020526040812054600180549192918390811061098857610988613f51565b90600052602060002090600d0201905080600a0160019054906101000a90046001600160a01b03166001600160a01b0316336001600160a01b031614610a1b5760405162461bcd60e51b815260206004820152602260248201527f5468652063616c6c6572206d757374206265207468652061726269747261746f604482015261391760f11b6064820152608401610702565b6003600a82015460ff166004811115610a3657610a36613b32565b14610a925760405162461bcd60e51b815260206004820152602660248201527f54686520646973707574652068617320616c7265616479206265656e2072657360448201526537b63b32b21760d11b6064820152608401610702565b604051838152849033907f394027a5fa6e098a1191094d1719d6929b9abc535fcc0c8f448d6a4e756222769060200160405180910390a3610ad38284612481565b50505050565b6001548210610afa5760405162461bcd60e51b815260040161070290613f1a565b600060018381548110610b0f57610b0f613f51565b60009182526020909120600d9091020180549091506001600160a01b03163314610b4b5760405162461bcd60e51b815260040161070290613fa2565b6000600a82015460ff166004811115610b6657610b66613b32565b14610b835760405162461bcd60e51b815260040161070290613fca565b8181600301541015610bcd5760405162461bcd60e51b815260206004820152601360248201527224b739bab33334b1b4b2b73a10333ab732399760691b6044820152606401610702565b81816003016000828254610be19190614026565b9091555050604080516102008101825282546001600160a01b03908116825260018401548116602083015260028401541691810191909152600382015460608201526004808301546080830152600583015461ffff80821660a0850152620100008204811660c08501526401000000009091041660e08301526006830154610100830152600783015461012083015260088301546101408301526009830154610160830152600a830154610d7f9291849161018084019160ff90911690811115610cad57610cad613b32565b6004811115610cbe57610cbe613b32565b8152600a82015461010090046001600160a01b03166020820152600b82018054604090920191610ced90613f67565b80601f0160208091040260200160405190810160405280929190818152602001828054610d1990613f67565b8015610d665780601f10610d3b57610100808354040283529160200191610d66565b820191906000526020600020905b815481529060010190602001808311610d4957829003601f168201915b50505050508152602001600c820154815250508361275d565b600281015460048201546040517f7eb4d07819d8300e8f1d0a2a11814657be694ee6dbfd0208fdabed36a19e954f92610dca92879260009288926001600160a01b039091169161404d565b60405180910390a1610de481600401548260030154612b8b565b505050565b600060018281548110610dfe57610dfe613f51565b60009182526020909120600d9091020190506001600a82015460ff166004811115610e2b57610e2b613b32565b14610e8e5760405162461bcd60e51b815260206004820152602d60248201527f546865207472616e73616374696f6e206973206e6f742077616974696e67206f60448201526c37103a34329039b2b73232b91760991b6064820152608401610702565b600c8101546009820154610ea29042614026565b1015610ef05760405162461bcd60e51b815260206004820181905260248201527f54696d656f75742074696d6520686173206e6f7420706173736564207965742e6044820152606401610702565b600781015415610f5c57600781018054600091829055825460405191926001600160a01b0390911691839181818185875af1925050503d8060008114610f52576040519150601f19603f3d011682016040523d82523d6000602084013e610f57565b606091505b505050505b610f67826002612481565b5050565b6000610f756139a2565b610f7d6139db565b600080610f8a8787612c2b565b60055460e0840151604051630b7a459360e31b8152600481019190915294985092965090945092506000916001600160a01b0390911690635bd22c989060240160006040518083038186803b158015610fe257600080fd5b505afa158015610ff6573d6000803e3d6000fd5b505050506040513d6000823e601f3d908101601f1916820160405261101e91908101906140ec565b905060006110388660600151836060015161ffff16612d6f565b9050336001600160a01b038516146110625760405162461bcd60e51b815260040161070290613fa2565b60048551600481111561107757611077613b32565b146110bf5760405162461bcd60e51b815260206004820152601860248201527729b2b93b34b1b29039ba30ba3ab9903737ba1037b832b71760411b6044820152606401610702565b6000865160028111156110d4576110d4613b32565b146111215760405162461bcd60e51b815260206004820152601c60248201527f50726f706f73616c20737461747573206e6f742070656e64696e672e000000006044820152606401610702565b8786602001511461116d5760405162461bcd60e51b815260206004820152601660248201527524b731b7b93932b1ba10383937b837b9b0b61024a21760511b6044820152606401610702565b600061118d8a8a856060015186608001518760a001518860c00151612ddd565b6003546040516353eaf57560e11b8152600481018d9052602481018c9052604481018390529192506001600160a01b03169063a7d5eaea90606401600060405180830381600087803b1580156111e257600080fd5b505af11580156111f6573d6000803e3d6000fd5b5050505061120985886040015184613079565b611218818c8960200151613147565b9a9950505050505050505050565b60006001828154811061123b5761123b613f51565b600091825260208220600d9190910201600a81015460405163f7434ea960e01b815291935061010090046001600160a01b03169063f7434ea99061128690600b86019060040161427a565b60206040518083038186803b15801561129e57600080fd5b505afa1580156112b2573d6000803e3d6000fd5b505050506040513d601f19601f820116820180604052508101906112d69190613f01565b90506003600a83015460ff1660048111156112f3576112f3613b32565b106113105760405162461bcd60e51b81526004016107029061428d565b60018201546001600160a01b0316331461136c5760405162461bcd60e51b815260206004820181905260248201527f5468652063616c6c6572206d757374206265207468652072656365697665722e6044820152606401610702565b348260080160008282546113809190614301565b909155505060088201548111156113f05760405162461bcd60e51b815260206004820152602e60248201527f54686520726563656976657220666565206d75737420636f766572206172626960448201526d3a3930ba34b7b71031b7b9ba399760911b6064820152608401610702565b42600983015560405183906000805160206146448339815191529061141c906000906001903490614319565b60405180910390a2808260070154101561147f57600a8201805460ff1916600117905560405183907fc74b9f7dedf2887cd3c113b6d8da9cea19e55c1116e25f1f0e1b72d7543179b59061147290600090614343565b60405180910390a2505050565b610de483826133bd565b611491612427565b61149b600061363b565b565b6114a5612427565b6005805461ffff60b01b1916600160b01b61ffff8416908102919091179091556040519081527f3f96e18595b70057673fcff754fcba8d558da96a28e6476a8a13a1b7e6f2057a906020016104ef565b60006001828154811061150a5761150a613f51565b600091825260208220600d9190910201600a81015460405163f7434ea960e01b815291935061010090046001600160a01b03169063f7434ea99061155590600b86019060040161427a565b60206040518083038186803b15801561156d57600080fd5b505afa158015611581573d6000803e3d6000fd5b505050506040513d601f19601f820116820180604052508101906115a59190613f01565b90506003600a83015460ff1660048111156115c2576115c2613b32565b106115df5760405162461bcd60e51b81526004016107029061428d565b81546001600160a01b031633146116385760405162461bcd60e51b815260206004820152601e60248201527f5468652063616c6c6572206d757374206265207468652073656e6465722e00006044820152606401610702565b3482600701600082825461164c9190614301565b909155505060078201548111156116ba5760405162461bcd60e51b815260206004820152602c60248201527f5468652073656e64657220666565206d75737420636f7665722061726269747260448201526b30ba34b7b71031b7b9ba399760a11b6064820152608401610702565b4260098301556040518390600080516020614644833981519152906116e59060009081903490614319565b60405180910390a2808260080154101561147f57600a8201805460ff1916600217905560405183907fc74b9f7dedf2887cd3c113b6d8da9cea19e55c1116e25f1f0e1b72d7543179b59061147290600190614343565b60006001828154811061175057611750613f51565b90600052602060002090600d0201905080600a0160019054906101000a90046001600160a01b03166001600160a01b03166349912f8834836006015484600b016040518463ffffffff1660e01b81526004016117ad929190614356565b6000604051808303818588803b1580156117c657600080fd5b505af11580156117da573d6000803e3d6000fd5b50505050505050565b60006117ed6139a2565b6117f56139db565b6000806118028787612c2b565b60055460e0840151604051630b7a459360e31b8152600481019190915294985092965090945092506000916001600160a01b0390911690635bd22c989060240160006040518083038186803b15801561185a57600080fd5b505afa15801561186e573d6000803e3d6000fd5b505050506040513d6000823e601f3d908101601f1916820160405261189691908101906140ec565b905060006118b08660600151836060015161ffff16612d6f565b9050336001600160a01b038516146118da5760405162461bcd60e51b815260040161070290613fa2565b80341461191f5760405162461bcd60e51b81526020600482015260136024820152722737b716b6b0ba31b434b73390333ab732399760691b6044820152606401610702565b60408601516001600160a01b03161561197a5760405162461bcd60e51b815260206004820152601760248201527f50726f706f73616c20746f6b656e206e6f74204554482e0000000000000000006044820152606401610702565b878660200151146119c65760405162461bcd60e51b815260206004820152601660248201527524b731b7b93932b1ba10383937b837b9b0b61024a21760511b6044820152606401610702565b6004855160048111156119db576119db613b32565b14611a235760405162461bcd60e51b815260206004820152601860248201527729b2b93b34b1b29039ba30ba3ab9903737ba1037b832b71760411b6044820152606401610702565b600086516002811115611a3857611a38613b32565b14611a855760405162461bcd60e51b815260206004820152601c60248201527f50726f706f73616c20737461747573206e6f742070656e64696e672e000000006044820152606401610702565b6000611aa58a8a856060015186608001518760a001518860c00151612ddd565b6003546040516353eaf57560e11b8152600481018d9052602481018c9052604481018390529192506001600160a01b03169063a7d5eaea90606401600060405180830381600087803b158015611afa57600080fd5b505af1158015611b0e573d6000803e3d6000fd5b50505050611218818c8960200151613147565b600060018381548110611b3657611b36613f51565b60009182526020909120600d9091020180549091506001600160a01b0316331480611b6d575060018101546001600160a01b031633145b611bd05760405162461bcd60e51b815260206004820152602e60248201527f5468652063616c6c6572206d757374206265207468652073656e646572206f7260448201526d103a3432903932b1b2b4bb32b91760911b6064820152608401610702565b6004600a82015460ff166004811115611beb57611beb613b32565b10611c535760405162461bcd60e51b815260206004820152603260248201527f4d757374206e6f742073656e642065766964656e63652069662074686520646960448201527139b83aba329034b9903932b9b7b63b32b21760711b6064820152608401610702565b600a810154604051339185916101009091046001600160a01b0316907fdccf2f8b2cc26eafcd61905cba744cff4b81d14740725f6376390dc6298a6a3c90611c9c90879061436f565b60405180910390a46004805460405162438b6360e81b815233928101929092526000916001600160a01b039091169063438b63009060240160206040518083038186803b158015611cec57600080fd5b505afa158015611d00573d6000803e3d6000fd5b505050506040513d601f19601f82011682018060405250810190611d249190613f01565b905080847fd998ce0f89c38b0f93256f0b843a404a3a3c5055b75265623f7cb9c369a1dd6285604051611d57919061436f565b60405180910390a350505050565b600033611d7a6000546001600160a01b031690565b6001600160a01b03161415611db9578215611da75760405162461bcd60e51b815260040161070290613fa2565b506006546001600160a01b0316611e93565b60055460405162f577a560e81b8152600481018590526001600160a01b039091169063f577a5009060240160006040518083038186803b158015611dfc57600080fd5b505afa158015611e10573d6000803e3d6000fd5b50506005546040516331a9108f60e11b8152600481018790526001600160a01b039091169250636352211e915060240160206040518083038186803b158015611e5857600080fd5b505afa158015611e6c573d6000803e3d6000fd5b505050506040513d601f19601f82011682018060405250810190611e909190614382565b90505b60008381526002602090815260408083206001600160a01b038616845290915281208054919055611ec582848361368b565b60408051858152602081018390526001600160a01b038516917f2227733fc4c8a9034cb58087dcf6995128b9c0233b038b03366aaf30c92b92d6910160405180910390a250505050565b611f17612427565b600680546001600160a01b0319166001600160a01b0392909216919091179055565b611f41612427565b6001600160a01b038116611fa65760405162461bcd60e51b815260206004820152602660248201527f4f776e61626c653a206e6577206f776e657220697320746865207a65726f206160448201526564647265737360d01b6064820152608401610702565b6103178161363b565b600060018281548110611fc457611fc4613f51565b60009182526020909120600d9091020190506002600a82015460ff166004811115611ff157611ff1613b32565b146120565760405162461bcd60e51b815260206004820152602f60248201527f546865207472616e73616374696f6e206973206e6f742077616974696e67206f60448201526e37103a3432903932b1b2b4bb32b91760891b6064820152608401610702565b600c810154600982015461206a9042614026565b10156120b85760405162461bcd60e51b815260206004820181905260248201527f54696d656f75742074696d6520686173206e6f7420706173736564207965742e6044820152606401610702565b60088101541561212757600881018054600091829055600183015460405191926001600160a01b0390911691839181818185875af1925050503d806000811461211d576040519150601f19603f3d011682016040523d82523d6000602084013e612122565b606091505b505050505b610f67826001612481565b60015482106121535760405162461bcd60e51b815260040161070290613f1a565b60006001838154811061216857612168613f51565b600091825260209091206001600d90920201908101549091506001600160a01b031633146121a85760405162461bcd60e51b815260040161070290613fa2565b6000600a82015460ff1660048111156121c3576121c3613b32565b146121e05760405162461bcd60e51b815260040161070290613fca565b818160030154101561222a5760405162461bcd60e51b815260206004820152601360248201527224b739bab33334b1b4b2b73a10333ab732399760691b6044820152606401610702565b8181600301600082825461223e9190614026565b9091555050604080516102008101825282546001600160a01b03908116825260018401548116602083015260028401541691810191909152600382015460608201526004808301546080830152600583015461ffff80821660a0850152620100008204811660c08501526401000000009091041660e08301526006830154610100830152600783015461012083015260088301546101408301526009830154610160830152600a8301546123dc9291849161018084019160ff9091169081111561230a5761230a613b32565b600481111561231b5761231b613b32565b8152600a82015461010090046001600160a01b03166020820152600b8201805460409092019161234a90613f67565b80601f016020809104026020016040519081016040528092919081815260200182805461237690613f67565b80156123c35780601f10612398576101008083540402835291602001916123c3565b820191906000526020600020905b8154815290600101906020018083116123a657829003601f168201915b50505050508152602001600c8201548152505083613751565b600281015460048201546040517f7eb4d07819d8300e8f1d0a2a11814657be694ee6dbfd0208fdabed36a19e954f92610dca92879260019288926001600160a01b039091169161404d565b6000546001600160a01b0316331461149b5760405162461bcd60e51b815260206004820181905260248201527f4f776e61626c653a2063616c6c6572206973206e6f7420746865206f776e65726044820152606401610702565b60006001838154811061249657612496613f51565b90600052602060002090600d02019050600260ff168211156124ec5760405162461bcd60e51b815260206004820152600f60248201526e24b73b30b634b210393ab634b7339760891b6044820152606401610702565b80546001808301546003840180546007860180546008880180546000958690559285905593909355600a8701805460ff191660041790556001600160a01b0395861695909316939092908714156125ad576040516001600160a01b038616908390600081818185875af1925050503d8060008114612586576040519150601f19603f3d011682016040523d82523d6000602084013e61258b565b606091505b50505060028601546125a89086906001600160a01b03168561382a565b612719565b6002871415612621576040516001600160a01b038516908290600081818185875af1925050503d80600081146125ff576040519150601f19603f3d011682016040523d82523d6000602084013e612604565b606091505b50505060028601546125a89085906001600160a01b03168561382a565b600061262e60028461439f565b9050600061263d60028661439f565b600289015490915061265a9088906001600160a01b03168361382a565b60028801546126749087906001600160a01b03168361382a565b6040516001600160a01b038816908390600081818185875af1925050503d80600081146126bd576040519150601f19603f3d011682016040523d82523d6000602084013e6126c2565b606091505b50506040516001600160a01b03881691508390600081818185875af1925050503d806000811461270e576040519150601f19603f3d011682016040523d82523d6000602084013e612713565b606091505b50505050505b877f76b363d70472d47d20e4119f3625c05ed37ca51b1d9e1cd8b87d8c20530640f38860405161274b91815260200190565b60405180910390a25050505050505050565b600354608083015160405163ef0e239b60e01b815260048101919091526000916001600160a01b03169063ef0e239b9060240160006040518083038186803b1580156127a857600080fd5b505afa1580156127bc573d6000803e3d6000fd5b505050506040513d6000823e601f3d908101601f191682016040526127e491908101906143d0565b600480546020860151604051630b89606960e31b81526001600160a01b03918216938101939093529293506000921690635c4b03489060240160206040518083038186803b15801561283557600080fd5b505afa158015612849573d6000803e3d6000fd5b505050506040513d601f19601f8201168201806040525081019061286d9190613f01565b60e083015160a0860151919250906000906127109061289190879061ffff1661448e565b61289b919061439f565b9050600061271061ffff16868860c0015161ffff166128ba919061448e565b6128c4919061439f565b9050600061271061ffff16878960e0015161ffff166128e3919061448e565b6128ed919061439f565b60008080526002602090815260408b8101516001600160a01b031683527fac33ff75c19e70fe83507db0d683fd3465c996598dc972688b7ace676c89077b909152812080549293508592909190612945908490614301565b909155505060008581526002602090815260408083208b8201516001600160a01b031684529091528120805484929061297f908490614301565b909155505060008481526002602090815260408083208b8201516001600160a01b03168452909152812080548392906129b9908490614301565b909155505060408801516001600160a01b0316612a135787602001516001600160a01b03166108fc889081150290604051600060405180830381858888f19350505050158015612a0d573d6000803e3d6000fd5b50612ae4565b60408089015160208a0151915163a9059cbb60e01b81526001600160a01b039283166004820152602481018a905291169063a9059cbb90604401602060405180830381600087803b158015612a6757600080fd5b505af1158015612a7b573d6000803e3d6000fd5b505050506040513d601f19601f82011682018060405250810190612a9f91906144ad565b612ae45760405162461bcd60e51b8152602060048201526016602482015275151c985b9cd9995c881b5d5cdd081b9bdd0819985a5b60521b6044820152606401610702565b60408089015160808a0151825188815260208101919091529182018490526001600160a01b0316907f4295737fccf6c9fdb5562d08f53f32ea89040cee8648445f14b63e74ef2340c89060600160405180910390a260408089015160808a0151825187815260208101919091529182018390526001600160a01b0316907ffb0b45a94ba5e6f6a5787f24ec1cca93129f52cb56ee72ce395736266051152e9060600161274b565b80610f6757600354604051631271956760e21b8152600481018490526001600160a01b03909116906349c6559c90602401600060405180830381600087803b158015612bd657600080fd5b505af1158015612bea573d6000803e3d6000fd5b505050507f6bef1b5e95b741d6e665eb9b5c2d3e1203c46a771451055a9d41e0b8ff4510b782604051612c1f91815260200190565b60405180910390a15050565b612c336139a2565b612c3b6139db565b6000806000612c4a8787613885565b90506000612c5788613914565b6004805460208301516040516331a9108f60e11b8152928301529192506000916001600160a01b031690636352211e9060240160206040518083038186803b158015612ca257600080fd5b505afa158015612cb6573d6000803e3d6000fd5b505050506040513d601f19601f82011682018060405250810190612cda9190614382565b6004805460208601516040516331a9108f60e11b8152928301529192506000916001600160a01b031690636352211e9060240160206040518083038186803b158015612d2557600080fd5b505afa158015612d39573d6000803e3d6000fd5b505050506040513d601f19601f82011682018060405250810190612d5d9190614382565b939a9299509097509195509350505050565b6000612710612d7e838561448e565b600554612d9690600160b01b900461ffff168661448e565b600554612dae90600160a01b900461ffff168761448e565b612db89190614301565b612dc29190614301565b612dcc919061439f565b612dd69084614301565b9392505050565b6000612de76139a2565b612def6139db565b600080612dfc8b8b612c2b565b809450819550829650839750505050506001604051806102000160405280846001600160a01b03168152602001836001600160a01b0316815260200186604001516001600160a01b03168152602001866060015181526020018d8152602001600560149054906101000a900461ffff1661ffff168152602001600560169054906101000a900461ffff1661ffff1681526020018b61ffff16815260200160008152602001600081526020016000815260200142815260200160006004811115612ec757612ec7613b32565b81526001600160a01b03808c1660208084019190915260408084018d905260609384018c90528554600181810188556000978852968390208651600d9092020180549185166001600160a01b03199283161781559286015183880180549186169183169190911790559085015160028301805491909416911617909155908201516003820155608082015160048083019190915560a083015160058301805460c086015160e087015161ffff9081166401000000000265ffff0000000019928216620100000263ffffffff19909416919095161791909117169190911790556101008301516006830155610120830151600783015561014083015160088301556101608301516009830155610180830151600a83018054949593949193909260ff19909216918490811115612ffe57612ffe613b32565b02179055506101a0820151600a820180546001600160a01b0390921661010002610100600160a81b03199092169190911790556101c0820151805161304d91600b840191602090910190613a21565b506101e09190910151600c909101556001805461306a9190614026565b9b9a5050505050505050505050565b6040516323b872dd60e01b81526001600160a01b038481166004830152306024830152604482018390528316906323b872dd906064015b602060405180830381600087803b1580156130ca57600080fd5b505af11580156130de573d6000803e3d6000fd5b505050506040513d601f19601f8201168201806040525081019061310291906144ad565b610de45760405162461bcd60e51b8152602060048201526016602482015275151c985b9cd9995c881b5d5cdd081b9bdd0819985a5b60521b6044820152606401610702565b60006001848154811061315c5761315c613f51565b60009182526020822060048054600d93909302909101805460405162438b6360e81b81526001600160a01b03918216938101939093529094509091169063438b63009060240160206040518083038186803b1580156131ba57600080fd5b505afa1580156131ce573d6000803e3d6000fd5b505050506040513d601f19601f820116820180604052508101906131f29190613f01565b60048054600185015460405162438b6360e81b81526001600160a01b0391821693810193909352929350600092169063438b63009060240160206040518083038186803b15801561324257600080fd5b505afa158015613256573d6000803e3d6000fd5b505050506040513d601f19601f8201168201806040525081019061327a9190613f01565b9050857f61606860eb6c87306811e2695215385101daab53bd6ab4e9f9049aead9363c7d866040516132ac919061436f565b60405180910390a26004830154604080519182526020820186905281018790527fffc7643b52fc7134d23e37eac3c5c4bdad5cf04655528f24663504e15adc4a4a9060600160405180910390a17f1ccb16db9d1499f0b4e030d49bd6575a6ac51f3970af8752ac277fdf4505763b8683838660020160009054906101000a90046001600160a01b031687600301548860040154600560149054906101000a900461ffff16600560169054906101000a900461ffff168b60050160049054906101000a900461ffff168c600a0160019054906101000a90046001600160a01b03168d600b018e600c01546040516133ad9c9b9a999897969594939291906144cf565b60405180910390a1505050505050565b6000600183815481106133d2576133d2613f51565b60009182526020909120600a600d90920201908101805460ff19166003179081905560405163c13517e160e01b81529192506001600160a01b036101009091041690819063c13517e190859061343290600290600b880190600401614556565b6020604051808303818588803b15801561344b57600080fd5b505af115801561345f573d6000803e3d6000fd5b50505050506040513d601f19601f820116820180604052508101906134849190613f01565b6006830181815560009182526007602090815260409283902087905590548251878152918201879052916001600160a01b038416917f74baab670a4015ab2f1b467c5252a96141a2573f2908e58a92081e80d3cfde3d910160405180910390a3828260070154111561358c5760008383600701546135029190614026565b6007840185905583546040519192506001600160a01b0316908290600081818185875af1925050503d8060008114613556576040519150601f19603f3d011682016040523d82523d6000602084013e61355b565b606091505b50505084600080516020614644833981519152600160003460405161358293929190614319565b60405180910390a2505b8282600801541115610ad35760008383600801546135aa9190614026565b6008840185905560018401546040519192506001600160a01b0316908290600081818185875af1925050503d8060008114613601576040519150601f19603f3d011682016040523d82523d6000602084013e613606565b606091505b505050846000805160206146448339815191526001803460405161362c93929190614319565b60405180910390a25050505050565b600080546001600160a01b038381166001600160a01b0319831681178455604051919092169283917f8be0079c531659141344cd1fd0a4f28419497f9722a3daafe3b4186f6b6457e09190a35050565b6001600160a01b0382166136cf576040516001600160a01b0384169082156108fc029083906000818181858888f19350505050158015610ad3573d6000803e3d6000fd5b60405163a9059cbb60e01b81526001600160a01b0384811660048301526024820183905283169063a9059cbb90604401602060405180830381600087803b15801561371957600080fd5b505af115801561372d573d6000803e3d6000fd5b505050506040513d601f19601f82011682018060405250810190610ad391906144ad565b600061271061ffff16828460e001518560c001518660a001516137749190614572565b61377e9190614572565b61ffff1661378c919061448e565b613796919061439f565b6137a09083614301565b60408401519091506001600160a01b03166137ee5782516040516001600160a01b039091169082156108fc029083906000818181858888f19350505050158015610ad3573d6000803e3d6000fd5b6040838101518451915163a9059cbb60e01b81526001600160a01b0392831660048201526024810184905291169063a9059cbb906044016130b0565b6001600160a01b0382166136cf576000836001600160a01b03168260405160006040518083038185875af1925050503d80600081146117da576040519150601f19603f3d011682016040523d82523d6000602084013e6117da565b61388d6139a2565b60035460405163aba2100960e01b815260048101859052602481018490526001600160a01b039091169063aba210099060440160006040518083038186803b1580156138d857600080fd5b505afa1580156138ec573d6000803e3d6000fd5b505050506040513d6000823e601f3d908101601f19168201604052612dd69190810190614598565b61391c6139db565b60035460405163ef0e239b60e01b8152600481018490526001600160a01b039091169063ef0e239b9060240160006040518083038186803b15801561396057600080fd5b505afa158015613974573d6000803e3d6000fd5b505050506040513d6000823e601f3d908101601f1916820160405261399c91908101906143d0565b92915050565b6040805160a0810190915280600081526020016000815260200160006001600160a01b0316815260200160008152602001606081525090565b6040805161010081019091528060008152602001600081526020016000815260200160008152602001606081526020016000815260200160008152602001600081525090565b828054613a2d90613f67565b90600052602060002090601f016020900481019282613a4f5760008555613a95565b82601f10613a6857805160ff1916838001178555613a95565b82800160010185558215613a95579182015b82811115613a95578251825591602001919060010190613a7a565b50613aa1929150613aa5565b5090565b5b80821115613aa15760008155600101613aa6565b61ffff8116811461031757600080fd5b600060208284031215613adc57600080fd5b8135612dd681613aba565b6001600160a01b038116811461031757600080fd5b600060208284031215613b0e57600080fd5b8135612dd681613ae7565b600060208284031215613b2b57600080fd5b5035919050565b634e487b7160e01b600052602160045260246000fd5b60058110613b5857613b58613b32565b9052565b60005b83811015613b77578181015183820152602001613b5f565b83811115610ad35750506000910152565b60008151808452613ba0816020860160208601613b5c565b601f01601f19169290920160200192915050565b60208152613bce6020820183516001600160a01b03169052565b60006020830151613bea60408401826001600160a01b03169052565b5060408301516001600160a01b03811660608401525060608301516080830152608083015160a083015260a0830151613c2960c084018261ffff169052565b5060c083015161ffff811660e08401525060e0830151610100613c518185018361ffff169052565b8401516101208481019190915284015161014080850191909152840151610160808501919091528401516101808085019190915284015190506101a0613c9981850183613b48565b84015190506101c0613cb5848201836001600160a01b03169052565b808501519150506102006101e08181860152613cd5610220860184613b88565b9501519301929092525090919050565b60008060408385031215613cf857600080fd5b50508035926020909101359150565b634e487b7160e01b600052604160045260246000fd5b60405160e0810167ffffffffffffffff81118282101715613d4057613d40613d07565b60405290565b604051610100810167ffffffffffffffff81118282101715613d4057613d40613d07565b60405160a0810167ffffffffffffffff81118282101715613d4057613d40613d07565b604051601f8201601f1916810167ffffffffffffffff81118282101715613db657613db6613d07565b604052919050565b600067ffffffffffffffff821115613dd857613dd8613d07565b50601f01601f191660200190565b600082601f830112613df757600080fd5b8135613e0a613e0582613dbe565b613d8d565b818152846020838601011115613e1f57600080fd5b816020850160208301376000918101602001919091529392505050565b600080600060608486031215613e5157600080fd5b833567ffffffffffffffff811115613e6857600080fd5b613e7486828701613de6565b9660208601359650604090950135949350505050565b60008060408385031215613e9d57600080fd5b82359150602083013567ffffffffffffffff811115613ebb57600080fd5b613ec785828601613de6565b9150509250929050565b60008060408385031215613ee457600080fd5b823591506020830135613ef681613ae7565b809150509250929050565b600060208284031215613f1357600080fd5b5051919050565b6020808252601b908201527f4e6f7420612076616c6964207472616e73616374696f6e2069642e0000000000604082015260600190565b634e487b7160e01b600052603260045260246000fd5b600181811c90821680613f7b57607f821691505b60208210811415613f9c57634e487b7160e01b600052602260045260246000fd5b50919050565b6020808252600e908201526d20b1b1b2b9b9903232b734b2b21760911b604082015260600190565b60208082526026908201527f546865207472616e73616374696f6e2073686f756c646e277420626520646973604082015265383aba32b21760d11b606082015260800190565b634e487b7160e01b600052601160045260246000fd5b60008282101561403857614038614010565b500390565b6002811061031757610317613b32565b85815260a0810161405d8661403d565b602082019590955260408101939093526001600160a01b03919091166060830152608090910152919050565b600082601f83011261409a57600080fd5b81516140a8613e0582613dbe565b8181528460208386010111156140bd57600080fd5b6140ce826020830160208701613b5c565b949350505050565b805161065c81613aba565b805161065c81613ae7565b6000602082840312156140fe57600080fd5b815167ffffffffffffffff8082111561411657600080fd5b9083019060e0828603121561412a57600080fd5b614132613d1d565b8251815260208301518281111561414857600080fd5b61415487828601614089565b60208301525060408301518281111561416c57600080fd5b61417887828601614089565b60408301525061418a606084016140d6565b606082015261419b608084016140e1565b608082015260a0830151828111156141b257600080fd5b6141be87828601614089565b60a08301525060c083015160c082015280935050505092915050565b8054600090600181811c90808316806141f457607f831692505b602080841082141561421657634e487b7160e01b600052602260045260246000fd5b8388526020880182801561423157600181146142425761426d565b60ff1987168252828201975061426d565b60008981526020902060005b878110156142675781548482015290860190840161424e565b83019850505b5050505050505092915050565b602081526000612dd660208301846141da565b6020808252604e908201527f446973707574652068617320616c7265616479206265656e206372656174656460408201527f206f72206265636175736520746865207472616e73616374696f6e206861732060608201526d3132b2b71032bc32b1baba32b21760911b608082015260a00190565b6000821982111561431457614314614010565b500190565b606081016143268561403d565b8482526143328461403d565b602082019390935260400152919050565b602081016143508361403d565b91905290565b8281526040602082015260006140ce60408301846141da565b602081526000612dd66020830184613b88565b60006020828403121561439457600080fd5b8151612dd681613ae7565b6000826143bc57634e487b7160e01b600052601260045260246000fd5b500490565b80516005811061065c57600080fd5b6000602082840312156143e257600080fd5b815167ffffffffffffffff808211156143fa57600080fd5b90830190610100828603121561440f57600080fd5b614417613d46565b614420836143c1565b815260208301516020820152604083015160408201526060830151606082015260808301518281111561445257600080fd5b61445e87828601614089565b60808301525060a083015160a082015260c083015160c082015260e083015160e082015280935050505092915050565b60008160001904831182151516156144a8576144a8614010565b500290565b6000602082840312156144bf57600080fd5b81518015158114612dd657600080fd5b8c8152602081018c9052604081018b90526001600160a01b038a81166060830152608082018a905260a0820189905261ffff88811660c084015287811660e084015286166101008301528416610120820152610180610140820181905260009061453b838201866141da565b915050826101608301529d9c50505050505050505050505050565b60ff831681526040602082015260006140ce60408301846141da565b600061ffff80831681851680830382111561458f5761458f614010565b01949350505050565b6000602082840312156145aa57600080fd5b815167ffffffffffffffff808211156145c257600080fd5b9083019060a082860312156145d657600080fd5b6145de613d6a565b8251600381106145ed57600080fd5b815260208381015190820152604083015161460781613ae7565b60408201526060838101519082015260808301518281111561462857600080fd5b61463487828601614089565b6080830152509594505050505056fe73e533bc8a993eccbc1023beebad0020f6b6c3639f83062f00fc194b4d1172baa264697066735822122070f0347204651e6f9b89a75b2011797c981104409333153ee7e4b9ef5654193b64736f6c63430008090033",
  "linkReferences": {},
  "deployedLinkReferences": {}
}