{
  "_format": "hh-sol-artifact-1",
  "contractName": "TalentLayerArbitrator",
  "sourceName": "contracts/kleros/TalentLayerArbitrator.sol",
  "abi": [
    {
      "inputs": [
        {
          "internalType": "uint256",
          "name": "_arbitrationPrice",
          "type": "uint256"
        },
        {
          "internalType": "address",
          "name": "_talentLayerPlatformIDAddress",
          "type": "address"
        }
      ],
      "stateMutability": "nonpayable",
      "type": "constructor"
    },
    {
      "anonymous": false,
      "inputs": [
        {
          "indexed": true,
          "internalType": "uint256",
          "name": "_disputeID",
          "type": "uint256"
        },
        {
          "indexed": true,
          "internalType": "contract Arbitrable",
          "name": "_arbitrable",
          "type": "address"
        }
      ],
      "name": "AppealDecision",
      "type": "event"
    },
    {
      "anonymous": false,
      "inputs": [
        {
          "indexed": true,
          "internalType": "uint256",
          "name": "_disputeID",
          "type": "uint256"
        },
        {
          "indexed": true,
          "internalType": "contract Arbitrable",
          "name": "_arbitrable",
          "type": "address"
        }
      ],
      "name": "AppealPossible",
      "type": "event"
    },
    {
      "anonymous": false,
      "inputs": [
        {
          "indexed": true,
          "internalType": "uint256",
          "name": "_disputeID",
          "type": "uint256"
        },
        {
          "indexed": true,
          "internalType": "contract Arbitrable",
          "name": "_arbitrable",
          "type": "address"
        }
      ],
      "name": "DisputeCreation",
      "type": "event"
    },
    {
      "inputs": [
        {
          "internalType": "uint256",
          "name": "_disputeID",
          "type": "uint256"
        },
        {
          "internalType": "bytes",
          "name": "_extraData",
          "type": "bytes"
        }
      ],
      "name": "appeal",
      "outputs": [],
      "stateMutability": "payable",
      "type": "function"
    },
    {
      "inputs": [
        {
          "internalType": "uint256",
          "name": "_disputeID",
          "type": "uint256"
        },
        {
          "internalType": "bytes",
          "name": "_extraData",
          "type": "bytes"
        }
      ],
      "name": "appealCost",
      "outputs": [
        {
          "internalType": "uint256",
          "name": "fee",
          "type": "uint256"
        }
      ],
      "stateMutability": "view",
      "type": "function"
    },
    {
      "inputs": [
        {
          "internalType": "uint256",
          "name": "_disputeID",
          "type": "uint256"
        }
      ],
      "name": "appealPeriod",
      "outputs": [
        {
          "internalType": "uint256",
          "name": "start",
          "type": "uint256"
        },
        {
          "internalType": "uint256",
          "name": "end",
          "type": "uint256"
        }
      ],
      "stateMutability": "view",
      "type": "function"
    },
    {
      "inputs": [
        {
          "internalType": "bytes",
          "name": "_extraData",
          "type": "bytes"
        }
      ],
      "name": "arbitrationCost",
      "outputs": [
        {
          "internalType": "uint256",
          "name": "fee",
          "type": "uint256"
        }
      ],
      "stateMutability": "view",
      "type": "function"
    },
    {
      "inputs": [
        {
          "internalType": "uint256",
          "name": "_choices",
          "type": "uint256"
        },
        {
          "internalType": "bytes",
          "name": "_extraData",
          "type": "bytes"
        }
      ],
      "name": "createDispute",
      "outputs": [
        {
          "internalType": "uint256",
          "name": "disputeID",
          "type": "uint256"
        }
      ],
      "stateMutability": "payable",
      "type": "function"
    },
    {
      "inputs": [
        {
          "internalType": "uint256",
          "name": "_disputeID",
          "type": "uint256"
        }
      ],
      "name": "currentRuling",
      "outputs": [
        {
          "internalType": "uint256",
          "name": "ruling",
          "type": "uint256"
        }
      ],
      "stateMutability": "view",
      "type": "function"
    },
    {
      "inputs": [
        {
          "internalType": "uint256",
          "name": "_disputeID",
          "type": "uint256"
        }
      ],
      "name": "disputeStatus",
      "outputs": [
        {
          "internalType": "enum Arbitrator.DisputeStatus",
          "name": "status",
          "type": "uint8"
        }
      ],
      "stateMutability": "view",
      "type": "function"
    },
    {
      "inputs": [
        {
          "internalType": "uint256",
          "name": "",
          "type": "uint256"
        }
      ],
      "name": "disputes",
      "outputs": [
        {
          "internalType": "contract Arbitrable",
          "name": "arbitrated",
          "type": "address"
        },
        {
          "internalType": "uint256",
          "name": "choices",
          "type": "uint256"
        },
        {
          "internalType": "uint256",
          "name": "fee",
          "type": "uint256"
        },
        {
          "internalType": "uint256",
          "name": "ruling",
          "type": "uint256"
        },
        {
          "internalType": "uint256",
          "name": "platformId",
          "type": "uint256"
        },
        {
          "internalType": "enum Arbitrator.DisputeStatus",
          "name": "status",
          "type": "uint8"
        }
      ],
      "stateMutability": "view",
      "type": "function"
    },
    {
      "inputs": [
        {
          "internalType": "uint256",
          "name": "_disputeID",
          "type": "uint256"
        },
        {
          "internalType": "uint256",
          "name": "_ruling",
          "type": "uint256"
        }
      ],
      "name": "giveRuling",
      "outputs": [],
      "stateMutability": "nonpayable",
      "type": "function"
    },
    {
      "inputs": [],
      "name": "owner",
      "outputs": [
        {
          "internalType": "address",
          "name": "",
          "type": "address"
        }
      ],
      "stateMutability": "view",
      "type": "function"
    },
    {
      "inputs": [
        {
          "internalType": "uint256",
          "name": "_arbitrationPrice",
          "type": "uint256"
        }
      ],
      "name": "setArbitrationPrice",
      "outputs": [],
      "stateMutability": "nonpayable",
      "type": "function"
    }
  ],
  "bytecode": "0x6080604052600080546001600160a01b0319163317905534801561002257600080fd5b50604051610c21380380610c218339810160408190526100419161006b565b600191909155600280546001600160a01b0319166001600160a01b039092169190911790556100a8565b6000806040838503121561007e57600080fd5b825160208401519092506001600160a01b038116811461009d57600080fd5b809150509250929050565b610b6a806100b76000396000f3fe60806040526004361061009c5760003560e01c8063afe15cfb11610064578063afe15cfb14610184578063c13517e1146101bc578063c97c4d5c146101cf578063f23f16e6146101ef578063f7434ea91461020f578063ffb43c481461023157600080fd5b806310f169e8146100a15780631c3db16d146100d757806349912f8814610105578063564a565d1461011a5780638da5cb5b1461014c575b600080fd5b3480156100ad57600080fd5b506100c16100bc3660046108dd565b610251565b6040516100ce919061092e565b60405180910390f35b3480156100e357600080fd5b506100f76100f23660046108dd565b610283565b6040519081526020016100ce565b6101186101133660046109df565b6102b1565b005b34801561012657600080fd5b5061013a6101353660046108dd565b610352565b6040516100ce96959493929190610a26565b34801561015857600080fd5b5060005461016c906001600160a01b031681565b6040516001600160a01b0390911681526020016100ce565b34801561019057600080fd5b506101a761019f3660046108dd565b600080915091565b604080519283526020830191909152016100ce565b6100f76101ca3660046109df565b6103a5565b3480156101db57600080fd5b506101186101ea366004610a6a565b6104e4565b3480156101fb57600080fd5b506100f761020a3660046109df565b610612565b34801561021b57600080fd5b506100f761022a366004610a8c565b5060015490565b34801561023d57600080fd5b5061011861024c3660046108dd565b610621565b60006003828154811061026657610266610ac9565b600091825260209091206005600690920201015460ff1692915050565b60006003828154811061029857610298610ac9565b9060005260206000209060060201600301549050919050565b81816102bd8282610612565b34101561031f5760405162461bcd60e51b815260206004820152602560248201527f4e6f7420656e6f7567682045544820746f20636f7665722061707065616c206360448201526437b9ba399760d91b60648201526084015b60405180910390fd5b604051339085907f9c9b64db9e130f48381bf697abf638e73117dbfbfd7a4484f2da3ba188f4187d90600090a350505050565b6003818154811061036257600080fd5b60009182526020909120600690910201805460018201546002830154600384015460048501546005909501546001600160a01b0390941695509193909260ff1686565b60006103b18383610680565b5060006103bd836106f5565b905060036040518060c00160405280336001600160a01b031681526020018681526020013481526020016000815260200183815260200160006002811115610407576104076108f6565b90528154600180820184556000938452602093849020835160069093020180546001600160a01b0319166001600160a01b0390931692909217825592820151818401556040820151600280830191909155606083015160038301556080830151600483015560a0830151600583018054949593949193909260ff19909216918490811115610497576104976108f6565b0217905550506003546104ad9150600190610adf565b604051909250339083907f141dfc18aa6a56fc816f44f0e9e2f1ebc92b15ab167770e17db5b084c10ed99590600090a35092915050565b6000600383815481106104f9576104f9610ac9565b6000918252602090912060025460046006909302909101828101546040516331a9108f60e11b81529384015292506001600160a01b031690636352211e9060240160206040518083038186803b15801561055257600080fd5b505afa158015610566573d6000803e3d6000fd5b505050506040513d601f19601f8201168201806040525081019061058a9190610b04565b6001600160a01b0316336001600160a01b0316146106035760405162461bcd60e51b815260206004820152603060248201527f4f6e6c7920746865206f776e6572206f662074686520706c6174666f726d206360448201526f616e206769766520612072756c696e6760801b6064820152608401610316565b61060d8383610748565b505050565b6001600160ff1b035b92915050565b6000546001600160a01b0316331461067b5760405162461bcd60e51b815260206004820181905260248201527f43616e206f6e6c792062652063616c6c656420627920746865206f776e65722e6044820152606401610316565b600155565b60008161068c60015490565b3410156106ee5760405162461bcd60e51b815260206004820152602a60248201527f4e6f7420656e6f7567682045544820746f20636f76657220617262697472617460448201526934b7b71031b7b9ba399760b11b6064820152608401610316565b5092915050565b60006020825110156107405760405162461bcd60e51b8152602060048201526014602482015273736c6963696e67206f7574206f662072616e676560601b6044820152606401610316565b506020015190565b60006003838154811061075d5761075d610ac9565b9060005260206000209060060201905080600101548211156107b35760405162461bcd60e51b815260206004820152600f60248201526e24b73b30b634b210393ab634b7339760891b6044820152606401610316565b6002600582015460ff1660028111156107ce576107ce6108f6565b141561082c5760405162461bcd60e51b815260206004820152602760248201527f5468652064697370757465206d757374206e6f7420626520736f6c7665642061604482015266363932b0b23c9760c91b6064820152608401610316565b6003810182905560058101805460ff1916600290811790915581015460405133916108fc811502916000818181858888f19350505050158015610873573d6000803e3d6000fd5b50805460405163188d362b60e11b815260048101859052602481018490526001600160a01b039091169063311a6c5690604401600060405180830381600087803b1580156108c057600080fd5b505af11580156108d4573d6000803e3d6000fd5b50505050505050565b6000602082840312156108ef57600080fd5b5035919050565b634e487b7160e01b600052602160045260246000fd5b6003811061092a57634e487b7160e01b600052602160045260246000fd5b9052565b6020810161061b828461090c565b634e487b7160e01b600052604160045260246000fd5b600082601f83011261096357600080fd5b813567ffffffffffffffff8082111561097e5761097e61093c565b604051601f8301601f19908116603f011681019082821181831017156109a6576109a661093c565b816040528381528660208588010111156109bf57600080fd5b836020870160208301376000602085830101528094505050505092915050565b600080604083850312156109f257600080fd5b82359150602083013567ffffffffffffffff811115610a1057600080fd5b610a1c85828601610952565b9150509250929050565b6001600160a01b03871681526020810186905260408101859052606081018490526080810183905260c08101610a5f60a083018461090c565b979650505050505050565b60008060408385031215610a7d57600080fd5b50508035926020909101359150565b600060208284031215610a9e57600080fd5b813567ffffffffffffffff811115610ab557600080fd5b610ac184828501610952565b949350505050565b634e487b7160e01b600052603260045260246000fd5b600082821015610aff57634e487b7160e01b600052601160045260246000fd5b500390565b600060208284031215610b1657600080fd5b81516001600160a01b0381168114610b2d57600080fd5b939250505056fea2646970667358221220e3a00184ed9fd2af7036fa6bfed6944c2d702edb472a8e397292673b7dd9384864736f6c63430008090033",
  "linkReferences": {},
  "deployedLinkReferences": {}
}