{
  "_format": "hh-sol-artifact-1",
  "contractName": "TalentLayerArbitrator",
  "sourceName": "contracts/kleros/TalentLayerArbitrator.sol",
  "abi": [
    {
      "inputs": [
        {
          "internalType": "uint256",
          "name": "_arbitrationPrice",
          "type": "uint256"
        }
      ],
      "stateMutability": "nonpayable",
      "type": "constructor"
    },
    {
      "anonymous": false,
      "inputs": [
        {
          "indexed": true,
          "internalType": "uint256",
          "name": "_disputeID",
          "type": "uint256"
        },
        {
          "indexed": true,
          "internalType": "contract Arbitrable",
          "name": "_arbitrable",
          "type": "address"
        }
      ],
      "name": "AppealDecision",
      "type": "event"
    },
    {
      "anonymous": false,
      "inputs": [
        {
          "indexed": true,
          "internalType": "uint256",
          "name": "_disputeID",
          "type": "uint256"
        },
        {
          "indexed": true,
          "internalType": "contract Arbitrable",
          "name": "_arbitrable",
          "type": "address"
        }
      ],
      "name": "AppealPossible",
      "type": "event"
    },
    {
      "anonymous": false,
      "inputs": [
        {
          "indexed": true,
          "internalType": "uint256",
          "name": "_disputeID",
          "type": "uint256"
        },
        {
          "indexed": true,
          "internalType": "contract Arbitrable",
          "name": "_arbitrable",
          "type": "address"
        }
      ],
      "name": "DisputeCreation",
      "type": "event"
    },
    {
      "inputs": [
        {
          "internalType": "uint256",
          "name": "_disputeID",
          "type": "uint256"
        },
        {
          "internalType": "bytes",
          "name": "_extraData",
          "type": "bytes"
        }
      ],
      "name": "appeal",
      "outputs": [],
      "stateMutability": "payable",
      "type": "function"
    },
    {
      "inputs": [
        {
          "internalType": "uint256",
          "name": "_disputeID",
          "type": "uint256"
        },
        {
          "internalType": "bytes",
          "name": "_extraData",
          "type": "bytes"
        }
      ],
      "name": "appealCost",
      "outputs": [
        {
          "internalType": "uint256",
          "name": "fee",
          "type": "uint256"
        }
      ],
      "stateMutability": "view",
      "type": "function"
    },
    {
      "inputs": [
        {
          "internalType": "uint256",
          "name": "_disputeID",
          "type": "uint256"
        }
      ],
      "name": "appealPeriod",
      "outputs": [
        {
          "internalType": "uint256",
          "name": "start",
          "type": "uint256"
        },
        {
          "internalType": "uint256",
          "name": "end",
          "type": "uint256"
        }
      ],
      "stateMutability": "view",
      "type": "function"
    },
    {
      "inputs": [
        {
          "internalType": "bytes",
          "name": "_extraData",
          "type": "bytes"
        }
      ],
      "name": "arbitrationCost",
      "outputs": [
        {
          "internalType": "uint256",
          "name": "fee",
          "type": "uint256"
        }
      ],
      "stateMutability": "view",
      "type": "function"
    },
    {
      "inputs": [
        {
          "internalType": "uint256",
          "name": "_choices",
          "type": "uint256"
        },
        {
          "internalType": "bytes",
          "name": "_extraData",
          "type": "bytes"
        }
      ],
      "name": "createDispute",
      "outputs": [
        {
          "internalType": "uint256",
          "name": "disputeID",
          "type": "uint256"
        }
      ],
      "stateMutability": "payable",
      "type": "function"
    },
    {
      "inputs": [
        {
          "internalType": "uint256",
          "name": "_disputeID",
          "type": "uint256"
        }
      ],
      "name": "currentRuling",
      "outputs": [
        {
          "internalType": "uint256",
          "name": "ruling",
          "type": "uint256"
        }
      ],
      "stateMutability": "view",
      "type": "function"
    },
    {
      "inputs": [
        {
          "internalType": "uint256",
          "name": "_disputeID",
          "type": "uint256"
        }
      ],
      "name": "disputeStatus",
      "outputs": [
        {
          "internalType": "enum Arbitrator.DisputeStatus",
          "name": "status",
          "type": "uint8"
        }
      ],
      "stateMutability": "view",
      "type": "function"
    },
    {
      "inputs": [
        {
          "internalType": "uint256",
          "name": "",
          "type": "uint256"
        }
      ],
      "name": "disputes",
      "outputs": [
        {
          "internalType": "contract Arbitrable",
          "name": "arbitrated",
          "type": "address"
        },
        {
          "internalType": "uint256",
          "name": "choices",
          "type": "uint256"
        },
        {
          "internalType": "uint256",
          "name": "fee",
          "type": "uint256"
        },
        {
          "internalType": "uint256",
          "name": "ruling",
          "type": "uint256"
        },
        {
          "internalType": "enum Arbitrator.DisputeStatus",
          "name": "status",
          "type": "uint8"
        }
      ],
      "stateMutability": "view",
      "type": "function"
    },
    {
      "inputs": [
        {
          "internalType": "uint256",
          "name": "_disputeID",
          "type": "uint256"
        },
        {
          "internalType": "uint256",
          "name": "_ruling",
          "type": "uint256"
        }
      ],
      "name": "giveRuling",
      "outputs": [],
      "stateMutability": "nonpayable",
      "type": "function"
    },
    {
      "inputs": [],
      "name": "owner",
      "outputs": [
        {
          "internalType": "address",
          "name": "",
          "type": "address"
        }
      ],
      "stateMutability": "view",
      "type": "function"
    },
    {
      "inputs": [
        {
          "internalType": "uint256",
          "name": "_arbitrationPrice",
          "type": "uint256"
        }
      ],
      "name": "setArbitrationPrice",
      "outputs": [],
      "stateMutability": "nonpayable",
      "type": "function"
    }
  ],
  "bytecode": "0x6080604052600080546001600160a01b0319163317905534801561002257600080fd5b50604051610a66380380610a6683398101604081905261004191610049565b600155610062565b60006020828403121561005b57600080fd5b5051919050565b6109f5806100716000396000f3fe60806040526004361061009c5760003560e01c8063afe15cfb11610064578063afe15cfb14610183578063c13517e1146101bb578063c97c4d5c146101ce578063f23f16e6146101ee578063f7434ea91461020e578063ffb43c481461023057600080fd5b806310f169e8146100a15780631c3db16d146100d757806349912f8814610105578063564a565d1461011a5780638da5cb5b1461014b575b600080fd5b3480156100ad57600080fd5b506100c16100bc3660046107a0565b610250565b6040516100ce91906107f1565b60405180910390f35b3480156100e357600080fd5b506100f76100f23660046107a0565b610282565b6040519081526020016100ce565b6101186101133660046108a2565b6102b0565b005b34801561012657600080fd5b5061013a6101353660046107a0565b610351565b6040516100ce9594939291906108e9565b34801561015757600080fd5b5060005461016b906001600160a01b031681565b6040516001600160a01b0390911681526020016100ce565b34801561018f57600080fd5b506101a661019e3660046107a0565b600080915091565b604080519283526020830191909152016100ce565b6100f76101c93660046108a2565b61039f565b3480156101da57600080fd5b506101186101e9366004610925565b6104c0565b3480156101fa57600080fd5b506100f76102093660046108a2565b610528565b34801561021a57600080fd5b506100f7610229366004610947565b5060015490565b34801561023c57600080fd5b5061011861024b3660046107a0565b610537565b60006002828154811061026557610265610984565b600091825260209091206004600590920201015460ff1692915050565b60006002828154811061029757610297610984565b9060005260206000209060050201600301549050919050565b81816102bc8282610528565b34101561031e5760405162461bcd60e51b815260206004820152602560248201527f4e6f7420656e6f7567682045544820746f20636f7665722061707065616c206360448201526437b9ba399760d91b60648201526084015b60405180910390fd5b604051339085907f9c9b64db9e130f48381bf697abf638e73117dbfbfd7a4484f2da3ba188f4187d90600090a350505050565b6002818154811061036157600080fd5b6000918252602090912060059091020180546001820154600283015460038401546004909401546001600160a01b0390931694509092909160ff1685565b60006103ab8383610596565b5060026040518060a00160405280336001600160a01b0316815260200185815260200134815260200160008152602001600060028111156103ee576103ee6107b9565b90528154600180820184556000938452602093849020835160059093020180546001600160a01b0319166001600160a01b0390931692909217825592820151818401556040820151600280830191909155606083015160038301556080830151600483018054949593949193909260ff19909216918490811115610474576104746107b9565b02179055505060025461048a915060019061099a565b604051909150339082907f141dfc18aa6a56fc816f44f0e9e2f1ebc92b15ab167770e17db5b084c10ed99590600090a392915050565b6000546001600160a01b0316331461051a5760405162461bcd60e51b815260206004820181905260248201527f43616e206f6e6c792062652063616c6c656420627920746865206f776e65722e6044820152606401610315565b610524828261060b565b5050565b6001600160ff1b035b92915050565b6000546001600160a01b031633146105915760405162461bcd60e51b815260206004820181905260248201527f43616e206f6e6c792062652063616c6c656420627920746865206f776e65722e6044820152606401610315565b600155565b6000816105a260015490565b3410156106045760405162461bcd60e51b815260206004820152602a60248201527f4e6f7420656e6f7567682045544820746f20636f76657220617262697472617460448201526934b7b71031b7b9ba399760b11b6064820152608401610315565b5092915050565b60006002838154811061062057610620610984565b9060005260206000209060050201905080600101548211156106765760405162461bcd60e51b815260206004820152600f60248201526e24b73b30b634b210393ab634b7339760891b6044820152606401610315565b6002600482015460ff166002811115610691576106916107b9565b14156106ef5760405162461bcd60e51b815260206004820152602760248201527f5468652064697370757465206d757374206e6f7420626520736f6c7665642061604482015266363932b0b23c9760c91b6064820152608401610315565b6003810182905560048101805460ff1916600290811790915581015460405133916108fc811502916000818181858888f19350505050158015610736573d6000803e3d6000fd5b50805460405163188d362b60e11b815260048101859052602481018490526001600160a01b039091169063311a6c5690604401600060405180830381600087803b15801561078357600080fd5b505af1158015610797573d6000803e3d6000fd5b50505050505050565b6000602082840312156107b257600080fd5b5035919050565b634e487b7160e01b600052602160045260246000fd5b600381106107ed57634e487b7160e01b600052602160045260246000fd5b9052565b6020810161053182846107cf565b634e487b7160e01b600052604160045260246000fd5b600082601f83011261082657600080fd5b813567ffffffffffffffff80821115610841576108416107ff565b604051601f8301601f19908116603f01168101908282118183101715610869576108696107ff565b8160405283815286602085880101111561088257600080fd5b836020870160208301376000602085830101528094505050505092915050565b600080604083850312156108b557600080fd5b82359150602083013567ffffffffffffffff8111156108d357600080fd5b6108df85828601610815565b9150509250929050565b6001600160a01b038616815260208101859052604081018490526060810183905260a0810161091b60808301846107cf565b9695505050505050565b6000806040838503121561093857600080fd5b50508035926020909101359150565b60006020828403121561095957600080fd5b813567ffffffffffffffff81111561097057600080fd5b61097c84828501610815565b949350505050565b634e487b7160e01b600052603260045260246000fd5b6000828210156109ba57634e487b7160e01b600052601160045260246000fd5b50039056fea2646970667358221220611dd43c1b8e42589985e550f6d7e0f2d550407c0963c8bc95aab92ff9efb4e664736f6c63430008090033",
  "linkReferences": {},
  "deployedLinkReferences": {}
}