{
  "_format": "hh-sol-artifact-1",
  "contractName": "TalentLayerMultipleArbitrableTransaction",
  "sourceName": "contracts/kleros/TalentLayerMultipleArbitrableTransaction.sol",
  "abi": [
    {
      "inputs": [
        {
          "internalType": "address",
          "name": "_jobRegistryAddress",
          "type": "address"
        },
        {
          "internalType": "address",
          "name": "_talentLayerIDAddress",
          "type": "address"
        },
        {
          "internalType": "contract Arbitrator",
          "name": "_arbitrator",
          "type": "address"
        },
        {
          "internalType": "bytes",
          "name": "_arbitratorExtraData",
          "type": "bytes"
        },
        {
          "internalType": "uint256",
          "name": "_feeTimeout",
          "type": "uint256"
        }
      ],
      "stateMutability": "nonpayable",
      "type": "constructor"
    },
    {
      "anonymous": false,
      "inputs": [
        {
          "indexed": true,
          "internalType": "contract Arbitrator",
          "name": "_arbitrator",
          "type": "address"
        },
        {
          "indexed": true,
          "internalType": "uint256",
          "name": "_disputeID",
          "type": "uint256"
        },
        {
          "indexed": false,
          "internalType": "uint256",
          "name": "_metaEvidenceID",
          "type": "uint256"
        },
        {
          "indexed": false,
          "internalType": "uint256",
          "name": "_evidenceGroupID",
          "type": "uint256"
        }
      ],
      "name": "Dispute",
      "type": "event"
    },
    {
      "anonymous": false,
      "inputs": [
        {
          "indexed": true,
          "internalType": "contract Arbitrator",
          "name": "_arbitrator",
          "type": "address"
        },
        {
          "indexed": true,
          "internalType": "uint256",
          "name": "_evidenceGroupID",
          "type": "uint256"
        },
        {
          "indexed": true,
          "internalType": "address",
          "name": "_party",
          "type": "address"
        },
        {
          "indexed": false,
          "internalType": "string",
          "name": "_evidence",
          "type": "string"
        }
      ],
      "name": "Evidence",
      "type": "event"
    },
    {
      "anonymous": false,
      "inputs": [
        {
          "indexed": true,
          "internalType": "uint256",
          "name": "_transactionID",
          "type": "uint256"
        },
        {
          "indexed": false,
          "internalType": "enum TalentLayerMultipleArbitrableTransaction.Party",
          "name": "_party",
          "type": "uint8"
        }
      ],
      "name": "HasToPayFee",
      "type": "event"
    },
    {
      "anonymous": false,
      "inputs": [
        {
          "indexed": false,
          "internalType": "uint256",
          "name": "id",
          "type": "uint256"
        },
        {
          "indexed": false,
          "internalType": "uint256",
          "name": "proposalId",
          "type": "uint256"
        },
        {
          "indexed": false,
          "internalType": "uint256",
          "name": "employeeId",
          "type": "uint256"
        },
        {
          "indexed": false,
          "internalType": "uint256",
          "name": "transactionId",
          "type": "uint256"
        }
      ],
      "name": "JobProposalConfirmedWithDeposit",
      "type": "event"
    },
    {
      "anonymous": false,
      "inputs": [
        {
          "indexed": true,
          "internalType": "uint256",
          "name": "_metaEvidenceID",
          "type": "uint256"
        },
        {
          "indexed": false,
          "internalType": "string",
          "name": "_evidence",
          "type": "string"
        }
      ],
      "name": "MetaEvidence",
      "type": "event"
    },
    {
      "anonymous": false,
      "inputs": [
        {
          "indexed": true,
          "internalType": "uint256",
          "name": "_transactionID",
          "type": "uint256"
        },
        {
          "indexed": false,
          "internalType": "uint256",
          "name": "_amount",
          "type": "uint256"
        },
        {
          "indexed": false,
          "internalType": "address",
          "name": "_party",
          "type": "address"
        },
        {
          "indexed": false,
          "internalType": "uint256",
          "name": "_jobId",
          "type": "uint256"
        },
        {
          "indexed": false,
          "internalType": "address",
          "name": "_token",
          "type": "address"
        }
      ],
      "name": "Payment",
      "type": "event"
    },
    {
      "anonymous": false,
      "inputs": [
        {
          "indexed": false,
          "internalType": "uint256",
          "name": "_jobId",
          "type": "uint256"
        }
      ],
      "name": "PaymentCompleted",
      "type": "event"
    },
    {
      "anonymous": false,
      "inputs": [
        {
          "indexed": true,
          "internalType": "contract Arbitrator",
          "name": "_arbitrator",
          "type": "address"
        },
        {
          "indexed": true,
          "internalType": "uint256",
          "name": "_disputeID",
          "type": "uint256"
        },
        {
          "indexed": false,
          "internalType": "uint256",
          "name": "_ruling",
          "type": "uint256"
        }
      ],
      "name": "Ruling",
      "type": "event"
    },
    {
      "anonymous": false,
      "inputs": [
        {
          "indexed": false,
          "internalType": "uint256",
          "name": "_transactionID",
          "type": "uint256"
        },
        {
          "indexed": true,
          "internalType": "address",
          "name": "_sender",
          "type": "address"
        },
        {
          "indexed": true,
          "internalType": "address",
          "name": "_receiver",
          "type": "address"
        },
        {
          "indexed": false,
          "internalType": "uint256",
          "name": "_amount",
          "type": "uint256"
        }
      ],
      "name": "TransactionCreated",
      "type": "event"
    },
    {
      "inputs": [
        {
          "internalType": "uint256",
          "name": "_transactionID",
          "type": "uint256"
        }
      ],
      "name": "appeal",
      "outputs": [],
      "stateMutability": "payable",
      "type": "function"
    },
    {
      "inputs": [],
      "name": "arbitrator",
      "outputs": [
        {
          "internalType": "contract Arbitrator",
          "name": "",
          "type": "address"
        }
      ],
      "stateMutability": "view",
      "type": "function"
    },
    {
      "inputs": [],
      "name": "arbitratorExtraData",
      "outputs": [
        {
          "internalType": "bytes",
          "name": "",
          "type": "bytes"
        }
      ],
      "stateMutability": "view",
      "type": "function"
    },
    {
      "inputs": [
        {
          "internalType": "uint256",
          "name": "_timeoutPayment",
          "type": "uint256"
        },
        {
          "internalType": "string",
          "name": "_metaEvidence",
          "type": "string"
        },
        {
          "internalType": "address payable",
          "name": "_adminWallet",
          "type": "address"
        },
        {
          "internalType": "uint256",
          "name": "_adminFeeAmount",
          "type": "uint256"
        },
        {
          "internalType": "uint256",
          "name": "_jobId",
          "type": "uint256"
        },
        {
          "internalType": "uint256",
          "name": "_proposalId",
          "type": "uint256"
        }
      ],
      "name": "createTransaction",
      "outputs": [
        {
          "internalType": "uint256",
          "name": "transactionID",
          "type": "uint256"
        }
      ],
      "stateMutability": "payable",
      "type": "function"
    },
    {
      "inputs": [
        {
          "internalType": "uint256",
          "name": "",
          "type": "uint256"
        }
      ],
      "name": "disputeIDtoTransactionID",
      "outputs": [
        {
          "internalType": "uint256",
          "name": "",
          "type": "uint256"
        }
      ],
      "stateMutability": "view",
      "type": "function"
    },
    {
      "inputs": [
        {
          "internalType": "uint256",
          "name": "_transactionID",
          "type": "uint256"
        }
      ],
      "name": "executeTransaction",
      "outputs": [],
      "stateMutability": "nonpayable",
      "type": "function"
    },
    {
      "inputs": [],
      "name": "feeTimeout",
      "outputs": [
        {
          "internalType": "uint256",
          "name": "",
          "type": "uint256"
        }
      ],
      "stateMutability": "view",
      "type": "function"
    },
    {
      "inputs": [],
      "name": "getCountTransactions",
      "outputs": [
        {
          "internalType": "uint256",
          "name": "countTransactions",
          "type": "uint256"
        }
      ],
      "stateMutability": "view",
      "type": "function"
    },
    {
      "inputs": [
        {
          "internalType": "address",
          "name": "_address",
          "type": "address"
        }
      ],
      "name": "getTransactionIDsByAddress",
      "outputs": [
        {
          "internalType": "uint256[]",
          "name": "transactionIDs",
          "type": "uint256[]"
        }
      ],
      "stateMutability": "view",
      "type": "function"
    },
    {
      "inputs": [
        {
          "internalType": "uint256",
          "name": "_transactionID",
          "type": "uint256"
        },
        {
          "internalType": "uint256",
          "name": "_amount",
          "type": "uint256"
        }
      ],
      "name": "pay",
      "outputs": [],
      "stateMutability": "nonpayable",
      "type": "function"
    },
    {
      "inputs": [
        {
          "internalType": "uint256",
          "name": "_transactionID",
          "type": "uint256"
        }
      ],
      "name": "payArbitrationFeeByReceiver",
      "outputs": [],
      "stateMutability": "payable",
      "type": "function"
    },
    {
      "inputs": [
        {
          "internalType": "uint256",
          "name": "_transactionID",
          "type": "uint256"
        }
      ],
      "name": "payArbitrationFeeBySender",
      "outputs": [],
      "stateMutability": "payable",
      "type": "function"
    },
    {
      "inputs": [
        {
          "internalType": "uint256",
          "name": "_transactionID",
          "type": "uint256"
        },
        {
          "internalType": "uint256",
          "name": "_amountReimbursed",
          "type": "uint256"
        }
      ],
      "name": "reimburse",
      "outputs": [],
      "stateMutability": "nonpayable",
      "type": "function"
    },
    {
      "inputs": [
        {
          "internalType": "uint256",
          "name": "_disputeID",
          "type": "uint256"
        },
        {
          "internalType": "uint256",
          "name": "_ruling",
          "type": "uint256"
        }
      ],
      "name": "rule",
      "outputs": [],
      "stateMutability": "nonpayable",
      "type": "function"
    },
    {
      "inputs": [
        {
          "internalType": "uint256",
          "name": "_transactionID",
          "type": "uint256"
        },
        {
          "internalType": "string",
          "name": "_evidence",
          "type": "string"
        }
      ],
      "name": "submitEvidence",
      "outputs": [],
      "stateMutability": "nonpayable",
      "type": "function"
    },
    {
      "inputs": [
        {
          "internalType": "uint256",
          "name": "_transactionID",
          "type": "uint256"
        }
      ],
      "name": "timeOutByReceiver",
      "outputs": [],
      "stateMutability": "nonpayable",
      "type": "function"
    },
    {
      "inputs": [
        {
          "internalType": "uint256",
          "name": "_transactionID",
          "type": "uint256"
        }
      ],
      "name": "timeOutBySender",
      "outputs": [],
      "stateMutability": "nonpayable",
      "type": "function"
    },
    {
      "inputs": [
        {
          "internalType": "uint256",
          "name": "",
          "type": "uint256"
        }
      ],
      "name": "transactions",
      "outputs": [
        {
          "internalType": "address",
          "name": "token",
          "type": "address"
        },
        {
          "components": [
            {
              "internalType": "address payable",
              "name": "sender",
              "type": "address"
            },
            {
              "internalType": "address payable",
              "name": "receiver",
              "type": "address"
            },
            {
              "internalType": "uint256",
              "name": "amount",
              "type": "uint256"
            },
            {
              "internalType": "uint256",
              "name": "timeoutPayment",
              "type": "uint256"
            },
            {
              "internalType": "uint256",
              "name": "disputeId",
              "type": "uint256"
            },
            {
              "internalType": "uint256",
              "name": "senderFee",
              "type": "uint256"
            },
            {
              "internalType": "uint256",
              "name": "receiverFee",
              "type": "uint256"
            },
            {
              "internalType": "uint256",
              "name": "lastInteraction",
              "type": "uint256"
            },
            {
              "internalType": "enum TalentLayerMultipleArbitrableTransaction.Status",
              "name": "status",
              "type": "uint8"
            }
          ],
          "internalType": "struct TalentLayerMultipleArbitrableTransaction.Transaction",
          "name": "_transaction",
          "type": "tuple"
        },
        {
          "components": [
            {
              "internalType": "address payable",
              "name": "wallet",
              "type": "address"
            },
            {
              "internalType": "uint256",
              "name": "fee",
              "type": "uint256"
            }
          ],
          "internalType": "struct TalentLayerMultipleArbitrableTransaction.WalletFee",
          "name": "adminFee",
          "type": "tuple"
        },
        {
          "internalType": "uint256",
          "name": "jobId",
          "type": "uint256"
        }
      ],
      "stateMutability": "view",
      "type": "function"
    }
  ],
  "bytecode": "0x60806040523480156200001157600080fd5b506040516200363f3803806200363f83398101604081905262000034916200017e565b600480546001600160a01b0319166001600160a01b038716179055600580546001600160a01b0319166001600160a01b038616179055600280546001600160a01b0319166001600160a01b03851617905581516200009a906001906020850190620000a9565b5060035550620002e592505050565b828054620000b790620002a8565b90600052602060002090601f016020900481019282620000db576000855562000126565b82601f10620000f657805160ff191683800117855562000126565b8280016001018555821562000126579182015b828111156200012657825182559160200191906001019062000109565b506200013492915062000138565b5090565b5b8082111562000134576000815560010162000139565b6001600160a01b03811681146200016557600080fd5b50565b634e487b7160e01b600052604160045260246000fd5b600080600080600060a086880312156200019757600080fd5b8551620001a4816200014f565b80955050602080870151620001b9816200014f565b6040880151909550620001cc816200014f565b60608801519094506001600160401b0380821115620001ea57600080fd5b818901915089601f830112620001ff57600080fd5b81518181111562000214576200021462000168565b604051601f8201601f19908116603f011681019083821181831017156200023f576200023f62000168565b816040528281528c868487010111156200025857600080fd5b600093505b828410156200027c57848401860151818501870152928501926200025d565b828411156200028e5760008684830101525b809750505050505050608086015190509295509295909350565b600181811c90821680620002bd57607f821691505b60208210811415620002df57634e487b7160e01b600052602260045260246000fd5b50919050565b61334a80620002f56000396000f3fe6080604052600436106101095760003560e01c8063a527aa6a11610095578063ee22610b11610064578063ee22610b146102b5578063ef48eee6146102d5578063f42cadc1146102f5578063f94cdf9614610315578063fe43a9921461034257600080fd5b8063a527aa6a14610257578063a6a7f0eb1461026c578063b329036b1461028c578063caa6bf94146102a257600080fd5b80636cc6cde1116100dc5780636cc6cde1146101b65780636e72b452146101ee5780637b44cdb5146102015780637e69b7b0146102145780639ace38c21461022757600080fd5b80630c7ac7b61461010e5780632fbe3b0314610139578063311a6c56146101745780633de0c7ef14610196575b600080fd5b34801561011a57600080fd5b50610123610362565b6040516101309190612aec565b60405180910390f35b34801561014557600080fd5b50610166610154366004612aff565b60146020526000908152604090205481565b604051908152602001610130565b34801561018057600080fd5b5061019461018f366004612b18565b6103f0565b005b3480156101a257600080fd5b506101946101b1366004612aff565b610550565b3480156101c257600080fd5b506002546101d6906001600160a01b031681565b6040516001600160a01b039091168152602001610130565b6101946101fc366004612aff565b610663565b61019461020f366004612aff565b610896565b610194610222366004612aff565b610aab565b34801561023357600080fd5b50610247610242366004612aff565b610b40565b6040516101309493929190612b64565b34801561026357600080fd5b50600054610166565b34801561027857600080fd5b50610194610287366004612d1d565b610c3a565b34801561029857600080fd5b5061016660035481565b6101666102b0366004612d7c565b610dbe565b3480156102c157600080fd5b506101946102d0366004612aff565b611623565b3480156102e157600080fd5b506101946102f0366004612b18565b61173f565b34801561030157600080fd5b50610194610310366004612aff565b61197b565b34801561032157600080fd5b50610335610330366004612df1565b611a8c565b6040516101309190612e0e565b34801561034e57600080fd5b5061019461035d366004612b18565b611c5b565b6001805461036f90612e52565b80601f016020809104026020016040519081016040528092919081815260200182805461039b90612e52565b80156103e85780601f106103bd576101008083540402835291602001916103e8565b820191906000526020600020905b8154815290600101906020018083116103cb57829003601f168201915b505050505081565b600082815260146020526040812054815490919081908390811061041657610416612e8d565b60009182526020909120600254600d9092020191506001600160a01b031633146104925760405162461bcd60e51b815260206004820152602260248201527f5468652063616c6c6572206d757374206265207468652061726269747261746f604482015261391760f11b60648201526084015b60405180910390fd5b6003600982015460ff1660048111156104ad576104ad612b3a565b146105095760405162461bcd60e51b815260206004820152602660248201527f54686520646973707574652068617320616c7265616479206265656e2072657360448201526537b63b32b21760d11b6064820152608401610489565b604051838152849033907f394027a5fa6e098a1191094d1719d6929b9abc535fcc0c8f448d6a4e756222769060200160405180910390a361054a8284611dfd565b50505050565b600080828154811061056457610564612e8d565b60009182526020909120600d9091020190506001600982015460ff16600481111561059157610591612b3a565b146105f45760405162461bcd60e51b815260206004820152602d60248201527f546865207472616e73616374696f6e206973206e6f742077616974696e67206f60448201526c37103a34329039b2b73232b91760991b6064820152608401610489565b60035460088201546106069042612eb9565b10156106545760405162461bcd60e51b815260206004820181905260248201527f54696d656f75742074696d6520686173206e6f7420706173736564207965742e6044820152606401610489565b61065f826002611dfd565b5050565b600080828154811061067757610677612e8d565b60009182526020822060025460405163f7434ea960e01b8152600d90930290910193506001600160a01b03169063f7434ea9906106b990600190600401612f70565b60206040518083038186803b1580156106d157600080fd5b505afa1580156106e5573d6000803e3d6000fd5b505050506040513d601f19601f820116820180604052508101906107099190612f83565b90506003600983015460ff16600481111561072657610726612b3a565b106107435760405162461bcd60e51b815260040161048990612f9c565b60028201546001600160a01b0316331461079f5760405162461bcd60e51b815260206004820181905260248201527f5468652063616c6c6572206d757374206265207468652072656365697665722e6044820152606401610489565b348260010160060160008282546107b69190613010565b909155505060078201548111156108265760405162461bcd60e51b815260206004820152602e60248201527f54686520726563656976657220666565206d75737420636f766572206172626960448201526d3a3930ba34b7b71031b7b9ba399760911b6064820152608401610489565b42600883015560068201548111156108875760098201805460ff1916600117905560405183907fc74b9f7dedf2887cd3c113b6d8da9cea19e55c1116e25f1f0e1b72d7543179b59061087a90600090613028565b60405180910390a2505050565b61089183826122cc565b505050565b60008082815481106108aa576108aa612e8d565b60009182526020822060025460405163f7434ea960e01b8152600d90930290910193506001600160a01b03169063f7434ea9906108ec90600190600401612f70565b60206040518083038186803b15801561090457600080fd5b505afa158015610918573d6000803e3d6000fd5b505050506040513d601f19601f8201168201806040525081019061093c9190612f83565b90506003600983015460ff16600481111561095957610959612b3a565b106109765760405162461bcd60e51b815260040161048990612f9c565b60018201546001600160a01b031633146109d25760405162461bcd60e51b815260206004820152601e60248201527f5468652063616c6c6572206d757374206265207468652073656e6465722e00006044820152606401610489565b348260010160050160008282546109e99190613010565b90915550506006820154811115610a575760405162461bcd60e51b815260206004820152602c60248201527f5468652073656e64657220666565206d75737420636f7665722061726269747260448201526b30ba34b7b71031b7b9ba399760a11b6064820152608401610489565b42600883015560078201548111156108875760098201805460ff1916600217905560405183907fc74b9f7dedf2887cd3c113b6d8da9cea19e55c1116e25f1f0e1b72d7543179b59061087a90600190613028565b6000808281548110610abf57610abf612e8d565b60009182526020909120600254600d90920201600581015460405163093225f160e31b81529193506001600160a01b03909216916349912f88913491610b0a91600190600401613042565b6000604051808303818588803b158015610b2357600080fd5b505af1158015610b37573d6000803e3d6000fd5b50505050505050565b60008181548110610b5057600080fd5b6000918252602091829020600d90910201805460408051610120810182526001840180546001600160a01b0390811683526002860154811696830196909652600385015492820192909252600480850154606083015260058501546080830152600685015460a0830152600785015460c0830152600885015460e083015260098501549590931695509293909161010084019160ff1690811115610bf657610bf6612b3a565b6004811115610c0757610c07612b3a565b90525060408051808201909152600a8301546001600160a01b03168152600b8301546020820152600c9092015490919084565b6000808381548110610c4e57610c4e612e8d565b60009182526020909120600d9091020160018101549091506001600160a01b0316331480610c88575060028101546001600160a01b031633145b610ceb5760405162461bcd60e51b815260206004820152602e60248201527f5468652063616c6c6572206d757374206265207468652073656e646572206f7260448201526d103a3432903932b1b2b4bb32b91760911b6064820152608401610489565b6004600982015460ff166004811115610d0657610d06612b3a565b10610d6e5760405162461bcd60e51b815260206004820152603260248201527f4d757374206e6f742073656e642065766964656e63652069662074686520646960448201527139b83aba329034b9903932b9b7b63b32b21760711b6064820152608401610489565b600254604051339185916001600160a01b03909116907fdccf2f8b2cc26eafcd61905cba744cff4b81d14740725f6376390dc6298a6a3c90610db1908790612aec565b60405180910390a4505050565b6000610dca83836124c4565b805160068054909190829060ff19166001836002811115610ded57610ded612b3a565b0217905550602082810151600183015560408301516002830180546001600160a01b0319166001600160a01b039092169190911790556060830151600383015560808301518051610e44926004850192019061298d565b50905050610e518361258c565b8051600b8054909190829060ff19166001836004811115610e7457610e74612b3a565b02179055506020828101516001830155604083015160028301556060830151600383015560808301518051610eaf926004850192019061298d565b5060a082015160058083019190915560c09092015160069091015554600c546040516331a9108f60e11b81526001600160a01b0390921691636352211e91610efd9160040190815260200190565b60206040518083038186803b158015610f1557600080fd5b505afa158015610f29573d6000803e3d6000fd5b505050506040513d601f19601f82011682018060405250810190610f4d9190613063565b601280546001600160a01b0319166001600160a01b039283161790556005546007546040516331a9108f60e11b81526004810191909152911690636352211e9060240160206040518083038186803b158015610fa857600080fd5b505afa158015610fbc573d6000803e3d6000fd5b505050506040513d601f19601f82011682018060405250810190610fe09190613063565b601380546001600160a01b0319166001600160a01b0392831690811790915560125490911614156110615760405162461bcd60e51b815260206004820152602560248201527f53656e64657220616e64207265636569766572206d7573742062652064696666604482015264195c995b9d60da1b6064820152608401610489565b6012546001600160a01b031633146110c75760405162461bcd60e51b815260206004820152602360248201527f53656e646572206d75737420626520746865206f776e6572206f6620746865206044820152623537b160e91b6064820152608401610489565b6008546001600160a01b0316156111ce576008546012546009546040516323b872dd60e01b81526001600160a01b039283166004820152306024820152604481019190915291169081906323b872dd90606401602060405180830381600087803b15801561113457600080fd5b505af1158015611148573d6000803e3d6000fd5b505050506040513d601f19601f8201168201806040525081019061116c9190613080565b6111cc5760405162461bcd60e51b815260206004820152602b60248201527f53656e64657220646f6573206e6f74206861766520656e6f756768206170707260448201526a37bb32b210333ab732399760a91b6064820152608401610489565b505b60095434906111de908690613010565b146112365760405162461bcd60e51b815260206004820152602260248201527f4665657320646f6e2774206d61746368207769746820706179656420616d6f756044820152611b9d60f21b6064820152608401610489565b604080518082019091526001600160a01b0380871682526020820186905260125460135460095460009361126f9381169216908c612651565b60408051608080820183526008546001600160a01b039081168352602080840186815284860189905260608086018d905260008054600181810183559180528751600d9091027f290decd9548b62a8d60345a988386fc84ba6bc95484008f6362f93160ef3e563810180549288166001600160a01b0319938416178155945180517f290decd9548b62a8d60345a988386fc84ba6bc95484008f6362f93160ef3e56483018054918a16918516919091178155968101517f290decd9548b62a8d60345a988386fc84ba6bc95484008f6362f93160ef3e5658301805491909916931692909217909655978801517f290decd9548b62a8d60345a988386fc84ba6bc95484008f6362f93160ef3e566860155908701517f290decd9548b62a8d60345a988386fc84ba6bc95484008f6362f93160ef3e567850155938601517f290decd9548b62a8d60345a988386fc84ba6bc95484008f6362f93160ef3e56884015560a08601517f290decd9548b62a8d60345a988386fc84ba6bc95484008f6362f93160ef3e56984015560c08601517f290decd9548b62a8d60345a988386fc84ba6bc95484008f6362f93160ef3e56a84015560e08601517f290decd9548b62a8d60345a988386fc84ba6bc95484008f6362f93160ef3e56b8401556101008601517f290decd9548b62a8d60345a988386fc84ba6bc95484008f6362f93160ef3e56c9093018054979850949687969195919492939260ff199091169083600481111561149d5761149d612b3a565b0217905550505060408201518051600a830180546001600160a01b0319166001600160a01b0390921691909117905560200151600b820155606090910151600c909101556000546114f090600190612eb9565b7f61606860eb6c87306811e2695215385101daab53bd6ab4e9f9049aead9363c7d8a60405161151f9190612aec565b60405180910390a26004546000546001600160a01b039091169063a7d5eaea908890889061154f90600190612eb9565b6040516001600160e01b031960e086901b168152600481019390935260248301919091526044820152606401600060405180830381600087803b15801561159557600080fd5b505af11580156115a9573d6000803e3d6000fd5b505050507f3a51b63d439ceb0c1cd9c4e2fd20a89a89cd3cf28aeebeccdb6dd55d2a1915c186868760016000805490506115e39190612eb9565b60408051948552602085019390935291830152606082015260800160405180910390a160005461161590600190612eb9565b9a9950505050505050505050565b600080828154811061163757611637612e8d565b90600052602060002090600d0201905080600101600301548160010160070154426116629190612eb9565b10156116b05760405162461bcd60e51b815260206004820152601f60248201527f5468652074696d656f757420686173206e6f7420706173736564207965742e006044820152606401610489565b6000600982015460ff1660048111156116cb576116cb612b3a565b146116e85760405162461bcd60e51b8152600401610489906130a2565b60028101546003808301548354604080518082019091529283526270617960e81b602084015261172e9386936001600160a01b03918216939260009216151590826126c8565b600901805460ff1916600417905550565b600080838154811061175357611753612e8d565b600091825260209091206001600d90920201908101549091506001600160a01b031633146117c35760405162461bcd60e51b815260206004820152601e60248201527f5468652063616c6c6572206d757374206265207468652073656e6465722e00006044820152606401610489565b6000600982015460ff1660048111156117de576117de612b3a565b146117fb5760405162461bcd60e51b8152600401610489906130a2565b6003810154821115611877576040805162461bcd60e51b81526020600482015260248101919091527f54686520616d6f756e7420706169642068617320746f206265206c657373207460448201527f68616e206f7220657175616c20746f20746865207472616e73616374696f6e2e6064820152608401610489565b600281015460038201546118d19185916001600160a01b039091169085906118a0908290612eb9565b855460408051808201909152600381526270617960e81b60208201526001600160a01b0390911615159060016126c8565b60038101546108915760048054600c830154604051631271956760e21b8152928301526001600160a01b0316906349c6559c90602401600060405180830381600087803b15801561192157600080fd5b505af1158015611935573d6000803e3d6000fd5b505050507f6bef1b5e95b741d6e665eb9b5c2d3e1203c46a771451055a9d41e0b8ff4510b781600c015460405161196e91815260200190565b60405180910390a1505050565b600080828154811061198f5761198f612e8d565b60009182526020909120600d9091020190506002600982015460ff1660048111156119bc576119bc612b3a565b14611a215760405162461bcd60e51b815260206004820152602f60248201527f546865207472616e73616374696f6e206973206e6f742077616974696e67206f60448201526e37103a3432903932b1b2b4bb32b91760891b6064820152608401610489565b6003546008820154611a339042612eb9565b1015611a815760405162461bcd60e51b815260206004820181905260248201527f54696d656f75742074696d6520686173206e6f7420706173736564207965742e6044820152606401610489565b61065f826001611dfd565b60606000805b600054811015611b3e57836001600160a01b031660008281548110611ab957611ab9612e8d565b600091825260209091206001600d9092020101546001600160a01b03161480611b195750836001600160a01b031660008281548110611afa57611afa612e8d565b600091825260209091206002600d9092020101546001600160a01b0316145b15611b2c5781611b28816130e8565b9250505b80611b36816130e8565b915050611a92565b508067ffffffffffffffff811115611b5857611b58612c0c565b604051908082528060200260200182016040528015611b81578160200160208202803683370190505b5091506000905060005b600054811015611c5457836001600160a01b031660008281548110611bb257611bb2612e8d565b600091825260209091206001600d9092020101546001600160a01b03161480611c125750836001600160a01b031660008281548110611bf357611bf3612e8d565b600091825260209091206002600d9092020101546001600160a01b0316145b15611c4257808383611c23816130e8565b945081518110611c3557611c35612e8d565b6020026020010181815250505b80611c4c816130e8565b915050611b8b565b5050919050565b6000808381548110611c6f57611c6f612e8d565b600091825260209091206002600d90920201908101549091506001600160a01b03163314611cdf5760405162461bcd60e51b815260206004820181905260248201527f5468652063616c6c6572206d757374206265207468652072656365697665722e6044820152606401610489565b6000600982015460ff166004811115611cfa57611cfa612b3a565b14611d175760405162461bcd60e51b8152600401610489906130a2565b6003810154821115611d9d5760405162461bcd60e51b815260206004820152604360248201527f54686520616d6f756e74207265696d6275727365642068617320746f2062652060448201527f6c657373206f7220657175616c207468616e20746865207472616e736163746960648201526237b71760e91b608482015260a401610489565b600181015460038201546108919185916001600160a01b03909116908590611dc6908290612eb9565b85546040805180820190915260098152687265696d627572736560b81b60208201526001600160a01b0390911615159060016126c8565b6000808381548110611e1157611e11612e8d565b90600052602060002090600d02019050600260ff16821115611e675760405162461bcd60e51b815260206004820152600f60248201526e24b73b30b634b210393ab634b7339760891b6044820152606401610489565b6001821415611fe6576001810154600382015460068301546001600160a01b03909216916108fc91611e9891613010565b6040518115909202916000818181858888f19350505050158015611ec0573d6000803e3d6000fd5b50604080516080808201835283546001600160a01b0390811683528351610120810185526001860180548316825260028701549092166020828101919091526003870154958201959095526004808701546060830152600587015493820193909352600686015460a0820152600786015460c0820152600886015460e08201526009860154611fe1958794908601939161010084019160ff90911690811115611f6b57611f6b612b3a565b6004811115611f7c57611f7c612b3a565b9052508152604080518082018252600a8401546001600160a01b03168152600b84015460208281019190915280840191909152600c9093015491810191909152805180820190915260098152687265696d627572736560b81b9181019190915261287f565b6122a5565b600282141561215a576002810154600382015460078301546001600160a01b03909216916108fc9161201791613010565b6040518115909202916000818181858888f1935050505015801561203f573d6000803e3d6000fd5b50604080516080808201835283546001600160a01b0390811683528351610120810185526001860180548316825260028701549092166020828101919091526003870154958201959095526004808701546060830152600587015493820193909352600686015460a0820152600786015460c0820152600886015460e08201526009860154611fe1958794908601939161010084019160ff909116908111156120ea576120ea612b3a565b60048111156120fb576120fb612b3a565b9052508152604080518082018252600a8401546001600160a01b03168152600b84015460208281019190915280840191909152600c90930154918101919091528051808201909152600381526270617960e81b9181019190915261287f565b600381015460068201546000916002916121749190613010565b61217e9190613103565b60018301546040519192506001600160a01b03169082156108fc029083906000818181858888f193505050501580156121bb573d6000803e3d6000fd5b5060028201546040516001600160a01b039091169082156108fc029083906000818181858888f193505050501580156121f8573d6000803e3d6000fd5b50604080516080808201835284546001600160a01b0390811683528351610120810185526001870180548316825260028801549092166020828101919091526003880154958201959095526004808801546060830152600588015493820193909352600687015460a0820152600787015460c0820152600887015460e082015260098701546122a3958894908601939161010084019160ff90911690811115611f6b57611f6b612b3a565b505b600060038201819055600682018190556007820155600901805460ff191660041790555050565b60008083815481106122e0576122e0612e8d565b600091825260209091206009600d90920201908101805460ff191660031790556002805460405163c13517e160e01b81529293506001600160a01b03169163c13517e19185916123369190600190600401613125565b6020604051808303818588803b15801561234f57600080fd5b505af1158015612363573d6000803e3d6000fd5b50505050506040513d601f19601f820116820180604052508101906123889190612f83565b600582018181556000918252601460205260409182902085905554600254915190916001600160a01b0316907f74baab670a4015ab2f1b467c5252a96141a2573f2908e58a92081e80d3cfde3d906123ec9087908190918252602082015260400190565b60405180910390a3600681015482101561245a576006810154600090612413908490612eb9565b6006830184905560018301546040519192506001600160a01b03169082156108fc029083906000818181858888f19350505050158015612457573d6000803e3d6000fd5b50505b6007810154821015610891576007810154600090612479908490612eb9565b6007830184905560028301546040519192506001600160a01b03169082156108fc029083906000818181858888f193505050501580156124bd573d6000803e3d6000fd5b5050505050565b6125006040805160a0810190915280600081526020016000815260200160006001600160a01b0316815260200160008152602001606081525090565b6004805460405163aba2100960e01b8152918201859052602482018490526001600160a01b03169063aba210099060440160006040518083038186803b15801561254957600080fd5b505afa15801561255d573d6000803e3d6000fd5b505050506040513d6000823e601f3d908101601f191682016040526125859190810190613186565b9392505050565b6125cd6040805160e0810190915280600081526020016000815260200160008152602001600081526020016060815260200160008152602001600081525090565b6004805460405163bf22c45760e01b81529182018490526001600160a01b03169063bf22c4579060240160006040518083038186803b15801561260f57600080fd5b505afa158015612623573d6000803e3d6000fd5b505050506040513d6000823e601f3d908101601f1916820160405261264b9190810190613245565b92915050565b612659612a11565b604051806101200160405280866001600160a01b03168152602001856001600160a01b03168152602001848152602001838152602001600081526020016000815260200160008152602001428152602001600060048111156126bd576126bd612b3a565b905295945050505050565b60008088815481106126dc576126dc612e8d565b90600052602060002090600d0201905083156127d757805460405163a9059cbb60e01b81526001600160a01b038981166004830152602482018990529091169063a9059cbb90604401602060405180830381600087803b15801561273f57600080fd5b505af1158015612753573d6000803e3d6000fd5b505050506040513d601f19601f820116820180604052508101906127779190613080565b6127d25760405162461bcd60e51b815260206004820152602660248201527f54686520607472616e73666572602066756e6374696f6e206d757374206e6f74604482015265103330b4b61760d11b6064820152608401610489565b61280f565b6040516001600160a01b0388169087156108fc029088906000818181858888f1935050505015801561280d573d6000803e3d6000fd5b505b60038101859055811561287557600c810154815460408051898152336020820152908101929092526001600160a01b0316606082015288907f17781ceeb2794ce9cb55e36242455892f579be678fce65439a620bcf377e9dcd9060800160405180910390a25b5050505050505050565b6128a4816040518060400160405280600381526020016270617960e81b815250612934565b156128eb57604080830151805160209091015191516001600160a01b039091169180156108fc02916000818181858888f19350505050158015610891573d6000803e3d6000fd5b8160200151600001516001600160a01b03166108fc8360400151602001519081150290604051600060405180830381858888f19350505050158015610891573d6000803e3d6000fd5b60008160405160200161294791906132f8565b604051602081830303815290604052805190602001208360405160200161296e91906132f8565b6040516020818303038152906040528051906020012014905092915050565b82805461299990612e52565b90600052602060002090601f0160209004810192826129bb5760008555612a01565b82601f106129d457805160ff1916838001178555612a01565b82800160010185558215612a01579182015b82811115612a015782518255916020019190600101906129e6565b50612a0d929150612a7f565b5090565b60405180610120016040528060006001600160a01b0316815260200160006001600160a01b0316815260200160008152602001600081526020016000815260200160008152602001600081526020016000815260200160006004811115612a7a57612a7a612b3a565b905290565b5b80821115612a0d5760008155600101612a80565b60005b83811015612aaf578181015183820152602001612a97565b8381111561054a5750506000910152565b60008151808452612ad8816020860160208601612a94565b601f01601f19169290920160200192915050565b6020815260006125856020830184612ac0565b600060208284031215612b1157600080fd5b5035919050565b60008060408385031215612b2b57600080fd5b50508035926020909101359150565b634e487b7160e01b600052602160045260246000fd5b60058110612b6057612b60612b3a565b9052565b60006101a08201905060018060a01b038087168352808651166020840152806020870151166040840152506040850151606083015260608501516080830152608085015160a083015260a085015160c083015260c085015160e083015260e0850151610100818185015280870151915050612be3610120840182612b50565b5083516001600160a01b0316610140830152602090930151610160820152610180015292915050565b634e487b7160e01b600052604160045260246000fd5b60405160a0810167ffffffffffffffff81118282101715612c4557612c45612c0c565b60405290565b60405160e0810167ffffffffffffffff81118282101715612c4557612c45612c0c565b604051601f8201601f1916810167ffffffffffffffff81118282101715612c9757612c97612c0c565b604052919050565b600067ffffffffffffffff821115612cb957612cb9612c0c565b50601f01601f191660200190565b600082601f830112612cd857600080fd5b8135612ceb612ce682612c9f565b612c6e565b818152846020838601011115612d0057600080fd5b816020850160208301376000918101602001919091529392505050565b60008060408385031215612d3057600080fd5b82359150602083013567ffffffffffffffff811115612d4e57600080fd5b612d5a85828601612cc7565b9150509250929050565b6001600160a01b0381168114612d7957600080fd5b50565b60008060008060008060c08789031215612d9557600080fd5b86359550602087013567ffffffffffffffff811115612db357600080fd5b612dbf89828a01612cc7565b9550506040870135612dd081612d64565b959894975094956060810135955060808101359460a0909101359350915050565b600060208284031215612e0357600080fd5b813561258581612d64565b6020808252825182820181905260009190848201906040850190845b81811015612e4657835183529284019291840191600101612e2a565b50909695505050505050565b600181811c90821680612e6657607f821691505b60208210811415612e8757634e487b7160e01b600052602260045260246000fd5b50919050565b634e487b7160e01b600052603260045260246000fd5b634e487b7160e01b600052601160045260246000fd5b600082821015612ecb57612ecb612ea3565b500390565b8054600090600181811c9080831680612eea57607f831692505b6020808410821415612f0c57634e487b7160e01b600052602260045260246000fd5b83885260208801828015612f275760018114612f3857612f63565b60ff19871682528282019750612f63565b60008981526020902060005b87811015612f5d57815484820152908601908401612f44565b83019850505b5050505050505092915050565b6020815260006125856020830184612ed0565b600060208284031215612f9557600080fd5b5051919050565b6020808252604e908201527f446973707574652068617320616c7265616479206265656e206372656174656460408201527f206f72206265636175736520746865207472616e73616374696f6e206861732060608201526d3132b2b71032bc32b1baba32b21760911b608082015260a00190565b6000821982111561302357613023612ea3565b500190565b602081016002831061303c5761303c612b3a565b91905290565b82815260406020820152600061305b6040830184612ed0565b949350505050565b60006020828403121561307557600080fd5b815161258581612d64565b60006020828403121561309257600080fd5b8151801515811461258557600080fd5b60208082526026908201527f546865207472616e73616374696f6e2073686f756c646e277420626520646973604082015265383aba32b21760d11b606082015260800190565b60006000198214156130fc576130fc612ea3565b5060010190565b60008261312057634e487b7160e01b600052601260045260246000fd5b500490565b60ff8316815260406020820152600061305b6040830184612ed0565b600082601f83011261315257600080fd5b8151613160612ce682612c9f565b81815284602083860101111561317557600080fd5b61305b826020830160208701612a94565b60006020828403121561319857600080fd5b815167ffffffffffffffff808211156131b057600080fd5b9083019060a082860312156131c457600080fd5b6131cc612c22565b8251600381106131db57600080fd5b81526020838101519082015260408301516131f581612d64565b60408201526060838101519082015260808301518281111561321657600080fd5b61322287828601613141565b60808301525095945050505050565b80516005811061324057600080fd5b919050565b60006020828403121561325757600080fd5b815167ffffffffffffffff8082111561326f57600080fd5b9083019060e0828603121561328357600080fd5b61328b612c4b565b61329483613231565b81526020830151602082015260408301516040820152606083015160608201526080830151828111156132c657600080fd5b6132d287828601613141565b60808301525060a083015160a082015260c083015160c082015280935050505092915050565b6000825161330a818460208701612a94565b919091019291505056fea2646970667358221220f67b5bbb05d9eae2156cc05892333d2cb11743dcf563792a39517bafd93d2e0f64736f6c63430008090033",
  "linkReferences": {},
  "deployedLinkReferences": {}
}