{
  "_format": "hh-sol-artifact-1",
  "contractName": "TalentLayerMultipleArbitrableTransaction",
  "sourceName": "contracts/kleros/TalentLayerMultipleArbitrableTransaction.sol",
  "abi": [
    {
      "inputs": [
        {
          "internalType": "address",
          "name": "_jobRegistryAddress",
          "type": "address"
        },
        {
          "internalType": "address",
          "name": "_talentLayerIDAddress",
          "type": "address"
        },
        {
          "internalType": "contract Arbitrator",
          "name": "_arbitrator",
          "type": "address"
        },
        {
          "internalType": "bytes",
          "name": "_arbitratorExtraData",
          "type": "bytes"
        },
        {
          "internalType": "uint256",
          "name": "_feeTimeout",
          "type": "uint256"
        }
      ],
      "stateMutability": "nonpayable",
      "type": "constructor"
    },
    {
      "anonymous": false,
      "inputs": [
        {
          "indexed": false,
          "internalType": "uint256",
          "name": "id",
          "type": "uint256"
        },
        {
          "indexed": false,
          "internalType": "uint256",
          "name": "proposalId",
          "type": "uint256"
        },
        {
          "indexed": false,
          "internalType": "uint256",
          "name": "employeeId",
          "type": "uint256"
        },
        {
          "indexed": false,
          "internalType": "uint256",
          "name": "transactionId",
          "type": "uint256"
        }
      ],
      "name": "JobProposalConfirmedWithDeposit",
      "type": "event"
    },
    {
      "anonymous": false,
      "inputs": [
        {
          "indexed": false,
          "internalType": "address",
          "name": "_receiver",
          "type": "address"
        },
        {
          "indexed": false,
          "internalType": "uint256",
          "name": "_amount",
          "type": "uint256"
        },
        {
          "indexed": false,
          "internalType": "address",
          "name": "_token",
          "type": "address"
        },
        {
          "indexed": false,
          "internalType": "uint256",
          "name": "_jobId",
          "type": "uint256"
        }
      ],
      "name": "Payment",
      "type": "event"
    },
    {
      "anonymous": false,
      "inputs": [
        {
          "indexed": false,
          "internalType": "uint256",
          "name": "_jobId",
          "type": "uint256"
        }
      ],
      "name": "PaymentCompleted",
      "type": "event"
    },
    {
      "inputs": [
        {
          "internalType": "uint256",
          "name": "_timeoutPayment",
          "type": "uint256"
        },
        {
          "internalType": "string",
          "name": "_metaEvidence",
          "type": "string"
        },
        {
          "internalType": "address",
          "name": "_adminWallet",
          "type": "address"
        },
        {
          "internalType": "uint256",
          "name": "_adminFeeAmount",
          "type": "uint256"
        },
        {
          "internalType": "uint256",
          "name": "_jobId",
          "type": "uint256"
        },
        {
          "internalType": "uint256",
          "name": "_proposalId",
          "type": "uint256"
        }
      ],
      "name": "createETHTransaction",
      "outputs": [],
      "stateMutability": "payable",
      "type": "function"
    },
    {
      "inputs": [
        {
          "internalType": "uint256",
          "name": "_timeoutPayment",
          "type": "uint256"
        },
        {
          "internalType": "string",
          "name": "_metaEvidence",
          "type": "string"
        },
        {
          "internalType": "address",
          "name": "_adminWallet",
          "type": "address"
        },
        {
          "internalType": "uint256",
          "name": "_adminFeeAmount",
          "type": "uint256"
        },
        {
          "internalType": "uint256",
          "name": "_jobId",
          "type": "uint256"
        },
        {
          "internalType": "uint256",
          "name": "_proposalId",
          "type": "uint256"
        }
      ],
      "name": "createTokenTransaction",
      "outputs": [],
      "stateMutability": "nonpayable",
      "type": "function"
    },
    {
      "inputs": [
        {
          "internalType": "uint256",
          "name": "_transactionId",
          "type": "uint256"
        },
        {
          "internalType": "uint256",
          "name": "_amount",
          "type": "uint256"
        }
      ],
      "name": "reimburse",
      "outputs": [],
      "stateMutability": "nonpayable",
      "type": "function"
    },
    {
      "inputs": [
        {
          "internalType": "uint256",
          "name": "_transactionId",
          "type": "uint256"
        },
        {
          "internalType": "uint256",
          "name": "_amount",
          "type": "uint256"
        }
      ],
      "name": "release",
      "outputs": [],
      "stateMutability": "nonpayable",
      "type": "function"
    }
  ],
  "bytecode": "0x60806040523480156200001157600080fd5b5060405162001585380380620015858339810160408190526200003491620000a4565b600180546001600160a01b0319166001600160a01b038716179055600280546001600160a01b0319166001600160a01b0386161790555050505050620001ce565b6001600160a01b03811681146200008b57600080fd5b50565b634e487b7160e01b600052604160045260246000fd5b600080600080600060a08688031215620000bd57600080fd5b8551620000ca8162000075565b80955050602080870151620000df8162000075565b6040880151909550620000f28162000075565b60608801519094506001600160401b03808211156200011057600080fd5b818901915089601f8301126200012557600080fd5b8151818111156200013a576200013a6200008e565b604051601f8201601f19908116603f011681019083821181831017156200016557620001656200008e565b816040528281528c868487010111156200017e57600080fd5b600093505b82841015620001a2578484018601518185018701529285019262000183565b82841115620001b45760008684830101525b809750505050505050608086015190509295509295909350565b6113a780620001de6000396000f3fe60806040526004361061003f5760003560e01c80631dabf6b114610044578063366a4120146100595780636613750314610079578063fe43a99214610099575b600080fd5b610057610052366004610fe5565b6100b9565b005b34801561006557600080fd5b5061005761007436600461109b565b6103a3565b34801561008557600080fd5b50610057610094366004610fe5565b610544565b3480156100a557600080fd5b506100576100b436600461109b565b610750565b6100c1610e8b565b6100c9610ec4565b6000806100d686866108d4565b92965090945092509050336001600160a01b038316146101115760405162461bcd60e51b8152600401610108906110bd565b60405180910390fd5b86846060015161012191906110fb565b34146101655760405162461bcd60e51b81526020600482015260136024820152722737b716b6b0ba31b434b73390333ab732399760691b6044820152606401610108565b60408401516001600160a01b0316156101c05760405162461bcd60e51b815260206004820152601760248201527f50726f706f73616c20746f6b656e206e6f74204554482e0000000000000000006044820152606401610108565b8484602001511461020c5760405162461bcd60e51b815260206004820152601660248201527524b731b7b93932b1ba10383937b837b9b0b61024a21760511b6044820152606401610108565b60048351600481111561022157610221611113565b146102655760405162461bcd60e51b81526020600482015260146024820152732537b11039ba30ba3ab9903737ba1037b832b71760611b6044820152606401610108565b60008451600281111561027a5761027a611113565b146102c75760405162461bcd60e51b815260206004820152601c60248201527f50726f706f73616c20737461747573206e6f742070656e64696e672e000000006044820152606401610108565b60006102de8383876040015188606001518b610a2c565b6001546040516353eaf57560e11b8152600481018a905260248101899052604481018390529192506001600160a01b03169063a7d5eaea90606401600060405180830381600087803b15801561033357600080fd5b505af1158015610347573d6000803e3d6000fd5b505050602080870151604080518b81529283018a9052820152606081018390527f3a51b63d439ceb0c1cd9c4e2fd20a89a89cd3cf28aeebeccdb6dd55d2a1915c191506080015b60405180910390a15050505050505050505050565b60005482106103f45760405162461bcd60e51b815260206004820152601b60248201527f4e6f7420612076616c6964207472616e73616374696f6e2069642e00000000006044820152606401610108565b600080838154811061040857610408611129565b6000918252602090912060059091020180549091506001600160a01b031633146104445760405162461bcd60e51b8152600401610108906110bd565b818160030154101561048e5760405162461bcd60e51b815260206004820152601360248201527224b739bab33334b1b4b2b73a10333ab732399760691b6044820152606401610108565b818160030160008282546104a2919061113f565b9091555050600181015460028201546104c8916001600160a01b03908116911684610b79565b600181015460028201546004830154604080516001600160a01b03948516815260208101879052939092169183019190915260608201527f2bc0e24c3afe3d1370a14f6c5197a3930ebb33bee98e90de38133b8fb551f6fd906080015b60405180910390a161053f81600401548260030154610c8b565b505050565b61054c610e8b565b610554610ec4565b60008061056186866108d4565b9296509094509250905060048351600481111561058057610580611113565b146105c45760405162461bcd60e51b81526020600482015260146024820152732537b11039ba30ba3ab9903737ba1037b832b71760611b6044820152606401610108565b6000845160028111156105d9576105d9611113565b146106265760405162461bcd60e51b815260206004820152601c60248201527f50726f706f73616c20737461747573206e6f742070656e64696e672e000000006044820152606401610108565b848460200151146106725760405162461bcd60e51b815260206004820152601660248201527524b731b7b93932b1ba10383937b837b9b0b61024a21760511b6044820152606401610108565b60006106898383876040015188606001518b610a2c565b6001546040516353eaf57560e11b8152600481018a905260248101899052604481018390529192506001600160a01b03169063a7d5eaea90606401600060405180830381600087803b1580156106de57600080fd5b505af11580156106f2573d6000803e3d6000fd5b505050506107098386604001518760600151610d2c565b602080860151604080518a8152928301899052820152606081018290527f3a51b63d439ceb0c1cd9c4e2fd20a89a89cd3cf28aeebeccdb6dd55d2a1915c19060800161038e565b60005482106107a15760405162461bcd60e51b815260206004820152601b60248201527f4e6f7420612076616c6964207472616e73616374696f6e2069642e00000000006044820152606401610108565b60008083815481106107b5576107b5611129565b600091825260209091206001600590920201908101549091506001600160a01b031633146107f55760405162461bcd60e51b8152600401610108906110bd565b818160030154101561083f5760405162461bcd60e51b815260206004820152601360248201527224b739bab33334b1b4b2b73a10333ab732399760691b6044820152606401610108565b81816003016000828254610853919061113f565b909155505080546002820154610876916001600160a01b03908116911684610b79565b805460028201546004830154604080516001600160a01b03948516815260208101879052939092169183019190915260608201527f2bc0e24c3afe3d1370a14f6c5197a3930ebb33bee98e90de38133b8fb551f6fd90608001610525565b6108dc610e8b565b6108e4610ec4565b60008060006108f38787610d67565b9050600061090088610dfd565b60025460208201516040516331a9108f60e11b81529293506000926001600160a01b0390921691636352211e9161093d9160040190815260200190565b60206040518083038186803b15801561095557600080fd5b505afa158015610969573d6000803e3d6000fd5b505050506040513d601f19601f8201168201806040525081019061098d9190611156565b60025460208501516040516331a9108f60e11b81529293506000926001600160a01b0390921691636352211e916109ca9160040190815260200190565b60206040518083038186803b1580156109e257600080fd5b505afa1580156109f6573d6000803e3d6000fd5b505050506040513d601f19601f82011682018060405250810190610a1a9190611156565b939a9299509097509195509350505050565b6040805160a0810182526001600160a01b0380881682528681166020830190815286821693830193845260608301868152608084018681526000805460018181018355828052965160059091027f290decd9548b62a8d60345a988386fc84ba6bc95484008f6362f93160ef3e563810180549288166001600160a01b031993841617905594517f290decd9548b62a8d60345a988386fc84ba6bc95484008f6362f93160ef3e5648601805491881691831691909117905596517f290decd9548b62a8d60345a988386fc84ba6bc95484008f6362f93160ef3e5658501805491909616971696909617909355517f290decd9548b62a8d60345a988386fc84ba6bc95484008f6362f93160ef3e56682015590517f290decd9548b62a8d60345a988386fc84ba6bc95484008f6362f93160ef3e567909101558154610b6f919061113f565b9695505050505050565b6001600160a01b038216610bc3576040516001600160a01b0384169082156108fc029083906000818181858888f19350505050158015610bbd573d6000803e3d6000fd5b50505050565b60405163a9059cbb60e01b81526001600160a01b0384811660048301526024820183905283169063a9059cbb906044015b602060405180830381600087803b158015610c0e57600080fd5b505af1158015610c22573d6000803e3d6000fd5b505050506040513d601f19601f82011682018060405250810190610c469190611173565b61053f5760405162461bcd60e51b8152602060048201526016602482015275151c985b9cd9995c881b5d5cdd081b9bdd0819985a5b60521b6044820152606401610108565b80610d2857600154604051631271956760e21b8152600481018490526001600160a01b03909116906349c6559c90602401600060405180830381600087803b158015610cd657600080fd5b505af1158015610cea573d6000803e3d6000fd5b505050507f6bef1b5e95b741d6e665eb9b5c2d3e1203c46a771451055a9d41e0b8ff4510b782604051610d1f91815260200190565b60405180910390a15b5050565b6040516323b872dd60e01b81526001600160a01b038481166004830152306024830152604482018390528316906323b872dd90606401610bf4565b610d6f610e8b565b60015460405163aba2100960e01b815260048101859052602481018490526001600160a01b039091169063aba210099060440160006040518083038186803b158015610dba57600080fd5b505afa158015610dce573d6000803e3d6000fd5b505050506040513d6000823e601f3d908101601f19168201604052610df69190810190611204565b9392505050565b610e05610ec4565b60015460405163bf22c45760e01b8152600481018490526001600160a01b039091169063bf22c4579060240160006040518083038186803b158015610e4957600080fd5b505afa158015610e5d573d6000803e3d6000fd5b505050506040513d6000823e601f3d908101601f19168201604052610e8591908101906112be565b92915050565b6040805160a0810190915280600081526020016000815260200160006001600160a01b0316815260200160008152602001606081525090565b6040805160e0810190915280600081526020016000815260200160008152602001600081526020016060815260200160008152602001600081525090565b634e487b7160e01b600052604160045260246000fd5b60405160a0810167ffffffffffffffff81118282101715610f3b57610f3b610f02565b60405290565b60405160e0810167ffffffffffffffff81118282101715610f3b57610f3b610f02565b604051601f8201601f1916810167ffffffffffffffff81118282101715610f8d57610f8d610f02565b604052919050565b600067ffffffffffffffff821115610faf57610faf610f02565b50601f01601f191660200190565b6001600160a01b0381168114610fd257600080fd5b50565b8035610fe081610fbd565b919050565b60008060008060008060c08789031215610ffe57600080fd5b86359550602087013567ffffffffffffffff81111561101c57600080fd5b8701601f8101891361102d57600080fd5b803561104061103b82610f95565b610f64565b8181528a602083850101111561105557600080fd5b8160208401602083013760006020838301015280975050505061107a60408801610fd5565b9350606087013592506080870135915060a087013590509295509295509295565b600080604083850312156110ae57600080fd5b50508035926020909101359150565b6020808252600e908201526d20b1b1b2b9b9903232b734b2b21760911b604082015260600190565b634e487b7160e01b600052601160045260246000fd5b6000821982111561110e5761110e6110e5565b500190565b634e487b7160e01b600052602160045260246000fd5b634e487b7160e01b600052603260045260246000fd5b600082821015611151576111516110e5565b500390565b60006020828403121561116857600080fd5b8151610df681610fbd565b60006020828403121561118557600080fd5b81518015158114610df657600080fd5b600082601f8301126111a657600080fd5b81516111b461103b82610f95565b818152602085818487010111156111ca57600080fd5b60005b838110156111e85785810182015183820183015281016111cd565b838111156111f95760008285850101525b509095945050505050565b60006020828403121561121657600080fd5b815167ffffffffffffffff8082111561122e57600080fd5b9083019060a0828603121561124257600080fd5b61124a610f18565b82516003811061125957600080fd5b815260208381015190820152604083015161127381610fbd565b60408201526060838101519082015260808301518281111561129457600080fd5b6112a087828601611195565b60808301525095945050505050565b805160058110610fe057600080fd5b6000602082840312156112d057600080fd5b815167ffffffffffffffff808211156112e857600080fd5b9083019060e082860312156112fc57600080fd5b611304610f41565b61130d836112af565b815260208301516020820152604083015160408201526060830151606082015260808301518281111561133f57600080fd5b61134b87828601611195565b60808301525060a083015160a082015260c083015160c08201528093505050509291505056fea2646970667358221220e498116d76d42dbce1d63652f128f6d9b545b6968db0c313222761adff60537564736f6c63430008090033",
  "linkReferences": {},
  "deployedLinkReferences": {}
}