{
  "_format": "hh-sol-artifact-1",
  "contractName": "TalentLayerMultipleArbitrableTransaction",
  "sourceName": "contracts/kleros/TalentLayerMultipleArbitrableTransaction.sol",
  "abi": [
    {
      "inputs": [
        {
          "internalType": "address",
          "name": "_serviceRegistryAddress",
          "type": "address"
        },
        {
          "internalType": "address",
          "name": "_talentLayerIDAddress",
          "type": "address"
        },
        {
          "internalType": "contract Arbitrator",
          "name": "_arbitrator",
          "type": "address"
        },
        {
          "internalType": "bytes",
          "name": "_arbitratorExtraData",
          "type": "bytes"
        },
        {
          "internalType": "uint256",
          "name": "_feeTimeout",
          "type": "uint256"
        }
      ],
      "stateMutability": "nonpayable",
      "type": "constructor"
    },
    {
      "anonymous": false,
      "inputs": [
        {
          "indexed": false,
          "internalType": "enum TalentLayerMultipleArbitrableTransaction.PaymentType",
          "name": "_paymentType",
          "type": "uint8"
        },
        {
          "indexed": false,
          "internalType": "uint256",
          "name": "_amount",
          "type": "uint256"
        },
        {
          "indexed": false,
          "internalType": "address",
          "name": "_token",
          "type": "address"
        },
        {
          "indexed": false,
          "internalType": "uint256",
          "name": "_serviceId",
          "type": "uint256"
        }
      ],
      "name": "Payment",
      "type": "event"
    },
    {
      "anonymous": false,
      "inputs": [
        {
          "indexed": false,
          "internalType": "uint256",
          "name": "_serviceId",
          "type": "uint256"
        }
      ],
      "name": "PaymentCompleted",
      "type": "event"
    },
    {
      "anonymous": false,
      "inputs": [
        {
          "indexed": false,
          "internalType": "uint256",
          "name": "serviceId",
          "type": "uint256"
        },
        {
          "indexed": false,
          "internalType": "uint256",
          "name": "sellerId",
          "type": "uint256"
        },
        {
          "indexed": false,
          "internalType": "uint256",
          "name": "transactionId",
          "type": "uint256"
        }
      ],
      "name": "ServiceProposalConfirmedWithDeposit",
      "type": "event"
    },
    {
      "inputs": [
        {
          "internalType": "uint256",
          "name": "_timeoutPayment",
          "type": "uint256"
        },
        {
          "internalType": "string",
          "name": "_metaEvidence",
          "type": "string"
        },
        {
          "internalType": "address",
          "name": "_adminWallet",
          "type": "address"
        },
        {
          "internalType": "uint256",
          "name": "_adminFeeAmount",
          "type": "uint256"
        },
        {
          "internalType": "uint256",
          "name": "_serviceId",
          "type": "uint256"
        },
        {
          "internalType": "uint256",
          "name": "_proposalId",
          "type": "uint256"
        }
      ],
      "name": "createETHTransaction",
      "outputs": [],
      "stateMutability": "payable",
      "type": "function"
    },
    {
      "inputs": [
        {
          "internalType": "uint256",
          "name": "_timeoutPayment",
          "type": "uint256"
        },
        {
          "internalType": "string",
          "name": "_metaEvidence",
          "type": "string"
        },
        {
          "internalType": "address",
          "name": "_adminWallet",
          "type": "address"
        },
        {
          "internalType": "uint256",
          "name": "_adminFeeAmount",
          "type": "uint256"
        },
        {
          "internalType": "uint256",
          "name": "_serviceId",
          "type": "uint256"
        },
        {
          "internalType": "uint256",
          "name": "_proposalId",
          "type": "uint256"
        }
      ],
      "name": "createTokenTransaction",
      "outputs": [],
      "stateMutability": "nonpayable",
      "type": "function"
    },
    {
      "inputs": [
        {
          "internalType": "uint256",
          "name": "_transactionId",
          "type": "uint256"
        },
        {
          "internalType": "uint256",
          "name": "_amount",
          "type": "uint256"
        }
      ],
      "name": "reimburse",
      "outputs": [],
      "stateMutability": "nonpayable",
      "type": "function"
    },
    {
      "inputs": [
        {
          "internalType": "uint256",
          "name": "_transactionId",
          "type": "uint256"
        },
        {
          "internalType": "uint256",
          "name": "_amount",
          "type": "uint256"
        }
      ],
      "name": "release",
      "outputs": [],
      "stateMutability": "nonpayable",
      "type": "function"
    }
  ],
  "bytecode": "0x60806040523480156200001157600080fd5b50604051620015a1380380620015a18339810160408190526200003491620000a4565b600180546001600160a01b0319166001600160a01b038716179055600280546001600160a01b0319166001600160a01b0386161790555050505050620001ce565b6001600160a01b03811681146200008b57600080fd5b50565b634e487b7160e01b600052604160045260246000fd5b600080600080600060a08688031215620000bd57600080fd5b8551620000ca8162000075565b80955050602080870151620000df8162000075565b6040880151909550620000f28162000075565b60608801519094506001600160401b03808211156200011057600080fd5b818901915089601f8301126200012557600080fd5b8151818111156200013a576200013a6200008e565b604051601f8201601f19908116603f011681019083821181831017156200016557620001656200008e565b816040528281528c868487010111156200017e57600080fd5b600093505b82841015620001a2578484018601518185018701529285019262000183565b82841115620001b45760008684830101525b809750505050505050608086015190509295509295909350565b6113c380620001de6000396000f3fe60806040526004361061003f5760003560e01c80631dabf6b114610044578063366a4120146100595780636613750314610079578063fe43a99214610099575b600080fd5b610057610052366004610fba565b6100b9565b005b34801561006557600080fd5b50610057610074366004611070565b6103a3565b34801561008557600080fd5b50610057610094366004610fba565b61052f565b3480156100a557600080fd5b506100576100b4366004611070565b61073b565b6100c1610e60565b6100c9610e99565b6000806100d686866108a9565b92965090945092509050336001600160a01b038316146101115760405162461bcd60e51b815260040161010890611092565b60405180910390fd5b86846060015161012191906110d0565b34146101655760405162461bcd60e51b81526020600482015260136024820152722737b716b6b0ba31b434b73390333ab732399760691b6044820152606401610108565b60408401516001600160a01b0316156101c05760405162461bcd60e51b815260206004820152601760248201527f50726f706f73616c20746f6b656e206e6f74204554482e0000000000000000006044820152606401610108565b8484602001511461020c5760405162461bcd60e51b815260206004820152601660248201527524b731b7b93932b1ba10383937b837b9b0b61024a21760511b6044820152606401610108565b600483516004811115610221576102216110e8565b146102695760405162461bcd60e51b815260206004820152601860248201527729b2b93b34b1b29039ba30ba3ab9903737ba1037b832b71760411b6044820152606401610108565b60008451600281111561027e5761027e6110e8565b146102cb5760405162461bcd60e51b815260206004820152601c60248201527f50726f706f73616c20737461747573206e6f742070656e64696e672e000000006044820152606401610108565b60006102e28383876040015188606001518b610a01565b6001546040516353eaf57560e11b8152600481018a905260248101899052604481018390529192506001600160a01b03169063a7d5eaea90606401600060405180830381600087803b15801561033757600080fd5b505af115801561034b573d6000803e3d6000fd5b505050602080870151604080518b81529283019190915281018390527fffc7643b52fc7134d23e37eac3c5c4bdad5cf04655528f24663504e15adc4a4a91506060015b60405180910390a15050505050505050505050565b60005482106103f45760405162461bcd60e51b815260206004820152601b60248201527f4e6f7420612076616c6964207472616e73616374696f6e2069642e00000000006044820152606401610108565b6000808381548110610408576104086110fe565b6000918252602090912060059091020180549091506001600160a01b031633146104445760405162461bcd60e51b815260040161010890611092565b818160030154101561048e5760405162461bcd60e51b815260206004820152601360248201527224b739bab33334b1b4b2b73a10333ab732399760691b6044820152606401610108565b818160030160008282546104a29190611114565b9091555050600181015460028201546104c8916001600160a01b03908116911684610b4e565b600281015460048201546040517fdaa591b50a981113dacf06d6569df00c5b022da0ee70df9df0dfab17eaa24129926105109260009287926001600160a01b0316919061112b565b60405180910390a161052a81600401548260030154610c60565b505050565b610537610e60565b61053f610e99565b60008061054c86866108a9565b9296509094509250905060048351600481111561056b5761056b6110e8565b146105b35760405162461bcd60e51b815260206004820152601860248201527729b2b93b34b1b29039ba30ba3ab9903737ba1037b832b71760411b6044820152606401610108565b6000845160028111156105c8576105c86110e8565b146106155760405162461bcd60e51b815260206004820152601c60248201527f50726f706f73616c20737461747573206e6f742070656e64696e672e000000006044820152606401610108565b848460200151146106615760405162461bcd60e51b815260206004820152601660248201527524b731b7b93932b1ba10383937b837b9b0b61024a21760511b6044820152606401610108565b60006106788383876040015188606001518b610a01565b6001546040516353eaf57560e11b8152600481018a905260248101899052604481018390529192506001600160a01b03169063a7d5eaea90606401600060405180830381600087803b1580156106cd57600080fd5b505af11580156106e1573d6000803e3d6000fd5b505050506106f88386604001518760600151610d01565b602080860151604080518a81529283019190915281018290527fffc7643b52fc7134d23e37eac3c5c4bdad5cf04655528f24663504e15adc4a4a9060600161038e565b600054821061078c5760405162461bcd60e51b815260206004820152601b60248201527f4e6f7420612076616c6964207472616e73616374696f6e2069642e00000000006044820152606401610108565b60008083815481106107a0576107a06110fe565b600091825260209091206001600590920201908101549091506001600160a01b031633146107e05760405162461bcd60e51b815260040161010890611092565b818160030154101561082a5760405162461bcd60e51b815260206004820152601360248201527224b739bab33334b1b4b2b73a10333ab732399760691b6044820152606401610108565b8181600301600082825461083e9190611114565b909155505080546002820154610861916001600160a01b03908116911684610b4e565b600281015460048201546040517fdaa591b50a981113dacf06d6569df00c5b022da0ee70df9df0dfab17eaa24129926105109260019287926001600160a01b0316919061112b565b6108b1610e60565b6108b9610e99565b60008060006108c88787610d3c565b905060006108d588610dd2565b60025460208201516040516331a9108f60e11b81529293506000926001600160a01b0390921691636352211e916109129160040190815260200190565b60206040518083038186803b15801561092a57600080fd5b505afa15801561093e573d6000803e3d6000fd5b505050506040513d601f19601f820116820180604052508101906109629190611172565b60025460208501516040516331a9108f60e11b81529293506000926001600160a01b0390921691636352211e9161099f9160040190815260200190565b60206040518083038186803b1580156109b757600080fd5b505afa1580156109cb573d6000803e3d6000fd5b505050506040513d601f19601f820116820180604052508101906109ef9190611172565b939a9299509097509195509350505050565b6040805160a0810182526001600160a01b0380881682528681166020830190815286821693830193845260608301868152608084018681526000805460018181018355828052965160059091027f290decd9548b62a8d60345a988386fc84ba6bc95484008f6362f93160ef3e563810180549288166001600160a01b031993841617905594517f290decd9548b62a8d60345a988386fc84ba6bc95484008f6362f93160ef3e5648601805491881691831691909117905596517f290decd9548b62a8d60345a988386fc84ba6bc95484008f6362f93160ef3e5658501805491909616971696909617909355517f290decd9548b62a8d60345a988386fc84ba6bc95484008f6362f93160ef3e56682015590517f290decd9548b62a8d60345a988386fc84ba6bc95484008f6362f93160ef3e567909101558154610b449190611114565b9695505050505050565b6001600160a01b038216610b98576040516001600160a01b0384169082156108fc029083906000818181858888f19350505050158015610b92573d6000803e3d6000fd5b50505050565b60405163a9059cbb60e01b81526001600160a01b0384811660048301526024820183905283169063a9059cbb906044015b602060405180830381600087803b158015610be357600080fd5b505af1158015610bf7573d6000803e3d6000fd5b505050506040513d601f19601f82011682018060405250810190610c1b919061118f565b61052a5760405162461bcd60e51b8152602060048201526016602482015275151c985b9cd9995c881b5d5cdd081b9bdd0819985a5b60521b6044820152606401610108565b80610cfd57600154604051631271956760e21b8152600481018490526001600160a01b03909116906349c6559c90602401600060405180830381600087803b158015610cab57600080fd5b505af1158015610cbf573d6000803e3d6000fd5b505050507f6bef1b5e95b741d6e665eb9b5c2d3e1203c46a771451055a9d41e0b8ff4510b782604051610cf491815260200190565b60405180910390a15b5050565b6040516323b872dd60e01b81526001600160a01b038481166004830152306024830152604482018390528316906323b872dd90606401610bc9565b610d44610e60565b60015460405163aba2100960e01b815260048101859052602481018490526001600160a01b039091169063aba210099060440160006040518083038186803b158015610d8f57600080fd5b505afa158015610da3573d6000803e3d6000fd5b505050506040513d6000823e601f3d908101601f19168201604052610dcb9190810190611220565b9392505050565b610dda610e99565b60015460405163ef0e239b60e01b8152600481018490526001600160a01b039091169063ef0e239b9060240160006040518083038186803b158015610e1e57600080fd5b505afa158015610e32573d6000803e3d6000fd5b505050506040513d6000823e601f3d908101601f19168201604052610e5a91908101906112da565b92915050565b6040805160a0810190915280600081526020016000815260200160006001600160a01b0316815260200160008152602001606081525090565b6040805160e0810190915280600081526020016000815260200160008152602001600081526020016060815260200160008152602001600081525090565b634e487b7160e01b600052604160045260246000fd5b60405160a0810167ffffffffffffffff81118282101715610f1057610f10610ed7565b60405290565b60405160e0810167ffffffffffffffff81118282101715610f1057610f10610ed7565b604051601f8201601f1916810167ffffffffffffffff81118282101715610f6257610f62610ed7565b604052919050565b600067ffffffffffffffff821115610f8457610f84610ed7565b50601f01601f191660200190565b6001600160a01b0381168114610fa757600080fd5b50565b8035610fb581610f92565b919050565b60008060008060008060c08789031215610fd357600080fd5b86359550602087013567ffffffffffffffff811115610ff157600080fd5b8701601f8101891361100257600080fd5b803561101561101082610f6a565b610f39565b8181528a602083850101111561102a57600080fd5b8160208401602083013760006020838301015280975050505061104f60408801610faa565b9350606087013592506080870135915060a087013590509295509295509295565b6000806040838503121561108357600080fd5b50508035926020909101359150565b6020808252600e908201526d20b1b1b2b9b9903232b734b2b21760911b604082015260600190565b634e487b7160e01b600052601160045260246000fd5b600082198211156110e3576110e36110ba565b500190565b634e487b7160e01b600052602160045260246000fd5b634e487b7160e01b600052603260045260246000fd5b600082821015611126576111266110ba565b500390565b608081016002861061114d57634e487b7160e01b600052602160045260246000fd5b94815260208101939093526001600160a01b0391909116604083015260609091015290565b60006020828403121561118457600080fd5b8151610dcb81610f92565b6000602082840312156111a157600080fd5b81518015158114610dcb57600080fd5b600082601f8301126111c257600080fd5b81516111d061101082610f6a565b818152602085818487010111156111e657600080fd5b60005b838110156112045785810182015183820183015281016111e9565b838111156112155760008285850101525b509095945050505050565b60006020828403121561123257600080fd5b815167ffffffffffffffff8082111561124a57600080fd5b9083019060a0828603121561125e57600080fd5b611266610eed565b82516003811061127557600080fd5b815260208381015190820152604083015161128f81610f92565b6040820152606083810151908201526080830151828111156112b057600080fd5b6112bc878286016111b1565b60808301525095945050505050565b805160058110610fb557600080fd5b6000602082840312156112ec57600080fd5b815167ffffffffffffffff8082111561130457600080fd5b9083019060e0828603121561131857600080fd5b611320610f16565b611329836112cb565b815260208301516020820152604083015160408201526060830151606082015260808301518281111561135b57600080fd5b611367878286016111b1565b60808301525060a083015160a082015260c083015160c08201528093505050509291505056fea2646970667358221220d4cdd770546ad324f8ac8813e6405ff008ffa7e5fcc4eaf9584258cedc59a9cc64736f6c63430008090033",
  "linkReferences": {},
  "deployedLinkReferences": {}
}