{
  "_format": "hh-sol-artifact-1",
  "contractName": "JobRegistry",
  "sourceName": "contracts/JobRegistry.sol",
  "abi": [
    {
      "inputs": [
        {
          "internalType": "address",
          "name": "_talentLayerIdAddress",
          "type": "address"
        }
      ],
      "stateMutability": "nonpayable",
      "type": "constructor"
    },
    {
      "anonymous": false,
      "inputs": [
        {
          "indexed": false,
          "internalType": "uint256",
          "name": "id",
          "type": "uint256"
        },
        {
          "indexed": false,
          "internalType": "uint256",
          "name": "employerId",
          "type": "uint256"
        },
        {
          "indexed": false,
          "internalType": "uint256",
          "name": "employeeId",
          "type": "uint256"
        },
        {
          "indexed": false,
          "internalType": "uint256",
          "name": "initiatorId",
          "type": "uint256"
        },
        {
          "indexed": false,
          "internalType": "string",
          "name": "jobDataUri",
          "type": "string"
        }
      ],
      "name": "CreateJob",
      "type": "event"
    },
    {
      "inputs": [
        {
          "internalType": "uint256",
          "name": "_jobId",
          "type": "uint256"
        }
      ],
      "name": "confirmJob",
      "outputs": [],
      "stateMutability": "nonpayable",
      "type": "function"
    },
    {
      "inputs": [
        {
          "internalType": "uint256",
          "name": "_employerId",
          "type": "uint256"
        },
        {
          "internalType": "string",
          "name": "_jobDataUri",
          "type": "string"
        }
      ],
      "name": "createJobFromEmployee",
      "outputs": [
        {
          "internalType": "uint256",
          "name": "",
          "type": "uint256"
        }
      ],
      "stateMutability": "nonpayable",
      "type": "function"
    },
    {
      "inputs": [
        {
          "internalType": "uint256",
          "name": "_employeeId",
          "type": "uint256"
        },
        {
          "internalType": "string",
          "name": "_jobDataUri",
          "type": "string"
        }
      ],
      "name": "createJobFromEmployer",
      "outputs": [
        {
          "internalType": "uint256",
          "name": "",
          "type": "uint256"
        }
      ],
      "stateMutability": "nonpayable",
      "type": "function"
    },
    {
      "inputs": [
        {
          "internalType": "uint256",
          "name": "_jobId",
          "type": "uint256"
        }
      ],
      "name": "finishJob",
      "outputs": [],
      "stateMutability": "nonpayable",
      "type": "function"
    },
    {
      "inputs": [
        {
          "internalType": "uint256",
          "name": "_jobId",
          "type": "uint256"
        }
      ],
      "name": "getJob",
      "outputs": [
        {
          "components": [
            {
              "internalType": "enum JobRegistry.Status",
              "name": "status",
              "type": "uint8"
            },
            {
              "internalType": "uint256",
              "name": "employerId",
              "type": "uint256"
            },
            {
              "internalType": "uint256",
              "name": "employeeId",
              "type": "uint256"
            },
            {
              "internalType": "uint256",
              "name": "initiatorId",
              "type": "uint256"
            },
            {
              "internalType": "string",
              "name": "jobDataUri",
              "type": "string"
            }
          ],
          "internalType": "struct JobRegistry.Job",
          "name": "",
          "type": "tuple"
        }
      ],
      "stateMutability": "view",
      "type": "function"
    },
    {
      "inputs": [
        {
          "internalType": "uint256",
          "name": "",
          "type": "uint256"
        }
      ],
      "name": "jobs",
      "outputs": [
        {
          "internalType": "enum JobRegistry.Status",
          "name": "status",
          "type": "uint8"
        },
        {
          "internalType": "uint256",
          "name": "employerId",
          "type": "uint256"
        },
        {
          "internalType": "uint256",
          "name": "employeeId",
          "type": "uint256"
        },
        {
          "internalType": "uint256",
          "name": "initiatorId",
          "type": "uint256"
        },
        {
          "internalType": "string",
          "name": "jobDataUri",
          "type": "string"
        }
      ],
      "stateMutability": "view",
      "type": "function"
    },
    {
      "inputs": [
        {
          "internalType": "uint256",
          "name": "_jobId",
          "type": "uint256"
        }
      ],
      "name": "rejectJob",
      "outputs": [],
      "stateMutability": "nonpayable",
      "type": "function"
    }
  ],
  "bytecode": "0x6080604052600160005534801561001557600080fd5b50604051610e98380380610e9883398101604081905261003491610059565b600180546001600160a01b0319166001600160a01b0392909216919091179055610089565b60006020828403121561006b57600080fd5b81516001600160a01b038116811461008257600080fd5b9392505050565b610e00806100986000396000f3fe608060405234801561001057600080fd5b506004361061007d5760003560e01c8063ce0728d51161005b578063ce0728d5146100e4578063d548008114610105578063e91a09ce14610118578063fb3680601461012b57600080fd5b8063180aedf3146100825780636e3589a2146100af578063bf22c457146100c4575b600080fd5b610095610090366004610b22565b61013e565b6040516100a6959493929190610bc0565b60405180910390f35b6100c26100bd366004610b22565b6101fd565b005b6100d76100d2366004610b22565b610340565b6040516100a69190610bfd565b6100f76100f2366004610c4f565b6104ba565b6040519081526020016100a6565b6100c2610113366004610b22565b610551565b6100f7610126366004610c4f565b6106fe565b6100c2610139366004610b22565b61078c565b60026020819052600091825260409091208054600182015492820154600383015460048401805460ff9094169594929391929161017a90610ccb565b80601f01602080910402602001604051908101604052809291908181526020018280546101a690610ccb565b80156101f35780601f106101c8576101008083540402835291602001916101f3565b820191906000526020600020905b8154815290600101906020018083116101d657829003601f168201915b5050505050905085565b600081815260026020526040808220600154915162438b6360e81b81523360048201529092916001600160a01b03169063438b63009060240160206040518083038186803b15801561024e57600080fd5b505afa158015610262573d6000803e3d6000fd5b505050506040513d601f19601f820116820180604052508101906102869190610d06565b9050816001015481148061029d5750816002015481145b6102c25760405162461bcd60e51b81526004016102b990610d1f565b60405180910390fd5b6001825460ff1660038111156102da576102da610b3b565b146103275760405162461bcd60e51b815260206004820152601960248201527f596f752063616e27742066696e6973682074686973206a6f620000000000000060448201526064016102b9565b8154600290839060ff19166001835b0217905550505050565b6103736040805160a081019091528060008152602001600081526020016000815260200160008152602001606081525090565b60005482106103bd5760405162461bcd60e51b8152602060048201526016602482015275151a1a5cc81a9bd888191bd95cc9db9d08195e1a5cdd60521b60448201526064016102b9565b60008281526002602052604090819020815160a081019092528054829060ff1660038111156103ee576103ee610b3b565b60038111156103ff576103ff610b3b565b815260200160018201548152602001600282015481526020016003820154815260200160048201805461043190610ccb565b80601f016020809104026020016040519081016040528092919081815260200182805461045d90610ccb565b80156104aa5780601f1061047f576101008083540402835291602001916104aa565b820191906000526020600020905b81548152906001019060200180831161048d57829003601f168201915b5050505050815250509050919050565b60015460405162438b6360e81b815233600482015260009182916001600160a01b039091169063438b63009060240160206040518083038186803b15801561050157600080fd5b505afa158015610515573d6000803e3d6000fd5b505050506040513d601f19601f820116820180604052508101906105399190610d06565b905061054881868387876108c0565b95945050505050565b600081815260026020526040808220600154915162438b6360e81b81523360048201529092916001600160a01b03169063438b63009060240160206040518083038186803b1580156105a257600080fd5b505afa1580156105b6573d6000803e3d6000fd5b505050506040513d601f19601f820116820180604052508101906105da9190610d06565b90506000825460ff1660038111156105f4576105f4610b3b565b146106415760405162461bcd60e51b815260206004820152601e60248201527f4a6f622068617320616c7265616479206265656e20636f6e6669726d6564000060448201526064016102b9565b81600101548114806106565750816002015481145b6106725760405162461bcd60e51b81526004016102b990610d1f565b81600301548114156106ec5760405162461bcd60e51b815260206004820152603760248201527f4f6e6c792074686520757365722077686f206469646e277420696e697461746560448201527f20746865206a6f622063616e20636f6e6669726d20697400000000000000000060648201526084016102b9565b8154600190839060ff19168280610336565b60015460405162438b6360e81b815233600482015260009182916001600160a01b039091169063438b63009060240160206040518083038186803b15801561074557600080fd5b505afa158015610759573d6000803e3d6000fd5b505050506040513d601f19601f8201168201806040525081019061077d9190610d06565b905061054881828787876108c0565b600081815260026020526040808220600154915162438b6360e81b81523360048201529092916001600160a01b03169063438b63009060240160206040518083038186803b1580156107dd57600080fd5b505afa1580156107f1573d6000803e3d6000fd5b505050506040513d601f19601f820116820180604052508101906108159190610d06565b9050816001015481148061082c5750816002015481145b6108485760405162461bcd60e51b81526004016102b990610d1f565b6000825460ff16600381111561086057610860610b3b565b146108ad5760405162461bcd60e51b815260206004820152601960248201527f596f752063616e27742072656a6563742074686973206a6f620000000000000060448201526064016102b9565b8154600390839060ff1916600183610336565b60008086116109115760405162461bcd60e51b815260206004820152601e60248201527f596f7520736f756c64206861766520612054616c656e744c617965724964000060448201526064016102b9565b8161095e5760405162461bcd60e51b815260206004820152601f60248201527f53686f756c642070726f7669646520612076616c69642049504653205552490060448201526064016102b9565b600080549081908061096f83610d56565b90915550506040805160a08101909152806000815260200187815260200186815260200188815260200185858080601f01602080910402602001604051908101604052809392919081815260200183838082843760009201829052509390945250508381526002602052604090208251815491925090829060ff191660018360038111156109ff576109ff610b3b565b02179055506020828101516001830155604083015160028301556060830151600383015560808301518051610a3a9260048501920190610a89565b509050507fbfdfd2b0c772a483d0569de78ec01c1805b3372b48c53c2dfb30673a7c11a8188187878a8888604051610a7796959493929190610d7f565b60405180910390a19695505050505050565b828054610a9590610ccb565b90600052602060002090601f016020900481019282610ab75760008555610afd565b82601f10610ad057805160ff1916838001178555610afd565b82800160010185558215610afd579182015b82811115610afd578251825591602001919060010190610ae2565b50610b09929150610b0d565b5090565b5b80821115610b095760008155600101610b0e565b600060208284031215610b3457600080fd5b5035919050565b634e487b7160e01b600052602160045260246000fd5b60048110610b6f57634e487b7160e01b600052602160045260246000fd5b9052565b6000815180845260005b81811015610b9957602081850181015186830182015201610b7d565b81811115610bab576000602083870101525b50601f01601f19169290920160200192915050565b610bca8187610b51565b84602082015283604082015282606082015260a060808201526000610bf260a0830184610b73565b979650505050505050565b60208152610c0f602082018351610b51565b6020820151604082015260408201516060820152606082015160808201526000608083015160a080840152610c4760c0840182610b73565b949350505050565b600080600060408486031215610c6457600080fd5b83359250602084013567ffffffffffffffff80821115610c8357600080fd5b818601915086601f830112610c9757600080fd5b813581811115610ca657600080fd5b876020828501011115610cb857600080fd5b6020830194508093505050509250925092565b600181811c90821680610cdf57607f821691505b60208210811415610d0057634e487b7160e01b600052602260045260246000fd5b50919050565b600060208284031215610d1857600080fd5b5051919050565b6020808252601f908201527f596f75277265206e6f7420616e206163746f72206f662074686973206a6f6200604082015260600190565b6000600019821415610d7857634e487b7160e01b600052601160045260246000fd5b5060010190565b86815285602082015284604082015283606082015260a060808201528160a0820152818360c0830137600081830160c090810191909152601f909201601f191601019594505050505056fea2646970667358221220c4645328f7b2bc75537dc675b65414a0792f54ab4b49a1befce4de355539d20164736f6c63430008090033",
  "linkReferences": {},
  "deployedLinkReferences": {}
}