{
  "_format": "hh-sol-artifact-1",
  "contractName": "JobRegistry",
  "sourceName": "contracts/JobRegistry.sol",
  "abi": [
    {
      "inputs": [
        {
          "internalType": "address",
          "name": "_talentLayerIdAddress",
          "type": "address"
        }
      ],
      "stateMutability": "nonpayable",
      "type": "constructor"
    },
    {
      "anonymous": false,
      "inputs": [
        {
          "indexed": false,
          "internalType": "uint256",
          "name": "id",
          "type": "uint256"
        },
        {
          "indexed": false,
          "internalType": "uint256",
          "name": "employerId",
          "type": "uint256"
        },
        {
          "indexed": false,
          "internalType": "uint256",
          "name": "employeeId",
          "type": "uint256"
        },
        {
          "indexed": false,
          "internalType": "string",
          "name": "jobDataUri",
          "type": "string"
        }
      ],
      "name": "JobConfirmed",
      "type": "event"
    },
    {
      "anonymous": false,
      "inputs": [
        {
          "indexed": false,
          "internalType": "uint256",
          "name": "id",
          "type": "uint256"
        },
        {
          "indexed": false,
          "internalType": "uint256",
          "name": "employerId",
          "type": "uint256"
        },
        {
          "indexed": false,
          "internalType": "uint256",
          "name": "employeeId",
          "type": "uint256"
        },
        {
          "indexed": false,
          "internalType": "uint256",
          "name": "initiatorId",
          "type": "uint256"
        },
        {
          "indexed": false,
          "internalType": "uint256",
          "name": "platformId",
          "type": "uint256"
        }
      ],
      "name": "JobCreated",
      "type": "event"
    },
    {
      "anonymous": false,
      "inputs": [
        {
          "indexed": false,
          "internalType": "uint256",
          "name": "id",
          "type": "uint256"
        },
        {
          "indexed": false,
          "internalType": "string",
          "name": "jobDataUri",
          "type": "string"
        }
      ],
      "name": "JobDataCreated",
      "type": "event"
    },
    {
      "anonymous": false,
      "inputs": [
        {
          "indexed": false,
          "internalType": "uint256",
          "name": "id",
          "type": "uint256"
        },
        {
          "indexed": false,
          "internalType": "uint256",
          "name": "employeeId",
          "type": "uint256"
        },
        {
          "indexed": false,
          "internalType": "enum JobRegistry.Status",
          "name": "status",
          "type": "uint8"
        }
      ],
      "name": "JobEmployeeAssigned",
      "type": "event"
    },
    {
      "anonymous": false,
      "inputs": [
        {
          "indexed": false,
          "internalType": "uint256",
          "name": "id",
          "type": "uint256"
        },
        {
          "indexed": false,
          "internalType": "uint256",
          "name": "employerId",
          "type": "uint256"
        },
        {
          "indexed": false,
          "internalType": "uint256",
          "name": "employeeId",
          "type": "uint256"
        },
        {
          "indexed": false,
          "internalType": "string",
          "name": "jobDataUri",
          "type": "string"
        }
      ],
      "name": "JobFinished",
      "type": "event"
    },
    {
      "anonymous": false,
      "inputs": [
        {
          "indexed": false,
          "internalType": "uint256",
          "name": "id",
          "type": "uint256"
        },
        {
          "indexed": false,
          "internalType": "uint256",
          "name": "employerId",
          "type": "uint256"
        },
        {
          "indexed": false,
          "internalType": "uint256",
          "name": "employeeId",
          "type": "uint256"
        },
        {
          "indexed": false,
          "internalType": "string",
          "name": "jobDataUri",
          "type": "string"
        }
      ],
      "name": "JobRejected",
      "type": "event"
    },
    {
      "anonymous": false,
      "inputs": [
        {
          "indexed": false,
          "internalType": "uint256",
          "name": "jobId",
          "type": "uint256"
        },
        {
          "indexed": false,
          "internalType": "uint256",
          "name": "employeeId",
          "type": "uint256"
        },
        {
          "indexed": false,
          "internalType": "string",
          "name": "proposalDataUri",
          "type": "string"
        },
        {
          "indexed": false,
          "internalType": "enum JobRegistry.ProposalStatus",
          "name": "status",
          "type": "uint8"
        },
        {
          "indexed": false,
          "internalType": "address",
          "name": "rateToken",
          "type": "address"
        },
        {
          "indexed": false,
          "internalType": "uint256",
          "name": "rateAmount",
          "type": "uint256"
        }
      ],
      "name": "ProposalCreated",
      "type": "event"
    },
    {
      "anonymous": false,
      "inputs": [
        {
          "indexed": false,
          "internalType": "uint256",
          "name": "jobId",
          "type": "uint256"
        },
        {
          "indexed": false,
          "internalType": "uint256",
          "name": "employeeId",
          "type": "uint256"
        }
      ],
      "name": "ProposalRejected",
      "type": "event"
    },
    {
      "anonymous": false,
      "inputs": [
        {
          "indexed": false,
          "internalType": "uint256",
          "name": "jobId",
          "type": "uint256"
        },
        {
          "indexed": false,
          "internalType": "uint256",
          "name": "employeeId",
          "type": "uint256"
        },
        {
          "indexed": false,
          "internalType": "string",
          "name": "proposalDataUri",
          "type": "string"
        },
        {
          "indexed": false,
          "internalType": "address",
          "name": "rateToken",
          "type": "address"
        },
        {
          "indexed": false,
          "internalType": "uint256",
          "name": "rateAmount",
          "type": "uint256"
        }
      ],
      "name": "ProposalUpdated",
      "type": "event"
    },
    {
      "anonymous": false,
      "inputs": [
        {
          "indexed": false,
          "internalType": "uint256",
          "name": "jobId",
          "type": "uint256"
        },
        {
          "indexed": false,
          "internalType": "uint256",
          "name": "employeeId",
          "type": "uint256"
        }
      ],
      "name": "ProposalValidated",
      "type": "event"
    },
    {
      "anonymous": false,
      "inputs": [
        {
          "indexed": true,
          "internalType": "bytes32",
          "name": "role",
          "type": "bytes32"
        },
        {
          "indexed": true,
          "internalType": "bytes32",
          "name": "previousAdminRole",
          "type": "bytes32"
        },
        {
          "indexed": true,
          "internalType": "bytes32",
          "name": "newAdminRole",
          "type": "bytes32"
        }
      ],
      "name": "RoleAdminChanged",
      "type": "event"
    },
    {
      "anonymous": false,
      "inputs": [
        {
          "indexed": true,
          "internalType": "bytes32",
          "name": "role",
          "type": "bytes32"
        },
        {
          "indexed": true,
          "internalType": "address",
          "name": "account",
          "type": "address"
        },
        {
          "indexed": true,
          "internalType": "address",
          "name": "sender",
          "type": "address"
        }
      ],
      "name": "RoleGranted",
      "type": "event"
    },
    {
      "anonymous": false,
      "inputs": [
        {
          "indexed": true,
          "internalType": "bytes32",
          "name": "role",
          "type": "bytes32"
        },
        {
          "indexed": true,
          "internalType": "address",
          "name": "account",
          "type": "address"
        },
        {
          "indexed": true,
          "internalType": "address",
          "name": "sender",
          "type": "address"
        }
      ],
      "name": "RoleRevoked",
      "type": "event"
    },
    {
      "inputs": [],
      "name": "DEFAULT_ADMIN_ROLE",
      "outputs": [
        {
          "internalType": "bytes32",
          "name": "",
          "type": "bytes32"
        }
      ],
      "stateMutability": "view",
      "type": "function"
    },
    {
      "inputs": [],
      "name": "ESCROW_ROLE",
      "outputs": [
        {
          "internalType": "bytes32",
          "name": "",
          "type": "bytes32"
        }
      ],
      "stateMutability": "view",
      "type": "function"
    },
    {
      "inputs": [
        {
          "internalType": "uint256",
          "name": "_jobId",
          "type": "uint256"
        },
        {
          "internalType": "uint256",
          "name": "_proposalId",
          "type": "uint256"
        },
        {
          "internalType": "uint256",
          "name": "_transactionId",
          "type": "uint256"
        }
      ],
      "name": "afterDeposit",
      "outputs": [],
      "stateMutability": "nonpayable",
      "type": "function"
    },
    {
      "inputs": [
        {
          "internalType": "uint256",
          "name": "_jobId",
          "type": "uint256"
        }
      ],
      "name": "afterFullPayment",
      "outputs": [],
      "stateMutability": "nonpayable",
      "type": "function"
    },
    {
      "inputs": [
        {
          "internalType": "uint256",
          "name": "_jobId",
          "type": "uint256"
        },
        {
          "internalType": "uint256",
          "name": "_employeeId",
          "type": "uint256"
        }
      ],
      "name": "assignEmployeeToJob",
      "outputs": [],
      "stateMutability": "nonpayable",
      "type": "function"
    },
    {
      "inputs": [
        {
          "internalType": "uint256",
          "name": "_jobId",
          "type": "uint256"
        }
      ],
      "name": "confirmJob",
      "outputs": [],
      "stateMutability": "nonpayable",
      "type": "function"
    },
    {
      "inputs": [
        {
          "internalType": "uint256",
          "name": "_employerId",
          "type": "uint256"
        },
        {
          "internalType": "string",
          "name": "_jobDataUri",
          "type": "string"
        },
        {
          "internalType": "uint256",
          "name": "_platformId",
          "type": "uint256"
        }
      ],
      "name": "createJobFromEmployee",
      "outputs": [
        {
          "internalType": "uint256",
          "name": "",
          "type": "uint256"
        }
      ],
      "stateMutability": "nonpayable",
      "type": "function"
    },
    {
      "inputs": [
        {
          "internalType": "uint256",
          "name": "_employeeId",
          "type": "uint256"
        },
        {
          "internalType": "string",
          "name": "_jobDataUri",
          "type": "string"
        },
        {
          "internalType": "uint256",
          "name": "_platformId",
          "type": "uint256"
        }
      ],
      "name": "createJobFromEmployer",
      "outputs": [
        {
          "internalType": "uint256",
          "name": "",
          "type": "uint256"
        }
      ],
      "stateMutability": "nonpayable",
      "type": "function"
    },
    {
      "inputs": [
        {
          "internalType": "string",
          "name": "_jobDataUri",
          "type": "string"
        },
        {
          "internalType": "uint256",
          "name": "_platformId",
          "type": "uint256"
        }
      ],
      "name": "createOpenJobFromEmployer",
      "outputs": [
        {
          "internalType": "uint256",
          "name": "",
          "type": "uint256"
        }
      ],
      "stateMutability": "nonpayable",
      "type": "function"
    },
    {
      "inputs": [
        {
          "internalType": "uint256",
          "name": "_jobId",
          "type": "uint256"
        },
        {
          "internalType": "address",
          "name": "_rateToken",
          "type": "address"
        },
        {
          "internalType": "uint256",
          "name": "_rateAmount",
          "type": "uint256"
        },
        {
          "internalType": "string",
          "name": "_proposalDataUri",
          "type": "string"
        }
      ],
      "name": "createProposal",
      "outputs": [],
      "stateMutability": "nonpayable",
      "type": "function"
    },
    {
      "inputs": [
        {
          "internalType": "uint256",
          "name": "_jobId",
          "type": "uint256"
        }
      ],
      "name": "finishJob",
      "outputs": [],
      "stateMutability": "nonpayable",
      "type": "function"
    },
    {
      "inputs": [
        {
          "internalType": "uint256",
          "name": "_jobId",
          "type": "uint256"
        }
      ],
      "name": "getJob",
      "outputs": [
        {
          "components": [
            {
              "internalType": "enum JobRegistry.Status",
              "name": "status",
              "type": "uint8"
            },
            {
              "internalType": "uint256",
              "name": "employerId",
              "type": "uint256"
            },
            {
              "internalType": "uint256",
              "name": "employeeId",
              "type": "uint256"
            },
            {
              "internalType": "uint256",
              "name": "initiatorId",
              "type": "uint256"
            },
            {
              "internalType": "string",
              "name": "jobDataUri",
              "type": "string"
            },
            {
              "internalType": "uint256",
              "name": "countProposals",
              "type": "uint256"
            },
            {
              "internalType": "uint256",
              "name": "transactionId",
              "type": "uint256"
            },
            {
              "internalType": "uint256",
              "name": "platformId",
              "type": "uint256"
            }
          ],
          "internalType": "struct JobRegistry.Job",
          "name": "",
          "type": "tuple"
        }
      ],
      "stateMutability": "view",
      "type": "function"
    },
    {
      "inputs": [
        {
          "internalType": "uint256",
          "name": "_jobId",
          "type": "uint256"
        },
        {
          "internalType": "uint256",
          "name": "_proposalId",
          "type": "uint256"
        }
      ],
      "name": "getProposal",
      "outputs": [
        {
          "components": [
            {
              "internalType": "enum JobRegistry.ProposalStatus",
              "name": "status",
              "type": "uint8"
            },
            {
              "internalType": "uint256",
              "name": "employeeId",
              "type": "uint256"
            },
            {
              "internalType": "address",
              "name": "rateToken",
              "type": "address"
            },
            {
              "internalType": "uint256",
              "name": "rateAmount",
              "type": "uint256"
            },
            {
              "internalType": "string",
              "name": "proposalDataUri",
              "type": "string"
            }
          ],
          "internalType": "struct JobRegistry.Proposal",
          "name": "",
          "type": "tuple"
        }
      ],
      "stateMutability": "view",
      "type": "function"
    },
    {
      "inputs": [
        {
          "internalType": "bytes32",
          "name": "role",
          "type": "bytes32"
        }
      ],
      "name": "getRoleAdmin",
      "outputs": [
        {
          "internalType": "bytes32",
          "name": "",
          "type": "bytes32"
        }
      ],
      "stateMutability": "view",
      "type": "function"
    },
    {
      "inputs": [
        {
          "internalType": "bytes32",
          "name": "role",
          "type": "bytes32"
        },
        {
          "internalType": "address",
          "name": "account",
          "type": "address"
        }
      ],
      "name": "grantRole",
      "outputs": [],
      "stateMutability": "nonpayable",
      "type": "function"
    },
    {
      "inputs": [
        {
          "internalType": "bytes32",
          "name": "role",
          "type": "bytes32"
        },
        {
          "internalType": "address",
          "name": "account",
          "type": "address"
        }
      ],
      "name": "hasRole",
      "outputs": [
        {
          "internalType": "bool",
          "name": "",
          "type": "bool"
        }
      ],
      "stateMutability": "view",
      "type": "function"
    },
    {
      "inputs": [
        {
          "internalType": "uint256",
          "name": "",
          "type": "uint256"
        }
      ],
      "name": "jobs",
      "outputs": [
        {
          "internalType": "enum JobRegistry.Status",
          "name": "status",
          "type": "uint8"
        },
        {
          "internalType": "uint256",
          "name": "employerId",
          "type": "uint256"
        },
        {
          "internalType": "uint256",
          "name": "employeeId",
          "type": "uint256"
        },
        {
          "internalType": "uint256",
          "name": "initiatorId",
          "type": "uint256"
        },
        {
          "internalType": "string",
          "name": "jobDataUri",
          "type": "string"
        },
        {
          "internalType": "uint256",
          "name": "countProposals",
          "type": "uint256"
        },
        {
          "internalType": "uint256",
          "name": "transactionId",
          "type": "uint256"
        },
        {
          "internalType": "uint256",
          "name": "platformId",
          "type": "uint256"
        }
      ],
      "stateMutability": "view",
      "type": "function"
    },
    {
      "inputs": [],
      "name": "nextJobId",
      "outputs": [
        {
          "internalType": "uint256",
          "name": "",
          "type": "uint256"
        }
      ],
      "stateMutability": "view",
      "type": "function"
    },
    {
      "inputs": [
        {
          "internalType": "uint256",
          "name": "",
          "type": "uint256"
        },
        {
          "internalType": "uint256",
          "name": "",
          "type": "uint256"
        }
      ],
      "name": "proposals",
      "outputs": [
        {
          "internalType": "enum JobRegistry.ProposalStatus",
          "name": "status",
          "type": "uint8"
        },
        {
          "internalType": "uint256",
          "name": "employeeId",
          "type": "uint256"
        },
        {
          "internalType": "address",
          "name": "rateToken",
          "type": "address"
        },
        {
          "internalType": "uint256",
          "name": "rateAmount",
          "type": "uint256"
        },
        {
          "internalType": "string",
          "name": "proposalDataUri",
          "type": "string"
        }
      ],
      "stateMutability": "view",
      "type": "function"
    },
    {
      "inputs": [
        {
          "internalType": "uint256",
          "name": "_jobId",
          "type": "uint256"
        }
      ],
      "name": "rejectJob",
      "outputs": [],
      "stateMutability": "nonpayable",
      "type": "function"
    },
    {
      "inputs": [
        {
          "internalType": "uint256",
          "name": "_jobId",
          "type": "uint256"
        },
        {
          "internalType": "uint256",
          "name": "_proposalId",
          "type": "uint256"
        }
      ],
      "name": "rejectProposal",
      "outputs": [],
      "stateMutability": "nonpayable",
      "type": "function"
    },
    {
      "inputs": [
        {
          "internalType": "bytes32",
          "name": "role",
          "type": "bytes32"
        },
        {
          "internalType": "address",
          "name": "account",
          "type": "address"
        }
      ],
      "name": "renounceRole",
      "outputs": [],
      "stateMutability": "nonpayable",
      "type": "function"
    },
    {
      "inputs": [
        {
          "internalType": "bytes32",
          "name": "role",
          "type": "bytes32"
        },
        {
          "internalType": "address",
          "name": "account",
          "type": "address"
        }
      ],
      "name": "revokeRole",
      "outputs": [],
      "stateMutability": "nonpayable",
      "type": "function"
    },
    {
      "inputs": [
        {
          "internalType": "bytes4",
          "name": "interfaceId",
          "type": "bytes4"
        }
      ],
      "name": "supportsInterface",
      "outputs": [
        {
          "internalType": "bool",
          "name": "",
          "type": "bool"
        }
      ],
      "stateMutability": "view",
      "type": "function"
    },
    {
      "inputs": [
        {
          "internalType": "uint256",
          "name": "_jobId",
          "type": "uint256"
        },
        {
          "internalType": "address",
          "name": "_rateToken",
          "type": "address"
        },
        {
          "internalType": "uint256",
          "name": "_rateAmount",
          "type": "uint256"
        },
        {
          "internalType": "string",
          "name": "_proposalDataUri",
          "type": "string"
        }
      ],
      "name": "updateProposal",
      "outputs": [],
      "stateMutability": "nonpayable",
      "type": "function"
    },
    {
      "inputs": [
        {
          "internalType": "uint256",
          "name": "_jobId",
          "type": "uint256"
        },
        {
          "internalType": "uint256",
          "name": "_proposalId",
          "type": "uint256"
        }
      ],
      "name": "validateProposal",
      "outputs": [],
      "stateMutability": "nonpayable",
      "type": "function"
    }
  ],
  "bytecode": "0x6080604052600180553480156200001557600080fd5b5060405162002da938038062002da9833981016040819052620000389162000117565b600280546001600160a01b0319166001600160a01b0383161790556200006060003362000067565b5062000149565b62000073828262000077565b5050565b6000828152602081815260408083206001600160a01b038516845290915290205460ff1662000073576000828152602081815260408083206001600160a01b03851684529091529020805460ff19166001179055620000d33390565b6001600160a01b0316816001600160a01b0316837f2f8788117e7eff1d82e926ec794901d17c78024a50270940304540a733656f0d60405160405180910390a45050565b6000602082840312156200012a57600080fd5b81516001600160a01b03811681146200014257600080fd5b9392505050565b612c5080620001596000396000f3fe608060405234801561001057600080fd5b506004361061018e5760003560e01c806391d14854116100de578063b0c2aa5e11610097578063d547741f11610071578063d547741f146103a8578063d5480081146103bb578063df5e8142146103ce578063fb368060146103e157600080fd5b8063b0c2aa5e1461035b578063bf22c45714610364578063c2cfee271461038457600080fd5b806391d14854146102e7578063a217fddf146102fa578063a3b10d5e14610302578063a7d5eaea14610315578063a8d9939d14610328578063aba210091461033b57600080fd5b8063477034da1161014b5780635f03f4ba116101255780635f03f4ba146102875780636ce76f301461029a5780636e3589a2146102c15780638fece209146102d457600080fd5b8063477034da1461024e57806349c6559c146102615780635bdc75b01461027457600080fd5b806301ffc9a714610193578063180aedf3146101bb578063248a9ca3146101e25780632f2ff15d1461021357806335ee2ff21461022857806336568abe1461023b575b600080fd5b6101a66101a136600461234b565b6103f4565b60405190151581526020015b60405180910390f35b6101ce6101c9366004612375565b61042b565b6040516101b2989796959493929190612414565b6102056101f0366004612375565b60009081526020819052604090206001015490565b6040519081526020016101b2565b610226610221366004612484565b6104fd565b005b6102056102363660046124f9565b610527565b610226610249366004612484565b610646565b61022661025c36600461254c565b6106c4565b61022661026f366004612375565b6108c2565b61022661028236600461254c565b610908565b61022661029536600461256e565b610a8a565b6102057f2fdac322ee704ce09f0773f7f3f92eb98d5e7c836ee9c056cccd5f61041e5e3f81565b6102266102cf366004612375565b610e47565b6102266102e236600461254c565b610fc0565b6101a66102f5366004612484565b6111a4565b610205600081565b6102056103103660046124f9565b6111cd565b6102266103233660046125d6565b6112db565b61022661033636600461256e565b611352565b61034e61034936600461254c565b6115bc565b6040516101b29190612612565b61020560015481565b610377610372366004612375565b61170d565b6040516101b29190612664565b61039761039236600461254c565b6118bc565b6040516101b29594939291906126dc565b6102266103b6366004612484565b61198b565b6102266103c9366004612375565b6119b0565b6102056103dc366004612721565b611b95565b6102266103ef366004612375565b611c4d565b60006001600160e01b03198216637965db0b60e01b148061042557506301ffc9a760e01b6001600160e01b03198316145b92915050565b60036020819052600091825260409091208054600182015460028301549383015460048401805460ff90941695929492939192916104689061276d565b80601f01602080910402602001604051908101604052809291908181526020018280546104949061276d565b80156104e15780601f106104b6576101008083540402835291602001916104e1565b820191906000526020600020905b8154815290600101906020018083116104c457829003601f168201915b5050505050908060050154908060060154908060070154905088565b60008281526020819052604090206001015461051881611dd8565b6105228383611de5565b505050565b600080851161058d5760405162461bcd60e51b815260206004820152602760248201527f456d706c6f7965722030206973206e6f7420612076616c69642054616c656e7460448201526613185e595c925960ca1b60648201526084015b60405180910390fd5b600082116105ad5760405162461bcd60e51b8152600401610584906127a8565b60025460405162438b6360e81b81523360048201526000916001600160a01b03169063438b63009060240160206040518083038186803b1580156105f057600080fd5b505afa158015610604573d6000803e3d6000fd5b505050506040513d601f19601f8201168201806040525081019061062891906127f7565b905061063a6000828884898989611e69565b9150505b949350505050565b6001600160a01b03811633146106b65760405162461bcd60e51b815260206004820152602f60248201527f416363657373436f6e74726f6c3a2063616e206f6e6c792072656e6f756e636560448201526e103937b632b9903337b91039b2b63360891b6064820152608401610584565b6106c08282611fd2565b5050565b60025460405162438b6360e81b81523360048201526000916001600160a01b03169063438b63009060240160206040518083038186803b15801561070757600080fd5b505afa15801561071b573d6000803e3d6000fd5b505050506040513d601f19601f8201168201806040525081019061073f91906127f7565b9050600081116107615760405162461bcd60e51b815260040161058490612810565b6000838152600360209081526040808320600483528184208685529092529091206001815460ff16600281111561079a5761079a61238e565b14156107b85760405162461bcd60e51b815260040161058490612847565b6002815460ff1660028111156107d0576107d061238e565b14156108295760405162461bcd60e51b815260206004820152602260248201527f50726f706f73616c2068617320616c7265616479206265656e2072656a656374604482015261195960f21b6064820152608401610584565b816001015483146108765760405162461bcd60e51b81526020600482015260176024820152762cb7ba93b932903737ba103a34329032b6b83637bcb2b960491b6044820152606401610584565b805460ff1916600217815560408051868152602081018690527ffa74c17c82b1d1960368a621d45c9afe55e65c87a2c9fe612ac7e36c382b3f7891015b60405180910390a15050505050565b7f2fdac322ee704ce09f0773f7f3f92eb98d5e7c836ee9c056cccd5f61041e5e3f6108ec81611dd8565b506000908152600360205260409020805460ff19166002179055565b60025460405162438b6360e81b81523360048201526000916001600160a01b03169063438b63009060240160206040518083038186803b15801561094b57600080fd5b505afa15801561095f573d6000803e3d6000fd5b505050506040513d601f19601f8201168201806040525081019061098391906127f7565b9050600081116109a55760405162461bcd60e51b815260040161058490612810565b6000838152600360209081526040808320600483528184208685529092529091206001815460ff1660028111156109de576109de61238e565b14156109fc5760405162461bcd60e51b815260040161058490612847565b81600101548314610a495760405162461bcd60e51b81526020600482015260176024820152762cb7ba93b932903737ba103a34329032b6b83637bcb2b960491b6044820152606401610584565b805460ff1916600117815560408051868152602081018690527f03a3b4a747d115189175e375b6c6ccd9dcdacdf7b4369aa5d8c3b8afda8ca29591016108b3565b60025460405162438b6360e81b81523360048201526000916001600160a01b03169063438b63009060240160206040518083038186803b158015610acd57600080fd5b505afa158015610ae1573d6000803e3d6000fd5b505050506040513d601f19601f82011682018060405250810190610b0591906127f7565b905060008111610b275760405162461bcd60e51b815260040161058490612810565b60008681526003602052604090206004815460ff166004811115610b4d57610b4d61238e565b14610b8e5760405162461bcd60e51b8152602060048201526011602482015270129bd8881a5cc81b9bdd081bdc195b9959607a1b6044820152606401610584565b6000878152600460209081526040808320858452909152902060010154821415610c0e5760405162461bcd60e51b815260206004820152602b60248201527f596f7520616c7265616479206372656174656420612070726f706f73616c206660448201526a37b9103a3434b9903537b160a91b6064820152608401610584565b6028816005015410610c625760405162461bcd60e51b815260206004820152601b60248201527f4d61782070726f706f73616c7320636f756e74207265616368656400000000006044820152606401610584565b8181600101541415610ccc5760405162461bcd60e51b815260206004820152602d60248201527f596f7520636f756c646e2774206372656174652070726f706f73616c20666f7260448201526c103cb7bab91037bbb7103537b160991b6064820152608401610584565b82610ce95760405162461bcd60e51b81526004016105849061288a565b600581018054906000610cfb836128d7565b90915550506040805160a081019091528060008152602001838152602001876001600160a01b0316815260200186815260200185858080601f016020809104026020016040519081016040528093929190818152602001838380828437600092018290525093909452505089815260046020908152604080832087845290915290208251815491925090829060ff19166001836002811115610d9f57610d9f61238e565b0217905550602082810151600183015560408301516002830180546001600160a01b0319166001600160a01b039092169190911790556060830151600383015560808301518051610df6926004850192019061223e565b509050507fd56b812321b2869d7d3fe7c8f52e85169e580ffc706d0c33ba13145fe39cd53c8783868660008b8b604051610e36979695949392919061291b565b60405180910390a150505050505050565b600081815260036020526040808220600254915162438b6360e81b81523360048201529092916001600160a01b03169063438b63009060240160206040518083038186803b158015610e9857600080fd5b505afa158015610eac573d6000803e3d6000fd5b505050506040513d601f19601f82011682018060405250810190610ed091906127f7565b90508160010154811480610ee75750816002015481145b610f035760405162461bcd60e51b815260040161058490612968565b6001825460ff166004811115610f1b57610f1b61238e565b14610f685760405162461bcd60e51b815260206004820152601960248201527f596f752063616e27742066696e6973682074686973206a6f62000000000000006044820152606401610584565b815460ff1916600290811783556001830154908301546040517fe009ce575781eace93e19229c24df29249a154b9378e9634dc33bc0705bbf1aa92610fb3928792600488019061299f565b60405180910390a1505050565b600082815260036020526040808220600254915162438b6360e81b81523360048201529092916001600160a01b03169063438b63009060240160206040518083038186803b15801561101157600080fd5b505afa158015611025573d6000803e3d6000fd5b505050506040513d601f19601f8201168201806040525081019061104991906127f7565b90506004825460ff1660048111156110635761106361238e565b148061108457506003825460ff1660048111156110825761108261238e565b145b6110d05760405162461bcd60e51b815260206004820181905260248201527f4a6f622068617320746f206265204f70656e6564206f722052656a65637465646044820152606401610584565b8160010154811461112e5760405162461bcd60e51b815260206004820152602260248201527f596f75277265206e6f7420616e20656d706c6f796572206f662074686973206a60448201526137b160f11b6064820152608401610584565b81600101548314156111525760405162461bcd60e51b815260040161058490612a5e565b60028201839055815460ff191682556040517f3958bdfbdda85fb560c9abe900b9559db4820056516f71e5138ecc46d6daa1d9906111969086908690600090612aa5565b60405180910390a150505050565b6000918252602082815260408084206001600160a01b0393909316845291905290205460ff1690565b600080851161122e5760405162461bcd60e51b815260206004820152602760248201527f456d706c6f7965652030206973206e6f7420612076616c69642054616c656e7460448201526613185e595c925960ca1b6064820152608401610584565b6000821161124e5760405162461bcd60e51b8152600401610584906127a8565b60025460405162438b6360e81b81523360048201526000916001600160a01b03169063438b63009060240160206040518083038186803b15801561129157600080fd5b505afa1580156112a5573d6000803e3d6000fd5b505050506040513d601f19601f820116820180604052508101906112c991906127f7565b905061063a6000828389898989611e69565b7f2fdac322ee704ce09f0773f7f3f92eb98d5e7c836ee9c056cccd5f61041e5e3f61130581611dd8565b50600092835260036020908152604080852060048352818620948652939091529092208154600160ff19918216811784558083015460028501556006909301939093558054909216179055565b60025460405162438b6360e81b81523360048201526000916001600160a01b03169063438b63009060240160206040518083038186803b15801561139557600080fd5b505afa1580156113a9573d6000803e3d6000fd5b505050506040513d601f19601f820116820180604052508101906113cd91906127f7565b9050600081116113ef5760405162461bcd60e51b815260040161058490612810565b60008681526003602090815260408083206004808452828520868652909352922090825460ff1660048111156114275761142761238e565b146114685760405162461bcd60e51b8152602060048201526011602482015270129bd8881a5cc81b9bdd081bdc195b9959607a1b6044820152606401610584565b828160010154146114bb5760405162461bcd60e51b815260206004820152601f60248201527f546869732070726f706f73616c20646f65736e277420657869737420796574006044820152606401610584565b836114d85760405162461bcd60e51b81526004016105849061288a565b6001815460ff1660028111156114f0576114f061238e565b141561153e5760405162461bcd60e51b815260206004820181905260248201527f546869732070726f706f73616c20697320616c726561647920757064617465646044820152606401610584565b6002810180546001600160a01b0319166001600160a01b038916179055600381018690556115706004820186866122c2565b507f5cf385c7cf3e1609443b09191511540e030254887cccb510dfface4c041b6c55888487878b8b6040516115aa96959493929190612ac0565b60405180910390a15050505050505050565b6115f86040805160a0810190915280600081526020016000815260200160006001600160a01b0316815260200160008152602001606081525090565b600083815260046020908152604080832085845290915290819020815160a081019092528054829060ff1660028111156116345761163461238e565b60028111156116455761164561238e565b81526001820154602082015260028201546001600160a01b03166040820152600382015460608201526004820180546080909201916116839061276d565b80601f01602080910402602001604051908101604052809291908181526020018280546116af9061276d565b80156116fc5780601f106116d1576101008083540402835291602001916116fc565b820191906000526020600020905b8154815290600101906020018083116116df57829003601f168201915b505050505081525050905092915050565b6117566040805161010081019091528060008152602001600081526020016000815260200160008152602001606081526020016000815260200160008152602001600081525090565b60015482106117a05760405162461bcd60e51b8152602060048201526016602482015275151a1a5cc81a9bd888191bd95cdb89dd08195e1a5cdd60521b6044820152606401610584565b60008281526003602052604090819020815161010081019092528054829060ff1660048111156117d2576117d261238e565b60048111156117e3576117e361238e565b81526020016001820154815260200160028201548152602001600382015481526020016004820180546118159061276d565b80601f01602080910402602001604051908101604052809291908181526020018280546118419061276d565b801561188e5780601f106118635761010080835404028352916020019161188e565b820191906000526020600020905b81548152906001019060200180831161187157829003601f168201915b5050505050815260200160058201548152602001600682015481526020016007820154815250509050919050565b600460208181526000938452604080852090915291835291208054600182015460028301546003840154948401805460ff9094169592946001600160a01b03909216936119089061276d565b80601f01602080910402602001604051908101604052809291908181526020018280546119349061276d565b80156119815780601f1061195657610100808354040283529160200191611981565b820191906000526020600020905b81548152906001019060200180831161196457829003601f168201915b5050505050905085565b6000828152602081905260409020600101546119a681611dd8565b6105228383611fd2565b600081815260036020526040808220600254915162438b6360e81b81523360048201529092916001600160a01b03169063438b63009060240160206040518083038186803b158015611a0157600080fd5b505afa158015611a15573d6000803e3d6000fd5b505050506040513d601f19601f82011682018060405250810190611a3991906127f7565b90506000825460ff166004811115611a5357611a5361238e565b14611aa05760405162461bcd60e51b815260206004820152601e60248201527f4a6f622068617320616c7265616479206265656e20636f6e6669726d656400006044820152606401610584565b8160010154811480611ab55750816002015481145b611ad15760405162461bcd60e51b815260040161058490612968565b8160030154811415611b4b5760405162461bcd60e51b815260206004820152603760248201527f4f6e6c792074686520757365722077686f206469646e277420696e697461746560448201527f20746865206a6f622063616e20636f6e6669726d2069740000000000000000006064820152608401610584565b815460ff19166001908117835582015460028301546040517f826ead164514680a543cb4b14668631815ccc71fdfe100b7654738046bd4ed4292610fb3928792600488019061299f565b6000808211611bb65760405162461bcd60e51b8152600401610584906127a8565b60025460405162438b6360e81b81523360048201526000916001600160a01b03169063438b63009060240160206040518083038186803b158015611bf957600080fd5b505afa158015611c0d573d6000803e3d6000fd5b505050506040513d601f19601f82011682018060405250810190611c3191906127f7565b9050611c44600482836000898989611e69565b95945050505050565b600081815260036020526040808220600254915162438b6360e81b81523360048201529092916001600160a01b03169063438b63009060240160206040518083038186803b158015611c9e57600080fd5b505afa158015611cb2573d6000803e3d6000fd5b505050506040513d601f19601f82011682018060405250810190611cd691906127f7565b90508160010154811480611ced5750816002015481145b611d095760405162461bcd60e51b815260040161058490612968565b6000825460ff166004811115611d2157611d2161238e565b1480611d4257506004825460ff166004811115611d4057611d4061238e565b145b611d8e5760405162461bcd60e51b815260206004820152601960248201527f596f752063616e27742072656a6563742074686973206a6f62000000000000006044820152606401610584565b815460ff19166003178255600182015460028301546040517fa3fbf1a3adaa9390e668c5eed55b7dca25952ec70b00d58f1d87ee8f3a569f6692610fb3928792600488019061299f565b611de28133612037565b50565b611def82826111a4565b6106c0576000828152602081815260408083206001600160a01b03851684529091529020805460ff19166001179055611e253390565b6001600160a01b0316816001600160a01b0316837f2f8788117e7eff1d82e926ec794901d17c78024a50270940304540a733656f0d60405160405180910390a45050565b600085851415611e8b5760405162461bcd60e51b815260040161058490612a5e565b60008711611eab5760405162461bcd60e51b815260040161058490612810565b82611ec85760405162461bcd60e51b81526004016105849061288a565b600180549081906000611eda836128d7565b9091555050600081815260036020526040902080548a90829060ff19166001836004811115611f0b57611f0b61238e565b0217905550600181018890556002810187905560038101899055611f336004820187876122c2565b506007810184905560408051838152602081018a9052908101889052606081018a9052608081018590527fc4e149649e69e1e2fb0b7619ee26f5449defd24733ceba7725e2011fd53c0e719060a00160405180910390a17fd78d91dec33a6aba56deda509d78343d5450edc9cd69d0164756b7b47c8bdd4b828787604051611fbd93929190612afe565b60405180910390a15098975050505050505050565b611fdc82826111a4565b156106c0576000828152602081815260408083206001600160a01b0385168085529252808320805460ff1916905551339285917ff6391f5c32d9c69d2a47ea670b442974b53935d1edc7fd64eb21e047a839171b9190a45050565b61204182826111a4565b6106c057612059816001600160a01b0316601461209b565b61206483602061209b565b604051602001612075929190612b18565b60408051601f198184030181529082905262461bcd60e51b825261058491600401612b8d565b606060006120aa836002612ba0565b6120b5906002612bbf565b67ffffffffffffffff8111156120cd576120cd612bd7565b6040519080825280601f01601f1916602001820160405280156120f7576020820181803683370190505b509050600360fc1b8160008151811061211257612112612bed565b60200101906001600160f81b031916908160001a905350600f60fb1b8160018151811061214157612141612bed565b60200101906001600160f81b031916908160001a9053506000612165846002612ba0565b612170906001612bbf565b90505b60018111156121e8576f181899199a1a9b1b9c1cb0b131b232b360811b85600f16601081106121a4576121a4612bed565b1a60f81b8282815181106121ba576121ba612bed565b60200101906001600160f81b031916908160001a90535060049490941c936121e181612c03565b9050612173565b5083156122375760405162461bcd60e51b815260206004820181905260248201527f537472696e67733a20686578206c656e67746820696e73756666696369656e746044820152606401610584565b9392505050565b82805461224a9061276d565b90600052602060002090601f01602090048101928261226c57600085556122b2565b82601f1061228557805160ff19168380011785556122b2565b828001600101855582156122b2579182015b828111156122b2578251825591602001919060010190612297565b506122be929150612336565b5090565b8280546122ce9061276d565b90600052602060002090601f0160209004810192826122f057600085556122b2565b82601f106123095782800160ff198235161785556122b2565b828001600101855582156122b2579182015b828111156122b257823582559160200191906001019061231b565b5b808211156122be5760008155600101612337565b60006020828403121561235d57600080fd5b81356001600160e01b03198116811461223757600080fd5b60006020828403121561238757600080fd5b5035919050565b634e487b7160e01b600052602160045260246000fd5b600581106123b4576123b461238e565b9052565b60005b838110156123d35781810151838201526020016123bb565b838111156123e2576000848401525b50505050565b600081518084526124008160208601602086016123b8565b601f01601f19169290920160200192915050565b6000610100612423838c6123a4565b896020840152886040840152876060840152806080840152612447818401886123e8565b60a0840196909652505060c081019290925260e09091015295945050505050565b80356001600160a01b038116811461247f57600080fd5b919050565b6000806040838503121561249757600080fd5b823591506124a760208401612468565b90509250929050565b60008083601f8401126124c257600080fd5b50813567ffffffffffffffff8111156124da57600080fd5b6020830191508360208285010111156124f257600080fd5b9250929050565b6000806000806060858703121561250f57600080fd5b84359350602085013567ffffffffffffffff81111561252d57600080fd5b612539878288016124b0565b9598909750949560400135949350505050565b6000806040838503121561255f57600080fd5b50508035926020909101359150565b60008060008060006080868803121561258657600080fd5b8535945061259660208701612468565b935060408601359250606086013567ffffffffffffffff8111156125b957600080fd5b6125c5888289016124b0565b969995985093965092949392505050565b6000806000606084860312156125eb57600080fd5b505081359360208301359350604090920135919050565b600381106123b4576123b461238e565b60208152612624602082018351612602565b6020820151604082015260018060a01b036040830151166060820152606082015160808201526000608083015160a08084015261063e60c08401826123e8565b602081526126766020820183516123a4565b602082015160408201526040820151606082015260608201516080820152600060808301516101008060a08501526126b26101208501836123e8565b915060a085015160c085015260c085015160e085015260e085015181850152508091505092915050565b6126e68187612602565b84602082015260018060a01b038416604082015282606082015260a06080820152600061271660a08301846123e8565b979650505050505050565b60008060006040848603121561273657600080fd5b833567ffffffffffffffff81111561274d57600080fd5b612759868287016124b0565b909790965060209590950135949350505050565b600181811c9082168061278157607f821691505b602082108114156127a257634e487b7160e01b600052602260045260246000fd5b50919050565b6020808252602f908201527f506c6174666f726d2030206973206e6f7420612076616c69642054616c656e7460408201526e13185e595c941b185d199bdc9b5259608a1b606082015260800190565b60006020828403121561280957600080fd5b5051919050565b6020808252601e908201527f596f7520736f756c64206861766520612054616c656e744c6179657249640000604082015260600190565b60208082526023908201527f50726f706f73616c2068617320616c7265616479206265656e2076616c6964616040820152621d195960ea1b606082015260800190565b6020808252601f908201527f53686f756c642070726f7669646520612076616c696420495046532055524900604082015260600190565b634e487b7160e01b600052601160045260246000fd5b60006000198214156128eb576128eb6128c1565b5060010190565b81835281816020850137506000828201602090810191909152601f909101601f19169091010190565b87815286602082015260c06040820152600061293b60c0830187896128f2565b905061294a6060830186612602565b6001600160a01b0393909316608082015260a0015295945050505050565b6020808252601f908201527f596f75277265206e6f7420616e206163746f72206f662074686973206a6f6200604082015260600190565b848152600060208581840152846040840152608060608401526000845481600182811c9150808316806129d357607f831692505b8583108114156129f157634e487b7160e01b85526022600452602485fd5b6080880183905260a08801818015612a105760018114612a2157612a4c565b60ff19861682528782019650612a4c565b60008b81526020902060005b86811015612a4657815484820152908501908901612a2d565b83019750505b50949c9b505050505050505050505050565b60208082526027908201527f456d706c6f79656520616e6420656d706c6f7965722063616e2774206265207460408201526668652073616d6560c81b606082015260800190565b838152602081018390526060810161063e60408301846123a4565b86815285602082015260a060408201526000612ae060a0830186886128f2565b6001600160a01b039490941660608301525060800152949350505050565b838152604060208201526000611c446040830184866128f2565b7f416363657373436f6e74726f6c3a206163636f756e7420000000000000000000815260008351612b508160178501602088016123b8565b7001034b99036b4b9b9b4b733903937b6329607d1b6017918401918201528351612b818160288401602088016123b8565b01602801949350505050565b60208152600061223760208301846123e8565b6000816000190483118215151615612bba57612bba6128c1565b500290565b60008219821115612bd257612bd26128c1565b500190565b634e487b7160e01b600052604160045260246000fd5b634e487b7160e01b600052603260045260246000fd5b600081612c1257612c126128c1565b50600019019056fea2646970667358221220f066c42b3bf19779719fefad22485461a10c2347854e823297428e08e8c074f764736f6c63430008090033",
  "linkReferences": {},
  "deployedLinkReferences": {}
}