{
  "_format": "hh-sol-artifact-1",
  "contractName": "JobRegistry",
  "sourceName": "contracts/JobRegistry.sol",
  "abi": [
    {
      "inputs": [
        {
          "internalType": "address",
          "name": "_talentLayerIdAddress",
          "type": "address"
        }
      ],
      "stateMutability": "nonpayable",
      "type": "constructor"
    },
    {
      "anonymous": false,
      "inputs": [
        {
          "indexed": false,
          "internalType": "uint256",
          "name": "id",
          "type": "uint256"
        },
        {
          "indexed": false,
          "internalType": "uint256",
          "name": "employerId",
          "type": "uint256"
        },
        {
          "indexed": false,
          "internalType": "uint256",
          "name": "employeeId",
          "type": "uint256"
        },
        {
          "indexed": false,
          "internalType": "string",
          "name": "jobDataUri",
          "type": "string"
        }
      ],
      "name": "JobConfirmed",
      "type": "event"
    },
    {
      "anonymous": false,
      "inputs": [
        {
          "indexed": false,
          "internalType": "uint256",
          "name": "id",
          "type": "uint256"
        },
        {
          "indexed": false,
          "internalType": "uint256",
          "name": "employerId",
          "type": "uint256"
        },
        {
          "indexed": false,
          "internalType": "uint256",
          "name": "employeeId",
          "type": "uint256"
        },
        {
          "indexed": false,
          "internalType": "uint256",
          "name": "initiatorId",
          "type": "uint256"
        },
        {
          "indexed": false,
          "internalType": "string",
          "name": "jobDataUri",
          "type": "string"
        },
        {
          "indexed": false,
          "internalType": "enum JobRegistry.Status",
          "name": "status",
          "type": "uint8"
        }
      ],
      "name": "JobCreated",
      "type": "event"
    },
    {
      "anonymous": false,
      "inputs": [
        {
          "indexed": false,
          "internalType": "uint256",
          "name": "id",
          "type": "uint256"
        },
        {
          "indexed": false,
          "internalType": "uint256",
          "name": "employeeId",
          "type": "uint256"
        },
        {
          "indexed": false,
          "internalType": "enum JobRegistry.Status",
          "name": "status",
          "type": "uint8"
        }
      ],
      "name": "JobEmployeeAssigned",
      "type": "event"
    },
    {
      "anonymous": false,
      "inputs": [
        {
          "indexed": false,
          "internalType": "uint256",
          "name": "id",
          "type": "uint256"
        },
        {
          "indexed": false,
          "internalType": "uint256",
          "name": "employerId",
          "type": "uint256"
        },
        {
          "indexed": false,
          "internalType": "uint256",
          "name": "employeeId",
          "type": "uint256"
        },
        {
          "indexed": false,
          "internalType": "string",
          "name": "jobDataUri",
          "type": "string"
        }
      ],
      "name": "JobFinished",
      "type": "event"
    },
    {
      "anonymous": false,
      "inputs": [
        {
          "indexed": false,
          "internalType": "uint256",
          "name": "id",
          "type": "uint256"
        },
        {
          "indexed": false,
          "internalType": "uint256",
          "name": "employerId",
          "type": "uint256"
        },
        {
          "indexed": false,
          "internalType": "uint256",
          "name": "employeeId",
          "type": "uint256"
        },
        {
          "indexed": false,
          "internalType": "string",
          "name": "jobDataUri",
          "type": "string"
        }
      ],
      "name": "JobRejected",
      "type": "event"
    },
    {
      "anonymous": false,
      "inputs": [
        {
          "indexed": false,
          "internalType": "uint256",
          "name": "jobId",
          "type": "uint256"
        },
        {
          "indexed": false,
          "internalType": "uint256",
          "name": "employeeId",
          "type": "uint256"
        },
        {
          "indexed": false,
          "internalType": "string",
          "name": "proposalDataUri",
          "type": "string"
        },
        {
          "indexed": false,
          "internalType": "enum JobRegistry.ProposalStatus",
          "name": "status",
          "type": "uint8"
        },
        {
          "indexed": false,
          "internalType": "address",
          "name": "rateToken",
          "type": "address"
        },
        {
          "indexed": false,
          "internalType": "uint256",
          "name": "rateAmount",
          "type": "uint256"
        }
      ],
      "name": "ProposalCreated",
      "type": "event"
    },
    {
      "anonymous": false,
      "inputs": [
        {
          "indexed": false,
          "internalType": "uint256",
          "name": "jobId",
          "type": "uint256"
        },
        {
          "indexed": false,
          "internalType": "uint256",
          "name": "employeeId",
          "type": "uint256"
        }
      ],
      "name": "ProposalRejected",
      "type": "event"
    },
    {
      "anonymous": false,
      "inputs": [
        {
          "indexed": false,
          "internalType": "uint256",
          "name": "jobId",
          "type": "uint256"
        },
        {
          "indexed": false,
          "internalType": "uint256",
          "name": "employeeId",
          "type": "uint256"
        },
        {
          "indexed": false,
          "internalType": "string",
          "name": "proposalDataUri",
          "type": "string"
        },
        {
          "indexed": false,
          "internalType": "address",
          "name": "rateToken",
          "type": "address"
        },
        {
          "indexed": false,
          "internalType": "uint256",
          "name": "rateAmount",
          "type": "uint256"
        }
      ],
      "name": "ProposalUpdated",
      "type": "event"
    },
    {
      "anonymous": false,
      "inputs": [
        {
          "indexed": false,
          "internalType": "uint256",
          "name": "jobId",
          "type": "uint256"
        },
        {
          "indexed": false,
          "internalType": "uint256",
          "name": "employeeId",
          "type": "uint256"
        }
      ],
      "name": "ProposalValidated",
      "type": "event"
    },
    {
      "anonymous": false,
      "inputs": [
        {
          "indexed": true,
          "internalType": "bytes32",
          "name": "role",
          "type": "bytes32"
        },
        {
          "indexed": true,
          "internalType": "bytes32",
          "name": "previousAdminRole",
          "type": "bytes32"
        },
        {
          "indexed": true,
          "internalType": "bytes32",
          "name": "newAdminRole",
          "type": "bytes32"
        }
      ],
      "name": "RoleAdminChanged",
      "type": "event"
    },
    {
      "anonymous": false,
      "inputs": [
        {
          "indexed": true,
          "internalType": "bytes32",
          "name": "role",
          "type": "bytes32"
        },
        {
          "indexed": true,
          "internalType": "address",
          "name": "account",
          "type": "address"
        },
        {
          "indexed": true,
          "internalType": "address",
          "name": "sender",
          "type": "address"
        }
      ],
      "name": "RoleGranted",
      "type": "event"
    },
    {
      "anonymous": false,
      "inputs": [
        {
          "indexed": true,
          "internalType": "bytes32",
          "name": "role",
          "type": "bytes32"
        },
        {
          "indexed": true,
          "internalType": "address",
          "name": "account",
          "type": "address"
        },
        {
          "indexed": true,
          "internalType": "address",
          "name": "sender",
          "type": "address"
        }
      ],
      "name": "RoleRevoked",
      "type": "event"
    },
    {
      "inputs": [],
      "name": "DEFAULT_ADMIN_ROLE",
      "outputs": [
        {
          "internalType": "bytes32",
          "name": "",
          "type": "bytes32"
        }
      ],
      "stateMutability": "view",
      "type": "function"
    },
    {
      "inputs": [],
      "name": "ESCROW_ROLE",
      "outputs": [
        {
          "internalType": "bytes32",
          "name": "",
          "type": "bytes32"
        }
      ],
      "stateMutability": "view",
      "type": "function"
    },
    {
      "inputs": [
        {
          "internalType": "uint256",
          "name": "_jobId",
          "type": "uint256"
        },
        {
          "internalType": "uint256",
          "name": "_proposalId",
          "type": "uint256"
        },
        {
          "internalType": "uint256",
          "name": "_transactionId",
          "type": "uint256"
        }
      ],
      "name": "afterDeposit",
      "outputs": [],
      "stateMutability": "nonpayable",
      "type": "function"
    },
    {
      "inputs": [
        {
          "internalType": "uint256",
          "name": "_jobId",
          "type": "uint256"
        }
      ],
      "name": "afterFullPayDone",
      "outputs": [],
      "stateMutability": "nonpayable",
      "type": "function"
    },
    {
      "inputs": [
        {
          "internalType": "uint256",
          "name": "_jobId",
          "type": "uint256"
        },
        {
          "internalType": "uint256",
          "name": "_employeeId",
          "type": "uint256"
        }
      ],
      "name": "assignEmployeeToJob",
      "outputs": [],
      "stateMutability": "nonpayable",
      "type": "function"
    },
    {
      "inputs": [
        {
          "internalType": "uint256",
          "name": "_jobId",
          "type": "uint256"
        }
      ],
      "name": "confirmJob",
      "outputs": [],
      "stateMutability": "nonpayable",
      "type": "function"
    },
    {
      "inputs": [
        {
          "internalType": "uint256",
          "name": "_employerId",
          "type": "uint256"
        },
        {
          "internalType": "string",
          "name": "_jobDataUri",
          "type": "string"
        }
      ],
      "name": "createJobFromEmployee",
      "outputs": [
        {
          "internalType": "uint256",
          "name": "",
          "type": "uint256"
        }
      ],
      "stateMutability": "nonpayable",
      "type": "function"
    },
    {
      "inputs": [
        {
          "internalType": "uint256",
          "name": "_employeeId",
          "type": "uint256"
        },
        {
          "internalType": "string",
          "name": "_jobDataUri",
          "type": "string"
        }
      ],
      "name": "createJobFromEmployer",
      "outputs": [
        {
          "internalType": "uint256",
          "name": "",
          "type": "uint256"
        }
      ],
      "stateMutability": "nonpayable",
      "type": "function"
    },
    {
      "inputs": [
        {
          "internalType": "string",
          "name": "_jobDataUri",
          "type": "string"
        }
      ],
      "name": "createOpenJobFromEmployer",
      "outputs": [
        {
          "internalType": "uint256",
          "name": "",
          "type": "uint256"
        }
      ],
      "stateMutability": "nonpayable",
      "type": "function"
    },
    {
      "inputs": [
        {
          "internalType": "uint256",
          "name": "_jobId",
          "type": "uint256"
        },
        {
          "internalType": "address",
          "name": "_rateToken",
          "type": "address"
        },
        {
          "internalType": "uint256",
          "name": "_rateAmount",
          "type": "uint256"
        },
        {
          "internalType": "string",
          "name": "_proposalDataUri",
          "type": "string"
        }
      ],
      "name": "createProposal",
      "outputs": [],
      "stateMutability": "nonpayable",
      "type": "function"
    },
    {
      "inputs": [
        {
          "internalType": "uint256",
          "name": "_jobId",
          "type": "uint256"
        }
      ],
      "name": "finishJob",
      "outputs": [],
      "stateMutability": "nonpayable",
      "type": "function"
    },
    {
      "inputs": [
        {
          "internalType": "uint256",
          "name": "_jobId",
          "type": "uint256"
        }
      ],
      "name": "getJob",
      "outputs": [
        {
          "components": [
            {
              "internalType": "enum JobRegistry.Status",
              "name": "status",
              "type": "uint8"
            },
            {
              "internalType": "uint256",
              "name": "employerId",
              "type": "uint256"
            },
            {
              "internalType": "uint256",
              "name": "employeeId",
              "type": "uint256"
            },
            {
              "internalType": "uint256",
              "name": "initiatorId",
              "type": "uint256"
            },
            {
              "internalType": "string",
              "name": "jobDataUri",
              "type": "string"
            },
            {
              "internalType": "uint256",
              "name": "countProposals",
              "type": "uint256"
            },
            {
              "internalType": "uint256",
              "name": "transactionId",
              "type": "uint256"
            }
          ],
          "internalType": "struct JobRegistry.Job",
          "name": "",
          "type": "tuple"
        }
      ],
      "stateMutability": "view",
      "type": "function"
    },
    {
      "inputs": [
        {
          "internalType": "uint256",
          "name": "_jobId",
          "type": "uint256"
        },
        {
          "internalType": "uint256",
          "name": "_proposalId",
          "type": "uint256"
        }
      ],
      "name": "getProposal",
      "outputs": [
        {
          "components": [
            {
              "internalType": "enum JobRegistry.ProposalStatus",
              "name": "status",
              "type": "uint8"
            },
            {
              "internalType": "uint256",
              "name": "employeeId",
              "type": "uint256"
            },
            {
              "internalType": "address",
              "name": "rateToken",
              "type": "address"
            },
            {
              "internalType": "uint256",
              "name": "rateAmount",
              "type": "uint256"
            },
            {
              "internalType": "string",
              "name": "proposalDataUri",
              "type": "string"
            }
          ],
          "internalType": "struct JobRegistry.Proposal",
          "name": "",
          "type": "tuple"
        }
      ],
      "stateMutability": "view",
      "type": "function"
    },
    {
      "inputs": [
        {
          "internalType": "bytes32",
          "name": "role",
          "type": "bytes32"
        }
      ],
      "name": "getRoleAdmin",
      "outputs": [
        {
          "internalType": "bytes32",
          "name": "",
          "type": "bytes32"
        }
      ],
      "stateMutability": "view",
      "type": "function"
    },
    {
      "inputs": [
        {
          "internalType": "bytes32",
          "name": "role",
          "type": "bytes32"
        },
        {
          "internalType": "address",
          "name": "account",
          "type": "address"
        }
      ],
      "name": "grantRole",
      "outputs": [],
      "stateMutability": "nonpayable",
      "type": "function"
    },
    {
      "inputs": [
        {
          "internalType": "bytes32",
          "name": "role",
          "type": "bytes32"
        },
        {
          "internalType": "address",
          "name": "account",
          "type": "address"
        }
      ],
      "name": "hasRole",
      "outputs": [
        {
          "internalType": "bool",
          "name": "",
          "type": "bool"
        }
      ],
      "stateMutability": "view",
      "type": "function"
    },
    {
      "inputs": [
        {
          "internalType": "uint256",
          "name": "",
          "type": "uint256"
        }
      ],
      "name": "jobs",
      "outputs": [
        {
          "internalType": "enum JobRegistry.Status",
          "name": "status",
          "type": "uint8"
        },
        {
          "internalType": "uint256",
          "name": "employerId",
          "type": "uint256"
        },
        {
          "internalType": "uint256",
          "name": "employeeId",
          "type": "uint256"
        },
        {
          "internalType": "uint256",
          "name": "initiatorId",
          "type": "uint256"
        },
        {
          "internalType": "string",
          "name": "jobDataUri",
          "type": "string"
        },
        {
          "internalType": "uint256",
          "name": "countProposals",
          "type": "uint256"
        },
        {
          "internalType": "uint256",
          "name": "transactionId",
          "type": "uint256"
        }
      ],
      "stateMutability": "view",
      "type": "function"
    },
    {
      "inputs": [
        {
          "internalType": "uint256",
          "name": "",
          "type": "uint256"
        },
        {
          "internalType": "uint256",
          "name": "",
          "type": "uint256"
        }
      ],
      "name": "proposals",
      "outputs": [
        {
          "internalType": "enum JobRegistry.ProposalStatus",
          "name": "status",
          "type": "uint8"
        },
        {
          "internalType": "uint256",
          "name": "employeeId",
          "type": "uint256"
        },
        {
          "internalType": "address",
          "name": "rateToken",
          "type": "address"
        },
        {
          "internalType": "uint256",
          "name": "rateAmount",
          "type": "uint256"
        },
        {
          "internalType": "string",
          "name": "proposalDataUri",
          "type": "string"
        }
      ],
      "stateMutability": "view",
      "type": "function"
    },
    {
      "inputs": [
        {
          "internalType": "uint256",
          "name": "_jobId",
          "type": "uint256"
        }
      ],
      "name": "rejectJob",
      "outputs": [],
      "stateMutability": "nonpayable",
      "type": "function"
    },
    {
      "inputs": [
        {
          "internalType": "uint256",
          "name": "_jobId",
          "type": "uint256"
        },
        {
          "internalType": "uint256",
          "name": "_proposalId",
          "type": "uint256"
        }
      ],
      "name": "rejectProposal",
      "outputs": [],
      "stateMutability": "nonpayable",
      "type": "function"
    },
    {
      "inputs": [
        {
          "internalType": "bytes32",
          "name": "role",
          "type": "bytes32"
        },
        {
          "internalType": "address",
          "name": "account",
          "type": "address"
        }
      ],
      "name": "renounceRole",
      "outputs": [],
      "stateMutability": "nonpayable",
      "type": "function"
    },
    {
      "inputs": [
        {
          "internalType": "bytes32",
          "name": "role",
          "type": "bytes32"
        },
        {
          "internalType": "address",
          "name": "account",
          "type": "address"
        }
      ],
      "name": "revokeRole",
      "outputs": [],
      "stateMutability": "nonpayable",
      "type": "function"
    },
    {
      "inputs": [
        {
          "internalType": "bytes4",
          "name": "interfaceId",
          "type": "bytes4"
        }
      ],
      "name": "supportsInterface",
      "outputs": [
        {
          "internalType": "bool",
          "name": "",
          "type": "bool"
        }
      ],
      "stateMutability": "view",
      "type": "function"
    },
    {
      "inputs": [
        {
          "internalType": "uint256",
          "name": "_jobId",
          "type": "uint256"
        },
        {
          "internalType": "address",
          "name": "_rateToken",
          "type": "address"
        },
        {
          "internalType": "uint256",
          "name": "_rateAmount",
          "type": "uint256"
        },
        {
          "internalType": "string",
          "name": "_proposalDataUri",
          "type": "string"
        }
      ],
      "name": "updateProposal",
      "outputs": [],
      "stateMutability": "nonpayable",
      "type": "function"
    },
    {
      "inputs": [
        {
          "internalType": "uint256",
          "name": "_jobId",
          "type": "uint256"
        },
        {
          "internalType": "uint256",
          "name": "_proposalId",
          "type": "uint256"
        }
      ],
      "name": "validateProposal",
      "outputs": [],
      "stateMutability": "nonpayable",
      "type": "function"
    }
  ],
  "bytecode": "0x6080604052600180553480156200001557600080fd5b5060405162002b4338038062002b4383398101604081905262000038916200005e565b600280546001600160a01b0319166001600160a01b039290921691909117905562000090565b6000602082840312156200007157600080fd5b81516001600160a01b03811681146200008957600080fd5b9392505050565b612aa380620000a06000396000f3fe608060405234801561001057600080fd5b50600436106101735760003560e01c806391d14854116100de578063c2cfee2711610097578063d548008111610071578063d548008114610383578063e91a09ce14610396578063f591d4ab146103a9578063fb368060146103bc57600080fd5b8063c2cfee2714610339578063ce0728d51461035d578063d547741f1461037057600080fd5b806391d14854146102b8578063a217fddf146102cb578063a7d5eaea146102d3578063a8d9939d146102e6578063aba21009146102f9578063bf22c4571461031957600080fd5b80635bdc75b0116101305780635bdc75b0146102325780635f03f4ba146102455780636ce76f30146102585780636e3589a21461027f57806370880648146102925780638fece209146102a557600080fd5b806301ffc9a714610178578063180aedf3146101a0578063248a9ca3146101c65780632f2ff15d146101f757806336568abe1461020c578063477034da1461021f575b600080fd5b61018b6101863660046121e9565b6103cf565b60405190151581526020015b60405180910390f35b6101b36101ae366004612213565b610406565b60405161019797969594939291906122b2565b6101e96101d4366004612213565b60009081526020819052604090206001015490565b604051908152602001610197565b61020a610205366004612316565b6104d2565b005b61020a61021a366004612316565b6104fc565b61020a61022d366004612342565b61057f565b61020a610240366004612342565b61070c565b61020a6102533660046123ad565b61088e565b6101e97f2fdac322ee704ce09f0773f7f3f92eb98d5e7c836ee9c056cccd5f61041e5e3f81565b61020a61028d366004612213565b610c4b565b61020a6102a0366004612213565b610dc4565b61020a6102b3366004612342565b610e0a565b61018b6102c6366004612316565b610fee565b6101e9600081565b61020a6102e1366004612415565b611017565b61020a6102f43660046123ad565b61108e565b61030c610307366004612342565b6112f8565b6040516101979190612451565b61032c610327366004612213565b611449565b60405161019791906124a3565b61034c610347366004612342565b6115e5565b60405161019795949392919061250f565b6101e961036b366004612554565b6116b4565b61020a61037e366004612316565b6117aa565b61020a610391366004612213565b6117cf565b6101e96103a4366004612554565b6119b4565b6101e96103b73660046125a0565b611aa1565b61020a6103ca366004612213565b611b3a565b60006001600160e01b03198216637965db0b60e01b148061040057506301ffc9a760e01b6001600160e01b03198316145b92915050565b60036020819052600091825260409091208054600182015460028301549383015460048401805460ff9094169592949293919291610443906125e2565b80601f016020809104026020016040519081016040528092919081815260200182805461046f906125e2565b80156104bc5780601f10610491576101008083540402835291602001916104bc565b820191906000526020600020905b81548152906001019060200180831161049f57829003601f168201915b5050505050908060050154908060060154905087565b6000828152602081905260409020600101546104ed81611cc5565b6104f78383611cd2565b505050565b6001600160a01b03811633146105715760405162461bcd60e51b815260206004820152602f60248201527f416363657373436f6e74726f6c3a2063616e206f6e6c792072656e6f756e636560448201526e103937b632b9903337b91039b2b63360891b60648201526084015b60405180910390fd5b61057b8282611d56565b5050565b60025460405162438b6360e81b81523360048201526000916001600160a01b03169063438b63009060240160206040518083038186803b1580156105c257600080fd5b505afa1580156105d6573d6000803e3d6000fd5b505050506040513d601f19601f820116820180604052508101906105fa919061261d565b90506000811161061c5760405162461bcd60e51b815260040161056890612636565b6000838152600360209081526040808320600483528184208685529092529091206001815460ff1660028111156106555761065561222c565b14156106735760405162461bcd60e51b81526004016105689061266d565b816001015483146106c05760405162461bcd60e51b81526020600482015260176024820152762cb7ba93b932903737ba103a34329032b6b83637bcb2b960491b6044820152606401610568565b805460ff1916600217815560408051868152602081018590527ffa74c17c82b1d1960368a621d45c9afe55e65c87a2c9fe612ac7e36c382b3f7891015b60405180910390a15050505050565b60025460405162438b6360e81b81523360048201526000916001600160a01b03169063438b63009060240160206040518083038186803b15801561074f57600080fd5b505afa158015610763573d6000803e3d6000fd5b505050506040513d601f19601f82011682018060405250810190610787919061261d565b9050600081116107a95760405162461bcd60e51b815260040161056890612636565b6000838152600360209081526040808320600483528184208685529092529091206001815460ff1660028111156107e2576107e261222c565b14156108005760405162461bcd60e51b81526004016105689061266d565b8160010154831461084d5760405162461bcd60e51b81526020600482015260176024820152762cb7ba93b932903737ba103a34329032b6b83637bcb2b960491b6044820152606401610568565b805460ff1916600117815560408051868152602081018590527f03a3b4a747d115189175e375b6c6ccd9dcdacdf7b4369aa5d8c3b8afda8ca29591016106fd565b60025460405162438b6360e81b81523360048201526000916001600160a01b03169063438b63009060240160206040518083038186803b1580156108d157600080fd5b505afa1580156108e5573d6000803e3d6000fd5b505050506040513d601f19601f82011682018060405250810190610909919061261d565b90506000811161092b5760405162461bcd60e51b815260040161056890612636565b60008681526003602052604090206004815460ff1660048111156109515761095161222c565b146109925760405162461bcd60e51b8152602060048201526011602482015270129bd8881a5cc81b9bdd081bdc195b9959607a1b6044820152606401610568565b6000878152600460209081526040808320858452909152902060010154821415610a125760405162461bcd60e51b815260206004820152602b60248201527f596f7520616c7265616479206372656174656420612070726f706f73616c206660448201526a37b9103a3434b9903537b160a91b6064820152608401610568565b6028816005015410610a665760405162461bcd60e51b815260206004820152601b60248201527f4d61782070726f706f73616c7320636f756e74207265616368656400000000006044820152606401610568565b8181600101541415610ad05760405162461bcd60e51b815260206004820152602d60248201527f596f7520636f756c646e2774206372656174652070726f706f73616c20666f7260448201526c103cb7bab91037bbb7103537b160991b6064820152608401610568565b82610aed5760405162461bcd60e51b8152600401610568906126b0565b600581018054906000610aff836126fd565b90915550506040805160a081019091528060008152602001838152602001876001600160a01b0316815260200186815260200185858080601f016020809104026020016040519081016040528093929190818152602001838380828437600092018290525093909452505089815260046020908152604080832087845290915290208251815491925090829060ff19166001836002811115610ba357610ba361222c565b0217905550602082810151600183015560408301516002830180546001600160a01b0319166001600160a01b039092169190911790556060830151600383015560808301518051610bfa92600485019201906120dc565b509050507fd56b812321b2869d7d3fe7c8f52e85169e580ffc706d0c33ba13145fe39cd53c8783868660008b8b604051610c3a9796959493929190612741565b60405180910390a150505050505050565b600081815260036020526040808220600254915162438b6360e81b81523360048201529092916001600160a01b03169063438b63009060240160206040518083038186803b158015610c9c57600080fd5b505afa158015610cb0573d6000803e3d6000fd5b505050506040513d601f19601f82011682018060405250810190610cd4919061261d565b90508160010154811480610ceb5750816002015481145b610d075760405162461bcd60e51b81526004016105689061278e565b6001825460ff166004811115610d1f57610d1f61222c565b14610d6c5760405162461bcd60e51b815260206004820152601960248201527f596f752063616e27742066696e6973682074686973206a6f62000000000000006044820152606401610568565b815460ff1916600290811783556001830154908301546040517fe009ce575781eace93e19229c24df29249a154b9378e9634dc33bc0705bbf1aa92610db792879260048801906127c5565b60405180910390a1505050565b7f2fdac322ee704ce09f0773f7f3f92eb98d5e7c836ee9c056cccd5f61041e5e3f610dee81611cc5565b506000908152600360205260409020805460ff19166002179055565b600082815260036020526040808220600254915162438b6360e81b81523360048201529092916001600160a01b03169063438b63009060240160206040518083038186803b158015610e5b57600080fd5b505afa158015610e6f573d6000803e3d6000fd5b505050506040513d601f19601f82011682018060405250810190610e93919061261d565b90506004825460ff166004811115610ead57610ead61222c565b1480610ece57506003825460ff166004811115610ecc57610ecc61222c565b145b610f1a5760405162461bcd60e51b815260206004820181905260248201527f4a6f622068617320746f206265204f70656e6564206f722052656a65637465646044820152606401610568565b81600101548114610f785760405162461bcd60e51b815260206004820152602260248201527f596f75277265206e6f7420616e20656d706c6f796572206f662074686973206a60448201526137b160f11b6064820152608401610568565b8160010154831415610f9c5760405162461bcd60e51b815260040161056890612884565b60028201839055815460ff191682556040517f3958bdfbdda85fb560c9abe900b9559db4820056516f71e5138ecc46d6daa1d990610fe090869086906000906128cb565b60405180910390a150505050565b6000918252602082815260408084206001600160a01b0393909316845291905290205460ff1690565b7f2fdac322ee704ce09f0773f7f3f92eb98d5e7c836ee9c056cccd5f61041e5e3f61104181611cc5565b50600092835260036020908152604080852060048352818620948652939091529092208154600160ff19918216811784558083015460028501556006909301939093558054909216179055565b60025460405162438b6360e81b81523360048201526000916001600160a01b03169063438b63009060240160206040518083038186803b1580156110d157600080fd5b505afa1580156110e5573d6000803e3d6000fd5b505050506040513d601f19601f82011682018060405250810190611109919061261d565b90506000811161112b5760405162461bcd60e51b815260040161056890612636565b60008681526003602090815260408083206004808452828520868652909352922090825460ff1660048111156111635761116361222c565b146111a45760405162461bcd60e51b8152602060048201526011602482015270129bd8881a5cc81b9bdd081bdc195b9959607a1b6044820152606401610568565b828160010154146111f75760405162461bcd60e51b815260206004820152601f60248201527f546869732070726f706f73616c20646f65736e277420657869737420796574006044820152606401610568565b836112145760405162461bcd60e51b8152600401610568906126b0565b6001815460ff16600281111561122c5761122c61222c565b141561127a5760405162461bcd60e51b815260206004820181905260248201527f546869732070726f706f73616c20697320616c726561647920757064617465646044820152606401610568565b6002810180546001600160a01b0319166001600160a01b038916179055600381018690556112ac600482018686612160565b507f5cf385c7cf3e1609443b09191511540e030254887cccb510dfface4c041b6c55888487878b8b6040516112e6969594939291906128e6565b60405180910390a15050505050505050565b6113346040805160a0810190915280600081526020016000815260200160006001600160a01b0316815260200160008152602001606081525090565b600083815260046020908152604080832085845290915290819020815160a081019092528054829060ff1660028111156113705761137061222c565b60028111156113815761138161222c565b81526001820154602082015260028201546001600160a01b03166040820152600382015460608201526004820180546080909201916113bf906125e2565b80601f01602080910402602001604051908101604052809291908181526020018280546113eb906125e2565b80156114385780601f1061140d57610100808354040283529160200191611438565b820191906000526020600020905b81548152906001019060200180831161141b57829003601f168201915b505050505081525050905092915050565b61148a6040805160e0810190915280600081526020016000815260200160008152602001600081526020016060815260200160008152602001600081525090565b60015482106114d45760405162461bcd60e51b8152602060048201526016602482015275151a1a5cc81a9bd888191bd95cc9db9d08195e1a5cdd60521b6044820152606401610568565b60008281526003602052604090819020815160e081019092528054829060ff1660048111156115055761150561222c565b60048111156115165761151661222c565b8152602001600182015481526020016002820154815260200160038201548152602001600482018054611548906125e2565b80601f0160208091040260200160405190810160405280929190818152602001828054611574906125e2565b80156115c15780601f10611596576101008083540402835291602001916115c1565b820191906000526020600020905b8154815290600101906020018083116115a457829003601f168201915b50505050508152602001600582015481526020016006820154815250509050919050565b600460208181526000938452604080852090915291835291208054600182015460028301546003840154948401805460ff9094169592946001600160a01b0390921693611631906125e2565b80601f016020809104026020016040519081016040528092919081815260200182805461165d906125e2565b80156116aa5780601f1061167f576101008083540402835291602001916116aa565b820191906000526020600020905b81548152906001019060200180831161168d57829003601f168201915b5050505050905085565b60008084116117155760405162461bcd60e51b815260206004820152602760248201527f456d706c6f7965722030206973206e6f7420612076616c69642054616c656e7460448201526613185e595c925960ca1b6064820152608401610568565b60025460405162438b6360e81b81523360048201526000916001600160a01b03169063438b63009060240160206040518083038186803b15801561175857600080fd5b505afa15801561176c573d6000803e3d6000fd5b505050506040513d601f19601f82011682018060405250810190611790919061261d565b90506117a160008287848888611dbb565b95945050505050565b6000828152602081905260409020600101546117c581611cc5565b6104f78383611d56565b600081815260036020526040808220600254915162438b6360e81b81523360048201529092916001600160a01b03169063438b63009060240160206040518083038186803b15801561182057600080fd5b505afa158015611834573d6000803e3d6000fd5b505050506040513d601f19601f82011682018060405250810190611858919061261d565b90506000825460ff1660048111156118725761187261222c565b146118bf5760405162461bcd60e51b815260206004820152601e60248201527f4a6f622068617320616c7265616479206265656e20636f6e6669726d656400006044820152606401610568565b81600101548114806118d45750816002015481145b6118f05760405162461bcd60e51b81526004016105689061278e565b816003015481141561196a5760405162461bcd60e51b815260206004820152603760248201527f4f6e6c792074686520757365722077686f206469646e277420696e697461746560448201527f20746865206a6f622063616e20636f6e6669726d2069740000000000000000006064820152608401610568565b815460ff19166001908117835582015460028301546040517f826ead164514680a543cb4b14668631815ccc71fdfe100b7654738046bd4ed4292610db792879260048801906127c5565b6000808411611a155760405162461bcd60e51b815260206004820152602760248201527f456d706c6f7965652030206973206e6f7420612076616c69642054616c656e7460448201526613185e595c925960ca1b6064820152608401610568565b60025460405162438b6360e81b81523360048201526000916001600160a01b03169063438b63009060240160206040518083038186803b158015611a5857600080fd5b505afa158015611a6c573d6000803e3d6000fd5b505050506040513d601f19601f82011682018060405250810190611a90919061261d565b90506117a160008283888888611dbb565b60025460405162438b6360e81b815233600482015260009182916001600160a01b039091169063438b63009060240160206040518083038186803b158015611ae857600080fd5b505afa158015611afc573d6000803e3d6000fd5b505050506040513d601f19601f82011682018060405250810190611b20919061261d565b9050611b326004828360008888611dbb565b949350505050565b600081815260036020526040808220600254915162438b6360e81b81523360048201529092916001600160a01b03169063438b63009060240160206040518083038186803b158015611b8b57600080fd5b505afa158015611b9f573d6000803e3d6000fd5b505050506040513d601f19601f82011682018060405250810190611bc3919061261d565b90508160010154811480611bda5750816002015481145b611bf65760405162461bcd60e51b81526004016105689061278e565b6000825460ff166004811115611c0e57611c0e61222c565b1480611c2f57506004825460ff166004811115611c2d57611c2d61222c565b145b611c7b5760405162461bcd60e51b815260206004820152601960248201527f596f752063616e27742072656a6563742074686973206a6f62000000000000006044820152606401610568565b815460ff19166003178255600182015460028301546040517fa3fbf1a3adaa9390e668c5eed55b7dca25952ec70b00d58f1d87ee8f3a569f6692610db792879260048801906127c5565b611ccf8133611ed5565b50565b611cdc8282610fee565b61057b576000828152602081815260408083206001600160a01b03851684529091529020805460ff19166001179055611d123390565b6001600160a01b0316816001600160a01b0316837f2f8788117e7eff1d82e926ec794901d17c78024a50270940304540a733656f0d60405160405180910390a45050565b611d608282610fee565b1561057b576000828152602081815260408083206001600160a01b0385168085529252808320805460ff1916905551339285917ff6391f5c32d9c69d2a47ea670b442974b53935d1edc7fd64eb21e047a839171b9190a45050565b600084841415611ddd5760405162461bcd60e51b815260040161056890612884565b60008611611dfd5760405162461bcd60e51b815260040161056890612636565b81611e1a5760405162461bcd60e51b8152600401610568906126b0565b600180549081906000611e2c836126fd565b9091555050600081815260036020526040902080548990829060ff19166001836004811115611e5d57611e5d61222c565b0217905550600181018790556002810186905560038101889055611e85600482018686612160565b507f566ffa87aca6848c0278aefd511c9303f324b06da6d25d7bb9f12f0a9e9f38d08288888b89898f604051611ec19796959493929190612924565b60405180910390a150979650505050505050565b611edf8282610fee565b61057b57611ef7816001600160a01b03166014611f39565b611f02836020611f39565b604051602001611f1392919061296b565b60408051601f198184030181529082905262461bcd60e51b8252610568916004016129e0565b60606000611f488360026129f3565b611f53906002612a12565b67ffffffffffffffff811115611f6b57611f6b612a2a565b6040519080825280601f01601f191660200182016040528015611f95576020820181803683370190505b509050600360fc1b81600081518110611fb057611fb0612a40565b60200101906001600160f81b031916908160001a905350600f60fb1b81600181518110611fdf57611fdf612a40565b60200101906001600160f81b031916908160001a90535060006120038460026129f3565b61200e906001612a12565b90505b6001811115612086576f181899199a1a9b1b9c1cb0b131b232b360811b85600f166010811061204257612042612a40565b1a60f81b82828151811061205857612058612a40565b60200101906001600160f81b031916908160001a90535060049490941c9361207f81612a56565b9050612011565b5083156120d55760405162461bcd60e51b815260206004820181905260248201527f537472696e67733a20686578206c656e67746820696e73756666696369656e746044820152606401610568565b9392505050565b8280546120e8906125e2565b90600052602060002090601f01602090048101928261210a5760008555612150565b82601f1061212357805160ff1916838001178555612150565b82800160010185558215612150579182015b82811115612150578251825591602001919060010190612135565b5061215c9291506121d4565b5090565b82805461216c906125e2565b90600052602060002090601f01602090048101928261218e5760008555612150565b82601f106121a75782800160ff19823516178555612150565b82800160010185558215612150579182015b828111156121505782358255916020019190600101906121b9565b5b8082111561215c57600081556001016121d5565b6000602082840312156121fb57600080fd5b81356001600160e01b0319811681146120d557600080fd5b60006020828403121561222557600080fd5b5035919050565b634e487b7160e01b600052602160045260246000fd5b600581106122525761225261222c565b9052565b60005b83811015612271578181015183820152602001612259565b83811115612280576000848401525b50505050565b6000815180845261229e816020860160208601612256565b601f01601f19169290920160200192915050565b6122bc8189612242565b86602082015285604082015284606082015260e0608082015260006122e460e0830186612286565b60a08301949094525060c0015295945050505050565b80356001600160a01b038116811461231157600080fd5b919050565b6000806040838503121561232957600080fd5b82359150612339602084016122fa565b90509250929050565b6000806040838503121561235557600080fd5b50508035926020909101359150565b60008083601f84011261237657600080fd5b50813567ffffffffffffffff81111561238e57600080fd5b6020830191508360208285010111156123a657600080fd5b9250929050565b6000806000806000608086880312156123c557600080fd5b853594506123d5602087016122fa565b935060408601359250606086013567ffffffffffffffff8111156123f857600080fd5b61240488828901612364565b969995985093965092949392505050565b60008060006060848603121561242a57600080fd5b505081359360208301359350604090920135919050565b600381106122525761225261222c565b60208152612463602082018351612441565b6020820151604082015260018060a01b036040830151166060820152606082015160808201526000608083015160a080840152611b3260c0840182612286565b602081526124b5602082018351612242565b6020820151604082015260408201516060820152606082015160808201526000608083015160e060a08401526124ef610100840182612286565b905060a084015160c084015260c084015160e08401528091505092915050565b6125198187612441565b84602082015260018060a01b038416604082015282606082015260a06080820152600061254960a0830184612286565b979650505050505050565b60008060006040848603121561256957600080fd5b83359250602084013567ffffffffffffffff81111561258757600080fd5b61259386828701612364565b9497909650939450505050565b600080602083850312156125b357600080fd5b823567ffffffffffffffff8111156125ca57600080fd5b6125d685828601612364565b90969095509350505050565b600181811c908216806125f657607f821691505b6020821081141561261757634e487b7160e01b600052602260045260246000fd5b50919050565b60006020828403121561262f57600080fd5b5051919050565b6020808252601e908201527f596f7520736f756c64206861766520612054616c656e744c6179657249640000604082015260600190565b60208082526023908201527f50726f706f73616c2068617320616c7265616479206265656e2076616c6964616040820152621d195960ea1b606082015260800190565b6020808252601f908201527f53686f756c642070726f7669646520612076616c696420495046532055524900604082015260600190565b634e487b7160e01b600052601160045260246000fd5b6000600019821415612711576127116126e7565b5060010190565b81835281816020850137506000828201602090810191909152601f909101601f19169091010190565b87815286602082015260c06040820152600061276160c083018789612718565b90506127706060830186612441565b6001600160a01b0393909316608082015260a0015295945050505050565b6020808252601f908201527f596f75277265206e6f7420616e206163746f72206f662074686973206a6f6200604082015260600190565b848152600060208581840152846040840152608060608401526000845481600182811c9150808316806127f957607f831692505b85831081141561281757634e487b7160e01b85526022600452602485fd5b6080880183905260a08801818015612836576001811461284757612872565b60ff19861682528782019650612872565b60008b81526020902060005b8681101561286c57815484820152908501908901612853565b83019750505b50949c9b505050505050505050505050565b60208082526027908201527f456d706c6f79656520616e6420656d706c6f7965722063616e2774206265207460408201526668652073616d6560c81b606082015260800190565b8381526020810183905260608101611b326040830184612242565b86815285602082015260a06040820152600061290660a083018688612718565b6001600160a01b039490941660608301525060800152949350505050565b87815286602082015285604082015284606082015260c06080820152600061295060c083018587612718565b905061295f60a0830184612242565b98975050505050505050565b7f416363657373436f6e74726f6c3a206163636f756e74200000000000000000008152600083516129a3816017850160208801612256565b7001034b99036b4b9b9b4b733903937b6329607d1b60179184019182015283516129d4816028840160208801612256565b01602801949350505050565b6020815260006120d56020830184612286565b6000816000190483118215151615612a0d57612a0d6126e7565b500290565b60008219821115612a2557612a256126e7565b500190565b634e487b7160e01b600052604160045260246000fd5b634e487b7160e01b600052603260045260246000fd5b600081612a6557612a656126e7565b50600019019056fea2646970667358221220e4d53f5893dbcf7ff98723f38eed200026b1262d9fcbcecc3eb070b7d3f04d9f64736f6c63430008090033",
  "linkReferences": {},
  "deployedLinkReferences": {}
}