{
  "_format": "hh-sol-artifact-1",
  "contractName": "JobRegistry",
  "sourceName": "contracts/JobRegistry.sol",
  "abi": [
    {
      "inputs": [
        {
          "internalType": "address",
          "name": "_talentLayerIdAddress",
          "type": "address"
        }
      ],
      "stateMutability": "nonpayable",
      "type": "constructor"
    },
    {
      "anonymous": false,
      "inputs": [
        {
          "indexed": false,
          "internalType": "uint256",
          "name": "id",
          "type": "uint256"
        },
        {
          "indexed": false,
          "internalType": "uint256",
          "name": "employerId",
          "type": "uint256"
        },
        {
          "indexed": false,
          "internalType": "uint256",
          "name": "employeeId",
          "type": "uint256"
        },
        {
          "indexed": false,
          "internalType": "string",
          "name": "jobDataUri",
          "type": "string"
        }
      ],
      "name": "JobConfirmed",
      "type": "event"
    },
    {
      "anonymous": false,
      "inputs": [
        {
          "indexed": false,
          "internalType": "uint256",
          "name": "id",
          "type": "uint256"
        },
        {
          "indexed": false,
          "internalType": "uint256",
          "name": "employerId",
          "type": "uint256"
        },
        {
          "indexed": false,
          "internalType": "uint256",
          "name": "employeeId",
          "type": "uint256"
        },
        {
          "indexed": false,
          "internalType": "uint256",
          "name": "initiatorId",
          "type": "uint256"
        },
        {
          "indexed": false,
          "internalType": "string",
          "name": "jobDataUri",
          "type": "string"
        },
        {
          "indexed": false,
          "internalType": "enum JobRegistry.Status",
          "name": "status",
          "type": "uint8"
        }
      ],
      "name": "JobCreated",
      "type": "event"
    },
    {
      "anonymous": false,
      "inputs": [
        {
          "indexed": false,
          "internalType": "uint256",
          "name": "id",
          "type": "uint256"
        },
        {
          "indexed": false,
          "internalType": "uint256",
          "name": "employeeId",
          "type": "uint256"
        },
        {
          "indexed": false,
          "internalType": "enum JobRegistry.Status",
          "name": "status",
          "type": "uint8"
        }
      ],
      "name": "JobEmployeeAssigned",
      "type": "event"
    },
    {
      "anonymous": false,
      "inputs": [
        {
          "indexed": false,
          "internalType": "uint256",
          "name": "id",
          "type": "uint256"
        },
        {
          "indexed": false,
          "internalType": "uint256",
          "name": "employerId",
          "type": "uint256"
        },
        {
          "indexed": false,
          "internalType": "uint256",
          "name": "employeeId",
          "type": "uint256"
        },
        {
          "indexed": false,
          "internalType": "string",
          "name": "jobDataUri",
          "type": "string"
        }
      ],
      "name": "JobFinished",
      "type": "event"
    },
    {
      "anonymous": false,
      "inputs": [
        {
          "indexed": false,
          "internalType": "uint256",
          "name": "id",
          "type": "uint256"
        },
        {
          "indexed": false,
          "internalType": "uint256",
          "name": "employerId",
          "type": "uint256"
        },
        {
          "indexed": false,
          "internalType": "uint256",
          "name": "employeeId",
          "type": "uint256"
        },
        {
          "indexed": false,
          "internalType": "string",
          "name": "jobDataUri",
          "type": "string"
        }
      ],
      "name": "JobRejected",
      "type": "event"
    },
    {
      "inputs": [
        {
          "internalType": "uint256",
          "name": "_jobId",
          "type": "uint256"
        },
        {
          "internalType": "uint256",
          "name": "_employeeId",
          "type": "uint256"
        }
      ],
      "name": "assignEmployeeToJob",
      "outputs": [],
      "stateMutability": "nonpayable",
      "type": "function"
    },
    {
      "inputs": [
        {
          "internalType": "uint256",
          "name": "_jobId",
          "type": "uint256"
        }
      ],
      "name": "confirmJob",
      "outputs": [],
      "stateMutability": "nonpayable",
      "type": "function"
    },
    {
      "inputs": [
        {
          "internalType": "uint256",
          "name": "_employerId",
          "type": "uint256"
        },
        {
          "internalType": "string",
          "name": "_jobDataUri",
          "type": "string"
        }
      ],
      "name": "createJobFromEmployee",
      "outputs": [
        {
          "internalType": "uint256",
          "name": "",
          "type": "uint256"
        }
      ],
      "stateMutability": "nonpayable",
      "type": "function"
    },
    {
      "inputs": [
        {
          "internalType": "uint256",
          "name": "_employeeId",
          "type": "uint256"
        },
        {
          "internalType": "string",
          "name": "_jobDataUri",
          "type": "string"
        }
      ],
      "name": "createJobFromEmployer",
      "outputs": [
        {
          "internalType": "uint256",
          "name": "",
          "type": "uint256"
        }
      ],
      "stateMutability": "nonpayable",
      "type": "function"
    },
    {
      "inputs": [
        {
          "internalType": "string",
          "name": "_jobDataUri",
          "type": "string"
        }
      ],
      "name": "createOpenJobFromEmployer",
      "outputs": [
        {
          "internalType": "uint256",
          "name": "",
          "type": "uint256"
        }
      ],
      "stateMutability": "nonpayable",
      "type": "function"
    },
    {
      "inputs": [
        {
          "internalType": "uint256",
          "name": "_jobId",
          "type": "uint256"
        }
      ],
      "name": "finishJob",
      "outputs": [],
      "stateMutability": "nonpayable",
      "type": "function"
    },
    {
      "inputs": [
        {
          "internalType": "uint256",
          "name": "_jobId",
          "type": "uint256"
        }
      ],
      "name": "getJob",
      "outputs": [
        {
          "components": [
            {
              "internalType": "enum JobRegistry.Status",
              "name": "status",
              "type": "uint8"
            },
            {
              "internalType": "uint256",
              "name": "employerId",
              "type": "uint256"
            },
            {
              "internalType": "uint256",
              "name": "employeeId",
              "type": "uint256"
            },
            {
              "internalType": "uint256",
              "name": "initiatorId",
              "type": "uint256"
            },
            {
              "internalType": "string",
              "name": "jobDataUri",
              "type": "string"
            }
          ],
          "internalType": "struct JobRegistry.Job",
          "name": "",
          "type": "tuple"
        }
      ],
      "stateMutability": "view",
      "type": "function"
    },
    {
      "inputs": [
        {
          "internalType": "uint256",
          "name": "",
          "type": "uint256"
        }
      ],
      "name": "jobs",
      "outputs": [
        {
          "internalType": "enum JobRegistry.Status",
          "name": "status",
          "type": "uint8"
        },
        {
          "internalType": "uint256",
          "name": "employerId",
          "type": "uint256"
        },
        {
          "internalType": "uint256",
          "name": "employeeId",
          "type": "uint256"
        },
        {
          "internalType": "uint256",
          "name": "initiatorId",
          "type": "uint256"
        },
        {
          "internalType": "string",
          "name": "jobDataUri",
          "type": "string"
        }
      ],
      "stateMutability": "view",
      "type": "function"
    },
    {
      "inputs": [
        {
          "internalType": "uint256",
          "name": "_jobId",
          "type": "uint256"
        }
      ],
      "name": "rejectJob",
      "outputs": [],
      "stateMutability": "nonpayable",
      "type": "function"
    }
  ],
  "bytecode": "0x6080604052600160005534801561001557600080fd5b506040516114b73803806114b783398101604081905261003491610059565b600180546001600160a01b0319166001600160a01b0392909216919091179055610089565b60006020828403121561006b57600080fd5b81516001600160a01b038116811461008257600080fd5b9392505050565b61141f806100986000396000f3fe608060405234801561001057600080fd5b50600436106100935760003560e01c8063ce0728d511610066578063ce0728d51461010d578063d54800811461012e578063e91a09ce14610141578063f591d4ab14610154578063fb3680601461016757600080fd5b8063180aedf3146100985780636e3589a2146100c55780638fece209146100da578063bf22c457146100ed575b600080fd5b6100ab6100a6366004610f9a565b61017a565b6040516100bc959493929190611038565b60405180910390f35b6100d86100d3366004610f9a565b610239565b005b6100d86100e8366004611075565b6103bb565b6101006100fb366004610f9a565b61059f565b6040516100bc9190611097565b61012061011b36600461112a565b610719565b6040519081526020016100bc565b6100d861013c366004610f9a565b61080f565b61012061014f36600461112a565b6109f4565b610120610162366004611176565b610ae1565b6100d8610175366004610f9a565b610b7a565b60026020819052600091825260409091208054600182015492820154600383015460048401805460ff909416959492939192916101b6906111b8565b80601f01602080910402602001604051908101604052809291908181526020018280546101e2906111b8565b801561022f5780601f106102045761010080835404028352916020019161022f565b820191906000526020600020905b81548152906001019060200180831161021257829003601f168201915b5050505050905085565b600081815260026020526040808220600154915162438b6360e81b81523360048201529092916001600160a01b03169063438b63009060240160206040518083038186803b15801561028a57600080fd5b505afa15801561029e573d6000803e3d6000fd5b505050506040513d601f19601f820116820180604052508101906102c291906111f3565b905081600101548114806102d95750816002015481145b6102fe5760405162461bcd60e51b81526004016102f59061120c565b60405180910390fd5b6001825460ff16600481111561031657610316610fb3565b146103635760405162461bcd60e51b815260206004820152601960248201527f596f752063616e27742066696e6973682074686973206a6f620000000000000060448201526064016102f5565b815460ff1916600290811783556001830154908301546040517fe009ce575781eace93e19229c24df29249a154b9378e9634dc33bc0705bbf1aa926103ae9287926004880190611243565b60405180910390a1505050565b600082815260026020526040808220600154915162438b6360e81b81523360048201529092916001600160a01b03169063438b63009060240160206040518083038186803b15801561040c57600080fd5b505afa158015610420573d6000803e3d6000fd5b505050506040513d601f19601f8201168201806040525081019061044491906111f3565b90506004825460ff16600481111561045e5761045e610fb3565b148061047f57506003825460ff16600481111561047d5761047d610fb3565b145b6104cb5760405162461bcd60e51b815260206004820181905260248201527f4a6f622068617320746f206265204f70656e6564206f722052656a656374656460448201526064016102f5565b816001015481146105295760405162461bcd60e51b815260206004820152602260248201527f596f75277265206e6f7420616e20656d706c6f796572206f662074686973206a60448201526137b160f11b60648201526084016102f5565b816001015483141561054d5760405162461bcd60e51b81526004016102f590611302565b60028201839055815460ff191682556040517f3958bdfbdda85fb560c9abe900b9559db4820056516f71e5138ecc46d6daa1d9906105919086908690600090611349565b60405180910390a150505050565b6105d26040805160a081019091528060008152602001600081526020016000815260200160008152602001606081525090565b600054821061061c5760405162461bcd60e51b8152602060048201526016602482015275151a1a5cc81a9bd888191bd95cc9db9d08195e1a5cdd60521b60448201526064016102f5565b60008281526002602052604090819020815160a081019092528054829060ff16600481111561064d5761064d610fb3565b600481111561065e5761065e610fb3565b8152602001600182015481526020016002820154815260200160038201548152602001600482018054610690906111b8565b80601f01602080910402602001604051908101604052809291908181526020018280546106bc906111b8565b80156107095780601f106106de57610100808354040283529160200191610709565b820191906000526020600020905b8154815290600101906020018083116106ec57829003601f168201915b5050505050815250509050919050565b600080841161077a5760405162461bcd60e51b815260206004820152602760248201527f456d706c6f7965722030206973206e6f7420612076616c69642054616c656e7460448201526613185e595c925960ca1b60648201526084016102f5565b60015460405162438b6360e81b81523360048201526000916001600160a01b03169063438b63009060240160206040518083038186803b1580156107bd57600080fd5b505afa1580156107d1573d6000803e3d6000fd5b505050506040513d601f19601f820116820180604052508101906107f591906111f3565b905061080660008287848888610d05565b95945050505050565b600081815260026020526040808220600154915162438b6360e81b81523360048201529092916001600160a01b03169063438b63009060240160206040518083038186803b15801561086057600080fd5b505afa158015610874573d6000803e3d6000fd5b505050506040513d601f19601f8201168201806040525081019061089891906111f3565b90506000825460ff1660048111156108b2576108b2610fb3565b146108ff5760405162461bcd60e51b815260206004820152601e60248201527f4a6f622068617320616c7265616479206265656e20636f6e6669726d6564000060448201526064016102f5565b81600101548114806109145750816002015481145b6109305760405162461bcd60e51b81526004016102f59061120c565b81600301548114156109aa5760405162461bcd60e51b815260206004820152603760248201527f4f6e6c792074686520757365722077686f206469646e277420696e697461746560448201527f20746865206a6f622063616e20636f6e6669726d20697400000000000000000060648201526084016102f5565b815460ff19166001908117835582015460028301546040517f826ead164514680a543cb4b14668631815ccc71fdfe100b7654738046bd4ed42926103ae9287926004880190611243565b6000808411610a555760405162461bcd60e51b815260206004820152602760248201527f456d706c6f7965652030206973206e6f7420612076616c69642054616c656e7460448201526613185e595c925960ca1b60648201526084016102f5565b60015460405162438b6360e81b81523360048201526000916001600160a01b03169063438b63009060240160206040518083038186803b158015610a9857600080fd5b505afa158015610aac573d6000803e3d6000fd5b505050506040513d601f19601f82011682018060405250810190610ad091906111f3565b905061080660008283888888610d05565b60015460405162438b6360e81b815233600482015260009182916001600160a01b039091169063438b63009060240160206040518083038186803b158015610b2857600080fd5b505afa158015610b3c573d6000803e3d6000fd5b505050506040513d601f19601f82011682018060405250810190610b6091906111f3565b9050610b726004828360008888610d05565b949350505050565b600081815260026020526040808220600154915162438b6360e81b81523360048201529092916001600160a01b03169063438b63009060240160206040518083038186803b158015610bcb57600080fd5b505afa158015610bdf573d6000803e3d6000fd5b505050506040513d601f19601f82011682018060405250810190610c0391906111f3565b90508160010154811480610c1a5750816002015481145b610c365760405162461bcd60e51b81526004016102f59061120c565b6000825460ff166004811115610c4e57610c4e610fb3565b1480610c6f57506004825460ff166004811115610c6d57610c6d610fb3565b145b610cbb5760405162461bcd60e51b815260206004820152601960248201527f596f752063616e27742072656a6563742074686973206a6f620000000000000060448201526064016102f5565b815460ff19166003178255600182015460028301546040517fa3fbf1a3adaa9390e668c5eed55b7dca25952ec70b00d58f1d87ee8f3a569f66926103ae9287926004880190611243565b600084841415610d275760405162461bcd60e51b81526004016102f590611302565b60008611610d775760405162461bcd60e51b815260206004820152601e60248201527f596f7520736f756c64206861766520612054616c656e744c617965724964000060448201526064016102f5565b81610dc45760405162461bcd60e51b815260206004820152601f60248201527f53686f756c642070726f7669646520612076616c69642049504653205552490060448201526064016102f5565b6000805490819080610dd583611364565b91905055506040518060a00160405280896004811115610df757610df7610fb3565b815260200187815260200186815260200188815260200185858080601f01602080910402602001604051908101604052809392919081815260200183838082843760009201829052509390945250508381526002602052604090208251815491925090829060ff19166001836004811115610e7457610e74610fb3565b02179055506020828101516001830155604083015160028301556060830151600383015560808301518051610eaf9260048501920190610f01565b509050507f566ffa87aca6848c0278aefd511c9303f324b06da6d25d7bb9f12f0a9e9f38d08187878a88888e604051610eee979695949392919061138d565b60405180910390a1979650505050505050565b828054610f0d906111b8565b90600052602060002090601f016020900481019282610f2f5760008555610f75565b82601f10610f4857805160ff1916838001178555610f75565b82800160010185558215610f75579182015b82811115610f75578251825591602001919060010190610f5a565b50610f81929150610f85565b5090565b5b80821115610f815760008155600101610f86565b600060208284031215610fac57600080fd5b5035919050565b634e487b7160e01b600052602160045260246000fd5b60058110610fe757634e487b7160e01b600052602160045260246000fd5b9052565b6000815180845260005b8181101561101157602081850181015186830182015201610ff5565b81811115611023576000602083870101525b50601f01601f19169290920160200192915050565b6110428187610fc9565b84602082015283604082015282606082015260a06080820152600061106a60a0830184610feb565b979650505050505050565b6000806040838503121561108857600080fd5b50508035926020909101359150565b602081526110a9602082018351610fc9565b6020820151604082015260408201516060820152606082015160808201526000608083015160a080840152610b7260c0840182610feb565b60008083601f8401126110f357600080fd5b50813567ffffffffffffffff81111561110b57600080fd5b60208301915083602082850101111561112357600080fd5b9250929050565b60008060006040848603121561113f57600080fd5b83359250602084013567ffffffffffffffff81111561115d57600080fd5b611169868287016110e1565b9497909650939450505050565b6000806020838503121561118957600080fd5b823567ffffffffffffffff8111156111a057600080fd5b6111ac858286016110e1565b90969095509350505050565b600181811c908216806111cc57607f821691505b602082108114156111ed57634e487b7160e01b600052602260045260246000fd5b50919050565b60006020828403121561120557600080fd5b5051919050565b6020808252601f908201527f596f75277265206e6f7420616e206163746f72206f662074686973206a6f6200604082015260600190565b848152600060208581840152846040840152608060608401526000845481600182811c91508083168061127757607f831692505b85831081141561129557634e487b7160e01b85526022600452602485fd5b6080880183905260a088018180156112b457600181146112c5576112f0565b60ff198616825287820196506112f0565b60008b81526020902060005b868110156112ea578154848201529085019089016112d1565b83019750505b50949c9b505050505050505050505050565b60208082526027908201527f456d706c6f79656520616e6420656d706c6f7965722063616e2774206265207460408201526668652073616d6560c81b606082015260800190565b8381526020810183905260608101610b726040830184610fc9565b600060001982141561138657634e487b7160e01b600052601160045260246000fd5b5060010190565b87815286602082015285604082015284606082015260c060808201528260c0820152828460e0830137600060e08483010152600060e0601f19601f86011683010190506113dd60a0830184610fc9565b9897505050505050505056fea2646970667358221220d2057ba1e2156054a4a2c92bfd46e766ac0c8aec8a9a211ae7395c894d56cfcb64736f6c63430008090033",
  "linkReferences": {},
  "deployedLinkReferences": {}
}