{
  "_format": "hh-sol-artifact-1",
  "contractName": "KeywordRegistry",
  "sourceName": "contracts/KeywordRegistry.sol",
  "abi": [
    {
      "inputs": [],
      "stateMutability": "nonpayable",
      "type": "constructor"
    },
    {
      "anonymous": false,
      "inputs": [
        {
          "indexed": false,
          "internalType": "string",
          "name": "keywords",
          "type": "string"
        }
      ],
      "name": "KeywordsAdded",
      "type": "event"
    },
    {
      "anonymous": false,
      "inputs": [
        {
          "indexed": false,
          "internalType": "string",
          "name": "keywords",
          "type": "string"
        }
      ],
      "name": "KeywordsRemoved",
      "type": "event"
    },
    {
      "anonymous": false,
      "inputs": [
        {
          "indexed": true,
          "internalType": "address",
          "name": "previousOwner",
          "type": "address"
        },
        {
          "indexed": true,
          "internalType": "address",
          "name": "newOwner",
          "type": "address"
        }
      ],
      "name": "OwnershipTransferred",
      "type": "event"
    },
    {
      "inputs": [
        {
          "internalType": "string",
          "name": "keywords",
          "type": "string"
        }
      ],
      "name": "add",
      "outputs": [],
      "stateMutability": "nonpayable",
      "type": "function"
    },
    {
      "inputs": [],
      "name": "owner",
      "outputs": [
        {
          "internalType": "address",
          "name": "",
          "type": "address"
        }
      ],
      "stateMutability": "view",
      "type": "function"
    },
    {
      "inputs": [
        {
          "internalType": "string",
          "name": "keywords",
          "type": "string"
        }
      ],
      "name": "remove",
      "outputs": [],
      "stateMutability": "nonpayable",
      "type": "function"
    },
    {
      "inputs": [],
      "name": "renounceOwnership",
      "outputs": [],
      "stateMutability": "nonpayable",
      "type": "function"
    },
    {
      "inputs": [
        {
          "internalType": "address",
          "name": "newOwner",
          "type": "address"
        }
      ],
      "name": "transferOwnership",
      "outputs": [],
      "stateMutability": "nonpayable",
      "type": "function"
    }
  ],
  "bytecode": "0x608060405234801561001057600080fd5b5061001a3361001f565b61006f565b600080546001600160a01b038381166001600160a01b0319831681178455604051919092169283917f8be0079c531659141344cd1fd0a4f28419497f9722a3daafe3b4186f6b6457e09190a35050565b6103f58061007e6000396000f3fe608060405234801561001057600080fd5b50600436106100575760003560e01c8063715018a61461005c57806380599e4b146100665780638da5cb5b14610079578063b0c8f9dc14610098578063f2fde38b146100ab575b600080fd5b6100646100be565b005b610064610074366004610289565b6100d2565b600054604080516001600160a01b039092168252519081900360200190f35b6100646100a6366004610289565b610114565b6100646100b936600461033a565b61014b565b6100c66101c9565b6100d06000610223565b565b6100da6101c9565b7ff770b1a71e518d48aa9e14370cb24196ad5cd462f3a1f93646e0f719c156e9f981604051610109919061036a565b60405180910390a150565b61011c6101c9565b7f97256031aaddc060022bd324182241e3cfcd5e813db985e404658c2513c51de681604051610109919061036a565b6101536101c9565b6001600160a01b0381166101bd5760405162461bcd60e51b815260206004820152602660248201527f4f776e61626c653a206e6577206f776e657220697320746865207a65726f206160448201526564647265737360d01b60648201526084015b60405180910390fd5b6101c681610223565b50565b6000546001600160a01b031633146100d05760405162461bcd60e51b815260206004820181905260248201527f4f776e61626c653a2063616c6c6572206973206e6f7420746865206f776e657260448201526064016101b4565b600080546001600160a01b038381166001600160a01b0319831681178455604051919092169283917f8be0079c531659141344cd1fd0a4f28419497f9722a3daafe3b4186f6b6457e09190a35050565b634e487b7160e01b600052604160045260246000fd5b60006020828403121561029b57600080fd5b813567ffffffffffffffff808211156102b357600080fd5b818401915084601f8301126102c757600080fd5b8135818111156102d9576102d9610273565b604051601f8201601f19908116603f0116810190838211818310171561030157610301610273565b8160405282815287602084870101111561031a57600080fd5b826020860160208301376000928101602001929092525095945050505050565b60006020828403121561034c57600080fd5b81356001600160a01b038116811461036357600080fd5b9392505050565b600060208083528351808285015260005b818110156103975785810183015185820160400152820161037b565b818111156103a9576000604083870101525b50601f01601f191692909201604001939250505056fea264697066735822122038308557dd8350c92fb5f8441014ed9b761bacc5df1b4cd445f83e184caf277264736f6c63430008090033",
  "linkReferences": {},
  "deployedLinkReferences": {}
}