{
  "_format": "hh-sol-artifact-1",
  "contractName": "ServiceRegistry",
  "sourceName": "contracts/ServiceRegistry.sol",
  "abi": [
    {
      "inputs": [
        {
          "internalType": "address",
          "name": "_talentLayerIdAddress",
          "type": "address"
        },
        {
          "internalType": "address",
          "name": "_talentLayerPlatformIdAddress",
          "type": "address"
        }
      ],
      "stateMutability": "nonpayable",
      "type": "constructor"
    },
    {
      "anonymous": false,
      "inputs": [
        {
          "indexed": false,
          "internalType": "uint256",
          "name": "serviceId",
          "type": "uint256"
        },
        {
          "indexed": false,
          "internalType": "uint256",
          "name": "sellerId",
          "type": "uint256"
        },
        {
          "indexed": false,
          "internalType": "string",
          "name": "proposalDataUri",
          "type": "string"
        },
        {
          "indexed": false,
          "internalType": "enum ServiceRegistry.ProposalStatus",
          "name": "status",
          "type": "uint8"
        },
        {
          "indexed": false,
          "internalType": "address",
          "name": "rateToken",
          "type": "address"
        },
        {
          "indexed": false,
          "internalType": "uint256",
          "name": "rateAmount",
          "type": "uint256"
        }
      ],
      "name": "ProposalCreated",
      "type": "event"
    },
    {
      "anonymous": false,
      "inputs": [
        {
          "indexed": false,
          "internalType": "uint256",
          "name": "serviceId",
          "type": "uint256"
        },
        {
          "indexed": false,
          "internalType": "uint256",
          "name": "sellerId",
          "type": "uint256"
        }
      ],
      "name": "ProposalRejected",
      "type": "event"
    },
    {
      "anonymous": false,
      "inputs": [
        {
          "indexed": false,
          "internalType": "uint256",
          "name": "serviceId",
          "type": "uint256"
        },
        {
          "indexed": false,
          "internalType": "uint256",
          "name": "sellerId",
          "type": "uint256"
        },
        {
          "indexed": false,
          "internalType": "string",
          "name": "proposalDataUri",
          "type": "string"
        },
        {
          "indexed": false,
          "internalType": "address",
          "name": "rateToken",
          "type": "address"
        },
        {
          "indexed": false,
          "internalType": "uint256",
          "name": "rateAmount",
          "type": "uint256"
        }
      ],
      "name": "ProposalUpdated",
      "type": "event"
    },
    {
      "anonymous": false,
      "inputs": [
        {
          "indexed": false,
          "internalType": "uint256",
          "name": "serviceId",
          "type": "uint256"
        },
        {
          "indexed": false,
          "internalType": "uint256",
          "name": "sellerId",
          "type": "uint256"
        }
      ],
      "name": "ProposalValidated",
      "type": "event"
    },
    {
      "anonymous": false,
      "inputs": [
        {
          "indexed": true,
          "internalType": "bytes32",
          "name": "role",
          "type": "bytes32"
        },
        {
          "indexed": true,
          "internalType": "bytes32",
          "name": "previousAdminRole",
          "type": "bytes32"
        },
        {
          "indexed": true,
          "internalType": "bytes32",
          "name": "newAdminRole",
          "type": "bytes32"
        }
      ],
      "name": "RoleAdminChanged",
      "type": "event"
    },
    {
      "anonymous": false,
      "inputs": [
        {
          "indexed": true,
          "internalType": "bytes32",
          "name": "role",
          "type": "bytes32"
        },
        {
          "indexed": true,
          "internalType": "address",
          "name": "account",
          "type": "address"
        },
        {
          "indexed": true,
          "internalType": "address",
          "name": "sender",
          "type": "address"
        }
      ],
      "name": "RoleGranted",
      "type": "event"
    },
    {
      "anonymous": false,
      "inputs": [
        {
          "indexed": true,
          "internalType": "bytes32",
          "name": "role",
          "type": "bytes32"
        },
        {
          "indexed": true,
          "internalType": "address",
          "name": "account",
          "type": "address"
        },
        {
          "indexed": true,
          "internalType": "address",
          "name": "sender",
          "type": "address"
        }
      ],
      "name": "RoleRevoked",
      "type": "event"
    },
    {
      "anonymous": false,
      "inputs": [
        {
          "indexed": false,
          "internalType": "uint256",
          "name": "id",
          "type": "uint256"
        },
        {
          "indexed": false,
          "internalType": "uint256",
          "name": "buyerId",
          "type": "uint256"
        },
        {
          "indexed": false,
          "internalType": "uint256",
          "name": "sellerId",
          "type": "uint256"
        },
        {
          "indexed": false,
          "internalType": "string",
          "name": "serviceDataUri",
          "type": "string"
        }
      ],
      "name": "ServiceConfirmed",
      "type": "event"
    },
    {
      "anonymous": false,
      "inputs": [
        {
          "indexed": false,
          "internalType": "uint256",
          "name": "id",
          "type": "uint256"
        },
        {
          "indexed": false,
          "internalType": "uint256",
          "name": "buyerId",
          "type": "uint256"
        },
        {
          "indexed": false,
          "internalType": "uint256",
          "name": "sellerId",
          "type": "uint256"
        },
        {
          "indexed": false,
          "internalType": "uint256",
          "name": "initiatorId",
          "type": "uint256"
        },
        {
          "indexed": false,
          "internalType": "uint256",
          "name": "platformId",
          "type": "uint256"
        }
      ],
      "name": "ServiceCreated",
      "type": "event"
    },
    {
      "anonymous": false,
      "inputs": [
        {
          "indexed": false,
          "internalType": "uint256",
          "name": "id",
          "type": "uint256"
        },
        {
          "indexed": false,
          "internalType": "string",
          "name": "serviceDataUri",
          "type": "string"
        }
      ],
      "name": "ServiceDataCreated",
      "type": "event"
    },
    {
      "anonymous": false,
      "inputs": [
        {
          "indexed": false,
          "internalType": "uint256",
          "name": "id",
          "type": "uint256"
        },
        {
          "indexed": false,
          "internalType": "uint256",
          "name": "buyerId",
          "type": "uint256"
        },
        {
          "indexed": false,
          "internalType": "uint256",
          "name": "sellerId",
          "type": "uint256"
        },
        {
          "indexed": false,
          "internalType": "string",
          "name": "serviceDataUri",
          "type": "string"
        }
      ],
      "name": "ServiceFinished",
      "type": "event"
    },
    {
      "anonymous": false,
      "inputs": [
        {
          "indexed": false,
          "internalType": "uint256",
          "name": "id",
          "type": "uint256"
        },
        {
          "indexed": false,
          "internalType": "uint256",
          "name": "buyerId",
          "type": "uint256"
        },
        {
          "indexed": false,
          "internalType": "uint256",
          "name": "sellerId",
          "type": "uint256"
        },
        {
          "indexed": false,
          "internalType": "string",
          "name": "serviceDataUri",
          "type": "string"
        }
      ],
      "name": "ServiceRejected",
      "type": "event"
    },
    {
      "anonymous": false,
      "inputs": [
        {
          "indexed": false,
          "internalType": "uint256",
          "name": "id",
          "type": "uint256"
        },
        {
          "indexed": false,
          "internalType": "uint256",
          "name": "sellerId",
          "type": "uint256"
        },
        {
          "indexed": false,
          "internalType": "enum ServiceRegistry.Status",
          "name": "status",
          "type": "uint8"
        }
      ],
      "name": "ServiceSellerAssigned",
      "type": "event"
    },
    {
      "inputs": [],
      "name": "DEFAULT_ADMIN_ROLE",
      "outputs": [
        {
          "internalType": "bytes32",
          "name": "",
          "type": "bytes32"
        }
      ],
      "stateMutability": "view",
      "type": "function"
    },
    {
      "inputs": [],
      "name": "ESCROW_ROLE",
      "outputs": [
        {
          "internalType": "bytes32",
          "name": "",
          "type": "bytes32"
        }
      ],
      "stateMutability": "view",
      "type": "function"
    },
    {
      "inputs": [
        {
          "internalType": "uint256",
          "name": "_serviceId",
          "type": "uint256"
        },
        {
          "internalType": "uint256",
          "name": "_proposalId",
          "type": "uint256"
        },
        {
          "internalType": "uint256",
          "name": "_transactionId",
          "type": "uint256"
        }
      ],
      "name": "afterDeposit",
      "outputs": [],
      "stateMutability": "nonpayable",
      "type": "function"
    },
    {
      "inputs": [
        {
          "internalType": "uint256",
          "name": "_serviceId",
          "type": "uint256"
        }
      ],
      "name": "afterFullPayment",
      "outputs": [],
      "stateMutability": "nonpayable",
      "type": "function"
    },
    {
      "inputs": [
        {
          "internalType": "uint256",
          "name": "_serviceId",
          "type": "uint256"
        },
        {
          "internalType": "uint256",
          "name": "_sellerId",
          "type": "uint256"
        }
      ],
      "name": "assignSellerToService",
      "outputs": [],
      "stateMutability": "nonpayable",
      "type": "function"
    },
    {
      "inputs": [
        {
          "internalType": "uint256",
          "name": "_serviceId",
          "type": "uint256"
        }
      ],
      "name": "confirmService",
      "outputs": [],
      "stateMutability": "nonpayable",
      "type": "function"
    },
    {
      "inputs": [
        {
          "internalType": "uint256",
          "name": "_platformId",
          "type": "uint256"
        },
        {
          "internalType": "string",
          "name": "_serviceDataUri",
          "type": "string"
        }
      ],
      "name": "createOpenServiceFromBuyer",
      "outputs": [
        {
          "internalType": "uint256",
          "name": "",
          "type": "uint256"
        }
      ],
      "stateMutability": "nonpayable",
      "type": "function"
    },
    {
      "inputs": [
        {
          "internalType": "uint256",
          "name": "_serviceId",
          "type": "uint256"
        },
        {
          "internalType": "address",
          "name": "_rateToken",
          "type": "address"
        },
        {
          "internalType": "uint256",
          "name": "_rateAmount",
          "type": "uint256"
        },
        {
          "internalType": "string",
          "name": "_proposalDataUri",
          "type": "string"
        }
      ],
      "name": "createProposal",
      "outputs": [],
      "stateMutability": "nonpayable",
      "type": "function"
    },
    {
      "inputs": [
        {
          "internalType": "uint256",
          "name": "_platformId",
          "type": "uint256"
        },
        {
          "internalType": "uint256",
          "name": "_sellerId",
          "type": "uint256"
        },
        {
          "internalType": "string",
          "name": "_serviceDataUri",
          "type": "string"
        }
      ],
      "name": "createServiceFromBuyer",
      "outputs": [
        {
          "internalType": "uint256",
          "name": "",
          "type": "uint256"
        }
      ],
      "stateMutability": "nonpayable",
      "type": "function"
    },
    {
      "inputs": [
        {
          "internalType": "uint256",
          "name": "_platformId",
          "type": "uint256"
        },
        {
          "internalType": "uint256",
          "name": "_buyerId",
          "type": "uint256"
        },
        {
          "internalType": "string",
          "name": "_serviceDataUri",
          "type": "string"
        }
      ],
      "name": "createServiceFromSeller",
      "outputs": [
        {
          "internalType": "uint256",
          "name": "",
          "type": "uint256"
        }
      ],
      "stateMutability": "nonpayable",
      "type": "function"
    },
    {
      "inputs": [
        {
          "internalType": "uint256",
          "name": "_serviceId",
          "type": "uint256"
        }
      ],
      "name": "finishService",
      "outputs": [],
      "stateMutability": "nonpayable",
      "type": "function"
    },
    {
      "inputs": [
        {
          "internalType": "uint256",
          "name": "_serviceId",
          "type": "uint256"
        },
        {
          "internalType": "uint256",
          "name": "_proposalId",
          "type": "uint256"
        }
      ],
      "name": "getProposal",
      "outputs": [
        {
          "components": [
            {
              "internalType": "enum ServiceRegistry.ProposalStatus",
              "name": "status",
              "type": "uint8"
            },
            {
              "internalType": "uint256",
              "name": "sellerId",
              "type": "uint256"
            },
            {
              "internalType": "address",
              "name": "rateToken",
              "type": "address"
            },
            {
              "internalType": "uint256",
              "name": "rateAmount",
              "type": "uint256"
            },
            {
              "internalType": "string",
              "name": "proposalDataUri",
              "type": "string"
            }
          ],
          "internalType": "struct ServiceRegistry.Proposal",
          "name": "",
          "type": "tuple"
        }
      ],
      "stateMutability": "view",
      "type": "function"
    },
    {
      "inputs": [
        {
          "internalType": "bytes32",
          "name": "role",
          "type": "bytes32"
        }
      ],
      "name": "getRoleAdmin",
      "outputs": [
        {
          "internalType": "bytes32",
          "name": "",
          "type": "bytes32"
        }
      ],
      "stateMutability": "view",
      "type": "function"
    },
    {
      "inputs": [
        {
          "internalType": "uint256",
          "name": "_serviceId",
          "type": "uint256"
        }
      ],
      "name": "getService",
      "outputs": [
        {
          "components": [
            {
              "internalType": "enum ServiceRegistry.Status",
              "name": "status",
              "type": "uint8"
            },
            {
              "internalType": "uint256",
              "name": "buyerId",
              "type": "uint256"
            },
            {
              "internalType": "uint256",
              "name": "sellerId",
              "type": "uint256"
            },
            {
              "internalType": "uint256",
              "name": "initiatorId",
              "type": "uint256"
            },
            {
              "internalType": "string",
              "name": "serviceDataUri",
              "type": "string"
            },
            {
              "internalType": "uint256",
              "name": "countProposals",
              "type": "uint256"
            },
            {
              "internalType": "uint256",
              "name": "transactionId",
              "type": "uint256"
            },
            {
              "internalType": "uint256",
              "name": "platformId",
              "type": "uint256"
            }
          ],
          "internalType": "struct ServiceRegistry.Service",
          "name": "",
          "type": "tuple"
        }
      ],
      "stateMutability": "view",
      "type": "function"
    },
    {
      "inputs": [
        {
          "internalType": "bytes32",
          "name": "role",
          "type": "bytes32"
        },
        {
          "internalType": "address",
          "name": "account",
          "type": "address"
        }
      ],
      "name": "grantRole",
      "outputs": [],
      "stateMutability": "nonpayable",
      "type": "function"
    },
    {
      "inputs": [
        {
          "internalType": "bytes32",
          "name": "role",
          "type": "bytes32"
        },
        {
          "internalType": "address",
          "name": "account",
          "type": "address"
        }
      ],
      "name": "hasRole",
      "outputs": [
        {
          "internalType": "bool",
          "name": "",
          "type": "bool"
        }
      ],
      "stateMutability": "view",
      "type": "function"
    },
    {
      "inputs": [],
      "name": "nextServiceId",
      "outputs": [
        {
          "internalType": "uint256",
          "name": "",
          "type": "uint256"
        }
      ],
      "stateMutability": "view",
      "type": "function"
    },
    {
      "inputs": [
        {
          "internalType": "uint256",
          "name": "",
          "type": "uint256"
        },
        {
          "internalType": "uint256",
          "name": "",
          "type": "uint256"
        }
      ],
      "name": "proposals",
      "outputs": [
        {
          "internalType": "enum ServiceRegistry.ProposalStatus",
          "name": "status",
          "type": "uint8"
        },
        {
          "internalType": "uint256",
          "name": "sellerId",
          "type": "uint256"
        },
        {
          "internalType": "address",
          "name": "rateToken",
          "type": "address"
        },
        {
          "internalType": "uint256",
          "name": "rateAmount",
          "type": "uint256"
        },
        {
          "internalType": "string",
          "name": "proposalDataUri",
          "type": "string"
        }
      ],
      "stateMutability": "view",
      "type": "function"
    },
    {
      "inputs": [
        {
          "internalType": "uint256",
          "name": "_serviceId",
          "type": "uint256"
        },
        {
          "internalType": "uint256",
          "name": "_proposalId",
          "type": "uint256"
        }
      ],
      "name": "rejectProposal",
      "outputs": [],
      "stateMutability": "nonpayable",
      "type": "function"
    },
    {
      "inputs": [
        {
          "internalType": "uint256",
          "name": "_serviceId",
          "type": "uint256"
        }
      ],
      "name": "rejectService",
      "outputs": [],
      "stateMutability": "nonpayable",
      "type": "function"
    },
    {
      "inputs": [
        {
          "internalType": "bytes32",
          "name": "role",
          "type": "bytes32"
        },
        {
          "internalType": "address",
          "name": "account",
          "type": "address"
        }
      ],
      "name": "renounceRole",
      "outputs": [],
      "stateMutability": "nonpayable",
      "type": "function"
    },
    {
      "inputs": [
        {
          "internalType": "bytes32",
          "name": "role",
          "type": "bytes32"
        },
        {
          "internalType": "address",
          "name": "account",
          "type": "address"
        }
      ],
      "name": "revokeRole",
      "outputs": [],
      "stateMutability": "nonpayable",
      "type": "function"
    },
    {
      "inputs": [
        {
          "internalType": "uint256",
          "name": "",
          "type": "uint256"
        }
      ],
      "name": "services",
      "outputs": [
        {
          "internalType": "enum ServiceRegistry.Status",
          "name": "status",
          "type": "uint8"
        },
        {
          "internalType": "uint256",
          "name": "buyerId",
          "type": "uint256"
        },
        {
          "internalType": "uint256",
          "name": "sellerId",
          "type": "uint256"
        },
        {
          "internalType": "uint256",
          "name": "initiatorId",
          "type": "uint256"
        },
        {
          "internalType": "string",
          "name": "serviceDataUri",
          "type": "string"
        },
        {
          "internalType": "uint256",
          "name": "countProposals",
          "type": "uint256"
        },
        {
          "internalType": "uint256",
          "name": "transactionId",
          "type": "uint256"
        },
        {
          "internalType": "uint256",
          "name": "platformId",
          "type": "uint256"
        }
      ],
      "stateMutability": "view",
      "type": "function"
    },
    {
      "inputs": [
        {
          "internalType": "bytes4",
          "name": "interfaceId",
          "type": "bytes4"
        }
      ],
      "name": "supportsInterface",
      "outputs": [
        {
          "internalType": "bool",
          "name": "",
          "type": "bool"
        }
      ],
      "stateMutability": "view",
      "type": "function"
    },
    {
      "inputs": [],
      "name": "talentLayerPlatformIdContract",
      "outputs": [
        {
          "internalType": "contract ITalentLayerPlatformID",
          "name": "",
          "type": "address"
        }
      ],
      "stateMutability": "view",
      "type": "function"
    },
    {
      "inputs": [
        {
          "internalType": "uint256",
          "name": "_serviceId",
          "type": "uint256"
        },
        {
          "internalType": "address",
          "name": "_rateToken",
          "type": "address"
        },
        {
          "internalType": "uint256",
          "name": "_rateAmount",
          "type": "uint256"
        },
        {
          "internalType": "string",
          "name": "_proposalDataUri",
          "type": "string"
        }
      ],
      "name": "updateProposal",
      "outputs": [],
      "stateMutability": "nonpayable",
      "type": "function"
    },
    {
      "inputs": [
        {
          "internalType": "uint256",
          "name": "_serviceId",
          "type": "uint256"
        },
        {
          "internalType": "uint256",
          "name": "_proposalId",
          "type": "uint256"
        }
      ],
      "name": "validateProposal",
      "outputs": [],
      "stateMutability": "nonpayable",
      "type": "function"
    }
  ],
  "bytecode": "0x6080604052600180553480156200001557600080fd5b5060405162002eda38038062002eda83398101604081905262000038916200014a565b600280546001600160a01b038085166001600160a01b0319928316179092556003805492841692909116919091179055620000756000336200007d565b505062000182565b6200008982826200008d565b5050565b6000828152602081815260408083206001600160a01b038516845290915290205460ff1662000089576000828152602081815260408083206001600160a01b03851684529091529020805460ff19166001179055620000e93390565b6001600160a01b0316816001600160a01b0316837f2f8788117e7eff1d82e926ec794901d17c78024a50270940304540a733656f0d60405160405180910390a45050565b80516001600160a01b03811681146200014557600080fd5b919050565b600080604083850312156200015e57600080fd5b62000169836200012d565b915062000179602084016200012d565b90509250929050565b612d4880620001926000396000f3fe608060405234801561001057600080fd5b50600436106101a95760003560e01c806380e9f4ed116100f9578063b254871311610097578063c2cfee2711610071578063c2cfee27146103da578063d547741f146103fe578063ef0e239b14610411578063f6c53d9b1461043157600080fd5b8063b25487131461038d578063b7f2bd77146103a0578063c22c4f43146103b357600080fd5b8063a217fddf116100d3578063a217fddf1461033f578063a7d5eaea14610347578063a8d9939d1461035a578063aba210091461036d57600080fd5b806380e9f4ed1461030657806386c4a1ae1461031957806391d148541461032c57600080fd5b8063477034da116101665780635bdc75b0116101405780635bdc75b0146102a65780635f03f4ba146102b95780636ce76f30146102cc57806372b8b404146102f357600080fd5b8063477034da1461026d57806349c6559c14610280578063572f9b391461029357600080fd5b806301ffc9a7146101ae57806304c7c4c8146101d65780631499f9e6146101eb578063248a9ca3146102165780632f2ff15d1461024757806336568abe1461025a575b600080fd5b6101c16101bc36600461248b565b61043a565b60405190151581526020015b60405180910390f35b6101e96101e43660046124b5565b610471565b005b6003546101fe906001600160a01b031681565b6040516001600160a01b0390911681526020016101cd565b6102396102243660046124d7565b60009081526020819052604090206001015490565b6040519081526020016101cd565b6101e961025536600461250c565b61066c565b6101e961026836600461250c565b610696565b6101e961027b3660046124b5565b610714565b6101e961028e3660046124d7565b61090f565b6101e96102a13660046124d7565b610955565b6101e96102b43660046124b5565b610b57565b6101e96102c7366004612581565b610cd6565b6102397f2fdac322ee704ce09f0773f7f3f92eb98d5e7c836ee9c056cccd5f61041e5e3f81565b6101e96103013660046124d7565b6110a1565b6102396103143660046125e9565b611212565b6102396103273660046125e9565b611367565b6101c161033a36600461250c565b6114ae565b610239600081565b6101e961035536600461263c565b6114d7565b6101e9610368366004612581565b61154e565b61038061037b3660046124b5565b6117bc565b6040516101cd91906126ee565b6101e961039b3660046124d7565b61190d565b6102396103ae366004612740565b611a9c565b6103c66103c13660046124d7565b611b91565b6040516101cd98979695949392919061279c565b6103ed6103e83660046124b5565b611c60565b6040516101cd9594939291906127f0565b6101e961040c36600461250c565b611d32565b61042461041f3660046124d7565b611d57565b6040516101cd9190612835565b61023960015481565b60006001600160e01b03198216637965db0b60e01b148061046b57506301ffc9a760e01b6001600160e01b03198316145b92915050565b6000828152600460208190526040808320600254915162438b6360e81b8152339381019390935292916001600160a01b039091169063438b63009060240160206040518083038186803b1580156104c757600080fd5b505afa1580156104db573d6000803e3d6000fd5b505050506040513d601f19601f820116820180604052508101906104ff91906128ad565b90506004825460ff16600481111561051957610519612668565b148061053a57506003825460ff16600481111561053857610538612668565b145b6105975760405162461bcd60e51b8152602060048201526024808201527f536572766963652068617320746f206265204f70656e6564206f722052656a6560448201526318dd195960e21b60648201526084015b60405180910390fd5b816001015481146105f65760405162461bcd60e51b815260206004820152602360248201527f596f75277265206e6f7420616e206275796572206f662074686973207365727660448201526269636560e81b606482015260840161058e565b816001015483141561061a5760405162461bcd60e51b815260040161058e906128c6565b60028201839055815460ff191682556040517f971e8551958753bddb720490981e7feefe759d725cdb641319cc21257bc17a159061065e9086908690600090612908565b60405180910390a150505050565b60008281526020819052604090206001015461068781611f10565b6106918383611f1d565b505050565b6001600160a01b03811633146107065760405162461bcd60e51b815260206004820152602f60248201527f416363657373436f6e74726f6c3a2063616e206f6e6c792072656e6f756e636560448201526e103937b632b9903337b91039b2b63360891b606482015260840161058e565b6107108282611fa1565b5050565b60025460405162438b6360e81b81523360048201526000916001600160a01b03169063438b63009060240160206040518083038186803b15801561075757600080fd5b505afa15801561076b573d6000803e3d6000fd5b505050506040513d601f19601f8201168201806040525081019061078f91906128ad565b9050600081116107b15760405162461bcd60e51b815260040161058e90612923565b6000838152600460209081526040808320600583528184208685529092529091206001815460ff1660028111156107ea576107ea612668565b14156108085760405162461bcd60e51b815260040161058e9061295a565b6002815460ff16600281111561082057610820612668565b14156108795760405162461bcd60e51b815260206004820152602260248201527f50726f706f73616c2068617320616c7265616479206265656e2072656a656374604482015261195960f21b606482015260840161058e565b816001015483146108c35760405162461bcd60e51b81526020600482015260146024820152732cb7ba93b932903737ba103a343290313abcb2b960611b604482015260640161058e565b805460ff1916600217815560408051868152602081018690527ffa74c17c82b1d1960368a621d45c9afe55e65c87a2c9fe612ac7e36c382b3f7891015b60405180910390a15050505050565b7f2fdac322ee704ce09f0773f7f3f92eb98d5e7c836ee9c056cccd5f61041e5e3f61093981611f10565b506000908152600460205260409020805460ff19166002179055565b6000818152600460208190526040808320600254915162438b6360e81b8152339381019390935292916001600160a01b039091169063438b63009060240160206040518083038186803b1580156109ab57600080fd5b505afa1580156109bf573d6000803e3d6000fd5b505050506040513d601f19601f820116820180604052508101906109e391906128ad565b90506000825460ff1660048111156109fd576109fd612668565b14610a555760405162461bcd60e51b815260206004820152602260248201527f536572766963652068617320616c7265616479206265656e20636f6e6669726d604482015261195960f21b606482015260840161058e565b8160010154811480610a6a5750816002015481145b610a865760405162461bcd60e51b815260040161058e9061299d565b8160030154811415610b005760405162461bcd60e51b815260206004820152603b60248201527f4f6e6c792074686520757365722077686f206469646e277420696e697461746560448201527f2074686520736572766963652063616e20636f6e6669726d2069740000000000606482015260840161058e565b815460ff19166001908117835582015460028301546040517f8382f22d8c9b56f3ce8ac2770ff186b1e2c121d65acfead76c2ff5baf707fbac92610b4a9287926004880190612a1b565b60405180910390a1505050565b60025460405162438b6360e81b81523360048201526000916001600160a01b03169063438b63009060240160206040518083038186803b158015610b9a57600080fd5b505afa158015610bae573d6000803e3d6000fd5b505050506040513d601f19601f82011682018060405250810190610bd291906128ad565b905060008111610bf45760405162461bcd60e51b815260040161058e90612923565b6000838152600460209081526040808320600583528184208685529092529091206001815460ff166002811115610c2d57610c2d612668565b1415610c4b5760405162461bcd60e51b815260040161058e9061295a565b81600101548314610c955760405162461bcd60e51b81526020600482015260146024820152732cb7ba93b932903737ba103a343290313abcb2b960611b604482015260640161058e565b805460ff1916600117815560408051868152602081018690527f03a3b4a747d115189175e375b6c6ccd9dcdacdf7b4369aa5d8c3b8afda8ca2959101610900565b60025460405162438b6360e81b81523360048201526000916001600160a01b03169063438b63009060240160206040518083038186803b158015610d1957600080fd5b505afa158015610d2d573d6000803e3d6000fd5b505050506040513d601f19601f82011682018060405250810190610d5191906128ad565b905060008111610d735760405162461bcd60e51b815260040161058e90612923565b600086815260046020819052604090912090815460ff166004811115610d9b57610d9b612668565b14610de05760405162461bcd60e51b815260206004820152601560248201527414d95c9d9a58d9481a5cc81b9bdd081bdc195b9959605a1b604482015260640161058e565b6000878152600560209081526040808320858452909152902060010154821415610e645760405162461bcd60e51b815260206004820152602f60248201527f596f7520616c7265616479206372656174656420612070726f706f73616c206660448201526e6f722074686973207365727669636560881b606482015260840161058e565b6028816005015410610eb85760405162461bcd60e51b815260206004820152601b60248201527f4d61782070726f706f73616c7320636f756e7420726561636865640000000000604482015260640161058e565b8181600101541415610f265760405162461bcd60e51b815260206004820152603160248201527f596f7520636f756c646e2774206372656174652070726f706f73616c20666f7260448201527020796f7572206f776e207365727669636560781b606482015260840161058e565b82610f435760405162461bcd60e51b815260040161058e90612ada565b600581018054906000610f5583612b27565b90915550506040805160a081019091528060008152602001838152602001876001600160a01b0316815260200186815260200185858080601f016020809104026020016040519081016040528093929190818152602001838380828437600092018290525093909452505089815260056020908152604080832087845290915290208251815491925090829060ff19166001836002811115610ff957610ff9612668565b0217905550602082810151600183015560408301516002830180546001600160a01b0319166001600160a01b039092169190911790556060830151600383015560808301518051611050926004850192019061237e565b509050507fd56b812321b2869d7d3fe7c8f52e85169e580ffc706d0c33ba13145fe39cd53c8783868660008b8b6040516110909796959493929190612b6b565b60405180910390a150505050505050565b6000818152600460208190526040808320600254915162438b6360e81b8152339381019390935292916001600160a01b039091169063438b63009060240160206040518083038186803b1580156110f757600080fd5b505afa15801561110b573d6000803e3d6000fd5b505050506040513d601f19601f8201168201806040525081019061112f91906128ad565b905081600101548114806111465750816002015481145b6111625760405162461bcd60e51b815260040161058e9061299d565b6001825460ff16600481111561117a5761117a612668565b146111c75760405162461bcd60e51b815260206004820152601d60248201527f596f752063616e27742066696e69736820746869732073657276696365000000604482015260640161058e565b815460ff1916600290811783556001830154908301546040517fa7d8eb548357df7a0a878dfd462e7a4ed7f3afa661b45d5352f55d95e27cddbe92610b4a9287926004880190612a1b565b60008084116112715760405162461bcd60e51b815260206004820152602560248201527f53656c6c65722030206973206e6f7420612076616c69642054616c656e744c616044820152641e595c925960da1b606482015260840161058e565b60035460405162f577a560e81b8152600481018790526001600160a01b039091169063f577a5009060240160006040518083038186803b1580156112b457600080fd5b505afa1580156112c8573d6000803e3d6000fd5b505060025460405162438b6360e81b8152336004820152600093506001600160a01b03909116915063438b63009060240160206040518083038186803b15801561131157600080fd5b505afa158015611325573d6000803e3d6000fd5b505050506040513d601f19601f8201168201806040525081019061134991906128ad565b905061135b600082838888888c612006565b9150505b949350505050565b60008084116113c45760405162461bcd60e51b8152602060048201526024808201527f42757965722030206973206e6f7420612076616c69642054616c656e744c6179604482015263195c925960e21b606482015260840161058e565b60035460405162f577a560e81b8152600481018790526001600160a01b039091169063f577a5009060240160006040518083038186803b15801561140757600080fd5b505afa15801561141b573d6000803e3d6000fd5b505060025460405162438b6360e81b8152336004820152600093506001600160a01b03909116915063438b63009060240160206040518083038186803b15801561146457600080fd5b505afa158015611478573d6000803e3d6000fd5b505050506040513d601f19601f8201168201806040525081019061149c91906128ad565b905061135b600082878488888c612006565b6000918252602082815260408084206001600160a01b0393909316845291905290205460ff1690565b7f2fdac322ee704ce09f0773f7f3f92eb98d5e7c836ee9c056cccd5f61041e5e3f61150181611f10565b50600092835260046020908152604080852060058352818620948652939091529092208154600160ff19918216811784558083015460028501556006909301939093558054909216179055565b60025460405162438b6360e81b81523360048201526000916001600160a01b03169063438b63009060240160206040518083038186803b15801561159157600080fd5b505afa1580156115a5573d6000803e3d6000fd5b505050506040513d601f19601f820116820180604052508101906115c991906128ad565b9050600081116115eb5760405162461bcd60e51b815260040161058e90612923565b60008681526004602081815260408084206005835281852086865290925290922090825460ff16600481111561162357611623612668565b146116685760405162461bcd60e51b815260206004820152601560248201527414d95c9d9a58d9481a5cc81b9bdd081bdc195b9959605a1b604482015260640161058e565b828160010154146116bb5760405162461bcd60e51b815260206004820152601f60248201527f546869732070726f706f73616c20646f65736e27742065786973742079657400604482015260640161058e565b836116d85760405162461bcd60e51b815260040161058e90612ada565b6001815460ff1660028111156116f0576116f0612668565b141561173e5760405162461bcd60e51b815260206004820181905260248201527f546869732070726f706f73616c20697320616c72656164792075706461746564604482015260640161058e565b6002810180546001600160a01b0319166001600160a01b03891617905560038101869055611770600482018686612402565b507f5cf385c7cf3e1609443b09191511540e030254887cccb510dfface4c041b6c55888487878b8b6040516117aa96959493929190612bb8565b60405180910390a15050505050505050565b6117f86040805160a0810190915280600081526020016000815260200160006001600160a01b0316815260200160008152602001606081525090565b600083815260056020908152604080832085845290915290819020815160a081019092528054829060ff16600281111561183457611834612668565b600281111561184557611845612668565b81526001820154602082015260028201546001600160a01b0316604082015260038201546060820152600482018054608090920191611883906129e0565b80601f01602080910402602001604051908101604052809291908181526020018280546118af906129e0565b80156118fc5780601f106118d1576101008083540402835291602001916118fc565b820191906000526020600020905b8154815290600101906020018083116118df57829003601f168201915b505050505081525050905092915050565b6000818152600460208190526040808320600254915162438b6360e81b8152339381019390935292916001600160a01b039091169063438b63009060240160206040518083038186803b15801561196357600080fd5b505afa158015611977573d6000803e3d6000fd5b505050506040513d601f19601f8201168201806040525081019061199b91906128ad565b905081600101548114806119b25750816002015481145b6119ce5760405162461bcd60e51b815260040161058e9061299d565b6000825460ff1660048111156119e6576119e6612668565b1480611a0757506004825460ff166004811115611a0557611a05612668565b145b611a535760405162461bcd60e51b815260206004820152601d60248201527f596f752063616e27742072656a65637420746869732073657276696365000000604482015260640161058e565b815460ff19166003178255600182015460028301546040517e896eda5a3e9278a06a993b36dc19aef976d54fcfcdcf5b7b053f67bdb6929592610b4a9287926004880190612a1b565b60035460405162f577a560e81b8152600481018590526000916001600160a01b03169063f577a5009060240160006040518083038186803b158015611ae057600080fd5b505afa158015611af4573d6000803e3d6000fd5b505060025460405162438b6360e81b8152336004820152600093506001600160a01b03909116915063438b63009060240160206040518083038186803b158015611b3d57600080fd5b505afa158015611b51573d6000803e3d6000fd5b505050506040513d601f19601f82011682018060405250810190611b7591906128ad565b9050611b8860048283600088888b612006565b95945050505050565b60046020819052600091825260409091208054600182015460028301546003840154948401805460ff9094169592949193611bcb906129e0565b80601f0160208091040260200160405190810160405280929190818152602001828054611bf7906129e0565b8015611c445780601f10611c1957610100808354040283529160200191611c44565b820191906000526020600020905b815481529060010190602001808311611c2757829003601f168201915b5050505050908060050154908060060154908060070154905088565b60056020908152600092835260408084209091529082529020805460018201546002830154600384015460048501805460ff9095169593946001600160a01b03909316939192611caf906129e0565b80601f0160208091040260200160405190810160405280929190818152602001828054611cdb906129e0565b8015611d285780601f10611cfd57610100808354040283529160200191611d28565b820191906000526020600020905b815481529060010190602001808311611d0b57829003601f168201915b5050505050905085565b600082815260208190526040902060010154611d4d81611f10565b6106918383611fa1565b611da06040805161010081019091528060008152602001600081526020016000815260200160008152602001606081526020016000815260200160008152602001600081525090565b6001548210611df15760405162461bcd60e51b815260206004820152601a60248201527f54686973207365727669636520646f65736e2774206578697374000000000000604482015260640161058e565b6000828152600460208190526040918290208251610100810190935280549091839160ff1690811115611e2657611e26612668565b6004811115611e3757611e37612668565b8152602001600182015481526020016002820154815260200160038201548152602001600482018054611e69906129e0565b80601f0160208091040260200160405190810160405280929190818152602001828054611e95906129e0565b8015611ee25780601f10611eb757610100808354040283529160200191611ee2565b820191906000526020600020905b815481529060010190602001808311611ec557829003601f168201915b5050505050815260200160058201548152602001600682015481526020016007820154815250509050919050565b611f1a8133612177565b50565b611f2782826114ae565b610710576000828152602081815260408083206001600160a01b03851684529091529020805460ff19166001179055611f5d3390565b6001600160a01b0316816001600160a01b0316837f2f8788117e7eff1d82e926ec794901d17c78024a50270940304540a733656f0d60405160405180910390a45050565b611fab82826114ae565b15610710576000828152602081815260408083206001600160a01b0385168085529252808320805460ff1916905551339285917ff6391f5c32d9c69d2a47ea670b442974b53935d1edc7fd64eb21e047a839171b9190a45050565b6000858514156120285760405162461bcd60e51b815260040161058e906128c6565b600087116120485760405162461bcd60e51b815260040161058e90612923565b826120655760405162461bcd60e51b815260040161058e90612ada565b60018054908190600061207783612b27565b90915550506000818152600460208190526040909120805490918b91839160ff199091169060019084908111156120b0576120b0612668565b02179055506001810188905560028101879055600381018990556120d8600482018787612402565b506007810184905560408051838152602081018a9052908101889052606081018a9052608081018590527f9cd325e0ba2126728b21176b4b24c49c672e66820627759eedcab6b5dd7dac499060a00160405180910390a17f4874366e887bb729d49976a8f6751c4263d1668fd396db9b8d5f037895e7a74582878760405161216293929190612bf6565b60405180910390a15098975050505050505050565b61218182826114ae565b61071057612199816001600160a01b031660146121db565b6121a48360206121db565b6040516020016121b5929190612c10565b60408051601f198184030181529082905262461bcd60e51b825261058e91600401612c85565b606060006121ea836002612c98565b6121f5906002612cb7565b67ffffffffffffffff81111561220d5761220d612ccf565b6040519080825280601f01601f191660200182016040528015612237576020820181803683370190505b509050600360fc1b8160008151811061225257612252612ce5565b60200101906001600160f81b031916908160001a905350600f60fb1b8160018151811061228157612281612ce5565b60200101906001600160f81b031916908160001a90535060006122a5846002612c98565b6122b0906001612cb7565b90505b6001811115612328576f181899199a1a9b1b9c1cb0b131b232b360811b85600f16601081106122e4576122e4612ce5565b1a60f81b8282815181106122fa576122fa612ce5565b60200101906001600160f81b031916908160001a90535060049490941c9361232181612cfb565b90506122b3565b5083156123775760405162461bcd60e51b815260206004820181905260248201527f537472696e67733a20686578206c656e67746820696e73756666696369656e74604482015260640161058e565b9392505050565b82805461238a906129e0565b90600052602060002090601f0160209004810192826123ac57600085556123f2565b82601f106123c557805160ff19168380011785556123f2565b828001600101855582156123f2579182015b828111156123f25782518255916020019190600101906123d7565b506123fe929150612476565b5090565b82805461240e906129e0565b90600052602060002090601f01602090048101928261243057600085556123f2565b82601f106124495782800160ff198235161785556123f2565b828001600101855582156123f2579182015b828111156123f257823582559160200191906001019061245b565b5b808211156123fe5760008155600101612477565b60006020828403121561249d57600080fd5b81356001600160e01b03198116811461237757600080fd5b600080604083850312156124c857600080fd5b50508035926020909101359150565b6000602082840312156124e957600080fd5b5035919050565b80356001600160a01b038116811461250757600080fd5b919050565b6000806040838503121561251f57600080fd5b8235915061252f602084016124f0565b90509250929050565b60008083601f84011261254a57600080fd5b50813567ffffffffffffffff81111561256257600080fd5b60208301915083602082850101111561257a57600080fd5b9250929050565b60008060008060006080868803121561259957600080fd5b853594506125a9602087016124f0565b935060408601359250606086013567ffffffffffffffff8111156125cc57600080fd5b6125d888828901612538565b969995985093965092949392505050565b600080600080606085870312156125ff57600080fd5b8435935060208501359250604085013567ffffffffffffffff81111561262457600080fd5b61263087828801612538565b95989497509550505050565b60008060006060848603121561265157600080fd5b505081359360208301359350604090920135919050565b634e487b7160e01b600052602160045260246000fd5b6003811061268e5761268e612668565b9052565b60005b838110156126ad578181015183820152602001612695565b838111156126bc576000848401525b50505050565b600081518084526126da816020860160208601612692565b601f01601f19169290920160200192915050565b6020815261270060208201835161267e565b6020820151604082015260018060a01b036040830151166060820152606082015160808201526000608083015160a08084015261135f60c08401826126c2565b60008060006040848603121561275557600080fd5b83359250602084013567ffffffffffffffff81111561277357600080fd5b61277f86828701612538565b9497909650939450505050565b6005811061268e5761268e612668565b60006101006127ab838c61278c565b8960208401528860408401528760608401528060808401526127cf818401886126c2565b60a0840196909652505060c081019290925260e09091015295945050505050565b6127fa818761267e565b84602082015260018060a01b038416604082015282606082015260a06080820152600061282a60a08301846126c2565b979650505050505050565b6020815261284760208201835161278c565b602082015160408201526040820151606082015260608201516080820152600060808301516101008060a08501526128836101208501836126c2565b915060a085015160c085015260c085015160e085015260e085015181850152508091505092915050565b6000602082840312156128bf57600080fd5b5051919050565b60208082526022908201527f53656c6c657220616e642062757965722063616e2774206265207468652073616040820152616d6560f01b606082015260800190565b838152602081018390526060810161135f604083018461278c565b6020808252601e908201527f596f7520736f756c64206861766520612054616c656e744c6179657249640000604082015260600190565b60208082526023908201527f50726f706f73616c2068617320616c7265616479206265656e2076616c6964616040820152621d195960ea1b606082015260800190565b60208082526023908201527f596f75277265206e6f7420616e206163746f72206f662074686973207365727660408201526269636560e81b606082015260800190565b600181811c908216806129f457607f821691505b60208210811415612a1557634e487b7160e01b600052602260045260246000fd5b50919050565b848152600060208581840152846040840152608060608401526000845481600182811c915080831680612a4f57607f831692505b858310811415612a6d57634e487b7160e01b85526022600452602485fd5b6080880183905260a08801818015612a8c5760018114612a9d57612ac8565b60ff19861682528782019650612ac8565b60008b81526020902060005b86811015612ac257815484820152908501908901612aa9565b83019750505b50949c9b505050505050505050505050565b6020808252601f908201527f53686f756c642070726f7669646520612076616c696420495046532055524900604082015260600190565b634e487b7160e01b600052601160045260246000fd5b6000600019821415612b3b57612b3b612b11565b5060010190565b81835281816020850137506000828201602090810191909152601f909101601f19169091010190565b87815286602082015260c060408201526000612b8b60c083018789612b42565b9050612b9a606083018661267e565b6001600160a01b0393909316608082015260a0015295945050505050565b86815285602082015260a060408201526000612bd860a083018688612b42565b6001600160a01b039490941660608301525060800152949350505050565b838152604060208201526000611b88604083018486612b42565b7f416363657373436f6e74726f6c3a206163636f756e7420000000000000000000815260008351612c48816017850160208801612692565b7001034b99036b4b9b9b4b733903937b6329607d1b6017918401918201528351612c79816028840160208801612692565b01602801949350505050565b60208152600061237760208301846126c2565b6000816000190483118215151615612cb257612cb2612b11565b500290565b60008219821115612cca57612cca612b11565b500190565b634e487b7160e01b600052604160045260246000fd5b634e487b7160e01b600052603260045260246000fd5b600081612d0a57612d0a612b11565b50600019019056fea264697066735822122051c9e390a5e2f7cfefd8cdcadde4cd13f0f88227b923d3f2c4230b74116c365164736f6c63430008090033",
  "linkReferences": {},
  "deployedLinkReferences": {}
}