{
  "_format": "hh-sol-artifact-1",
  "contractName": "ServiceRegistry",
  "sourceName": "contracts/ServiceRegistry.sol",
  "abi": [
    {
      "inputs": [],
      "stateMutability": "nonpayable",
      "type": "constructor"
    },
    {
      "anonymous": false,
      "inputs": [
        {
          "indexed": false,
          "internalType": "address",
          "name": "previousAdmin",
          "type": "address"
        },
        {
          "indexed": false,
          "internalType": "address",
          "name": "newAdmin",
          "type": "address"
        }
      ],
      "name": "AdminChanged",
      "type": "event"
    },
    {
      "anonymous": false,
      "inputs": [
        {
          "indexed": false,
          "internalType": "address",
          "name": "_tokenAddress",
          "type": "address"
        },
        {
          "indexed": false,
          "internalType": "bool",
          "name": "_status",
          "type": "bool"
        }
      ],
      "name": "AllowedTokenListUpdated",
      "type": "event"
    },
    {
      "anonymous": false,
      "inputs": [
        {
          "indexed": true,
          "internalType": "address",
          "name": "beacon",
          "type": "address"
        }
      ],
      "name": "BeaconUpgraded",
      "type": "event"
    },
    {
      "anonymous": false,
      "inputs": [
        {
          "indexed": false,
          "internalType": "uint8",
          "name": "version",
          "type": "uint8"
        }
      ],
      "name": "Initialized",
      "type": "event"
    },
    {
      "anonymous": false,
      "inputs": [
        {
          "indexed": true,
          "internalType": "address",
          "name": "previousOwner",
          "type": "address"
        },
        {
          "indexed": true,
          "internalType": "address",
          "name": "newOwner",
          "type": "address"
        }
      ],
      "name": "OwnershipTransferred",
      "type": "event"
    },
    {
      "anonymous": false,
      "inputs": [
        {
          "indexed": false,
          "internalType": "uint256",
          "name": "serviceId",
          "type": "uint256"
        },
        {
          "indexed": false,
          "internalType": "uint256",
          "name": "sellerId",
          "type": "uint256"
        },
        {
          "indexed": false,
          "internalType": "string",
          "name": "proposalDataUri",
          "type": "string"
        },
        {
          "indexed": false,
          "internalType": "enum ServiceRegistry.ProposalStatus",
          "name": "status",
          "type": "uint8"
        },
        {
          "indexed": false,
          "internalType": "address",
          "name": "rateToken",
          "type": "address"
        },
        {
          "indexed": false,
          "internalType": "uint256",
          "name": "rateAmount",
          "type": "uint256"
        },
        {
          "indexed": false,
          "internalType": "uint16",
          "name": "originProposalCreationPlatformId",
          "type": "uint16"
        }
      ],
      "name": "ProposalCreated",
      "type": "event"
    },
    {
      "anonymous": false,
      "inputs": [
        {
          "indexed": false,
          "internalType": "uint256",
          "name": "serviceId",
          "type": "uint256"
        },
        {
          "indexed": false,
          "internalType": "uint256",
          "name": "sellerId",
          "type": "uint256"
        }
      ],
      "name": "ProposalRejected",
      "type": "event"
    },
    {
      "anonymous": false,
      "inputs": [
        {
          "indexed": false,
          "internalType": "uint256",
          "name": "serviceId",
          "type": "uint256"
        },
        {
          "indexed": false,
          "internalType": "uint256",
          "name": "sellerId",
          "type": "uint256"
        },
        {
          "indexed": false,
          "internalType": "string",
          "name": "proposalDataUri",
          "type": "string"
        },
        {
          "indexed": false,
          "internalType": "address",
          "name": "rateToken",
          "type": "address"
        },
        {
          "indexed": false,
          "internalType": "uint256",
          "name": "rateAmount",
          "type": "uint256"
        }
      ],
      "name": "ProposalUpdated",
      "type": "event"
    },
    {
      "anonymous": false,
      "inputs": [
        {
          "indexed": false,
          "internalType": "uint256",
          "name": "serviceId",
          "type": "uint256"
        },
        {
          "indexed": false,
          "internalType": "uint256",
          "name": "sellerId",
          "type": "uint256"
        }
      ],
      "name": "ProposalValidated",
      "type": "event"
    },
    {
      "anonymous": false,
      "inputs": [
        {
          "indexed": true,
          "internalType": "bytes32",
          "name": "role",
          "type": "bytes32"
        },
        {
          "indexed": true,
          "internalType": "bytes32",
          "name": "previousAdminRole",
          "type": "bytes32"
        },
        {
          "indexed": true,
          "internalType": "bytes32",
          "name": "newAdminRole",
          "type": "bytes32"
        }
      ],
      "name": "RoleAdminChanged",
      "type": "event"
    },
    {
      "anonymous": false,
      "inputs": [
        {
          "indexed": true,
          "internalType": "bytes32",
          "name": "role",
          "type": "bytes32"
        },
        {
          "indexed": true,
          "internalType": "address",
          "name": "account",
          "type": "address"
        },
        {
          "indexed": true,
          "internalType": "address",
          "name": "sender",
          "type": "address"
        }
      ],
      "name": "RoleGranted",
      "type": "event"
    },
    {
      "anonymous": false,
      "inputs": [
        {
          "indexed": true,
          "internalType": "bytes32",
          "name": "role",
          "type": "bytes32"
        },
        {
          "indexed": true,
          "internalType": "address",
          "name": "account",
          "type": "address"
        },
        {
          "indexed": true,
          "internalType": "address",
          "name": "sender",
          "type": "address"
        }
      ],
      "name": "RoleRevoked",
      "type": "event"
    },
    {
      "anonymous": false,
      "inputs": [
        {
          "indexed": false,
          "internalType": "uint256",
          "name": "id",
          "type": "uint256"
        },
        {
          "indexed": false,
          "internalType": "uint256",
          "name": "buyerId",
          "type": "uint256"
        },
        {
          "indexed": false,
          "internalType": "uint256",
          "name": "sellerId",
          "type": "uint256"
        },
        {
          "indexed": false,
          "internalType": "uint256",
          "name": "initiatorId",
          "type": "uint256"
        },
        {
          "indexed": false,
          "internalType": "uint256",
          "name": "platformId",
          "type": "uint256"
        }
      ],
      "name": "ServiceCreated",
      "type": "event"
    },
    {
      "anonymous": false,
      "inputs": [
        {
          "indexed": false,
          "internalType": "uint256",
          "name": "id",
          "type": "uint256"
        },
        {
          "indexed": false,
          "internalType": "string",
          "name": "serviceDataUri",
          "type": "string"
        }
      ],
      "name": "ServiceDataCreated",
      "type": "event"
    },
    {
      "anonymous": false,
      "inputs": [
        {
          "indexed": true,
          "internalType": "uint256",
          "name": "id",
          "type": "uint256"
        },
        {
          "indexed": false,
          "internalType": "string",
          "name": "newServiceDataUri",
          "type": "string"
        }
      ],
      "name": "ServiceDetailedUpdated",
      "type": "event"
    },
    {
      "anonymous": false,
      "inputs": [
        {
          "indexed": true,
          "internalType": "address",
          "name": "implementation",
          "type": "address"
        }
      ],
      "name": "Upgraded",
      "type": "event"
    },
    {
      "inputs": [],
      "name": "DEFAULT_ADMIN_ROLE",
      "outputs": [
        {
          "internalType": "bytes32",
          "name": "",
          "type": "bytes32"
        }
      ],
      "stateMutability": "view",
      "type": "function"
    },
    {
      "inputs": [],
      "name": "ESCROW_ROLE",
      "outputs": [
        {
          "internalType": "bytes32",
          "name": "",
          "type": "bytes32"
        }
      ],
      "stateMutability": "view",
      "type": "function"
    },
    {
      "inputs": [
        {
          "internalType": "uint256",
          "name": "_serviceId",
          "type": "uint256"
        },
        {
          "internalType": "uint256",
          "name": "_proposalId",
          "type": "uint256"
        },
        {
          "internalType": "uint256",
          "name": "_transactionId",
          "type": "uint256"
        }
      ],
      "name": "afterDeposit",
      "outputs": [],
      "stateMutability": "nonpayable",
      "type": "function"
    },
    {
      "inputs": [
        {
          "internalType": "uint256",
          "name": "_serviceId",
          "type": "uint256"
        }
      ],
      "name": "afterFullPayment",
      "outputs": [],
      "stateMutability": "nonpayable",
      "type": "function"
    },
    {
      "inputs": [
        {
          "internalType": "address",
          "name": "",
          "type": "address"
        }
      ],
      "name": "allowedTokens",
      "outputs": [
        {
          "internalType": "bool",
          "name": "",
          "type": "bool"
        }
      ],
      "stateMutability": "view",
      "type": "function"
    },
    {
      "inputs": [
        {
          "internalType": "uint256",
          "name": "_platformId",
          "type": "uint256"
        },
        {
          "internalType": "string",
          "name": "_serviceDataUri",
          "type": "string"
        }
      ],
      "name": "createOpenServiceFromBuyer",
      "outputs": [
        {
          "internalType": "uint256",
          "name": "",
          "type": "uint256"
        }
      ],
      "stateMutability": "nonpayable",
      "type": "function"
    },
    {
      "inputs": [
        {
          "internalType": "uint256",
          "name": "_serviceId",
          "type": "uint256"
        },
        {
          "internalType": "address",
          "name": "_rateToken",
          "type": "address"
        },
        {
          "internalType": "uint256",
          "name": "_rateAmount",
          "type": "uint256"
        },
        {
          "internalType": "uint16",
          "name": "_originProposalCreationPlatformId",
          "type": "uint16"
        },
        {
          "internalType": "string",
          "name": "_proposalDataUri",
          "type": "string"
        }
      ],
      "name": "createProposal",
      "outputs": [],
      "stateMutability": "nonpayable",
      "type": "function"
    },
    {
      "inputs": [
        {
          "internalType": "uint256",
          "name": "_serviceId",
          "type": "uint256"
        },
        {
          "internalType": "uint256",
          "name": "_proposalId",
          "type": "uint256"
        }
      ],
      "name": "getProposal",
      "outputs": [
        {
          "components": [
            {
              "internalType": "enum ServiceRegistry.ProposalStatus",
              "name": "status",
              "type": "uint8"
            },
            {
              "internalType": "uint256",
              "name": "sellerId",
              "type": "uint256"
            },
            {
              "internalType": "address",
              "name": "rateToken",
              "type": "address"
            },
            {
              "internalType": "uint256",
              "name": "rateAmount",
              "type": "uint256"
            },
            {
              "internalType": "uint16",
              "name": "originProposalCreationPlatformId",
              "type": "uint16"
            },
            {
              "internalType": "string",
              "name": "proposalDataUri",
              "type": "string"
            }
          ],
          "internalType": "struct ServiceRegistry.Proposal",
          "name": "",
          "type": "tuple"
        }
      ],
      "stateMutability": "view",
      "type": "function"
    },
    {
      "inputs": [
        {
          "internalType": "bytes32",
          "name": "role",
          "type": "bytes32"
        }
      ],
      "name": "getRoleAdmin",
      "outputs": [
        {
          "internalType": "bytes32",
          "name": "",
          "type": "bytes32"
        }
      ],
      "stateMutability": "view",
      "type": "function"
    },
    {
      "inputs": [
        {
          "internalType": "uint256",
          "name": "_serviceId",
          "type": "uint256"
        }
      ],
      "name": "getService",
      "outputs": [
        {
          "components": [
            {
              "internalType": "enum ServiceRegistry.Status",
              "name": "status",
              "type": "uint8"
            },
            {
              "internalType": "uint256",
              "name": "buyerId",
              "type": "uint256"
            },
            {
              "internalType": "uint256",
              "name": "sellerId",
              "type": "uint256"
            },
            {
              "internalType": "uint256",
              "name": "initiatorId",
              "type": "uint256"
            },
            {
              "internalType": "string",
              "name": "serviceDataUri",
              "type": "string"
            },
            {
              "internalType": "uint256",
              "name": "countProposals",
              "type": "uint256"
            },
            {
              "internalType": "uint256",
              "name": "transactionId",
              "type": "uint256"
            },
            {
              "internalType": "uint256",
              "name": "originServiceCreationPlatformId",
              "type": "uint256"
            }
          ],
          "internalType": "struct ServiceRegistry.Service",
          "name": "",
          "type": "tuple"
        }
      ],
      "stateMutability": "view",
      "type": "function"
    },
    {
      "inputs": [
        {
          "internalType": "bytes32",
          "name": "role",
          "type": "bytes32"
        },
        {
          "internalType": "address",
          "name": "account",
          "type": "address"
        }
      ],
      "name": "grantRole",
      "outputs": [],
      "stateMutability": "nonpayable",
      "type": "function"
    },
    {
      "inputs": [
        {
          "internalType": "bytes32",
          "name": "role",
          "type": "bytes32"
        },
        {
          "internalType": "address",
          "name": "account",
          "type": "address"
        }
      ],
      "name": "hasRole",
      "outputs": [
        {
          "internalType": "bool",
          "name": "",
          "type": "bool"
        }
      ],
      "stateMutability": "view",
      "type": "function"
    },
    {
      "inputs": [
        {
          "internalType": "address",
          "name": "_talentLayerIdAddress",
          "type": "address"
        },
        {
          "internalType": "address",
          "name": "_talentLayerPlatformIdAddress",
          "type": "address"
        }
      ],
      "name": "initialize",
      "outputs": [],
      "stateMutability": "nonpayable",
      "type": "function"
    },
    {
      "inputs": [
        {
          "internalType": "address",
          "name": "_tokenAddress",
          "type": "address"
        }
      ],
      "name": "isTokenAllowed",
      "outputs": [
        {
          "internalType": "bool",
          "name": "",
          "type": "bool"
        }
      ],
      "stateMutability": "view",
      "type": "function"
    },
    {
      "inputs": [],
      "name": "nextServiceId",
      "outputs": [
        {
          "internalType": "uint256",
          "name": "",
          "type": "uint256"
        }
      ],
      "stateMutability": "view",
      "type": "function"
    },
    {
      "inputs": [],
      "name": "owner",
      "outputs": [
        {
          "internalType": "address",
          "name": "",
          "type": "address"
        }
      ],
      "stateMutability": "view",
      "type": "function"
    },
    {
      "inputs": [
        {
          "internalType": "uint256",
          "name": "",
          "type": "uint256"
        },
        {
          "internalType": "uint256",
          "name": "",
          "type": "uint256"
        }
      ],
      "name": "proposals",
      "outputs": [
        {
          "internalType": "enum ServiceRegistry.ProposalStatus",
          "name": "status",
          "type": "uint8"
        },
        {
          "internalType": "uint256",
          "name": "sellerId",
          "type": "uint256"
        },
        {
          "internalType": "address",
          "name": "rateToken",
          "type": "address"
        },
        {
          "internalType": "uint256",
          "name": "rateAmount",
          "type": "uint256"
        },
        {
          "internalType": "uint16",
          "name": "originProposalCreationPlatformId",
          "type": "uint16"
        },
        {
          "internalType": "string",
          "name": "proposalDataUri",
          "type": "string"
        }
      ],
      "stateMutability": "view",
      "type": "function"
    },
    {
      "inputs": [],
      "name": "proxiableUUID",
      "outputs": [
        {
          "internalType": "bytes32",
          "name": "",
          "type": "bytes32"
        }
      ],
      "stateMutability": "view",
      "type": "function"
    },
    {
      "inputs": [
        {
          "internalType": "uint256",
          "name": "_serviceId",
          "type": "uint256"
        },
        {
          "internalType": "uint256",
          "name": "_proposalId",
          "type": "uint256"
        }
      ],
      "name": "rejectProposal",
      "outputs": [],
      "stateMutability": "nonpayable",
      "type": "function"
    },
    {
      "inputs": [],
      "name": "renounceOwnership",
      "outputs": [],
      "stateMutability": "nonpayable",
      "type": "function"
    },
    {
      "inputs": [
        {
          "internalType": "bytes32",
          "name": "role",
          "type": "bytes32"
        },
        {
          "internalType": "address",
          "name": "account",
          "type": "address"
        }
      ],
      "name": "renounceRole",
      "outputs": [],
      "stateMutability": "nonpayable",
      "type": "function"
    },
    {
      "inputs": [
        {
          "internalType": "bytes32",
          "name": "role",
          "type": "bytes32"
        },
        {
          "internalType": "address",
          "name": "account",
          "type": "address"
        }
      ],
      "name": "revokeRole",
      "outputs": [],
      "stateMutability": "nonpayable",
      "type": "function"
    },
    {
      "inputs": [
        {
          "internalType": "uint256",
          "name": "",
          "type": "uint256"
        }
      ],
      "name": "services",
      "outputs": [
        {
          "internalType": "enum ServiceRegistry.Status",
          "name": "status",
          "type": "uint8"
        },
        {
          "internalType": "uint256",
          "name": "buyerId",
          "type": "uint256"
        },
        {
          "internalType": "uint256",
          "name": "sellerId",
          "type": "uint256"
        },
        {
          "internalType": "uint256",
          "name": "initiatorId",
          "type": "uint256"
        },
        {
          "internalType": "string",
          "name": "serviceDataUri",
          "type": "string"
        },
        {
          "internalType": "uint256",
          "name": "countProposals",
          "type": "uint256"
        },
        {
          "internalType": "uint256",
          "name": "transactionId",
          "type": "uint256"
        },
        {
          "internalType": "uint256",
          "name": "originServiceCreationPlatformId",
          "type": "uint256"
        }
      ],
      "stateMutability": "view",
      "type": "function"
    },
    {
      "inputs": [
        {
          "internalType": "bytes4",
          "name": "interfaceId",
          "type": "bytes4"
        }
      ],
      "name": "supportsInterface",
      "outputs": [
        {
          "internalType": "bool",
          "name": "",
          "type": "bool"
        }
      ],
      "stateMutability": "view",
      "type": "function"
    },
    {
      "inputs": [],
      "name": "talentLayerPlatformIdContract",
      "outputs": [
        {
          "internalType": "contract ITalentLayerPlatformID",
          "name": "",
          "type": "address"
        }
      ],
      "stateMutability": "view",
      "type": "function"
    },
    {
      "inputs": [
        {
          "internalType": "address",
          "name": "newOwner",
          "type": "address"
        }
      ],
      "name": "transferOwnership",
      "outputs": [],
      "stateMutability": "nonpayable",
      "type": "function"
    },
    {
      "inputs": [
        {
          "internalType": "address",
          "name": "_tokenAddress",
          "type": "address"
        },
        {
          "internalType": "bool",
          "name": "_status",
          "type": "bool"
        }
      ],
      "name": "updateAllowedTokenList",
      "outputs": [],
      "stateMutability": "nonpayable",
      "type": "function"
    },
    {
      "inputs": [
        {
          "internalType": "uint256",
          "name": "_serviceId",
          "type": "uint256"
        },
        {
          "internalType": "address",
          "name": "_rateToken",
          "type": "address"
        },
        {
          "internalType": "uint256",
          "name": "_rateAmount",
          "type": "uint256"
        },
        {
          "internalType": "string",
          "name": "_proposalDataUri",
          "type": "string"
        }
      ],
      "name": "updateProposal",
      "outputs": [],
      "stateMutability": "nonpayable",
      "type": "function"
    },
    {
      "inputs": [
        {
          "internalType": "uint256",
          "name": "_serviceId",
          "type": "uint256"
        },
        {
          "internalType": "string",
          "name": "_newServiceDataUri",
          "type": "string"
        }
      ],
      "name": "updateServiceData",
      "outputs": [],
      "stateMutability": "nonpayable",
      "type": "function"
    },
    {
      "inputs": [
        {
          "internalType": "address",
          "name": "newImplementation",
          "type": "address"
        }
      ],
      "name": "upgradeTo",
      "outputs": [],
      "stateMutability": "nonpayable",
      "type": "function"
    },
    {
      "inputs": [
        {
          "internalType": "address",
          "name": "newImplementation",
          "type": "address"
        },
        {
          "internalType": "bytes",
          "name": "data",
          "type": "bytes"
        }
      ],
      "name": "upgradeToAndCall",
      "outputs": [],
      "stateMutability": "payable",
      "type": "function"
    },
    {
      "inputs": [
        {
          "internalType": "uint256",
          "name": "_serviceId",
          "type": "uint256"
        },
        {
          "internalType": "uint256",
          "name": "_proposalId",
          "type": "uint256"
        }
      ],
      "name": "validateProposal",
      "outputs": [],
      "stateMutability": "nonpayable",
      "type": "function"
    }
  ],
  "bytecode": "0x60a0604052306080523480156200001557600080fd5b506200002062000026565b620000e8565b600054610100900460ff1615620000935760405162461bcd60e51b815260206004820152602760248201527f496e697469616c697a61626c653a20636f6e747261637420697320696e697469604482015266616c697a696e6760c81b606482015260840160405180910390fd5b60005460ff9081161015620000e6576000805460ff191660ff9081179091556040519081527f7f26b83ff96e1f2b6a682f133852f6798a09c465da95921460cefb38474024989060200160405180910390a15b565b60805161345f620001206000396000818161076a015281816107aa01528181610bf401528181610c340152610cc3015261345f6000f3fe6080604052600436106101e35760003560e01c806391d1485411610102578063c901677411610095578063f2fde38b11610064578063f2fde38b146105ea578063f6bab0471461060a578063f6c53d9b1461062a578063f9eaee0d1461064157600080fd5b8063c90167741461054c578063d547741f1461056c578063e744092e1461058c578063ef0e239b146105bd57600080fd5b8063aba21009116100d1578063aba210091461049a578063b7f2bd77146104c7578063c22c4f43146104e7578063c2cfee271461051b57600080fd5b806391d1485414610425578063a217fddf14610445578063a7d5eaea1461045a578063a8d9939d1461047a57600080fd5b806349c6559c1161017a5780635f03f4ba116101495780635f03f4ba1461039e5780636ce76f30146103be578063715018a6146103f25780638da5cb5b1461040757600080fd5b806349c6559c146103365780634f1ef2861461035657806352d1902d146103695780635bdc75b01461037e57600080fd5b806336568abe116101b657806336568abe146102b65780633659cfe6146102d6578063477034da146102f6578063485cc9551461031657600080fd5b806301ffc9a7146101e85780631499f9e61461021d578063248a9ca3146102565780632f2ff15d14610294575b600080fd5b3480156101f457600080fd5b50610208610203366004612ab3565b61067b565b60405190151581526020015b60405180910390f35b34801561022957600080fd5b5061012f5461023e906001600160a01b031681565b6040516001600160a01b039091168152602001610214565b34801561026257600080fd5b50610286610271366004612add565b600090815260fb602052604090206001015490565b604051908152602001610214565b3480156102a057600080fd5b506102b46102af366004612b12565b6106b2565b005b3480156102c257600080fd5b506102b46102d1366004612b12565b6106dc565b3480156102e257600080fd5b506102b46102f1366004612b3e565b61075f565b34801561030257600080fd5b506102b4610311366004612b59565b61083f565b34801561032257600080fd5b506102b4610331366004612b7b565b610a3d565b34801561034257600080fd5b506102b4610351366004612add565b610ba2565b6102b4610364366004612bbb565b610be9565b34801561037557600080fd5b50610286610cb6565b34801561038a57600080fd5b506102b4610399366004612b59565b610d69565b3480156103aa57600080fd5b506102b46103b9366004612cc6565b610eeb565b3480156103ca57600080fd5b506102867f2fdac322ee704ce09f0773f7f3f92eb98d5e7c836ee9c056cccd5f61041e5e3f81565b3480156103fe57600080fd5b506102b461131d565b34801561041357600080fd5b506097546001600160a01b031661023e565b34801561043157600080fd5b50610208610440366004612b12565b611331565b34801561045157600080fd5b50610286600081565b34801561046657600080fd5b506102b4610475366004612d2e565b61135c565b34801561048657600080fd5b506102b4610495366004612cc6565b6113d5565b3480156104a657600080fd5b506104ba6104b5366004612b59565b6116ac565b6040516102149190612ddc565b3480156104d357600080fd5b506102866104e2366004612e36565b6117fe565b3480156104f357600080fd5b50610507610502366004612add565b6118f7565b604051610214989796959493929190612e92565b34801561052757600080fd5b5061053b610536366004612b59565b6119c7565b604051610214959493929190612ee6565b34801561055857600080fd5b506102b4610567366004612f2b565b611a9a565b34801561057857600080fd5b506102b4610587366004612b12565b611b76565b34801561059857600080fd5b506102086105a7366004612b3e565b6101326020526000908152604090205460ff1681565b3480156105c957600080fd5b506105dd6105d8366004612add565b611b9b565b6040516102149190612f67565b3480156105f657600080fd5b506102b4610605366004612b3e565b611d53565b34801561061657600080fd5b506102b4610625366004612e36565b611dc9565b34801561063657600080fd5b5061028661012d5481565b34801561064d57600080fd5b5061020861065c366004612b3e565b6001600160a01b03166000908152610132602052604090205460ff1690565b60006001600160e01b03198216637965db0b60e01b14806106ac57506301ffc9a760e01b6001600160e01b03198316145b92915050565b600082815260fb60205260409020600101546106cd8161200c565b6106d78383612016565b505050565b6001600160a01b03811633146107515760405162461bcd60e51b815260206004820152602f60248201527f416363657373436f6e74726f6c3a2063616e206f6e6c792072656e6f756e636560448201526e103937b632b9903337b91039b2b63360891b60648201526084015b60405180910390fd5b61075b828261209c565b5050565b306001600160a01b037f00000000000000000000000000000000000000000000000000000000000000001614156107a85760405162461bcd60e51b815260040161074890612fdf565b7f00000000000000000000000000000000000000000000000000000000000000006001600160a01b03166107f16000805160206133e3833981519152546001600160a01b031690565b6001600160a01b0316146108175760405162461bcd60e51b81526004016107489061302b565b61082081612103565b6040805160008082526020820190925261083c9183919061210b565b50565b61012e5460405162438b6360e81b81523360048201526000916001600160a01b03169063438b63009060240160206040518083038186803b15801561088357600080fd5b505afa158015610897573d6000803e3d6000fd5b505050506040513d601f19601f820116820180604052508101906108bb9190613077565b9050600081116108dd5760405162461bcd60e51b815260040161074890613090565b60008381526101306020908152604080832061013183528184208685529092529091206001815460ff16600281111561091857610918612d5a565b14156109365760405162461bcd60e51b8152600401610748906130c7565b6002815460ff16600281111561094e5761094e612d5a565b14156109a75760405162461bcd60e51b815260206004820152602260248201527f50726f706f73616c2068617320616c7265616479206265656e2072656a656374604482015261195960f21b6064820152608401610748565b816001015483146109f15760405162461bcd60e51b81526020600482015260146024820152732cb7ba93b932903737ba103a343290313abcb2b960611b6044820152606401610748565b805460ff1916600217815560408051868152602081018690527ffa74c17c82b1d1960368a621d45c9afe55e65c87a2c9fe612ac7e36c382b3f7891015b60405180910390a15050505050565b600054610100900460ff1615808015610a5d5750600054600160ff909116105b80610a775750303b158015610a77575060005460ff166001145b610ada5760405162461bcd60e51b815260206004820152602e60248201527f496e697469616c697a61626c653a20636f6e747261637420697320616c72656160448201526d191e481a5b9a5d1a585b1a5e995960921b6064820152608401610748565b6000805460ff191660011790558015610afd576000805461ff0019166101001790555b610b05612285565b610b0d6122b4565b610b156122b4565b610b206000336122db565b61012e80546001600160a01b038086166001600160a01b03199283161790925561012f805492851692909116919091179055600161012d5580156106d7576000805461ff0019169055604051600181527f7f26b83ff96e1f2b6a682f133852f6798a09c465da95921460cefb38474024989060200160405180910390a1505050565b7f2fdac322ee704ce09f0773f7f3f92eb98d5e7c836ee9c056cccd5f61041e5e3f610bcc8161200c565b50600090815261013060205260409020805460ff19166002179055565b306001600160a01b037f0000000000000000000000000000000000000000000000000000000000000000161415610c325760405162461bcd60e51b815260040161074890612fdf565b7f00000000000000000000000000000000000000000000000000000000000000006001600160a01b0316610c7b6000805160206133e3833981519152546001600160a01b031690565b6001600160a01b031614610ca15760405162461bcd60e51b81526004016107489061302b565b610caa82612103565b61075b8282600161210b565b6000306001600160a01b037f00000000000000000000000000000000000000000000000000000000000000001614610d565760405162461bcd60e51b815260206004820152603860248201527f555550535570677261646561626c653a206d757374206e6f742062652063616c60448201527f6c6564207468726f7567682064656c656761746563616c6c00000000000000006064820152608401610748565b506000805160206133e383398151915290565b61012e5460405162438b6360e81b81523360048201526000916001600160a01b03169063438b63009060240160206040518083038186803b158015610dad57600080fd5b505afa158015610dc1573d6000803e3d6000fd5b505050506040513d601f19601f82011682018060405250810190610de59190613077565b905060008111610e075760405162461bcd60e51b815260040161074890613090565b60008381526101306020908152604080832061013183528184208685529092529091206001815460ff166002811115610e4257610e42612d5a565b1415610e605760405162461bcd60e51b8152600401610748906130c7565b81600101548314610eaa5760405162461bcd60e51b81526020600482015260146024820152732cb7ba93b932903737ba103a343290313abcb2b960611b6044820152606401610748565b805460ff1916600117815560408051868152602081018690527f03a3b4a747d115189175e375b6c6ccd9dcdacdf7b4369aa5d8c3b8afda8ca2959101610a2e565b61012e5460405162438b6360e81b81523360048201526000916001600160a01b03169063438b63009060240160206040518083038186803b158015610f2f57600080fd5b505afa158015610f43573d6000803e3d6000fd5b505050506040513d601f19601f82011682018060405250810190610f679190613077565b905060008111610f895760405162461bcd60e51b815260040161074890613090565b6001600160a01b0385166000908152610132602052604090205460ff16610fee5760405162461bcd60e51b8152602060048201526019602482015278151a1a5cc81d1bdad95b881a5cc81b9bdd08185b1b1bddd959603a1b6044820152606401610748565b6000868152610130602052604090206004815460ff16600481111561101557611015612d5a565b1461105a5760405162461bcd60e51b815260206004820152601560248201527414d95c9d9a58d9481a5cc81b9bdd081bdc195b9959605a1b6044820152606401610748565b6000878152610131602090815260408083208584529091529020600101548214156110df5760405162461bcd60e51b815260206004820152602f60248201527f596f7520616c7265616479206372656174656420612070726f706f73616c206660448201526e6f722074686973207365727669636560881b6064820152608401610748565b60288160050154106111335760405162461bcd60e51b815260206004820152601b60248201527f4d61782070726f706f73616c7320636f756e74207265616368656400000000006044820152606401610748565b81816001015414156111a15760405162461bcd60e51b815260206004820152603160248201527f596f7520636f756c646e2774206372656174652070726f706f73616c20666f7260448201527020796f7572206f776e207365727669636560781b6064820152608401610748565b826111be5760405162461bcd60e51b81526004016107489061310a565b6005810180549060006111d083613157565b90915550506040805160a081019091528060008152602001838152602001876001600160a01b0316815260200186815260200185858080601f01602080910402602001604051908101604052809392919081815260200183838082843760009201829052509390945250508981526101316020908152604080832087845290915290208251815491925090829060ff1916600183600281111561127557611275612d5a565b0217905550602082810151600183015560408301516002830180546001600160a01b0319166001600160a01b0390921691909117905560608301516003830155608083015180516112cc92600485019201906129a6565b509050507fd56b812321b2869d7d3fe7c8f52e85169e580ffc706d0c33ba13145fe39cd53c8783868660008b8b60405161130c979695949392919061319b565b60405180910390a150505050505050565b6113256122e5565b61132f600061233f565b565b600091825260fb602090815260408084206001600160a01b0393909316845291905290205460ff1690565b7f2fdac322ee704ce09f0773f7f3f92eb98d5e7c836ee9c056cccd5f61041e5e3f6113868161200c565b506000928352610130602090815260408085206101318352818620948652939091529092208154600160ff19918216811784558083015460028501556006909301939093558054909216179055565b61012e5460405162438b6360e81b81523360048201526000916001600160a01b03169063438b63009060240160206040518083038186803b15801561141957600080fd5b505afa15801561142d573d6000803e3d6000fd5b505050506040513d601f19601f820116820180604052508101906114519190613077565b9050600081116114735760405162461bcd60e51b815260040161074890613090565b6001600160a01b0385166000908152610132602052604090205460ff166114d85760405162461bcd60e51b8152602060048201526019602482015278151a1a5cc81d1bdad95b881a5cc81b9bdd08185b1b1bddd959603a1b6044820152606401610748565b60008681526101306020908152604080832061013183528184208585529092529091206004825460ff16600481111561151357611513612d5a565b146115585760405162461bcd60e51b815260206004820152601560248201527414d95c9d9a58d9481a5cc81b9bdd081bdc195b9959605a1b6044820152606401610748565b828160010154146115ab5760405162461bcd60e51b815260206004820152601f60248201527f546869732070726f706f73616c20646f65736e277420657869737420796574006044820152606401610748565b836115c85760405162461bcd60e51b81526004016107489061310a565b6001815460ff1660028111156115e0576115e0612d5a565b141561162e5760405162461bcd60e51b815260206004820181905260248201527f546869732070726f706f73616c20697320616c726561647920757064617465646044820152606401610748565b6002810180546001600160a01b0319166001600160a01b03891617905560038101869055611660600482018686612a2a565b507f5cf385c7cf3e1609443b09191511540e030254887cccb510dfface4c041b6c55888487878b8b60405161169a969594939291906131e8565b60405180910390a15050505050505050565b6116e86040805160a0810190915280600081526020016000815260200160006001600160a01b0316815260200160008152602001606081525090565b60008381526101316020908152604080832085845290915290819020815160a081019092528054829060ff16600281111561172557611725612d5a565b600281111561173657611736612d5a565b81526001820154602082015260028201546001600160a01b031660408201526003820154606082015260048201805460809092019161177490613226565b80601f01602080910402602001604051908101604052809291908181526020018280546117a090613226565b80156117ed5780601f106117c2576101008083540402835291602001916117ed565b820191906000526020600020905b8154815290600101906020018083116117d057829003601f168201915b505050505081525050905092915050565b61012f5460405162f577a560e81b8152600481018590526000916001600160a01b03169063f577a5009060240160006040518083038186803b15801561184357600080fd5b505afa158015611857573d6000803e3d6000fd5b505061012e5460405162438b6360e81b8152336004820152600093506001600160a01b03909116915063438b63009060240160206040518083038186803b1580156118a157600080fd5b505afa1580156118b5573d6000803e3d6000fd5b505050506040513d601f19601f820116820180604052508101906118d99190613077565b90506118ec60048283600088888b612391565b9150505b9392505050565b610130602052600090815260409020805460018201546002830154600384015460048501805460ff9095169593949293919261193290613226565b80601f016020809104026020016040519081016040528092919081815260200182805461195e90613226565b80156119ab5780601f10611980576101008083540402835291602001916119ab565b820191906000526020600020905b81548152906001019060200180831161198e57829003601f168201915b5050505050908060050154908060060154908060070154905088565b6101316020908152600092835260408084209091529082529020805460018201546002830154600384015460048501805460ff9095169593946001600160a01b03909316939192611a1790613226565b80601f0160208091040260200160405190810160405280929190818152602001828054611a4390613226565b8015611a905780601f10611a6557610100808354040283529160200191611a90565b820191906000526020600020905b815481529060010190602001808311611a7357829003601f168201915b5050505050905085565b611aa26122e5565b6001600160a01b0382166000908152610132602052604090205460ff1615158115151415611b125760405162461bcd60e51b815260206004820152601a60248201527f5374617475732073686f756c6420626520646966666572656e740000000000006044820152606401610748565b6001600160a01b03821660008181526101326020908152604091829020805460ff19168515159081179091558251938452908301527fd138accc17a5df6552bf13624802a01fc56a160f1e6e6247743ccd07ed99a7c9910160405180910390a15050565b600082815260fb6020526040902060010154611b918161200c565b6106d7838361209c565b611be46040805161010081019091528060008152602001600081526020016000815260200160008152602001606081526020016000815260200160008152602001600081525090565b61012d548210611c365760405162461bcd60e51b815260206004820152601a60248201527f54686973207365727669636520646f65736e27742065786973740000000000006044820152606401610748565b6000828152610130602052604090819020815161010081019092528054829060ff166004811115611c6957611c69612d5a565b6004811115611c7a57611c7a612d5a565b8152602001600182015481526020016002820154815260200160038201548152602001600482018054611cac90613226565b80601f0160208091040260200160405190810160405280929190818152602001828054611cd890613226565b8015611d255780601f10611cfa57610100808354040283529160200191611d25565b820191906000526020600020905b815481529060010190602001808311611d0857829003601f168201915b5050505050815260200160058201548152602001600682015481526020016007820154815250509050919050565b611d5b6122e5565b6001600160a01b038116611dc05760405162461bcd60e51b815260206004820152602660248201527f4f776e61626c653a206e6577206f776e657220697320746865207a65726f206160448201526564647265737360d01b6064820152608401610748565b61083c8161233f565b60008381526101306020526040902061012d548410611e2a5760405162461bcd60e51b815260206004820152601a60248201527f54686973207365727669636520646f65736e27742065786973740000000000006044820152606401610748565b6004815460ff166004811115611e4257611e42612d5a565b1480611e6357506000815460ff166004811115611e6157611e61612d5a565b145b611ec15760405162461bcd60e51b815260206004820152602960248201527f53657276696365207374617475732073686f756c64206265206f70656e6564206044820152681bdc88199a5b1b195960ba1b6064820152608401610748565b61012e5460405162438b6360e81b81523360048201526001600160a01b039091169063438b63009060240160206040518083038186803b158015611f0457600080fd5b505afa158015611f18573d6000803e3d6000fd5b505050506040513d601f19601f82011682018060405250810190611f3c9190613077565b816003015414611fa05760405162461bcd60e51b815260206004820152602960248201527f4f6e6c792074686520696e69746961746f722063616e2075706461746520746860448201526865207365727669636560b81b6064820152608401610748565b81611fbd5760405162461bcd60e51b81526004016107489061310a565b611fcb600482018484612a2a565b50837f1cae99404f615a4039d85b1009cb70622aae6d64f671e8b1b191d9269847d43e8484604051611ffe929190613261565b60405180910390a250505050565b61083c8133612536565b6120208282611331565b61075b57600082815260fb602090815260408083206001600160a01b03851684529091529020805460ff191660011790556120583390565b6001600160a01b0316816001600160a01b0316837f2f8788117e7eff1d82e926ec794901d17c78024a50270940304540a733656f0d60405160405180910390a45050565b6120a68282611331565b1561075b57600082815260fb602090815260408083206001600160a01b0385168085529252808320805460ff1916905551339285917ff6391f5c32d9c69d2a47ea670b442974b53935d1edc7fd64eb21e047a839171b9190a45050565b61083c6122e5565b7f4910fdfa16fed3260ed0e7147f7cc6da11a60208b5b9406d12a635614ffd91435460ff161561213e576106d78361258f565b826001600160a01b03166352d1902d6040518163ffffffff1660e01b815260040160206040518083038186803b15801561217757600080fd5b505afa9250505080156121a7575060408051601f3d908101601f191682019092526121a491810190613077565b60015b61220a5760405162461bcd60e51b815260206004820152602e60248201527f45524331393637557067726164653a206e657720696d706c656d656e7461746960448201526d6f6e206973206e6f74205555505360901b6064820152608401610748565b6000805160206133e383398151915281146122795760405162461bcd60e51b815260206004820152602960248201527f45524331393637557067726164653a20756e737570706f727465642070726f786044820152681a58589b195555525160ba1b6064820152608401610748565b506106d783838361262b565b600054610100900460ff166122ac5760405162461bcd60e51b815260040161074890613275565b61132f612656565b600054610100900460ff1661132f5760405162461bcd60e51b815260040161074890613275565b61075b8282612016565b6097546001600160a01b0316331461132f5760405162461bcd60e51b815260206004820181905260248201527f4f776e61626c653a2063616c6c6572206973206e6f7420746865206f776e65726044820152606401610748565b609780546001600160a01b038381166001600160a01b0319831681179093556040519116919082907f8be0079c531659141344cd1fd0a4f28419497f9722a3daafe3b4186f6b6457e090600090a35050565b60008087116123b25760405162461bcd60e51b815260040161074890613090565b8585141561240d5760405162461bcd60e51b815260206004820152602260248201527f53656c6c657220616e642062757965722063616e2774206265207468652073616044820152616d6560f01b6064820152608401610748565b8261242a5760405162461bcd60e51b81526004016107489061310a565b61012d8054908190600061243d83613157565b909155505060008181526101306020526040902080548a90829060ff1916600183600481111561246f5761246f612d5a565b0217905550600181018890556002810187905560038101899055612497600482018787612a2a565b506007810184905560408051838152602081018a9052908101889052606081018a9052608081018590527f9cd325e0ba2126728b21176b4b24c49c672e66820627759eedcab6b5dd7dac499060a00160405180910390a17f4874366e887bb729d49976a8f6751c4263d1668fd396db9b8d5f037895e7a745828787604051612521939291906132c0565b60405180910390a15098975050505050505050565b6125408282611331565b61075b5761254d81612686565b612558836020612698565b6040516020016125699291906132da565b60408051601f198184030181529082905262461bcd60e51b82526107489160040161334f565b6001600160a01b0381163b6125fc5760405162461bcd60e51b815260206004820152602d60248201527f455243313936373a206e657720696d706c656d656e746174696f6e206973206e60448201526c1bdd08184818dbdb9d1c9858dd609a1b6064820152608401610748565b6000805160206133e383398151915280546001600160a01b0319166001600160a01b0392909216919091179055565b61263483612834565b6000825111806126415750805b156106d7576126508383612874565b50505050565b600054610100900460ff1661267d5760405162461bcd60e51b815260040161074890613275565b61132f3361233f565b60606106ac6001600160a01b03831660145b606060006126a7836002613362565b6126b2906002613381565b67ffffffffffffffff8111156126ca576126ca612ba5565b6040519080825280601f01601f1916602001820160405280156126f4576020820181803683370190505b509050600360fc1b8160008151811061270f5761270f613399565b60200101906001600160f81b031916908160001a905350600f60fb1b8160018151811061273e5761273e613399565b60200101906001600160f81b031916908160001a9053506000612762846002613362565b61276d906001613381565b90505b60018111156127e5576f181899199a1a9b1b9c1cb0b131b232b360811b85600f16601081106127a1576127a1613399565b1a60f81b8282815181106127b7576127b7613399565b60200101906001600160f81b031916908160001a90535060049490941c936127de816133af565b9050612770565b5083156118f05760405162461bcd60e51b815260206004820181905260248201527f537472696e67733a20686578206c656e67746820696e73756666696369656e746044820152606401610748565b61283d8161258f565b6040516001600160a01b038216907fbc7cd75a20ee27fd9adebab32041f755214dbc6bffa90cc0225b39da2e5c2d3b90600090a250565b60606001600160a01b0383163b6128dc5760405162461bcd60e51b815260206004820152602660248201527f416464726573733a2064656c65676174652063616c6c20746f206e6f6e2d636f6044820152651b9d1c9858dd60d21b6064820152608401610748565b600080846001600160a01b0316846040516128f791906133c6565b600060405180830381855af49150503d8060008114612932576040519150601f19603f3d011682016040523d82523d6000602084013e612937565b606091505b509150915061295f828260405180606001604052806027815260200161340360279139612968565b95945050505050565b606083156129775750816118f0565b6118f0838381511561298c5781518083602001fd5b8060405162461bcd60e51b8152600401610748919061334f565b8280546129b290613226565b90600052602060002090601f0160209004810192826129d45760008555612a1a565b82601f106129ed57805160ff1916838001178555612a1a565b82800160010185558215612a1a579182015b82811115612a1a5782518255916020019190600101906129ff565b50612a26929150612a9e565b5090565b828054612a3690613226565b90600052602060002090601f016020900481019282612a585760008555612a1a565b82601f10612a715782800160ff19823516178555612a1a565b82800160010185558215612a1a579182015b82811115612a1a578235825591602001919060010190612a83565b5b80821115612a265760008155600101612a9f565b600060208284031215612ac557600080fd5b81356001600160e01b0319811681146118f057600080fd5b600060208284031215612aef57600080fd5b5035919050565b80356001600160a01b0381168114612b0d57600080fd5b919050565b60008060408385031215612b2557600080fd5b82359150612b3560208401612af6565b90509250929050565b600060208284031215612b5057600080fd5b6118f082612af6565b60008060408385031215612b6c57600080fd5b50508035926020909101359150565b60008060408385031215612b8e57600080fd5b612b9783612af6565b9150612b3560208401612af6565b634e487b7160e01b600052604160045260246000fd5b60008060408385031215612bce57600080fd5b612bd783612af6565b9150602083013567ffffffffffffffff80821115612bf457600080fd5b818501915085601f830112612c0857600080fd5b813581811115612c1a57612c1a612ba5565b604051601f8201601f19908116603f01168101908382118183101715612c4257612c42612ba5565b81604052828152886020848701011115612c5b57600080fd5b8260208601602083013760006020848301015280955050505050509250929050565b60008083601f840112612c8f57600080fd5b50813567ffffffffffffffff811115612ca757600080fd5b602083019150836020828501011115612cbf57600080fd5b9250929050565b600080600080600060808688031215612cde57600080fd5b85359450612cee60208701612af6565b935060408601359250606086013567ffffffffffffffff811115612d1157600080fd5b612d1d88828901612c7d565b969995985093965092949392505050565b600080600060608486031215612d4357600080fd5b505081359360208301359350604090920135919050565b634e487b7160e01b600052602160045260246000fd5b60038110612d8057612d80612d5a565b9052565b60005b83811015612d9f578181015183820152602001612d87565b838111156126505750506000910152565b60008151808452612dc8816020860160208601612d84565b601f01601f19169290920160200192915050565b60208152612dee602082018351612d70565b6020820151604082015260018060a01b036040830151166060820152606082015160808201526000608083015160a080840152612e2e60c0840182612db0565b949350505050565b600080600060408486031215612e4b57600080fd5b83359250602084013567ffffffffffffffff811115612e6957600080fd5b612e7586828701612c7d565b9497909650939450505050565b60058110612d8057612d80612d5a565b6000610100612ea1838c612e82565b896020840152886040840152876060840152806080840152612ec581840188612db0565b60a0840196909652505060c081019290925260e09091015295945050505050565b612ef08187612d70565b84602082015260018060a01b038416604082015282606082015260a060808201526000612f2060a0830184612db0565b979650505050505050565b60008060408385031215612f3e57600080fd5b612f4783612af6565b915060208301358015158114612f5c57600080fd5b809150509250929050565b60208152612f79602082018351612e82565b602082015160408201526040820151606082015260608201516080820152600060808301516101008060a0850152612fb5610120850183612db0565b915060a085015160c085015260c085015160e085015260e085015181850152508091505092915050565b6020808252602c908201527f46756e6374696f6e206d7573742062652063616c6c6564207468726f7567682060408201526b19195b1959d85d1958d85b1b60a21b606082015260800190565b6020808252602c908201527f46756e6374696f6e206d7573742062652063616c6c6564207468726f7567682060408201526b6163746976652070726f787960a01b606082015260800190565b60006020828403121561308957600080fd5b5051919050565b6020808252601f908201527f596f752073686f756c64206861766520612054616c656e744c61796572496400604082015260600190565b60208082526023908201527f50726f706f73616c2068617320616c7265616479206265656e2076616c6964616040820152621d195960ea1b606082015260800190565b6020808252601f908201527f53686f756c642070726f7669646520612076616c696420495046532055524900604082015260600190565b634e487b7160e01b600052601160045260246000fd5b600060001982141561316b5761316b613141565b5060010190565b81835281816020850137506000828201602090810191909152601f909101601f19169091010190565b87815286602082015260c0604082015260006131bb60c083018789613172565b90506131ca6060830186612d70565b6001600160a01b0393909316608082015260a0015295945050505050565b86815285602082015260a06040820152600061320860a083018688613172565b6001600160a01b039490941660608301525060800152949350505050565b600181811c9082168061323a57607f821691505b6020821081141561325b57634e487b7160e01b600052602260045260246000fd5b50919050565b602081526000612e2e602083018486613172565b6020808252602b908201527f496e697469616c697a61626c653a20636f6e7472616374206973206e6f74206960408201526a6e697469616c697a696e6760a81b606082015260800190565b83815260406020820152600061295f604083018486613172565b7f416363657373436f6e74726f6c3a206163636f756e7420000000000000000000815260008351613312816017850160208801612d84565b7001034b99036b4b9b9b4b733903937b6329607d1b6017918401918201528351613343816028840160208801612d84565b01602801949350505050565b6020815260006118f06020830184612db0565b600081600019048311821515161561337c5761337c613141565b500290565b6000821982111561339457613394613141565b500190565b634e487b7160e01b600052603260045260246000fd5b6000816133be576133be613141565b506000190190565b600082516133d8818460208701612d84565b919091019291505056fe360894a13ba1a3210667c828492db98dca3e2076cc3735a920a3ca505d382bbc416464726573733a206c6f772d6c6576656c2064656c65676174652063616c6c206661696c6564a26469706673582212205217d5a1b5c71da6035f16a7645ea513a341ceabd14c8189b8af135af4f3179464736f6c63430008090033",
  "linkReferences": {},
  "deployedLinkReferences": {}
}