{
  "_format": "hh-sol-artifact-1",
  "contractName": "ServiceRegistry",
  "sourceName": "contracts/ServiceRegistry.sol",
  "abi": [
    {
      "inputs": [],
      "stateMutability": "nonpayable",
      "type": "constructor"
    },
    {
      "anonymous": false,
      "inputs": [
        {
          "indexed": false,
          "internalType": "address",
          "name": "previousAdmin",
          "type": "address"
        },
        {
          "indexed": false,
          "internalType": "address",
          "name": "newAdmin",
          "type": "address"
        }
      ],
      "name": "AdminChanged",
      "type": "event"
    },
    {
      "anonymous": false,
      "inputs": [
        {
          "indexed": false,
          "internalType": "address",
          "name": "_tokenAddress",
          "type": "address"
        },
        {
          "indexed": false,
          "internalType": "bool",
          "name": "_status",
          "type": "bool"
        }
      ],
      "name": "AllowedTokenListUpdated",
      "type": "event"
    },
    {
      "anonymous": false,
      "inputs": [
        {
          "indexed": true,
          "internalType": "address",
          "name": "beacon",
          "type": "address"
        }
      ],
      "name": "BeaconUpgraded",
      "type": "event"
    },
    {
      "anonymous": false,
      "inputs": [
        {
          "indexed": false,
          "internalType": "uint8",
          "name": "version",
          "type": "uint8"
        }
      ],
      "name": "Initialized",
      "type": "event"
    },
    {
      "anonymous": false,
      "inputs": [
        {
          "indexed": true,
          "internalType": "address",
          "name": "previousOwner",
          "type": "address"
        },
        {
          "indexed": true,
          "internalType": "address",
          "name": "newOwner",
          "type": "address"
        }
      ],
      "name": "OwnershipTransferred",
      "type": "event"
    },
    {
      "anonymous": false,
      "inputs": [
        {
          "indexed": false,
          "internalType": "uint256",
          "name": "serviceId",
          "type": "uint256"
        },
        {
          "indexed": false,
          "internalType": "uint256",
          "name": "sellerId",
          "type": "uint256"
        },
        {
          "indexed": false,
          "internalType": "string",
          "name": "proposalDataUri",
          "type": "string"
        },
        {
          "indexed": false,
          "internalType": "enum ServiceRegistry.ProposalStatus",
          "name": "status",
          "type": "uint8"
        },
        {
          "indexed": false,
          "internalType": "address",
          "name": "rateToken",
          "type": "address"
        },
        {
          "indexed": false,
          "internalType": "uint256",
          "name": "rateAmount",
          "type": "uint256"
        }
      ],
      "name": "ProposalCreated",
      "type": "event"
    },
    {
      "anonymous": false,
      "inputs": [
        {
          "indexed": false,
          "internalType": "uint256",
          "name": "serviceId",
          "type": "uint256"
        },
        {
          "indexed": false,
          "internalType": "uint256",
          "name": "sellerId",
          "type": "uint256"
        }
      ],
      "name": "ProposalRejected",
      "type": "event"
    },
    {
      "anonymous": false,
      "inputs": [
        {
          "indexed": false,
          "internalType": "uint256",
          "name": "serviceId",
          "type": "uint256"
        },
        {
          "indexed": false,
          "internalType": "uint256",
          "name": "sellerId",
          "type": "uint256"
        },
        {
          "indexed": false,
          "internalType": "string",
          "name": "proposalDataUri",
          "type": "string"
        },
        {
          "indexed": false,
          "internalType": "address",
          "name": "rateToken",
          "type": "address"
        },
        {
          "indexed": false,
          "internalType": "uint256",
          "name": "rateAmount",
          "type": "uint256"
        }
      ],
      "name": "ProposalUpdated",
      "type": "event"
    },
    {
      "anonymous": false,
      "inputs": [
        {
          "indexed": false,
          "internalType": "uint256",
          "name": "serviceId",
          "type": "uint256"
        },
        {
          "indexed": false,
          "internalType": "uint256",
          "name": "sellerId",
          "type": "uint256"
        }
      ],
      "name": "ProposalValidated",
      "type": "event"
    },
    {
      "anonymous": false,
      "inputs": [
        {
          "indexed": true,
          "internalType": "bytes32",
          "name": "role",
          "type": "bytes32"
        },
        {
          "indexed": true,
          "internalType": "bytes32",
          "name": "previousAdminRole",
          "type": "bytes32"
        },
        {
          "indexed": true,
          "internalType": "bytes32",
          "name": "newAdminRole",
          "type": "bytes32"
        }
      ],
      "name": "RoleAdminChanged",
      "type": "event"
    },
    {
      "anonymous": false,
      "inputs": [
        {
          "indexed": true,
          "internalType": "bytes32",
          "name": "role",
          "type": "bytes32"
        },
        {
          "indexed": true,
          "internalType": "address",
          "name": "account",
          "type": "address"
        },
        {
          "indexed": true,
          "internalType": "address",
          "name": "sender",
          "type": "address"
        }
      ],
      "name": "RoleGranted",
      "type": "event"
    },
    {
      "anonymous": false,
      "inputs": [
        {
          "indexed": true,
          "internalType": "bytes32",
          "name": "role",
          "type": "bytes32"
        },
        {
          "indexed": true,
          "internalType": "address",
          "name": "account",
          "type": "address"
        },
        {
          "indexed": true,
          "internalType": "address",
          "name": "sender",
          "type": "address"
        }
      ],
      "name": "RoleRevoked",
      "type": "event"
    },
    {
      "anonymous": false,
      "inputs": [
        {
          "indexed": false,
          "internalType": "uint256",
          "name": "id",
          "type": "uint256"
        },
        {
          "indexed": false,
          "internalType": "uint256",
          "name": "buyerId",
          "type": "uint256"
        },
        {
          "indexed": false,
          "internalType": "uint256",
          "name": "sellerId",
          "type": "uint256"
        },
        {
          "indexed": false,
          "internalType": "uint256",
          "name": "initiatorId",
          "type": "uint256"
        },
        {
          "indexed": false,
          "internalType": "uint256",
          "name": "platformId",
          "type": "uint256"
        }
      ],
      "name": "ServiceCreated",
      "type": "event"
    },
    {
      "anonymous": false,
      "inputs": [
        {
          "indexed": false,
          "internalType": "uint256",
          "name": "id",
          "type": "uint256"
        },
        {
          "indexed": false,
          "internalType": "string",
          "name": "serviceDataUri",
          "type": "string"
        }
      ],
      "name": "ServiceDataCreated",
      "type": "event"
    },
    {
      "anonymous": false,
      "inputs": [
        {
          "indexed": true,
          "internalType": "uint256",
          "name": "id",
          "type": "uint256"
        },
        {
          "indexed": false,
          "internalType": "string",
          "name": "newServiceDataUri",
          "type": "string"
        }
      ],
      "name": "ServiceDetailedUpdated",
      "type": "event"
    },
    {
      "anonymous": false,
      "inputs": [
        {
          "indexed": false,
          "internalType": "address",
          "name": "forwarder",
          "type": "address"
        }
      ],
      "name": "TrustedForwarderAdded",
      "type": "event"
    },
    {
      "anonymous": false,
      "inputs": [
        {
          "indexed": false,
          "internalType": "address",
          "name": "forwarder",
          "type": "address"
        }
      ],
      "name": "TrustedForwarderRemoved",
      "type": "event"
    },
    {
      "anonymous": false,
      "inputs": [
        {
          "indexed": true,
          "internalType": "address",
          "name": "implementation",
          "type": "address"
        }
      ],
      "name": "Upgraded",
      "type": "event"
    },
    {
      "inputs": [],
      "name": "DEFAULT_ADMIN_ROLE",
      "outputs": [
        {
          "internalType": "bytes32",
          "name": "",
          "type": "bytes32"
        }
      ],
      "stateMutability": "view",
      "type": "function"
    },
    {
      "inputs": [],
      "name": "ESCROW_ROLE",
      "outputs": [
        {
          "internalType": "bytes32",
          "name": "",
          "type": "bytes32"
        }
      ],
      "stateMutability": "view",
      "type": "function"
    },
    {
      "inputs": [
        {
          "internalType": "address",
          "name": "_forwarder",
          "type": "address"
        }
      ],
      "name": "addTrustedForwarder",
      "outputs": [],
      "stateMutability": "nonpayable",
      "type": "function"
    },
    {
      "inputs": [
        {
          "internalType": "uint256",
          "name": "_serviceId",
          "type": "uint256"
        },
        {
          "internalType": "uint256",
          "name": "_proposalId",
          "type": "uint256"
        },
        {
          "internalType": "uint256",
          "name": "_transactionId",
          "type": "uint256"
        }
      ],
      "name": "afterDeposit",
      "outputs": [],
      "stateMutability": "nonpayable",
      "type": "function"
    },
    {
      "inputs": [
        {
          "internalType": "uint256",
          "name": "_serviceId",
          "type": "uint256"
        }
      ],
      "name": "afterFullPayment",
      "outputs": [],
      "stateMutability": "nonpayable",
      "type": "function"
    },
    {
      "inputs": [
        {
          "internalType": "address",
          "name": "",
          "type": "address"
        }
      ],
      "name": "allowedTokenList",
      "outputs": [
        {
          "internalType": "bool",
          "name": "",
          "type": "bool"
        }
      ],
      "stateMutability": "view",
      "type": "function"
    },
    {
      "inputs": [
        {
          "internalType": "uint256",
          "name": "_senderId",
          "type": "uint256"
        },
        {
          "internalType": "uint256",
          "name": "_platformId",
          "type": "uint256"
        },
        {
          "internalType": "string",
          "name": "_serviceDataUri",
          "type": "string"
        }
      ],
      "name": "createOpenServiceFromBuyer",
      "outputs": [
        {
          "internalType": "uint256",
          "name": "",
          "type": "uint256"
        }
      ],
      "stateMutability": "nonpayable",
      "type": "function"
    },
    {
      "inputs": [
        {
          "internalType": "uint256",
          "name": "_senderId",
          "type": "uint256"
        },
        {
          "internalType": "uint256",
          "name": "_serviceId",
          "type": "uint256"
        },
        {
          "internalType": "address",
          "name": "_rateToken",
          "type": "address"
        },
        {
          "internalType": "uint256",
          "name": "_rateAmount",
          "type": "uint256"
        },
        {
          "internalType": "string",
          "name": "_proposalDataUri",
          "type": "string"
        }
      ],
      "name": "createProposal",
      "outputs": [],
      "stateMutability": "nonpayable",
      "type": "function"
    },
    {
      "inputs": [
        {
          "internalType": "uint256",
          "name": "_serviceId",
          "type": "uint256"
        },
        {
          "internalType": "uint256",
          "name": "_proposalId",
          "type": "uint256"
        }
      ],
      "name": "getProposal",
      "outputs": [
        {
          "components": [
            {
              "internalType": "enum ServiceRegistry.ProposalStatus",
              "name": "status",
              "type": "uint8"
            },
            {
              "internalType": "uint256",
              "name": "sellerId",
              "type": "uint256"
            },
            {
              "internalType": "address",
              "name": "rateToken",
              "type": "address"
            },
            {
              "internalType": "uint256",
              "name": "rateAmount",
              "type": "uint256"
            },
            {
              "internalType": "string",
              "name": "proposalDataUri",
              "type": "string"
            }
          ],
          "internalType": "struct ServiceRegistry.Proposal",
          "name": "",
          "type": "tuple"
        }
      ],
      "stateMutability": "view",
      "type": "function"
    },
    {
      "inputs": [
        {
          "internalType": "bytes32",
          "name": "role",
          "type": "bytes32"
        }
      ],
      "name": "getRoleAdmin",
      "outputs": [
        {
          "internalType": "bytes32",
          "name": "",
          "type": "bytes32"
        }
      ],
      "stateMutability": "view",
      "type": "function"
    },
    {
      "inputs": [
        {
          "internalType": "uint256",
          "name": "_serviceId",
          "type": "uint256"
        }
      ],
      "name": "getService",
      "outputs": [
        {
          "components": [
            {
              "internalType": "enum ServiceRegistry.Status",
              "name": "status",
              "type": "uint8"
            },
            {
              "internalType": "uint256",
              "name": "buyerId",
              "type": "uint256"
            },
            {
              "internalType": "uint256",
              "name": "sellerId",
              "type": "uint256"
            },
            {
              "internalType": "uint256",
              "name": "initiatorId",
              "type": "uint256"
            },
            {
              "internalType": "string",
              "name": "serviceDataUri",
              "type": "string"
            },
            {
              "internalType": "uint256",
              "name": "countProposals",
              "type": "uint256"
            },
            {
              "internalType": "uint256",
              "name": "transactionId",
              "type": "uint256"
            },
            {
              "internalType": "uint256",
              "name": "platformId",
              "type": "uint256"
            }
          ],
          "internalType": "struct ServiceRegistry.Service",
          "name": "",
          "type": "tuple"
        }
      ],
      "stateMutability": "view",
      "type": "function"
    },
    {
      "inputs": [
        {
          "internalType": "bytes32",
          "name": "role",
          "type": "bytes32"
        },
        {
          "internalType": "address",
          "name": "account",
          "type": "address"
        }
      ],
      "name": "grantRole",
      "outputs": [],
      "stateMutability": "nonpayable",
      "type": "function"
    },
    {
      "inputs": [
        {
          "internalType": "bytes32",
          "name": "role",
          "type": "bytes32"
        },
        {
          "internalType": "address",
          "name": "account",
          "type": "address"
        }
      ],
      "name": "hasRole",
      "outputs": [
        {
          "internalType": "bool",
          "name": "",
          "type": "bool"
        }
      ],
      "stateMutability": "view",
      "type": "function"
    },
    {
      "inputs": [
        {
          "internalType": "address",
          "name": "_talentLayerIdAddress",
          "type": "address"
        },
        {
          "internalType": "address",
          "name": "_talentLayerPlatformIdAddress",
          "type": "address"
        }
      ],
      "name": "initialize",
      "outputs": [],
      "stateMutability": "nonpayable",
      "type": "function"
    },
    {
      "inputs": [
        {
          "internalType": "address",
          "name": "_tokenAddress",
          "type": "address"
        }
      ],
      "name": "isTokenAllowed",
      "outputs": [
        {
          "internalType": "bool",
          "name": "",
          "type": "bool"
        }
      ],
      "stateMutability": "view",
      "type": "function"
    },
    {
      "inputs": [
        {
          "internalType": "address",
          "name": "forwarder",
          "type": "address"
        }
      ],
      "name": "isTrustedForwarder",
      "outputs": [
        {
          "internalType": "bool",
          "name": "",
          "type": "bool"
        }
      ],
      "stateMutability": "view",
      "type": "function"
    },
    {
      "inputs": [],
      "name": "nextServiceId",
      "outputs": [
        {
          "internalType": "uint256",
          "name": "",
          "type": "uint256"
        }
      ],
      "stateMutability": "view",
      "type": "function"
    },
    {
      "inputs": [],
      "name": "owner",
      "outputs": [
        {
          "internalType": "address",
          "name": "",
          "type": "address"
        }
      ],
      "stateMutability": "view",
      "type": "function"
    },
    {
      "inputs": [
        {
          "internalType": "uint256",
          "name": "",
          "type": "uint256"
        },
        {
          "internalType": "uint256",
          "name": "",
          "type": "uint256"
        }
      ],
      "name": "proposals",
      "outputs": [
        {
          "internalType": "enum ServiceRegistry.ProposalStatus",
          "name": "status",
          "type": "uint8"
        },
        {
          "internalType": "uint256",
          "name": "sellerId",
          "type": "uint256"
        },
        {
          "internalType": "address",
          "name": "rateToken",
          "type": "address"
        },
        {
          "internalType": "uint256",
          "name": "rateAmount",
          "type": "uint256"
        },
        {
          "internalType": "string",
          "name": "proposalDataUri",
          "type": "string"
        }
      ],
      "stateMutability": "view",
      "type": "function"
    },
    {
      "inputs": [],
      "name": "proxiableUUID",
      "outputs": [
        {
          "internalType": "bytes32",
          "name": "",
          "type": "bytes32"
        }
      ],
      "stateMutability": "view",
      "type": "function"
    },
    {
      "inputs": [
        {
          "internalType": "uint256",
          "name": "_senderId",
          "type": "uint256"
        },
        {
          "internalType": "uint256",
          "name": "_serviceId",
          "type": "uint256"
        },
        {
          "internalType": "uint256",
          "name": "_proposalId",
          "type": "uint256"
        }
      ],
      "name": "rejectProposal",
      "outputs": [],
      "stateMutability": "nonpayable",
      "type": "function"
    },
    {
      "inputs": [
        {
          "internalType": "address",
          "name": "_forwarder",
          "type": "address"
        }
      ],
      "name": "removeTrustedForwarder",
      "outputs": [],
      "stateMutability": "nonpayable",
      "type": "function"
    },
    {
      "inputs": [],
      "name": "renounceOwnership",
      "outputs": [],
      "stateMutability": "nonpayable",
      "type": "function"
    },
    {
      "inputs": [
        {
          "internalType": "bytes32",
          "name": "role",
          "type": "bytes32"
        },
        {
          "internalType": "address",
          "name": "account",
          "type": "address"
        }
      ],
      "name": "renounceRole",
      "outputs": [],
      "stateMutability": "nonpayable",
      "type": "function"
    },
    {
      "inputs": [
        {
          "internalType": "bytes32",
          "name": "role",
          "type": "bytes32"
        },
        {
          "internalType": "address",
          "name": "account",
          "type": "address"
        }
      ],
      "name": "revokeRole",
      "outputs": [],
      "stateMutability": "nonpayable",
      "type": "function"
    },
    {
      "inputs": [
        {
          "internalType": "uint256",
          "name": "",
          "type": "uint256"
        }
      ],
      "name": "services",
      "outputs": [
        {
          "internalType": "enum ServiceRegistry.Status",
          "name": "status",
          "type": "uint8"
        },
        {
          "internalType": "uint256",
          "name": "buyerId",
          "type": "uint256"
        },
        {
          "internalType": "uint256",
          "name": "sellerId",
          "type": "uint256"
        },
        {
          "internalType": "uint256",
          "name": "initiatorId",
          "type": "uint256"
        },
        {
          "internalType": "string",
          "name": "serviceDataUri",
          "type": "string"
        },
        {
          "internalType": "uint256",
          "name": "countProposals",
          "type": "uint256"
        },
        {
          "internalType": "uint256",
          "name": "transactionId",
          "type": "uint256"
        },
        {
          "internalType": "uint256",
          "name": "platformId",
          "type": "uint256"
        }
      ],
      "stateMutability": "view",
      "type": "function"
    },
    {
      "inputs": [
        {
          "internalType": "bytes4",
          "name": "interfaceId",
          "type": "bytes4"
        }
      ],
      "name": "supportsInterface",
      "outputs": [
        {
          "internalType": "bool",
          "name": "",
          "type": "bool"
        }
      ],
      "stateMutability": "view",
      "type": "function"
    },
    {
      "inputs": [],
      "name": "talentLayerPlatformIdContract",
      "outputs": [
        {
          "internalType": "contract ITalentLayerPlatformID",
          "name": "",
          "type": "address"
        }
      ],
      "stateMutability": "view",
      "type": "function"
    },
    {
      "inputs": [
        {
          "internalType": "address",
          "name": "newOwner",
          "type": "address"
        }
      ],
      "name": "transferOwnership",
      "outputs": [],
      "stateMutability": "nonpayable",
      "type": "function"
    },
    {
      "inputs": [
        {
          "internalType": "address",
          "name": "_tokenAddress",
          "type": "address"
        },
        {
          "internalType": "bool",
          "name": "_status",
          "type": "bool"
        }
      ],
      "name": "updateAllowedTokenList",
      "outputs": [],
      "stateMutability": "nonpayable",
      "type": "function"
    },
    {
      "inputs": [
        {
          "internalType": "uint256",
          "name": "_senderId",
          "type": "uint256"
        },
        {
          "internalType": "uint256",
          "name": "_serviceId",
          "type": "uint256"
        },
        {
          "internalType": "address",
          "name": "_rateToken",
          "type": "address"
        },
        {
          "internalType": "uint256",
          "name": "_rateAmount",
          "type": "uint256"
        },
        {
          "internalType": "string",
          "name": "_proposalDataUri",
          "type": "string"
        }
      ],
      "name": "updateProposal",
      "outputs": [],
      "stateMutability": "nonpayable",
      "type": "function"
    },
    {
      "inputs": [
        {
          "internalType": "uint256",
          "name": "_senderId",
          "type": "uint256"
        },
        {
          "internalType": "uint256",
          "name": "_serviceId",
          "type": "uint256"
        },
        {
          "internalType": "string",
          "name": "_newServiceDataUri",
          "type": "string"
        }
      ],
      "name": "updateServiceData",
      "outputs": [],
      "stateMutability": "nonpayable",
      "type": "function"
    },
    {
      "inputs": [
        {
          "internalType": "address",
          "name": "newImplementation",
          "type": "address"
        }
      ],
      "name": "upgradeTo",
      "outputs": [],
      "stateMutability": "nonpayable",
      "type": "function"
    },
    {
      "inputs": [
        {
          "internalType": "address",
          "name": "newImplementation",
          "type": "address"
        },
        {
          "internalType": "bytes",
          "name": "data",
          "type": "bytes"
        }
      ],
      "name": "upgradeToAndCall",
      "outputs": [],
      "stateMutability": "payable",
      "type": "function"
    },
    {
      "inputs": [
        {
          "internalType": "uint256",
          "name": "_senderId",
          "type": "uint256"
        },
        {
          "internalType": "uint256",
          "name": "_serviceId",
          "type": "uint256"
        },
        {
          "internalType": "uint256",
          "name": "_proposalId",
          "type": "uint256"
        }
      ],
      "name": "validateProposal",
      "outputs": [],
      "stateMutability": "nonpayable",
      "type": "function"
    }
  ],
  "bytecode": "0x60a0604052306080523480156200001557600080fd5b506200002062000026565b620000e8565b600054610100900460ff1615620000935760405162461bcd60e51b815260206004820152602760248201527f496e697469616c697a61626c653a20636f6e747261637420697320696e697469604482015266616c697a696e6760c81b606482015260840160405180910390fd5b60005460ff9081161015620000e6576000805460ff191660ff9081179091556040519081527f7f26b83ff96e1f2b6a682f133852f6798a09c465da95921460cefb38474024989060200160405180910390a15b565b6080516137666200012060003960008181610d2701528181610d67015281816110130152818161105301526110e201526137666000f3fe6080604052600436106102045760003560e01c8063715018a611610118578063c22c4f43116100a0578063d547741f1161006f578063d547741f14610657578063ef0e239b14610677578063f2fde38b146106a4578063f6c53d9b146106c4578063f9eaee0d146106db57600080fd5b8063c22c4f43146105b2578063c2cfee27146105e6578063c901677414610617578063cb28fee71461063757600080fd5b80638da5cb5b116100e75780638da5cb5b1461051257806391d1485414610530578063a217fddf14610550578063a7d5eaea14610565578063aba210091461058557600080fd5b8063715018a61461048c57806371da85f9146104a157806377d8434f146104d257806384b32943146104f257600080fd5b80633659cfe61161019b5780634f1ef2861161016a5780634f1ef286146103d757806352d1902d146103ea578063572b6c05146103ff57806363a35239146104385780636ce76f301461045857600080fd5b80633659cfe6146103575780633751d89c14610377578063485cc9551461039757806349c6559c146103b757600080fd5b8063248a9ca3116101d7578063248a9ca3146102b957806326d00668146102f75780632f2ff15d1461031757806336568abe1461033757600080fd5b806301ffc9a7146102095780630927e5d41461023e5780630e066025146102605780631499f9e614610280575b600080fd5b34801561021557600080fd5b50610229610224366004612d8c565b610715565b60405190151581526020015b60405180910390f35b34801561024a57600080fd5b5061025e610259366004612db6565b61074c565b005b34801561026c57600080fd5b5061025e61027b366004612e2b565b61096c565b34801561028c57600080fd5b50610130546102a1906001600160a01b031681565b6040516001600160a01b039091168152602001610235565b3480156102c557600080fd5b506102e96102d4366004612e7e565b600090815260fc602052604090206001015490565b604051908152602001610235565b34801561030357600080fd5b5061025e610312366004612eb3565b610c01565b34801561032357600080fd5b5061025e610332366004612ece565b610c64565b34801561034357600080fd5b5061025e610352366004612ece565b610c8e565b34801561036357600080fd5b5061025e610372366004612eb3565b610d1c565b34801561038357600080fd5b5061025e610392366004612eb3565b610dfc565b3480156103a357600080fd5b5061025e6103b2366004612efa565b610e55565b3480156103c357600080fd5b5061025e6103d2366004612e7e565b610fc1565b61025e6103e5366004612f3a565b611008565b3480156103f657600080fd5b506102e96110d5565b34801561040b57600080fd5b5061022961041a366004612eb3565b6001600160a01b031660009081526065602052604090205460ff1690565b34801561044457600080fd5b5061025e610453366004612ffc565b611188565b34801561046457600080fd5b506102e97f2fdac322ee704ce09f0773f7f3f92eb98d5e7c836ee9c056cccd5f61041e5e3f81565b34801561049857600080fd5b5061025e611478565b3480156104ad57600080fd5b506102296104bc366004612eb3565b6101336020526000908152604090205460ff1681565b3480156104de57600080fd5b5061025e6104ed366004612db6565b61148c565b3480156104fe57600080fd5b506102e961050d366004612e2b565b611626565b34801561051e57600080fd5b506033546001600160a01b03166102a1565b34801561053c57600080fd5b5061022961054b366004612ece565b611756565b34801561055c57600080fd5b506102e9600081565b34801561057157600080fd5b5061025e610580366004612db6565b611781565b34801561059157600080fd5b506105a56105a036600461306d565b6117fa565b6040516102359190613111565b3480156105be57600080fd5b506105d26105cd366004612e7e565b61194c565b60405161023598979695949392919061317b565b3480156105f257600080fd5b5061060661060136600461306d565b611a1c565b6040516102359594939291906131cf565b34801561062357600080fd5b5061025e610632366004613222565b611aef565b34801561064357600080fd5b5061025e610652366004612ffc565b611bd0565b34801561066357600080fd5b5061025e610672366004612ece565b611fc7565b34801561068357600080fd5b50610697610692366004612e7e565b611fec565b6040516102359190613259565b3480156106b057600080fd5b5061025e6106bf366004612eb3565b6121a4565b3480156106d057600080fd5b506102e961012e5481565b3480156106e757600080fd5b506102296106f6366004612eb3565b6001600160a01b03166000908152610133602052604090205460ff1690565b60006001600160e01b03198216637965db0b60e01b148061074657506301ffc9a760e01b6001600160e01b03198316145b92915050565b61012f5483906001600160a01b0316632fa117e58261076961221a565b6040516001600160e01b031960e085901b16815260048101929092526001600160a01b0316602482015260440160206040518083038186803b1580156107ae57600080fd5b505afa1580156107c2573d6000803e3d6000fd5b505050506040513d601f19601f820116820180604052508101906107e691906132d1565b61080b5760405162461bcd60e51b8152600401610802906132ee565b60405180910390fd5b60008381526101316020908152604080832061013283528184208685529092529091206001815460ff1660028111156108465761084661308f565b14156108645760405162461bcd60e51b81526004016108029061331d565b6002815460ff16600281111561087c5761087c61308f565b14156108d55760405162461bcd60e51b815260206004820152602260248201527f50726f706f73616c2068617320616c7265616479206265656e2072656a656374604482015261195960f21b6064820152608401610802565b8160010154861461091f5760405162461bcd60e51b81526020600482015260146024820152732cb7ba93b932903737ba103a343290313abcb2b960611b6044820152606401610802565b805460ff1916600217815560408051868152602081018690527ffa74c17c82b1d1960368a621d45c9afe55e65c87a2c9fe612ac7e36c382b3f7891015b60405180910390a1505050505050565b61012f5484906001600160a01b0316632fa117e58261098961221a565b6040516001600160e01b031960e085901b16815260048101929092526001600160a01b0316602482015260440160206040518083038186803b1580156109ce57600080fd5b505afa1580156109e2573d6000803e3d6000fd5b505050506040513d601f19601f82011682018060405250810190610a0691906132d1565b610a225760405162461bcd60e51b8152600401610802906132ee565b60008481526101316020526040902061012e548510610a835760405162461bcd60e51b815260206004820152601a60248201527f54686973207365727669636520646f65736e27742065786973740000000000006044820152606401610802565b6004815460ff166004811115610a9b57610a9b61308f565b1480610abc57506000815460ff166004811115610aba57610aba61308f565b145b610b1a5760405162461bcd60e51b815260206004820152602960248201527f53657276696365207374617475732073686f756c64206265206f70656e6564206044820152681bdc88199a5b1b195960ba1b6064820152608401610802565b80600301548614610b935760405162461bcd60e51b815260206004820152603760248201527f4f6e6c792074686520696e69746961746f72206f7220612064656c656761746560448201527f2063616e207570646174652074686520736572766963650000000000000000006064820152608401610802565b82610bb05760405162461bcd60e51b815260040161080290613360565b610bbe600482018585612c7f565b50847f1cae99404f615a4039d85b1009cb70622aae6d64f671e8b1b191d9269847d43e8585604051610bf19291906133c0565b60405180910390a2505050505050565b610c09612229565b6001600160a01b038116600081815260656020908152604091829020805460ff1916600117905590519182527f3ef8564460ada92419608d823c014975d98f8104d7d1e68c222967ac6814cd9791015b60405180910390a150565b600082815260fc6020526040902060010154610c7f816122a2565b610c8983836122b3565b505050565b610c9661221a565b6001600160a01b0316816001600160a01b031614610d0e5760405162461bcd60e51b815260206004820152602f60248201527f416363657373436f6e74726f6c3a2063616e206f6e6c792072656e6f756e636560448201526e103937b632b9903337b91039b2b63360891b6064820152608401610802565b610d18828261233a565b5050565b306001600160a01b037f0000000000000000000000000000000000000000000000000000000000000000161415610d655760405162461bcd60e51b8152600401610802906133d4565b7f00000000000000000000000000000000000000000000000000000000000000006001600160a01b0316610dae6000805160206136ea833981519152546001600160a01b031690565b6001600160a01b031614610dd45760405162461bcd60e51b815260040161080290613420565b610ddd816123bf565b60408051600080825260208201909252610df9918391906123c7565b50565b610e04612229565b6001600160a01b038116600081815260656020908152604091829020805460ff1916905590519182527fd2d636efcad0cea42e170256f4c5d8b1cd81e47b855557edaf44014e6cc4cee69101610c59565b600054610100900460ff1615808015610e755750600054600160ff909116105b80610e8f5750303b158015610e8f575060005460ff166001145b610ef25760405162461bcd60e51b815260206004820152602e60248201527f496e697469616c697a61626c653a20636f6e747261637420697320616c72656160448201526d191e481a5b9a5d1a585b1a5e995960921b6064820152608401610802565b6000805460ff191660011790558015610f15576000805461ff0019166101001790555b610f1d612541565b610f25612570565b610f2d612570565b610f3f6000610f3a61221a565b612597565b61012f80546001600160a01b038086166001600160a01b031992831617909255610130805492851692909116919091179055600161012e558015610c89576000805461ff0019169055604051600181527f7f26b83ff96e1f2b6a682f133852f6798a09c465da95921460cefb38474024989060200160405180910390a1505050565b7f2fdac322ee704ce09f0773f7f3f92eb98d5e7c836ee9c056cccd5f61041e5e3f610feb816122a2565b50600090815261013160205260409020805460ff19166002179055565b306001600160a01b037f00000000000000000000000000000000000000000000000000000000000000001614156110515760405162461bcd60e51b8152600401610802906133d4565b7f00000000000000000000000000000000000000000000000000000000000000006001600160a01b031661109a6000805160206136ea833981519152546001600160a01b031690565b6001600160a01b0316146110c05760405162461bcd60e51b815260040161080290613420565b6110c9826123bf565b610d18828260016123c7565b6000306001600160a01b037f000000000000000000000000000000000000000000000000000000000000000016146111755760405162461bcd60e51b815260206004820152603860248201527f555550535570677261646561626c653a206d757374206e6f742062652063616c60448201527f6c6564207468726f7567682064656c656761746563616c6c00000000000000006064820152608401610802565b506000805160206136ea83398151915290565b61012f5486906001600160a01b0316632fa117e5826111a561221a565b6040516001600160e01b031960e085901b16815260048101929092526001600160a01b0316602482015260440160206040518083038186803b1580156111ea57600080fd5b505afa1580156111fe573d6000803e3d6000fd5b505050506040513d601f19601f8201168201806040525081019061122291906132d1565b61123e5760405162461bcd60e51b8152600401610802906132ee565b6001600160a01b0385166000908152610133602052604090205460ff166112a35760405162461bcd60e51b8152602060048201526019602482015278151a1a5cc81d1bdad95b881a5cc81b9bdd08185b1b1bddd959603a1b6044820152606401610802565b60008681526101316020908152604080832061013283528184208b85529092529091206004825460ff1660048111156112de576112de61308f565b146113235760405162461bcd60e51b815260206004820152601560248201527414d95c9d9a58d9481a5cc81b9bdd081bdc195b9959605a1b6044820152606401610802565b888160010154146113765760405162461bcd60e51b815260206004820152601f60248201527f546869732070726f706f73616c20646f65736e277420657869737420796574006044820152606401610802565b836113935760405162461bcd60e51b815260040161080290613360565b6001815460ff1660028111156113ab576113ab61308f565b14156113f95760405162461bcd60e51b815260206004820181905260248201527f546869732070726f706f73616c20697320616c726561647920757064617465646044820152606401610802565b6002810180546001600160a01b0319166001600160a01b0389161790556003810186905561142b600482018686612c7f565b507f5cf385c7cf3e1609443b09191511540e030254887cccb510dfface4c041b6c55888a87878b8b6040516114659695949392919061346c565b60405180910390a1505050505050505050565b611480612229565b61148a60006125a1565b565b61012f5483906001600160a01b0316632fa117e5826114a961221a565b6040516001600160e01b031960e085901b16815260048101929092526001600160a01b0316602482015260440160206040518083038186803b1580156114ee57600080fd5b505afa158015611502573d6000803e3d6000fd5b505050506040513d601f19601f8201168201806040525081019061152691906132d1565b6115425760405162461bcd60e51b8152600401610802906132ee565b60008381526101316020908152604080832061013283528184208685529092529091206001815460ff16600281111561157d5761157d61308f565b141561159b5760405162461bcd60e51b81526004016108029061331d565b816001015486146115e55760405162461bcd60e51b81526020600482015260146024820152732cb7ba93b932903737ba103a343290313abcb2b960611b6044820152606401610802565b805460ff1916600117815560408051868152602081018690527f03a3b4a747d115189175e375b6c6ccd9dcdacdf7b4369aa5d8c3b8afda8ca295910161095c565b61012f5460009085906001600160a01b0316632fa117e58261164661221a565b6040516001600160e01b031960e085901b16815260048101929092526001600160a01b0316602482015260440160206040518083038186803b15801561168b57600080fd5b505afa15801561169f573d6000803e3d6000fd5b505050506040513d601f19601f820116820180604052508101906116c391906132d1565b6116df5760405162461bcd60e51b8152600401610802906132ee565b6101305460405162f577a560e81b8152600481018790526001600160a01b039091169063f577a5009060240160006040518083038186803b15801561172357600080fd5b505afa158015611737573d6000803e3d6000fd5b5050505061174c60048788600088888b6125f3565b9695505050505050565b600091825260fc602090815260408084206001600160a01b0393909316845291905290205460ff1690565b7f2fdac322ee704ce09f0773f7f3f92eb98d5e7c836ee9c056cccd5f61041e5e3f6117ab816122a2565b506000928352610131602090815260408085206101328352818620948652939091529092208154600160ff19918216811784558083015460028501556006909301939093558054909216179055565b6118366040805160a0810190915280600081526020016000815260200160006001600160a01b0316815260200160008152602001606081525090565b60008381526101326020908152604080832085845290915290819020815160a081019092528054829060ff1660028111156118735761187361308f565b60028111156118845761188461308f565b81526001820154602082015260028201546001600160a01b03166040820152600382015460608201526004820180546080909201916118c2906134aa565b80601f01602080910402602001604051908101604052809291908181526020018280546118ee906134aa565b801561193b5780601f106119105761010080835404028352916020019161193b565b820191906000526020600020905b81548152906001019060200180831161191e57829003601f168201915b505050505081525050905092915050565b610131602052600090815260409020805460018201546002830154600384015460048501805460ff90951695939492939192611987906134aa565b80601f01602080910402602001604051908101604052809291908181526020018280546119b3906134aa565b8015611a005780601f106119d557610100808354040283529160200191611a00565b820191906000526020600020905b8154815290600101906020018083116119e357829003601f168201915b5050505050908060050154908060060154908060070154905088565b6101326020908152600092835260408084209091529082529020805460018201546002830154600384015460048501805460ff9095169593946001600160a01b03909316939192611a6c906134aa565b80601f0160208091040260200160405190810160405280929190818152602001828054611a98906134aa565b8015611ae55780601f10611aba57610100808354040283529160200191611ae5565b820191906000526020600020905b815481529060010190602001808311611ac857829003601f168201915b5050505050905085565b611af7612229565b6001600160a01b038216158015611b0d57508015155b80611b2057506001600160a01b03821615155b611b6c5760405162461bcd60e51b815260206004820152601d60248201527f4f776e65722063616e27742072656d6f7665204f7820616464726573730000006044820152606401610802565b6001600160a01b03821660008181526101336020908152604091829020805460ff19168515159081179091558251938452908301527fd138accc17a5df6552bf13624802a01fc56a160f1e6e6247743ccd07ed99a7c9910160405180910390a15050565b61012f5486906001600160a01b0316632fa117e582611bed61221a565b6040516001600160e01b031960e085901b16815260048101929092526001600160a01b0316602482015260440160206040518083038186803b158015611c3257600080fd5b505afa158015611c46573d6000803e3d6000fd5b505050506040513d601f19601f82011682018060405250810190611c6a91906132d1565b611c865760405162461bcd60e51b8152600401610802906132ee565b6001600160a01b0385166000908152610133602052604090205460ff16611ceb5760405162461bcd60e51b8152602060048201526019602482015278151a1a5cc81d1bdad95b881a5cc81b9bdd08185b1b1bddd959603a1b6044820152606401610802565b6000868152610131602052604090206004815460ff166004811115611d1257611d1261308f565b14611d575760405162461bcd60e51b815260206004820152601560248201527414d95c9d9a58d9481a5cc81b9bdd081bdc195b9959605a1b6044820152606401610802565b6000878152610132602090815260408083208b8452909152902060010154881415611ddc5760405162461bcd60e51b815260206004820152602f60248201527f596f7520616c7265616479206372656174656420612070726f706f73616c206660448201526e6f722074686973207365727669636560881b6064820152608401610802565b8781600101541415611e4a5760405162461bcd60e51b815260206004820152603160248201527f596f7520636f756c646e2774206372656174652070726f706f73616c20666f7260448201527020796f7572206f776e207365727669636560781b6064820152608401610802565b82611e675760405162461bcd60e51b815260040161080290613360565b600581018054906000611e79836134fb565b90915550506040805160a081019091528060008152602001898152602001876001600160a01b0316815260200186815260200185858080601f0160208091040260200160405190810160405280939291908181526020018383808284376000920182905250939094525050898152610132602090815260408083208d845290915290208251815491925090829060ff19166001836002811115611f1e57611f1e61308f565b0217905550602082810151600183015560408301516002830180546001600160a01b0319166001600160a01b039092169190911790556060830151600383015560808301518051611f759260048501920190612d03565b509050507fd56b812321b2869d7d3fe7c8f52e85169e580ffc706d0c33ba13145fe39cd53c8789868660008b8b604051611fb59796959493929190613516565b60405180910390a15050505050505050565b600082815260fc6020526040902060010154611fe2816122a2565b610c89838361233a565b6120356040805161010081019091528060008152602001600081526020016000815260200160008152602001606081526020016000815260200160008152602001600081525090565b61012e5482106120875760405162461bcd60e51b815260206004820152601a60248201527f54686973207365727669636520646f65736e27742065786973740000000000006044820152606401610802565b6000828152610131602052604090819020815161010081019092528054829060ff1660048111156120ba576120ba61308f565b60048111156120cb576120cb61308f565b81526020016001820154815260200160028201548152602001600382015481526020016004820180546120fd906134aa565b80601f0160208091040260200160405190810160405280929190818152602001828054612129906134aa565b80156121765780601f1061214b57610100808354040283529160200191612176565b820191906000526020600020905b81548152906001019060200180831161215957829003601f168201915b5050505050815260200160058201548152602001600682015481526020016007820154815250509050919050565b6121ac612229565b6001600160a01b0381166122115760405162461bcd60e51b815260206004820152602660248201527f4f776e61626c653a206e6577206f776e657220697320746865207a65726f206160448201526564647265737360d01b6064820152608401610802565b610df9816125a1565b60006122246127c8565b905090565b61223161221a565b6001600160a01b031661224c6033546001600160a01b031690565b6001600160a01b03161461148a5760405162461bcd60e51b815260206004820181905260248201527f4f776e61626c653a2063616c6c6572206973206e6f7420746865206f776e65726044820152606401610802565b610df9816122ae61221a565b612801565b6122bd8282611756565b610d1857600082815260fc602090815260408083206001600160a01b03851684529091529020805460ff191660011790556122f661221a565b6001600160a01b0316816001600160a01b0316837f2f8788117e7eff1d82e926ec794901d17c78024a50270940304540a733656f0d60405160405180910390a45050565b6123448282611756565b15610d1857600082815260fc602090815260408083206001600160a01b03851684529091529020805460ff1916905561237b61221a565b6001600160a01b0316816001600160a01b0316837ff6391f5c32d9c69d2a47ea670b442974b53935d1edc7fd64eb21e047a839171b60405160405180910390a45050565b610df9612229565b7f4910fdfa16fed3260ed0e7147f7cc6da11a60208b5b9406d12a635614ffd91435460ff16156123fa57610c898361285a565b826001600160a01b03166352d1902d6040518163ffffffff1660e01b815260040160206040518083038186803b15801561243357600080fd5b505afa925050508015612463575060408051601f3d908101601f1916820190925261246091810190613563565b60015b6124c65760405162461bcd60e51b815260206004820152602e60248201527f45524331393637557067726164653a206e657720696d706c656d656e7461746960448201526d6f6e206973206e6f74205555505360901b6064820152608401610802565b6000805160206136ea83398151915281146125355760405162461bcd60e51b815260206004820152602960248201527f45524331393637557067726164653a20756e737570706f727465642070726f786044820152681a58589b195555525160ba1b6064820152608401610802565b50610c898383836128f6565b600054610100900460ff166125685760405162461bcd60e51b81526004016108029061357c565b61148a612921565b600054610100900460ff1661148a5760405162461bcd60e51b81526004016108029061357c565b610d1882826122b3565b603380546001600160a01b038381166001600160a01b0319831681179093556040519116919082907f8be0079c531659141344cd1fd0a4f28419497f9722a3daafe3b4186f6b6457e090600090a35050565b60008087116126445760405162461bcd60e51b815260206004820152601f60248201527f596f752073686f756c64206861766520612054616c656e744c617965724964006044820152606401610802565b8585141561269f5760405162461bcd60e51b815260206004820152602260248201527f53656c6c657220616e642062757965722063616e2774206265207468652073616044820152616d6560f01b6064820152608401610802565b826126bc5760405162461bcd60e51b815260040161080290613360565b61012e805490819060006126cf836134fb565b909155505060008181526101316020526040902080548a90829060ff191660018360048111156127015761270161308f565b0217905550600181018890556002810187905560038101899055612729600482018787612c7f565b506007810184905560408051838152602081018a9052908101889052606081018a9052608081018590527f9cd325e0ba2126728b21176b4b24c49c672e66820627759eedcab6b5dd7dac499060a00160405180910390a17f4874366e887bb729d49976a8f6751c4263d1668fd396db9b8d5f037895e7a7458287876040516127b3939291906135c7565b60405180910390a15098975050505050505050565b6000601436108015906127ea57503360009081526065602052604090205460ff165b156127fc575060131936013560601c90565b503390565b61280b8282611756565b610d185761281881612958565b61282383602061296a565b6040516020016128349291906135e1565b60408051601f198184030181529082905262461bcd60e51b825261080291600401613656565b6001600160a01b0381163b6128c75760405162461bcd60e51b815260206004820152602d60248201527f455243313936373a206e657720696d706c656d656e746174696f6e206973206e60448201526c1bdd08184818dbdb9d1c9858dd609a1b6064820152608401610802565b6000805160206136ea83398151915280546001600160a01b0319166001600160a01b0392909216919091179055565b6128ff83612b0d565b60008251118061290c5750805b15610c895761291b8383612b4d565b50505050565b600054610100900460ff166129485760405162461bcd60e51b81526004016108029061357c565b61148a61295361221a565b6125a1565b60606107466001600160a01b03831660145b60606000612979836002613669565b612984906002613688565b67ffffffffffffffff81111561299c5761299c612f24565b6040519080825280601f01601f1916602001820160405280156129c6576020820181803683370190505b509050600360fc1b816000815181106129e1576129e16136a0565b60200101906001600160f81b031916908160001a905350600f60fb1b81600181518110612a1057612a106136a0565b60200101906001600160f81b031916908160001a9053506000612a34846002613669565b612a3f906001613688565b90505b6001811115612ab7576f181899199a1a9b1b9c1cb0b131b232b360811b85600f1660108110612a7357612a736136a0565b1a60f81b828281518110612a8957612a896136a0565b60200101906001600160f81b031916908160001a90535060049490941c93612ab0816136b6565b9050612a42565b508315612b065760405162461bcd60e51b815260206004820181905260248201527f537472696e67733a20686578206c656e67746820696e73756666696369656e746044820152606401610802565b9392505050565b612b168161285a565b6040516001600160a01b038216907fbc7cd75a20ee27fd9adebab32041f755214dbc6bffa90cc0225b39da2e5c2d3b90600090a250565b60606001600160a01b0383163b612bb55760405162461bcd60e51b815260206004820152602660248201527f416464726573733a2064656c65676174652063616c6c20746f206e6f6e2d636f6044820152651b9d1c9858dd60d21b6064820152608401610802565b600080846001600160a01b031684604051612bd091906136cd565b600060405180830381855af49150503d8060008114612c0b576040519150601f19603f3d011682016040523d82523d6000602084013e612c10565b606091505b5091509150612c38828260405180606001604052806027815260200161370a60279139612c41565b95945050505050565b60608315612c50575081612b06565b612b068383815115612c655781518083602001fd5b8060405162461bcd60e51b81526004016108029190613656565b828054612c8b906134aa565b90600052602060002090601f016020900481019282612cad5760008555612cf3565b82601f10612cc65782800160ff19823516178555612cf3565b82800160010185558215612cf3579182015b82811115612cf3578235825591602001919060010190612cd8565b50612cff929150612d77565b5090565b828054612d0f906134aa565b90600052602060002090601f016020900481019282612d315760008555612cf3565b82601f10612d4a57805160ff1916838001178555612cf3565b82800160010185558215612cf3579182015b82811115612cf3578251825591602001919060010190612d5c565b5b80821115612cff5760008155600101612d78565b600060208284031215612d9e57600080fd5b81356001600160e01b031981168114612b0657600080fd5b600080600060608486031215612dcb57600080fd5b505081359360208301359350604090920135919050565b60008083601f840112612df457600080fd5b50813567ffffffffffffffff811115612e0c57600080fd5b602083019150836020828501011115612e2457600080fd5b9250929050565b60008060008060608587031215612e4157600080fd5b8435935060208501359250604085013567ffffffffffffffff811115612e6657600080fd5b612e7287828801612de2565b95989497509550505050565b600060208284031215612e9057600080fd5b5035919050565b80356001600160a01b0381168114612eae57600080fd5b919050565b600060208284031215612ec557600080fd5b612b0682612e97565b60008060408385031215612ee157600080fd5b82359150612ef160208401612e97565b90509250929050565b60008060408385031215612f0d57600080fd5b612f1683612e97565b9150612ef160208401612e97565b634e487b7160e01b600052604160045260246000fd5b60008060408385031215612f4d57600080fd5b612f5683612e97565b9150602083013567ffffffffffffffff80821115612f7357600080fd5b818501915085601f830112612f8757600080fd5b813581811115612f9957612f99612f24565b604051601f8201601f19908116603f01168101908382118183101715612fc157612fc1612f24565b81604052828152886020848701011115612fda57600080fd5b8260208601602083013760006020848301015280955050505050509250929050565b60008060008060008060a0878903121561301557600080fd5b863595506020870135945061302c60408801612e97565b935060608701359250608087013567ffffffffffffffff81111561304f57600080fd5b61305b89828a01612de2565b979a9699509497509295939492505050565b6000806040838503121561308057600080fd5b50508035926020909101359150565b634e487b7160e01b600052602160045260246000fd5b600381106130b5576130b561308f565b9052565b60005b838110156130d45781810151838201526020016130bc565b8381111561291b5750506000910152565b600081518084526130fd8160208601602086016130b9565b601f01601f19169290920160200192915050565b602081526131236020820183516130a5565b6020820151604082015260018060a01b036040830151166060820152606082015160808201526000608083015160a08084015261316360c08401826130e5565b949350505050565b600581106130b5576130b561308f565b600061010061318a838c61316b565b8960208401528860408401528760608401528060808401526131ae818401886130e5565b60a0840196909652505060c081019290925260e09091015295945050505050565b6131d981876130a5565b84602082015260018060a01b038416604082015282606082015260a06080820152600061320960a08301846130e5565b979650505050505050565b8015158114610df957600080fd5b6000806040838503121561323557600080fd5b61323e83612e97565b9150602083013561324e81613214565b809150509250929050565b6020815261326b60208201835161316b565b602082015160408201526040820151606082015260608201516080820152600060808301516101008060a08501526132a76101208501836130e5565b915060a085015160c085015260c085015160e085015260e085015181850152508091505092915050565b6000602082840312156132e357600080fd5b8151612b0681613214565b6020808252601590820152744e6f74206f776e6572206f722064656c656761746560581b604082015260600190565b60208082526023908201527f50726f706f73616c2068617320616c7265616479206265656e2076616c6964616040820152621d195960ea1b606082015260800190565b6020808252601f908201527f53686f756c642070726f7669646520612076616c696420495046532055524900604082015260600190565b81835281816020850137506000828201602090810191909152601f909101601f19169091010190565b602081526000613163602083018486613397565b6020808252602c908201527f46756e6374696f6e206d7573742062652063616c6c6564207468726f7567682060408201526b19195b1959d85d1958d85b1b60a21b606082015260800190565b6020808252602c908201527f46756e6374696f6e206d7573742062652063616c6c6564207468726f7567682060408201526b6163746976652070726f787960a01b606082015260800190565b86815285602082015260a06040820152600061348c60a083018688613397565b6001600160a01b039490941660608301525060800152949350505050565b600181811c908216806134be57607f821691505b602082108114156134df57634e487b7160e01b600052602260045260246000fd5b50919050565b634e487b7160e01b600052601160045260246000fd5b600060001982141561350f5761350f6134e5565b5060010190565b87815286602082015260c06040820152600061353660c083018789613397565b905061354560608301866130a5565b6001600160a01b0393909316608082015260a0015295945050505050565b60006020828403121561357557600080fd5b5051919050565b6020808252602b908201527f496e697469616c697a61626c653a20636f6e7472616374206973206e6f74206960408201526a6e697469616c697a696e6760a81b606082015260800190565b838152604060208201526000612c38604083018486613397565b7f416363657373436f6e74726f6c3a206163636f756e74200000000000000000008152600083516136198160178501602088016130b9565b7001034b99036b4b9b9b4b733903937b6329607d1b601791840191820152835161364a8160288401602088016130b9565b01602801949350505050565b602081526000612b0660208301846130e5565b6000816000190483118215151615613683576136836134e5565b500290565b6000821982111561369b5761369b6134e5565b500190565b634e487b7160e01b600052603260045260246000fd5b6000816136c5576136c56134e5565b506000190190565b600082516136df8184602087016130b9565b919091019291505056fe360894a13ba1a3210667c828492db98dca3e2076cc3735a920a3ca505d382bbc416464726573733a206c6f772d6c6576656c2064656c65676174652063616c6c206661696c6564a264697066735822122023cbfcad929c473fdd68f02fe3efe3b9391202a000247b12fcda476566c7213664736f6c63430008090033",
  "linkReferences": {},
  "deployedLinkReferences": {}
}