{
  "_format": "hh-sol-artifact-1",
  "contractName": "ServiceRegistry",
  "sourceName": "contracts/ServiceRegistry.sol",
  "abi": [
    {
      "inputs": [],
      "stateMutability": "nonpayable",
      "type": "constructor"
    },
    {
      "anonymous": false,
      "inputs": [
        {
          "indexed": false,
          "internalType": "address",
          "name": "previousAdmin",
          "type": "address"
        },
        {
          "indexed": false,
          "internalType": "address",
          "name": "newAdmin",
          "type": "address"
        }
      ],
      "name": "AdminChanged",
      "type": "event"
    },
    {
      "anonymous": false,
      "inputs": [
        {
          "indexed": false,
          "internalType": "address",
          "name": "_tokenAddress",
          "type": "address"
        },
        {
          "indexed": false,
          "internalType": "bool",
          "name": "_status",
          "type": "bool"
        }
      ],
      "name": "AllowedTokenListUpdated",
      "type": "event"
    },
    {
      "anonymous": false,
      "inputs": [
        {
          "indexed": true,
          "internalType": "address",
          "name": "beacon",
          "type": "address"
        }
      ],
      "name": "BeaconUpgraded",
      "type": "event"
    },
    {
      "anonymous": false,
      "inputs": [
        {
          "indexed": false,
          "internalType": "uint8",
          "name": "version",
          "type": "uint8"
        }
      ],
      "name": "Initialized",
      "type": "event"
    },
    {
      "anonymous": false,
      "inputs": [
        {
          "indexed": true,
          "internalType": "address",
          "name": "previousOwner",
          "type": "address"
        },
        {
          "indexed": true,
          "internalType": "address",
          "name": "newOwner",
          "type": "address"
        }
      ],
      "name": "OwnershipTransferred",
      "type": "event"
    },
    {
      "anonymous": false,
      "inputs": [
        {
          "indexed": false,
          "internalType": "uint256",
          "name": "serviceId",
          "type": "uint256"
        },
        {
          "indexed": false,
          "internalType": "uint256",
          "name": "sellerId",
          "type": "uint256"
        },
        {
          "indexed": false,
          "internalType": "string",
          "name": "proposalDataUri",
          "type": "string"
        },
        {
          "indexed": false,
          "internalType": "enum ServiceRegistry.ProposalStatus",
          "name": "status",
          "type": "uint8"
        },
        {
          "indexed": false,
          "internalType": "address",
          "name": "rateToken",
          "type": "address"
        },
        {
          "indexed": false,
          "internalType": "uint256",
          "name": "rateAmount",
          "type": "uint256"
        },
        {
          "indexed": false,
          "internalType": "uint16",
          "name": "platformId",
          "type": "uint16"
        }
      ],
      "name": "ProposalCreated",
      "type": "event"
    },
    {
      "anonymous": false,
      "inputs": [
        {
          "indexed": false,
          "internalType": "uint256",
          "name": "serviceId",
          "type": "uint256"
        },
        {
          "indexed": false,
          "internalType": "uint256",
          "name": "sellerId",
          "type": "uint256"
        }
      ],
      "name": "ProposalRejected",
      "type": "event"
    },
    {
      "anonymous": false,
      "inputs": [
        {
          "indexed": false,
          "internalType": "uint256",
          "name": "serviceId",
          "type": "uint256"
        },
        {
          "indexed": false,
          "internalType": "uint256",
          "name": "sellerId",
          "type": "uint256"
        },
        {
          "indexed": false,
          "internalType": "string",
          "name": "proposalDataUri",
          "type": "string"
        },
        {
          "indexed": false,
          "internalType": "address",
          "name": "rateToken",
          "type": "address"
        },
        {
          "indexed": false,
          "internalType": "uint256",
          "name": "rateAmount",
          "type": "uint256"
        }
      ],
      "name": "ProposalUpdated",
      "type": "event"
    },
    {
      "anonymous": false,
      "inputs": [
        {
          "indexed": false,
          "internalType": "uint256",
          "name": "serviceId",
          "type": "uint256"
        },
        {
          "indexed": false,
          "internalType": "uint256",
          "name": "sellerId",
          "type": "uint256"
        }
      ],
      "name": "ProposalValidated",
      "type": "event"
    },
    {
      "anonymous": false,
      "inputs": [
        {
          "indexed": true,
          "internalType": "bytes32",
          "name": "role",
          "type": "bytes32"
        },
        {
          "indexed": true,
          "internalType": "bytes32",
          "name": "previousAdminRole",
          "type": "bytes32"
        },
        {
          "indexed": true,
          "internalType": "bytes32",
          "name": "newAdminRole",
          "type": "bytes32"
        }
      ],
      "name": "RoleAdminChanged",
      "type": "event"
    },
    {
      "anonymous": false,
      "inputs": [
        {
          "indexed": true,
          "internalType": "bytes32",
          "name": "role",
          "type": "bytes32"
        },
        {
          "indexed": true,
          "internalType": "address",
          "name": "account",
          "type": "address"
        },
        {
          "indexed": true,
          "internalType": "address",
          "name": "sender",
          "type": "address"
        }
      ],
      "name": "RoleGranted",
      "type": "event"
    },
    {
      "anonymous": false,
      "inputs": [
        {
          "indexed": true,
          "internalType": "bytes32",
          "name": "role",
          "type": "bytes32"
        },
        {
          "indexed": true,
          "internalType": "address",
          "name": "account",
          "type": "address"
        },
        {
          "indexed": true,
          "internalType": "address",
          "name": "sender",
          "type": "address"
        }
      ],
      "name": "RoleRevoked",
      "type": "event"
    },
    {
      "anonymous": false,
      "inputs": [
        {
          "indexed": false,
          "internalType": "uint256",
          "name": "id",
          "type": "uint256"
        }
      ],
      "name": "ServiceCancelled",
      "type": "event"
    },
    {
      "anonymous": false,
      "inputs": [
        {
          "indexed": false,
          "internalType": "uint256",
          "name": "id",
          "type": "uint256"
        },
        {
          "indexed": false,
          "internalType": "uint256",
          "name": "buyerId",
          "type": "uint256"
        },
        {
          "indexed": false,
          "internalType": "uint256",
          "name": "sellerId",
          "type": "uint256"
        },
        {
          "indexed": false,
          "internalType": "uint256",
          "name": "initiatorId",
          "type": "uint256"
        },
        {
          "indexed": false,
          "internalType": "uint256",
          "name": "platformId",
          "type": "uint256"
        }
      ],
      "name": "ServiceCreated",
      "type": "event"
    },
    {
      "anonymous": false,
      "inputs": [
        {
          "indexed": false,
          "internalType": "uint256",
          "name": "id",
          "type": "uint256"
        },
        {
          "indexed": false,
          "internalType": "string",
          "name": "serviceDataUri",
          "type": "string"
        }
      ],
      "name": "ServiceDataCreated",
      "type": "event"
    },
    {
      "anonymous": false,
      "inputs": [
        {
          "indexed": true,
          "internalType": "uint256",
          "name": "id",
          "type": "uint256"
        },
        {
          "indexed": false,
          "internalType": "string",
          "name": "newServiceDataUri",
          "type": "string"
        }
      ],
      "name": "ServiceDetailedUpdated",
      "type": "event"
    },
    {
      "anonymous": false,
      "inputs": [
        {
          "indexed": false,
          "internalType": "address",
          "name": "forwarder",
          "type": "address"
        }
      ],
      "name": "TrustedForwarderAdded",
      "type": "event"
    },
    {
      "anonymous": false,
      "inputs": [
        {
          "indexed": false,
          "internalType": "address",
          "name": "forwarder",
          "type": "address"
        }
      ],
      "name": "TrustedForwarderRemoved",
      "type": "event"
    },
    {
      "anonymous": false,
      "inputs": [
        {
          "indexed": true,
          "internalType": "address",
          "name": "implementation",
          "type": "address"
        }
      ],
      "name": "Upgraded",
      "type": "event"
    },
    {
      "inputs": [],
      "name": "DEFAULT_ADMIN_ROLE",
      "outputs": [
        {
          "internalType": "bytes32",
          "name": "",
          "type": "bytes32"
        }
      ],
      "stateMutability": "view",
      "type": "function"
    },
    {
      "inputs": [],
      "name": "ESCROW_ROLE",
      "outputs": [
        {
          "internalType": "bytes32",
          "name": "",
          "type": "bytes32"
        }
      ],
      "stateMutability": "view",
      "type": "function"
    },
    {
      "inputs": [
        {
          "internalType": "address",
          "name": "_forwarder",
          "type": "address"
        }
      ],
      "name": "addTrustedForwarder",
      "outputs": [],
      "stateMutability": "nonpayable",
      "type": "function"
    },
    {
      "inputs": [
        {
          "internalType": "uint256",
          "name": "_serviceId",
          "type": "uint256"
        },
        {
          "internalType": "uint256",
          "name": "_proposalId",
          "type": "uint256"
        },
        {
          "internalType": "uint256",
          "name": "_transactionId",
          "type": "uint256"
        }
      ],
      "name": "afterDeposit",
      "outputs": [],
      "stateMutability": "nonpayable",
      "type": "function"
    },
    {
      "inputs": [
        {
          "internalType": "uint256",
          "name": "_serviceId",
          "type": "uint256"
        }
      ],
      "name": "afterFullPayment",
      "outputs": [],
      "stateMutability": "nonpayable",
      "type": "function"
    },
    {
      "inputs": [
        {
          "internalType": "address",
          "name": "",
          "type": "address"
        }
      ],
      "name": "allowedTokenList",
      "outputs": [
        {
          "internalType": "bool",
          "name": "",
          "type": "bool"
        }
      ],
      "stateMutability": "view",
      "type": "function"
    },
    {
      "inputs": [
        {
          "internalType": "uint256",
          "name": "_serviceId",
          "type": "uint256"
        }
      ],
      "name": "cancelService",
      "outputs": [],
      "stateMutability": "nonpayable",
      "type": "function"
    },
    {
      "inputs": [
        {
          "internalType": "uint256",
          "name": "_senderId",
          "type": "uint256"
        },
        {
          "internalType": "uint256",
          "name": "_platformId",
          "type": "uint256"
        },
        {
          "internalType": "string",
          "name": "_serviceDataUri",
          "type": "string"
        }
      ],
      "name": "createOpenServiceFromBuyer",
      "outputs": [
        {
          "internalType": "uint256",
          "name": "",
          "type": "uint256"
        }
      ],
      "stateMutability": "payable",
      "type": "function"
    },
    {
      "inputs": [
        {
          "internalType": "uint256",
          "name": "_senderId",
          "type": "uint256"
        },
        {
          "internalType": "uint256",
          "name": "_serviceId",
          "type": "uint256"
        },
        {
          "internalType": "address",
          "name": "_rateToken",
          "type": "address"
        },
        {
          "internalType": "uint256",
          "name": "_rateAmount",
          "type": "uint256"
        },
        {
          "internalType": "uint16",
          "name": "_platformId",
          "type": "uint16"
        },
        {
          "internalType": "string",
          "name": "_proposalDataUri",
          "type": "string"
        }
      ],
      "name": "createProposal",
      "outputs": [],
      "stateMutability": "payable",
      "type": "function"
    },
    {
      "inputs": [
        {
          "internalType": "uint256",
          "name": "_serviceId",
          "type": "uint256"
        },
        {
          "internalType": "uint256",
          "name": "_proposalId",
          "type": "uint256"
        }
      ],
      "name": "getProposal",
      "outputs": [
        {
          "components": [
            {
              "internalType": "enum ServiceRegistry.ProposalStatus",
              "name": "status",
              "type": "uint8"
            },
            {
              "internalType": "uint256",
              "name": "sellerId",
              "type": "uint256"
            },
            {
              "internalType": "address",
              "name": "rateToken",
              "type": "address"
            },
            {
              "internalType": "uint256",
              "name": "rateAmount",
              "type": "uint256"
            },
            {
              "internalType": "uint16",
              "name": "platformId",
              "type": "uint16"
            },
            {
              "internalType": "string",
              "name": "proposalDataUri",
              "type": "string"
            }
          ],
          "internalType": "struct ServiceRegistry.Proposal",
          "name": "",
          "type": "tuple"
        }
      ],
      "stateMutability": "view",
      "type": "function"
    },
    {
      "inputs": [
        {
          "internalType": "bytes32",
          "name": "role",
          "type": "bytes32"
        }
      ],
      "name": "getRoleAdmin",
      "outputs": [
        {
          "internalType": "bytes32",
          "name": "",
          "type": "bytes32"
        }
      ],
      "stateMutability": "view",
      "type": "function"
    },
    {
      "inputs": [
        {
          "internalType": "uint256",
          "name": "_serviceId",
          "type": "uint256"
        }
      ],
      "name": "getService",
      "outputs": [
        {
          "components": [
            {
              "internalType": "enum ServiceRegistry.Status",
              "name": "status",
              "type": "uint8"
            },
            {
              "internalType": "uint256",
              "name": "buyerId",
              "type": "uint256"
            },
            {
              "internalType": "uint256",
              "name": "sellerId",
              "type": "uint256"
            },
            {
              "internalType": "uint256",
              "name": "initiatorId",
              "type": "uint256"
            },
            {
              "internalType": "string",
              "name": "serviceDataUri",
              "type": "string"
            },
            {
              "internalType": "uint256",
              "name": "countProposals",
              "type": "uint256"
            },
            {
              "internalType": "uint256",
              "name": "transactionId",
              "type": "uint256"
            },
            {
              "internalType": "uint256",
              "name": "platformId",
              "type": "uint256"
            }
          ],
          "internalType": "struct ServiceRegistry.Service",
          "name": "",
          "type": "tuple"
        }
      ],
      "stateMutability": "view",
      "type": "function"
    },
    {
      "inputs": [
        {
          "internalType": "bytes32",
          "name": "role",
          "type": "bytes32"
        },
        {
          "internalType": "address",
          "name": "account",
          "type": "address"
        }
      ],
      "name": "grantRole",
      "outputs": [],
      "stateMutability": "nonpayable",
      "type": "function"
    },
    {
      "inputs": [
        {
          "internalType": "bytes32",
          "name": "role",
          "type": "bytes32"
        },
        {
          "internalType": "address",
          "name": "account",
          "type": "address"
        }
      ],
      "name": "hasRole",
      "outputs": [
        {
          "internalType": "bool",
          "name": "",
          "type": "bool"
        }
      ],
      "stateMutability": "view",
      "type": "function"
    },
    {
      "inputs": [
        {
          "internalType": "address",
          "name": "_talentLayerIdAddress",
          "type": "address"
        },
        {
          "internalType": "address",
          "name": "_talentLayerPlatformIdAddress",
          "type": "address"
        }
      ],
      "name": "initialize",
      "outputs": [],
      "stateMutability": "nonpayable",
      "type": "function"
    },
    {
      "inputs": [
        {
          "internalType": "address",
          "name": "_tokenAddress",
          "type": "address"
        }
      ],
      "name": "isTokenAllowed",
      "outputs": [
        {
          "internalType": "bool",
          "name": "",
          "type": "bool"
        }
      ],
      "stateMutability": "view",
      "type": "function"
    },
    {
      "inputs": [
        {
          "internalType": "address",
          "name": "forwarder",
          "type": "address"
        }
      ],
      "name": "isTrustedForwarder",
      "outputs": [
        {
          "internalType": "bool",
          "name": "",
          "type": "bool"
        }
      ],
      "stateMutability": "view",
      "type": "function"
    },
    {
      "inputs": [],
      "name": "nextServiceId",
      "outputs": [
        {
          "internalType": "uint256",
          "name": "",
          "type": "uint256"
        }
      ],
      "stateMutability": "view",
      "type": "function"
    },
    {
      "inputs": [],
      "name": "owner",
      "outputs": [
        {
          "internalType": "address",
          "name": "",
          "type": "address"
        }
      ],
      "stateMutability": "view",
      "type": "function"
    },
    {
      "inputs": [
        {
          "internalType": "uint256",
          "name": "",
          "type": "uint256"
        },
        {
          "internalType": "uint256",
          "name": "",
          "type": "uint256"
        }
      ],
      "name": "proposals",
      "outputs": [
        {
          "internalType": "enum ServiceRegistry.ProposalStatus",
          "name": "status",
          "type": "uint8"
        },
        {
          "internalType": "uint256",
          "name": "sellerId",
          "type": "uint256"
        },
        {
          "internalType": "address",
          "name": "rateToken",
          "type": "address"
        },
        {
          "internalType": "uint256",
          "name": "rateAmount",
          "type": "uint256"
        },
        {
          "internalType": "uint16",
          "name": "platformId",
          "type": "uint16"
        },
        {
          "internalType": "string",
          "name": "proposalDataUri",
          "type": "string"
        }
      ],
      "stateMutability": "view",
      "type": "function"
    },
    {
      "inputs": [],
      "name": "proxiableUUID",
      "outputs": [
        {
          "internalType": "bytes32",
          "name": "",
          "type": "bytes32"
        }
      ],
      "stateMutability": "view",
      "type": "function"
    },
    {
      "inputs": [
        {
          "internalType": "uint256",
          "name": "_senderId",
          "type": "uint256"
        },
        {
          "internalType": "uint256",
          "name": "_serviceId",
          "type": "uint256"
        },
        {
          "internalType": "uint256",
          "name": "_proposalId",
          "type": "uint256"
        }
      ],
      "name": "rejectProposal",
      "outputs": [],
      "stateMutability": "nonpayable",
      "type": "function"
    },
    {
      "inputs": [
        {
          "internalType": "address",
          "name": "_forwarder",
          "type": "address"
        }
      ],
      "name": "removeTrustedForwarder",
      "outputs": [],
      "stateMutability": "nonpayable",
      "type": "function"
    },
    {
      "inputs": [],
      "name": "renounceOwnership",
      "outputs": [],
      "stateMutability": "nonpayable",
      "type": "function"
    },
    {
      "inputs": [
        {
          "internalType": "bytes32",
          "name": "role",
          "type": "bytes32"
        },
        {
          "internalType": "address",
          "name": "account",
          "type": "address"
        }
      ],
      "name": "renounceRole",
      "outputs": [],
      "stateMutability": "nonpayable",
      "type": "function"
    },
    {
      "inputs": [
        {
          "internalType": "bytes32",
          "name": "role",
          "type": "bytes32"
        },
        {
          "internalType": "address",
          "name": "account",
          "type": "address"
        }
      ],
      "name": "revokeRole",
      "outputs": [],
      "stateMutability": "nonpayable",
      "type": "function"
    },
    {
      "inputs": [
        {
          "internalType": "uint256",
          "name": "",
          "type": "uint256"
        }
      ],
      "name": "services",
      "outputs": [
        {
          "internalType": "enum ServiceRegistry.Status",
          "name": "status",
          "type": "uint8"
        },
        {
          "internalType": "uint256",
          "name": "buyerId",
          "type": "uint256"
        },
        {
          "internalType": "uint256",
          "name": "sellerId",
          "type": "uint256"
        },
        {
          "internalType": "uint256",
          "name": "initiatorId",
          "type": "uint256"
        },
        {
          "internalType": "string",
          "name": "serviceDataUri",
          "type": "string"
        },
        {
          "internalType": "uint256",
          "name": "countProposals",
          "type": "uint256"
        },
        {
          "internalType": "uint256",
          "name": "transactionId",
          "type": "uint256"
        },
        {
          "internalType": "uint256",
          "name": "platformId",
          "type": "uint256"
        }
      ],
      "stateMutability": "view",
      "type": "function"
    },
    {
      "inputs": [
        {
          "internalType": "bytes4",
          "name": "interfaceId",
          "type": "bytes4"
        }
      ],
      "name": "supportsInterface",
      "outputs": [
        {
          "internalType": "bool",
          "name": "",
          "type": "bool"
        }
      ],
      "stateMutability": "view",
      "type": "function"
    },
    {
      "inputs": [],
      "name": "talentLayerPlatformIdContract",
      "outputs": [
        {
          "internalType": "contract ITalentLayerPlatformID",
          "name": "",
          "type": "address"
        }
      ],
      "stateMutability": "view",
      "type": "function"
    },
    {
      "inputs": [
        {
          "internalType": "address",
          "name": "newOwner",
          "type": "address"
        }
      ],
      "name": "transferOwnership",
      "outputs": [],
      "stateMutability": "nonpayable",
      "type": "function"
    },
    {
      "inputs": [
        {
          "internalType": "address",
          "name": "_tokenAddress",
          "type": "address"
        },
        {
          "internalType": "bool",
          "name": "_status",
          "type": "bool"
        }
      ],
      "name": "updateAllowedTokenList",
      "outputs": [],
      "stateMutability": "nonpayable",
      "type": "function"
    },
    {
      "inputs": [
        {
          "internalType": "uint256",
          "name": "_senderId",
          "type": "uint256"
        },
        {
          "internalType": "uint256",
          "name": "_serviceId",
          "type": "uint256"
        },
        {
          "internalType": "address",
          "name": "_rateToken",
          "type": "address"
        },
        {
          "internalType": "uint256",
          "name": "_rateAmount",
          "type": "uint256"
        },
        {
          "internalType": "string",
          "name": "_proposalDataUri",
          "type": "string"
        }
      ],
      "name": "updateProposal",
      "outputs": [],
      "stateMutability": "nonpayable",
      "type": "function"
    },
    {
      "inputs": [
        {
          "internalType": "uint256",
          "name": "_senderId",
          "type": "uint256"
        },
        {
          "internalType": "uint256",
          "name": "_serviceId",
          "type": "uint256"
        },
        {
          "internalType": "string",
          "name": "_newServiceDataUri",
          "type": "string"
        }
      ],
      "name": "updateServiceData",
      "outputs": [],
      "stateMutability": "nonpayable",
      "type": "function"
    },
    {
      "inputs": [
        {
          "internalType": "address",
          "name": "newImplementation",
          "type": "address"
        }
      ],
      "name": "upgradeTo",
      "outputs": [],
      "stateMutability": "nonpayable",
      "type": "function"
    },
    {
      "inputs": [
        {
          "internalType": "address",
          "name": "newImplementation",
          "type": "address"
        },
        {
          "internalType": "bytes",
          "name": "data",
          "type": "bytes"
        }
      ],
      "name": "upgradeToAndCall",
      "outputs": [],
      "stateMutability": "payable",
      "type": "function"
    }
  ],
  "bytecode": "0x60a0604052306080523480156200001557600080fd5b506200002062000026565b620000e8565b600054610100900460ff1615620000935760405162461bcd60e51b815260206004820152602760248201527f496e697469616c697a61626c653a20636f6e747261637420697320696e697469604482015266616c697a696e6760c81b606482015260840160405180910390fd5b60005460ff9081161015620000e6576000805460ff191660ff9081179091556040519081527f7f26b83ff96e1f2b6a682f133852f6798a09c465da95921460cefb38474024989060200160405180910390a15b565b6080516137706200012060003960008181610f1501528181610f55015281816112010152818161124101526112d001526137706000f3fe6080604052600436106102045760003560e01c80636ce76f3011610118578063c22c4f43116100a0578063d547741f1161006f578063d547741f14610657578063ef0e239b14610677578063f2fde38b146106a4578063f6c53d9b146106c4578063f9eaee0d146106db57600080fd5b8063c22c4f43146105b2578063c2cfee27146105e6578063c901677414610617578063cb28fee71461063757600080fd5b80638da5cb5b116100e75780638da5cb5b1461051257806391d1485414610530578063a217fddf14610550578063a7d5eaea14610565578063aba210091461058557600080fd5b80636ce76f3014610478578063715018a6146104ac57806371da85f9146104c157806384b32943146104f257600080fd5b806336568abe1161019b57806349c6559c1161016a57806349c6559c146103d75780634f1ef286146103f757806352d1902d1461040a578063572b6c051461041f57806363a352391461045857600080fd5b806336568abe146103575780633659cfe6146103775780633751d89c14610397578063485cc955146103b757600080fd5b80631499f9e6116101d75780631499f9e6146102a0578063248a9ca3146102d957806326d00668146103175780632f2ff15d1461033757600080fd5b806301ffc9a7146102095780630927e5d41461023e5780630e06602514610260578063148031a114610280575b600080fd5b34801561021557600080fd5b50610229610224366004612dd9565b610715565b60405190151581526020015b60405180910390f35b34801561024a57600080fd5b5061025e610259366004612e03565b61074c565b005b34801561026c57600080fd5b5061025e61027b366004612e78565b6109a7565b34801561028c57600080fd5b5061025e61029b366004612ecb565b610c3c565b3480156102ac57600080fd5b50610130546102c1906001600160a01b031681565b6040516001600160a01b039091168152602001610235565b3480156102e557600080fd5b506103096102f4366004612ecb565b600090815260fc602052604090206001015490565b604051908152602001610235565b34801561032357600080fd5b5061025e610332366004612f00565b610def565b34801561034357600080fd5b5061025e610352366004612f1b565b610e52565b34801561036357600080fd5b5061025e610372366004612f1b565b610e7c565b34801561038357600080fd5b5061025e610392366004612f00565b610f0a565b3480156103a357600080fd5b5061025e6103b2366004612f00565b610fea565b3480156103c357600080fd5b5061025e6103d2366004612f47565b611043565b3480156103e357600080fd5b5061025e6103f2366004612ecb565b6111af565b61025e610405366004612f87565b6111f6565b34801561041657600080fd5b506103096112c3565b34801561042b57600080fd5b5061022961043a366004612f00565b6001600160a01b031660009081526065602052604090205460ff1690565b34801561046457600080fd5b5061025e610473366004613049565b611376565b34801561048457600080fd5b506103097f2fdac322ee704ce09f0773f7f3f92eb98d5e7c836ee9c056cccd5f61041e5e3f81565b3480156104b857600080fd5b5061025e611666565b3480156104cd57600080fd5b506102296104dc366004612f00565b6101336020526000908152604090205460ff1681565b3480156104fe57600080fd5b5061030961050d366004612e78565b61167a565b34801561051e57600080fd5b506033546001600160a01b03166102c1565b34801561053c57600080fd5b5061022961054b366004612f1b565b6117aa565b34801561055c57600080fd5b50610309600081565b34801561057157600080fd5b5061025e610580366004612e03565b6117d5565b34801561059157600080fd5b506105a56105a03660046130ba565b61184e565b604051610235919061315e565b3480156105be57600080fd5b506105d26105cd366004612ecb565b6119a0565b6040516102359897969594939291906131c8565b3480156105f257600080fd5b506106066106013660046130ba565b611a70565b60405161023595949392919061321c565b34801561062357600080fd5b5061025e61063236600461326f565b611b43565b34801561064357600080fd5b5061025e610652366004613049565b611c1d565b34801561066357600080fd5b5061025e610672366004612f1b565b612014565b34801561068357600080fd5b50610697610692366004612ecb565b612039565b60405161023591906132a6565b3480156106b057600080fd5b5061025e6106bf366004612f00565b6121f1565b3480156106d057600080fd5b5061030961012e5481565b3480156106e757600080fd5b506102296106f6366004612f00565b6001600160a01b03166000908152610133602052604090205460ff1690565b60006001600160e01b03198216637965db0b60e01b148061074657506301ffc9a760e01b6001600160e01b03198316145b92915050565b61012f5483906001600160a01b0316632fa117e582610769612267565b6040516001600160e01b031960e085901b16815260048101929092526001600160a01b0316602482015260440160206040518083038186803b1580156107ae57600080fd5b505afa1580156107c2573d6000803e3d6000fd5b505050506040513d601f19601f820116820180604052508101906107e6919061331e565b61080b5760405162461bcd60e51b81526004016108029061333b565b60405180910390fd5b60008381526101316020908152604080832061013283528184208685529092529091206001815460ff166002811115610846576108466130dc565b14156108a05760405162461bcd60e51b815260206004820152602360248201527f50726f706f73616c2068617320616c7265616479206265656e2076616c6964616044820152621d195960ea1b6064820152608401610802565b6002815460ff1660028111156108b8576108b86130dc565b14156109115760405162461bcd60e51b815260206004820152602260248201527f50726f706f73616c2068617320616c7265616479206265656e2072656a656374604482015261195960f21b6064820152608401610802565b8160010154861461095b5760405162461bcd60e51b81526020600482015260146024820152732cb7ba93b932903737ba103a343290313abcb2b960611b6044820152606401610802565b805460ff1916600217815560408051868152602081018690527ffa74c17c82b1d1960368a621d45c9afe55e65c87a2c9fe612ac7e36c382b3f78910160405180910390a1505050505050565b61012f5484906001600160a01b0316632fa117e5826109c4612267565b6040516001600160e01b031960e085901b16815260048101929092526001600160a01b0316602482015260440160206040518083038186803b158015610a0957600080fd5b505afa158015610a1d573d6000803e3d6000fd5b505050506040513d601f19601f82011682018060405250810190610a41919061331e565b610a5d5760405162461bcd60e51b81526004016108029061333b565b60008481526101316020526040902061012e548510610abe5760405162461bcd60e51b815260206004820152601a60248201527f54686973207365727669636520646f65736e27742065786973740000000000006044820152606401610802565b6004815460ff166004811115610ad657610ad66130dc565b1480610af757506000815460ff166004811115610af557610af56130dc565b145b610b555760405162461bcd60e51b815260206004820152602960248201527f53657276696365207374617475732073686f756c64206265206f70656e6564206044820152681bdc88199a5b1b195960ba1b6064820152608401610802565b80600301548614610bce5760405162461bcd60e51b815260206004820152603760248201527f4f6e6c792074686520696e69746961746f72206f7220612064656c656761746560448201527f2063616e207570646174652074686520736572766963650000000000000000006064820152608401610802565b82610beb5760405162461bcd60e51b81526004016108029061336a565b610bf9600482018585612ccc565b50847f1cae99404f615a4039d85b1009cb70622aae6d64f671e8b1b191d9269847d43e8585604051610c2c9291906133ca565b60405180910390a2505050505050565b600081815261013160205260409081902061012f54915162438b6360e81b815233600482015290916001600160a01b03169063438b63009060240160206040518083038186803b158015610c8f57600080fd5b505afa158015610ca3573d6000803e3d6000fd5b505050506040513d601f19601f82011682018060405250810190610cc791906133de565b816003015414610d2b5760405162461bcd60e51b815260206004820152602960248201527f4f6e6c792074686520696e69746961746f722063616e2063616e63656c20746860448201526865207365727669636560b81b6064820152608401610802565b6004815460ff166004811115610d4357610d436130dc565b14610dac5760405162461bcd60e51b815260206004820152603360248201527f4f6e6c79207365727669636573207769746820746865206f70656e20737461746044820152721d5cc818d85b8818994818d85b98d95b1b1959606a1b6064820152608401610802565b805460ff191660031781556040518281527f853aa4be1ac86f37acfc91d42b57f1fe895205aa6f8f9b7caa77ca257049ab1a906020015b60405180910390a15050565b610df7612276565b6001600160a01b038116600081815260656020908152604091829020805460ff1916600117905590519182527f3ef8564460ada92419608d823c014975d98f8104d7d1e68c222967ac6814cd9791015b60405180910390a150565b600082815260fc6020526040902060010154610e6d816122ef565b610e778383612300565b505050565b610e84612267565b6001600160a01b0316816001600160a01b031614610efc5760405162461bcd60e51b815260206004820152602f60248201527f416363657373436f6e74726f6c3a2063616e206f6e6c792072656e6f756e636560448201526e103937b632b9903337b91039b2b63360891b6064820152608401610802565b610f068282612387565b5050565b306001600160a01b037f0000000000000000000000000000000000000000000000000000000000000000161415610f535760405162461bcd60e51b8152600401610802906133f7565b7f00000000000000000000000000000000000000000000000000000000000000006001600160a01b0316610f9c6000805160206136f4833981519152546001600160a01b031690565b6001600160a01b031614610fc25760405162461bcd60e51b815260040161080290613443565b610fcb8161240c565b60408051600080825260208201909252610fe791839190612414565b50565b610ff2612276565b6001600160a01b038116600081815260656020908152604091829020805460ff1916905590519182527fd2d636efcad0cea42e170256f4c5d8b1cd81e47b855557edaf44014e6cc4cee69101610e47565b600054610100900460ff16158080156110635750600054600160ff909116105b8061107d5750303b15801561107d575060005460ff166001145b6110e05760405162461bcd60e51b815260206004820152602e60248201527f496e697469616c697a61626c653a20636f6e747261637420697320616c72656160448201526d191e481a5b9a5d1a585b1a5e995960921b6064820152608401610802565b6000805460ff191660011790558015611103576000805461ff0019166101001790555b61110b61258e565b6111136125bd565b61111b6125bd565b61112d6000611128612267565b6125e4565b61012f80546001600160a01b038086166001600160a01b031992831617909255610130805492851692909116919091179055600161012e558015610e77576000805461ff0019169055604051600181527f7f26b83ff96e1f2b6a682f133852f6798a09c465da95921460cefb38474024989060200160405180910390a1505050565b7f2fdac322ee704ce09f0773f7f3f92eb98d5e7c836ee9c056cccd5f61041e5e3f6111d9816122ef565b50600090815261013160205260409020805460ff19166002179055565b306001600160a01b037f000000000000000000000000000000000000000000000000000000000000000016141561123f5760405162461bcd60e51b8152600401610802906133f7565b7f00000000000000000000000000000000000000000000000000000000000000006001600160a01b03166112886000805160206136f4833981519152546001600160a01b031690565b6001600160a01b0316146112ae5760405162461bcd60e51b815260040161080290613443565b6112b78261240c565b610f0682826001612414565b6000306001600160a01b037f000000000000000000000000000000000000000000000000000000000000000016146113635760405162461bcd60e51b815260206004820152603860248201527f555550535570677261646561626c653a206d757374206e6f742062652063616c60448201527f6c6564207468726f7567682064656c656761746563616c6c00000000000000006064820152608401610802565b506000805160206136f483398151915290565b61012f5486906001600160a01b0316632fa117e582611393612267565b6040516001600160e01b031960e085901b16815260048101929092526001600160a01b0316602482015260440160206040518083038186803b1580156113d857600080fd5b505afa1580156113ec573d6000803e3d6000fd5b505050506040513d601f19601f82011682018060405250810190611410919061331e565b61142c5760405162461bcd60e51b81526004016108029061333b565b6001600160a01b0385166000908152610133602052604090205460ff166114915760405162461bcd60e51b8152602060048201526019602482015278151a1a5cc81d1bdad95b881a5cc81b9bdd08185b1b1bddd959603a1b6044820152606401610802565b60008681526101316020908152604080832061013283528184208b85529092529091206004825460ff1660048111156114cc576114cc6130dc565b146115115760405162461bcd60e51b815260206004820152601560248201527414d95c9d9a58d9481a5cc81b9bdd081bdc195b9959605a1b6044820152606401610802565b888160010154146115645760405162461bcd60e51b815260206004820152601f60248201527f546869732070726f706f73616c20646f65736e277420657869737420796574006044820152606401610802565b836115815760405162461bcd60e51b81526004016108029061336a565b6001815460ff166002811115611599576115996130dc565b14156115e75760405162461bcd60e51b815260206004820181905260248201527f546869732070726f706f73616c20697320616c726561647920757064617465646044820152606401610802565b6002810180546001600160a01b0319166001600160a01b03891617905560038101869055611619600482018686612ccc565b507f5cf385c7cf3e1609443b09191511540e030254887cccb510dfface4c041b6c55888a87878b8b6040516116539695949392919061348f565b60405180910390a1505050505050505050565b61166e612276565b61167860006125ee565b565b61012f5460009085906001600160a01b0316632fa117e58261169a612267565b6040516001600160e01b031960e085901b16815260048101929092526001600160a01b0316602482015260440160206040518083038186803b1580156116df57600080fd5b505afa1580156116f3573d6000803e3d6000fd5b505050506040513d601f19601f82011682018060405250810190611717919061331e565b6117335760405162461bcd60e51b81526004016108029061333b565b6101305460405162f577a560e81b8152600481018790526001600160a01b039091169063f577a5009060240160006040518083038186803b15801561177757600080fd5b505afa15801561178b573d6000803e3d6000fd5b505050506117a060048788600088888b612640565b9695505050505050565b600091825260fc602090815260408084206001600160a01b0393909316845291905290205460ff1690565b7f2fdac322ee704ce09f0773f7f3f92eb98d5e7c836ee9c056cccd5f61041e5e3f6117ff816122ef565b506000928352610131602090815260408085206101328352818620948652939091529092208154600160ff19918216811784558083015460028501556006909301939093558054909216179055565b61188a6040805160a0810190915280600081526020016000815260200160006001600160a01b0316815260200160008152602001606081525090565b60008381526101326020908152604080832085845290915290819020815160a081019092528054829060ff1660028111156118c7576118c76130dc565b60028111156118d8576118d86130dc565b81526001820154602082015260028201546001600160a01b0316604082015260038201546060820152600482018054608090920191611916906134cd565b80601f0160208091040260200160405190810160405280929190818152602001828054611942906134cd565b801561198f5780601f106119645761010080835404028352916020019161198f565b820191906000526020600020905b81548152906001019060200180831161197257829003601f168201915b505050505081525050905092915050565b610131602052600090815260409020805460018201546002830154600384015460048501805460ff909516959394929391926119db906134cd565b80601f0160208091040260200160405190810160405280929190818152602001828054611a07906134cd565b8015611a545780601f10611a2957610100808354040283529160200191611a54565b820191906000526020600020905b815481529060010190602001808311611a3757829003601f168201915b5050505050908060050154908060060154908060070154905088565b6101326020908152600092835260408084209091529082529020805460018201546002830154600384015460048501805460ff9095169593946001600160a01b03909316939192611ac0906134cd565b80601f0160208091040260200160405190810160405280929190818152602001828054611aec906134cd565b8015611b395780601f10611b0e57610100808354040283529160200191611b39565b820191906000526020600020905b815481529060010190602001808311611b1c57829003601f168201915b5050505050905085565b611b4b612276565b6001600160a01b038216158015611b6157508015155b80611b7457506001600160a01b03821615155b611bc05760405162461bcd60e51b815260206004820152601d60248201527f4f776e65722063616e27742072656d6f7665204f7820616464726573730000006044820152606401610802565b6001600160a01b03821660008181526101336020908152604091829020805460ff19168515159081179091558251938452908301527fd138accc17a5df6552bf13624802a01fc56a160f1e6e6247743ccd07ed99a7c99101610de3565b61012f5486906001600160a01b0316632fa117e582611c3a612267565b6040516001600160e01b031960e085901b16815260048101929092526001600160a01b0316602482015260440160206040518083038186803b158015611c7f57600080fd5b505afa158015611c93573d6000803e3d6000fd5b505050506040513d601f19601f82011682018060405250810190611cb7919061331e565b611cd35760405162461bcd60e51b81526004016108029061333b565b6001600160a01b0385166000908152610133602052604090205460ff16611d385760405162461bcd60e51b8152602060048201526019602482015278151a1a5cc81d1bdad95b881a5cc81b9bdd08185b1b1bddd959603a1b6044820152606401610802565b6000868152610131602052604090206004815460ff166004811115611d5f57611d5f6130dc565b14611da45760405162461bcd60e51b815260206004820152601560248201527414d95c9d9a58d9481a5cc81b9bdd081bdc195b9959605a1b6044820152606401610802565b6000878152610132602090815260408083208b8452909152902060010154881415611e295760405162461bcd60e51b815260206004820152602f60248201527f596f7520616c7265616479206372656174656420612070726f706f73616c206660448201526e6f722074686973207365727669636560881b6064820152608401610802565b8781600101541415611e975760405162461bcd60e51b815260206004820152603160248201527f596f7520636f756c646e2774206372656174652070726f706f73616c20666f7260448201527020796f7572206f776e207365727669636560781b6064820152608401610802565b82611eb45760405162461bcd60e51b81526004016108029061336a565b600581018054906000611ec68361351e565b90915550506040805160a081019091528060008152602001898152602001876001600160a01b0316815260200186815260200185858080601f0160208091040260200160405190810160405280939291908181526020018383808284376000920182905250939094525050898152610132602090815260408083208d845290915290208251815491925090829060ff19166001836002811115611f6b57611f6b6130dc565b0217905550602082810151600183015560408301516002830180546001600160a01b0319166001600160a01b039092169190911790556060830151600383015560808301518051611fc29260048501920190612d50565b509050507fd56b812321b2869d7d3fe7c8f52e85169e580ffc706d0c33ba13145fe39cd53c8789868660008b8b6040516120029796959493929190613539565b60405180910390a15050505050505050565b600082815260fc602052604090206001015461202f816122ef565b610e778383612387565b6120826040805161010081019091528060008152602001600081526020016000815260200160008152602001606081526020016000815260200160008152602001600081525090565b61012e5482106120d45760405162461bcd60e51b815260206004820152601a60248201527f54686973207365727669636520646f65736e27742065786973740000000000006044820152606401610802565b6000828152610131602052604090819020815161010081019092528054829060ff166004811115612107576121076130dc565b6004811115612118576121186130dc565b815260200160018201548152602001600282015481526020016003820154815260200160048201805461214a906134cd565b80601f0160208091040260200160405190810160405280929190818152602001828054612176906134cd565b80156121c35780601f10612198576101008083540402835291602001916121c3565b820191906000526020600020905b8154815290600101906020018083116121a657829003601f168201915b5050505050815260200160058201548152602001600682015481526020016007820154815250509050919050565b6121f9612276565b6001600160a01b03811661225e5760405162461bcd60e51b815260206004820152602660248201527f4f776e61626c653a206e6577206f776e657220697320746865207a65726f206160448201526564647265737360d01b6064820152608401610802565b610fe7816125ee565b6000612271612815565b905090565b61227e612267565b6001600160a01b03166122996033546001600160a01b031690565b6001600160a01b0316146116785760405162461bcd60e51b815260206004820181905260248201527f4f776e61626c653a2063616c6c6572206973206e6f7420746865206f776e65726044820152606401610802565b610fe7816122fb612267565b61284e565b61230a82826117aa565b610f0657600082815260fc602090815260408083206001600160a01b03851684529091529020805460ff19166001179055612343612267565b6001600160a01b0316816001600160a01b0316837f2f8788117e7eff1d82e926ec794901d17c78024a50270940304540a733656f0d60405160405180910390a45050565b61239182826117aa565b15610f0657600082815260fc602090815260408083206001600160a01b03851684529091529020805460ff191690556123c8612267565b6001600160a01b0316816001600160a01b0316837ff6391f5c32d9c69d2a47ea670b442974b53935d1edc7fd64eb21e047a839171b60405160405180910390a45050565b610fe7612276565b7f4910fdfa16fed3260ed0e7147f7cc6da11a60208b5b9406d12a635614ffd91435460ff161561244757610e77836128a7565b826001600160a01b03166352d1902d6040518163ffffffff1660e01b815260040160206040518083038186803b15801561248057600080fd5b505afa9250505080156124b0575060408051601f3d908101601f191682019092526124ad918101906133de565b60015b6125135760405162461bcd60e51b815260206004820152602e60248201527f45524331393637557067726164653a206e657720696d706c656d656e7461746960448201526d6f6e206973206e6f74205555505360901b6064820152608401610802565b6000805160206136f483398151915281146125825760405162461bcd60e51b815260206004820152602960248201527f45524331393637557067726164653a20756e737570706f727465642070726f786044820152681a58589b195555525160ba1b6064820152608401610802565b50610e77838383612943565b600054610100900460ff166125b55760405162461bcd60e51b815260040161080290613586565b61167861296e565b600054610100900460ff166116785760405162461bcd60e51b815260040161080290613586565b610f068282612300565b603380546001600160a01b038381166001600160a01b0319831681179093556040519116919082907f8be0079c531659141344cd1fd0a4f28419497f9722a3daafe3b4186f6b6457e090600090a35050565b60008087116126915760405162461bcd60e51b815260206004820152601f60248201527f596f752073686f756c64206861766520612054616c656e744c617965724964006044820152606401610802565b858514156126ec5760405162461bcd60e51b815260206004820152602260248201527f53656c6c657220616e642062757965722063616e2774206265207468652073616044820152616d6560f01b6064820152608401610802565b826127095760405162461bcd60e51b81526004016108029061336a565b61012e8054908190600061271c8361351e565b909155505060008181526101316020526040902080548a90829060ff1916600183600481111561274e5761274e6130dc565b0217905550600181018890556002810187905560038101899055612776600482018787612ccc565b506007810184905560408051838152602081018a9052908101889052606081018a9052608081018590527f9cd325e0ba2126728b21176b4b24c49c672e66820627759eedcab6b5dd7dac499060a00160405180910390a17f4874366e887bb729d49976a8f6751c4263d1668fd396db9b8d5f037895e7a745828787604051612800939291906135d1565b60405180910390a15098975050505050505050565b60006014361080159061283757503360009081526065602052604090205460ff165b15612849575060131936013560601c90565b503390565b61285882826117aa565b610f0657612865816129a5565b6128708360206129b7565b6040516020016128819291906135eb565b60408051601f198184030181529082905262461bcd60e51b825261080291600401613660565b6001600160a01b0381163b6129145760405162461bcd60e51b815260206004820152602d60248201527f455243313936373a206e657720696d706c656d656e746174696f6e206973206e60448201526c1bdd08184818dbdb9d1c9858dd609a1b6064820152608401610802565b6000805160206136f483398151915280546001600160a01b0319166001600160a01b0392909216919091179055565b61294c83612b5a565b6000825111806129595750805b15610e77576129688383612b9a565b50505050565b600054610100900460ff166129955760405162461bcd60e51b815260040161080290613586565b6116786129a0612267565b6125ee565b60606107466001600160a01b03831660145b606060006129c6836002613673565b6129d1906002613692565b67ffffffffffffffff8111156129e9576129e9612f71565b6040519080825280601f01601f191660200182016040528015612a13576020820181803683370190505b509050600360fc1b81600081518110612a2e57612a2e6136aa565b60200101906001600160f81b031916908160001a905350600f60fb1b81600181518110612a5d57612a5d6136aa565b60200101906001600160f81b031916908160001a9053506000612a81846002613673565b612a8c906001613692565b90505b6001811115612b04576f181899199a1a9b1b9c1cb0b131b232b360811b85600f1660108110612ac057612ac06136aa565b1a60f81b828281518110612ad657612ad66136aa565b60200101906001600160f81b031916908160001a90535060049490941c93612afd816136c0565b9050612a8f565b508315612b535760405162461bcd60e51b815260206004820181905260248201527f537472696e67733a20686578206c656e67746820696e73756666696369656e746044820152606401610802565b9392505050565b612b63816128a7565b6040516001600160a01b038216907fbc7cd75a20ee27fd9adebab32041f755214dbc6bffa90cc0225b39da2e5c2d3b90600090a250565b60606001600160a01b0383163b612c025760405162461bcd60e51b815260206004820152602660248201527f416464726573733a2064656c65676174652063616c6c20746f206e6f6e2d636f6044820152651b9d1c9858dd60d21b6064820152608401610802565b600080846001600160a01b031684604051612c1d91906136d7565b600060405180830381855af49150503d8060008114612c58576040519150601f19603f3d011682016040523d82523d6000602084013e612c5d565b606091505b5091509150612c85828260405180606001604052806027815260200161371460279139612c8e565b95945050505050565b60608315612c9d575081612b53565b612b538383815115612cb25781518083602001fd5b8060405162461bcd60e51b81526004016108029190613660565b828054612cd8906134cd565b90600052602060002090601f016020900481019282612cfa5760008555612d40565b82601f10612d135782800160ff19823516178555612d40565b82800160010185558215612d40579182015b82811115612d40578235825591602001919060010190612d25565b50612d4c929150612dc4565b5090565b828054612d5c906134cd565b90600052602060002090601f016020900481019282612d7e5760008555612d40565b82601f10612d9757805160ff1916838001178555612d40565b82800160010185558215612d40579182015b82811115612d40578251825591602001919060010190612da9565b5b80821115612d4c5760008155600101612dc5565b600060208284031215612deb57600080fd5b81356001600160e01b031981168114612b5357600080fd5b600080600060608486031215612e1857600080fd5b505081359360208301359350604090920135919050565b60008083601f840112612e4157600080fd5b50813567ffffffffffffffff811115612e5957600080fd5b602083019150836020828501011115612e7157600080fd5b9250929050565b60008060008060608587031215612e8e57600080fd5b8435935060208501359250604085013567ffffffffffffffff811115612eb357600080fd5b612ebf87828801612e2f565b95989497509550505050565b600060208284031215612edd57600080fd5b5035919050565b80356001600160a01b0381168114612efb57600080fd5b919050565b600060208284031215612f1257600080fd5b612b5382612ee4565b60008060408385031215612f2e57600080fd5b82359150612f3e60208401612ee4565b90509250929050565b60008060408385031215612f5a57600080fd5b612f6383612ee4565b9150612f3e60208401612ee4565b634e487b7160e01b600052604160045260246000fd5b60008060408385031215612f9a57600080fd5b612fa383612ee4565b9150602083013567ffffffffffffffff80821115612fc057600080fd5b818501915085601f830112612fd457600080fd5b813581811115612fe657612fe6612f71565b604051601f8201601f19908116603f0116810190838211818310171561300e5761300e612f71565b8160405282815288602084870101111561302757600080fd5b8260208601602083013760006020848301015280955050505050509250929050565b60008060008060008060a0878903121561306257600080fd5b863595506020870135945061307960408801612ee4565b935060608701359250608087013567ffffffffffffffff81111561309c57600080fd5b6130a889828a01612e2f565b979a9699509497509295939492505050565b600080604083850312156130cd57600080fd5b50508035926020909101359150565b634e487b7160e01b600052602160045260246000fd5b60038110613102576131026130dc565b9052565b60005b83811015613121578181015183820152602001613109565b838111156129685750506000910152565b6000815180845261314a816020860160208601613106565b601f01601f19169290920160200192915050565b602081526131706020820183516130f2565b6020820151604082015260018060a01b036040830151166060820152606082015160808201526000608083015160a0808401526131b060c0840182613132565b949350505050565b60058110613102576131026130dc565b60006101006131d7838c6131b8565b8960208401528860408401528760608401528060808401526131fb81840188613132565b60a0840196909652505060c081019290925260e09091015295945050505050565b61322681876130f2565b84602082015260018060a01b038416604082015282606082015260a06080820152600061325660a0830184613132565b979650505050505050565b8015158114610fe757600080fd5b6000806040838503121561328257600080fd5b61328b83612ee4565b9150602083013561329b81613261565b809150509250929050565b602081526132b86020820183516131b8565b602082015160408201526040820151606082015260608201516080820152600060808301516101008060a08501526132f4610120850183613132565b915060a085015160c085015260c085015160e085015260e085015181850152508091505092915050565b60006020828403121561333057600080fd5b8151612b5381613261565b6020808252601590820152744e6f74206f776e6572206f722064656c656761746560581b604082015260600190565b6020808252601f908201527f53686f756c642070726f7669646520612076616c696420495046532055524900604082015260600190565b81835281816020850137506000828201602090810191909152601f909101601f19169091010190565b6020815260006131b06020830184866133a1565b6000602082840312156133f057600080fd5b5051919050565b6020808252602c908201527f46756e6374696f6e206d7573742062652063616c6c6564207468726f7567682060408201526b19195b1959d85d1958d85b1b60a21b606082015260800190565b6020808252602c908201527f46756e6374696f6e206d7573742062652063616c6c6564207468726f7567682060408201526b6163746976652070726f787960a01b606082015260800190565b86815285602082015260a0604082015260006134af60a0830186886133a1565b6001600160a01b039490941660608301525060800152949350505050565b600181811c908216806134e157607f821691505b6020821081141561350257634e487b7160e01b600052602260045260246000fd5b50919050565b634e487b7160e01b600052601160045260246000fd5b600060001982141561353257613532613508565b5060010190565b87815286602082015260c06040820152600061355960c0830187896133a1565b905061356860608301866130f2565b6001600160a01b0393909316608082015260a0015295945050505050565b6020808252602b908201527f496e697469616c697a61626c653a20636f6e7472616374206973206e6f74206960408201526a6e697469616c697a696e6760a81b606082015260800190565b838152604060208201526000612c856040830184866133a1565b7f416363657373436f6e74726f6c3a206163636f756e7420000000000000000000815260008351613623816017850160208801613106565b7001034b99036b4b9b9b4b733903937b6329607d1b6017918401918201528351613654816028840160208801613106565b01602801949350505050565b602081526000612b536020830184613132565b600081600019048311821515161561368d5761368d613508565b500290565b600082198211156136a5576136a5613508565b500190565b634e487b7160e01b600052603260045260246000fd5b6000816136cf576136cf613508565b506000190190565b600082516136e9818460208701613106565b919091019291505056fe360894a13ba1a3210667c828492db98dca3e2076cc3735a920a3ca505d382bbc416464726573733a206c6f772d6c6576656c2064656c65676174652063616c6c206661696c6564a26469706673582212208c87bed567d753753ffb9a43a193bde60171dfa69e1ec287c6b1383733f68a2b64736f6c63430008090033",
  "linkReferences": {},
  "deployedLinkReferences": {}
}