{
  "_format": "hh-sol-artifact-1",
  "contractName": "ServiceRegistry",
  "sourceName": "contracts/ServiceRegistry.sol",
  "abi": [
    {
      "inputs": [],
      "stateMutability": "nonpayable",
      "type": "constructor"
    },
    {
      "anonymous": false,
      "inputs": [
        {
          "indexed": false,
          "internalType": "address",
          "name": "previousAdmin",
          "type": "address"
        },
        {
          "indexed": false,
          "internalType": "address",
          "name": "newAdmin",
          "type": "address"
        }
      ],
      "name": "AdminChanged",
      "type": "event"
    },
    {
      "anonymous": false,
      "inputs": [
        {
          "indexed": false,
          "internalType": "address",
          "name": "_tokenAddress",
          "type": "address"
        },
        {
          "indexed": false,
          "internalType": "bool",
          "name": "_status",
          "type": "bool"
        }
      ],
      "name": "AllowedTokenListUpdated",
      "type": "event"
    },
    {
      "anonymous": false,
      "inputs": [
        {
          "indexed": true,
          "internalType": "address",
          "name": "beacon",
          "type": "address"
        }
      ],
      "name": "BeaconUpgraded",
      "type": "event"
    },
    {
      "anonymous": false,
      "inputs": [
        {
          "indexed": false,
          "internalType": "uint8",
          "name": "version",
          "type": "uint8"
        }
      ],
      "name": "Initialized",
      "type": "event"
    },
    {
      "anonymous": false,
      "inputs": [
        {
          "indexed": true,
          "internalType": "address",
          "name": "previousOwner",
          "type": "address"
        },
        {
          "indexed": true,
          "internalType": "address",
          "name": "newOwner",
          "type": "address"
        }
      ],
      "name": "OwnershipTransferred",
      "type": "event"
    },
    {
      "anonymous": false,
      "inputs": [
        {
          "indexed": false,
          "internalType": "uint256",
          "name": "serviceId",
          "type": "uint256"
        },
        {
          "indexed": false,
          "internalType": "uint256",
          "name": "sellerId",
          "type": "uint256"
        },
        {
          "indexed": false,
          "internalType": "string",
          "name": "proposalDataUri",
          "type": "string"
        },
        {
          "indexed": false,
          "internalType": "enum ServiceRegistry.ProposalStatus",
          "name": "status",
          "type": "uint8"
        },
        {
          "indexed": false,
          "internalType": "address",
          "name": "rateToken",
          "type": "address"
        },
        {
          "indexed": false,
          "internalType": "uint256",
          "name": "rateAmount",
          "type": "uint256"
        },
        {
          "indexed": false,
          "internalType": "uint16",
          "name": "platformId",
          "type": "uint16"
        }
      ],
      "name": "ProposalCreated",
      "type": "event"
    },
    {
      "anonymous": false,
      "inputs": [
        {
          "indexed": false,
          "internalType": "uint256",
          "name": "serviceId",
          "type": "uint256"
        },
        {
          "indexed": false,
          "internalType": "uint256",
          "name": "sellerId",
          "type": "uint256"
        }
      ],
      "name": "ProposalRejected",
      "type": "event"
    },
    {
      "anonymous": false,
      "inputs": [
        {
          "indexed": false,
          "internalType": "uint256",
          "name": "serviceId",
          "type": "uint256"
        },
        {
          "indexed": false,
          "internalType": "uint256",
          "name": "sellerId",
          "type": "uint256"
        },
        {
          "indexed": false,
          "internalType": "string",
          "name": "proposalDataUri",
          "type": "string"
        },
        {
          "indexed": false,
          "internalType": "address",
          "name": "rateToken",
          "type": "address"
        },
        {
          "indexed": false,
          "internalType": "uint256",
          "name": "rateAmount",
          "type": "uint256"
        }
      ],
      "name": "ProposalUpdated",
      "type": "event"
    },
    {
      "anonymous": false,
      "inputs": [
        {
          "indexed": false,
          "internalType": "uint256",
          "name": "serviceId",
          "type": "uint256"
        },
        {
          "indexed": false,
          "internalType": "uint256",
          "name": "sellerId",
          "type": "uint256"
        }
      ],
      "name": "ProposalValidated",
      "type": "event"
    },
    {
      "anonymous": false,
      "inputs": [
        {
          "indexed": true,
          "internalType": "bytes32",
          "name": "role",
          "type": "bytes32"
        },
        {
          "indexed": true,
          "internalType": "bytes32",
          "name": "previousAdminRole",
          "type": "bytes32"
        },
        {
          "indexed": true,
          "internalType": "bytes32",
          "name": "newAdminRole",
          "type": "bytes32"
        }
      ],
      "name": "RoleAdminChanged",
      "type": "event"
    },
    {
      "anonymous": false,
      "inputs": [
        {
          "indexed": true,
          "internalType": "bytes32",
          "name": "role",
          "type": "bytes32"
        },
        {
          "indexed": true,
          "internalType": "address",
          "name": "account",
          "type": "address"
        },
        {
          "indexed": true,
          "internalType": "address",
          "name": "sender",
          "type": "address"
        }
      ],
      "name": "RoleGranted",
      "type": "event"
    },
    {
      "anonymous": false,
      "inputs": [
        {
          "indexed": true,
          "internalType": "bytes32",
          "name": "role",
          "type": "bytes32"
        },
        {
          "indexed": true,
          "internalType": "address",
          "name": "account",
          "type": "address"
        },
        {
          "indexed": true,
          "internalType": "address",
          "name": "sender",
          "type": "address"
        }
      ],
      "name": "RoleRevoked",
      "type": "event"
    },
    {
      "anonymous": false,
      "inputs": [
        {
          "indexed": false,
          "internalType": "uint256",
          "name": "id",
          "type": "uint256"
        }
      ],
      "name": "ServiceCancelled",
      "type": "event"
    },
    {
      "anonymous": false,
      "inputs": [
        {
          "indexed": false,
          "internalType": "uint256",
          "name": "id",
          "type": "uint256"
        },
        {
          "indexed": false,
          "internalType": "uint256",
          "name": "buyerId",
          "type": "uint256"
        },
        {
          "indexed": false,
          "internalType": "uint256",
          "name": "sellerId",
          "type": "uint256"
        },
        {
          "indexed": false,
          "internalType": "uint256",
          "name": "initiatorId",
          "type": "uint256"
        },
        {
          "indexed": false,
          "internalType": "uint256",
          "name": "platformId",
          "type": "uint256"
        }
      ],
      "name": "ServiceCreated",
      "type": "event"
    },
    {
      "anonymous": false,
      "inputs": [
        {
          "indexed": false,
          "internalType": "uint256",
          "name": "id",
          "type": "uint256"
        },
        {
          "indexed": false,
          "internalType": "string",
          "name": "serviceDataUri",
          "type": "string"
        }
      ],
      "name": "ServiceDataCreated",
      "type": "event"
    },
    {
      "anonymous": false,
      "inputs": [
        {
          "indexed": true,
          "internalType": "uint256",
          "name": "id",
          "type": "uint256"
        },
        {
          "indexed": false,
          "internalType": "string",
          "name": "newServiceDataUri",
          "type": "string"
        }
      ],
      "name": "ServiceDetailedUpdated",
      "type": "event"
    },
    {
      "anonymous": false,
      "inputs": [
        {
          "indexed": false,
          "internalType": "address",
          "name": "forwarder",
          "type": "address"
        }
      ],
      "name": "TrustedForwarderAdded",
      "type": "event"
    },
    {
      "anonymous": false,
      "inputs": [
        {
          "indexed": false,
          "internalType": "address",
          "name": "forwarder",
          "type": "address"
        }
      ],
      "name": "TrustedForwarderRemoved",
      "type": "event"
    },
    {
      "anonymous": false,
      "inputs": [
        {
          "indexed": true,
          "internalType": "address",
          "name": "implementation",
          "type": "address"
        }
      ],
      "name": "Upgraded",
      "type": "event"
    },
    {
      "inputs": [],
      "name": "DEFAULT_ADMIN_ROLE",
      "outputs": [
        {
          "internalType": "bytes32",
          "name": "",
          "type": "bytes32"
        }
      ],
      "stateMutability": "view",
      "type": "function"
    },
    {
      "inputs": [],
      "name": "ESCROW_ROLE",
      "outputs": [
        {
          "internalType": "bytes32",
          "name": "",
          "type": "bytes32"
        }
      ],
      "stateMutability": "view",
      "type": "function"
    },
    {
      "inputs": [
        {
          "internalType": "address",
          "name": "_forwarder",
          "type": "address"
        }
      ],
      "name": "addTrustedForwarder",
      "outputs": [],
      "stateMutability": "nonpayable",
      "type": "function"
    },
    {
      "inputs": [
        {
          "internalType": "uint256",
          "name": "_serviceId",
          "type": "uint256"
        },
        {
          "internalType": "uint256",
          "name": "_proposalId",
          "type": "uint256"
        },
        {
          "internalType": "uint256",
          "name": "_transactionId",
          "type": "uint256"
        }
      ],
      "name": "afterDeposit",
      "outputs": [],
      "stateMutability": "nonpayable",
      "type": "function"
    },
    {
      "inputs": [
        {
          "internalType": "uint256",
          "name": "_serviceId",
          "type": "uint256"
        }
      ],
      "name": "afterFullPayment",
      "outputs": [],
      "stateMutability": "nonpayable",
      "type": "function"
    },
    {
      "inputs": [
        {
          "internalType": "address",
          "name": "",
          "type": "address"
        }
      ],
      "name": "allowedTokenList",
      "outputs": [
        {
          "internalType": "bool",
          "name": "",
          "type": "bool"
        }
      ],
      "stateMutability": "view",
      "type": "function"
    },
    {
      "inputs": [
        {
          "internalType": "uint256",
          "name": "_serviceId",
          "type": "uint256"
        }
      ],
      "name": "cancelService",
      "outputs": [],
      "stateMutability": "nonpayable",
      "type": "function"
    },
    {
      "inputs": [
        {
          "internalType": "uint256",
          "name": "_platformId",
          "type": "uint256"
        },
        {
          "internalType": "string",
          "name": "_serviceDataUri",
          "type": "string"
        }
      ],
      "name": "createOpenServiceFromBuyer",
      "outputs": [
        {
          "internalType": "uint256",
          "name": "",
          "type": "uint256"
        }
      ],
      "stateMutability": "payable",
      "type": "function"
    },
    {
      "inputs": [
        {
          "internalType": "uint256",
          "name": "_serviceId",
          "type": "uint256"
        },
        {
          "internalType": "address",
          "name": "_rateToken",
          "type": "address"
        },
        {
          "internalType": "uint256",
          "name": "_rateAmount",
          "type": "uint256"
        },
        {
          "internalType": "uint16",
          "name": "_platformId",
          "type": "uint16"
        },
        {
          "internalType": "string",
          "name": "_proposalDataUri",
          "type": "string"
        }
      ],
      "name": "createProposal",
      "outputs": [],
      "stateMutability": "payable",
      "type": "function"
    },
    {
      "inputs": [
        {
          "internalType": "uint256",
          "name": "_serviceId",
          "type": "uint256"
        },
        {
          "internalType": "uint256",
          "name": "_proposalId",
          "type": "uint256"
        }
      ],
      "name": "getProposal",
      "outputs": [
        {
          "components": [
            {
              "internalType": "enum ServiceRegistry.ProposalStatus",
              "name": "status",
              "type": "uint8"
            },
            {
              "internalType": "uint256",
              "name": "sellerId",
              "type": "uint256"
            },
            {
              "internalType": "address",
              "name": "rateToken",
              "type": "address"
            },
            {
              "internalType": "uint256",
              "name": "rateAmount",
              "type": "uint256"
            },
            {
              "internalType": "uint16",
              "name": "platformId",
              "type": "uint16"
            },
            {
              "internalType": "string",
              "name": "proposalDataUri",
              "type": "string"
            }
          ],
          "internalType": "struct ServiceRegistry.Proposal",
          "name": "",
          "type": "tuple"
        }
      ],
      "stateMutability": "view",
      "type": "function"
    },
    {
      "inputs": [
        {
          "internalType": "bytes32",
          "name": "role",
          "type": "bytes32"
        }
      ],
      "name": "getRoleAdmin",
      "outputs": [
        {
          "internalType": "bytes32",
          "name": "",
          "type": "bytes32"
        }
      ],
      "stateMutability": "view",
      "type": "function"
    },
    {
      "inputs": [
        {
          "internalType": "uint256",
          "name": "_serviceId",
          "type": "uint256"
        }
      ],
      "name": "getService",
      "outputs": [
        {
          "components": [
            {
              "internalType": "enum ServiceRegistry.Status",
              "name": "status",
              "type": "uint8"
            },
            {
              "internalType": "uint256",
              "name": "buyerId",
              "type": "uint256"
            },
            {
              "internalType": "uint256",
              "name": "sellerId",
              "type": "uint256"
            },
            {
              "internalType": "uint256",
              "name": "initiatorId",
              "type": "uint256"
            },
            {
              "internalType": "string",
              "name": "serviceDataUri",
              "type": "string"
            },
            {
              "internalType": "uint256",
              "name": "countProposals",
              "type": "uint256"
            },
            {
              "internalType": "uint256",
              "name": "transactionId",
              "type": "uint256"
            },
            {
              "internalType": "uint256",
              "name": "platformId",
              "type": "uint256"
            }
          ],
          "internalType": "struct ServiceRegistry.Service",
          "name": "",
          "type": "tuple"
        }
      ],
      "stateMutability": "view",
      "type": "function"
    },
    {
      "inputs": [
        {
          "internalType": "bytes32",
          "name": "role",
          "type": "bytes32"
        },
        {
          "internalType": "address",
          "name": "account",
          "type": "address"
        }
      ],
      "name": "grantRole",
      "outputs": [],
      "stateMutability": "nonpayable",
      "type": "function"
    },
    {
      "inputs": [
        {
          "internalType": "bytes32",
          "name": "role",
          "type": "bytes32"
        },
        {
          "internalType": "address",
          "name": "account",
          "type": "address"
        }
      ],
      "name": "hasRole",
      "outputs": [
        {
          "internalType": "bool",
          "name": "",
          "type": "bool"
        }
      ],
      "stateMutability": "view",
      "type": "function"
    },
    {
      "inputs": [
        {
          "internalType": "address",
          "name": "_talentLayerIdAddress",
          "type": "address"
        },
        {
          "internalType": "address",
          "name": "_talentLayerPlatformIdAddress",
          "type": "address"
        }
      ],
      "name": "initialize",
      "outputs": [],
      "stateMutability": "nonpayable",
      "type": "function"
    },
    {
      "inputs": [
        {
          "internalType": "address",
          "name": "_tokenAddress",
          "type": "address"
        }
      ],
      "name": "isTokenAllowed",
      "outputs": [
        {
          "internalType": "bool",
          "name": "",
          "type": "bool"
        }
      ],
      "stateMutability": "view",
      "type": "function"
    },
    {
      "inputs": [
        {
          "internalType": "address",
          "name": "forwarder",
          "type": "address"
        }
      ],
      "name": "isTrustedForwarder",
      "outputs": [
        {
          "internalType": "bool",
          "name": "",
          "type": "bool"
        }
      ],
      "stateMutability": "view",
      "type": "function"
    },
    {
      "inputs": [],
      "name": "nextServiceId",
      "outputs": [
        {
          "internalType": "uint256",
          "name": "",
          "type": "uint256"
        }
      ],
      "stateMutability": "view",
      "type": "function"
    },
    {
      "inputs": [],
      "name": "owner",
      "outputs": [
        {
          "internalType": "address",
          "name": "",
          "type": "address"
        }
      ],
      "stateMutability": "view",
      "type": "function"
    },
    {
      "inputs": [
        {
          "internalType": "uint256",
          "name": "",
          "type": "uint256"
        },
        {
          "internalType": "uint256",
          "name": "",
          "type": "uint256"
        }
      ],
      "name": "proposals",
      "outputs": [
        {
          "internalType": "enum ServiceRegistry.ProposalStatus",
          "name": "status",
          "type": "uint8"
        },
        {
          "internalType": "uint256",
          "name": "sellerId",
          "type": "uint256"
        },
        {
          "internalType": "address",
          "name": "rateToken",
          "type": "address"
        },
        {
          "internalType": "uint256",
          "name": "rateAmount",
          "type": "uint256"
        },
        {
          "internalType": "uint16",
          "name": "platformId",
          "type": "uint16"
        },
        {
          "internalType": "string",
          "name": "proposalDataUri",
          "type": "string"
        }
      ],
      "stateMutability": "view",
      "type": "function"
    },
    {
      "inputs": [],
      "name": "proxiableUUID",
      "outputs": [
        {
          "internalType": "bytes32",
          "name": "",
          "type": "bytes32"
        }
      ],
      "stateMutability": "view",
      "type": "function"
    },
    {
      "inputs": [
        {
          "internalType": "uint256",
          "name": "_serviceId",
          "type": "uint256"
        },
        {
          "internalType": "uint256",
          "name": "_proposalId",
          "type": "uint256"
        }
      ],
      "name": "rejectProposal",
      "outputs": [],
      "stateMutability": "nonpayable",
      "type": "function"
    },
    {
      "inputs": [
        {
          "internalType": "address",
          "name": "_forwarder",
          "type": "address"
        }
      ],
      "name": "removeTrustedForwarder",
      "outputs": [],
      "stateMutability": "nonpayable",
      "type": "function"
    },
    {
      "inputs": [],
      "name": "renounceOwnership",
      "outputs": [],
      "stateMutability": "nonpayable",
      "type": "function"
    },
    {
      "inputs": [
        {
          "internalType": "bytes32",
          "name": "role",
          "type": "bytes32"
        },
        {
          "internalType": "address",
          "name": "account",
          "type": "address"
        }
      ],
      "name": "renounceRole",
      "outputs": [],
      "stateMutability": "nonpayable",
      "type": "function"
    },
    {
      "inputs": [
        {
          "internalType": "bytes32",
          "name": "role",
          "type": "bytes32"
        },
        {
          "internalType": "address",
          "name": "account",
          "type": "address"
        }
      ],
      "name": "revokeRole",
      "outputs": [],
      "stateMutability": "nonpayable",
      "type": "function"
    },
    {
      "inputs": [
        {
          "internalType": "uint256",
          "name": "",
          "type": "uint256"
        }
      ],
      "name": "services",
      "outputs": [
        {
          "internalType": "enum ServiceRegistry.Status",
          "name": "status",
          "type": "uint8"
        },
        {
          "internalType": "uint256",
          "name": "buyerId",
          "type": "uint256"
        },
        {
          "internalType": "uint256",
          "name": "sellerId",
          "type": "uint256"
        },
        {
          "internalType": "uint256",
          "name": "initiatorId",
          "type": "uint256"
        },
        {
          "internalType": "string",
          "name": "serviceDataUri",
          "type": "string"
        },
        {
          "internalType": "uint256",
          "name": "countProposals",
          "type": "uint256"
        },
        {
          "internalType": "uint256",
          "name": "transactionId",
          "type": "uint256"
        },
        {
          "internalType": "uint256",
          "name": "platformId",
          "type": "uint256"
        }
      ],
      "stateMutability": "view",
      "type": "function"
    },
    {
      "inputs": [
        {
          "internalType": "bytes4",
          "name": "interfaceId",
          "type": "bytes4"
        }
      ],
      "name": "supportsInterface",
      "outputs": [
        {
          "internalType": "bool",
          "name": "",
          "type": "bool"
        }
      ],
      "stateMutability": "view",
      "type": "function"
    },
    {
      "inputs": [],
      "name": "talentLayerPlatformIdContract",
      "outputs": [
        {
          "internalType": "contract ITalentLayerPlatformID",
          "name": "",
          "type": "address"
        }
      ],
      "stateMutability": "view",
      "type": "function"
    },
    {
      "inputs": [
        {
          "internalType": "address",
          "name": "newOwner",
          "type": "address"
        }
      ],
      "name": "transferOwnership",
      "outputs": [],
      "stateMutability": "nonpayable",
      "type": "function"
    },
    {
      "inputs": [
        {
          "internalType": "address",
          "name": "_tokenAddress",
          "type": "address"
        },
        {
          "internalType": "bool",
          "name": "_status",
          "type": "bool"
        }
      ],
      "name": "updateAllowedTokenList",
      "outputs": [],
      "stateMutability": "nonpayable",
      "type": "function"
    },
    {
      "inputs": [
        {
          "internalType": "uint256",
          "name": "_serviceId",
          "type": "uint256"
        },
        {
          "internalType": "address",
          "name": "_rateToken",
          "type": "address"
        },
        {
          "internalType": "uint256",
          "name": "_rateAmount",
          "type": "uint256"
        },
        {
          "internalType": "string",
          "name": "_proposalDataUri",
          "type": "string"
        }
      ],
      "name": "updateProposal",
      "outputs": [],
      "stateMutability": "nonpayable",
      "type": "function"
    },
    {
      "inputs": [
        {
          "internalType": "uint256",
          "name": "_serviceId",
          "type": "uint256"
        },
        {
          "internalType": "string",
          "name": "_newServiceDataUri",
          "type": "string"
        }
      ],
      "name": "updateServiceData",
      "outputs": [],
      "stateMutability": "nonpayable",
      "type": "function"
    },
    {
      "inputs": [
        {
          "internalType": "address",
          "name": "newImplementation",
          "type": "address"
        }
      ],
      "name": "upgradeTo",
      "outputs": [],
      "stateMutability": "nonpayable",
      "type": "function"
    },
    {
      "inputs": [
        {
          "internalType": "address",
          "name": "newImplementation",
          "type": "address"
        },
        {
          "internalType": "bytes",
          "name": "data",
          "type": "bytes"
        }
      ],
      "name": "upgradeToAndCall",
      "outputs": [],
      "stateMutability": "payable",
      "type": "function"
    }
  ],
  "bytecode": "0x60a0604052306080523480156200001557600080fd5b506200002062000026565b620000e8565b600054610100900460ff1615620000935760405162461bcd60e51b815260206004820152602760248201527f496e697469616c697a61626c653a20636f6e747261637420697320696e697469604482015266616c697a696e6760c81b606482015260840160405180910390fd5b60005460ff9081161015620000e6576000805460ff191660ff9081179091556040519081527f7f26b83ff96e1f2b6a682f133852f6798a09c465da95921460cefb38474024989060200160405180910390a15b565b6080516138b96200012060003960008181610a1101528181610a5101528181610f4e01528181610f8e015261101d01526138b96000f3fe6080604052600436106102045760003560e01c8063715018a611610118578063c22c4f43116100a0578063ef0e239b1161006f578063ef0e239b1461063e578063f2fde38b1461066b578063f6bab0471461068b578063f6c53d9b146106ab578063f9eaee0d146106c257600080fd5b8063c22c4f4314610598578063c2cfee27146105cc578063c9016774146105fe578063d547741f1461061e57600080fd5b8063a217fddf116100e7578063a217fddf14610503578063a7d5eaea14610518578063a8d9939d14610538578063aba2100914610558578063b7f2bd771461058557600080fd5b8063715018a61461047f57806371da85f9146104945780638da5cb5b146104c557806391d14854146104e357600080fd5b80633751d89c1161019b5780634f1ef2861161016a5780634f1ef286146103d757806352d1902d146103ea578063537e96fe146103ff578063572b6c05146104125780636ce76f301461044b57600080fd5b80633751d89c14610357578063477034da14610377578063485cc9551461039757806349c6559c146103b757600080fd5b806326d00668116101d757806326d00668146102d75780632f2ff15d146102f757806336568abe146103175780633659cfe61461033757600080fd5b806301ffc9a714610209578063148031a11461023e5780631499f9e614610260578063248a9ca314610299575b600080fd5b34801561021557600080fd5b50610229610224366004612ea8565b6106fc565b60405190151581526020015b60405180910390f35b34801561024a57600080fd5b5061025e610259366004612ed2565b610733565b005b34801561026c57600080fd5b5061013054610281906001600160a01b031681565b6040516001600160a01b039091168152602001610235565b3480156102a557600080fd5b506102c96102b4366004612ed2565b600090815260fc602052604090206001015490565b604051908152602001610235565b3480156102e357600080fd5b5061025e6102f2366004612f07565b6108eb565b34801561030357600080fd5b5061025e610312366004612f22565b61094e565b34801561032357600080fd5b5061025e610332366004612f22565b610978565b34801561034357600080fd5b5061025e610352366004612f07565b610a06565b34801561036357600080fd5b5061025e610372366004612f07565b610ae6565b34801561038357600080fd5b5061025e610392366004612f4e565b610b3f565b3480156103a357600080fd5b5061025e6103b2366004612f70565b610d90565b3480156103c357600080fd5b5061025e6103d2366004612ed2565b610efc565b61025e6103e5366004612fb0565b610f43565b3480156103f657600080fd5b506102c9611010565b61025e61040d3660046130bb565b6110c3565b34801561041e57600080fd5b5061022961042d366004612f07565b6001600160a01b031660009081526065602052604090205460ff1690565b34801561045757600080fd5b506102c97f2fdac322ee704ce09f0773f7f3f92eb98d5e7c836ee9c056cccd5f61041e5e3f81565b34801561048b57600080fd5b5061025e6115aa565b3480156104a057600080fd5b506102296104af366004612f07565b6101336020526000908152604090205460ff1681565b3480156104d157600080fd5b506033546001600160a01b0316610281565b3480156104ef57600080fd5b506102296104fe366004612f22565b6115be565b34801561050f57600080fd5b506102c9600081565b34801561052457600080fd5b5061025e61053336600461313c565b6115e9565b34801561054457600080fd5b5061025e610553366004613168565b611662565b34801561056457600080fd5b50610578610573366004612f4e565b611951565b6040516102359190613252565b6102c96105933660046132ba565b611abc565b3480156105a457600080fd5b506105b86105b3366004612ed2565b611c37565b604051610235989796959493929190613316565b3480156105d857600080fd5b506105ec6105e7366004612f4e565b611d07565b6040516102359695949392919061336a565b34801561060a57600080fd5b5061025e6106193660046133ba565b611de7565b34801561062a57600080fd5b5061025e610639366004612f22565b611ec1565b34801561064a57600080fd5b5061065e610659366004612ed2565b611ee6565b60405161023591906133f6565b34801561067757600080fd5b5061025e610686366004612f07565b61209e565b34801561069757600080fd5b5061025e6106a63660046132ba565b612114565b3480156106b757600080fd5b506102c961012e5481565b3480156106ce57600080fd5b506102296106dd366004612f07565b6001600160a01b03166000908152610133602052604090205460ff1690565b60006001600160e01b03198216637965db0b60e01b148061072d57506301ffc9a760e01b6001600160e01b03198316145b92915050565b600081815261013160205260409081902061012f54915162438b6360e81b815233600482015290916001600160a01b03169063438b63009060240160206040518083038186803b15801561078657600080fd5b505afa15801561079a573d6000803e3d6000fd5b505050506040513d601f19601f820116820180604052508101906107be919061346e565b8160030154146108275760405162461bcd60e51b815260206004820152602960248201527f4f6e6c792074686520696e69746961746f722063616e2063616e63656c20746860448201526865207365727669636560b81b60648201526084015b60405180910390fd5b6004815460ff16600481111561083f5761083f6131d0565b146108a85760405162461bcd60e51b815260206004820152603360248201527f4f6e6c79207365727669636573207769746820746865206f70656e20737461746044820152721d5cc818d85b8818994818d85b98d95b1b1959606a1b606482015260840161081e565b805460ff191660031781556040518281527f853aa4be1ac86f37acfc91d42b57f1fe895205aa6f8f9b7caa77ca257049ab1a906020015b60405180910390a15050565b6108f361236d565b6001600160a01b038116600081815260656020908152604091829020805460ff1916600117905590519182527f3ef8564460ada92419608d823c014975d98f8104d7d1e68c222967ac6814cd9791015b60405180910390a150565b600082815260fc6020526040902060010154610969816123e6565b61097383836123f7565b505050565b61098061247e565b6001600160a01b0316816001600160a01b0316146109f85760405162461bcd60e51b815260206004820152602f60248201527f416363657373436f6e74726f6c3a2063616e206f6e6c792072656e6f756e636560448201526e103937b632b9903337b91039b2b63360891b606482015260840161081e565b610a02828261248d565b5050565b306001600160a01b037f0000000000000000000000000000000000000000000000000000000000000000161415610a4f5760405162461bcd60e51b815260040161081e90613487565b7f00000000000000000000000000000000000000000000000000000000000000006001600160a01b0316610a9860008051602061383d833981519152546001600160a01b031690565b6001600160a01b031614610abe5760405162461bcd60e51b815260040161081e906134d3565b610ac781612512565b60408051600080825260208201909252610ae39183919061251a565b50565b610aee61236d565b6001600160a01b038116600081815260656020908152604091829020805460ff1916905590519182527fd2d636efcad0cea42e170256f4c5d8b1cd81e47b855557edaf44014e6cc4cee69101610943565b61012f546000906001600160a01b031663438b6300610b5c61247e565b6040516001600160e01b031960e084901b1681526001600160a01b03909116600482015260240160206040518083038186803b158015610b9b57600080fd5b505afa158015610baf573d6000803e3d6000fd5b505050506040513d601f19601f82011682018060405250810190610bd3919061346e565b905060008111610bf55760405162461bcd60e51b815260040161081e9061351f565b60008381526101316020908152604080832061013283528184208685529092529091206001815460ff166002811115610c3057610c306131d0565b1415610c8a5760405162461bcd60e51b815260206004820152602360248201527f50726f706f73616c2068617320616c7265616479206265656e2076616c6964616044820152621d195960ea1b606482015260840161081e565b6002815460ff166002811115610ca257610ca26131d0565b1415610cfb5760405162461bcd60e51b815260206004820152602260248201527f50726f706f73616c2068617320616c7265616479206265656e2072656a656374604482015261195960f21b606482015260840161081e565b81600101548314610d455760405162461bcd60e51b81526020600482015260146024820152732cb7ba93b932903737ba103a343290313abcb2b960611b604482015260640161081e565b805460ff1916600217815560408051868152602081018690527ffa74c17c82b1d1960368a621d45c9afe55e65c87a2c9fe612ac7e36c382b3f78910160405180910390a15050505050565b600054610100900460ff1615808015610db05750600054600160ff909116105b80610dca5750303b158015610dca575060005460ff166001145b610e2d5760405162461bcd60e51b815260206004820152602e60248201527f496e697469616c697a61626c653a20636f6e747261637420697320616c72656160448201526d191e481a5b9a5d1a585b1a5e995960921b606482015260840161081e565b6000805460ff191660011790558015610e50576000805461ff0019166101001790555b610e58612694565b610e606126c3565b610e686126c3565b610e7a6000610e7561247e565b6126ea565b61012f80546001600160a01b038086166001600160a01b031992831617909255610130805492851692909116919091179055600161012e558015610973576000805461ff0019169055604051600181527f7f26b83ff96e1f2b6a682f133852f6798a09c465da95921460cefb38474024989060200160405180910390a1505050565b7f2fdac322ee704ce09f0773f7f3f92eb98d5e7c836ee9c056cccd5f61041e5e3f610f26816123e6565b50600090815261013160205260409020805460ff19166002179055565b306001600160a01b037f0000000000000000000000000000000000000000000000000000000000000000161415610f8c5760405162461bcd60e51b815260040161081e90613487565b7f00000000000000000000000000000000000000000000000000000000000000006001600160a01b0316610fd560008051602061383d833981519152546001600160a01b031690565b6001600160a01b031614610ffb5760405162461bcd60e51b815260040161081e906134d3565b61100482612512565b610a028282600161251a565b6000306001600160a01b037f000000000000000000000000000000000000000000000000000000000000000016146110b05760405162461bcd60e51b815260206004820152603860248201527f555550535570677261646561626c653a206d757374206e6f742062652063616c60448201527f6c6564207468726f7567682064656c656761746563616c6c0000000000000000606482015260840161081e565b5060008051602061383d83398151915290565b61012f546000906001600160a01b031663438b63006110e061247e565b6040516001600160e01b031960e084901b1681526001600160a01b03909116600482015260240160206040518083038186803b15801561111f57600080fd5b505afa158015611133573d6000803e3d6000fd5b505050506040513d601f19601f82011682018060405250810190611157919061346e565b9050600081116111795760405162461bcd60e51b815260040161081e9061351f565b6001600160a01b0386166000908152610133602052604090205460ff166111de5760405162461bcd60e51b8152602060048201526019602482015278151a1a5cc81d1bdad95b881a5cc81b9bdd08185b1b1bddd959603a1b604482015260640161081e565b61013054604051634a7ab1d560e01b815261ffff861660048201526000916001600160a01b031690634a7ab1d59060240160206040518083038186803b15801561122757600080fd5b505afa15801561123b573d6000803e3d6000fd5b505050506040513d601f19601f8201168201806040525081019061125f919061346e565b90508034146112a55760405162461bcd60e51b81526020600482015260126024820152714e6f6e2d6d61746368696e672066756e647360701b604482015260640161081e565b6000888152610131602052604090206004815460ff1660048111156112cc576112cc6131d0565b146113115760405162461bcd60e51b815260206004820152601560248201527414d95c9d9a58d9481a5cc81b9bdd081bdc195b9959605a1b604482015260640161081e565b6000898152610132602090815260408083208684529091529020600101548314156113965760405162461bcd60e51b815260206004820152602f60248201527f596f7520616c7265616479206372656174656420612070726f706f73616c206660448201526e6f722074686973207365727669636560881b606482015260840161081e565b82816001015414156114045760405162461bcd60e51b815260206004820152603160248201527f596f7520636f756c646e2774206372656174652070726f706f73616c20666f7260448201527020796f7572206f776e207365727669636560781b606482015260840161081e565b836114215760405162461bcd60e51b815260040161081e90613556565b600581018054906000611433836135a3565b90915550506040805160c081019091528060008152602001848152602001896001600160a01b031681526020018881526020018761ffff16815260200186868080601f01602080910402602001604051908101604052809392919081815260200183838082843760009201829052509390945250508b81526101326020908152604080832088845290915290208251815491925090829060ff191660018360028111156114e2576114e26131d0565b0217905550602082810151600183015560408301516002830180546001600160a01b0319166001600160a01b0390921691909117905560608301516003830155608083015160048301805461ffff191661ffff90921691909117905560a083015180516115559260058501920190612d9b565b509050507fdc1ab3200caf17076f60a9fbf22ea5814644850fbb7be85a4c19f23bcdaa69378984878760008d8d8d6040516115979897969594939291906135e7565b60405180910390a1505050505050505050565b6115b261236d565b6115bc60006126f4565b565b600091825260fc602090815260408084206001600160a01b0393909316845291905290205460ff1690565b7f2fdac322ee704ce09f0773f7f3f92eb98d5e7c836ee9c056cccd5f61041e5e3f611613816123e6565b506000928352610131602090815260408085206101328352818620948652939091529092208154600160ff19918216811784558083015460028501556006909301939093558054909216179055565b61012f546000906001600160a01b031663438b630061167f61247e565b6040516001600160e01b031960e084901b1681526001600160a01b03909116600482015260240160206040518083038186803b1580156116be57600080fd5b505afa1580156116d2573d6000803e3d6000fd5b505050506040513d601f19601f820116820180604052508101906116f6919061346e565b9050600081116117185760405162461bcd60e51b815260040161081e9061351f565b6001600160a01b0385166000908152610133602052604090205460ff1661177d5760405162461bcd60e51b8152602060048201526019602482015278151a1a5cc81d1bdad95b881a5cc81b9bdd08185b1b1bddd959603a1b604482015260640161081e565b60008681526101316020908152604080832061013283528184208585529092529091206004825460ff1660048111156117b8576117b86131d0565b146117fd5760405162461bcd60e51b815260206004820152601560248201527414d95c9d9a58d9481a5cc81b9bdd081bdc195b9959605a1b604482015260640161081e565b828160010154146118505760405162461bcd60e51b815260206004820152601f60248201527f546869732070726f706f73616c20646f65736e27742065786973742079657400604482015260640161081e565b8361186d5760405162461bcd60e51b815260040161081e90613556565b6001815460ff166002811115611885576118856131d0565b14156118d35760405162461bcd60e51b815260206004820181905260248201527f546869732070726f706f73616c20697320616c72656164792075706461746564604482015260640161081e565b6002810180546001600160a01b0319166001600160a01b03891617905560038101869055611905600582018686612e1f565b507f5cf385c7cf3e1609443b09191511540e030254887cccb510dfface4c041b6c55888487878b8b60405161193f96959493929190613642565b60405180910390a15050505050505050565b6119986040805160c0810190915280600081526020016000815260200160006001600160a01b0316815260200160008152602001600061ffff168152602001606081525090565b60008381526101326020908152604080832085845290915290819020815160c081019092528054829060ff1660028111156119d5576119d56131d0565b60028111156119e6576119e66131d0565b81526001820154602082015260028201546001600160a01b0316604082015260038201546060820152600482015461ffff16608082015260058201805460a090920191611a3290613680565b80601f0160208091040260200160405190810160405280929190818152602001828054611a5e90613680565b8015611aab5780601f10611a8057610100808354040283529160200191611aab565b820191906000526020600020905b815481529060010190602001808311611a8e57829003601f168201915b505050505081525050905092915050565b61013054604051638a98636360e01b81526004810185905260009182916001600160a01b0390911690638a9863639060240160206040518083038186803b158015611b0657600080fd5b505afa158015611b1a573d6000803e3d6000fd5b505050506040513d601f19601f82011682018060405250810190611b3e919061346e565b9050803414611b845760405162461bcd60e51b81526020600482015260126024820152714e6f6e2d6d61746368696e672066756e647360701b604482015260640161081e565b61012f546000906001600160a01b031663438b6300611ba161247e565b6040516001600160e01b031960e084901b1681526001600160a01b03909116600482015260240160206040518083038186803b158015611be057600080fd5b505afa158015611bf4573d6000803e3d6000fd5b505050506040513d601f19601f82011682018060405250810190611c18919061346e565b9050611c2b60048283600089898c612746565b925050505b9392505050565b610131602052600090815260409020805460018201546002830154600384015460048501805460ff90951695939492939192611c7290613680565b80601f0160208091040260200160405190810160405280929190818152602001828054611c9e90613680565b8015611ceb5780601f10611cc057610100808354040283529160200191611ceb565b820191906000526020600020905b815481529060010190602001808311611cce57829003601f168201915b5050505050908060050154908060060154908060070154905088565b61013260209081526000928352604080842090915290825290208054600182015460028301546003840154600485015460058601805460ff9096169694956001600160a01b0390941694929361ffff9092169291611d6490613680565b80601f0160208091040260200160405190810160405280929190818152602001828054611d9090613680565b8015611ddd5780601f10611db257610100808354040283529160200191611ddd565b820191906000526020600020905b815481529060010190602001808311611dc057829003601f168201915b5050505050905086565b611def61236d565b6001600160a01b038216158015611e0557508015155b80611e1857506001600160a01b03821615155b611e645760405162461bcd60e51b815260206004820152601d60248201527f4f776e65722063616e27742072656d6f7665204f782061646472657373000000604482015260640161081e565b6001600160a01b03821660008181526101336020908152604091829020805460ff19168515159081179091558251938452908301527fd138accc17a5df6552bf13624802a01fc56a160f1e6e6247743ccd07ed99a7c991016108df565b600082815260fc6020526040902060010154611edc816123e6565b610973838361248d565b611f2f6040805161010081019091528060008152602001600081526020016000815260200160008152602001606081526020016000815260200160008152602001600081525090565b61012e548210611f815760405162461bcd60e51b815260206004820152601a60248201527f54686973207365727669636520646f65736e2774206578697374000000000000604482015260640161081e565b6000828152610131602052604090819020815161010081019092528054829060ff166004811115611fb457611fb46131d0565b6004811115611fc557611fc56131d0565b8152602001600182015481526020016002820154815260200160038201548152602001600482018054611ff790613680565b80601f016020809104026020016040519081016040528092919081815260200182805461202390613680565b80156120705780601f1061204557610100808354040283529160200191612070565b820191906000526020600020905b81548152906001019060200180831161205357829003601f168201915b5050505050815260200160058201548152602001600682015481526020016007820154815250509050919050565b6120a661236d565b6001600160a01b03811661210b5760405162461bcd60e51b815260206004820152602660248201527f4f776e61626c653a206e6577206f776e657220697320746865207a65726f206160448201526564647265737360d01b606482015260840161081e565b610ae3816126f4565b60008381526101316020526040902061012e5484106121755760405162461bcd60e51b815260206004820152601a60248201527f54686973207365727669636520646f65736e2774206578697374000000000000604482015260640161081e565b6004815460ff16600481111561218d5761218d6131d0565b14806121ae57506000815460ff1660048111156121ac576121ac6131d0565b145b61220c5760405162461bcd60e51b815260206004820152602960248201527f53657276696365207374617475732073686f756c64206265206f70656e6564206044820152681bdc88199a5b1b195960ba1b606482015260840161081e565b61012f546001600160a01b031663438b630061222661247e565b6040516001600160e01b031960e084901b1681526001600160a01b03909116600482015260240160206040518083038186803b15801561226557600080fd5b505afa158015612279573d6000803e3d6000fd5b505050506040513d601f19601f8201168201806040525081019061229d919061346e565b8160030154146123015760405162461bcd60e51b815260206004820152602960248201527f4f6e6c792074686520696e69746961746f722063616e2075706461746520746860448201526865207365727669636560b81b606482015260840161081e565b8161231e5760405162461bcd60e51b815260040161081e90613556565b61232c600482018484612e1f565b50837f1cae99404f615a4039d85b1009cb70622aae6d64f671e8b1b191d9269847d43e848460405161235f9291906136bb565b60405180910390a250505050565b61237561247e565b6001600160a01b03166123906033546001600160a01b031690565b6001600160a01b0316146115bc5760405162461bcd60e51b815260206004820181905260248201527f4f776e61626c653a2063616c6c6572206973206e6f7420746865206f776e6572604482015260640161081e565b610ae3816123f261247e565b6128eb565b61240182826115be565b610a0257600082815260fc602090815260408083206001600160a01b03851684529091529020805460ff1916600117905561243a61247e565b6001600160a01b0316816001600160a01b0316837f2f8788117e7eff1d82e926ec794901d17c78024a50270940304540a733656f0d60405160405180910390a45050565b6000612488612944565b905090565b61249782826115be565b15610a0257600082815260fc602090815260408083206001600160a01b03851684529091529020805460ff191690556124ce61247e565b6001600160a01b0316816001600160a01b0316837ff6391f5c32d9c69d2a47ea670b442974b53935d1edc7fd64eb21e047a839171b60405160405180910390a45050565b610ae361236d565b7f4910fdfa16fed3260ed0e7147f7cc6da11a60208b5b9406d12a635614ffd91435460ff161561254d576109738361297d565b826001600160a01b03166352d1902d6040518163ffffffff1660e01b815260040160206040518083038186803b15801561258657600080fd5b505afa9250505080156125b6575060408051601f3d908101601f191682019092526125b39181019061346e565b60015b6126195760405162461bcd60e51b815260206004820152602e60248201527f45524331393637557067726164653a206e657720696d706c656d656e7461746960448201526d6f6e206973206e6f74205555505360901b606482015260840161081e565b60008051602061383d83398151915281146126885760405162461bcd60e51b815260206004820152602960248201527f45524331393637557067726164653a20756e737570706f727465642070726f786044820152681a58589b195555525160ba1b606482015260840161081e565b50610973838383612a19565b600054610100900460ff166126bb5760405162461bcd60e51b815260040161081e906136cf565b6115bc612a44565b600054610100900460ff166115bc5760405162461bcd60e51b815260040161081e906136cf565b610a0282826123f7565b603380546001600160a01b038381166001600160a01b0319831681179093556040519116919082907f8be0079c531659141344cd1fd0a4f28419497f9722a3daafe3b4186f6b6457e090600090a35050565b60008087116127675760405162461bcd60e51b815260040161081e9061351f565b858514156127c25760405162461bcd60e51b815260206004820152602260248201527f53656c6c657220616e642062757965722063616e2774206265207468652073616044820152616d6560f01b606482015260840161081e565b826127df5760405162461bcd60e51b815260040161081e90613556565b61012e805490819060006127f2836135a3565b909155505060008181526101316020526040902080548a90829060ff19166001836004811115612824576128246131d0565b021790555060018101889055600281018790556003810189905561284c600482018787612e1f565b506007810184905560408051838152602081018a9052908101889052606081018a9052608081018590527f9cd325e0ba2126728b21176b4b24c49c672e66820627759eedcab6b5dd7dac499060a00160405180910390a17f4874366e887bb729d49976a8f6751c4263d1668fd396db9b8d5f037895e7a7458287876040516128d69392919061371a565b60405180910390a15098975050505050505050565b6128f582826115be565b610a025761290281612a7b565b61290d836020612a8d565b60405160200161291e929190613734565b60408051601f198184030181529082905262461bcd60e51b825261081e916004016137a9565b60006014361080159061296657503360009081526065602052604090205460ff165b15612978575060131936013560601c90565b503390565b6001600160a01b0381163b6129ea5760405162461bcd60e51b815260206004820152602d60248201527f455243313936373a206e657720696d706c656d656e746174696f6e206973206e60448201526c1bdd08184818dbdb9d1c9858dd609a1b606482015260840161081e565b60008051602061383d83398151915280546001600160a01b0319166001600160a01b0392909216919091179055565b612a2283612c29565b600082511180612a2f5750805b1561097357612a3e8383612c69565b50505050565b600054610100900460ff16612a6b5760405162461bcd60e51b815260040161081e906136cf565b6115bc612a7661247e565b6126f4565b606061072d6001600160a01b03831660145b60606000612a9c8360026137bc565b612aa79060026137db565b67ffffffffffffffff811115612abf57612abf612f9a565b6040519080825280601f01601f191660200182016040528015612ae9576020820181803683370190505b509050600360fc1b81600081518110612b0457612b046137f3565b60200101906001600160f81b031916908160001a905350600f60fb1b81600181518110612b3357612b336137f3565b60200101906001600160f81b031916908160001a9053506000612b578460026137bc565b612b629060016137db565b90505b6001811115612bda576f181899199a1a9b1b9c1cb0b131b232b360811b85600f1660108110612b9657612b966137f3565b1a60f81b828281518110612bac57612bac6137f3565b60200101906001600160f81b031916908160001a90535060049490941c93612bd381613809565b9050612b65565b508315611c305760405162461bcd60e51b815260206004820181905260248201527f537472696e67733a20686578206c656e67746820696e73756666696369656e74604482015260640161081e565b612c328161297d565b6040516001600160a01b038216907fbc7cd75a20ee27fd9adebab32041f755214dbc6bffa90cc0225b39da2e5c2d3b90600090a250565b60606001600160a01b0383163b612cd15760405162461bcd60e51b815260206004820152602660248201527f416464726573733a2064656c65676174652063616c6c20746f206e6f6e2d636f6044820152651b9d1c9858dd60d21b606482015260840161081e565b600080846001600160a01b031684604051612cec9190613820565b600060405180830381855af49150503d8060008114612d27576040519150601f19603f3d011682016040523d82523d6000602084013e612d2c565b606091505b5091509150612d54828260405180606001604052806027815260200161385d60279139612d5d565b95945050505050565b60608315612d6c575081611c30565b611c308383815115612d815781518083602001fd5b8060405162461bcd60e51b815260040161081e91906137a9565b828054612da790613680565b90600052602060002090601f016020900481019282612dc95760008555612e0f565b82601f10612de257805160ff1916838001178555612e0f565b82800160010185558215612e0f579182015b82811115612e0f578251825591602001919060010190612df4565b50612e1b929150612e93565b5090565b828054612e2b90613680565b90600052602060002090601f016020900481019282612e4d5760008555612e0f565b82601f10612e665782800160ff19823516178555612e0f565b82800160010185558215612e0f579182015b82811115612e0f578235825591602001919060010190612e78565b5b80821115612e1b5760008155600101612e94565b600060208284031215612eba57600080fd5b81356001600160e01b031981168114611c3057600080fd5b600060208284031215612ee457600080fd5b5035919050565b80356001600160a01b0381168114612f0257600080fd5b919050565b600060208284031215612f1957600080fd5b611c3082612eeb565b60008060408385031215612f3557600080fd5b82359150612f4560208401612eeb565b90509250929050565b60008060408385031215612f6157600080fd5b50508035926020909101359150565b60008060408385031215612f8357600080fd5b612f8c83612eeb565b9150612f4560208401612eeb565b634e487b7160e01b600052604160045260246000fd5b60008060408385031215612fc357600080fd5b612fcc83612eeb565b9150602083013567ffffffffffffffff80821115612fe957600080fd5b818501915085601f830112612ffd57600080fd5b81358181111561300f5761300f612f9a565b604051601f8201601f19908116603f0116810190838211818310171561303757613037612f9a565b8160405282815288602084870101111561305057600080fd5b8260208601602083013760006020848301015280955050505050509250929050565b60008083601f84011261308457600080fd5b50813567ffffffffffffffff81111561309c57600080fd5b6020830191508360208285010111156130b457600080fd5b9250929050565b60008060008060008060a087890312156130d457600080fd5b863595506130e460208801612eeb565b945060408701359350606087013561ffff8116811461310257600080fd5b9250608087013567ffffffffffffffff81111561311e57600080fd5b61312a89828a01613072565b979a9699509497509295939492505050565b60008060006060848603121561315157600080fd5b505081359360208301359350604090920135919050565b60008060008060006080868803121561318057600080fd5b8535945061319060208701612eeb565b935060408601359250606086013567ffffffffffffffff8111156131b357600080fd5b6131bf88828901613072565b969995985093965092949392505050565b634e487b7160e01b600052602160045260246000fd5b600381106131f6576131f66131d0565b9052565b60005b838110156132155781810151838201526020016131fd565b83811115612a3e5750506000910152565b6000815180845261323e8160208601602086016131fa565b601f01601f19169290920160200192915050565b602081526132646020820183516131e6565b6020820151604082015260018060a01b0360408301511660608201526060820151608082015261ffff60808301511660a0820152600060a083015160c0808401526132b260e0840182613226565b949350505050565b6000806000604084860312156132cf57600080fd5b83359250602084013567ffffffffffffffff8111156132ed57600080fd5b6132f986828701613072565b9497909650939450505050565b600581106131f6576131f66131d0565b6000610100613325838c613306565b89602084015288604084015287606084015280608084015261334981840188613226565b60a0840196909652505060c081019290925260e09091015295945050505050565b61337481886131e6565b85602082015260018060a01b038516604082015283606082015261ffff8316608082015260c060a082015260006133ae60c0830184613226565b98975050505050505050565b600080604083850312156133cd57600080fd5b6133d683612eeb565b9150602083013580151581146133eb57600080fd5b809150509250929050565b60208152613408602082018351613306565b602082015160408201526040820151606082015260608201516080820152600060808301516101008060a0850152613444610120850183613226565b915060a085015160c085015260c085015160e085015260e085015181850152508091505092915050565b60006020828403121561348057600080fd5b5051919050565b6020808252602c908201527f46756e6374696f6e206d7573742062652063616c6c6564207468726f7567682060408201526b19195b1959d85d1958d85b1b60a21b606082015260800190565b6020808252602c908201527f46756e6374696f6e206d7573742062652063616c6c6564207468726f7567682060408201526b6163746976652070726f787960a01b606082015260800190565b6020808252601f908201527f596f752073686f756c64206861766520612054616c656e744c61796572496400604082015260600190565b6020808252601f908201527f53686f756c642070726f7669646520612076616c696420495046532055524900604082015260600190565b634e487b7160e01b600052601160045260246000fd5b60006000198214156135b7576135b761358d565b5060010190565b81835281816020850137506000828201602090810191909152601f909101601f19169091010190565b88815287602082015260e06040820152600061360760e08301888a6135be565b905061361660608301876131e6565b6001600160a01b0394909416608082015260a081019290925261ffff1660c09091015295945050505050565b86815285602082015260a06040820152600061366260a0830186886135be565b6001600160a01b039490941660608301525060800152949350505050565b600181811c9082168061369457607f821691505b602082108114156136b557634e487b7160e01b600052602260045260246000fd5b50919050565b6020815260006132b26020830184866135be565b6020808252602b908201527f496e697469616c697a61626c653a20636f6e7472616374206973206e6f74206960408201526a6e697469616c697a696e6760a81b606082015260800190565b838152604060208201526000612d546040830184866135be565b7f416363657373436f6e74726f6c3a206163636f756e742000000000000000000081526000835161376c8160178501602088016131fa565b7001034b99036b4b9b9b4b733903937b6329607d1b601791840191820152835161379d8160288401602088016131fa565b01602801949350505050565b602081526000611c306020830184613226565b60008160001904831182151516156137d6576137d661358d565b500290565b600082198211156137ee576137ee61358d565b500190565b634e487b7160e01b600052603260045260246000fd5b6000816138185761381861358d565b506000190190565b600082516138328184602087016131fa565b919091019291505056fe360894a13ba1a3210667c828492db98dca3e2076cc3735a920a3ca505d382bbc416464726573733a206c6f772d6c6576656c2064656c65676174652063616c6c206661696c6564a2646970667358221220316191c188180e5693148c8d38d26ab83b7e70bd8f097f3942ca55700faf59ec64736f6c63430008090033",
  "linkReferences": {},
  "deployedLinkReferences": {}
}