{
  "_format": "hh-sol-artifact-1",
  "contractName": "ServiceRegistry",
  "sourceName": "contracts/ServiceRegistry.sol",
  "abi": [
    {
      "inputs": [],
      "stateMutability": "nonpayable",
      "type": "constructor"
    },
    {
      "anonymous": false,
      "inputs": [
        {
          "indexed": false,
          "internalType": "address",
          "name": "previousAdmin",
          "type": "address"
        },
        {
          "indexed": false,
          "internalType": "address",
          "name": "newAdmin",
          "type": "address"
        }
      ],
      "name": "AdminChanged",
      "type": "event"
    },
    {
      "anonymous": false,
      "inputs": [
        {
          "indexed": false,
          "internalType": "address",
          "name": "_tokenAddress",
          "type": "address"
        },
        {
          "indexed": false,
          "internalType": "bool",
          "name": "_status",
          "type": "bool"
        }
      ],
      "name": "AllowedTokenListUpdated",
      "type": "event"
    },
    {
      "anonymous": false,
      "inputs": [
        {
          "indexed": true,
          "internalType": "address",
          "name": "beacon",
          "type": "address"
        }
      ],
      "name": "BeaconUpgraded",
      "type": "event"
    },
    {
      "anonymous": false,
      "inputs": [
        {
          "indexed": false,
          "internalType": "uint8",
          "name": "version",
          "type": "uint8"
        }
      ],
      "name": "Initialized",
      "type": "event"
    },
    {
      "anonymous": false,
      "inputs": [
        {
          "indexed": true,
          "internalType": "address",
          "name": "previousOwner",
          "type": "address"
        },
        {
          "indexed": true,
          "internalType": "address",
          "name": "newOwner",
          "type": "address"
        }
      ],
      "name": "OwnershipTransferred",
      "type": "event"
    },
    {
      "anonymous": false,
      "inputs": [
        {
          "indexed": false,
          "internalType": "uint256",
          "name": "serviceId",
          "type": "uint256"
        },
        {
          "indexed": false,
          "internalType": "uint256",
          "name": "sellerId",
          "type": "uint256"
        },
        {
          "indexed": false,
          "internalType": "string",
          "name": "proposalDataUri",
          "type": "string"
        },
        {
          "indexed": false,
          "internalType": "enum ServiceRegistry.ProposalStatus",
          "name": "status",
          "type": "uint8"
        },
        {
          "indexed": false,
          "internalType": "address",
          "name": "rateToken",
          "type": "address"
        },
        {
          "indexed": false,
          "internalType": "uint256",
          "name": "rateAmount",
          "type": "uint256"
        },
        {
          "indexed": false,
          "internalType": "uint16",
          "name": "platformId",
          "type": "uint16"
        }
      ],
      "name": "ProposalCreated",
      "type": "event"
    },
    {
      "anonymous": false,
      "inputs": [
        {
          "indexed": false,
          "internalType": "uint256",
          "name": "serviceId",
          "type": "uint256"
        },
        {
          "indexed": false,
          "internalType": "uint256",
          "name": "sellerId",
          "type": "uint256"
        }
      ],
      "name": "ProposalRejected",
      "type": "event"
    },
    {
      "anonymous": false,
      "inputs": [
        {
          "indexed": false,
          "internalType": "uint256",
          "name": "serviceId",
          "type": "uint256"
        },
        {
          "indexed": false,
          "internalType": "uint256",
          "name": "sellerId",
          "type": "uint256"
        },
        {
          "indexed": false,
          "internalType": "string",
          "name": "proposalDataUri",
          "type": "string"
        },
        {
          "indexed": false,
          "internalType": "address",
          "name": "rateToken",
          "type": "address"
        },
        {
          "indexed": false,
          "internalType": "uint256",
          "name": "rateAmount",
          "type": "uint256"
        }
      ],
      "name": "ProposalUpdated",
      "type": "event"
    },
    {
      "anonymous": false,
      "inputs": [
        {
          "indexed": false,
          "internalType": "uint256",
          "name": "serviceId",
          "type": "uint256"
        },
        {
          "indexed": false,
          "internalType": "uint256",
          "name": "sellerId",
          "type": "uint256"
        }
      ],
      "name": "ProposalValidated",
      "type": "event"
    },
    {
      "anonymous": false,
      "inputs": [
        {
          "indexed": true,
          "internalType": "bytes32",
          "name": "role",
          "type": "bytes32"
        },
        {
          "indexed": true,
          "internalType": "bytes32",
          "name": "previousAdminRole",
          "type": "bytes32"
        },
        {
          "indexed": true,
          "internalType": "bytes32",
          "name": "newAdminRole",
          "type": "bytes32"
        }
      ],
      "name": "RoleAdminChanged",
      "type": "event"
    },
    {
      "anonymous": false,
      "inputs": [
        {
          "indexed": true,
          "internalType": "bytes32",
          "name": "role",
          "type": "bytes32"
        },
        {
          "indexed": true,
          "internalType": "address",
          "name": "account",
          "type": "address"
        },
        {
          "indexed": true,
          "internalType": "address",
          "name": "sender",
          "type": "address"
        }
      ],
      "name": "RoleGranted",
      "type": "event"
    },
    {
      "anonymous": false,
      "inputs": [
        {
          "indexed": true,
          "internalType": "bytes32",
          "name": "role",
          "type": "bytes32"
        },
        {
          "indexed": true,
          "internalType": "address",
          "name": "account",
          "type": "address"
        },
        {
          "indexed": true,
          "internalType": "address",
          "name": "sender",
          "type": "address"
        }
      ],
      "name": "RoleRevoked",
      "type": "event"
    },
    {
      "anonymous": false,
      "inputs": [
        {
          "indexed": false,
          "internalType": "uint256",
          "name": "id",
          "type": "uint256"
        },
        {
          "indexed": false,
          "internalType": "uint256",
          "name": "buyerId",
          "type": "uint256"
        },
        {
          "indexed": false,
          "internalType": "uint256",
          "name": "sellerId",
          "type": "uint256"
        },
        {
          "indexed": false,
          "internalType": "uint256",
          "name": "initiatorId",
          "type": "uint256"
        },
        {
          "indexed": false,
          "internalType": "uint256",
          "name": "platformId",
          "type": "uint256"
        }
      ],
      "name": "ServiceCreated",
      "type": "event"
    },
    {
      "anonymous": false,
      "inputs": [
        {
          "indexed": false,
          "internalType": "uint256",
          "name": "id",
          "type": "uint256"
        },
        {
          "indexed": false,
          "internalType": "string",
          "name": "serviceDataUri",
          "type": "string"
        }
      ],
      "name": "ServiceDataCreated",
      "type": "event"
    },
    {
      "anonymous": false,
      "inputs": [
        {
          "indexed": true,
          "internalType": "uint256",
          "name": "id",
          "type": "uint256"
        },
        {
          "indexed": false,
          "internalType": "string",
          "name": "newServiceDataUri",
          "type": "string"
        }
      ],
      "name": "ServiceDetailedUpdated",
      "type": "event"
    },
    {
      "anonymous": false,
      "inputs": [
        {
          "indexed": false,
          "internalType": "address",
          "name": "forwarder",
          "type": "address"
        }
      ],
      "name": "TrustedForwarderAdded",
      "type": "event"
    },
    {
      "anonymous": false,
      "inputs": [
        {
          "indexed": false,
          "internalType": "address",
          "name": "forwarder",
          "type": "address"
        }
      ],
      "name": "TrustedForwarderRemoved",
      "type": "event"
    },
    {
      "anonymous": false,
      "inputs": [
        {
          "indexed": true,
          "internalType": "address",
          "name": "implementation",
          "type": "address"
        }
      ],
      "name": "Upgraded",
      "type": "event"
    },
    {
      "inputs": [],
      "name": "DEFAULT_ADMIN_ROLE",
      "outputs": [
        {
          "internalType": "bytes32",
          "name": "",
          "type": "bytes32"
        }
      ],
      "stateMutability": "view",
      "type": "function"
    },
    {
      "inputs": [],
      "name": "ESCROW_ROLE",
      "outputs": [
        {
          "internalType": "bytes32",
          "name": "",
          "type": "bytes32"
        }
      ],
      "stateMutability": "view",
      "type": "function"
    },
    {
      "inputs": [
        {
          "internalType": "address",
          "name": "_forwarder",
          "type": "address"
        }
      ],
      "name": "addTrustedForwarder",
      "outputs": [],
      "stateMutability": "nonpayable",
      "type": "function"
    },
    {
      "inputs": [
        {
          "internalType": "uint256",
          "name": "_serviceId",
          "type": "uint256"
        },
        {
          "internalType": "uint256",
          "name": "_proposalId",
          "type": "uint256"
        },
        {
          "internalType": "uint256",
          "name": "_transactionId",
          "type": "uint256"
        }
      ],
      "name": "afterDeposit",
      "outputs": [],
      "stateMutability": "nonpayable",
      "type": "function"
    },
    {
      "inputs": [
        {
          "internalType": "uint256",
          "name": "_serviceId",
          "type": "uint256"
        }
      ],
      "name": "afterFullPayment",
      "outputs": [],
      "stateMutability": "nonpayable",
      "type": "function"
    },
    {
      "inputs": [
        {
          "internalType": "address",
          "name": "",
          "type": "address"
        }
      ],
      "name": "allowedTokenList",
      "outputs": [
        {
          "internalType": "bool",
          "name": "",
          "type": "bool"
        }
      ],
      "stateMutability": "view",
      "type": "function"
    },
    {
      "inputs": [
        {
          "internalType": "uint256",
          "name": "_platformId",
          "type": "uint256"
        },
        {
          "internalType": "string",
          "name": "_serviceDataUri",
          "type": "string"
        }
      ],
      "name": "createOpenServiceFromBuyer",
      "outputs": [
        {
          "internalType": "uint256",
          "name": "",
          "type": "uint256"
        }
      ],
      "stateMutability": "payable",
      "type": "function"
    },
    {
      "inputs": [
        {
          "internalType": "uint256",
          "name": "_serviceId",
          "type": "uint256"
        },
        {
          "internalType": "address",
          "name": "_rateToken",
          "type": "address"
        },
        {
          "internalType": "uint256",
          "name": "_rateAmount",
          "type": "uint256"
        },
        {
          "internalType": "uint16",
          "name": "_platformId",
          "type": "uint16"
        },
        {
          "internalType": "string",
          "name": "_proposalDataUri",
          "type": "string"
        }
      ],
      "name": "createProposal",
      "outputs": [],
      "stateMutability": "payable",
      "type": "function"
    },
    {
      "inputs": [
        {
          "internalType": "uint256",
          "name": "_serviceId",
          "type": "uint256"
        },
        {
          "internalType": "uint256",
          "name": "_proposalId",
          "type": "uint256"
        }
      ],
      "name": "getProposal",
      "outputs": [
        {
          "components": [
            {
              "internalType": "enum ServiceRegistry.ProposalStatus",
              "name": "status",
              "type": "uint8"
            },
            {
              "internalType": "uint256",
              "name": "sellerId",
              "type": "uint256"
            },
            {
              "internalType": "address",
              "name": "rateToken",
              "type": "address"
            },
            {
              "internalType": "uint256",
              "name": "rateAmount",
              "type": "uint256"
            },
            {
              "internalType": "uint16",
              "name": "platformId",
              "type": "uint16"
            },
            {
              "internalType": "string",
              "name": "proposalDataUri",
              "type": "string"
            }
          ],
          "internalType": "struct ServiceRegistry.Proposal",
          "name": "",
          "type": "tuple"
        }
      ],
      "stateMutability": "view",
      "type": "function"
    },
    {
      "inputs": [
        {
          "internalType": "bytes32",
          "name": "role",
          "type": "bytes32"
        }
      ],
      "name": "getRoleAdmin",
      "outputs": [
        {
          "internalType": "bytes32",
          "name": "",
          "type": "bytes32"
        }
      ],
      "stateMutability": "view",
      "type": "function"
    },
    {
      "inputs": [
        {
          "internalType": "uint256",
          "name": "_serviceId",
          "type": "uint256"
        }
      ],
      "name": "getService",
      "outputs": [
        {
          "components": [
            {
              "internalType": "enum ServiceRegistry.Status",
              "name": "status",
              "type": "uint8"
            },
            {
              "internalType": "uint256",
              "name": "buyerId",
              "type": "uint256"
            },
            {
              "internalType": "uint256",
              "name": "sellerId",
              "type": "uint256"
            },
            {
              "internalType": "uint256",
              "name": "initiatorId",
              "type": "uint256"
            },
            {
              "internalType": "string",
              "name": "serviceDataUri",
              "type": "string"
            },
            {
              "internalType": "uint256",
              "name": "countProposals",
              "type": "uint256"
            },
            {
              "internalType": "uint256",
              "name": "transactionId",
              "type": "uint256"
            },
            {
              "internalType": "uint256",
              "name": "platformId",
              "type": "uint256"
            }
          ],
          "internalType": "struct ServiceRegistry.Service",
          "name": "",
          "type": "tuple"
        }
      ],
      "stateMutability": "view",
      "type": "function"
    },
    {
      "inputs": [
        {
          "internalType": "bytes32",
          "name": "role",
          "type": "bytes32"
        },
        {
          "internalType": "address",
          "name": "account",
          "type": "address"
        }
      ],
      "name": "grantRole",
      "outputs": [],
      "stateMutability": "nonpayable",
      "type": "function"
    },
    {
      "inputs": [
        {
          "internalType": "bytes32",
          "name": "role",
          "type": "bytes32"
        },
        {
          "internalType": "address",
          "name": "account",
          "type": "address"
        }
      ],
      "name": "hasRole",
      "outputs": [
        {
          "internalType": "bool",
          "name": "",
          "type": "bool"
        }
      ],
      "stateMutability": "view",
      "type": "function"
    },
    {
      "inputs": [
        {
          "internalType": "address",
          "name": "_talentLayerIdAddress",
          "type": "address"
        },
        {
          "internalType": "address",
          "name": "_talentLayerPlatformIdAddress",
          "type": "address"
        }
      ],
      "name": "initialize",
      "outputs": [],
      "stateMutability": "nonpayable",
      "type": "function"
    },
    {
      "inputs": [
        {
          "internalType": "address",
          "name": "_tokenAddress",
          "type": "address"
        }
      ],
      "name": "isTokenAllowed",
      "outputs": [
        {
          "internalType": "bool",
          "name": "",
          "type": "bool"
        }
      ],
      "stateMutability": "view",
      "type": "function"
    },
    {
      "inputs": [
        {
          "internalType": "address",
          "name": "forwarder",
          "type": "address"
        }
      ],
      "name": "isTrustedForwarder",
      "outputs": [
        {
          "internalType": "bool",
          "name": "",
          "type": "bool"
        }
      ],
      "stateMutability": "view",
      "type": "function"
    },
    {
      "inputs": [],
      "name": "nextServiceId",
      "outputs": [
        {
          "internalType": "uint256",
          "name": "",
          "type": "uint256"
        }
      ],
      "stateMutability": "view",
      "type": "function"
    },
    {
      "inputs": [],
      "name": "owner",
      "outputs": [
        {
          "internalType": "address",
          "name": "",
          "type": "address"
        }
      ],
      "stateMutability": "view",
      "type": "function"
    },
    {
      "inputs": [
        {
          "internalType": "uint256",
          "name": "",
          "type": "uint256"
        },
        {
          "internalType": "uint256",
          "name": "",
          "type": "uint256"
        }
      ],
      "name": "proposals",
      "outputs": [
        {
          "internalType": "enum ServiceRegistry.ProposalStatus",
          "name": "status",
          "type": "uint8"
        },
        {
          "internalType": "uint256",
          "name": "sellerId",
          "type": "uint256"
        },
        {
          "internalType": "address",
          "name": "rateToken",
          "type": "address"
        },
        {
          "internalType": "uint256",
          "name": "rateAmount",
          "type": "uint256"
        },
        {
          "internalType": "uint16",
          "name": "platformId",
          "type": "uint16"
        },
        {
          "internalType": "string",
          "name": "proposalDataUri",
          "type": "string"
        }
      ],
      "stateMutability": "view",
      "type": "function"
    },
    {
      "inputs": [],
      "name": "proxiableUUID",
      "outputs": [
        {
          "internalType": "bytes32",
          "name": "",
          "type": "bytes32"
        }
      ],
      "stateMutability": "view",
      "type": "function"
    },
    {
      "inputs": [
        {
          "internalType": "uint256",
          "name": "_serviceId",
          "type": "uint256"
        },
        {
          "internalType": "uint256",
          "name": "_proposalId",
          "type": "uint256"
        }
      ],
      "name": "rejectProposal",
      "outputs": [],
      "stateMutability": "nonpayable",
      "type": "function"
    },
    {
      "inputs": [
        {
          "internalType": "address",
          "name": "_forwarder",
          "type": "address"
        }
      ],
      "name": "removeTrustedForwarder",
      "outputs": [],
      "stateMutability": "nonpayable",
      "type": "function"
    },
    {
      "inputs": [],
      "name": "renounceOwnership",
      "outputs": [],
      "stateMutability": "nonpayable",
      "type": "function"
    },
    {
      "inputs": [
        {
          "internalType": "bytes32",
          "name": "role",
          "type": "bytes32"
        },
        {
          "internalType": "address",
          "name": "account",
          "type": "address"
        }
      ],
      "name": "renounceRole",
      "outputs": [],
      "stateMutability": "nonpayable",
      "type": "function"
    },
    {
      "inputs": [
        {
          "internalType": "bytes32",
          "name": "role",
          "type": "bytes32"
        },
        {
          "internalType": "address",
          "name": "account",
          "type": "address"
        }
      ],
      "name": "revokeRole",
      "outputs": [],
      "stateMutability": "nonpayable",
      "type": "function"
    },
    {
      "inputs": [
        {
          "internalType": "uint256",
          "name": "",
          "type": "uint256"
        }
      ],
      "name": "services",
      "outputs": [
        {
          "internalType": "enum ServiceRegistry.Status",
          "name": "status",
          "type": "uint8"
        },
        {
          "internalType": "uint256",
          "name": "buyerId",
          "type": "uint256"
        },
        {
          "internalType": "uint256",
          "name": "sellerId",
          "type": "uint256"
        },
        {
          "internalType": "uint256",
          "name": "initiatorId",
          "type": "uint256"
        },
        {
          "internalType": "string",
          "name": "serviceDataUri",
          "type": "string"
        },
        {
          "internalType": "uint256",
          "name": "countProposals",
          "type": "uint256"
        },
        {
          "internalType": "uint256",
          "name": "transactionId",
          "type": "uint256"
        },
        {
          "internalType": "uint256",
          "name": "platformId",
          "type": "uint256"
        }
      ],
      "stateMutability": "view",
      "type": "function"
    },
    {
      "inputs": [
        {
          "internalType": "bytes4",
          "name": "interfaceId",
          "type": "bytes4"
        }
      ],
      "name": "supportsInterface",
      "outputs": [
        {
          "internalType": "bool",
          "name": "",
          "type": "bool"
        }
      ],
      "stateMutability": "view",
      "type": "function"
    },
    {
      "inputs": [],
      "name": "talentLayerPlatformIdContract",
      "outputs": [
        {
          "internalType": "contract ITalentLayerPlatformID",
          "name": "",
          "type": "address"
        }
      ],
      "stateMutability": "view",
      "type": "function"
    },
    {
      "inputs": [
        {
          "internalType": "address",
          "name": "newOwner",
          "type": "address"
        }
      ],
      "name": "transferOwnership",
      "outputs": [],
      "stateMutability": "nonpayable",
      "type": "function"
    },
    {
      "inputs": [
        {
          "internalType": "address",
          "name": "_tokenAddress",
          "type": "address"
        },
        {
          "internalType": "bool",
          "name": "_status",
          "type": "bool"
        }
      ],
      "name": "updateAllowedTokenList",
      "outputs": [],
      "stateMutability": "nonpayable",
      "type": "function"
    },
    {
      "inputs": [
        {
          "internalType": "uint256",
          "name": "_serviceId",
          "type": "uint256"
        },
        {
          "internalType": "address",
          "name": "_rateToken",
          "type": "address"
        },
        {
          "internalType": "uint256",
          "name": "_rateAmount",
          "type": "uint256"
        },
        {
          "internalType": "string",
          "name": "_proposalDataUri",
          "type": "string"
        }
      ],
      "name": "updateProposal",
      "outputs": [],
      "stateMutability": "nonpayable",
      "type": "function"
    },
    {
      "inputs": [
        {
          "internalType": "uint256",
          "name": "_serviceId",
          "type": "uint256"
        },
        {
          "internalType": "string",
          "name": "_newServiceDataUri",
          "type": "string"
        }
      ],
      "name": "updateServiceData",
      "outputs": [],
      "stateMutability": "nonpayable",
      "type": "function"
    },
    {
      "inputs": [
        {
          "internalType": "address",
          "name": "newImplementation",
          "type": "address"
        }
      ],
      "name": "upgradeTo",
      "outputs": [],
      "stateMutability": "nonpayable",
      "type": "function"
    },
    {
      "inputs": [
        {
          "internalType": "address",
          "name": "newImplementation",
          "type": "address"
        },
        {
          "internalType": "bytes",
          "name": "data",
          "type": "bytes"
        }
      ],
      "name": "upgradeToAndCall",
      "outputs": [],
      "stateMutability": "payable",
      "type": "function"
    },
    {
      "inputs": [
        {
          "internalType": "uint256",
          "name": "_serviceId",
          "type": "uint256"
        },
        {
          "internalType": "uint256",
          "name": "_proposalId",
          "type": "uint256"
        }
      ],
      "name": "validateProposal",
      "outputs": [],
      "stateMutability": "nonpayable",
      "type": "function"
    }
  ],
  "bytecode": "0x60a0604052306080523480156200001557600080fd5b506200002062000026565b620000e8565b600054610100900460ff1615620000935760405162461bcd60e51b815260206004820152602760248201527f496e697469616c697a61626c653a20636f6e747261637420697320696e697469604482015266616c697a696e6760c81b606482015260840160405180910390fd5b60005460ff9081161015620000e6576000805460ff191660ff9081179091556040519081527f7f26b83ff96e1f2b6a682f133852f6798a09c465da95921460cefb38474024989060200160405180910390a15b565b60805161393a620001206000396000818161085e0152818161089e01528181610d6001528181610da00152610e2f015261393a6000f3fe6080604052600436106102045760003560e01c8063715018a611610118578063c22c4f43116100a0578063ef0e239b1161006f578063ef0e239b1461063e578063f2fde38b1461066b578063f6bab0471461068b578063f6c53d9b146106ab578063f9eaee0d146106c257600080fd5b8063c22c4f4314610598578063c2cfee27146105cc578063c9016774146105fe578063d547741f1461061e57600080fd5b8063a217fddf116100e7578063a217fddf14610503578063a7d5eaea14610518578063a8d9939d14610538578063aba2100914610558578063b7f2bd771461058557600080fd5b8063715018a61461047f57806371da85f9146104945780638da5cb5b146104c557806391d14854146104e357600080fd5b8063477034da1161019b57806352d1902d1161016a57806352d1902d146103ca578063537e96fe146103df578063572b6c05146103f25780635bdc75b01461042b5780636ce76f301461044b57600080fd5b8063477034da14610357578063485cc9551461037757806349c6559c146103975780634f1ef286146103b757600080fd5b80632f2ff15d116101d75780632f2ff15d146102d757806336568abe146102f75780633659cfe6146103175780633751d89c1461033757600080fd5b806301ffc9a7146102095780631499f9e61461023e578063248a9ca31461027757806326d00668146102b5575b600080fd5b34801561021557600080fd5b50610229610224366004612ec0565b6106fc565b60405190151581526020015b60405180910390f35b34801561024a57600080fd5b506101305461025f906001600160a01b031681565b6040516001600160a01b039091168152602001610235565b34801561028357600080fd5b506102a7610292366004612eea565b600090815260fc602052604090206001015490565b604051908152602001610235565b3480156102c157600080fd5b506102d56102d0366004612f1f565b610733565b005b3480156102e357600080fd5b506102d56102f2366004612f3a565b610796565b34801561030357600080fd5b506102d5610312366004612f3a565b6107c0565b34801561032357600080fd5b506102d5610332366004612f1f565b610853565b34801561034357600080fd5b506102d5610352366004612f1f565b610933565b34801561036357600080fd5b506102d5610372366004612f66565b61098c565b34801561038357600080fd5b506102d5610392366004612f88565b610ba2565b3480156103a357600080fd5b506102d56103b2366004612eea565b610d0e565b6102d56103c5366004612fc8565b610d55565b3480156103d657600080fd5b506102a7610e22565b6102d56103ed3660046130e3565b610ed5565b3480156103fe57600080fd5b5061022961040d366004612f1f565b6001600160a01b031660009081526065602052604090205460ff1690565b34801561043757600080fd5b506102d5610446366004612f66565b6113c0565b34801561045757600080fd5b506102a77f2fdac322ee704ce09f0773f7f3f92eb98d5e7c836ee9c056cccd5f61041e5e3f81565b34801561048b57600080fd5b506102d561155a565b3480156104a057600080fd5b506102296104af366004612f1f565b6101336020526000908152604090205460ff1681565b3480156104d157600080fd5b506033546001600160a01b031661025f565b3480156104ef57600080fd5b506102296104fe366004612f3a565b61156e565b34801561050f57600080fd5b506102a7600081565b34801561052457600080fd5b506102d561053336600461315d565b611599565b34801561054457600080fd5b506102d5610553366004613189565b611612565b34801561056457600080fd5b50610578610573366004612f66565b611901565b6040516102359190613273565b6102a76105933660046132db565b611a6c565b3480156105a457600080fd5b506105b86105b3366004612eea565b611c48565b604051610235989796959493929190613337565b3480156105d857600080fd5b506105ec6105e7366004612f66565b611d18565b6040516102359695949392919061338b565b34801561060a57600080fd5b506102d56106193660046133db565b611df8565b34801561062a57600080fd5b506102d5610639366004612f3a565b611ed9565b34801561064a57600080fd5b5061065e610659366004612eea565b611efe565b6040516102359190613417565b34801561067757600080fd5b506102d5610686366004612f1f565b6120b6565b34801561069757600080fd5b506102d56106a63660046132db565b61212c565b3480156106b757600080fd5b506102a761012e5481565b3480156106ce57600080fd5b506102296106dd366004612f1f565b6001600160a01b03166000908152610133602052604090205460ff1690565b60006001600160e01b03198216637965db0b60e01b148061072d57506301ffc9a760e01b6001600160e01b03198316145b92915050565b61073b612385565b6001600160a01b038116600081815260656020908152604091829020805460ff1916600117905590519182527f3ef8564460ada92419608d823c014975d98f8104d7d1e68c222967ac6814cd9791015b60405180910390a150565b600082815260fc60205260409020600101546107b1816123fe565b6107bb838361240f565b505050565b6107c8612496565b6001600160a01b0316816001600160a01b0316146108455760405162461bcd60e51b815260206004820152602f60248201527f416363657373436f6e74726f6c3a2063616e206f6e6c792072656e6f756e636560448201526e103937b632b9903337b91039b2b63360891b60648201526084015b60405180910390fd5b61084f82826124a5565b5050565b306001600160a01b037f000000000000000000000000000000000000000000000000000000000000000016141561089c5760405162461bcd60e51b815260040161083c9061348f565b7f00000000000000000000000000000000000000000000000000000000000000006001600160a01b03166108e56000805160206138be833981519152546001600160a01b031690565b6001600160a01b03161461090b5760405162461bcd60e51b815260040161083c906134db565b6109148161252a565b6040805160008082526020820190925261093091839190612532565b50565b61093b612385565b6001600160a01b038116600081815260656020908152604091829020805460ff1916905590519182527fd2d636efcad0cea42e170256f4c5d8b1cd81e47b855557edaf44014e6cc4cee6910161078b565b61012f546000906001600160a01b031663438b63006109a9612496565b6040516001600160e01b031960e084901b1681526001600160a01b03909116600482015260240160206040518083038186803b1580156109e857600080fd5b505afa1580156109fc573d6000803e3d6000fd5b505050506040513d601f19601f82011682018060405250810190610a209190613527565b905060008111610a425760405162461bcd60e51b815260040161083c90613540565b60008381526101316020908152604080832061013283528184208685529092529091206001815460ff166002811115610a7d57610a7d6131f1565b1415610a9b5760405162461bcd60e51b815260040161083c90613577565b6002815460ff166002811115610ab357610ab36131f1565b1415610b0c5760405162461bcd60e51b815260206004820152602260248201527f50726f706f73616c2068617320616c7265616479206265656e2072656a656374604482015261195960f21b606482015260840161083c565b81600101548314610b565760405162461bcd60e51b81526020600482015260146024820152732cb7ba93b932903737ba103a343290313abcb2b960611b604482015260640161083c565b805460ff1916600217815560408051868152602081018690527ffa74c17c82b1d1960368a621d45c9afe55e65c87a2c9fe612ac7e36c382b3f7891015b60405180910390a15050505050565b600054610100900460ff1615808015610bc25750600054600160ff909116105b80610bdc5750303b158015610bdc575060005460ff166001145b610c3f5760405162461bcd60e51b815260206004820152602e60248201527f496e697469616c697a61626c653a20636f6e747261637420697320616c72656160448201526d191e481a5b9a5d1a585b1a5e995960921b606482015260840161083c565b6000805460ff191660011790558015610c62576000805461ff0019166101001790555b610c6a6126ac565b610c726126db565b610c7a6126db565b610c8c6000610c87612496565b612702565b61012f80546001600160a01b038086166001600160a01b031992831617909255610130805492851692909116919091179055600161012e5580156107bb576000805461ff0019169055604051600181527f7f26b83ff96e1f2b6a682f133852f6798a09c465da95921460cefb38474024989060200160405180910390a1505050565b7f2fdac322ee704ce09f0773f7f3f92eb98d5e7c836ee9c056cccd5f61041e5e3f610d38816123fe565b50600090815261013160205260409020805460ff19166002179055565b306001600160a01b037f0000000000000000000000000000000000000000000000000000000000000000161415610d9e5760405162461bcd60e51b815260040161083c9061348f565b7f00000000000000000000000000000000000000000000000000000000000000006001600160a01b0316610de76000805160206138be833981519152546001600160a01b031690565b6001600160a01b031614610e0d5760405162461bcd60e51b815260040161083c906134db565b610e168261252a565b61084f82826001612532565b6000306001600160a01b037f00000000000000000000000000000000000000000000000000000000000000001614610ec25760405162461bcd60e51b815260206004820152603860248201527f555550535570677261646561626c653a206d757374206e6f742062652063616c60448201527f6c6564207468726f7567682064656c656761746563616c6c0000000000000000606482015260840161083c565b506000805160206138be83398151915290565b61012f546000906001600160a01b031663438b6300610ef2612496565b6040516001600160e01b031960e084901b1681526001600160a01b03909116600482015260240160206040518083038186803b158015610f3157600080fd5b505afa158015610f45573d6000803e3d6000fd5b505050506040513d601f19601f82011682018060405250810190610f699190613527565b905060008111610f8b5760405162461bcd60e51b815260040161083c90613540565b6001600160a01b0386166000908152610133602052604090205460ff16610ff05760405162461bcd60e51b8152602060048201526019602482015278151a1a5cc81d1bdad95b881a5cc81b9bdd08185b1b1bddd959603a1b604482015260640161083c565b61013054604051634a7ab1d560e01b815261ffff861660048201526000916001600160a01b031690634a7ab1d59060240160206040518083038186803b15801561103957600080fd5b505afa15801561104d573d6000803e3d6000fd5b505050506040513d601f19601f8201168201806040525081019061107191906135ba565b90508061ffff1634146110bb5760405162461bcd60e51b81526020600482015260126024820152714e6f6e2d6d61746368696e672066756e647360701b604482015260640161083c565b6000888152610131602052604090206004815460ff1660048111156110e2576110e26131f1565b146111275760405162461bcd60e51b815260206004820152601560248201527414d95c9d9a58d9481a5cc81b9bdd081bdc195b9959605a1b604482015260640161083c565b6000898152610132602090815260408083208684529091529020600101548314156111ac5760405162461bcd60e51b815260206004820152602f60248201527f596f7520616c7265616479206372656174656420612070726f706f73616c206660448201526e6f722074686973207365727669636560881b606482015260840161083c565b828160010154141561121a5760405162461bcd60e51b815260206004820152603160248201527f596f7520636f756c646e2774206372656174652070726f706f73616c20666f7260448201527020796f7572206f776e207365727669636560781b606482015260840161083c565b836112375760405162461bcd60e51b815260040161083c906135d7565b60058101805490600061124983613624565b90915550506040805160c081019091528060008152602001848152602001896001600160a01b031681526020018881526020018761ffff16815260200186868080601f01602080910402602001604051908101604052809392919081815260200183838082843760009201829052509390945250508b81526101326020908152604080832088845290915290208251815491925090829060ff191660018360028111156112f8576112f86131f1565b0217905550602082810151600183015560408301516002830180546001600160a01b0319166001600160a01b0390921691909117905560608301516003830155608083015160048301805461ffff191661ffff90921691909117905560a0830151805161136b9260058501920190612db3565b509050507fdc1ab3200caf17076f60a9fbf22ea5814644850fbb7be85a4c19f23bcdaa69378984878760008d8d8d6040516113ad989796959493929190613668565b60405180910390a1505050505050505050565b61012f546000906001600160a01b031663438b63006113dd612496565b6040516001600160e01b031960e084901b1681526001600160a01b03909116600482015260240160206040518083038186803b15801561141c57600080fd5b505afa158015611430573d6000803e3d6000fd5b505050506040513d601f19601f820116820180604052508101906114549190613527565b9050600081116114765760405162461bcd60e51b815260040161083c90613540565b60008381526101316020908152604080832061013283528184208685529092529091206001815460ff1660028111156114b1576114b16131f1565b14156114cf5760405162461bcd60e51b815260040161083c90613577565b816001015483146115195760405162461bcd60e51b81526020600482015260146024820152732cb7ba93b932903737ba103a343290313abcb2b960611b604482015260640161083c565b805460ff1916600117815560408051868152602081018690527f03a3b4a747d115189175e375b6c6ccd9dcdacdf7b4369aa5d8c3b8afda8ca2959101610b93565b611562612385565b61156c600061270c565b565b600091825260fc602090815260408084206001600160a01b0393909316845291905290205460ff1690565b7f2fdac322ee704ce09f0773f7f3f92eb98d5e7c836ee9c056cccd5f61041e5e3f6115c3816123fe565b506000928352610131602090815260408085206101328352818620948652939091529092208154600160ff19918216811784558083015460028501556006909301939093558054909216179055565b61012f546000906001600160a01b031663438b630061162f612496565b6040516001600160e01b031960e084901b1681526001600160a01b03909116600482015260240160206040518083038186803b15801561166e57600080fd5b505afa158015611682573d6000803e3d6000fd5b505050506040513d601f19601f820116820180604052508101906116a69190613527565b9050600081116116c85760405162461bcd60e51b815260040161083c90613540565b6001600160a01b0385166000908152610133602052604090205460ff1661172d5760405162461bcd60e51b8152602060048201526019602482015278151a1a5cc81d1bdad95b881a5cc81b9bdd08185b1b1bddd959603a1b604482015260640161083c565b60008681526101316020908152604080832061013283528184208585529092529091206004825460ff166004811115611768576117686131f1565b146117ad5760405162461bcd60e51b815260206004820152601560248201527414d95c9d9a58d9481a5cc81b9bdd081bdc195b9959605a1b604482015260640161083c565b828160010154146118005760405162461bcd60e51b815260206004820152601f60248201527f546869732070726f706f73616c20646f65736e27742065786973742079657400604482015260640161083c565b8361181d5760405162461bcd60e51b815260040161083c906135d7565b6001815460ff166002811115611835576118356131f1565b14156118835760405162461bcd60e51b815260206004820181905260248201527f546869732070726f706f73616c20697320616c72656164792075706461746564604482015260640161083c565b6002810180546001600160a01b0319166001600160a01b038916179055600381018690556118b5600582018686612e37565b507f5cf385c7cf3e1609443b09191511540e030254887cccb510dfface4c041b6c55888487878b8b6040516118ef969594939291906136c3565b60405180910390a15050505050505050565b6119486040805160c0810190915280600081526020016000815260200160006001600160a01b0316815260200160008152602001600061ffff168152602001606081525090565b60008381526101326020908152604080832085845290915290819020815160c081019092528054829060ff166002811115611985576119856131f1565b6002811115611996576119966131f1565b81526001820154602082015260028201546001600160a01b0316604082015260038201546060820152600482015461ffff16608082015260058201805460a0909201916119e290613701565b80601f0160208091040260200160405190810160405280929190818152602001828054611a0e90613701565b8015611a5b5780601f10611a3057610100808354040283529160200191611a5b565b820191906000526020600020905b815481529060010190602001808311611a3e57829003601f168201915b505050505081525050905092915050565b61013054604051638a98636360e01b81526004810185905260009182916001600160a01b0390911690638a9863639060240160206040518083038186803b158015611ab657600080fd5b505afa158015611aca573d6000803e3d6000fd5b505050506040513d601f19601f82011682018060405250810190611aee91906135ba565b90508061ffff163414611b385760405162461bcd60e51b81526020600482015260126024820152714e6f6e2d6d61746368696e672066756e647360701b604482015260640161083c565b6101305460405162f577a560e81b8152600481018790526001600160a01b039091169063f577a5009060240160006040518083038186803b158015611b7c57600080fd5b505afa158015611b90573d6000803e3d6000fd5b505061012f54600092506001600160a01b0316905063438b6300611bb2612496565b6040516001600160e01b031960e084901b1681526001600160a01b03909116600482015260240160206040518083038186803b158015611bf157600080fd5b505afa158015611c05573d6000803e3d6000fd5b505050506040513d601f19601f82011682018060405250810190611c299190613527565b9050611c3c60048283600089898c61275e565b925050505b9392505050565b610131602052600090815260409020805460018201546002830154600384015460048501805460ff90951695939492939192611c8390613701565b80601f0160208091040260200160405190810160405280929190818152602001828054611caf90613701565b8015611cfc5780601f10611cd157610100808354040283529160200191611cfc565b820191906000526020600020905b815481529060010190602001808311611cdf57829003601f168201915b5050505050908060050154908060060154908060070154905088565b61013260209081526000928352604080842090915290825290208054600182015460028301546003840154600485015460058601805460ff9096169694956001600160a01b0390941694929361ffff9092169291611d7590613701565b80601f0160208091040260200160405190810160405280929190818152602001828054611da190613701565b8015611dee5780601f10611dc357610100808354040283529160200191611dee565b820191906000526020600020905b815481529060010190602001808311611dd157829003601f168201915b5050505050905086565b611e00612385565b6001600160a01b038216158015611e1657508015155b80611e2957506001600160a01b03821615155b611e755760405162461bcd60e51b815260206004820152601d60248201527f4f776e65722063616e27742072656d6f7665204f782061646472657373000000604482015260640161083c565b6001600160a01b03821660008181526101336020908152604091829020805460ff19168515159081179091558251938452908301527fd138accc17a5df6552bf13624802a01fc56a160f1e6e6247743ccd07ed99a7c9910160405180910390a15050565b600082815260fc6020526040902060010154611ef4816123fe565b6107bb83836124a5565b611f476040805161010081019091528060008152602001600081526020016000815260200160008152602001606081526020016000815260200160008152602001600081525090565b61012e548210611f995760405162461bcd60e51b815260206004820152601a60248201527f54686973207365727669636520646f65736e2774206578697374000000000000604482015260640161083c565b6000828152610131602052604090819020815161010081019092528054829060ff166004811115611fcc57611fcc6131f1565b6004811115611fdd57611fdd6131f1565b815260200160018201548152602001600282015481526020016003820154815260200160048201805461200f90613701565b80601f016020809104026020016040519081016040528092919081815260200182805461203b90613701565b80156120885780601f1061205d57610100808354040283529160200191612088565b820191906000526020600020905b81548152906001019060200180831161206b57829003601f168201915b5050505050815260200160058201548152602001600682015481526020016007820154815250509050919050565b6120be612385565b6001600160a01b0381166121235760405162461bcd60e51b815260206004820152602660248201527f4f776e61626c653a206e6577206f776e657220697320746865207a65726f206160448201526564647265737360d01b606482015260840161083c565b6109308161270c565b60008381526101316020526040902061012e54841061218d5760405162461bcd60e51b815260206004820152601a60248201527f54686973207365727669636520646f65736e2774206578697374000000000000604482015260640161083c565b6004815460ff1660048111156121a5576121a56131f1565b14806121c657506000815460ff1660048111156121c4576121c46131f1565b145b6122245760405162461bcd60e51b815260206004820152602960248201527f53657276696365207374617475732073686f756c64206265206f70656e6564206044820152681bdc88199a5b1b195960ba1b606482015260840161083c565b61012f546001600160a01b031663438b630061223e612496565b6040516001600160e01b031960e084901b1681526001600160a01b03909116600482015260240160206040518083038186803b15801561227d57600080fd5b505afa158015612291573d6000803e3d6000fd5b505050506040513d601f19601f820116820180604052508101906122b59190613527565b8160030154146123195760405162461bcd60e51b815260206004820152602960248201527f4f6e6c792074686520696e69746961746f722063616e2075706461746520746860448201526865207365727669636560b81b606482015260840161083c565b816123365760405162461bcd60e51b815260040161083c906135d7565b612344600482018484612e37565b50837f1cae99404f615a4039d85b1009cb70622aae6d64f671e8b1b191d9269847d43e848460405161237792919061373c565b60405180910390a250505050565b61238d612496565b6001600160a01b03166123a86033546001600160a01b031690565b6001600160a01b03161461156c5760405162461bcd60e51b815260206004820181905260248201527f4f776e61626c653a2063616c6c6572206973206e6f7420746865206f776e6572604482015260640161083c565b6109308161240a612496565b612903565b612419828261156e565b61084f57600082815260fc602090815260408083206001600160a01b03851684529091529020805460ff19166001179055612452612496565b6001600160a01b0316816001600160a01b0316837f2f8788117e7eff1d82e926ec794901d17c78024a50270940304540a733656f0d60405160405180910390a45050565b60006124a061295c565b905090565b6124af828261156e565b1561084f57600082815260fc602090815260408083206001600160a01b03851684529091529020805460ff191690556124e6612496565b6001600160a01b0316816001600160a01b0316837ff6391f5c32d9c69d2a47ea670b442974b53935d1edc7fd64eb21e047a839171b60405160405180910390a45050565b610930612385565b7f4910fdfa16fed3260ed0e7147f7cc6da11a60208b5b9406d12a635614ffd91435460ff1615612565576107bb83612995565b826001600160a01b03166352d1902d6040518163ffffffff1660e01b815260040160206040518083038186803b15801561259e57600080fd5b505afa9250505080156125ce575060408051601f3d908101601f191682019092526125cb91810190613527565b60015b6126315760405162461bcd60e51b815260206004820152602e60248201527f45524331393637557067726164653a206e657720696d706c656d656e7461746960448201526d6f6e206973206e6f74205555505360901b606482015260840161083c565b6000805160206138be83398151915281146126a05760405162461bcd60e51b815260206004820152602960248201527f45524331393637557067726164653a20756e737570706f727465642070726f786044820152681a58589b195555525160ba1b606482015260840161083c565b506107bb838383612a31565b600054610100900460ff166126d35760405162461bcd60e51b815260040161083c90613750565b61156c612a5c565b600054610100900460ff1661156c5760405162461bcd60e51b815260040161083c90613750565b61084f828261240f565b603380546001600160a01b038381166001600160a01b0319831681179093556040519116919082907f8be0079c531659141344cd1fd0a4f28419497f9722a3daafe3b4186f6b6457e090600090a35050565b600080871161277f5760405162461bcd60e51b815260040161083c90613540565b858514156127da5760405162461bcd60e51b815260206004820152602260248201527f53656c6c657220616e642062757965722063616e2774206265207468652073616044820152616d6560f01b606482015260840161083c565b826127f75760405162461bcd60e51b815260040161083c906135d7565b61012e8054908190600061280a83613624565b909155505060008181526101316020526040902080548a90829060ff1916600183600481111561283c5761283c6131f1565b0217905550600181018890556002810187905560038101899055612864600482018787612e37565b506007810184905560408051838152602081018a9052908101889052606081018a9052608081018590527f9cd325e0ba2126728b21176b4b24c49c672e66820627759eedcab6b5dd7dac499060a00160405180910390a17f4874366e887bb729d49976a8f6751c4263d1668fd396db9b8d5f037895e7a7458287876040516128ee9392919061379b565b60405180910390a15098975050505050505050565b61290d828261156e565b61084f5761291a81612a93565b612925836020612aa5565b6040516020016129369291906137b5565b60408051601f198184030181529082905262461bcd60e51b825261083c9160040161382a565b60006014361080159061297e57503360009081526065602052604090205460ff165b15612990575060131936013560601c90565b503390565b6001600160a01b0381163b612a025760405162461bcd60e51b815260206004820152602d60248201527f455243313936373a206e657720696d706c656d656e746174696f6e206973206e60448201526c1bdd08184818dbdb9d1c9858dd609a1b606482015260840161083c565b6000805160206138be83398151915280546001600160a01b0319166001600160a01b0392909216919091179055565b612a3a83612c41565b600082511180612a475750805b156107bb57612a568383612c81565b50505050565b600054610100900460ff16612a835760405162461bcd60e51b815260040161083c90613750565b61156c612a8e612496565b61270c565b606061072d6001600160a01b03831660145b60606000612ab483600261383d565b612abf90600261385c565b67ffffffffffffffff811115612ad757612ad7612fb2565b6040519080825280601f01601f191660200182016040528015612b01576020820181803683370190505b509050600360fc1b81600081518110612b1c57612b1c613874565b60200101906001600160f81b031916908160001a905350600f60fb1b81600181518110612b4b57612b4b613874565b60200101906001600160f81b031916908160001a9053506000612b6f84600261383d565b612b7a90600161385c565b90505b6001811115612bf2576f181899199a1a9b1b9c1cb0b131b232b360811b85600f1660108110612bae57612bae613874565b1a60f81b828281518110612bc457612bc4613874565b60200101906001600160f81b031916908160001a90535060049490941c93612beb8161388a565b9050612b7d565b508315611c415760405162461bcd60e51b815260206004820181905260248201527f537472696e67733a20686578206c656e67746820696e73756666696369656e74604482015260640161083c565b612c4a81612995565b6040516001600160a01b038216907fbc7cd75a20ee27fd9adebab32041f755214dbc6bffa90cc0225b39da2e5c2d3b90600090a250565b60606001600160a01b0383163b612ce95760405162461bcd60e51b815260206004820152602660248201527f416464726573733a2064656c65676174652063616c6c20746f206e6f6e2d636f6044820152651b9d1c9858dd60d21b606482015260840161083c565b600080846001600160a01b031684604051612d0491906138a1565b600060405180830381855af49150503d8060008114612d3f576040519150601f19603f3d011682016040523d82523d6000602084013e612d44565b606091505b5091509150612d6c82826040518060600160405280602781526020016138de60279139612d75565b95945050505050565b60608315612d84575081611c41565b611c418383815115612d995781518083602001fd5b8060405162461bcd60e51b815260040161083c919061382a565b828054612dbf90613701565b90600052602060002090601f016020900481019282612de15760008555612e27565b82601f10612dfa57805160ff1916838001178555612e27565b82800160010185558215612e27579182015b82811115612e27578251825591602001919060010190612e0c565b50612e33929150612eab565b5090565b828054612e4390613701565b90600052602060002090601f016020900481019282612e655760008555612e27565b82601f10612e7e5782800160ff19823516178555612e27565b82800160010185558215612e27579182015b82811115612e27578235825591602001919060010190612e90565b5b80821115612e335760008155600101612eac565b600060208284031215612ed257600080fd5b81356001600160e01b031981168114611c4157600080fd5b600060208284031215612efc57600080fd5b5035919050565b80356001600160a01b0381168114612f1a57600080fd5b919050565b600060208284031215612f3157600080fd5b611c4182612f03565b60008060408385031215612f4d57600080fd5b82359150612f5d60208401612f03565b90509250929050565b60008060408385031215612f7957600080fd5b50508035926020909101359150565b60008060408385031215612f9b57600080fd5b612fa483612f03565b9150612f5d60208401612f03565b634e487b7160e01b600052604160045260246000fd5b60008060408385031215612fdb57600080fd5b612fe483612f03565b9150602083013567ffffffffffffffff8082111561300157600080fd5b818501915085601f83011261301557600080fd5b81358181111561302757613027612fb2565b604051601f8201601f19908116603f0116810190838211818310171561304f5761304f612fb2565b8160405282815288602084870101111561306857600080fd5b8260208601602083013760006020848301015280955050505050509250929050565b61ffff8116811461093057600080fd5b60008083601f8401126130ac57600080fd5b50813567ffffffffffffffff8111156130c457600080fd5b6020830191508360208285010111156130dc57600080fd5b9250929050565b60008060008060008060a087890312156130fc57600080fd5b8635955061310c60208801612f03565b94506040870135935060608701356131238161308a565b9250608087013567ffffffffffffffff81111561313f57600080fd5b61314b89828a0161309a565b979a9699509497509295939492505050565b60008060006060848603121561317257600080fd5b505081359360208301359350604090920135919050565b6000806000806000608086880312156131a157600080fd5b853594506131b160208701612f03565b935060408601359250606086013567ffffffffffffffff8111156131d457600080fd5b6131e08882890161309a565b969995985093965092949392505050565b634e487b7160e01b600052602160045260246000fd5b60038110613217576132176131f1565b9052565b60005b8381101561323657818101518382015260200161321e565b83811115612a565750506000910152565b6000815180845261325f81602086016020860161321b565b601f01601f19169290920160200192915050565b60208152613285602082018351613207565b6020820151604082015260018060a01b0360408301511660608201526060820151608082015261ffff60808301511660a0820152600060a083015160c0808401526132d360e0840182613247565b949350505050565b6000806000604084860312156132f057600080fd5b83359250602084013567ffffffffffffffff81111561330e57600080fd5b61331a8682870161309a565b9497909650939450505050565b60058110613217576132176131f1565b6000610100613346838c613327565b89602084015288604084015287606084015280608084015261336a81840188613247565b60a0840196909652505060c081019290925260e09091015295945050505050565b6133958188613207565b85602082015260018060a01b038516604082015283606082015261ffff8316608082015260c060a082015260006133cf60c0830184613247565b98975050505050505050565b600080604083850312156133ee57600080fd5b6133f783612f03565b91506020830135801515811461340c57600080fd5b809150509250929050565b60208152613429602082018351613327565b602082015160408201526040820151606082015260608201516080820152600060808301516101008060a0850152613465610120850183613247565b915060a085015160c085015260c085015160e085015260e085015181850152508091505092915050565b6020808252602c908201527f46756e6374696f6e206d7573742062652063616c6c6564207468726f7567682060408201526b19195b1959d85d1958d85b1b60a21b606082015260800190565b6020808252602c908201527f46756e6374696f6e206d7573742062652063616c6c6564207468726f7567682060408201526b6163746976652070726f787960a01b606082015260800190565b60006020828403121561353957600080fd5b5051919050565b6020808252601f908201527f596f752073686f756c64206861766520612054616c656e744c61796572496400604082015260600190565b60208082526023908201527f50726f706f73616c2068617320616c7265616479206265656e2076616c6964616040820152621d195960ea1b606082015260800190565b6000602082840312156135cc57600080fd5b8151611c418161308a565b6020808252601f908201527f53686f756c642070726f7669646520612076616c696420495046532055524900604082015260600190565b634e487b7160e01b600052601160045260246000fd5b60006000198214156136385761363861360e565b5060010190565b81835281816020850137506000828201602090810191909152601f909101601f19169091010190565b88815287602082015260e06040820152600061368860e08301888a61363f565b90506136976060830187613207565b6001600160a01b0394909416608082015260a081019290925261ffff1660c09091015295945050505050565b86815285602082015260a0604082015260006136e360a08301868861363f565b6001600160a01b039490941660608301525060800152949350505050565b600181811c9082168061371557607f821691505b6020821081141561373657634e487b7160e01b600052602260045260246000fd5b50919050565b6020815260006132d360208301848661363f565b6020808252602b908201527f496e697469616c697a61626c653a20636f6e7472616374206973206e6f74206960408201526a6e697469616c697a696e6760a81b606082015260800190565b838152604060208201526000612d6c60408301848661363f565b7f416363657373436f6e74726f6c3a206163636f756e74200000000000000000008152600083516137ed81601785016020880161321b565b7001034b99036b4b9b9b4b733903937b6329607d1b601791840191820152835161381e81602884016020880161321b565b01602801949350505050565b602081526000611c416020830184613247565b60008160001904831182151516156138575761385761360e565b500290565b6000821982111561386f5761386f61360e565b500190565b634e487b7160e01b600052603260045260246000fd5b6000816138995761389961360e565b506000190190565b600082516138b381846020870161321b565b919091019291505056fe360894a13ba1a3210667c828492db98dca3e2076cc3735a920a3ca505d382bbc416464726573733a206c6f772d6c6576656c2064656c65676174652063616c6c206661696c6564a2646970667358221220ab44778dec1475a79cf175017363dce64802af2f8d64f29e019379718593cd9264736f6c63430008090033",
  "linkReferences": {},
  "deployedLinkReferences": {}
}