{
  "_format": "hh-sol-artifact-1",
  "contractName": "TalentLayerService",
  "sourceName": "contracts/TalentLayerService.sol",
  "abi": [
    {
      "inputs": [],
      "stateMutability": "nonpayable",
      "type": "constructor"
    },
    {
      "anonymous": false,
      "inputs": [
        {
          "indexed": false,
          "internalType": "address",
          "name": "previousAdmin",
          "type": "address"
        },
        {
          "indexed": false,
          "internalType": "address",
          "name": "newAdmin",
          "type": "address"
        }
      ],
      "name": "AdminChanged",
      "type": "event"
    },
    {
      "anonymous": false,
      "inputs": [
        {
          "indexed": false,
          "internalType": "address",
          "name": "_tokenAddress",
          "type": "address"
        },
        {
          "indexed": false,
          "internalType": "bool",
          "name": "_status",
          "type": "bool"
        }
      ],
      "name": "AllowedTokenListUpdated",
      "type": "event"
    },
    {
      "anonymous": false,
      "inputs": [
        {
          "indexed": true,
          "internalType": "address",
          "name": "beacon",
          "type": "address"
        }
      ],
      "name": "BeaconUpgraded",
      "type": "event"
    },
    {
      "anonymous": false,
      "inputs": [
        {
          "indexed": false,
          "internalType": "uint8",
          "name": "version",
          "type": "uint8"
        }
      ],
      "name": "Initialized",
      "type": "event"
    },
    {
      "anonymous": false,
      "inputs": [
        {
          "indexed": true,
          "internalType": "address",
          "name": "previousOwner",
          "type": "address"
        },
        {
          "indexed": true,
          "internalType": "address",
          "name": "newOwner",
          "type": "address"
        }
      ],
      "name": "OwnershipTransferred",
      "type": "event"
    },
    {
      "anonymous": false,
      "inputs": [
        {
          "indexed": false,
          "internalType": "uint256",
          "name": "serviceId",
          "type": "uint256"
        },
        {
          "indexed": false,
          "internalType": "uint256",
          "name": "ownerId",
          "type": "uint256"
        },
        {
          "indexed": false,
          "internalType": "string",
          "name": "dataUri",
          "type": "string"
        },
        {
          "indexed": false,
          "internalType": "enum TalentLayerService.ProposalStatus",
          "name": "status",
          "type": "uint8"
        },
        {
          "indexed": false,
          "internalType": "address",
          "name": "rateToken",
          "type": "address"
        },
        {
          "indexed": false,
          "internalType": "uint256",
          "name": "rateAmount",
          "type": "uint256"
        },
        {
          "indexed": false,
          "internalType": "uint16",
          "name": "platformId",
          "type": "uint16"
        }
      ],
      "name": "ProposalCreated",
      "type": "event"
    },
    {
      "anonymous": false,
      "inputs": [
        {
          "indexed": false,
          "internalType": "uint256",
          "name": "serviceId",
          "type": "uint256"
        },
        {
          "indexed": false,
          "internalType": "uint256",
          "name": "ownerId",
          "type": "uint256"
        },
        {
          "indexed": false,
          "internalType": "string",
          "name": "dataUri",
          "type": "string"
        },
        {
          "indexed": false,
          "internalType": "address",
          "name": "rateToken",
          "type": "address"
        },
        {
          "indexed": false,
          "internalType": "uint256",
          "name": "rateAmount",
          "type": "uint256"
        }
      ],
      "name": "ProposalUpdated",
      "type": "event"
    },
    {
      "anonymous": false,
      "inputs": [
        {
          "indexed": false,
          "internalType": "uint256",
          "name": "serviceId",
          "type": "uint256"
        },
        {
          "indexed": false,
          "internalType": "uint256",
          "name": "ownerId",
          "type": "uint256"
        }
      ],
      "name": "ProposalValidated",
      "type": "event"
    },
    {
      "anonymous": false,
      "inputs": [
        {
          "indexed": true,
          "internalType": "bytes32",
          "name": "role",
          "type": "bytes32"
        },
        {
          "indexed": true,
          "internalType": "bytes32",
          "name": "previousAdminRole",
          "type": "bytes32"
        },
        {
          "indexed": true,
          "internalType": "bytes32",
          "name": "newAdminRole",
          "type": "bytes32"
        }
      ],
      "name": "RoleAdminChanged",
      "type": "event"
    },
    {
      "anonymous": false,
      "inputs": [
        {
          "indexed": true,
          "internalType": "bytes32",
          "name": "role",
          "type": "bytes32"
        },
        {
          "indexed": true,
          "internalType": "address",
          "name": "account",
          "type": "address"
        },
        {
          "indexed": true,
          "internalType": "address",
          "name": "sender",
          "type": "address"
        }
      ],
      "name": "RoleGranted",
      "type": "event"
    },
    {
      "anonymous": false,
      "inputs": [
        {
          "indexed": true,
          "internalType": "bytes32",
          "name": "role",
          "type": "bytes32"
        },
        {
          "indexed": true,
          "internalType": "address",
          "name": "account",
          "type": "address"
        },
        {
          "indexed": true,
          "internalType": "address",
          "name": "sender",
          "type": "address"
        }
      ],
      "name": "RoleRevoked",
      "type": "event"
    },
    {
      "anonymous": false,
      "inputs": [
        {
          "indexed": false,
          "internalType": "uint256",
          "name": "id",
          "type": "uint256"
        }
      ],
      "name": "ServiceCancelled",
      "type": "event"
    },
    {
      "anonymous": false,
      "inputs": [
        {
          "indexed": false,
          "internalType": "uint256",
          "name": "id",
          "type": "uint256"
        },
        {
          "indexed": false,
          "internalType": "uint256",
          "name": "ownerId",
          "type": "uint256"
        },
        {
          "indexed": false,
          "internalType": "uint256",
          "name": "platformId",
          "type": "uint256"
        },
        {
          "indexed": false,
          "internalType": "string",
          "name": "dataUri",
          "type": "string"
        }
      ],
      "name": "ServiceCreated",
      "type": "event"
    },
    {
      "anonymous": false,
      "inputs": [
        {
          "indexed": true,
          "internalType": "uint256",
          "name": "id",
          "type": "uint256"
        },
        {
          "indexed": false,
          "internalType": "string",
          "name": "dataUri",
          "type": "string"
        }
      ],
      "name": "ServiceDetailedUpdated",
      "type": "event"
    },
    {
      "anonymous": false,
      "inputs": [
        {
          "indexed": false,
          "internalType": "address",
          "name": "forwarder",
          "type": "address"
        }
      ],
      "name": "TrustedForwarderAdded",
      "type": "event"
    },
    {
      "anonymous": false,
      "inputs": [
        {
          "indexed": false,
          "internalType": "address",
          "name": "forwarder",
          "type": "address"
        }
      ],
      "name": "TrustedForwarderRemoved",
      "type": "event"
    },
    {
      "anonymous": false,
      "inputs": [
        {
          "indexed": true,
          "internalType": "address",
          "name": "implementation",
          "type": "address"
        }
      ],
      "name": "Upgraded",
      "type": "event"
    },
    {
      "inputs": [],
      "name": "DEFAULT_ADMIN_ROLE",
      "outputs": [
        {
          "internalType": "bytes32",
          "name": "",
          "type": "bytes32"
        }
      ],
      "stateMutability": "view",
      "type": "function"
    },
    {
      "inputs": [],
      "name": "ESCROW_ROLE",
      "outputs": [
        {
          "internalType": "bytes32",
          "name": "",
          "type": "bytes32"
        }
      ],
      "stateMutability": "view",
      "type": "function"
    },
    {
      "inputs": [
        {
          "internalType": "address",
          "name": "_forwarder",
          "type": "address"
        }
      ],
      "name": "addTrustedForwarder",
      "outputs": [],
      "stateMutability": "nonpayable",
      "type": "function"
    },
    {
      "inputs": [
        {
          "internalType": "uint256",
          "name": "_serviceId",
          "type": "uint256"
        },
        {
          "internalType": "uint256",
          "name": "_proposalId",
          "type": "uint256"
        },
        {
          "internalType": "uint256",
          "name": "_transactionId",
          "type": "uint256"
        }
      ],
      "name": "afterDeposit",
      "outputs": [],
      "stateMutability": "nonpayable",
      "type": "function"
    },
    {
      "inputs": [
        {
          "internalType": "uint256",
          "name": "_serviceId",
          "type": "uint256"
        }
      ],
      "name": "afterFullPayment",
      "outputs": [],
      "stateMutability": "nonpayable",
      "type": "function"
    },
    {
      "inputs": [
        {
          "internalType": "address",
          "name": "",
          "type": "address"
        }
      ],
      "name": "allowedTokenList",
      "outputs": [
        {
          "internalType": "bool",
          "name": "",
          "type": "bool"
        }
      ],
      "stateMutability": "view",
      "type": "function"
    },
    {
      "inputs": [
        {
          "internalType": "uint256",
          "name": "_profileId",
          "type": "uint256"
        },
        {
          "internalType": "uint256",
          "name": "_serviceId",
          "type": "uint256"
        }
      ],
      "name": "cancelService",
      "outputs": [],
      "stateMutability": "nonpayable",
      "type": "function"
    },
    {
      "inputs": [
        {
          "internalType": "uint256",
          "name": "_profileId",
          "type": "uint256"
        },
        {
          "internalType": "uint256",
          "name": "_serviceId",
          "type": "uint256"
        },
        {
          "internalType": "address",
          "name": "_rateToken",
          "type": "address"
        },
        {
          "internalType": "uint256",
          "name": "_rateAmount",
          "type": "uint256"
        },
        {
          "internalType": "uint16",
          "name": "_platformId",
          "type": "uint16"
        },
        {
          "internalType": "string",
          "name": "_dataUri",
          "type": "string"
        }
      ],
      "name": "createProposal",
      "outputs": [],
      "stateMutability": "payable",
      "type": "function"
    },
    {
      "inputs": [
        {
          "internalType": "uint256",
          "name": "_profileId",
          "type": "uint256"
        },
        {
          "internalType": "uint256",
          "name": "_platformId",
          "type": "uint256"
        },
        {
          "internalType": "string",
          "name": "_dataUri",
          "type": "string"
        }
      ],
      "name": "createService",
      "outputs": [
        {
          "internalType": "uint256",
          "name": "",
          "type": "uint256"
        }
      ],
      "stateMutability": "payable",
      "type": "function"
    },
    {
      "inputs": [
        {
          "internalType": "uint256",
          "name": "_serviceId",
          "type": "uint256"
        },
        {
          "internalType": "uint256",
          "name": "_proposalId",
          "type": "uint256"
        }
      ],
      "name": "getProposal",
      "outputs": [
        {
          "components": [
            {
              "internalType": "enum TalentLayerService.ProposalStatus",
              "name": "status",
              "type": "uint8"
            },
            {
              "internalType": "uint256",
              "name": "ownerId",
              "type": "uint256"
            },
            {
              "internalType": "address",
              "name": "rateToken",
              "type": "address"
            },
            {
              "internalType": "uint256",
              "name": "rateAmount",
              "type": "uint256"
            },
            {
              "internalType": "uint16",
              "name": "platformId",
              "type": "uint16"
            },
            {
              "internalType": "string",
              "name": "dataUri",
              "type": "string"
            }
          ],
          "internalType": "struct TalentLayerService.Proposal",
          "name": "",
          "type": "tuple"
        }
      ],
      "stateMutability": "view",
      "type": "function"
    },
    {
      "inputs": [
        {
          "internalType": "bytes32",
          "name": "role",
          "type": "bytes32"
        }
      ],
      "name": "getRoleAdmin",
      "outputs": [
        {
          "internalType": "bytes32",
          "name": "",
          "type": "bytes32"
        }
      ],
      "stateMutability": "view",
      "type": "function"
    },
    {
      "inputs": [
        {
          "internalType": "uint256",
          "name": "_serviceId",
          "type": "uint256"
        }
      ],
      "name": "getService",
      "outputs": [
        {
          "components": [
            {
              "internalType": "enum TalentLayerService.Status",
              "name": "status",
              "type": "uint8"
            },
            {
              "internalType": "uint256",
              "name": "ownerId",
              "type": "uint256"
            },
            {
              "internalType": "uint256",
              "name": "acceptedProposalId",
              "type": "uint256"
            },
            {
              "internalType": "string",
              "name": "dataUri",
              "type": "string"
            },
            {
              "internalType": "uint256",
              "name": "transactionId",
              "type": "uint256"
            },
            {
              "internalType": "uint256",
              "name": "platformId",
              "type": "uint256"
            }
          ],
          "internalType": "struct TalentLayerService.Service",
          "name": "",
          "type": "tuple"
        }
      ],
      "stateMutability": "view",
      "type": "function"
    },
    {
      "inputs": [
        {
          "internalType": "bytes32",
          "name": "role",
          "type": "bytes32"
        },
        {
          "internalType": "address",
          "name": "account",
          "type": "address"
        }
      ],
      "name": "grantRole",
      "outputs": [],
      "stateMutability": "nonpayable",
      "type": "function"
    },
    {
      "inputs": [
        {
          "internalType": "bytes32",
          "name": "role",
          "type": "bytes32"
        },
        {
          "internalType": "address",
          "name": "account",
          "type": "address"
        }
      ],
      "name": "hasRole",
      "outputs": [
        {
          "internalType": "bool",
          "name": "",
          "type": "bool"
        }
      ],
      "stateMutability": "view",
      "type": "function"
    },
    {
      "inputs": [
        {
          "internalType": "address",
          "name": "_talentLayerIdAddress",
          "type": "address"
        },
        {
          "internalType": "address",
          "name": "_talentLayerPlatformIdAddress",
          "type": "address"
        }
      ],
      "name": "initialize",
      "outputs": [],
      "stateMutability": "nonpayable",
      "type": "function"
    },
    {
      "inputs": [
        {
          "internalType": "address",
          "name": "_tokenAddress",
          "type": "address"
        }
      ],
      "name": "isTokenAllowed",
      "outputs": [
        {
          "internalType": "bool",
          "name": "",
          "type": "bool"
        }
      ],
      "stateMutability": "view",
      "type": "function"
    },
    {
      "inputs": [
        {
          "internalType": "address",
          "name": "forwarder",
          "type": "address"
        }
      ],
      "name": "isTrustedForwarder",
      "outputs": [
        {
          "internalType": "bool",
          "name": "",
          "type": "bool"
        }
      ],
      "stateMutability": "view",
      "type": "function"
    },
    {
      "inputs": [],
      "name": "nextServiceId",
      "outputs": [
        {
          "internalType": "uint256",
          "name": "",
          "type": "uint256"
        }
      ],
      "stateMutability": "view",
      "type": "function"
    },
    {
      "inputs": [],
      "name": "owner",
      "outputs": [
        {
          "internalType": "address",
          "name": "",
          "type": "address"
        }
      ],
      "stateMutability": "view",
      "type": "function"
    },
    {
      "inputs": [
        {
          "internalType": "uint256",
          "name": "",
          "type": "uint256"
        },
        {
          "internalType": "uint256",
          "name": "",
          "type": "uint256"
        }
      ],
      "name": "proposals",
      "outputs": [
        {
          "internalType": "enum TalentLayerService.ProposalStatus",
          "name": "status",
          "type": "uint8"
        },
        {
          "internalType": "uint256",
          "name": "ownerId",
          "type": "uint256"
        },
        {
          "internalType": "address",
          "name": "rateToken",
          "type": "address"
        },
        {
          "internalType": "uint256",
          "name": "rateAmount",
          "type": "uint256"
        },
        {
          "internalType": "uint16",
          "name": "platformId",
          "type": "uint16"
        },
        {
          "internalType": "string",
          "name": "dataUri",
          "type": "string"
        }
      ],
      "stateMutability": "view",
      "type": "function"
    },
    {
      "inputs": [],
      "name": "proxiableUUID",
      "outputs": [
        {
          "internalType": "bytes32",
          "name": "",
          "type": "bytes32"
        }
      ],
      "stateMutability": "view",
      "type": "function"
    },
    {
      "inputs": [
        {
          "internalType": "address",
          "name": "_forwarder",
          "type": "address"
        }
      ],
      "name": "removeTrustedForwarder",
      "outputs": [],
      "stateMutability": "nonpayable",
      "type": "function"
    },
    {
      "inputs": [],
      "name": "renounceOwnership",
      "outputs": [],
      "stateMutability": "nonpayable",
      "type": "function"
    },
    {
      "inputs": [
        {
          "internalType": "bytes32",
          "name": "role",
          "type": "bytes32"
        },
        {
          "internalType": "address",
          "name": "account",
          "type": "address"
        }
      ],
      "name": "renounceRole",
      "outputs": [],
      "stateMutability": "nonpayable",
      "type": "function"
    },
    {
      "inputs": [
        {
          "internalType": "bytes32",
          "name": "role",
          "type": "bytes32"
        },
        {
          "internalType": "address",
          "name": "account",
          "type": "address"
        }
      ],
      "name": "revokeRole",
      "outputs": [],
      "stateMutability": "nonpayable",
      "type": "function"
    },
    {
      "inputs": [
        {
          "internalType": "uint256",
          "name": "",
          "type": "uint256"
        }
      ],
      "name": "services",
      "outputs": [
        {
          "internalType": "enum TalentLayerService.Status",
          "name": "status",
          "type": "uint8"
        },
        {
          "internalType": "uint256",
          "name": "ownerId",
          "type": "uint256"
        },
        {
          "internalType": "uint256",
          "name": "acceptedProposalId",
          "type": "uint256"
        },
        {
          "internalType": "string",
          "name": "dataUri",
          "type": "string"
        },
        {
          "internalType": "uint256",
          "name": "transactionId",
          "type": "uint256"
        },
        {
          "internalType": "uint256",
          "name": "platformId",
          "type": "uint256"
        }
      ],
      "stateMutability": "view",
      "type": "function"
    },
    {
      "inputs": [
        {
          "internalType": "bytes4",
          "name": "interfaceId",
          "type": "bytes4"
        }
      ],
      "name": "supportsInterface",
      "outputs": [
        {
          "internalType": "bool",
          "name": "",
          "type": "bool"
        }
      ],
      "stateMutability": "view",
      "type": "function"
    },
    {
      "inputs": [],
      "name": "talentLayerPlatformIdContract",
      "outputs": [
        {
          "internalType": "contract ITalentLayerPlatformID",
          "name": "",
          "type": "address"
        }
      ],
      "stateMutability": "view",
      "type": "function"
    },
    {
      "inputs": [
        {
          "internalType": "address",
          "name": "newOwner",
          "type": "address"
        }
      ],
      "name": "transferOwnership",
      "outputs": [],
      "stateMutability": "nonpayable",
      "type": "function"
    },
    {
      "inputs": [
        {
          "internalType": "address",
          "name": "_tokenAddress",
          "type": "address"
        },
        {
          "internalType": "bool",
          "name": "_status",
          "type": "bool"
        }
      ],
      "name": "updateAllowedTokenList",
      "outputs": [],
      "stateMutability": "nonpayable",
      "type": "function"
    },
    {
      "inputs": [
        {
          "internalType": "uint256",
          "name": "_profileId",
          "type": "uint256"
        },
        {
          "internalType": "uint256",
          "name": "_serviceId",
          "type": "uint256"
        },
        {
          "internalType": "address",
          "name": "_rateToken",
          "type": "address"
        },
        {
          "internalType": "uint256",
          "name": "_rateAmount",
          "type": "uint256"
        },
        {
          "internalType": "string",
          "name": "_dataUri",
          "type": "string"
        }
      ],
      "name": "updateProposal",
      "outputs": [],
      "stateMutability": "nonpayable",
      "type": "function"
    },
    {
      "inputs": [
        {
          "internalType": "uint256",
          "name": "_profileId",
          "type": "uint256"
        },
        {
          "internalType": "uint256",
          "name": "_serviceId",
          "type": "uint256"
        },
        {
          "internalType": "string",
          "name": "_dataUri",
          "type": "string"
        }
      ],
      "name": "updateServiceData",
      "outputs": [],
      "stateMutability": "nonpayable",
      "type": "function"
    },
    {
      "inputs": [
        {
          "internalType": "address",
          "name": "newImplementation",
          "type": "address"
        }
      ],
      "name": "upgradeTo",
      "outputs": [],
      "stateMutability": "nonpayable",
      "type": "function"
    },
    {
      "inputs": [
        {
          "internalType": "address",
          "name": "newImplementation",
          "type": "address"
        },
        {
          "internalType": "bytes",
          "name": "data",
          "type": "bytes"
        }
      ],
      "name": "upgradeToAndCall",
      "outputs": [],
      "stateMutability": "payable",
      "type": "function"
    }
  ],
  "bytecode": "0x60a0604052306080523480156200001557600080fd5b506200002062000026565b620000e8565b600054610100900460ff1615620000935760405162461bcd60e51b815260206004820152602760248201527f496e697469616c697a61626c653a20636f6e747261637420697320696e697469604482015266616c697a696e6760c81b606482015260840160405180910390fd5b60005460ff9081161015620000e6576000805460ff191660ff9081179091556040519081527f7f26b83ff96e1f2b6a682f133852f6798a09c465da95921460cefb38474024989060200160405180910390a15b565b6080516135786200012060003960008181610c2d01528181610c6d01528181610f1801528181610f580152610fe701526135786000f3fe6080604052600436106101f95760003560e01c8063715018a61161010d578063c22c4f43116100a0578063d547741f1161006f578063d547741f14610611578063ef0e239b14610631578063f2fde38b1461065e578063f6c53d9b1461067e578063f9eaee0d1461069557600080fd5b8063c22c4f431461057a578063c2cfee27146105ac578063c65b4d05146105de578063c9016774146105f157600080fd5b806391d14854116100dc57806391d14854146104f8578063a217fddf14610518578063a7d5eaea1461052d578063aba210091461054d57600080fd5b8063715018a61461048157806371da85f91461049657806386326246146104c75780638da5cb5b146104da57600080fd5b80633659cfe6116101905780634f1ef2861161015f5780634f1ef286146103cc57806352d1902d146103df578063572b6c05146103f457806363a352391461042d5780636ce76f301461044d57600080fd5b80633659cfe61461034c5780633751d89c1461036c578063485cc9551461038c57806349c6559c146103ac57600080fd5b8063248a9ca3116101cc578063248a9ca3146102ae57806326d00668146102ec5780632f2ff15d1461030c57806336568abe1461032c57600080fd5b806301ffc9a7146101fe578063089b7c73146102335780630e066025146102555780631499f9e614610275575b600080fd5b34801561020a57600080fd5b5061021e61021936600461298b565b6106cf565b60405190151581526020015b60405180910390f35b34801561023f57600080fd5b5061025361024e3660046129b5565b610706565b005b34801561026157600080fd5b50610253610270366004612a20565b6108eb565b34801561028157600080fd5b5061013054610296906001600160a01b031681565b6040516001600160a01b03909116815260200161022a565b3480156102ba57600080fd5b506102de6102c9366004612a73565b600090815260fc602052604090206001015490565b60405190815260200161022a565b3480156102f857600080fd5b50610253610307366004612aa8565b610b08565b34801561031857600080fd5b50610253610327366004612ac3565b610b6b565b34801561033857600080fd5b50610253610347366004612ac3565b610b95565b34801561035857600080fd5b50610253610367366004612aa8565b610c23565b34801561037857600080fd5b50610253610387366004612aa8565b610d02565b34801561039857600080fd5b506102536103a7366004612aef565b610d5b565b3480156103b857600080fd5b506102536103c7366004612a73565b610ec7565b6102536103da366004612b2f565b610f0e565b3480156103eb57600080fd5b506102de610fda565b34801561040057600080fd5b5061021e61040f366004612aa8565b6001600160a01b031660009081526065602052604090205460ff1690565b34801561043957600080fd5b50610253610448366004612bf1565b61108d565b34801561045957600080fd5b506102de7f2fdac322ee704ce09f0773f7f3f92eb98d5e7c836ee9c056cccd5f61041e5e3f81565b34801561048d57600080fd5b5061025361136e565b3480156104a257600080fd5b5061021e6104b1366004612aa8565b6101336020526000908152604090205460ff1681565b6102536104d5366004612c62565b611382565b3480156104e657600080fd5b506033546001600160a01b0316610296565b34801561050457600080fd5b5061021e610513366004612ac3565b61182f565b34801561052457600080fd5b506102de600081565b34801561053957600080fd5b50610253610548366004612ced565b61185a565b34801561055957600080fd5b5061056d6105683660046129b5565b6118d3565b60405161022a9190612d93565b34801561058657600080fd5b5061059a610595366004612a73565b611a3e565b60405161022a96959493929190612e0b565b3480156105b857600080fd5b506105cc6105c73660046129b5565b611b02565b60405161022a96959493929190612e4c565b6102de6105ec366004612a20565b611be2565b3480156105fd57600080fd5b5061025361060c366004612eaa565b611dfa565b34801561061d57600080fd5b5061025361062c366004612ac3565b611edb565b34801561063d57600080fd5b5061065161064c366004612a73565b611f00565b60405161022a9190612ee1565b34801561066a57600080fd5b50610253610679366004612aa8565b612094565b34801561068a57600080fd5b506102de61012e5481565b3480156106a157600080fd5b5061021e6106b0366004612aa8565b6001600160a01b03166000908152610133602052604090205460ff1690565b60006001600160e01b03198216637965db0b60e01b148061070057506301ffc9a760e01b6001600160e01b03198316145b92915050565b61012f5482906001600160a01b0316632fa117e58261072361210a565b6040516001600160e01b031960e085901b16815260048101929092526001600160a01b03166024820152604401602060405180830381865afa15801561076d573d6000803e3d6000fd5b505050506040513d601f19601f820116820180604052508101906107919190612f42565b6107b65760405162461bcd60e51b81526004016107ad90612f5f565b60405180910390fd5b600082815261013160205260409020600181015484146108265760405162461bcd60e51b815260206004820152602560248201527f4f6e6c7920746865206f776e65722063616e2063616e63656c20746865207365604482015264727669636560d81b60648201526084016107ad565b6004815460ff16600481111561083e5761083e612d19565b146108a75760405162461bcd60e51b815260206004820152603360248201527f4f6e6c79207365727669636573207769746820746865206f70656e20737461746044820152721d5cc818d85b8818994818d85b98d95b1b1959606a1b60648201526084016107ad565b805460ff191660031781556040518381527f853aa4be1ac86f37acfc91d42b57f1fe895205aa6f8f9b7caa77ca257049ab1a9060200160405180910390a150505050565b61012f5484906001600160a01b0316632fa117e58261090861210a565b6040516001600160e01b031960e085901b16815260048101929092526001600160a01b03166024820152604401602060405180830381865afa158015610952573d6000803e3d6000fd5b505050506040513d601f19601f820116820180604052508101906109769190612f42565b6109925760405162461bcd60e51b81526004016107ad90612f5f565b60008481526101316020526040902060018101548614610a025760405162461bcd60e51b815260206004820152602560248201527f4f6e6c7920746865206f776e65722063616e2075706461746520746865207365604482015264727669636560d81b60648201526084016107ad565b6004815460ff166004811115610a1a57610a1a612d19565b1480610a3b57506000815460ff166004811115610a3957610a39612d19565b145b610a995760405162461bcd60e51b815260206004820152602960248201527f53657276696365207374617475732073686f756c64206265206f70656e6564206044820152681bdc88199a5b1b195960ba1b60648201526084016107ad565b82610ab65760405162461bcd60e51b81526004016107ad90612f8e565b60038101610ac584868361304d565b50847f1cae99404f615a4039d85b1009cb70622aae6d64f671e8b1b191d9269847d43e8585604051610af8929190613137565b60405180910390a2505050505050565b610b10612119565b6001600160a01b038116600081815260656020908152604091829020805460ff1916600117905590519182527f3ef8564460ada92419608d823c014975d98f8104d7d1e68c222967ac6814cd9791015b60405180910390a150565b600082815260fc6020526040902060010154610b8681612192565b610b9083836121a3565b505050565b610b9d61210a565b6001600160a01b0316816001600160a01b031614610c155760405162461bcd60e51b815260206004820152602f60248201527f416363657373436f6e74726f6c3a2063616e206f6e6c792072656e6f756e636560448201526e103937b632b9903337b91039b2b63360891b60648201526084016107ad565b610c1f828261222a565b5050565b6001600160a01b037f0000000000000000000000000000000000000000000000000000000000000000163003610c6b5760405162461bcd60e51b81526004016107ad9061314b565b7f00000000000000000000000000000000000000000000000000000000000000006001600160a01b0316610cb46000805160206134fc833981519152546001600160a01b031690565b6001600160a01b031614610cda5760405162461bcd60e51b81526004016107ad90613197565b610ce3816122af565b60408051600080825260208201909252610cff918391906122b7565b50565b610d0a612119565b6001600160a01b038116600081815260656020908152604091829020805460ff1916905590519182527fd2d636efcad0cea42e170256f4c5d8b1cd81e47b855557edaf44014e6cc4cee69101610b60565b600054610100900460ff1615808015610d7b5750600054600160ff909116105b80610d955750303b158015610d95575060005460ff166001145b610df85760405162461bcd60e51b815260206004820152602e60248201527f496e697469616c697a61626c653a20636f6e747261637420697320616c72656160448201526d191e481a5b9a5d1a585b1a5e995960921b60648201526084016107ad565b6000805460ff191660011790558015610e1b576000805461ff0019166101001790555b610e23612422565b610e2b612451565b610e33612451565b610e456000610e4061210a565b612478565b61012f80546001600160a01b038086166001600160a01b031992831617909255610130805492851692909116919091179055600161012e558015610b90576000805461ff0019169055604051600181527f7f26b83ff96e1f2b6a682f133852f6798a09c465da95921460cefb38474024989060200160405180910390a1505050565b7f2fdac322ee704ce09f0773f7f3f92eb98d5e7c836ee9c056cccd5f61041e5e3f610ef181612192565b50600090815261013160205260409020805460ff19166002179055565b6001600160a01b037f0000000000000000000000000000000000000000000000000000000000000000163003610f565760405162461bcd60e51b81526004016107ad9061314b565b7f00000000000000000000000000000000000000000000000000000000000000006001600160a01b0316610f9f6000805160206134fc833981519152546001600160a01b031690565b6001600160a01b031614610fc55760405162461bcd60e51b81526004016107ad90613197565b610fce826122af565b610c1f828260016122b7565b6000306001600160a01b037f0000000000000000000000000000000000000000000000000000000000000000161461107a5760405162461bcd60e51b815260206004820152603860248201527f555550535570677261646561626c653a206d757374206e6f742062652063616c60448201527f6c6564207468726f7567682064656c656761746563616c6c000000000000000060648201526084016107ad565b506000805160206134fc83398151915290565b61012f5486906001600160a01b0316632fa117e5826110aa61210a565b6040516001600160e01b031960e085901b16815260048101929092526001600160a01b03166024820152604401602060405180830381865afa1580156110f4573d6000803e3d6000fd5b505050506040513d601f19601f820116820180604052508101906111189190612f42565b6111345760405162461bcd60e51b81526004016107ad90612f5f565b6001600160a01b0385166000908152610133602052604090205460ff166111995760405162461bcd60e51b8152602060048201526019602482015278151a1a5cc81d1bdad95b881a5cc81b9bdd08185b1b1bddd959603a1b60448201526064016107ad565b60008681526101316020908152604080832061013283528184208b85529092529091206004825460ff1660048111156111d4576111d4612d19565b146112195760405162461bcd60e51b815260206004820152601560248201527414d95c9d9a58d9481a5cc81b9bdd081bdc195b9959605a1b60448201526064016107ad565b8881600101541461126c5760405162461bcd60e51b815260206004820152601f60248201527f546869732070726f706f73616c20646f65736e2774206578697374207965740060448201526064016107ad565b836112895760405162461bcd60e51b81526004016107ad90612f8e565b6001815460ff1660018111156112a1576112a1612d19565b036112ee5760405162461bcd60e51b815260206004820181905260248201527f546869732070726f706f73616c20697320616c7265616479207570646174656460448201526064016107ad565b6002810180546001600160a01b0319166001600160a01b038916179055600381018690556005810161132185878361304d565b507f5cf385c7cf3e1609443b09191511540e030254887cccb510dfface4c041b6c55888a87878b8b60405161135b969594939291906131e3565b60405180910390a1505050505050505050565b611376612119565b6113806000612482565b565b61012f5487906001600160a01b0316632fa117e58261139f61210a565b6040516001600160e01b031960e085901b16815260048101929092526001600160a01b03166024820152604401602060405180830381865afa1580156113e9573d6000803e3d6000fd5b505050506040513d601f19601f8201168201806040525081019061140d9190612f42565b6114295760405162461bcd60e51b81526004016107ad90612f5f565b6001600160a01b0386166000908152610133602052604090205460ff1661148e5760405162461bcd60e51b8152602060048201526019602482015278151a1a5cc81d1bdad95b881a5cc81b9bdd08185b1b1bddd959603a1b60448201526064016107ad565b61013054604051634a7ab1d560e01b815261ffff861660048201526000916001600160a01b031690634a7ab1d590602401602060405180830381865afa1580156114dc573d6000803e3d6000fd5b505050506040513d601f19601f820116820180604052508101906115009190613221565b90508034146115465760405162461bcd60e51b81526020600482015260126024820152714e6f6e2d6d61746368696e672066756e647360701b60448201526064016107ad565b6000888152610131602052604090206004815460ff16600481111561156d5761156d612d19565b146115b25760405162461bcd60e51b815260206004820152601560248201527414d95c9d9a58d9481a5cc81b9bdd081bdc195b9959605a1b60448201526064016107ad565b6000898152610132602090815260408083208d84529091529020600101548a90036116375760405162461bcd60e51b815260206004820152602f60248201527f596f7520616c7265616479206372656174656420612070726f706f73616c206660448201526e6f722074686973207365727669636560881b60648201526084016107ad565b898160010154036116a45760405162461bcd60e51b815260206004820152603160248201527f596f7520636f756c646e2774206372656174652070726f706f73616c20666f7260448201527020796f7572206f776e207365727669636560781b60648201526084016107ad565b836116c15760405162461bcd60e51b81526004016107ad90612f8e565b6040805160c0810190915280600081526020018b8152602001896001600160a01b031681526020018881526020018761ffff16815260200186868080601f01602080910402602001604051908101604052809392919081815260200183838082843760009201829052509390945250508b8152610132602090815260408083208f845290915290208251815491925090829060ff19166001838181111561176a5761176a612d19565b02179055506020820151600182015560408201516002820180546001600160a01b0319166001600160a01b0390921691909117905560608201516003820155608082015160048201805461ffff191661ffff90921691909117905560a082015160058201906117d9908261323a565b509050507fdc1ab3200caf17076f60a9fbf22ea5814644850fbb7be85a4c19f23bcdaa6937898b878760008d8d8d60405161181b9897969594939291906132fa565b60405180910390a150505050505050505050565b600091825260fc602090815260408084206001600160a01b0393909316845291905290205460ff1690565b7f2fdac322ee704ce09f0773f7f3f92eb98d5e7c836ee9c056cccd5f61041e5e3f61188481612192565b506000928352610131602090815260408085206101328352818620948652939091529092208154600160ff19918216811784558083015460028501556004909301939093558054909216179055565b61191a6040805160c0810190915280600081526020016000815260200160006001600160a01b0316815260200160008152602001600061ffff168152602001606081525090565b60008381526101326020908152604080832085845290915290819020815160c081019092528054829060ff16600181111561195757611957612d19565b600181111561196857611968612d19565b81526001820154602082015260028201546001600160a01b0316604082015260038201546060820152600482015461ffff16608082015260058201805460a0909201916119b490612fc5565b80601f01602080910402602001604051908101604052809291908181526020018280546119e090612fc5565b8015611a2d5780601f10611a0257610100808354040283529160200191611a2d565b820191906000526020600020905b815481529060010190602001808311611a1057829003601f168201915b505050505081525050905092915050565b61013160205260009081526040902080546001820154600283015460038401805460ff909416949293919291611a7390612fc5565b80601f0160208091040260200160405190810160405280929190818152602001828054611a9f90612fc5565b8015611aec5780601f10611ac157610100808354040283529160200191611aec565b820191906000526020600020905b815481529060010190602001808311611acf57829003601f168201915b5050505050908060040154908060050154905086565b61013260209081526000928352604080842090915290825290208054600182015460028301546003840154600485015460058601805460ff9096169694956001600160a01b0390941694929361ffff9092169291611b5f90612fc5565b80601f0160208091040260200160405190810160405280929190818152602001828054611b8b90612fc5565b8015611bd85780601f10611bad57610100808354040283529160200191611bd8565b820191906000526020600020905b815481529060010190602001808311611bbb57829003601f168201915b5050505050905086565b61012f5460009085906001600160a01b0316632fa117e582611c0261210a565b6040516001600160e01b031960e085901b16815260048101929092526001600160a01b03166024820152604401602060405180830381865afa158015611c4c573d6000803e3d6000fd5b505050506040513d601f19601f82011682018060405250810190611c709190612f42565b611c8c5760405162461bcd60e51b81526004016107ad90612f5f565b61013054604051638a98636360e01b8152600481018790526000916001600160a01b031690638a98636390602401602060405180830381865afa158015611cd7573d6000803e3d6000fd5b505050506040513d601f19601f82011682018060405250810190611cfb9190613221565b9050803414611d415760405162461bcd60e51b81526020600482015260126024820152714e6f6e2d6d61746368696e672066756e647360701b60448201526064016107ad565b83611d5e5760405162461bcd60e51b81526004016107ad90612f8e565b61012e80549081906000611d718361336b565b9091555050600081815261013160205260409020805460ff191660041781556001810189905560038101611da687898361304d565b50600581018890556040517f8f3fc1086abc1020f602edd700a9ae5801b250c9d110af9e54022d7cc5df7bee90611de69084908c908c908c908c90613384565b60405180910390a150979650505050505050565b611e02612119565b6001600160a01b038216158015611e1857508015155b80611e2b57506001600160a01b03821615155b611e775760405162461bcd60e51b815260206004820152601d60248201527f4f776e65722063616e27742072656d6f7665204f78206164647265737300000060448201526064016107ad565b6001600160a01b03821660008181526101336020908152604091829020805460ff19168515159081179091558251938452908301527fd138accc17a5df6552bf13624802a01fc56a160f1e6e6247743ccd07ed99a7c9910160405180910390a15050565b600082815260fc6020526040902060010154611ef681612192565b610b90838361222a565b611f3a6040805160c08101909152806000815260200160008152602001600081526020016060815260200160008152602001600081525090565b61012e548210611f8c5760405162461bcd60e51b815260206004820152601a60248201527f54686973207365727669636520646f65736e277420657869737400000000000060448201526064016107ad565b6000828152610131602052604090819020815160c081019092528054829060ff166004811115611fbe57611fbe612d19565b6004811115611fcf57611fcf612d19565b81526020016001820154815260200160028201548152602001600382018054611ff790612fc5565b80601f016020809104026020016040519081016040528092919081815260200182805461202390612fc5565b80156120705780601f1061204557610100808354040283529160200191612070565b820191906000526020600020905b81548152906001019060200180831161205357829003601f168201915b50505050508152602001600482015481526020016005820154815250509050919050565b61209c612119565b6001600160a01b0381166121015760405162461bcd60e51b815260206004820152602660248201527f4f776e61626c653a206e6577206f776e657220697320746865207a65726f206160448201526564647265737360d01b60648201526084016107ad565b610cff81612482565b60006121146124d4565b905090565b61212161210a565b6001600160a01b031661213c6033546001600160a01b031690565b6001600160a01b0316146113805760405162461bcd60e51b815260206004820181905260248201527f4f776e61626c653a2063616c6c6572206973206e6f7420746865206f776e657260448201526064016107ad565b610cff8161219e61210a565b61250d565b6121ad828261182f565b610c1f57600082815260fc602090815260408083206001600160a01b03851684529091529020805460ff191660011790556121e661210a565b6001600160a01b0316816001600160a01b0316837f2f8788117e7eff1d82e926ec794901d17c78024a50270940304540a733656f0d60405160405180910390a45050565b612234828261182f565b15610c1f57600082815260fc602090815260408083206001600160a01b03851684529091529020805460ff1916905561226b61210a565b6001600160a01b0316816001600160a01b0316837ff6391f5c32d9c69d2a47ea670b442974b53935d1edc7fd64eb21e047a839171b60405160405180910390a45050565b610cff612119565b7f4910fdfa16fed3260ed0e7147f7cc6da11a60208b5b9406d12a635614ffd91435460ff16156122ea57610b9083612566565b826001600160a01b03166352d1902d6040518163ffffffff1660e01b8152600401602060405180830381865afa925050508015612344575060408051601f3d908101601f1916820190925261234191810190613221565b60015b6123a75760405162461bcd60e51b815260206004820152602e60248201527f45524331393637557067726164653a206e657720696d706c656d656e7461746960448201526d6f6e206973206e6f74205555505360901b60648201526084016107ad565b6000805160206134fc83398151915281146124165760405162461bcd60e51b815260206004820152602960248201527f45524331393637557067726164653a20756e737570706f727465642070726f786044820152681a58589b195555525160ba1b60648201526084016107ad565b50610b90838383612602565b600054610100900460ff166124495760405162461bcd60e51b81526004016107ad906133b5565b61138061262d565b600054610100900460ff166113805760405162461bcd60e51b81526004016107ad906133b5565b610c1f82826121a3565b603380546001600160a01b038381166001600160a01b0319831681179093556040519116919082907f8be0079c531659141344cd1fd0a4f28419497f9722a3daafe3b4186f6b6457e090600090a35050565b6000601436108015906124f657503360009081526065602052604090205460ff165b15612508575060131936013560601c90565b503390565b612517828261182f565b610c1f5761252481612664565b61252f836020612676565b604051602001612540929190613400565b60408051601f198184030181529082905262461bcd60e51b82526107ad91600401613475565b6001600160a01b0381163b6125d35760405162461bcd60e51b815260206004820152602d60248201527f455243313936373a206e657720696d706c656d656e746174696f6e206973206e60448201526c1bdd08184818dbdb9d1c9858dd609a1b60648201526084016107ad565b6000805160206134fc83398151915280546001600160a01b0319166001600160a01b0392909216919091179055565b61260b83612819565b6000825111806126185750805b15610b90576126278383612859565b50505050565b600054610100900460ff166126545760405162461bcd60e51b81526004016107ad906133b5565b61138061265f61210a565b612482565b60606107006001600160a01b03831660145b60606000612685836002613488565b61269090600261349f565b67ffffffffffffffff8111156126a8576126a8612b19565b6040519080825280601f01601f1916602001820160405280156126d2576020820181803683370190505b509050600360fc1b816000815181106126ed576126ed6134b2565b60200101906001600160f81b031916908160001a905350600f60fb1b8160018151811061271c5761271c6134b2565b60200101906001600160f81b031916908160001a9053506000612740846002613488565b61274b90600161349f565b90505b60018111156127c3576f181899199a1a9b1b9c1cb0b131b232b360811b85600f166010811061277f5761277f6134b2565b1a60f81b828281518110612795576127956134b2565b60200101906001600160f81b031916908160001a90535060049490941c936127bc816134c8565b905061274e565b5083156128125760405162461bcd60e51b815260206004820181905260248201527f537472696e67733a20686578206c656e67746820696e73756666696369656e7460448201526064016107ad565b9392505050565b61282281612566565b6040516001600160a01b038216907fbc7cd75a20ee27fd9adebab32041f755214dbc6bffa90cc0225b39da2e5c2d3b90600090a250565b60606001600160a01b0383163b6128c15760405162461bcd60e51b815260206004820152602660248201527f416464726573733a2064656c65676174652063616c6c20746f206e6f6e2d636f6044820152651b9d1c9858dd60d21b60648201526084016107ad565b600080846001600160a01b0316846040516128dc91906134df565b600060405180830381855af49150503d8060008114612917576040519150601f19603f3d011682016040523d82523d6000602084013e61291c565b606091505b5091509150612944828260405180606001604052806027815260200161351c6027913961294d565b95945050505050565b6060831561295c575081612812565b61281283838151156129715781518083602001fd5b8060405162461bcd60e51b81526004016107ad9190613475565b60006020828403121561299d57600080fd5b81356001600160e01b03198116811461281257600080fd5b600080604083850312156129c857600080fd5b50508035926020909101359150565b60008083601f8401126129e957600080fd5b50813567ffffffffffffffff811115612a0157600080fd5b602083019150836020828501011115612a1957600080fd5b9250929050565b60008060008060608587031215612a3657600080fd5b8435935060208501359250604085013567ffffffffffffffff811115612a5b57600080fd5b612a67878288016129d7565b95989497509550505050565b600060208284031215612a8557600080fd5b5035919050565b80356001600160a01b0381168114612aa357600080fd5b919050565b600060208284031215612aba57600080fd5b61281282612a8c565b60008060408385031215612ad657600080fd5b82359150612ae660208401612a8c565b90509250929050565b60008060408385031215612b0257600080fd5b612b0b83612a8c565b9150612ae660208401612a8c565b634e487b7160e01b600052604160045260246000fd5b60008060408385031215612b4257600080fd5b612b4b83612a8c565b9150602083013567ffffffffffffffff80821115612b6857600080fd5b818501915085601f830112612b7c57600080fd5b813581811115612b8e57612b8e612b19565b604051601f8201601f19908116603f01168101908382118183101715612bb657612bb6612b19565b81604052828152886020848701011115612bcf57600080fd5b8260208601602083013760006020848301015280955050505050509250929050565b60008060008060008060a08789031215612c0a57600080fd5b8635955060208701359450612c2160408801612a8c565b935060608701359250608087013567ffffffffffffffff811115612c4457600080fd5b612c5089828a016129d7565b979a9699509497509295939492505050565b600080600080600080600060c0888a031215612c7d57600080fd5b8735965060208801359550612c9460408901612a8c565b945060608801359350608088013561ffff81168114612cb257600080fd5b925060a088013567ffffffffffffffff811115612cce57600080fd5b612cda8a828b016129d7565b989b979a50959850939692959293505050565b600080600060608486031215612d0257600080fd5b505081359360208301359350604090920135919050565b634e487b7160e01b600052602160045260246000fd5b60028110612d3f57612d3f612d19565b9052565b60005b83811015612d5e578181015183820152602001612d46565b50506000910152565b60008151808452612d7f816020860160208601612d43565b601f01601f19169290920160200192915050565b60208152612da5602082018351612d2f565b6020820151604082015260018060a01b0360408301511660608201526060820151608082015261ffff60808301511660a0820152600060a083015160c080840152612df360e0840182612d67565b949350505050565b60058110612d3f57612d3f612d19565b612e158188612dfb565b85602082015284604082015260c060608201526000612e3760c0830186612d67565b60808301949094525060a00152949350505050565b612e568188612d2f565b85602082015260018060a01b038516604082015283606082015261ffff8316608082015260c060a08201526000612e9060c0830184612d67565b98975050505050505050565b8015158114610cff57600080fd5b60008060408385031215612ebd57600080fd5b612ec683612a8c565b91506020830135612ed681612e9c565b809150509250929050565b60208152612ef3602082018351612dfb565b60208201516040820152604082015160608201526000606083015160c06080840152612f2260e0840182612d67565b9050608084015160a084015260a084015160c08401528091505092915050565b600060208284031215612f5457600080fd5b815161281281612e9c565b6020808252601590820152744e6f74206f776e6572206f722064656c656761746560581b604082015260600190565b6020808252601f908201527f53686f756c642070726f7669646520612076616c696420495046532055524900604082015260600190565b600181811c90821680612fd957607f821691505b602082108103612ff957634e487b7160e01b600052602260045260246000fd5b50919050565b601f821115610b9057600081815260208120601f850160051c810160208610156130265750805b601f850160051c820191505b8181101561304557828155600101613032565b505050505050565b67ffffffffffffffff83111561306557613065612b19565b613079836130738354612fc5565b83612fff565b6000601f8411600181146130ad57600085156130955750838201355b600019600387901b1c1916600186901b178355613107565b600083815260209020601f19861690835b828110156130de57868501358255602094850194600190920191016130be565b50868210156130fb5760001960f88860031b161c19848701351681555b505060018560011b0183555b5050505050565b81835281816020850137506000828201602090810191909152601f909101601f19169091010190565b602081526000612df360208301848661310e565b6020808252602c908201527f46756e6374696f6e206d7573742062652063616c6c6564207468726f7567682060408201526b19195b1959d85d1958d85b1b60a21b606082015260800190565b6020808252602c908201527f46756e6374696f6e206d7573742062652063616c6c6564207468726f7567682060408201526b6163746976652070726f787960a01b606082015260800190565b86815285602082015260a06040820152600061320360a08301868861310e565b6001600160a01b039490941660608301525060800152949350505050565b60006020828403121561323357600080fd5b5051919050565b815167ffffffffffffffff81111561325457613254612b19565b613268816132628454612fc5565b84612fff565b602080601f83116001811461329d57600084156132855750858301515b600019600386901b1c1916600185901b178555613045565b600085815260208120601f198616915b828110156132cc578886015182559484019460019091019084016132ad565b50858210156132ea5787850151600019600388901b60f8161c191681555b5050505050600190811b01905550565b88815287602082015260e06040820152600061331a60e08301888a61310e565b90506133296060830187612d2f565b6001600160a01b0394909416608082015260a081019290925261ffff1660c09091015295945050505050565b634e487b7160e01b600052601160045260246000fd5b60006001820161337d5761337d613355565b5060010190565b8581528460208201528360408201526080606082015260006133aa60808301848661310e565b979650505050505050565b6020808252602b908201527f496e697469616c697a61626c653a20636f6e7472616374206973206e6f74206960408201526a6e697469616c697a696e6760a81b606082015260800190565b7f416363657373436f6e74726f6c3a206163636f756e7420000000000000000000815260008351613438816017850160208801612d43565b7001034b99036b4b9b9b4b733903937b6329607d1b6017918401918201528351613469816028840160208801612d43565b01602801949350505050565b6020815260006128126020830184612d67565b808202811582820484141761070057610700613355565b8082018082111561070057610700613355565b634e487b7160e01b600052603260045260246000fd5b6000816134d7576134d7613355565b506000190190565b600082516134f1818460208701612d43565b919091019291505056fe360894a13ba1a3210667c828492db98dca3e2076cc3735a920a3ca505d382bbc416464726573733a206c6f772d6c6576656c2064656c65676174652063616c6c206661696c6564a26469706673582212208937aba8d075b5d020d90d5d4854e894158d4815c2739793d94e2a06ccdddc0d64736f6c63430008110033",
  "linkReferences": {},
  "deployedLinkReferences": {}
}