{
  "_format": "hh-sol-artifact-1",
  "contractName": "ServiceRegistry",
  "sourceName": "contracts/ServiceRegistry.sol",
  "abi": [
    {
      "inputs": [],
      "stateMutability": "nonpayable",
      "type": "constructor"
    },
    {
      "anonymous": false,
      "inputs": [
        {
          "indexed": false,
          "internalType": "address",
          "name": "previousAdmin",
          "type": "address"
        },
        {
          "indexed": false,
          "internalType": "address",
          "name": "newAdmin",
          "type": "address"
        }
      ],
      "name": "AdminChanged",
      "type": "event"
    },
    {
      "anonymous": false,
      "inputs": [
        {
          "indexed": true,
          "internalType": "address",
          "name": "beacon",
          "type": "address"
        }
      ],
      "name": "BeaconUpgraded",
      "type": "event"
    },
    {
      "anonymous": false,
      "inputs": [
        {
          "indexed": false,
          "internalType": "uint8",
          "name": "version",
          "type": "uint8"
        }
      ],
      "name": "Initialized",
      "type": "event"
    },
    {
      "anonymous": false,
      "inputs": [
        {
          "indexed": true,
          "internalType": "address",
          "name": "previousOwner",
          "type": "address"
        },
        {
          "indexed": true,
          "internalType": "address",
          "name": "newOwner",
          "type": "address"
        }
      ],
      "name": "OwnershipTransferred",
      "type": "event"
    },
    {
      "anonymous": false,
      "inputs": [
        {
          "indexed": false,
          "internalType": "uint256",
          "name": "serviceId",
          "type": "uint256"
        },
        {
          "indexed": false,
          "internalType": "uint256",
          "name": "sellerId",
          "type": "uint256"
        },
        {
          "indexed": false,
          "internalType": "string",
          "name": "proposalDataUri",
          "type": "string"
        },
        {
          "indexed": false,
          "internalType": "enum ServiceRegistry.ProposalStatus",
          "name": "status",
          "type": "uint8"
        },
        {
          "indexed": false,
          "internalType": "address",
          "name": "rateToken",
          "type": "address"
        },
        {
          "indexed": false,
          "internalType": "uint256",
          "name": "rateAmount",
          "type": "uint256"
        },
        {
          "indexed": false,
          "internalType": "uint16",
          "name": "originProposalCreationPlatformId",
          "type": "uint16"
        }
      ],
      "name": "ProposalCreated",
      "type": "event"
    },
    {
      "anonymous": false,
      "inputs": [
        {
          "indexed": false,
          "internalType": "uint256",
          "name": "serviceId",
          "type": "uint256"
        },
        {
          "indexed": false,
          "internalType": "uint256",
          "name": "sellerId",
          "type": "uint256"
        }
      ],
      "name": "ProposalRejected",
      "type": "event"
    },
    {
      "anonymous": false,
      "inputs": [
        {
          "indexed": false,
          "internalType": "uint256",
          "name": "serviceId",
          "type": "uint256"
        },
        {
          "indexed": false,
          "internalType": "uint256",
          "name": "sellerId",
          "type": "uint256"
        },
        {
          "indexed": false,
          "internalType": "string",
          "name": "proposalDataUri",
          "type": "string"
        },
        {
          "indexed": false,
          "internalType": "address",
          "name": "rateToken",
          "type": "address"
        },
        {
          "indexed": false,
          "internalType": "uint256",
          "name": "rateAmount",
          "type": "uint256"
        }
      ],
      "name": "ProposalUpdated",
      "type": "event"
    },
    {
      "anonymous": false,
      "inputs": [
        {
          "indexed": false,
          "internalType": "uint256",
          "name": "serviceId",
          "type": "uint256"
        },
        {
          "indexed": false,
          "internalType": "uint256",
          "name": "sellerId",
          "type": "uint256"
        }
      ],
      "name": "ProposalValidated",
      "type": "event"
    },
    {
      "anonymous": false,
      "inputs": [
        {
          "indexed": true,
          "internalType": "bytes32",
          "name": "role",
          "type": "bytes32"
        },
        {
          "indexed": true,
          "internalType": "bytes32",
          "name": "previousAdminRole",
          "type": "bytes32"
        },
        {
          "indexed": true,
          "internalType": "bytes32",
          "name": "newAdminRole",
          "type": "bytes32"
        }
      ],
      "name": "RoleAdminChanged",
      "type": "event"
    },
    {
      "anonymous": false,
      "inputs": [
        {
          "indexed": true,
          "internalType": "bytes32",
          "name": "role",
          "type": "bytes32"
        },
        {
          "indexed": true,
          "internalType": "address",
          "name": "account",
          "type": "address"
        },
        {
          "indexed": true,
          "internalType": "address",
          "name": "sender",
          "type": "address"
        }
      ],
      "name": "RoleGranted",
      "type": "event"
    },
    {
      "anonymous": false,
      "inputs": [
        {
          "indexed": true,
          "internalType": "bytes32",
          "name": "role",
          "type": "bytes32"
        },
        {
          "indexed": true,
          "internalType": "address",
          "name": "account",
          "type": "address"
        },
        {
          "indexed": true,
          "internalType": "address",
          "name": "sender",
          "type": "address"
        }
      ],
      "name": "RoleRevoked",
      "type": "event"
    },
    {
      "anonymous": false,
      "inputs": [
        {
          "indexed": false,
          "internalType": "uint256",
          "name": "id",
          "type": "uint256"
        },
        {
          "indexed": false,
          "internalType": "uint256",
          "name": "buyerId",
          "type": "uint256"
        },
        {
          "indexed": false,
          "internalType": "uint256",
          "name": "sellerId",
          "type": "uint256"
        },
        {
          "indexed": false,
          "internalType": "uint256",
          "name": "initiatorId",
          "type": "uint256"
        },
        {
          "indexed": false,
          "internalType": "uint256",
          "name": "platformId",
          "type": "uint256"
        }
      ],
      "name": "ServiceCreated",
      "type": "event"
    },
    {
      "anonymous": false,
      "inputs": [
        {
          "indexed": false,
          "internalType": "uint256",
          "name": "id",
          "type": "uint256"
        },
        {
          "indexed": false,
          "internalType": "string",
          "name": "serviceDataUri",
          "type": "string"
        }
      ],
      "name": "ServiceDataCreated",
      "type": "event"
    },
    {
      "anonymous": false,
      "inputs": [
        {
          "indexed": true,
          "internalType": "uint256",
          "name": "id",
          "type": "uint256"
        },
        {
          "indexed": false,
          "internalType": "string",
          "name": "newServiceDataUri",
          "type": "string"
        }
      ],
      "name": "ServiceDetailedUpdated",
      "type": "event"
    },
    {
      "anonymous": false,
      "inputs": [
        {
          "indexed": true,
          "internalType": "address",
          "name": "implementation",
          "type": "address"
        }
      ],
      "name": "Upgraded",
      "type": "event"
    },
    {
      "inputs": [],
      "name": "DEFAULT_ADMIN_ROLE",
      "outputs": [
        {
          "internalType": "bytes32",
          "name": "",
          "type": "bytes32"
        }
      ],
      "stateMutability": "view",
      "type": "function"
    },
    {
      "inputs": [],
      "name": "ESCROW_ROLE",
      "outputs": [
        {
          "internalType": "bytes32",
          "name": "",
          "type": "bytes32"
        }
      ],
      "stateMutability": "view",
      "type": "function"
    },
    {
      "inputs": [
        {
          "internalType": "uint256",
          "name": "_serviceId",
          "type": "uint256"
        },
        {
          "internalType": "uint256",
          "name": "_proposalId",
          "type": "uint256"
        },
        {
          "internalType": "uint256",
          "name": "_transactionId",
          "type": "uint256"
        }
      ],
      "name": "afterDeposit",
      "outputs": [],
      "stateMutability": "nonpayable",
      "type": "function"
    },
    {
      "inputs": [
        {
          "internalType": "uint256",
          "name": "_serviceId",
          "type": "uint256"
        }
      ],
      "name": "afterFullPayment",
      "outputs": [],
      "stateMutability": "nonpayable",
      "type": "function"
    },
    {
      "inputs": [
        {
          "internalType": "uint256",
          "name": "_platformId",
          "type": "uint256"
        },
        {
          "internalType": "string",
          "name": "_serviceDataUri",
          "type": "string"
        }
      ],
      "name": "createOpenServiceFromBuyer",
      "outputs": [
        {
          "internalType": "uint256",
          "name": "",
          "type": "uint256"
        }
      ],
      "stateMutability": "nonpayable",
      "type": "function"
    },
    {
      "inputs": [
        {
          "internalType": "uint256",
          "name": "_serviceId",
          "type": "uint256"
        },
        {
          "internalType": "address",
          "name": "_rateToken",
          "type": "address"
        },
        {
          "internalType": "uint256",
          "name": "_rateAmount",
          "type": "uint256"
        },
        {
          "internalType": "uint16",
          "name": "_originProposalCreationPlatformId",
          "type": "uint16"
        },
        {
          "internalType": "string",
          "name": "_proposalDataUri",
          "type": "string"
        }
      ],
      "name": "createProposal",
      "outputs": [],
      "stateMutability": "nonpayable",
      "type": "function"
    },
    {
      "inputs": [
        {
          "internalType": "uint256",
          "name": "_serviceId",
          "type": "uint256"
        },
        {
          "internalType": "uint256",
          "name": "_proposalId",
          "type": "uint256"
        }
      ],
      "name": "getProposal",
      "outputs": [
        {
          "components": [
            {
              "internalType": "enum ServiceRegistry.ProposalStatus",
              "name": "status",
              "type": "uint8"
            },
            {
              "internalType": "uint256",
              "name": "sellerId",
              "type": "uint256"
            },
            {
              "internalType": "address",
              "name": "rateToken",
              "type": "address"
            },
            {
              "internalType": "uint256",
              "name": "rateAmount",
              "type": "uint256"
            },
            {
              "internalType": "uint16",
              "name": "originProposalCreationPlatformId",
              "type": "uint16"
            },
            {
              "internalType": "string",
              "name": "proposalDataUri",
              "type": "string"
            }
          ],
          "internalType": "struct ServiceRegistry.Proposal",
          "name": "",
          "type": "tuple"
        }
      ],
      "stateMutability": "view",
      "type": "function"
    },
    {
      "inputs": [
        {
          "internalType": "bytes32",
          "name": "role",
          "type": "bytes32"
        }
      ],
      "name": "getRoleAdmin",
      "outputs": [
        {
          "internalType": "bytes32",
          "name": "",
          "type": "bytes32"
        }
      ],
      "stateMutability": "view",
      "type": "function"
    },
    {
      "inputs": [
        {
          "internalType": "uint256",
          "name": "_serviceId",
          "type": "uint256"
        }
      ],
      "name": "getService",
      "outputs": [
        {
          "components": [
            {
              "internalType": "enum ServiceRegistry.Status",
              "name": "status",
              "type": "uint8"
            },
            {
              "internalType": "uint256",
              "name": "buyerId",
              "type": "uint256"
            },
            {
              "internalType": "uint256",
              "name": "sellerId",
              "type": "uint256"
            },
            {
              "internalType": "uint256",
              "name": "initiatorId",
              "type": "uint256"
            },
            {
              "internalType": "string",
              "name": "serviceDataUri",
              "type": "string"
            },
            {
              "internalType": "uint256",
              "name": "countProposals",
              "type": "uint256"
            },
            {
              "internalType": "uint256",
              "name": "transactionId",
              "type": "uint256"
            },
            {
              "internalType": "uint256",
              "name": "originServiceCreationPlatformId",
              "type": "uint256"
            }
          ],
          "internalType": "struct ServiceRegistry.Service",
          "name": "",
          "type": "tuple"
        }
      ],
      "stateMutability": "view",
      "type": "function"
    },
    {
      "inputs": [
        {
          "internalType": "bytes32",
          "name": "role",
          "type": "bytes32"
        },
        {
          "internalType": "address",
          "name": "account",
          "type": "address"
        }
      ],
      "name": "grantRole",
      "outputs": [],
      "stateMutability": "nonpayable",
      "type": "function"
    },
    {
      "inputs": [
        {
          "internalType": "bytes32",
          "name": "role",
          "type": "bytes32"
        },
        {
          "internalType": "address",
          "name": "account",
          "type": "address"
        }
      ],
      "name": "hasRole",
      "outputs": [
        {
          "internalType": "bool",
          "name": "",
          "type": "bool"
        }
      ],
      "stateMutability": "view",
      "type": "function"
    },
    {
      "inputs": [
        {
          "internalType": "address",
          "name": "_talentLayerIdAddress",
          "type": "address"
        },
        {
          "internalType": "address",
          "name": "_talentLayerPlatformIdAddress",
          "type": "address"
        }
      ],
      "name": "initialize",
      "outputs": [],
      "stateMutability": "nonpayable",
      "type": "function"
    },
    {
      "inputs": [],
      "name": "nextServiceId",
      "outputs": [
        {
          "internalType": "uint256",
          "name": "",
          "type": "uint256"
        }
      ],
      "stateMutability": "view",
      "type": "function"
    },
    {
      "inputs": [],
      "name": "owner",
      "outputs": [
        {
          "internalType": "address",
          "name": "",
          "type": "address"
        }
      ],
      "stateMutability": "view",
      "type": "function"
    },
    {
      "inputs": [
        {
          "internalType": "uint256",
          "name": "",
          "type": "uint256"
        },
        {
          "internalType": "uint256",
          "name": "",
          "type": "uint256"
        }
      ],
      "name": "proposals",
      "outputs": [
        {
          "internalType": "enum ServiceRegistry.ProposalStatus",
          "name": "status",
          "type": "uint8"
        },
        {
          "internalType": "uint256",
          "name": "sellerId",
          "type": "uint256"
        },
        {
          "internalType": "address",
          "name": "rateToken",
          "type": "address"
        },
        {
          "internalType": "uint256",
          "name": "rateAmount",
          "type": "uint256"
        },
        {
          "internalType": "uint16",
          "name": "originProposalCreationPlatformId",
          "type": "uint16"
        },
        {
          "internalType": "string",
          "name": "proposalDataUri",
          "type": "string"
        }
      ],
      "stateMutability": "view",
      "type": "function"
    },
    {
      "inputs": [],
      "name": "proxiableUUID",
      "outputs": [
        {
          "internalType": "bytes32",
          "name": "",
          "type": "bytes32"
        }
      ],
      "stateMutability": "view",
      "type": "function"
    },
    {
      "inputs": [
        {
          "internalType": "uint256",
          "name": "_serviceId",
          "type": "uint256"
        },
        {
          "internalType": "uint256",
          "name": "_proposalId",
          "type": "uint256"
        }
      ],
      "name": "rejectProposal",
      "outputs": [],
      "stateMutability": "nonpayable",
      "type": "function"
    },
    {
      "inputs": [],
      "name": "renounceOwnership",
      "outputs": [],
      "stateMutability": "nonpayable",
      "type": "function"
    },
    {
      "inputs": [
        {
          "internalType": "bytes32",
          "name": "role",
          "type": "bytes32"
        },
        {
          "internalType": "address",
          "name": "account",
          "type": "address"
        }
      ],
      "name": "renounceRole",
      "outputs": [],
      "stateMutability": "nonpayable",
      "type": "function"
    },
    {
      "inputs": [
        {
          "internalType": "bytes32",
          "name": "role",
          "type": "bytes32"
        },
        {
          "internalType": "address",
          "name": "account",
          "type": "address"
        }
      ],
      "name": "revokeRole",
      "outputs": [],
      "stateMutability": "nonpayable",
      "type": "function"
    },
    {
      "inputs": [
        {
          "internalType": "uint256",
          "name": "",
          "type": "uint256"
        }
      ],
      "name": "services",
      "outputs": [
        {
          "internalType": "enum ServiceRegistry.Status",
          "name": "status",
          "type": "uint8"
        },
        {
          "internalType": "uint256",
          "name": "buyerId",
          "type": "uint256"
        },
        {
          "internalType": "uint256",
          "name": "sellerId",
          "type": "uint256"
        },
        {
          "internalType": "uint256",
          "name": "initiatorId",
          "type": "uint256"
        },
        {
          "internalType": "string",
          "name": "serviceDataUri",
          "type": "string"
        },
        {
          "internalType": "uint256",
          "name": "countProposals",
          "type": "uint256"
        },
        {
          "internalType": "uint256",
          "name": "transactionId",
          "type": "uint256"
        },
        {
          "internalType": "uint256",
          "name": "originServiceCreationPlatformId",
          "type": "uint256"
        }
      ],
      "stateMutability": "view",
      "type": "function"
    },
    {
      "inputs": [
        {
          "internalType": "bytes4",
          "name": "interfaceId",
          "type": "bytes4"
        }
      ],
      "name": "supportsInterface",
      "outputs": [
        {
          "internalType": "bool",
          "name": "",
          "type": "bool"
        }
      ],
      "stateMutability": "view",
      "type": "function"
    },
    {
      "inputs": [],
      "name": "talentLayerPlatformIdContract",
      "outputs": [
        {
          "internalType": "contract ITalentLayerPlatformID",
          "name": "",
          "type": "address"
        }
      ],
      "stateMutability": "view",
      "type": "function"
    },
    {
      "inputs": [
        {
          "internalType": "address",
          "name": "newOwner",
          "type": "address"
        }
      ],
      "name": "transferOwnership",
      "outputs": [],
      "stateMutability": "nonpayable",
      "type": "function"
    },
    {
      "inputs": [
        {
          "internalType": "uint256",
          "name": "_serviceId",
          "type": "uint256"
        },
        {
          "internalType": "address",
          "name": "_rateToken",
          "type": "address"
        },
        {
          "internalType": "uint256",
          "name": "_rateAmount",
          "type": "uint256"
        },
        {
          "internalType": "string",
          "name": "_proposalDataUri",
          "type": "string"
        }
      ],
      "name": "updateProposal",
      "outputs": [],
      "stateMutability": "nonpayable",
      "type": "function"
    },
    {
      "inputs": [
        {
          "internalType": "uint256",
          "name": "_serviceId",
          "type": "uint256"
        },
        {
          "internalType": "string",
          "name": "_newServiceDataUri",
          "type": "string"
        }
      ],
      "name": "updateServiceData",
      "outputs": [],
      "stateMutability": "nonpayable",
      "type": "function"
    },
    {
      "inputs": [
        {
          "internalType": "address",
          "name": "newImplementation",
          "type": "address"
        }
      ],
      "name": "upgradeTo",
      "outputs": [],
      "stateMutability": "nonpayable",
      "type": "function"
    },
    {
      "inputs": [
        {
          "internalType": "address",
          "name": "newImplementation",
          "type": "address"
        },
        {
          "internalType": "bytes",
          "name": "data",
          "type": "bytes"
        }
      ],
      "name": "upgradeToAndCall",
      "outputs": [],
      "stateMutability": "payable",
      "type": "function"
    },
    {
      "inputs": [
        {
          "internalType": "uint256",
          "name": "_serviceId",
          "type": "uint256"
        },
        {
          "internalType": "uint256",
          "name": "_proposalId",
          "type": "uint256"
        }
      ],
      "name": "validateProposal",
      "outputs": [],
      "stateMutability": "nonpayable",
      "type": "function"
    }
  ],
  "bytecode": "0x60a0604052306080523480156200001557600080fd5b50600054610100900460ff1615808015620000375750600054600160ff909116105b8062000067575062000054306200014160201b62001df81760201c565b15801562000067575060005460ff166001145b620000cf5760405162461bcd60e51b815260206004820152602e60248201527f496e697469616c697a61626c653a20636f6e747261637420697320616c72656160448201526d191e481a5b9a5d1a585b1a5e995960921b606482015260840160405180910390fd5b6000805460ff191660011790558015620000f3576000805461ff0019166101001790555b80156200013a576000805461ff0019169055604051600181527f7f26b83ff96e1f2b6a682f133852f6798a09c465da95921460cefb38474024989060200160405180910390a15b5062000150565b6001600160a01b03163b151590565b6080516132c662000188600039600081816106bf015281816106ff01528181610b4901528181610b890152610c1801526132c66000f3fe6080604052600436106101c25760003560e01c8063715018a6116100f7578063b7f2bd7711610095578063ef0e239b11610064578063ef0e239b1461054c578063f2fde38b14610579578063f6bab04714610599578063f6c53d9b146105b957600080fd5b8063b7f2bd77146104a6578063c22c4f43146104c6578063c2cfee27146104fa578063d547741f1461052c57600080fd5b8063a217fddf116100d1578063a217fddf14610424578063a7d5eaea14610439578063a8d9939d14610459578063aba210091461047957600080fd5b8063715018a6146103d15780638da5cb5b146103e657806391d148541461040457600080fd5b8063485cc9551161016457806352d1902d1161013e57806352d1902d14610348578063537e96fe1461035d5780635bdc75b01461037d5780636ce76f301461039d57600080fd5b8063485cc955146102f557806349c6559c146103155780634f1ef2861461033557600080fd5b80632f2ff15d116101a05780632f2ff15d1461027357806336568abe146102955780633659cfe6146102b5578063477034da146102d557600080fd5b806301ffc9a7146101c75780631499f9e6146101fc578063248a9ca314610235575b600080fd5b3480156101d357600080fd5b506101e76101e23660046128ae565b6105d0565b60405190151581526020015b60405180910390f35b34801561020857600080fd5b5061012f5461021d906001600160a01b031681565b6040516001600160a01b0390911681526020016101f3565b34801561024157600080fd5b506102656102503660046128d8565b600090815260fb602052604090206001015490565b6040519081526020016101f3565b34801561027f57600080fd5b5061029361028e36600461290d565b610607565b005b3480156102a157600080fd5b506102936102b036600461290d565b610631565b3480156102c157600080fd5b506102936102d0366004612939565b6106b4565b3480156102e157600080fd5b506102936102f0366004612954565b610794565b34801561030157600080fd5b50610293610310366004612976565b610992565b34801561032157600080fd5b506102936103303660046128d8565b610af7565b6102936103433660046129b6565b610b3e565b34801561035457600080fd5b50610265610c0b565b34801561036957600080fd5b50610293610378366004612ac1565b610cbe565b34801561038957600080fd5b50610293610398366004612954565b6110b4565b3480156103a957600080fd5b506102657f2fdac322ee704ce09f0773f7f3f92eb98d5e7c836ee9c056cccd5f61041e5e3f81565b3480156103dd57600080fd5b50610293611236565b3480156103f257600080fd5b506097546001600160a01b031661021d565b34801561041057600080fd5b506101e761041f36600461290d565b61124a565b34801561043057600080fd5b50610265600081565b34801561044557600080fd5b50610293610454366004612b42565b611275565b34801561046557600080fd5b50610293610474366004612b6e565b6112ee565b34801561048557600080fd5b50610499610494366004612954565b61154e565b6040516101f39190612c58565b3480156104b257600080fd5b506102656104c1366004612cc0565b6116b9565b3480156104d257600080fd5b506104e66104e13660046128d8565b6117b2565b6040516101f3989796959493929190612d1c565b34801561050657600080fd5b5061051a610515366004612954565b611882565b6040516101f396959493929190612d70565b34801561053857600080fd5b5061029361054736600461290d565b611962565b34801561055857600080fd5b5061056c6105673660046128d8565b611987565b6040516101f39190612dc0565b34801561058557600080fd5b50610293610594366004612939565b611b3f565b3480156105a557600080fd5b506102936105b4366004612cc0565b611bb5565b3480156105c557600080fd5b5061026561012d5481565b60006001600160e01b03198216637965db0b60e01b148061060157506301ffc9a760e01b6001600160e01b03198316145b92915050565b600082815260fb602052604090206001015461062281611e07565b61062c8383611e11565b505050565b6001600160a01b03811633146106a65760405162461bcd60e51b815260206004820152602f60248201527f416363657373436f6e74726f6c3a2063616e206f6e6c792072656e6f756e636560448201526e103937b632b9903337b91039b2b63360891b60648201526084015b60405180910390fd5b6106b08282611e97565b5050565b306001600160a01b037f00000000000000000000000000000000000000000000000000000000000000001614156106fd5760405162461bcd60e51b815260040161069d90612e38565b7f00000000000000000000000000000000000000000000000000000000000000006001600160a01b031661074660008051602061324a833981519152546001600160a01b031690565b6001600160a01b03161461076c5760405162461bcd60e51b815260040161069d90612e84565b61077581611efe565b6040805160008082526020820190925261079191839190611f06565b50565b61012e5460405162438b6360e81b81523360048201526000916001600160a01b03169063438b63009060240160206040518083038186803b1580156107d857600080fd5b505afa1580156107ec573d6000803e3d6000fd5b505050506040513d601f19601f820116820180604052508101906108109190612ed0565b9050600081116108325760405162461bcd60e51b815260040161069d90612ee9565b60008381526101306020908152604080832061013183528184208685529092529091206001815460ff16600281111561086d5761086d612bd6565b141561088b5760405162461bcd60e51b815260040161069d90612f20565b6002815460ff1660028111156108a3576108a3612bd6565b14156108fc5760405162461bcd60e51b815260206004820152602260248201527f50726f706f73616c2068617320616c7265616479206265656e2072656a656374604482015261195960f21b606482015260840161069d565b816001015483146109465760405162461bcd60e51b81526020600482015260146024820152732cb7ba93b932903737ba103a343290313abcb2b960611b604482015260640161069d565b805460ff1916600217815560408051868152602081018690527ffa74c17c82b1d1960368a621d45c9afe55e65c87a2c9fe612ac7e36c382b3f7891015b60405180910390a15050505050565b600054610100900460ff16158080156109b25750600054600160ff909116105b806109cc5750303b1580156109cc575060005460ff166001145b610a2f5760405162461bcd60e51b815260206004820152602e60248201527f496e697469616c697a61626c653a20636f6e747261637420697320616c72656160448201526d191e481a5b9a5d1a585b1a5e995960921b606482015260840161069d565b6000805460ff191660011790558015610a52576000805461ff0019166101001790555b610a5a612080565b610a626120af565b610a6a6120af565b610a756000336120d6565b61012e80546001600160a01b038086166001600160a01b03199283161790925561012f805492851692909116919091179055600161012d55801561062c576000805461ff0019169055604051600181527f7f26b83ff96e1f2b6a682f133852f6798a09c465da95921460cefb38474024989060200160405180910390a1505050565b7f2fdac322ee704ce09f0773f7f3f92eb98d5e7c836ee9c056cccd5f61041e5e3f610b2181611e07565b50600090815261013060205260409020805460ff19166002179055565b306001600160a01b037f0000000000000000000000000000000000000000000000000000000000000000161415610b875760405162461bcd60e51b815260040161069d90612e38565b7f00000000000000000000000000000000000000000000000000000000000000006001600160a01b0316610bd060008051602061324a833981519152546001600160a01b031690565b6001600160a01b031614610bf65760405162461bcd60e51b815260040161069d90612e84565b610bff82611efe565b6106b082826001611f06565b6000306001600160a01b037f00000000000000000000000000000000000000000000000000000000000000001614610cab5760405162461bcd60e51b815260206004820152603860248201527f555550535570677261646561626c653a206d757374206e6f742062652063616c60448201527f6c6564207468726f7567682064656c656761746563616c6c0000000000000000606482015260840161069d565b5060008051602061324a83398151915290565b61012e5460405162438b6360e81b81523360048201526000916001600160a01b03169063438b63009060240160206040518083038186803b158015610d0257600080fd5b505afa158015610d16573d6000803e3d6000fd5b505050506040513d601f19601f82011682018060405250810190610d3a9190612ed0565b905060008111610d5c5760405162461bcd60e51b815260040161069d90612ee9565b6000878152610130602052604090206004815460ff166004811115610d8357610d83612bd6565b14610dc85760405162461bcd60e51b815260206004820152601560248201527414d95c9d9a58d9481a5cc81b9bdd081bdc195b9959605a1b604482015260640161069d565b600088815261013160209081526040808320858452909152902060010154821415610e4d5760405162461bcd60e51b815260206004820152602f60248201527f596f7520616c7265616479206372656174656420612070726f706f73616c206660448201526e6f722074686973207365727669636560881b606482015260840161069d565b6028816005015410610ea15760405162461bcd60e51b815260206004820152601b60248201527f4d61782070726f706f73616c7320636f756e7420726561636865640000000000604482015260640161069d565b8181600101541415610f0f5760405162461bcd60e51b815260206004820152603160248201527f596f7520636f756c646e2774206372656174652070726f706f73616c20666f7260448201527020796f7572206f776e207365727669636560781b606482015260840161069d565b82610f2c5760405162461bcd60e51b815260040161069d90612f63565b600581018054906000610f3e83612fb0565b90915550506040805160c081019091528060008152602001838152602001886001600160a01b031681526020018781526020018661ffff16815260200185858080601f01602080910402602001604051908101604052809392919081815260200183838082843760009201829052509390945250508a81526101316020908152604080832087845290915290208251815491925090829060ff19166001836002811115610fed57610fed612bd6565b0217905550602082810151600183015560408301516002830180546001600160a01b0319166001600160a01b0390921691909117905560608301516003830155608083015160048301805461ffff191661ffff90921691909117905560a0830151805161106092600585019201906127a1565b509050507fdc1ab3200caf17076f60a9fbf22ea5814644850fbb7be85a4c19f23bcdaa69378883868660008c8c8c6040516110a2989796959493929190612ff4565b60405180910390a15050505050505050565b61012e5460405162438b6360e81b81523360048201526000916001600160a01b03169063438b63009060240160206040518083038186803b1580156110f857600080fd5b505afa15801561110c573d6000803e3d6000fd5b505050506040513d601f19601f820116820180604052508101906111309190612ed0565b9050600081116111525760405162461bcd60e51b815260040161069d90612ee9565b60008381526101306020908152604080832061013183528184208685529092529091206001815460ff16600281111561118d5761118d612bd6565b14156111ab5760405162461bcd60e51b815260040161069d90612f20565b816001015483146111f55760405162461bcd60e51b81526020600482015260146024820152732cb7ba93b932903737ba103a343290313abcb2b960611b604482015260640161069d565b805460ff1916600117815560408051868152602081018690527f03a3b4a747d115189175e375b6c6ccd9dcdacdf7b4369aa5d8c3b8afda8ca2959101610983565b61123e6120e0565b611248600061213a565b565b600091825260fb602090815260408084206001600160a01b0393909316845291905290205460ff1690565b7f2fdac322ee704ce09f0773f7f3f92eb98d5e7c836ee9c056cccd5f61041e5e3f61129f81611e07565b506000928352610130602090815260408085206101318352818620948652939091529092208154600160ff19918216811784558083015460028501556006909301939093558054909216179055565b61012e5460405162438b6360e81b81523360048201526000916001600160a01b03169063438b63009060240160206040518083038186803b15801561133257600080fd5b505afa158015611346573d6000803e3d6000fd5b505050506040513d601f19601f8201168201806040525081019061136a9190612ed0565b90506000811161138c5760405162461bcd60e51b815260040161069d90612ee9565b60008681526101306020908152604080832061013183528184208585529092529091206004825460ff1660048111156113c7576113c7612bd6565b1461140c5760405162461bcd60e51b815260206004820152601560248201527414d95c9d9a58d9481a5cc81b9bdd081bdc195b9959605a1b604482015260640161069d565b8281600101541461145f5760405162461bcd60e51b815260206004820152601f60248201527f546869732070726f706f73616c20646f65736e27742065786973742079657400604482015260640161069d565b8361147c5760405162461bcd60e51b815260040161069d90612f63565b6001815460ff16600281111561149457611494612bd6565b14156114e25760405162461bcd60e51b815260206004820181905260248201527f546869732070726f706f73616c20697320616c72656164792075706461746564604482015260640161069d565b6002810180546001600160a01b0319166001600160a01b03891617905560038101869055611514600582018686612825565b507f5cf385c7cf3e1609443b09191511540e030254887cccb510dfface4c041b6c55888487878b8b6040516110a29695949392919061304f565b6115956040805160c0810190915280600081526020016000815260200160006001600160a01b0316815260200160008152602001600061ffff168152602001606081525090565b60008381526101316020908152604080832085845290915290819020815160c081019092528054829060ff1660028111156115d2576115d2612bd6565b60028111156115e3576115e3612bd6565b81526001820154602082015260028201546001600160a01b0316604082015260038201546060820152600482015461ffff16608082015260058201805460a09092019161162f9061308d565b80601f016020809104026020016040519081016040528092919081815260200182805461165b9061308d565b80156116a85780601f1061167d576101008083540402835291602001916116a8565b820191906000526020600020905b81548152906001019060200180831161168b57829003601f168201915b505050505081525050905092915050565b61012f5460405162f577a560e81b8152600481018590526000916001600160a01b03169063f577a5009060240160006040518083038186803b1580156116fe57600080fd5b505afa158015611712573d6000803e3d6000fd5b505061012e5460405162438b6360e81b8152336004820152600093506001600160a01b03909116915063438b63009060240160206040518083038186803b15801561175c57600080fd5b505afa158015611770573d6000803e3d6000fd5b505050506040513d601f19601f820116820180604052508101906117949190612ed0565b90506117a760048283600088888b61218c565b9150505b9392505050565b610130602052600090815260409020805460018201546002830154600384015460048501805460ff909516959394929391926117ed9061308d565b80601f01602080910402602001604051908101604052809291908181526020018280546118199061308d565b80156118665780601f1061183b57610100808354040283529160200191611866565b820191906000526020600020905b81548152906001019060200180831161184957829003601f168201915b5050505050908060050154908060060154908060070154905088565b61013160209081526000928352604080842090915290825290208054600182015460028301546003840154600485015460058601805460ff9096169694956001600160a01b0390941694929361ffff90921692916118df9061308d565b80601f016020809104026020016040519081016040528092919081815260200182805461190b9061308d565b80156119585780601f1061192d57610100808354040283529160200191611958565b820191906000526020600020905b81548152906001019060200180831161193b57829003601f168201915b5050505050905086565b600082815260fb602052604090206001015461197d81611e07565b61062c8383611e97565b6119d06040805161010081019091528060008152602001600081526020016000815260200160008152602001606081526020016000815260200160008152602001600081525090565b61012d548210611a225760405162461bcd60e51b815260206004820152601a60248201527f54686973207365727669636520646f65736e2774206578697374000000000000604482015260640161069d565b6000828152610130602052604090819020815161010081019092528054829060ff166004811115611a5557611a55612bd6565b6004811115611a6657611a66612bd6565b8152602001600182015481526020016002820154815260200160038201548152602001600482018054611a989061308d565b80601f0160208091040260200160405190810160405280929190818152602001828054611ac49061308d565b8015611b115780601f10611ae657610100808354040283529160200191611b11565b820191906000526020600020905b815481529060010190602001808311611af457829003601f168201915b5050505050815260200160058201548152602001600682015481526020016007820154815250509050919050565b611b476120e0565b6001600160a01b038116611bac5760405162461bcd60e51b815260206004820152602660248201527f4f776e61626c653a206e6577206f776e657220697320746865207a65726f206160448201526564647265737360d01b606482015260840161069d565b6107918161213a565b60008381526101306020526040902061012d548410611c165760405162461bcd60e51b815260206004820152601a60248201527f54686973207365727669636520646f65736e2774206578697374000000000000604482015260640161069d565b6004815460ff166004811115611c2e57611c2e612bd6565b1480611c4f57506000815460ff166004811115611c4d57611c4d612bd6565b145b611cad5760405162461bcd60e51b815260206004820152602960248201527f53657276696365207374617475732073686f756c64206265206f70656e6564206044820152681bdc88199a5b1b195960ba1b606482015260840161069d565b61012e5460405162438b6360e81b81523360048201526001600160a01b039091169063438b63009060240160206040518083038186803b158015611cf057600080fd5b505afa158015611d04573d6000803e3d6000fd5b505050506040513d601f19601f82011682018060405250810190611d289190612ed0565b816003015414611d8c5760405162461bcd60e51b815260206004820152602960248201527f4f6e6c792074686520696e69746961746f722063616e2075706461746520746860448201526865207365727669636560b81b606482015260840161069d565b81611da95760405162461bcd60e51b815260040161069d90612f63565b611db7600482018484612825565b50837f1cae99404f615a4039d85b1009cb70622aae6d64f671e8b1b191d9269847d43e8484604051611dea9291906130c8565b60405180910390a250505050565b6001600160a01b03163b151590565b6107918133612331565b611e1b828261124a565b6106b057600082815260fb602090815260408083206001600160a01b03851684529091529020805460ff19166001179055611e533390565b6001600160a01b0316816001600160a01b0316837f2f8788117e7eff1d82e926ec794901d17c78024a50270940304540a733656f0d60405160405180910390a45050565b611ea1828261124a565b156106b057600082815260fb602090815260408083206001600160a01b0385168085529252808320805460ff1916905551339285917ff6391f5c32d9c69d2a47ea670b442974b53935d1edc7fd64eb21e047a839171b9190a45050565b6107916120e0565b7f4910fdfa16fed3260ed0e7147f7cc6da11a60208b5b9406d12a635614ffd91435460ff1615611f395761062c8361238a565b826001600160a01b03166352d1902d6040518163ffffffff1660e01b815260040160206040518083038186803b158015611f7257600080fd5b505afa925050508015611fa2575060408051601f3d908101601f19168201909252611f9f91810190612ed0565b60015b6120055760405162461bcd60e51b815260206004820152602e60248201527f45524331393637557067726164653a206e657720696d706c656d656e7461746960448201526d6f6e206973206e6f74205555505360901b606482015260840161069d565b60008051602061324a83398151915281146120745760405162461bcd60e51b815260206004820152602960248201527f45524331393637557067726164653a20756e737570706f727465642070726f786044820152681a58589b195555525160ba1b606482015260840161069d565b5061062c838383612426565b600054610100900460ff166120a75760405162461bcd60e51b815260040161069d906130dc565b611248612451565b600054610100900460ff166112485760405162461bcd60e51b815260040161069d906130dc565b6106b08282611e11565b6097546001600160a01b031633146112485760405162461bcd60e51b815260206004820181905260248201527f4f776e61626c653a2063616c6c6572206973206e6f7420746865206f776e6572604482015260640161069d565b609780546001600160a01b038381166001600160a01b0319831681179093556040519116919082907f8be0079c531659141344cd1fd0a4f28419497f9722a3daafe3b4186f6b6457e090600090a35050565b60008087116121ad5760405162461bcd60e51b815260040161069d90612ee9565b858514156122085760405162461bcd60e51b815260206004820152602260248201527f53656c6c657220616e642062757965722063616e2774206265207468652073616044820152616d6560f01b606482015260840161069d565b826122255760405162461bcd60e51b815260040161069d90612f63565b61012d8054908190600061223883612fb0565b909155505060008181526101306020526040902080548a90829060ff1916600183600481111561226a5761226a612bd6565b0217905550600181018890556002810187905560038101899055612292600482018787612825565b506007810184905560408051838152602081018a9052908101889052606081018a9052608081018590527f9cd325e0ba2126728b21176b4b24c49c672e66820627759eedcab6b5dd7dac499060a00160405180910390a17f4874366e887bb729d49976a8f6751c4263d1668fd396db9b8d5f037895e7a74582878760405161231c93929190613127565b60405180910390a15098975050505050505050565b61233b828261124a565b6106b05761234881612481565b612353836020612493565b604051602001612364929190613141565b60408051601f198184030181529082905262461bcd60e51b825261069d916004016131b6565b6001600160a01b0381163b6123f75760405162461bcd60e51b815260206004820152602d60248201527f455243313936373a206e657720696d706c656d656e746174696f6e206973206e60448201526c1bdd08184818dbdb9d1c9858dd609a1b606482015260840161069d565b60008051602061324a83398151915280546001600160a01b0319166001600160a01b0392909216919091179055565b61242f8361262f565b60008251118061243c5750805b1561062c5761244b838361266f565b50505050565b600054610100900460ff166124785760405162461bcd60e51b815260040161069d906130dc565b6112483361213a565b60606106016001600160a01b03831660145b606060006124a28360026131c9565b6124ad9060026131e8565b67ffffffffffffffff8111156124c5576124c56129a0565b6040519080825280601f01601f1916602001820160405280156124ef576020820181803683370190505b509050600360fc1b8160008151811061250a5761250a613200565b60200101906001600160f81b031916908160001a905350600f60fb1b8160018151811061253957612539613200565b60200101906001600160f81b031916908160001a905350600061255d8460026131c9565b6125689060016131e8565b90505b60018111156125e0576f181899199a1a9b1b9c1cb0b131b232b360811b85600f166010811061259c5761259c613200565b1a60f81b8282815181106125b2576125b2613200565b60200101906001600160f81b031916908160001a90535060049490941c936125d981613216565b905061256b565b5083156117ab5760405162461bcd60e51b815260206004820181905260248201527f537472696e67733a20686578206c656e67746820696e73756666696369656e74604482015260640161069d565b6126388161238a565b6040516001600160a01b038216907fbc7cd75a20ee27fd9adebab32041f755214dbc6bffa90cc0225b39da2e5c2d3b90600090a250565b60606001600160a01b0383163b6126d75760405162461bcd60e51b815260206004820152602660248201527f416464726573733a2064656c65676174652063616c6c20746f206e6f6e2d636f6044820152651b9d1c9858dd60d21b606482015260840161069d565b600080846001600160a01b0316846040516126f2919061322d565b600060405180830381855af49150503d806000811461272d576040519150601f19603f3d011682016040523d82523d6000602084013e612732565b606091505b509150915061275a828260405180606001604052806027815260200161326a60279139612763565b95945050505050565b606083156127725750816117ab565b6117ab83838151156127875781518083602001fd5b8060405162461bcd60e51b815260040161069d91906131b6565b8280546127ad9061308d565b90600052602060002090601f0160209004810192826127cf5760008555612815565b82601f106127e857805160ff1916838001178555612815565b82800160010185558215612815579182015b828111156128155782518255916020019190600101906127fa565b50612821929150612899565b5090565b8280546128319061308d565b90600052602060002090601f0160209004810192826128535760008555612815565b82601f1061286c5782800160ff19823516178555612815565b82800160010185558215612815579182015b8281111561281557823582559160200191906001019061287e565b5b80821115612821576000815560010161289a565b6000602082840312156128c057600080fd5b81356001600160e01b0319811681146117ab57600080fd5b6000602082840312156128ea57600080fd5b5035919050565b80356001600160a01b038116811461290857600080fd5b919050565b6000806040838503121561292057600080fd5b82359150612930602084016128f1565b90509250929050565b60006020828403121561294b57600080fd5b6117ab826128f1565b6000806040838503121561296757600080fd5b50508035926020909101359150565b6000806040838503121561298957600080fd5b612992836128f1565b9150612930602084016128f1565b634e487b7160e01b600052604160045260246000fd5b600080604083850312156129c957600080fd5b6129d2836128f1565b9150602083013567ffffffffffffffff808211156129ef57600080fd5b818501915085601f830112612a0357600080fd5b813581811115612a1557612a156129a0565b604051601f8201601f19908116603f01168101908382118183101715612a3d57612a3d6129a0565b81604052828152886020848701011115612a5657600080fd5b8260208601602083013760006020848301015280955050505050509250929050565b60008083601f840112612a8a57600080fd5b50813567ffffffffffffffff811115612aa257600080fd5b602083019150836020828501011115612aba57600080fd5b9250929050565b60008060008060008060a08789031215612ada57600080fd5b86359550612aea602088016128f1565b945060408701359350606087013561ffff81168114612b0857600080fd5b9250608087013567ffffffffffffffff811115612b2457600080fd5b612b3089828a01612a78565b979a9699509497509295939492505050565b600080600060608486031215612b5757600080fd5b505081359360208301359350604090920135919050565b600080600080600060808688031215612b8657600080fd5b85359450612b96602087016128f1565b935060408601359250606086013567ffffffffffffffff811115612bb957600080fd5b612bc588828901612a78565b969995985093965092949392505050565b634e487b7160e01b600052602160045260246000fd5b60038110612bfc57612bfc612bd6565b9052565b60005b83811015612c1b578181015183820152602001612c03565b8381111561244b5750506000910152565b60008151808452612c44816020860160208601612c00565b601f01601f19169290920160200192915050565b60208152612c6a602082018351612bec565b6020820151604082015260018060a01b0360408301511660608201526060820151608082015261ffff60808301511660a0820152600060a083015160c080840152612cb860e0840182612c2c565b949350505050565b600080600060408486031215612cd557600080fd5b83359250602084013567ffffffffffffffff811115612cf357600080fd5b612cff86828701612a78565b9497909650939450505050565b60058110612bfc57612bfc612bd6565b6000610100612d2b838c612d0c565b896020840152886040840152876060840152806080840152612d4f81840188612c2c565b60a0840196909652505060c081019290925260e09091015295945050505050565b612d7a8188612bec565b85602082015260018060a01b038516604082015283606082015261ffff8316608082015260c060a08201526000612db460c0830184612c2c565b98975050505050505050565b60208152612dd2602082018351612d0c565b602082015160408201526040820151606082015260608201516080820152600060808301516101008060a0850152612e0e610120850183612c2c565b915060a085015160c085015260c085015160e085015260e085015181850152508091505092915050565b6020808252602c908201527f46756e6374696f6e206d7573742062652063616c6c6564207468726f7567682060408201526b19195b1959d85d1958d85b1b60a21b606082015260800190565b6020808252602c908201527f46756e6374696f6e206d7573742062652063616c6c6564207468726f7567682060408201526b6163746976652070726f787960a01b606082015260800190565b600060208284031215612ee257600080fd5b5051919050565b6020808252601f908201527f596f752073686f756c64206861766520612054616c656e744c61796572496400604082015260600190565b60208082526023908201527f50726f706f73616c2068617320616c7265616479206265656e2076616c6964616040820152621d195960ea1b606082015260800190565b6020808252601f908201527f53686f756c642070726f7669646520612076616c696420495046532055524900604082015260600190565b634e487b7160e01b600052601160045260246000fd5b6000600019821415612fc457612fc4612f9a565b5060010190565b81835281816020850137506000828201602090810191909152601f909101601f19169091010190565b88815287602082015260e06040820152600061301460e08301888a612fcb565b90506130236060830187612bec565b6001600160a01b0394909416608082015260a081019290925261ffff1660c09091015295945050505050565b86815285602082015260a06040820152600061306f60a083018688612fcb565b6001600160a01b039490941660608301525060800152949350505050565b600181811c908216806130a157607f821691505b602082108114156130c257634e487b7160e01b600052602260045260246000fd5b50919050565b602081526000612cb8602083018486612fcb565b6020808252602b908201527f496e697469616c697a61626c653a20636f6e7472616374206973206e6f74206960408201526a6e697469616c697a696e6760a81b606082015260800190565b83815260406020820152600061275a604083018486612fcb565b7f416363657373436f6e74726f6c3a206163636f756e7420000000000000000000815260008351613179816017850160208801612c00565b7001034b99036b4b9b9b4b733903937b6329607d1b60179184019182015283516131aa816028840160208801612c00565b01602801949350505050565b6020815260006117ab6020830184612c2c565b60008160001904831182151516156131e3576131e3612f9a565b500290565b600082198211156131fb576131fb612f9a565b500190565b634e487b7160e01b600052603260045260246000fd5b60008161322557613225612f9a565b506000190190565b6000825161323f818460208701612c00565b919091019291505056fe360894a13ba1a3210667c828492db98dca3e2076cc3735a920a3ca505d382bbc416464726573733a206c6f772d6c6576656c2064656c65676174652063616c6c206661696c6564a264697066735822122073395e782146e783c61263c24f5554ba4e0d189a39ae21530ed3c72e1af6419664736f6c63430008090033",
  "linkReferences": {},
  "deployedLinkReferences": {}
}