{
  "_format": "hh-sol-artifact-1",
  "contractName": "TalentLayerID",
  "sourceName": "contracts/TalentLayerID.sol",
  "abi": [
    {
      "inputs": [
        {
          "internalType": "address",
          "name": "_talentLayerPlatformIdAddress",
          "type": "address"
        }
      ],
      "stateMutability": "nonpayable",
      "type": "constructor"
    },
    {
      "inputs": [],
      "name": "ApprovalCallerNotOwnerNorApproved",
      "type": "error"
    },
    {
      "inputs": [],
      "name": "ApprovalQueryForNonexistentToken",
      "type": "error"
    },
    {
      "inputs": [],
      "name": "ApproveToCaller",
      "type": "error"
    },
    {
      "inputs": [],
      "name": "BalanceQueryForZeroAddress",
      "type": "error"
    },
    {
      "inputs": [],
      "name": "MintERC2309QuantityExceedsLimit",
      "type": "error"
    },
    {
      "inputs": [],
      "name": "MintToZeroAddress",
      "type": "error"
    },
    {
      "inputs": [],
      "name": "MintZeroQuantity",
      "type": "error"
    },
    {
      "inputs": [],
      "name": "OwnerQueryForNonexistentToken",
      "type": "error"
    },
    {
      "inputs": [],
      "name": "OwnershipNotInitializedForExtraData",
      "type": "error"
    },
    {
      "inputs": [],
      "name": "TransferCallerNotOwnerNorApproved",
      "type": "error"
    },
    {
      "inputs": [],
      "name": "TransferFromIncorrectOwner",
      "type": "error"
    },
    {
      "inputs": [],
      "name": "TransferToNonERC721ReceiverImplementer",
      "type": "error"
    },
    {
      "inputs": [],
      "name": "TransferToZeroAddress",
      "type": "error"
    },
    {
      "inputs": [],
      "name": "URIQueryForNonexistentToken",
      "type": "error"
    },
    {
      "anonymous": false,
      "inputs": [
        {
          "indexed": true,
          "internalType": "address",
          "name": "_newAddress",
          "type": "address"
        },
        {
          "indexed": true,
          "internalType": "address",
          "name": "_oldAddress",
          "type": "address"
        },
        {
          "indexed": false,
          "internalType": "string",
          "name": "_handle",
          "type": "string"
        },
        {
          "indexed": false,
          "internalType": "uint256",
          "name": "_tokenId",
          "type": "uint256"
        }
      ],
      "name": "AccountRecovered",
      "type": "event"
    },
    {
      "anonymous": false,
      "inputs": [
        {
          "indexed": true,
          "internalType": "address",
          "name": "owner",
          "type": "address"
        },
        {
          "indexed": true,
          "internalType": "address",
          "name": "approved",
          "type": "address"
        },
        {
          "indexed": true,
          "internalType": "uint256",
          "name": "tokenId",
          "type": "uint256"
        }
      ],
      "name": "Approval",
      "type": "event"
    },
    {
      "anonymous": false,
      "inputs": [
        {
          "indexed": true,
          "internalType": "address",
          "name": "owner",
          "type": "address"
        },
        {
          "indexed": true,
          "internalType": "address",
          "name": "operator",
          "type": "address"
        },
        {
          "indexed": false,
          "internalType": "bool",
          "name": "approved",
          "type": "bool"
        }
      ],
      "name": "ApprovalForAll",
      "type": "event"
    },
    {
      "anonymous": false,
      "inputs": [
        {
          "indexed": true,
          "internalType": "uint256",
          "name": "_tokenId",
          "type": "uint256"
        },
        {
          "indexed": false,
          "internalType": "string",
          "name": "_newCid",
          "type": "string"
        }
      ],
      "name": "CidUpdated",
      "type": "event"
    },
    {
      "anonymous": false,
      "inputs": [
        {
          "indexed": true,
          "internalType": "uint256",
          "name": "fromTokenId",
          "type": "uint256"
        },
        {
          "indexed": false,
          "internalType": "uint256",
          "name": "toTokenId",
          "type": "uint256"
        },
        {
          "indexed": true,
          "internalType": "address",
          "name": "from",
          "type": "address"
        },
        {
          "indexed": true,
          "internalType": "address",
          "name": "to",
          "type": "address"
        }
      ],
      "name": "ConsecutiveTransfer",
      "type": "event"
    },
    {
      "anonymous": false,
      "inputs": [
        {
          "indexed": true,
          "internalType": "address",
          "name": "_user",
          "type": "address"
        },
        {
          "indexed": false,
          "internalType": "uint256",
          "name": "_tokenId",
          "type": "uint256"
        },
        {
          "indexed": false,
          "internalType": "string",
          "name": "_handle",
          "type": "string"
        },
        {
          "indexed": false,
          "internalType": "bool",
          "name": "_withPoh",
          "type": "bool"
        },
        {
          "indexed": false,
          "internalType": "uint256",
          "name": "_platformId",
          "type": "uint256"
        },
        {
          "indexed": false,
          "internalType": "uint256",
          "name": "_fee",
          "type": "uint256"
        }
      ],
      "name": "Mint",
      "type": "event"
    },
    {
      "anonymous": false,
      "inputs": [
        {
          "indexed": false,
          "internalType": "uint256",
          "name": "_mintFee",
          "type": "uint256"
        }
      ],
      "name": "MintFeeUpdated",
      "type": "event"
    },
    {
      "anonymous": false,
      "inputs": [
        {
          "indexed": true,
          "internalType": "address",
          "name": "previousOwner",
          "type": "address"
        },
        {
          "indexed": true,
          "internalType": "address",
          "name": "newOwner",
          "type": "address"
        }
      ],
      "name": "OwnershipTransferred",
      "type": "event"
    },
    {
      "anonymous": false,
      "inputs": [
        {
          "indexed": true,
          "internalType": "address",
          "name": "_user",
          "type": "address"
        },
        {
          "indexed": false,
          "internalType": "uint256",
          "name": "_tokenId",
          "type": "uint256"
        },
        {
          "indexed": false,
          "internalType": "string",
          "name": "_handle",
          "type": "string"
        }
      ],
      "name": "PohActivated",
      "type": "event"
    },
    {
      "anonymous": false,
      "inputs": [
        {
          "indexed": false,
          "internalType": "uint256",
          "name": "_tokenId",
          "type": "uint256"
        },
        {
          "indexed": false,
          "internalType": "uint256",
          "name": "_thirdPartiesStrategiesID",
          "type": "uint256"
        },
        {
          "indexed": false,
          "internalType": "bytes",
          "name": "thirdPartyId",
          "type": "bytes"
        }
      ],
      "name": "ThirdPartyLinked",
      "type": "event"
    },
    {
      "anonymous": false,
      "inputs": [
        {
          "indexed": true,
          "internalType": "address",
          "name": "from",
          "type": "address"
        },
        {
          "indexed": true,
          "internalType": "address",
          "name": "to",
          "type": "address"
        },
        {
          "indexed": true,
          "internalType": "uint256",
          "name": "tokenId",
          "type": "uint256"
        }
      ],
      "name": "Transfer",
      "type": "event"
    },
    {
      "inputs": [
        {
          "internalType": "address",
          "name": "to",
          "type": "address"
        },
        {
          "internalType": "uint256",
          "name": "tokenId",
          "type": "uint256"
        }
      ],
      "name": "approve",
      "outputs": [],
      "stateMutability": "nonpayable",
      "type": "function"
    },
    {
      "inputs": [
        {
          "internalType": "uint256",
          "name": "_profileId",
          "type": "uint256"
        },
        {
          "internalType": "uint256[]",
          "name": "_thirdPartiesStrategiesID",
          "type": "uint256[]"
        }
      ],
      "name": "associateThirdPartiesIDs",
      "outputs": [],
      "stateMutability": "nonpayable",
      "type": "function"
    },
    {
      "inputs": [
        {
          "internalType": "address",
          "name": "owner",
          "type": "address"
        }
      ],
      "name": "balanceOf",
      "outputs": [
        {
          "internalType": "uint256",
          "name": "",
          "type": "uint256"
        }
      ],
      "stateMutability": "view",
      "type": "function"
    },
    {
      "inputs": [
        {
          "internalType": "uint256",
          "name": "tokenId",
          "type": "uint256"
        }
      ],
      "name": "getApproved",
      "outputs": [
        {
          "internalType": "address",
          "name": "",
          "type": "address"
        }
      ],
      "stateMutability": "view",
      "type": "function"
    },
    {
      "inputs": [
        {
          "internalType": "address",
          "name": "_address",
          "type": "address"
        }
      ],
      "name": "getOriginatorPlatformIdByAddress",
      "outputs": [
        {
          "internalType": "uint256",
          "name": "",
          "type": "uint256"
        }
      ],
      "stateMutability": "view",
      "type": "function"
    },
    {
      "inputs": [
        {
          "internalType": "uint256",
          "name": "_profileId",
          "type": "uint256"
        }
      ],
      "name": "getProfile",
      "outputs": [
        {
          "components": [
            {
              "internalType": "uint256",
              "name": "id",
              "type": "uint256"
            },
            {
              "internalType": "string",
              "name": "handle",
              "type": "string"
            },
            {
              "internalType": "uint256",
              "name": "platformId",
              "type": "uint256"
            },
            {
              "internalType": "string",
              "name": "dataUri",
              "type": "string"
            }
          ],
          "internalType": "struct TalentLayerID.Profile",
          "name": "",
          "type": "tuple"
        }
      ],
      "stateMutability": "view",
      "type": "function"
    },
    {
      "inputs": [
        {
          "internalType": "uint256",
          "name": "_profileId",
          "type": "uint256"
        },
        {
          "internalType": "uint256",
          "name": "_strategyId",
          "type": "uint256"
        }
      ],
      "name": "getThirdPartyId",
      "outputs": [
        {
          "internalType": "bytes",
          "name": "",
          "type": "bytes"
        }
      ],
      "stateMutability": "view",
      "type": "function"
    },
    {
      "inputs": [
        {
          "internalType": "uint256",
          "name": "_thirdPartyStrategyId",
          "type": "uint256"
        }
      ],
      "name": "getThirdPartyStrategy",
      "outputs": [
        {
          "internalType": "address",
          "name": "",
          "type": "address"
        }
      ],
      "stateMutability": "view",
      "type": "function"
    },
    {
      "inputs": [
        {
          "internalType": "address",
          "name": "",
          "type": "address"
        }
      ],
      "name": "hasBeenRecovered",
      "outputs": [
        {
          "internalType": "bool",
          "name": "",
          "type": "bool"
        }
      ],
      "stateMutability": "view",
      "type": "function"
    },
    {
      "inputs": [
        {
          "internalType": "address",
          "name": "owner",
          "type": "address"
        },
        {
          "internalType": "address",
          "name": "operator",
          "type": "address"
        }
      ],
      "name": "isApprovedForAll",
      "outputs": [
        {
          "internalType": "bool",
          "name": "",
          "type": "bool"
        }
      ],
      "stateMutability": "view",
      "type": "function"
    },
    {
      "inputs": [
        {
          "internalType": "uint256",
          "name": "_tokenId",
          "type": "uint256"
        }
      ],
      "name": "isValid",
      "outputs": [],
      "stateMutability": "view",
      "type": "function"
    },
    {
      "inputs": [
        {
          "internalType": "uint256",
          "name": "_platformId",
          "type": "uint256"
        },
        {
          "internalType": "string",
          "name": "_handle",
          "type": "string"
        },
        {
          "internalType": "uint256[]",
          "name": "_thirdPartiesStrategiesID",
          "type": "uint256[]"
        }
      ],
      "name": "mint",
      "outputs": [],
      "stateMutability": "payable",
      "type": "function"
    },
    {
      "inputs": [],
      "name": "mintFee",
      "outputs": [
        {
          "internalType": "uint256",
          "name": "",
          "type": "uint256"
        }
      ],
      "stateMutability": "view",
      "type": "function"
    },
    {
      "inputs": [],
      "name": "name",
      "outputs": [
        {
          "internalType": "string",
          "name": "",
          "type": "string"
        }
      ],
      "stateMutability": "view",
      "type": "function"
    },
    {
      "inputs": [
        {
          "internalType": "address",
          "name": "_user",
          "type": "address"
        }
      ],
      "name": "numberMinted",
      "outputs": [
        {
          "internalType": "uint256",
          "name": "",
          "type": "uint256"
        }
      ],
      "stateMutability": "view",
      "type": "function"
    },
    {
      "inputs": [],
      "name": "owner",
      "outputs": [
        {
          "internalType": "address",
          "name": "",
          "type": "address"
        }
      ],
      "stateMutability": "view",
      "type": "function"
    },
    {
      "inputs": [
        {
          "internalType": "uint256",
          "name": "tokenId",
          "type": "uint256"
        }
      ],
      "name": "ownerOf",
      "outputs": [
        {
          "internalType": "address",
          "name": "",
          "type": "address"
        }
      ],
      "stateMutability": "view",
      "type": "function"
    },
    {
      "inputs": [
        {
          "internalType": "uint256",
          "name": "",
          "type": "uint256"
        },
        {
          "internalType": "uint256",
          "name": "",
          "type": "uint256"
        }
      ],
      "name": "profileIdToStrategyIdToThirdPartyId",
      "outputs": [
        {
          "internalType": "bytes",
          "name": "",
          "type": "bytes"
        }
      ],
      "stateMutability": "view",
      "type": "function"
    },
    {
      "inputs": [
        {
          "internalType": "uint256",
          "name": "",
          "type": "uint256"
        }
      ],
      "name": "profiles",
      "outputs": [
        {
          "internalType": "uint256",
          "name": "id",
          "type": "uint256"
        },
        {
          "internalType": "string",
          "name": "handle",
          "type": "string"
        },
        {
          "internalType": "uint256",
          "name": "platformId",
          "type": "uint256"
        },
        {
          "internalType": "string",
          "name": "dataUri",
          "type": "string"
        }
      ],
      "stateMutability": "view",
      "type": "function"
    },
    {
      "inputs": [
        {
          "internalType": "address",
          "name": "_oldAddress",
          "type": "address"
        },
        {
          "internalType": "uint256",
          "name": "_tokenId",
          "type": "uint256"
        },
        {
          "internalType": "uint256",
          "name": "_index",
          "type": "uint256"
        },
        {
          "internalType": "uint256",
          "name": "_recoveryKey",
          "type": "uint256"
        },
        {
          "internalType": "string",
          "name": "_handle",
          "type": "string"
        },
        {
          "internalType": "bytes32[]",
          "name": "_merkleProof",
          "type": "bytes32[]"
        }
      ],
      "name": "recoverAccount",
      "outputs": [],
      "stateMutability": "nonpayable",
      "type": "function"
    },
    {
      "inputs": [],
      "name": "recoveryRoot",
      "outputs": [
        {
          "internalType": "bytes32",
          "name": "",
          "type": "bytes32"
        }
      ],
      "stateMutability": "view",
      "type": "function"
    },
    {
      "inputs": [],
      "name": "renounceOwnership",
      "outputs": [],
      "stateMutability": "nonpayable",
      "type": "function"
    },
    {
      "inputs": [
        {
          "internalType": "address",
          "name": "from",
          "type": "address"
        },
        {
          "internalType": "address",
          "name": "to",
          "type": "address"
        },
        {
          "internalType": "uint256",
          "name": "tokenId",
          "type": "uint256"
        }
      ],
      "name": "safeTransferFrom",
      "outputs": [],
      "stateMutability": "nonpayable",
      "type": "function"
    },
    {
      "inputs": [
        {
          "internalType": "address",
          "name": "from",
          "type": "address"
        },
        {
          "internalType": "address",
          "name": "to",
          "type": "address"
        },
        {
          "internalType": "uint256",
          "name": "tokenId",
          "type": "uint256"
        },
        {
          "internalType": "bytes",
          "name": "_data",
          "type": "bytes"
        }
      ],
      "name": "safeTransferFrom",
      "outputs": [],
      "stateMutability": "nonpayable",
      "type": "function"
    },
    {
      "inputs": [
        {
          "internalType": "address",
          "name": "operator",
          "type": "address"
        },
        {
          "internalType": "bool",
          "name": "approved",
          "type": "bool"
        }
      ],
      "name": "setApprovalForAll",
      "outputs": [],
      "stateMutability": "nonpayable",
      "type": "function"
    },
    {
      "inputs": [
        {
          "internalType": "uint256",
          "name": "_thirdPartyStrategyId",
          "type": "uint256"
        },
        {
          "internalType": "address",
          "name": "_thirdStrategyPartyAddress",
          "type": "address"
        }
      ],
      "name": "setThirdPartyStrategy",
      "outputs": [],
      "stateMutability": "nonpayable",
      "type": "function"
    },
    {
      "inputs": [
        {
          "internalType": "bytes4",
          "name": "interfaceId",
          "type": "bytes4"
        }
      ],
      "name": "supportsInterface",
      "outputs": [
        {
          "internalType": "bool",
          "name": "",
          "type": "bool"
        }
      ],
      "stateMutability": "view",
      "type": "function"
    },
    {
      "inputs": [],
      "name": "symbol",
      "outputs": [
        {
          "internalType": "string",
          "name": "",
          "type": "string"
        }
      ],
      "stateMutability": "view",
      "type": "function"
    },
    {
      "inputs": [
        {
          "internalType": "string",
          "name": "",
          "type": "string"
        }
      ],
      "name": "takenHandles",
      "outputs": [
        {
          "internalType": "bool",
          "name": "",
          "type": "bool"
        }
      ],
      "stateMutability": "view",
      "type": "function"
    },
    {
      "inputs": [],
      "name": "talentLayerPlatformIdContract",
      "outputs": [
        {
          "internalType": "contract ITalentLayerPlatformID",
          "name": "",
          "type": "address"
        }
      ],
      "stateMutability": "view",
      "type": "function"
    },
    {
      "inputs": [
        {
          "internalType": "uint256",
          "name": "",
          "type": "uint256"
        }
      ],
      "name": "thirdPartiesIdStrategies",
      "outputs": [
        {
          "internalType": "address",
          "name": "",
          "type": "address"
        }
      ],
      "stateMutability": "view",
      "type": "function"
    },
    {
      "inputs": [
        {
          "internalType": "uint256",
          "name": "tokenId",
          "type": "uint256"
        }
      ],
      "name": "tokenURI",
      "outputs": [
        {
          "internalType": "string",
          "name": "",
          "type": "string"
        }
      ],
      "stateMutability": "view",
      "type": "function"
    },
    {
      "inputs": [],
      "name": "totalSupply",
      "outputs": [
        {
          "internalType": "uint256",
          "name": "",
          "type": "uint256"
        }
      ],
      "stateMutability": "view",
      "type": "function"
    },
    {
      "inputs": [
        {
          "internalType": "address",
          "name": "from",
          "type": "address"
        },
        {
          "internalType": "address",
          "name": "to",
          "type": "address"
        },
        {
          "internalType": "uint256",
          "name": "tokenId",
          "type": "uint256"
        }
      ],
      "name": "transferFrom",
      "outputs": [],
      "stateMutability": "nonpayable",
      "type": "function"
    },
    {
      "inputs": [
        {
          "internalType": "address",
          "name": "newOwner",
          "type": "address"
        }
      ],
      "name": "transferOwnership",
      "outputs": [],
      "stateMutability": "nonpayable",
      "type": "function"
    },
    {
      "inputs": [
        {
          "internalType": "uint256",
          "name": "_mintFee",
          "type": "uint256"
        }
      ],
      "name": "updateMintFee",
      "outputs": [],
      "stateMutability": "nonpayable",
      "type": "function"
    },
    {
      "inputs": [
        {
          "internalType": "uint256",
          "name": "_tokenId",
          "type": "uint256"
        },
        {
          "internalType": "string",
          "name": "_newCid",
          "type": "string"
        }
      ],
      "name": "updateProfileData",
      "outputs": [],
      "stateMutability": "nonpayable",
      "type": "function"
    },
    {
      "inputs": [
        {
          "internalType": "bytes32",
          "name": "_newRoot",
          "type": "bytes32"
        }
      ],
      "name": "updateRecoveryRoot",
      "outputs": [],
      "stateMutability": "nonpayable",
      "type": "function"
    },
    {
      "inputs": [
        {
          "internalType": "address",
          "name": "_owner",
          "type": "address"
        }
      ],
      "name": "walletOfOwner",
      "outputs": [
        {
          "internalType": "uint256",
          "name": "",
          "type": "uint256"
        }
      ],
      "stateMutability": "view",
      "type": "function"
    },
    {
      "inputs": [],
      "name": "withdraw",
      "outputs": [],
      "stateMutability": "nonpayable",
      "type": "function"
    }
  ],
  "bytecode": "0x60806040523480156200001157600080fd5b5060405162004de638038062004de68339810160408190526200003491620001d0565b604080518082018252600d81526c15185b195b9d13185e595c9251609a1b60208083019182528351808501909452600384526215125160ea1b90840152815191929162000084916002916200012a565b5080516200009a9060039060208401906200012a565b5050600160005550620000ad33620000d8565b600980546001600160a01b0319166001600160a01b03929092169190911790556000600b556200023f565b600880546001600160a01b038381166001600160a01b0319831681179093556040519116919082907f8be0079c531659141344cd1fd0a4f28419497f9722a3daafe3b4186f6b6457e090600090a35050565b828054620001389062000202565b90600052602060002090601f0160209004810192826200015c5760008555620001a7565b82601f106200017757805160ff1916838001178555620001a7565b82800160010185558215620001a7579182015b82811115620001a75782518255916020019190600101906200018a565b50620001b5929150620001b9565b5090565b5b80821115620001b55760008155600101620001ba565b600060208284031215620001e357600080fd5b81516001600160a01b0381168114620001fb57600080fd5b9392505050565b600181811c908216806200021757607f821691505b602082108114156200023957634e487b7160e01b600052602260045260246000fd5b50919050565b614b97806200024f6000396000f3fe60806040526004361061023b5760003560e01c806360fc48cc1161012e578063c36fe3d6116100ab578063e985e9c51161006f578063e985e9c5146106df578063f08f4f6414610728578063f160068f14610755578063f2fde38b14610775578063f577a5001461079557600080fd5b8063c36fe3d61461061f578063c87b56dd1461064f578063ce1b56671461066f578063dc33e6811461068f578063de829592146106af57600080fd5b80638da5cb5b116100f25780638da5cb5b1461058c57806395d89b41146105aa578063a22cb465146105bf578063aff6f3bf146105df578063b88d4fde146105ff57600080fd5b806360fc48cc146105045780636352211e1461051757806370a0823114610537578063715018a61461055757806384017e521461056c57600080fd5b806323b872dd116101bc578063438b630011610180578063438b63001461044e57806346f0f0521461046e57806351540e58146104a4578063530a1335146104c45780635c4b0348146104e457600080fd5b806323b872dd146103d95780632567c4c6146103f95780633ccfd60b146104195780633ce12f6d1461042e57806342842e0e146103d957600080fd5b806313966db51161020357806313966db5146103275780631499f9e61461034b57806318160ddd1461036b57806319aeca93146103885780632106beec1461039e57600080fd5b806301ffc9a71461024057806306fdde0314610275578063081812fc14610297578063095ea7b3146102cf5780630e8b2272146102f1575b600080fd5b34801561024c57600080fd5b5061026061025b3660046126ff565b6107b5565b60405190151581526020015b60405180910390f35b34801561028157600080fd5b5061028a610807565b60405161026c9190612774565b3480156102a357600080fd5b506102b76102b2366004612787565b610899565b6040516001600160a01b03909116815260200161026c565b3480156102db57600080fd5b506102ef6102ea3660046127bc565b6108dd565b005b3480156102fd57600080fd5b506102b761030c366004612787565b6000908152600e60205260409020546001600160a01b031690565b34801561033357600080fd5b5061033d600b5481565b60405190815260200161026c565b34801561035757600080fd5b506009546102b7906001600160a01b031681565b34801561037757600080fd5b50600154600054036000190161033d565b34801561039457600080fd5b5061033d600a5481565b3480156103aa57600080fd5b506102606103b93660046128b1565b8051602081830181018051600c8252928201919093012091525460ff1681565b3480156103e557600080fd5b506102ef6103f43660046128e5565b505050565b34801561040557600080fd5b506102ef61041436600461296c565b61097d565b34801561042557600080fd5b506102ef610dc3565b34801561043a57600080fd5b506102ef610449366004612787565b610e66565b34801561045a57600080fd5b5061033d610469366004612a36565b610e73565b34801561047a57600080fd5b506102b7610489366004612787565b600e602052600090815260409020546001600160a01b031681565b3480156104b057600080fd5b506102ef6104bf366004612a51565b610efc565b3480156104d057600080fd5b5061028a6104df366004612a7d565b610f88565b3480156104f057600080fd5b5061033d6104ff366004612a36565b6110cc565b6102ef610512366004612b1e565b6110f4565b34801561052357600080fd5b506102b7610532366004612787565b61132a565b34801561054357600080fd5b5061033d610552366004612a36565b611335565b34801561056357600080fd5b506102ef611383565b34801561057857600080fd5b506102ef610587366004612787565b611397565b34801561059857600080fd5b506008546001600160a01b03166102b7565b3480156105b657600080fd5b5061028a6113da565b3480156105cb57600080fd5b506102ef6105da366004612b98565b6113e9565b3480156105eb57600080fd5b5061028a6105fa366004612a7d565b61147f565b34801561060b57600080fd5b506102ef61061a366004612bcf565b611524565b34801561062b57600080fd5b5061063f61063a366004612787565b611563565b60405161026c9493929190612c4a565b34801561065b57600080fd5b5061028a61066a366004612787565b61169c565b34801561067b57600080fd5b506102ef61068a366004612c7b565b6116a7565b34801561069b57600080fd5b5061033d6106aa366004612a36565b6116d2565b3480156106bb57600080fd5b506102606106ca366004612a36565b60106020526000908152604090205460ff1681565b3480156106eb57600080fd5b506102606106fa366004612cc1565b6001600160a01b03918216600090815260076020908152604080832093909416825291909152205460ff1690565b34801561073457600080fd5b50610748610743366004612787565b6116dd565b60405161026c9190612ceb565b34801561076157600080fd5b506102ef610770366004612d41565b61188a565b34801561078157600080fd5b506102ef610790366004612a36565b61195a565b3480156107a157600080fd5b506102ef6107b0366004612787565b6119d0565b60006301ffc9a760e01b6001600160e01b0319831614806107e657506380ac58cd60e01b6001600160e01b03198316145b806108015750635b5e139f60e01b6001600160e01b03198316145b92915050565b60606002805461081690612d7d565b80601f016020809104026020016040519081016040528092919081815260200182805461084290612d7d565b801561088f5780601f106108645761010080835404028352916020019161088f565b820191906000526020600020905b81548152906001019060200180831161087257829003601f168201915b5050505050905090565b60006108a482611a36565b6108c1576040516333d1c03960e21b815260040160405180910390fd5b506000908152600660205260409020546001600160a01b031690565b60006108e88261132a565b9050336001600160a01b038216146109215761090481336106fa565b610921576040516367d9dca160e11b815260040160405180910390fd5b60008281526006602052604080822080546001600160a01b0319166001600160a01b0387811691821790925591518593918516917f8c5be1e5ebec7d5bd14f71427d1e84f3dd0314c0f7b2291e5b200ac8c7c3b92591a4505050565b6001600160a01b03881660009081526010602052604081205460ff16156109fb5760405162461bcd60e51b815260206004820152602760248201527f5468697320616464726573732068617320616c7265616479206265656e20726560448201526618dbdd995c995960ca1b60648201526084015b60405180910390fd5b886001600160a01b0316610a0e8961132a565b6001600160a01b031614610a705760405162461bcd60e51b815260206004820152602360248201527f596f7520617265206e6f7420746865206f776e6572206f66207468697320746f60448201526235b2b760e91b60648201526084016109f2565b610a79336116d2565b15610ac65760405162461bcd60e51b815260206004820152601860248201527f596f7520616c72656164792068617665206120746f6b656e000000000000000060448201526064016109f2565b8484604051602001610ad9929190612db8565b60408051601f19818403018152828252805160209182012060008c8152600d8352929092209192610b0e926001019101612dc8565b6040516020818303038152906040528051906020012014610b625760405162461bcd60e51b815260206004820152600e60248201526d496e76616c69642068616e646c6560901b60448201526064016109f2565b60405163c3c5a54760e01b81523360048201526000906001600160a01b0383169063c3c5a5479060240160206040518083038186803b158015610ba457600080fd5b505afa158015610bb8573d6000803e3d6000fd5b505050506040513d601f19601f82011682018060405250810190610bdc9190612e64565b905080610c515760405162461bcd60e51b815260206004820152603a60248201527f596f75206e65656420746f2075736520616e206164647265737320726567697360448201527f7465726564206f6e2050726f6f66206f662048756d616e69747900000000000060648201526084016109f2565b6000888888888e604051602001610c6c959493929190612e81565b604051602081830303815290604052805190602001209050610cc585858080602002602001604051908101604052809392919081815260200183836020028082843760009201919091525050600a549150849050611a6b565b610d1b5760405162461bcd60e51b815260206004820152602160248201527f4d65726b6c654469737472696275746f723a20496e76616c69642070726f6f666044820152601760f91b60648201526084016109f2565b6001600160a01b038b166000908152601060209081526040808320805460ff191660019081179091558d8452600d909252909120610d5b910188886125dc565b50610d678b338c611a81565b8a6001600160a01b0316336001600160a01b03167fe27a76891cb9f3da59f6b7d03f64aee72f85a390754515a420a189491dc795de89898e604051610dae93929190612ebd565b60405180910390a35050505050505050505050565b610dcb611b87565b604051600090339047908381818185875af1925050503d8060008114610e0d576040519150601f19603f3d011682016040523d82523d6000602084013e610e12565b606091505b5050905080610e635760405162461bcd60e51b815260206004820152601860248201527f4661696c656420746f207769746864726177204574686572000000000000000060448201526064016109f2565b50565b610e6e611b87565b600a55565b6000806001815b60015460005403600019018211610ef3576000610e9683611be1565b90508060400151158015610eb3575080516001600160a01b031615155b15610ebd57805191505b856001600160a01b0316826001600160a01b03161415610ee05782935050610ef3565b82610eea81612f0c565b93505050610e7a565b50909392505050565b610f04611b87565b6001600160a01b038116610f5a5760405162461bcd60e51b815260206004820152601c60248201527f537472617465677920616464726573732063616e6e6f7420626520300000000060448201526064016109f2565b6000918252600e602052604090912080546001600160a01b0319166001600160a01b03909216919091179055565b6060610f9383611a36565b610faf5760405162461bcd60e51b81526004016109f290612f27565b6000828152600e60205260409020546001600160a01b03166110225760405162461bcd60e51b815260206004820152602660248201527f54616c656e744c6179657249443a20537472617465677920646f6573206e6f7460448201526508195e1a5cdd60d21b60648201526084016109f2565b6000838152600f602090815260408083208584529091529020805461104690612d7d565b80601f016020809104026020016040519081016040528092919081815260200182805461107290612d7d565b80156110bf5780601f10611094576101008083540402835291602001916110bf565b820191906000526020600020905b8154815290600101906020018083116110a257829003601f168201915b5050505050905092915050565b6000600d60006110db84610e73565b8152602001908152602001600020600201549050919050565b8183600b5434146111535760405162461bcd60e51b8152602060048201526024808201527f496e636f727265637420616d6f756e74206f662045544820666f72206d696e746044820152632066656560e01b60648201526084016109f2565b61115c336116d2565b156111a95760405162461bcd60e51b815260206004820181905260248201527f596f7520616c7265616479206861766520612054616c656e744c61796572494460448201526064016109f2565b6002825110156111ee5760405162461bcd60e51b815260206004820152601060248201526f12185b991b19481d1bdbc81cda1bdc9d60821b60448201526064016109f2565b600a825111156112325760405162461bcd60e51b815260206004820152600f60248201526e48616e646c6520746f6f206c6f6e6760881b60448201526064016109f2565b600c826040516112429190612f88565b9081526040519081900360200190205460ff16156112995760405162461bcd60e51b81526020600482015260146024820152732430b73236329030b63932b0b23c903a30b5b2b760611b60448201526064016109f2565b60095460405162f577a560e81b8152600481018390526001600160a01b039091169063f577a5009060240160006040518083038186803b1580156112dc57600080fd5b505afa1580156112f0573d6000803e3d6000fd5b5050505060006112ff60005490565b905061130c336001611c58565b61131885600088611c72565b6113228185611d34565b505050505050565b600061080182611fc8565b60006001600160a01b03821661135e576040516323d3ad8160e21b815260040160405180910390fd5b506001600160a01b03166000908152600560205260409020546001600160401b031690565b61138b611b87565b6113956000612038565b565b61139f611b87565b600b8190556040518181527f38fbb1c8b109c430f0c030e7ed076cf5611a307773a4e8e365601e8f8bceaec69060200160405180910390a150565b60606003805461081690612d7d565b6001600160a01b0382163314156114135760405163b06307db60e01b815260040160405180910390fd5b3360008181526007602090815260408083206001600160a01b03871680855290835292819020805460ff191686151590811790915590519081529192917f17307eab39ab6107e8899845ad3d59bd9653f200f220920489ca2b5937696c31910160405180910390a35050565b600f602090815260009283526040808420909152908252902080546114a390612d7d565b80601f01602080910402602001604051908101604052809291908181526020018280546114cf90612d7d565b801561151c5780601f106114f15761010080835404028352916020019161151c565b820191906000526020600020905b8154815290600101906020018083116114ff57829003601f168201915b505050505081565b6001600160a01b0383163b1561155d576115408484848461208a565b61155d576040516368d2bf6b60e11b815260040160405180910390fd5b50505050565b600d602052600090815260409020805460018201805491929161158590612d7d565b80601f01602080910402602001604051908101604052809291908181526020018280546115b190612d7d565b80156115fe5780601f106115d3576101008083540402835291602001916115fe565b820191906000526020600020905b8154815290600101906020018083116115e157829003601f168201915b50505050509080600201549080600301805461161990612d7d565b80601f016020809104026020016040519081016040528092919081815260200182805461164590612d7d565b80156116925780601f1061166757610100808354040283529160200191611692565b820191906000526020600020905b81548152906001019060200180831161167557829003601f168201915b5050505050905084565b606061080182612182565b336116b18361132a565b6001600160a01b0316146116c457600080fd5b6116ce8282611d34565b5050565b600061080182611335565b6117086040518060800160405280600081526020016060815260200160008152602001606081525090565b61171182611a36565b61172d5760405162461bcd60e51b81526004016109f290612f27565b600d60008381526020019081526020016000206040518060800160405290816000820154815260200160018201805461176590612d7d565b80601f016020809104026020016040519081016040528092919081815260200182805461179190612d7d565b80156117de5780601f106117b3576101008083540402835291602001916117de565b820191906000526020600020905b8154815290600101906020018083116117c157829003601f168201915b505050505081526020016002820154815260200160038201805461180190612d7d565b80601f016020809104026020016040519081016040528092919081815260200182805461182d90612d7d565b801561187a5780601f1061184f5761010080835404028352916020019161187a565b820191906000526020600020905b81548152906001019060200180831161185d57829003601f168201915b5050505050815250509050919050565b336118948361132a565b6001600160a01b0316146118a757600080fd5b60008151116118f85760405162461bcd60e51b815260206004820152601f60248201527f53686f756c642070726f7669646520612076616c69642049504653205552490060448201526064016109f2565b6000828152600d60209081526040909120825161191d92600390920191840190612660565b50817f613807bd6768f626264e7eb664a65ca99a0d930f8fd8a5b868491a592eb57f728260405161194e9190612774565b60405180910390a25050565b611962611b87565b6001600160a01b0381166119c75760405162461bcd60e51b815260206004820152602660248201527f4f776e61626c653a206e6577206f776e657220697320746865207a65726f206160448201526564647265737360d01b60648201526084016109f2565b610e6381612038565b6000811180156119ea575060015460005403600019018111155b610e635760405162461bcd60e51b815260206004820152601f60248201527f596f7572204944206973206e6f7420612076616c696420746f6b656e2049440060448201526064016109f2565b600081600111158015611a4a575060005482105b8015610801575050600090815260046020526040902054600160e01b161590565b600082611a7885846122ac565b14949350505050565b6000611a8c82611fc8565b90506001600160a01b038316611ab557604051633a954ecd60e21b815260040160405180910390fd5b6001600160a01b038481166000908152600560205260408082208054600019019055918516808252919020805460010190554260a01b17600160e11b17600083815260046020526040902055600160e11b8116611b405760018201600081815260046020526040902054611b3e576000548114611b3e5760008181526004602052604090208290555b505b81836001600160a01b0316856001600160a01b03167fddf252ad1be2c89b69c2b068fc378daa952ba7f163c4a11628f55a4df523b3ef60405160405180910390a450505050565b6008546001600160a01b031633146113955760405162461bcd60e51b815260206004820181905260248201527f4f776e61626c653a2063616c6c6572206973206e6f7420746865206f776e657260448201526064016109f2565b604080516080810182526000808252602082018190529181018290526060810191909152610801611c1183611fc8565b604080516080810182526001600160a01b038316815260a083901c6001600160401b03166020820152600160e01b831615159181019190915260e89190911c606082015290565b6116ce8282604051806020016040528060008152506122f9565b60006001611c7f60005490565b611c899190612fa4565b6000818152600d6020908152604090912060028101859055865192935091611cb991600184019190880190612660565b506001600c86604051611ccc9190612f88565b908152604051908190036020018120805492151560ff1990931692909217909155600b5433917fb04779a1cbc204eb57d83e8b7da4a89e2bb550e71807dfcb8f312ee4d73b5f6f91611d259186918a918a918a91612fbb565b60405180910390a25050505050565b33611d3e8361132a565b6001600160a01b031614611d5157600080fd5b6000805b825181101561155d5760006001600160a01b0316611da1848381518110611d7e57611d7e612ff1565b60200260200101516000908152600e60205260409020546001600160a01b031690565b6001600160a01b03161415611dee5760405162461bcd60e51b8152602060048201526013602482015272125b9d985b1a59081cdd1c985d1959de481251606a1b60448201526064016109f2565b611e03838281518110611d7e57611d7e612ff1565b60405163c3c5a54760e01b815233600482015290925060009081906001600160a01b0385169063c3c5a5479060240160006040518083038186803b158015611e4a57600080fd5b505afa158015611e5e573d6000803e3d6000fd5b505050506040513d6000823e601f3d908101601f19168201604052611e869190810190613007565b9150915081611f105760405162461bcd60e51b815260206004820152604a60248201527f596f75206e65656420746f2075736520616e206164647265737320726567697360448201527f7465726564206f6e207468652073656c656374656420746869726420706172746064820152697920706c6174666f726d60b01b608482015260a4016109f2565b6000868152600f602052604081208651839290889087908110611f3557611f35612ff1565b602002602001015181526020019081526020016000209080519060200190611f5e929190612660565b507f285951ce55fdeaf52dbf963917d43c672d21c0a2fdf9bbc6eb5e5e6bd55e926286868581518110611f9357611f93612ff1565b602002602001015183604051611fab93929190613093565b60405180910390a150508080611fc090612f0c565b915050611d55565b6000818060011161201f5760005481101561201f57600081815260046020526040902054600160e01b811661201d575b80612016575060001901600081815260046020526040902054611ff8565b9392505050565b505b604051636f96cda160e11b815260040160405180910390fd5b600880546001600160a01b038381166001600160a01b0319831681179093556040519116919082907f8be0079c531659141344cd1fd0a4f28419497f9722a3daafe3b4186f6b6457e090600090a35050565b604051630a85bd0160e11b81526000906001600160a01b0385169063150b7a02906120bf9033908990889088906004016130b2565b602060405180830381600087803b1580156120d957600080fd5b505af1925050508015612109575060408051601f3d908101601f19168201909252612106918101906130ef565b60015b612164573d808015612137576040519150601f19603f3d011682016040523d82523d6000602084013e61213c565b606091505b50805161215c576040516368d2bf6b60e11b815260040160405180910390fd5b805181602001fd5b6001600160e01b031916630a85bd0160e11b1490505b949350505050565b6000818152600d60205260408120600101805460609291906121a390612d7d565b80601f01602080910402602001604051908101604052809291908181526020018280546121cf90612d7d565b801561221c5780601f106121f15761010080835404028352916020019161221c565b820191906000526020600020905b8154815290600101906020018083116121ff57829003601f168201915b50505050509050600061224d82604051602001612239919061310c565b604051602081830303815290604052612366565b60405160200161225d91906149ab565b604051602081830303815290604052905061228482826040516020016122399291906149f0565b6040516020016122949190614a83565b60405160208183030381529060405292505050919050565b600081815b84518110156122f1576122dd828683815181106122d0576122d0612ff1565b60200260200101516124b9565b9150806122e981612f0c565b9150506122b1565b509392505050565b61230383836124e5565b6001600160a01b0383163b156103f4576000548281035b61232d600086838060010194508661208a565b61234a576040516368d2bf6b60e11b815260040160405180910390fd5b81811061231a57816000541461235f57600080fd5b5050505050565b606081516000141561238657505060408051602081019091526000815290565b6000604051806060016040528060408152602001614b2260409139905060006003845160026123b59190614ac8565b6123bf9190614ae0565b6123ca906004614b02565b6001600160401b038111156123e1576123e16127e6565b6040519080825280601f01601f19166020018201604052801561240b576020820181803683370190505b509050600182016020820185865187015b80821015612477576003820191508151603f8160121c168501518453600184019350603f81600c1c168501518453600184019350603f8160061c168501518453600184019350603f811685015184535060018301925061241c565b505060038651066001811461249357600281146124a6576124ae565b603d6001830353603d60028303536124ae565b603d60018303535b509195945050505050565b60008183106124d5576000828152602084905260409020612016565b5060009182526020526040902090565b600054816125065760405163b562e8dd60e01b815260040160405180910390fd5b6001600160a01b03831660008181526005602090815260408083208054680100000000000000018802019055848352600490915281206001851460e11b4260a01b178317905582840190839083907fddf252ad1be2c89b69c2b068fc378daa952ba7f163c4a11628f55a4df523b3ef8180a4600183015b8181146125b557808360007fddf252ad1be2c89b69c2b068fc378daa952ba7f163c4a11628f55a4df523b3ef600080a460010161257d565b50816125d357604051622e076360e81b815260040160405180910390fd5b60005550505050565b8280546125e890612d7d565b90600052602060002090601f01602090048101928261260a5760008555612650565b82601f106126235782800160ff19823516178555612650565b82800160010185558215612650579182015b82811115612650578235825591602001919060010190612635565b5061265c9291506126d4565b5090565b82805461266c90612d7d565b90600052602060002090601f01602090048101928261268e5760008555612650565b82601f106126a757805160ff1916838001178555612650565b82800160010185558215612650579182015b828111156126505782518255916020019190600101906126b9565b5b8082111561265c57600081556001016126d5565b6001600160e01b031981168114610e6357600080fd5b60006020828403121561271157600080fd5b8135612016816126e9565b60005b8381101561273757818101518382015260200161271f565b8381111561155d5750506000910152565b6000815180845261276081602086016020860161271c565b601f01601f19169290920160200192915050565b6020815260006120166020830184612748565b60006020828403121561279957600080fd5b5035919050565b80356001600160a01b03811681146127b757600080fd5b919050565b600080604083850312156127cf57600080fd5b6127d8836127a0565b946020939093013593505050565b634e487b7160e01b600052604160045260246000fd5b604051601f8201601f191681016001600160401b0381118282101715612824576128246127e6565b604052919050565b60006001600160401b03821115612845576128456127e6565b50601f01601f191660200190565b60006128666128618461282c565b6127fc565b905082815283838301111561287a57600080fd5b828260208301376000602084830101529392505050565b600082601f8301126128a257600080fd5b61201683833560208501612853565b6000602082840312156128c357600080fd5b81356001600160401b038111156128d957600080fd5b61217a84828501612891565b6000806000606084860312156128fa57600080fd5b612903846127a0565b9250612911602085016127a0565b9150604084013590509250925092565b60008083601f84011261293357600080fd5b5081356001600160401b0381111561294a57600080fd5b6020830191508360208260051b850101111561296557600080fd5b9250929050565b60008060008060008060008060c0898b03121561298857600080fd5b612991896127a0565b975060208901359650604089013595506060890135945060808901356001600160401b03808211156129c257600080fd5b818b0191508b601f8301126129d657600080fd5b8135818111156129e557600080fd5b8c60208285010111156129f757600080fd5b6020830196508095505060a08b0135915080821115612a1557600080fd5b50612a228b828c01612921565b999c989b5096995094979396929594505050565b600060208284031215612a4857600080fd5b612016826127a0565b60008060408385031215612a6457600080fd5b82359150612a74602084016127a0565b90509250929050565b60008060408385031215612a9057600080fd5b50508035926020909101359150565b600082601f830112612ab057600080fd5b813560206001600160401b03821115612acb57612acb6127e6565b8160051b612ada8282016127fc565b9283528481018201928281019087851115612af457600080fd5b83870192505b84831015612b1357823582529183019190830190612afa565b979650505050505050565b600080600060608486031215612b3357600080fd5b8335925060208401356001600160401b0380821115612b5157600080fd5b612b5d87838801612891565b93506040860135915080821115612b7357600080fd5b50612b8086828701612a9f565b9150509250925092565b8015158114610e6357600080fd5b60008060408385031215612bab57600080fd5b612bb4836127a0565b91506020830135612bc481612b8a565b809150509250929050565b60008060008060808587031215612be557600080fd5b612bee856127a0565b9350612bfc602086016127a0565b92506040850135915060608501356001600160401b03811115612c1e57600080fd5b8501601f81018713612c2f57600080fd5b612c3e87823560208401612853565b91505092959194509250565b848152608060208201526000612c636080830186612748565b8460408401528281036060840152612b138185612748565b60008060408385031215612c8e57600080fd5b8235915060208301356001600160401b03811115612cab57600080fd5b612cb785828601612a9f565b9150509250929050565b60008060408385031215612cd457600080fd5b612cdd836127a0565b9150612a74602084016127a0565b60208152815160208201526000602083015160806040840152612d1160a0840182612748565b9050604084015160608401526060840151601f19848303016080850152612d388282612748565b95945050505050565b60008060408385031215612d5457600080fd5b8235915060208301356001600160401b03811115612d7157600080fd5b612cb785828601612891565b600181811c90821680612d9157607f821691505b60208210811415612db257634e487b7160e01b600052602260045260246000fd5b50919050565b8183823760009101908152919050565b600080835481600182811c915080831680612de457607f831692505b6020808410821415612e0457634e487b7160e01b86526022600452602486fd5b818015612e185760018114612e2957612e56565b60ff19861689528489019650612e56565b60008a81526020902060005b86811015612e4e5781548b820152908501908301612e35565b505084890196505b509498975050505050505050565b600060208284031215612e7657600080fd5b815161201681612b8a565b8581528460208201528284604083013760609190911b6bffffffffffffffffffffffff1916604091909201908101919091526054019392505050565b604081528260408201528284606083013760006060848301015260006060601f19601f8601168301019050826020830152949350505050565b634e487b7160e01b600052601160045260246000fd5b6000600019821415612f2057612f20612ef6565b5060010190565b60208082526025908201527f54616c656e744c6179657249443a2050726f66696c6520646f6573206e6f7420604082015264195e1a5cdd60da1b606082015260800190565b60008151612f7e81856020860161271c565b9290920192915050565b60008251612f9a81846020870161271c565b9190910192915050565b600082821015612fb657612fb6612ef6565b500390565b85815260a060208201526000612fd460a0830187612748565b941515604083015250606081019290925260809091015292915050565b634e487b7160e01b600052603260045260246000fd5b6000806040838503121561301a57600080fd5b825161302581612b8a565b60208401519092506001600160401b0381111561304157600080fd5b8301601f8101851361305257600080fd5b80516130606128618261282c565b81815286602083850101111561307557600080fd5b61308682602083016020860161271c565b8093505050509250929050565b838152826020820152606060408201526000612d386060830184612748565b6001600160a01b03858116825284166020820152604081018390526080606082018190526000906130e590830184612748565b9695505050505050565b60006020828403121561310157600080fd5b8151612016816126e9565b7f3c73766720786d6c6e733d22687474703a2f2f7777772e77332e6f72672f323081527f30302f737667222076696577426f783d223020302037323020373230223e3c6460208201527f6566733e3c6c696e6561724772616469656e742069643d2261222078313d223660408201527f372e3934222079313d223136392e3438222078323d223637302e39382220793260608201527f3d223536322e383622206772616469656e74556e6974733d227573657253706160808201527f63654f6e557365223e3c73746f70206f66667365743d2230222073746f702d6360a08201527f6f6c6f723d2223313761396332222f3e3c73746f70206f66667365743d222e3160c08201527f32222073746f702d636f6c6f723d2223316161396263222f3e3c73746f70206f60e08201527f66667365743d222e3239222073746f702d636f6c6f723d2223323561626162226101008201527f2f3e3c73746f70206f66667365743d222e3438222073746f702d636f6c6f723d6101208201527f2223333561643866222f3e3c73746f70206f66667365743d222e3634222073746101408201527f6f702d636f6c6f723d2223343862303732222f3e3c73746f70206f66667365746101608201527f3d222e3738222073746f702d636f6c6f723d2223353962323534222f3e3c73746101808201527f6f70206f66667365743d2231222073746f702d636f6c6f723d222337616237326101a08201527f30222f3e3c2f6c696e6561724772616469656e743e3c2f646566733e3c7061746101c08201527f68207374796c653d2266696c6c3a75726c282361292220643d224d30203068376101e08201527f32307637323048307a222f3e3c7061746820643d224d34372e30352039322e336102008201527f375635332e38344833332e32395634366833362e383576372e38344835362e346102208201527f317633382e3532682d392e33365a6d33352e37312d32332e33342d382e30372d6102408201527f312e3436632e39312d332e323520322e34372d352e363520342e36382d372e326102608201527f3120322e32312d312e353620352e352d322e333420392e38372d322e333420336102808201527f2e3936203020362e39322e343720382e383620312e343120312e39342e3934206102a08201527f332e333120322e313320342e3120332e353773312e313920342e3120312e31396102c08201527f20372e39366c2d2e312031302e3337633020322e39352e313420352e31332e346102e08201527f3320362e35332e323820312e342e383220322e393120312e3620342e3531682d6103008201527f382e3739632d2e32332d2e35392d2e35322d312e34372d2e38352d322e36332d6103208201527f2e31352d2e35332d2e32352d2e38382d2e33322d312e30342d312e353220312e6103408201527f34382d332e313420322e35382d342e383720332e3332732d332e353720312e316103608201527f312d352e353420312e3131632d332e343620302d362e31382d2e39342d382e316103808201527f382d322e38322d312e39392d312e38382d322e39392d342e32352d322e39392d6103a08201527f372e313220302d312e392e34352d332e353920312e33362d352e303873322e316103c08201527f382d322e363320332e38312d332e343220332e39392d312e343820372e30372d6103e08201527f322e303763342e31352d2e373820372e30332d312e353120382e36332d322e316104008201527f38762d2e383963302d312e37312d2e34322d322e39332d312e32372d332e36356104208201527f732d322e34342d312e30392d342e37382d312e3039632d312e353820302d322e6104408201527f38322e33312d332e372e39332d2e38392e36322d312e3620312e37312d322e316104608201527f3520332e32375a6d31312e383920372e3231632d312e31342e33382d322e39346104808201527f2e38332d352e343120312e33362d322e34372e35332d342e303820312e30342d6104a08201527f342e383420312e35352d312e31362e38322d312e373420312e38372d312e37346104c08201527f20332e3133732e343620322e333220312e333920332e3233632e39332e3931206104e08201527f322e313120312e333620332e353420312e333620312e36203020332e31332d2e6105008201527f353320342e35392d312e353820312e30382d2e3820312e37382d312e373820326105208201527f2e31322d322e39342e32332d2e37362e33352d322e322e33352d342e3333762d6105408201527f312e37375a6d31372e34392031362e313356343668382e38397634362e3337686105608201527f2d382e38395a6d33372e34352d31302e363920382e383620312e3439632d312e6105808201527f313420332e32352d322e393420352e37322d352e333920372e3432732d352e356105a08201527f3320322e35352d392e323220322e3535632d352e383420302d31302e31362d316105c08201527f2e39312d31322e39372d352e37322d322e32312d332e30362d332e33322d362e6105e08201527f39322d332e33322d31312e353820302d352e353720312e34362d392e393320346106008201527f2e33362d31332e303820322e39312d332e313520362e35392d342e37332031316106208201527f2e30342d342e37332035203020382e393420312e36352031312e383320342e396106408201527f3573342e323720382e333620342e31342031352e3137682d32322e3237632e306106608201527f3620322e36342e373820342e363920322e313520362e313520312e333720312e6106808201527f343720332e303820322e3220352e313220322e3220312e3339203020322e35366106a08201527f2d2e333820332e35312d312e31342e39352d2e373620312e36372d312e3938206106c08201527f322e31352d332e36375a6d2e35312d382e3938632d2e30362d322e35372d2e376106e08201527f332d342e35332d312e39392d352e38372d312e32372d312e33342d322e38312d6107008201527f322e30312d342e36322d322e30312d312e393420302d332e35342e37312d342e6107208201527f383120322e31322d312e323720312e34312d312e383920332e33332d312e38376107408201527f20352e37366831332e32385a6d34362e36322031392e3637682d382e383956376107608201527f352e323363302d332e36332d2e31392d352e39372d2e35372d372e30342d2e336107808201527f382d312e30362d312d312e38392d312e38352d322e3438732d312e38382d2e386107a08201527f392d332e30382d2e3839632d312e353420302d322e39322e34322d342e3134206107c08201527f312e3237732d322e303620312e39362d322e353120332e3335632d2e343520316107e08201527f2e33392d2e363820332e39362d2e363820372e37327631352e3231682d382e386108008201527f395635382e373868382e323676342e393363322e39332d332e3820362e36322d6108208201527f352e36392031312e30372d352e363920312e3936203020332e37352e333520356108408201527f2e333820312e303620312e36322e373120322e383520312e363120332e3638206108608201527f322e372e383320312e3120312e343120322e333420312e373420332e3733732e6108808201527f343920332e33382e343920352e39387632302e38385a6d32342e34322d33332e6108a08201527f353976372e3038682d362e30375637392e34633020322e37342e303620342e336108c08201527f342e313720342e37392e31322e34352e33382e38332e373920312e31322e34316108e08201527f2e332e39312e343420312e352e34342e3832203020322e30312d2e323820332e6109008201527f35372d2e38356c2e373620362e39632d322e30372e38392d342e343120312e336109208201527f332d372e303220312e33332d312e3620302d332e30352d2e32372d342e33332d6109408201527f2e38312d312e32392d2e35342d322e32332d312e32332d322e38332d322e30396109608201527f2d2e362d2e38352d312e30322d322e30312d312e32352d332e34362d2e31392d6109808201527f312e30332d2e32382d332e31322d2e32382d362e32365636352e3836682d342e6109a08201527f3038762d372e303868342e3038762d362e36376c382e39322d352e31397631316109c08201527f2e383668362e30375a6d362e32362033332e353956343668362e31347634302e6109e08201527f396832322e383476352e3437682d32382e39375a6d35372e34372d342e313463610a008201527f2d322e313120312e37392d342e313420332e30362d362e303920332e382d312e610a208201527f39352e37342d342e303420312e31312d362e323820312e31312d332e36392030610a408201527f2d362e35332d2e392d382e35312d322e372d312e39382d312e382d322e39372d610a608201527f342e31312d322e39372d362e393120302d312e36342e33372d332e313520312e610a808201527f31322d342e353173312e37332d322e343520322e39342d332e323763312e3231610aa08201527f2d2e383220322e35382d312e343420342e312d312e383720312e31322d2e3320610ac08201527f322e382d2e353820352e30362d2e383520342e362d2e353520372e39382d312e610ae08201527f322031302e31352d312e39362e30322d2e37382e30332d312e32382e30332d31610b008201527f2e343920302d322e33322d2e35342d332e39352d312e36312d342e392d312e34610b208201527f362d312e32392d332e36322d312e39332d362e34382d312e39332d322e363820610b408201527f302d342e36352e34372d352e393320312e3431732d322e323220322e362d322e610b608201527f383320342e39386c2d352e35372d2e3736632e35312d322e333820312e33342d610b808201527f342e333120322e352d352e373720312e31362d312e343720322e38342d322e35610ba08201527f3920352e30332d332e333820322e31392d2e373920342e37332d312e31392037610bc08201527f2e36322d312e313973352e322e333420362e393920312e303163312e37392e36610be08201527f3820332e313120312e353220332e393520322e35352e383420312e303220312e610c008201527f343320322e333120312e373720332e38382e31392e39372e323820322e37322e610c208201527f323820352e323576372e3539633020352e32392e313220382e36342e33362031610c408201527f302e30342e323420312e342e373220322e373520312e343420342e3033682d35610c608201527f2e3935632d2e35392d312e31382d2e39372d322e35362d312e31342d342e3134610c808201527f5a6d2d2e34372d31322e3732632d322e30372e38342d352e313720312e35362d610ca08201527f392e3320322e31352d322e33342e33342d34202e37322d342e393720312e3134610cc08201527f2d2e39372e34322d312e373220312e30342d322e323520312e3835732d2e3739610ce08201527f20312e37312d2e373920322e37633020312e35322e353720322e373820312e37610d008201527f3220332e3820312e313520312e303120322e383320312e353220352e30352031610d208201527f2e353273342e31342d2e343820352e38352d312e343420322e39362d322e3237610d408201527f20332e37362d332e3934632e36312d312e32392e39322d332e31382e39322d35610d608201527f2e3639762d322e30395a6d31342e33332032392e382d2e36332d352e33356331610d808201527f2e32342e333420322e33332e353120332e32362e353120312e3237203020322e610da08201527f32382d2e323120332e30342d2e363373312e33382d312e303120312e38372d31610dc08201527f2e3737632e33362d2e35372e39342d312e393820312e37342d342e32342e3131610de08201527f2d2e33322e32372d2e37382e35312d312e33396c2d31322e37352d33332e3635610e008201527f68362e31346c362e39392031392e3435632e393120322e343720312e37322035610e208201527f2e303620322e343420372e37382e36352d322e363120312e34332d352e313720610e408201527f322e33342d372e36356c372e31382d31392e353868352e36396c2d31322e3738610e608201527f2033342e3136632d312e333720332e36392d322e343420362e32332d332e3139610e808201527f20372e36322d312e303120312e38382d322e313720332e32352d332e34382034610ea08201527f2e31332d312e33312e38382d322e383720312e33312d342e363820312e33312d610ec08201527f312e3120302d322e33322d2e32332d332e36372d2e375a6d35352e36332d3233610ee08201527f2e373620352e38382e3733632d2e393320332e34342d322e363520362e312d35610f008201527f2e313620382d322e353120312e392d352e373120322e38352d392e363220322e610f208201527f38352d342e393120302d382e38312d312e35312d31312e36392d342e35342d32610f408201527f2e38382d332e30332d342e33322d372e32372d342e33322d31322e373373312e610f608201527f34362d31302e303420342e33362d31332e313663322e39312d332e313220362e610f808201527f36382d342e36382031312e33322d342e363873382e313620312e35332031312e610fa08201527f303120342e353963322e383520332e303620342e323720372e333620342e3237610fc08201527f2031322e39312030202e33342d2e30312e38342d2e303320312e3532682d3235610fe08201527f2e3035632e323120332e363920312e323520362e353220332e313320382e34386110008201527f20312e383820312e393620342e323220322e393420372e303220322e393420326110208201527f2e3039203020332e38372d2e353520352e33352d312e363420312e34382d312e6110408201527f3120322e36352d322e383520332e35312d352e32355a6d2d31382e36392d392e6110608201527f326831382e3736632d2e32352d322e38332d2e39372d342e39342d322e31352d6110808201527f362e33362d312e38312d322e31392d342e31372d332e32392d372e30352d332e6110a08201527f32392d322e363120302d342e38312e38382d362e3620322e3633732d322e37376110c08201527f20342e30392d322e393620372e30325a6d33312e36362032302e30325635382e6110e08201527f373868352e313276352e303963312e33312d322e333820322e35312d332e39356111008201527f20332e36322d342e373173322e33322d312e313420332e36352d312e313463316111208201527f2e3932203020332e38372e363120352e383520312e38336c2d312e393620352e6111408201527f3238632d312e33392d2e38322d322e37382d312e32332d342e31382d312e32336111608201527f2d312e323420302d322e33362e33372d332e333520312e31322d2e39392e37356111808201527f2d312e3720312e37392d322e313220332e31322d2e363320322e30322d2e39356111a08201527f20342e32342d2e393520362e36347631372e3539682d352e36395a6d32312e376111c08201527f39203056343668392e33367634362e3337682d392e33365a4d3430372e3337206111e08201527f34366831372e313163332e3836203020362e382e3320382e38332e383920322e6112008201527f37322e3820352e303520322e323220362e393920342e323720312e393420322e6112208201527f303520332e343220342e353520342e343320372e353120312e303120322e39366112408201527f20312e353220362e363220312e35322031302e3936203020332e38322d2e34376112608201527f20372e31312d312e343220392e38372d312e313620332e33372d322e383220366112808201527f2e312d342e393720382e31392d312e363220312e35382d332e383220322e38326112a08201527f2d362e353820332e372d322e30372e36352d342e38332e39382d382e32392e396112c08201527f38682d31372e36325634365a6d392e333620372e38347633302e373168362e396112e08201527f3963322e3631203020342e352d2e313520352e36362d2e343420312e35322d2e6113008201527f333820322e37382d312e303220332e37382d312e393320312d2e393120312e386113208201527f322d322e3420322e34352d342e34382e36332d322e30382e39352d342e39312e6113408201527f39352d382e3439732d2e33322d362e33342d2e39352d382e32362d312e35322d6113608201527f332e34322d322e36362d342e34392d322e35382d312e382d342e33332d322e316113808201527f38632d312e33312d2e332d332e38372d2e34342d372e36392d2e3434682d342e6113a08201527f32315a22207374796c653d2266696c6c3a23666666222f3e3c7465787420793d6113c08201527f223637302220783d22333022207374796c653d22666f6e743a373070782073616113e082015273373996b9b2b934b31db334b6361d11b33333111f60611b6114008201526000612016614992611414840185612f6c565b6c1e17ba32bc3a1f1e17b9bb339f60991b8152600d0190565b7f646174613a696d6167652f7376672b786d6c3b6261736536342c0000000000008152600082516149e381601a85016020870161271c565b91909101601a0192915050565b683d913730b6b2911d1160b91b81528251600090614a1581600985016020880161271c565b6b1116101134b6b0b3b2911d1160a11b6009918401918201528351614a4181601584016020880161271c565b7f222c20226465736372697074696f6e223a202254616c656e744c617965722049601592909101918201526244227d60e81b6035820152603801949350505050565b7f646174613a6170706c69636174696f6e2f6a736f6e3b6261736536342c000000815260008251614abb81601d85016020870161271c565b91909101601d0192915050565b60008219821115614adb57614adb612ef6565b500190565b600082614afd57634e487b7160e01b600052601260045260246000fd5b500490565b6000816000190483118215151615614b1c57614b1c612ef6565b50029056fe4142434445464748494a4b4c4d4e4f505152535455565758595a6162636465666768696a6b6c6d6e6f707172737475767778797a303132333435363738392b2fa2646970667358221220f86faaff3382e5a62e90ca60882d8f505262fe07a3bcc94d0194e3804d8f26d464736f6c63430008090033",
  "linkReferences": {},
  "deployedLinkReferences": {}
}