{
  "_format": "hh-sol-artifact-1",
  "contractName": "TalentLayerService",
  "sourceName": "contracts/TalentLayerService.sol",
  "abi": [
    {
      "inputs": [],
      "stateMutability": "nonpayable",
      "type": "constructor"
    },
    {
      "anonymous": false,
      "inputs": [
        {
          "indexed": false,
          "internalType": "address",
          "name": "previousAdmin",
          "type": "address"
        },
        {
          "indexed": false,
          "internalType": "address",
          "name": "newAdmin",
          "type": "address"
        }
      ],
      "name": "AdminChanged",
      "type": "event"
    },
    {
      "anonymous": false,
      "inputs": [
        {
          "indexed": false,
          "internalType": "address",
          "name": "tokenAddress",
          "type": "address"
        },
        {
          "indexed": false,
          "internalType": "bool",
          "name": "isWhitelisted",
          "type": "bool"
        },
        {
          "indexed": false,
          "internalType": "uint256",
          "name": "minimumTransactionAmount",
          "type": "uint256"
        }
      ],
      "name": "AllowedTokenListUpdated",
      "type": "event"
    },
    {
      "anonymous": false,
      "inputs": [
        {
          "indexed": true,
          "internalType": "address",
          "name": "beacon",
          "type": "address"
        }
      ],
      "name": "BeaconUpgraded",
      "type": "event"
    },
    {
      "anonymous": false,
      "inputs": [
        {
          "indexed": false,
          "internalType": "uint8",
          "name": "version",
          "type": "uint8"
        }
      ],
      "name": "Initialized",
      "type": "event"
    },
    {
      "anonymous": false,
      "inputs": [
        {
          "indexed": false,
          "internalType": "uint256",
          "name": "minCompletionPercentage",
          "type": "uint256"
        }
      ],
      "name": "MinCompletionPercentageUpdated",
      "type": "event"
    },
    {
      "anonymous": false,
      "inputs": [
        {
          "indexed": true,
          "internalType": "address",
          "name": "previousOwner",
          "type": "address"
        },
        {
          "indexed": true,
          "internalType": "address",
          "name": "newOwner",
          "type": "address"
        }
      ],
      "name": "OwnershipTransferred",
      "type": "event"
    },
    {
      "anonymous": false,
      "inputs": [
        {
          "indexed": false,
          "internalType": "uint256",
          "name": "serviceId",
          "type": "uint256"
        },
        {
          "indexed": false,
          "internalType": "uint256",
          "name": "ownerId",
          "type": "uint256"
        },
        {
          "indexed": false,
          "internalType": "string",
          "name": "dataUri",
          "type": "string"
        },
        {
          "indexed": false,
          "internalType": "enum TalentLayerService.ProposalStatus",
          "name": "status",
          "type": "uint8"
        },
        {
          "indexed": false,
          "internalType": "address",
          "name": "rateToken",
          "type": "address"
        },
        {
          "indexed": false,
          "internalType": "uint256",
          "name": "rateAmount",
          "type": "uint256"
        },
        {
          "indexed": false,
          "internalType": "uint256",
          "name": "platformId",
          "type": "uint256"
        },
        {
          "indexed": false,
          "internalType": "uint256",
          "name": "expirationDate",
          "type": "uint256"
        }
      ],
      "name": "ProposalCreated",
      "type": "event"
    },
    {
      "anonymous": false,
      "inputs": [
        {
          "indexed": false,
          "internalType": "uint256",
          "name": "serviceId",
          "type": "uint256"
        },
        {
          "indexed": false,
          "internalType": "uint256",
          "name": "ownerId",
          "type": "uint256"
        },
        {
          "indexed": false,
          "internalType": "string",
          "name": "dataUri",
          "type": "string"
        },
        {
          "indexed": false,
          "internalType": "enum TalentLayerService.ProposalStatus",
          "name": "status",
          "type": "uint8"
        },
        {
          "indexed": false,
          "internalType": "uint256",
          "name": "rateAmount",
          "type": "uint256"
        },
        {
          "indexed": false,
          "internalType": "uint256",
          "name": "platformId",
          "type": "uint256"
        },
        {
          "indexed": false,
          "internalType": "uint256",
          "name": "expirationDate",
          "type": "uint256"
        },
        {
          "indexed": false,
          "internalType": "uint256",
          "name": "referrerId",
          "type": "uint256"
        }
      ],
      "name": "ProposalCreatedWithoutToken",
      "type": "event"
    },
    {
      "anonymous": false,
      "inputs": [
        {
          "indexed": false,
          "internalType": "uint256",
          "name": "serviceId",
          "type": "uint256"
        },
        {
          "indexed": false,
          "internalType": "uint256",
          "name": "ownerId",
          "type": "uint256"
        },
        {
          "indexed": false,
          "internalType": "string",
          "name": "dataUri",
          "type": "string"
        },
        {
          "indexed": false,
          "internalType": "address",
          "name": "rateToken",
          "type": "address"
        },
        {
          "indexed": false,
          "internalType": "uint256",
          "name": "rateAmount",
          "type": "uint256"
        },
        {
          "indexed": false,
          "internalType": "uint256",
          "name": "expirationDate",
          "type": "uint256"
        }
      ],
      "name": "ProposalUpdated",
      "type": "event"
    },
    {
      "anonymous": false,
      "inputs": [
        {
          "indexed": false,
          "internalType": "uint256",
          "name": "serviceId",
          "type": "uint256"
        },
        {
          "indexed": false,
          "internalType": "uint256",
          "name": "ownerId",
          "type": "uint256"
        },
        {
          "indexed": false,
          "internalType": "string",
          "name": "dataUri",
          "type": "string"
        },
        {
          "indexed": false,
          "internalType": "uint256",
          "name": "rateAmount",
          "type": "uint256"
        },
        {
          "indexed": false,
          "internalType": "uint256",
          "name": "expirationDate",
          "type": "uint256"
        },
        {
          "indexed": false,
          "internalType": "uint256",
          "name": "referrerId",
          "type": "uint256"
        }
      ],
      "name": "ProposalUpdatedWithoutToken",
      "type": "event"
    },
    {
      "anonymous": false,
      "inputs": [
        {
          "indexed": true,
          "internalType": "bytes32",
          "name": "role",
          "type": "bytes32"
        },
        {
          "indexed": true,
          "internalType": "bytes32",
          "name": "previousAdminRole",
          "type": "bytes32"
        },
        {
          "indexed": true,
          "internalType": "bytes32",
          "name": "newAdminRole",
          "type": "bytes32"
        }
      ],
      "name": "RoleAdminChanged",
      "type": "event"
    },
    {
      "anonymous": false,
      "inputs": [
        {
          "indexed": true,
          "internalType": "bytes32",
          "name": "role",
          "type": "bytes32"
        },
        {
          "indexed": true,
          "internalType": "address",
          "name": "account",
          "type": "address"
        },
        {
          "indexed": true,
          "internalType": "address",
          "name": "sender",
          "type": "address"
        }
      ],
      "name": "RoleGranted",
      "type": "event"
    },
    {
      "anonymous": false,
      "inputs": [
        {
          "indexed": true,
          "internalType": "bytes32",
          "name": "role",
          "type": "bytes32"
        },
        {
          "indexed": true,
          "internalType": "address",
          "name": "account",
          "type": "address"
        },
        {
          "indexed": true,
          "internalType": "address",
          "name": "sender",
          "type": "address"
        }
      ],
      "name": "RoleRevoked",
      "type": "event"
    },
    {
      "anonymous": false,
      "inputs": [
        {
          "indexed": false,
          "internalType": "uint256",
          "name": "id",
          "type": "uint256"
        }
      ],
      "name": "ServiceCancelled",
      "type": "event"
    },
    {
      "anonymous": false,
      "inputs": [
        {
          "indexed": false,
          "internalType": "uint256",
          "name": "id",
          "type": "uint256"
        },
        {
          "indexed": false,
          "internalType": "uint256",
          "name": "ownerId",
          "type": "uint256"
        },
        {
          "indexed": false,
          "internalType": "uint256",
          "name": "platformId",
          "type": "uint256"
        },
        {
          "indexed": false,
          "internalType": "string",
          "name": "dataUri",
          "type": "string"
        }
      ],
      "name": "ServiceCreated",
      "type": "event"
    },
    {
      "anonymous": false,
      "inputs": [
        {
          "indexed": true,
          "internalType": "uint256",
          "name": "id",
          "type": "uint256"
        },
        {
          "indexed": false,
          "internalType": "uint256",
          "name": "ownerId",
          "type": "uint256"
        },
        {
          "indexed": false,
          "internalType": "uint256",
          "name": "platformId",
          "type": "uint256"
        },
        {
          "indexed": false,
          "internalType": "string",
          "name": "dataUri",
          "type": "string"
        },
        {
          "indexed": false,
          "internalType": "address",
          "name": "token",
          "type": "address"
        },
        {
          "indexed": false,
          "internalType": "uint256",
          "name": "referralAmount",
          "type": "uint256"
        }
      ],
      "name": "ServiceCreatedWithReferral",
      "type": "event"
    },
    {
      "anonymous": false,
      "inputs": [
        {
          "indexed": true,
          "internalType": "uint256",
          "name": "id",
          "type": "uint256"
        },
        {
          "indexed": false,
          "internalType": "string",
          "name": "dataUri",
          "type": "string"
        }
      ],
      "name": "ServiceDetailedUpdated",
      "type": "event"
    },
    {
      "anonymous": false,
      "inputs": [
        {
          "indexed": true,
          "internalType": "uint256",
          "name": "id",
          "type": "uint256"
        },
        {
          "indexed": false,
          "internalType": "string",
          "name": "dataUri",
          "type": "string"
        },
        {
          "indexed": false,
          "internalType": "uint256",
          "name": "referralAmount",
          "type": "uint256"
        },
        {
          "indexed": false,
          "internalType": "address",
          "name": "token",
          "type": "address"
        }
      ],
      "name": "ServiceUpdated",
      "type": "event"
    },
    {
      "anonymous": false,
      "inputs": [
        {
          "indexed": false,
          "internalType": "address",
          "name": "forwarder",
          "type": "address"
        }
      ],
      "name": "TrustedForwarderAdded",
      "type": "event"
    },
    {
      "anonymous": false,
      "inputs": [
        {
          "indexed": false,
          "internalType": "address",
          "name": "forwarder",
          "type": "address"
        }
      ],
      "name": "TrustedForwarderRemoved",
      "type": "event"
    },
    {
      "anonymous": false,
      "inputs": [
        {
          "indexed": true,
          "internalType": "address",
          "name": "implementation",
          "type": "address"
        }
      ],
      "name": "Upgraded",
      "type": "event"
    },
    {
      "inputs": [],
      "name": "DEFAULT_ADMIN_ROLE",
      "outputs": [
        {
          "internalType": "bytes32",
          "name": "",
          "type": "bytes32"
        }
      ],
      "stateMutability": "view",
      "type": "function"
    },
    {
      "inputs": [],
      "name": "ESCROW_ROLE",
      "outputs": [
        {
          "internalType": "bytes32",
          "name": "",
          "type": "bytes32"
        }
      ],
      "stateMutability": "view",
      "type": "function"
    },
    {
      "inputs": [
        {
          "internalType": "address",
          "name": "_forwarder",
          "type": "address"
        }
      ],
      "name": "addTrustedForwarder",
      "outputs": [],
      "stateMutability": "nonpayable",
      "type": "function"
    },
    {
      "inputs": [
        {
          "internalType": "uint256",
          "name": "_serviceId",
          "type": "uint256"
        },
        {
          "internalType": "uint256",
          "name": "_proposalId",
          "type": "uint256"
        },
        {
          "internalType": "uint256",
          "name": "_transactionId",
          "type": "uint256"
        }
      ],
      "name": "afterDeposit",
      "outputs": [],
      "stateMutability": "nonpayable",
      "type": "function"
    },
    {
      "inputs": [
        {
          "internalType": "uint256",
          "name": "_serviceId",
          "type": "uint256"
        },
        {
          "internalType": "uint256",
          "name": "_releasedAmount",
          "type": "uint256"
        }
      ],
      "name": "afterFullPayment",
      "outputs": [],
      "stateMutability": "nonpayable",
      "type": "function"
    },
    {
      "inputs": [
        {
          "internalType": "address",
          "name": "",
          "type": "address"
        }
      ],
      "name": "allowedTokenList",
      "outputs": [
        {
          "internalType": "bool",
          "name": "isWhitelisted",
          "type": "bool"
        },
        {
          "internalType": "uint256",
          "name": "minimumTransactionAmount",
          "type": "uint256"
        }
      ],
      "stateMutability": "view",
      "type": "function"
    },
    {
      "inputs": [
        {
          "internalType": "uint256",
          "name": "_profileId",
          "type": "uint256"
        },
        {
          "internalType": "uint256",
          "name": "_serviceId",
          "type": "uint256"
        }
      ],
      "name": "cancelService",
      "outputs": [],
      "stateMutability": "nonpayable",
      "type": "function"
    },
    {
      "inputs": [
        {
          "internalType": "uint256",
          "name": "_profileId",
          "type": "uint256"
        },
        {
          "internalType": "uint256",
          "name": "_serviceId",
          "type": "uint256"
        },
        {
          "internalType": "uint256",
          "name": "_rateAmount",
          "type": "uint256"
        },
        {
          "internalType": "uint256",
          "name": "_platformId",
          "type": "uint256"
        },
        {
          "internalType": "string",
          "name": "_dataUri",
          "type": "string"
        },
        {
          "internalType": "uint256",
          "name": "_expirationDate",
          "type": "uint256"
        },
        {
          "internalType": "bytes",
          "name": "_signature",
          "type": "bytes"
        }
      ],
      "name": "createProposal",
      "outputs": [],
      "stateMutability": "payable",
      "type": "function"
    },
    {
      "inputs": [
        {
          "internalType": "uint256",
          "name": "_profileId",
          "type": "uint256"
        },
        {
          "internalType": "uint256",
          "name": "_serviceId",
          "type": "uint256"
        },
        {
          "internalType": "uint256",
          "name": "_rateAmount",
          "type": "uint256"
        },
        {
          "internalType": "uint256",
          "name": "_platformId",
          "type": "uint256"
        },
        {
          "internalType": "string",
          "name": "_dataUri",
          "type": "string"
        },
        {
          "internalType": "uint256",
          "name": "_expirationDate",
          "type": "uint256"
        },
        {
          "internalType": "bytes",
          "name": "_signature",
          "type": "bytes"
        },
        {
          "internalType": "uint256",
          "name": "_referrerId",
          "type": "uint256"
        }
      ],
      "name": "createProposalWithReferrer",
      "outputs": [],
      "stateMutability": "payable",
      "type": "function"
    },
    {
      "inputs": [
        {
          "internalType": "uint256",
          "name": "_profileId",
          "type": "uint256"
        },
        {
          "internalType": "uint256",
          "name": "_platformId",
          "type": "uint256"
        },
        {
          "internalType": "string",
          "name": "_dataUri",
          "type": "string"
        },
        {
          "internalType": "bytes",
          "name": "_signature",
          "type": "bytes"
        },
        {
          "internalType": "address",
          "name": "_token",
          "type": "address"
        }
      ],
      "name": "createService",
      "outputs": [
        {
          "internalType": "uint256",
          "name": "",
          "type": "uint256"
        }
      ],
      "stateMutability": "payable",
      "type": "function"
    },
    {
      "inputs": [
        {
          "internalType": "uint256",
          "name": "_profileId",
          "type": "uint256"
        },
        {
          "internalType": "uint256",
          "name": "_platformId",
          "type": "uint256"
        },
        {
          "internalType": "string",
          "name": "_dataUri",
          "type": "string"
        },
        {
          "internalType": "bytes",
          "name": "_signature",
          "type": "bytes"
        },
        {
          "internalType": "address",
          "name": "_token",
          "type": "address"
        },
        {
          "internalType": "uint256",
          "name": "_referralAmount",
          "type": "uint256"
        }
      ],
      "name": "createServiceWithReferral",
      "outputs": [
        {
          "internalType": "uint256",
          "name": "",
          "type": "uint256"
        }
      ],
      "stateMutability": "payable",
      "type": "function"
    },
    {
      "inputs": [
        {
          "internalType": "uint256",
          "name": "_serviceId",
          "type": "uint256"
        },
        {
          "internalType": "uint256",
          "name": "_proposalId",
          "type": "uint256"
        }
      ],
      "name": "getProposal",
      "outputs": [
        {
          "components": [
            {
              "internalType": "enum TalentLayerService.ProposalStatus",
              "name": "status",
              "type": "uint8"
            },
            {
              "internalType": "uint256",
              "name": "ownerId",
              "type": "uint256"
            },
            {
              "internalType": "address",
              "name": "rateToken",
              "type": "address"
            },
            {
              "internalType": "uint256",
              "name": "rateAmount",
              "type": "uint256"
            },
            {
              "internalType": "uint256",
              "name": "platformId",
              "type": "uint256"
            },
            {
              "internalType": "string",
              "name": "dataUri",
              "type": "string"
            },
            {
              "internalType": "uint256",
              "name": "expirationDate",
              "type": "uint256"
            },
            {
              "internalType": "uint256",
              "name": "referrerId",
              "type": "uint256"
            }
          ],
          "internalType": "struct TalentLayerService.Proposal",
          "name": "",
          "type": "tuple"
        }
      ],
      "stateMutability": "view",
      "type": "function"
    },
    {
      "inputs": [
        {
          "internalType": "bytes32",
          "name": "role",
          "type": "bytes32"
        }
      ],
      "name": "getRoleAdmin",
      "outputs": [
        {
          "internalType": "bytes32",
          "name": "",
          "type": "bytes32"
        }
      ],
      "stateMutability": "view",
      "type": "function"
    },
    {
      "inputs": [
        {
          "internalType": "uint256",
          "name": "_serviceId",
          "type": "uint256"
        }
      ],
      "name": "getService",
      "outputs": [
        {
          "components": [
            {
              "internalType": "enum TalentLayerService.Status",
              "name": "status",
              "type": "uint8"
            },
            {
              "internalType": "uint256",
              "name": "ownerId",
              "type": "uint256"
            },
            {
              "internalType": "uint256",
              "name": "acceptedProposalId",
              "type": "uint256"
            },
            {
              "internalType": "string",
              "name": "dataUri",
              "type": "string"
            },
            {
              "internalType": "uint256",
              "name": "transactionId",
              "type": "uint256"
            },
            {
              "internalType": "uint256",
              "name": "platformId",
              "type": "uint256"
            },
            {
              "internalType": "address",
              "name": "token",
              "type": "address"
            },
            {
              "internalType": "uint256",
              "name": "referralAmount",
              "type": "uint256"
            }
          ],
          "internalType": "struct TalentLayerService.Service",
          "name": "",
          "type": "tuple"
        }
      ],
      "stateMutability": "view",
      "type": "function"
    },
    {
      "inputs": [
        {
          "internalType": "uint256",
          "name": "_serviceId",
          "type": "uint256"
        },
        {
          "internalType": "uint256",
          "name": "_proposalId",
          "type": "uint256"
        }
      ],
      "name": "getServiceAndProposal",
      "outputs": [
        {
          "components": [
            {
              "internalType": "enum TalentLayerService.Status",
              "name": "status",
              "type": "uint8"
            },
            {
              "internalType": "uint256",
              "name": "ownerId",
              "type": "uint256"
            },
            {
              "internalType": "uint256",
              "name": "acceptedProposalId",
              "type": "uint256"
            },
            {
              "internalType": "string",
              "name": "dataUri",
              "type": "string"
            },
            {
              "internalType": "uint256",
              "name": "transactionId",
              "type": "uint256"
            },
            {
              "internalType": "uint256",
              "name": "platformId",
              "type": "uint256"
            },
            {
              "internalType": "address",
              "name": "token",
              "type": "address"
            },
            {
              "internalType": "uint256",
              "name": "referralAmount",
              "type": "uint256"
            }
          ],
          "internalType": "struct TalentLayerService.Service",
          "name": "",
          "type": "tuple"
        },
        {
          "components": [
            {
              "internalType": "enum TalentLayerService.ProposalStatus",
              "name": "status",
              "type": "uint8"
            },
            {
              "internalType": "uint256",
              "name": "ownerId",
              "type": "uint256"
            },
            {
              "internalType": "address",
              "name": "rateToken",
              "type": "address"
            },
            {
              "internalType": "uint256",
              "name": "rateAmount",
              "type": "uint256"
            },
            {
              "internalType": "uint256",
              "name": "platformId",
              "type": "uint256"
            },
            {
              "internalType": "string",
              "name": "dataUri",
              "type": "string"
            },
            {
              "internalType": "uint256",
              "name": "expirationDate",
              "type": "uint256"
            },
            {
              "internalType": "uint256",
              "name": "referrerId",
              "type": "uint256"
            }
          ],
          "internalType": "struct TalentLayerService.Proposal",
          "name": "",
          "type": "tuple"
        }
      ],
      "stateMutability": "view",
      "type": "function"
    },
    {
      "inputs": [
        {
          "internalType": "bytes32",
          "name": "role",
          "type": "bytes32"
        },
        {
          "internalType": "address",
          "name": "account",
          "type": "address"
        }
      ],
      "name": "grantRole",
      "outputs": [],
      "stateMutability": "nonpayable",
      "type": "function"
    },
    {
      "inputs": [
        {
          "internalType": "bytes32",
          "name": "role",
          "type": "bytes32"
        },
        {
          "internalType": "address",
          "name": "account",
          "type": "address"
        }
      ],
      "name": "hasRole",
      "outputs": [
        {
          "internalType": "bool",
          "name": "",
          "type": "bool"
        }
      ],
      "stateMutability": "view",
      "type": "function"
    },
    {
      "inputs": [
        {
          "internalType": "address",
          "name": "_talentLayerIdAddress",
          "type": "address"
        },
        {
          "internalType": "address",
          "name": "_talentLayerPlatformIdAddress",
          "type": "address"
        }
      ],
      "name": "initialize",
      "outputs": [],
      "stateMutability": "nonpayable",
      "type": "function"
    },
    {
      "inputs": [
        {
          "internalType": "address",
          "name": "_tokenAddress",
          "type": "address"
        }
      ],
      "name": "isTokenAllowed",
      "outputs": [
        {
          "internalType": "bool",
          "name": "",
          "type": "bool"
        }
      ],
      "stateMutability": "view",
      "type": "function"
    },
    {
      "inputs": [
        {
          "internalType": "address",
          "name": "forwarder",
          "type": "address"
        }
      ],
      "name": "isTrustedForwarder",
      "outputs": [
        {
          "internalType": "bool",
          "name": "",
          "type": "bool"
        }
      ],
      "stateMutability": "view",
      "type": "function"
    },
    {
      "inputs": [],
      "name": "minCompletionPercentage",
      "outputs": [
        {
          "internalType": "uint256",
          "name": "",
          "type": "uint256"
        }
      ],
      "stateMutability": "view",
      "type": "function"
    },
    {
      "inputs": [],
      "name": "nextServiceId",
      "outputs": [
        {
          "internalType": "uint256",
          "name": "",
          "type": "uint256"
        }
      ],
      "stateMutability": "view",
      "type": "function"
    },
    {
      "inputs": [],
      "name": "owner",
      "outputs": [
        {
          "internalType": "address",
          "name": "",
          "type": "address"
        }
      ],
      "stateMutability": "view",
      "type": "function"
    },
    {
      "inputs": [
        {
          "internalType": "uint256",
          "name": "",
          "type": "uint256"
        }
      ],
      "name": "proposalNonce",
      "outputs": [
        {
          "internalType": "uint256",
          "name": "",
          "type": "uint256"
        }
      ],
      "stateMutability": "view",
      "type": "function"
    },
    {
      "inputs": [
        {
          "internalType": "uint256",
          "name": "",
          "type": "uint256"
        },
        {
          "internalType": "uint256",
          "name": "",
          "type": "uint256"
        }
      ],
      "name": "proposals",
      "outputs": [
        {
          "internalType": "enum TalentLayerService.ProposalStatus",
          "name": "status",
          "type": "uint8"
        },
        {
          "internalType": "uint256",
          "name": "ownerId",
          "type": "uint256"
        },
        {
          "internalType": "address",
          "name": "rateToken",
          "type": "address"
        },
        {
          "internalType": "uint256",
          "name": "rateAmount",
          "type": "uint256"
        },
        {
          "internalType": "uint256",
          "name": "platformId",
          "type": "uint256"
        },
        {
          "internalType": "string",
          "name": "dataUri",
          "type": "string"
        },
        {
          "internalType": "uint256",
          "name": "expirationDate",
          "type": "uint256"
        },
        {
          "internalType": "uint256",
          "name": "referrerId",
          "type": "uint256"
        }
      ],
      "stateMutability": "view",
      "type": "function"
    },
    {
      "inputs": [],
      "name": "proxiableUUID",
      "outputs": [
        {
          "internalType": "bytes32",
          "name": "",
          "type": "bytes32"
        }
      ],
      "stateMutability": "view",
      "type": "function"
    },
    {
      "inputs": [
        {
          "internalType": "address",
          "name": "_forwarder",
          "type": "address"
        }
      ],
      "name": "removeTrustedForwarder",
      "outputs": [],
      "stateMutability": "nonpayable",
      "type": "function"
    },
    {
      "inputs": [],
      "name": "renounceOwnership",
      "outputs": [],
      "stateMutability": "nonpayable",
      "type": "function"
    },
    {
      "inputs": [
        {
          "internalType": "bytes32",
          "name": "role",
          "type": "bytes32"
        },
        {
          "internalType": "address",
          "name": "account",
          "type": "address"
        }
      ],
      "name": "renounceRole",
      "outputs": [],
      "stateMutability": "nonpayable",
      "type": "function"
    },
    {
      "inputs": [
        {
          "internalType": "bytes32",
          "name": "role",
          "type": "bytes32"
        },
        {
          "internalType": "address",
          "name": "account",
          "type": "address"
        }
      ],
      "name": "revokeRole",
      "outputs": [],
      "stateMutability": "nonpayable",
      "type": "function"
    },
    {
      "inputs": [
        {
          "internalType": "uint256",
          "name": "",
          "type": "uint256"
        }
      ],
      "name": "serviceNonce",
      "outputs": [
        {
          "internalType": "uint256",
          "name": "",
          "type": "uint256"
        }
      ],
      "stateMutability": "view",
      "type": "function"
    },
    {
      "inputs": [
        {
          "internalType": "uint256",
          "name": "",
          "type": "uint256"
        }
      ],
      "name": "services",
      "outputs": [
        {
          "internalType": "enum TalentLayerService.Status",
          "name": "status",
          "type": "uint8"
        },
        {
          "internalType": "uint256",
          "name": "ownerId",
          "type": "uint256"
        },
        {
          "internalType": "uint256",
          "name": "acceptedProposalId",
          "type": "uint256"
        },
        {
          "internalType": "string",
          "name": "dataUri",
          "type": "string"
        },
        {
          "internalType": "uint256",
          "name": "transactionId",
          "type": "uint256"
        },
        {
          "internalType": "uint256",
          "name": "platformId",
          "type": "uint256"
        },
        {
          "internalType": "address",
          "name": "token",
          "type": "address"
        },
        {
          "internalType": "uint256",
          "name": "referralAmount",
          "type": "uint256"
        }
      ],
      "stateMutability": "view",
      "type": "function"
    },
    {
      "inputs": [
        {
          "internalType": "bytes4",
          "name": "interfaceId",
          "type": "bytes4"
        }
      ],
      "name": "supportsInterface",
      "outputs": [
        {
          "internalType": "bool",
          "name": "",
          "type": "bool"
        }
      ],
      "stateMutability": "view",
      "type": "function"
    },
    {
      "inputs": [],
      "name": "talentLayerPlatformIdContract",
      "outputs": [
        {
          "internalType": "contract ITalentLayerPlatformID",
          "name": "",
          "type": "address"
        }
      ],
      "stateMutability": "view",
      "type": "function"
    },
    {
      "inputs": [
        {
          "internalType": "address",
          "name": "newOwner",
          "type": "address"
        }
      ],
      "name": "transferOwnership",
      "outputs": [],
      "stateMutability": "nonpayable",
      "type": "function"
    },
    {
      "inputs": [
        {
          "internalType": "address",
          "name": "_tokenAddress",
          "type": "address"
        },
        {
          "internalType": "bool",
          "name": "_isWhitelisted",
          "type": "bool"
        },
        {
          "internalType": "uint256",
          "name": "_minimumTransactionAmount",
          "type": "uint256"
        }
      ],
      "name": "updateAllowedTokenList",
      "outputs": [],
      "stateMutability": "nonpayable",
      "type": "function"
    },
    {
      "inputs": [
        {
          "internalType": "uint256",
          "name": "_minCompletionPercentage",
          "type": "uint256"
        }
      ],
      "name": "updateMinCompletionPercentage",
      "outputs": [],
      "stateMutability": "nonpayable",
      "type": "function"
    },
    {
      "inputs": [
        {
          "internalType": "uint256",
          "name": "_profileId",
          "type": "uint256"
        },
        {
          "internalType": "uint256",
          "name": "_serviceId",
          "type": "uint256"
        },
        {
          "internalType": "uint256",
          "name": "_rateAmount",
          "type": "uint256"
        },
        {
          "internalType": "string",
          "name": "_dataUri",
          "type": "string"
        },
        {
          "internalType": "uint256",
          "name": "_expirationDate",
          "type": "uint256"
        },
        {
          "internalType": "uint256",
          "name": "_referrerId",
          "type": "uint256"
        }
      ],
      "name": "updateProposal",
      "outputs": [],
      "stateMutability": "nonpayable",
      "type": "function"
    },
    {
      "inputs": [
        {
          "internalType": "uint256",
          "name": "_profileId",
          "type": "uint256"
        },
        {
          "internalType": "uint256",
          "name": "_serviceId",
          "type": "uint256"
        },
        {
          "internalType": "uint256",
          "name": "_referralAmount",
          "type": "uint256"
        },
        {
          "internalType": "address",
          "name": "_token",
          "type": "address"
        },
        {
          "internalType": "string",
          "name": "_dataUri",
          "type": "string"
        }
      ],
      "name": "updateService",
      "outputs": [],
      "stateMutability": "nonpayable",
      "type": "function"
    },
    {
      "inputs": [
        {
          "internalType": "address",
          "name": "newImplementation",
          "type": "address"
        }
      ],
      "name": "upgradeTo",
      "outputs": [],
      "stateMutability": "nonpayable",
      "type": "function"
    },
    {
      "inputs": [
        {
          "internalType": "address",
          "name": "newImplementation",
          "type": "address"
        },
        {
          "internalType": "bytes",
          "name": "data",
          "type": "bytes"
        }
      ],
      "name": "upgradeToAndCall",
      "outputs": [],
      "stateMutability": "payable",
      "type": "function"
    }
  ],
  "bytecode": "0x60a0604052306080523480156200001557600080fd5b506200002062000026565b620000e8565b600054610100900460ff1615620000935760405162461bcd60e51b815260206004820152602760248201527f496e697469616c697a61626c653a20636f6e747261637420697320696e697469604482015266616c697a696e6760c81b606482015260840160405180910390fd5b60005460ff9081161015620000e6576000805460ff191660ff9081179091556040519081527f7f26b83ff96e1f2b6a682f133852f6798a09c465da95921460cefb38474024989060200160405180910390a15b565b608051614a0662000120600039600081816112c201528181611302015281816115b9015281816115f901526116880152614a066000f3fe6080604052600436106102465760003560e01c80636ce76f3011610139578063c22c4f43116100b6578063ec3a05b81161007a578063ec3a05b814610764578063ef0e239b14610777578063f2fde38b146107a4578063f5df37c9146107c4578063f6c53d9b146107d7578063f9eaee0d146107ee57600080fd5b8063c22c4f4314610680578063c2cfee27146106b4578063ccaa7d2a146106e8578063d4eee1fc14610716578063d547741f1461074457600080fd5b806391d14854116100fd57806391d14854146105de578063a217fddf146105fe578063a7d5eaea14610613578063aba2100914610633578063b5735c1e1461066057600080fd5b80636ce76f3014610505578063715018a61461053957806371da85f91461054e5780637c5a72cd146105a05780638da5cb5b146105c057600080fd5b80632f2ff15d116101c7578063485cc9551161018b578063485cc955146104645780634f1ef2861461048457806352d1902d14610497578063572b6c05146104ac5780635cdb8435146104e557600080fd5b80632f2ff15d146103c457806336568abe146103e45780633659cfe6146104045780633751d89c146104245780633ca2ad6f1461044457600080fd5b80631db087ff1161020e5780631db087ff14610320578063248a9ca31461034e57806326d006681461037e57806328d3c4fe1461039e5780632b6f2869146103b157600080fd5b806301ffc9a71461024b578063089b7c73146102805780631499f9e6146102a2578063154664ed146102db578063156b39aa146102fb575b600080fd5b34801561025757600080fd5b5061026b610266366004613a5b565b610828565b60405190151581526020015b60405180910390f35b34801561028c57600080fd5b506102a061029b366004613a85565b61085f565b005b3480156102ae57600080fd5b50610130546102c3906001600160a01b031681565b6040516001600160a01b039091168152602001610277565b3480156102e757600080fd5b506102a06102f6366004613ae9565b610a02565b34801561030757600080fd5b506103126101365481565b604051908152602001610277565b34801561032c57600080fd5b5061031261033b366004613b59565b6101336020526000908152604090205481565b34801561035a57600080fd5b50610312610369366004613b59565b600090815260fc602052604090206001015490565b34801561038a57600080fd5b506102a0610399366004613b87565b610cb7565b6103126103ac366004613ba4565b610d1a565b6102a06103bf366004613c3b565b610f39565b3480156103d057600080fd5b506102a06103df366004613cdd565b611200565b3480156103f057600080fd5b506102a06103ff366004613cdd565b61122a565b34801561041057600080fd5b506102a061041f366004613b87565b6112b8565b34801561043057600080fd5b506102a061043f366004613b87565b611397565b34801561045057600080fd5b506102a061045f366004613b59565b6113f0565b34801561047057600080fd5b506102a061047f366004613d0d565b611438565b6102a0610492366004613d51565b6115af565b3480156104a357600080fd5b5061031261167b565b3480156104b857600080fd5b5061026b6104c7366004613b87565b6001600160a01b031660009081526065602052604090205460ff1690565b3480156104f157600080fd5b506102a0610500366004613e15565b61172e565b34801561051157600080fd5b506103127f2fdac322ee704ce09f0773f7f3f92eb98d5e7c836ee9c056cccd5f61041e5e3f81565b34801561054557600080fd5b506102a061197f565b34801561055a57600080fd5b50610589610569366004613b87565b610135602052600090815260409020805460019091015460ff9091169082565b604080519215158352602083019190915201610277565b3480156105ac57600080fd5b506102a06105bb366004613e96565b611993565b3480156105cc57600080fd5b506033546001600160a01b03166102c3565b3480156105ea57600080fd5b5061026b6105f9366004613cdd565b611a68565b34801561060a57600080fd5b50610312600081565b34801561061f57600080fd5b506102a061062e366004613ed7565b611a93565b34801561063f57600080fd5b5061065361064e366004613a85565b611b15565b6040516102779190613ff5565b34801561066c57600080fd5b506102a061067b366004613a85565b611c52565b34801561068c57600080fd5b506106a061069b366004613b59565b611cf7565b604051610277989796959493929190614018565b3480156106c057600080fd5b506106d46106cf366004613a85565b611dd4565b604051610277989796959493929190614076565b3480156106f457600080fd5b50610312610703366004613b59565b6101346020526000908152604090205481565b34801561072257600080fd5b50610736610731366004613a85565b611ebb565b604051610277929190614147565b34801561075057600080fd5b506102a061075f366004613cdd565b612131565b61031261077236600461416c565b612156565b34801561078357600080fd5b50610797610792366004613b59565b612380565b604051610277919061420c565b3480156107b057600080fd5b506102a06107bf366004613b87565b612500565b6102a06107d236600461421f565b612576565b3480156107e357600080fd5b5061031261012e5481565b3480156107fa57600080fd5b5061026b610809366004613b87565b6001600160a01b03166000908152610135602052604090205460ff1690565b60006001600160e01b03198216637965db0b60e01b148061085957506301ffc9a760e01b6001600160e01b03198316145b92915050565b61012f5482906001600160a01b0316632fa117e58261087c612851565b6040516001600160e01b031960e085901b16815260048101929092526001600160a01b03166024820152604401602060405180830381865afa1580156108c6573d6000803e3d6000fd5b505050506040513d601f19601f820116820180604052508101906108ea91906142cc565b61090f5760405162461bcd60e51b8152600401610906906142e9565b60405180910390fd5b600082815261013160205260409020600181015484146109615760405162461bcd60e51b815260206004820152600d60248201526c3737ba103a34329037bbb732b960991b6044820152606401610906565b6000815460ff16600481111561097957610979613f03565b146109be5760405162461bcd60e51b81526020600482015260156024820152741cdd185d1d5cc81b5d5cdd081899481bdc195b9959605a1b6044820152606401610906565b805460ff191660031781556040518381527f853aa4be1ac86f37acfc91d42b57f1fe895205aa6f8f9b7caa77ca257049ab1a9060200160405180910390a150505050565b61012f5487906001600160a01b0316632fa117e582610a1f612851565b6040516001600160e01b031960e085901b16815260048101929092526001600160a01b03166024820152604401602060405180830381865afa158015610a69573d6000803e3d6000fd5b505050506040513d601f19601f82011682018060405250810190610a8d91906142cc565b610aa95760405162461bcd60e51b8152600401610906906142e9565b60008781526101316020908152604080832061013283528184208c855290925282209091825460ff166004811115610ae357610ae3613f03565b14610b255760405162461bcd60e51b815260206004820152601260248201527114d95c9d9a58d9481b9bdd081bdc195b995960721b6044820152606401610906565b89816001015414610b685760405162461bcd60e51b815260206004820152600d60248201526c2737ba103a34329037bbb732b960991b6044820152606401610906565b602e8614610b885760405162461bcd60e51b815260040161090690614318565b6001815460ff166001811115610ba057610ba0613f03565b03610be15760405162461bcd60e51b8152602060048201526011602482015270105b1c9958591e481d985b1a59185d1959607a1b6044820152606401610906565b60068201546001600160a01b031660009081526101356020526040902060010154881015610c425760405162461bcd60e51b815260206004820152600e60248201526d416d6f756e7420746f6f206c6f7760901b6044820152606401610906565b6003810188905560058101610c588789836143bd565b5060068101859055600781018490556040517fa88be037662d2f39c82fc0ded6550530e1271d417223b107c2ef4d5d38cc703d90610ca3908b908d908b908b908e908c908c906144a7565b60405180910390a150505050505050505050565b610cbf612860565b6001600160a01b038116600081815260656020908152604091829020805460ff1916600117905590519182527f3ef8564460ada92419608d823c014975d98f8104d7d1e68c222967ac6814cd9791015b60405180910390a150565b61012f5460009088906001600160a01b0316632fa117e582610d3a612851565b6040516001600160e01b031960e085901b16815260048101929092526001600160a01b03166024820152604401602060405180830381865afa158015610d84573d6000803e3d6000fd5b505050506040513d601f19601f82011682018060405250810190610da891906142cc565b610dc45760405162461bcd60e51b8152600401610906906142e9565b610dd3898989898989896128d9565b61012e80549081906000610de6836144fc565b9091555050600081815261013160205260409020805460ff19168155600181018b905560038101610e18898b836143bd565b50600581018a90556006810180546001600160a01b0319166001600160a01b03871617905560008b81526101336020526040902054158015610e67575060008b81526101346020526040902054155b15610ecc5761012f546040516383ce205b60e01b8152600481018d90526001600160a01b03909116906383ce205b90602401600060405180830381600087803b158015610eb357600080fd5b505af1158015610ec7573d6000803e3d6000fd5b505050505b60008b815261013360205260408120805491610ee7836144fc565b91905055507f8f3fc1086abc1020f602edd700a9ae5801b250c9d110af9e54022d7cc5df7bee828c8c8c8c604051610f23959493929190614515565b60405180910390a1509998505050505050505050565b61012f5489906001600160a01b0316632fa117e582610f56612851565b6040516001600160e01b031960e085901b16815260048101929092526001600160a01b03166024820152604401602060405180830381865afa158015610fa0573d6000803e3d6000fd5b505050506040513d601f19601f82011682018060405250810190610fc491906142cc565b610fe05760405162461bcd60e51b8152600401610906906142e9565b610ff08a8a8a8a8a8a8989612ae2565b60408051610100810190915280600081526020018b815260200160006001600160a01b0316815260200189815260200188815260200187878080601f0160208091040260200160405190810160405280939291908181526020018383808284376000920182905250938552505050602080830188905260409283018290528c825261013281528282208e835290522081518154829060ff19166001838181111561109c5761109c613f03565b02179055506020820151600182015560408201516002820180546001600160a01b0319166001600160a01b03909216919091179055606082015160038201556080820151600482015560a082015160058201906110f99082614546565b5060c0820151600682015560e09091015160079091015560008a8152610133602052604090205415801561113a575060008a81526101346020526040902054155b1561119f5761012f546040516383ce205b60e01b8152600481018c90526001600160a01b03909116906383ce205b90602401600060405180830381600087803b15801561118657600080fd5b505af115801561119a573d6000803e3d6000fd5b505050505b60008a8152610134602052604081208054916111ba836144fc565b91905055507f16289a0cc7c29a09c916d6c3608c4e30344ccf2ea522ed2e3ad25c2b56c110be898b888860008d8d8b6000604051610ca399989796959493929190614606565b600082815260fc602052604090206001015461121b81612e57565b6112258383612e68565b505050565b611232612851565b6001600160a01b0316816001600160a01b0316146112aa5760405162461bcd60e51b815260206004820152602f60248201527f416363657373436f6e74726f6c3a2063616e206f6e6c792072656e6f756e636560448201526e103937b632b9903337b91039b2b63360891b6064820152608401610906565b6112b48282612eef565b5050565b6001600160a01b037f00000000000000000000000000000000000000000000000000000000000000001630036113005760405162461bcd60e51b81526004016109069061465d565b7f00000000000000000000000000000000000000000000000000000000000000006001600160a01b031661134960008051602061498a833981519152546001600160a01b031690565b6001600160a01b03161461136f5760405162461bcd60e51b8152600401610906906146a9565b61137881612f74565b6040805160008082526020820190925261139491839190612f7c565b50565b61139f612860565b6001600160a01b038116600081815260656020908152604091829020805460ff1916905590519182527fd2d636efcad0cea42e170256f4c5d8b1cd81e47b855557edaf44014e6cc4cee69101610d0f565b60006113fb81612e57565b6101368290556040518281527f577d7afcf67637a2f602cba220bbb292c1d715380dd011bfec748c3f641b2fd29060200160405180910390a15050565b600054610100900460ff16158080156114585750600054600160ff909116105b806114725750303b158015611472575060005460ff166001145b6114d55760405162461bcd60e51b815260206004820152602e60248201527f496e697469616c697a61626c653a20636f6e747261637420697320616c72656160448201526d191e481a5b9a5d1a585b1a5e995960921b6064820152608401610906565b6000805460ff1916600117905580156114f8576000805461ff0019166101001790555b6115006130e7565b611508613116565b611510613116565b611522600061151d612851565b61313d565b61012f80546001600160a01b038086166001600160a01b031992831617909255610130805492851692909116919091179055600161012e55611564601e6113f0565b8015611225576000805461ff0019169055604051600181527f7f26b83ff96e1f2b6a682f133852f6798a09c465da95921460cefb3847402498906020015b60405180910390a1505050565b6001600160a01b037f00000000000000000000000000000000000000000000000000000000000000001630036115f75760405162461bcd60e51b81526004016109069061465d565b7f00000000000000000000000000000000000000000000000000000000000000006001600160a01b031661164060008051602061498a833981519152546001600160a01b031690565b6001600160a01b0316146116665760405162461bcd60e51b8152600401610906906146a9565b61166f82612f74565b6112b482826001612f7c565b6000306001600160a01b037f0000000000000000000000000000000000000000000000000000000000000000161461171b5760405162461bcd60e51b815260206004820152603860248201527f555550535570677261646561626c653a206d757374206e6f742062652063616c60448201527f6c6564207468726f7567682064656c656761746563616c6c00000000000000006064820152608401610906565b5060008051602061498a83398151915290565b61012f5486906001600160a01b0316632fa117e58261174b612851565b6040516001600160e01b031960e085901b16815260048101929092526001600160a01b03166024820152604401602060405180830381865afa158015611795573d6000803e3d6000fd5b505050506040513d601f19601f820116820180604052508101906117b991906142cc565b6117d55760405162461bcd60e51b8152600401610906906142e9565b600086815261013160205260409020600181015488146118275760405162461bcd60e51b815260206004820152600d60248201526c2737ba103a34329037bbb732b960991b6044820152606401610906565b6000815460ff16600481111561183f5761183f613f03565b146118845760405162461bcd60e51b81526020600482015260156024820152741cdd185d1d5cc81b5d5cdd081899481bdc195b9959605a1b6044820152606401610906565b6001600160a01b0385166000908152610135602052604090205460ff166118e15760405162461bcd60e51b8152602060048201526011602482015270151bdad95b881b9bdd08185b1b1bddd959607a1b6044820152606401610906565b602e83146119015760405162461bcd60e51b815260040161090690614318565b600381016119108486836143bd565b50600781018690556006810180546001600160a01b0319166001600160a01b03871617905560405187907f28fa829815f1b7211c44ade0050d3930f8833364c2ae0c18d77bedc2ced9c3ab9061196d90879087908b908b906146f5565b60405180910390a25050505050505050565b611987612860565b6119916000613147565b565b61199b612860565b6001600160a01b0383161580156119b0575081155b156119fd5760405162461bcd60e51b815260206004820152601d60248201527f4f776e65722063616e27742072656d6f7665204f7820616464726573730000006044820152606401610906565b6001600160a01b03831660008181526101356020908152604091829020805460ff19168615159081178255600190910185905582519384529083015281018290527f42b585a1da1cff4b571e7a78aea1b4601b1d128de41a0feebd8a77aaf48b9d88906060016115a2565b600091825260fc602090815260408084206001600160a01b0393909316845291905290205460ff1690565b7f2fdac322ee704ce09f0773f7f3f92eb98d5e7c836ee9c056cccd5f61041e5e3f611abd81612e57565b60008481526101316020908152604080832061013283528184208785529092529091208154600160ff1991821681178455808301546002850155600484018690558254909183911682805b0217905550505050505050565b611b1d6139bd565b60008381526101326020908152604080832085845290915290819020815161010081019092528054829060ff166001811115611b5b57611b5b613f03565b6001811115611b6c57611b6c613f03565b81526001820154602082015260028201546001600160a01b03166040820152600382015460608201526004820154608082015260058201805460a090920191611bb49061433d565b80601f0160208091040260200160405190810160405280929190818152602001828054611be09061433d565b8015611c2d5780601f10611c0257610100808354040283529160200191611c2d565b820191906000526020600020905b815481529060010190602001808311611c1057829003601f168201915b5050505050815260200160068201548152602001600782015481525050905092915050565b7f2fdac322ee704ce09f0773f7f3f92eb98d5e7c836ee9c056cccd5f61041e5e3f611c7c81612e57565b6000838152610131602090815260408083206101328352818420600282015485529092528220600381015491929091611cb686606461472a565b611cc09190614741565b9050610136548110611cdc57825460ff19166002178355611cef565b8254600490849060ff1916600183611b08565b505050505050565b61013160205260009081526040902080546001820154600283015460038401805460ff909416949293919291611d2c9061433d565b80601f0160208091040260200160405190810160405280929190818152602001828054611d589061433d565b8015611da55780601f10611d7a57610100808354040283529160200191611da5565b820191906000526020600020905b815481529060010190602001808311611d8857829003601f168201915b505050600484015460058501546006860154600790960154949591949093506001600160a01b03909116915088565b61013260209081526000928352604080842090915290825290208054600182015460028301546003840154600485015460058601805460ff9096169694956001600160a01b03909416949293919291611e2c9061433d565b80601f0160208091040260200160405190810160405280929190818152602001828054611e589061433d565b8015611ea55780601f10611e7a57610100808354040283529160200191611ea5565b820191906000526020600020905b815481529060010190602001808311611e8857829003601f168201915b5050505050908060060154908060070154905088565b611ec3613a0c565b611ecb6139bd565b60008481526101316020526040808220815161010081019092528054829060ff166004811115611efd57611efd613f03565b6004811115611f0e57611f0e613f03565b81526020016001820154815260200160028201548152602001600382018054611f369061433d565b80601f0160208091040260200160405190810160405280929190818152602001828054611f629061433d565b8015611faf5780601f10611f8457610100808354040283529160200191611faf565b820191906000526020600020905b815481529060010190602001808311611f9257829003601f168201915b50505091835250506004820154602080830191909152600583015460408084019190915260068401546001600160a01b03166060840152600790930154608090920191909152600088815261013282528281208882529091528181208251610100810190935280549394509092829060ff16600181111561203257612032613f03565b600181111561204357612043613f03565b81526001820154602082015260028201546001600160a01b03166040820152600382015460608201526004820154608082015260058201805460a09092019161208b9061433d565b80601f01602080910402602001604051908101604052809291908181526020018280546120b79061433d565b80156121045780601f106120d957610100808354040283529160200191612104565b820191906000526020600020905b8154815290600101906020018083116120e757829003601f168201915b505050918352505060068201546020820152600790910154604090910152919350909150505b9250929050565b600082815260fc602052604090206001015461214c81612e57565b6112258383612eef565b61012f5460009089906001600160a01b0316632fa117e582612176612851565b6040516001600160e01b031960e085901b16815260048101929092526001600160a01b03166024820152604401602060405180830381865afa1580156121c0573d6000803e3d6000fd5b505050506040513d601f19601f820116820180604052508101906121e491906142cc565b6122005760405162461bcd60e51b8152600401610906906142e9565b61220f8a8a8a8a8a8a8a6128d9565b61012e80549081906000612222836144fc565b9091555050600081815261013160205260409020805460ff19168155600181018c9055600381016122548a8c836143bd565b50600581018b90556006810180546001600160a01b0319166001600160a01b0388161790556007810185905560008c815261013360205260409020541580156122aa575060008c81526101346020526040902054155b1561230f5761012f546040516383ce205b60e01b8152600481018e90526001600160a01b03909116906383ce205b90602401600060405180830381600087803b1580156122f657600080fd5b505af115801561230a573d6000803e3d6000fd5b505050505b60008c81526101336020526040812080549161232a836144fc565b9190505550817fd81631c5278947e7578ace67882f6a38af2d7e2fb4530b4b659c8e1cf1fe44728d8d8d8d8b8b60405161236996959493929190614763565b60405180910390a2509a9950505050505050505050565b612388613a0c565b61012e5482106123da5760405162461bcd60e51b815260206004820152601a60248201527f54686973207365727669636520646f65736e27742065786973740000000000006044820152606401610906565b6000828152610131602052604090819020815161010081019092528054829060ff16600481111561240d5761240d613f03565b600481111561241e5761241e613f03565b815260200160018201548152602001600282015481526020016003820180546124469061433d565b80601f01602080910402602001604051908101604052809291908181526020018280546124729061433d565b80156124bf5780601f10612494576101008083540402835291602001916124bf565b820191906000526020600020905b8154815290600101906020018083116124a257829003601f168201915b5050509183525050600482015460208201526005820154604082015260068201546001600160a01b0316606082015260079091015460809091015292915050565b612508612860565b6001600160a01b03811661256d5760405162461bcd60e51b815260206004820152602660248201527f4f776e61626c653a206e6577206f776e657220697320746865207a65726f206160448201526564647265737360d01b6064820152608401610906565b61139481613147565b61012f548a906001600160a01b0316632fa117e582612593612851565b6040516001600160e01b031960e085901b16815260048101929092526001600160a01b03166024820152604401602060405180830381865afa1580156125dd573d6000803e3d6000fd5b505050506040513d601f19601f8201168201806040525081019061260191906142cc565b61261d5760405162461bcd60e51b8152600401610906906142e9565b61262d8b8b8b8b8b8b8a8a612ae2565b60408051610100810190915280600081526020018c815260200160006001600160a01b031681526020018a815260200189815260200188888080601f0160208091040260200160405190810160405280939291908181526020018383808284376000920182905250938552505050602080830189905260409283018690528d825261013281528282208f835290522081518154829060ff1916600183818111156126d9576126d9613f03565b02179055506020820151600182015560408201516002820180546001600160a01b0319166001600160a01b03909216919091179055606082015160038201556080820151600482015560a082015160058201906127369082614546565b5060c0820151600682015560e09091015160079091015560008b81526101336020526040902054158015612777575060008b81526101346020526040902054155b156127dc5761012f546040516383ce205b60e01b8152600481018d90526001600160a01b03909116906383ce205b90602401600060405180830381600087803b1580156127c357600080fd5b505af11580156127d7573d6000803e3d6000fd5b505050505b60008b8152610134602052604081208054916127f7836144fc565b91905055507f16289a0cc7c29a09c916d6c3608c4e30344ccf2ea522ed2e3ad25c2b56c110be8a8c898960008e8e8c8a60405161283c99989796959493929190614606565b60405180910390a15050505050505050505050565b600061285b613199565b905090565b612868612851565b6001600160a01b03166128836033546001600160a01b031690565b6001600160a01b0316146119915760405162461bcd60e51b815260206004820181905260248201527f4f776e61626c653a2063616c6c6572206973206e6f7420746865206f776e65726044820152606401610906565b61013054604051638a98636360e01b8152600481018890526000916001600160a01b031690638a98636390602401602060405180830381865afa158015612924573d6000803e3d6000fd5b505050506040513d601f19601f8201168201806040525081019061294891906147a1565b905080341461298e5760405162461bcd60e51b81526020600482015260126024820152714e6f6e2d6d61746368696e672066756e647360701b6044820152606401610906565b602e85146129ae5760405162461bcd60e51b815260040161090690614318565b6001600160a01b0382166000908152610135602052604090205460ff16612a0b5760405162461bcd60e51b8152602060048201526011602482015270151bdad95b881b9bdd08185b1b1bddd959607a1b6044820152606401610906565b61013054604051631fff7f2760e11b8152600481018990526000916001600160a01b031690633ffefe4e90602401602060405180830381865afa158015612a56573d6000803e3d6000fd5b505050506040513d601f19601f82011682018060405250810190612a7a91906147ba565b90506001600160a01b03811615612ad757600089815261013360209081526040808320549051612ab1928d92918c918c91016147d7565b604051602081830303815290604052805190602001209050612ad5868683856131d2565b505b505050505050505050565b61013054604051634a7ab1d560e01b8152600481018790526000916001600160a01b031690634a7ab1d590602401602060405180830381865afa158015612b2d573d6000803e3d6000fd5b505050506040513d601f19601f82011682018060405250810190612b5191906147a1565b9050803414612b975760405162461bcd60e51b81526020600482015260126024820152714e6f6e2d6d61746368696e672066756e647360701b6044820152606401610906565b60008881526101316020908152604080832060068101546001600160a01b0316845261013590925290912060010154881015612c065760405162461bcd60e51b815260206004820152600e60248201526d416d6f756e7420746f6f206c6f7760901b6044820152606401610906565b6000815460ff166004811115612c1e57612c1e613f03565b14612c605760405162461bcd60e51b815260206004820152601260248201527114d95c9d9a58d9481b9bdd081bdc195b995960721b6044820152606401610906565b8060010154600003612ca85760405162461bcd60e51b815260206004820152601160248201527014d95c9d9a58d9481b9bdd08195e1a5cdd607a1b6044820152606401610906565b6000898152610132602090815260408083208d84529091529020600101548a9003612d0e5760405162461bcd60e51b81526020600482015260166024820152751c1c9bdc1bdcd85b08185b1c9958591e48195e1a5cdd60521b6044820152606401610906565b89816001015403612d6b5760405162461bcd60e51b815260206004820152602160248201527f63616e27742063726561746520666f7220796f7572206f776e207365727669636044820152606560f81b6064820152608401610906565b602e8514612d8b5760405162461bcd60e51b815260040161090690614318565b61013054604051631fff7f2760e11b8152600481018990526000916001600160a01b031690633ffefe4e90602401602060405180830381865afa158015612dd6573d6000803e3d6000fd5b505050506040513d601f19601f82011682018060405250810190612dfa91906147ba565b90506001600160a01b03811615612e4a5760008b8b8989604051602001612e249493929190614818565b604051602081830303815290604052805190602001209050612e48868683856131d2565b505b5050505050505050505050565b61139481612e63612851565b6132c6565b612e728282611a68565b6112b457600082815260fc602090815260408083206001600160a01b03851684529091529020805460ff19166001179055612eab612851565b6001600160a01b0316816001600160a01b0316837f2f8788117e7eff1d82e926ec794901d17c78024a50270940304540a733656f0d60405160405180910390a45050565b612ef98282611a68565b156112b457600082815260fc602090815260408083206001600160a01b03851684529091529020805460ff19169055612f30612851565b6001600160a01b0316816001600160a01b0316837ff6391f5c32d9c69d2a47ea670b442974b53935d1edc7fd64eb21e047a839171b60405160405180910390a45050565b611394612860565b7f4910fdfa16fed3260ed0e7147f7cc6da11a60208b5b9406d12a635614ffd91435460ff1615612faf576112258361331f565b826001600160a01b03166352d1902d6040518163ffffffff1660e01b8152600401602060405180830381865afa925050508015613009575060408051601f3d908101601f19168201909252613006918101906147a1565b60015b61306c5760405162461bcd60e51b815260206004820152602e60248201527f45524331393637557067726164653a206e657720696d706c656d656e7461746960448201526d6f6e206973206e6f74205555505360901b6064820152608401610906565b60008051602061498a83398151915281146130db5760405162461bcd60e51b815260206004820152602960248201527f45524331393637557067726164653a20756e737570706f727465642070726f786044820152681a58589b195555525160ba1b6064820152608401610906565b506112258383836133bb565b600054610100900460ff1661310e5760405162461bcd60e51b81526004016109069061485a565b6119916133e6565b600054610100900460ff166119915760405162461bcd60e51b81526004016109069061485a565b6112b48282612e68565b603380546001600160a01b038381166001600160a01b0319831681179093556040519116919082907f8be0079c531659141344cd1fd0a4f28419497f9722a3daafe3b4186f6b6457e090600090a35050565b6000601436108015906131bb57503360009081526065602052604090205460ff165b156131cd575060131936013560601c90565b503390565b600061322b836040517f19457468657265756d205369676e6564204d6573736167653a0a3332000000006020820152603c8101829052600090605c01604051602081830303815290604052805190602001209050919050565b9050600061326f8287878080601f01602080910402602001604051908101604052809392919081815260200183838082843760009201919091525061341d92505050565b9050806001600160a01b0316836001600160a01b031614611cef5760405162461bcd60e51b8152602060048201526011602482015270696e76616c6964207369676e617475726560781b6044820152606401610906565b6132d08282611a68565b6112b4576132dd81613441565b6132e8836020613453565b6040516020016132f99291906148a5565b60408051601f198184030181529082905262461bcd60e51b82526109069160040161491a565b6001600160a01b0381163b61338c5760405162461bcd60e51b815260206004820152602d60248201527f455243313936373a206e657720696d706c656d656e746174696f6e206973206e60448201526c1bdd08184818dbdb9d1c9858dd609a1b6064820152608401610906565b60008051602061498a83398151915280546001600160a01b0319166001600160a01b0392909216919091179055565b6133c4836135f6565b6000825111806133d15750805b15611225576133e08383613636565b50505050565b600054610100900460ff1661340d5760405162461bcd60e51b81526004016109069061485a565b611991613418612851565b613147565b600080600061342c858561372a565b915091506134398161376c565b509392505050565b60606108596001600160a01b03831660145b6060600061346283600261472a565b61346d90600261492d565b67ffffffffffffffff81111561348557613485613d3b565b6040519080825280601f01601f1916602001820160405280156134af576020820181803683370190505b509050600360fc1b816000815181106134ca576134ca614940565b60200101906001600160f81b031916908160001a905350600f60fb1b816001815181106134f9576134f9614940565b60200101906001600160f81b031916908160001a905350600061351d84600261472a565b61352890600161492d565b90505b60018111156135a0576f181899199a1a9b1b9c1cb0b131b232b360811b85600f166010811061355c5761355c614940565b1a60f81b82828151811061357257613572614940565b60200101906001600160f81b031916908160001a90535060049490941c9361359981614956565b905061352b565b5083156135ef5760405162461bcd60e51b815260206004820181905260248201527f537472696e67733a20686578206c656e67746820696e73756666696369656e746044820152606401610906565b9392505050565b6135ff8161331f565b6040516001600160a01b038216907fbc7cd75a20ee27fd9adebab32041f755214dbc6bffa90cc0225b39da2e5c2d3b90600090a250565b60606001600160a01b0383163b61369e5760405162461bcd60e51b815260206004820152602660248201527f416464726573733a2064656c65676174652063616c6c20746f206e6f6e2d636f6044820152651b9d1c9858dd60d21b6064820152608401610906565b600080846001600160a01b0316846040516136b9919061496d565b600060405180830381855af49150503d80600081146136f4576040519150601f19603f3d011682016040523d82523d6000602084013e6136f9565b606091505b509150915061372182826040518060600160405280602781526020016149aa602791396138b6565b95945050505050565b60008082516041036137605760208301516040840151606085015160001a613754878285856138cf565b9450945050505061212a565b5060009050600261212a565b600081600481111561378057613780613f03565b036137885750565b600181600481111561379c5761379c613f03565b036137e95760405162461bcd60e51b815260206004820152601860248201527f45434453413a20696e76616c6964207369676e617475726500000000000000006044820152606401610906565b60028160048111156137fd576137fd613f03565b0361384a5760405162461bcd60e51b815260206004820152601f60248201527f45434453413a20696e76616c6964207369676e6174757265206c656e677468006044820152606401610906565b600381600481111561385e5761385e613f03565b036113945760405162461bcd60e51b815260206004820152602260248201527f45434453413a20696e76616c6964207369676e6174757265202773272076616c604482015261756560f01b6064820152608401610906565b606083156138c55750816135ef565b6135ef8383613993565b6000807f7fffffffffffffffffffffffffffffff5d576e7357a4501ddfe92f46681b20a0831115613906575060009050600361398a565b6040805160008082526020820180845289905260ff881692820192909252606081018690526080810185905260019060a0016020604051602081039080840390855afa15801561395a573d6000803e3d6000fd5b5050604051601f1901519150506001600160a01b0381166139835760006001925092505061398a565b9150600090505b94509492505050565b8151156139a35781518083602001fd5b8060405162461bcd60e51b8152600401610906919061491a565b60408051610100810190915280600081526020016000815260200160006001600160a01b0316815260200160008152602001600081526020016060815260200160008152602001600081525090565b6040805161010081019091528060008152602001600081526020016000815260200160608152602001600081526020016000815260200160006001600160a01b03168152602001600081525090565b600060208284031215613a6d57600080fd5b81356001600160e01b0319811681146135ef57600080fd5b60008060408385031215613a9857600080fd5b50508035926020909101359150565b60008083601f840112613ab957600080fd5b50813567ffffffffffffffff811115613ad157600080fd5b60208301915083602082850101111561212a57600080fd5b600080600080600080600060c0888a031215613b0457600080fd5b873596506020880135955060408801359450606088013567ffffffffffffffff811115613b3057600080fd5b613b3c8a828b01613aa7565b989b979a50959895979660808701359660a0013595509350505050565b600060208284031215613b6b57600080fd5b5035919050565b6001600160a01b038116811461139457600080fd5b600060208284031215613b9957600080fd5b81356135ef81613b72565b600080600080600080600060a0888a031215613bbf57600080fd5b8735965060208801359550604088013567ffffffffffffffff80821115613be557600080fd5b613bf18b838c01613aa7565b909750955060608a0135915080821115613c0a57600080fd5b50613c178a828b01613aa7565b9094509250506080880135613c2b81613b72565b8091505092959891949750929550565b600080600080600080600080600060e08a8c031215613c5957600080fd5b8935985060208a0135975060408a0135965060608a0135955060808a013567ffffffffffffffff80821115613c8d57600080fd5b613c998d838e01613aa7565b909750955060a08c0135945060c08c0135915080821115613cb957600080fd5b50613cc68c828d01613aa7565b915080935050809150509295985092959850929598565b60008060408385031215613cf057600080fd5b823591506020830135613d0281613b72565b809150509250929050565b60008060408385031215613d2057600080fd5b8235613d2b81613b72565b91506020830135613d0281613b72565b634e487b7160e01b600052604160045260246000fd5b60008060408385031215613d6457600080fd5b8235613d6f81613b72565b9150602083013567ffffffffffffffff80821115613d8c57600080fd5b818501915085601f830112613da057600080fd5b813581811115613db257613db2613d3b565b604051601f8201601f19908116603f01168101908382118183101715613dda57613dda613d3b565b81604052828152886020848701011115613df357600080fd5b8260208601602083013760006020848301015280955050505050509250929050565b60008060008060008060a08789031215613e2e57600080fd5b8635955060208701359450604087013593506060870135613e4e81613b72565b9250608087013567ffffffffffffffff811115613e6a57600080fd5b613e7689828a01613aa7565b979a9699509497509295939492505050565b801515811461139457600080fd5b600080600060608486031215613eab57600080fd5b8335613eb681613b72565b92506020840135613ec681613e88565b929592945050506040919091013590565b600080600060608486031215613eec57600080fd5b505081359360208301359350604090920135919050565b634e487b7160e01b600052602160045260246000fd5b60028110613f2957613f29613f03565b9052565b60005b83811015613f48578181015183820152602001613f30565b50506000910152565b60008151808452613f69816020860160208601613f2d565b601f01601f19169290920160200192915050565b6000610100613f8d848451613f19565b6020830151602085015260018060a01b036040840151166040850152606083015160608501526080830151608085015260a08301518160a0860152613fd482860182613f51565b91505060c083015160c085015260e083015160e08501528091505092915050565b6020815260006135ef6020830184613f7d565b60058110613f2957613f29613f03565b6000610100614027838c614008565b89602084015288604084015280606084015261404581840189613f51565b6080840197909752505060a08101939093526001600160a01b039190911660c083015260e090910152949350505050565b6000610100614085838c613f19565b89602084015260018060a01b03891660408401528760608401528660808401528060a08401526140b781840187613f51565b60c0840195909552505060e001529695505050505050565b60006101006140df848451614008565b6020830151602085015260408301516040850152606083015181606086015261410a82860182613f51565b6080858101519087015260a0808601519087015260c0808601516001600160a01b03169087015260e0948501519490950193909352509192915050565b60408152600061415a60408301856140cf565b82810360208401526137218185613f7d565b60008060008060008060008060c0898b03121561418857600080fd5b8835975060208901359650604089013567ffffffffffffffff808211156141ae57600080fd5b6141ba8c838d01613aa7565b909850965060608b01359150808211156141d357600080fd5b506141e08b828c01613aa7565b90955093505060808901356141f481613b72565b8092505060a089013590509295985092959890939650565b6020815260006135ef60208301846140cf565b6000806000806000806000806000806101008b8d03121561423f57600080fd5b8a35995060208b0135985060408b0135975060608b0135965060808b013567ffffffffffffffff8082111561427357600080fd5b61427f8e838f01613aa7565b909850965060a08d0135955060c08d013591508082111561429f57600080fd5b506142ac8d828e01613aa7565b9150809450508092505060e08b013590509295989b9194979a5092959850565b6000602082840312156142de57600080fd5b81516135ef81613e88565b6020808252601590820152744e6f74206f776e6572206f722064656c656761746560581b604082015260600190565b6020808252600b908201526a125b9d985b1a590818da5960aa1b604082015260600190565b600181811c9082168061435157607f821691505b60208210810361437157634e487b7160e01b600052602260045260246000fd5b50919050565b601f82111561122557600081815260208120601f850160051c8101602086101561439e5750805b601f850160051c820191505b81811015611cef578281556001016143aa565b67ffffffffffffffff8311156143d5576143d5613d3b565b6143e9836143e3835461433d565b83614377565b6000601f84116001811461441d57600085156144055750838201355b600019600387901b1c1916600186901b178355614477565b600083815260209020601f19861690835b8281101561444e578685013582556020948501946001909201910161442e565b508682101561446b5760001960f88860031b161c19848701351681555b505060018560011b0183555b5050505050565b81835281816020850137506000828201602090810191909152601f909101601f19169091010190565b87815286602082015260c0604082015260006144c760c08301878961447e565b606083019590955250608081019290925260a090910152949350505050565b634e487b7160e01b600052601160045260246000fd5b60006001820161450e5761450e6144e6565b5060010190565b85815284602082015283604082015260806060820152600061453b60808301848661447e565b979650505050505050565b815167ffffffffffffffff81111561456057614560613d3b565b6145748161456e845461433d565b84614377565b602080601f8311600181146145a957600084156145915750858301515b600019600386901b1c1916600185901b178555611cef565b600085815260208120601f198616915b828110156145d8578886015182559484019460019091019084016145b9565b50858210156145f65787850151600019600388901b60f8161c191681555b5050505050600190811b01905550565b60006101008b83528a60208401528060408401526146278184018a8c61447e565b9150506146376060830188613f19565b8560808301528460a08301528360c08301528260e08301529a9950505050505050505050565b6020808252602c908201527f46756e6374696f6e206d7573742062652063616c6c6564207468726f7567682060408201526b19195b1959d85d1958d85b1b60a21b606082015260800190565b6020808252602c908201527f46756e6374696f6e206d7573742062652063616c6c6564207468726f7567682060408201526b6163746976652070726f787960a01b606082015260800190565b60608152600061470960608301868861447e565b6020830194909452506001600160a01b039190911660409091015292915050565b8082028115828204841417610859576108596144e6565b60008261475e57634e487b7160e01b600052601260045260246000fd5b500490565b86815285602082015260a06040820152600061478360a08301868861447e565b6001600160a01b039490941660608301525060800152949350505050565b6000602082840312156147b357600080fd5b5051919050565b6000602082840312156147cc57600080fd5b81516135ef81613b72565b6c6372656174655365727669636560981b815284600d820152603b60f81b602d82015283602e8201528183604e83013760009101604e019081529392505050565b6d18dc99585d19541c9bdc1bdcd85b60921b815284600e820152603b60f81b602e82015283602f8201528183604f83013760009101604f019081529392505050565b6020808252602b908201527f496e697469616c697a61626c653a20636f6e7472616374206973206e6f74206960408201526a6e697469616c697a696e6760a81b606082015260800190565b7f416363657373436f6e74726f6c3a206163636f756e74200000000000000000008152600083516148dd816017850160208801613f2d565b7001034b99036b4b9b9b4b733903937b6329607d1b601791840191820152835161490e816028840160208801613f2d565b01602801949350505050565b6020815260006135ef6020830184613f51565b80820180821115610859576108596144e6565b634e487b7160e01b600052603260045260246000fd5b600081614965576149656144e6565b506000190190565b6000825161497f818460208701613f2d565b919091019291505056fe360894a13ba1a3210667c828492db98dca3e2076cc3735a920a3ca505d382bbc416464726573733a206c6f772d6c6576656c2064656c65676174652063616c6c206661696c6564a2646970667358221220b441e0ef39b1c56847c5f1602e413a5c97b260a54e825593ea421bb996ac307364736f6c63430008110033",
  "linkReferences": {},
  "deployedLinkReferences": {}
}