{
  "_format": "hh-sol-artifact-1",
  "contractName": "TalentLayerPlatformID",
  "sourceName": "contracts/TalentLayerPlatformID.sol",
  "abi": [
    {
      "inputs": [],
      "stateMutability": "nonpayable",
      "type": "constructor"
    },
    {
      "inputs": [],
      "name": "ApprovalCallerNotOwnerNorApproved",
      "type": "error"
    },
    {
      "inputs": [],
      "name": "ApprovalQueryForNonexistentToken",
      "type": "error"
    },
    {
      "inputs": [],
      "name": "ApproveToCaller",
      "type": "error"
    },
    {
      "inputs": [],
      "name": "BalanceQueryForZeroAddress",
      "type": "error"
    },
    {
      "inputs": [],
      "name": "MintERC2309QuantityExceedsLimit",
      "type": "error"
    },
    {
      "inputs": [],
      "name": "MintToZeroAddress",
      "type": "error"
    },
    {
      "inputs": [],
      "name": "MintZeroQuantity",
      "type": "error"
    },
    {
      "inputs": [],
      "name": "OwnerQueryForNonexistentToken",
      "type": "error"
    },
    {
      "inputs": [],
      "name": "OwnershipNotInitializedForExtraData",
      "type": "error"
    },
    {
      "inputs": [],
      "name": "TransferCallerNotOwnerNorApproved",
      "type": "error"
    },
    {
      "inputs": [],
      "name": "TransferFromIncorrectOwner",
      "type": "error"
    },
    {
      "inputs": [],
      "name": "TransferToNonERC721ReceiverImplementer",
      "type": "error"
    },
    {
      "inputs": [],
      "name": "TransferToZeroAddress",
      "type": "error"
    },
    {
      "inputs": [],
      "name": "URIQueryForNonexistentToken",
      "type": "error"
    },
    {
      "anonymous": false,
      "inputs": [
        {
          "indexed": true,
          "internalType": "address",
          "name": "owner",
          "type": "address"
        },
        {
          "indexed": true,
          "internalType": "address",
          "name": "approved",
          "type": "address"
        },
        {
          "indexed": true,
          "internalType": "uint256",
          "name": "tokenId",
          "type": "uint256"
        }
      ],
      "name": "Approval",
      "type": "event"
    },
    {
      "anonymous": false,
      "inputs": [
        {
          "indexed": true,
          "internalType": "address",
          "name": "owner",
          "type": "address"
        },
        {
          "indexed": true,
          "internalType": "address",
          "name": "operator",
          "type": "address"
        },
        {
          "indexed": false,
          "internalType": "bool",
          "name": "approved",
          "type": "bool"
        }
      ],
      "name": "ApprovalForAll",
      "type": "event"
    },
    {
      "anonymous": false,
      "inputs": [
        {
          "indexed": false,
          "internalType": "uint256",
          "name": "_platformId",
          "type": "uint256"
        },
        {
          "indexed": false,
          "internalType": "uint256",
          "name": "_arbitrationFeeTimeout",
          "type": "uint256"
        }
      ],
      "name": "ArbitrationFeeTimeoutUpdated",
      "type": "event"
    },
    {
      "anonymous": false,
      "inputs": [
        {
          "indexed": false,
          "internalType": "uint256",
          "name": "_platformId",
          "type": "uint256"
        },
        {
          "indexed": false,
          "internalType": "contract Arbitrator",
          "name": "_arbitrator",
          "type": "address"
        },
        {
          "indexed": false,
          "internalType": "bytes",
          "name": "_extraData",
          "type": "bytes"
        }
      ],
      "name": "ArbitratorUpdated",
      "type": "event"
    },
    {
      "anonymous": false,
      "inputs": [
        {
          "indexed": true,
          "internalType": "uint256",
          "name": "_tokenId",
          "type": "uint256"
        },
        {
          "indexed": false,
          "internalType": "string",
          "name": "_newCid",
          "type": "string"
        }
      ],
      "name": "CidUpdated",
      "type": "event"
    },
    {
      "anonymous": false,
      "inputs": [
        {
          "indexed": true,
          "internalType": "uint256",
          "name": "fromTokenId",
          "type": "uint256"
        },
        {
          "indexed": false,
          "internalType": "uint256",
          "name": "toTokenId",
          "type": "uint256"
        },
        {
          "indexed": true,
          "internalType": "address",
          "name": "from",
          "type": "address"
        },
        {
          "indexed": true,
          "internalType": "address",
          "name": "to",
          "type": "address"
        }
      ],
      "name": "ConsecutiveTransfer",
      "type": "event"
    },
    {
      "anonymous": false,
      "inputs": [
        {
          "indexed": true,
          "internalType": "address",
          "name": "_platformOwnerAddress",
          "type": "address"
        },
        {
          "indexed": false,
          "internalType": "uint256",
          "name": "_tokenId",
          "type": "uint256"
        },
        {
          "indexed": false,
          "internalType": "string",
          "name": "_platformName",
          "type": "string"
        },
        {
          "indexed": false,
          "internalType": "uint256",
          "name": "_fee",
          "type": "uint256"
        },
        {
          "indexed": false,
          "internalType": "uint256",
          "name": "_arbitrationFeeTimeout",
          "type": "uint256"
        }
      ],
      "name": "Mint",
      "type": "event"
    },
    {
      "anonymous": false,
      "inputs": [
        {
          "indexed": false,
          "internalType": "uint256",
          "name": "_mintFee",
          "type": "uint256"
        }
      ],
      "name": "MintFeeUpdated",
      "type": "event"
    },
    {
      "anonymous": false,
      "inputs": [
        {
          "indexed": false,
          "internalType": "uint256",
          "name": "_platformId",
          "type": "uint256"
        },
        {
          "indexed": false,
          "internalType": "uint16",
          "name": "_platformFee",
          "type": "uint16"
        }
      ],
      "name": "PlatformFeeUpdated",
      "type": "event"
    },
    {
      "anonymous": false,
      "inputs": [
        {
          "indexed": true,
          "internalType": "bytes32",
          "name": "role",
          "type": "bytes32"
        },
        {
          "indexed": true,
          "internalType": "bytes32",
          "name": "previousAdminRole",
          "type": "bytes32"
        },
        {
          "indexed": true,
          "internalType": "bytes32",
          "name": "newAdminRole",
          "type": "bytes32"
        }
      ],
      "name": "RoleAdminChanged",
      "type": "event"
    },
    {
      "anonymous": false,
      "inputs": [
        {
          "indexed": true,
          "internalType": "bytes32",
          "name": "role",
          "type": "bytes32"
        },
        {
          "indexed": true,
          "internalType": "address",
          "name": "account",
          "type": "address"
        },
        {
          "indexed": true,
          "internalType": "address",
          "name": "sender",
          "type": "address"
        }
      ],
      "name": "RoleGranted",
      "type": "event"
    },
    {
      "anonymous": false,
      "inputs": [
        {
          "indexed": true,
          "internalType": "bytes32",
          "name": "role",
          "type": "bytes32"
        },
        {
          "indexed": true,
          "internalType": "address",
          "name": "account",
          "type": "address"
        },
        {
          "indexed": true,
          "internalType": "address",
          "name": "sender",
          "type": "address"
        }
      ],
      "name": "RoleRevoked",
      "type": "event"
    },
    {
      "anonymous": false,
      "inputs": [
        {
          "indexed": true,
          "internalType": "address",
          "name": "from",
          "type": "address"
        },
        {
          "indexed": true,
          "internalType": "address",
          "name": "to",
          "type": "address"
        },
        {
          "indexed": true,
          "internalType": "uint256",
          "name": "tokenId",
          "type": "uint256"
        }
      ],
      "name": "Transfer",
      "type": "event"
    },
    {
      "inputs": [],
      "name": "DEFAULT_ADMIN_ROLE",
      "outputs": [
        {
          "internalType": "bytes32",
          "name": "",
          "type": "bytes32"
        }
      ],
      "stateMutability": "view",
      "type": "function"
    },
    {
      "inputs": [],
      "name": "MINT_ROLE",
      "outputs": [
        {
          "internalType": "bytes32",
          "name": "",
          "type": "bytes32"
        }
      ],
      "stateMutability": "view",
      "type": "function"
    },
    {
      "inputs": [
        {
          "internalType": "address",
          "name": "_arbitrator",
          "type": "address"
        },
        {
          "internalType": "bool",
          "name": "_isInternal",
          "type": "bool"
        }
      ],
      "name": "addArbitrator",
      "outputs": [],
      "stateMutability": "nonpayable",
      "type": "function"
    },
    {
      "inputs": [
        {
          "internalType": "address",
          "name": "to",
          "type": "address"
        },
        {
          "internalType": "uint256",
          "name": "tokenId",
          "type": "uint256"
        }
      ],
      "name": "approve",
      "outputs": [],
      "stateMutability": "nonpayable",
      "type": "function"
    },
    {
      "inputs": [
        {
          "internalType": "address",
          "name": "owner",
          "type": "address"
        }
      ],
      "name": "balanceOf",
      "outputs": [
        {
          "internalType": "uint256",
          "name": "",
          "type": "uint256"
        }
      ],
      "stateMutability": "view",
      "type": "function"
    },
    {
      "inputs": [
        {
          "internalType": "uint256",
          "name": "tokenId",
          "type": "uint256"
        }
      ],
      "name": "getApproved",
      "outputs": [
        {
          "internalType": "address",
          "name": "",
          "type": "address"
        }
      ],
      "stateMutability": "view",
      "type": "function"
    },
    {
      "inputs": [
        {
          "internalType": "uint256",
          "name": "_platformId",
          "type": "uint256"
        }
      ],
      "name": "getPlatform",
      "outputs": [
        {
          "components": [
            {
              "internalType": "uint256",
              "name": "id",
              "type": "uint256"
            },
            {
              "internalType": "string",
              "name": "name",
              "type": "string"
            },
            {
              "internalType": "string",
              "name": "dataUri",
              "type": "string"
            },
            {
              "internalType": "uint16",
              "name": "fee",
              "type": "uint16"
            },
            {
              "internalType": "contract Arbitrator",
              "name": "arbitrator",
              "type": "address"
            },
            {
              "internalType": "bytes",
              "name": "arbitratorExtraData",
              "type": "bytes"
            },
            {
              "internalType": "uint256",
              "name": "arbitrationFeeTimeout",
              "type": "uint256"
            }
          ],
          "internalType": "struct TalentLayerPlatformID.Platform",
          "name": "",
          "type": "tuple"
        }
      ],
      "stateMutability": "view",
      "type": "function"
    },
    {
      "inputs": [
        {
          "internalType": "uint256",
          "name": "_platformId",
          "type": "uint256"
        }
      ],
      "name": "getPlatformFee",
      "outputs": [
        {
          "internalType": "uint16",
          "name": "",
          "type": "uint16"
        }
      ],
      "stateMutability": "view",
      "type": "function"
    },
    {
      "inputs": [
        {
          "internalType": "address",
          "name": "_owner",
          "type": "address"
        }
      ],
      "name": "getPlatformIdFromAddress",
      "outputs": [
        {
          "internalType": "uint256",
          "name": "",
          "type": "uint256"
        }
      ],
      "stateMutability": "view",
      "type": "function"
    },
    {
      "inputs": [
        {
          "internalType": "bytes32",
          "name": "role",
          "type": "bytes32"
        }
      ],
      "name": "getRoleAdmin",
      "outputs": [
        {
          "internalType": "bytes32",
          "name": "",
          "type": "bytes32"
        }
      ],
      "stateMutability": "view",
      "type": "function"
    },
    {
      "inputs": [
        {
          "internalType": "bytes32",
          "name": "role",
          "type": "bytes32"
        },
        {
          "internalType": "address",
          "name": "account",
          "type": "address"
        }
      ],
      "name": "grantRole",
      "outputs": [],
      "stateMutability": "nonpayable",
      "type": "function"
    },
    {
      "inputs": [
        {
          "internalType": "address",
          "name": "",
          "type": "address"
        }
      ],
      "name": "hasBeenRecovered",
      "outputs": [
        {
          "internalType": "bool",
          "name": "",
          "type": "bool"
        }
      ],
      "stateMutability": "view",
      "type": "function"
    },
    {
      "inputs": [
        {
          "internalType": "bytes32",
          "name": "role",
          "type": "bytes32"
        },
        {
          "internalType": "address",
          "name": "account",
          "type": "address"
        }
      ],
      "name": "hasRole",
      "outputs": [
        {
          "internalType": "bool",
          "name": "",
          "type": "bool"
        }
      ],
      "stateMutability": "view",
      "type": "function"
    },
    {
      "inputs": [
        {
          "internalType": "address",
          "name": "",
          "type": "address"
        }
      ],
      "name": "internalArbitrators",
      "outputs": [
        {
          "internalType": "bool",
          "name": "",
          "type": "bool"
        }
      ],
      "stateMutability": "view",
      "type": "function"
    },
    {
      "inputs": [
        {
          "internalType": "address",
          "name": "owner",
          "type": "address"
        },
        {
          "internalType": "address",
          "name": "operator",
          "type": "address"
        }
      ],
      "name": "isApprovedForAll",
      "outputs": [
        {
          "internalType": "bool",
          "name": "",
          "type": "bool"
        }
      ],
      "stateMutability": "view",
      "type": "function"
    },
    {
      "inputs": [
        {
          "internalType": "uint256",
          "name": "_platformId",
          "type": "uint256"
        }
      ],
      "name": "isValid",
      "outputs": [],
      "stateMutability": "view",
      "type": "function"
    },
    {
      "inputs": [],
      "name": "minArbitrationFeeTimeout",
      "outputs": [
        {
          "internalType": "uint256",
          "name": "",
          "type": "uint256"
        }
      ],
      "stateMutability": "view",
      "type": "function"
    },
    {
      "inputs": [
        {
          "internalType": "string",
          "name": "_platformName",
          "type": "string"
        }
      ],
      "name": "mint",
      "outputs": [],
      "stateMutability": "payable",
      "type": "function"
    },
    {
      "inputs": [],
      "name": "mintFee",
      "outputs": [
        {
          "internalType": "uint256",
          "name": "",
          "type": "uint256"
        }
      ],
      "stateMutability": "view",
      "type": "function"
    },
    {
      "inputs": [
        {
          "internalType": "string",
          "name": "_platformName",
          "type": "string"
        },
        {
          "internalType": "address",
          "name": "_platformAddress",
          "type": "address"
        }
      ],
      "name": "mintForAddress",
      "outputs": [],
      "stateMutability": "payable",
      "type": "function"
    },
    {
      "inputs": [],
      "name": "name",
      "outputs": [
        {
          "internalType": "string",
          "name": "",
          "type": "string"
        }
      ],
      "stateMutability": "view",
      "type": "function"
    },
    {
      "inputs": [
        {
          "internalType": "address",
          "name": "_platformAddress",
          "type": "address"
        }
      ],
      "name": "numberMinted",
      "outputs": [
        {
          "internalType": "uint256",
          "name": "",
          "type": "uint256"
        }
      ],
      "stateMutability": "view",
      "type": "function"
    },
    {
      "inputs": [
        {
          "internalType": "uint256",
          "name": "tokenId",
          "type": "uint256"
        }
      ],
      "name": "ownerOf",
      "outputs": [
        {
          "internalType": "address",
          "name": "",
          "type": "address"
        }
      ],
      "stateMutability": "view",
      "type": "function"
    },
    {
      "inputs": [
        {
          "internalType": "uint256",
          "name": "",
          "type": "uint256"
        }
      ],
      "name": "platforms",
      "outputs": [
        {
          "internalType": "uint256",
          "name": "id",
          "type": "uint256"
        },
        {
          "internalType": "string",
          "name": "name",
          "type": "string"
        },
        {
          "internalType": "string",
          "name": "dataUri",
          "type": "string"
        },
        {
          "internalType": "uint16",
          "name": "fee",
          "type": "uint16"
        },
        {
          "internalType": "contract Arbitrator",
          "name": "arbitrator",
          "type": "address"
        },
        {
          "internalType": "bytes",
          "name": "arbitratorExtraData",
          "type": "bytes"
        },
        {
          "internalType": "uint256",
          "name": "arbitrationFeeTimeout",
          "type": "uint256"
        }
      ],
      "stateMutability": "view",
      "type": "function"
    },
    {
      "inputs": [],
      "name": "recoveryRoot",
      "outputs": [
        {
          "internalType": "bytes32",
          "name": "",
          "type": "bytes32"
        }
      ],
      "stateMutability": "view",
      "type": "function"
    },
    {
      "inputs": [
        {
          "internalType": "address",
          "name": "_arbitrator",
          "type": "address"
        }
      ],
      "name": "removeArbitrator",
      "outputs": [],
      "stateMutability": "nonpayable",
      "type": "function"
    },
    {
      "inputs": [
        {
          "internalType": "bytes32",
          "name": "role",
          "type": "bytes32"
        },
        {
          "internalType": "address",
          "name": "account",
          "type": "address"
        }
      ],
      "name": "renounceRole",
      "outputs": [],
      "stateMutability": "nonpayable",
      "type": "function"
    },
    {
      "inputs": [
        {
          "internalType": "bytes32",
          "name": "role",
          "type": "bytes32"
        },
        {
          "internalType": "address",
          "name": "account",
          "type": "address"
        }
      ],
      "name": "revokeRole",
      "outputs": [],
      "stateMutability": "nonpayable",
      "type": "function"
    },
    {
      "inputs": [
        {
          "internalType": "address",
          "name": "from",
          "type": "address"
        },
        {
          "internalType": "address",
          "name": "to",
          "type": "address"
        },
        {
          "internalType": "uint256",
          "name": "tokenId",
          "type": "uint256"
        }
      ],
      "name": "safeTransferFrom",
      "outputs": [],
      "stateMutability": "nonpayable",
      "type": "function"
    },
    {
      "inputs": [
        {
          "internalType": "address",
          "name": "from",
          "type": "address"
        },
        {
          "internalType": "address",
          "name": "to",
          "type": "address"
        },
        {
          "internalType": "uint256",
          "name": "tokenId",
          "type": "uint256"
        },
        {
          "internalType": "bytes",
          "name": "_data",
          "type": "bytes"
        }
      ],
      "name": "safeTransferFrom",
      "outputs": [],
      "stateMutability": "nonpayable",
      "type": "function"
    },
    {
      "inputs": [
        {
          "internalType": "address",
          "name": "operator",
          "type": "address"
        },
        {
          "internalType": "bool",
          "name": "approved",
          "type": "bool"
        }
      ],
      "name": "setApprovalForAll",
      "outputs": [],
      "stateMutability": "nonpayable",
      "type": "function"
    },
    {
      "inputs": [
        {
          "internalType": "bytes4",
          "name": "interfaceId",
          "type": "bytes4"
        }
      ],
      "name": "supportsInterface",
      "outputs": [
        {
          "internalType": "bool",
          "name": "",
          "type": "bool"
        }
      ],
      "stateMutability": "view",
      "type": "function"
    },
    {
      "inputs": [],
      "name": "symbol",
      "outputs": [
        {
          "internalType": "string",
          "name": "",
          "type": "string"
        }
      ],
      "stateMutability": "view",
      "type": "function"
    },
    {
      "inputs": [
        {
          "internalType": "string",
          "name": "",
          "type": "string"
        }
      ],
      "name": "takenNames",
      "outputs": [
        {
          "internalType": "bool",
          "name": "",
          "type": "bool"
        }
      ],
      "stateMutability": "view",
      "type": "function"
    },
    {
      "inputs": [
        {
          "internalType": "uint256",
          "name": "tokenId",
          "type": "uint256"
        }
      ],
      "name": "tokenURI",
      "outputs": [
        {
          "internalType": "string",
          "name": "",
          "type": "string"
        }
      ],
      "stateMutability": "view",
      "type": "function"
    },
    {
      "inputs": [],
      "name": "totalSupply",
      "outputs": [
        {
          "internalType": "uint256",
          "name": "",
          "type": "uint256"
        }
      ],
      "stateMutability": "view",
      "type": "function"
    },
    {
      "inputs": [
        {
          "internalType": "address",
          "name": "from",
          "type": "address"
        },
        {
          "internalType": "address",
          "name": "to",
          "type": "address"
        },
        {
          "internalType": "uint256",
          "name": "tokenId",
          "type": "uint256"
        }
      ],
      "name": "transferFrom",
      "outputs": [],
      "stateMutability": "nonpayable",
      "type": "function"
    },
    {
      "inputs": [
        {
          "internalType": "uint256",
          "name": "_platformId",
          "type": "uint256"
        },
        {
          "internalType": "uint256",
          "name": "_arbitrationFeeTimeout",
          "type": "uint256"
        }
      ],
      "name": "updateArbitrationFeeTimeout",
      "outputs": [],
      "stateMutability": "nonpayable",
      "type": "function"
    },
    {
      "inputs": [
        {
          "internalType": "uint256",
          "name": "_platformId",
          "type": "uint256"
        },
        {
          "internalType": "contract Arbitrator",
          "name": "_arbitrator",
          "type": "address"
        },
        {
          "internalType": "bytes",
          "name": "_extraData",
          "type": "bytes"
        }
      ],
      "name": "updateArbitrator",
      "outputs": [],
      "stateMutability": "nonpayable",
      "type": "function"
    },
    {
      "inputs": [
        {
          "internalType": "uint256",
          "name": "_minArbitrationFeeTimeout",
          "type": "uint256"
        }
      ],
      "name": "updateMinArbitrationFeeTimeout",
      "outputs": [],
      "stateMutability": "nonpayable",
      "type": "function"
    },
    {
      "inputs": [
        {
          "internalType": "uint256",
          "name": "_mintFee",
          "type": "uint256"
        }
      ],
      "name": "updateMintFee",
      "outputs": [],
      "stateMutability": "nonpayable",
      "type": "function"
    },
    {
      "inputs": [
        {
          "internalType": "uint256",
          "name": "_platformId",
          "type": "uint256"
        },
        {
          "internalType": "uint16",
          "name": "_platformFee",
          "type": "uint16"
        }
      ],
      "name": "updatePlatformFee",
      "outputs": [],
      "stateMutability": "nonpayable",
      "type": "function"
    },
    {
      "inputs": [
        {
          "internalType": "uint256",
          "name": "_platformId",
          "type": "uint256"
        },
        {
          "internalType": "string",
          "name": "_newCid",
          "type": "string"
        }
      ],
      "name": "updateProfileData",
      "outputs": [],
      "stateMutability": "nonpayable",
      "type": "function"
    },
    {
      "inputs": [
        {
          "internalType": "bytes32",
          "name": "_newRoot",
          "type": "bytes32"
        }
      ],
      "name": "updateRecoveryRoot",
      "outputs": [],
      "stateMutability": "nonpayable",
      "type": "function"
    },
    {
      "inputs": [
        {
          "internalType": "address",
          "name": "",
          "type": "address"
        }
      ],
      "name": "validArbitrators",
      "outputs": [
        {
          "internalType": "bool",
          "name": "",
          "type": "bool"
        }
      ],
      "stateMutability": "view",
      "type": "function"
    },
    {
      "inputs": [],
      "name": "withdraw",
      "outputs": [],
      "stateMutability": "nonpayable",
      "type": "function"
    }
  ],
  "bytecode": "0x60806040523480156200001157600080fd5b50604080518082018252601581527f54616c656e744c61796572506c6174666f726d494400000000000000000000006020808301918252835180850190945260048452631514125160e21b9084015281519192916200007391600291620001c6565b50805162000089906003906020840190620001c6565b5050600160009081556200009f91503362000112565b620000cb7f154c00819833dac601ee5ddded6fda79d9d8b506b911b3dbd54cdb95fe6c36863362000112565b6000600f8190558052600d6020527f81955a0a11e65eac625c29e8882660bae4e165a75d72780094acae8ece9a29ee805460ff1916600117905562015180601055620002a9565b6200011e828262000122565b5050565b60008281526008602090815260408083206001600160a01b038516845290915290205460ff166200011e5760008281526008602090815260408083206001600160a01b03851684529091529020805460ff19166001179055620001823390565b6001600160a01b0316816001600160a01b0316837f2f8788117e7eff1d82e926ec794901d17c78024a50270940304540a733656f0d60405160405180910390a45050565b828054620001d4906200026c565b90600052602060002090601f016020900481019282620001f8576000855562000243565b82601f106200021357805160ff191683800117855562000243565b8280016001018555821562000243579182015b828111156200024357825182559160200191906001019062000226565b506200025192915062000255565b5090565b5b8082111562000251576000815560010162000256565b600181811c908216806200028157607f821691505b60208210811415620002a357634e487b7160e01b600052602260045260246000fd5b50919050565b61499080620002b96000396000f3fe60806040526004361061027d5760003560e01c806395d89b411161014f578063cb8faafa116100c1578063e985e9c51161007a578063e985e9c5146107df578063e9a9c85014610828578063f160068f1461085c578063f577a5001461087c578063f6f378441461089c578063faa992d3146108b257600080fd5b8063cb8faafa146106f5578063d547741f14610715578063d85d3d2714610735578063d97939eb14610748578063dc33e6811461078f578063de829592146107af57600080fd5b8063a4f524a911610113578063a4f524a914610632578063aa44caaf14610652578063acd63f1b14610672578063b88d4fde146106a2578063c37e154e146106c2578063c87b56dd146106d557600080fd5b806395d89b411461058d578063973ad270146105a2578063a217fddf146105c2578063a22cb465146105d7578063a383c692146105f757600080fd5b80632f2ff15d116101f357806348203b30116101ac57806348203b30146104b05780635bd22c98146104e05780636352211e1461050d57806370a082311461052d57806384017e521461054d57806391d148541461056d57600080fd5b80632f2ff15d1461041b57806336568abe1461043b5780633ccfd60b1461045b5780633ce12f6d146104705780633e6acfe01461049057806342842e0e146103ab57600080fd5b806313966db51161024557806313966db51461035357806318160ddd1461037757806319aeca931461039557806323b872dd146103ab578063248a9ca3146103cb5780632e0c68fa146103fb57600080fd5b806301c32c851461028257806301ffc9a7146102a457806306fdde03146102d9578063081812fc146102fb578063095ea7b314610333575b600080fd5b34801561028e57600080fd5b506102a261029d366004612626565b6108e5565b005b3480156102b057600080fd5b506102c46102bf366004612655565b6108f6565b60405190151581526020015b60405180910390f35b3480156102e557600080fd5b506102ee610916565b6040516102d091906126ca565b34801561030757600080fd5b5061031b610316366004612626565b6109a8565b6040516001600160a01b0390911681526020016102d0565b34801561033f57600080fd5b506102a261034e3660046126f2565b6109ec565b34801561035f57600080fd5b50610369600f5481565b6040519081526020016102d0565b34801561038357600080fd5b50610369600154600054036000190190565b3480156103a157600080fd5b5061036960095481565b3480156103b757600080fd5b506102a26103c636600461271e565b610a8c565b3480156103d757600080fd5b506103696103e6366004612626565b60009081526008602052604090206001015490565b34801561040757600080fd5b506102a261041636600461275f565b610ac7565b34801561042757600080fd5b506102a2610436366004612796565b610b57565b34801561044757600080fd5b506102a2610456366004612796565b610b81565b34801561046757600080fd5b506102a2610bff565b34801561047c57600080fd5b506102a261048b366004612626565b610ca2565b34801561049c57600080fd5b506102a26104ab36600461285e565b610cb3565b3480156104bc57600080fd5b506102c46104cb3660046128b7565b600d6020526000908152604090205460ff1681565b3480156104ec57600080fd5b506105006104fb366004612626565b610e6b565b6040516102d091906128d4565b34801561051957600080fd5b5061031b610528366004612626565b61113a565b34801561053957600080fd5b506103696105483660046128b7565b611145565b34801561055957600080fd5b506102a2610568366004612626565b611194565b34801561057957600080fd5b506102c4610588366004612796565b6111d4565b34801561059957600080fd5b506102ee6111ff565b3480156105ae57600080fd5b506102a26105bd3660046128b7565b61120e565b3480156105ce57600080fd5b50610369600081565b3480156105e357600080fd5b506102a26105f236600461296e565b611250565b34801561060357600080fd5b506102c46106123660046129a1565b8051602081830181018051600a8252928201919093012091525460ff1681565b34801561063e57600080fd5b506102a261064d3660046129d6565b6112e6565b34801561065e57600080fd5b5061036961066d3660046128b7565b6113d0565b34801561067e57600080fd5b506102c461068d3660046128b7565b600e6020526000908152604090205460ff1681565b3480156106ae57600080fd5b506102a26106bd3660046129f8565b61145f565b6102a26106d0366004612a64565b6114a9565b3480156106e157600080fd5b506102ee6106f0366004612626565b611622565b34801561070157600080fd5b506102a261071036600461296e565b61162d565b34801561072157600080fd5b506102a2610730366004612796565b61167c565b6102a26107433660046129a1565b6116a1565b34801561075457600080fd5b5061077c610763366004612626565b6000908152600b602052604090206003015461ffff1690565b60405161ffff90911681526020016102d0565b34801561079b57600080fd5b506103696107aa3660046128b7565b611813565b3480156107bb57600080fd5b506102c46107ca3660046128b7565b600c6020526000908152604090205460ff1681565b3480156107eb57600080fd5b506102c46107fa366004612aab565b6001600160a01b03918216600090815260076020908152604080832093909416825291909152205460ff1690565b34801561083457600080fd5b506103697f154c00819833dac601ee5ddded6fda79d9d8b506b911b3dbd54cdb95fe6c368681565b34801561086857600080fd5b506102a2610877366004612ad9565b61181e565b34801561088857600080fd5b506102a2610897366004612626565b6118ee565b3480156108a857600080fd5b5061036960105481565b3480156108be57600080fd5b506108d26108cd366004612626565b611953565b6040516102d09796959493929190612b20565b60006108f081611b38565b50601055565b600061090182611b42565b80610910575061091082611b90565b92915050565b60606002805461092590612b8d565b80601f016020809104026020016040519081016040528092919081815260200182805461095190612b8d565b801561099e5780601f106109735761010080835404028352916020019161099e565b820191906000526020600020905b81548152906001019060200180831161098157829003601f168201915b5050505050905090565b60006109b382611bc5565b6109d0576040516333d1c03960e21b815260040160405180910390fd5b506000908152600660205260409020546001600160a01b031690565b60006109f78261113a565b9050336001600160a01b03821614610a3057610a1381336107fa565b610a30576040516367d9dca160e11b815260040160405180910390fd5b60008281526006602052604080822080546001600160a01b0319166001600160a01b0387811691821790925591518593918516917f8c5be1e5ebec7d5bd14f71427d1e84f3dd0314c0f7b2291e5b200ac8c7c3b92591a4505050565b60405162461bcd60e51b815260206004820152600b60248201526a139bdd08185b1b1bddd95960aa1b60448201526064015b60405180910390fd5b33610ad18361113a565b6001600160a01b031614610af75760405162461bcd60e51b8152600401610abe90612bc8565b6000828152600b6020908152604091829020600301805461ffff191661ffff85169081179091558251858152918201527ff12c7abdf14c63795b07c88fe0104be3a5fd58b7f8b1035689cd56eb29f607ac91015b60405180910390a15050565b600082815260086020526040902060010154610b7281611b38565b610b7c8383611bfa565b505050565b6001600160a01b0381163314610bf15760405162461bcd60e51b815260206004820152602f60248201527f416363657373436f6e74726f6c3a2063616e206f6e6c792072656e6f756e636560448201526e103937b632b9903337b91039b2b63360891b6064820152608401610abe565b610bfb8282611c80565b5050565b6000610c0a81611b38565b604051600090339047908381818185875af1925050503d8060008114610c4c576040519150601f19603f3d011682016040523d82523d6000602084013e610c51565b606091505b5050905080610bfb5760405162461bcd60e51b815260206004820152601860248201527f4661696c656420746f20776974686472617720457468657200000000000000006044820152606401610abe565b6000610cad81611b38565b50600955565b33610cbd8461113a565b6001600160a01b031614610ce35760405162461bcd60e51b8152600401610abe90612bc8565b6001600160a01b0382166000908152600d602052604090205460ff16610d5d5760405162461bcd60e51b815260206004820152602960248201527f5468652061646472657373206d757374206265206f6620612076616c69642061604482015268393134ba3930ba37b960b91b6064820152608401610abe565b6000838152600b60209081526040808320600301805462010000600160b01b031916620100006001600160a01b038816908102919091179091558352600e90915290205460ff1615610def5760408051602081018590520160408051601f198184030181529181526000858152600b60209081529190208251610de9936004909201929091019061258d565b50610e16565b6000838152600b602090815260409091208251610e149260049092019184019061258d565b505b7f4f1d179d53629f07a3ca3cde19840349df6dadc8fc11ac201c272ec77b8673d28383600b6000878152602001908152602001600020600401604051610e5e93929190612c0d565b60405180910390a1505050565b610eb86040518060e00160405280600081526020016060815260200160608152602001600061ffff16815260200160006001600160a01b0316815260200160608152602001600081525090565b600082118015610ed85750610ed4600154600054036000190190565b8211155b610f245760405162461bcd60e51b815260206004820152601e60248201527f5468697320706c617465466f726d204964206973206e6f742076616c696400006044820152606401610abe565b600b60008381526020019081526020016000206040518060e001604052908160008201548152602001600182018054610f5c90612b8d565b80601f0160208091040260200160405190810160405280929190818152602001828054610f8890612b8d565b8015610fd55780601f10610faa57610100808354040283529160200191610fd5565b820191906000526020600020905b815481529060010190602001808311610fb857829003601f168201915b50505050508152602001600282018054610fee90612b8d565b80601f016020809104026020016040519081016040528092919081815260200182805461101a90612b8d565b80156110675780601f1061103c57610100808354040283529160200191611067565b820191906000526020600020905b81548152906001019060200180831161104a57829003601f168201915b5050509183525050600382015461ffff811660208301526201000090046001600160a01b031660408201526004820180546060909201916110a790612b8d565b80601f01602080910402602001604051908101604052809291908181526020018280546110d390612b8d565b80156111205780601f106110f557610100808354040283529160200191611120565b820191906000526020600020905b81548152906001019060200180831161110357829003601f168201915b505050505081526020016005820154815250509050919050565b600061091082611ce7565b60006001600160a01b03821661116e576040516323d3ad8160e21b815260040160405180910390fd5b506001600160a01b031660009081526005602052604090205467ffffffffffffffff1690565b600061119f81611b38565b600f8290556040518281527f38fbb1c8b109c430f0c030e7ed076cf5611a307773a4e8e365601e8f8bceaec690602001610b4b565b60009182526008602090815260408084206001600160a01b0393909316845291905290205460ff1690565b60606003805461092590612b8d565b600061121981611b38565b506001600160a01b03166000908152600d60209081526040808320805460ff19908116909155600e90925290912080549091169055565b6001600160a01b03821633141561127a5760405163b06307db60e01b815260040160405180910390fd5b3360008181526007602090815260408083206001600160a01b03871680855290835292819020805460ff191686151590811790915590519081529192917f17307eab39ab6107e8899845ad3d59bd9653f200f220920489ca2b5937696c31910160405180910390a35050565b336112f08361113a565b6001600160a01b0316146113165760405162461bcd60e51b8152600401610abe90612bc8565b6010548110156113855760405162461bcd60e51b815260206004820152603460248201527f5468652074696d656f7574206d7573742062652067726561746572207468616e604482015273081d1a19481b5a5b9a5b5d5b481d1a5b595bdd5d60621b6064820152608401610abe565b6000828152600b602090815260409182902060050183905581518481529081018390527face552c85eed7b5cf46330833e6f28b1f5ce696a4532e483192b5a64e4565e599101610b4b565b6000806001815b6113e8600154600054036000190190565b82116114565760006113f983611d57565b90508060400151158015611416575080516001600160a01b031615155b1561142057805191505b856001600160a01b0316826001600160a01b031614156114435782935050611456565b8261144d81612ce3565b935050506113d7565b50909392505050565b61146a848484610a8c565b6001600160a01b0383163b156114a35761148684848484611dcf565b6114a3576040516368d2bf6b60e11b815260040160405180910390fd5b50505050565b8181600f5434146114cc5760405162461bcd60e51b8152600401610abe90612cfe565b6114d581611813565b156114f25760405162461bcd60e51b8152600401610abe90612d42565b6002825110156115355760405162461bcd60e51b815260206004820152600e60248201526d13985b59481d1bdbc81cda1bdc9d60921b6044820152606401610abe565b600a825111156115775760405162461bcd60e51b815260206004820152600d60248201526c4e616d6520746f6f206c6f6e6760981b6044820152606401610abe565b600a826040516115879190612da0565b9081526040519081900360200190205460ff16156115dc5760405162461bcd60e51b81526020600482015260126024820152712730b6b29030b63932b0b23c903a30b5b2b760711b6044820152606401610abe565b7f154c00819833dac601ee5ddded6fda79d9d8b506b911b3dbd54cdb95fe6c368661160681611b38565b611611846001611ec7565b61161b8585611ee1565b5050505050565b606061091082611fb2565b600061163881611b38565b506001600160a01b039091166000908152600d60209081526040808320805460ff19908116600117909155600e909252909120805492151592909116919091179055565b60008281526008602052604090206001015461169781611b38565b610b7c8383611c80565b8033600f5434146116c45760405162461bcd60e51b8152600401610abe90612cfe565b6116cd81611813565b156116ea5760405162461bcd60e51b8152600401610abe90612d42565b60028251101561172d5760405162461bcd60e51b815260206004820152600e60248201526d13985b59481d1bdbc81cda1bdc9d60921b6044820152606401610abe565b600a8251111561176f5760405162461bcd60e51b815260206004820152600d60248201526c4e616d6520746f6f206c6f6e6760981b6044820152606401610abe565b600a8260405161177f9190612da0565b9081526040519081900360200190205460ff16156117d45760405162461bcd60e51b81526020600482015260126024820152712730b6b29030b63932b0b23c903a30b5b2b760711b6044820152606401610abe565b7f154c00819833dac601ee5ddded6fda79d9d8b506b911b3dbd54cdb95fe6c36866117fe81611b38565b611809336001611ec7565b6114a38433611ee1565b600061091082611145565b336118288361113a565b6001600160a01b03161461183b57600080fd5b600081511161188c5760405162461bcd60e51b815260206004820152601f60248201527f53686f756c642070726f7669646520612076616c6964204950465320555249006044820152606401610abe565b6000828152600b6020908152604090912082516118b19260029092019184019061258d565b50817f613807bd6768f626264e7eb664a65ca99a0d930f8fd8a5b868491a592eb57f72826040516118e291906126ca565b60405180910390a25050565b60008111801561190e575061190a600154600054036000190190565b8111155b6119505760405162461bcd60e51b8152602060048201526013602482015272125b9d985b1a59081c1b185d199bdc9b481251606a1b6044820152606401610abe565b50565b600b602052600090815260409020805460018201805491929161197590612b8d565b80601f01602080910402602001604051908101604052809291908181526020018280546119a190612b8d565b80156119ee5780601f106119c3576101008083540402835291602001916119ee565b820191906000526020600020905b8154815290600101906020018083116119d157829003601f168201915b505050505090806002018054611a0390612b8d565b80601f0160208091040260200160405190810160405280929190818152602001828054611a2f90612b8d565b8015611a7c5780601f10611a5157610100808354040283529160200191611a7c565b820191906000526020600020905b815481529060010190602001808311611a5f57829003601f168201915b505050506003830154600484018054939461ffff831694620100009093046001600160a01b0316935091611aaf90612b8d565b80601f0160208091040260200160405190810160405280929190818152602001828054611adb90612b8d565b8015611b285780601f10611afd57610100808354040283529160200191611b28565b820191906000526020600020905b815481529060010190602001808311611b0b57829003601f168201915b5050505050908060050154905087565b61195081336120dc565b60006301ffc9a760e01b6001600160e01b031983161480611b7357506380ac58cd60e01b6001600160e01b03198316145b806109105750506001600160e01b031916635b5e139f60e01b1490565b60006001600160e01b03198216637965db0b60e01b148061091057506301ffc9a760e01b6001600160e01b0319831614610910565b600081600111158015611bd9575060005482105b8015610910575050600090815260046020526040902054600160e01b161590565b611c0482826111d4565b610bfb5760008281526008602090815260408083206001600160a01b03851684529091529020805460ff19166001179055611c3c3390565b6001600160a01b0316816001600160a01b0316837f2f8788117e7eff1d82e926ec794901d17c78024a50270940304540a733656f0d60405160405180910390a45050565b611c8a82826111d4565b15610bfb5760008281526008602090815260408083206001600160a01b0385168085529252808320805460ff1916905551339285917ff6391f5c32d9c69d2a47ea670b442974b53935d1edc7fd64eb21e047a839171b9190a45050565b60008180600111611d3e57600054811015611d3e57600081815260046020526040902054600160e01b8116611d3c575b80611d35575060001901600081815260046020526040902054611d17565b9392505050565b505b604051636f96cda160e11b815260040160405180910390fd5b604080516080810182526000808252602082018190529181018290526060810191909152610910611d8783611ce7565b604080516080810182526001600160a01b038316815260a083901c67ffffffffffffffff166020820152600160e01b831615159181019190915260e89190911c606082015290565b604051630a85bd0160e11b81526000906001600160a01b0385169063150b7a0290611e04903390899088908890600401612dbc565b602060405180830381600087803b158015611e1e57600080fd5b505af1925050508015611e4e575060408051601f3d908101601f19168201909252611e4b91810190612df9565b60015b611ea9573d808015611e7c576040519150601f19603f3d011682016040523d82523d6000602084013e611e81565b606091505b508051611ea1576040516368d2bf6b60e11b815260040160405180910390fd5b805181602001fd5b6001600160e01b031916630a85bd0160e11b1490505b949350505050565b610bfb828260405180602001604052806000815250612140565b60006001611eee60005490565b611ef89190612e16565b6000818152600b60209081526040909120855192935091611f219160018401919087019061258d565b508181556010546005820155604051600190600a90611f41908790612da0565b908152604051908190036020018120805492151560ff1990931692909217909155600f546010546001600160a01b038616927f8475f1ba3b06c1e11c870cbbf9753ca9a8292ea0b203262f682de476dc268f8c92611fa49287928a929190612e2d565b60405180910390a250505050565b6000818152600b6020526040812060010180546060929190611fd390612b8d565b80601f0160208091040260200160405190810160405280929190818152602001828054611fff90612b8d565b801561204c5780601f106120215761010080835404028352916020019161204c565b820191906000526020600020905b81548152906001019060200180831161202f57829003601f168201915b50505050509050600061207d826040516020016120699190612e59565b6040516020818303038152906040526121a6565b60405160200161208d91906146f8565b60405160208183030381529060405290506120b4828260405160200161206992919061473d565b6040516020016120c491906147da565b60405160208183030381529060405292505050919050565b6120e682826111d4565b610bfb576120fe816001600160a01b031660146122fa565b6121098360206122fa565b60405160200161211a92919061481f565b60408051601f198184030181529082905262461bcd60e51b8252610abe916004016126ca565b61214a8383612496565b6001600160a01b0383163b15610b7c576000548281035b6121746000868380600101945086611dcf565b612191576040516368d2bf6b60e11b815260040160405180910390fd5b81811061216157816000541461161b57600080fd5b60608151600014156121c657505060408051602081019091526000815290565b600060405180606001604052806040815260200161491b60409139905060006003845160026121f59190614894565b6121ff91906148ac565b61220a9060046148ce565b67ffffffffffffffff811115612222576122226127bb565b6040519080825280601f01601f19166020018201604052801561224c576020820181803683370190505b509050600182016020820185865187015b808210156122b8576003820191508151603f8160121c168501518453600184019350603f81600c1c168501518453600184019350603f8160061c168501518453600184019350603f811685015184535060018301925061225d565b50506003865106600181146122d457600281146122e7576122ef565b603d6001830353603d60028303536122ef565b603d60018303535b509195945050505050565b606060006123098360026148ce565b612314906002614894565b67ffffffffffffffff81111561232c5761232c6127bb565b6040519080825280601f01601f191660200182016040528015612356576020820181803683370190505b509050600360fc1b81600081518110612371576123716148ed565b60200101906001600160f81b031916908160001a905350600f60fb1b816001815181106123a0576123a06148ed565b60200101906001600160f81b031916908160001a90535060006123c48460026148ce565b6123cf906001614894565b90505b6001811115612447576f181899199a1a9b1b9c1cb0b131b232b360811b85600f1660108110612403576124036148ed565b1a60f81b828281518110612419576124196148ed565b60200101906001600160f81b031916908160001a90535060049490941c9361244081614903565b90506123d2565b508315611d355760405162461bcd60e51b815260206004820181905260248201527f537472696e67733a20686578206c656e67746820696e73756666696369656e746044820152606401610abe565b600054816124b75760405163b562e8dd60e01b815260040160405180910390fd5b6001600160a01b03831660008181526005602090815260408083208054680100000000000000018802019055848352600490915281206001851460e11b4260a01b178317905582840190839083907fddf252ad1be2c89b69c2b068fc378daa952ba7f163c4a11628f55a4df523b3ef8180a4600183015b81811461256657808360007fddf252ad1be2c89b69c2b068fc378daa952ba7f163c4a11628f55a4df523b3ef600080a460010161252e565b508161258457604051622e076360e81b815260040160405180910390fd5b60005550505050565b82805461259990612b8d565b90600052602060002090601f0160209004810192826125bb5760008555612601565b82601f106125d457805160ff1916838001178555612601565b82800160010185558215612601579182015b828111156126015782518255916020019190600101906125e6565b5061260d929150612611565b5090565b5b8082111561260d5760008155600101612612565b60006020828403121561263857600080fd5b5035919050565b6001600160e01b03198116811461195057600080fd5b60006020828403121561266757600080fd5b8135611d358161263f565b60005b8381101561268d578181015183820152602001612675565b838111156114a35750506000910152565b600081518084526126b6816020860160208601612672565b601f01601f19169290920160200192915050565b602081526000611d35602083018461269e565b6001600160a01b038116811461195057600080fd5b6000806040838503121561270557600080fd5b8235612710816126dd565b946020939093013593505050565b60008060006060848603121561273357600080fd5b833561273e816126dd565b9250602084013561274e816126dd565b929592945050506040919091013590565b6000806040838503121561277257600080fd5b82359150602083013561ffff8116811461278b57600080fd5b809150509250929050565b600080604083850312156127a957600080fd5b82359150602083013561278b816126dd565b634e487b7160e01b600052604160045260246000fd5b600082601f8301126127e257600080fd5b813567ffffffffffffffff808211156127fd576127fd6127bb565b604051601f8301601f19908116603f01168101908282118183101715612825576128256127bb565b8160405283815286602085880101111561283e57600080fd5b836020870160208301376000602085830101528094505050505092915050565b60008060006060848603121561287357600080fd5b833592506020840135612885816126dd565b9150604084013567ffffffffffffffff8111156128a157600080fd5b6128ad868287016127d1565b9150509250925092565b6000602082840312156128c957600080fd5b8135611d35816126dd565b60208152815160208201526000602083015160e060408401526128fb61010084018261269e565b90506040840151601f1980858403016060860152612919838361269e565b925061ffff606087015116608086015260018060a01b0360808701511660a086015260a08601519150808584030160c086015250612957828261269e565b91505060c084015160e08401528091505092915050565b6000806040838503121561298157600080fd5b823561298c816126dd565b91506020830135801515811461278b57600080fd5b6000602082840312156129b357600080fd5b813567ffffffffffffffff8111156129ca57600080fd5b611ebf848285016127d1565b600080604083850312156129e957600080fd5b50508035926020909101359150565b60008060008060808587031215612a0e57600080fd5b8435612a19816126dd565b93506020850135612a29816126dd565b925060408501359150606085013567ffffffffffffffff811115612a4c57600080fd5b612a58878288016127d1565b91505092959194509250565b60008060408385031215612a7757600080fd5b823567ffffffffffffffff811115612a8e57600080fd5b612a9a858286016127d1565b925050602083013561278b816126dd565b60008060408385031215612abe57600080fd5b8235612ac9816126dd565b9150602083013561278b816126dd565b60008060408385031215612aec57600080fd5b82359150602083013567ffffffffffffffff811115612b0a57600080fd5b612b16858286016127d1565b9150509250929050565b87815260e060208201526000612b3960e083018961269e565b8281036040840152612b4b818961269e565b61ffff881660608501526001600160a01b038716608085015283810360a08501529050612b78818661269e565b9150508260c083015298975050505050505050565b600181811c90821680612ba157607f821691505b60208210811415612bc257634e487b7160e01b600052602260045260246000fd5b50919050565b60208082526025908201527f596f75277265206e6f7420746865206f776e6572206f66207468697320706c6160408201526474666f726d60d81b606082015260800190565b8381526000602060018060a01b03851681840152606060408401526000845481600182811c915080831680612c4357607f831692505b858310811415612c6157634e487b7160e01b85526022600452602485fd5b6060880183905260808801818015612c805760018114612c9157612cbc565b60ff19861682528782019650612cbc565b60008b81526020902060005b86811015612cb657815484820152908501908901612c9d565b83019750505b50949b9a5050505050505050505050565b634e487b7160e01b600052601160045260246000fd5b6000600019821415612cf757612cf7612ccd565b5060010190565b60208082526024908201527f496e636f727265637420616d6f756e74206f662045544820666f72206d696e746040820152632066656560e01b606082015260800190565b60208082526022908201527f506c6174666f726d20616c726561647920686173206120506c6174666f726d20604082015261125160f21b606082015260800190565b60008151612d96818560208601612672565b9290920192915050565b60008251612db2818460208701612672565b9190910192915050565b6001600160a01b0385811682528416602082015260408101839052608060608201819052600090612def9083018461269e565b9695505050505050565b600060208284031215612e0b57600080fd5b8151611d358161263f565b600082821015612e2857612e28612ccd565b500390565b848152608060208201526000612e46608083018661269e565b6040830194909452506060015292915050565b7f3c73766720786d6c6e733d22687474703a2f2f7777772e77332e6f72672f323081527f30302f737667222076696577426f783d223020302037323020373230223e3c6460208201527f6566733e3c6c696e6561724772616469656e742069643d2261222078313d223660408201527f372e3934222079313d223136392e3438222078323d223637302e39382220793260608201527f3d223536322e383622206772616469656e74556e6974733d227573657253706160808201527f63654f6e557365223e3c73746f70206f66667365743d2230222073746f702d6360a08201527f6f6c6f723d2223313761396332222f3e3c73746f70206f66667365743d222e3160c08201527f32222073746f702d636f6c6f723d2223316161396263222f3e3c73746f70206f60e08201527f66667365743d222e3239222073746f702d636f6c6f723d2223323561626162226101008201527f2f3e3c73746f70206f66667365743d222e3438222073746f702d636f6c6f723d6101208201527f2223333561643866222f3e3c73746f70206f66667365743d222e3634222073746101408201527f6f702d636f6c6f723d2223343862303732222f3e3c73746f70206f66667365746101608201527f3d222e3738222073746f702d636f6c6f723d2223353962323534222f3e3c73746101808201527f6f70206f66667365743d2231222073746f702d636f6c6f723d222337616237326101a08201527f30222f3e3c2f6c696e6561724772616469656e743e3c2f646566733e3c7061746101c08201527f68207374796c653d2266696c6c3a75726c282361292220643d224d30203068376101e08201527f32307637323048307a222f3e3c7061746820643d224d34372e30352039322e336102008201527f375635332e38344833332e32395634366833362e383576372e38344835362e346102208201527f317633382e3532682d392e33365a6d33352e37312d32332e33342d382e30372d6102408201527f312e3436632e39312d332e323520322e34372d352e363520342e36382d372e326102608201527f3120322e32312d312e353620352e352d322e333420392e38372d322e333420336102808201527f2e3936203020362e39322e343720382e383620312e343120312e39342e3934206102a08201527f332e333120322e313320342e3120332e353773312e313920342e3120312e31396102c08201527f20372e39366c2d2e312031302e3337633020322e39352e313420352e31332e346102e08201527f3320362e35332e323820312e342e383220322e393120312e3620342e3531682d6103008201527f382e3739632d2e32332d2e35392d2e35322d312e34372d2e38352d322e36332d6103208201527f2e31352d2e35332d2e32352d2e38382d2e33322d312e30342d312e353220312e6103408201527f34382d332e313420322e35382d342e383720332e3332732d332e353720312e316103608201527f312d352e353420312e3131632d332e343620302d362e31382d2e39342d382e316103808201527f382d322e38322d312e39392d312e38382d322e39392d342e32352d322e39392d6103a08201527f372e313220302d312e392e34352d332e353920312e33362d352e303873322e316103c08201527f382d322e363320332e38312d332e343220332e39392d312e343820372e30372d6103e08201527f322e303763342e31352d2e373820372e30332d312e353120382e36332d322e316104008201527f38762d2e383963302d312e37312d2e34322d322e39332d312e32372d332e36356104208201527f732d322e34342d312e30392d342e37382d312e3039632d312e353820302d322e6104408201527f38322e33312d332e372e39332d2e38392e36322d312e3620312e37312d322e316104608201527f3520332e32375a6d31312e383920372e3231632d312e31342e33382d322e39346104808201527f2e38332d352e343120312e33362d322e34372e35332d342e303820312e30342d6104a08201527f342e383420312e35352d312e31362e38322d312e373420312e38372d312e37346104c08201527f20332e3133732e343620322e333220312e333920332e3233632e39332e3931206104e08201527f322e313120312e333620332e353420312e333620312e36203020332e31332d2e6105008201527f353320342e35392d312e353820312e30382d2e3820312e37382d312e373820326105208201527f2e31322d322e39342e32332d2e37362e33352d322e322e33352d342e3333762d6105408201527f312e37375a6d31372e34392031362e313356343668382e38397634362e3337686105608201527f2d382e38395a6d33372e34352d31302e363920382e383620312e3439632d312e6105808201527f313420332e32352d322e393420352e37322d352e333920372e3432732d352e356105a08201527f3320322e35352d392e323220322e3535632d352e383420302d31302e31362d316105c08201527f2e39312d31322e39372d352e37322d322e32312d332e30362d332e33322d362e6105e08201527f39322d332e33322d31312e353820302d352e353720312e34362d392e393320346106008201527f2e33362d31332e303820322e39312d332e313520362e35392d342e37332031316106208201527f2e30342d342e37332035203020382e393420312e36352031312e383320342e396106408201527f3573342e323720382e333620342e31342031352e3137682d32322e3237632e306106608201527f3620322e36342e373820342e363920322e313520362e313520312e333720312e6106808201527f343720332e303820322e3220352e313220322e3220312e3339203020322e35366106a08201527f2d2e333820332e35312d312e31342e39352d2e373620312e36372d312e3938206106c08201527f322e31352d332e36375a6d2e35312d382e3938632d2e30362d322e35372d2e376106e08201527f332d342e35332d312e39392d352e38372d312e32372d312e33342d322e38312d6107008201527f322e30312d342e36322d322e30312d312e393420302d332e35342e37312d342e6107208201527f383120322e31322d312e323720312e34312d312e383920332e33332d312e38376107408201527f20352e37366831332e32385a6d34362e36322031392e3637682d382e383956376107608201527f352e323363302d332e36332d2e31392d352e39372d2e35372d372e30342d2e336107808201527f382d312e30362d312d312e38392d312e38352d322e3438732d312e38382d2e386107a08201527f392d332e30382d2e3839632d312e353420302d322e39322e34322d342e3134206107c08201527f312e3237732d322e303620312e39362d322e353120332e3335632d2e343520316107e08201527f2e33392d2e363820332e39362d2e363820372e37327631352e3231682d382e386108008201527f395635382e373868382e323676342e393363322e39332d332e3820362e36322d6108208201527f352e36392031312e30372d352e363920312e3936203020332e37352e333520356108408201527f2e333820312e303620312e36322e373120322e383520312e363120332e3638206108608201527f322e372e383320312e3120312e343120322e333420312e373420332e3733732e6108808201527f343920332e33382e343920352e39387632302e38385a6d32342e34322d33332e6108a08201527f353976372e3038682d362e30375637392e34633020322e37342e303620342e336108c08201527f342e313720342e37392e31322e34352e33382e38332e373920312e31322e34316108e08201527f2e332e39312e343420312e352e34342e3832203020322e30312d2e323820332e6109008201527f35372d2e38356c2e373620362e39632d322e30372e38392d342e343120312e336109208201527f332d372e303220312e33332d312e3620302d332e30352d2e32372d342e33332d6109408201527f2e38312d312e32392d2e35342d322e32332d312e32332d322e38332d322e30396109608201527f2d2e362d2e38352d312e30322d322e30312d312e32352d332e34362d2e31392d6109808201527f312e30332d2e32382d332e31322d2e32382d362e32365636352e3836682d342e6109a08201527f3038762d372e303868342e3038762d362e36376c382e39322d352e31397631316109c08201527f2e383668362e30375a6d362e32362033332e353956343668362e31347634302e6109e08201527f396832322e383476352e3437682d32382e39375a6d35372e34372d342e313463610a008201527f2d322e313120312e37392d342e313420332e30362d362e303920332e382d312e610a208201527f39352e37342d342e303420312e31312d362e323820312e31312d332e36392030610a408201527f2d362e35332d2e392d382e35312d322e372d312e39382d312e382d322e39372d610a608201527f342e31312d322e39372d362e393120302d312e36342e33372d332e313520312e610a808201527f31322d342e353173312e37332d322e343520322e39342d332e323763312e3231610aa08201527f2d2e383220322e35382d312e343420342e312d312e383720312e31322d2e3320610ac08201527f322e382d2e353820352e30362d2e383520342e362d2e353520372e39382d312e610ae08201527f322031302e31352d312e39362e30322d2e37382e30332d312e32382e30332d31610b008201527f2e343920302d322e33322d2e35342d332e39352d312e36312d342e392d312e34610b208201527f362d312e32392d332e36322d312e39332d362e34382d312e39332d322e363820610b408201527f302d342e36352e34372d352e393320312e3431732d322e323220322e362d322e610b608201527f383320342e39386c2d352e35372d2e3736632e35312d322e333820312e33342d610b808201527f342e333120322e352d352e373720312e31362d312e343720322e38342d322e35610ba08201527f3920352e30332d332e333820322e31392d2e373920342e37332d312e31392037610bc08201527f2e36322d312e313973352e322e333420362e393920312e303163312e37392e36610be08201527f3820332e313120312e353220332e393520322e35352e383420312e303220312e610c008201527f343320322e333120312e373720332e38382e31392e39372e323820322e37322e610c208201527f323820352e323576372e3539633020352e32392e313220382e36342e33362031610c408201527f302e30342e323420312e342e373220322e373520312e343420342e3033682d35610c608201527f2e3935632d2e35392d312e31382d2e39372d322e35362d312e31342d342e3134610c808201527f5a6d2d2e34372d31322e3732632d322e30372e38342d352e313720312e35362d610ca08201527f392e3320322e31352d322e33342e33342d34202e37322d342e393720312e3134610cc08201527f2d2e39372e34322d312e373220312e30342d322e323520312e3835732d2e3739610ce08201527f20312e37312d2e373920322e37633020312e35322e353720322e373820312e37610d008201527f3220332e3820312e313520312e303120322e383320312e353220352e30352031610d208201527f2e353273342e31342d2e343820352e38352d312e343420322e39362d322e3237610d408201527f20332e37362d332e3934632e36312d312e32392e39322d332e31382e39322d35610d608201527f2e3639762d322e30395a6d31342e33332032392e382d2e36332d352e33356331610d808201527f2e32342e333420322e33332e353120332e32362e353120312e3237203020322e610da08201527f32382d2e323120332e30342d2e363373312e33382d312e303120312e38372d31610dc08201527f2e3737632e33362d2e35372e39342d312e393820312e37342d342e32342e3131610de08201527f2d2e33322e32372d2e37382e35312d312e33396c2d31322e37352d33332e3635610e008201527f68362e31346c362e39392031392e3435632e393120322e343720312e37322035610e208201527f2e303620322e343420372e37382e36352d322e363120312e34332d352e313720610e408201527f322e33342d372e36356c372e31382d31392e353868352e36396c2d31322e3738610e608201527f2033342e3136632d312e333720332e36392d322e343420362e32332d332e3139610e808201527f20372e36322d312e303120312e38382d322e313720332e32352d332e34382034610ea08201527f2e31332d312e33312e38382d322e383720312e33312d342e363820312e33312d610ec08201527f312e3120302d322e33322d2e32332d332e36372d2e375a6d35352e36332d3233610ee08201527f2e373620352e38382e3733632d2e393320332e34342d322e363520362e312d35610f008201527f2e313620382d322e353120312e392d352e373120322e38352d392e363220322e610f208201527f38352d342e393120302d382e38312d312e35312d31312e36392d342e35342d32610f408201527f2e38382d332e30332d342e33322d372e32372d342e33322d31322e373373312e610f608201527f34362d31302e303420342e33362d31332e313663322e39312d332e313220362e610f808201527f36382d342e36382031312e33322d342e363873382e313620312e35332031312e610fa08201527f303120342e353963322e383520332e303620342e323720372e333620342e3237610fc08201527f2031322e39312030202e33342d2e30312e38342d2e303320312e3532682d3235610fe08201527f2e3035632e323120332e363920312e323520362e353220332e313320382e34386110008201527f20312e383820312e393620342e323220322e393420372e303220322e393420326110208201527f2e3039203020332e38372d2e353520352e33352d312e363420312e34382d312e6110408201527f3120322e36352d322e383520332e35312d352e32355a6d2d31382e36392d392e6110608201527f326831382e3736632d2e32352d322e38332d2e39372d342e39342d322e31352d6110808201527f362e33362d312e38312d322e31392d342e31372d332e32392d372e30352d332e6110a08201527f32392d322e363120302d342e38312e38382d362e3620322e3633732d322e37376110c08201527f20342e30392d322e393620372e30325a6d33312e36362032302e30325635382e6110e08201527f373868352e313276352e303963312e33312d322e333820322e35312d332e39356111008201527f20332e36322d342e373173322e33322d312e313420332e36352d312e313463316111208201527f2e3932203020332e38372e363120352e383520312e38336c2d312e393620352e6111408201527f3238632d312e33392d2e38322d322e37382d312e32332d342e31382d312e32336111608201527f2d312e323420302d322e33362e33372d332e333520312e31322d2e39392e37356111808201527f2d312e3720312e37392d322e313220332e31322d2e363320322e30322d2e39356111a08201527f20342e32342d2e393520362e36347631372e3539682d352e36395a6d32312e376111c08201527f39203056343668392e33367634362e3337682d392e33365a4d3430372e3337206111e08201527f34366831372e313163332e3836203020362e382e3320382e38332e383920322e6112008201527f37322e3820352e303520322e323220362e393920342e323720312e393420322e6112208201527f303520332e343220342e353520342e343320372e353120312e303120322e39366112408201527f20312e353220362e363220312e35322031302e3936203020332e38322d2e34376112608201527f20372e31312d312e343220392e38372d312e313620332e33372d322e383220366112808201527f2e312d342e393720382e31392d312e363220312e35382d332e383220322e38326112a08201527f2d362e353820332e372d322e30372e36352d342e38332e39382d382e32392e396112c08201527f38682d31372e36325634365a6d392e333620372e38347633302e373168362e396112e08201527f3963322e3631203020342e352d2e313520352e36362d2e343420312e35322d2e6113008201527f333820322e37382d312e303220332e37382d312e393320312d2e393120312e386113208201527f322d322e3420322e34352d342e34382e36332d322e30382e39352d342e39312e6113408201527f39352d382e3439732d2e33322d362e33342d2e39352d382e32362d312e35322d6113608201527f332e34322d322e36362d342e34392d322e35382d312e382d342e33332d322e316113808201527f38632d312e33312d2e332d332e38372d2e34342d372e36392d2e3434682d342e6113a08201527f32315a22207374796c653d2266696c6c3a23666666222f3e3c7465787420793d6113c08201527f223637302220783d22333022207374796c653d22666f6e743a373070782073616113e082015273373996b9b2b934b31db334b6361d11b33333111f60611b6114008201526000611d356146df611414840185612d84565b6c1e17ba32bc3a1f1e17b9bb339f60991b8152600d0190565b7f646174613a696d6167652f7376672b786d6c3b6261736536342c00000000000081526000825161473081601a850160208701612672565b91909101601a0192915050565b683d913730b6b2911d1160b91b81528251600090614762816009850160208801612672565b6b1116101134b6b0b3b2911d1160a11b600991840191820152835161478e816015840160208801612672565b7f222c20226465736372697074696f6e223a202254616c656e74204c6179657220601592909101918201526c506c6174666f726d204944227d60981b6035820152604201949350505050565b7f646174613a6170706c69636174696f6e2f6a736f6e3b6261736536342c00000081526000825161481281601d850160208701612672565b91909101601d0192915050565b7f416363657373436f6e74726f6c3a206163636f756e7420000000000000000000815260008351614857816017850160208801612672565b7001034b99036b4b9b9b4b733903937b6329607d1b6017918401918201528351614888816028840160208801612672565b01602801949350505050565b600082198211156148a7576148a7612ccd565b500190565b6000826148c957634e487b7160e01b600052601260045260246000fd5b500490565b60008160001904831182151516156148e8576148e8612ccd565b500290565b634e487b7160e01b600052603260045260246000fd5b60008161491257614912612ccd565b50600019019056fe4142434445464748494a4b4c4d4e4f505152535455565758595a6162636465666768696a6b6c6d6e6f707172737475767778797a303132333435363738392b2fa2646970667358221220aa73a02daab741a08c3f5918df497afa86c3ec7b7c6d18bc16a0b28d47bc4fc764736f6c63430008090033",
  "linkReferences": {},
  "deployedLinkReferences": {}
}