{
  "_format": "hh-sol-artifact-1",
  "contractName": "TalentLayerPlatformID",
  "sourceName": "contracts/TalentLayerPlatformID.sol",
  "abi": [
    {
      "inputs": [],
      "stateMutability": "nonpayable",
      "type": "constructor"
    },
    {
      "inputs": [],
      "name": "ApprovalCallerNotOwnerNorApproved",
      "type": "error"
    },
    {
      "inputs": [],
      "name": "ApprovalQueryForNonexistentToken",
      "type": "error"
    },
    {
      "inputs": [],
      "name": "ApproveToCaller",
      "type": "error"
    },
    {
      "inputs": [],
      "name": "BalanceQueryForZeroAddress",
      "type": "error"
    },
    {
      "inputs": [],
      "name": "MintERC2309QuantityExceedsLimit",
      "type": "error"
    },
    {
      "inputs": [],
      "name": "MintToZeroAddress",
      "type": "error"
    },
    {
      "inputs": [],
      "name": "MintZeroQuantity",
      "type": "error"
    },
    {
      "inputs": [],
      "name": "OwnerQueryForNonexistentToken",
      "type": "error"
    },
    {
      "inputs": [],
      "name": "OwnershipNotInitializedForExtraData",
      "type": "error"
    },
    {
      "inputs": [],
      "name": "TransferCallerNotOwnerNorApproved",
      "type": "error"
    },
    {
      "inputs": [],
      "name": "TransferFromIncorrectOwner",
      "type": "error"
    },
    {
      "inputs": [],
      "name": "TransferToNonERC721ReceiverImplementer",
      "type": "error"
    },
    {
      "inputs": [],
      "name": "TransferToZeroAddress",
      "type": "error"
    },
    {
      "inputs": [],
      "name": "URIQueryForNonexistentToken",
      "type": "error"
    },
    {
      "anonymous": false,
      "inputs": [
        {
          "indexed": true,
          "internalType": "address",
          "name": "owner",
          "type": "address"
        },
        {
          "indexed": true,
          "internalType": "address",
          "name": "approved",
          "type": "address"
        },
        {
          "indexed": true,
          "internalType": "uint256",
          "name": "tokenId",
          "type": "uint256"
        }
      ],
      "name": "Approval",
      "type": "event"
    },
    {
      "anonymous": false,
      "inputs": [
        {
          "indexed": true,
          "internalType": "address",
          "name": "owner",
          "type": "address"
        },
        {
          "indexed": true,
          "internalType": "address",
          "name": "operator",
          "type": "address"
        },
        {
          "indexed": false,
          "internalType": "bool",
          "name": "approved",
          "type": "bool"
        }
      ],
      "name": "ApprovalForAll",
      "type": "event"
    },
    {
      "anonymous": false,
      "inputs": [
        {
          "indexed": false,
          "internalType": "uint256",
          "name": "_platformId",
          "type": "uint256"
        },
        {
          "indexed": false,
          "internalType": "uint256",
          "name": "_arbitrationFeeTimeout",
          "type": "uint256"
        }
      ],
      "name": "ArbitrationFeeTimeoutUpdated",
      "type": "event"
    },
    {
      "anonymous": false,
      "inputs": [
        {
          "indexed": false,
          "internalType": "uint256",
          "name": "_platformId",
          "type": "uint256"
        },
        {
          "indexed": false,
          "internalType": "contract Arbitrator",
          "name": "_arbitrator",
          "type": "address"
        },
        {
          "indexed": false,
          "internalType": "bytes",
          "name": "_extraData",
          "type": "bytes"
        }
      ],
      "name": "ArbitratorUpdated",
      "type": "event"
    },
    {
      "anonymous": false,
      "inputs": [
        {
          "indexed": true,
          "internalType": "uint256",
          "name": "_tokenId",
          "type": "uint256"
        },
        {
          "indexed": false,
          "internalType": "string",
          "name": "_newCid",
          "type": "string"
        }
      ],
      "name": "CidUpdated",
      "type": "event"
    },
    {
      "anonymous": false,
      "inputs": [
        {
          "indexed": true,
          "internalType": "uint256",
          "name": "fromTokenId",
          "type": "uint256"
        },
        {
          "indexed": false,
          "internalType": "uint256",
          "name": "toTokenId",
          "type": "uint256"
        },
        {
          "indexed": true,
          "internalType": "address",
          "name": "from",
          "type": "address"
        },
        {
          "indexed": true,
          "internalType": "address",
          "name": "to",
          "type": "address"
        }
      ],
      "name": "ConsecutiveTransfer",
      "type": "event"
    },
    {
      "anonymous": false,
      "inputs": [
        {
          "indexed": true,
          "internalType": "address",
          "name": "_platformOwnerAddress",
          "type": "address"
        },
        {
          "indexed": false,
          "internalType": "uint256",
          "name": "_tokenId",
          "type": "uint256"
        },
        {
          "indexed": false,
          "internalType": "string",
          "name": "_platformName",
          "type": "string"
        },
        {
          "indexed": false,
          "internalType": "uint256",
          "name": "_fee",
          "type": "uint256"
        }
      ],
      "name": "Mint",
      "type": "event"
    },
    {
      "anonymous": false,
      "inputs": [
        {
          "indexed": false,
          "internalType": "uint256",
          "name": "_mintFee",
          "type": "uint256"
        }
      ],
      "name": "MintFeeUpdated",
      "type": "event"
    },
    {
      "anonymous": false,
      "inputs": [
        {
          "indexed": false,
          "internalType": "uint256",
          "name": "_platformId",
          "type": "uint256"
        },
        {
          "indexed": false,
          "internalType": "uint16",
          "name": "_platformFee",
          "type": "uint16"
        }
      ],
      "name": "PlatformFeeUpdated",
      "type": "event"
    },
    {
      "anonymous": false,
      "inputs": [
        {
          "indexed": true,
          "internalType": "bytes32",
          "name": "role",
          "type": "bytes32"
        },
        {
          "indexed": true,
          "internalType": "bytes32",
          "name": "previousAdminRole",
          "type": "bytes32"
        },
        {
          "indexed": true,
          "internalType": "bytes32",
          "name": "newAdminRole",
          "type": "bytes32"
        }
      ],
      "name": "RoleAdminChanged",
      "type": "event"
    },
    {
      "anonymous": false,
      "inputs": [
        {
          "indexed": true,
          "internalType": "bytes32",
          "name": "role",
          "type": "bytes32"
        },
        {
          "indexed": true,
          "internalType": "address",
          "name": "account",
          "type": "address"
        },
        {
          "indexed": true,
          "internalType": "address",
          "name": "sender",
          "type": "address"
        }
      ],
      "name": "RoleGranted",
      "type": "event"
    },
    {
      "anonymous": false,
      "inputs": [
        {
          "indexed": true,
          "internalType": "bytes32",
          "name": "role",
          "type": "bytes32"
        },
        {
          "indexed": true,
          "internalType": "address",
          "name": "account",
          "type": "address"
        },
        {
          "indexed": true,
          "internalType": "address",
          "name": "sender",
          "type": "address"
        }
      ],
      "name": "RoleRevoked",
      "type": "event"
    },
    {
      "anonymous": false,
      "inputs": [
        {
          "indexed": true,
          "internalType": "address",
          "name": "from",
          "type": "address"
        },
        {
          "indexed": true,
          "internalType": "address",
          "name": "to",
          "type": "address"
        },
        {
          "indexed": true,
          "internalType": "uint256",
          "name": "tokenId",
          "type": "uint256"
        }
      ],
      "name": "Transfer",
      "type": "event"
    },
    {
      "inputs": [],
      "name": "DEFAULT_ADMIN_ROLE",
      "outputs": [
        {
          "internalType": "bytes32",
          "name": "",
          "type": "bytes32"
        }
      ],
      "stateMutability": "view",
      "type": "function"
    },
    {
      "inputs": [],
      "name": "MINT_ROLE",
      "outputs": [
        {
          "internalType": "bytes32",
          "name": "",
          "type": "bytes32"
        }
      ],
      "stateMutability": "view",
      "type": "function"
    },
    {
      "inputs": [
        {
          "internalType": "address",
          "name": "_arbitrator",
          "type": "address"
        },
        {
          "internalType": "bool",
          "name": "_isInternal",
          "type": "bool"
        }
      ],
      "name": "addArbitrator",
      "outputs": [],
      "stateMutability": "nonpayable",
      "type": "function"
    },
    {
      "inputs": [
        {
          "internalType": "address",
          "name": "to",
          "type": "address"
        },
        {
          "internalType": "uint256",
          "name": "tokenId",
          "type": "uint256"
        }
      ],
      "name": "approve",
      "outputs": [],
      "stateMutability": "nonpayable",
      "type": "function"
    },
    {
      "inputs": [
        {
          "internalType": "address",
          "name": "owner",
          "type": "address"
        }
      ],
      "name": "balanceOf",
      "outputs": [
        {
          "internalType": "uint256",
          "name": "",
          "type": "uint256"
        }
      ],
      "stateMutability": "view",
      "type": "function"
    },
    {
      "inputs": [
        {
          "internalType": "uint256",
          "name": "tokenId",
          "type": "uint256"
        }
      ],
      "name": "getApproved",
      "outputs": [
        {
          "internalType": "address",
          "name": "",
          "type": "address"
        }
      ],
      "stateMutability": "view",
      "type": "function"
    },
    {
      "inputs": [
        {
          "internalType": "uint256",
          "name": "_platformId",
          "type": "uint256"
        }
      ],
      "name": "getPlatform",
      "outputs": [
        {
          "components": [
            {
              "internalType": "uint256",
              "name": "id",
              "type": "uint256"
            },
            {
              "internalType": "string",
              "name": "name",
              "type": "string"
            },
            {
              "internalType": "string",
              "name": "dataUri",
              "type": "string"
            },
            {
              "internalType": "uint16",
              "name": "fee",
              "type": "uint16"
            },
            {
              "internalType": "contract Arbitrator",
              "name": "arbitrator",
              "type": "address"
            },
            {
              "internalType": "bytes",
              "name": "arbitratorExtraData",
              "type": "bytes"
            },
            {
              "internalType": "uint256",
              "name": "arbitrationFeeTimeout",
              "type": "uint256"
            }
          ],
          "internalType": "struct TalentLayerPlatformID.Platform",
          "name": "",
          "type": "tuple"
        }
      ],
      "stateMutability": "view",
      "type": "function"
    },
    {
      "inputs": [
        {
          "internalType": "uint256",
          "name": "_platformId",
          "type": "uint256"
        }
      ],
      "name": "getPlatformFee",
      "outputs": [
        {
          "internalType": "uint16",
          "name": "",
          "type": "uint16"
        }
      ],
      "stateMutability": "view",
      "type": "function"
    },
    {
      "inputs": [
        {
          "internalType": "address",
          "name": "_owner",
          "type": "address"
        }
      ],
      "name": "getPlatformIdFromAddress",
      "outputs": [
        {
          "internalType": "uint256",
          "name": "",
          "type": "uint256"
        }
      ],
      "stateMutability": "view",
      "type": "function"
    },
    {
      "inputs": [
        {
          "internalType": "bytes32",
          "name": "role",
          "type": "bytes32"
        }
      ],
      "name": "getRoleAdmin",
      "outputs": [
        {
          "internalType": "bytes32",
          "name": "",
          "type": "bytes32"
        }
      ],
      "stateMutability": "view",
      "type": "function"
    },
    {
      "inputs": [
        {
          "internalType": "bytes32",
          "name": "role",
          "type": "bytes32"
        },
        {
          "internalType": "address",
          "name": "account",
          "type": "address"
        }
      ],
      "name": "grantRole",
      "outputs": [],
      "stateMutability": "nonpayable",
      "type": "function"
    },
    {
      "inputs": [
        {
          "internalType": "address",
          "name": "",
          "type": "address"
        }
      ],
      "name": "hasBeenRecovered",
      "outputs": [
        {
          "internalType": "bool",
          "name": "",
          "type": "bool"
        }
      ],
      "stateMutability": "view",
      "type": "function"
    },
    {
      "inputs": [
        {
          "internalType": "bytes32",
          "name": "role",
          "type": "bytes32"
        },
        {
          "internalType": "address",
          "name": "account",
          "type": "address"
        }
      ],
      "name": "hasRole",
      "outputs": [
        {
          "internalType": "bool",
          "name": "",
          "type": "bool"
        }
      ],
      "stateMutability": "view",
      "type": "function"
    },
    {
      "inputs": [
        {
          "internalType": "address",
          "name": "",
          "type": "address"
        }
      ],
      "name": "internalArbitrators",
      "outputs": [
        {
          "internalType": "bool",
          "name": "",
          "type": "bool"
        }
      ],
      "stateMutability": "view",
      "type": "function"
    },
    {
      "inputs": [
        {
          "internalType": "address",
          "name": "owner",
          "type": "address"
        },
        {
          "internalType": "address",
          "name": "operator",
          "type": "address"
        }
      ],
      "name": "isApprovedForAll",
      "outputs": [
        {
          "internalType": "bool",
          "name": "",
          "type": "bool"
        }
      ],
      "stateMutability": "view",
      "type": "function"
    },
    {
      "inputs": [
        {
          "internalType": "uint256",
          "name": "_platformId",
          "type": "uint256"
        }
      ],
      "name": "isValid",
      "outputs": [],
      "stateMutability": "view",
      "type": "function"
    },
    {
      "inputs": [
        {
          "internalType": "string",
          "name": "_platformName",
          "type": "string"
        }
      ],
      "name": "mint",
      "outputs": [],
      "stateMutability": "payable",
      "type": "function"
    },
    {
      "inputs": [],
      "name": "mintFee",
      "outputs": [
        {
          "internalType": "uint256",
          "name": "",
          "type": "uint256"
        }
      ],
      "stateMutability": "view",
      "type": "function"
    },
    {
      "inputs": [
        {
          "internalType": "string",
          "name": "_platformName",
          "type": "string"
        },
        {
          "internalType": "address",
          "name": "_platformAddress",
          "type": "address"
        }
      ],
      "name": "mintForAddress",
      "outputs": [],
      "stateMutability": "payable",
      "type": "function"
    },
    {
      "inputs": [],
      "name": "name",
      "outputs": [
        {
          "internalType": "string",
          "name": "",
          "type": "string"
        }
      ],
      "stateMutability": "view",
      "type": "function"
    },
    {
      "inputs": [
        {
          "internalType": "address",
          "name": "_platformAddress",
          "type": "address"
        }
      ],
      "name": "numberMinted",
      "outputs": [
        {
          "internalType": "uint256",
          "name": "",
          "type": "uint256"
        }
      ],
      "stateMutability": "view",
      "type": "function"
    },
    {
      "inputs": [
        {
          "internalType": "uint256",
          "name": "tokenId",
          "type": "uint256"
        }
      ],
      "name": "ownerOf",
      "outputs": [
        {
          "internalType": "address",
          "name": "",
          "type": "address"
        }
      ],
      "stateMutability": "view",
      "type": "function"
    },
    {
      "inputs": [
        {
          "internalType": "uint256",
          "name": "",
          "type": "uint256"
        }
      ],
      "name": "platforms",
      "outputs": [
        {
          "internalType": "uint256",
          "name": "id",
          "type": "uint256"
        },
        {
          "internalType": "string",
          "name": "name",
          "type": "string"
        },
        {
          "internalType": "string",
          "name": "dataUri",
          "type": "string"
        },
        {
          "internalType": "uint16",
          "name": "fee",
          "type": "uint16"
        },
        {
          "internalType": "contract Arbitrator",
          "name": "arbitrator",
          "type": "address"
        },
        {
          "internalType": "bytes",
          "name": "arbitratorExtraData",
          "type": "bytes"
        },
        {
          "internalType": "uint256",
          "name": "arbitrationFeeTimeout",
          "type": "uint256"
        }
      ],
      "stateMutability": "view",
      "type": "function"
    },
    {
      "inputs": [],
      "name": "recoveryRoot",
      "outputs": [
        {
          "internalType": "bytes32",
          "name": "",
          "type": "bytes32"
        }
      ],
      "stateMutability": "view",
      "type": "function"
    },
    {
      "inputs": [
        {
          "internalType": "address",
          "name": "_arbitrator",
          "type": "address"
        }
      ],
      "name": "removeArbitrator",
      "outputs": [],
      "stateMutability": "nonpayable",
      "type": "function"
    },
    {
      "inputs": [
        {
          "internalType": "bytes32",
          "name": "role",
          "type": "bytes32"
        },
        {
          "internalType": "address",
          "name": "account",
          "type": "address"
        }
      ],
      "name": "renounceRole",
      "outputs": [],
      "stateMutability": "nonpayable",
      "type": "function"
    },
    {
      "inputs": [
        {
          "internalType": "bytes32",
          "name": "role",
          "type": "bytes32"
        },
        {
          "internalType": "address",
          "name": "account",
          "type": "address"
        }
      ],
      "name": "revokeRole",
      "outputs": [],
      "stateMutability": "nonpayable",
      "type": "function"
    },
    {
      "inputs": [
        {
          "internalType": "address",
          "name": "from",
          "type": "address"
        },
        {
          "internalType": "address",
          "name": "to",
          "type": "address"
        },
        {
          "internalType": "uint256",
          "name": "tokenId",
          "type": "uint256"
        }
      ],
      "name": "safeTransferFrom",
      "outputs": [],
      "stateMutability": "nonpayable",
      "type": "function"
    },
    {
      "inputs": [
        {
          "internalType": "address",
          "name": "from",
          "type": "address"
        },
        {
          "internalType": "address",
          "name": "to",
          "type": "address"
        },
        {
          "internalType": "uint256",
          "name": "tokenId",
          "type": "uint256"
        },
        {
          "internalType": "bytes",
          "name": "_data",
          "type": "bytes"
        }
      ],
      "name": "safeTransferFrom",
      "outputs": [],
      "stateMutability": "nonpayable",
      "type": "function"
    },
    {
      "inputs": [
        {
          "internalType": "address",
          "name": "operator",
          "type": "address"
        },
        {
          "internalType": "bool",
          "name": "approved",
          "type": "bool"
        }
      ],
      "name": "setApprovalForAll",
      "outputs": [],
      "stateMutability": "nonpayable",
      "type": "function"
    },
    {
      "inputs": [
        {
          "internalType": "bytes4",
          "name": "interfaceId",
          "type": "bytes4"
        }
      ],
      "name": "supportsInterface",
      "outputs": [
        {
          "internalType": "bool",
          "name": "",
          "type": "bool"
        }
      ],
      "stateMutability": "view",
      "type": "function"
    },
    {
      "inputs": [],
      "name": "symbol",
      "outputs": [
        {
          "internalType": "string",
          "name": "",
          "type": "string"
        }
      ],
      "stateMutability": "view",
      "type": "function"
    },
    {
      "inputs": [
        {
          "internalType": "string",
          "name": "",
          "type": "string"
        }
      ],
      "name": "takenNames",
      "outputs": [
        {
          "internalType": "bool",
          "name": "",
          "type": "bool"
        }
      ],
      "stateMutability": "view",
      "type": "function"
    },
    {
      "inputs": [
        {
          "internalType": "uint256",
          "name": "tokenId",
          "type": "uint256"
        }
      ],
      "name": "tokenURI",
      "outputs": [
        {
          "internalType": "string",
          "name": "",
          "type": "string"
        }
      ],
      "stateMutability": "view",
      "type": "function"
    },
    {
      "inputs": [],
      "name": "totalSupply",
      "outputs": [
        {
          "internalType": "uint256",
          "name": "",
          "type": "uint256"
        }
      ],
      "stateMutability": "view",
      "type": "function"
    },
    {
      "inputs": [
        {
          "internalType": "address",
          "name": "from",
          "type": "address"
        },
        {
          "internalType": "address",
          "name": "to",
          "type": "address"
        },
        {
          "internalType": "uint256",
          "name": "tokenId",
          "type": "uint256"
        }
      ],
      "name": "transferFrom",
      "outputs": [],
      "stateMutability": "nonpayable",
      "type": "function"
    },
    {
      "inputs": [
        {
          "internalType": "uint256",
          "name": "_platformId",
          "type": "uint256"
        },
        {
          "internalType": "uint256",
          "name": "_arbitrationFeeTimeout",
          "type": "uint256"
        }
      ],
      "name": "updateArbitrationFeeTimeout",
      "outputs": [],
      "stateMutability": "nonpayable",
      "type": "function"
    },
    {
      "inputs": [
        {
          "internalType": "uint256",
          "name": "_platformId",
          "type": "uint256"
        },
        {
          "internalType": "contract Arbitrator",
          "name": "_arbitrator",
          "type": "address"
        },
        {
          "internalType": "bytes",
          "name": "_extraData",
          "type": "bytes"
        }
      ],
      "name": "updateArbitrator",
      "outputs": [],
      "stateMutability": "nonpayable",
      "type": "function"
    },
    {
      "inputs": [
        {
          "internalType": "uint256",
          "name": "_mintFee",
          "type": "uint256"
        }
      ],
      "name": "updateMintFee",
      "outputs": [],
      "stateMutability": "nonpayable",
      "type": "function"
    },
    {
      "inputs": [
        {
          "internalType": "uint256",
          "name": "_platformId",
          "type": "uint256"
        },
        {
          "internalType": "uint16",
          "name": "_platformFee",
          "type": "uint16"
        }
      ],
      "name": "updatePlatformFee",
      "outputs": [],
      "stateMutability": "nonpayable",
      "type": "function"
    },
    {
      "inputs": [
        {
          "internalType": "uint256",
          "name": "_platformId",
          "type": "uint256"
        },
        {
          "internalType": "string",
          "name": "_newCid",
          "type": "string"
        }
      ],
      "name": "updateProfileData",
      "outputs": [],
      "stateMutability": "nonpayable",
      "type": "function"
    },
    {
      "inputs": [
        {
          "internalType": "bytes32",
          "name": "_newRoot",
          "type": "bytes32"
        }
      ],
      "name": "updateRecoveryRoot",
      "outputs": [],
      "stateMutability": "nonpayable",
      "type": "function"
    },
    {
      "inputs": [
        {
          "internalType": "address",
          "name": "",
          "type": "address"
        }
      ],
      "name": "validArbitrators",
      "outputs": [
        {
          "internalType": "bool",
          "name": "",
          "type": "bool"
        }
      ],
      "stateMutability": "view",
      "type": "function"
    },
    {
      "inputs": [],
      "name": "withdraw",
      "outputs": [],
      "stateMutability": "nonpayable",
      "type": "function"
    }
  ],
  "bytecode": "0x60806040523480156200001157600080fd5b50604080518082018252601581527f54616c656e744c61796572506c6174666f726d494400000000000000000000006020808301918252835180850190945260048452631514125160e21b9084015281519192916200007391600291620001bf565b50805162000089906003906020840190620001bf565b5050600160009081556200009f9150336200010b565b620000cb7f154c00819833dac601ee5ddded6fda79d9d8b506b911b3dbd54cdb95fe6c3686336200010b565b6000600f8190558052600d6020527f81955a0a11e65eac625c29e8882660bae4e165a75d72780094acae8ece9a29ee805460ff19166001179055620002a2565b6200011782826200011b565b5050565b60008281526008602090815260408083206001600160a01b038516845290915290205460ff16620001175760008281526008602090815260408083206001600160a01b03851684529091529020805460ff191660011790556200017b3390565b6001600160a01b0316816001600160a01b0316837f2f8788117e7eff1d82e926ec794901d17c78024a50270940304540a733656f0d60405160405180910390a45050565b828054620001cd9062000265565b90600052602060002090601f016020900481019282620001f157600085556200023c565b82601f106200020c57805160ff19168380011785556200023c565b828001600101855582156200023c579182015b828111156200023c5782518255916020019190600101906200021f565b506200024a9291506200024e565b5090565b5b808211156200024a57600081556001016200024f565b600181811c908216806200027a57607f821691505b602082108114156200029c57634e487b7160e01b600052602260045260246000fd5b50919050565b6148a880620002b26000396000f3fe6080604052600436106102675760003560e01c806395d89b4111610144578063cb8faafa116100b6578063de8295921161007a578063de82959214610779578063e985e9c5146107a9578063e9a9c850146107f2578063f160068f14610826578063f577a50014610846578063faa992d31461086657600080fd5b8063cb8faafa146106bf578063d547741f146106df578063d85d3d27146106ff578063d97939eb14610712578063dc33e6811461075957600080fd5b8063a4f524a911610108578063a4f524a9146105fc578063aa44caaf1461061c578063acd63f1b1461063c578063b88d4fde1461066c578063c37e154e1461068c578063c87b56dd1461069f57600080fd5b806395d89b4114610557578063973ad2701461056c578063a217fddf1461058c578063a22cb465146105a1578063a383c692146105c157600080fd5b806336568abe116101dd57806348203b30116101a157806348203b301461047a5780635bd22c98146104aa5780636352211e146104d757806370a08231146104f757806384017e521461051757806391d148541461053757600080fd5b806336568abe146104055780633ccfd60b146104255780633ce12f6d1461043a5780633e6acfe01461045a57806342842e0e1461037557600080fd5b806318160ddd1161022f57806318160ddd1461034157806319aeca931461035f57806323b872dd14610375578063248a9ca3146103955780632e0c68fa146103c55780632f2ff15d146103e557600080fd5b806301ffc9a71461026c57806306fdde03146102a1578063081812fc146102c3578063095ea7b3146102fb57806313966db51461031d575b600080fd5b34801561027857600080fd5b5061028c610287366004612557565b610899565b60405190151581526020015b60405180910390f35b3480156102ad57600080fd5b506102b66108b9565b60405161029891906125cc565b3480156102cf57600080fd5b506102e36102de3660046125df565b61094b565b6040516001600160a01b039091168152602001610298565b34801561030757600080fd5b5061031b61031636600461260d565b61098f565b005b34801561032957600080fd5b50610333600f5481565b604051908152602001610298565b34801561034d57600080fd5b50610333600154600054036000190190565b34801561036b57600080fd5b5061033360095481565b34801561038157600080fd5b5061031b610390366004612639565b610a2f565b3480156103a157600080fd5b506103336103b03660046125df565b60009081526008602052604090206001015490565b3480156103d157600080fd5b5061031b6103e036600461267a565b610a6a565b3480156103f157600080fd5b5061031b6104003660046126b1565b610afa565b34801561041157600080fd5b5061031b6104203660046126b1565b610b24565b34801561043157600080fd5b5061031b610ba2565b34801561044657600080fd5b5061031b6104553660046125df565b610c45565b34801561046657600080fd5b5061031b610475366004612779565b610c56565b34801561048657600080fd5b5061028c6104953660046127d2565b600d6020526000908152604090205460ff1681565b3480156104b657600080fd5b506104ca6104c53660046125df565b610e0e565b60405161029891906127ef565b3480156104e357600080fd5b506102e36104f23660046125df565b6110dd565b34801561050357600080fd5b506103336105123660046127d2565b6110e8565b34801561052357600080fd5b5061031b6105323660046125df565b611137565b34801561054357600080fd5b5061028c6105523660046126b1565b611177565b34801561056357600080fd5b506102b66111a2565b34801561057857600080fd5b5061031b6105873660046127d2565b6111b1565b34801561059857600080fd5b50610333600081565b3480156105ad57600080fd5b5061031b6105bc366004612889565b6111f3565b3480156105cd57600080fd5b5061028c6105dc3660046128bc565b8051602081830181018051600a8252928201919093012091525460ff1681565b34801561060857600080fd5b5061031b6106173660046128f1565b611289565b34801561062857600080fd5b506103336106373660046127d2565b611304565b34801561064857600080fd5b5061028c6106573660046127d2565b600e6020526000908152604090205460ff1681565b34801561067857600080fd5b5061031b610687366004612913565b611393565b61031b61069a36600461297f565b6113dd565b3480156106ab57600080fd5b506102b66106ba3660046125df565b611555565b3480156106cb57600080fd5b5061031b6106da366004612889565b611560565b3480156106eb57600080fd5b5061031b6106fa3660046126b1565b6115af565b61031b61070d3660046128bc565b6115d4565b34801561071e57600080fd5b5061074661072d3660046125df565b6000908152600b602052604090206003015461ffff1690565b60405161ffff9091168152602001610298565b34801561076557600080fd5b506103336107743660046127d2565b611745565b34801561078557600080fd5b5061028c6107943660046127d2565b600c6020526000908152604090205460ff1681565b3480156107b557600080fd5b5061028c6107c43660046129c6565b6001600160a01b03918216600090815260076020908152604080832093909416825291909152205460ff1690565b3480156107fe57600080fd5b506103337f154c00819833dac601ee5ddded6fda79d9d8b506b911b3dbd54cdb95fe6c368681565b34801561083257600080fd5b5061031b6108413660046129f4565b611750565b34801561085257600080fd5b5061031b6108613660046125df565b611820565b34801561087257600080fd5b506108866108813660046125df565b611885565b6040516102989796959493929190612a3b565b60006108a482611a6a565b806108b357506108b382611ab8565b92915050565b6060600280546108c890612aa8565b80601f01602080910402602001604051908101604052809291908181526020018280546108f490612aa8565b80156109415780601f1061091657610100808354040283529160200191610941565b820191906000526020600020905b81548152906001019060200180831161092457829003601f168201915b5050505050905090565b600061095682611aed565b610973576040516333d1c03960e21b815260040160405180910390fd5b506000908152600660205260409020546001600160a01b031690565b600061099a826110dd565b9050336001600160a01b038216146109d3576109b681336107c4565b6109d3576040516367d9dca160e11b815260040160405180910390fd5b60008281526006602052604080822080546001600160a01b0319166001600160a01b0387811691821790925591518593918516917f8c5be1e5ebec7d5bd14f71427d1e84f3dd0314c0f7b2291e5b200ac8c7c3b92591a4505050565b60405162461bcd60e51b815260206004820152600b60248201526a139bdd08185b1b1bddd95960aa1b60448201526064015b60405180910390fd5b33610a74836110dd565b6001600160a01b031614610a9a5760405162461bcd60e51b8152600401610a6190612ae3565b6000828152600b6020908152604091829020600301805461ffff191661ffff85169081179091558251858152918201527ff12c7abdf14c63795b07c88fe0104be3a5fd58b7f8b1035689cd56eb29f607ac91015b60405180910390a15050565b600082815260086020526040902060010154610b1581611b22565b610b1f8383611b2c565b505050565b6001600160a01b0381163314610b945760405162461bcd60e51b815260206004820152602f60248201527f416363657373436f6e74726f6c3a2063616e206f6e6c792072656e6f756e636560448201526e103937b632b9903337b91039b2b63360891b6064820152608401610a61565b610b9e8282611bb2565b5050565b6000610bad81611b22565b604051600090339047908381818185875af1925050503d8060008114610bef576040519150601f19603f3d011682016040523d82523d6000602084013e610bf4565b606091505b5050905080610b9e5760405162461bcd60e51b815260206004820152601860248201527f4661696c656420746f20776974686472617720457468657200000000000000006044820152606401610a61565b6000610c5081611b22565b50600955565b33610c60846110dd565b6001600160a01b031614610c865760405162461bcd60e51b8152600401610a6190612ae3565b6001600160a01b0382166000908152600d602052604090205460ff16610d005760405162461bcd60e51b815260206004820152602960248201527f5468652061646472657373206d757374206265206f6620612076616c69642061604482015268393134ba3930ba37b960b91b6064820152608401610a61565b6000838152600b60209081526040808320600301805462010000600160b01b031916620100006001600160a01b038816908102919091179091558352600e90915290205460ff1615610d925760408051602081018590520160408051601f198184030181529181526000858152600b60209081529190208251610d8c93600490920192909101906124a8565b50610db9565b6000838152600b602090815260409091208251610db7926004909201918401906124a8565b505b7f4f1d179d53629f07a3ca3cde19840349df6dadc8fc11ac201c272ec77b8673d28383600b6000878152602001908152602001600020600401604051610e0193929190612b28565b60405180910390a1505050565b610e5b6040518060e00160405280600081526020016060815260200160608152602001600061ffff16815260200160006001600160a01b0316815260200160608152602001600081525090565b600082118015610e7b5750610e77600154600054036000190190565b8211155b610ec75760405162461bcd60e51b815260206004820152601e60248201527f5468697320706c617465466f726d204964206973206e6f742076616c696400006044820152606401610a61565b600b60008381526020019081526020016000206040518060e001604052908160008201548152602001600182018054610eff90612aa8565b80601f0160208091040260200160405190810160405280929190818152602001828054610f2b90612aa8565b8015610f785780601f10610f4d57610100808354040283529160200191610f78565b820191906000526020600020905b815481529060010190602001808311610f5b57829003601f168201915b50505050508152602001600282018054610f9190612aa8565b80601f0160208091040260200160405190810160405280929190818152602001828054610fbd90612aa8565b801561100a5780601f10610fdf5761010080835404028352916020019161100a565b820191906000526020600020905b815481529060010190602001808311610fed57829003601f168201915b5050509183525050600382015461ffff811660208301526201000090046001600160a01b0316604082015260048201805460609092019161104a90612aa8565b80601f016020809104026020016040519081016040528092919081815260200182805461107690612aa8565b80156110c35780601f10611098576101008083540402835291602001916110c3565b820191906000526020600020905b8154815290600101906020018083116110a657829003601f168201915b505050505081526020016005820154815250509050919050565b60006108b382611c19565b60006001600160a01b038216611111576040516323d3ad8160e21b815260040160405180910390fd5b506001600160a01b031660009081526005602052604090205467ffffffffffffffff1690565b600061114281611b22565b600f8290556040518281527f38fbb1c8b109c430f0c030e7ed076cf5611a307773a4e8e365601e8f8bceaec690602001610aee565b60009182526008602090815260408084206001600160a01b0393909316845291905290205460ff1690565b6060600380546108c890612aa8565b60006111bc81611b22565b506001600160a01b03166000908152600d60209081526040808320805460ff19908116909155600e90925290912080549091169055565b6001600160a01b03821633141561121d5760405163b06307db60e01b815260040160405180910390fd5b3360008181526007602090815260408083206001600160a01b03871680855290835292819020805460ff191686151590811790915590519081529192917f17307eab39ab6107e8899845ad3d59bd9653f200f220920489ca2b5937696c31910160405180910390a35050565b33611293836110dd565b6001600160a01b0316146112b95760405162461bcd60e51b8152600401610a6190612ae3565b6000828152600b602090815260409182902060050183905581518481529081018390527face552c85eed7b5cf46330833e6f28b1f5ce696a4532e483192b5a64e4565e599101610aee565b6000806001815b61131c600154600054036000190190565b821161138a57600061132d83611c89565b9050806040015115801561134a575080516001600160a01b031615155b1561135457805191505b856001600160a01b0316826001600160a01b03161415611377578293505061138a565b8261138181612bfe565b9350505061130b565b50909392505050565b61139e848484610a2f565b6001600160a01b0383163b156113d7576113ba84848484611d01565b6113d7576040516368d2bf6b60e11b815260040160405180910390fd5b50505050565b8181600f5434146114005760405162461bcd60e51b8152600401610a6190612c19565b61140981611745565b156114265760405162461bcd60e51b8152600401610a6190612c5d565b6002825110156114695760405162461bcd60e51b815260206004820152600e60248201526d13985b59481d1bdbc81cda1bdc9d60921b6044820152606401610a61565b600a825111156114ab5760405162461bcd60e51b815260206004820152600d60248201526c4e616d6520746f6f206c6f6e6760981b6044820152606401610a61565b600a826040516114bb9190612cbb565b9081526040519081900360200190205460ff16156115105760405162461bcd60e51b81526020600482015260126024820152712730b6b29030b63932b0b23c903a30b5b2b760711b6044820152606401610a61565b7f154c00819833dac601ee5ddded6fda79d9d8b506b911b3dbd54cdb95fe6c368661153a81611b22565b611545846001611df9565b61154e85611e13565b5050505050565b60606108b382611ecd565b600061156b81611b22565b506001600160a01b039091166000908152600d60209081526040808320805460ff19908116600117909155600e909252909120805492151592909116919091179055565b6000828152600860205260409020600101546115ca81611b22565b610b1f8383611bb2565b8033600f5434146115f75760405162461bcd60e51b8152600401610a6190612c19565b61160081611745565b1561161d5760405162461bcd60e51b8152600401610a6190612c5d565b6002825110156116605760405162461bcd60e51b815260206004820152600e60248201526d13985b59481d1bdbc81cda1bdc9d60921b6044820152606401610a61565b600a825111156116a25760405162461bcd60e51b815260206004820152600d60248201526c4e616d6520746f6f206c6f6e6760981b6044820152606401610a61565b600a826040516116b29190612cbb565b9081526040519081900360200190205460ff16156117075760405162461bcd60e51b81526020600482015260126024820152712730b6b29030b63932b0b23c903a30b5b2b760711b6044820152606401610a61565b7f154c00819833dac601ee5ddded6fda79d9d8b506b911b3dbd54cdb95fe6c368661173181611b22565b61173c336001611df9565b6113d784611e13565b60006108b3826110e8565b3361175a836110dd565b6001600160a01b03161461176d57600080fd5b60008151116117be5760405162461bcd60e51b815260206004820152601f60248201527f53686f756c642070726f7669646520612076616c6964204950465320555249006044820152606401610a61565b6000828152600b6020908152604090912082516117e3926002909201918401906124a8565b50817f613807bd6768f626264e7eb664a65ca99a0d930f8fd8a5b868491a592eb57f728260405161181491906125cc565b60405180910390a25050565b600081118015611840575061183c600154600054036000190190565b8111155b6118825760405162461bcd60e51b8152602060048201526013602482015272125b9d985b1a59081c1b185d199bdc9b481251606a1b6044820152606401610a61565b50565b600b60205260009081526040902080546001820180549192916118a790612aa8565b80601f01602080910402602001604051908101604052809291908181526020018280546118d390612aa8565b80156119205780601f106118f557610100808354040283529160200191611920565b820191906000526020600020905b81548152906001019060200180831161190357829003601f168201915b50505050509080600201805461193590612aa8565b80601f016020809104026020016040519081016040528092919081815260200182805461196190612aa8565b80156119ae5780601f10611983576101008083540402835291602001916119ae565b820191906000526020600020905b81548152906001019060200180831161199157829003601f168201915b505050506003830154600484018054939461ffff831694620100009093046001600160a01b03169350916119e190612aa8565b80601f0160208091040260200160405190810160405280929190818152602001828054611a0d90612aa8565b8015611a5a5780601f10611a2f57610100808354040283529160200191611a5a565b820191906000526020600020905b815481529060010190602001808311611a3d57829003601f168201915b5050505050908060050154905087565b60006301ffc9a760e01b6001600160e01b031983161480611a9b57506380ac58cd60e01b6001600160e01b03198316145b806108b35750506001600160e01b031916635b5e139f60e01b1490565b60006001600160e01b03198216637965db0b60e01b14806108b357506301ffc9a760e01b6001600160e01b03198316146108b3565b600081600111158015611b01575060005482105b80156108b3575050600090815260046020526040902054600160e01b161590565b6118828133611ff7565b611b368282611177565b610b9e5760008281526008602090815260408083206001600160a01b03851684529091529020805460ff19166001179055611b6e3390565b6001600160a01b0316816001600160a01b0316837f2f8788117e7eff1d82e926ec794901d17c78024a50270940304540a733656f0d60405160405180910390a45050565b611bbc8282611177565b15610b9e5760008281526008602090815260408083206001600160a01b0385168085529252808320805460ff1916905551339285917ff6391f5c32d9c69d2a47ea670b442974b53935d1edc7fd64eb21e047a839171b9190a45050565b60008180600111611c7057600054811015611c7057600081815260046020526040902054600160e01b8116611c6e575b80611c67575060001901600081815260046020526040902054611c49565b9392505050565b505b604051636f96cda160e11b815260040160405180910390fd5b6040805160808101825260008082526020820181905291810182905260608101919091526108b3611cb983611c19565b604080516080810182526001600160a01b038316815260a083901c67ffffffffffffffff166020820152600160e01b831615159181019190915260e89190911c606082015290565b604051630a85bd0160e11b81526000906001600160a01b0385169063150b7a0290611d36903390899088908890600401612cd7565b602060405180830381600087803b158015611d5057600080fd5b505af1925050508015611d80575060408051601f3d908101601f19168201909252611d7d91810190612d14565b60015b611ddb573d808015611dae576040519150601f19603f3d011682016040523d82523d6000602084013e611db3565b606091505b508051611dd3576040516368d2bf6b60e11b815260040160405180910390fd5b805181602001fd5b6001600160e01b031916630a85bd0160e11b1490505b949350505050565b610b9e82826040518060200160405280600081525061205b565b60006001611e2060005490565b611e2a9190612d31565b6000818152600b60209081526040909120845192935091611e53916001840191908601906124a8565b50818155604051600190600a90611e6b908690612cbb565b908152604051908190036020018120805492151560ff1990931692909217909155600f5433917f704496b72f6d3fd6e462fa31e27faddedde127bc9942bc94320e0c115b00cedf91611ec09186918891612d48565b60405180910390a2505050565b6000818152600b6020526040812060010180546060929190611eee90612aa8565b80601f0160208091040260200160405190810160405280929190818152602001828054611f1a90612aa8565b8015611f675780601f10611f3c57610100808354040283529160200191611f67565b820191906000526020600020905b815481529060010190602001808311611f4a57829003601f168201915b505050505090506000611f9882604051602001611f849190612d71565b6040516020818303038152906040526120c1565b604051602001611fa89190614610565b6040516020818303038152906040529050611fcf8282604051602001611f84929190614655565b604051602001611fdf91906146f2565b60405160208183030381529060405292505050919050565b6120018282611177565b610b9e57612019816001600160a01b03166014612215565b612024836020612215565b604051602001612035929190614737565b60408051601f198184030181529082905262461bcd60e51b8252610a61916004016125cc565b61206583836123b1565b6001600160a01b0383163b15610b1f576000548281035b61208f6000868380600101945086611d01565b6120ac576040516368d2bf6b60e11b815260040160405180910390fd5b81811061207c57816000541461154e57600080fd5b60608151600014156120e157505060408051602081019091526000815290565b6000604051806060016040528060408152602001614833604091399050600060038451600261211091906147ac565b61211a91906147c4565b6121259060046147e6565b67ffffffffffffffff81111561213d5761213d6126d6565b6040519080825280601f01601f191660200182016040528015612167576020820181803683370190505b509050600182016020820185865187015b808210156121d3576003820191508151603f8160121c168501518453600184019350603f81600c1c168501518453600184019350603f8160061c168501518453600184019350603f8116850151845350600183019250612178565b50506003865106600181146121ef57600281146122025761220a565b603d6001830353603d600283035361220a565b603d60018303535b509195945050505050565b606060006122248360026147e6565b61222f9060026147ac565b67ffffffffffffffff811115612247576122476126d6565b6040519080825280601f01601f191660200182016040528015612271576020820181803683370190505b509050600360fc1b8160008151811061228c5761228c614805565b60200101906001600160f81b031916908160001a905350600f60fb1b816001815181106122bb576122bb614805565b60200101906001600160f81b031916908160001a90535060006122df8460026147e6565b6122ea9060016147ac565b90505b6001811115612362576f181899199a1a9b1b9c1cb0b131b232b360811b85600f166010811061231e5761231e614805565b1a60f81b82828151811061233457612334614805565b60200101906001600160f81b031916908160001a90535060049490941c9361235b8161481b565b90506122ed565b508315611c675760405162461bcd60e51b815260206004820181905260248201527f537472696e67733a20686578206c656e67746820696e73756666696369656e746044820152606401610a61565b600054816123d25760405163b562e8dd60e01b815260040160405180910390fd5b6001600160a01b03831660008181526005602090815260408083208054680100000000000000018802019055848352600490915281206001851460e11b4260a01b178317905582840190839083907fddf252ad1be2c89b69c2b068fc378daa952ba7f163c4a11628f55a4df523b3ef8180a4600183015b81811461248157808360007fddf252ad1be2c89b69c2b068fc378daa952ba7f163c4a11628f55a4df523b3ef600080a4600101612449565b508161249f57604051622e076360e81b815260040160405180910390fd5b60005550505050565b8280546124b490612aa8565b90600052602060002090601f0160209004810192826124d6576000855561251c565b82601f106124ef57805160ff191683800117855561251c565b8280016001018555821561251c579182015b8281111561251c578251825591602001919060010190612501565b5061252892915061252c565b5090565b5b80821115612528576000815560010161252d565b6001600160e01b03198116811461188257600080fd5b60006020828403121561256957600080fd5b8135611c6781612541565b60005b8381101561258f578181015183820152602001612577565b838111156113d75750506000910152565b600081518084526125b8816020860160208601612574565b601f01601f19169290920160200192915050565b602081526000611c6760208301846125a0565b6000602082840312156125f157600080fd5b5035919050565b6001600160a01b038116811461188257600080fd5b6000806040838503121561262057600080fd5b823561262b816125f8565b946020939093013593505050565b60008060006060848603121561264e57600080fd5b8335612659816125f8565b92506020840135612669816125f8565b929592945050506040919091013590565b6000806040838503121561268d57600080fd5b82359150602083013561ffff811681146126a657600080fd5b809150509250929050565b600080604083850312156126c457600080fd5b8235915060208301356126a6816125f8565b634e487b7160e01b600052604160045260246000fd5b600082601f8301126126fd57600080fd5b813567ffffffffffffffff80821115612718576127186126d6565b604051601f8301601f19908116603f01168101908282118183101715612740576127406126d6565b8160405283815286602085880101111561275957600080fd5b836020870160208301376000602085830101528094505050505092915050565b60008060006060848603121561278e57600080fd5b8335925060208401356127a0816125f8565b9150604084013567ffffffffffffffff8111156127bc57600080fd5b6127c8868287016126ec565b9150509250925092565b6000602082840312156127e457600080fd5b8135611c67816125f8565b60208152815160208201526000602083015160e060408401526128166101008401826125a0565b90506040840151601f198085840301606086015261283483836125a0565b925061ffff606087015116608086015260018060a01b0360808701511660a086015260a08601519150808584030160c08601525061287282826125a0565b91505060c084015160e08401528091505092915050565b6000806040838503121561289c57600080fd5b82356128a7816125f8565b9150602083013580151581146126a657600080fd5b6000602082840312156128ce57600080fd5b813567ffffffffffffffff8111156128e557600080fd5b611df1848285016126ec565b6000806040838503121561290457600080fd5b50508035926020909101359150565b6000806000806080858703121561292957600080fd5b8435612934816125f8565b93506020850135612944816125f8565b925060408501359150606085013567ffffffffffffffff81111561296757600080fd5b612973878288016126ec565b91505092959194509250565b6000806040838503121561299257600080fd5b823567ffffffffffffffff8111156129a957600080fd5b6129b5858286016126ec565b92505060208301356126a6816125f8565b600080604083850312156129d957600080fd5b82356129e4816125f8565b915060208301356126a6816125f8565b60008060408385031215612a0757600080fd5b82359150602083013567ffffffffffffffff811115612a2557600080fd5b612a31858286016126ec565b9150509250929050565b87815260e060208201526000612a5460e08301896125a0565b8281036040840152612a6681896125a0565b61ffff881660608501526001600160a01b038716608085015283810360a08501529050612a9381866125a0565b9150508260c083015298975050505050505050565b600181811c90821680612abc57607f821691505b60208210811415612add57634e487b7160e01b600052602260045260246000fd5b50919050565b60208082526025908201527f596f75277265206e6f7420746865206f776e6572206f66207468697320706c6160408201526474666f726d60d81b606082015260800190565b8381526000602060018060a01b03851681840152606060408401526000845481600182811c915080831680612b5e57607f831692505b858310811415612b7c57634e487b7160e01b85526022600452602485fd5b6060880183905260808801818015612b9b5760018114612bac57612bd7565b60ff19861682528782019650612bd7565b60008b81526020902060005b86811015612bd157815484820152908501908901612bb8565b83019750505b50949b9a5050505050505050505050565b634e487b7160e01b600052601160045260246000fd5b6000600019821415612c1257612c12612be8565b5060010190565b60208082526024908201527f496e636f727265637420616d6f756e74206f662045544820666f72206d696e746040820152632066656560e01b606082015260800190565b60208082526022908201527f506c6174666f726d20616c726561647920686173206120506c6174666f726d20604082015261125160f21b606082015260800190565b60008151612cb1818560208601612574565b9290920192915050565b60008251612ccd818460208701612574565b9190910192915050565b6001600160a01b0385811682528416602082015260408101839052608060608201819052600090612d0a908301846125a0565b9695505050505050565b600060208284031215612d2657600080fd5b8151611c6781612541565b600082821015612d4357612d43612be8565b500390565b838152606060208201526000612d6160608301856125a0565b9050826040830152949350505050565b7f3c73766720786d6c6e733d22687474703a2f2f7777772e77332e6f72672f323081527f30302f737667222076696577426f783d223020302037323020373230223e3c6460208201527f6566733e3c6c696e6561724772616469656e742069643d2261222078313d223660408201527f372e3934222079313d223136392e3438222078323d223637302e39382220793260608201527f3d223536322e383622206772616469656e74556e6974733d227573657253706160808201527f63654f6e557365223e3c73746f70206f66667365743d2230222073746f702d6360a08201527f6f6c6f723d2223313761396332222f3e3c73746f70206f66667365743d222e3160c08201527f32222073746f702d636f6c6f723d2223316161396263222f3e3c73746f70206f60e08201527f66667365743d222e3239222073746f702d636f6c6f723d2223323561626162226101008201527f2f3e3c73746f70206f66667365743d222e3438222073746f702d636f6c6f723d6101208201527f2223333561643866222f3e3c73746f70206f66667365743d222e3634222073746101408201527f6f702d636f6c6f723d2223343862303732222f3e3c73746f70206f66667365746101608201527f3d222e3738222073746f702d636f6c6f723d2223353962323534222f3e3c73746101808201527f6f70206f66667365743d2231222073746f702d636f6c6f723d222337616237326101a08201527f30222f3e3c2f6c696e6561724772616469656e743e3c2f646566733e3c7061746101c08201527f68207374796c653d2266696c6c3a75726c282361292220643d224d30203068376101e08201527f32307637323048307a222f3e3c7061746820643d224d34372e30352039322e336102008201527f375635332e38344833332e32395634366833362e383576372e38344835362e346102208201527f317633382e3532682d392e33365a6d33352e37312d32332e33342d382e30372d6102408201527f312e3436632e39312d332e323520322e34372d352e363520342e36382d372e326102608201527f3120322e32312d312e353620352e352d322e333420392e38372d322e333420336102808201527f2e3936203020362e39322e343720382e383620312e343120312e39342e3934206102a08201527f332e333120322e313320342e3120332e353773312e313920342e3120312e31396102c08201527f20372e39366c2d2e312031302e3337633020322e39352e313420352e31332e346102e08201527f3320362e35332e323820312e342e383220322e393120312e3620342e3531682d6103008201527f382e3739632d2e32332d2e35392d2e35322d312e34372d2e38352d322e36332d6103208201527f2e31352d2e35332d2e32352d2e38382d2e33322d312e30342d312e353220312e6103408201527f34382d332e313420322e35382d342e383720332e3332732d332e353720312e316103608201527f312d352e353420312e3131632d332e343620302d362e31382d2e39342d382e316103808201527f382d322e38322d312e39392d312e38382d322e39392d342e32352d322e39392d6103a08201527f372e313220302d312e392e34352d332e353920312e33362d352e303873322e316103c08201527f382d322e363320332e38312d332e343220332e39392d312e343820372e30372d6103e08201527f322e303763342e31352d2e373820372e30332d312e353120382e36332d322e316104008201527f38762d2e383963302d312e37312d2e34322d322e39332d312e32372d332e36356104208201527f732d322e34342d312e30392d342e37382d312e3039632d312e353820302d322e6104408201527f38322e33312d332e372e39332d2e38392e36322d312e3620312e37312d322e316104608201527f3520332e32375a6d31312e383920372e3231632d312e31342e33382d322e39346104808201527f2e38332d352e343120312e33362d322e34372e35332d342e303820312e30342d6104a08201527f342e383420312e35352d312e31362e38322d312e373420312e38372d312e37346104c08201527f20332e3133732e343620322e333220312e333920332e3233632e39332e3931206104e08201527f322e313120312e333620332e353420312e333620312e36203020332e31332d2e6105008201527f353320342e35392d312e353820312e30382d2e3820312e37382d312e373820326105208201527f2e31322d322e39342e32332d2e37362e33352d322e322e33352d342e3333762d6105408201527f312e37375a6d31372e34392031362e313356343668382e38397634362e3337686105608201527f2d382e38395a6d33372e34352d31302e363920382e383620312e3439632d312e6105808201527f313420332e32352d322e393420352e37322d352e333920372e3432732d352e356105a08201527f3320322e35352d392e323220322e3535632d352e383420302d31302e31362d316105c08201527f2e39312d31322e39372d352e37322d322e32312d332e30362d332e33322d362e6105e08201527f39322d332e33322d31312e353820302d352e353720312e34362d392e393320346106008201527f2e33362d31332e303820322e39312d332e313520362e35392d342e37332031316106208201527f2e30342d342e37332035203020382e393420312e36352031312e383320342e396106408201527f3573342e323720382e333620342e31342031352e3137682d32322e3237632e306106608201527f3620322e36342e373820342e363920322e313520362e313520312e333720312e6106808201527f343720332e303820322e3220352e313220322e3220312e3339203020322e35366106a08201527f2d2e333820332e35312d312e31342e39352d2e373620312e36372d312e3938206106c08201527f322e31352d332e36375a6d2e35312d382e3938632d2e30362d322e35372d2e376106e08201527f332d342e35332d312e39392d352e38372d312e32372d312e33342d322e38312d6107008201527f322e30312d342e36322d322e30312d312e393420302d332e35342e37312d342e6107208201527f383120322e31322d312e323720312e34312d312e383920332e33332d312e38376107408201527f20352e37366831332e32385a6d34362e36322031392e3637682d382e383956376107608201527f352e323363302d332e36332d2e31392d352e39372d2e35372d372e30342d2e336107808201527f382d312e30362d312d312e38392d312e38352d322e3438732d312e38382d2e386107a08201527f392d332e30382d2e3839632d312e353420302d322e39322e34322d342e3134206107c08201527f312e3237732d322e303620312e39362d322e353120332e3335632d2e343520316107e08201527f2e33392d2e363820332e39362d2e363820372e37327631352e3231682d382e386108008201527f395635382e373868382e323676342e393363322e39332d332e3820362e36322d6108208201527f352e36392031312e30372d352e363920312e3936203020332e37352e333520356108408201527f2e333820312e303620312e36322e373120322e383520312e363120332e3638206108608201527f322e372e383320312e3120312e343120322e333420312e373420332e3733732e6108808201527f343920332e33382e343920352e39387632302e38385a6d32342e34322d33332e6108a08201527f353976372e3038682d362e30375637392e34633020322e37342e303620342e336108c08201527f342e313720342e37392e31322e34352e33382e38332e373920312e31322e34316108e08201527f2e332e39312e343420312e352e34342e3832203020322e30312d2e323820332e6109008201527f35372d2e38356c2e373620362e39632d322e30372e38392d342e343120312e336109208201527f332d372e303220312e33332d312e3620302d332e30352d2e32372d342e33332d6109408201527f2e38312d312e32392d2e35342d322e32332d312e32332d322e38332d322e30396109608201527f2d2e362d2e38352d312e30322d322e30312d312e32352d332e34362d2e31392d6109808201527f312e30332d2e32382d332e31322d2e32382d362e32365636352e3836682d342e6109a08201527f3038762d372e303868342e3038762d362e36376c382e39322d352e31397631316109c08201527f2e383668362e30375a6d362e32362033332e353956343668362e31347634302e6109e08201527f396832322e383476352e3437682d32382e39375a6d35372e34372d342e313463610a008201527f2d322e313120312e37392d342e313420332e30362d362e303920332e382d312e610a208201527f39352e37342d342e303420312e31312d362e323820312e31312d332e36392030610a408201527f2d362e35332d2e392d382e35312d322e372d312e39382d312e382d322e39372d610a608201527f342e31312d322e39372d362e393120302d312e36342e33372d332e313520312e610a808201527f31322d342e353173312e37332d322e343520322e39342d332e323763312e3231610aa08201527f2d2e383220322e35382d312e343420342e312d312e383720312e31322d2e3320610ac08201527f322e382d2e353820352e30362d2e383520342e362d2e353520372e39382d312e610ae08201527f322031302e31352d312e39362e30322d2e37382e30332d312e32382e30332d31610b008201527f2e343920302d322e33322d2e35342d332e39352d312e36312d342e392d312e34610b208201527f362d312e32392d332e36322d312e39332d362e34382d312e39332d322e363820610b408201527f302d342e36352e34372d352e393320312e3431732d322e323220322e362d322e610b608201527f383320342e39386c2d352e35372d2e3736632e35312d322e333820312e33342d610b808201527f342e333120322e352d352e373720312e31362d312e343720322e38342d322e35610ba08201527f3920352e30332d332e333820322e31392d2e373920342e37332d312e31392037610bc08201527f2e36322d312e313973352e322e333420362e393920312e303163312e37392e36610be08201527f3820332e313120312e353220332e393520322e35352e383420312e303220312e610c008201527f343320322e333120312e373720332e38382e31392e39372e323820322e37322e610c208201527f323820352e323576372e3539633020352e32392e313220382e36342e33362031610c408201527f302e30342e323420312e342e373220322e373520312e343420342e3033682d35610c608201527f2e3935632d2e35392d312e31382d2e39372d322e35362d312e31342d342e3134610c808201527f5a6d2d2e34372d31322e3732632d322e30372e38342d352e313720312e35362d610ca08201527f392e3320322e31352d322e33342e33342d34202e37322d342e393720312e3134610cc08201527f2d2e39372e34322d312e373220312e30342d322e323520312e3835732d2e3739610ce08201527f20312e37312d2e373920322e37633020312e35322e353720322e373820312e37610d008201527f3220332e3820312e313520312e303120322e383320312e353220352e30352031610d208201527f2e353273342e31342d2e343820352e38352d312e343420322e39362d322e3237610d408201527f20332e37362d332e3934632e36312d312e32392e39322d332e31382e39322d35610d608201527f2e3639762d322e30395a6d31342e33332032392e382d2e36332d352e33356331610d808201527f2e32342e333420322e33332e353120332e32362e353120312e3237203020322e610da08201527f32382d2e323120332e30342d2e363373312e33382d312e303120312e38372d31610dc08201527f2e3737632e33362d2e35372e39342d312e393820312e37342d342e32342e3131610de08201527f2d2e33322e32372d2e37382e35312d312e33396c2d31322e37352d33332e3635610e008201527f68362e31346c362e39392031392e3435632e393120322e343720312e37322035610e208201527f2e303620322e343420372e37382e36352d322e363120312e34332d352e313720610e408201527f322e33342d372e36356c372e31382d31392e353868352e36396c2d31322e3738610e608201527f2033342e3136632d312e333720332e36392d322e343420362e32332d332e3139610e808201527f20372e36322d312e303120312e38382d322e313720332e32352d332e34382034610ea08201527f2e31332d312e33312e38382d322e383720312e33312d342e363820312e33312d610ec08201527f312e3120302d322e33322d2e32332d332e36372d2e375a6d35352e36332d3233610ee08201527f2e373620352e38382e3733632d2e393320332e34342d322e363520362e312d35610f008201527f2e313620382d322e353120312e392d352e373120322e38352d392e363220322e610f208201527f38352d342e393120302d382e38312d312e35312d31312e36392d342e35342d32610f408201527f2e38382d332e30332d342e33322d372e32372d342e33322d31322e373373312e610f608201527f34362d31302e303420342e33362d31332e313663322e39312d332e313220362e610f808201527f36382d342e36382031312e33322d342e363873382e313620312e35332031312e610fa08201527f303120342e353963322e383520332e303620342e323720372e333620342e3237610fc08201527f2031322e39312030202e33342d2e30312e38342d2e303320312e3532682d3235610fe08201527f2e3035632e323120332e363920312e323520362e353220332e313320382e34386110008201527f20312e383820312e393620342e323220322e393420372e303220322e393420326110208201527f2e3039203020332e38372d2e353520352e33352d312e363420312e34382d312e6110408201527f3120322e36352d322e383520332e35312d352e32355a6d2d31382e36392d392e6110608201527f326831382e3736632d2e32352d322e38332d2e39372d342e39342d322e31352d6110808201527f362e33362d312e38312d322e31392d342e31372d332e32392d372e30352d332e6110a08201527f32392d322e363120302d342e38312e38382d362e3620322e3633732d322e37376110c08201527f20342e30392d322e393620372e30325a6d33312e36362032302e30325635382e6110e08201527f373868352e313276352e303963312e33312d322e333820322e35312d332e39356111008201527f20332e36322d342e373173322e33322d312e313420332e36352d312e313463316111208201527f2e3932203020332e38372e363120352e383520312e38336c2d312e393620352e6111408201527f3238632d312e33392d2e38322d322e37382d312e32332d342e31382d312e32336111608201527f2d312e323420302d322e33362e33372d332e333520312e31322d2e39392e37356111808201527f2d312e3720312e37392d322e313220332e31322d2e363320322e30322d2e39356111a08201527f20342e32342d2e393520362e36347631372e3539682d352e36395a6d32312e376111c08201527f39203056343668392e33367634362e3337682d392e33365a4d3430372e3337206111e08201527f34366831372e313163332e3836203020362e382e3320382e38332e383920322e6112008201527f37322e3820352e303520322e323220362e393920342e323720312e393420322e6112208201527f303520332e343220342e353520342e343320372e353120312e303120322e39366112408201527f20312e353220362e363220312e35322031302e3936203020332e38322d2e34376112608201527f20372e31312d312e343220392e38372d312e313620332e33372d322e383220366112808201527f2e312d342e393720382e31392d312e363220312e35382d332e383220322e38326112a08201527f2d362e353820332e372d322e30372e36352d342e38332e39382d382e32392e396112c08201527f38682d31372e36325634365a6d392e333620372e38347633302e373168362e396112e08201527f3963322e3631203020342e352d2e313520352e36362d2e343420312e35322d2e6113008201527f333820322e37382d312e303220332e37382d312e393320312d2e393120312e386113208201527f322d322e3420322e34352d342e34382e36332d322e30382e39352d342e39312e6113408201527f39352d382e3439732d2e33322d362e33342d2e39352d382e32362d312e35322d6113608201527f332e34322d322e36362d342e34392d322e35382d312e382d342e33332d322e316113808201527f38632d312e33312d2e332d332e38372d2e34342d372e36392d2e3434682d342e6113a08201527f32315a22207374796c653d2266696c6c3a23666666222f3e3c7465787420793d6113c08201527f223637302220783d22333022207374796c653d22666f6e743a373070782073616113e082015273373996b9b2b934b31db334b6361d11b33333111f60611b6114008201526000611c676145f7611414840185612c9f565b6c1e17ba32bc3a1f1e17b9bb339f60991b8152600d0190565b7f646174613a696d6167652f7376672b786d6c3b6261736536342c00000000000081526000825161464881601a850160208701612574565b91909101601a0192915050565b683d913730b6b2911d1160b91b8152825160009061467a816009850160208801612574565b6b1116101134b6b0b3b2911d1160a11b60099184019182015283516146a6816015840160208801612574565b7f222c20226465736372697074696f6e223a202254616c656e74204c6179657220601592909101918201526c506c6174666f726d204944227d60981b6035820152604201949350505050565b7f646174613a6170706c69636174696f6e2f6a736f6e3b6261736536342c00000081526000825161472a81601d850160208701612574565b91909101601d0192915050565b7f416363657373436f6e74726f6c3a206163636f756e742000000000000000000081526000835161476f816017850160208801612574565b7001034b99036b4b9b9b4b733903937b6329607d1b60179184019182015283516147a0816028840160208801612574565b01602801949350505050565b600082198211156147bf576147bf612be8565b500190565b6000826147e157634e487b7160e01b600052601260045260246000fd5b500490565b600081600019048311821515161561480057614800612be8565b500290565b634e487b7160e01b600052603260045260246000fd5b60008161482a5761482a612be8565b50600019019056fe4142434445464748494a4b4c4d4e4f505152535455565758595a6162636465666768696a6b6c6d6e6f707172737475767778797a303132333435363738392b2fa2646970667358221220e9bcbb9d07c1985b352e0768c27661b92db5f30b3a3f3f71f7698cbb4c2b621864736f6c63430008090033",
  "linkReferences": {},
  "deployedLinkReferences": {}
}