{
  "_format": "hh-sol-artifact-1",
  "contractName": "TalentLayerID",
  "sourceName": "contracts/TalentLayerID.sol",
  "abi": [
    {
      "inputs": [],
      "stateMutability": "nonpayable",
      "type": "constructor"
    },
    {
      "inputs": [],
      "name": "HandleContainsInvalidCharacters",
      "type": "error"
    },
    {
      "inputs": [],
      "name": "HandleFirstCharInvalid",
      "type": "error"
    },
    {
      "inputs": [],
      "name": "HandleLengthInvalid",
      "type": "error"
    },
    {
      "anonymous": false,
      "inputs": [
        {
          "indexed": false,
          "internalType": "address",
          "name": "previousAdmin",
          "type": "address"
        },
        {
          "indexed": false,
          "internalType": "address",
          "name": "newAdmin",
          "type": "address"
        }
      ],
      "name": "AdminChanged",
      "type": "event"
    },
    {
      "anonymous": false,
      "inputs": [
        {
          "indexed": true,
          "internalType": "address",
          "name": "owner",
          "type": "address"
        },
        {
          "indexed": true,
          "internalType": "address",
          "name": "approved",
          "type": "address"
        },
        {
          "indexed": true,
          "internalType": "uint256",
          "name": "tokenId",
          "type": "uint256"
        }
      ],
      "name": "Approval",
      "type": "event"
    },
    {
      "anonymous": false,
      "inputs": [
        {
          "indexed": true,
          "internalType": "address",
          "name": "owner",
          "type": "address"
        },
        {
          "indexed": true,
          "internalType": "address",
          "name": "operator",
          "type": "address"
        },
        {
          "indexed": false,
          "internalType": "bool",
          "name": "approved",
          "type": "bool"
        }
      ],
      "name": "ApprovalForAll",
      "type": "event"
    },
    {
      "anonymous": false,
      "inputs": [
        {
          "indexed": true,
          "internalType": "address",
          "name": "beacon",
          "type": "address"
        }
      ],
      "name": "BeaconUpgraded",
      "type": "event"
    },
    {
      "anonymous": false,
      "inputs": [
        {
          "indexed": true,
          "internalType": "uint256",
          "name": "_profileId",
          "type": "uint256"
        },
        {
          "indexed": false,
          "internalType": "string",
          "name": "_newCid",
          "type": "string"
        }
      ],
      "name": "CidUpdated",
      "type": "event"
    },
    {
      "anonymous": false,
      "inputs": [
        {
          "indexed": false,
          "internalType": "uint256",
          "name": "_profileId",
          "type": "uint256"
        },
        {
          "indexed": false,
          "internalType": "address",
          "name": "_delegate",
          "type": "address"
        }
      ],
      "name": "DelegateAdded",
      "type": "event"
    },
    {
      "anonymous": false,
      "inputs": [
        {
          "indexed": false,
          "internalType": "uint256",
          "name": "_profileId",
          "type": "uint256"
        },
        {
          "indexed": false,
          "internalType": "address",
          "name": "_delegate",
          "type": "address"
        }
      ],
      "name": "DelegateRemoved",
      "type": "event"
    },
    {
      "anonymous": false,
      "inputs": [
        {
          "indexed": false,
          "internalType": "uint8",
          "name": "version",
          "type": "uint8"
        }
      ],
      "name": "Initialized",
      "type": "event"
    },
    {
      "anonymous": false,
      "inputs": [
        {
          "indexed": true,
          "internalType": "address",
          "name": "_user",
          "type": "address"
        },
        {
          "indexed": false,
          "internalType": "uint256",
          "name": "_profileId",
          "type": "uint256"
        },
        {
          "indexed": false,
          "internalType": "string",
          "name": "_handle",
          "type": "string"
        },
        {
          "indexed": false,
          "internalType": "uint256",
          "name": "_platformId",
          "type": "uint256"
        },
        {
          "indexed": false,
          "internalType": "uint256",
          "name": "_fee",
          "type": "uint256"
        }
      ],
      "name": "Mint",
      "type": "event"
    },
    {
      "anonymous": false,
      "inputs": [
        {
          "indexed": false,
          "internalType": "uint256",
          "name": "_mintFee",
          "type": "uint256"
        }
      ],
      "name": "MintFeeUpdated",
      "type": "event"
    },
    {
      "anonymous": false,
      "inputs": [
        {
          "indexed": false,
          "internalType": "enum TalentLayerID.MintStatus",
          "name": "_mintStatus",
          "type": "uint8"
        }
      ],
      "name": "MintStatusUpdated",
      "type": "event"
    },
    {
      "anonymous": false,
      "inputs": [
        {
          "indexed": true,
          "internalType": "address",
          "name": "previousOwner",
          "type": "address"
        },
        {
          "indexed": true,
          "internalType": "address",
          "name": "newOwner",
          "type": "address"
        }
      ],
      "name": "OwnershipTransferred",
      "type": "event"
    },
    {
      "anonymous": false,
      "inputs": [
        {
          "indexed": true,
          "internalType": "address",
          "name": "from",
          "type": "address"
        },
        {
          "indexed": true,
          "internalType": "address",
          "name": "to",
          "type": "address"
        },
        {
          "indexed": true,
          "internalType": "uint256",
          "name": "tokenId",
          "type": "uint256"
        }
      ],
      "name": "Transfer",
      "type": "event"
    },
    {
      "anonymous": false,
      "inputs": [
        {
          "indexed": false,
          "internalType": "address",
          "name": "forwarder",
          "type": "address"
        }
      ],
      "name": "TrustedForwarderAdded",
      "type": "event"
    },
    {
      "anonymous": false,
      "inputs": [
        {
          "indexed": false,
          "internalType": "address",
          "name": "forwarder",
          "type": "address"
        }
      ],
      "name": "TrustedForwarderRemoved",
      "type": "event"
    },
    {
      "anonymous": false,
      "inputs": [
        {
          "indexed": true,
          "internalType": "address",
          "name": "implementation",
          "type": "address"
        }
      ],
      "name": "Upgraded",
      "type": "event"
    },
    {
      "inputs": [
        {
          "internalType": "uint256",
          "name": "_profileId",
          "type": "uint256"
        },
        {
          "internalType": "address",
          "name": "_delegate",
          "type": "address"
        }
      ],
      "name": "addDelegate",
      "outputs": [],
      "stateMutability": "nonpayable",
      "type": "function"
    },
    {
      "inputs": [
        {
          "internalType": "address",
          "name": "_forwarder",
          "type": "address"
        }
      ],
      "name": "addTrustedForwarder",
      "outputs": [],
      "stateMutability": "nonpayable",
      "type": "function"
    },
    {
      "inputs": [
        {
          "internalType": "address",
          "name": "to",
          "type": "address"
        },
        {
          "internalType": "uint256",
          "name": "tokenId",
          "type": "uint256"
        }
      ],
      "name": "approve",
      "outputs": [],
      "stateMutability": "nonpayable",
      "type": "function"
    },
    {
      "inputs": [
        {
          "internalType": "address",
          "name": "owner",
          "type": "address"
        }
      ],
      "name": "balanceOf",
      "outputs": [
        {
          "internalType": "uint256",
          "name": "",
          "type": "uint256"
        }
      ],
      "stateMutability": "view",
      "type": "function"
    },
    {
      "inputs": [
        {
          "internalType": "uint256",
          "name": "_platformId",
          "type": "uint256"
        },
        {
          "internalType": "address",
          "name": "_userAddress",
          "type": "address"
        },
        {
          "internalType": "string",
          "name": "_handle",
          "type": "string"
        }
      ],
      "name": "freeMint",
      "outputs": [
        {
          "internalType": "uint256",
          "name": "",
          "type": "uint256"
        }
      ],
      "stateMutability": "nonpayable",
      "type": "function"
    },
    {
      "inputs": [
        {
          "internalType": "uint256",
          "name": "tokenId",
          "type": "uint256"
        }
      ],
      "name": "getApproved",
      "outputs": [
        {
          "internalType": "address",
          "name": "",
          "type": "address"
        }
      ],
      "stateMutability": "view",
      "type": "function"
    },
    {
      "inputs": [
        {
          "internalType": "address",
          "name": "_address",
          "type": "address"
        }
      ],
      "name": "getOriginatorPlatformIdByAddress",
      "outputs": [
        {
          "internalType": "uint256",
          "name": "",
          "type": "uint256"
        }
      ],
      "stateMutability": "view",
      "type": "function"
    },
    {
      "inputs": [
        {
          "internalType": "address",
          "name": "",
          "type": "address"
        }
      ],
      "name": "ids",
      "outputs": [
        {
          "internalType": "uint256",
          "name": "",
          "type": "uint256"
        }
      ],
      "stateMutability": "view",
      "type": "function"
    },
    {
      "inputs": [
        {
          "internalType": "address",
          "name": "_talentLayerPlatformIdAddress",
          "type": "address"
        }
      ],
      "name": "initialize",
      "outputs": [],
      "stateMutability": "nonpayable",
      "type": "function"
    },
    {
      "inputs": [
        {
          "internalType": "address",
          "name": "owner",
          "type": "address"
        },
        {
          "internalType": "address",
          "name": "operator",
          "type": "address"
        }
      ],
      "name": "isApprovedForAll",
      "outputs": [
        {
          "internalType": "bool",
          "name": "",
          "type": "bool"
        }
      ],
      "stateMutability": "view",
      "type": "function"
    },
    {
      "inputs": [
        {
          "internalType": "uint256",
          "name": "_profileId",
          "type": "uint256"
        },
        {
          "internalType": "address",
          "name": "_address",
          "type": "address"
        }
      ],
      "name": "isDelegate",
      "outputs": [
        {
          "internalType": "bool",
          "name": "",
          "type": "bool"
        }
      ],
      "stateMutability": "view",
      "type": "function"
    },
    {
      "inputs": [
        {
          "internalType": "uint256",
          "name": "_profileId",
          "type": "uint256"
        },
        {
          "internalType": "address",
          "name": "_address",
          "type": "address"
        }
      ],
      "name": "isOwnerOrDelegate",
      "outputs": [
        {
          "internalType": "bool",
          "name": "",
          "type": "bool"
        }
      ],
      "stateMutability": "view",
      "type": "function"
    },
    {
      "inputs": [
        {
          "internalType": "address",
          "name": "forwarder",
          "type": "address"
        }
      ],
      "name": "isTrustedForwarder",
      "outputs": [
        {
          "internalType": "bool",
          "name": "",
          "type": "bool"
        }
      ],
      "stateMutability": "view",
      "type": "function"
    },
    {
      "inputs": [
        {
          "internalType": "uint256",
          "name": "_profileId",
          "type": "uint256"
        }
      ],
      "name": "isValid",
      "outputs": [],
      "stateMutability": "view",
      "type": "function"
    },
    {
      "inputs": [
        {
          "internalType": "address",
          "name": "_address",
          "type": "address"
        },
        {
          "internalType": "string",
          "name": "_handle",
          "type": "string"
        },
        {
          "internalType": "bytes32[]",
          "name": "_proof",
          "type": "bytes32[]"
        }
      ],
      "name": "isWhitelisted",
      "outputs": [
        {
          "internalType": "bool",
          "name": "",
          "type": "bool"
        }
      ],
      "stateMutability": "view",
      "type": "function"
    },
    {
      "inputs": [
        {
          "internalType": "uint256",
          "name": "_platformId",
          "type": "uint256"
        },
        {
          "internalType": "string",
          "name": "_handle",
          "type": "string"
        }
      ],
      "name": "mint",
      "outputs": [
        {
          "internalType": "uint256",
          "name": "",
          "type": "uint256"
        }
      ],
      "stateMutability": "payable",
      "type": "function"
    },
    {
      "inputs": [],
      "name": "mintFee",
      "outputs": [
        {
          "internalType": "uint256",
          "name": "",
          "type": "uint256"
        }
      ],
      "stateMutability": "view",
      "type": "function"
    },
    {
      "inputs": [],
      "name": "mintStatus",
      "outputs": [
        {
          "internalType": "enum TalentLayerID.MintStatus",
          "name": "",
          "type": "uint8"
        }
      ],
      "stateMutability": "view",
      "type": "function"
    },
    {
      "inputs": [],
      "name": "name",
      "outputs": [
        {
          "internalType": "string",
          "name": "",
          "type": "string"
        }
      ],
      "stateMutability": "view",
      "type": "function"
    },
    {
      "inputs": [
        {
          "internalType": "address",
          "name": "_user",
          "type": "address"
        }
      ],
      "name": "numberMinted",
      "outputs": [
        {
          "internalType": "uint256",
          "name": "",
          "type": "uint256"
        }
      ],
      "stateMutability": "view",
      "type": "function"
    },
    {
      "inputs": [],
      "name": "owner",
      "outputs": [
        {
          "internalType": "address",
          "name": "",
          "type": "address"
        }
      ],
      "stateMutability": "view",
      "type": "function"
    },
    {
      "inputs": [
        {
          "internalType": "uint256",
          "name": "tokenId",
          "type": "uint256"
        }
      ],
      "name": "ownerOf",
      "outputs": [
        {
          "internalType": "address",
          "name": "",
          "type": "address"
        }
      ],
      "stateMutability": "view",
      "type": "function"
    },
    {
      "inputs": [
        {
          "internalType": "uint256",
          "name": "",
          "type": "uint256"
        }
      ],
      "name": "profiles",
      "outputs": [
        {
          "internalType": "uint256",
          "name": "id",
          "type": "uint256"
        },
        {
          "internalType": "string",
          "name": "handle",
          "type": "string"
        },
        {
          "internalType": "uint256",
          "name": "platformId",
          "type": "uint256"
        },
        {
          "internalType": "string",
          "name": "dataUri",
          "type": "string"
        }
      ],
      "stateMutability": "view",
      "type": "function"
    },
    {
      "inputs": [],
      "name": "proxiableUUID",
      "outputs": [
        {
          "internalType": "bytes32",
          "name": "",
          "type": "bytes32"
        }
      ],
      "stateMutability": "view",
      "type": "function"
    },
    {
      "inputs": [
        {
          "internalType": "uint256",
          "name": "_profileId",
          "type": "uint256"
        },
        {
          "internalType": "address",
          "name": "_delegate",
          "type": "address"
        }
      ],
      "name": "removeDelegate",
      "outputs": [],
      "stateMutability": "nonpayable",
      "type": "function"
    },
    {
      "inputs": [
        {
          "internalType": "address",
          "name": "_forwarder",
          "type": "address"
        }
      ],
      "name": "removeTrustedForwarder",
      "outputs": [],
      "stateMutability": "nonpayable",
      "type": "function"
    },
    {
      "inputs": [],
      "name": "renounceOwnership",
      "outputs": [],
      "stateMutability": "nonpayable",
      "type": "function"
    },
    {
      "inputs": [
        {
          "internalType": "address",
          "name": "",
          "type": "address"
        },
        {
          "internalType": "address",
          "name": "",
          "type": "address"
        },
        {
          "internalType": "uint256",
          "name": "",
          "type": "uint256"
        }
      ],
      "name": "safeTransferFrom",
      "outputs": [],
      "stateMutability": "nonpayable",
      "type": "function"
    },
    {
      "inputs": [
        {
          "internalType": "address",
          "name": "",
          "type": "address"
        },
        {
          "internalType": "address",
          "name": "",
          "type": "address"
        },
        {
          "internalType": "uint256",
          "name": "",
          "type": "uint256"
        },
        {
          "internalType": "bytes",
          "name": "",
          "type": "bytes"
        }
      ],
      "name": "safeTransferFrom",
      "outputs": [],
      "stateMutability": "nonpayable",
      "type": "function"
    },
    {
      "inputs": [
        {
          "internalType": "address",
          "name": "operator",
          "type": "address"
        },
        {
          "internalType": "bool",
          "name": "approved",
          "type": "bool"
        }
      ],
      "name": "setApprovalForAll",
      "outputs": [],
      "stateMutability": "nonpayable",
      "type": "function"
    },
    {
      "inputs": [
        {
          "internalType": "bytes32",
          "name": "root",
          "type": "bytes32"
        }
      ],
      "name": "setWhitelistMerkleRoot",
      "outputs": [],
      "stateMutability": "nonpayable",
      "type": "function"
    },
    {
      "inputs": [
        {
          "internalType": "bytes4",
          "name": "interfaceId",
          "type": "bytes4"
        }
      ],
      "name": "supportsInterface",
      "outputs": [
        {
          "internalType": "bool",
          "name": "",
          "type": "bool"
        }
      ],
      "stateMutability": "view",
      "type": "function"
    },
    {
      "inputs": [],
      "name": "symbol",
      "outputs": [
        {
          "internalType": "string",
          "name": "",
          "type": "string"
        }
      ],
      "stateMutability": "view",
      "type": "function"
    },
    {
      "inputs": [
        {
          "internalType": "string",
          "name": "",
          "type": "string"
        }
      ],
      "name": "takenHandles",
      "outputs": [
        {
          "internalType": "bool",
          "name": "",
          "type": "bool"
        }
      ],
      "stateMutability": "view",
      "type": "function"
    },
    {
      "inputs": [],
      "name": "talentLayerPlatformIdContract",
      "outputs": [
        {
          "internalType": "contract ITalentLayerPlatformID",
          "name": "",
          "type": "address"
        }
      ],
      "stateMutability": "view",
      "type": "function"
    },
    {
      "inputs": [
        {
          "internalType": "uint256",
          "name": "tokenId",
          "type": "uint256"
        }
      ],
      "name": "tokenURI",
      "outputs": [
        {
          "internalType": "string",
          "name": "",
          "type": "string"
        }
      ],
      "stateMutability": "view",
      "type": "function"
    },
    {
      "inputs": [],
      "name": "totalSupply",
      "outputs": [
        {
          "internalType": "uint256",
          "name": "",
          "type": "uint256"
        }
      ],
      "stateMutability": "view",
      "type": "function"
    },
    {
      "inputs": [
        {
          "internalType": "address",
          "name": "",
          "type": "address"
        },
        {
          "internalType": "address",
          "name": "",
          "type": "address"
        },
        {
          "internalType": "uint256",
          "name": "",
          "type": "uint256"
        }
      ],
      "name": "transferFrom",
      "outputs": [],
      "stateMutability": "nonpayable",
      "type": "function"
    },
    {
      "inputs": [
        {
          "internalType": "address",
          "name": "newOwner",
          "type": "address"
        }
      ],
      "name": "transferOwnership",
      "outputs": [],
      "stateMutability": "nonpayable",
      "type": "function"
    },
    {
      "inputs": [
        {
          "internalType": "uint256",
          "name": "_mintFee",
          "type": "uint256"
        }
      ],
      "name": "updateMintFee",
      "outputs": [],
      "stateMutability": "nonpayable",
      "type": "function"
    },
    {
      "inputs": [
        {
          "internalType": "enum TalentLayerID.MintStatus",
          "name": "_mintStatus",
          "type": "uint8"
        }
      ],
      "name": "updateMintStatus",
      "outputs": [],
      "stateMutability": "nonpayable",
      "type": "function"
    },
    {
      "inputs": [
        {
          "internalType": "uint256",
          "name": "_profileId",
          "type": "uint256"
        },
        {
          "internalType": "string",
          "name": "_newCid",
          "type": "string"
        }
      ],
      "name": "updateProfileData",
      "outputs": [],
      "stateMutability": "nonpayable",
      "type": "function"
    },
    {
      "inputs": [
        {
          "internalType": "address",
          "name": "newImplementation",
          "type": "address"
        }
      ],
      "name": "upgradeTo",
      "outputs": [],
      "stateMutability": "nonpayable",
      "type": "function"
    },
    {
      "inputs": [
        {
          "internalType": "address",
          "name": "newImplementation",
          "type": "address"
        },
        {
          "internalType": "bytes",
          "name": "data",
          "type": "bytes"
        }
      ],
      "name": "upgradeToAndCall",
      "outputs": [],
      "stateMutability": "payable",
      "type": "function"
    },
    {
      "inputs": [
        {
          "internalType": "uint256",
          "name": "_platformId",
          "type": "uint256"
        },
        {
          "internalType": "string",
          "name": "_handle",
          "type": "string"
        },
        {
          "internalType": "bytes32[]",
          "name": "_proof",
          "type": "bytes32[]"
        }
      ],
      "name": "whitelistMint",
      "outputs": [
        {
          "internalType": "uint256",
          "name": "",
          "type": "uint256"
        }
      ],
      "stateMutability": "payable",
      "type": "function"
    },
    {
      "inputs": [],
      "name": "withdraw",
      "outputs": [],
      "stateMutability": "nonpayable",
      "type": "function"
    }
  ],
  "bytecode": "0x60a0604052306080523480156200001557600080fd5b506200002062000026565b620000e8565b600054610100900460ff1615620000935760405162461bcd60e51b815260206004820152602760248201527f496e697469616c697a61626c653a20636f6e747261637420697320696e697469604482015266616c697a696e6760c81b606482015260840160405180910390fd5b60005460ff9081161015620000e6576000805460ff191660ff9081179091556040519081527f7f26b83ff96e1f2b6a682f133852f6798a09c465da95921460cefb38474024989060200160405180910390a15b565b608051614112620001206000396000818161101b0152818161105b015281816112050152818161124501526112d801526141126000f3fe60806040526004361061027d5760003560e01c80636352211e1161014f578063b88d4fde116100c1578063e985e9c51161007a578063e985e9c5146107b7578063eab5d42614610800578063f160068f14610847578063f2fde38b14610867578063f577a50014610887578063f905f154146108a757600080fd5b8063b88d4fde146106ec578063bd32fb6614610707578063c36fe3d614610727578063c4d66de814610757578063c87b56dd14610777578063dc33e6811461079757600080fd5b806384017e521161011357806384017e521461063157806389c1694c146106515780638da5cb5b1461067157806395d89b411461068f5780639da3f8fd146106a4578063a22cb465146106cc57600080fd5b80636352211e146105a957806370a08231146105c957806370e703dd146105e9578063715018a61461060957806377097fc81461061e57600080fd5b806323b872dd116101f35780633ccfd60b116101ac5780633ccfd60b146104eb57806342842e0e1461042b5780634f1ef2861461050057806352d1902d14610513578063572b6c05146105285780635c4b03481461056157600080fd5b806323b872dd1461042b57806326d006681461044b5780632eefaa611461046b5780632fa117e51461048b5780633659cfe6146104ab5780633751d89c146104cb57600080fd5b80631499f9e6116102455780631499f9e61461035857806316afebe51461037957806318160ddd1461038c5780631847c06b146103a15780631cf6239b146103cf5780632106beec146103ef57600080fd5b806301ffc9a71461028257806306fdde03146102b7578063081812fc146102d9578063095ea7b31461031157806313966db514610333575b600080fd5b34801561028e57600080fd5b506102a261029d36600461303d565b6108c7565b60405190151581526020015b60405180910390f35b3480156102c357600080fd5b506102cc610919565b6040516102ae91906130aa565b3480156102e557600080fd5b506102f96102f43660046130bd565b6109ab565b6040516001600160a01b0390911681526020016102ae565b34801561031d57600080fd5b5061033161032c3660046130f2565b6109d2565b005b34801561033f57600080fd5b5061034a6101325481565b6040519081526020016102ae565b34801561036457600080fd5b5061012e546102f9906001600160a01b031681565b61034a610387366004613164565b610afe565b34801561039857600080fd5b5061034a610d97565b3480156103ad57600080fd5b5061034a6103bc36600461320a565b6101316020526000908152604090205481565b3480156103db57600080fd5b506103316103ea366004613225565b610db4565b3480156103fb57600080fd5b506102a261040a366004613306565b805160208183018101805161012f8252928201919093012091525460ff1681565b34801561043757600080fd5b5061033161044636600461333a565b610e91565b34801561045757600080fd5b5061033161046636600461320a565b610ed9565b34801561047757600080fd5b506102a2610486366004613376565b610f3c565b34801561049757600080fd5b506102a26104a6366004613225565b610fbf565b3480156104b757600080fd5b506103316104c636600461320a565b611011565b3480156104d757600080fd5b506103316104e636600461320a565b6110f0565b3480156104f757600080fd5b50610331611149565b61033161050e366004613452565b6111fb565b34801561051f57600080fd5b5061034a6112cb565b34801561053457600080fd5b506102a261054336600461320a565b6001600160a01b031660009081526065602052604090205460ff1690565b34801561056d57600080fd5b5061034a61057c36600461320a565b6001600160a01b031660009081526101316020908152604080832054835261013090915290206002015490565b3480156105b557600080fd5b506102f96105c43660046130bd565b61137e565b3480156105d557600080fd5b5061034a6105e436600461320a565b6113de565b3480156105f557600080fd5b50610331610604366004613225565b611464565b34801561061557600080fd5b50610331611536565b61034a61062c36600461349f565b61154a565b34801561063d57600080fd5b5061033161064c3660046130bd565b61171a565b34801561065d57600080fd5b5061034a61066c3660046134ea565b611758565b34801561067d57600080fd5b506033546001600160a01b03166102f9565b34801561069b57600080fd5b506102cc611885565b3480156106b057600080fd5b50610136546106bf9060ff1681565b6040516102ae9190613559565b3480156106d857600080fd5b506103316106e7366004613581565b611894565b3480156106f857600080fd5b506103316104463660046135bd565b34801561071357600080fd5b506103316107223660046130bd565b6118a6565b34801561073357600080fd5b506107476107423660046130bd565b6118b4565b6040516102ae9493929190613624565b34801561076357600080fd5b5061033161077236600461320a565b6119ee565b34801561078357600080fd5b506102cc6107923660046130bd565b611b7e565b3480156107a357600080fd5b5061034a6107b236600461320a565b611b89565b3480156107c357600080fd5b506102a26107d2366004613660565b6001600160a01b039182166000908152609d6020908152604080832093909416825291909152205460ff1690565b34801561080c57600080fd5b506102a261081b366004613225565b6000918252610134602090815260408084206001600160a01b0393909316845291905290205460ff1690565b34801561085357600080fd5b5061033161086236600461368a565b611b94565b34801561087357600080fd5b5061033161088236600461320a565b611c7e565b34801561089357600080fd5b506103316108a23660046130bd565b611cf4565b3480156108b357600080fd5b506103316108c23660046136ba565b611d60565b60006001600160e01b031982166380ac58cd60e01b14806108f857506001600160e01b03198216635b5e139f60e01b145b8061091357506301ffc9a760e01b6001600160e01b03198316145b92915050565b606060988054610928906136db565b80601f0160208091040260200160405190810160405280929190818152602001828054610954906136db565b80156109a15780601f10610976576101008083540402835291602001916109a1565b820191906000526020600020905b81548152906001019060200180831161098457829003601f168201915b5050505050905090565b60006109b682611dbc565b506000908152609c60205260409020546001600160a01b031690565b60006109dd8261137e565b9050806001600160a01b0316836001600160a01b031603610a4f5760405162461bcd60e51b815260206004820152602160248201527f4552433732313a20617070726f76616c20746f2063757272656e74206f776e656044820152603960f91b60648201526084015b60405180910390fd5b806001600160a01b0316610a61611e1b565b6001600160a01b03161480610a7d5750610a7d816107d2611e1b565b610aef5760405162461bcd60e51b815260206004820152603d60248201527f4552433732313a20617070726f76652063616c6c6572206973206e6f7420746f60448201527f6b656e206f776e6572206f7220617070726f76656420666f7220616c6c0000006064820152608401610a46565b610af98383611e25565b505050565b6000610b08611e1b565b858588610b1484611b89565b15610b315760405162461bcd60e51b8152600401610a4690613715565b61012f8383604051610b4492919061374a565b9081526040519081900360200190205460ff1615610b745760405162461bcd60e51b8152600401610a469061375a565b61012e5460405162f577a560e81b8152600481018390526001600160a01b039091169063f577a5009060240160006040518083038186803b158015610bb857600080fd5b505afa158015610bcc573d6000803e3d6000fd5b50505050610bda8383611e93565b610132543414610bfc5760405162461bcd60e51b8152600401610a4690613788565b60016101365460ff166002811115610c1657610c16613543565b14610c635760405162461bcd60e51b815260206004820152601d60248201527f57686974656c697374206d696e74206973206e6f7420656e61626c65640000006044820152606401610a46565b6000610c6d611e1b565b9050610ce0818b8b8080601f01602080910402602001604051908101604052809392919081815260200183838082843760009201919091525050604080516020808f0282810182019093528e82529093508e92508d918291850190849080828437600092019190915250610f3c92505050565b610d255760405162461bcd60e51b8152602060048201526016602482015275165bdd49dc99481b9bdd081dda1a5d195b1a5cdd195960521b6044820152606401610a46565b610d3881610d336101335490565b6120b5565b610d88818b8b8080601f016020809104026020016040519081016040528093929190818152602001838380828437600081840152601f19601f820116905080830192505050505050508d346120cf565b9b9a5050505050505050505050565b60006001610da56101335490565b610daf91906137e2565b905090565b610dbc611e1b565b6001600160a01b0316610dce8361137e565b6001600160a01b031614610e245760405162461bcd60e51b815260206004820152601c60248201527f4f6e6c79206f776e65722063616e206164642064656c656761746573000000006044820152606401610a46565b6000828152610134602090815260408083206001600160a01b03851680855290835292819020805460ff191660011790558051858152918201929092527f2d678d15460f6ef62d6d85bfaf6a46d9d0d6498a0fd6ecd92d42bc2ab018103991015b60405180910390a15050565b60405162461bcd60e51b815260206004820152601d60248201527f546f6b656e207472616e73666572206973206e6f7420616c6c6f7765640000006044820152606401610a46565b610ee16121a8565b6001600160a01b038116600081815260656020908152604091829020805460ff1916600117905590519182527f3ef8564460ada92419608d823c014975d98f8104d7d1e68c222967ac6814cd9791015b60405180910390a150565b600080610f53856001600160a01b03166014612221565b84604051602001610f65929190613811565b6040516020818303038152906040529050610fb46101355482604051602001610f8e919061384d565b60405160208183030381529060405280519060200120856123bc9092919063ffffffff16565b9150505b9392505050565b6000816001600160a01b0316610fd48461137e565b6001600160a01b03161480610fb85750506000918252610134602090815260408084206001600160a01b0393909316845291905290205460ff1690565b6001600160a01b037f00000000000000000000000000000000000000000000000000000000000000001630036110595760405162461bcd60e51b8152600401610a4690613869565b7f00000000000000000000000000000000000000000000000000000000000000006001600160a01b03166110a2600080516020614056833981519152546001600160a01b031690565b6001600160a01b0316146110c85760405162461bcd60e51b8152600401610a46906138b5565b6110d1816123d2565b604080516000808252602082019092526110ed918391906123da565b50565b6110f86121a8565b6001600160a01b038116600081815260656020908152604091829020805460ff1916905590519182527fd2d636efcad0cea42e170256f4c5d8b1cd81e47b855557edaf44014e6cc4cee69101610f31565b6111516121a8565b600061115b611e1b565b6001600160a01b03164760405160006040518083038185875af1925050503d80600081146111a5576040519150601f19603f3d011682016040523d82523d6000602084013e6111aa565b606091505b50509050806110ed5760405162461bcd60e51b815260206004820152601860248201527f4661696c656420746f20776974686472617720457468657200000000000000006044820152606401610a46565b6001600160a01b037f00000000000000000000000000000000000000000000000000000000000000001630036112435760405162461bcd60e51b8152600401610a4690613869565b7f00000000000000000000000000000000000000000000000000000000000000006001600160a01b031661128c600080516020614056833981519152546001600160a01b031690565b6001600160a01b0316146112b25760405162461bcd60e51b8152600401610a46906138b5565b6112bb826123d2565b6112c7828260016123da565b5050565b6000306001600160a01b037f0000000000000000000000000000000000000000000000000000000000000000161461136b5760405162461bcd60e51b815260206004820152603860248201527f555550535570677261646561626c653a206d757374206e6f742062652063616c60448201527f6c6564207468726f7567682064656c656761746563616c6c00000000000000006064820152608401610a46565b5060008051602061405683398151915290565b6000818152609a60205260408120546001600160a01b0316806109135760405162461bcd60e51b8152602060048201526018602482015277115490cdcc8c4e881a5b9d985b1a59081d1bdad95b88125160421b6044820152606401610a46565b60006001600160a01b0382166114485760405162461bcd60e51b815260206004820152602960248201527f4552433732313a2061646472657373207a65726f206973206e6f7420612076616044820152683634b21037bbb732b960b91b6064820152608401610a46565b506001600160a01b03166000908152609b602052604090205490565b61146c611e1b565b6001600160a01b031661147e8361137e565b6001600160a01b0316146114d45760405162461bcd60e51b815260206004820152601f60248201527f4f6e6c79206f776e65722063616e2072656d6f76652064656c656761746573006044820152606401610a46565b6000828152610134602090815260408083206001600160a01b03851680855290835292819020805460ff191690558051858152918201929092527f09f87139523b83583b15f476015dd9a27fae3a03f17202cdf77d063bef5d21c29101610e85565b61153e6121a8565b6115486000612545565b565b6000611554611e1b565b83838661156084611b89565b1561157d5760405162461bcd60e51b8152600401610a4690613715565b61012f838360405161159092919061374a565b9081526040519081900360200190205460ff16156115c05760405162461bcd60e51b8152600401610a469061375a565b61012e5460405162f577a560e81b8152600481018390526001600160a01b039091169063f577a5009060240160006040518083038186803b15801561160457600080fd5b505afa158015611618573d6000803e3d6000fd5b505050506116268383611e93565b6101325434146116485760405162461bcd60e51b8152600401610a4690613788565b60026101365460ff16600281111561166257611662613543565b146116af5760405162461bcd60e51b815260206004820152601a60248201527f5075626c6963206d696e74206973206e6f7420656e61626c65640000000000006044820152606401610a46565b60006116b9611e1b565b90506116c981610d336101335490565b61170d8189898080601f0160208091040260200160405190810160405280939291908181526020018383808284376000920191909152508e92503491506120cf9050565b9998505050505050505050565b6117226121a8565b6101328190556040518181527f38fbb1c8b109c430f0c030e7ed076cf5611a307773a4e8e365601e8f8bceaec690602001610f31565b60008383838761176784611b89565b156117845760405162461bcd60e51b8152600401610a4690613715565b61012f838360405161179792919061374a565b9081526040519081900360200190205460ff16156117c75760405162461bcd60e51b8152600401610a469061375a565b61012e5460405162f577a560e81b8152600481018390526001600160a01b039091169063f577a5009060240160006040518083038186803b15801561180b57600080fd5b505afa15801561181f573d6000803e3d6000fd5b5050505061182d8383611e93565b6118356121a8565b61184388610d336101335490565b61170d8888888080601f01602080910402602001604051908101604052809392919081815260200183838082843760009201829052508f935091506120cf9050565b606060998054610928906136db565b6112c761189f611e1b565b8383612597565b6118ae6121a8565b61013555565b61013060205260009081526040902080546001820180549192916118d7906136db565b80601f0160208091040260200160405190810160405280929190818152602001828054611903906136db565b80156119505780601f1061192557610100808354040283529160200191611950565b820191906000526020600020905b81548152906001019060200180831161193357829003601f168201915b50505050509080600201549080600301805461196b906136db565b80601f0160208091040260200160405190810160405280929190818152602001828054611997906136db565b80156119e45780601f106119b9576101008083540402835291602001916119e4565b820191906000526020600020905b8154815290600101906020018083116119c757829003601f168201915b5050505050905084565b600054610100900460ff1615808015611a0e5750600054600160ff909116105b80611a285750303b158015611a28575060005460ff166001145b611a8b5760405162461bcd60e51b815260206004820152602e60248201527f496e697469616c697a61626c653a20636f6e747261637420697320616c72656160448201526d191e481a5b9a5d1a585b1a5e995960921b6064820152608401610a46565b6000805460ff191660011790558015611aae576000805461ff0019166101001790555b611ab6612665565b611b006040518060400160405280600d81526020016c15185b195b9d13185e595c9251609a1b8152506040518060400160405280600381526020016215125160ea1b815250612694565b611b086126c5565b61012e80546001600160a01b0319166001600160a01b03841617905561013380546001019055610136805460ff1916600117905580156112c7576000805461ff0019169055604051600181527f7f26b83ff96e1f2b6a682f133852f6798a09c465da95921460cefb384740249890602001610e85565b6060610913826126ec565b6000610913826113de565b81611ba1816104a6611e1b565b611be55760405162461bcd60e51b81526020600482015260156024820152744e6f74206f776e6572206f722064656c656761746560581b6044820152606401610a46565b8151602e14611c245760405162461bcd60e51b815260206004820152600b60248201526a125b9d985b1a590818da5960aa1b6044820152606401610a46565b600083815261013060205260409020600301611c408382613947565b50827f613807bd6768f626264e7eb664a65ca99a0d930f8fd8a5b868491a592eb57f7283604051611c7191906130aa565b60405180910390a2505050565b611c866121a8565b6001600160a01b038116611ceb5760405162461bcd60e51b815260206004820152602660248201527f4f776e61626c653a206e6577206f776e657220697320746865207a65726f206160448201526564647265737360d01b6064820152608401610a46565b6110ed81612545565b600081118015611d0657506101335481105b6110ed5760405162461bcd60e51b815260206004820152602560248201527f596f7572204944206973206e6f7420612076616c69642054616c656e744c6179604482015264195c88125160da1b6064820152608401610a46565b611d686121a8565b610136805482919060ff19166001836002811115611d8857611d88613543565b02179055507fbe5bfaa294dd4b792e98f2bcf8f597b2ead214107f9bc9e8392d6ec65e8d854f81604051610f319190613559565b6000818152609a60205260409020546001600160a01b03166110ed5760405162461bcd60e51b8152602060048201526018602482015277115490cdcc8c4e881a5b9d985b1a59081d1bdad95b88125160421b6044820152606401610a46565b6000610daf612817565b6000818152609c6020526040902080546001600160a01b0319166001600160a01b0384169081179091558190611e5a8261137e565b6001600160a01b03167f8c5be1e5ebec7d5bd14f71427d1e84f3dd0314c0f7b2291e5b200ac8c7c3b92560405160405180910390a45050565b600082828080601f0160208091040260200160405190810160405280939291908181526020018383808284376000920191909152505082519293505060058210905080611ee05750601f81115b15611efe57604051633eb64ab360e01b815260040160405180910390fd5b600084846000818110611f1357611f13613a06565b909101356001600160f81b031916915050602d60f81b811480611f435750605f60f81b6001600160f81b03198216145b15611f6157604051632f2c22a760e11b815260040160405180910390fd5b60005b828110156120ad57600360fc1b848281518110611f8357611f83613a06565b01602001516001600160f81b0319161080611fc15750603d60f91b848281518110611fb057611fb0613a06565b01602001516001600160f81b031916115b8061201d5750603960f81b848281518110611fde57611fde613a06565b01602001516001600160f81b03191611801561201d5750606160f81b84828151811061200c5761200c613a06565b01602001516001600160f81b031916105b801561204e575083818151811061203657612036613a06565b6020910101516001600160f81b031916602d60f81b14155b801561207f575083818151811061206757612067613a06565b6020910101516001600160f81b031916605f60f81b14155b1561209d57604051630bb7f19b60e21b815260040160405180910390fd5b6120a681613a1c565b9050611f64565b505050505050565b6112c7828260405180602001604052806000815250612850565b6000806120dc6101335490565b90506120ed61013380546001019055565b60008181526101306020526040902060028101859055600181016121118782613947565b50600161012f87604051612125919061384d565b9081526040805160209281900383018120805460ff1916941515949094179093556001600160a01b038a1660008181526101319093529120849055907f8475f1ba3b06c1e11c870cbbf9753ca9a8292ea0b203262f682de476dc268f8c906121949085908a908a908a90613a35565b60405180910390a25090505b949350505050565b6121b0611e1b565b6001600160a01b03166121cb6033546001600160a01b031690565b6001600160a01b0316146115485760405162461bcd60e51b815260206004820181905260248201527f4f776e61626c653a2063616c6c6572206973206e6f7420746865206f776e65726044820152606401610a46565b60606000612230836002613a61565b61223b906002613a78565b6001600160401b0381111561225257612252613251565b6040519080825280601f01601f19166020018201604052801561227c576020820181803683370190505b509050600360fc1b8160008151811061229757612297613a06565b60200101906001600160f81b031916908160001a905350600f60fb1b816001815181106122c6576122c6613a06565b60200101906001600160f81b031916908160001a90535060006122ea846002613a61565b6122f5906001613a78565b90505b600181111561236d576f181899199a1a9b1b9c1cb0b131b232b360811b85600f166010811061232957612329613a06565b1a60f81b82828151811061233f5761233f613a06565b60200101906001600160f81b031916908160001a90535060049490941c9361236681613a8b565b90506122f8565b508315610fb85760405162461bcd60e51b815260206004820181905260248201527f537472696e67733a20686578206c656e67746820696e73756666696369656e746044820152606401610a46565b6000826123c98584612883565b14949350505050565b6110ed6121a8565b7f4910fdfa16fed3260ed0e7147f7cc6da11a60208b5b9406d12a635614ffd91435460ff161561240d57610af9836128d0565b826001600160a01b03166352d1902d6040518163ffffffff1660e01b8152600401602060405180830381865afa925050508015612467575060408051601f3d908101601f1916820190925261246491810190613aa2565b60015b6124ca5760405162461bcd60e51b815260206004820152602e60248201527f45524331393637557067726164653a206e657720696d706c656d656e7461746960448201526d6f6e206973206e6f74205555505360901b6064820152608401610a46565b60008051602061405683398151915281146125395760405162461bcd60e51b815260206004820152602960248201527f45524331393637557067726164653a20756e737570706f727465642070726f786044820152681a58589b195555525160ba1b6064820152608401610a46565b50610af983838361296c565b603380546001600160a01b038381166001600160a01b0319831681179093556040519116919082907f8be0079c531659141344cd1fd0a4f28419497f9722a3daafe3b4186f6b6457e090600090a35050565b816001600160a01b0316836001600160a01b0316036125f85760405162461bcd60e51b815260206004820152601960248201527f4552433732313a20617070726f766520746f2063616c6c6572000000000000006044820152606401610a46565b6001600160a01b038381166000818152609d6020908152604080832094871680845294825291829020805460ff191686151590811790915591519182527f17307eab39ab6107e8899845ad3d59bd9653f200f220920489ca2b5937696c31910160405180910390a3505050565b600054610100900460ff1661268c5760405162461bcd60e51b8152600401610a4690613abb565b611548612997565b600054610100900460ff166126bb5760405162461bcd60e51b8152600401610a4690613abb565b6112c782826129ce565b600054610100900460ff166115485760405162461bcd60e51b8152600401610a4690613abb565b6000818152610130602052604081206001018054606092919061270e906136db565b80601f016020809104026020016040519081016040528092919081815260200182805461273a906136db565b80156127875780601f1061275c57610100808354040283529160200191612787565b820191906000526020600020905b81548152906001019060200180831161276a57829003601f168201915b5050505050905060006127b8826040516020016127a49190613b06565b604051602081830303815290604052612a0e565b6040516020016127c89190613e6a565b60405160208183030381529060405290506127ef82826040516020016127a4929190613eaf565b6040516020016127ff9190613f42565b60405160208183030381529060405292505050919050565b60006014361080159061283957503360009081526065602052604090205460ff165b1561284b575060131936013560601c90565b503390565b61285a8383612b60565b6128676000848484612cf9565b610af95760405162461bcd60e51b8152600401610a4690613f87565b600081815b84518110156128c8576128b4828683815181106128a7576128a7613a06565b6020026020010151612dfe565b9150806128c081613a1c565b915050612888565b509392505050565b6001600160a01b0381163b61293d5760405162461bcd60e51b815260206004820152602d60248201527f455243313936373a206e657720696d706c656d656e746174696f6e206973206e60448201526c1bdd08184818dbdb9d1c9858dd609a1b6064820152608401610a46565b60008051602061405683398151915280546001600160a01b0319166001600160a01b0392909216919091179055565b61297583612e2d565b6000825111806129825750805b15610af9576129918383612e6d565b50505050565b600054610100900460ff166129be5760405162461bcd60e51b8152600401610a4690613abb565b6115486129c9611e1b565b612545565b600054610100900460ff166129f55760405162461bcd60e51b8152600401610a4690613abb565b6098612a018382613947565b506099610af98282613947565b60608151600003612a2d57505060408051602081019091526000815290565b60006040518060600160405280604081526020016140766040913990506000600384516002612a5c9190613a78565b612a669190613fd9565b612a71906004613a61565b6001600160401b03811115612a8857612a88613251565b6040519080825280601f01601f191660200182016040528015612ab2576020820181803683370190505b509050600182016020820185865187015b80821015612b1e576003820191508151603f8160121c168501518453600184019350603f81600c1c168501518453600184019350603f8160061c168501518453600184019350603f8116850151845350600183019250612ac3565b5050600386510660018114612b3a5760028114612b4d57612b55565b603d6001830353603d6002830353612b55565b603d60018303535b509195945050505050565b6001600160a01b038216612bb65760405162461bcd60e51b815260206004820181905260248201527f4552433732313a206d696e7420746f20746865207a65726f20616464726573736044820152606401610a46565b6000818152609a60205260409020546001600160a01b031615612c1b5760405162461bcd60e51b815260206004820152601c60248201527f4552433732313a20746f6b656e20616c7265616479206d696e746564000000006044820152606401610a46565b612c29600083836001612f61565b6000818152609a60205260409020546001600160a01b031615612c8e5760405162461bcd60e51b815260206004820152601c60248201527f4552433732313a20746f6b656e20616c7265616479206d696e746564000000006044820152606401610a46565b6001600160a01b0382166000818152609b6020908152604080832080546001019055848352609a90915280822080546001600160a01b0319168417905551839291907fddf252ad1be2c89b69c2b068fc378daa952ba7f163c4a11628f55a4df523b3ef908290a45050565b60006001600160a01b0384163b15612df657836001600160a01b031663150b7a02612d22611e1b565b8786866040518563ffffffff1660e01b8152600401612d449493929190613ffb565b6020604051808303816000875af1925050508015612d7f575060408051601f3d908101601f19168201909252612d7c91810190614038565b60015b612ddc573d808015612dad576040519150601f19603f3d011682016040523d82523d6000602084013e612db2565b606091505b508051600003612dd45760405162461bcd60e51b8152600401610a4690613f87565b805181602001fd5b6001600160e01b031916630a85bd0160e11b1490506121a0565b5060016121a0565b6000818310612e1a576000828152602084905260409020610fb8565b6000838152602083905260409020610fb8565b612e36816128d0565b6040516001600160a01b038216907fbc7cd75a20ee27fd9adebab32041f755214dbc6bffa90cc0225b39da2e5c2d3b90600090a250565b60606001600160a01b0383163b612ed55760405162461bcd60e51b815260206004820152602660248201527f416464726573733a2064656c65676174652063616c6c20746f206e6f6e2d636f6044820152651b9d1c9858dd60d21b6064820152608401610a46565b600080846001600160a01b031684604051612ef0919061384d565b600060405180830381855af49150503d8060008114612f2b576040519150601f19603f3d011682016040523d82523d6000602084013e612f30565b606091505b5091509150612f5882826040518060600160405280602781526020016140b660279139612fe9565b95945050505050565b6001811115612991576001600160a01b03841615612fa7576001600160a01b0384166000908152609b602052604081208054839290612fa19084906137e2565b90915550505b6001600160a01b03831615612991576001600160a01b0383166000908152609b602052604081208054839290612fde908490613a78565b909155505050505050565b60608315612ff8575081610fb8565b610fb8838381511561300d5781518083602001fd5b8060405162461bcd60e51b8152600401610a4691906130aa565b6001600160e01b0319811681146110ed57600080fd5b60006020828403121561304f57600080fd5b8135610fb881613027565b60005b8381101561307557818101518382015260200161305d565b50506000910152565b6000815180845261309681602086016020860161305a565b601f01601f19169290920160200192915050565b602081526000610fb8602083018461307e565b6000602082840312156130cf57600080fd5b5035919050565b80356001600160a01b03811681146130ed57600080fd5b919050565b6000806040838503121561310557600080fd5b61310e836130d6565b946020939093013593505050565b60008083601f84011261312e57600080fd5b5081356001600160401b0381111561314557600080fd5b60208301915083602082850101111561315d57600080fd5b9250929050565b60008060008060006060868803121561317c57600080fd5b8535945060208601356001600160401b038082111561319a57600080fd5b6131a689838a0161311c565b909650945060408801359150808211156131bf57600080fd5b818801915088601f8301126131d357600080fd5b8135818111156131e257600080fd5b8960208260051b85010111156131f757600080fd5b9699959850939650602001949392505050565b60006020828403121561321c57600080fd5b610fb8826130d6565b6000806040838503121561323857600080fd5b82359150613248602084016130d6565b90509250929050565b634e487b7160e01b600052604160045260246000fd5b604051601f8201601f191681016001600160401b038111828210171561328f5761328f613251565b604052919050565b600082601f8301126132a857600080fd5b81356001600160401b038111156132c1576132c1613251565b6132d4601f8201601f1916602001613267565b8181528460208386010111156132e957600080fd5b816020850160208301376000918101602001919091529392505050565b60006020828403121561331857600080fd5b81356001600160401b0381111561332e57600080fd5b6121a084828501613297565b60008060006060848603121561334f57600080fd5b613358846130d6565b9250613366602085016130d6565b9150604084013590509250925092565b60008060006060848603121561338b57600080fd5b613394846130d6565b92506020808501356001600160401b03808211156133b157600080fd5b6133bd88838901613297565b945060408701359150808211156133d357600080fd5b818701915087601f8301126133e757600080fd5b8135818111156133f9576133f9613251565b8060051b915061340a848301613267565b818152918301840191848101908a84111561342457600080fd5b938501935b8385101561344257843582529385019390850190613429565b8096505050505050509250925092565b6000806040838503121561346557600080fd5b61346e836130d6565b915060208301356001600160401b0381111561348957600080fd5b61349585828601613297565b9150509250929050565b6000806000604084860312156134b457600080fd5b8335925060208401356001600160401b038111156134d157600080fd5b6134dd8682870161311c565b9497909650939450505050565b6000806000806060858703121561350057600080fd5b84359350613510602086016130d6565b925060408501356001600160401b0381111561352b57600080fd5b6135378782880161311c565b95989497509550505050565b634e487b7160e01b600052602160045260246000fd5b602081016003831061357b57634e487b7160e01b600052602160045260246000fd5b91905290565b6000806040838503121561359457600080fd5b61359d836130d6565b9150602083013580151581146135b257600080fd5b809150509250929050565b600080600080608085870312156135d357600080fd5b6135dc856130d6565b93506135ea602086016130d6565b92506040850135915060608501356001600160401b0381111561360c57600080fd5b61361887828801613297565b91505092959194509250565b84815260806020820152600061363d608083018661307e565b8460408401528281036060840152613655818561307e565b979650505050505050565b6000806040838503121561367357600080fd5b61367c836130d6565b9150613248602084016130d6565b6000806040838503121561369d57600080fd5b8235915060208301356001600160401b0381111561348957600080fd5b6000602082840312156136cc57600080fd5b813560038110610fb857600080fd5b600181811c908216806136ef57607f821691505b60208210810361370f57634e487b7160e01b600052602260045260246000fd5b50919050565b6020808252818101527f596f7520616c7265616479206861766520612054616c656e744c617965724944604082015260600190565b8183823760009101908152919050565b6020808252601490820152732430b73236329030b63932b0b23c903a30b5b2b760611b604082015260600190565b60208082526024908201527f496e636f727265637420616d6f756e74206f662045544820666f72206d696e746040820152632066656560e01b606082015260800190565b634e487b7160e01b600052601160045260246000fd5b81810381811115610913576109136137cc565b6000815161380781856020860161305a565b9290920192915050565b6000835161382381846020880161305a565b603b60f81b908301908152835161384181600184016020880161305a565b01600101949350505050565b6000825161385f81846020870161305a565b9190910192915050565b6020808252602c908201527f46756e6374696f6e206d7573742062652063616c6c6564207468726f7567682060408201526b19195b1959d85d1958d85b1b60a21b606082015260800190565b6020808252602c908201527f46756e6374696f6e206d7573742062652063616c6c6564207468726f7567682060408201526b6163746976652070726f787960a01b606082015260800190565b601f821115610af957600081815260208120601f850160051c810160208610156139285750805b601f850160051c820191505b818110156120ad57828155600101613934565b81516001600160401b0381111561396057613960613251565b6139748161396e84546136db565b84613901565b602080601f8311600181146139a957600084156139915750858301515b600019600386901b1c1916600185901b1785556120ad565b600085815260208120601f198616915b828110156139d8578886015182559484019460019091019084016139b9565b50858210156139f65787850151600019600388901b60f8161c191681555b5050505050600190811b01905550565b634e487b7160e01b600052603260045260246000fd5b600060018201613a2e57613a2e6137cc565b5060010190565b848152608060208201526000613a4e608083018661307e565b6040830194909452506060015292915050565b8082028115828204841417610913576109136137cc565b80820180821115610913576109136137cc565b600081613a9a57613a9a6137cc565b506000190190565b600060208284031215613ab457600080fd5b5051919050565b6020808252602b908201527f496e697469616c697a61626c653a20636f6e7472616374206973206e6f74206960408201526a6e697469616c697a696e6760a81b606082015260800190565b7f3c73766720786d6c6e733d22687474703a2f2f7777772e77332e6f72672f323081527f30302f737667222077696474683d2237323022206865696768743d223732302260208201527f3e3c726563742077696474683d223130302522206865696768743d223130302560408201527f222f3e3c73766720786d6c6e733d22687474703a2f2f7777772e77332e6f726760608201527f2f323030302f737667222077696474683d2231353022206865696768743d223160808201527f3530222076657273696f6e3d22312e32222076696577426f783d222d3230302060a08201527f2d353020313030302031303030223e3c706174682066696c6c3d22234646464660c08201527f46462220643d224d3236342e35203139302e3563302d31332e382031312e322d60e08201527f32352032352d3235483536386331332e3820302032352031312e3220323520326101008201527f357634393063302031332e382d31312e322032352d3235203235483238392e356101208201527f632d31332e3820302d32352d31312e322d32352d32357a222f3e3c70617468206101408201527f66696c6c3d22234646464646462220643d224d3236352036323463302d31332e6101608201527f382031312e322d32352032352d3235683534336331332e3820302032352031316101808201527f2e322032352032357635362e3563302031332e382d31312e322032352d3235206101a08201527f323548323930632d31332e3820302d32352d31312e322d32352d32357a222f3e6101c08201527f3c706174682066696c6c3d22234646464646462220643d224d30203139302e356101e08201527f63302d31332e382031312e322d32352032352d3235683534336331332e3820306102008201527f2032352031312e322032352032355632343763302031332e382d31312e3220326102208201527f352d3235203235483235632d31332e3820302d32352d31312e322d32352d32356102408201527f7a222f3e3c2f7376673e3c7465787420783d2233302220793d223637302220736102608201527f74796c653d22666f6e743a363070782073616e732d73657269663b66696c6c3a6102808201526511b33333111f60d11b6102a08201526000610fb8613e516102a68401856137f5565b6c1e17ba32bc3a1f1e17b9bb339f60991b8152600d0190565b7f646174613a696d6167652f7376672b786d6c3b6261736536342c000000000000815260008251613ea281601a85016020870161305a565b91909101601a0192915050565b683d913730b6b2911d1160b91b81528251600090613ed481600985016020880161305a565b6b1116101134b6b0b3b2911d1160a11b6009918401918201528351613f0081601584016020880161305a565b7f222c20226465736372697074696f6e223a202254616c656e744c617965722049601592909101918201526244227d60e81b6035820152603801949350505050565b7f646174613a6170706c69636174696f6e2f6a736f6e3b6261736536342c000000815260008251613f7a81601d85016020870161305a565b91909101601d0192915050565b60208082526032908201527f4552433732313a207472616e7366657220746f206e6f6e20455243373231526560408201527131b2b4bb32b91034b6b83632b6b2b73a32b960711b606082015260800190565b600082613ff657634e487b7160e01b600052601260045260246000fd5b500490565b6001600160a01b038581168252841660208201526040810183905260806060820181905260009061402e9083018461307e565b9695505050505050565b60006020828403121561404a57600080fd5b8151610fb88161302756fe360894a13ba1a3210667c828492db98dca3e2076cc3735a920a3ca505d382bbc4142434445464748494a4b4c4d4e4f505152535455565758595a6162636465666768696a6b6c6d6e6f707172737475767778797a303132333435363738392b2f416464726573733a206c6f772d6c6576656c2064656c65676174652063616c6c206661696c6564a2646970667358221220125ebe5761ff10f94dc1b14fe0cfd5f50f23e0e4989b787ceea71d8c6f44b84964736f6c63430008110033",
  "linkReferences": {},
  "deployedLinkReferences": {}
}