{
  "_format": "hh-sol-artifact-1",
  "contractName": "TalentLayerReview",
  "sourceName": "contracts/TalentLayerReview.sol",
  "abi": [
    {
      "inputs": [
        {
          "internalType": "string",
          "name": "name_",
          "type": "string"
        },
        {
          "internalType": "string",
          "name": "symbol_",
          "type": "string"
        },
        {
          "internalType": "address",
          "name": "_talentLayerIdAddress",
          "type": "address"
        },
        {
          "internalType": "address",
          "name": "_jobRegistryAddress",
          "type": "address"
        }
      ],
      "stateMutability": "nonpayable",
      "type": "constructor"
    },
    {
      "inputs": [],
      "name": "ReviewAlreadyMinted",
      "type": "error"
    },
    {
      "anonymous": false,
      "inputs": [
        {
          "indexed": true,
          "internalType": "address",
          "name": "owner",
          "type": "address"
        },
        {
          "indexed": true,
          "internalType": "address",
          "name": "approved",
          "type": "address"
        },
        {
          "indexed": true,
          "internalType": "uint256",
          "name": "tokenId",
          "type": "uint256"
        }
      ],
      "name": "Approval",
      "type": "event"
    },
    {
      "anonymous": false,
      "inputs": [
        {
          "indexed": true,
          "internalType": "address",
          "name": "owner",
          "type": "address"
        },
        {
          "indexed": true,
          "internalType": "address",
          "name": "operator",
          "type": "address"
        },
        {
          "indexed": false,
          "internalType": "bool",
          "name": "approved",
          "type": "bool"
        }
      ],
      "name": "ApprovalForAll",
      "type": "event"
    },
    {
      "anonymous": false,
      "inputs": [
        {
          "indexed": true,
          "internalType": "uint256",
          "name": "_jobId",
          "type": "uint256"
        },
        {
          "indexed": true,
          "internalType": "uint256",
          "name": "_toId",
          "type": "uint256"
        },
        {
          "indexed": true,
          "internalType": "uint256",
          "name": "_tokenId",
          "type": "uint256"
        },
        {
          "indexed": false,
          "internalType": "string",
          "name": "_reviewUri",
          "type": "string"
        }
      ],
      "name": "Mint",
      "type": "event"
    },
    {
      "anonymous": false,
      "inputs": [
        {
          "indexed": true,
          "internalType": "address",
          "name": "from",
          "type": "address"
        },
        {
          "indexed": true,
          "internalType": "address",
          "name": "to",
          "type": "address"
        },
        {
          "indexed": true,
          "internalType": "uint256",
          "name": "tokenId",
          "type": "uint256"
        }
      ],
      "name": "Transfer",
      "type": "event"
    },
    {
      "inputs": [],
      "name": "_totalSupply",
      "outputs": [
        {
          "internalType": "uint256",
          "name": "",
          "type": "uint256"
        }
      ],
      "stateMutability": "view",
      "type": "function"
    },
    {
      "inputs": [
        {
          "internalType": "uint256",
          "name": "_jobId",
          "type": "uint256"
        },
        {
          "internalType": "string",
          "name": "_reviewUri",
          "type": "string"
        }
      ],
      "name": "addReview",
      "outputs": [],
      "stateMutability": "nonpayable",
      "type": "function"
    },
    {
      "inputs": [
        {
          "internalType": "address",
          "name": "to",
          "type": "address"
        },
        {
          "internalType": "uint256",
          "name": "tokenId",
          "type": "uint256"
        }
      ],
      "name": "approve",
      "outputs": [],
      "stateMutability": "nonpayable",
      "type": "function"
    },
    {
      "inputs": [
        {
          "internalType": "address",
          "name": "owner",
          "type": "address"
        }
      ],
      "name": "balanceOf",
      "outputs": [
        {
          "internalType": "uint256",
          "name": "",
          "type": "uint256"
        }
      ],
      "stateMutability": "view",
      "type": "function"
    },
    {
      "inputs": [
        {
          "internalType": "uint256",
          "name": "tokenId",
          "type": "uint256"
        }
      ],
      "name": "getApproved",
      "outputs": [
        {
          "internalType": "address",
          "name": "",
          "type": "address"
        }
      ],
      "stateMutability": "view",
      "type": "function"
    },
    {
      "inputs": [
        {
          "internalType": "address",
          "name": "owner",
          "type": "address"
        },
        {
          "internalType": "address",
          "name": "operator",
          "type": "address"
        }
      ],
      "name": "isApprovedForAll",
      "outputs": [
        {
          "internalType": "bool",
          "name": "",
          "type": "bool"
        }
      ],
      "stateMutability": "view",
      "type": "function"
    },
    {
      "inputs": [],
      "name": "name",
      "outputs": [
        {
          "internalType": "string",
          "name": "",
          "type": "string"
        }
      ],
      "stateMutability": "view",
      "type": "function"
    },
    {
      "inputs": [
        {
          "internalType": "uint256",
          "name": "",
          "type": "uint256"
        }
      ],
      "name": "nftMintedByJobAndemployeeId",
      "outputs": [
        {
          "internalType": "uint256",
          "name": "",
          "type": "uint256"
        }
      ],
      "stateMutability": "view",
      "type": "function"
    },
    {
      "inputs": [
        {
          "internalType": "uint256",
          "name": "",
          "type": "uint256"
        }
      ],
      "name": "nftMintedByJobAndemployerId",
      "outputs": [
        {
          "internalType": "uint256",
          "name": "",
          "type": "uint256"
        }
      ],
      "stateMutability": "view",
      "type": "function"
    },
    {
      "inputs": [
        {
          "internalType": "uint256",
          "name": "tokenId",
          "type": "uint256"
        }
      ],
      "name": "ownerOf",
      "outputs": [
        {
          "internalType": "address",
          "name": "",
          "type": "address"
        }
      ],
      "stateMutability": "view",
      "type": "function"
    },
    {
      "inputs": [
        {
          "internalType": "uint256",
          "name": "",
          "type": "uint256"
        }
      ],
      "name": "reviewDataUri",
      "outputs": [
        {
          "internalType": "string",
          "name": "",
          "type": "string"
        }
      ],
      "stateMutability": "view",
      "type": "function"
    },
    {
      "inputs": [
        {
          "internalType": "address",
          "name": "from",
          "type": "address"
        },
        {
          "internalType": "address",
          "name": "to",
          "type": "address"
        },
        {
          "internalType": "uint256",
          "name": "tokenId",
          "type": "uint256"
        }
      ],
      "name": "safeTransferFrom",
      "outputs": [],
      "stateMutability": "nonpayable",
      "type": "function"
    },
    {
      "inputs": [
        {
          "internalType": "address",
          "name": "from",
          "type": "address"
        },
        {
          "internalType": "address",
          "name": "to",
          "type": "address"
        },
        {
          "internalType": "uint256",
          "name": "tokenId",
          "type": "uint256"
        },
        {
          "internalType": "bytes",
          "name": "data",
          "type": "bytes"
        }
      ],
      "name": "safeTransferFrom",
      "outputs": [],
      "stateMutability": "nonpayable",
      "type": "function"
    },
    {
      "inputs": [
        {
          "internalType": "address",
          "name": "operator",
          "type": "address"
        },
        {
          "internalType": "bool",
          "name": "approved",
          "type": "bool"
        }
      ],
      "name": "setApprovalForAll",
      "outputs": [],
      "stateMutability": "nonpayable",
      "type": "function"
    },
    {
      "inputs": [
        {
          "internalType": "bytes4",
          "name": "interfaceId",
          "type": "bytes4"
        }
      ],
      "name": "supportsInterface",
      "outputs": [
        {
          "internalType": "bool",
          "name": "",
          "type": "bool"
        }
      ],
      "stateMutability": "view",
      "type": "function"
    },
    {
      "inputs": [],
      "name": "symbol",
      "outputs": [
        {
          "internalType": "string",
          "name": "",
          "type": "string"
        }
      ],
      "stateMutability": "view",
      "type": "function"
    },
    {
      "inputs": [
        {
          "internalType": "uint256",
          "name": "tokenId",
          "type": "uint256"
        }
      ],
      "name": "tokenURI",
      "outputs": [
        {
          "internalType": "string",
          "name": "",
          "type": "string"
        }
      ],
      "stateMutability": "view",
      "type": "function"
    },
    {
      "inputs": [
        {
          "internalType": "address",
          "name": "from",
          "type": "address"
        },
        {
          "internalType": "address",
          "name": "to",
          "type": "address"
        },
        {
          "internalType": "uint256",
          "name": "tokenId",
          "type": "uint256"
        }
      ],
      "name": "transferFrom",
      "outputs": [],
      "stateMutability": "nonpayable",
      "type": "function"
    }
  ],
  "bytecode": "0x608060405260006002553480156200001657600080fd5b5060405162001b6238038062001b6283398101604081905262000039916200022a565b83516200004e9060009060208701906200009a565b508251620000649060019060208601906200009a565b50600a80546001600160a01b039384166001600160a01b031991821617909155600b805492909316911617905550620002f69050565b828054620000a890620002b9565b90600052602060002090601f016020900481019282620000cc576000855562000117565b82601f10620000e757805160ff191683800117855562000117565b8280016001018555821562000117579182015b8281111562000117578251825591602001919060010190620000fa565b506200012592915062000129565b5090565b5b808211156200012557600081556001016200012a565b634e487b7160e01b600052604160045260246000fd5b600082601f8301126200016857600080fd5b81516001600160401b038082111562000185576200018562000140565b604051601f8301601f19908116603f01168101908282118183101715620001b057620001b062000140565b81604052838152602092508683858801011115620001cd57600080fd5b600091505b83821015620001f15785820183015181830184015290820190620001d2565b83821115620002035760008385830101525b9695505050505050565b80516001600160a01b03811681146200022557600080fd5b919050565b600080600080608085870312156200024157600080fd5b84516001600160401b03808211156200025957600080fd5b620002678883890162000156565b955060208701519150808211156200027e57600080fd5b506200028d8782880162000156565b9350506200029e604086016200020d565b9150620002ae606086016200020d565b905092959194509250565b600181811c90821680620002ce57607f821691505b60208210811415620002f057634e487b7160e01b600052602260045260246000fd5b50919050565b61185c80620003066000396000f3fe608060405234801561001057600080fd5b50600436106101165760003560e01c80635bb0c5d6116100a2578063a22cb46511610071578063a22cb46514610249578063b88d4fde1461025c578063c87b56dd1461026f578063e490eebf14610282578063e985e9c5146102a257600080fd5b80635bb0c5d6146102085780636352211e1461021b57806370a082311461022e57806395d89b411461024157600080fd5b806323b872dd116100e957806323b872dd146101985780633e12b125146101ab5780633eaaf86b146101d957806342842e0e146101e257806352a2383b146101f557600080fd5b806301ffc9a71461011b57806306fdde0314610143578063081812fc14610158578063095ea7b314610183575b600080fd5b61012e6101293660046110e8565b6102de565b60405190151581526020015b60405180910390f35b61014b610330565b60405161013a919061115d565b61016b610166366004611170565b6103c2565b6040516001600160a01b03909116815260200161013a565b61019661019136600461119e565b6103e9565b005b6101966101a63660046111ca565b610521565b6101cb6101b9366004611170565b60086020526000908152604090205481565b60405190815260200161013a565b6101cb60025481565b6101966101f03660046111ca565b610547565b61014b610203366004611170565b610562565b61019661021636600461120b565b6105fc565b61016b610229366004611170565b610879565b6101cb61023c366004611287565b610931565b61014b610a3d565b6101966102573660046112a4565b610a4c565b61019661026a36600461137a565b610a5b565b61014b61027d366004611170565b610a93565b6101cb610290366004611170565b60096020526000908152604090205481565b61012e6102b0366004611429565b6001600160a01b03918216600090815260066020908152604080832093909416825291909152205460ff1690565b60006001600160e01b031982166380ac58cd60e01b148061030f57506001600160e01b03198216635b5e139f60e01b145b8061032a57506301ffc9a760e01b6001600160e01b03198316145b92915050565b60606000805461033f90611457565b80601f016020809104026020016040519081016040528092919081815260200182805461036b90611457565b80156103b85780601f1061038d576101008083540402835291602001916103b8565b820191906000526020600020905b81548152906001019060200180831161039b57829003601f168201915b5050505050905090565b60006103cd82610b07565b506000908152600560205260409020546001600160a01b031690565b60006103f482610879565b9050806001600160a01b0316836001600160a01b031614156104725760405162461bcd60e51b815260206004820152602c60248201527f54616c656e744c617965725265766965773a20617070726f76616c20746f206360448201526b3ab93932b73a1037bbb732b960a11b60648201526084015b60405180910390fd5b336001600160a01b038216148061048e575061048e81336102b0565b6105125760405162461bcd60e51b815260206004820152604960248201527f54616c656e744c617965725265766965773a20617070726f76652063616c6c6560448201527f72206973206e6f7420746f6b656e206f776e6572206e6f7220617070726f76656064820152681908199bdc88185b1b60ba1b608482015260a401610469565b61051c8383610b35565b505050565b61052b3382610ba3565b61051c5760405162461bcd60e51b815260040161046990611492565b61051c83838360405180602001604052806000815250610a5b565b6007602052600090815260409020805461057b90611457565b80601f01602080910402602001604051908101604052809291908181526020018280546105a790611457565b80156105f45780601f106105c9576101008083540402835291602001916105f4565b820191906000526020600020905b8154815290600101906020018083116105d757829003601f168201915b505050505081565b600b5460405163bf22c45760e01b8152600481018590526000916001600160a01b03169063bf22c4579060240160006040518083038186803b15801561064157600080fd5b505afa158015610655573d6000803e3d6000fd5b505050506040513d6000823e601f3d908101601f1916820160405261067d91908101906114ef565b600a5460405162438b6360e81b81523360048201529192506000916001600160a01b039091169063438b63009060240160206040518083038186803b1580156106c557600080fd5b505afa1580156106d9573d6000803e3d6000fd5b505050506040513d601f19601f820116820180604052508101906106fd91906115ce565b905081602001518114806107145750816040015181145b6107605760405162461bcd60e51b815260206004820152601f60248201527f596f75277265206e6f7420616e206163746f72206f662074686973206a6f62006044820152606401610469565b600282516003811115610775576107756115e7565b146107c25760405162461bcd60e51b815260206004820152601b60248201527f546865206a6f62206973206e6f742066696e69736865642079657400000000006044820152606401610469565b6000826020015182141561081c575060408083015160008781526008602052919091205482141561080657604051633d36d72960e01b815260040160405180910390fd5b6000868152600860205260409020829055610865565b506020808301516000878152600990925260409091205482141561085357604051633d36d72960e01b815260040160405180910390fd5b60008681526009602052604090208290555b61087186828787610c22565b505050505050565b600a546000828152600360205260408082205490516331a9108f60e11b81526004810191909152909182916001600160a01b0390911690636352211e9060240160206040518083038186803b1580156108d157600080fd5b505afa1580156108e5573d6000803e3d6000fd5b505050506040513d601f19601f8201168201806040525081019061090991906115fd565b90506001600160a01b03811661032a5760405162461bcd60e51b81526004016104699061161a565b60006001600160a01b0382166109a45760405162461bcd60e51b815260206004820152603260248201527f54616c656e744c617965725265766965773a20746f6b656e207a65726f206973604482015271103737ba1030903b30b634b21037bbb732b960711b6064820152608401610469565b600a5460405162438b6360e81b81526001600160a01b038481166004808401919091529260009291169063438b63009060240160206040518083038186803b1580156109ef57600080fd5b505afa158015610a03573d6000803e3d6000fd5b505050506040513d601f19601f82011682018060405250810190610a2791906115ce565b8152602001908152602001600020549050919050565b60606001805461033f90611457565b610a57338383610d2b565b5050565b610a653383610ba3565b610a815760405162461bcd60e51b815260040161046990611492565b610a8d84848484610e06565b50505050565b6060610a9e82610b07565b6000610ab560408051602081019091526000815290565b90506000815111610ad55760405180602001604052806000815250610b00565b80610adf84610e2e565b604051602001610af092919061165d565b6040516020818303038152906040525b9392505050565b600081815260036020526040902054610b325760405162461bcd60e51b81526004016104699061161a565b50565b600081815260056020526040902080546001600160a01b0319166001600160a01b0384169081179091558190610b6a82610879565b6001600160a01b03167f8c5be1e5ebec7d5bd14f71427d1e84f3dd0314c0f7b2291e5b200ac8c7c3b92560405160405180910390a45050565b600080610baf83610879565b9050806001600160a01b0316846001600160a01b03161480610bf657506001600160a01b0380821660009081526006602090815260408083209388168352929052205460ff165b80610c1a5750836001600160a01b0316610c0f846103c2565b6001600160a01b0316145b949350505050565b82610c825760405162461bcd60e51b815260206004820152602a60248201527f54616c656e744c617965725265766965773a206d696e7420746f20696e76616c6044820152696964206164647265737360b01b6064820152608401610469565b6000838152600460205260408120805460019290610ca19084906116a2565b9091555050600280546000908152600360209081526040808320879055925482526007905220610cd2908383611039565b50600254610ce19060016116a2565b60028190555060025483857f41ceeaff1edf8efbe8da5c98f09d54602d342b6b8a6049878d6a60a07136f8128585604051610d1d9291906116ba565b60405180910390a450505050565b816001600160a01b0316836001600160a01b03161415610d995760405162461bcd60e51b8152602060048201526024808201527f54616c656e744c617965725265766965773a20617070726f766520746f206361604482015263363632b960e11b6064820152608401610469565b6001600160a01b03838116600081815260066020908152604080832094871680845294825291829020805460ff191686151590811790915591519182527f17307eab39ab6107e8899845ad3d59bd9653f200f220920489ca2b5937696c31910160405180910390a3505050565b610e1284848484610f2c565b610a8d5760405162461bcd60e51b8152600401610469906116e9565b606081610e525750506040805180820190915260018152600360fc1b602082015290565b8160005b8115610e7c5780610e6681611746565b9150610e759050600a83611777565b9150610e56565b60008167ffffffffffffffff811115610e9757610e976112e2565b6040519080825280601f01601f191660200182016040528015610ec1576020820181803683370190505b5090505b8415610c1a57610ed660018361178b565b9150610ee3600a866117a2565b610eee9060306116a2565b60f81b818381518110610f0357610f036117b6565b60200101906001600160f81b031916908160001a905350610f25600a86611777565b9450610ec5565b60006001600160a01b0384163b1561102e57604051630a85bd0160e11b81526001600160a01b0385169063150b7a0290610f709033908990889088906004016117cc565b602060405180830381600087803b158015610f8a57600080fd5b505af1925050508015610fba575060408051601f3d908101601f19168201909252610fb791810190611809565b60015b611014573d808015610fe8576040519150601f19603f3d011682016040523d82523d6000602084013e610fed565b606091505b50805161100c5760405162461bcd60e51b8152600401610469906116e9565b805181602001fd5b6001600160e01b031916630a85bd0160e11b149050610c1a565b506001949350505050565b82805461104590611457565b90600052602060002090601f01602090048101928261106757600085556110ad565b82601f106110805782800160ff198235161785556110ad565b828001600101855582156110ad579182015b828111156110ad578235825591602001919060010190611092565b506110b99291506110bd565b5090565b5b808211156110b957600081556001016110be565b6001600160e01b031981168114610b3257600080fd5b6000602082840312156110fa57600080fd5b8135610b00816110d2565b60005b83811015611120578181015183820152602001611108565b83811115610a8d5750506000910152565b60008151808452611149816020860160208601611105565b601f01601f19169290920160200192915050565b602081526000610b006020830184611131565b60006020828403121561118257600080fd5b5035919050565b6001600160a01b0381168114610b3257600080fd5b600080604083850312156111b157600080fd5b82356111bc81611189565b946020939093013593505050565b6000806000606084860312156111df57600080fd5b83356111ea81611189565b925060208401356111fa81611189565b929592945050506040919091013590565b60008060006040848603121561122057600080fd5b83359250602084013567ffffffffffffffff8082111561123f57600080fd5b818601915086601f83011261125357600080fd5b81358181111561126257600080fd5b87602082850101111561127457600080fd5b6020830194508093505050509250925092565b60006020828403121561129957600080fd5b8135610b0081611189565b600080604083850312156112b757600080fd5b82356112c281611189565b9150602083013580151581146112d757600080fd5b809150509250929050565b634e487b7160e01b600052604160045260246000fd5b60405160a0810167ffffffffffffffff8111828210171561131b5761131b6112e2565b60405290565b604051601f8201601f1916810167ffffffffffffffff8111828210171561134a5761134a6112e2565b604052919050565b600067ffffffffffffffff82111561136c5761136c6112e2565b50601f01601f191660200190565b6000806000806080858703121561139057600080fd5b843561139b81611189565b935060208501356113ab81611189565b925060408501359150606085013567ffffffffffffffff8111156113ce57600080fd5b8501601f810187136113df57600080fd5b80356113f26113ed82611352565b611321565b81815288602083850101111561140757600080fd5b8160208401602083013760006020838301015280935050505092959194509250565b6000806040838503121561143c57600080fd5b823561144781611189565b915060208301356112d781611189565b600181811c9082168061146b57607f821691505b6020821081141561148c57634e487b7160e01b600052602260045260246000fd5b50919050565b60208082526039908201527f54616c656e744c617965725265766965773a2063616c6c6572206973206e6f7460408201527f20746f6b656e206f776e6572206e6f7220617070726f76656400000000000000606082015260800190565b6000602080838503121561150257600080fd5b825167ffffffffffffffff8082111561151a57600080fd5b9084019060a0828703121561152e57600080fd5b6115366112f8565b82516004811061154557600080fd5b808252508383015184820152604083015160408201526060830151606082015260808301518281111561157757600080fd5b80840193505086601f84011261158c57600080fd5b8251915061159c6113ed83611352565b82815287858486010111156115b057600080fd5b6115bf83868301878701611105565b60808201529695505050505050565b6000602082840312156115e057600080fd5b5051919050565b634e487b7160e01b600052602160045260246000fd5b60006020828403121561160f57600080fd5b8151610b0081611189565b60208082526023908201527f54616c656e744c617965725265766965773a20696e76616c696420746f6b656e60408201526208125160ea1b606082015260800190565b6000835161166f818460208801611105565b835190830190611683818360208801611105565b01949350505050565b634e487b7160e01b600052601160045260246000fd5b600082198211156116b5576116b561168c565b500190565b60208152816020820152818360408301376000818301604090810191909152601f909201601f19160101919050565b6020808252603d908201527f54616c656e744c617965725265766965773a207472616e7366657220746f206e60408201527f6f6e20455243373231526563656976657220696d706c656d656e746572000000606082015260800190565b600060001982141561175a5761175a61168c565b5060010190565b634e487b7160e01b600052601260045260246000fd5b60008261178657611786611761565b500490565b60008282101561179d5761179d61168c565b500390565b6000826117b1576117b1611761565b500690565b634e487b7160e01b600052603260045260246000fd5b6001600160a01b03858116825284166020820152604081018390526080606082018190526000906117ff90830184611131565b9695505050505050565b60006020828403121561181b57600080fd5b8151610b00816110d256fea264697066735822122030e9c399aee5d7c0de74e4023957d9a0150cbb0d3c8ef56cc272a793f171e15f64736f6c63430008090033",
  "linkReferences": {},
  "deployedLinkReferences": {}
}