{
  "_format": "hh-sol-artifact-1",
  "contractName": "TalentLayerID",
  "sourceName": "contracts/TalentLayerID.sol",
  "abi": [
    {
      "inputs": [
        {
          "internalType": "address",
          "name": "_pohAddress",
          "type": "address"
        },
        {
          "internalType": "address",
          "name": "_talentLayerPlatformIdAddress",
          "type": "address"
        }
      ],
      "stateMutability": "nonpayable",
      "type": "constructor"
    },
    {
      "inputs": [],
      "name": "ApprovalCallerNotOwnerNorApproved",
      "type": "error"
    },
    {
      "inputs": [],
      "name": "ApprovalQueryForNonexistentToken",
      "type": "error"
    },
    {
      "inputs": [],
      "name": "ApproveToCaller",
      "type": "error"
    },
    {
      "inputs": [],
      "name": "BalanceQueryForZeroAddress",
      "type": "error"
    },
    {
      "inputs": [],
      "name": "MintERC2309QuantityExceedsLimit",
      "type": "error"
    },
    {
      "inputs": [],
      "name": "MintToZeroAddress",
      "type": "error"
    },
    {
      "inputs": [],
      "name": "MintZeroQuantity",
      "type": "error"
    },
    {
      "inputs": [],
      "name": "OwnerQueryForNonexistentToken",
      "type": "error"
    },
    {
      "inputs": [],
      "name": "OwnershipNotInitializedForExtraData",
      "type": "error"
    },
    {
      "inputs": [],
      "name": "TransferCallerNotOwnerNorApproved",
      "type": "error"
    },
    {
      "inputs": [],
      "name": "TransferFromIncorrectOwner",
      "type": "error"
    },
    {
      "inputs": [],
      "name": "TransferToNonERC721ReceiverImplementer",
      "type": "error"
    },
    {
      "inputs": [],
      "name": "TransferToZeroAddress",
      "type": "error"
    },
    {
      "inputs": [],
      "name": "URIQueryForNonexistentToken",
      "type": "error"
    },
    {
      "anonymous": false,
      "inputs": [
        {
          "indexed": true,
          "internalType": "address",
          "name": "_newAddress",
          "type": "address"
        },
        {
          "indexed": true,
          "internalType": "address",
          "name": "_oldAddress",
          "type": "address"
        },
        {
          "indexed": false,
          "internalType": "string",
          "name": "_handle",
          "type": "string"
        },
        {
          "indexed": false,
          "internalType": "uint256",
          "name": "_tokenId",
          "type": "uint256"
        }
      ],
      "name": "AccountRecovered",
      "type": "event"
    },
    {
      "anonymous": false,
      "inputs": [
        {
          "indexed": true,
          "internalType": "address",
          "name": "owner",
          "type": "address"
        },
        {
          "indexed": true,
          "internalType": "address",
          "name": "approved",
          "type": "address"
        },
        {
          "indexed": true,
          "internalType": "uint256",
          "name": "tokenId",
          "type": "uint256"
        }
      ],
      "name": "Approval",
      "type": "event"
    },
    {
      "anonymous": false,
      "inputs": [
        {
          "indexed": true,
          "internalType": "address",
          "name": "owner",
          "type": "address"
        },
        {
          "indexed": true,
          "internalType": "address",
          "name": "operator",
          "type": "address"
        },
        {
          "indexed": false,
          "internalType": "bool",
          "name": "approved",
          "type": "bool"
        }
      ],
      "name": "ApprovalForAll",
      "type": "event"
    },
    {
      "anonymous": false,
      "inputs": [
        {
          "indexed": true,
          "internalType": "uint256",
          "name": "_tokenId",
          "type": "uint256"
        },
        {
          "indexed": false,
          "internalType": "string",
          "name": "_newCid",
          "type": "string"
        }
      ],
      "name": "CidUpdated",
      "type": "event"
    },
    {
      "anonymous": false,
      "inputs": [
        {
          "indexed": true,
          "internalType": "uint256",
          "name": "fromTokenId",
          "type": "uint256"
        },
        {
          "indexed": false,
          "internalType": "uint256",
          "name": "toTokenId",
          "type": "uint256"
        },
        {
          "indexed": true,
          "internalType": "address",
          "name": "from",
          "type": "address"
        },
        {
          "indexed": true,
          "internalType": "address",
          "name": "to",
          "type": "address"
        }
      ],
      "name": "ConsecutiveTransfer",
      "type": "event"
    },
    {
      "anonymous": false,
      "inputs": [
        {
          "indexed": true,
          "internalType": "address",
          "name": "_user",
          "type": "address"
        },
        {
          "indexed": false,
          "internalType": "uint256",
          "name": "_tokenId",
          "type": "uint256"
        },
        {
          "indexed": false,
          "internalType": "uint256[]",
          "name": "_strategiesID",
          "type": "uint256[]"
        },
        {
          "indexed": false,
          "internalType": "bytes",
          "name": "_externalID",
          "type": "bytes"
        }
      ],
      "name": "ExternalIDActivated",
      "type": "event"
    },
    {
      "anonymous": false,
      "inputs": [
        {
          "indexed": true,
          "internalType": "address",
          "name": "_user",
          "type": "address"
        },
        {
          "indexed": false,
          "internalType": "uint256",
          "name": "_tokenId",
          "type": "uint256"
        },
        {
          "indexed": false,
          "internalType": "uint256[]",
          "name": "_strategiesID",
          "type": "uint256[]"
        },
        {
          "indexed": false,
          "internalType": "bytes",
          "name": "_externalID",
          "type": "bytes"
        },
        {
          "indexed": false,
          "internalType": "uint256",
          "name": "_platformId",
          "type": "uint256"
        }
      ],
      "name": "ExternalIDLinked",
      "type": "event"
    },
    {
      "anonymous": false,
      "inputs": [
        {
          "indexed": true,
          "internalType": "address",
          "name": "_user",
          "type": "address"
        },
        {
          "indexed": false,
          "internalType": "uint256",
          "name": "_tokenId",
          "type": "uint256"
        },
        {
          "indexed": false,
          "internalType": "string",
          "name": "_handle",
          "type": "string"
        },
        {
          "indexed": false,
          "internalType": "bool",
          "name": "_withPoh",
          "type": "bool"
        },
        {
          "indexed": false,
          "internalType": "uint256",
          "name": "_platformId",
          "type": "uint256"
        },
        {
          "indexed": false,
          "internalType": "uint256",
          "name": "_fee",
          "type": "uint256"
        }
      ],
      "name": "Mint",
      "type": "event"
    },
    {
      "anonymous": false,
      "inputs": [
        {
          "indexed": false,
          "internalType": "uint256",
          "name": "_mintFee",
          "type": "uint256"
        }
      ],
      "name": "MintFeeUpdated",
      "type": "event"
    },
    {
      "anonymous": false,
      "inputs": [
        {
          "indexed": true,
          "internalType": "address",
          "name": "previousOwner",
          "type": "address"
        },
        {
          "indexed": true,
          "internalType": "address",
          "name": "newOwner",
          "type": "address"
        }
      ],
      "name": "OwnershipTransferred",
      "type": "event"
    },
    {
      "anonymous": false,
      "inputs": [
        {
          "indexed": true,
          "internalType": "address",
          "name": "_user",
          "type": "address"
        },
        {
          "indexed": false,
          "internalType": "uint256",
          "name": "_tokenId",
          "type": "uint256"
        },
        {
          "indexed": false,
          "internalType": "string",
          "name": "_handle",
          "type": "string"
        }
      ],
      "name": "PohActivated",
      "type": "event"
    },
    {
      "anonymous": false,
      "inputs": [
        {
          "indexed": true,
          "internalType": "address",
          "name": "from",
          "type": "address"
        },
        {
          "indexed": true,
          "internalType": "address",
          "name": "to",
          "type": "address"
        },
        {
          "indexed": true,
          "internalType": "uint256",
          "name": "tokenId",
          "type": "uint256"
        }
      ],
      "name": "Transfer",
      "type": "event"
    },
    {
      "inputs": [
        {
          "internalType": "uint256",
          "name": "_tokenId",
          "type": "uint256"
        }
      ],
      "name": "activatePoh",
      "outputs": [],
      "stateMutability": "nonpayable",
      "type": "function"
    },
    {
      "inputs": [
        {
          "internalType": "address",
          "name": "to",
          "type": "address"
        },
        {
          "internalType": "uint256",
          "name": "tokenId",
          "type": "uint256"
        }
      ],
      "name": "approve",
      "outputs": [],
      "stateMutability": "nonpayable",
      "type": "function"
    },
    {
      "inputs": [
        {
          "internalType": "uint256",
          "name": "_profileId",
          "type": "uint256"
        },
        {
          "internalType": "uint256[]",
          "name": "_strategiesID",
          "type": "uint256[]"
        }
      ],
      "name": "associateExternalIDs",
      "outputs": [],
      "stateMutability": "nonpayable",
      "type": "function"
    },
    {
      "inputs": [
        {
          "internalType": "address",
          "name": "owner",
          "type": "address"
        }
      ],
      "name": "balanceOf",
      "outputs": [
        {
          "internalType": "uint256",
          "name": "",
          "type": "uint256"
        }
      ],
      "stateMutability": "view",
      "type": "function"
    },
    {
      "inputs": [
        {
          "internalType": "uint256",
          "name": "tokenId",
          "type": "uint256"
        }
      ],
      "name": "getApproved",
      "outputs": [
        {
          "internalType": "address",
          "name": "",
          "type": "address"
        }
      ],
      "stateMutability": "view",
      "type": "function"
    },
    {
      "inputs": [
        {
          "internalType": "uint256",
          "name": "_profileId",
          "type": "uint256"
        },
        {
          "internalType": "uint256",
          "name": "_strategyId",
          "type": "uint256"
        }
      ],
      "name": "getExternalId",
      "outputs": [
        {
          "internalType": "bytes",
          "name": "",
          "type": "bytes"
        }
      ],
      "stateMutability": "view",
      "type": "function"
    },
    {
      "inputs": [
        {
          "internalType": "address",
          "name": "_address",
          "type": "address"
        }
      ],
      "name": "getOriginatorPlatformIdByAddress",
      "outputs": [
        {
          "internalType": "uint256",
          "name": "",
          "type": "uint256"
        }
      ],
      "stateMutability": "view",
      "type": "function"
    },
    {
      "inputs": [
        {
          "internalType": "uint256",
          "name": "_profileId",
          "type": "uint256"
        }
      ],
      "name": "getProfile",
      "outputs": [
        {
          "components": [
            {
              "internalType": "uint256",
              "name": "id",
              "type": "uint256"
            },
            {
              "internalType": "string",
              "name": "handle",
              "type": "string"
            },
            {
              "internalType": "address",
              "name": "pohAddress",
              "type": "address"
            },
            {
              "internalType": "uint256",
              "name": "platformId",
              "type": "uint256"
            },
            {
              "internalType": "string",
              "name": "dataUri",
              "type": "string"
            }
          ],
          "internalType": "struct TalentLayerID.Profile",
          "name": "",
          "type": "tuple"
        }
      ],
      "stateMutability": "view",
      "type": "function"
    },
    {
      "inputs": [
        {
          "internalType": "uint256",
          "name": "_strategyId",
          "type": "uint256"
        }
      ],
      "name": "getStrategy",
      "outputs": [
        {
          "internalType": "address",
          "name": "",
          "type": "address"
        }
      ],
      "stateMutability": "view",
      "type": "function"
    },
    {
      "inputs": [
        {
          "internalType": "address",
          "name": "",
          "type": "address"
        }
      ],
      "name": "hasBeenRecovered",
      "outputs": [
        {
          "internalType": "bool",
          "name": "",
          "type": "bool"
        }
      ],
      "stateMutability": "view",
      "type": "function"
    },
    {
      "inputs": [
        {
          "internalType": "address",
          "name": "owner",
          "type": "address"
        },
        {
          "internalType": "address",
          "name": "operator",
          "type": "address"
        }
      ],
      "name": "isApprovedForAll",
      "outputs": [
        {
          "internalType": "bool",
          "name": "",
          "type": "bool"
        }
      ],
      "stateMutability": "view",
      "type": "function"
    },
    {
      "inputs": [
        {
          "internalType": "uint256",
          "name": "_tokenId",
          "type": "uint256"
        }
      ],
      "name": "isTokenPohRegistered",
      "outputs": [
        {
          "internalType": "bool",
          "name": "",
          "type": "bool"
        }
      ],
      "stateMutability": "view",
      "type": "function"
    },
    {
      "inputs": [
        {
          "internalType": "uint256",
          "name": "_tokenId",
          "type": "uint256"
        }
      ],
      "name": "isValid",
      "outputs": [],
      "stateMutability": "view",
      "type": "function"
    },
    {
      "inputs": [
        {
          "internalType": "uint256",
          "name": "_platformId",
          "type": "uint256"
        },
        {
          "internalType": "string",
          "name": "_handle",
          "type": "string"
        }
      ],
      "name": "mint",
      "outputs": [],
      "stateMutability": "payable",
      "type": "function"
    },
    {
      "inputs": [],
      "name": "mintFee",
      "outputs": [
        {
          "internalType": "uint256",
          "name": "",
          "type": "uint256"
        }
      ],
      "stateMutability": "view",
      "type": "function"
    },
    {
      "inputs": [
        {
          "internalType": "uint256",
          "name": "_platformId",
          "type": "uint256"
        },
        {
          "internalType": "string",
          "name": "_handle",
          "type": "string"
        },
        {
          "internalType": "uint256[]",
          "name": "_strategiesID",
          "type": "uint256[]"
        }
      ],
      "name": "mintWithExternalIDs",
      "outputs": [],
      "stateMutability": "payable",
      "type": "function"
    },
    {
      "inputs": [
        {
          "internalType": "uint256",
          "name": "_platformId",
          "type": "uint256"
        },
        {
          "internalType": "string",
          "name": "_handle",
          "type": "string"
        }
      ],
      "name": "mintWithPoh",
      "outputs": [],
      "stateMutability": "payable",
      "type": "function"
    },
    {
      "inputs": [],
      "name": "name",
      "outputs": [
        {
          "internalType": "string",
          "name": "",
          "type": "string"
        }
      ],
      "stateMutability": "view",
      "type": "function"
    },
    {
      "inputs": [
        {
          "internalType": "address",
          "name": "_user",
          "type": "address"
        }
      ],
      "name": "numberMinted",
      "outputs": [
        {
          "internalType": "uint256",
          "name": "",
          "type": "uint256"
        }
      ],
      "stateMutability": "view",
      "type": "function"
    },
    {
      "inputs": [],
      "name": "owner",
      "outputs": [
        {
          "internalType": "address",
          "name": "",
          "type": "address"
        }
      ],
      "stateMutability": "view",
      "type": "function"
    },
    {
      "inputs": [
        {
          "internalType": "uint256",
          "name": "tokenId",
          "type": "uint256"
        }
      ],
      "name": "ownerOf",
      "outputs": [
        {
          "internalType": "address",
          "name": "",
          "type": "address"
        }
      ],
      "stateMutability": "view",
      "type": "function"
    },
    {
      "inputs": [],
      "name": "pohRegistry",
      "outputs": [
        {
          "internalType": "contract IProofOfHumanity",
          "name": "",
          "type": "address"
        }
      ],
      "stateMutability": "view",
      "type": "function"
    },
    {
      "inputs": [
        {
          "internalType": "uint256",
          "name": "",
          "type": "uint256"
        },
        {
          "internalType": "uint256",
          "name": "",
          "type": "uint256"
        }
      ],
      "name": "profileIdToStrategyIdToExternalId",
      "outputs": [
        {
          "internalType": "bytes",
          "name": "",
          "type": "bytes"
        }
      ],
      "stateMutability": "view",
      "type": "function"
    },
    {
      "inputs": [
        {
          "internalType": "uint256",
          "name": "",
          "type": "uint256"
        }
      ],
      "name": "profiles",
      "outputs": [
        {
          "internalType": "uint256",
          "name": "id",
          "type": "uint256"
        },
        {
          "internalType": "string",
          "name": "handle",
          "type": "string"
        },
        {
          "internalType": "address",
          "name": "pohAddress",
          "type": "address"
        },
        {
          "internalType": "uint256",
          "name": "platformId",
          "type": "uint256"
        },
        {
          "internalType": "string",
          "name": "dataUri",
          "type": "string"
        }
      ],
      "stateMutability": "view",
      "type": "function"
    },
    {
      "inputs": [
        {
          "internalType": "address",
          "name": "_oldAddress",
          "type": "address"
        },
        {
          "internalType": "uint256",
          "name": "_tokenId",
          "type": "uint256"
        },
        {
          "internalType": "uint256",
          "name": "_index",
          "type": "uint256"
        },
        {
          "internalType": "uint256",
          "name": "_recoveryKey",
          "type": "uint256"
        },
        {
          "internalType": "string",
          "name": "_handle",
          "type": "string"
        },
        {
          "internalType": "bytes32[]",
          "name": "_merkleProof",
          "type": "bytes32[]"
        }
      ],
      "name": "recoverAccount",
      "outputs": [],
      "stateMutability": "nonpayable",
      "type": "function"
    },
    {
      "inputs": [],
      "name": "recoveryRoot",
      "outputs": [
        {
          "internalType": "bytes32",
          "name": "",
          "type": "bytes32"
        }
      ],
      "stateMutability": "view",
      "type": "function"
    },
    {
      "inputs": [],
      "name": "renounceOwnership",
      "outputs": [],
      "stateMutability": "nonpayable",
      "type": "function"
    },
    {
      "inputs": [
        {
          "internalType": "address",
          "name": "from",
          "type": "address"
        },
        {
          "internalType": "address",
          "name": "to",
          "type": "address"
        },
        {
          "internalType": "uint256",
          "name": "tokenId",
          "type": "uint256"
        }
      ],
      "name": "safeTransferFrom",
      "outputs": [],
      "stateMutability": "nonpayable",
      "type": "function"
    },
    {
      "inputs": [
        {
          "internalType": "address",
          "name": "from",
          "type": "address"
        },
        {
          "internalType": "address",
          "name": "to",
          "type": "address"
        },
        {
          "internalType": "uint256",
          "name": "tokenId",
          "type": "uint256"
        },
        {
          "internalType": "bytes",
          "name": "_data",
          "type": "bytes"
        }
      ],
      "name": "safeTransferFrom",
      "outputs": [],
      "stateMutability": "nonpayable",
      "type": "function"
    },
    {
      "inputs": [
        {
          "internalType": "address",
          "name": "operator",
          "type": "address"
        },
        {
          "internalType": "bool",
          "name": "approved",
          "type": "bool"
        }
      ],
      "name": "setApprovalForAll",
      "outputs": [],
      "stateMutability": "nonpayable",
      "type": "function"
    },
    {
      "inputs": [
        {
          "internalType": "uint256",
          "name": "_strategyId",
          "type": "uint256"
        },
        {
          "internalType": "address",
          "name": "_strategyAddress",
          "type": "address"
        }
      ],
      "name": "setStrategy",
      "outputs": [],
      "stateMutability": "nonpayable",
      "type": "function"
    },
    {
      "inputs": [
        {
          "internalType": "uint256",
          "name": "",
          "type": "uint256"
        }
      ],
      "name": "strategies",
      "outputs": [
        {
          "internalType": "address",
          "name": "",
          "type": "address"
        }
      ],
      "stateMutability": "view",
      "type": "function"
    },
    {
      "inputs": [],
      "name": "strategyContract",
      "outputs": [
        {
          "internalType": "contract IExternalID",
          "name": "",
          "type": "address"
        }
      ],
      "stateMutability": "view",
      "type": "function"
    },
    {
      "inputs": [
        {
          "internalType": "bytes4",
          "name": "interfaceId",
          "type": "bytes4"
        }
      ],
      "name": "supportsInterface",
      "outputs": [
        {
          "internalType": "bool",
          "name": "",
          "type": "bool"
        }
      ],
      "stateMutability": "view",
      "type": "function"
    },
    {
      "inputs": [],
      "name": "symbol",
      "outputs": [
        {
          "internalType": "string",
          "name": "",
          "type": "string"
        }
      ],
      "stateMutability": "view",
      "type": "function"
    },
    {
      "inputs": [
        {
          "internalType": "string",
          "name": "",
          "type": "string"
        }
      ],
      "name": "takenHandles",
      "outputs": [
        {
          "internalType": "bool",
          "name": "",
          "type": "bool"
        }
      ],
      "stateMutability": "view",
      "type": "function"
    },
    {
      "inputs": [],
      "name": "talentLayerPlatformIdContract",
      "outputs": [
        {
          "internalType": "contract ITalentLayerPlatformID",
          "name": "",
          "type": "address"
        }
      ],
      "stateMutability": "view",
      "type": "function"
    },
    {
      "inputs": [
        {
          "internalType": "uint256",
          "name": "tokenId",
          "type": "uint256"
        }
      ],
      "name": "tokenURI",
      "outputs": [
        {
          "internalType": "string",
          "name": "",
          "type": "string"
        }
      ],
      "stateMutability": "view",
      "type": "function"
    },
    {
      "inputs": [],
      "name": "totalSupply",
      "outputs": [
        {
          "internalType": "uint256",
          "name": "",
          "type": "uint256"
        }
      ],
      "stateMutability": "view",
      "type": "function"
    },
    {
      "inputs": [
        {
          "internalType": "address",
          "name": "from",
          "type": "address"
        },
        {
          "internalType": "address",
          "name": "to",
          "type": "address"
        },
        {
          "internalType": "uint256",
          "name": "tokenId",
          "type": "uint256"
        }
      ],
      "name": "transferFrom",
      "outputs": [],
      "stateMutability": "nonpayable",
      "type": "function"
    },
    {
      "inputs": [
        {
          "internalType": "address",
          "name": "newOwner",
          "type": "address"
        }
      ],
      "name": "transferOwnership",
      "outputs": [],
      "stateMutability": "nonpayable",
      "type": "function"
    },
    {
      "inputs": [
        {
          "internalType": "uint256",
          "name": "_mintFee",
          "type": "uint256"
        }
      ],
      "name": "updateMintFee",
      "outputs": [],
      "stateMutability": "nonpayable",
      "type": "function"
    },
    {
      "inputs": [
        {
          "internalType": "uint256",
          "name": "_tokenId",
          "type": "uint256"
        },
        {
          "internalType": "string",
          "name": "_newCid",
          "type": "string"
        }
      ],
      "name": "updateProfileData",
      "outputs": [],
      "stateMutability": "nonpayable",
      "type": "function"
    },
    {
      "inputs": [
        {
          "internalType": "bytes32",
          "name": "_newRoot",
          "type": "bytes32"
        }
      ],
      "name": "updateRecoveryRoot",
      "outputs": [],
      "stateMutability": "nonpayable",
      "type": "function"
    },
    {
      "inputs": [
        {
          "internalType": "address",
          "name": "_owner",
          "type": "address"
        }
      ],
      "name": "walletOfOwner",
      "outputs": [
        {
          "internalType": "uint256",
          "name": "",
          "type": "uint256"
        }
      ],
      "stateMutability": "view",
      "type": "function"
    },
    {
      "inputs": [],
      "name": "withdraw",
      "outputs": [],
      "stateMutability": "nonpayable",
      "type": "function"
    }
  ],
  "bytecode": "0x60806040523480156200001157600080fd5b50604051620057f0380380620057f08339810160408190526200003491620001f9565b604080518082018252600d81526c15185b195b9d13185e595c9251609a1b60208083019182528351808501909452600384526215125160ea1b908401528151919291620000849160029162000136565b5080516200009a90600390602084019062000136565b5050600160005550620000ad33620000e4565b600980546001600160a01b039384166001600160a01b031991821617909155600a80549290931691161790556000600d556200026e565b600880546001600160a01b038381166001600160a01b0319831681179093556040519116919082907f8be0079c531659141344cd1fd0a4f28419497f9722a3daafe3b4186f6b6457e090600090a35050565b828054620001449062000231565b90600052602060002090601f016020900481019282620001685760008555620001b3565b82601f106200018357805160ff1916838001178555620001b3565b82800160010185558215620001b3579182015b82811115620001b357825182559160200191906001019062000196565b50620001c1929150620001c5565b5090565b5b80821115620001c15760008155600101620001c6565b80516001600160a01b0381168114620001f457600080fd5b919050565b600080604083850312156200020d57600080fd5b6200021883620001dc565b91506200022860208401620001dc565b90509250929050565b600181811c908216806200024657607f821691505b602082108114156200026857634e487b7160e01b600052602260045260246000fd5b50919050565b615572806200027e6000396000f3fe60806040526004361061027d5760003560e01c806371c75e771161014f578063c87b56dd116100c1578063e985e9c51161007a578063e985e9c5146107a8578063f08f4f64146107f1578063f160068f1461081e578063f2fde38b1461083e578063f577a5001461085e578063faac43251461087e57600080fd5b8063c87b56dd146106ac578063cfc0cc34146106cc578063d574ea3d14610702578063dc33e68114610738578063de82959214610758578063e7df26501461078857600080fd5b8063860a2f8711610113578063860a2f87146105e85780638da5cb5b1461060857806395d89b4114610626578063a22cb4651461063b578063b88d4fde1461065b578063c36fe3d61461067b57600080fd5b806371c75e771461056257806377097fc81461057557806382d5ec461461058857806384017e52146105a857806384c63937146105c857600080fd5b806323b872dd116101f357806346be141c116101ac57806346be141c146104ba57806352fc54e1146104da5780635c4b0348146104ed5780636352211e1461050d57806370a082311461052d578063715018a61461054d57600080fd5b806323b872dd146104255780632567c4c6146104455780633ccfd60b146104655780633ce12f6d1461047a57806342842e0e14610425578063438b63001461049a57600080fd5b80630fb72ff6116102455780630fb72ff61461035357806313966db5146103735780631499f9e61461039757806318160ddd146103b757806319aeca93146103d45780632106beec146103ea57600080fd5b806301ffc9a71461028257806306fdde03146102b7578063081812fc146102d9578063095ea7b3146103115780630e04d23a14610333575b600080fd5b34801561028e57600080fd5b506102a261029d366004612e11565b61089e565b60405190151581526020015b60405180910390f35b3480156102c357600080fd5b506102cc6108f0565b6040516102ae9190612e86565b3480156102e557600080fd5b506102f96102f4366004612e99565b610982565b6040516001600160a01b0390911681526020016102ae565b34801561031d57600080fd5b5061033161032c366004612ece565b6109c6565b005b34801561033f57600080fd5b50600b546102f9906001600160a01b031681565b34801561035f57600080fd5b5061033161036e366004612e99565b610a66565b34801561037f57600080fd5b50610389600d5481565b6040519081526020016102ae565b3480156103a357600080fd5b50600a546102f9906001600160a01b031681565b3480156103c357600080fd5b506001546000540360001901610389565b3480156103e057600080fd5b50610389600c5481565b3480156103f657600080fd5b506102a2610405366004612fc3565b8051602081830181018051600e8252928201919093012091525460ff1681565b34801561043157600080fd5b50610331610440366004612ff7565b505050565b34801561045157600080fd5b5061033161046036600461307e565b610bc4565b34801561047157600080fd5b50610331611055565b34801561048657600080fd5b50610331610495366004612e99565b6110f8565b3480156104a657600080fd5b506103896104b5366004613148565b611105565b3480156104c657600080fd5b506102a26104d5366004612e99565b61118e565b6103316104e8366004613163565b61121d565b3480156104f957600080fd5b50610389610508366004613148565b611434565b34801561051957600080fd5b506102f9610528366004612e99565b61145c565b34801561053957600080fd5b50610389610548366004613148565b611467565b34801561055957600080fd5b506103316114b5565b610331610570366004613228565b6114c9565b610331610583366004613163565b611818565b34801561059457600080fd5b506102cc6105a3366004613294565b61195d565b3480156105b457600080fd5b506103316105c3366004612e99565b611a02565b3480156105d457600080fd5b506009546102f9906001600160a01b031681565b3480156105f457600080fd5b506103316106033660046132b6565b611a45565b34801561061457600080fd5b506008546001600160a01b03166102f9565b34801561063257600080fd5b506102cc611c4e565b34801561064757600080fd5b50610331610656366004613300565b611c5d565b34801561066757600080fd5b50610331610676366004613337565b611cf3565b34801561068757600080fd5b5061069b610696366004612e99565b611d2c565b6040516102ae9594939291906133b2565b3480156106b857600080fd5b506102cc6106c7366004612e99565b611e79565b3480156106d857600080fd5b506102f96106e7366004612e99565b6000908152601060205260409020546001600160a01b031690565b34801561070e57600080fd5b506102f961071d366004612e99565b6010602052600090815260409020546001600160a01b031681565b34801561074457600080fd5b50610389610753366004613148565b611e84565b34801561076457600080fd5b506102a2610773366004613148565b60126020526000908152604090205460ff1681565b34801561079457600080fd5b506102cc6107a3366004613294565b611e8f565b3480156107b457600080fd5b506102a26107c33660046133ff565b6001600160a01b03918216600090815260076020908152604080832093909416825291909152205460ff1690565b3480156107fd57600080fd5b5061081161080c366004612e99565b611fd3565b6040516102ae9190613432565b34801561082a57600080fd5b50610331610839366004613163565b6121a7565b34801561084a57600080fd5b50610331610859366004613148565b612277565b34801561086a57600080fd5b50610331610879366004612e99565b6122ed565b34801561088a57600080fd5b5061033161089936600461349a565b612353565b60006301ffc9a760e01b6001600160e01b0319831614806108cf57506380ac58cd60e01b6001600160e01b03198316145b806108ea5750635b5e139f60e01b6001600160e01b03198316145b92915050565b6060600280546108ff906134bd565b80601f016020809104026020016040519081016040528092919081815260200182805461092b906134bd565b80156109785780601f1061094d57610100808354040283529160200191610978565b820191906000526020600020905b81548152906001019060200180831161095b57829003601f168201915b5050505050905090565b600061098d826123df565b6109aa576040516333d1c03960e21b815260040160405180910390fd5b506000908152600660205260409020546001600160a01b031690565b60006109d18261145c565b9050336001600160a01b03821614610a0a576109ed81336107c3565b610a0a576040516367d9dca160e11b815260040160405180910390fd5b60008281526006602052604080822080546001600160a01b0319166001600160a01b0387811691821790925591518593918516917f8c5be1e5ebec7d5bd14f71427d1e84f3dd0314c0f7b2291e5b200ac8c7c3b92591a4505050565b33610a708261145c565b6001600160a01b031614610a8357600080fd5b60095460405163c3c5a54760e01b81523360048201526001600160a01b039091169063c3c5a5479060240160206040518083038186803b158015610ac657600080fd5b505afa158015610ada573d6000803e3d6000fd5b505050506040513d601f19601f82011682018060405250810190610afe91906134f8565b610b5f5760405162461bcd60e51b815260206004820152602760248201527f596f752772652061646472657373206973206e6f7420726567697374657264206044820152660ccdee440e0ded60cb1b60648201526084015b60405180910390fd5b6000818152600f6020526040908190206002810180546001600160a01b0319163390811790915591517ffcf318157300453509399d936c89c1eca423a389b4080c5c0ce3d9f86b1d199991610bb991859160010190613515565b60405180910390a250565b6001600160a01b03881660009081526012602052604090205460ff1615610c3d5760405162461bcd60e51b815260206004820152602760248201527f5468697320616464726573732068617320616c7265616479206265656e20726560448201526618dbdd995c995960ca1b6064820152608401610b56565b876001600160a01b0316610c508861145c565b6001600160a01b031614610cb25760405162461bcd60e51b815260206004820152602360248201527f596f7520617265206e6f7420746865206f776e6572206f66207468697320746f60448201526235b2b760e91b6064820152608401610b56565b610cbb33611e84565b15610d085760405162461bcd60e51b815260206004820152601860248201527f596f7520616c72656164792068617665206120746f6b656e00000000000000006044820152606401610b56565b6000878152600f60205260409020600201546001600160a01b031615610d8d5760405162461bcd60e51b815260206004820152603460248201527f596f7572206f6c64206164647265737320776173206e6f74206c696e6b656420604482015273746f2050726f6f66206f662048756d616e69747960601b6064820152608401610b56565b8383604051602001610da09291906135a2565b60408051601f19818403018152828252805160209182012060008b8152600f8352929092209192610dd59260010191016135b2565b6040516020818303038152906040528051906020012014610e295760405162461bcd60e51b815260206004820152600e60248201526d496e76616c69642068616e646c6560901b6044820152606401610b56565b60095460405163c3c5a54760e01b81523360048201526001600160a01b039091169063c3c5a5479060240160206040518083038186803b158015610e6c57600080fd5b505afa158015610e80573d6000803e3d6000fd5b505050506040513d601f19601f82011682018060405250810190610ea491906134f8565b610ec05760405162461bcd60e51b8152600401610b5690613624565b6000868686868c604051602001610edb959493929190613681565b604051602081830303815290604052805190602001209050610f3483838080602002602001604051908101604052809392919081815260200183836020028082843760009201919091525050600c549150849050612414565b610f8a5760405162461bcd60e51b815260206004820152602160248201527f4d65726b6c654469737472696275746f723a20496e76616c69642070726f6f666044820152601760f91b6064820152608401610b56565b6001600160a01b0389166000908152601260209081526040808320805460ff191660019081179091558b8452600f909252909120610fca91018686612cee565b506000888152600f6020526040902060020180546001600160a01b03191633908117909155610ffb908a908a61242a565b886001600160a01b0316336001600160a01b03167fe27a76891cb9f3da59f6b7d03f64aee72f85a390754515a420a189491dc795de87878c604051611042939291906136bd565b60405180910390a3505050505050505050565b61105d612530565b604051600090339047908381818185875af1925050503d806000811461109f576040519150601f19603f3d011682016040523d82523d6000602084013e6110a4565b606091505b50509050806110f55760405162461bcd60e51b815260206004820152601860248201527f4661696c656420746f20776974686472617720457468657200000000000000006044820152606401610b56565b50565b611100612530565b600c55565b6000806001815b600154600054036000190182116111855760006111288361258a565b90508060400151158015611145575080516001600160a01b031615155b1561114f57805191505b856001600160a01b0316826001600160a01b031614156111725782935050611185565b8261117c8161370c565b9350505061110c565b50909392505050565b6009546000828152600f602052604080822060020154905163c3c5a54760e01b81526001600160a01b0391821660048201529192169063c3c5a5479060240160206040518083038186803b1580156111e557600080fd5b505afa1580156111f9573d6000803e3d6000fd5b505050506040513d601f19601f820116820180604052508101906108ea91906134f8565b8082600d5434146112405760405162461bcd60e51b8152600401610b5690613727565b61124933611e84565b156112665760405162461bcd60e51b8152600401610b569061376b565b6002825110156112885760405162461bcd60e51b8152600401610b56906137a0565b600a825111156112aa5760405162461bcd60e51b8152600401610b56906137ca565b600e826040516112ba919061380f565b9081526040519081900360200190205460ff16156112ea5760405162461bcd60e51b8152600401610b569061382b565b600a5460405162f577a560e81b8152600481018390526001600160a01b039091169063f577a5009060240160006040518083038186803b15801561132d57600080fd5b505afa158015611341573d6000803e3d6000fd5b505060095460405163c3c5a54760e01b81523360048201526001600160a01b03909116925063c3c5a547915060240160206040518083038186803b15801561138857600080fd5b505afa15801561139c573d6000803e3d6000fd5b505050506040513d601f19601f820116820180604052508101906113c091906134f8565b6113dc5760405162461bcd60e51b8152600401610b5690613624565b6113e7336001612601565b600060016113f460005490565b6113fe9190613859565b6000818152600f6020526040902060020180546001600160a01b03191633179055905061142d8460018761261f565b5050505050565b6000600f600061144384611105565b8152602001908152602001600020600301549050919050565b60006108ea826126e1565b60006001600160a01b038216611490576040516323d3ad8160e21b815260040160405180910390fd5b506001600160a01b03166000908152600560205260409020546001600160401b031690565b6114bd612530565b6114c76000612751565b565b8183600d5434146114ec5760405162461bcd60e51b8152600401610b5690613727565b6114f533611e84565b156115125760405162461bcd60e51b8152600401610b569061376b565b6002825110156115345760405162461bcd60e51b8152600401610b56906137a0565b600a825111156115565760405162461bcd60e51b8152600401610b56906137ca565b600e82604051611566919061380f565b9081526040519081900360200190205460ff16156115965760405162461bcd60e51b8152600401610b569061382b565b600a5460405162f577a560e81b8152600481018390526001600160a01b039091169063f577a5009060240160006040518083038186803b1580156115d957600080fd5b505afa1580156115ed573d6000803e3d6000fd5b5050505060006115fc60005490565b905060005b845181101561180f5760006001600160a01b031661164d86838151811061162a5761162a613870565b60200260200101516000908152601060205260409020546001600160a01b031690565b6001600160a01b0316141561169a5760405162461bcd60e51b8152602060048201526013602482015272125b9d985b1a59081cdd1c985d1959de481251606a1b6044820152606401610b56565b6116af85828151811061162a5761162a613870565b600b80546001600160a01b0319166001600160a01b0392909216918217905560405163c3c5a54760e01b8152336004820152600091829163c3c5a5479060240160006040518083038186803b15801561170757600080fd5b505afa15801561171b573d6000803e3d6000fd5b505050506040513d6000823e601f3d908101601f191682016040526117439190810190613886565b91509150816117645760405162461bcd60e51b8152600401610b5690613912565b600084815260116020526040812088518392908a908790811061178957611789613870565b6020026020010151815260200190815260200160002090805190602001906117b2929190612d72565b50336001600160a01b03167f04a5289598f7d6b3f598c0a5d6ffb6f9a010157b52929a6f540b6656a0d135f78589848d6040516117f294939291906139aa565b60405180910390a2505080806118079061370c565b915050611601565b50505050505050565b8082600d54341461183b5760405162461bcd60e51b8152600401610b5690613727565b61184433611e84565b156118615760405162461bcd60e51b8152600401610b569061376b565b6002825110156118835760405162461bcd60e51b8152600401610b56906137a0565b600a825111156118a55760405162461bcd60e51b8152600401610b56906137ca565b600e826040516118b5919061380f565b9081526040519081900360200190205460ff16156118e55760405162461bcd60e51b8152600401610b569061382b565b600a5460405162f577a560e81b8152600481018390526001600160a01b039091169063f577a5009060240160006040518083038186803b15801561192857600080fd5b505afa15801561193c573d6000803e3d6000fd5b5050505061194b336001612601565b6119578360008661261f565b50505050565b601160209081526000928352604080842090915290825290208054611981906134bd565b80601f01602080910402602001604051908101604052809291908181526020018280546119ad906134bd565b80156119fa5780601f106119cf576101008083540402835291602001916119fa565b820191906000526020600020905b8154815290600101906020018083116119dd57829003601f168201915b505050505081565b611a0a612530565b600d8190556040518181527f38fbb1c8b109c430f0c030e7ed076cf5611a307773a4e8e365601e8f8bceaec69060200160405180910390a150565b33611a4f8361145c565b6001600160a01b031614611a6257600080fd5b60005b81518110156104405760006001600160a01b0316611a8e83838151811061162a5761162a613870565b6001600160a01b03161415611adb5760405162461bcd60e51b8152602060048201526013602482015272125b9d985b1a59081cdd1c985d1959de481251606a1b6044820152606401610b56565b611af082828151811061162a5761162a613870565b600b80546001600160a01b0319166001600160a01b0392909216918217905560405163c3c5a54760e01b8152336004820152600091829163c3c5a5479060240160006040518083038186803b158015611b4857600080fd5b505afa158015611b5c573d6000803e3d6000fd5b505050506040513d6000823e601f3d908101601f19168201604052611b849190810190613886565b9150915081611ba55760405162461bcd60e51b8152600401610b5690613912565b60008581526011602052604081208551839290879087908110611bca57611bca613870565b602002602001015181526020019081526020016000209080519060200190611bf3929190612d72565b50336001600160a01b03167fb555203b40f1a08511557cec4091fcb77940d809966f0cdffb2e63636c10e9ce868684604051611c31939291906139e7565b60405180910390a250508080611c469061370c565b915050611a65565b6060600380546108ff906134bd565b6001600160a01b038216331415611c875760405163b06307db60e01b815260040160405180910390fd5b3360008181526007602090815260408083206001600160a01b03871680855290835292819020805460ff191686151590811790915590519081529192917f17307eab39ab6107e8899845ad3d59bd9653f200f220920489ca2b5937696c31910160405180910390a35050565b6001600160a01b0383163b1561195757611d0f848484846127a3565b611957576040516368d2bf6b60e11b815260040160405180910390fd5b600f6020526000908152604090208054600182018054919291611d4e906134bd565b80601f0160208091040260200160405190810160405280929190818152602001828054611d7a906134bd565b8015611dc75780601f10611d9c57610100808354040283529160200191611dc7565b820191906000526020600020905b815481529060010190602001808311611daa57829003601f168201915b505050506002830154600384015460048501805494956001600160a01b039093169491935090611df6906134bd565b80601f0160208091040260200160405190810160405280929190818152602001828054611e22906134bd565b8015611e6f5780601f10611e4457610100808354040283529160200191611e6f565b820191906000526020600020905b815481529060010190602001808311611e5257829003601f168201915b5050505050905085565b60606108ea8261289b565b60006108ea82611467565b6060611e9a836123df565b611eb65760405162461bcd60e51b8152600401610b5690613a1c565b6000828152601060205260409020546001600160a01b0316611f295760405162461bcd60e51b815260206004820152602660248201527f54616c656e744c6179657249443a20537472617465677920646f6573206e6f7460448201526508195e1a5cdd60d21b6064820152608401610b56565b600083815260116020908152604080832085845290915290208054611f4d906134bd565b80601f0160208091040260200160405190810160405280929190818152602001828054611f79906134bd565b8015611fc65780601f10611f9b57610100808354040283529160200191611fc6565b820191906000526020600020905b815481529060010190602001808311611fa957829003601f168201915b5050505050905092915050565b61200e6040518060a00160405280600081526020016060815260200160006001600160a01b0316815260200160008152602001606081525090565b612017826123df565b6120335760405162461bcd60e51b8152600401610b5690613a1c565b600f60008381526020019081526020016000206040518060a00160405290816000820154815260200160018201805461206b906134bd565b80601f0160208091040260200160405190810160405280929190818152602001828054612097906134bd565b80156120e45780601f106120b9576101008083540402835291602001916120e4565b820191906000526020600020905b8154815290600101906020018083116120c757829003601f168201915b505050918352505060028201546001600160a01b031660208201526003820154604082015260048201805460609092019161211e906134bd565b80601f016020809104026020016040519081016040528092919081815260200182805461214a906134bd565b80156121975780601f1061216c57610100808354040283529160200191612197565b820191906000526020600020905b81548152906001019060200180831161217a57829003601f168201915b5050505050815250509050919050565b336121b18361145c565b6001600160a01b0316146121c457600080fd5b60008151116122155760405162461bcd60e51b815260206004820152601f60248201527f53686f756c642070726f7669646520612076616c6964204950465320555249006044820152606401610b56565b6000828152600f60209081526040909120825161223a92600490920191840190612d72565b50817f613807bd6768f626264e7eb664a65ca99a0d930f8fd8a5b868491a592eb57f728260405161226b9190612e86565b60405180910390a25050565b61227f612530565b6001600160a01b0381166122e45760405162461bcd60e51b815260206004820152602660248201527f4f776e61626c653a206e6577206f776e657220697320746865207a65726f206160448201526564647265737360d01b6064820152608401610b56565b6110f581612751565b600081118015612307575060015460005403600019018111155b6110f55760405162461bcd60e51b815260206004820152601f60248201527f596f7572204944206973206e6f7420612076616c696420746f6b656e204944006044820152606401610b56565b61235b612530565b6001600160a01b0381166123b15760405162461bcd60e51b815260206004820152601c60248201527f537472617465677920616464726573732063616e6e6f742062652030000000006044820152606401610b56565b60009182526010602052604090912080546001600160a01b0319166001600160a01b03909216919091179055565b6000816001111580156123f3575060005482105b80156108ea575050600090815260046020526040902054600160e01b161590565b60008261242185846129c5565b14949350505050565b6000612435826126e1565b90506001600160a01b03831661245e57604051633a954ecd60e21b815260040160405180910390fd5b6001600160a01b038481166000908152600560205260408082208054600019019055918516808252919020805460010190554260a01b17600160e11b17600083815260046020526040902055600160e11b81166124e957600182016000818152600460205260409020546124e75760005481146124e75760008181526004602052604090208290555b505b81836001600160a01b0316856001600160a01b03167fddf252ad1be2c89b69c2b068fc378daa952ba7f163c4a11628f55a4df523b3ef60405160405180910390a450505050565b6008546001600160a01b031633146114c75760405162461bcd60e51b815260206004820181905260248201527f4f776e61626c653a2063616c6c6572206973206e6f7420746865206f776e65726044820152606401610b56565b6040805160808101825260008082526020820181905291810182905260608101919091526108ea6125ba836126e1565b604080516080810182526001600160a01b038316815260a083901c6001600160401b03166020820152600160e01b831615159181019190915260e89190911c606082015290565b61261b828260405180602001604052806000815250612a12565b5050565b6000600161262c60005490565b6126369190613859565b6000818152600f602090815260409091206003810185905586519293509161266691600184019190880190612d72565b506001600e86604051612679919061380f565b908152604051908190036020018120805492151560ff1990931692909217909155600d5433917fb04779a1cbc204eb57d83e8b7da4a89e2bb550e71807dfcb8f312ee4d73b5f6f916126d29186918a918a918a91613a61565b60405180910390a25050505050565b600081806001116127385760005481101561273857600081815260046020526040902054600160e01b8116612736575b8061272f575060001901600081815260046020526040902054612711565b9392505050565b505b604051636f96cda160e11b815260040160405180910390fd5b600880546001600160a01b038381166001600160a01b0319831681179093556040519116919082907f8be0079c531659141344cd1fd0a4f28419497f9722a3daafe3b4186f6b6457e090600090a35050565b604051630a85bd0160e11b81526000906001600160a01b0385169063150b7a02906127d8903390899088908890600401613a97565b602060405180830381600087803b1580156127f257600080fd5b505af1925050508015612822575060408051601f3d908101601f1916820190925261281f91810190613aca565b60015b61287d573d808015612850576040519150601f19603f3d011682016040523d82523d6000602084013e612855565b606091505b508051612875576040516368d2bf6b60e11b815260040160405180910390fd5b805181602001fd5b6001600160e01b031916630a85bd0160e11b1490505b949350505050565b6000818152600f60205260408120600101805460609291906128bc906134bd565b80601f01602080910402602001604051908101604052809291908181526020018280546128e8906134bd565b80156129355780601f1061290a57610100808354040283529160200191612935565b820191906000526020600020905b81548152906001019060200180831161291857829003601f168201915b505050505090506000612966826040516020016129529190613ae7565b604051602081830303815290604052612a78565b6040516020016129769190615386565b604051602081830303815290604052905061299d82826040516020016129529291906153cb565b6040516020016129ad919061545e565b60405160208183030381529060405292505050919050565b600081815b8451811015612a0a576129f6828683815181106129e9576129e9613870565b6020026020010151612bcb565b915080612a028161370c565b9150506129ca565b509392505050565b612a1c8383612bf7565b6001600160a01b0383163b15610440576000548281035b612a4660008683806001019450866127a3565b612a63576040516368d2bf6b60e11b815260040160405180910390fd5b818110612a3357816000541461142d57600080fd5b6060815160001415612a9857505060408051602081019091526000815290565b60006040518060600160405280604081526020016154fd6040913990506000600384516002612ac791906154a3565b612ad191906154bb565b612adc9060046154dd565b6001600160401b03811115612af357612af3612ef8565b6040519080825280601f01601f191660200182016040528015612b1d576020820181803683370190505b509050600182016020820185865187015b80821015612b89576003820191508151603f8160121c168501518453600184019350603f81600c1c168501518453600184019350603f8160061c168501518453600184019350603f8116850151845350600183019250612b2e565b5050600386510660018114612ba55760028114612bb857612bc0565b603d6001830353603d6002830353612bc0565b603d60018303535b509195945050505050565b6000818310612be757600082815260208490526040902061272f565b5060009182526020526040902090565b60005481612c185760405163b562e8dd60e01b815260040160405180910390fd5b6001600160a01b03831660008181526005602090815260408083208054680100000000000000018802019055848352600490915281206001851460e11b4260a01b178317905582840190839083907fddf252ad1be2c89b69c2b068fc378daa952ba7f163c4a11628f55a4df523b3ef8180a4600183015b818114612cc757808360007fddf252ad1be2c89b69c2b068fc378daa952ba7f163c4a11628f55a4df523b3ef600080a4600101612c8f565b5081612ce557604051622e076360e81b815260040160405180910390fd5b60005550505050565b828054612cfa906134bd565b90600052602060002090601f016020900481019282612d1c5760008555612d62565b82601f10612d355782800160ff19823516178555612d62565b82800160010185558215612d62579182015b82811115612d62578235825591602001919060010190612d47565b50612d6e929150612de6565b5090565b828054612d7e906134bd565b90600052602060002090601f016020900481019282612da05760008555612d62565b82601f10612db957805160ff1916838001178555612d62565b82800160010185558215612d62579182015b82811115612d62578251825591602001919060010190612dcb565b5b80821115612d6e5760008155600101612de7565b6001600160e01b0319811681146110f557600080fd5b600060208284031215612e2357600080fd5b813561272f81612dfb565b60005b83811015612e49578181015183820152602001612e31565b838111156119575750506000910152565b60008151808452612e72816020860160208601612e2e565b601f01601f19169290920160200192915050565b60208152600061272f6020830184612e5a565b600060208284031215612eab57600080fd5b5035919050565b80356001600160a01b0381168114612ec957600080fd5b919050565b60008060408385031215612ee157600080fd5b612eea83612eb2565b946020939093013593505050565b634e487b7160e01b600052604160045260246000fd5b604051601f8201601f191681016001600160401b0381118282101715612f3657612f36612ef8565b604052919050565b60006001600160401b03821115612f5757612f57612ef8565b50601f01601f191660200190565b6000612f78612f7384612f3e565b612f0e565b9050828152838383011115612f8c57600080fd5b828260208301376000602084830101529392505050565b600082601f830112612fb457600080fd5b61272f83833560208501612f65565b600060208284031215612fd557600080fd5b81356001600160401b03811115612feb57600080fd5b61289384828501612fa3565b60008060006060848603121561300c57600080fd5b61301584612eb2565b925061302360208501612eb2565b9150604084013590509250925092565b60008083601f84011261304557600080fd5b5081356001600160401b0381111561305c57600080fd5b6020830191508360208260051b850101111561307757600080fd5b9250929050565b60008060008060008060008060c0898b03121561309a57600080fd5b6130a389612eb2565b975060208901359650604089013595506060890135945060808901356001600160401b03808211156130d457600080fd5b818b0191508b601f8301126130e857600080fd5b8135818111156130f757600080fd5b8c602082850101111561310957600080fd5b6020830196508095505060a08b013591508082111561312757600080fd5b506131348b828c01613033565b999c989b5096995094979396929594505050565b60006020828403121561315a57600080fd5b61272f82612eb2565b6000806040838503121561317657600080fd5b8235915060208301356001600160401b0381111561319357600080fd5b61319f85828601612fa3565b9150509250929050565b600082601f8301126131ba57600080fd5b813560206001600160401b038211156131d5576131d5612ef8565b8160051b6131e4828201612f0e565b92835284810182019282810190878511156131fe57600080fd5b83870192505b8483101561321d57823582529183019190830190613204565b979650505050505050565b60008060006060848603121561323d57600080fd5b8335925060208401356001600160401b038082111561325b57600080fd5b61326787838801612fa3565b9350604086013591508082111561327d57600080fd5b5061328a868287016131a9565b9150509250925092565b600080604083850312156132a757600080fd5b50508035926020909101359150565b600080604083850312156132c957600080fd5b8235915060208301356001600160401b038111156132e657600080fd5b61319f858286016131a9565b80151581146110f557600080fd5b6000806040838503121561331357600080fd5b61331c83612eb2565b9150602083013561332c816132f2565b809150509250929050565b6000806000806080858703121561334d57600080fd5b61335685612eb2565b935061336460208601612eb2565b92506040850135915060608501356001600160401b0381111561338657600080fd5b8501601f8101871361339757600080fd5b6133a687823560208401612f65565b91505092959194509250565b85815260a0602082015260006133cb60a0830187612e5a565b6001600160a01b03861660408401526060830185905282810360808401526133f38185612e5a565b98975050505050505050565b6000806040838503121561341257600080fd5b61341b83612eb2565b915061342960208401612eb2565b90509250929050565b60208152815160208201526000602083015160a0604084015261345860c0840182612e5a565b905060018060a01b036040850151166060840152606084015160808401526080840151601f198483030160a08501526134918282612e5a565b95945050505050565b600080604083850312156134ad57600080fd5b8235915061342960208401612eb2565b600181811c908216806134d157607f821691505b602082108114156134f257634e487b7160e01b600052602260045260246000fd5b50919050565b60006020828403121561350a57600080fd5b815161272f816132f2565b828152600060206040818401526000845461352f816134bd565b8060408701526060600180841660008114613551576001811461356557613593565b60ff19851689840152608089019550613593565b896000528660002060005b8581101561358b5781548b8201860152908301908801613570565b8a0184019650505b50939998505050505050505050565b8183823760009101908152919050565b60008083546135c0816134bd565b600182811680156135d857600181146135e957613618565b60ff19841687528287019450613618565b8760005260208060002060005b8581101561360f5781548a8201529084019082016135f6565b50505082870194505b50929695505050505050565b6020808252603a908201527f596f75206e65656420746f2075736520616e206164647265737320726567697360408201527f7465726564206f6e2050726f6f66206f662048756d616e697479000000000000606082015260800190565b8581528460208201528284604083013760609190911b6bffffffffffffffffffffffff1916604091909201908101919091526054019392505050565b604081528260408201528284606083013760006060848301015260006060601f19601f8601168301019050826020830152949350505050565b634e487b7160e01b600052601160045260246000fd5b6000600019821415613720576137206136f6565b5060010190565b60208082526024908201527f496e636f727265637420616d6f756e74206f662045544820666f72206d696e746040820152632066656560e01b606082015260800190565b6020808252818101527f596f7520616c7265616479206861766520612054616c656e744c617965724944604082015260600190565b60208082526010908201526f12185b991b19481d1bdbc81cda1bdc9d60821b604082015260600190565b6020808252600f908201526e48616e646c6520746f6f206c6f6e6760881b604082015260600190565b60008151613805818560208601612e2e565b9290920192915050565b60008251613821818460208701612e2e565b9190910192915050565b6020808252601490820152732430b73236329030b63932b0b23c903a30b5b2b760611b604082015260600190565b60008282101561386b5761386b6136f6565b500390565b634e487b7160e01b600052603260045260246000fd5b6000806040838503121561389957600080fd5b82516138a4816132f2565b60208401519092506001600160401b038111156138c057600080fd5b8301601f810185136138d157600080fd5b80516138df612f7382612f3e565b8181528660208385010111156138f457600080fd5b613905826020830160208601612e2e565b8093505050509250929050565b6020808252603e908201527f596f75206e65656420746f2075736520616e206164647265737320726567697360408201527f7465726564206f6e207468652073656c656374656420706c6174666f726d0000606082015260800190565b600081518084526020808501945080840160005b8381101561399f57815187529582019590820190600101613983565b509495945050505050565b8481526080602082015260006139c3608083018661396f565b82810360408401526139d58186612e5a565b91505082606083015295945050505050565b838152606060208201526000613a00606083018561396f565b8281036040840152613a128185612e5a565b9695505050505050565b60208082526025908201527f54616c656e744c6179657249443a2050726f66696c6520646f6573206e6f7420604082015264195e1a5cdd60da1b606082015260800190565b85815260a060208201526000613a7a60a0830187612e5a565b941515604083015250606081019290925260809091015292915050565b6001600160a01b0385811682528416602082015260408101839052608060608201819052600090613a1290830184612e5a565b600060208284031215613adc57600080fd5b815161272f81612dfb565b7f3c73766720786d6c6e733d22687474703a2f2f7777772e77332e6f72672f323081527f30302f737667222076696577426f783d223020302037323020373230223e3c6460208201527f6566733e3c6c696e6561724772616469656e742069643d2261222078313d223660408201527f372e3934222079313d223136392e3438222078323d223637302e39382220793260608201527f3d223536322e383622206772616469656e74556e6974733d227573657253706160808201527f63654f6e557365223e3c73746f70206f66667365743d2230222073746f702d6360a08201527f6f6c6f723d2223313761396332222f3e3c73746f70206f66667365743d222e3160c08201527f32222073746f702d636f6c6f723d2223316161396263222f3e3c73746f70206f60e08201527f66667365743d222e3239222073746f702d636f6c6f723d2223323561626162226101008201527f2f3e3c73746f70206f66667365743d222e3438222073746f702d636f6c6f723d6101208201527f2223333561643866222f3e3c73746f70206f66667365743d222e3634222073746101408201527f6f702d636f6c6f723d2223343862303732222f3e3c73746f70206f66667365746101608201527f3d222e3738222073746f702d636f6c6f723d2223353962323534222f3e3c73746101808201527f6f70206f66667365743d2231222073746f702d636f6c6f723d222337616237326101a08201527f30222f3e3c2f6c696e6561724772616469656e743e3c2f646566733e3c7061746101c08201527f68207374796c653d2266696c6c3a75726c282361292220643d224d30203068376101e08201527f32307637323048307a222f3e3c7061746820643d224d34372e30352039322e336102008201527f375635332e38344833332e32395634366833362e383576372e38344835362e346102208201527f317633382e3532682d392e33365a6d33352e37312d32332e33342d382e30372d6102408201527f312e3436632e39312d332e323520322e34372d352e363520342e36382d372e326102608201527f3120322e32312d312e353620352e352d322e333420392e38372d322e333420336102808201527f2e3936203020362e39322e343720382e383620312e343120312e39342e3934206102a08201527f332e333120322e313320342e3120332e353773312e313920342e3120312e31396102c08201527f20372e39366c2d2e312031302e3337633020322e39352e313420352e31332e346102e08201527f3320362e35332e323820312e342e383220322e393120312e3620342e3531682d6103008201527f382e3739632d2e32332d2e35392d2e35322d312e34372d2e38352d322e36332d6103208201527f2e31352d2e35332d2e32352d2e38382d2e33322d312e30342d312e353220312e6103408201527f34382d332e313420322e35382d342e383720332e3332732d332e353720312e316103608201527f312d352e353420312e3131632d332e343620302d362e31382d2e39342d382e316103808201527f382d322e38322d312e39392d312e38382d322e39392d342e32352d322e39392d6103a08201527f372e313220302d312e392e34352d332e353920312e33362d352e303873322e316103c08201527f382d322e363320332e38312d332e343220332e39392d312e343820372e30372d6103e08201527f322e303763342e31352d2e373820372e30332d312e353120382e36332d322e316104008201527f38762d2e383963302d312e37312d2e34322d322e39332d312e32372d332e36356104208201527f732d322e34342d312e30392d342e37382d312e3039632d312e353820302d322e6104408201527f38322e33312d332e372e39332d2e38392e36322d312e3620312e37312d322e316104608201527f3520332e32375a6d31312e383920372e3231632d312e31342e33382d322e39346104808201527f2e38332d352e343120312e33362d322e34372e35332d342e303820312e30342d6104a08201527f342e383420312e35352d312e31362e38322d312e373420312e38372d312e37346104c08201527f20332e3133732e343620322e333220312e333920332e3233632e39332e3931206104e08201527f322e313120312e333620332e353420312e333620312e36203020332e31332d2e6105008201527f353320342e35392d312e353820312e30382d2e3820312e37382d312e373820326105208201527f2e31322d322e39342e32332d2e37362e33352d322e322e33352d342e3333762d6105408201527f312e37375a6d31372e34392031362e313356343668382e38397634362e3337686105608201527f2d382e38395a6d33372e34352d31302e363920382e383620312e3439632d312e6105808201527f313420332e32352d322e393420352e37322d352e333920372e3432732d352e356105a08201527f3320322e35352d392e323220322e3535632d352e383420302d31302e31362d316105c08201527f2e39312d31322e39372d352e37322d322e32312d332e30362d332e33322d362e6105e08201527f39322d332e33322d31312e353820302d352e353720312e34362d392e393320346106008201527f2e33362d31332e303820322e39312d332e313520362e35392d342e37332031316106208201527f2e30342d342e37332035203020382e393420312e36352031312e383320342e396106408201527f3573342e323720382e333620342e31342031352e3137682d32322e3237632e306106608201527f3620322e36342e373820342e363920322e313520362e313520312e333720312e6106808201527f343720332e303820322e3220352e313220322e3220312e3339203020322e35366106a08201527f2d2e333820332e35312d312e31342e39352d2e373620312e36372d312e3938206106c08201527f322e31352d332e36375a6d2e35312d382e3938632d2e30362d322e35372d2e376106e08201527f332d342e35332d312e39392d352e38372d312e32372d312e33342d322e38312d6107008201527f322e30312d342e36322d322e30312d312e393420302d332e35342e37312d342e6107208201527f383120322e31322d312e323720312e34312d312e383920332e33332d312e38376107408201527f20352e37366831332e32385a6d34362e36322031392e3637682d382e383956376107608201527f352e323363302d332e36332d2e31392d352e39372d2e35372d372e30342d2e336107808201527f382d312e30362d312d312e38392d312e38352d322e3438732d312e38382d2e386107a08201527f392d332e30382d2e3839632d312e353420302d322e39322e34322d342e3134206107c08201527f312e3237732d322e303620312e39362d322e353120332e3335632d2e343520316107e08201527f2e33392d2e363820332e39362d2e363820372e37327631352e3231682d382e386108008201527f395635382e373868382e323676342e393363322e39332d332e3820362e36322d6108208201527f352e36392031312e30372d352e363920312e3936203020332e37352e333520356108408201527f2e333820312e303620312e36322e373120322e383520312e363120332e3638206108608201527f322e372e383320312e3120312e343120322e333420312e373420332e3733732e6108808201527f343920332e33382e343920352e39387632302e38385a6d32342e34322d33332e6108a08201527f353976372e3038682d362e30375637392e34633020322e37342e303620342e336108c08201527f342e313720342e37392e31322e34352e33382e38332e373920312e31322e34316108e08201527f2e332e39312e343420312e352e34342e3832203020322e30312d2e323820332e6109008201527f35372d2e38356c2e373620362e39632d322e30372e38392d342e343120312e336109208201527f332d372e303220312e33332d312e3620302d332e30352d2e32372d342e33332d6109408201527f2e38312d312e32392d2e35342d322e32332d312e32332d322e38332d322e30396109608201527f2d2e362d2e38352d312e30322d322e30312d312e32352d332e34362d2e31392d6109808201527f312e30332d2e32382d332e31322d2e32382d362e32365636352e3836682d342e6109a08201527f3038762d372e303868342e3038762d362e36376c382e39322d352e31397631316109c08201527f2e383668362e30375a6d362e32362033332e353956343668362e31347634302e6109e08201527f396832322e383476352e3437682d32382e39375a6d35372e34372d342e313463610a008201527f2d322e313120312e37392d342e313420332e30362d362e303920332e382d312e610a208201527f39352e37342d342e303420312e31312d362e323820312e31312d332e36392030610a408201527f2d362e35332d2e392d382e35312d322e372d312e39382d312e382d322e39372d610a608201527f342e31312d322e39372d362e393120302d312e36342e33372d332e313520312e610a808201527f31322d342e353173312e37332d322e343520322e39342d332e323763312e3231610aa08201527f2d2e383220322e35382d312e343420342e312d312e383720312e31322d2e3320610ac08201527f322e382d2e353820352e30362d2e383520342e362d2e353520372e39382d312e610ae08201527f322031302e31352d312e39362e30322d2e37382e30332d312e32382e30332d31610b008201527f2e343920302d322e33322d2e35342d332e39352d312e36312d342e392d312e34610b208201527f362d312e32392d332e36322d312e39332d362e34382d312e39332d322e363820610b408201527f302d342e36352e34372d352e393320312e3431732d322e323220322e362d322e610b608201527f383320342e39386c2d352e35372d2e3736632e35312d322e333820312e33342d610b808201527f342e333120322e352d352e373720312e31362d312e343720322e38342d322e35610ba08201527f3920352e30332d332e333820322e31392d2e373920342e37332d312e31392037610bc08201527f2e36322d312e313973352e322e333420362e393920312e303163312e37392e36610be08201527f3820332e313120312e353220332e393520322e35352e383420312e303220312e610c008201527f343320322e333120312e373720332e38382e31392e39372e323820322e37322e610c208201527f323820352e323576372e3539633020352e32392e313220382e36342e33362031610c408201527f302e30342e323420312e342e373220322e373520312e343420342e3033682d35610c608201527f2e3935632d2e35392d312e31382d2e39372d322e35362d312e31342d342e3134610c808201527f5a6d2d2e34372d31322e3732632d322e30372e38342d352e313720312e35362d610ca08201527f392e3320322e31352d322e33342e33342d34202e37322d342e393720312e3134610cc08201527f2d2e39372e34322d312e373220312e30342d322e323520312e3835732d2e3739610ce08201527f20312e37312d2e373920322e37633020312e35322e353720322e373820312e37610d008201527f3220332e3820312e313520312e303120322e383320312e353220352e30352031610d208201527f2e353273342e31342d2e343820352e38352d312e343420322e39362d322e3237610d408201527f20332e37362d332e3934632e36312d312e32392e39322d332e31382e39322d35610d608201527f2e3639762d322e30395a6d31342e33332032392e382d2e36332d352e33356331610d808201527f2e32342e333420322e33332e353120332e32362e353120312e3237203020322e610da08201527f32382d2e323120332e30342d2e363373312e33382d312e303120312e38372d31610dc08201527f2e3737632e33362d2e35372e39342d312e393820312e37342d342e32342e3131610de08201527f2d2e33322e32372d2e37382e35312d312e33396c2d31322e37352d33332e3635610e008201527f68362e31346c362e39392031392e3435632e393120322e343720312e37322035610e208201527f2e303620322e343420372e37382e36352d322e363120312e34332d352e313720610e408201527f322e33342d372e36356c372e31382d31392e353868352e36396c2d31322e3738610e608201527f2033342e3136632d312e333720332e36392d322e343420362e32332d332e3139610e808201527f20372e36322d312e303120312e38382d322e313720332e32352d332e34382034610ea08201527f2e31332d312e33312e38382d322e383720312e33312d342e363820312e33312d610ec08201527f312e3120302d322e33322d2e32332d332e36372d2e375a6d35352e36332d3233610ee08201527f2e373620352e38382e3733632d2e393320332e34342d322e363520362e312d35610f008201527f2e313620382d322e353120312e392d352e373120322e38352d392e363220322e610f208201527f38352d342e393120302d382e38312d312e35312d31312e36392d342e35342d32610f408201527f2e38382d332e30332d342e33322d372e32372d342e33322d31322e373373312e610f608201527f34362d31302e303420342e33362d31332e313663322e39312d332e313220362e610f808201527f36382d342e36382031312e33322d342e363873382e313620312e35332031312e610fa08201527f303120342e353963322e383520332e303620342e323720372e333620342e3237610fc08201527f2031322e39312030202e33342d2e30312e38342d2e303320312e3532682d3235610fe08201527f2e3035632e323120332e363920312e323520362e353220332e313320382e34386110008201527f20312e383820312e393620342e323220322e393420372e303220322e393420326110208201527f2e3039203020332e38372d2e353520352e33352d312e363420312e34382d312e6110408201527f3120322e36352d322e383520332e35312d352e32355a6d2d31382e36392d392e6110608201527f326831382e3736632d2e32352d322e38332d2e39372d342e39342d322e31352d6110808201527f362e33362d312e38312d322e31392d342e31372d332e32392d372e30352d332e6110a08201527f32392d322e363120302d342e38312e38382d362e3620322e3633732d322e37376110c08201527f20342e30392d322e393620372e30325a6d33312e36362032302e30325635382e6110e08201527f373868352e313276352e303963312e33312d322e333820322e35312d332e39356111008201527f20332e36322d342e373173322e33322d312e313420332e36352d312e313463316111208201527f2e3932203020332e38372e363120352e383520312e38336c2d312e393620352e6111408201527f3238632d312e33392d2e38322d322e37382d312e32332d342e31382d312e32336111608201527f2d312e323420302d322e33362e33372d332e333520312e31322d2e39392e37356111808201527f2d312e3720312e37392d322e313220332e31322d2e363320322e30322d2e39356111a08201527f20342e32342d2e393520362e36347631372e3539682d352e36395a6d32312e376111c08201527f39203056343668392e33367634362e3337682d392e33365a4d3430372e3337206111e08201527f34366831372e313163332e3836203020362e382e3320382e38332e383920322e6112008201527f37322e3820352e303520322e323220362e393920342e323720312e393420322e6112208201527f303520332e343220342e353520342e343320372e353120312e303120322e39366112408201527f20312e353220362e363220312e35322031302e3936203020332e38322d2e34376112608201527f20372e31312d312e343220392e38372d312e313620332e33372d322e383220366112808201527f2e312d342e393720382e31392d312e363220312e35382d332e383220322e38326112a08201527f2d362e353820332e372d322e30372e36352d342e38332e39382d382e32392e396112c08201527f38682d31372e36325634365a6d392e333620372e38347633302e373168362e396112e08201527f3963322e3631203020342e352d2e313520352e36362d2e343420312e35322d2e6113008201527f333820322e37382d312e303220332e37382d312e393320312d2e393120312e386113208201527f322d322e3420322e34352d342e34382e36332d322e30382e39352d342e39312e6113408201527f39352d382e3439732d2e33322d362e33342d2e39352d382e32362d312e35322d6113608201527f332e34322d322e36362d342e34392d322e35382d312e382d342e33332d322e316113808201527f38632d312e33312d2e332d332e38372d2e34342d372e36392d2e3434682d342e6113a08201527f32315a22207374796c653d2266696c6c3a23666666222f3e3c7465787420793d6113c08201527f223637302220783d22333022207374796c653d22666f6e743a373070782073616113e082015273373996b9b2b934b31db334b6361d11b33333111f60611b611400820152600061272f61536d6114148401856137f3565b6c1e17ba32bc3a1f1e17b9bb339f60991b8152600d0190565b7f646174613a696d6167652f7376672b786d6c3b6261736536342c0000000000008152600082516153be81601a850160208701612e2e565b91909101601a0192915050565b683d913730b6b2911d1160b91b815282516000906153f0816009850160208801612e2e565b6b1116101134b6b0b3b2911d1160a11b600991840191820152835161541c816015840160208801612e2e565b7f222c20226465736372697074696f6e223a202254616c656e744c617965722049601592909101918201526244227d60e81b6035820152603801949350505050565b7f646174613a6170706c69636174696f6e2f6a736f6e3b6261736536342c00000081526000825161549681601d850160208701612e2e565b91909101601d0192915050565b600082198211156154b6576154b66136f6565b500190565b6000826154d857634e487b7160e01b600052601260045260246000fd5b500490565b60008160001904831182151516156154f7576154f76136f6565b50029056fe4142434445464748494a4b4c4d4e4f505152535455565758595a6162636465666768696a6b6c6d6e6f707172737475767778797a303132333435363738392b2fa2646970667358221220e12ac678ffc73713bedbe78d8e85e4884930fdf08b11c8501a7cd2d72c98e73364736f6c63430008090033",
  "linkReferences": {},
  "deployedLinkReferences": {}
}