{
  "_format": "hh-sol-artifact-1",
  "contractName": "TalentLayerEscrow",
  "sourceName": "contracts/TalentLayerEscrow.sol",
  "abi": [
    {
      "inputs": [],
      "stateMutability": "nonpayable",
      "type": "constructor"
    },
    {
      "anonymous": false,
      "inputs": [
        {
          "indexed": false,
          "internalType": "address",
          "name": "previousAdmin",
          "type": "address"
        },
        {
          "indexed": false,
          "internalType": "address",
          "name": "newAdmin",
          "type": "address"
        }
      ],
      "name": "AdminChanged",
      "type": "event"
    },
    {
      "anonymous": false,
      "inputs": [
        {
          "indexed": true,
          "internalType": "uint256",
          "name": "_transactionId",
          "type": "uint256"
        },
        {
          "indexed": false,
          "internalType": "enum TalentLayerEscrow.ArbitrationFeePaymentType",
          "name": "_paymentType",
          "type": "uint8"
        },
        {
          "indexed": false,
          "internalType": "enum TalentLayerEscrow.Party",
          "name": "_party",
          "type": "uint8"
        },
        {
          "indexed": false,
          "internalType": "uint256",
          "name": "_amount",
          "type": "uint256"
        }
      ],
      "name": "ArbitrationFeePayment",
      "type": "event"
    },
    {
      "anonymous": false,
      "inputs": [
        {
          "indexed": true,
          "internalType": "address",
          "name": "beacon",
          "type": "address"
        }
      ],
      "name": "BeaconUpgraded",
      "type": "event"
    },
    {
      "anonymous": false,
      "inputs": [
        {
          "indexed": true,
          "internalType": "contract Arbitrator",
          "name": "_arbitrator",
          "type": "address"
        },
        {
          "indexed": true,
          "internalType": "uint256",
          "name": "_disputeID",
          "type": "uint256"
        },
        {
          "indexed": false,
          "internalType": "uint256",
          "name": "_metaEvidenceID",
          "type": "uint256"
        },
        {
          "indexed": false,
          "internalType": "uint256",
          "name": "_evidenceGroupID",
          "type": "uint256"
        }
      ],
      "name": "Dispute",
      "type": "event"
    },
    {
      "anonymous": false,
      "inputs": [
        {
          "indexed": true,
          "internalType": "contract Arbitrator",
          "name": "_arbitrator",
          "type": "address"
        },
        {
          "indexed": true,
          "internalType": "uint256",
          "name": "_evidenceGroupID",
          "type": "uint256"
        },
        {
          "indexed": true,
          "internalType": "address",
          "name": "_party",
          "type": "address"
        },
        {
          "indexed": false,
          "internalType": "string",
          "name": "_evidence",
          "type": "string"
        }
      ],
      "name": "Evidence",
      "type": "event"
    },
    {
      "anonymous": false,
      "inputs": [
        {
          "indexed": true,
          "internalType": "uint256",
          "name": "_transactionId",
          "type": "uint256"
        },
        {
          "indexed": true,
          "internalType": "uint256",
          "name": "_partyId",
          "type": "uint256"
        },
        {
          "indexed": false,
          "internalType": "string",
          "name": "_evidenceUri",
          "type": "string"
        }
      ],
      "name": "EvidenceSubmitted",
      "type": "event"
    },
    {
      "anonymous": false,
      "inputs": [
        {
          "indexed": false,
          "internalType": "uint256",
          "name": "_platformId",
          "type": "uint256"
        },
        {
          "indexed": true,
          "internalType": "address",
          "name": "_token",
          "type": "address"
        },
        {
          "indexed": false,
          "internalType": "uint256",
          "name": "_amount",
          "type": "uint256"
        }
      ],
      "name": "FeesClaimed",
      "type": "event"
    },
    {
      "anonymous": false,
      "inputs": [
        {
          "indexed": true,
          "internalType": "uint256",
          "name": "_transactionId",
          "type": "uint256"
        },
        {
          "indexed": false,
          "internalType": "enum TalentLayerEscrow.Party",
          "name": "_party",
          "type": "uint8"
        }
      ],
      "name": "HasToPayFee",
      "type": "event"
    },
    {
      "anonymous": false,
      "inputs": [
        {
          "indexed": false,
          "internalType": "uint8",
          "name": "version",
          "type": "uint8"
        }
      ],
      "name": "Initialized",
      "type": "event"
    },
    {
      "anonymous": false,
      "inputs": [
        {
          "indexed": true,
          "internalType": "uint256",
          "name": "_metaEvidenceID",
          "type": "uint256"
        },
        {
          "indexed": false,
          "internalType": "string",
          "name": "_evidence",
          "type": "string"
        }
      ],
      "name": "MetaEvidence",
      "type": "event"
    },
    {
      "anonymous": false,
      "inputs": [
        {
          "indexed": false,
          "internalType": "uint256",
          "name": "_platformId",
          "type": "uint256"
        },
        {
          "indexed": false,
          "internalType": "uint256",
          "name": "_serviceId",
          "type": "uint256"
        },
        {
          "indexed": true,
          "internalType": "address",
          "name": "_token",
          "type": "address"
        },
        {
          "indexed": false,
          "internalType": "uint256",
          "name": "_amount",
          "type": "uint256"
        }
      ],
      "name": "OriginServiceFeeRateReleased",
      "type": "event"
    },
    {
      "anonymous": false,
      "inputs": [
        {
          "indexed": false,
          "internalType": "uint256",
          "name": "_platformId",
          "type": "uint256"
        },
        {
          "indexed": false,
          "internalType": "uint256",
          "name": "_serviceId",
          "type": "uint256"
        },
        {
          "indexed": true,
          "internalType": "address",
          "name": "_token",
          "type": "address"
        },
        {
          "indexed": false,
          "internalType": "uint256",
          "name": "_amount",
          "type": "uint256"
        }
      ],
      "name": "OriginValidatedProposalFeeRateReleased",
      "type": "event"
    },
    {
      "anonymous": false,
      "inputs": [
        {
          "indexed": true,
          "internalType": "address",
          "name": "previousOwner",
          "type": "address"
        },
        {
          "indexed": true,
          "internalType": "address",
          "name": "newOwner",
          "type": "address"
        }
      ],
      "name": "OwnershipTransferred",
      "type": "event"
    },
    {
      "anonymous": false,
      "inputs": [
        {
          "indexed": false,
          "internalType": "uint256",
          "name": "_transactionId",
          "type": "uint256"
        },
        {
          "indexed": false,
          "internalType": "enum TalentLayerEscrow.PaymentType",
          "name": "_paymentType",
          "type": "uint8"
        },
        {
          "indexed": false,
          "internalType": "address",
          "name": "_token",
          "type": "address"
        },
        {
          "indexed": false,
          "internalType": "uint256",
          "name": "_amount",
          "type": "uint256"
        },
        {
          "indexed": false,
          "internalType": "uint256",
          "name": "_serviceId",
          "type": "uint256"
        }
      ],
      "name": "Payment",
      "type": "event"
    },
    {
      "anonymous": false,
      "inputs": [
        {
          "indexed": false,
          "internalType": "uint256",
          "name": "_serviceId",
          "type": "uint256"
        }
      ],
      "name": "PaymentCompleted",
      "type": "event"
    },
    {
      "anonymous": false,
      "inputs": [
        {
          "indexed": false,
          "internalType": "uint16",
          "name": "_protocolEscrowFeeRate",
          "type": "uint16"
        }
      ],
      "name": "ProtocolEscrowFeeRateUpdated",
      "type": "event"
    },
    {
      "anonymous": false,
      "inputs": [
        {
          "indexed": true,
          "internalType": "contract Arbitrator",
          "name": "_arbitrator",
          "type": "address"
        },
        {
          "indexed": true,
          "internalType": "uint256",
          "name": "_disputeID",
          "type": "uint256"
        },
        {
          "indexed": false,
          "internalType": "uint256",
          "name": "_ruling",
          "type": "uint256"
        }
      ],
      "name": "Ruling",
      "type": "event"
    },
    {
      "anonymous": false,
      "inputs": [
        {
          "indexed": true,
          "internalType": "uint256",
          "name": "_transactionId",
          "type": "uint256"
        },
        {
          "indexed": false,
          "internalType": "uint256",
          "name": "_ruling",
          "type": "uint256"
        }
      ],
      "name": "RulingExecuted",
      "type": "event"
    },
    {
      "anonymous": false,
      "inputs": [
        {
          "indexed": false,
          "internalType": "uint256",
          "name": "serviceId",
          "type": "uint256"
        },
        {
          "indexed": false,
          "internalType": "uint256",
          "name": "proposalId",
          "type": "uint256"
        },
        {
          "indexed": false,
          "internalType": "uint256",
          "name": "transactionId",
          "type": "uint256"
        }
      ],
      "name": "ServiceProposalConfirmedWithDeposit",
      "type": "event"
    },
    {
      "anonymous": false,
      "inputs": [
        {
          "indexed": false,
          "internalType": "uint256",
          "name": "_transactionId",
          "type": "uint256"
        },
        {
          "indexed": false,
          "internalType": "uint256",
          "name": "_senderId",
          "type": "uint256"
        },
        {
          "indexed": false,
          "internalType": "uint256",
          "name": "_receiverId",
          "type": "uint256"
        },
        {
          "indexed": false,
          "internalType": "address",
          "name": "_token",
          "type": "address"
        },
        {
          "indexed": false,
          "internalType": "uint256",
          "name": "_amount",
          "type": "uint256"
        },
        {
          "indexed": false,
          "internalType": "uint256",
          "name": "_serviceId",
          "type": "uint256"
        },
        {
          "indexed": false,
          "internalType": "uint16",
          "name": "_protocolEscrowFeeRate",
          "type": "uint16"
        },
        {
          "indexed": false,
          "internalType": "uint16",
          "name": "_originServiceFeeRate",
          "type": "uint16"
        },
        {
          "indexed": false,
          "internalType": "uint16",
          "name": "_originValidatedProposalFeeRate",
          "type": "uint16"
        },
        {
          "indexed": false,
          "internalType": "contract Arbitrator",
          "name": "_arbitrator",
          "type": "address"
        },
        {
          "indexed": false,
          "internalType": "bytes",
          "name": "_arbitratorExtraData",
          "type": "bytes"
        },
        {
          "indexed": false,
          "internalType": "uint256",
          "name": "_arbitrationFeeTimeout",
          "type": "uint256"
        }
      ],
      "name": "TransactionCreated",
      "type": "event"
    },
    {
      "anonymous": false,
      "inputs": [
        {
          "indexed": false,
          "internalType": "address",
          "name": "forwarder",
          "type": "address"
        }
      ],
      "name": "TrustedForwarderAdded",
      "type": "event"
    },
    {
      "anonymous": false,
      "inputs": [
        {
          "indexed": false,
          "internalType": "address",
          "name": "forwarder",
          "type": "address"
        }
      ],
      "name": "TrustedForwarderRemoved",
      "type": "event"
    },
    {
      "anonymous": false,
      "inputs": [
        {
          "indexed": true,
          "internalType": "address",
          "name": "implementation",
          "type": "address"
        }
      ],
      "name": "Upgraded",
      "type": "event"
    },
    {
      "inputs": [
        {
          "internalType": "address",
          "name": "_forwarder",
          "type": "address"
        }
      ],
      "name": "addTrustedForwarder",
      "outputs": [],
      "stateMutability": "nonpayable",
      "type": "function"
    },
    {
      "inputs": [
        {
          "internalType": "uint256",
          "name": "_transactionId",
          "type": "uint256"
        }
      ],
      "name": "appeal",
      "outputs": [],
      "stateMutability": "payable",
      "type": "function"
    },
    {
      "inputs": [
        {
          "internalType": "uint256",
          "name": "_platformId",
          "type": "uint256"
        },
        {
          "internalType": "address",
          "name": "_tokenAddress",
          "type": "address"
        }
      ],
      "name": "claim",
      "outputs": [],
      "stateMutability": "nonpayable",
      "type": "function"
    },
    {
      "inputs": [
        {
          "internalType": "uint256",
          "name": "_platformId",
          "type": "uint256"
        }
      ],
      "name": "claimAll",
      "outputs": [],
      "stateMutability": "nonpayable",
      "type": "function"
    },
    {
      "inputs": [
        {
          "internalType": "string",
          "name": "_metaEvidence",
          "type": "string"
        },
        {
          "internalType": "uint256",
          "name": "_serviceId",
          "type": "uint256"
        },
        {
          "internalType": "uint256",
          "name": "_proposalId",
          "type": "uint256"
        },
        {
          "internalType": "string",
          "name": "_originDataUri",
          "type": "string"
        }
      ],
      "name": "createETHTransaction",
      "outputs": [
        {
          "internalType": "uint256",
          "name": "",
          "type": "uint256"
        }
      ],
      "stateMutability": "payable",
      "type": "function"
    },
    {
      "inputs": [
        {
          "internalType": "string",
          "name": "_metaEvidence",
          "type": "string"
        },
        {
          "internalType": "uint256",
          "name": "_serviceId",
          "type": "uint256"
        },
        {
          "internalType": "uint256",
          "name": "_proposalId",
          "type": "uint256"
        },
        {
          "internalType": "string",
          "name": "_originDataUri",
          "type": "string"
        }
      ],
      "name": "createTokenTransaction",
      "outputs": [
        {
          "internalType": "uint256",
          "name": "",
          "type": "uint256"
        }
      ],
      "stateMutability": "nonpayable",
      "type": "function"
    },
    {
      "inputs": [
        {
          "internalType": "uint256",
          "name": "",
          "type": "uint256"
        }
      ],
      "name": "disputeIDtoTransactionID",
      "outputs": [
        {
          "internalType": "uint256",
          "name": "",
          "type": "uint256"
        }
      ],
      "stateMutability": "view",
      "type": "function"
    },
    {
      "inputs": [
        {
          "internalType": "address",
          "name": "_token",
          "type": "address"
        }
      ],
      "name": "getClaimableFeeBalance",
      "outputs": [
        {
          "internalType": "uint256",
          "name": "balance",
          "type": "uint256"
        }
      ],
      "stateMutability": "view",
      "type": "function"
    },
    {
      "inputs": [
        {
          "internalType": "uint256",
          "name": "_transactionId",
          "type": "uint256"
        }
      ],
      "name": "getTransactionDetails",
      "outputs": [
        {
          "components": [
            {
              "internalType": "uint256",
              "name": "id",
              "type": "uint256"
            },
            {
              "internalType": "address",
              "name": "sender",
              "type": "address"
            },
            {
              "internalType": "address",
              "name": "receiver",
              "type": "address"
            },
            {
              "internalType": "address",
              "name": "token",
              "type": "address"
            },
            {
              "internalType": "uint256",
              "name": "amount",
              "type": "uint256"
            },
            {
              "internalType": "uint256",
              "name": "serviceId",
              "type": "uint256"
            },
            {
              "internalType": "uint256",
              "name": "proposalId",
              "type": "uint256"
            },
            {
              "internalType": "uint16",
              "name": "protocolEscrowFeeRate",
              "type": "uint16"
            },
            {
              "internalType": "uint16",
              "name": "originServiceFeeRate",
              "type": "uint16"
            },
            {
              "internalType": "uint16",
              "name": "originValidatedProposalFeeRate",
              "type": "uint16"
            },
            {
              "internalType": "contract Arbitrator",
              "name": "arbitrator",
              "type": "address"
            },
            {
              "internalType": "enum TalentLayerEscrow.Status",
              "name": "status",
              "type": "uint8"
            },
            {
              "internalType": "uint256",
              "name": "disputeId",
              "type": "uint256"
            },
            {
              "internalType": "uint256",
              "name": "senderFee",
              "type": "uint256"
            },
            {
              "internalType": "uint256",
              "name": "receiverFee",
              "type": "uint256"
            },
            {
              "internalType": "uint256",
              "name": "lastInteraction",
              "type": "uint256"
            },
            {
              "internalType": "bytes",
              "name": "arbitratorExtraData",
              "type": "bytes"
            },
            {
              "internalType": "uint256",
              "name": "arbitrationFeeTimeout",
              "type": "uint256"
            }
          ],
          "internalType": "struct TalentLayerEscrow.Transaction",
          "name": "",
          "type": "tuple"
        }
      ],
      "stateMutability": "view",
      "type": "function"
    },
    {
      "inputs": [
        {
          "internalType": "address",
          "name": "_talentLayerServiceAddress",
          "type": "address"
        },
        {
          "internalType": "address",
          "name": "_talentLayerIDAddress",
          "type": "address"
        },
        {
          "internalType": "address",
          "name": "_talentLayerPlatformIDAddress",
          "type": "address"
        },
        {
          "internalType": "address",
          "name": "_protocolWallet",
          "type": "address"
        }
      ],
      "name": "initialize",
      "outputs": [],
      "stateMutability": "nonpayable",
      "type": "function"
    },
    {
      "inputs": [
        {
          "internalType": "address",
          "name": "forwarder",
          "type": "address"
        }
      ],
      "name": "isTrustedForwarder",
      "outputs": [
        {
          "internalType": "bool",
          "name": "",
          "type": "bool"
        }
      ],
      "stateMutability": "view",
      "type": "function"
    },
    {
      "inputs": [],
      "name": "owner",
      "outputs": [
        {
          "internalType": "address",
          "name": "",
          "type": "address"
        }
      ],
      "stateMutability": "view",
      "type": "function"
    },
    {
      "inputs": [
        {
          "internalType": "uint256",
          "name": "_transactionId",
          "type": "uint256"
        }
      ],
      "name": "payArbitrationFeeByReceiver",
      "outputs": [],
      "stateMutability": "payable",
      "type": "function"
    },
    {
      "inputs": [
        {
          "internalType": "uint256",
          "name": "_transactionId",
          "type": "uint256"
        }
      ],
      "name": "payArbitrationFeeBySender",
      "outputs": [],
      "stateMutability": "payable",
      "type": "function"
    },
    {
      "inputs": [],
      "name": "protocolEscrowFeeRate",
      "outputs": [
        {
          "internalType": "uint16",
          "name": "",
          "type": "uint16"
        }
      ],
      "stateMutability": "view",
      "type": "function"
    },
    {
      "inputs": [],
      "name": "protocolWallet",
      "outputs": [
        {
          "internalType": "address payable",
          "name": "",
          "type": "address"
        }
      ],
      "stateMutability": "view",
      "type": "function"
    },
    {
      "inputs": [],
      "name": "proxiableUUID",
      "outputs": [
        {
          "internalType": "bytes32",
          "name": "",
          "type": "bytes32"
        }
      ],
      "stateMutability": "view",
      "type": "function"
    },
    {
      "inputs": [
        {
          "internalType": "uint256",
          "name": "_profileId",
          "type": "uint256"
        },
        {
          "internalType": "uint256",
          "name": "_transactionId",
          "type": "uint256"
        },
        {
          "internalType": "uint256",
          "name": "_amount",
          "type": "uint256"
        }
      ],
      "name": "reimburse",
      "outputs": [],
      "stateMutability": "nonpayable",
      "type": "function"
    },
    {
      "inputs": [
        {
          "internalType": "uint256",
          "name": "_profileId",
          "type": "uint256"
        },
        {
          "internalType": "uint256",
          "name": "_transactionId",
          "type": "uint256"
        },
        {
          "internalType": "uint256",
          "name": "_amount",
          "type": "uint256"
        }
      ],
      "name": "release",
      "outputs": [],
      "stateMutability": "nonpayable",
      "type": "function"
    },
    {
      "inputs": [
        {
          "internalType": "address",
          "name": "_forwarder",
          "type": "address"
        }
      ],
      "name": "removeTrustedForwarder",
      "outputs": [],
      "stateMutability": "nonpayable",
      "type": "function"
    },
    {
      "inputs": [],
      "name": "renounceOwnership",
      "outputs": [],
      "stateMutability": "nonpayable",
      "type": "function"
    },
    {
      "inputs": [
        {
          "internalType": "uint256",
          "name": "_disputeID",
          "type": "uint256"
        },
        {
          "internalType": "uint256",
          "name": "_ruling",
          "type": "uint256"
        }
      ],
      "name": "rule",
      "outputs": [],
      "stateMutability": "nonpayable",
      "type": "function"
    },
    {
      "inputs": [
        {
          "internalType": "uint256",
          "name": "_profileId",
          "type": "uint256"
        },
        {
          "internalType": "uint256",
          "name": "_transactionId",
          "type": "uint256"
        },
        {
          "internalType": "string",
          "name": "_evidence",
          "type": "string"
        }
      ],
      "name": "submitEvidence",
      "outputs": [],
      "stateMutability": "nonpayable",
      "type": "function"
    },
    {
      "inputs": [
        {
          "internalType": "uint256",
          "name": "_transactionId",
          "type": "uint256"
        }
      ],
      "name": "timeOutByReceiver",
      "outputs": [],
      "stateMutability": "nonpayable",
      "type": "function"
    },
    {
      "inputs": [
        {
          "internalType": "uint256",
          "name": "_transactionId",
          "type": "uint256"
        }
      ],
      "name": "timeOutBySender",
      "outputs": [],
      "stateMutability": "nonpayable",
      "type": "function"
    },
    {
      "inputs": [
        {
          "internalType": "address",
          "name": "newOwner",
          "type": "address"
        }
      ],
      "name": "transferOwnership",
      "outputs": [],
      "stateMutability": "nonpayable",
      "type": "function"
    },
    {
      "inputs": [
        {
          "internalType": "uint16",
          "name": "_protocolEscrowFeeRate",
          "type": "uint16"
        }
      ],
      "name": "updateProtocolEscrowFeeRate",
      "outputs": [],
      "stateMutability": "nonpayable",
      "type": "function"
    },
    {
      "inputs": [
        {
          "internalType": "address payable",
          "name": "_protocolWallet",
          "type": "address"
        }
      ],
      "name": "updateProtocolWallet",
      "outputs": [],
      "stateMutability": "nonpayable",
      "type": "function"
    },
    {
      "inputs": [
        {
          "internalType": "address",
          "name": "newImplementation",
          "type": "address"
        }
      ],
      "name": "upgradeTo",
      "outputs": [],
      "stateMutability": "nonpayable",
      "type": "function"
    },
    {
      "inputs": [
        {
          "internalType": "address",
          "name": "newImplementation",
          "type": "address"
        },
        {
          "internalType": "bytes",
          "name": "data",
          "type": "bytes"
        }
      ],
      "name": "upgradeToAndCall",
      "outputs": [],
      "stateMutability": "payable",
      "type": "function"
    }
  ],
  "bytecode": "0x60a0604052306080523480156200001557600080fd5b506200002062000026565b620000e8565b600054610100900460ff1615620000935760405162461bcd60e51b815260206004820152602760248201527f496e697469616c697a61626c653a20636f6e747261637420697320696e697469604482015266616c697a696e6760c81b606482015260840160405180910390fd5b60005460ff9081161015620000e6576000805460ff191660ff9081179091556040519081527f7f26b83ff96e1f2b6a682f133852f6798a09c465da95921460cefb38474024989060200160405180910390a15b565b608051615dc46200012060003960008181610c5901528181610c9901528181611795015281816117d501526118640152615dc46000f3fe6080604052600436106101cd5760003560e01c8063649d9ffa116100f75780638da5cb5b11610095578063eb63612d11610064578063eb63612d1461053c578063f2fde38b1461055c578063f42cadc11461057c578063f8c8765e1461059c57600080fd5b80638da5cb5b146104be5780639dcc5daf146104dc578063ddd5e1b2146104fc578063e308a0991461051c57600080fd5b8063715018a6116100d1578063715018a6146104635780637b44cdb5146104785780637e69b7b01461048b5780638b69fa0a1461049e57600080fd5b8063649d9ffa146104125780636930fd2a146104325780636e72b4521461045057600080fd5b80633751d89c1161016f5780634f1ef2861161013e5780634f1ef2861461036c57806352d1902d1461037f578063572b6c05146103945780635a34257a146103dd57600080fd5b80633751d89c146102f95780633a1121cd146103195780633de0c7ef1461033957806343ede0e31461035957600080fd5b806326d00668116101ab57806326d006681461026a5780632fbe3b031461028c578063311a6c56146102b95780633659cfe6146102d957600080fd5b806306d6e63f146101d25780630a1a47d61461020f5780630fa683d31461023d575b600080fd5b3480156101de57600080fd5b5060cf546101f2906001600160a01b031681565b6040516001600160a01b0390911681526020015b60405180910390f35b34801561021b57600080fd5b5061022f61022a366004614e62565b6105bc565b604051908152602001610206565b34801561024957600080fd5b5061025d610258366004614e7f565b61072c565b6040516102069190614f12565b34801561027657600080fd5b5061028a610285366004614e62565b610a54565b005b34801561029857600080fd5b5061022f6102a7366004614e7f565b60d06020526000908152604090205481565b3480156102c557600080fd5b5061028a6102d436600461505c565b610ab7565b3480156102e557600080fd5b5061028a6102f4366004614e62565b610c4f565b34801561030557600080fd5b5061028a610314366004614e62565b610d2b565b34801561032557600080fd5b5061028a61033436600461507e565b610d84565b34801561034557600080fd5b5061028a610354366004614e7f565b61114e565b61022f6103673660046151c4565b6112da565b61028a61037a36600461523b565b61178b565b34801561038b57600080fd5b5061022f611857565b3480156103a057600080fd5b506103cd6103af366004614e62565b6001600160a01b031660009081526065602052604090205460ff1690565b6040519015158152602001610206565b3480156103e957600080fd5b5060cf546103ff90600160a01b900461ffff1681565b60405161ffff9091168152602001610206565b34801561041e57600080fd5b5061022f61042d3660046151c4565b61190a565b34801561043e57600080fd5b5061028a61044d366004614e7f565b50565b61028a61045e366004614e7f565b611d19565b34801561046f57600080fd5b5061028a611fd4565b61028a610486366004614e7f565b611fe8565b61028a610499366004614e7f565b61227e565b3480156104aa57600080fd5b5061028a6104b936600461529f565b612351565b3480156104ca57600080fd5b506033546001600160a01b03166101f2565b3480156104e857600080fd5b5061028a6104f736600461507e565b612699565b34801561050857600080fd5b5061028a6105173660046152ef565b612a63565b34801561052857600080fd5b5061028a610537366004614e62565b612c6c565b34801561054857600080fd5b5061028a61055736600461532f565b612c96565b34801561056857600080fd5b5061028a610577366004614e62565b612cee565b34801561058857600080fd5b5061028a610597366004614e7f565b612d64565b3480156105a857600080fd5b5061028a6105b736600461534c565b612ef2565b6000806105c7613062565b9050806001600160a01b03166105e56033546001600160a01b031690565b6001600160a01b03160361062f5750506001600160a01b031660009081527f4239c2c8c3d9b94feb214b0f54d7c869ce1ceb63517be57644336cda4967a468602052604090205490565b60ce54604051631847c06b60e01b81526001600160a01b0383811660048301526000921690631847c06b90602401602060405180830381865afa15801561067a573d6000803e3d6000fd5b505050506040513d601f19601f8201168201806040525081019061069e91906153a8565b60ce5460405162f577a560e81b8152600481018390529192506001600160a01b03169063f577a5009060240160006040518083038186803b1580156106e257600080fd5b505afa1580156106f6573d6000803e3d6000fd5b50505060009182525060cb602090815260408083206001600160a01b039096168352949052929092205492915050565b50919050565b6107be6040805161024081018252600080825260208201819052918101829052606081018290526080810182905260a0810182905260c0810182905260e081018290526101008101829052610120810182905261014081018290529061016082019081526020016000815260200160008152602001600081526020016000815260200160608152602001600081525090565b60ca5482106107e85760405162461bcd60e51b81526004016107df906153c1565b60405180910390fd5b600060ca83815481106107fd576107fd6153f8565b60009182526020918290206040805161024081018252600e9093029091018054835260018101546001600160a01b039081169484019490945260028101548416918301919091526003810154831660608301526004808201546080840152600582015460a0840152600682015460c0840152600782015461ffff80821660e08601526201000082048116610100860152600160201b820416610120850152600160301b81049094166101408401529192909161016084019160ff600160d01b90910416908111156108d0576108d0614e98565b60048111156108e1576108e1614e98565b81526020016008820154815260200160098201548152602001600a8201548152602001600b8201548152602001600c8201805461091d9061540e565b80601f01602080910402602001604051908101604052809291908181526020018280546109499061540e565b80156109965780601f1061096b57610100808354040283529160200191610996565b820191906000526020600020905b81548152906001019060200180831161097957829003601f168201915b50505050508152602001600d82015481525050905060006109b5613062565b905081602001516001600160a01b0316816001600160a01b031614806109f0575081604001516001600160a01b0316816001600160a01b0316145b610a4d5760405162461bcd60e51b815260206004820152602860248201527f596f7520617265206e6f742072656c6174656420746f2074686973207472616e60448201526739b0b1ba34b7b71760c11b60648201526084016107df565b5092915050565b610a5c61309b565b6001600160a01b038116600081815260656020908152604091829020805460ff1916600117905590519182527f3ef8564460ada92419608d823c014975d98f8104d7d1e68c222967ac6814cd9791015b60405180910390a150565b6000610ac1613062565b600084815260d0602052604081205460ca8054939450909283908110610ae957610ae96153f8565b90600052602060002090600e020190508060070160069054906101000a90046001600160a01b03166001600160a01b0316836001600160a01b031614610b7c5760405162461bcd60e51b815260206004820152602260248201527f5468652063616c6c6572206d757374206265207468652061726269747261746f604482015261391760f11b60648201526084016107df565b60036007820154600160d01b900460ff166004811115610b9e57610b9e614e98565b14610bfa5760405162461bcd60e51b815260206004820152602660248201527f54686520646973707574652068617320616c7265616479206265656e2072657360448201526537b63b32b21760d11b60648201526084016107df565b84836001600160a01b03167f394027a5fa6e098a1191094d1719d6929b9abc535fcc0c8f448d6a4e7562227686604051610c3691815260200190565b60405180910390a3610c488285613114565b5050505050565b6001600160a01b037f0000000000000000000000000000000000000000000000000000000000000000163003610c975760405162461bcd60e51b81526004016107df90615442565b7f00000000000000000000000000000000000000000000000000000000000000006001600160a01b0316610ce0600080516020615d28833981519152546001600160a01b031690565b6001600160a01b031614610d065760405162461bcd60e51b81526004016107df9061548e565b610d0f81613852565b6040805160008082526020820190925261044d9183919061385a565b610d3361309b565b6001600160a01b038116600081815260656020908152604091829020805460ff1916905590519182527fd2d636efcad0cea42e170256f4c5d8b1cd81e47b855557edaf44014e6cc4cee69101610aac565b60cd5483906001600160a01b0316632fa117e582610da0613062565b6040516001600160e01b031960e085901b16815260048101929092526001600160a01b03166024820152604401602060405180830381865afa158015610dea573d6000803e3d6000fd5b505050506040513d601f19601f82011682018060405250810190610e0e91906154da565b610e2a5760405162461bcd60e51b81526004016107df906154fc565b60ca548310610e4b5760405162461bcd60e51b81526004016107df906153c1565b600060ca8481548110610e6057610e606153f8565b6000918252602090912060cd546040516331a9108f60e11b815260048101899052600e90930290910192506001600160a01b031690636352211e90602401602060405180830381865afa158015610ebb573d6000803e3d6000fd5b505050506040513d601f19601f82011682018060405250810190610edf919061553b565b60018201546001600160a01b03908116911614610f0e5760405162461bcd60e51b81526004016107df90615558565b60006007820154600160d01b900460ff166004811115610f3057610f30614e98565b14610f4d5760405162461bcd60e51b81526004016107df90615580565b8281600401541015610f975760405162461bcd60e51b815260206004820152601360248201527224b739bab33334b1b4b2b73a10333ab732399760691b60448201526064016107df565b82816004016000828254610fab91906155dc565b909155505060408051610240810182528254815260018301546001600160a01b03908116602083015260028401548116928201929092526003830154821660608201526004808401546080830152600584015460a0830152600684015460c0830152600784015461ffff80821660e08501526201000082048116610100850152600160201b820416610120840152600160301b8104909316610140830152610c48928491610160840191600160d01b900460ff169081111561106f5761106f614e98565b600481111561108057611080614e98565b81526020016008820154815260200160098201548152602001600a8201548152602001600b8201548152602001600c820180546110bc9061540e565b80601f01602080910402602001604051908101604052809291908181526020018280546110e89061540e565b80156111355780601f1061110a57610100808354040283529160200191611135565b820191906000526020600020905b81548152906001019060200180831161111857829003601f168201915b50505050508152602001600d82015481525050846139c5565b600060ca8281548110611163576111636153f8565b60009182526020909120600e90910201905060016007820154600160d01b900460ff16600481111561119757611197614e98565b146111fa5760405162461bcd60e51b815260206004820152602d60248201527f546865207472616e73616374696f6e206973206e6f742077616974696e67206f60448201526c37103a34329039b2b73232b91760991b60648201526084016107df565b600d810154600b82015461120e90426155dc565b101561125c5760405162461bcd60e51b815260206004820181905260248201527f54696d656f75742074696d6520686173206e6f7420706173736564207965742e60448201526064016107df565b6009810154156112cb57600981018054600091829055600183015460405191926001600160a01b0390911691839181818185875af1925050503d80600081146112c1576040519150601f19603f3d011682016040523d82523d6000602084013e6112c6565b606091505b505050505b6112d6826002613114565b5050565b60006112e4614dd2565b6112ec614e16565b6000806000806112fc8a8a613d3c565b60ce5460a0840151604051630b7a459360e31b81526004810191909152949a5092985090965094506000916001600160a01b0390911690635bd22c9890602401600060405180830381865afa158015611359573d6000803e3d6000fd5b505050506040513d6000823e601f3d908101601f191682016040526113819190810190615647565b905080606001519250866080015161ffff168660a00151146114255760ce546080880151604051630b7a459360e31b815261ffff90911660048201526000916001600160a01b031690635bd22c9890602401600060405180830381865afa1580156113f0573d6000803e3d6000fd5b505050506040513d6000823e601f3d908101601f191682016040526114189190810190615647565b60800151925061142d9050565b806080015191505b600061143e88606001518585613e76565b9050856001600160a01b0316611452613062565b6001600160a01b0316146114785760405162461bcd60e51b81526004016107df90615558565b8034146114bd5760405162461bcd60e51b81526020600482015260136024820152722737b716b6b0ba31b434b73390333ab732399760691b60448201526064016107df565b60408801516001600160a01b0316156115185760405162461bcd60e51b815260206004820152601760248201527f50726f706f73616c20746f6b656e206e6f74204554482e00000000000000000060448201526064016107df565b8a8860200151146115645760405162461bcd60e51b815260206004820152601660248201527524b731b7b93932b1ba10383937b837b9b0b61024a21760511b60448201526064016107df565b89604051602001611575919061575f565b604051602081830303815290604052805190602001208860a001516040516020016115a0919061575f565b60405160208183030381529060405280519060200120146116035760405162461bcd60e51b815260206004820152601d60248201527f50726f706f73616c206461746155726920686173206368616e6765642e00000060448201526064016107df565b60008751600381111561161857611618614e98565b146116605760405162461bcd60e51b815260206004820152601860248201527729b2b93b34b1b29039ba30ba3ab9903737ba1037b832b71760411b60448201526064016107df565b60008851600181111561167557611675614e98565b146116c25760405162461bcd60e51b815260206004820152601c60248201527f50726f706f73616c20737461747573206e6f742070656e64696e672e0000000060448201526064016107df565b60006116e18d8d87878760e00151886101000151896101200151613ee1565b905060cc60009054906101000a90046001600160a01b03166001600160a01b031663a7d5eaea8e8e846040518463ffffffff1660e01b8152600401611739939291909283526020830191909152604082015260600190565b600060405180830381600087803b15801561175357600080fd5b505af1158015611767573d6000803e3d6000fd5b5050505061177a818f8b602001516141f0565b9d9c50505050505050505050505050565b6001600160a01b037f00000000000000000000000000000000000000000000000000000000000000001630036117d35760405162461bcd60e51b81526004016107df90615442565b7f00000000000000000000000000000000000000000000000000000000000000006001600160a01b031661181c600080516020615d28833981519152546001600160a01b031690565b6001600160a01b0316146118425760405162461bcd60e51b81526004016107df9061548e565b61184b82613852565b6112d68282600161385a565b6000306001600160a01b037f000000000000000000000000000000000000000000000000000000000000000016146118f75760405162461bcd60e51b815260206004820152603860248201527f555550535570677261646561626c653a206d757374206e6f742062652063616c60448201527f6c6564207468726f7567682064656c656761746563616c6c000000000000000060648201526084016107df565b50600080516020615d2883398151915290565b6000611914614dd2565b61191c614e16565b60008060008061192c8a8a613d3c565b60ce5460a0840151604051630b7a459360e31b81526004810191909152949a5092985090965094506000916001600160a01b0390911690635bd22c9890602401600060405180830381865afa158015611989573d6000803e3d6000fd5b505050506040513d6000823e601f3d908101601f191682016040526119b19190810190615647565b905080606001519250866080015161ffff168660a0015114611a555760ce546080880151604051630b7a459360e31b815261ffff90911660048201526000916001600160a01b031690635bd22c9890602401600060405180830381865afa158015611a20573d6000803e3d6000fd5b505050506040513d6000823e601f3d908101601f19168201604052611a489190810190615647565b608001519250611a5d9050565b806080015191505b6000611a6e88606001518585613e76565b9050856001600160a01b0316611a82613062565b6001600160a01b031614611aa85760405162461bcd60e51b81526004016107df90615558565b600087516003811115611abd57611abd614e98565b14611b055760405162461bcd60e51b815260206004820152601860248201527729b2b93b34b1b29039ba30ba3ab9903737ba1037b832b71760411b60448201526064016107df565b600088516001811115611b1a57611b1a614e98565b14611b675760405162461bcd60e51b815260206004820152601c60248201527f50726f706f73616c20737461747573206e6f742070656e64696e672e0000000060448201526064016107df565b8a886020015114611bb35760405162461bcd60e51b815260206004820152601660248201527524b731b7b93932b1ba10383937b837b9b0b61024a21760511b60448201526064016107df565b89604051602001611bc4919061575f565b604051602081830303815290604052805190602001208860a00151604051602001611bef919061575f565b6040516020818303038152906040528051906020012014611c525760405162461bcd60e51b815260206004820181905260248201527f50726f706f73616c20646174612055524920617265206e6f7420657175616c2e60448201526064016107df565b6000611c718d8d87878760e00151886101000151896101200151613ee1565b905060cc60009054906101000a90046001600160a01b03166001600160a01b031663a7d5eaea8e8e846040518463ffffffff1660e01b8152600401611cc9939291909283526020830191909152604082015260600190565b600060405180830381600087803b158015611ce357600080fd5b505af1158015611cf7573d6000803e3d6000fd5b50505050611d0a878a6040015184614448565b61177a818f8b602001516141f0565b600060ca8281548110611d2e57611d2e6153f8565b600091825260209091206007600e9092020190810154909150600160301b90046001600160a01b0316611d735760405162461bcd60e51b81526004016107df9061577b565b60036007820154600160d01b900460ff166004811115611d9557611d95614e98565b10611db25760405162461bcd60e51b81526004016107df906157a8565b60028101546001600160a01b0316611dc8613062565b6001600160a01b031614611e1e5760405162461bcd60e51b815260206004820181905260248201527f5468652063616c6c6572206d757374206265207468652072656365697665722e60448201526064016107df565b600781015460405163f7434ea960e01b8152600091600160301b90046001600160a01b03169063f7434ea990611e5b90600c860190600401615899565b602060405180830381865afa158015611e78573d6000803e3d6000fd5b505050506040513d601f19601f82011682018060405250810190611e9c91906153a8565b90503482600a016000828254611eb291906158ac565b9091555050600a8201548114611f305760405162461bcd60e51b815260206004820152603760248201527f54686520726563656976657220666565206d75737420626520657175616c207460448201527f6f20746865206172626974726174696f6e20636f73742e00000000000000000060648201526084016107df565b42600b8301556040518390600080516020615d4883398151915290611f5c9060009060019034906158cf565b60405180910390a28082600901541015611fc55760078201805460ff60d01b1916600160d01b17905560405183907fc74b9f7dedf2887cd3c113b6d8da9cea19e55c1116e25f1f0e1b72d7543179b590611fb8906000906158f9565b60405180910390a2505050565b611fcf8382614506565b505050565b611fdc61309b565b611fe6600061477f565b565b600060ca8281548110611ffd57611ffd6153f8565b600091825260209091206007600e9092020190810154909150600160301b90046001600160a01b03166120425760405162461bcd60e51b81526004016107df9061577b565b60036007820154600160d01b900460ff16600481111561206457612064614e98565b106120815760405162461bcd60e51b81526004016107df906157a8565b60018101546001600160a01b0316612097613062565b6001600160a01b0316146120ed5760405162461bcd60e51b815260206004820152601e60248201527f5468652063616c6c6572206d757374206265207468652073656e6465722e000060448201526064016107df565b600781015460405163f7434ea960e01b8152600091600160301b90046001600160a01b03169063f7434ea99061212a90600c860190600401615899565b602060405180830381865afa158015612147573d6000803e3d6000fd5b505050506040513d601f19601f8201168201806040525081019061216b91906153a8565b90503482600901600082825461218191906158ac565b9091555050600982015481146121f75760405162461bcd60e51b815260206004820152603560248201527f5468652073656e64657220666565206d75737420626520657175616c20746f206044820152743a34329030b93134ba3930ba34b7b71031b7b9ba1760591b60648201526084016107df565b42600b8301556040518390600080516020615d488339815191529061222290600090819034906158cf565b60405180910390a28082600a01541015611fc55760078201805460ff60d01b1916600160d11b17905560405183907fc74b9f7dedf2887cd3c113b6d8da9cea19e55c1116e25f1f0e1b72d7543179b590611fb8906001906158f9565b600060ca8281548110612293576122936153f8565b600091825260209091206007600e9092020190810154909150600160301b90046001600160a01b03166122d85760405162461bcd60e51b81526004016107df9061577b565b6007810154600882015460405163093225f160e31b8152600160301b9092046001600160a01b0316916349912f8891349161231b9190600c87019060040161590c565b6000604051808303818588803b15801561233457600080fd5b505af1158015612348573d6000803e3d6000fd5b50505050505050565b60cd5483906001600160a01b0316632fa117e58261236d613062565b6040516001600160e01b031960e085901b16815260048101929092526001600160a01b03166024820152604401602060405180830381865afa1580156123b7573d6000803e3d6000fd5b505050506040513d601f19601f820116820180604052508101906123db91906154da565b6123f75760405162461bcd60e51b81526004016107df906154fc565b600060ca848154811061240c5761240c6153f8565b600091825260209091206007600e9092020190810154909150600160301b90046001600160a01b03166124515760405162461bcd60e51b81526004016107df9061577b565b60cd546040516331a9108f60e11b8152600481018790526000916001600160a01b031690636352211e90602401602060405180830381865afa15801561249b573d6000803e3d6000fd5b505050506040513d601f19601f820116820180604052508101906124bf919061553b565b60018301549091506001600160a01b03808316911614806124ef575060028201546001600160a01b038281169116145b61256b5760405162461bcd60e51b815260206004820152604160248201527f5468652063616c6c6572206d757374206265207468652073656e646572206f7260448201527f20746865207265636569766572206f722074686569722064656c6567617465736064820152601760f91b608482015260a4016107df565b60046007830154600160d01b900460ff16600481111561258d5761258d614e98565b106125f55760405162461bcd60e51b815260206004820152603260248201527f4d757374206e6f742073656e642065766964656e63652069662074686520646960448201527139b83aba329034b9903932b9b7b63b32b21760711b60648201526084016107df565b806001600160a01b0316858360070160069054906101000a90046001600160a01b03166001600160a01b03167fdccf2f8b2cc26eafcd61905cba744cff4b81d14740725f6376390dc6298a6a3c876040516126509190615925565b60405180910390a485857fd998ce0f89c38b0f93256f0b843a404a3a3c5055b75265623f7cb9c369a1dd62866040516126899190615925565b60405180910390a3505050505050565b60cd5483906001600160a01b0316632fa117e5826126b5613062565b6040516001600160e01b031960e085901b16815260048101929092526001600160a01b03166024820152604401602060405180830381865afa1580156126ff573d6000803e3d6000fd5b505050506040513d601f19601f8201168201806040525081019061272391906154da565b61273f5760405162461bcd60e51b81526004016107df906154fc565b60ca5483106127605760405162461bcd60e51b81526004016107df906153c1565b600060ca8481548110612775576127756153f8565b6000918252602090912060cd546040516331a9108f60e11b815260048101899052600e90930290910192506001600160a01b031690636352211e90602401602060405180830381865afa1580156127d0573d6000803e3d6000fd5b505050506040513d601f19601f820116820180604052508101906127f4919061553b565b60028201546001600160a01b039081169116146128235760405162461bcd60e51b81526004016107df90615558565b60006007820154600160d01b900460ff16600481111561284557612845614e98565b146128625760405162461bcd60e51b81526004016107df90615580565b82816004015410156128ac5760405162461bcd60e51b815260206004820152601360248201527224b739bab33334b1b4b2b73a10333ab732399760691b60448201526064016107df565b828160040160008282546128c091906155dc565b909155505060408051610240810182528254815260018301546001600160a01b03908116602083015260028401548116928201929092526003830154821660608201526004808401546080830152600584015460a0830152600684015460c0830152600784015461ffff80821660e08501526201000082048116610100850152600160201b820416610120840152600160301b8104909316610140830152610c48928491610160840191600160d01b900460ff169081111561298457612984614e98565b600481111561299557612995614e98565b81526020016008820154815260200160098201548152602001600a8201548152602001600b8201548152602001600c820180546129d19061540e565b80601f01602080910402602001604051908101604052809291908181526020018280546129fd9061540e565b8015612a4a5780601f10612a1f57610100808354040283529160200191612a4a565b820191906000526020600020905b815481529060010190602001808311612a2d57829003601f168201915b50505050508152602001600d82015481525050846147d1565b6000612a6d613062565b6001600160a01b0316612a886033546001600160a01b031690565b6001600160a01b031603612ac6578215612ab45760405162461bcd60e51b81526004016107df90615558565b5060cf546001600160a01b0316612b91565b60ce5460405162f577a560e81b8152600481018590526001600160a01b039091169063f577a5009060240160006040518083038186803b158015612b0957600080fd5b505afa158015612b1d573d6000803e3d6000fd5b505060ce546040516331a9108f60e11b8152600481018790526001600160a01b039091169250636352211e9150602401602060405180830381865afa158015612b6a573d6000803e3d6000fd5b505050506040513d601f19601f82011682018060405250810190612b8e919061553b565b90505b600083815260cb602090815260408083206001600160a01b038616845290915290205480612bf45760405162461bcd60e51b815260206004820152601060248201526f6e6f7468696e6720746f20636c61696d60801b60448201526064016107df565b600084815260cb602090815260408083206001600160a01b0387168452909152812055612c22828483614893565b60408051858152602081018390526001600160a01b038516917f2227733fc4c8a9034cb58087dcf6995128b9c0233b038b03366aaf30c92b92d6910160405180910390a250505050565b612c7461309b565b60cf80546001600160a01b0319166001600160a01b0392909216919091179055565b612c9e61309b565b60cf805461ffff60a01b1916600160a01b61ffff8416908102919091179091556040519081527f8339189e972f7fba792126e752aa8485af08710bce4a041c5bc3f9858acd713090602001610aac565b612cf661309b565b6001600160a01b038116612d5b5760405162461bcd60e51b815260206004820152602660248201527f4f776e61626c653a206e6577206f776e657220697320746865207a65726f206160448201526564647265737360d01b60648201526084016107df565b61044d8161477f565b600060ca8281548110612d7957612d796153f8565b60009182526020909120600e90910201905060026007820154600160d01b900460ff166004811115612dad57612dad614e98565b14612e125760405162461bcd60e51b815260206004820152602f60248201527f546865207472616e73616374696f6e206973206e6f742077616974696e67206f60448201526e37103a3432903932b1b2b4bb32b91760891b60648201526084016107df565b600d810154600b820154612e2690426155dc565b1015612e745760405162461bcd60e51b815260206004820181905260248201527f54696d656f75742074696d6520686173206e6f7420706173736564207965742e60448201526064016107df565b600081600a0154600014612ee75750600a81018054600091829055600283015460405191926001600160a01b0390911691839181818185875af1925050503d8060008114612ede576040519150601f19603f3d011682016040523d82523d6000602084013e612ee3565b606091505b5050505b611fcf836001613114565b600054610100900460ff1615808015612f125750600054600160ff909116105b80612f2c5750303b158015612f2c575060005460ff166001145b612f8f5760405162461bcd60e51b815260206004820152602e60248201527f496e697469616c697a61626c653a20636f6e747261637420697320616c72656160448201526d191e481a5b9a5d1a585b1a5e995960921b60648201526084016107df565b6000805460ff191660011790558015612fb2576000805461ff0019166101001790555b612fba61496d565b612fc261499c565b60cc80546001600160a01b038088166001600160a01b03199283161790925560cd805487841690831617905560ce805486841690831617905560cf8054928516929091169190911790556130166064612c96565b8015610c48576000805461ff0019169055604051600181527f7f26b83ff96e1f2b6a682f133852f6798a09c465da95921460cefb38474024989060200160405180910390a15050505050565b60006014361080159061308457503360009081526065602052604090205460ff165b15613096575060131936013560601c90565b503390565b6130a3613062565b6001600160a01b03166130be6033546001600160a01b031690565b6001600160a01b031614611fe65760405162461bcd60e51b815260206004820181905260248201527f4f776e61626c653a2063616c6c6572206973206e6f7420746865206f776e657260448201526064016107df565b600060ca8381548110613129576131296153f8565b90600052602060002090600e02019050600260ff1682111561317f5760405162461bcd60e51b815260206004820152600f60248201526e24b73b30b634b210393ab634b7339760891b60448201526064016107df565b60018101546002820154600483018054600985018054600a87018054600095869055928590559390935560078601805460ff60d01b1916600160d21b1790556001600160a01b03948516949093169290919060001987016132f1576040516001600160a01b038616908390600081818185875af1925050503d8060008114613223576040519150601f19603f3d011682016040523d82523d6000602084013e613228565b606091505b505060408051610240810182528854815260018901546001600160a01b03908116602083015260028a01548116928201929092526003890154821660608201526004808a0154608083015260058a015460a083015260068a015460c083015260078a015461ffff80821660e08501526201000082048116610100850152600160201b820416610120840152600160301b81049093166101408301526132ec935090918991610160840191600160d01b900460ff169081111561298457612984614e98565b61380e565b600119870161340c576040516001600160a01b038516908290600081818185875af1925050503d8060008114613343576040519150601f19603f3d011682016040523d82523d6000602084013e613348565b606091505b505060408051610240810182528854815260018901546001600160a01b03908116602083015260028a01548116928201929092526003890154821660608201526004808a0154608083015260058a015460a083015260068a015460c083015260078a015461ffff80821660e08501526201000082048116610100850152600160201b820416610120840152600160301b81049093166101408301526132ec935090918991610160840191600160d01b900460ff169081111561106f5761106f614e98565b6000613419600284615938565b90506000613428600286615938565b60408051610240810182528a54815260018b01546001600160a01b03908116602083015260028c015481169282019290925260038b0154821660608201526004808c0154608083015260058c015460a083015260068c015460c083015260078c015461ffff80821660e08501526201000082048116610100850152600160201b820416610120840152600160301b81049093166101408301529293506135cb9290918b91610160840191600160d01b900460ff16908111156134ec576134ec614e98565b60048111156134fd576134fd614e98565b81526020016008820154815260200160098201548152602001600a8201548152602001600b8201548152602001600c820180546135399061540e565b80601f01602080910402602001604051908101604052809291908181526020018280546135659061540e565b80156135b25780601f10613587576101008083540402835291602001916135b2565b820191906000526020600020905b81548152906001019060200180831161359557829003601f168201915b50505050508152602001600d82015481525050826147d1565b60408051610240810182528954815260018a01546001600160a01b03908116602083015260028b015481169282019290925260038a0154821660608201526004808b0154608083015260058b015460a083015260068b015460c083015260078b015461ffff80821660e08501526201000082048116610100850152600160201b820416610120840152600160301b8104909316610140830152613769928b91610160840191600160d01b900460ff169081111561368a5761368a614e98565b600481111561369b5761369b614e98565b81526020016008820154815260200160098201548152602001600a8201548152602001600b8201548152602001600c820180546136d79061540e565b80601f01602080910402602001604051908101604052809291908181526020018280546137039061540e565b80156137505780601f1061372557610100808354040283529160200191613750565b820191906000526020600020905b81548152906001019060200180831161373357829003601f168201915b50505050508152602001600d82015481525050826139c5565b6040516001600160a01b038816908390600081818185875af1925050503d80600081146137b2576040519150601f19603f3d011682016040523d82523d6000602084013e6137b7565b606091505b50506040516001600160a01b03881691508390600081818185875af1925050503d8060008114613803576040519150601f19603f3d011682016040523d82523d6000602084013e613808565b606091505b50505050505b877f76b363d70472d47d20e4119f3625c05ed37ca51b1d9e1cd8b87d8c20530640f38860405161384091815260200190565b60405180910390a25050505050505050565b61044d61309b565b7f4910fdfa16fed3260ed0e7147f7cc6da11a60208b5b9406d12a635614ffd91435460ff161561388d57611fcf836149c3565b826001600160a01b03166352d1902d6040518163ffffffff1660e01b8152600401602060405180830381865afa9250505080156138e7575060408051601f3d908101601f191682019092526138e4918101906153a8565b60015b61394a5760405162461bcd60e51b815260206004820152602e60248201527f45524331393637557067726164653a206e657720696d706c656d656e7461746960448201526d6f6e206973206e6f74205555505360901b60648201526084016107df565b600080516020615d2883398151915281146139b95760405162461bcd60e51b815260206004820152602960248201527f45524331393637557067726164653a20756e737570706f727465642070726f786044820152681a58589b195555525160ba1b60648201526084016107df565b50611fcf838383614a5f565b60cc5460a083015160405163ef0e239b60e01b815260048101919091526000916001600160a01b03169063ef0e239b90602401600060405180830381865afa158015613a15573d6000803e3d6000fd5b505050506040513d6000823e601f3d908101601f19168201604052613a3d919081019061595a565b60a09081015160cc549185015160c086015160405163aba2100960e01b8152600481019290925260248201529092506000916001600160a01b03169063aba2100990604401600060405180830381865afa158015613a9f573d6000803e3d6000fd5b505050506040513d6000823e601f3d908101601f19168201604052613ac79190810190615a0b565b6080015161ffff169050600061271061ffff16848660e0015161ffff16613aee9190615ac5565b613af89190615938565b9050600061271061ffff168587610100015161ffff16613b189190615ac5565b613b229190615938565b9050600061271061ffff168688610120015161ffff16613b429190615ac5565b613b4c9190615938565b600080805260cb602090815260608a01516001600160a01b031682527f4239c2c8c3d9b94feb214b0f54d7c869ce1ceb63517be57644336cda4967a46890526040812080549293508592909190613ba49084906158ac565b9091555050600085815260cb6020908152604080832060608b01516001600160a01b0316845290915281208054849290613bdf9084906158ac565b9091555050600084815260cb6020908152604080832060608b01516001600160a01b0316845290915281208054839290613c1a9084906158ac565b92505081905550613c348760400151886060015188614893565b60608088015160a089015160408051898152602081019290925281018590526001600160a01b03909116917f17c48ab8e1617182f35ae77fd7da7f4e15dedf7018aa371a4481c20c790b6546910160405180910390a260608088015160a089015160408051888152602081019290925281018590526001600160a01b03909116917f3476ed3eea2cdac584273bc8830824c8ca42ca2a99e9f144a87a1cdbbf9dd15a910160405180910390a28651606088015160a08901516040517f2ab2a30b19f7bc6e386d4ee60aa21ed23c127ce9fe26903da97edd54bad0375a93613d229390926000928c9190615adc565b60405180910390a16123488760a001518860800151614a84565b613d44614dd2565b613d4c614e16565b6000806000613d5b8787614b27565b90506000613d6888614bb0565b60cd5460208201516040516331a9108f60e11b81529293506000926001600160a01b0390921691636352211e91613da59160040190815260200190565b602060405180830381865afa158015613dc2573d6000803e3d6000fd5b505050506040513d601f19601f82011682018060405250810190613de6919061553b565b60cd5460208501516040516331a9108f60e11b81529293506000926001600160a01b0390921691636352211e91613e239160040190815260200190565b602060405180830381865afa158015613e40573d6000803e3d6000fd5b505050506040513d601f19601f82011682018060405250810190613e64919061553b565b939a9299509097509195509350505050565b6000612710613e8961ffff841686615ac5565b613e9761ffff861687615ac5565b60cf54613eaf90600160a01b900461ffff1688615ac5565b613eb991906158ac565b613ec391906158ac565b613ecd9190615938565b613ed790856158ac565b90505b9392505050565b6000613eeb614dd2565b613ef3614e16565b600080613f008c8c613d3c565b80945081955082965083975050505050600060ca80549050905060ca604051806102400160405280838152602001856001600160a01b03168152602001846001600160a01b0316815260200187604001516001600160a01b03168152602001876060015181526020018f81526020018e815260200160cf60149054906101000a900461ffff1661ffff1681526020018d61ffff1681526020018c61ffff1681526020018b6001600160a01b0316815260200160006004811115613fc557613fc5614e98565b81526020016000815260200160008152602001600081526020014281526020018a81526020018981525090806001815401808255809150506001900390600052602060002090600e02016000909190919091506000820151816000015560208201518160010160006101000a8154816001600160a01b0302191690836001600160a01b0316021790555060408201518160020160006101000a8154816001600160a01b0302191690836001600160a01b0316021790555060608201518160030160006101000a8154816001600160a01b0302191690836001600160a01b031602179055506080820151816004015560a0820151816005015560c0820151816006015560e08201518160070160006101000a81548161ffff021916908361ffff1602179055506101008201518160070160026101000a81548161ffff021916908361ffff1602179055506101208201518160070160046101000a81548161ffff021916908361ffff1602179055506101408201518160070160066101000a8154816001600160a01b0302191690836001600160a01b0316021790555061016082015181600701601a6101000a81548160ff0219169083600481111561418b5761418b614e98565b021790555061018082015160088201556101a082015160098201556101c0820151600a8201556101e0820151600b820155610200820151600c8201906141d19082615b5e565b506102209190910151600d909101559c9b505050505050505050505050565b600060ca8481548110614205576142056153f8565b60009182526020822060cd54600e92909202016001810154604051631847c06b60e01b81526001600160a01b03918216600482015291945090911690631847c06b90602401602060405180830381865afa158015614267573d6000803e3d6000fd5b505050506040513d601f19601f8201168201806040525081019061428b91906153a8565b60cd546002840154604051631847c06b60e01b81526001600160a01b039182166004820152929350600092911690631847c06b90602401602060405180830381865afa1580156142df573d6000803e3d6000fd5b505050506040513d601f19601f8201168201806040525081019061430391906153a8565b90507f1ccb16db9d1499f0b4e030d49bd6575a6ac51f3970af8752ac277fdf4505763b8683838660030160009054906101000a90046001600160a01b03168760040154886005015460cf60149054906101000a900461ffff168a60070160029054906101000a900461ffff168b60070160049054906101000a900461ffff168c60070160069054906101000a90046001600160a01b03168d600c018e600d01546040516143bb9c9b9a99989796959493929190615c1e565b60405180910390a1857f61606860eb6c87306811e2695215385101daab53bd6ab4e9f9049aead9363c7d866040516143f39190615925565b60405180910390a26005830154604080519182526020820186905281018790527fffc7643b52fc7134d23e37eac3c5c4bdad5cf04655528f24663504e15adc4a4a9060600160405180910390a1505050505050565b6040516323b872dd60e01b81526001600160a01b038481166004830152306024830152604482018390528316906323b872dd906064016020604051808303816000875af115801561449d573d6000803e3d6000fd5b505050506040513d601f19601f820116820180604052508101906144c191906154da565b611fcf5760405162461bcd60e51b8152602060048201526016602482015275151c985b9cd9995c881b5d5cdd081b9bdd0819985a5b60521b60448201526064016107df565b600060ca838154811061451b5761451b6153f8565b60009182526020909120600e9091020160078101805460ff60d01b1916600360d01b179081905560405163c13517e160e01b8152919250600160301b90046001600160a01b031690819063c13517e190859061458190600290600c880190600401615ca5565b60206040518083038185885af115801561459f573d6000803e3d6000fd5b50505050506040513d601f19601f820116820180604052508101906145c491906153a8565b60088301818155600091825260d0602090815260409283902087905590548251878152918201879052916001600160a01b038416917f74baab670a4015ab2f1b467c5252a96141a2573f2908e58a92081e80d3cfde3d910160405180910390a382826009015411156146cf57600083836009015461464291906155dc565b6009840185905560018401546040519192506001600160a01b0316908290600081818185875af1925050503d8060008114614699576040519150601f19603f3d011682016040523d82523d6000602084013e61469e565b606091505b50505084600080516020615d4883398151915260016000346040516146c5939291906158cf565b60405180910390a2505b8282600a015411156147795760008383600a01546146ed91906155dc565b600a840185905560028401546040519192506001600160a01b0316908290600081818185875af1925050503d8060008114614744576040519150601f19603f3d011682016040523d82523d6000602084013e614749565b606091505b50505084600080516020615d488339815191526001803460405161476f939291906158cf565b60405180910390a2505b50505050565b603380546001600160a01b038381166001600160a01b0319831681179093556040519116919082907f8be0079c531659141344cd1fd0a4f28419497f9722a3daafe3b4186f6b6457e090600090a35050565b600061271061ffff16828461010001518561012001518660e001516147f69190615cc1565b6148009190615cc1565b61ffff1661480e9190615ac5565b6148189190615938565b61482290836158ac565b90506148378360200151846060015183614893565b8251606084015160a08501516040517f2ab2a30b19f7bc6e386d4ee60aa21ed23c127ce9fe26903da97edd54bad0375a93614879939092600192889190615adc565b60405180910390a1611fcf8360a001518460800151614a84565b6001600160a01b0382166000036148fa576040516001600160a01b038416908290600081818185875af1925050503d80600081146148ed576040519150601f19603f3d011682016040523d82523d6000602084013e6148f2565b606091505b505050505050565b60405163a9059cbb60e01b81526001600160a01b0384811660048301526024820183905283169063a9059cbb906044016020604051808303816000875af1158015614949573d6000803e3d6000fd5b505050506040513d601f19601f8201168201806040525081019061477991906154da565b600054610100900460ff166149945760405162461bcd60e51b81526004016107df90615cdc565b611fe6614c29565b600054610100900460ff16611fe65760405162461bcd60e51b81526004016107df90615cdc565b6001600160a01b0381163b614a305760405162461bcd60e51b815260206004820152602d60248201527f455243313936373a206e657720696d706c656d656e746174696f6e206973206e60448201526c1bdd08184818dbdb9d1c9858dd609a1b60648201526084016107df565b600080516020615d2883398151915280546001600160a01b0319166001600160a01b0392909216919091179055565b614a6883614c60565b600082511180614a755750805b15611fcf576147798383614ca0565b806000036112d65760cc54604051631271956760e21b8152600481018490526001600160a01b03909116906349c6559c90602401600060405180830381600087803b158015614ad257600080fd5b505af1158015614ae6573d6000803e3d6000fd5b505050507f6bef1b5e95b741d6e665eb9b5c2d3e1203c46a771451055a9d41e0b8ff4510b782604051614b1b91815260200190565b60405180910390a15050565b614b2f614dd2565b60cc5460405163aba2100960e01b815260048101859052602481018490526001600160a01b039091169063aba2100990604401600060405180830381865afa158015614b7f573d6000803e3d6000fd5b505050506040513d6000823e601f3d908101601f19168201604052614ba79190810190615a0b565b90505b92915050565b614bb8614e16565b60cc5460405163ef0e239b60e01b8152600481018490526001600160a01b039091169063ef0e239b90602401600060405180830381865afa158015614c01573d6000803e3d6000fd5b505050506040513d6000823e601f3d908101601f19168201604052614baa919081019061595a565b600054610100900460ff16614c505760405162461bcd60e51b81526004016107df90615cdc565b611fe6614c5b613062565b61477f565b614c69816149c3565b6040516001600160a01b038216907fbc7cd75a20ee27fd9adebab32041f755214dbc6bffa90cc0225b39da2e5c2d3b90600090a250565b60606001600160a01b0383163b614d085760405162461bcd60e51b815260206004820152602660248201527f416464726573733a2064656c65676174652063616c6c20746f206e6f6e2d636f6044820152651b9d1c9858dd60d21b60648201526084016107df565b600080846001600160a01b031684604051614d23919061575f565b600060405180830381855af49150503d8060008114614d5e576040519150601f19603f3d011682016040523d82523d6000602084013e614d63565b606091505b5091509150614d8b8282604051806060016040528060278152602001615d6860279139614d94565b95945050505050565b60608315614da3575081613eda565b613eda8383815115614db85781518083602001fd5b8060405162461bcd60e51b81526004016107df9190615925565b6040805160c0810190915280600081526020016000815260200160006001600160a01b0316815260200160008152602001600061ffff168152602001606081525090565b6040805160c08101909152806000815260200160008152602001600081526020016060815260200160008152602001600081525090565b6001600160a01b038116811461044d57600080fd5b600060208284031215614e7457600080fd5b8135613eda81614e4d565b600060208284031215614e9157600080fd5b5035919050565b634e487b7160e01b600052602160045260246000fd5b60058110614ebe57614ebe614e98565b9052565b60005b83811015614edd578181015183820152602001614ec5565b50506000910152565b60008151808452614efe816020860160208601614ec2565b601f01601f19169290920160200192915050565b602081528151602082015260006020830151614f3960408401826001600160a01b03169052565b5060408301516001600160a01b03811660608401525060608301516001600160a01b038116608084015250608083015160a083015260a083015160c083015260c083015160e083015260e0830151610100614f998185018361ffff169052565b8401519050610120614fb08482018361ffff169052565b8401519050610140614fc78482018361ffff169052565b8401519050610160614fe3848201836001600160a01b03169052565b8401519050610180614ff784820183614eae565b8401516101a0848101919091528401516101c0808501919091528401516101e080850191909152840151610200808501919091528401516102406102208086018290529192509061504c610260860184614ee6565b9501519301929092525090919050565b6000806040838503121561506f57600080fd5b50508035926020909101359150565b60008060006060848603121561509357600080fd5b505081359360208301359350604090920135919050565b634e487b7160e01b600052604160045260246000fd5b604051610140810167ffffffffffffffff811182821017156150e4576150e46150aa565b60405290565b60405160c0810167ffffffffffffffff811182821017156150e4576150e46150aa565b604051601f8201601f1916810167ffffffffffffffff81118282101715615136576151366150aa565b604052919050565b600067ffffffffffffffff821115615158576151586150aa565b50601f01601f191660200190565b60006151796151748461513e565b61510d565b905082815283838301111561518d57600080fd5b828260208301376000602084830101529392505050565b600082601f8301126151b557600080fd5b614ba783833560208501615166565b600080600080608085870312156151da57600080fd5b843567ffffffffffffffff808211156151f257600080fd5b6151fe888389016151a4565b95506020870135945060408701359350606087013591508082111561522257600080fd5b5061522f878288016151a4565b91505092959194509250565b6000806040838503121561524e57600080fd5b823561525981614e4d565b9150602083013567ffffffffffffffff81111561527557600080fd5b8301601f8101851361528657600080fd5b61529585823560208401615166565b9150509250929050565b6000806000606084860312156152b457600080fd5b8335925060208401359150604084013567ffffffffffffffff8111156152d957600080fd5b6152e5868287016151a4565b9150509250925092565b6000806040838503121561530257600080fd5b82359150602083013561531481614e4d565b809150509250929050565b61ffff8116811461044d57600080fd5b60006020828403121561534157600080fd5b8135613eda8161531f565b6000806000806080858703121561536257600080fd5b843561536d81614e4d565b9350602085013561537d81614e4d565b9250604085013561538d81614e4d565b9150606085013561539d81614e4d565b939692955090935050565b6000602082840312156153ba57600080fd5b5051919050565b6020808252601b908201527f4e6f7420612076616c6964207472616e73616374696f6e2069642e0000000000604082015260600190565b634e487b7160e01b600052603260045260246000fd5b600181811c9082168061542257607f821691505b60208210810361072657634e487b7160e01b600052602260045260246000fd5b6020808252602c908201527f46756e6374696f6e206d7573742062652063616c6c6564207468726f7567682060408201526b19195b1959d85d1958d85b1b60a21b606082015260800190565b6020808252602c908201527f46756e6374696f6e206d7573742062652063616c6c6564207468726f7567682060408201526b6163746976652070726f787960a01b606082015260800190565b6000602082840312156154ec57600080fd5b81518015158114613eda57600080fd5b6020808252601590820152744e6f74206f776e6572206f722064656c656761746560581b604082015260600190565b805161553681614e4d565b919050565b60006020828403121561554d57600080fd5b8151613eda81614e4d565b6020808252600e908201526d20b1b1b2b9b9903232b734b2b21760911b604082015260600190565b60208082526026908201527f546865207472616e73616374696f6e2073686f756c646e277420626520646973604082015265383aba32b21760d11b606082015260800190565b634e487b7160e01b600052601160045260246000fd5b81810381811115614baa57614baa6155c6565b600082601f83011261560057600080fd5b815161560e6151748261513e565b81815284602083860101111561562357600080fd5b615634826020830160208701614ec2565b949350505050565b80516155368161531f565b60006020828403121561565957600080fd5b815167ffffffffffffffff8082111561567157600080fd5b90830190610140828603121561568657600080fd5b61568e6150c0565b825181526020830151828111156156a457600080fd5b6156b0878286016155ef565b6020830152506040830151828111156156c857600080fd5b6156d4878286016155ef565b6040830152506156e66060840161563c565b60608201526156f76080840161563c565b608082015260a083015160a082015260c083015160c082015261571c60e0840161552b565b60e0820152610100808401518381111561573557600080fd5b615741888287016155ef565b91830191909152506101209283015192810192909252509392505050565b60008251615771818460208701614ec2565b9190910192915050565b60208082526013908201527220b93134ba3930ba37b9103737ba1039b2ba1760691b604082015260600190565b6020808252604e908201527f446973707574652068617320616c7265616479206265656e206372656174656460408201527f206f72206265636175736520746865207472616e73616374696f6e206861732060608201526d3132b2b71032bc32b1baba32b21760911b608082015260a00190565b600081546158298161540e565b80855260206001838116801561584657600181146158605761588e565b60ff1985168884015283151560051b88018301955061588e565b866000528260002060005b858110156158865781548a820186015290830190840161586b565b890184019650505b505050505092915050565b602081526000614ba7602083018461581c565b80820180821115614baa57614baa6155c6565b6002811061044d5761044d614e98565b606081016158dc856158bf565b8482526158e8846158bf565b602082019390935260400152919050565b60208101615906836158bf565b91905290565b828152604060208201526000613ed7604083018461581c565b602081526000614ba76020830184614ee6565b60008261595557634e487b7160e01b600052601260045260246000fd5b500490565b60006020828403121561596c57600080fd5b815167ffffffffffffffff8082111561598457600080fd5b9083019060c0828603121561599857600080fd5b6159a06150ea565b8251600481106159af57600080fd5b8082525060208301516020820152604083015160408201526060830151828111156159d957600080fd5b6159e5878286016155ef565b6060830152506080830151608082015260a083015160a082015280935050505092915050565b600060208284031215615a1d57600080fd5b815167ffffffffffffffff80821115615a3557600080fd5b9083019060c08286031215615a4957600080fd5b615a516150ea565b825160028110615a6057600080fd5b815260208381015190820152615a786040840161552b565b604082015260608301516060820152615a936080840161563c565b608082015260a083015182811115615aaa57600080fd5b615ab6878286016155ef565b60a08301525095945050505050565b8082028115828204841417614baa57614baa6155c6565b85815260a08101615aec866158bf565b60208201959095526001600160a01b039390931660408401526060830191909152608090910152919050565b601f821115611fcf57600081815260208120601f850160051c81016020861015615b3f5750805b601f850160051c820191505b818110156148f257828155600101615b4b565b815167ffffffffffffffff811115615b7857615b786150aa565b615b8c81615b86845461540e565b84615b18565b602080601f831160018114615bc15760008415615ba95750858301515b600019600386901b1c1916600185901b1785556148f2565b600085815260208120601f198616915b82811015615bf057888601518255948401946001909101908401615bd1565b5085821015615c0e5787850151600019600388901b60f8161c191681555b5050505050600190811b01905550565b8c8152602081018c9052604081018b90526001600160a01b038a81166060830152608082018a905260a0820189905261ffff88811660c084015287811660e0840152861661010083015284166101208201526101806101408201819052600090615c8a8382018661581c565b915050826101608301529d9c50505050505050505050505050565b60ff83168152604060208201526000613ed7604083018461581c565b61ffff818116838216019080821115610a4d57610a4d6155c6565b6020808252602b908201527f496e697469616c697a61626c653a20636f6e7472616374206973206e6f74206960408201526a6e697469616c697a696e6760a81b60608201526080019056fe360894a13ba1a3210667c828492db98dca3e2076cc3735a920a3ca505d382bbc73e533bc8a993eccbc1023beebad0020f6b6c3639f83062f00fc194b4d1172ba416464726573733a206c6f772d6c6576656c2064656c65676174652063616c6c206661696c6564a2646970667358221220f5ee4017cf08381f7cc68c06dccacf540b24e7b36be37669475cbbc94ebf853c64736f6c63430008110033",
  "linkReferences": {},
  "deployedLinkReferences": {}
}