{
  "_format": "hh-sol-artifact-1",
  "contractName": "TalentLayerPlatformID",
  "sourceName": "contracts/TalentLayerPlatformID.sol",
  "abi": [
    {
      "inputs": [],
      "stateMutability": "nonpayable",
      "type": "constructor"
    },
    {
      "anonymous": false,
      "inputs": [
        {
          "indexed": false,
          "internalType": "address",
          "name": "previousAdmin",
          "type": "address"
        },
        {
          "indexed": false,
          "internalType": "address",
          "name": "newAdmin",
          "type": "address"
        }
      ],
      "name": "AdminChanged",
      "type": "event"
    },
    {
      "anonymous": false,
      "inputs": [
        {
          "indexed": true,
          "internalType": "address",
          "name": "owner",
          "type": "address"
        },
        {
          "indexed": true,
          "internalType": "address",
          "name": "approved",
          "type": "address"
        },
        {
          "indexed": true,
          "internalType": "uint256",
          "name": "tokenId",
          "type": "uint256"
        }
      ],
      "name": "Approval",
      "type": "event"
    },
    {
      "anonymous": false,
      "inputs": [
        {
          "indexed": true,
          "internalType": "address",
          "name": "owner",
          "type": "address"
        },
        {
          "indexed": true,
          "internalType": "address",
          "name": "operator",
          "type": "address"
        },
        {
          "indexed": false,
          "internalType": "bool",
          "name": "approved",
          "type": "bool"
        }
      ],
      "name": "ApprovalForAll",
      "type": "event"
    },
    {
      "anonymous": false,
      "inputs": [
        {
          "indexed": false,
          "internalType": "uint256",
          "name": "_platformId",
          "type": "uint256"
        },
        {
          "indexed": false,
          "internalType": "uint256",
          "name": "_arbitrationFeeTimeout",
          "type": "uint256"
        }
      ],
      "name": "ArbitrationFeeTimeoutUpdated",
      "type": "event"
    },
    {
      "anonymous": false,
      "inputs": [
        {
          "indexed": false,
          "internalType": "uint256",
          "name": "_platformId",
          "type": "uint256"
        },
        {
          "indexed": false,
          "internalType": "contract Arbitrator",
          "name": "_arbitrator",
          "type": "address"
        },
        {
          "indexed": false,
          "internalType": "bytes",
          "name": "_extraData",
          "type": "bytes"
        }
      ],
      "name": "ArbitratorUpdated",
      "type": "event"
    },
    {
      "anonymous": false,
      "inputs": [
        {
          "indexed": true,
          "internalType": "address",
          "name": "beacon",
          "type": "address"
        }
      ],
      "name": "BeaconUpgraded",
      "type": "event"
    },
    {
      "anonymous": false,
      "inputs": [
        {
          "indexed": true,
          "internalType": "uint256",
          "name": "_tokenId",
          "type": "uint256"
        },
        {
          "indexed": false,
          "internalType": "string",
          "name": "_newCid",
          "type": "string"
        }
      ],
      "name": "CidUpdated",
      "type": "event"
    },
    {
      "anonymous": false,
      "inputs": [
        {
          "indexed": false,
          "internalType": "uint8",
          "name": "version",
          "type": "uint8"
        }
      ],
      "name": "Initialized",
      "type": "event"
    },
    {
      "anonymous": false,
      "inputs": [
        {
          "indexed": false,
          "internalType": "uint256",
          "name": "_minArbitrationFeeTimeout",
          "type": "uint256"
        }
      ],
      "name": "MinArbitrationFeeTimeoutUpdated",
      "type": "event"
    },
    {
      "anonymous": false,
      "inputs": [
        {
          "indexed": true,
          "internalType": "address",
          "name": "_platformOwnerAddress",
          "type": "address"
        },
        {
          "indexed": false,
          "internalType": "uint256",
          "name": "_tokenId",
          "type": "uint256"
        },
        {
          "indexed": false,
          "internalType": "string",
          "name": "_platformName",
          "type": "string"
        },
        {
          "indexed": false,
          "internalType": "uint256",
          "name": "_fee",
          "type": "uint256"
        },
        {
          "indexed": false,
          "internalType": "uint256",
          "name": "_arbitrationFeeTimeout",
          "type": "uint256"
        }
      ],
      "name": "Mint",
      "type": "event"
    },
    {
      "anonymous": false,
      "inputs": [
        {
          "indexed": false,
          "internalType": "uint256",
          "name": "_mintFee",
          "type": "uint256"
        }
      ],
      "name": "MintFeeUpdated",
      "type": "event"
    },
    {
      "anonymous": false,
      "inputs": [
        {
          "indexed": false,
          "internalType": "uint256",
          "name": "_platformId",
          "type": "uint256"
        },
        {
          "indexed": false,
          "internalType": "uint16",
          "name": "_originServiceFeeRate",
          "type": "uint16"
        }
      ],
      "name": "OriginServiceFeeRateUpdated",
      "type": "event"
    },
    {
      "anonymous": false,
      "inputs": [
        {
          "indexed": false,
          "internalType": "uint256",
          "name": "_platformId",
          "type": "uint256"
        },
        {
          "indexed": false,
          "internalType": "uint16",
          "name": "_originValidatedProposalFeeRate",
          "type": "uint16"
        }
      ],
      "name": "OriginValidatedProposalFeeRateUpdated",
      "type": "event"
    },
    {
      "anonymous": false,
      "inputs": [
        {
          "indexed": false,
          "internalType": "uint256",
          "name": "_platformId",
          "type": "uint256"
        },
        {
          "indexed": false,
          "internalType": "uint256",
          "name": "_proposalPostingFee",
          "type": "uint256"
        }
      ],
      "name": "ProposalPostingFeeUpdated",
      "type": "event"
    },
    {
      "anonymous": false,
      "inputs": [
        {
          "indexed": true,
          "internalType": "bytes32",
          "name": "role",
          "type": "bytes32"
        },
        {
          "indexed": true,
          "internalType": "bytes32",
          "name": "previousAdminRole",
          "type": "bytes32"
        },
        {
          "indexed": true,
          "internalType": "bytes32",
          "name": "newAdminRole",
          "type": "bytes32"
        }
      ],
      "name": "RoleAdminChanged",
      "type": "event"
    },
    {
      "anonymous": false,
      "inputs": [
        {
          "indexed": true,
          "internalType": "bytes32",
          "name": "role",
          "type": "bytes32"
        },
        {
          "indexed": true,
          "internalType": "address",
          "name": "account",
          "type": "address"
        },
        {
          "indexed": true,
          "internalType": "address",
          "name": "sender",
          "type": "address"
        }
      ],
      "name": "RoleGranted",
      "type": "event"
    },
    {
      "anonymous": false,
      "inputs": [
        {
          "indexed": true,
          "internalType": "bytes32",
          "name": "role",
          "type": "bytes32"
        },
        {
          "indexed": true,
          "internalType": "address",
          "name": "account",
          "type": "address"
        },
        {
          "indexed": true,
          "internalType": "address",
          "name": "sender",
          "type": "address"
        }
      ],
      "name": "RoleRevoked",
      "type": "event"
    },
    {
      "anonymous": false,
      "inputs": [
        {
          "indexed": false,
          "internalType": "uint256",
          "name": "_platformId",
          "type": "uint256"
        },
        {
          "indexed": false,
          "internalType": "uint256",
          "name": "_servicePostingFee",
          "type": "uint256"
        }
      ],
      "name": "ServicePostingFeeUpdated",
      "type": "event"
    },
    {
      "anonymous": false,
      "inputs": [
        {
          "indexed": true,
          "internalType": "address",
          "name": "from",
          "type": "address"
        },
        {
          "indexed": true,
          "internalType": "address",
          "name": "to",
          "type": "address"
        },
        {
          "indexed": true,
          "internalType": "uint256",
          "name": "tokenId",
          "type": "uint256"
        }
      ],
      "name": "Transfer",
      "type": "event"
    },
    {
      "anonymous": false,
      "inputs": [
        {
          "indexed": true,
          "internalType": "address",
          "name": "implementation",
          "type": "address"
        }
      ],
      "name": "Upgraded",
      "type": "event"
    },
    {
      "inputs": [],
      "name": "DEFAULT_ADMIN_ROLE",
      "outputs": [
        {
          "internalType": "bytes32",
          "name": "",
          "type": "bytes32"
        }
      ],
      "stateMutability": "view",
      "type": "function"
    },
    {
      "inputs": [],
      "name": "MINT_ROLE",
      "outputs": [
        {
          "internalType": "bytes32",
          "name": "",
          "type": "bytes32"
        }
      ],
      "stateMutability": "view",
      "type": "function"
    },
    {
      "inputs": [],
      "name": "OWNER_ROLE",
      "outputs": [
        {
          "internalType": "bytes32",
          "name": "",
          "type": "bytes32"
        }
      ],
      "stateMutability": "view",
      "type": "function"
    },
    {
      "inputs": [
        {
          "internalType": "address",
          "name": "_arbitrator",
          "type": "address"
        },
        {
          "internalType": "bool",
          "name": "_isInternal",
          "type": "bool"
        }
      ],
      "name": "addArbitrator",
      "outputs": [],
      "stateMutability": "nonpayable",
      "type": "function"
    },
    {
      "inputs": [
        {
          "internalType": "address",
          "name": "to",
          "type": "address"
        },
        {
          "internalType": "uint256",
          "name": "tokenId",
          "type": "uint256"
        }
      ],
      "name": "approve",
      "outputs": [],
      "stateMutability": "nonpayable",
      "type": "function"
    },
    {
      "inputs": [
        {
          "internalType": "address",
          "name": "owner",
          "type": "address"
        }
      ],
      "name": "balanceOf",
      "outputs": [
        {
          "internalType": "uint256",
          "name": "",
          "type": "uint256"
        }
      ],
      "stateMutability": "view",
      "type": "function"
    },
    {
      "inputs": [
        {
          "internalType": "uint256",
          "name": "tokenId",
          "type": "uint256"
        }
      ],
      "name": "getApproved",
      "outputs": [
        {
          "internalType": "address",
          "name": "",
          "type": "address"
        }
      ],
      "stateMutability": "view",
      "type": "function"
    },
    {
      "inputs": [
        {
          "internalType": "uint256",
          "name": "_platformId",
          "type": "uint256"
        }
      ],
      "name": "getOriginServiceFeeRate",
      "outputs": [
        {
          "internalType": "uint16",
          "name": "",
          "type": "uint16"
        }
      ],
      "stateMutability": "view",
      "type": "function"
    },
    {
      "inputs": [
        {
          "internalType": "uint256",
          "name": "_platformId",
          "type": "uint256"
        }
      ],
      "name": "getOriginValidatedProposalFeeRate",
      "outputs": [
        {
          "internalType": "uint16",
          "name": "",
          "type": "uint16"
        }
      ],
      "stateMutability": "view",
      "type": "function"
    },
    {
      "inputs": [
        {
          "internalType": "uint256",
          "name": "_platformId",
          "type": "uint256"
        }
      ],
      "name": "getPlatform",
      "outputs": [
        {
          "components": [
            {
              "internalType": "uint256",
              "name": "id",
              "type": "uint256"
            },
            {
              "internalType": "string",
              "name": "name",
              "type": "string"
            },
            {
              "internalType": "string",
              "name": "dataUri",
              "type": "string"
            },
            {
              "internalType": "uint16",
              "name": "originServiceFeeRate",
              "type": "uint16"
            },
            {
              "internalType": "uint16",
              "name": "originValidatedProposalFeeRate",
              "type": "uint16"
            },
            {
              "internalType": "uint256",
              "name": "servicePostingFee",
              "type": "uint256"
            },
            {
              "internalType": "uint256",
              "name": "proposalPostingFee",
              "type": "uint256"
            },
            {
              "internalType": "contract Arbitrator",
              "name": "arbitrator",
              "type": "address"
            },
            {
              "internalType": "bytes",
              "name": "arbitratorExtraData",
              "type": "bytes"
            },
            {
              "internalType": "uint256",
              "name": "arbitrationFeeTimeout",
              "type": "uint256"
            }
          ],
          "internalType": "struct TalentLayerPlatformID.Platform",
          "name": "",
          "type": "tuple"
        }
      ],
      "stateMutability": "view",
      "type": "function"
    },
    {
      "inputs": [
        {
          "internalType": "address",
          "name": "_owner",
          "type": "address"
        }
      ],
      "name": "getPlatformIdFromAddress",
      "outputs": [
        {
          "internalType": "uint256",
          "name": "",
          "type": "uint256"
        }
      ],
      "stateMutability": "view",
      "type": "function"
    },
    {
      "inputs": [
        {
          "internalType": "uint256",
          "name": "_platformId",
          "type": "uint256"
        }
      ],
      "name": "getProposalPostingFee",
      "outputs": [
        {
          "internalType": "uint256",
          "name": "",
          "type": "uint256"
        }
      ],
      "stateMutability": "view",
      "type": "function"
    },
    {
      "inputs": [
        {
          "internalType": "bytes32",
          "name": "role",
          "type": "bytes32"
        }
      ],
      "name": "getRoleAdmin",
      "outputs": [
        {
          "internalType": "bytes32",
          "name": "",
          "type": "bytes32"
        }
      ],
      "stateMutability": "view",
      "type": "function"
    },
    {
      "inputs": [
        {
          "internalType": "uint256",
          "name": "_platformId",
          "type": "uint256"
        }
      ],
      "name": "getServicePostingFee",
      "outputs": [
        {
          "internalType": "uint256",
          "name": "",
          "type": "uint256"
        }
      ],
      "stateMutability": "view",
      "type": "function"
    },
    {
      "inputs": [
        {
          "internalType": "bytes32",
          "name": "role",
          "type": "bytes32"
        },
        {
          "internalType": "address",
          "name": "account",
          "type": "address"
        }
      ],
      "name": "grantRole",
      "outputs": [],
      "stateMutability": "nonpayable",
      "type": "function"
    },
    {
      "inputs": [
        {
          "internalType": "bytes32",
          "name": "role",
          "type": "bytes32"
        },
        {
          "internalType": "address",
          "name": "account",
          "type": "address"
        }
      ],
      "name": "hasRole",
      "outputs": [
        {
          "internalType": "bool",
          "name": "",
          "type": "bool"
        }
      ],
      "stateMutability": "view",
      "type": "function"
    },
    {
      "inputs": [],
      "name": "initialize",
      "outputs": [],
      "stateMutability": "nonpayable",
      "type": "function"
    },
    {
      "inputs": [
        {
          "internalType": "address",
          "name": "",
          "type": "address"
        }
      ],
      "name": "internalArbitrators",
      "outputs": [
        {
          "internalType": "bool",
          "name": "",
          "type": "bool"
        }
      ],
      "stateMutability": "view",
      "type": "function"
    },
    {
      "inputs": [
        {
          "internalType": "address",
          "name": "owner",
          "type": "address"
        },
        {
          "internalType": "address",
          "name": "operator",
          "type": "address"
        }
      ],
      "name": "isApprovedForAll",
      "outputs": [
        {
          "internalType": "bool",
          "name": "",
          "type": "bool"
        }
      ],
      "stateMutability": "view",
      "type": "function"
    },
    {
      "inputs": [
        {
          "internalType": "uint256",
          "name": "_platformId",
          "type": "uint256"
        }
      ],
      "name": "isValid",
      "outputs": [],
      "stateMutability": "view",
      "type": "function"
    },
    {
      "inputs": [],
      "name": "minArbitrationFeeTimeout",
      "outputs": [
        {
          "internalType": "uint256",
          "name": "",
          "type": "uint256"
        }
      ],
      "stateMutability": "view",
      "type": "function"
    },
    {
      "inputs": [
        {
          "internalType": "string",
          "name": "_platformName",
          "type": "string"
        }
      ],
      "name": "mint",
      "outputs": [],
      "stateMutability": "payable",
      "type": "function"
    },
    {
      "inputs": [],
      "name": "mintFee",
      "outputs": [
        {
          "internalType": "uint256",
          "name": "",
          "type": "uint256"
        }
      ],
      "stateMutability": "view",
      "type": "function"
    },
    {
      "inputs": [
        {
          "internalType": "string",
          "name": "_platformName",
          "type": "string"
        },
        {
          "internalType": "address",
          "name": "_platformAddress",
          "type": "address"
        }
      ],
      "name": "mintForAddress",
      "outputs": [],
      "stateMutability": "payable",
      "type": "function"
    },
    {
      "inputs": [],
      "name": "name",
      "outputs": [
        {
          "internalType": "string",
          "name": "",
          "type": "string"
        }
      ],
      "stateMutability": "view",
      "type": "function"
    },
    {
      "inputs": [
        {
          "internalType": "address",
          "name": "_platformAddress",
          "type": "address"
        }
      ],
      "name": "numberMinted",
      "outputs": [
        {
          "internalType": "uint256",
          "name": "",
          "type": "uint256"
        }
      ],
      "stateMutability": "view",
      "type": "function"
    },
    {
      "inputs": [
        {
          "internalType": "uint256",
          "name": "tokenId",
          "type": "uint256"
        }
      ],
      "name": "ownerOf",
      "outputs": [
        {
          "internalType": "address",
          "name": "",
          "type": "address"
        }
      ],
      "stateMutability": "view",
      "type": "function"
    },
    {
      "inputs": [
        {
          "internalType": "uint256",
          "name": "",
          "type": "uint256"
        }
      ],
      "name": "platforms",
      "outputs": [
        {
          "internalType": "uint256",
          "name": "id",
          "type": "uint256"
        },
        {
          "internalType": "string",
          "name": "name",
          "type": "string"
        },
        {
          "internalType": "string",
          "name": "dataUri",
          "type": "string"
        },
        {
          "internalType": "uint16",
          "name": "originServiceFeeRate",
          "type": "uint16"
        },
        {
          "internalType": "uint16",
          "name": "originValidatedProposalFeeRate",
          "type": "uint16"
        },
        {
          "internalType": "uint256",
          "name": "servicePostingFee",
          "type": "uint256"
        },
        {
          "internalType": "uint256",
          "name": "proposalPostingFee",
          "type": "uint256"
        },
        {
          "internalType": "contract Arbitrator",
          "name": "arbitrator",
          "type": "address"
        },
        {
          "internalType": "bytes",
          "name": "arbitratorExtraData",
          "type": "bytes"
        },
        {
          "internalType": "uint256",
          "name": "arbitrationFeeTimeout",
          "type": "uint256"
        }
      ],
      "stateMutability": "view",
      "type": "function"
    },
    {
      "inputs": [],
      "name": "proxiableUUID",
      "outputs": [
        {
          "internalType": "bytes32",
          "name": "",
          "type": "bytes32"
        }
      ],
      "stateMutability": "view",
      "type": "function"
    },
    {
      "inputs": [
        {
          "internalType": "address",
          "name": "_arbitrator",
          "type": "address"
        }
      ],
      "name": "removeArbitrator",
      "outputs": [],
      "stateMutability": "nonpayable",
      "type": "function"
    },
    {
      "inputs": [
        {
          "internalType": "bytes32",
          "name": "role",
          "type": "bytes32"
        },
        {
          "internalType": "address",
          "name": "account",
          "type": "address"
        }
      ],
      "name": "renounceRole",
      "outputs": [],
      "stateMutability": "nonpayable",
      "type": "function"
    },
    {
      "inputs": [
        {
          "internalType": "bytes32",
          "name": "role",
          "type": "bytes32"
        },
        {
          "internalType": "address",
          "name": "account",
          "type": "address"
        }
      ],
      "name": "revokeRole",
      "outputs": [],
      "stateMutability": "nonpayable",
      "type": "function"
    },
    {
      "inputs": [
        {
          "internalType": "address",
          "name": "from",
          "type": "address"
        },
        {
          "internalType": "address",
          "name": "to",
          "type": "address"
        },
        {
          "internalType": "uint256",
          "name": "tokenId",
          "type": "uint256"
        }
      ],
      "name": "safeTransferFrom",
      "outputs": [],
      "stateMutability": "nonpayable",
      "type": "function"
    },
    {
      "inputs": [
        {
          "internalType": "address",
          "name": "from",
          "type": "address"
        },
        {
          "internalType": "address",
          "name": "to",
          "type": "address"
        },
        {
          "internalType": "uint256",
          "name": "tokenId",
          "type": "uint256"
        },
        {
          "internalType": "bytes",
          "name": "data",
          "type": "bytes"
        }
      ],
      "name": "safeTransferFrom",
      "outputs": [],
      "stateMutability": "nonpayable",
      "type": "function"
    },
    {
      "inputs": [
        {
          "internalType": "address",
          "name": "operator",
          "type": "address"
        },
        {
          "internalType": "bool",
          "name": "approved",
          "type": "bool"
        }
      ],
      "name": "setApprovalForAll",
      "outputs": [],
      "stateMutability": "nonpayable",
      "type": "function"
    },
    {
      "inputs": [
        {
          "internalType": "bytes4",
          "name": "interfaceId",
          "type": "bytes4"
        }
      ],
      "name": "supportsInterface",
      "outputs": [
        {
          "internalType": "bool",
          "name": "",
          "type": "bool"
        }
      ],
      "stateMutability": "view",
      "type": "function"
    },
    {
      "inputs": [],
      "name": "symbol",
      "outputs": [
        {
          "internalType": "string",
          "name": "",
          "type": "string"
        }
      ],
      "stateMutability": "view",
      "type": "function"
    },
    {
      "inputs": [
        {
          "internalType": "string",
          "name": "",
          "type": "string"
        }
      ],
      "name": "takenNames",
      "outputs": [
        {
          "internalType": "bool",
          "name": "",
          "type": "bool"
        }
      ],
      "stateMutability": "view",
      "type": "function"
    },
    {
      "inputs": [
        {
          "internalType": "uint256",
          "name": "tokenId",
          "type": "uint256"
        }
      ],
      "name": "tokenURI",
      "outputs": [
        {
          "internalType": "string",
          "name": "",
          "type": "string"
        }
      ],
      "stateMutability": "view",
      "type": "function"
    },
    {
      "inputs": [],
      "name": "totalSupply",
      "outputs": [
        {
          "internalType": "uint256",
          "name": "",
          "type": "uint256"
        }
      ],
      "stateMutability": "view",
      "type": "function"
    },
    {
      "inputs": [
        {
          "internalType": "address",
          "name": "from",
          "type": "address"
        },
        {
          "internalType": "address",
          "name": "to",
          "type": "address"
        },
        {
          "internalType": "uint256",
          "name": "tokenId",
          "type": "uint256"
        }
      ],
      "name": "transferFrom",
      "outputs": [],
      "stateMutability": "nonpayable",
      "type": "function"
    },
    {
      "inputs": [
        {
          "internalType": "uint256",
          "name": "_platformId",
          "type": "uint256"
        },
        {
          "internalType": "uint256",
          "name": "_arbitrationFeeTimeout",
          "type": "uint256"
        }
      ],
      "name": "updateArbitrationFeeTimeout",
      "outputs": [],
      "stateMutability": "nonpayable",
      "type": "function"
    },
    {
      "inputs": [
        {
          "internalType": "uint256",
          "name": "_platformId",
          "type": "uint256"
        },
        {
          "internalType": "contract Arbitrator",
          "name": "_arbitrator",
          "type": "address"
        },
        {
          "internalType": "bytes",
          "name": "_extraData",
          "type": "bytes"
        }
      ],
      "name": "updateArbitrator",
      "outputs": [],
      "stateMutability": "nonpayable",
      "type": "function"
    },
    {
      "inputs": [
        {
          "internalType": "uint256",
          "name": "_minArbitrationFeeTimeout",
          "type": "uint256"
        }
      ],
      "name": "updateMinArbitrationFeeTimeout",
      "outputs": [],
      "stateMutability": "nonpayable",
      "type": "function"
    },
    {
      "inputs": [
        {
          "internalType": "uint256",
          "name": "_mintFee",
          "type": "uint256"
        }
      ],
      "name": "updateMintFee",
      "outputs": [],
      "stateMutability": "nonpayable",
      "type": "function"
    },
    {
      "inputs": [
        {
          "internalType": "uint256",
          "name": "_platformId",
          "type": "uint256"
        },
        {
          "internalType": "uint16",
          "name": "_originServiceFeeRate",
          "type": "uint16"
        }
      ],
      "name": "updateOriginServiceFeeRate",
      "outputs": [],
      "stateMutability": "nonpayable",
      "type": "function"
    },
    {
      "inputs": [
        {
          "internalType": "uint256",
          "name": "_platformId",
          "type": "uint256"
        },
        {
          "internalType": "uint16",
          "name": "_originValidatedProposalFeeRate",
          "type": "uint16"
        }
      ],
      "name": "updateOriginValidatedProposalFeeRate",
      "outputs": [],
      "stateMutability": "nonpayable",
      "type": "function"
    },
    {
      "inputs": [
        {
          "internalType": "uint256",
          "name": "_platformId",
          "type": "uint256"
        },
        {
          "internalType": "string",
          "name": "_newCid",
          "type": "string"
        }
      ],
      "name": "updateProfileData",
      "outputs": [],
      "stateMutability": "nonpayable",
      "type": "function"
    },
    {
      "inputs": [
        {
          "internalType": "address",
          "name": "newImplementation",
          "type": "address"
        }
      ],
      "name": "upgradeTo",
      "outputs": [],
      "stateMutability": "nonpayable",
      "type": "function"
    },
    {
      "inputs": [
        {
          "internalType": "address",
          "name": "newImplementation",
          "type": "address"
        },
        {
          "internalType": "bytes",
          "name": "data",
          "type": "bytes"
        }
      ],
      "name": "upgradeToAndCall",
      "outputs": [],
      "stateMutability": "payable",
      "type": "function"
    },
    {
      "inputs": [
        {
          "internalType": "address",
          "name": "",
          "type": "address"
        }
      ],
      "name": "validArbitrators",
      "outputs": [
        {
          "internalType": "bool",
          "name": "",
          "type": "bool"
        }
      ],
      "stateMutability": "view",
      "type": "function"
    },
    {
      "inputs": [],
      "name": "withdraw",
      "outputs": [],
      "stateMutability": "nonpayable",
      "type": "function"
    }
  ],
  "bytecode": "0x60a0604052306080523480156200001557600080fd5b506200002062000026565b620000e8565b600054610100900460ff1615620000935760405162461bcd60e51b815260206004820152602760248201527f496e697469616c697a61626c653a20636f6e747261637420697320696e697469604482015266616c697a696e6760c81b606482015260840160405180910390fd5b60005460ff9081161015620000e6576000805460ff191660ff9081179091556040519081527f7f26b83ff96e1f2b6a682f133852f6798a09c465da95921460cefb38474024989060200160405180910390a15b565b6080516143e96200012060003960008181610c3a01528181610c7a01528181610f7b01528181610fbb015261109401526143e96000f3fe6080604052600436106102935760003560e01c806391d148541161015a578063cb8faafa116100c1578063e9a9c8501161007a578063e9a9c85014610830578063f160068f14610852578063f53af22d14610872578063f577a50014610892578063f6f37844146108b2578063faa992d3146108c957600080fd5b8063cb8faafa14610740578063d547741f14610760578063d85d3d2714610780578063dc33e68114610793578063e58378bb146107b3578063e985e9c5146107e757600080fd5b8063a4f524a911610113578063a4f524a91461067c578063aa44caaf1461069c578063acd63f1b146106bc578063b88d4fde146106ed578063c37e154e1461070d578063c87b56dd1461072057600080fd5b806391d14854146105b657806395d89b41146105d6578063973ad270146105eb578063a217fddf1461060b578063a22cb46514610620578063a383c6921461064057600080fd5b80633ccfd60b116101fe57806352d1902d116101b757806352d1902d146104ff5780635bd22c98146105145780636352211e1461054157806370a08231146105615780638129fc1c1461058157806384017e521461059657600080fd5b80633ccfd60b146104535780633e6acfe01461046857806342842e0e146103a357806348203b30146104885780634f1ef286146104b95780634f7f0302146104cc57600080fd5b806318160ddd1161025057806318160ddd1461038e57806323b872dd146103a3578063248a9ca3146103c35780632f2ff15d146103f357806336568abe146104135780633659cfe61461043357600080fd5b806301c32c851461029857806301ffc9a7146102ba57806306fdde03146102ef578063081812fc14610311578063095ea7b31461034957806313966db514610369575b600080fd5b3480156102a457600080fd5b506102b86102b3366004613359565b6108fc565b005b3480156102c657600080fd5b506102da6102d5366004613388565b610945565b60405190151581526020015b60405180910390f35b3480156102fb57600080fd5b50610304610965565b6040516102e691906133fd565b34801561031d57600080fd5b5061033161032c366004613359565b6109f7565b6040516001600160a01b0390911681526020016102e6565b34801561035557600080fd5b506102b8610364366004613425565b610a1e565b34801561037557600080fd5b506103806101315481565b6040519081526020016102e6565b34801561039a57600080fd5b50610380610b39565b3480156103af57600080fd5b506102b86103be366004613451565b610b56565b3480156103cf57600080fd5b506103806103de366004613359565b60009081526097602052604090206001015490565b3480156103ff57600080fd5b506102b861040e366004613492565b610b8c565b34801561041f57600080fd5b506102b861042e366004613492565b610bb1565b34801561043f57600080fd5b506102b861044e3660046134c2565b610c2f565b34801561045f57600080fd5b506102b8610d0f565b34801561047457600080fd5b506102b8610483366004613582565b610db2565b34801561049457600080fd5b506102da6104a33660046134c2565b61012f6020526000908152604090205460ff1681565b6102b86104c73660046135db565b610f70565b3480156104d857600080fd5b506104ec6104e7366004613359565b61103d565b60405161ffff90911681526020016102e6565b34801561050b57600080fd5b50610380611087565b34801561052057600080fd5b5061053461052f366004613359565b61113a565b6040516102e6919061362b565b34801561054d57600080fd5b5061033161055c366004613359565b6113cc565b34801561056d57600080fd5b5061038061057c3660046134c2565b61142c565b34801561058d57600080fd5b506102b86114b2565b3480156105a257600080fd5b506102b86105b1366004613359565b6116c1565b3480156105c257600080fd5b506102da6105d1366004613492565b611702565b3480156105e257600080fd5b5061030461172d565b3480156105f757600080fd5b506102b86106063660046134c2565b61173c565b34801561061757600080fd5b50610380600081565b34801561062c57600080fd5b506102b861063b3660046136c5565b611780565b34801561064c57600080fd5b506102da61065b3660046136f8565b805160208183018101805161012d8252928201919093012091525460ff1681565b34801561068857600080fd5b506102b861069736600461372d565b61178b565b3480156106a857600080fd5b506103806106b73660046134c2565b611877565b3480156106c857600080fd5b506102da6106d73660046134c2565b6101306020526000908152604090205460ff1681565b3480156106f957600080fd5b506102b861070836600461374f565b6118ca565b6102b861071b3660046137bb565b611948565b34801561072c57600080fd5b5061030461073b366004613359565b611ab9565b34801561074c57600080fd5b506102b861075b3660046136c5565b611ac4565b34801561076c57600080fd5b506102b861077b366004613492565b611b15565b6102b861078e3660046136f8565b611b3a565b34801561079f57600080fd5b506103806107ae3660046134c2565b611c9f565b3480156107bf57600080fd5b506103807fb19546dff01e856fb3f010c267a7b1c60363cf8a4664e21cc89c26224620214e81565b3480156107f357600080fd5b506102da610802366004613802565b6001600160a01b039182166000908152606a6020908152604080832093909416825291909152205460ff1690565b34801561083c57600080fd5b5061038060008051602061436d83398151915281565b34801561085e57600080fd5b506102b861086d366004613830565b611caa565b34801561087e57600080fd5b506102b861088d366004613861565b611d8e565b34801561089e57600080fd5b506102b86108ad366004613359565b611e17565b3480156108be57600080fd5b506103806101325481565b3480156108d557600080fd5b506108e96108e4366004613359565b611e45565b6040516102e6979695949392919061388d565b60006109078161202b565b6101328290556040518281527fa39eb462f98ec2e2a17ca5c7f2a0a247d212213bf0c78a6e2a3df704911ef601906020015b60405180910390a15050565b600061095082612035565b8061095f575061095f82612085565b92915050565b606060658054610974906138fa565b80601f01602080910402602001604051908101604052809291908181526020018280546109a0906138fa565b80156109ed5780601f106109c2576101008083540402835291602001916109ed565b820191906000526020600020905b8154815290600101906020018083116109d057829003601f168201915b5050505050905090565b6000610a02826120aa565b506000908152606960205260409020546001600160a01b031690565b6000610a29826113cc565b9050806001600160a01b0316836001600160a01b03161415610a9c5760405162461bcd60e51b815260206004820152602160248201527f4552433732313a20617070726f76616c20746f2063757272656e74206f776e656044820152603960f91b60648201526084015b60405180910390fd5b336001600160a01b0382161480610ab85750610ab88133610802565b610b2a5760405162461bcd60e51b815260206004820152603d60248201527f4552433732313a20617070726f76652063616c6c6572206973206e6f7420746f60448201527f6b656e206f776e6572206f7220617070726f76656420666f7220616c6c0000006064820152608401610a93565b610b348383612109565b505050565b60006001610b476101335490565b610b51919061394b565b905090565b60405162461bcd60e51b815260206004820152600b60248201526a139bdd08185b1b1bddd95960aa1b6044820152606401610a93565b600082815260976020526040902060010154610ba78161202b565b610b348383612177565b6001600160a01b0381163314610c215760405162461bcd60e51b815260206004820152602f60248201527f416363657373436f6e74726f6c3a2063616e206f6e6c792072656e6f756e636560448201526e103937b632b9903337b91039b2b63360891b6064820152608401610a93565b610c2b82826121fd565b5050565b306001600160a01b037f0000000000000000000000000000000000000000000000000000000000000000161415610c785760405162461bcd60e51b8152600401610a9390613962565b7f00000000000000000000000000000000000000000000000000000000000000006001600160a01b0316610cc160008051602061430d833981519152546001600160a01b031690565b6001600160a01b031614610ce75760405162461bcd60e51b8152600401610a93906139ae565b610cf081612264565b60408051600080825260208201909252610d0c9183919061228e565b50565b6000610d1a8161202b565b604051600090339047908381818185875af1925050503d8060008114610d5c576040519150601f19603f3d011682016040523d82523d6000602084013e610d61565b606091505b5050905080610c2b5760405162461bcd60e51b815260206004820152601860248201527f4661696c656420746f20776974686472617720457468657200000000000000006044820152606401610a93565b33610dbc846113cc565b6001600160a01b031614610de25760405162461bcd60e51b8152600401610a93906139fa565b6001600160a01b038216600090815261012f602052604090205460ff16610e5d5760405162461bcd60e51b815260206004820152602960248201527f5468652061646472657373206d757374206265206f6620612076616c69642061604482015268393134ba3930ba37b960b91b6064820152608401610a93565b600083815261012e60209081526040808320600301805462010000600160b01b031916620100006001600160a01b03881690810291909117909155835261013090915290205460ff1615610ef25760408051602081018590520160408051601f19818403018152918152600085815261012e60209081529190208251610eec93600490920192909101906132c0565b50610f1a565b600083815261012e602090815260409091208251610f18926004909201918401906132c0565b505b7f4f1d179d53629f07a3ca3cde19840349df6dadc8fc11ac201c272ec77b8673d2838361012e6000878152602001908152602001600020600401604051610f6393929190613a3f565b60405180910390a1505050565b306001600160a01b037f0000000000000000000000000000000000000000000000000000000000000000161415610fb95760405162461bcd60e51b8152600401610a9390613962565b7f00000000000000000000000000000000000000000000000000000000000000006001600160a01b031661100260008051602061430d833981519152546001600160a01b031690565b6001600160a01b0316146110285760405162461bcd60e51b8152600401610a93906139ae565b61103182612264565b610c2b8282600161228e565b6000808211801561105057506101335482105b61106c5760405162461bcd60e51b8152600401610a9390613aff565b50600090815261012e602052604090206003015461ffff1690565b6000306001600160a01b037f000000000000000000000000000000000000000000000000000000000000000016146111275760405162461bcd60e51b815260206004820152603860248201527f555550535570677261646561626c653a206d757374206e6f742062652063616c60448201527f6c6564207468726f7567682064656c656761746563616c6c00000000000000006064820152608401610a93565b5060008051602061430d83398151915290565b6111876040518060e00160405280600081526020016060815260200160608152602001600061ffff16815260200160006001600160a01b0316815260200160608152602001600081525090565b60008211801561119957506101335482105b6111b55760405162461bcd60e51b8152600401610a9390613aff565b61012e60008381526020019081526020016000206040518060e0016040529081600082015481526020016001820180546111ee906138fa565b80601f016020809104026020016040519081016040528092919081815260200182805461121a906138fa565b80156112675780601f1061123c57610100808354040283529160200191611267565b820191906000526020600020905b81548152906001019060200180831161124a57829003601f168201915b50505050508152602001600282018054611280906138fa565b80601f01602080910402602001604051908101604052809291908181526020018280546112ac906138fa565b80156112f95780601f106112ce576101008083540402835291602001916112f9565b820191906000526020600020905b8154815290600101906020018083116112dc57829003601f168201915b5050509183525050600382015461ffff811660208301526201000090046001600160a01b03166040820152600482018054606090920191611339906138fa565b80601f0160208091040260200160405190810160405280929190818152602001828054611365906138fa565b80156113b25780601f10611387576101008083540402835291602001916113b2565b820191906000526020600020905b81548152906001019060200180831161139557829003601f168201915b505050505081526020016005820154815250509050919050565b6000818152606760205260408120546001600160a01b03168061095f5760405162461bcd60e51b8152602060048201526018602482015277115490cdcc8c4e881a5b9d985b1a59081d1bdad95b88125160421b6044820152606401610a93565b60006001600160a01b0382166114965760405162461bcd60e51b815260206004820152602960248201527f4552433732313a2061646472657373207a65726f206973206e6f7420612076616044820152683634b21037bbb732b960b91b6064820152608401610a93565b506001600160a01b031660009081526068602052604090205490565b600054610100900460ff16158080156114d25750600054600160ff909116105b806114ec5750303b1580156114ec575060005460ff166001145b61154f5760405162461bcd60e51b815260206004820152602e60248201527f496e697469616c697a61626c653a20636f6e747261637420697320616c72656160448201526d191e481a5b9a5d1a585b1a5e995960921b6064820152608401610a93565b6000805460ff191660011790558015611572576000805461ff0019166101001790555b6115c56040518060400160405280601581526020017415185b195b9d13185e595c941b185d199bdc9b5251605a1b815250604051806040016040528060048152602001631514125160e21b815250612408565b6115cd612439565b6115d5612439565b6115e0600033612462565b6115f860008051602061436d83398151915233612462565b6116227fb19546dff01e856fb3f010c267a7b1c60363cf8a4664e21cc89c26224620214e33612462565b6000610131819055805261012f6020527fe9104285c6851efcbc5e0e70440200efbdcab556a1c8784776780f8bb44f2931805460ff1916600117905561166a620151806108fc565b61167961013380546001019055565b8015610d0c576000805461ff0019169055604051600181527f7f26b83ff96e1f2b6a682f133852f6798a09c465da95921460cefb38474024989060200160405180910390a150565b60006116cc8161202b565b6101318290556040518281527f38fbb1c8b109c430f0c030e7ed076cf5611a307773a4e8e365601e8f8bceaec690602001610939565b60009182526097602090815260408084206001600160a01b0393909316845291905290205460ff1690565b606060668054610974906138fa565b60006117478161202b565b506001600160a01b0316600090815261012f60209081526040808320805460ff1990811690915561013090925290912080549091169055565b610c2b33838361246c565b33611795836113cc565b6001600160a01b0316146117bb5760405162461bcd60e51b8152600401610a93906139fa565b6101325481101561182b5760405162461bcd60e51b815260206004820152603460248201527f5468652074696d656f7574206d7573742062652067726561746572207468616e604482015273081d1a19481b5a5b9a5b5d5b481d1a5b595bdd5d60621b6064820152608401610a93565b600082815261012e602090815260409182902060050183905581518481529081018390527face552c85eed7b5cf46330833e6f28b1f5ce696a4532e483192b5a64e4565e599101610939565b600060015b610133548110156118c1576000818152606760205260409020546001600160a01b03848116911614156118af5792915050565b806118b981613b2c565b91505061187c565b50600092915050565b6118d4338361253b565b6119365760405162461bcd60e51b815260206004820152602d60248201527f4552433732313a2063616c6c6572206973206e6f7420746f6b656e206f776e6560448201526c1c881bdc88185c1c1c9bdd9959609a1b6064820152608401610a93565b611942848484846125ba565b50505050565b818161013154341461196c5760405162461bcd60e51b8152600401610a9390613b47565b61197581611c9f565b156119925760405162461bcd60e51b8152600401610a9390613b8b565b6002825110156119d55760405162461bcd60e51b815260206004820152600e60248201526d13985b59481d1bdbc81cda1bdc9d60921b6044820152606401610a93565b601482511115611a175760405162461bcd60e51b815260206004820152600d60248201526c4e616d6520746f6f206c6f6e6760981b6044820152606401610a93565b61012d82604051611a289190613be9565b9081526040519081900360200190205460ff1615611a7d5760405162461bcd60e51b81526020600482015260126024820152712730b6b29030b63932b0b23c903a30b5b2b760711b6044820152606401610a93565b60008051602061436d833981519152611a958161202b565b611aa884611aa36101335490565b6125ed565b611ab28585612607565b5050505050565b606061095f826126e0565b6000611acf8161202b565b506001600160a01b03909116600090815261012f60209081526040808320805460ff19908116600117909155610130909252909120805492151592909116919091179055565b600082815260976020526040902060010154611b308161202b565b610b3483836121fd565b8033610131543414611b5e5760405162461bcd60e51b8152600401610a9390613b47565b611b6781611c9f565b15611b845760405162461bcd60e51b8152600401610a9390613b8b565b600282511015611bc75760405162461bcd60e51b815260206004820152600e60248201526d13985b59481d1bdbc81cda1bdc9d60921b6044820152606401610a93565b601482511115611c095760405162461bcd60e51b815260206004820152600d60248201526c4e616d6520746f6f206c6f6e6760981b6044820152606401610a93565b61012d82604051611c1a9190613be9565b9081526040519081900360200190205460ff1615611c6f5760405162461bcd60e51b81526020600482015260126024820152712730b6b29030b63932b0b23c903a30b5b2b760711b6044820152606401610a93565b60008051602061436d833981519152611c878161202b565b611c9533611aa36101335490565b6119428433612607565b600061095f8261142c565b33611cb4836113cc565b6001600160a01b031614611cda5760405162461bcd60e51b8152600401610a93906139fa565b6000815111611d2b5760405162461bcd60e51b815260206004820152601f60248201527f53686f756c642070726f7669646520612076616c6964204950465320555249006044820152606401610a93565b600082815261012e602090815260409091208251611d51926002909201918401906132c0565b50817f613807bd6768f626264e7eb664a65ca99a0d930f8fd8a5b868491a592eb57f7282604051611d8291906133fd565b60405180910390a25050565b33611d98836113cc565b6001600160a01b031614611dbe5760405162461bcd60e51b8152600401610a93906139fa565b600082815261012e6020908152604091829020600301805461ffff191661ffff85169081179091558251858152918201527f23c7253d559359d164ea866065c1857f84edf5b53c96e2a2a3e11177bf526a239101610939565b600081118015611e2957506101335481105b610d0c5760405162461bcd60e51b8152600401610a9390613aff565b61012e6020526000908152604090208054600182018054919291611e68906138fa565b80601f0160208091040260200160405190810160405280929190818152602001828054611e94906138fa565b8015611ee15780601f10611eb657610100808354040283529160200191611ee1565b820191906000526020600020905b815481529060010190602001808311611ec457829003601f168201915b505050505090806002018054611ef6906138fa565b80601f0160208091040260200160405190810160405280929190818152602001828054611f22906138fa565b8015611f6f5780601f10611f4457610100808354040283529160200191611f6f565b820191906000526020600020905b815481529060010190602001808311611f5257829003601f168201915b505050506003830154600484018054939461ffff831694620100009093046001600160a01b0316935091611fa2906138fa565b80601f0160208091040260200160405190810160405280929190818152602001828054611fce906138fa565b801561201b5780601f10611ff05761010080835404028352916020019161201b565b820191906000526020600020905b815481529060010190602001808311611ffe57829003601f168201915b5050505050908060050154905087565b610d0c813361280b565b60006001600160e01b031982166380ac58cd60e01b148061206657506001600160e01b03198216635b5e139f60e01b145b8061095f57506301ffc9a760e01b6001600160e01b031983161461095f565b60006001600160e01b03198216637965db0b60e01b148061095f575061095f82612035565b6000818152606760205260409020546001600160a01b0316610d0c5760405162461bcd60e51b8152602060048201526018602482015277115490cdcc8c4e881a5b9d985b1a59081d1bdad95b88125160421b6044820152606401610a93565b600081815260696020526040902080546001600160a01b0319166001600160a01b038416908117909155819061213e826113cc565b6001600160a01b03167f8c5be1e5ebec7d5bd14f71427d1e84f3dd0314c0f7b2291e5b200ac8c7c3b92560405160405180910390a45050565b6121818282611702565b610c2b5760008281526097602090815260408083206001600160a01b03851684529091529020805460ff191660011790556121b93390565b6001600160a01b0316816001600160a01b0316837f2f8788117e7eff1d82e926ec794901d17c78024a50270940304540a733656f0d60405160405180910390a45050565b6122078282611702565b15610c2b5760008281526097602090815260408083206001600160a01b0385168085529252808320805460ff1916905551339285917ff6391f5c32d9c69d2a47ea670b442974b53935d1edc7fd64eb21e047a839171b9190a45050565b7fb19546dff01e856fb3f010c267a7b1c60363cf8a4664e21cc89c26224620214e610c2b8161202b565b7f4910fdfa16fed3260ed0e7147f7cc6da11a60208b5b9406d12a635614ffd91435460ff16156122c157610b3483612864565b826001600160a01b03166352d1902d6040518163ffffffff1660e01b815260040160206040518083038186803b1580156122fa57600080fd5b505afa92505050801561232a575060408051601f3d908101601f1916820190925261232791810190613c05565b60015b61238d5760405162461bcd60e51b815260206004820152602e60248201527f45524331393637557067726164653a206e657720696d706c656d656e7461746960448201526d6f6e206973206e6f74205555505360901b6064820152608401610a93565b60008051602061430d83398151915281146123fc5760405162461bcd60e51b815260206004820152602960248201527f45524331393637557067726164653a20756e737570706f727465642070726f786044820152681a58589b195555525160ba1b6064820152608401610a93565b50610b34838383612900565b600054610100900460ff1661242f5760405162461bcd60e51b8152600401610a9390613c1e565b610c2b8282612925565b600054610100900460ff166124605760405162461bcd60e51b8152600401610a9390613c1e565b565b610c2b8282612177565b816001600160a01b0316836001600160a01b031614156124ce5760405162461bcd60e51b815260206004820152601960248201527f4552433732313a20617070726f766520746f2063616c6c6572000000000000006044820152606401610a93565b6001600160a01b038381166000818152606a6020908152604080832094871680845294825291829020805460ff191686151590811790915591519182527f17307eab39ab6107e8899845ad3d59bd9653f200f220920489ca2b5937696c31910160405180910390a3505050565b600080612547836113cc565b9050806001600160a01b0316846001600160a01b0316148061258e57506001600160a01b038082166000908152606a602090815260408083209388168352929052205460ff165b806125b25750836001600160a01b03166125a7846109f7565b6001600160a01b0316145b949350505050565b6125c5848484612973565b6125d184848484612ae4565b6119425760405162461bcd60e51b8152600401610a9390613c69565b610c2b828260405180602001604052806000815250612bf1565b60006126136101335490565b905061262461013380546001019055565b600081815261012e602090815260409091208451909161264b9160018401918701906132c0565b5081815561013254600582015560405160019061012d9061266d908790613be9565b908152604051908190036020018120805492151560ff199093169290921790915561013154610132546001600160a01b038616927f8475f1ba3b06c1e11c870cbbf9753ca9a8292ea0b203262f682de476dc268f8c926126d29287928a929190613cbb565b60405180910390a250505050565b600081815261012e6020526040812060010180546060929190612702906138fa565b80601f016020809104026020016040519081016040528092919081815260200182805461272e906138fa565b801561277b5780601f106127505761010080835404028352916020019161277b565b820191906000526020600020905b81548152906001019060200180831161275e57829003601f168201915b5050505050905060006127ac826040516020016127989190613ce7565b604051602081830303815290604052612c24565b6040516020016127bc919061404b565b60405160208183030381529060405290506127e38282604051602001612798929190614090565b6040516020016127f3919061412d565b60405160208183030381529060405292505050919050565b6128158282611702565b610c2b5761282281612d78565b61282d836020612d8a565b60405160200161283e929190614172565b60408051601f198184030181529082905262461bcd60e51b8252610a93916004016133fd565b6001600160a01b0381163b6128d15760405162461bcd60e51b815260206004820152602d60248201527f455243313936373a206e657720696d706c656d656e746174696f6e206973206e60448201526c1bdd08184818dbdb9d1c9858dd609a1b6064820152608401610a93565b60008051602061430d83398151915280546001600160a01b0319166001600160a01b0392909216919091179055565b61290983612f2d565b6000825111806129165750805b15610b34576119428383612f6d565b600054610100900460ff1661294c5760405162461bcd60e51b8152600401610a9390613c1e565b815161295f9060659060208501906132c0565b508051610b349060669060208401906132c0565b826001600160a01b0316612986826113cc565b6001600160a01b0316146129ac5760405162461bcd60e51b8152600401610a93906141e7565b6001600160a01b038216612a0e5760405162461bcd60e51b8152602060048201526024808201527f4552433732313a207472616e7366657220746f20746865207a65726f206164646044820152637265737360e01b6064820152608401610a93565b612a1b8383836001613061565b826001600160a01b0316612a2e826113cc565b6001600160a01b031614612a545760405162461bcd60e51b8152600401610a93906141e7565b600081815260696020908152604080832080546001600160a01b03199081169091556001600160a01b0387811680865260688552838620805460001901905590871680865283862080546001019055868652606790945282852080549092168417909155905184937fddf252ad1be2c89b69c2b068fc378daa952ba7f163c4a11628f55a4df523b3ef91a4505050565b60006001600160a01b0384163b15612be657604051630a85bd0160e11b81526001600160a01b0385169063150b7a0290612b2890339089908890889060040161422c565b602060405180830381600087803b158015612b4257600080fd5b505af1925050508015612b72575060408051601f3d908101601f19168201909252612b6f91810190614269565b60015b612bcc573d808015612ba0576040519150601f19603f3d011682016040523d82523d6000602084013e612ba5565b606091505b508051612bc45760405162461bcd60e51b8152600401610a9390613c69565b805181602001fd5b6001600160e01b031916630a85bd0160e11b1490506125b2565b506001949350505050565b612bfb83836130e9565b612c086000848484612ae4565b610b345760405162461bcd60e51b8152600401610a9390613c69565b6060815160001415612c4457505060408051602081019091526000815290565b600060405180606001604052806040815260200161432d6040913990506000600384516002612c739190614286565b612c7d919061429e565b612c889060046142c0565b67ffffffffffffffff811115612ca057612ca06134df565b6040519080825280601f01601f191660200182016040528015612cca576020820181803683370190505b509050600182016020820185865187015b80821015612d36576003820191508151603f8160121c168501518453600184019350603f81600c1c168501518453600184019350603f8160061c168501518453600184019350603f8116850151845350600183019250612cdb565b5050600386510660018114612d525760028114612d6557612d6d565b603d6001830353603d6002830353612d6d565b603d60018303535b509195945050505050565b606061095f6001600160a01b03831660145b60606000612d998360026142c0565b612da4906002614286565b67ffffffffffffffff811115612dbc57612dbc6134df565b6040519080825280601f01601f191660200182016040528015612de6576020820181803683370190505b509050600360fc1b81600081518110612e0157612e016142df565b60200101906001600160f81b031916908160001a905350600f60fb1b81600181518110612e3057612e306142df565b60200101906001600160f81b031916908160001a9053506000612e548460026142c0565b612e5f906001614286565b90505b6001811115612ed7576f181899199a1a9b1b9c1cb0b131b232b360811b85600f1660108110612e9357612e936142df565b1a60f81b828281518110612ea957612ea96142df565b60200101906001600160f81b031916908160001a90535060049490941c93612ed0816142f5565b9050612e62565b508315612f265760405162461bcd60e51b815260206004820181905260248201527f537472696e67733a20686578206c656e67746820696e73756666696369656e746044820152606401610a93565b9392505050565b612f3681612864565b6040516001600160a01b038216907fbc7cd75a20ee27fd9adebab32041f755214dbc6bffa90cc0225b39da2e5c2d3b90600090a250565b60606001600160a01b0383163b612fd55760405162461bcd60e51b815260206004820152602660248201527f416464726573733a2064656c65676174652063616c6c20746f206e6f6e2d636f6044820152651b9d1c9858dd60d21b6064820152608401610a93565b600080846001600160a01b031684604051612ff09190613be9565b600060405180830381855af49150503d806000811461302b576040519150601f19603f3d011682016040523d82523d6000602084013e613030565b606091505b5091509150613058828260405180606001604052806027815260200161438d60279139613282565b95945050505050565b6001811115611942576001600160a01b038416156130a7576001600160a01b038416600090815260686020526040812080548392906130a190849061394b565b90915550505b6001600160a01b03831615611942576001600160a01b038316600090815260686020526040812080548392906130de908490614286565b909155505050505050565b6001600160a01b03821661313f5760405162461bcd60e51b815260206004820181905260248201527f4552433732313a206d696e7420746f20746865207a65726f20616464726573736044820152606401610a93565b6000818152606760205260409020546001600160a01b0316156131a45760405162461bcd60e51b815260206004820152601c60248201527f4552433732313a20746f6b656e20616c7265616479206d696e746564000000006044820152606401610a93565b6131b2600083836001613061565b6000818152606760205260409020546001600160a01b0316156132175760405162461bcd60e51b815260206004820152601c60248201527f4552433732313a20746f6b656e20616c7265616479206d696e746564000000006044820152606401610a93565b6001600160a01b038216600081815260686020908152604080832080546001019055848352606790915280822080546001600160a01b0319168417905551839291907fddf252ad1be2c89b69c2b068fc378daa952ba7f163c4a11628f55a4df523b3ef908290a45050565b60608315613291575081612f26565b612f2683838151156132a65781518083602001fd5b8060405162461bcd60e51b8152600401610a9391906133fd565b8280546132cc906138fa565b90600052602060002090601f0160209004810192826132ee5760008555613334565b82601f1061330757805160ff1916838001178555613334565b82800160010185558215613334579182015b82811115613334578251825591602001919060010190613319565b50613340929150613344565b5090565b5b808211156133405760008155600101613345565b60006020828403121561336b57600080fd5b5035919050565b6001600160e01b031981168114610d0c57600080fd5b60006020828403121561339a57600080fd5b8135612f2681613372565b60005b838110156133c05781810151838201526020016133a8565b838111156119425750506000910152565b600081518084526133e98160208601602086016133a5565b601f01601f19169290920160200192915050565b602081526000612f2660208301846133d1565b6001600160a01b0381168114610d0c57600080fd5b6000806040838503121561343857600080fd5b823561344381613410565b946020939093013593505050565b60008060006060848603121561346657600080fd5b833561347181613410565b9250602084013561348181613410565b929592945050506040919091013590565b600080604083850312156134a557600080fd5b8235915060208301356134b781613410565b809150509250929050565b6000602082840312156134d457600080fd5b8135612f2681613410565b634e487b7160e01b600052604160045260246000fd5b600082601f83011261350657600080fd5b813567ffffffffffffffff80821115613521576135216134df565b604051601f8301601f19908116603f01168101908282118183101715613549576135496134df565b8160405283815286602085880101111561356257600080fd5b836020870160208301376000602085830101528094505050505092915050565b60008060006060848603121561359757600080fd5b8335925060208401356135a981613410565b9150604084013567ffffffffffffffff8111156135c557600080fd5b6135d1868287016134f5565b9150509250925092565b600080604083850312156135ee57600080fd5b82356135f981613410565b9150602083013567ffffffffffffffff81111561361557600080fd5b613621858286016134f5565b9150509250929050565b60208152815160208201526000602083015160e060408401526136526101008401826133d1565b90506040840151601f198085840301606086015261367083836133d1565b925061ffff606087015116608086015260018060a01b0360808701511660a086015260a08601519150808584030160c0860152506136ae82826133d1565b91505060c084015160e08401528091505092915050565b600080604083850312156136d857600080fd5b82356136e381613410565b9150602083013580151581146134b757600080fd5b60006020828403121561370a57600080fd5b813567ffffffffffffffff81111561372157600080fd5b6125b2848285016134f5565b6000806040838503121561374057600080fd5b50508035926020909101359150565b6000806000806080858703121561376557600080fd5b843561377081613410565b9350602085013561378081613410565b925060408501359150606085013567ffffffffffffffff8111156137a357600080fd5b6137af878288016134f5565b91505092959194509250565b600080604083850312156137ce57600080fd5b823567ffffffffffffffff8111156137e557600080fd5b6137f1858286016134f5565b92505060208301356134b781613410565b6000806040838503121561381557600080fd5b823561382081613410565b915060208301356134b781613410565b6000806040838503121561384357600080fd5b82359150602083013567ffffffffffffffff81111561361557600080fd5b6000806040838503121561387457600080fd5b82359150602083013561ffff811681146134b757600080fd5b87815260e0602082015260006138a660e08301896133d1565b82810360408401526138b881896133d1565b61ffff881660608501526001600160a01b038716608085015283810360a085015290506138e581866133d1565b9150508260c083015298975050505050505050565b600181811c9082168061390e57607f821691505b6020821081141561392f57634e487b7160e01b600052602260045260246000fd5b50919050565b634e487b7160e01b600052601160045260246000fd5b60008282101561395d5761395d613935565b500390565b6020808252602c908201527f46756e6374696f6e206d7573742062652063616c6c6564207468726f7567682060408201526b19195b1959d85d1958d85b1b60a21b606082015260800190565b6020808252602c908201527f46756e6374696f6e206d7573742062652063616c6c6564207468726f7567682060408201526b6163746976652070726f787960a01b606082015260800190565b60208082526025908201527f596f75277265206e6f7420746865206f776e6572206f66207468697320706c6160408201526474666f726d60d81b606082015260800190565b8381526000602060018060a01b03851681840152606060408401526000845481600182811c915080831680613a7557607f831692505b858310811415613a9357634e487b7160e01b85526022600452602485fd5b6060880183905260808801818015613ab25760018114613ac357613aee565b60ff19861682528782019650613aee565b60008b81526020902060005b86811015613ae857815484820152908501908901613acf565b83019750505b50949b9a5050505050505050505050565b602080825260139082015272125b9d985b1a59081c1b185d199bdc9b481251606a1b604082015260600190565b6000600019821415613b4057613b40613935565b5060010190565b60208082526024908201527f496e636f727265637420616d6f756e74206f662045544820666f72206d696e746040820152632066656560e01b606082015260800190565b60208082526022908201527f506c6174666f726d20616c726561647920686173206120506c6174666f726d20604082015261125160f21b606082015260800190565b60008151613bdf8185602086016133a5565b9290920192915050565b60008251613bfb8184602087016133a5565b9190910192915050565b600060208284031215613c1757600080fd5b5051919050565b6020808252602b908201527f496e697469616c697a61626c653a20636f6e7472616374206973206e6f74206960408201526a6e697469616c697a696e6760a81b606082015260800190565b60208082526032908201527f4552433732313a207472616e7366657220746f206e6f6e20455243373231526560408201527131b2b4bb32b91034b6b83632b6b2b73a32b960711b606082015260800190565b848152608060208201526000613cd460808301866133d1565b6040830194909452506060015292915050565b7f3c73766720786d6c6e733d22687474703a2f2f7777772e77332e6f72672f323081527f30302f737667222077696474683d2237323022206865696768743d223732302260208201527f3e3c726563742077696474683d223130302522206865696768743d223130302560408201527f222f3e3c73766720786d6c6e733d22687474703a2f2f7777772e77332e6f726760608201527f2f323030302f737667222077696474683d2231353022206865696768743d223160808201527f3530222076657273696f6e3d22312e32222076696577426f783d222d3230302060a08201527f2d353020313030302031303030223e3c706174682066696c6c3d22234646464660c08201527f46462220643d224d3236342e35203139302e3563302d31332e382031312e322d60e08201527f32352032352d3235483536386331332e3820302032352031312e3220323520326101008201527f357634393063302031332e382d31312e322032352d3235203235483238392e356101208201527f632d31332e3820302d32352d31312e322d32352d32357a222f3e3c70617468206101408201527f66696c6c3d22234646464646462220643d224d3236352036323463302d31332e6101608201527f382031312e322d32352032352d3235683534336331332e3820302032352031316101808201527f2e322032352032357635362e3563302031332e382d31312e322032352d3235206101a08201527f323548323930632d31332e3820302d32352d31312e322d32352d32357a222f3e6101c08201527f3c706174682066696c6c3d22234646464646462220643d224d30203139302e356101e08201527f63302d31332e382031312e322d32352032352d3235683534336331332e3820306102008201527f2032352031312e322032352032355632343763302031332e382d31312e3220326102208201527f352d3235203235483235632d31332e3820302d32352d31312e322d32352d32356102408201527f7a222f3e3c2f7376673e3c7465787420783d2233302220793d223637302220736102608201527f74796c653d22666f6e743a363070782073616e732d73657269663b66696c6c3a6102808201526511b33333111f60d11b6102a08201526000612f266140326102a6840185613bcd565b6c1e17ba32bc3a1f1e17b9bb339f60991b8152600d0190565b7f646174613a696d6167652f7376672b786d6c3b6261736536342c00000000000081526000825161408381601a8501602087016133a5565b91909101601a0192915050565b683d913730b6b2911d1160b91b815282516000906140b58160098501602088016133a5565b6b1116101134b6b0b3b2911d1160a11b60099184019182015283516140e18160158401602088016133a5565b7f222c20226465736372697074696f6e223a202254616c656e74204c6179657220601592909101918201526c506c6174666f726d204944227d60981b6035820152604201949350505050565b7f646174613a6170706c69636174696f6e2f6a736f6e3b6261736536342c00000081526000825161416581601d8501602087016133a5565b91909101601d0192915050565b7f416363657373436f6e74726f6c3a206163636f756e74200000000000000000008152600083516141aa8160178501602088016133a5565b7001034b99036b4b9b9b4b733903937b6329607d1b60179184019182015283516141db8160288401602088016133a5565b01602801949350505050565b60208082526025908201527f4552433732313a207472616e736665722066726f6d20696e636f72726563742060408201526437bbb732b960d91b606082015260800190565b6001600160a01b038581168252841660208201526040810183905260806060820181905260009061425f908301846133d1565b9695505050505050565b60006020828403121561427b57600080fd5b8151612f2681613372565b6000821982111561429957614299613935565b500190565b6000826142bb57634e487b7160e01b600052601260045260246000fd5b500490565b60008160001904831182151516156142da576142da613935565b500290565b634e487b7160e01b600052603260045260246000fd5b60008161430457614304613935565b50600019019056fe360894a13ba1a3210667c828492db98dca3e2076cc3735a920a3ca505d382bbc4142434445464748494a4b4c4d4e4f505152535455565758595a6162636465666768696a6b6c6d6e6f707172737475767778797a303132333435363738392b2f154c00819833dac601ee5ddded6fda79d9d8b506b911b3dbd54cdb95fe6c3686416464726573733a206c6f772d6c6576656c2064656c65676174652063616c6c206661696c6564a2646970667358221220e31fdf43e2db5c1188e13e24857c4e4f794ff372142aa1d53764668022b4721664736f6c63430008090033",
  "linkReferences": {},
  "deployedLinkReferences": {}
}