{
  "_format": "hh-sol-artifact-1",
  "contractName": "TalentLayerPlatformID",
  "sourceName": "contracts/TalentLayerPlatformID.sol",
  "abi": [
    {
      "inputs": [],
      "stateMutability": "nonpayable",
      "type": "constructor"
    },
    {
      "inputs": [],
      "name": "ApprovalCallerNotOwnerNorApproved",
      "type": "error"
    },
    {
      "inputs": [],
      "name": "ApprovalQueryForNonexistentToken",
      "type": "error"
    },
    {
      "inputs": [],
      "name": "ApproveToCaller",
      "type": "error"
    },
    {
      "inputs": [],
      "name": "BalanceQueryForZeroAddress",
      "type": "error"
    },
    {
      "inputs": [],
      "name": "MintERC2309QuantityExceedsLimit",
      "type": "error"
    },
    {
      "inputs": [],
      "name": "MintToZeroAddress",
      "type": "error"
    },
    {
      "inputs": [],
      "name": "MintZeroQuantity",
      "type": "error"
    },
    {
      "inputs": [],
      "name": "OwnerQueryForNonexistentToken",
      "type": "error"
    },
    {
      "inputs": [],
      "name": "OwnershipNotInitializedForExtraData",
      "type": "error"
    },
    {
      "inputs": [],
      "name": "TransferCallerNotOwnerNorApproved",
      "type": "error"
    },
    {
      "inputs": [],
      "name": "TransferFromIncorrectOwner",
      "type": "error"
    },
    {
      "inputs": [],
      "name": "TransferToNonERC721ReceiverImplementer",
      "type": "error"
    },
    {
      "inputs": [],
      "name": "TransferToZeroAddress",
      "type": "error"
    },
    {
      "inputs": [],
      "name": "URIQueryForNonexistentToken",
      "type": "error"
    },
    {
      "anonymous": false,
      "inputs": [
        {
          "indexed": true,
          "internalType": "address",
          "name": "owner",
          "type": "address"
        },
        {
          "indexed": true,
          "internalType": "address",
          "name": "approved",
          "type": "address"
        },
        {
          "indexed": true,
          "internalType": "uint256",
          "name": "tokenId",
          "type": "uint256"
        }
      ],
      "name": "Approval",
      "type": "event"
    },
    {
      "anonymous": false,
      "inputs": [
        {
          "indexed": true,
          "internalType": "address",
          "name": "owner",
          "type": "address"
        },
        {
          "indexed": true,
          "internalType": "address",
          "name": "operator",
          "type": "address"
        },
        {
          "indexed": false,
          "internalType": "bool",
          "name": "approved",
          "type": "bool"
        }
      ],
      "name": "ApprovalForAll",
      "type": "event"
    },
    {
      "anonymous": false,
      "inputs": [
        {
          "indexed": true,
          "internalType": "uint256",
          "name": "_tokenId",
          "type": "uint256"
        },
        {
          "indexed": false,
          "internalType": "string",
          "name": "_newCid",
          "type": "string"
        }
      ],
      "name": "CidUpdated",
      "type": "event"
    },
    {
      "anonymous": false,
      "inputs": [
        {
          "indexed": true,
          "internalType": "uint256",
          "name": "fromTokenId",
          "type": "uint256"
        },
        {
          "indexed": false,
          "internalType": "uint256",
          "name": "toTokenId",
          "type": "uint256"
        },
        {
          "indexed": true,
          "internalType": "address",
          "name": "from",
          "type": "address"
        },
        {
          "indexed": true,
          "internalType": "address",
          "name": "to",
          "type": "address"
        }
      ],
      "name": "ConsecutiveTransfer",
      "type": "event"
    },
    {
      "anonymous": false,
      "inputs": [
        {
          "indexed": true,
          "internalType": "address",
          "name": "_platformOwnerAddress",
          "type": "address"
        },
        {
          "indexed": false,
          "internalType": "uint256",
          "name": "_tokenId",
          "type": "uint256"
        },
        {
          "indexed": false,
          "internalType": "string",
          "name": "_platformName",
          "type": "string"
        },
        {
          "indexed": false,
          "internalType": "uint256",
          "name": "_fee",
          "type": "uint256"
        }
      ],
      "name": "Mint",
      "type": "event"
    },
    {
      "anonymous": false,
      "inputs": [
        {
          "indexed": false,
          "internalType": "uint256",
          "name": "_mintFee",
          "type": "uint256"
        }
      ],
      "name": "MintFeeUpdated",
      "type": "event"
    },
    {
      "anonymous": false,
      "inputs": [
        {
          "indexed": true,
          "internalType": "bytes32",
          "name": "role",
          "type": "bytes32"
        },
        {
          "indexed": true,
          "internalType": "bytes32",
          "name": "previousAdminRole",
          "type": "bytes32"
        },
        {
          "indexed": true,
          "internalType": "bytes32",
          "name": "newAdminRole",
          "type": "bytes32"
        }
      ],
      "name": "RoleAdminChanged",
      "type": "event"
    },
    {
      "anonymous": false,
      "inputs": [
        {
          "indexed": true,
          "internalType": "bytes32",
          "name": "role",
          "type": "bytes32"
        },
        {
          "indexed": true,
          "internalType": "address",
          "name": "account",
          "type": "address"
        },
        {
          "indexed": true,
          "internalType": "address",
          "name": "sender",
          "type": "address"
        }
      ],
      "name": "RoleGranted",
      "type": "event"
    },
    {
      "anonymous": false,
      "inputs": [
        {
          "indexed": true,
          "internalType": "bytes32",
          "name": "role",
          "type": "bytes32"
        },
        {
          "indexed": true,
          "internalType": "address",
          "name": "account",
          "type": "address"
        },
        {
          "indexed": true,
          "internalType": "address",
          "name": "sender",
          "type": "address"
        }
      ],
      "name": "RoleRevoked",
      "type": "event"
    },
    {
      "anonymous": false,
      "inputs": [
        {
          "indexed": true,
          "internalType": "address",
          "name": "from",
          "type": "address"
        },
        {
          "indexed": true,
          "internalType": "address",
          "name": "to",
          "type": "address"
        },
        {
          "indexed": true,
          "internalType": "uint256",
          "name": "tokenId",
          "type": "uint256"
        }
      ],
      "name": "Transfer",
      "type": "event"
    },
    {
      "inputs": [],
      "name": "DEFAULT_ADMIN_ROLE",
      "outputs": [
        {
          "internalType": "bytes32",
          "name": "",
          "type": "bytes32"
        }
      ],
      "stateMutability": "view",
      "type": "function"
    },
    {
      "inputs": [],
      "name": "MINT_ROLE",
      "outputs": [
        {
          "internalType": "bytes32",
          "name": "",
          "type": "bytes32"
        }
      ],
      "stateMutability": "view",
      "type": "function"
    },
    {
      "inputs": [
        {
          "internalType": "address",
          "name": "to",
          "type": "address"
        },
        {
          "internalType": "uint256",
          "name": "tokenId",
          "type": "uint256"
        }
      ],
      "name": "approve",
      "outputs": [],
      "stateMutability": "nonpayable",
      "type": "function"
    },
    {
      "inputs": [
        {
          "internalType": "address",
          "name": "owner",
          "type": "address"
        }
      ],
      "name": "balanceOf",
      "outputs": [
        {
          "internalType": "uint256",
          "name": "",
          "type": "uint256"
        }
      ],
      "stateMutability": "view",
      "type": "function"
    },
    {
      "inputs": [
        {
          "internalType": "uint256",
          "name": "tokenId",
          "type": "uint256"
        }
      ],
      "name": "getApproved",
      "outputs": [
        {
          "internalType": "address",
          "name": "",
          "type": "address"
        }
      ],
      "stateMutability": "view",
      "type": "function"
    },
    {
      "inputs": [
        {
          "internalType": "uint256",
          "name": "_platformId",
          "type": "uint256"
        }
      ],
      "name": "getPlatformFee",
      "outputs": [
        {
          "internalType": "uint16",
          "name": "",
          "type": "uint16"
        }
      ],
      "stateMutability": "view",
      "type": "function"
    },
    {
      "inputs": [
        {
          "internalType": "address",
          "name": "_owner",
          "type": "address"
        }
      ],
      "name": "getPlatformIdFromAddress",
      "outputs": [
        {
          "internalType": "uint256",
          "name": "",
          "type": "uint256"
        }
      ],
      "stateMutability": "view",
      "type": "function"
    },
    {
      "inputs": [
        {
          "internalType": "bytes32",
          "name": "role",
          "type": "bytes32"
        }
      ],
      "name": "getRoleAdmin",
      "outputs": [
        {
          "internalType": "bytes32",
          "name": "",
          "type": "bytes32"
        }
      ],
      "stateMutability": "view",
      "type": "function"
    },
    {
      "inputs": [
        {
          "internalType": "bytes32",
          "name": "role",
          "type": "bytes32"
        },
        {
          "internalType": "address",
          "name": "account",
          "type": "address"
        }
      ],
      "name": "grantRole",
      "outputs": [],
      "stateMutability": "nonpayable",
      "type": "function"
    },
    {
      "inputs": [
        {
          "internalType": "address",
          "name": "",
          "type": "address"
        }
      ],
      "name": "hasBeenRecovered",
      "outputs": [
        {
          "internalType": "bool",
          "name": "",
          "type": "bool"
        }
      ],
      "stateMutability": "view",
      "type": "function"
    },
    {
      "inputs": [
        {
          "internalType": "bytes32",
          "name": "role",
          "type": "bytes32"
        },
        {
          "internalType": "address",
          "name": "account",
          "type": "address"
        }
      ],
      "name": "hasRole",
      "outputs": [
        {
          "internalType": "bool",
          "name": "",
          "type": "bool"
        }
      ],
      "stateMutability": "view",
      "type": "function"
    },
    {
      "inputs": [
        {
          "internalType": "address",
          "name": "owner",
          "type": "address"
        },
        {
          "internalType": "address",
          "name": "operator",
          "type": "address"
        }
      ],
      "name": "isApprovedForAll",
      "outputs": [
        {
          "internalType": "bool",
          "name": "",
          "type": "bool"
        }
      ],
      "stateMutability": "view",
      "type": "function"
    },
    {
      "inputs": [
        {
          "internalType": "uint256",
          "name": "_platformId",
          "type": "uint256"
        }
      ],
      "name": "isValid",
      "outputs": [],
      "stateMutability": "view",
      "type": "function"
    },
    {
      "inputs": [
        {
          "internalType": "string",
          "name": "_platformName",
          "type": "string"
        }
      ],
      "name": "mint",
      "outputs": [],
      "stateMutability": "payable",
      "type": "function"
    },
    {
      "inputs": [],
      "name": "mintFee",
      "outputs": [
        {
          "internalType": "uint256",
          "name": "",
          "type": "uint256"
        }
      ],
      "stateMutability": "view",
      "type": "function"
    },
    {
      "inputs": [],
      "name": "name",
      "outputs": [
        {
          "internalType": "string",
          "name": "",
          "type": "string"
        }
      ],
      "stateMutability": "view",
      "type": "function"
    },
    {
      "inputs": [
        {
          "internalType": "address",
          "name": "_platformAddress",
          "type": "address"
        }
      ],
      "name": "numberMinted",
      "outputs": [
        {
          "internalType": "uint256",
          "name": "",
          "type": "uint256"
        }
      ],
      "stateMutability": "view",
      "type": "function"
    },
    {
      "inputs": [
        {
          "internalType": "uint256",
          "name": "tokenId",
          "type": "uint256"
        }
      ],
      "name": "ownerOf",
      "outputs": [
        {
          "internalType": "address",
          "name": "",
          "type": "address"
        }
      ],
      "stateMutability": "view",
      "type": "function"
    },
    {
      "inputs": [
        {
          "internalType": "uint256",
          "name": "",
          "type": "uint256"
        }
      ],
      "name": "platforms",
      "outputs": [
        {
          "internalType": "uint256",
          "name": "id",
          "type": "uint256"
        },
        {
          "internalType": "string",
          "name": "name",
          "type": "string"
        },
        {
          "internalType": "string",
          "name": "dataUri",
          "type": "string"
        },
        {
          "internalType": "uint16",
          "name": "fee",
          "type": "uint16"
        }
      ],
      "stateMutability": "view",
      "type": "function"
    },
    {
      "inputs": [],
      "name": "recoveryRoot",
      "outputs": [
        {
          "internalType": "bytes32",
          "name": "",
          "type": "bytes32"
        }
      ],
      "stateMutability": "view",
      "type": "function"
    },
    {
      "inputs": [
        {
          "internalType": "bytes32",
          "name": "role",
          "type": "bytes32"
        },
        {
          "internalType": "address",
          "name": "account",
          "type": "address"
        }
      ],
      "name": "renounceRole",
      "outputs": [],
      "stateMutability": "nonpayable",
      "type": "function"
    },
    {
      "inputs": [
        {
          "internalType": "bytes32",
          "name": "role",
          "type": "bytes32"
        },
        {
          "internalType": "address",
          "name": "account",
          "type": "address"
        }
      ],
      "name": "revokeRole",
      "outputs": [],
      "stateMutability": "nonpayable",
      "type": "function"
    },
    {
      "inputs": [
        {
          "internalType": "address",
          "name": "from",
          "type": "address"
        },
        {
          "internalType": "address",
          "name": "to",
          "type": "address"
        },
        {
          "internalType": "uint256",
          "name": "tokenId",
          "type": "uint256"
        }
      ],
      "name": "safeTransferFrom",
      "outputs": [],
      "stateMutability": "nonpayable",
      "type": "function"
    },
    {
      "inputs": [
        {
          "internalType": "address",
          "name": "from",
          "type": "address"
        },
        {
          "internalType": "address",
          "name": "to",
          "type": "address"
        },
        {
          "internalType": "uint256",
          "name": "tokenId",
          "type": "uint256"
        },
        {
          "internalType": "bytes",
          "name": "_data",
          "type": "bytes"
        }
      ],
      "name": "safeTransferFrom",
      "outputs": [],
      "stateMutability": "nonpayable",
      "type": "function"
    },
    {
      "inputs": [
        {
          "internalType": "address",
          "name": "operator",
          "type": "address"
        },
        {
          "internalType": "bool",
          "name": "approved",
          "type": "bool"
        }
      ],
      "name": "setApprovalForAll",
      "outputs": [],
      "stateMutability": "nonpayable",
      "type": "function"
    },
    {
      "inputs": [
        {
          "internalType": "bytes4",
          "name": "interfaceId",
          "type": "bytes4"
        }
      ],
      "name": "supportsInterface",
      "outputs": [
        {
          "internalType": "bool",
          "name": "",
          "type": "bool"
        }
      ],
      "stateMutability": "view",
      "type": "function"
    },
    {
      "inputs": [],
      "name": "symbol",
      "outputs": [
        {
          "internalType": "string",
          "name": "",
          "type": "string"
        }
      ],
      "stateMutability": "view",
      "type": "function"
    },
    {
      "inputs": [
        {
          "internalType": "string",
          "name": "",
          "type": "string"
        }
      ],
      "name": "takenNames",
      "outputs": [
        {
          "internalType": "bool",
          "name": "",
          "type": "bool"
        }
      ],
      "stateMutability": "view",
      "type": "function"
    },
    {
      "inputs": [
        {
          "internalType": "uint256",
          "name": "tokenId",
          "type": "uint256"
        }
      ],
      "name": "tokenURI",
      "outputs": [
        {
          "internalType": "string",
          "name": "",
          "type": "string"
        }
      ],
      "stateMutability": "view",
      "type": "function"
    },
    {
      "inputs": [],
      "name": "totalSupply",
      "outputs": [
        {
          "internalType": "uint256",
          "name": "",
          "type": "uint256"
        }
      ],
      "stateMutability": "view",
      "type": "function"
    },
    {
      "inputs": [
        {
          "internalType": "address",
          "name": "from",
          "type": "address"
        },
        {
          "internalType": "address",
          "name": "to",
          "type": "address"
        },
        {
          "internalType": "uint256",
          "name": "tokenId",
          "type": "uint256"
        }
      ],
      "name": "transferFrom",
      "outputs": [],
      "stateMutability": "nonpayable",
      "type": "function"
    },
    {
      "inputs": [
        {
          "internalType": "uint256",
          "name": "_mintFee",
          "type": "uint256"
        }
      ],
      "name": "updateMintFee",
      "outputs": [],
      "stateMutability": "nonpayable",
      "type": "function"
    },
    {
      "inputs": [
        {
          "internalType": "uint256",
          "name": "_platformId",
          "type": "uint256"
        },
        {
          "internalType": "uint16",
          "name": "_platformfee",
          "type": "uint16"
        }
      ],
      "name": "updatePlatformfee",
      "outputs": [],
      "stateMutability": "nonpayable",
      "type": "function"
    },
    {
      "inputs": [
        {
          "internalType": "uint256",
          "name": "_platformId",
          "type": "uint256"
        },
        {
          "internalType": "string",
          "name": "_newCid",
          "type": "string"
        }
      ],
      "name": "updateProfileData",
      "outputs": [],
      "stateMutability": "nonpayable",
      "type": "function"
    },
    {
      "inputs": [
        {
          "internalType": "bytes32",
          "name": "_newRoot",
          "type": "bytes32"
        }
      ],
      "name": "updateRecoveryRoot",
      "outputs": [],
      "stateMutability": "nonpayable",
      "type": "function"
    },
    {
      "inputs": [],
      "name": "withdraw",
      "outputs": [],
      "stateMutability": "nonpayable",
      "type": "function"
    }
  ],
  "bytecode": "0x60806040523480156200001157600080fd5b50604080518082018252601581527f54616c656e744c61796572506c6174666f726d494400000000000000000000006020808301918252835180850190945260048452631514125160e21b90840152815191929162000073916002916200015e565b508051620000899060039060208401906200015e565b5050600160009081556200009f915033620000aa565b6000600d5562000241565b620000b68282620000ba565b5050565b60008281526008602090815260408083206001600160a01b038516845290915290205460ff16620000b65760008281526008602090815260408083206001600160a01b03851684529091529020805460ff191660011790556200011a3390565b6001600160a01b0316816001600160a01b0316837f2f8788117e7eff1d82e926ec794901d17c78024a50270940304540a733656f0d60405160405180910390a45050565b8280546200016c9062000204565b90600052602060002090601f016020900481019282620001905760008555620001db565b82601f10620001ab57805160ff1916838001178555620001db565b82800160010185558215620001db579182015b82811115620001db578251825591602001919060010190620001be565b50620001e9929150620001ed565b5090565b5b80821115620001e95760008155600101620001ee565b600181811c908216806200021957607f821691505b602082108114156200023b57634e487b7160e01b600052602260045260246000fd5b50919050565b613d0f80620002516000396000f3fe60806040526004361061020f5760003560e01c806395d89b4111610118578063d97939eb116100a0578063e9a9c8501161006f578063e9a9c85014610659578063eefdc15a1461068d578063f160068f146106ad578063f577a500146106cd578063faa992d3146106ed57600080fd5b8063d97939eb14610579578063dc33e681146105c0578063de829592146105e0578063e985e9c51461061057600080fd5b8063aa44caaf116100e7578063aa44caaf146104e6578063b88d4fde14610506578063c87b56dd14610526578063d547741f14610546578063d85d3d271461056657600080fd5b806395d89b4114610461578063a217fddf14610476578063a22cb4651461048b578063a383c692146104ab57600080fd5b80632f2ff15d1161019b57806342842e0e1161016a57806342842e0e1461031c5780636352211e146103e157806370a082311461040157806384017e521461042157806391d148541461044157600080fd5b80632f2ff15d1461036c57806336568abe1461038c5780633ccfd60b146103ac5780633ce12f6d146103c157600080fd5b806313966db5116101e257806313966db5146102c557806318160ddd146102e957806319aeca931461030657806323b872dd1461031c578063248a9ca31461033c57600080fd5b806301ffc9a71461021457806306fdde0314610249578063081812fc1461026b578063095ea7b3146102a3575b600080fd5b34801561022057600080fd5b5061023461022f366004611cb9565b61071d565b60405190151581526020015b60405180910390f35b34801561025557600080fd5b5061025e61073d565b6040516102409190611d2e565b34801561027757600080fd5b5061028b610286366004611d41565b6107cf565b6040516001600160a01b039091168152602001610240565b3480156102af57600080fd5b506102c36102be366004611d76565b610813565b005b3480156102d157600080fd5b506102db600d5481565b604051908152602001610240565b3480156102f557600080fd5b5060015460005403600019016102db565b34801561031257600080fd5b506102db60095481565b34801561032857600080fd5b506102c3610337366004611da0565b6108b3565b34801561034857600080fd5b506102db610357366004611d41565b60009081526008602052604090206001015490565b34801561037857600080fd5b506102c3610387366004611ddc565b6108ee565b34801561039857600080fd5b506102c36103a7366004611ddc565b610918565b3480156103b857600080fd5b506102c3610996565b3480156103cd57600080fd5b506102c36103dc366004611d41565b610a39565b3480156103ed57600080fd5b5061028b6103fc366004611d41565b610a4a565b34801561040d57600080fd5b506102db61041c366004611e08565b610a55565b34801561042d57600080fd5b506102c361043c366004611d41565b610aa4565b34801561044d57600080fd5b5061023461045c366004611ddc565b610aeb565b34801561046d57600080fd5b5061025e610b16565b34801561048257600080fd5b506102db600081565b34801561049757600080fd5b506102c36104a6366004611e23565b610b25565b3480156104b757600080fd5b506102346104c6366004611f0b565b8051602081830181018051600a8252928201919093012091525460ff1681565b3480156104f257600080fd5b506102db610501366004611e08565b610bbb565b34801561051257600080fd5b506102c3610521366004611f40565b610c44565b34801561053257600080fd5b5061025e610541366004611d41565b610c8e565b34801561055257600080fd5b506102c3610561366004611ddc565b610c99565b6102c3610574366004611f0b565b610cbe565b34801561058557600080fd5b506105ad610594366004611d41565b6000908152600b602052604090206003015461ffff1690565b60405161ffff9091168152602001610240565b3480156105cc57600080fd5b506102db6105db366004611e08565b610e9a565b3480156105ec57600080fd5b506102346105fb366004611e08565b600c6020526000908152604090205460ff1681565b34801561061c57600080fd5b5061023461062b366004611fbc565b6001600160a01b03918216600090815260076020908152604080832093909416825291909152205460ff1690565b34801561066557600080fd5b506102db7f154c00819833dac601ee5ddded6fda79d9d8b506b911b3dbd54cdb95fe6c368681565b34801561069957600080fd5b506102c36106a8366004611fe6565b610ea5565b3480156106b957600080fd5b506102c36106c8366004612012565b610f3a565b3480156106d957600080fd5b506102c36106e8366004611d41565b61100a565b3480156106f957600080fd5b5061070d610708366004611d41565b61108d565b6040516102409493929190612059565b6000610728826111ca565b80610737575061073782611218565b92915050565b60606002805461074c9061209a565b80601f01602080910402602001604051908101604052809291908181526020018280546107789061209a565b80156107c55780601f1061079a576101008083540402835291602001916107c5565b820191906000526020600020905b8154815290600101906020018083116107a857829003601f168201915b5050505050905090565b60006107da8261124d565b6107f7576040516333d1c03960e21b815260040160405180910390fd5b506000908152600660205260409020546001600160a01b031690565b600061081e82610a4a565b9050336001600160a01b038216146108575761083a813361062b565b610857576040516367d9dca160e11b815260040160405180910390fd5b60008281526006602052604080822080546001600160a01b0319166001600160a01b0387811691821790925591518593918516917f8c5be1e5ebec7d5bd14f71427d1e84f3dd0314c0f7b2291e5b200ac8c7c3b92591a4505050565b60405162461bcd60e51b815260206004820152600b60248201526a139bdd08185b1b1bddd95960aa1b60448201526064015b60405180910390fd5b60008281526008602052604090206001015461090981611282565b610913838361128c565b505050565b6001600160a01b03811633146109885760405162461bcd60e51b815260206004820152602f60248201527f416363657373436f6e74726f6c3a2063616e206f6e6c792072656e6f756e636560448201526e103937b632b9903337b91039b2b63360891b60648201526084016108e5565b6109928282611312565b5050565b60006109a181611282565b604051600090339047908381818185875af1925050503d80600081146109e3576040519150601f19603f3d011682016040523d82523d6000602084013e6109e8565b606091505b50509050806109925760405162461bcd60e51b815260206004820152601860248201527f4661696c656420746f207769746864726177204574686572000000000000000060448201526064016108e5565b6000610a4481611282565b50600955565b600061073782611379565b60006001600160a01b038216610a7e576040516323d3ad8160e21b815260040160405180910390fd5b506001600160a01b031660009081526005602052604090205467ffffffffffffffff1690565b6000610aaf81611282565b600d8290556040518281527f38fbb1c8b109c430f0c030e7ed076cf5611a307773a4e8e365601e8f8bceaec69060200160405180910390a15050565b60009182526008602090815260408084206001600160a01b0393909316845291905290205460ff1690565b60606003805461074c9061209a565b6001600160a01b038216331415610b4f5760405163b06307db60e01b815260040160405180910390fd5b3360008181526007602090815260408083206001600160a01b03871680855290835292819020805460ff191686151590811790915590519081529192917f17307eab39ab6107e8899845ad3d59bd9653f200f220920489ca2b5937696c31910160405180910390a35050565b6000806001815b60015460005403600019018211610c3b576000610bde836113e9565b90508060400151158015610bfb575080516001600160a01b031615155b15610c0557805191505b856001600160a01b0316826001600160a01b03161415610c285782935050610c3b565b82610c32816120eb565b93505050610bc2565b50909392505050565b610c4f8484846108b3565b6001600160a01b0383163b15610c8857610c6b84848484611461565b610c88576040516368d2bf6b60e11b815260040160405180910390fd5b50505050565b606061073782611559565b600082815260086020526040902060010154610cb481611282565b6109138383611312565b80600d543414610d1c5760405162461bcd60e51b8152602060048201526024808201527f496e636f727265637420616d6f756e74206f662045544820666f72206d696e746044820152632066656560e01b60648201526084016108e5565b610d2533610e9a565b15610d725760405162461bcd60e51b815260206004820152601e60248201527f596f7520616c72656164792068617665206120506c6174666f726d204944000060448201526064016108e5565b600281511015610db55760405162461bcd60e51b815260206004820152600e60248201526d13985b59481d1bdbc81cda1bdc9d60921b60448201526064016108e5565b600a81511115610df75760405162461bcd60e51b815260206004820152600d60248201526c4e616d6520746f6f206c6f6e6760981b60448201526064016108e5565b600a81604051610e079190612122565b9081526040519081900360200190205460ff1615610e5c5760405162461bcd60e51b81526020600482015260126024820152712730b6b29030b63932b0b23c903a30b5b2b760711b60448201526064016108e5565b7f154c00819833dac601ee5ddded6fda79d9d8b506b911b3dbd54cdb95fe6c3686610e8681611282565b610e91336001611683565b6109138361169d565b600061073782610a55565b33610eaf83610a4a565b6001600160a01b031614610f135760405162461bcd60e51b815260206004820152602560248201527f596f75277265206e6f7420746865206f776e6572206f66207468697320706c6160448201526474666f726d60d81b60648201526084016108e5565b6000918252600b6020526040909120600301805461ffff191661ffff909216919091179055565b33610f4483610a4a565b6001600160a01b031614610f5757600080fd5b6000815111610fa85760405162461bcd60e51b815260206004820152601f60248201527f53686f756c642070726f7669646520612076616c69642049504653205552490060448201526064016108e5565b6000828152600b602090815260409091208251610fcd92600290920191840190611c0a565b50817f613807bd6768f626264e7eb664a65ca99a0d930f8fd8a5b868491a592eb57f7282604051610ffe9190611d2e565b60405180910390a25050565b600081118015611024575060015460005403600019018111155b61108a5760405162461bcd60e51b815260206004820152603160248201527f506c6174666f726d2030206973206e6f7420612076616c69642054616c656e7460448201527013185e595c88141b185d199bdc9b481251607a1b60648201526084016108e5565b50565b600b60205260009081526040902080546001820180549192916110af9061209a565b80601f01602080910402602001604051908101604052809291908181526020018280546110db9061209a565b80156111285780601f106110fd57610100808354040283529160200191611128565b820191906000526020600020905b81548152906001019060200180831161110b57829003601f168201915b50505050509080600201805461113d9061209a565b80601f01602080910402602001604051908101604052809291908181526020018280546111699061209a565b80156111b65780601f1061118b576101008083540402835291602001916111b6565b820191906000526020600020905b81548152906001019060200180831161119957829003601f168201915b5050506003909301549192505061ffff1684565b60006301ffc9a760e01b6001600160e01b0319831614806111fb57506380ac58cd60e01b6001600160e01b03198316145b806107375750506001600160e01b031916635b5e139f60e01b1490565b60006001600160e01b03198216637965db0b60e01b148061073757506301ffc9a760e01b6001600160e01b0319831614610737565b600081600111158015611261575060005482105b8015610737575050600090815260046020526040902054600160e01b161590565b61108a8133611752565b6112968282610aeb565b6109925760008281526008602090815260408083206001600160a01b03851684529091529020805460ff191660011790556112ce3390565b6001600160a01b0316816001600160a01b0316837f2f8788117e7eff1d82e926ec794901d17c78024a50270940304540a733656f0d60405160405180910390a45050565b61131c8282610aeb565b156109925760008281526008602090815260408083206001600160a01b0385168085529252808320805460ff1916905551339285917ff6391f5c32d9c69d2a47ea670b442974b53935d1edc7fd64eb21e047a839171b9190a45050565b600081806001116113d0576000548110156113d057600081815260046020526040902054600160e01b81166113ce575b806113c75750600019016000818152600460205260409020546113a9565b9392505050565b505b604051636f96cda160e11b815260040160405180910390fd5b60408051608081018252600080825260208201819052918101829052606081019190915261073761141983611379565b604080516080810182526001600160a01b038316815260a083901c67ffffffffffffffff166020820152600160e01b831615159181019190915260e89190911c606082015290565b604051630a85bd0160e11b81526000906001600160a01b0385169063150b7a029061149690339089908890889060040161213e565b602060405180830381600087803b1580156114b057600080fd5b505af19250505080156114e0575060408051601f3d908101601f191682019092526114dd9181019061217b565b60015b61153b573d80801561150e576040519150601f19603f3d011682016040523d82523d6000602084013e611513565b606091505b508051611533576040516368d2bf6b60e11b815260040160405180910390fd5b805181602001fd5b6001600160e01b031916630a85bd0160e11b1490505b949350505050565b6000818152600b602052604081206001018054606092919061157a9061209a565b80601f01602080910402602001604051908101604052809291908181526020018280546115a69061209a565b80156115f35780601f106115c8576101008083540402835291602001916115f3565b820191906000526020600020905b8154815290600101906020018083116115d657829003601f168201915b505050505090506000611624826040516020016116109190612198565b6040516020818303038152906040526117b6565b6040516020016116349190613a37565b604051602081830303815290604052905061165b8282604051602001611610929190613a7c565b60405160200161166b9190613b19565b60405160208183030381529060405292505050919050565b61099282826040518060200160405280600081525061190a565b600060016116aa60005490565b6116b49190613b5e565b6000818152600b602090815260409091208451929350916116dd91600184019190860190611c0a565b506001600a846040516116f09190612122565b908152604051908190036020018120805492151560ff1990931692909217909155600d5433917f704496b72f6d3fd6e462fa31e27faddedde127bc9942bc94320e0c115b00cedf916117459186918891613b75565b60405180910390a2505050565b61175c8282610aeb565b61099257611774816001600160a01b03166014611977565b61177f836020611977565b604051602001611790929190613b9e565b60408051601f198184030181529082905262461bcd60e51b82526108e591600401611d2e565b60608151600014156117d657505060408051602081019091526000815290565b6000604051806060016040528060408152602001613c9a60409139905060006003845160026118059190613c13565b61180f9190613c2b565b61181a906004613c4d565b67ffffffffffffffff81111561183257611832611e5f565b6040519080825280601f01601f19166020018201604052801561185c576020820181803683370190505b509050600182016020820185865187015b808210156118c8576003820191508151603f8160121c168501518453600184019350603f81600c1c168501518453600184019350603f8160061c168501518453600184019350603f811685015184535060018301925061186d565b50506003865106600181146118e457600281146118f7576118ff565b603d6001830353603d60028303536118ff565b603d60018303535b509195945050505050565b6119148383611b13565b6001600160a01b0383163b15610913576000548281035b61193e6000868380600101945086611461565b61195b576040516368d2bf6b60e11b815260040160405180910390fd5b81811061192b57816000541461197057600080fd5b5050505050565b60606000611986836002613c4d565b611991906002613c13565b67ffffffffffffffff8111156119a9576119a9611e5f565b6040519080825280601f01601f1916602001820160405280156119d3576020820181803683370190505b509050600360fc1b816000815181106119ee576119ee613c6c565b60200101906001600160f81b031916908160001a905350600f60fb1b81600181518110611a1d57611a1d613c6c565b60200101906001600160f81b031916908160001a9053506000611a41846002613c4d565b611a4c906001613c13565b90505b6001811115611ac4576f181899199a1a9b1b9c1cb0b131b232b360811b85600f1660108110611a8057611a80613c6c565b1a60f81b828281518110611a9657611a96613c6c565b60200101906001600160f81b031916908160001a90535060049490941c93611abd81613c82565b9050611a4f565b5083156113c75760405162461bcd60e51b815260206004820181905260248201527f537472696e67733a20686578206c656e67746820696e73756666696369656e7460448201526064016108e5565b60005481611b345760405163b562e8dd60e01b815260040160405180910390fd5b6001600160a01b03831660008181526005602090815260408083208054680100000000000000018802019055848352600490915281206001851460e11b4260a01b178317905582840190839083907fddf252ad1be2c89b69c2b068fc378daa952ba7f163c4a11628f55a4df523b3ef8180a4600183015b818114611be357808360007fddf252ad1be2c89b69c2b068fc378daa952ba7f163c4a11628f55a4df523b3ef600080a4600101611bab565b5081611c0157604051622e076360e81b815260040160405180910390fd5b60005550505050565b828054611c169061209a565b90600052602060002090601f016020900481019282611c385760008555611c7e565b82601f10611c5157805160ff1916838001178555611c7e565b82800160010185558215611c7e579182015b82811115611c7e578251825591602001919060010190611c63565b50611c8a929150611c8e565b5090565b5b80821115611c8a5760008155600101611c8f565b6001600160e01b03198116811461108a57600080fd5b600060208284031215611ccb57600080fd5b81356113c781611ca3565b60005b83811015611cf1578181015183820152602001611cd9565b83811115610c885750506000910152565b60008151808452611d1a816020860160208601611cd6565b601f01601f19169290920160200192915050565b6020815260006113c76020830184611d02565b600060208284031215611d5357600080fd5b5035919050565b80356001600160a01b0381168114611d7157600080fd5b919050565b60008060408385031215611d8957600080fd5b611d9283611d5a565b946020939093013593505050565b600080600060608486031215611db557600080fd5b611dbe84611d5a565b9250611dcc60208501611d5a565b9150604084013590509250925092565b60008060408385031215611def57600080fd5b82359150611dff60208401611d5a565b90509250929050565b600060208284031215611e1a57600080fd5b6113c782611d5a565b60008060408385031215611e3657600080fd5b611e3f83611d5a565b915060208301358015158114611e5457600080fd5b809150509250929050565b634e487b7160e01b600052604160045260246000fd5b600067ffffffffffffffff80841115611e9057611e90611e5f565b604051601f8501601f19908116603f01168101908282118183101715611eb857611eb8611e5f565b81604052809350858152868686011115611ed157600080fd5b858560208301376000602087830101525050509392505050565b600082601f830112611efc57600080fd5b6113c783833560208501611e75565b600060208284031215611f1d57600080fd5b813567ffffffffffffffff811115611f3457600080fd5b61155184828501611eeb565b60008060008060808587031215611f5657600080fd5b611f5f85611d5a565b9350611f6d60208601611d5a565b925060408501359150606085013567ffffffffffffffff811115611f9057600080fd5b8501601f81018713611fa157600080fd5b611fb087823560208401611e75565b91505092959194509250565b60008060408385031215611fcf57600080fd5b611fd883611d5a565b9150611dff60208401611d5a565b60008060408385031215611ff957600080fd5b82359150602083013561ffff81168114611e5457600080fd5b6000806040838503121561202557600080fd5b82359150602083013567ffffffffffffffff81111561204357600080fd5b61204f85828601611eeb565b9150509250929050565b8481526080602082015260006120726080830186611d02565b82810360408401526120848186611d02565b91505061ffff8316606083015295945050505050565b600181811c908216806120ae57607f821691505b602082108114156120cf57634e487b7160e01b600052602260045260246000fd5b50919050565b634e487b7160e01b600052601160045260246000fd5b60006000198214156120ff576120ff6120d5565b5060010190565b60008151612118818560208601611cd6565b9290920192915050565b60008251612134818460208701611cd6565b9190910192915050565b6001600160a01b038581168252841660208201526040810183905260806060820181905260009061217190830184611d02565b9695505050505050565b60006020828403121561218d57600080fd5b81516113c781611ca3565b7f3c73766720786d6c6e733d22687474703a2f2f7777772e77332e6f72672f323081527f30302f737667222076696577426f783d223020302037323020373230223e3c6460208201527f6566733e3c6c696e6561724772616469656e742069643d2261222078313d223660408201527f372e3934222079313d223136392e3438222078323d223637302e39382220793260608201527f3d223536322e383622206772616469656e74556e6974733d227573657253706160808201527f63654f6e557365223e3c73746f70206f66667365743d2230222073746f702d6360a08201527f6f6c6f723d2223313761396332222f3e3c73746f70206f66667365743d222e3160c08201527f32222073746f702d636f6c6f723d2223316161396263222f3e3c73746f70206f60e08201527f66667365743d222e3239222073746f702d636f6c6f723d2223323561626162226101008201527f2f3e3c73746f70206f66667365743d222e3438222073746f702d636f6c6f723d6101208201527f2223333561643866222f3e3c73746f70206f66667365743d222e3634222073746101408201527f6f702d636f6c6f723d2223343862303732222f3e3c73746f70206f66667365746101608201527f3d222e3738222073746f702d636f6c6f723d2223353962323534222f3e3c73746101808201527f6f70206f66667365743d2231222073746f702d636f6c6f723d222337616237326101a08201527f30222f3e3c2f6c696e6561724772616469656e743e3c2f646566733e3c7061746101c08201527f68207374796c653d2266696c6c3a75726c282361292220643d224d30203068376101e08201527f32307637323048307a222f3e3c7061746820643d224d34372e30352039322e336102008201527f375635332e38344833332e32395634366833362e383576372e38344835362e346102208201527f317633382e3532682d392e33365a6d33352e37312d32332e33342d382e30372d6102408201527f312e3436632e39312d332e323520322e34372d352e363520342e36382d372e326102608201527f3120322e32312d312e353620352e352d322e333420392e38372d322e333420336102808201527f2e3936203020362e39322e343720382e383620312e343120312e39342e3934206102a08201527f332e333120322e313320342e3120332e353773312e313920342e3120312e31396102c08201527f20372e39366c2d2e312031302e3337633020322e39352e313420352e31332e346102e08201527f3320362e35332e323820312e342e383220322e393120312e3620342e3531682d6103008201527f382e3739632d2e32332d2e35392d2e35322d312e34372d2e38352d322e36332d6103208201527f2e31352d2e35332d2e32352d2e38382d2e33322d312e30342d312e353220312e6103408201527f34382d332e313420322e35382d342e383720332e3332732d332e353720312e316103608201527f312d352e353420312e3131632d332e343620302d362e31382d2e39342d382e316103808201527f382d322e38322d312e39392d312e38382d322e39392d342e32352d322e39392d6103a08201527f372e313220302d312e392e34352d332e353920312e33362d352e303873322e316103c08201527f382d322e363320332e38312d332e343220332e39392d312e343820372e30372d6103e08201527f322e303763342e31352d2e373820372e30332d312e353120382e36332d322e316104008201527f38762d2e383963302d312e37312d2e34322d322e39332d312e32372d332e36356104208201527f732d322e34342d312e30392d342e37382d312e3039632d312e353820302d322e6104408201527f38322e33312d332e372e39332d2e38392e36322d312e3620312e37312d322e316104608201527f3520332e32375a6d31312e383920372e3231632d312e31342e33382d322e39346104808201527f2e38332d352e343120312e33362d322e34372e35332d342e303820312e30342d6104a08201527f342e383420312e35352d312e31362e38322d312e373420312e38372d312e37346104c08201527f20332e3133732e343620322e333220312e333920332e3233632e39332e3931206104e08201527f322e313120312e333620332e353420312e333620312e36203020332e31332d2e6105008201527f353320342e35392d312e353820312e30382d2e3820312e37382d312e373820326105208201527f2e31322d322e39342e32332d2e37362e33352d322e322e33352d342e3333762d6105408201527f312e37375a6d31372e34392031362e313356343668382e38397634362e3337686105608201527f2d382e38395a6d33372e34352d31302e363920382e383620312e3439632d312e6105808201527f313420332e32352d322e393420352e37322d352e333920372e3432732d352e356105a08201527f3320322e35352d392e323220322e3535632d352e383420302d31302e31362d316105c08201527f2e39312d31322e39372d352e37322d322e32312d332e30362d332e33322d362e6105e08201527f39322d332e33322d31312e353820302d352e353720312e34362d392e393320346106008201527f2e33362d31332e303820322e39312d332e313520362e35392d342e37332031316106208201527f2e30342d342e37332035203020382e393420312e36352031312e383320342e396106408201527f3573342e323720382e333620342e31342031352e3137682d32322e3237632e306106608201527f3620322e36342e373820342e363920322e313520362e313520312e333720312e6106808201527f343720332e303820322e3220352e313220322e3220312e3339203020322e35366106a08201527f2d2e333820332e35312d312e31342e39352d2e373620312e36372d312e3938206106c08201527f322e31352d332e36375a6d2e35312d382e3938632d2e30362d322e35372d2e376106e08201527f332d342e35332d312e39392d352e38372d312e32372d312e33342d322e38312d6107008201527f322e30312d342e36322d322e30312d312e393420302d332e35342e37312d342e6107208201527f383120322e31322d312e323720312e34312d312e383920332e33332d312e38376107408201527f20352e37366831332e32385a6d34362e36322031392e3637682d382e383956376107608201527f352e323363302d332e36332d2e31392d352e39372d2e35372d372e30342d2e336107808201527f382d312e30362d312d312e38392d312e38352d322e3438732d312e38382d2e386107a08201527f392d332e30382d2e3839632d312e353420302d322e39322e34322d342e3134206107c08201527f312e3237732d322e303620312e39362d322e353120332e3335632d2e343520316107e08201527f2e33392d2e363820332e39362d2e363820372e37327631352e3231682d382e386108008201527f395635382e373868382e323676342e393363322e39332d332e3820362e36322d6108208201527f352e36392031312e30372d352e363920312e3936203020332e37352e333520356108408201527f2e333820312e303620312e36322e373120322e383520312e363120332e3638206108608201527f322e372e383320312e3120312e343120322e333420312e373420332e3733732e6108808201527f343920332e33382e343920352e39387632302e38385a6d32342e34322d33332e6108a08201527f353976372e3038682d362e30375637392e34633020322e37342e303620342e336108c08201527f342e313720342e37392e31322e34352e33382e38332e373920312e31322e34316108e08201527f2e332e39312e343420312e352e34342e3832203020322e30312d2e323820332e6109008201527f35372d2e38356c2e373620362e39632d322e30372e38392d342e343120312e336109208201527f332d372e303220312e33332d312e3620302d332e30352d2e32372d342e33332d6109408201527f2e38312d312e32392d2e35342d322e32332d312e32332d322e38332d322e30396109608201527f2d2e362d2e38352d312e30322d322e30312d312e32352d332e34362d2e31392d6109808201527f312e30332d2e32382d332e31322d2e32382d362e32365636352e3836682d342e6109a08201527f3038762d372e303868342e3038762d362e36376c382e39322d352e31397631316109c08201527f2e383668362e30375a6d362e32362033332e353956343668362e31347634302e6109e08201527f396832322e383476352e3437682d32382e39375a6d35372e34372d342e313463610a008201527f2d322e313120312e37392d342e313420332e30362d362e303920332e382d312e610a208201527f39352e37342d342e303420312e31312d362e323820312e31312d332e36392030610a408201527f2d362e35332d2e392d382e35312d322e372d312e39382d312e382d322e39372d610a608201527f342e31312d322e39372d362e393120302d312e36342e33372d332e313520312e610a808201527f31322d342e353173312e37332d322e343520322e39342d332e323763312e3231610aa08201527f2d2e383220322e35382d312e343420342e312d312e383720312e31322d2e3320610ac08201527f322e382d2e353820352e30362d2e383520342e362d2e353520372e39382d312e610ae08201527f322031302e31352d312e39362e30322d2e37382e30332d312e32382e30332d31610b008201527f2e343920302d322e33322d2e35342d332e39352d312e36312d342e392d312e34610b208201527f362d312e32392d332e36322d312e39332d362e34382d312e39332d322e363820610b408201527f302d342e36352e34372d352e393320312e3431732d322e323220322e362d322e610b608201527f383320342e39386c2d352e35372d2e3736632e35312d322e333820312e33342d610b808201527f342e333120322e352d352e373720312e31362d312e343720322e38342d322e35610ba08201527f3920352e30332d332e333820322e31392d2e373920342e37332d312e31392037610bc08201527f2e36322d312e313973352e322e333420362e393920312e303163312e37392e36610be08201527f3820332e313120312e353220332e393520322e35352e383420312e303220312e610c008201527f343320322e333120312e373720332e38382e31392e39372e323820322e37322e610c208201527f323820352e323576372e3539633020352e32392e313220382e36342e33362031610c408201527f302e30342e323420312e342e373220322e373520312e343420342e3033682d35610c608201527f2e3935632d2e35392d312e31382d2e39372d322e35362d312e31342d342e3134610c808201527f5a6d2d2e34372d31322e3732632d322e30372e38342d352e313720312e35362d610ca08201527f392e3320322e31352d322e33342e33342d34202e37322d342e393720312e3134610cc08201527f2d2e39372e34322d312e373220312e30342d322e323520312e3835732d2e3739610ce08201527f20312e37312d2e373920322e37633020312e35322e353720322e373820312e37610d008201527f3220332e3820312e313520312e303120322e383320312e353220352e30352031610d208201527f2e353273342e31342d2e343820352e38352d312e343420322e39362d322e3237610d408201527f20332e37362d332e3934632e36312d312e32392e39322d332e31382e39322d35610d608201527f2e3639762d322e30395a6d31342e33332032392e382d2e36332d352e33356331610d808201527f2e32342e333420322e33332e353120332e32362e353120312e3237203020322e610da08201527f32382d2e323120332e30342d2e363373312e33382d312e303120312e38372d31610dc08201527f2e3737632e33362d2e35372e39342d312e393820312e37342d342e32342e3131610de08201527f2d2e33322e32372d2e37382e35312d312e33396c2d31322e37352d33332e3635610e008201527f68362e31346c362e39392031392e3435632e393120322e343720312e37322035610e208201527f2e303620322e343420372e37382e36352d322e363120312e34332d352e313720610e408201527f322e33342d372e36356c372e31382d31392e353868352e36396c2d31322e3738610e608201527f2033342e3136632d312e333720332e36392d322e343420362e32332d332e3139610e808201527f20372e36322d312e303120312e38382d322e313720332e32352d332e34382034610ea08201527f2e31332d312e33312e38382d322e383720312e33312d342e363820312e33312d610ec08201527f312e3120302d322e33322d2e32332d332e36372d2e375a6d35352e36332d3233610ee08201527f2e373620352e38382e3733632d2e393320332e34342d322e363520362e312d35610f008201527f2e313620382d322e353120312e392d352e373120322e38352d392e363220322e610f208201527f38352d342e393120302d382e38312d312e35312d31312e36392d342e35342d32610f408201527f2e38382d332e30332d342e33322d372e32372d342e33322d31322e373373312e610f608201527f34362d31302e303420342e33362d31332e313663322e39312d332e313220362e610f808201527f36382d342e36382031312e33322d342e363873382e313620312e35332031312e610fa08201527f303120342e353963322e383520332e303620342e323720372e333620342e3237610fc08201527f2031322e39312030202e33342d2e30312e38342d2e303320312e3532682d3235610fe08201527f2e3035632e323120332e363920312e323520362e353220332e313320382e34386110008201527f20312e383820312e393620342e323220322e393420372e303220322e393420326110208201527f2e3039203020332e38372d2e353520352e33352d312e363420312e34382d312e6110408201527f3120322e36352d322e383520332e35312d352e32355a6d2d31382e36392d392e6110608201527f326831382e3736632d2e32352d322e38332d2e39372d342e39342d322e31352d6110808201527f362e33362d312e38312d322e31392d342e31372d332e32392d372e30352d332e6110a08201527f32392d322e363120302d342e38312e38382d362e3620322e3633732d322e37376110c08201527f20342e30392d322e393620372e30325a6d33312e36362032302e30325635382e6110e08201527f373868352e313276352e303963312e33312d322e333820322e35312d332e39356111008201527f20332e36322d342e373173322e33322d312e313420332e36352d312e313463316111208201527f2e3932203020332e38372e363120352e383520312e38336c2d312e393620352e6111408201527f3238632d312e33392d2e38322d322e37382d312e32332d342e31382d312e32336111608201527f2d312e323420302d322e33362e33372d332e333520312e31322d2e39392e37356111808201527f2d312e3720312e37392d322e313220332e31322d2e363320322e30322d2e39356111a08201527f20342e32342d2e393520362e36347631372e3539682d352e36395a6d32312e376111c08201527f39203056343668392e33367634362e3337682d392e33365a4d3430372e3337206111e08201527f34366831372e313163332e3836203020362e382e3320382e38332e383920322e6112008201527f37322e3820352e303520322e323220362e393920342e323720312e393420322e6112208201527f303520332e343220342e353520342e343320372e353120312e303120322e39366112408201527f20312e353220362e363220312e35322031302e3936203020332e38322d2e34376112608201527f20372e31312d312e343220392e38372d312e313620332e33372d322e383220366112808201527f2e312d342e393720382e31392d312e363220312e35382d332e383220322e38326112a08201527f2d362e353820332e372d322e30372e36352d342e38332e39382d382e32392e396112c08201527f38682d31372e36325634365a6d392e333620372e38347633302e373168362e396112e08201527f3963322e3631203020342e352d2e313520352e36362d2e343420312e35322d2e6113008201527f333820322e37382d312e303220332e37382d312e393320312d2e393120312e386113208201527f322d322e3420322e34352d342e34382e36332d322e30382e39352d342e39312e6113408201527f39352d382e3439732d2e33322d362e33342d2e39352d382e32362d312e35322d6113608201527f332e34322d322e36362d342e34392d322e35382d312e382d342e33332d322e316113808201527f38632d312e33312d2e332d332e38372d2e34342d372e36392d2e3434682d342e6113a08201527f32315a22207374796c653d2266696c6c3a23666666222f3e3c7465787420793d6113c08201527f223637302220783d22333022207374796c653d22666f6e743a373070782073616113e082015273373996b9b2b934b31db334b6361d11b33333111f60611b61140082015260006113c7613a1e611414840185612106565b6c1e17ba32bc3a1f1e17b9bb339f60991b8152600d0190565b7f646174613a696d6167652f7376672b786d6c3b6261736536342c000000000000815260008251613a6f81601a850160208701611cd6565b91909101601a0192915050565b683d913730b6b2911d1160b91b81528251600090613aa1816009850160208801611cd6565b6b1116101134b6b0b3b2911d1160a11b6009918401918201528351613acd816015840160208801611cd6565b7f222c20226465736372697074696f6e223a202254616c656e74204c6179657220601592909101918201526c506c6174666f726d204944227d60981b6035820152604201949350505050565b7f646174613a6170706c69636174696f6e2f6a736f6e3b6261736536342c000000815260008251613b5181601d850160208701611cd6565b91909101601d0192915050565b600082821015613b7057613b706120d5565b500390565b838152606060208201526000613b8e6060830185611d02565b9050826040830152949350505050565b7f416363657373436f6e74726f6c3a206163636f756e7420000000000000000000815260008351613bd6816017850160208801611cd6565b7001034b99036b4b9b9b4b733903937b6329607d1b6017918401918201528351613c07816028840160208801611cd6565b01602801949350505050565b60008219821115613c2657613c266120d5565b500190565b600082613c4857634e487b7160e01b600052601260045260246000fd5b500490565b6000816000190483118215151615613c6757613c676120d5565b500290565b634e487b7160e01b600052603260045260246000fd5b600081613c9157613c916120d5565b50600019019056fe4142434445464748494a4b4c4d4e4f505152535455565758595a6162636465666768696a6b6c6d6e6f707172737475767778797a303132333435363738392b2fa264697066735822122041937c65ba9def6765e93dccd435558ccbed76f2afe195b3915e6e295d5b64a064736f6c63430008090033",
  "linkReferences": {},
  "deployedLinkReferences": {}
}