{
  "_format": "hh-sol-artifact-1",
  "contractName": "TalentLayerPlatformID",
  "sourceName": "contracts/TalentLayerPlatformID.sol",
  "abi": [
    {
      "inputs": [],
      "stateMutability": "nonpayable",
      "type": "constructor"
    },
    {
      "anonymous": false,
      "inputs": [
        {
          "indexed": false,
          "internalType": "address",
          "name": "previousAdmin",
          "type": "address"
        },
        {
          "indexed": false,
          "internalType": "address",
          "name": "newAdmin",
          "type": "address"
        }
      ],
      "name": "AdminChanged",
      "type": "event"
    },
    {
      "anonymous": false,
      "inputs": [
        {
          "indexed": true,
          "internalType": "address",
          "name": "owner",
          "type": "address"
        },
        {
          "indexed": true,
          "internalType": "address",
          "name": "approved",
          "type": "address"
        },
        {
          "indexed": true,
          "internalType": "uint256",
          "name": "tokenId",
          "type": "uint256"
        }
      ],
      "name": "Approval",
      "type": "event"
    },
    {
      "anonymous": false,
      "inputs": [
        {
          "indexed": true,
          "internalType": "address",
          "name": "owner",
          "type": "address"
        },
        {
          "indexed": true,
          "internalType": "address",
          "name": "operator",
          "type": "address"
        },
        {
          "indexed": false,
          "internalType": "bool",
          "name": "approved",
          "type": "bool"
        }
      ],
      "name": "ApprovalForAll",
      "type": "event"
    },
    {
      "anonymous": false,
      "inputs": [
        {
          "indexed": false,
          "internalType": "uint256",
          "name": "_platformId",
          "type": "uint256"
        },
        {
          "indexed": false,
          "internalType": "uint256",
          "name": "_arbitrationFeeTimeout",
          "type": "uint256"
        }
      ],
      "name": "ArbitrationFeeTimeoutUpdated",
      "type": "event"
    },
    {
      "anonymous": false,
      "inputs": [
        {
          "indexed": false,
          "internalType": "uint256",
          "name": "_platformId",
          "type": "uint256"
        },
        {
          "indexed": false,
          "internalType": "contract Arbitrator",
          "name": "_arbitrator",
          "type": "address"
        },
        {
          "indexed": false,
          "internalType": "bytes",
          "name": "_extraData",
          "type": "bytes"
        }
      ],
      "name": "ArbitratorUpdated",
      "type": "event"
    },
    {
      "anonymous": false,
      "inputs": [
        {
          "indexed": true,
          "internalType": "address",
          "name": "beacon",
          "type": "address"
        }
      ],
      "name": "BeaconUpgraded",
      "type": "event"
    },
    {
      "anonymous": false,
      "inputs": [
        {
          "indexed": true,
          "internalType": "uint256",
          "name": "_platformId",
          "type": "uint256"
        },
        {
          "indexed": false,
          "internalType": "string",
          "name": "_newCid",
          "type": "string"
        }
      ],
      "name": "CidUpdated",
      "type": "event"
    },
    {
      "anonymous": false,
      "inputs": [
        {
          "indexed": false,
          "internalType": "uint8",
          "name": "version",
          "type": "uint8"
        }
      ],
      "name": "Initialized",
      "type": "event"
    },
    {
      "anonymous": false,
      "inputs": [
        {
          "indexed": false,
          "internalType": "uint256",
          "name": "_minArbitrationFeeTimeout",
          "type": "uint256"
        }
      ],
      "name": "MinArbitrationFeeTimeoutUpdated",
      "type": "event"
    },
    {
      "anonymous": false,
      "inputs": [
        {
          "indexed": true,
          "internalType": "address",
          "name": "_platformOwnerAddress",
          "type": "address"
        },
        {
          "indexed": false,
          "internalType": "uint256",
          "name": "_platformId",
          "type": "uint256"
        },
        {
          "indexed": false,
          "internalType": "string",
          "name": "_platformName",
          "type": "string"
        },
        {
          "indexed": false,
          "internalType": "uint256",
          "name": "_fee",
          "type": "uint256"
        },
        {
          "indexed": false,
          "internalType": "uint256",
          "name": "_arbitrationFeeTimeout",
          "type": "uint256"
        }
      ],
      "name": "Mint",
      "type": "event"
    },
    {
      "anonymous": false,
      "inputs": [
        {
          "indexed": false,
          "internalType": "uint256",
          "name": "_mintFee",
          "type": "uint256"
        }
      ],
      "name": "MintFeeUpdated",
      "type": "event"
    },
    {
      "anonymous": false,
      "inputs": [
        {
          "indexed": false,
          "internalType": "uint256",
          "name": "_platformId",
          "type": "uint256"
        },
        {
          "indexed": false,
          "internalType": "uint16",
          "name": "_originServiceFeeRate",
          "type": "uint16"
        }
      ],
      "name": "OriginServiceFeeRateUpdated",
      "type": "event"
    },
    {
      "anonymous": false,
      "inputs": [
        {
          "indexed": false,
          "internalType": "uint256",
          "name": "_platformId",
          "type": "uint256"
        },
        {
          "indexed": false,
          "internalType": "uint16",
          "name": "_originValidatedProposalFeeRate",
          "type": "uint16"
        }
      ],
      "name": "OriginValidatedProposalFeeRateUpdated",
      "type": "event"
    },
    {
      "anonymous": false,
      "inputs": [
        {
          "indexed": false,
          "internalType": "uint256",
          "name": "_platformId",
          "type": "uint256"
        },
        {
          "indexed": false,
          "internalType": "uint256",
          "name": "_proposalPostingFee",
          "type": "uint256"
        }
      ],
      "name": "ProposalPostingFeeUpdated",
      "type": "event"
    },
    {
      "anonymous": false,
      "inputs": [
        {
          "indexed": true,
          "internalType": "bytes32",
          "name": "role",
          "type": "bytes32"
        },
        {
          "indexed": true,
          "internalType": "bytes32",
          "name": "previousAdminRole",
          "type": "bytes32"
        },
        {
          "indexed": true,
          "internalType": "bytes32",
          "name": "newAdminRole",
          "type": "bytes32"
        }
      ],
      "name": "RoleAdminChanged",
      "type": "event"
    },
    {
      "anonymous": false,
      "inputs": [
        {
          "indexed": true,
          "internalType": "bytes32",
          "name": "role",
          "type": "bytes32"
        },
        {
          "indexed": true,
          "internalType": "address",
          "name": "account",
          "type": "address"
        },
        {
          "indexed": true,
          "internalType": "address",
          "name": "sender",
          "type": "address"
        }
      ],
      "name": "RoleGranted",
      "type": "event"
    },
    {
      "anonymous": false,
      "inputs": [
        {
          "indexed": true,
          "internalType": "bytes32",
          "name": "role",
          "type": "bytes32"
        },
        {
          "indexed": true,
          "internalType": "address",
          "name": "account",
          "type": "address"
        },
        {
          "indexed": true,
          "internalType": "address",
          "name": "sender",
          "type": "address"
        }
      ],
      "name": "RoleRevoked",
      "type": "event"
    },
    {
      "anonymous": false,
      "inputs": [
        {
          "indexed": false,
          "internalType": "uint256",
          "name": "_platformId",
          "type": "uint256"
        },
        {
          "indexed": false,
          "internalType": "uint256",
          "name": "_servicePostingFee",
          "type": "uint256"
        }
      ],
      "name": "ServicePostingFeeUpdated",
      "type": "event"
    },
    {
      "anonymous": false,
      "inputs": [
        {
          "indexed": true,
          "internalType": "address",
          "name": "from",
          "type": "address"
        },
        {
          "indexed": true,
          "internalType": "address",
          "name": "to",
          "type": "address"
        },
        {
          "indexed": true,
          "internalType": "uint256",
          "name": "tokenId",
          "type": "uint256"
        }
      ],
      "name": "Transfer",
      "type": "event"
    },
    {
      "anonymous": false,
      "inputs": [
        {
          "indexed": true,
          "internalType": "address",
          "name": "implementation",
          "type": "address"
        }
      ],
      "name": "Upgraded",
      "type": "event"
    },
    {
      "inputs": [],
      "name": "DEFAULT_ADMIN_ROLE",
      "outputs": [
        {
          "internalType": "bytes32",
          "name": "",
          "type": "bytes32"
        }
      ],
      "stateMutability": "view",
      "type": "function"
    },
    {
      "inputs": [],
      "name": "MINT_ROLE",
      "outputs": [
        {
          "internalType": "bytes32",
          "name": "",
          "type": "bytes32"
        }
      ],
      "stateMutability": "view",
      "type": "function"
    },
    {
      "inputs": [],
      "name": "OWNER_ROLE",
      "outputs": [
        {
          "internalType": "bytes32",
          "name": "",
          "type": "bytes32"
        }
      ],
      "stateMutability": "view",
      "type": "function"
    },
    {
      "inputs": [
        {
          "internalType": "address",
          "name": "_arbitrator",
          "type": "address"
        },
        {
          "internalType": "bool",
          "name": "_isInternal",
          "type": "bool"
        }
      ],
      "name": "addArbitrator",
      "outputs": [],
      "stateMutability": "nonpayable",
      "type": "function"
    },
    {
      "inputs": [
        {
          "internalType": "address",
          "name": "to",
          "type": "address"
        },
        {
          "internalType": "uint256",
          "name": "tokenId",
          "type": "uint256"
        }
      ],
      "name": "approve",
      "outputs": [],
      "stateMutability": "nonpayable",
      "type": "function"
    },
    {
      "inputs": [
        {
          "internalType": "address",
          "name": "owner",
          "type": "address"
        }
      ],
      "name": "balanceOf",
      "outputs": [
        {
          "internalType": "uint256",
          "name": "",
          "type": "uint256"
        }
      ],
      "stateMutability": "view",
      "type": "function"
    },
    {
      "inputs": [
        {
          "internalType": "uint256",
          "name": "tokenId",
          "type": "uint256"
        }
      ],
      "name": "getApproved",
      "outputs": [
        {
          "internalType": "address",
          "name": "",
          "type": "address"
        }
      ],
      "stateMutability": "view",
      "type": "function"
    },
    {
      "inputs": [
        {
          "internalType": "uint256",
          "name": "_platformId",
          "type": "uint256"
        }
      ],
      "name": "getOriginServiceFeeRate",
      "outputs": [
        {
          "internalType": "uint16",
          "name": "",
          "type": "uint16"
        }
      ],
      "stateMutability": "view",
      "type": "function"
    },
    {
      "inputs": [
        {
          "internalType": "uint256",
          "name": "_platformId",
          "type": "uint256"
        }
      ],
      "name": "getOriginValidatedProposalFeeRate",
      "outputs": [
        {
          "internalType": "uint16",
          "name": "",
          "type": "uint16"
        }
      ],
      "stateMutability": "view",
      "type": "function"
    },
    {
      "inputs": [
        {
          "internalType": "uint256",
          "name": "_platformId",
          "type": "uint256"
        }
      ],
      "name": "getPlatform",
      "outputs": [
        {
          "components": [
            {
              "internalType": "uint256",
              "name": "id",
              "type": "uint256"
            },
            {
              "internalType": "string",
              "name": "name",
              "type": "string"
            },
            {
              "internalType": "string",
              "name": "dataUri",
              "type": "string"
            },
            {
              "internalType": "uint16",
              "name": "originServiceFeeRate",
              "type": "uint16"
            },
            {
              "internalType": "uint16",
              "name": "originValidatedProposalFeeRate",
              "type": "uint16"
            },
            {
              "internalType": "uint256",
              "name": "servicePostingFee",
              "type": "uint256"
            },
            {
              "internalType": "uint256",
              "name": "proposalPostingFee",
              "type": "uint256"
            },
            {
              "internalType": "contract Arbitrator",
              "name": "arbitrator",
              "type": "address"
            },
            {
              "internalType": "bytes",
              "name": "arbitratorExtraData",
              "type": "bytes"
            },
            {
              "internalType": "uint256",
              "name": "arbitrationFeeTimeout",
              "type": "uint256"
            }
          ],
          "internalType": "struct TalentLayerPlatformID.Platform",
          "name": "",
          "type": "tuple"
        }
      ],
      "stateMutability": "view",
      "type": "function"
    },
    {
      "inputs": [
        {
          "internalType": "uint256",
          "name": "_platformId",
          "type": "uint256"
        }
      ],
      "name": "getProposalPostingFee",
      "outputs": [
        {
          "internalType": "uint256",
          "name": "",
          "type": "uint256"
        }
      ],
      "stateMutability": "view",
      "type": "function"
    },
    {
      "inputs": [
        {
          "internalType": "bytes32",
          "name": "role",
          "type": "bytes32"
        }
      ],
      "name": "getRoleAdmin",
      "outputs": [
        {
          "internalType": "bytes32",
          "name": "",
          "type": "bytes32"
        }
      ],
      "stateMutability": "view",
      "type": "function"
    },
    {
      "inputs": [
        {
          "internalType": "uint256",
          "name": "_platformId",
          "type": "uint256"
        }
      ],
      "name": "getServicePostingFee",
      "outputs": [
        {
          "internalType": "uint256",
          "name": "",
          "type": "uint256"
        }
      ],
      "stateMutability": "view",
      "type": "function"
    },
    {
      "inputs": [
        {
          "internalType": "bytes32",
          "name": "role",
          "type": "bytes32"
        },
        {
          "internalType": "address",
          "name": "account",
          "type": "address"
        }
      ],
      "name": "grantRole",
      "outputs": [],
      "stateMutability": "nonpayable",
      "type": "function"
    },
    {
      "inputs": [
        {
          "internalType": "bytes32",
          "name": "role",
          "type": "bytes32"
        },
        {
          "internalType": "address",
          "name": "account",
          "type": "address"
        }
      ],
      "name": "hasRole",
      "outputs": [
        {
          "internalType": "bool",
          "name": "",
          "type": "bool"
        }
      ],
      "stateMutability": "view",
      "type": "function"
    },
    {
      "inputs": [
        {
          "internalType": "address",
          "name": "",
          "type": "address"
        }
      ],
      "name": "ids",
      "outputs": [
        {
          "internalType": "uint256",
          "name": "",
          "type": "uint256"
        }
      ],
      "stateMutability": "view",
      "type": "function"
    },
    {
      "inputs": [],
      "name": "initialize",
      "outputs": [],
      "stateMutability": "nonpayable",
      "type": "function"
    },
    {
      "inputs": [
        {
          "internalType": "address",
          "name": "",
          "type": "address"
        }
      ],
      "name": "internalArbitrators",
      "outputs": [
        {
          "internalType": "bool",
          "name": "",
          "type": "bool"
        }
      ],
      "stateMutability": "view",
      "type": "function"
    },
    {
      "inputs": [
        {
          "internalType": "address",
          "name": "owner",
          "type": "address"
        },
        {
          "internalType": "address",
          "name": "operator",
          "type": "address"
        }
      ],
      "name": "isApprovedForAll",
      "outputs": [
        {
          "internalType": "bool",
          "name": "",
          "type": "bool"
        }
      ],
      "stateMutability": "view",
      "type": "function"
    },
    {
      "inputs": [
        {
          "internalType": "uint256",
          "name": "_platformId",
          "type": "uint256"
        }
      ],
      "name": "isValid",
      "outputs": [],
      "stateMutability": "view",
      "type": "function"
    },
    {
      "inputs": [],
      "name": "minArbitrationFeeTimeout",
      "outputs": [
        {
          "internalType": "uint256",
          "name": "",
          "type": "uint256"
        }
      ],
      "stateMutability": "view",
      "type": "function"
    },
    {
      "inputs": [
        {
          "internalType": "string",
          "name": "_platformName",
          "type": "string"
        }
      ],
      "name": "mint",
      "outputs": [],
      "stateMutability": "payable",
      "type": "function"
    },
    {
      "inputs": [],
      "name": "mintFee",
      "outputs": [
        {
          "internalType": "uint256",
          "name": "",
          "type": "uint256"
        }
      ],
      "stateMutability": "view",
      "type": "function"
    },
    {
      "inputs": [
        {
          "internalType": "string",
          "name": "_platformName",
          "type": "string"
        },
        {
          "internalType": "address",
          "name": "_platformAddress",
          "type": "address"
        }
      ],
      "name": "mintForAddress",
      "outputs": [],
      "stateMutability": "payable",
      "type": "function"
    },
    {
      "inputs": [],
      "name": "name",
      "outputs": [
        {
          "internalType": "string",
          "name": "",
          "type": "string"
        }
      ],
      "stateMutability": "view",
      "type": "function"
    },
    {
      "inputs": [
        {
          "internalType": "address",
          "name": "_platformAddress",
          "type": "address"
        }
      ],
      "name": "numberMinted",
      "outputs": [
        {
          "internalType": "uint256",
          "name": "",
          "type": "uint256"
        }
      ],
      "stateMutability": "view",
      "type": "function"
    },
    {
      "inputs": [
        {
          "internalType": "uint256",
          "name": "tokenId",
          "type": "uint256"
        }
      ],
      "name": "ownerOf",
      "outputs": [
        {
          "internalType": "address",
          "name": "",
          "type": "address"
        }
      ],
      "stateMutability": "view",
      "type": "function"
    },
    {
      "inputs": [
        {
          "internalType": "uint256",
          "name": "",
          "type": "uint256"
        }
      ],
      "name": "platforms",
      "outputs": [
        {
          "internalType": "uint256",
          "name": "id",
          "type": "uint256"
        },
        {
          "internalType": "string",
          "name": "name",
          "type": "string"
        },
        {
          "internalType": "string",
          "name": "dataUri",
          "type": "string"
        },
        {
          "internalType": "uint16",
          "name": "originServiceFeeRate",
          "type": "uint16"
        },
        {
          "internalType": "uint16",
          "name": "originValidatedProposalFeeRate",
          "type": "uint16"
        },
        {
          "internalType": "uint256",
          "name": "servicePostingFee",
          "type": "uint256"
        },
        {
          "internalType": "uint256",
          "name": "proposalPostingFee",
          "type": "uint256"
        },
        {
          "internalType": "contract Arbitrator",
          "name": "arbitrator",
          "type": "address"
        },
        {
          "internalType": "bytes",
          "name": "arbitratorExtraData",
          "type": "bytes"
        },
        {
          "internalType": "uint256",
          "name": "arbitrationFeeTimeout",
          "type": "uint256"
        }
      ],
      "stateMutability": "view",
      "type": "function"
    },
    {
      "inputs": [],
      "name": "proxiableUUID",
      "outputs": [
        {
          "internalType": "bytes32",
          "name": "",
          "type": "bytes32"
        }
      ],
      "stateMutability": "view",
      "type": "function"
    },
    {
      "inputs": [
        {
          "internalType": "address",
          "name": "_arbitrator",
          "type": "address"
        }
      ],
      "name": "removeArbitrator",
      "outputs": [],
      "stateMutability": "nonpayable",
      "type": "function"
    },
    {
      "inputs": [
        {
          "internalType": "bytes32",
          "name": "role",
          "type": "bytes32"
        },
        {
          "internalType": "address",
          "name": "account",
          "type": "address"
        }
      ],
      "name": "renounceRole",
      "outputs": [],
      "stateMutability": "nonpayable",
      "type": "function"
    },
    {
      "inputs": [
        {
          "internalType": "bytes32",
          "name": "role",
          "type": "bytes32"
        },
        {
          "internalType": "address",
          "name": "account",
          "type": "address"
        }
      ],
      "name": "revokeRole",
      "outputs": [],
      "stateMutability": "nonpayable",
      "type": "function"
    },
    {
      "inputs": [
        {
          "internalType": "address",
          "name": "",
          "type": "address"
        },
        {
          "internalType": "address",
          "name": "",
          "type": "address"
        },
        {
          "internalType": "uint256",
          "name": "",
          "type": "uint256"
        }
      ],
      "name": "safeTransferFrom",
      "outputs": [],
      "stateMutability": "nonpayable",
      "type": "function"
    },
    {
      "inputs": [
        {
          "internalType": "address",
          "name": "from",
          "type": "address"
        },
        {
          "internalType": "address",
          "name": "to",
          "type": "address"
        },
        {
          "internalType": "uint256",
          "name": "tokenId",
          "type": "uint256"
        },
        {
          "internalType": "bytes",
          "name": "data",
          "type": "bytes"
        }
      ],
      "name": "safeTransferFrom",
      "outputs": [],
      "stateMutability": "nonpayable",
      "type": "function"
    },
    {
      "inputs": [
        {
          "internalType": "address",
          "name": "operator",
          "type": "address"
        },
        {
          "internalType": "bool",
          "name": "approved",
          "type": "bool"
        }
      ],
      "name": "setApprovalForAll",
      "outputs": [],
      "stateMutability": "nonpayable",
      "type": "function"
    },
    {
      "inputs": [
        {
          "internalType": "bytes4",
          "name": "interfaceId",
          "type": "bytes4"
        }
      ],
      "name": "supportsInterface",
      "outputs": [
        {
          "internalType": "bool",
          "name": "",
          "type": "bool"
        }
      ],
      "stateMutability": "view",
      "type": "function"
    },
    {
      "inputs": [],
      "name": "symbol",
      "outputs": [
        {
          "internalType": "string",
          "name": "",
          "type": "string"
        }
      ],
      "stateMutability": "view",
      "type": "function"
    },
    {
      "inputs": [
        {
          "internalType": "string",
          "name": "",
          "type": "string"
        }
      ],
      "name": "takenNames",
      "outputs": [
        {
          "internalType": "bool",
          "name": "",
          "type": "bool"
        }
      ],
      "stateMutability": "view",
      "type": "function"
    },
    {
      "inputs": [
        {
          "internalType": "uint256",
          "name": "tokenId",
          "type": "uint256"
        }
      ],
      "name": "tokenURI",
      "outputs": [
        {
          "internalType": "string",
          "name": "",
          "type": "string"
        }
      ],
      "stateMutability": "view",
      "type": "function"
    },
    {
      "inputs": [],
      "name": "totalSupply",
      "outputs": [
        {
          "internalType": "uint256",
          "name": "",
          "type": "uint256"
        }
      ],
      "stateMutability": "view",
      "type": "function"
    },
    {
      "inputs": [
        {
          "internalType": "address",
          "name": "",
          "type": "address"
        },
        {
          "internalType": "address",
          "name": "",
          "type": "address"
        },
        {
          "internalType": "uint256",
          "name": "",
          "type": "uint256"
        }
      ],
      "name": "transferFrom",
      "outputs": [],
      "stateMutability": "nonpayable",
      "type": "function"
    },
    {
      "inputs": [
        {
          "internalType": "uint256",
          "name": "_platformId",
          "type": "uint256"
        },
        {
          "internalType": "uint256",
          "name": "_arbitrationFeeTimeout",
          "type": "uint256"
        }
      ],
      "name": "updateArbitrationFeeTimeout",
      "outputs": [],
      "stateMutability": "nonpayable",
      "type": "function"
    },
    {
      "inputs": [
        {
          "internalType": "uint256",
          "name": "_platformId",
          "type": "uint256"
        },
        {
          "internalType": "contract Arbitrator",
          "name": "_arbitrator",
          "type": "address"
        },
        {
          "internalType": "bytes",
          "name": "_extraData",
          "type": "bytes"
        }
      ],
      "name": "updateArbitrator",
      "outputs": [],
      "stateMutability": "nonpayable",
      "type": "function"
    },
    {
      "inputs": [
        {
          "internalType": "uint256",
          "name": "_minArbitrationFeeTimeout",
          "type": "uint256"
        }
      ],
      "name": "updateMinArbitrationFeeTimeout",
      "outputs": [],
      "stateMutability": "nonpayable",
      "type": "function"
    },
    {
      "inputs": [
        {
          "internalType": "uint256",
          "name": "_mintFee",
          "type": "uint256"
        }
      ],
      "name": "updateMintFee",
      "outputs": [],
      "stateMutability": "nonpayable",
      "type": "function"
    },
    {
      "inputs": [
        {
          "internalType": "uint256",
          "name": "_platformId",
          "type": "uint256"
        },
        {
          "internalType": "uint16",
          "name": "_originServiceFeeRate",
          "type": "uint16"
        }
      ],
      "name": "updateOriginServiceFeeRate",
      "outputs": [],
      "stateMutability": "nonpayable",
      "type": "function"
    },
    {
      "inputs": [
        {
          "internalType": "uint256",
          "name": "_platformId",
          "type": "uint256"
        },
        {
          "internalType": "uint16",
          "name": "_originValidatedProposalFeeRate",
          "type": "uint16"
        }
      ],
      "name": "updateOriginValidatedProposalFeeRate",
      "outputs": [],
      "stateMutability": "nonpayable",
      "type": "function"
    },
    {
      "inputs": [
        {
          "internalType": "uint256",
          "name": "_platformId",
          "type": "uint256"
        },
        {
          "internalType": "string",
          "name": "_newCid",
          "type": "string"
        }
      ],
      "name": "updateProfileData",
      "outputs": [],
      "stateMutability": "nonpayable",
      "type": "function"
    },
    {
      "inputs": [
        {
          "internalType": "uint256",
          "name": "_platformId",
          "type": "uint256"
        },
        {
          "internalType": "uint256",
          "name": "_proposalPostingFee",
          "type": "uint256"
        }
      ],
      "name": "updateProposalPostingFee",
      "outputs": [],
      "stateMutability": "nonpayable",
      "type": "function"
    },
    {
      "inputs": [
        {
          "internalType": "uint256",
          "name": "_platformId",
          "type": "uint256"
        },
        {
          "internalType": "uint256",
          "name": "_servicePostingFee",
          "type": "uint256"
        }
      ],
      "name": "updateServicePostingFee",
      "outputs": [],
      "stateMutability": "nonpayable",
      "type": "function"
    },
    {
      "inputs": [
        {
          "internalType": "address",
          "name": "newImplementation",
          "type": "address"
        }
      ],
      "name": "upgradeTo",
      "outputs": [],
      "stateMutability": "nonpayable",
      "type": "function"
    },
    {
      "inputs": [
        {
          "internalType": "address",
          "name": "newImplementation",
          "type": "address"
        },
        {
          "internalType": "bytes",
          "name": "data",
          "type": "bytes"
        }
      ],
      "name": "upgradeToAndCall",
      "outputs": [],
      "stateMutability": "payable",
      "type": "function"
    },
    {
      "inputs": [
        {
          "internalType": "address",
          "name": "",
          "type": "address"
        }
      ],
      "name": "validArbitrators",
      "outputs": [
        {
          "internalType": "bool",
          "name": "",
          "type": "bool"
        }
      ],
      "stateMutability": "view",
      "type": "function"
    },
    {
      "inputs": [],
      "name": "withdraw",
      "outputs": [],
      "stateMutability": "nonpayable",
      "type": "function"
    }
  ],
  "bytecode": "0x60a0604052306080523480156200001557600080fd5b506200002062000026565b620000e8565b600054610100900460ff1615620000935760405162461bcd60e51b815260206004820152602760248201527f496e697469616c697a61626c653a20636f6e747261637420697320696e697469604482015266616c697a696e6760c81b606482015260840160405180910390fd5b60005460ff9081161015620000e6576000805460ff191660ff9081179091556040519081527f7f26b83ff96e1f2b6a682f133852f6798a09c465da95921460cefb38474024989060200160405180910390a15b565b6080516147ef6200012060003960008181610df501528181610e35015281816111ac015281816111ec015261127b01526147ef6000f3fe6080604052600436106103355760003560e01c80638a986363116101ab578063c6bf01ce116100f7578063e58378bb11610095578063f160068f1161006f578063f160068f146109e2578063f577a50014610a02578063f6f3784414610a22578063faa992d314610a3957600080fd5b8063e58378bb14610943578063e985e9c514610977578063e9a9c850146109c057600080fd5b8063d547741f116100d1578063d547741f146108d0578063d85d3d27146108f0578063dc33e68114610903578063dce226381461092357600080fd5b8063c6bf01ce14610870578063c87b56dd14610890578063cb8faafa146108b057600080fd5b8063a217fddf11610164578063a4f524a91161013e578063a4f524a9146107ec578063acd63f1b1461080c578063b88d4fde1461083d578063c37e154e1461085d57600080fd5b8063a217fddf1461077b578063a22cb46514610790578063a383c692146107b057600080fd5b80638a986363146106c65780638e6e5397146106e657806391d148541461070657806395d89b4114610726578063973ad2701461073b57806399ded4441461075b57600080fd5b80633659cfe6116102855780634f1ef286116102235780636352211e116101fd5780636352211e1461065157806370a08231146106715780638129fc1c1461069157806384017e52146106a657600080fd5b80634f1ef286146105fc57806352d1902d1461060f5780635bd22c981461062457600080fd5b80633e6acfe01161025f5780633e6acfe01461058b57806342842e0e146104a657806348203b30146105ab5780634a7ab1d5146105dc57600080fd5b80633659cfe6146105365780633ccfd60b146105565780633d4593891461056b57600080fd5b806313966db5116102f257806323b872dd116102cc57806323b872dd146104a6578063248a9ca3146104c65780632f2ff15d146104f657806336568abe1461051657600080fd5b806313966db51461043e57806318160ddd146104635780631847c06b1461047857600080fd5b806301c32c851461033a57806301ffc9a71461035c57806306fdde0314610391578063081812fc146103b3578063095ea7b3146103eb57806311f821921461040b575b600080fd5b34801561034657600080fd5b5061035a610355366004613654565b610a6f565b005b34801561036857600080fd5b5061037c610377366004613683565b610ab8565b60405190151581526020015b60405180910390f35b34801561039d57600080fd5b506103a6610ad8565b60405161038891906136f0565b3480156103bf57600080fd5b506103d36103ce366004613654565b610b6a565b6040516001600160a01b039091168152602001610388565b3480156103f757600080fd5b5061035a610406366004613718565b610b91565b34801561041757600080fd5b5061042b610426366004613654565b610cab565b60405161ffff9091168152602001610388565b34801561044a57600080fd5b506104556101325481565b604051908152602001610388565b34801561046f57600080fd5b50610455610cf5565b34801561048457600080fd5b50610455610493366004613744565b6101316020526000908152604090205481565b3480156104b257600080fd5b5061035a6104c1366004613761565b610d12565b3480156104d257600080fd5b506104556104e1366004613654565b60009081526097602052604090206001015490565b34801561050257600080fd5b5061035a6105113660046137a2565b610d48565b34801561052257600080fd5b5061035a6105313660046137a2565b610d6d565b34801561054257600080fd5b5061035a610551366004613744565b610deb565b34801561056257600080fd5b5061035a610eca565b34801561057757600080fd5b5061042b610586366004613654565b610f6d565b34801561059757600080fd5b5061035a6105a6366004613875565b610fbd565b3480156105b757600080fd5b5061037c6105c6366004613744565b61012f6020526000908152604090205460ff1681565b3480156105e857600080fd5b506104556105f7366004613654565b61115c565b61035a61060a3660046138ce565b6111a2565b34801561061b57600080fd5b5061045561126e565b34801561063057600080fd5b5061064461063f366004613654565b611321565b604051610388919061391e565b34801561065d57600080fd5b506103d361066c366004613654565b6115ef565b34801561067d57600080fd5b5061045561068c366004613744565b61164f565b34801561069d57600080fd5b5061035a6116d5565b3480156106b257600080fd5b5061035a6106c1366004613654565b6118e4565b3480156106d257600080fd5b506104556106e1366004613654565b611925565b3480156106f257600080fd5b5061035a6107013660046139f2565b61196b565b34801561071257600080fd5b5061037c6107213660046137a2565b6119f4565b34801561073257600080fd5b506103a6611a1f565b34801561074757600080fd5b5061035a610756366004613744565b611a2e565b34801561076757600080fd5b5061035a6107763660046139f2565b611a72565b34801561078757600080fd5b50610455600081565b34801561079c57600080fd5b5061035a6107ab366004613a1e565b611b05565b3480156107bc57600080fd5b5061037c6107cb366004613a51565b805160208183018101805161012d8252928201919093012091525460ff1681565b3480156107f857600080fd5b5061035a610807366004613a86565b611b10565b34801561081857600080fd5b5061037c610827366004613744565b6101306020526000908152604090205460ff1681565b34801561084957600080fd5b5061035a610858366004613aa8565b611bfc565b61035a61086b366004613b14565b611c7a565b34801561087c57600080fd5b5061035a61088b366004613a86565b611dec565b34801561089c57600080fd5b506103a66108ab366004613654565b611e68565b3480156108bc57600080fd5b5061035a6108cb366004613a1e565b611e73565b3480156108dc57600080fd5b5061035a6108eb3660046137a2565b611ec4565b61035a6108fe366004613a51565b611ee9565b34801561090f57600080fd5b5061045561091e366004613744565b612055565b34801561092f57600080fd5b5061035a61093e366004613a86565b612060565b34801561094f57600080fd5b506104557fb19546dff01e856fb3f010c267a7b1c60363cf8a4664e21cc89c26224620214e81565b34801561098357600080fd5b5061037c610992366004613b5b565b6001600160a01b039182166000908152606a6020908152604080832093909416825291909152205460ff1690565b3480156109cc57600080fd5b5061045560008051602061477383398151915281565b3480156109ee57600080fd5b5061035a6109fd366004613b89565b6120dc565b348015610a0e57600080fd5b5061035a610a1d366004613654565b6121b6565b348015610a2e57600080fd5b506104556101335481565b348015610a4557600080fd5b50610a59610a54366004613654565b6121e4565b6040516103889a99989796959493929190613bba565b6000610a7a816123e1565b6101338290556040518281527fa39eb462f98ec2e2a17ca5c7f2a0a247d212213bf0c78a6e2a3df704911ef601906020015b60405180910390a15050565b6000610ac3826123eb565b80610ad25750610ad28261243b565b92915050565b606060658054610ae790613c45565b80601f0160208091040260200160405190810160405280929190818152602001828054610b1390613c45565b8015610b605780601f10610b3557610100808354040283529160200191610b60565b820191906000526020600020905b815481529060010190602001808311610b4357829003601f168201915b5050505050905090565b6000610b7582612460565b506000908152606960205260409020546001600160a01b031690565b6000610b9c826115ef565b9050806001600160a01b0316836001600160a01b031603610c0e5760405162461bcd60e51b815260206004820152602160248201527f4552433732313a20617070726f76616c20746f2063757272656e74206f776e656044820152603960f91b60648201526084015b60405180910390fd5b336001600160a01b0382161480610c2a5750610c2a8133610992565b610c9c5760405162461bcd60e51b815260206004820152603d60248201527f4552433732313a20617070726f76652063616c6c6572206973206e6f7420746f60448201527f6b656e206f776e6572206f7220617070726f76656420666f7220616c6c0000006064820152608401610c05565b610ca683836124bf565b505050565b60008082118015610cbe57506101345482105b610cda5760405162461bcd60e51b8152600401610c0590613c7f565b50600090815261012e602052604090206003015461ffff1690565b60006001610d036101345490565b610d0d9190613cc2565b905090565b60405162461bcd60e51b815260206004820152600b60248201526a139bdd08185b1b1bddd95960aa1b6044820152606401610c05565b600082815260976020526040902060010154610d63816123e1565b610ca6838361252d565b6001600160a01b0381163314610ddd5760405162461bcd60e51b815260206004820152602f60248201527f416363657373436f6e74726f6c3a2063616e206f6e6c792072656e6f756e636560448201526e103937b632b9903337b91039b2b63360891b6064820152608401610c05565b610de782826125b3565b5050565b6001600160a01b037f0000000000000000000000000000000000000000000000000000000000000000163003610e335760405162461bcd60e51b8152600401610c0590613cd5565b7f00000000000000000000000000000000000000000000000000000000000000006001600160a01b0316610e7c600080516020614713833981519152546001600160a01b031690565b6001600160a01b031614610ea25760405162461bcd60e51b8152600401610c0590613d21565b610eab8161261a565b60408051600080825260208201909252610ec791839190612644565b50565b6000610ed5816123e1565b604051600090339047908381818185875af1925050503d8060008114610f17576040519150601f19603f3d011682016040523d82523d6000602084013e610f1c565b606091505b5050905080610de75760405162461bcd60e51b815260206004820152601860248201527f4661696c656420746f20776974686472617720457468657200000000000000006044820152606401610c05565b60008082118015610f8057506101345482105b610f9c5760405162461bcd60e51b8152600401610c0590613c7f565b50600090815261012e602052604090206003015462010000900461ffff1690565b33610fc7846115ef565b6001600160a01b031614610fed5760405162461bcd60e51b8152600401610c0590613d6d565b6001600160a01b038216600090815261012f602052604090205460ff166110685760405162461bcd60e51b815260206004820152602960248201527f5468652061646472657373206d757374206265206f6620612076616c69642061604482015268393134ba3930ba37b960b91b6064820152608401610c05565b600083815261012e6020908152604080832060060180546001600160a01b0319166001600160a01b038716908117909155835261013090915290205460ff16156110e85760408051602081018590520160408051601f19818403018152918152600085815261012e60205220600701906110e29082613df8565b50611106565b600083815261012e602052604090206007016111048282613df8565b505b7f4f1d179d53629f07a3ca3cde19840349df6dadc8fc11ac201c272ec77b8673d2838361012e600087815260200190815260200160002060070160405161114f93929190613eb8565b60405180910390a1505050565b6000808211801561116f57506101345482105b61118b5760405162461bcd60e51b8152600401610c0590613c7f565b50600090815261012e602052604090206005015490565b6001600160a01b037f00000000000000000000000000000000000000000000000000000000000000001630036111ea5760405162461bcd60e51b8152600401610c0590613cd5565b7f00000000000000000000000000000000000000000000000000000000000000006001600160a01b0316611233600080516020614713833981519152546001600160a01b031690565b6001600160a01b0316146112595760405162461bcd60e51b8152600401610c0590613d21565b6112628261261a565b610de782826001612644565b6000306001600160a01b037f0000000000000000000000000000000000000000000000000000000000000000161461130e5760405162461bcd60e51b815260206004820152603860248201527f555550535570677261646561626c653a206d757374206e6f742062652063616c60448201527f6c6564207468726f7567682064656c656761746563616c6c00000000000000006064820152608401610c05565b5060008051602061471383398151915290565b611388604051806101400160405280600081526020016060815260200160608152602001600061ffff168152602001600061ffff168152602001600081526020016000815260200160006001600160a01b0316815260200160608152602001600081525090565b60008211801561139a57506101345482105b6113b65760405162461bcd60e51b8152600401610c0590613c7f565b61012e600083815260200190815260200160002060405180610140016040529081600082015481526020016001820180546113f090613c45565b80601f016020809104026020016040519081016040528092919081815260200182805461141c90613c45565b80156114695780601f1061143e57610100808354040283529160200191611469565b820191906000526020600020905b81548152906001019060200180831161144c57829003601f168201915b5050505050815260200160028201805461148290613c45565b80601f01602080910402602001604051908101604052809291908181526020018280546114ae90613c45565b80156114fb5780601f106114d0576101008083540402835291602001916114fb565b820191906000526020600020905b8154815290600101906020018083116114de57829003601f168201915b5050509183525050600382015461ffff808216602084015262010000909104166040820152600482015460608201526005820154608082015260068201546001600160a01b031660a082015260078201805460c09092019161155c90613c45565b80601f016020809104026020016040519081016040528092919081815260200182805461158890613c45565b80156115d55780601f106115aa576101008083540402835291602001916115d5565b820191906000526020600020905b8154815290600101906020018083116115b857829003601f168201915b505050505081526020016008820154815250509050919050565b6000818152606760205260408120546001600160a01b031680610ad25760405162461bcd60e51b8152602060048201526018602482015277115490cdcc8c4e881a5b9d985b1a59081d1bdad95b88125160421b6044820152606401610c05565b60006001600160a01b0382166116b95760405162461bcd60e51b815260206004820152602960248201527f4552433732313a2061646472657373207a65726f206973206e6f7420612076616044820152683634b21037bbb732b960b91b6064820152608401610c05565b506001600160a01b031660009081526068602052604090205490565b600054610100900460ff16158080156116f55750600054600160ff909116105b8061170f5750303b15801561170f575060005460ff166001145b6117725760405162461bcd60e51b815260206004820152602e60248201527f496e697469616c697a61626c653a20636f6e747261637420697320616c72656160448201526d191e481a5b9a5d1a585b1a5e995960921b6064820152608401610c05565b6000805460ff191660011790558015611795576000805461ff0019166101001790555b6117e86040518060400160405280601581526020017415185b195b9d13185e595c941b185d199bdc9b5251605a1b815250604051806040016040528060048152602001631514125160e21b8152506127af565b6117f06127e0565b6117f86127e0565b611803600033612809565b61181b60008051602061477383398151915233612809565b6118457fb19546dff01e856fb3f010c267a7b1c60363cf8a4664e21cc89c26224620214e33612809565b6000610132819055805261012f6020527fe9104285c6851efcbc5e0e70440200efbdcab556a1c8784776780f8bb44f2931805460ff1916600117905561188d62015180610a6f565b61189c61013480546001019055565b8015610ec7576000805461ff0019169055604051600181527f7f26b83ff96e1f2b6a682f133852f6798a09c465da95921460cefb38474024989060200160405180910390a150565b60006118ef816123e1565b6101328290556040518281527f38fbb1c8b109c430f0c030e7ed076cf5611a307773a4e8e365601e8f8bceaec690602001610aac565b6000808211801561193857506101345482105b6119545760405162461bcd60e51b8152600401610c0590613c7f565b50600090815261012e602052604090206004015490565b33611975836115ef565b6001600160a01b03161461199b5760405162461bcd60e51b8152600401610c0590613d6d565b600082815261012e6020908152604091829020600301805461ffff191661ffff85169081179091558251858152918201527f03c3aa7c7830e29d1571bfe33dc72a8b8e0297dd6fdf26ef720dee976e21125a9101610aac565b60009182526097602090815260408084206001600160a01b0393909316845291905290205460ff1690565b606060668054610ae790613c45565b6000611a39816123e1565b506001600160a01b0316600090815261012f60209081526040808320805460ff1990811690915561013090925290912080549091169055565b33611a7c836115ef565b6001600160a01b031614611aa25760405162461bcd60e51b8152600401610c0590613d6d565b600082815261012e6020908152604091829020600301805463ffff000019166201000061ffff8616908102919091179091558251858152918201527fffeae29561efc186d4d5241d242f7e2b4a76f114ea5de0db37fbd19c3b1913a59101610aac565b610de7338383612813565b33611b1a836115ef565b6001600160a01b031614611b405760405162461bcd60e51b8152600401610c0590613d6d565b61013354811015611bb05760405162461bcd60e51b815260206004820152603460248201527f5468652074696d656f7574206d7573742062652067726561746572207468616e604482015273081d1a19481b5a5b9a5b5d5b481d1a5b595bdd5d60621b6064820152608401610c05565b600082815261012e602090815260409182902060080183905581518481529081018390527face552c85eed7b5cf46330833e6f28b1f5ce696a4532e483192b5a64e4565e599101610aac565b611c0633836128e1565b611c685760405162461bcd60e51b815260206004820152602d60248201527f4552433732313a2063616c6c6572206973206e6f7420746f6b656e206f776e6560448201526c1c881bdc88185c1c1c9bdd9959609a1b6064820152608401610c05565b611c7484848484612960565b50505050565b8181610132543414611c9e5760405162461bcd60e51b8152600401610c0590613f5a565b611ca781612055565b15611cc45760405162461bcd60e51b8152600401610c0590613f9e565b600282511015611d075760405162461bcd60e51b815260206004820152600e60248201526d13985b59481d1bdbc81cda1bdc9d60921b6044820152606401610c05565b601482511115611d495760405162461bcd60e51b815260206004820152600d60248201526c4e616d6520746f6f206c6f6e6760981b6044820152606401610c05565b61012d82604051611d5a9190613ffc565b9081526040519081900360200190205460ff1615611daf5760405162461bcd60e51b81526020600482015260126024820152712730b6b29030b63932b0b23c903a30b5b2b760711b6044820152606401610c05565b600080516020614773833981519152611dc7816123e1565b611dda84611dd56101345490565b612993565b611de485856129ad565b505050505050565b33611df6836115ef565b6001600160a01b031614611e1c5760405162461bcd60e51b8152600401610c0590613d6d565b600082815261012e602090815260409182902060050183905581518481529081018390527f5cea455bfd7800a5b219f99906f1402cf18c09764b07b36821dc7285b86a77329101610aac565b6060610ad282612a8f565b6000611e7e816123e1565b506001600160a01b03909116600090815261012f60209081526040808320805460ff19908116600117909155610130909252909120805492151592909116919091179055565b600082815260976020526040902060010154611edf816123e1565b610ca683836125b3565b8033610132543414611f0d5760405162461bcd60e51b8152600401610c0590613f5a565b611f1681612055565b15611f335760405162461bcd60e51b8152600401610c0590613f9e565b600282511015611f765760405162461bcd60e51b815260206004820152600e60248201526d13985b59481d1bdbc81cda1bdc9d60921b6044820152606401610c05565b601482511115611fb85760405162461bcd60e51b815260206004820152600d60248201526c4e616d6520746f6f206c6f6e6760981b6044820152606401610c05565b61012d82604051611fc99190613ffc565b9081526040519081900360200190205460ff161561201e5760405162461bcd60e51b81526020600482015260126024820152712730b6b29030b63932b0b23c903a30b5b2b760711b6044820152606401610c05565b600080516020614773833981519152612036816123e1565b61204433611dd56101345490565b61204e84336129ad565b5050505050565b6000610ad28261164f565b3361206a836115ef565b6001600160a01b0316146120905760405162461bcd60e51b8152600401610c0590613d6d565b600082815261012e602090815260409182902060040183905581518481529081018390527fccc64c8fc3688d9eb2c0bb58ff0dfef1a8528bcc06528d991da400c83835838d9101610aac565b336120e6836115ef565b6001600160a01b03161461210c5760405162461bcd60e51b8152600401610c0590613d6d565b600081511161215d5760405162461bcd60e51b815260206004820152601f60248201527f53686f756c642070726f7669646520612076616c6964204950465320555249006044820152606401610c05565b600082815261012e602052604090206002016121798282613df8565b50817f613807bd6768f626264e7eb664a65ca99a0d930f8fd8a5b868491a592eb57f72826040516121aa91906136f0565b60405180910390a25050565b6000811180156121c857506101345481105b610ec75760405162461bcd60e51b8152600401610c0590613c7f565b61012e602052600090815260409020805460018201805491929161220790613c45565b80601f016020809104026020016040519081016040528092919081815260200182805461223390613c45565b80156122805780601f1061225557610100808354040283529160200191612280565b820191906000526020600020905b81548152906001019060200180831161226357829003601f168201915b50505050509080600201805461229590613c45565b80601f01602080910402602001604051908101604052809291908181526020018280546122c190613c45565b801561230e5780601f106122e35761010080835404028352916020019161230e565b820191906000526020600020905b8154815290600101906020018083116122f157829003601f168201915b505050506003830154600484015460058501546006860154600787018054969761ffff8087169862010000909704169650939492936001600160a01b039092169261235890613c45565b80601f016020809104026020016040519081016040528092919081815260200182805461238490613c45565b80156123d15780601f106123a6576101008083540402835291602001916123d1565b820191906000526020600020905b8154815290600101906020018083116123b457829003601f168201915b505050505090806008015490508a565b610ec78133612bba565b60006001600160e01b031982166380ac58cd60e01b148061241c57506001600160e01b03198216635b5e139f60e01b145b80610ad257506301ffc9a760e01b6001600160e01b0319831614610ad2565b60006001600160e01b03198216637965db0b60e01b1480610ad25750610ad2826123eb565b6000818152606760205260409020546001600160a01b0316610ec75760405162461bcd60e51b8152602060048201526018602482015277115490cdcc8c4e881a5b9d985b1a59081d1bdad95b88125160421b6044820152606401610c05565b600081815260696020526040902080546001600160a01b0319166001600160a01b03841690811790915581906124f4826115ef565b6001600160a01b03167f8c5be1e5ebec7d5bd14f71427d1e84f3dd0314c0f7b2291e5b200ac8c7c3b92560405160405180910390a45050565b61253782826119f4565b610de75760008281526097602090815260408083206001600160a01b03851684529091529020805460ff1916600117905561256f3390565b6001600160a01b0316816001600160a01b0316837f2f8788117e7eff1d82e926ec794901d17c78024a50270940304540a733656f0d60405160405180910390a45050565b6125bd82826119f4565b15610de75760008281526097602090815260408083206001600160a01b0385168085529252808320805460ff1916905551339285917ff6391f5c32d9c69d2a47ea670b442974b53935d1edc7fd64eb21e047a839171b9190a45050565b7fb19546dff01e856fb3f010c267a7b1c60363cf8a4664e21cc89c26224620214e610de7816123e1565b7f4910fdfa16fed3260ed0e7147f7cc6da11a60208b5b9406d12a635614ffd91435460ff161561267757610ca683612c13565b826001600160a01b03166352d1902d6040518163ffffffff1660e01b8152600401602060405180830381865afa9250505080156126d1575060408051601f3d908101601f191682019092526126ce91810190614018565b60015b6127345760405162461bcd60e51b815260206004820152602e60248201527f45524331393637557067726164653a206e657720696d706c656d656e7461746960448201526d6f6e206973206e6f74205555505360901b6064820152608401610c05565b60008051602061471383398151915281146127a35760405162461bcd60e51b815260206004820152602960248201527f45524331393637557067726164653a20756e737570706f727465642070726f786044820152681a58589b195555525160ba1b6064820152608401610c05565b50610ca6838383612caf565b600054610100900460ff166127d65760405162461bcd60e51b8152600401610c0590614031565b610de78282612cd4565b600054610100900460ff166128075760405162461bcd60e51b8152600401610c0590614031565b565b610de7828261252d565b816001600160a01b0316836001600160a01b0316036128745760405162461bcd60e51b815260206004820152601960248201527f4552433732313a20617070726f766520746f2063616c6c6572000000000000006044820152606401610c05565b6001600160a01b038381166000818152606a6020908152604080832094871680845294825291829020805460ff191686151590811790915591519182527f17307eab39ab6107e8899845ad3d59bd9653f200f220920489ca2b5937696c31910160405180910390a3505050565b6000806128ed836115ef565b9050806001600160a01b0316846001600160a01b0316148061293457506001600160a01b038082166000908152606a602090815260408083209388168352929052205460ff165b806129585750836001600160a01b031661294d84610b6a565b6001600160a01b0316145b949350505050565b61296b848484612d14565b61297784848484612e85565b611c745760405162461bcd60e51b8152600401610c059061407c565b610de7828260405180602001604052806000815250612f86565b6000806129ba6101345490565b90506129cb61013480546001019055565b600081815261012e60205260409020600181016129e88682613df8565b5081815561013354600882015560405160019061012d90612a0a908890613ffc565b908152604080519182900360209081018320805494151560ff19909516949094179093556001600160a01b0387166000818152610131909452922084905561013254610133547f8475f1ba3b06c1e11c870cbbf9753ca9a8292ea0b203262f682de476dc268f8c92612a7f9287928b926140ce565b60405180910390a2509392505050565b600081815261012e6020526040812060010180546060929190612ab190613c45565b80601f0160208091040260200160405190810160405280929190818152602001828054612add90613c45565b8015612b2a5780601f10612aff57610100808354040283529160200191612b2a565b820191906000526020600020905b815481529060010190602001808311612b0d57829003601f168201915b505050505090506000612b5b82604051602001612b4791906140fa565b604051602081830303815290604052612fb9565b604051602001612b6b919061445e565b6040516020818303038152906040529050612b928282604051602001612b479291906144a3565b604051602001612ba29190614540565b60405160208183030381529060405292505050919050565b612bc482826119f4565b610de757612bd18161310c565b612bdc83602061311e565b604051602001612bed929190614585565b60408051601f198184030181529082905262461bcd60e51b8252610c05916004016136f0565b6001600160a01b0381163b612c805760405162461bcd60e51b815260206004820152602d60248201527f455243313936373a206e657720696d706c656d656e746174696f6e206973206e60448201526c1bdd08184818dbdb9d1c9858dd609a1b6064820152608401610c05565b60008051602061471383398151915280546001600160a01b0319166001600160a01b0392909216919091179055565b612cb8836132c1565b600082511180612cc55750805b15610ca657611c748383613301565b600054610100900460ff16612cfb5760405162461bcd60e51b8152600401610c0590614031565b6065612d078382613df8565b506066610ca68282613df8565b826001600160a01b0316612d27826115ef565b6001600160a01b031614612d4d5760405162461bcd60e51b8152600401610c05906145fa565b6001600160a01b038216612daf5760405162461bcd60e51b8152602060048201526024808201527f4552433732313a207472616e7366657220746f20746865207a65726f206164646044820152637265737360e01b6064820152608401610c05565b612dbc83838360016133f5565b826001600160a01b0316612dcf826115ef565b6001600160a01b031614612df55760405162461bcd60e51b8152600401610c05906145fa565b600081815260696020908152604080832080546001600160a01b03199081169091556001600160a01b0387811680865260688552838620805460001901905590871680865283862080546001019055868652606790945282852080549092168417909155905184937fddf252ad1be2c89b69c2b068fc378daa952ba7f163c4a11628f55a4df523b3ef91a4505050565b60006001600160a01b0384163b15612f7b57604051630a85bd0160e11b81526001600160a01b0385169063150b7a0290612ec990339089908890889060040161463f565b6020604051808303816000875af1925050508015612f04575060408051601f3d908101601f19168201909252612f019181019061467c565b60015b612f61573d808015612f32576040519150601f19603f3d011682016040523d82523d6000602084013e612f37565b606091505b508051600003612f595760405162461bcd60e51b8152600401610c059061407c565b805181602001fd5b6001600160e01b031916630a85bd0160e11b149050612958565b506001949350505050565b612f90838361347d565b612f9d6000848484612e85565b610ca65760405162461bcd60e51b8152600401610c059061407c565b60608151600003612fd857505060408051602081019091526000815290565b600060405180606001604052806040815260200161473360409139905060006003845160026130079190614699565b61301191906146ac565b61301c9060046146ce565b67ffffffffffffffff811115613034576130346137d2565b6040519080825280601f01601f19166020018201604052801561305e576020820181803683370190505b509050600182016020820185865187015b808210156130ca576003820191508151603f8160121c168501518453600184019350603f81600c1c168501518453600184019350603f8160061c168501518453600184019350603f811685015184535060018301925061306f565b50506003865106600181146130e657600281146130f957613101565b603d6001830353603d6002830353613101565b603d60018303535b509195945050505050565b6060610ad26001600160a01b03831660145b6060600061312d8360026146ce565b613138906002614699565b67ffffffffffffffff811115613150576131506137d2565b6040519080825280601f01601f19166020018201604052801561317a576020820181803683370190505b509050600360fc1b81600081518110613195576131956146e5565b60200101906001600160f81b031916908160001a905350600f60fb1b816001815181106131c4576131c46146e5565b60200101906001600160f81b031916908160001a90535060006131e88460026146ce565b6131f3906001614699565b90505b600181111561326b576f181899199a1a9b1b9c1cb0b131b232b360811b85600f1660108110613227576132276146e5565b1a60f81b82828151811061323d5761323d6146e5565b60200101906001600160f81b031916908160001a90535060049490941c93613264816146fb565b90506131f6565b5083156132ba5760405162461bcd60e51b815260206004820181905260248201527f537472696e67733a20686578206c656e67746820696e73756666696369656e746044820152606401610c05565b9392505050565b6132ca81612c13565b6040516001600160a01b038216907fbc7cd75a20ee27fd9adebab32041f755214dbc6bffa90cc0225b39da2e5c2d3b90600090a250565b60606001600160a01b0383163b6133695760405162461bcd60e51b815260206004820152602660248201527f416464726573733a2064656c65676174652063616c6c20746f206e6f6e2d636f6044820152651b9d1c9858dd60d21b6064820152608401610c05565b600080846001600160a01b0316846040516133849190613ffc565b600060405180830381855af49150503d80600081146133bf576040519150601f19603f3d011682016040523d82523d6000602084013e6133c4565b606091505b50915091506133ec828260405180606001604052806027815260200161479360279139613616565b95945050505050565b6001811115611c74576001600160a01b0384161561343b576001600160a01b03841660009081526068602052604081208054839290613435908490613cc2565b90915550505b6001600160a01b03831615611c74576001600160a01b03831660009081526068602052604081208054839290613472908490614699565b909155505050505050565b6001600160a01b0382166134d35760405162461bcd60e51b815260206004820181905260248201527f4552433732313a206d696e7420746f20746865207a65726f20616464726573736044820152606401610c05565b6000818152606760205260409020546001600160a01b0316156135385760405162461bcd60e51b815260206004820152601c60248201527f4552433732313a20746f6b656e20616c7265616479206d696e746564000000006044820152606401610c05565b6135466000838360016133f5565b6000818152606760205260409020546001600160a01b0316156135ab5760405162461bcd60e51b815260206004820152601c60248201527f4552433732313a20746f6b656e20616c7265616479206d696e746564000000006044820152606401610c05565b6001600160a01b038216600081815260686020908152604080832080546001019055848352606790915280822080546001600160a01b0319168417905551839291907fddf252ad1be2c89b69c2b068fc378daa952ba7f163c4a11628f55a4df523b3ef908290a45050565b606083156136255750816132ba565b6132ba838381511561363a5781518083602001fd5b8060405162461bcd60e51b8152600401610c0591906136f0565b60006020828403121561366657600080fd5b5035919050565b6001600160e01b031981168114610ec757600080fd5b60006020828403121561369557600080fd5b81356132ba8161366d565b60005b838110156136bb5781810151838201526020016136a3565b50506000910152565b600081518084526136dc8160208601602086016136a0565b601f01601f19169290920160200192915050565b6020815260006132ba60208301846136c4565b6001600160a01b0381168114610ec757600080fd5b6000806040838503121561372b57600080fd5b823561373681613703565b946020939093013593505050565b60006020828403121561375657600080fd5b81356132ba81613703565b60008060006060848603121561377657600080fd5b833561378181613703565b9250602084013561379181613703565b929592945050506040919091013590565b600080604083850312156137b557600080fd5b8235915060208301356137c781613703565b809150509250929050565b634e487b7160e01b600052604160045260246000fd5b600082601f8301126137f957600080fd5b813567ffffffffffffffff80821115613814576138146137d2565b604051601f8301601f19908116603f0116810190828211818310171561383c5761383c6137d2565b8160405283815286602085880101111561385557600080fd5b836020870160208301376000602085830101528094505050505092915050565b60008060006060848603121561388a57600080fd5b83359250602084013561389c81613703565b9150604084013567ffffffffffffffff8111156138b857600080fd5b6138c4868287016137e8565b9150509250925092565b600080604083850312156138e157600080fd5b82356138ec81613703565b9150602083013567ffffffffffffffff81111561390857600080fd5b613914858286016137e8565b9150509250929050565b6020815281516020820152600060208301516101408060408501526139476101608501836136c4565b91506040850151601f198086850301606087015261396584836136c4565b93506060870151915061397e608087018361ffff169052565b608087015161ffff811660a0880152915060a087015160c087015260c087015160e087015260e087015191506101006139c1818801846001600160a01b03169052565b808801519250506101208187860301818801526139de85846136c4565b970151959092019490945250929392505050565b60008060408385031215613a0557600080fd5b82359150602083013561ffff811681146137c757600080fd5b60008060408385031215613a3157600080fd5b8235613a3c81613703565b9150602083013580151581146137c757600080fd5b600060208284031215613a6357600080fd5b813567ffffffffffffffff811115613a7a57600080fd5b612958848285016137e8565b60008060408385031215613a9957600080fd5b50508035926020909101359150565b60008060008060808587031215613abe57600080fd5b8435613ac981613703565b93506020850135613ad981613703565b925060408501359150606085013567ffffffffffffffff811115613afc57600080fd5b613b08878288016137e8565b91505092959194509250565b60008060408385031215613b2757600080fd5b823567ffffffffffffffff811115613b3e57600080fd5b613b4a858286016137e8565b92505060208301356137c781613703565b60008060408385031215613b6e57600080fd5b8235613b7981613703565b915060208301356137c781613703565b60008060408385031215613b9c57600080fd5b82359150602083013567ffffffffffffffff81111561390857600080fd5b60006101408c8352806020840152613bd48184018d6136c4565b90508281036040840152613be8818c6136c4565b61ffff8b811660608601528a16608085015260a0840189905260c084018890526001600160a01b03871660e08501528381036101008501529050613c2c81866136c4565b915050826101208301529b9a5050505050505050505050565b600181811c90821680613c5957607f821691505b602082108103613c7957634e487b7160e01b600052602260045260246000fd5b50919050565b602080825260139082015272125b9d985b1a59081c1b185d199bdc9b481251606a1b604082015260600190565b634e487b7160e01b600052601160045260246000fd5b81810381811115610ad257610ad2613cac565b6020808252602c908201527f46756e6374696f6e206d7573742062652063616c6c6564207468726f7567682060408201526b19195b1959d85d1958d85b1b60a21b606082015260800190565b6020808252602c908201527f46756e6374696f6e206d7573742062652063616c6c6564207468726f7567682060408201526b6163746976652070726f787960a01b606082015260800190565b60208082526025908201527f596f75277265206e6f7420746865206f776e6572206f66207468697320706c6160408201526474666f726d60d81b606082015260800190565b601f821115610ca657600081815260208120601f850160051c81016020861015613dd95750805b601f850160051c820191505b81811015611de457828155600101613de5565b815167ffffffffffffffff811115613e1257613e126137d2565b613e2681613e208454613c45565b84613db2565b602080601f831160018114613e5b5760008415613e435750858301515b600019600386901b1c1916600185901b178555611de4565b600085815260208120601f198616915b82811015613e8a57888601518255948401946001909101908401613e6b565b5085821015613ea85787850151600019600388901b60f8161c191681555b5050505050600190811b01905550565b8381526000602060018060a01b038516818401526060604084015260008454613ee081613c45565b8060608701526080600180841660008114613f025760018114613f1c57613f4a565b60ff1985168984015283151560051b890183019550613f4a565b896000528660002060005b85811015613f425781548b8201860152908301908801613f27565b8a0184019650505b50939a9950505050505050505050565b60208082526024908201527f496e636f727265637420616d6f756e74206f662045544820666f72206d696e746040820152632066656560e01b606082015260800190565b60208082526022908201527f506c6174666f726d20616c726561647920686173206120506c6174666f726d20604082015261125160f21b606082015260800190565b60008151613ff28185602086016136a0565b9290920192915050565b6000825161400e8184602087016136a0565b9190910192915050565b60006020828403121561402a57600080fd5b5051919050565b6020808252602b908201527f496e697469616c697a61626c653a20636f6e7472616374206973206e6f74206960408201526a6e697469616c697a696e6760a81b606082015260800190565b60208082526032908201527f4552433732313a207472616e7366657220746f206e6f6e20455243373231526560408201527131b2b4bb32b91034b6b83632b6b2b73a32b960711b606082015260800190565b8481526080602082015260006140e760808301866136c4565b6040830194909452506060015292915050565b7f3c73766720786d6c6e733d22687474703a2f2f7777772e77332e6f72672f323081527f30302f737667222077696474683d2237323022206865696768743d223732302260208201527f3e3c726563742077696474683d223130302522206865696768743d223130302560408201527f222f3e3c73766720786d6c6e733d22687474703a2f2f7777772e77332e6f726760608201527f2f323030302f737667222077696474683d2231353022206865696768743d223160808201527f3530222076657273696f6e3d22312e32222076696577426f783d222d3230302060a08201527f2d353020313030302031303030223e3c706174682066696c6c3d22234646464660c08201527f46462220643d224d3236342e35203139302e3563302d31332e382031312e322d60e08201527f32352032352d3235483536386331332e3820302032352031312e3220323520326101008201527f357634393063302031332e382d31312e322032352d3235203235483238392e356101208201527f632d31332e3820302d32352d31312e322d32352d32357a222f3e3c70617468206101408201527f66696c6c3d22234646464646462220643d224d3236352036323463302d31332e6101608201527f382031312e322d32352032352d3235683534336331332e3820302032352031316101808201527f2e322032352032357635362e3563302031332e382d31312e322032352d3235206101a08201527f323548323930632d31332e3820302d32352d31312e322d32352d32357a222f3e6101c08201527f3c706174682066696c6c3d22234646464646462220643d224d30203139302e356101e08201527f63302d31332e382031312e322d32352032352d3235683534336331332e3820306102008201527f2032352031312e322032352032355632343763302031332e382d31312e3220326102208201527f352d3235203235483235632d31332e3820302d32352d31312e322d32352d32356102408201527f7a222f3e3c2f7376673e3c7465787420783d2233302220793d223637302220736102608201527f74796c653d22666f6e743a363070782073616e732d73657269663b66696c6c3a6102808201526511b33333111f60d11b6102a082015260006132ba6144456102a6840185613fe0565b6c1e17ba32bc3a1f1e17b9bb339f60991b8152600d0190565b7f646174613a696d6167652f7376672b786d6c3b6261736536342c00000000000081526000825161449681601a8501602087016136a0565b91909101601a0192915050565b683d913730b6b2911d1160b91b815282516000906144c88160098501602088016136a0565b6b1116101134b6b0b3b2911d1160a11b60099184019182015283516144f48160158401602088016136a0565b7f222c20226465736372697074696f6e223a202254616c656e74204c6179657220601592909101918201526c506c6174666f726d204944227d60981b6035820152604201949350505050565b7f646174613a6170706c69636174696f6e2f6a736f6e3b6261736536342c00000081526000825161457881601d8501602087016136a0565b91909101601d0192915050565b7f416363657373436f6e74726f6c3a206163636f756e74200000000000000000008152600083516145bd8160178501602088016136a0565b7001034b99036b4b9b9b4b733903937b6329607d1b60179184019182015283516145ee8160288401602088016136a0565b01602801949350505050565b60208082526025908201527f4552433732313a207472616e736665722066726f6d20696e636f72726563742060408201526437bbb732b960d91b606082015260800190565b6001600160a01b0385811682528416602082015260408101839052608060608201819052600090614672908301846136c4565b9695505050505050565b60006020828403121561468e57600080fd5b81516132ba8161366d565b80820180821115610ad257610ad2613cac565b6000826146c957634e487b7160e01b600052601260045260246000fd5b500490565b8082028115828204841417610ad257610ad2613cac565b634e487b7160e01b600052603260045260246000fd5b60008161470a5761470a613cac565b50600019019056fe360894a13ba1a3210667c828492db98dca3e2076cc3735a920a3ca505d382bbc4142434445464748494a4b4c4d4e4f505152535455565758595a6162636465666768696a6b6c6d6e6f707172737475767778797a303132333435363738392b2f154c00819833dac601ee5ddded6fda79d9d8b506b911b3dbd54cdb95fe6c3686416464726573733a206c6f772d6c6576656c2064656c65676174652063616c6c206661696c6564a264697066735822122089985055374ac7f05808261708cc9ce03bd8095e4a1a95725df07dd408a5fee464736f6c63430008110033",
  "linkReferences": {},
  "deployedLinkReferences": {}
}