{
  "_format": "hh-sol-artifact-1",
  "contractName": "TalentLayerPlatformID",
  "sourceName": "contracts/TalentLayerPlatformID.sol",
  "abi": [
    {
      "inputs": [],
      "stateMutability": "nonpayable",
      "type": "constructor"
    },
    {
      "inputs": [],
      "name": "HandleContainsInvalidCharacters",
      "type": "error"
    },
    {
      "inputs": [],
      "name": "HandleFirstCharInvalid",
      "type": "error"
    },
    {
      "inputs": [],
      "name": "HandleLengthInvalid",
      "type": "error"
    },
    {
      "anonymous": false,
      "inputs": [
        {
          "indexed": false,
          "internalType": "address",
          "name": "previousAdmin",
          "type": "address"
        },
        {
          "indexed": false,
          "internalType": "address",
          "name": "newAdmin",
          "type": "address"
        }
      ],
      "name": "AdminChanged",
      "type": "event"
    },
    {
      "anonymous": false,
      "inputs": [
        {
          "indexed": true,
          "internalType": "address",
          "name": "owner",
          "type": "address"
        },
        {
          "indexed": true,
          "internalType": "address",
          "name": "approved",
          "type": "address"
        },
        {
          "indexed": true,
          "internalType": "uint256",
          "name": "tokenId",
          "type": "uint256"
        }
      ],
      "name": "Approval",
      "type": "event"
    },
    {
      "anonymous": false,
      "inputs": [
        {
          "indexed": true,
          "internalType": "address",
          "name": "owner",
          "type": "address"
        },
        {
          "indexed": true,
          "internalType": "address",
          "name": "operator",
          "type": "address"
        },
        {
          "indexed": false,
          "internalType": "bool",
          "name": "approved",
          "type": "bool"
        }
      ],
      "name": "ApprovalForAll",
      "type": "event"
    },
    {
      "anonymous": false,
      "inputs": [
        {
          "indexed": false,
          "internalType": "uint256",
          "name": "_platformId",
          "type": "uint256"
        },
        {
          "indexed": false,
          "internalType": "uint256",
          "name": "_arbitrationFeeTimeout",
          "type": "uint256"
        }
      ],
      "name": "ArbitrationFeeTimeoutUpdated",
      "type": "event"
    },
    {
      "anonymous": false,
      "inputs": [
        {
          "indexed": false,
          "internalType": "uint256",
          "name": "_platformId",
          "type": "uint256"
        },
        {
          "indexed": false,
          "internalType": "contract Arbitrator",
          "name": "_arbitrator",
          "type": "address"
        },
        {
          "indexed": false,
          "internalType": "bytes",
          "name": "_extraData",
          "type": "bytes"
        }
      ],
      "name": "ArbitratorUpdated",
      "type": "event"
    },
    {
      "anonymous": false,
      "inputs": [
        {
          "indexed": true,
          "internalType": "address",
          "name": "beacon",
          "type": "address"
        }
      ],
      "name": "BeaconUpgraded",
      "type": "event"
    },
    {
      "anonymous": false,
      "inputs": [
        {
          "indexed": true,
          "internalType": "uint256",
          "name": "_platformId",
          "type": "uint256"
        },
        {
          "indexed": false,
          "internalType": "string",
          "name": "_newCid",
          "type": "string"
        }
      ],
      "name": "CidUpdated",
      "type": "event"
    },
    {
      "anonymous": false,
      "inputs": [
        {
          "indexed": false,
          "internalType": "uint8",
          "name": "version",
          "type": "uint8"
        }
      ],
      "name": "Initialized",
      "type": "event"
    },
    {
      "anonymous": false,
      "inputs": [
        {
          "indexed": false,
          "internalType": "uint256",
          "name": "_minArbitrationFeeTimeout",
          "type": "uint256"
        }
      ],
      "name": "MinArbitrationFeeTimeoutUpdated",
      "type": "event"
    },
    {
      "anonymous": false,
      "inputs": [
        {
          "indexed": true,
          "internalType": "address",
          "name": "_platformOwnerAddress",
          "type": "address"
        },
        {
          "indexed": false,
          "internalType": "uint256",
          "name": "_platformId",
          "type": "uint256"
        },
        {
          "indexed": false,
          "internalType": "string",
          "name": "_platformName",
          "type": "string"
        },
        {
          "indexed": false,
          "internalType": "uint256",
          "name": "_fee",
          "type": "uint256"
        },
        {
          "indexed": false,
          "internalType": "uint256",
          "name": "_arbitrationFeeTimeout",
          "type": "uint256"
        }
      ],
      "name": "Mint",
      "type": "event"
    },
    {
      "anonymous": false,
      "inputs": [
        {
          "indexed": false,
          "internalType": "uint256",
          "name": "_mintFee",
          "type": "uint256"
        }
      ],
      "name": "MintFeeUpdated",
      "type": "event"
    },
    {
      "anonymous": false,
      "inputs": [
        {
          "indexed": false,
          "internalType": "enum TalentLayerPlatformID.MintStatus",
          "name": "_mintStatus",
          "type": "uint8"
        }
      ],
      "name": "MintStatusUpdated",
      "type": "event"
    },
    {
      "anonymous": false,
      "inputs": [
        {
          "indexed": false,
          "internalType": "uint256",
          "name": "_platformId",
          "type": "uint256"
        },
        {
          "indexed": false,
          "internalType": "uint16",
          "name": "_originServiceFeeRate",
          "type": "uint16"
        }
      ],
      "name": "OriginServiceFeeRateUpdated",
      "type": "event"
    },
    {
      "anonymous": false,
      "inputs": [
        {
          "indexed": false,
          "internalType": "uint256",
          "name": "_platformId",
          "type": "uint256"
        },
        {
          "indexed": false,
          "internalType": "uint16",
          "name": "_originValidatedProposalFeeRate",
          "type": "uint16"
        }
      ],
      "name": "OriginValidatedProposalFeeRateUpdated",
      "type": "event"
    },
    {
      "anonymous": false,
      "inputs": [
        {
          "indexed": false,
          "internalType": "uint256",
          "name": "_platformId",
          "type": "uint256"
        },
        {
          "indexed": false,
          "internalType": "uint256",
          "name": "_proposalPostingFee",
          "type": "uint256"
        }
      ],
      "name": "ProposalPostingFeeUpdated",
      "type": "event"
    },
    {
      "anonymous": false,
      "inputs": [
        {
          "indexed": true,
          "internalType": "bytes32",
          "name": "role",
          "type": "bytes32"
        },
        {
          "indexed": true,
          "internalType": "bytes32",
          "name": "previousAdminRole",
          "type": "bytes32"
        },
        {
          "indexed": true,
          "internalType": "bytes32",
          "name": "newAdminRole",
          "type": "bytes32"
        }
      ],
      "name": "RoleAdminChanged",
      "type": "event"
    },
    {
      "anonymous": false,
      "inputs": [
        {
          "indexed": true,
          "internalType": "bytes32",
          "name": "role",
          "type": "bytes32"
        },
        {
          "indexed": true,
          "internalType": "address",
          "name": "account",
          "type": "address"
        },
        {
          "indexed": true,
          "internalType": "address",
          "name": "sender",
          "type": "address"
        }
      ],
      "name": "RoleGranted",
      "type": "event"
    },
    {
      "anonymous": false,
      "inputs": [
        {
          "indexed": true,
          "internalType": "bytes32",
          "name": "role",
          "type": "bytes32"
        },
        {
          "indexed": true,
          "internalType": "address",
          "name": "account",
          "type": "address"
        },
        {
          "indexed": true,
          "internalType": "address",
          "name": "sender",
          "type": "address"
        }
      ],
      "name": "RoleRevoked",
      "type": "event"
    },
    {
      "anonymous": false,
      "inputs": [
        {
          "indexed": false,
          "internalType": "uint256",
          "name": "_platformId",
          "type": "uint256"
        },
        {
          "indexed": false,
          "internalType": "uint256",
          "name": "_servicePostingFee",
          "type": "uint256"
        }
      ],
      "name": "ServicePostingFeeUpdated",
      "type": "event"
    },
    {
      "anonymous": false,
      "inputs": [
        {
          "indexed": false,
          "internalType": "uint256",
          "name": "_platformId",
          "type": "uint256"
        },
        {
          "indexed": false,
          "internalType": "address",
          "name": "_signer",
          "type": "address"
        }
      ],
      "name": "SignerUpdated",
      "type": "event"
    },
    {
      "anonymous": false,
      "inputs": [
        {
          "indexed": true,
          "internalType": "address",
          "name": "from",
          "type": "address"
        },
        {
          "indexed": true,
          "internalType": "address",
          "name": "to",
          "type": "address"
        },
        {
          "indexed": true,
          "internalType": "uint256",
          "name": "tokenId",
          "type": "uint256"
        }
      ],
      "name": "Transfer",
      "type": "event"
    },
    {
      "anonymous": false,
      "inputs": [
        {
          "indexed": true,
          "internalType": "address",
          "name": "implementation",
          "type": "address"
        }
      ],
      "name": "Upgraded",
      "type": "event"
    },
    {
      "anonymous": false,
      "inputs": [
        {
          "indexed": true,
          "internalType": "address",
          "name": "_user",
          "type": "address"
        }
      ],
      "name": "UserWhitelisted",
      "type": "event"
    },
    {
      "inputs": [],
      "name": "DEFAULT_ADMIN_ROLE",
      "outputs": [
        {
          "internalType": "bytes32",
          "name": "",
          "type": "bytes32"
        }
      ],
      "stateMutability": "view",
      "type": "function"
    },
    {
      "inputs": [],
      "name": "MINT_ROLE",
      "outputs": [
        {
          "internalType": "bytes32",
          "name": "",
          "type": "bytes32"
        }
      ],
      "stateMutability": "view",
      "type": "function"
    },
    {
      "inputs": [],
      "name": "OWNER_ROLE",
      "outputs": [
        {
          "internalType": "bytes32",
          "name": "",
          "type": "bytes32"
        }
      ],
      "stateMutability": "view",
      "type": "function"
    },
    {
      "inputs": [
        {
          "internalType": "address",
          "name": "_arbitrator",
          "type": "address"
        },
        {
          "internalType": "bool",
          "name": "_isInternal",
          "type": "bool"
        }
      ],
      "name": "addArbitrator",
      "outputs": [],
      "stateMutability": "nonpayable",
      "type": "function"
    },
    {
      "inputs": [
        {
          "internalType": "address",
          "name": "to",
          "type": "address"
        },
        {
          "internalType": "uint256",
          "name": "tokenId",
          "type": "uint256"
        }
      ],
      "name": "approve",
      "outputs": [],
      "stateMutability": "nonpayable",
      "type": "function"
    },
    {
      "inputs": [
        {
          "internalType": "address",
          "name": "owner",
          "type": "address"
        }
      ],
      "name": "balanceOf",
      "outputs": [
        {
          "internalType": "uint256",
          "name": "",
          "type": "uint256"
        }
      ],
      "stateMutability": "view",
      "type": "function"
    },
    {
      "inputs": [
        {
          "internalType": "uint256",
          "name": "tokenId",
          "type": "uint256"
        }
      ],
      "name": "getApproved",
      "outputs": [
        {
          "internalType": "address",
          "name": "",
          "type": "address"
        }
      ],
      "stateMutability": "view",
      "type": "function"
    },
    {
      "inputs": [
        {
          "internalType": "uint256",
          "name": "_platformId",
          "type": "uint256"
        }
      ],
      "name": "getOriginServiceFeeRate",
      "outputs": [
        {
          "internalType": "uint16",
          "name": "",
          "type": "uint16"
        }
      ],
      "stateMutability": "view",
      "type": "function"
    },
    {
      "inputs": [
        {
          "internalType": "uint256",
          "name": "_platformId",
          "type": "uint256"
        }
      ],
      "name": "getOriginValidatedProposalFeeRate",
      "outputs": [
        {
          "internalType": "uint16",
          "name": "",
          "type": "uint16"
        }
      ],
      "stateMutability": "view",
      "type": "function"
    },
    {
      "inputs": [
        {
          "internalType": "uint256",
          "name": "_platformId",
          "type": "uint256"
        }
      ],
      "name": "getPlatform",
      "outputs": [
        {
          "components": [
            {
              "internalType": "uint256",
              "name": "id",
              "type": "uint256"
            },
            {
              "internalType": "string",
              "name": "name",
              "type": "string"
            },
            {
              "internalType": "string",
              "name": "dataUri",
              "type": "string"
            },
            {
              "internalType": "uint16",
              "name": "originServiceFeeRate",
              "type": "uint16"
            },
            {
              "internalType": "uint16",
              "name": "originValidatedProposalFeeRate",
              "type": "uint16"
            },
            {
              "internalType": "uint256",
              "name": "servicePostingFee",
              "type": "uint256"
            },
            {
              "internalType": "uint256",
              "name": "proposalPostingFee",
              "type": "uint256"
            },
            {
              "internalType": "contract Arbitrator",
              "name": "arbitrator",
              "type": "address"
            },
            {
              "internalType": "bytes",
              "name": "arbitratorExtraData",
              "type": "bytes"
            },
            {
              "internalType": "uint256",
              "name": "arbitrationFeeTimeout",
              "type": "uint256"
            },
            {
              "internalType": "address",
              "name": "signer",
              "type": "address"
            }
          ],
          "internalType": "struct TalentLayerPlatformID.Platform",
          "name": "",
          "type": "tuple"
        }
      ],
      "stateMutability": "view",
      "type": "function"
    },
    {
      "inputs": [
        {
          "internalType": "uint256",
          "name": "_platformId",
          "type": "uint256"
        }
      ],
      "name": "getProposalPostingFee",
      "outputs": [
        {
          "internalType": "uint256",
          "name": "",
          "type": "uint256"
        }
      ],
      "stateMutability": "view",
      "type": "function"
    },
    {
      "inputs": [
        {
          "internalType": "bytes32",
          "name": "role",
          "type": "bytes32"
        }
      ],
      "name": "getRoleAdmin",
      "outputs": [
        {
          "internalType": "bytes32",
          "name": "",
          "type": "bytes32"
        }
      ],
      "stateMutability": "view",
      "type": "function"
    },
    {
      "inputs": [
        {
          "internalType": "uint256",
          "name": "_platformId",
          "type": "uint256"
        }
      ],
      "name": "getServicePostingFee",
      "outputs": [
        {
          "internalType": "uint256",
          "name": "",
          "type": "uint256"
        }
      ],
      "stateMutability": "view",
      "type": "function"
    },
    {
      "inputs": [
        {
          "internalType": "uint256",
          "name": "_platformId",
          "type": "uint256"
        }
      ],
      "name": "getSigner",
      "outputs": [
        {
          "internalType": "address",
          "name": "",
          "type": "address"
        }
      ],
      "stateMutability": "view",
      "type": "function"
    },
    {
      "inputs": [
        {
          "internalType": "bytes32",
          "name": "role",
          "type": "bytes32"
        },
        {
          "internalType": "address",
          "name": "account",
          "type": "address"
        }
      ],
      "name": "grantRole",
      "outputs": [],
      "stateMutability": "nonpayable",
      "type": "function"
    },
    {
      "inputs": [
        {
          "internalType": "bytes32",
          "name": "role",
          "type": "bytes32"
        },
        {
          "internalType": "address",
          "name": "account",
          "type": "address"
        }
      ],
      "name": "hasRole",
      "outputs": [
        {
          "internalType": "bool",
          "name": "",
          "type": "bool"
        }
      ],
      "stateMutability": "view",
      "type": "function"
    },
    {
      "inputs": [
        {
          "internalType": "address",
          "name": "",
          "type": "address"
        }
      ],
      "name": "ids",
      "outputs": [
        {
          "internalType": "uint256",
          "name": "",
          "type": "uint256"
        }
      ],
      "stateMutability": "view",
      "type": "function"
    },
    {
      "inputs": [],
      "name": "initialize",
      "outputs": [],
      "stateMutability": "nonpayable",
      "type": "function"
    },
    {
      "inputs": [
        {
          "internalType": "address",
          "name": "",
          "type": "address"
        }
      ],
      "name": "internalArbitrators",
      "outputs": [
        {
          "internalType": "bool",
          "name": "",
          "type": "bool"
        }
      ],
      "stateMutability": "view",
      "type": "function"
    },
    {
      "inputs": [
        {
          "internalType": "address",
          "name": "owner",
          "type": "address"
        },
        {
          "internalType": "address",
          "name": "operator",
          "type": "address"
        }
      ],
      "name": "isApprovedForAll",
      "outputs": [
        {
          "internalType": "bool",
          "name": "",
          "type": "bool"
        }
      ],
      "stateMutability": "view",
      "type": "function"
    },
    {
      "inputs": [
        {
          "internalType": "uint256",
          "name": "_platformId",
          "type": "uint256"
        }
      ],
      "name": "isValid",
      "outputs": [],
      "stateMutability": "view",
      "type": "function"
    },
    {
      "inputs": [],
      "name": "minArbitrationFeeTimeout",
      "outputs": [
        {
          "internalType": "uint256",
          "name": "",
          "type": "uint256"
        }
      ],
      "stateMutability": "view",
      "type": "function"
    },
    {
      "inputs": [
        {
          "internalType": "string",
          "name": "_platformName",
          "type": "string"
        }
      ],
      "name": "mint",
      "outputs": [
        {
          "internalType": "uint256",
          "name": "",
          "type": "uint256"
        }
      ],
      "stateMutability": "payable",
      "type": "function"
    },
    {
      "inputs": [],
      "name": "mintFee",
      "outputs": [
        {
          "internalType": "uint256",
          "name": "",
          "type": "uint256"
        }
      ],
      "stateMutability": "view",
      "type": "function"
    },
    {
      "inputs": [
        {
          "internalType": "string",
          "name": "_platformName",
          "type": "string"
        },
        {
          "internalType": "address",
          "name": "_platformAddress",
          "type": "address"
        }
      ],
      "name": "mintForAddress",
      "outputs": [
        {
          "internalType": "uint256",
          "name": "",
          "type": "uint256"
        }
      ],
      "stateMutability": "payable",
      "type": "function"
    },
    {
      "inputs": [],
      "name": "mintStatus",
      "outputs": [
        {
          "internalType": "enum TalentLayerPlatformID.MintStatus",
          "name": "",
          "type": "uint8"
        }
      ],
      "stateMutability": "view",
      "type": "function"
    },
    {
      "inputs": [],
      "name": "name",
      "outputs": [
        {
          "internalType": "string",
          "name": "",
          "type": "string"
        }
      ],
      "stateMutability": "view",
      "type": "function"
    },
    {
      "inputs": [
        {
          "internalType": "address",
          "name": "_platformAddress",
          "type": "address"
        }
      ],
      "name": "numberMinted",
      "outputs": [
        {
          "internalType": "uint256",
          "name": "",
          "type": "uint256"
        }
      ],
      "stateMutability": "view",
      "type": "function"
    },
    {
      "inputs": [
        {
          "internalType": "uint256",
          "name": "tokenId",
          "type": "uint256"
        }
      ],
      "name": "ownerOf",
      "outputs": [
        {
          "internalType": "address",
          "name": "",
          "type": "address"
        }
      ],
      "stateMutability": "view",
      "type": "function"
    },
    {
      "inputs": [
        {
          "internalType": "uint256",
          "name": "",
          "type": "uint256"
        }
      ],
      "name": "platforms",
      "outputs": [
        {
          "internalType": "uint256",
          "name": "id",
          "type": "uint256"
        },
        {
          "internalType": "string",
          "name": "name",
          "type": "string"
        },
        {
          "internalType": "string",
          "name": "dataUri",
          "type": "string"
        },
        {
          "internalType": "uint16",
          "name": "originServiceFeeRate",
          "type": "uint16"
        },
        {
          "internalType": "uint16",
          "name": "originValidatedProposalFeeRate",
          "type": "uint16"
        },
        {
          "internalType": "uint256",
          "name": "servicePostingFee",
          "type": "uint256"
        },
        {
          "internalType": "uint256",
          "name": "proposalPostingFee",
          "type": "uint256"
        },
        {
          "internalType": "contract Arbitrator",
          "name": "arbitrator",
          "type": "address"
        },
        {
          "internalType": "bytes",
          "name": "arbitratorExtraData",
          "type": "bytes"
        },
        {
          "internalType": "uint256",
          "name": "arbitrationFeeTimeout",
          "type": "uint256"
        },
        {
          "internalType": "address",
          "name": "signer",
          "type": "address"
        }
      ],
      "stateMutability": "view",
      "type": "function"
    },
    {
      "inputs": [],
      "name": "proxiableUUID",
      "outputs": [
        {
          "internalType": "bytes32",
          "name": "",
          "type": "bytes32"
        }
      ],
      "stateMutability": "view",
      "type": "function"
    },
    {
      "inputs": [
        {
          "internalType": "address",
          "name": "_arbitrator",
          "type": "address"
        }
      ],
      "name": "removeArbitrator",
      "outputs": [],
      "stateMutability": "nonpayable",
      "type": "function"
    },
    {
      "inputs": [
        {
          "internalType": "bytes32",
          "name": "role",
          "type": "bytes32"
        },
        {
          "internalType": "address",
          "name": "account",
          "type": "address"
        }
      ],
      "name": "renounceRole",
      "outputs": [],
      "stateMutability": "nonpayable",
      "type": "function"
    },
    {
      "inputs": [
        {
          "internalType": "bytes32",
          "name": "role",
          "type": "bytes32"
        },
        {
          "internalType": "address",
          "name": "account",
          "type": "address"
        }
      ],
      "name": "revokeRole",
      "outputs": [],
      "stateMutability": "nonpayable",
      "type": "function"
    },
    {
      "inputs": [
        {
          "internalType": "address",
          "name": "",
          "type": "address"
        },
        {
          "internalType": "address",
          "name": "",
          "type": "address"
        },
        {
          "internalType": "uint256",
          "name": "",
          "type": "uint256"
        }
      ],
      "name": "safeTransferFrom",
      "outputs": [],
      "stateMutability": "nonpayable",
      "type": "function"
    },
    {
      "inputs": [
        {
          "internalType": "address",
          "name": "",
          "type": "address"
        },
        {
          "internalType": "address",
          "name": "",
          "type": "address"
        },
        {
          "internalType": "uint256",
          "name": "",
          "type": "uint256"
        },
        {
          "internalType": "bytes",
          "name": "",
          "type": "bytes"
        }
      ],
      "name": "safeTransferFrom",
      "outputs": [],
      "stateMutability": "nonpayable",
      "type": "function"
    },
    {
      "inputs": [
        {
          "internalType": "address",
          "name": "operator",
          "type": "address"
        },
        {
          "internalType": "bool",
          "name": "approved",
          "type": "bool"
        }
      ],
      "name": "setApprovalForAll",
      "outputs": [],
      "stateMutability": "nonpayable",
      "type": "function"
    },
    {
      "inputs": [
        {
          "internalType": "bytes4",
          "name": "interfaceId",
          "type": "bytes4"
        }
      ],
      "name": "supportsInterface",
      "outputs": [
        {
          "internalType": "bool",
          "name": "",
          "type": "bool"
        }
      ],
      "stateMutability": "view",
      "type": "function"
    },
    {
      "inputs": [],
      "name": "symbol",
      "outputs": [
        {
          "internalType": "string",
          "name": "",
          "type": "string"
        }
      ],
      "stateMutability": "view",
      "type": "function"
    },
    {
      "inputs": [
        {
          "internalType": "string",
          "name": "",
          "type": "string"
        }
      ],
      "name": "takenNames",
      "outputs": [
        {
          "internalType": "bool",
          "name": "",
          "type": "bool"
        }
      ],
      "stateMutability": "view",
      "type": "function"
    },
    {
      "inputs": [
        {
          "internalType": "uint256",
          "name": "tokenId",
          "type": "uint256"
        }
      ],
      "name": "tokenURI",
      "outputs": [
        {
          "internalType": "string",
          "name": "",
          "type": "string"
        }
      ],
      "stateMutability": "view",
      "type": "function"
    },
    {
      "inputs": [],
      "name": "totalSupply",
      "outputs": [
        {
          "internalType": "uint256",
          "name": "",
          "type": "uint256"
        }
      ],
      "stateMutability": "view",
      "type": "function"
    },
    {
      "inputs": [
        {
          "internalType": "address",
          "name": "",
          "type": "address"
        },
        {
          "internalType": "address",
          "name": "",
          "type": "address"
        },
        {
          "internalType": "uint256",
          "name": "",
          "type": "uint256"
        }
      ],
      "name": "transferFrom",
      "outputs": [],
      "stateMutability": "nonpayable",
      "type": "function"
    },
    {
      "inputs": [
        {
          "internalType": "uint256",
          "name": "_platformId",
          "type": "uint256"
        },
        {
          "internalType": "uint256",
          "name": "_arbitrationFeeTimeout",
          "type": "uint256"
        }
      ],
      "name": "updateArbitrationFeeTimeout",
      "outputs": [],
      "stateMutability": "nonpayable",
      "type": "function"
    },
    {
      "inputs": [
        {
          "internalType": "uint256",
          "name": "_platformId",
          "type": "uint256"
        },
        {
          "internalType": "contract Arbitrator",
          "name": "_arbitrator",
          "type": "address"
        },
        {
          "internalType": "bytes",
          "name": "_extraData",
          "type": "bytes"
        }
      ],
      "name": "updateArbitrator",
      "outputs": [],
      "stateMutability": "nonpayable",
      "type": "function"
    },
    {
      "inputs": [
        {
          "internalType": "uint256",
          "name": "_minArbitrationFeeTimeout",
          "type": "uint256"
        }
      ],
      "name": "updateMinArbitrationFeeTimeout",
      "outputs": [],
      "stateMutability": "nonpayable",
      "type": "function"
    },
    {
      "inputs": [
        {
          "internalType": "uint256",
          "name": "_mintFee",
          "type": "uint256"
        }
      ],
      "name": "updateMintFee",
      "outputs": [],
      "stateMutability": "nonpayable",
      "type": "function"
    },
    {
      "inputs": [
        {
          "internalType": "enum TalentLayerPlatformID.MintStatus",
          "name": "_mintStatus",
          "type": "uint8"
        }
      ],
      "name": "updateMintStatus",
      "outputs": [],
      "stateMutability": "nonpayable",
      "type": "function"
    },
    {
      "inputs": [
        {
          "internalType": "uint256",
          "name": "_platformId",
          "type": "uint256"
        },
        {
          "internalType": "uint16",
          "name": "_originServiceFeeRate",
          "type": "uint16"
        }
      ],
      "name": "updateOriginServiceFeeRate",
      "outputs": [],
      "stateMutability": "nonpayable",
      "type": "function"
    },
    {
      "inputs": [
        {
          "internalType": "uint256",
          "name": "_platformId",
          "type": "uint256"
        },
        {
          "internalType": "uint16",
          "name": "_originValidatedProposalFeeRate",
          "type": "uint16"
        }
      ],
      "name": "updateOriginValidatedProposalFeeRate",
      "outputs": [],
      "stateMutability": "nonpayable",
      "type": "function"
    },
    {
      "inputs": [
        {
          "internalType": "uint256",
          "name": "_platformId",
          "type": "uint256"
        },
        {
          "internalType": "string",
          "name": "_newCid",
          "type": "string"
        }
      ],
      "name": "updateProfileData",
      "outputs": [],
      "stateMutability": "nonpayable",
      "type": "function"
    },
    {
      "inputs": [
        {
          "internalType": "uint256",
          "name": "_platformId",
          "type": "uint256"
        },
        {
          "internalType": "uint256",
          "name": "_proposalPostingFee",
          "type": "uint256"
        }
      ],
      "name": "updateProposalPostingFee",
      "outputs": [],
      "stateMutability": "nonpayable",
      "type": "function"
    },
    {
      "inputs": [
        {
          "internalType": "uint256",
          "name": "_platformId",
          "type": "uint256"
        },
        {
          "internalType": "uint256",
          "name": "_servicePostingFee",
          "type": "uint256"
        }
      ],
      "name": "updateServicePostingFee",
      "outputs": [],
      "stateMutability": "nonpayable",
      "type": "function"
    },
    {
      "inputs": [
        {
          "internalType": "uint256",
          "name": "_platformId",
          "type": "uint256"
        },
        {
          "internalType": "address",
          "name": "_signer",
          "type": "address"
        }
      ],
      "name": "updateSigner",
      "outputs": [],
      "stateMutability": "nonpayable",
      "type": "function"
    },
    {
      "inputs": [
        {
          "internalType": "address",
          "name": "newImplementation",
          "type": "address"
        }
      ],
      "name": "upgradeTo",
      "outputs": [],
      "stateMutability": "nonpayable",
      "type": "function"
    },
    {
      "inputs": [
        {
          "internalType": "address",
          "name": "newImplementation",
          "type": "address"
        },
        {
          "internalType": "bytes",
          "name": "data",
          "type": "bytes"
        }
      ],
      "name": "upgradeToAndCall",
      "outputs": [],
      "stateMutability": "payable",
      "type": "function"
    },
    {
      "inputs": [
        {
          "internalType": "address",
          "name": "",
          "type": "address"
        }
      ],
      "name": "validArbitrators",
      "outputs": [
        {
          "internalType": "bool",
          "name": "",
          "type": "bool"
        }
      ],
      "stateMutability": "view",
      "type": "function"
    },
    {
      "inputs": [
        {
          "internalType": "address",
          "name": "",
          "type": "address"
        }
      ],
      "name": "whitelist",
      "outputs": [
        {
          "internalType": "bool",
          "name": "",
          "type": "bool"
        }
      ],
      "stateMutability": "view",
      "type": "function"
    },
    {
      "inputs": [
        {
          "internalType": "address",
          "name": "_user",
          "type": "address"
        }
      ],
      "name": "whitelistUser",
      "outputs": [],
      "stateMutability": "nonpayable",
      "type": "function"
    },
    {
      "inputs": [],
      "name": "withdraw",
      "outputs": [],
      "stateMutability": "nonpayable",
      "type": "function"
    }
  ],
  "bytecode": "0x60a0604052306080523480156200001557600080fd5b506200002062000026565b620000e8565b600054610100900460ff1615620000935760405162461bcd60e51b815260206004820152602760248201527f496e697469616c697a61626c653a20636f6e747261637420697320696e697469604482015266616c697a696e6760c81b606482015260840160405180910390fd5b60005460ff9081161015620000e6576000805460ff191660ff9081179091556040519081527f7f26b83ff96e1f2b6a682f133852f6798a09c465da95921460cefb38474024989060200160405180910390a15b565b608051614cbe6200012060003960008181610f0101528181610f410152818161131e0152818161135e01526113ed0152614cbe6000f3fe60806040526004361061038c5760003560e01c80638e6e5397116101dc578063c6bf01ce11610102578063e58378bb116100a0578063f577a5001161006f578063f577a50014610adb578063f6f3784414610afb578063f905f15414610b12578063faa992d314610b3257600080fd5b8063e58378bb14610a2e578063e985e9c514610a50578063e9a9c85014610a99578063f160068f14610abb57600080fd5b8063d547741f116100dc578063d547741f146109bb578063d85d3d27146109db578063dc33e681146109ee578063dce2263814610a0e57600080fd5b8063c6bf01ce1461095b578063c87b56dd1461097b578063cb8faafa1461099b57600080fd5b80639da3f8fd1161017a578063a4f524a911610149578063a4f524a9146108dc578063acd63f1b146108fc578063b88d4fde1461092d578063c37e154e1461094857600080fd5b80639da3f8fd14610843578063a217fddf1461086b578063a22cb46514610880578063a383c692146108a057600080fd5b806395d89b41116101b657806395d89b41146107bd578063973ad270146107d257806399ded444146107f25780639b19251a1461081257600080fd5b80638e6e53971461075d5780638f283a861461077d57806391d148541461079d57600080fd5b80633ccfd60b116102c15780634f1ef2861161025f57806370a082311161022e57806370a08231146106e85780638129fc1c1461070857806384017e521461071d5780638a9863631461073d57600080fd5b80634f1ef2861461067357806352d1902d146106865780635bd22c981461069b5780636352211e146106c857600080fd5b806342842e0e1161029b57806342842e0e146104fd57806348203b30146106025780634a4c560d146106335780634a7ab1d51461065357600080fd5b80633ccfd60b146105ad5780633d459389146105c25780633e6acfe0146105e257600080fd5b806318160ddd1161032e578063248a9ca311610308578063248a9ca31461051d5780632f2ff15d1461054d57806336568abe1461056d5780633659cfe61461058d57600080fd5b806318160ddd146104ba5780631847c06b146104cf57806323b872dd146104fd57600080fd5b8063081812fc1161036a578063081812fc1461040a578063095ea7b31461044257806311f821921461046257806313966db51461049557600080fd5b806301c32c851461039157806301ffc9a7146103b357806306fdde03146103e8575b600080fd5b34801561039d57600080fd5b506103b16103ac3660046139f7565b610b69565b005b3480156103bf57600080fd5b506103d36103ce366004613a26565b610bb2565b60405190151581526020015b60405180910390f35b3480156103f457600080fd5b506103fd610bd2565b6040516103df9190613a93565b34801561041657600080fd5b5061042a6104253660046139f7565b610c64565b6040516001600160a01b0390911681526020016103df565b34801561044e57600080fd5b506103b161045d366004613abb565b610c8b565b34801561046e57600080fd5b5061048261047d3660046139f7565b610da5565b60405161ffff90911681526020016103df565b3480156104a157600080fd5b506104ac6101335481565b6040519081526020016103df565b3480156104c657600080fd5b506104ac610def565b3480156104db57600080fd5b506104ac6104ea366004613ae7565b6101326020526000908152604090205481565b34801561050957600080fd5b506103b1610518366004613b04565b610e0c565b34801561052957600080fd5b506104ac6105383660046139f7565b60009081526097602052604090206001015490565b34801561055957600080fd5b506103b1610568366004613b45565b610e54565b34801561057957600080fd5b506103b1610588366004613b45565b610e79565b34801561059957600080fd5b506103b16105a8366004613ae7565b610ef7565b3480156105b957600080fd5b506103b1610fd6565b3480156105ce57600080fd5b506104826105dd3660046139f7565b611079565b3480156105ee57600080fd5b506103b16105fd366004613c18565b6110c9565b34801561060e57600080fd5b506103d361061d366004613ae7565b61012f6020526000908152604090205460ff1681565b34801561063f57600080fd5b506103b161064e366004613ae7565b611268565b34801561065f57600080fd5b506104ac61066e3660046139f7565b6112ce565b6103b1610681366004613c71565b611314565b34801561069257600080fd5b506104ac6113e0565b3480156106a757600080fd5b506106bb6106b63660046139f7565b611493565b6040516103df9190613cc1565b3480156106d457600080fd5b5061042a6106e33660046139f7565b611784565b3480156106f457600080fd5b506104ac610703366004613ae7565b6117e4565b34801561071457600080fd5b506103b161186a565b34801561072957600080fd5b506103b16107383660046139f7565b611a75565b34801561074957600080fd5b506104ac6107583660046139f7565b611ab6565b34801561076957600080fd5b506103b1610778366004613db6565b611afc565b34801561078957600080fd5b506103b1610798366004613b45565b611b85565b3480156107a957600080fd5b506103d36107b8366004613b45565b611c18565b3480156107c957600080fd5b506103fd611c43565b3480156107de57600080fd5b506103b16107ed366004613ae7565b611c52565b3480156107fe57600080fd5b506103b161080d366004613db6565b611c96565b34801561081e57600080fd5b506103d361082d366004613ae7565b6101306020526000908152604090205460ff1681565b34801561084f57600080fd5b506101365461085e9060ff1681565b6040516103df9190613df8565b34801561087757600080fd5b506104ac600081565b34801561088c57600080fd5b506103b161089b366004613e20565b611d29565b3480156108ac57600080fd5b506103d36108bb366004613e53565b805160208183018101805161012d8252928201919093012091525460ff1681565b3480156108e857600080fd5b506103b16108f7366004613e88565b611d34565b34801561090857600080fd5b506103d3610917366004613ae7565b6101316020526000908152604090205460ff1681565b34801561093957600080fd5b506103b1610518366004613eaa565b6104ac610956366004613f5f565b611e20565b34801561096757600080fd5b506103b1610976366004613e88565b612054565b34801561098757600080fd5b506103fd6109963660046139f7565b6120d0565b3480156109a757600080fd5b506103b16109b6366004613e20565b6120db565b3480156109c757600080fd5b506103b16109d6366004613b45565b61212c565b6104ac6109e9366004613fb6565b612151565b3480156109fa57600080fd5b506104ac610a09366004613ae7565b61237f565b348015610a1a57600080fd5b506103b1610a29366004613e88565b61238a565b348015610a3a57600080fd5b506104ac600080516020614bc283398151915281565b348015610a5c57600080fd5b506103d3610a6b366004613ff8565b6001600160a01b039182166000908152606a6020908152604080832093909416825291909152205460ff1690565b348015610aa557600080fd5b506104ac600080516020614c4283398151915281565b348015610ac757600080fd5b506103b1610ad6366004614026565b612406565b348015610ae757600080fd5b506103b1610af63660046139f7565b6124ce565b348015610b0757600080fd5b506104ac6101345481565b348015610b1e57600080fd5b506103b1610b2d366004614057565b6124fc565b348015610b3e57600080fd5b50610b52610b4d3660046139f7565b612568565b6040516103df9b9a99989796959493929190614078565b6000610b7481612775565b6101348290556040518281527fa39eb462f98ec2e2a17ca5c7f2a0a247d212213bf0c78a6e2a3df704911ef601906020015b60405180910390a15050565b6000610bbd8261277f565b80610bcc5750610bcc826127cf565b92915050565b606060658054610be190614110565b80601f0160208091040260200160405190810160405280929190818152602001828054610c0d90614110565b8015610c5a5780601f10610c2f57610100808354040283529160200191610c5a565b820191906000526020600020905b815481529060010190602001808311610c3d57829003601f168201915b5050505050905090565b6000610c6f826127f4565b506000908152606960205260409020546001600160a01b031690565b6000610c9682611784565b9050806001600160a01b0316836001600160a01b031603610d085760405162461bcd60e51b815260206004820152602160248201527f4552433732313a20617070726f76616c20746f2063757272656e74206f776e656044820152603960f91b60648201526084015b60405180910390fd5b336001600160a01b0382161480610d245750610d248133610a6b565b610d965760405162461bcd60e51b815260206004820152603d60248201527f4552433732313a20617070726f76652063616c6c6572206973206e6f7420746f60448201527f6b656e206f776e6572206f7220617070726f76656420666f7220616c6c0000006064820152608401610cff565b610da08383612853565b505050565b60008082118015610db857506101355482105b610dd45760405162461bcd60e51b8152600401610cff9061414a565b50600090815261012e602052604090206003015461ffff1690565b60006001610dfd6101355490565b610e07919061418d565b905090565b60405162461bcd60e51b815260206004820152601d60248201527f546f6b656e207472616e73666572206973206e6f7420616c6c6f7765640000006044820152606401610cff565b600082815260976020526040902060010154610e6f81612775565b610da083836128c1565b6001600160a01b0381163314610ee95760405162461bcd60e51b815260206004820152602f60248201527f416363657373436f6e74726f6c3a2063616e206f6e6c792072656e6f756e636560448201526e103937b632b9903337b91039b2b63360891b6064820152608401610cff565b610ef38282612947565b5050565b6001600160a01b037f0000000000000000000000000000000000000000000000000000000000000000163003610f3f5760405162461bcd60e51b8152600401610cff906141a0565b7f00000000000000000000000000000000000000000000000000000000000000006001600160a01b0316610f88600080516020614be2833981519152546001600160a01b031690565b6001600160a01b031614610fae5760405162461bcd60e51b8152600401610cff906141ec565b610fb7816129ae565b60408051600080825260208201909252610fd3918391906129c6565b50565b6000610fe181612775565b604051600090339047908381818185875af1925050503d8060008114611023576040519150601f19603f3d011682016040523d82523d6000602084013e611028565b606091505b5050905080610ef35760405162461bcd60e51b815260206004820152601860248201527f4661696c656420746f20776974686472617720457468657200000000000000006044820152606401610cff565b6000808211801561108c57506101355482105b6110a85760405162461bcd60e51b8152600401610cff9061414a565b50600090815261012e602052604090206003015462010000900461ffff1690565b336110d384611784565b6001600160a01b0316146110f95760405162461bcd60e51b8152600401610cff90614238565b6001600160a01b038216600090815261012f602052604090205460ff166111745760405162461bcd60e51b815260206004820152602960248201527f5468652061646472657373206d757374206265206f6620612076616c69642061604482015268393134ba3930ba37b960b91b6064820152608401610cff565b600083815261012e6020908152604080832060060180546001600160a01b0319166001600160a01b038716908117909155835261013190915290205460ff16156111f45760408051602081018590520160408051601f19818403018152918152600085815261012e60205220600701906111ee90826142c3565b50611212565b600083815261012e6020526040902060070161121082826142c3565b505b7f4f1d179d53629f07a3ca3cde19840349df6dadc8fc11ac201c272ec77b8673d2838361012e600087815260200190815260200160002060070160405161125b93929190614383565b60405180910390a1505050565b600080516020614bc283398151915261128081612775565b6001600160a01b03821660008181526101306020526040808220805460ff19166001179055517f7409cb8e690bcd1487fd4fd27dad3fa92388d201ba6f953631d6d6b26299f8499190a25050565b600080821180156112e157506101355482105b6112fd5760405162461bcd60e51b8152600401610cff9061414a565b50600090815261012e602052604090206005015490565b6001600160a01b037f000000000000000000000000000000000000000000000000000000000000000016300361135c5760405162461bcd60e51b8152600401610cff906141a0565b7f00000000000000000000000000000000000000000000000000000000000000006001600160a01b03166113a5600080516020614be2833981519152546001600160a01b031690565b6001600160a01b0316146113cb5760405162461bcd60e51b8152600401610cff906141ec565b6113d4826129ae565b610ef3828260016129c6565b6000306001600160a01b037f000000000000000000000000000000000000000000000000000000000000000016146114805760405162461bcd60e51b815260206004820152603860248201527f555550535570677261646561626c653a206d757374206e6f742062652063616c60448201527f6c6564207468726f7567682064656c656761746563616c6c00000000000000006064820152608401610cff565b50600080516020614be283398151915290565b61150a604051806101600160405280600081526020016060815260200160608152602001600061ffff168152602001600061ffff168152602001600081526020016000815260200160006001600160a01b03168152602001606081526020016000815260200160006001600160a01b031681525090565b60008211801561151c57506101355482105b6115385760405162461bcd60e51b8152600401610cff9061414a565b61012e6000838152602001908152602001600020604051806101600160405290816000820154815260200160018201805461157290614110565b80601f016020809104026020016040519081016040528092919081815260200182805461159e90614110565b80156115eb5780601f106115c0576101008083540402835291602001916115eb565b820191906000526020600020905b8154815290600101906020018083116115ce57829003601f168201915b5050505050815260200160028201805461160490614110565b80601f016020809104026020016040519081016040528092919081815260200182805461163090614110565b801561167d5780601f106116525761010080835404028352916020019161167d565b820191906000526020600020905b81548152906001019060200180831161166057829003601f168201915b5050509183525050600382015461ffff808216602084015262010000909104166040820152600482015460608201526005820154608082015260068201546001600160a01b031660a082015260078201805460c0909201916116de90614110565b80601f016020809104026020016040519081016040528092919081815260200182805461170a90614110565b80156117575780601f1061172c57610100808354040283529160200191611757565b820191906000526020600020905b81548152906001019060200180831161173a57829003601f168201915b5050509183525050600882015460208201526009909101546001600160a01b031660409091015292915050565b6000818152606760205260408120546001600160a01b031680610bcc5760405162461bcd60e51b8152602060048201526018602482015277115490cdcc8c4e881a5b9d985b1a59081d1bdad95b88125160421b6044820152606401610cff565b60006001600160a01b03821661184e5760405162461bcd60e51b815260206004820152602960248201527f4552433732313a2061646472657373207a65726f206973206e6f7420612076616044820152683634b21037bbb732b960b91b6064820152608401610cff565b506001600160a01b031660009081526068602052604090205490565b600054610100900460ff161580801561188a5750600054600160ff909116105b806118a45750303b1580156118a4575060005460ff166001145b6119075760405162461bcd60e51b815260206004820152602e60248201527f496e697469616c697a61626c653a20636f6e747261637420697320616c72656160448201526d191e481a5b9a5d1a585b1a5e995960921b6064820152608401610cff565b6000805460ff19166001179055801561192a576000805461ff0019166101001790555b61197d6040518060400160405280601581526020017415185b195b9d13185e595c941b185d199bdc9b5251605a1b815250604051806040016040528060048152602001631514125160e21b815250612b31565b611985612b62565b61198d612b62565b611998600033612b8b565b6119b0600080516020614c4283398151915233612b8b565b6119c8600080516020614bc283398151915233612b8b565b6000610133819055805261012f6020527fe9104285c6851efcbc5e0e70440200efbdcab556a1c8784776780f8bb44f2931805460ff19166001179055611a1062015180610b69565b611a1f61013580546001019055565b610136805460ff191660011790558015610fd3576000805461ff0019169055604051600181527f7f26b83ff96e1f2b6a682f133852f6798a09c465da95921460cefb38474024989060200160405180910390a150565b6000611a8081612775565b6101338290556040518281527f38fbb1c8b109c430f0c030e7ed076cf5611a307773a4e8e365601e8f8bceaec690602001610ba6565b60008082118015611ac957506101355482105b611ae55760405162461bcd60e51b8152600401610cff9061414a565b50600090815261012e602052604090206004015490565b33611b0683611784565b6001600160a01b031614611b2c5760405162461bcd60e51b8152600401610cff90614238565b600082815261012e6020908152604091829020600301805461ffff191661ffff85169081179091558251858152918201527f03c3aa7c7830e29d1571bfe33dc72a8b8e0297dd6fdf26ef720dee976e21125a9101610ba6565b33611b8f83611784565b6001600160a01b031614611bb55760405162461bcd60e51b8152600401610cff90614238565b600082815261012e602090815260409182902060090180546001600160a01b0319166001600160a01b0385169081179091558251858152918201527f793c7e64f530286f5392e4266e68cf1d6d1f08a9c5494c8b916d4b86f546cb3e9101610ba6565b60009182526097602090815260408084206001600160a01b0393909316845291905290205460ff1690565b606060668054610be190614110565b6000611c5d81612775565b506001600160a01b0316600090815261012f60209081526040808320805460ff1990811690915561013190925290912080549091169055565b33611ca083611784565b6001600160a01b031614611cc65760405162461bcd60e51b8152600401610cff90614238565b600082815261012e6020908152604091829020600301805463ffff000019166201000061ffff8616908102919091179091558251858152918201527fffeae29561efc186d4d5241d242f7e2b4a76f114ea5de0db37fbd19c3b1913a59101610ba6565b610ef3338383612b95565b33611d3e83611784565b6001600160a01b031614611d645760405162461bcd60e51b8152600401610cff90614238565b61013454811015611dd45760405162461bcd60e51b815260206004820152603460248201527f5468652074696d656f7574206d7573742062652067726561746572207468616e604482015273081d1a19481b5a5b9a5b5d5b481d1a5b595bdd5d60621b6064820152608401610cff565b600082815261012e602090815260409182902060080183905581518481529081018390527face552c85eed7b5cf46330833e6f28b1f5ce696a4532e483192b5a64e4565e599101610ba6565b600083838360016101365460ff166002811115611e3f57611e3f613de2565b1480611e62575060026101365460ff166002811115611e6057611e60613de2565b145b611ea95760405162461bcd60e51b8152602060048201526018602482015277135a5b9d081cdd185d1d5cc81a5cc81b9bdd081d985b1a5960421b6044820152606401610cff565b60016101365460ff166002811115611ec357611ec3613de2565b03611f2257336000908152610130602052604090205460ff16611f225760405162461bcd60e51b8152602060048201526017602482015276165bdd48185c99481b9bdd081dda1a5d195b1a5cdd1959604a1b6044820152606401610cff565b610133543414611f445760405162461bcd60e51b8152600401610cff90614425565b611f4d8161237f565b15611f6a5760405162461bcd60e51b8152600401610cff90614469565b61012d8383604051611f7d9291906144ab565b9081526040519081900360200190205460ff1615611fd25760405162461bcd60e51b81526020600482015260126024820152712730b6b29030b63932b0b23c903a30b5b2b760711b6044820152606401610cff565b611fdc8383612c63565b600080516020614c42833981519152611ff481612775565b612007866120026101355490565b612e85565b61204888888080601f0160208091040260200160405190810160405280939291908181526020018383808284376000920191909152508a9250612e9f915050565b98975050505050505050565b3361205e83611784565b6001600160a01b0316146120845760405162461bcd60e51b8152600401610cff90614238565b600082815261012e602090815260409182902060050183905581518481529081018390527f5cea455bfd7800a5b219f99906f1402cf18c09764b07b36821dc7285b86a77329101610ba6565b6060610bcc82612f97565b60006120e681612775565b506001600160a01b03909116600090815261012f60209081526040808320805460ff19908116600117909155610131909252909120805492151592909116919091179055565b60008281526097602052604090206001015461214781612775565b610da08383612947565b600082823360016101365460ff16600281111561217057612170613de2565b1480612193575060026101365460ff16600281111561219157612191613de2565b145b6121da5760405162461bcd60e51b8152602060048201526018602482015277135a5b9d081cdd185d1d5cc81a5cc81b9bdd081d985b1a5960421b6044820152606401610cff565b60016101365460ff1660028111156121f4576121f4613de2565b0361225357336000908152610130602052604090205460ff166122535760405162461bcd60e51b8152602060048201526017602482015276165bdd48185c99481b9bdd081dda1a5d195b1a5cdd1959604a1b6044820152606401610cff565b6101335434146122755760405162461bcd60e51b8152600401610cff90614425565b61227e8161237f565b1561229b5760405162461bcd60e51b8152600401610cff90614469565b61012d83836040516122ae9291906144ab565b9081526040519081900360200190205460ff16156123035760405162461bcd60e51b81526020600482015260126024820152712730b6b29030b63932b0b23c903a30b5b2b760711b6044820152606401610cff565b61230d8383612c63565b600080516020614c4283398151915261232581612775565b612333336120026101355490565b61237487878080601f016020809104026020016040519081016040528093929190818152602001838380828437600092019190915250339250612e9f915050565b979650505050505050565b6000610bcc826117e4565b3361239483611784565b6001600160a01b0316146123ba5760405162461bcd60e51b8152600401610cff90614238565b600082815261012e602090815260409182902060040183905581518481529081018390527fccc64c8fc3688d9eb2c0bb58ff0dfef1a8528bcc06528d991da400c83835838d9101610ba6565b3361241083611784565b6001600160a01b0316146124365760405162461bcd60e51b8152600401610cff90614238565b8051602e146124755760405162461bcd60e51b815260206004820152600b60248201526a125b9d985b1a590818da5960aa1b6044820152606401610cff565b600082815261012e6020526040902060020161249182826142c3565b50817f613807bd6768f626264e7eb664a65ca99a0d930f8fd8a5b868491a592eb57f72826040516124c29190613a93565b60405180910390a25050565b6000811180156124e057506101355481105b610fd35760405162461bcd60e51b8152600401610cff9061414a565b600080516020614bc283398151915261251481612775565b610136805483919060ff1916600183600281111561253457612534613de2565b02179055507fbe5bfaa294dd4b792e98f2bcf8f597b2ead214107f9bc9e8392d6ec65e8d854f82604051610ba69190613df8565b61012e602052600090815260409020805460018201805491929161258b90614110565b80601f01602080910402602001604051908101604052809291908181526020018280546125b790614110565b80156126045780601f106125d957610100808354040283529160200191612604565b820191906000526020600020905b8154815290600101906020018083116125e757829003601f168201915b50505050509080600201805461261990614110565b80601f016020809104026020016040519081016040528092919081815260200182805461264590614110565b80156126925780601f1061266757610100808354040283529160200191612692565b820191906000526020600020905b81548152906001019060200180831161267557829003601f168201915b505050506003830154600484015460058501546006860154600787018054969761ffff8087169862010000909704169650939492936001600160a01b03909216926126dc90614110565b80601f016020809104026020016040519081016040528092919081815260200182805461270890614110565b80156127555780601f1061272a57610100808354040283529160200191612755565b820191906000526020600020905b81548152906001019060200180831161273857829003601f168201915b5050505060088301546009909301549192916001600160a01b031690508b565b610fd381336130c2565b60006001600160e01b031982166380ac58cd60e01b14806127b057506001600160e01b03198216635b5e139f60e01b145b80610bcc57506301ffc9a760e01b6001600160e01b0319831614610bcc565b60006001600160e01b03198216637965db0b60e01b1480610bcc5750610bcc8261277f565b6000818152606760205260409020546001600160a01b0316610fd35760405162461bcd60e51b8152602060048201526018602482015277115490cdcc8c4e881a5b9d985b1a59081d1bdad95b88125160421b6044820152606401610cff565b600081815260696020526040902080546001600160a01b0319166001600160a01b038416908117909155819061288882611784565b6001600160a01b03167f8c5be1e5ebec7d5bd14f71427d1e84f3dd0314c0f7b2291e5b200ac8c7c3b92560405160405180910390a45050565b6128cb8282611c18565b610ef35760008281526097602090815260408083206001600160a01b03851684529091529020805460ff191660011790556129033390565b6001600160a01b0316816001600160a01b0316837f2f8788117e7eff1d82e926ec794901d17c78024a50270940304540a733656f0d60405160405180910390a45050565b6129518282611c18565b15610ef35760008281526097602090815260408083206001600160a01b0385168085529252808320805460ff1916905551339285917ff6391f5c32d9c69d2a47ea670b442974b53935d1edc7fd64eb21e047a839171b9190a45050565b600080516020614bc2833981519152610ef381612775565b7f4910fdfa16fed3260ed0e7147f7cc6da11a60208b5b9406d12a635614ffd91435460ff16156129f957610da08361311b565b826001600160a01b03166352d1902d6040518163ffffffff1660e01b8152600401602060405180830381865afa925050508015612a53575060408051601f3d908101601f19168201909252612a50918101906144bb565b60015b612ab65760405162461bcd60e51b815260206004820152602e60248201527f45524331393637557067726164653a206e657720696d706c656d656e7461746960448201526d6f6e206973206e6f74205555505360901b6064820152608401610cff565b600080516020614be28339815191528114612b255760405162461bcd60e51b815260206004820152602960248201527f45524331393637557067726164653a20756e737570706f727465642070726f786044820152681a58589b195555525160ba1b6064820152608401610cff565b50610da08383836131b7565b600054610100900460ff16612b585760405162461bcd60e51b8152600401610cff906144d4565b610ef382826131e2565b600054610100900460ff16612b895760405162461bcd60e51b8152600401610cff906144d4565b565b610ef382826128c1565b816001600160a01b0316836001600160a01b031603612bf65760405162461bcd60e51b815260206004820152601960248201527f4552433732313a20617070726f766520746f2063616c6c6572000000000000006044820152606401610cff565b6001600160a01b038381166000818152606a6020908152604080832094871680845294825291829020805460ff191686151590811790915591519182527f17307eab39ab6107e8899845ad3d59bd9653f200f220920489ca2b5937696c31910160405180910390a3505050565b600082828080601f0160208091040260200160405190810160405280939291908181526020018383808284376000920191909152505082519293505060058210905080612cb05750601f81115b15612cce57604051633eb64ab360e01b815260040160405180910390fd5b600084846000818110612ce357612ce361451f565b909101356001600160f81b031916915050602d60f81b811480612d135750605f60f81b6001600160f81b03198216145b15612d3157604051632f2c22a760e11b815260040160405180910390fd5b60005b82811015612e7d57600360fc1b848281518110612d5357612d5361451f565b01602001516001600160f81b0319161080612d915750603d60f91b848281518110612d8057612d8061451f565b01602001516001600160f81b031916115b80612ded5750603960f81b848281518110612dae57612dae61451f565b01602001516001600160f81b031916118015612ded5750606160f81b848281518110612ddc57612ddc61451f565b01602001516001600160f81b031916105b8015612e1e5750838181518110612e0657612e0661451f565b6020910101516001600160f81b031916602d60f81b14155b8015612e4f5750838181518110612e3757612e3761451f565b6020910101516001600160f81b031916605f60f81b14155b15612e6d57604051630bb7f19b60e21b815260040160405180910390fd5b612e7681614535565b9050612d34565b505050505050565b610ef3828260405180602001604052806000815250613222565b600080612eac6101355490565b9050612ebd61013580546001019055565b600081815261012e6020526040902060018101612eda86826142c3565b5081815561013454600882015560405160019061012d90612efc90889061456a565b9081526040805160209281900383018120805460ff1916941515949094179093556009840180546001600160a01b0319166001600160a01b03891690811790915560008181526101329093529120849055610133546101345491927f8475f1ba3b06c1e11c870cbbf9753ca9a8292ea0b203262f682de476dc268f8c92612f879287928b9290614586565b60405180910390a2509392505050565b600081815261012e6020526040812060010180546060929190612fb990614110565b80601f0160208091040260200160405190810160405280929190818152602001828054612fe590614110565b80156130325780601f1061300757610100808354040283529160200191613032565b820191906000526020600020905b81548152906001019060200180831161301557829003601f168201915b5050505050905060006130638260405160200161304f91906145b2565b604051602081830303815290604052613255565b6040516020016130739190614916565b604051602081830303815290604052905061309a828260405160200161304f92919061495b565b6040516020016130aa91906149f8565b60405160208183030381529060405292505050919050565b6130cc8282611c18565b610ef3576130d9816133a8565b6130e48360206133ba565b6040516020016130f5929190614a3d565b60408051601f198184030181529082905262461bcd60e51b8252610cff91600401613a93565b6001600160a01b0381163b6131885760405162461bcd60e51b815260206004820152602d60248201527f455243313936373a206e657720696d706c656d656e746174696f6e206973206e60448201526c1bdd08184818dbdb9d1c9858dd609a1b6064820152608401610cff565b600080516020614be283398151915280546001600160a01b0319166001600160a01b0392909216919091179055565b6131c08361355d565b6000825111806131cd5750805b15610da0576131dc838361359d565b50505050565b600054610100900460ff166132095760405162461bcd60e51b8152600401610cff906144d4565b606561321583826142c3565b506066610da082826142c3565b61322c8383613691565b613239600084848461382a565b610da05760405162461bcd60e51b8152600401610cff90614ab2565b6060815160000361327457505060408051602081019091526000815290565b6000604051806060016040528060408152602001614c0260409139905060006003845160026132a39190614b04565b6132ad9190614b17565b6132b8906004614b39565b67ffffffffffffffff8111156132d0576132d0613b75565b6040519080825280601f01601f1916602001820160405280156132fa576020820181803683370190505b509050600182016020820185865187015b80821015613366576003820191508151603f8160121c168501518453600184019350603f81600c1c168501518453600184019350603f8160061c168501518453600184019350603f811685015184535060018301925061330b565b505060038651066001811461338257600281146133955761339d565b603d6001830353603d600283035361339d565b603d60018303535b509195945050505050565b6060610bcc6001600160a01b03831660145b606060006133c9836002614b39565b6133d4906002614b04565b67ffffffffffffffff8111156133ec576133ec613b75565b6040519080825280601f01601f191660200182016040528015613416576020820181803683370190505b509050600360fc1b816000815181106134315761343161451f565b60200101906001600160f81b031916908160001a905350600f60fb1b816001815181106134605761346061451f565b60200101906001600160f81b031916908160001a9053506000613484846002614b39565b61348f906001614b04565b90505b6001811115613507576f181899199a1a9b1b9c1cb0b131b232b360811b85600f16601081106134c3576134c361451f565b1a60f81b8282815181106134d9576134d961451f565b60200101906001600160f81b031916908160001a90535060049490941c9361350081614b50565b9050613492565b5083156135565760405162461bcd60e51b815260206004820181905260248201527f537472696e67733a20686578206c656e67746820696e73756666696369656e746044820152606401610cff565b9392505050565b6135668161311b565b6040516001600160a01b038216907fbc7cd75a20ee27fd9adebab32041f755214dbc6bffa90cc0225b39da2e5c2d3b90600090a250565b60606001600160a01b0383163b6136055760405162461bcd60e51b815260206004820152602660248201527f416464726573733a2064656c65676174652063616c6c20746f206e6f6e2d636f6044820152651b9d1c9858dd60d21b6064820152608401610cff565b600080846001600160a01b031684604051613620919061456a565b600060405180830381855af49150503d806000811461365b576040519150601f19603f3d011682016040523d82523d6000602084013e613660565b606091505b50915091506136888282604051806060016040528060278152602001614c626027913961392c565b95945050505050565b6001600160a01b0382166136e75760405162461bcd60e51b815260206004820181905260248201527f4552433732313a206d696e7420746f20746865207a65726f20616464726573736044820152606401610cff565b6000818152606760205260409020546001600160a01b03161561374c5760405162461bcd60e51b815260206004820152601c60248201527f4552433732313a20746f6b656e20616c7265616479206d696e746564000000006044820152606401610cff565b61375a600083836001613945565b6000818152606760205260409020546001600160a01b0316156137bf5760405162461bcd60e51b815260206004820152601c60248201527f4552433732313a20746f6b656e20616c7265616479206d696e746564000000006044820152606401610cff565b6001600160a01b038216600081815260686020908152604080832080546001019055848352606790915280822080546001600160a01b0319168417905551839291907fddf252ad1be2c89b69c2b068fc378daa952ba7f163c4a11628f55a4df523b3ef908290a45050565b60006001600160a01b0384163b1561392057604051630a85bd0160e11b81526001600160a01b0385169063150b7a029061386e903390899088908890600401614b67565b6020604051808303816000875af19250505080156138a9575060408051601f3d908101601f191682019092526138a691810190614ba4565b60015b613906573d8080156138d7576040519150601f19603f3d011682016040523d82523d6000602084013e6138dc565b606091505b5080516000036138fe5760405162461bcd60e51b8152600401610cff90614ab2565b805181602001fd5b6001600160e01b031916630a85bd0160e11b149050613924565b5060015b949350505050565b6060831561393b575081613556565b61355683836139cd565b60018111156131dc576001600160a01b0384161561398b576001600160a01b0384166000908152606860205260408120805483929061398590849061418d565b90915550505b6001600160a01b038316156131dc576001600160a01b038316600090815260686020526040812080548392906139c2908490614b04565b909155505050505050565b8151156139dd5781518083602001fd5b8060405162461bcd60e51b8152600401610cff9190613a93565b600060208284031215613a0957600080fd5b5035919050565b6001600160e01b031981168114610fd357600080fd5b600060208284031215613a3857600080fd5b813561355681613a10565b60005b83811015613a5e578181015183820152602001613a46565b50506000910152565b60008151808452613a7f816020860160208601613a43565b601f01601f19169290920160200192915050565b6020815260006135566020830184613a67565b6001600160a01b0381168114610fd357600080fd5b60008060408385031215613ace57600080fd5b8235613ad981613aa6565b946020939093013593505050565b600060208284031215613af957600080fd5b813561355681613aa6565b600080600060608486031215613b1957600080fd5b8335613b2481613aa6565b92506020840135613b3481613aa6565b929592945050506040919091013590565b60008060408385031215613b5857600080fd5b823591506020830135613b6a81613aa6565b809150509250929050565b634e487b7160e01b600052604160045260246000fd5b600082601f830112613b9c57600080fd5b813567ffffffffffffffff80821115613bb757613bb7613b75565b604051601f8301601f19908116603f01168101908282118183101715613bdf57613bdf613b75565b81604052838152866020858801011115613bf857600080fd5b836020870160208301376000602085830101528094505050505092915050565b600080600060608486031215613c2d57600080fd5b833592506020840135613c3f81613aa6565b9150604084013567ffffffffffffffff811115613c5b57600080fd5b613c6786828701613b8b565b9150509250925092565b60008060408385031215613c8457600080fd5b8235613c8f81613aa6565b9150602083013567ffffffffffffffff811115613cab57600080fd5b613cb785828601613b8b565b9150509250929050565b602081528151602082015260006020830151610160806040850152613cea610180850183613a67565b91506040850151601f1980868503016060870152613d088483613a67565b935060608701519150613d21608087018361ffff169052565b608087015161ffff811660a0880152915060a087015160c087015260c087015160e087015260e08701519150610100613d64818801846001600160a01b03169052565b80880151925050610120818786030181880152613d818584613a67565b90880151610140888101919091528801516001600160a01b038116858901529094509150613dac9050565b5090949350505050565b60008060408385031215613dc957600080fd5b82359150602083013561ffff81168114613b6a57600080fd5b634e487b7160e01b600052602160045260246000fd5b6020810160038310613e1a57634e487b7160e01b600052602160045260246000fd5b91905290565b60008060408385031215613e3357600080fd5b8235613e3e81613aa6565b915060208301358015158114613b6a57600080fd5b600060208284031215613e6557600080fd5b813567ffffffffffffffff811115613e7c57600080fd5b61392484828501613b8b565b60008060408385031215613e9b57600080fd5b50508035926020909101359150565b60008060008060808587031215613ec057600080fd5b8435613ecb81613aa6565b93506020850135613edb81613aa6565b925060408501359150606085013567ffffffffffffffff811115613efe57600080fd5b613f0a87828801613b8b565b91505092959194509250565b60008083601f840112613f2857600080fd5b50813567ffffffffffffffff811115613f4057600080fd5b602083019150836020828501011115613f5857600080fd5b9250929050565b600080600060408486031215613f7457600080fd5b833567ffffffffffffffff811115613f8b57600080fd5b613f9786828701613f16565b9094509250506020840135613fab81613aa6565b809150509250925092565b60008060208385031215613fc957600080fd5b823567ffffffffffffffff811115613fe057600080fd5b613fec85828601613f16565b90969095509350505050565b6000806040838503121561400b57600080fd5b823561401681613aa6565b91506020830135613b6a81613aa6565b6000806040838503121561403957600080fd5b82359150602083013567ffffffffffffffff811115613cab57600080fd5b60006020828403121561406957600080fd5b81356003811061355657600080fd5b60006101608d83528060208401526140928184018e613a67565b905082810360408401526140a6818d613a67565b61ffff8c811660608601528b16608085015260a084018a905260c084018990526001600160a01b0388811660e08601528482036101008601529091506140ec8288613a67565b92508561012085015280851661014085015250509c9b505050505050505050505050565b600181811c9082168061412457607f821691505b60208210810361414457634e487b7160e01b600052602260045260246000fd5b50919050565b602080825260139082015272125b9d985b1a59081c1b185d199bdc9b481251606a1b604082015260600190565b634e487b7160e01b600052601160045260246000fd5b81810381811115610bcc57610bcc614177565b6020808252602c908201527f46756e6374696f6e206d7573742062652063616c6c6564207468726f7567682060408201526b19195b1959d85d1958d85b1b60a21b606082015260800190565b6020808252602c908201527f46756e6374696f6e206d7573742062652063616c6c6564207468726f7567682060408201526b6163746976652070726f787960a01b606082015260800190565b60208082526025908201527f596f75277265206e6f7420746865206f776e6572206f66207468697320706c6160408201526474666f726d60d81b606082015260800190565b601f821115610da057600081815260208120601f850160051c810160208610156142a45750805b601f850160051c820191505b81811015612e7d578281556001016142b0565b815167ffffffffffffffff8111156142dd576142dd613b75565b6142f1816142eb8454614110565b8461427d565b602080601f831160018114614326576000841561430e5750858301515b600019600386901b1c1916600185901b178555612e7d565b600085815260208120601f198616915b8281101561435557888601518255948401946001909101908401614336565b50858210156143735787850151600019600388901b60f8161c191681555b5050505050600190811b01905550565b8381526000602060018060a01b0385168184015260606040840152600084546143ab81614110565b80606087015260806001808416600081146143cd57600181146143e757614415565b60ff1985168984015283151560051b890183019550614415565b896000528660002060005b8581101561440d5781548b82018601529083019088016143f2565b8a0184019650505b50939a9950505050505050505050565b60208082526024908201527f496e636f727265637420616d6f756e74206f662045544820666f72206d696e746040820152632066656560e01b606082015260800190565b60208082526022908201527f506c6174666f726d20616c726561647920686173206120506c6174666f726d20604082015261125160f21b606082015260800190565b8183823760009101908152919050565b6000602082840312156144cd57600080fd5b5051919050565b6020808252602b908201527f496e697469616c697a61626c653a20636f6e7472616374206973206e6f74206960408201526a6e697469616c697a696e6760a81b606082015260800190565b634e487b7160e01b600052603260045260246000fd5b60006001820161454757614547614177565b5060010190565b60008151614560818560208601613a43565b9290920192915050565b6000825161457c818460208701613a43565b9190910192915050565b84815260806020820152600061459f6080830186613a67565b6040830194909452506060015292915050565b7f3c73766720786d6c6e733d22687474703a2f2f7777772e77332e6f72672f323081527f30302f737667222077696474683d2237323022206865696768743d223732302260208201527f3e3c726563742077696474683d223130302522206865696768743d223130302560408201527f222f3e3c73766720786d6c6e733d22687474703a2f2f7777772e77332e6f726760608201527f2f323030302f737667222077696474683d2231353022206865696768743d223160808201527f3530222076657273696f6e3d22312e32222076696577426f783d222d3230302060a08201527f2d353020313030302031303030223e3c706174682066696c6c3d22234646464660c08201527f46462220643d224d3236342e35203139302e3563302d31332e382031312e322d60e08201527f32352032352d3235483536386331332e3820302032352031312e3220323520326101008201527f357634393063302031332e382d31312e322032352d3235203235483238392e356101208201527f632d31332e3820302d32352d31312e322d32352d32357a222f3e3c70617468206101408201527f66696c6c3d22234646464646462220643d224d3236352036323463302d31332e6101608201527f382031312e322d32352032352d3235683534336331332e3820302032352031316101808201527f2e322032352032357635362e3563302031332e382d31312e322032352d3235206101a08201527f323548323930632d31332e3820302d32352d31312e322d32352d32357a222f3e6101c08201527f3c706174682066696c6c3d22234646464646462220643d224d30203139302e356101e08201527f63302d31332e382031312e322d32352032352d3235683534336331332e3820306102008201527f2032352031312e322032352032355632343763302031332e382d31312e3220326102208201527f352d3235203235483235632d31332e3820302d32352d31312e322d32352d32356102408201527f7a222f3e3c2f7376673e3c7465787420783d2233302220793d223637302220736102608201527f74796c653d22666f6e743a363070782073616e732d73657269663b66696c6c3a6102808201526511b33333111f60d11b6102a082015260006135566148fd6102a684018561454e565b6c1e17ba32bc3a1f1e17b9bb339f60991b8152600d0190565b7f646174613a696d6167652f7376672b786d6c3b6261736536342c00000000000081526000825161494e81601a850160208701613a43565b91909101601a0192915050565b683d913730b6b2911d1160b91b81528251600090614980816009850160208801613a43565b6b1116101134b6b0b3b2911d1160a11b60099184019182015283516149ac816015840160208801613a43565b7f222c20226465736372697074696f6e223a202254616c656e74204c6179657220601592909101918201526c506c6174666f726d204944227d60981b6035820152604201949350505050565b7f646174613a6170706c69636174696f6e2f6a736f6e3b6261736536342c000000815260008251614a3081601d850160208701613a43565b91909101601d0192915050565b7f416363657373436f6e74726f6c3a206163636f756e7420000000000000000000815260008351614a75816017850160208801613a43565b7001034b99036b4b9b9b4b733903937b6329607d1b6017918401918201528351614aa6816028840160208801613a43565b01602801949350505050565b60208082526032908201527f4552433732313a207472616e7366657220746f206e6f6e20455243373231526560408201527131b2b4bb32b91034b6b83632b6b2b73a32b960711b606082015260800190565b80820180821115610bcc57610bcc614177565b600082614b3457634e487b7160e01b600052601260045260246000fd5b500490565b8082028115828204841417610bcc57610bcc614177565b600081614b5f57614b5f614177565b506000190190565b6001600160a01b0385811682528416602082015260408101839052608060608201819052600090614b9a90830184613a67565b9695505050505050565b600060208284031215614bb657600080fd5b815161355681613a1056feb19546dff01e856fb3f010c267a7b1c60363cf8a4664e21cc89c26224620214e360894a13ba1a3210667c828492db98dca3e2076cc3735a920a3ca505d382bbc4142434445464748494a4b4c4d4e4f505152535455565758595a6162636465666768696a6b6c6d6e6f707172737475767778797a303132333435363738392b2f154c00819833dac601ee5ddded6fda79d9d8b506b911b3dbd54cdb95fe6c3686416464726573733a206c6f772d6c6576656c2064656c65676174652063616c6c206661696c6564a2646970667358221220f5ac28b96d1b27943e2a82d639c7375be20025dc659b654990962a3cbe67098964736f6c63430008110033",
  "linkReferences": {},
  "deployedLinkReferences": {}
}