{
  "_format": "hh-sol-artifact-1",
  "contractName": "TalentLayerReview",
  "sourceName": "contracts/TalentLayerReview.sol",
  "abi": [
    {
      "inputs": [
        {
          "internalType": "string",
          "name": "name_",
          "type": "string"
        },
        {
          "internalType": "string",
          "name": "symbol_",
          "type": "string"
        },
        {
          "internalType": "address",
          "name": "_talentLayerIdAddress",
          "type": "address"
        },
        {
          "internalType": "address",
          "name": "_jobRegistryAddress",
          "type": "address"
        }
      ],
      "stateMutability": "nonpayable",
      "type": "constructor"
    },
    {
      "inputs": [],
      "name": "ReviewAlreadyMinted",
      "type": "error"
    },
    {
      "anonymous": false,
      "inputs": [
        {
          "indexed": true,
          "internalType": "address",
          "name": "owner",
          "type": "address"
        },
        {
          "indexed": true,
          "internalType": "address",
          "name": "approved",
          "type": "address"
        },
        {
          "indexed": true,
          "internalType": "uint256",
          "name": "tokenId",
          "type": "uint256"
        }
      ],
      "name": "Approval",
      "type": "event"
    },
    {
      "anonymous": false,
      "inputs": [
        {
          "indexed": true,
          "internalType": "address",
          "name": "owner",
          "type": "address"
        },
        {
          "indexed": true,
          "internalType": "address",
          "name": "operator",
          "type": "address"
        },
        {
          "indexed": false,
          "internalType": "bool",
          "name": "approved",
          "type": "bool"
        }
      ],
      "name": "ApprovalForAll",
      "type": "event"
    },
    {
      "anonymous": false,
      "inputs": [
        {
          "indexed": true,
          "internalType": "uint256",
          "name": "_jobId",
          "type": "uint256"
        },
        {
          "indexed": true,
          "internalType": "uint256",
          "name": "_toId",
          "type": "uint256"
        },
        {
          "indexed": true,
          "internalType": "uint256",
          "name": "_tokenId",
          "type": "uint256"
        },
        {
          "indexed": false,
          "internalType": "uint256",
          "name": "_rating",
          "type": "uint256"
        },
        {
          "indexed": false,
          "internalType": "string",
          "name": "_reviewUri",
          "type": "string"
        }
      ],
      "name": "Mint",
      "type": "event"
    },
    {
      "anonymous": false,
      "inputs": [
        {
          "indexed": true,
          "internalType": "address",
          "name": "from",
          "type": "address"
        },
        {
          "indexed": true,
          "internalType": "address",
          "name": "to",
          "type": "address"
        },
        {
          "indexed": true,
          "internalType": "uint256",
          "name": "tokenId",
          "type": "uint256"
        }
      ],
      "name": "Transfer",
      "type": "event"
    },
    {
      "inputs": [],
      "name": "_totalSupply",
      "outputs": [
        {
          "internalType": "uint256",
          "name": "",
          "type": "uint256"
        }
      ],
      "stateMutability": "view",
      "type": "function"
    },
    {
      "inputs": [
        {
          "internalType": "uint256",
          "name": "_jobId",
          "type": "uint256"
        },
        {
          "internalType": "string",
          "name": "_reviewUri",
          "type": "string"
        },
        {
          "internalType": "uint256",
          "name": "_rating",
          "type": "uint256"
        }
      ],
      "name": "addReview",
      "outputs": [],
      "stateMutability": "nonpayable",
      "type": "function"
    },
    {
      "inputs": [
        {
          "internalType": "address",
          "name": "to",
          "type": "address"
        },
        {
          "internalType": "uint256",
          "name": "tokenId",
          "type": "uint256"
        }
      ],
      "name": "approve",
      "outputs": [],
      "stateMutability": "nonpayable",
      "type": "function"
    },
    {
      "inputs": [
        {
          "internalType": "address",
          "name": "owner",
          "type": "address"
        }
      ],
      "name": "balanceOf",
      "outputs": [
        {
          "internalType": "uint256",
          "name": "",
          "type": "uint256"
        }
      ],
      "stateMutability": "view",
      "type": "function"
    },
    {
      "inputs": [
        {
          "internalType": "uint256",
          "name": "tokenId",
          "type": "uint256"
        }
      ],
      "name": "getApproved",
      "outputs": [
        {
          "internalType": "address",
          "name": "",
          "type": "address"
        }
      ],
      "stateMutability": "view",
      "type": "function"
    },
    {
      "inputs": [
        {
          "internalType": "address",
          "name": "owner",
          "type": "address"
        },
        {
          "internalType": "address",
          "name": "operator",
          "type": "address"
        }
      ],
      "name": "isApprovedForAll",
      "outputs": [
        {
          "internalType": "bool",
          "name": "",
          "type": "bool"
        }
      ],
      "stateMutability": "view",
      "type": "function"
    },
    {
      "inputs": [],
      "name": "name",
      "outputs": [
        {
          "internalType": "string",
          "name": "",
          "type": "string"
        }
      ],
      "stateMutability": "view",
      "type": "function"
    },
    {
      "inputs": [
        {
          "internalType": "uint256",
          "name": "",
          "type": "uint256"
        }
      ],
      "name": "nftMintedByJobAndemployeeId",
      "outputs": [
        {
          "internalType": "uint256",
          "name": "",
          "type": "uint256"
        }
      ],
      "stateMutability": "view",
      "type": "function"
    },
    {
      "inputs": [
        {
          "internalType": "uint256",
          "name": "",
          "type": "uint256"
        }
      ],
      "name": "nftMintedByJobAndemployerId",
      "outputs": [
        {
          "internalType": "uint256",
          "name": "",
          "type": "uint256"
        }
      ],
      "stateMutability": "view",
      "type": "function"
    },
    {
      "inputs": [
        {
          "internalType": "uint256",
          "name": "tokenId",
          "type": "uint256"
        }
      ],
      "name": "ownerOf",
      "outputs": [
        {
          "internalType": "address",
          "name": "",
          "type": "address"
        }
      ],
      "stateMutability": "view",
      "type": "function"
    },
    {
      "inputs": [
        {
          "internalType": "uint256",
          "name": "",
          "type": "uint256"
        }
      ],
      "name": "reviewDataUri",
      "outputs": [
        {
          "internalType": "string",
          "name": "",
          "type": "string"
        }
      ],
      "stateMutability": "view",
      "type": "function"
    },
    {
      "inputs": [
        {
          "internalType": "address",
          "name": "from",
          "type": "address"
        },
        {
          "internalType": "address",
          "name": "to",
          "type": "address"
        },
        {
          "internalType": "uint256",
          "name": "tokenId",
          "type": "uint256"
        }
      ],
      "name": "safeTransferFrom",
      "outputs": [],
      "stateMutability": "nonpayable",
      "type": "function"
    },
    {
      "inputs": [
        {
          "internalType": "address",
          "name": "from",
          "type": "address"
        },
        {
          "internalType": "address",
          "name": "to",
          "type": "address"
        },
        {
          "internalType": "uint256",
          "name": "tokenId",
          "type": "uint256"
        },
        {
          "internalType": "bytes",
          "name": "data",
          "type": "bytes"
        }
      ],
      "name": "safeTransferFrom",
      "outputs": [],
      "stateMutability": "nonpayable",
      "type": "function"
    },
    {
      "inputs": [
        {
          "internalType": "address",
          "name": "operator",
          "type": "address"
        },
        {
          "internalType": "bool",
          "name": "approved",
          "type": "bool"
        }
      ],
      "name": "setApprovalForAll",
      "outputs": [],
      "stateMutability": "nonpayable",
      "type": "function"
    },
    {
      "inputs": [
        {
          "internalType": "bytes4",
          "name": "interfaceId",
          "type": "bytes4"
        }
      ],
      "name": "supportsInterface",
      "outputs": [
        {
          "internalType": "bool",
          "name": "",
          "type": "bool"
        }
      ],
      "stateMutability": "view",
      "type": "function"
    },
    {
      "inputs": [],
      "name": "symbol",
      "outputs": [
        {
          "internalType": "string",
          "name": "",
          "type": "string"
        }
      ],
      "stateMutability": "view",
      "type": "function"
    },
    {
      "inputs": [
        {
          "internalType": "uint256",
          "name": "tokenId",
          "type": "uint256"
        }
      ],
      "name": "tokenURI",
      "outputs": [
        {
          "internalType": "string",
          "name": "",
          "type": "string"
        }
      ],
      "stateMutability": "view",
      "type": "function"
    },
    {
      "inputs": [
        {
          "internalType": "address",
          "name": "from",
          "type": "address"
        },
        {
          "internalType": "address",
          "name": "to",
          "type": "address"
        },
        {
          "internalType": "uint256",
          "name": "tokenId",
          "type": "uint256"
        }
      ],
      "name": "transferFrom",
      "outputs": [],
      "stateMutability": "nonpayable",
      "type": "function"
    }
  ],
  "bytecode": "0x608060405260006002553480156200001657600080fd5b5060405162001bd938038062001bd983398101604081905262000039916200022a565b83516200004e9060009060208701906200009a565b508251620000649060019060208601906200009a565b50600a80546001600160a01b039384166001600160a01b031991821617909155600b805492909316911617905550620002f69050565b828054620000a890620002b9565b90600052602060002090601f016020900481019282620000cc576000855562000117565b82601f10620000e757805160ff191683800117855562000117565b8280016001018555821562000117579182015b8281111562000117578251825591602001919060010190620000fa565b506200012592915062000129565b5090565b5b808211156200012557600081556001016200012a565b634e487b7160e01b600052604160045260246000fd5b600082601f8301126200016857600080fd5b81516001600160401b038082111562000185576200018562000140565b604051601f8301601f19908116603f01168101908282118183101715620001b057620001b062000140565b81604052838152602092508683858801011115620001cd57600080fd5b600091505b83821015620001f15785820183015181830184015290820190620001d2565b83821115620002035760008385830101525b9695505050505050565b80516001600160a01b03811681146200022557600080fd5b919050565b600080600080608085870312156200024157600080fd5b84516001600160401b03808211156200025957600080fd5b620002678883890162000156565b955060208701519150808211156200027e57600080fd5b506200028d8782880162000156565b9350506200029e604086016200020d565b9150620002ae606086016200020d565b905092959194509250565b600181811c90821680620002ce57607f821691505b60208210811415620002f057634e487b7160e01b600052602260045260246000fd5b50919050565b6118d380620003066000396000f3fe608060405234801561001057600080fd5b50600436106101165760003560e01c80636352211e116100a2578063a22cb46511610071578063a22cb46514610249578063b88d4fde1461025c578063c87b56dd1461026f578063e490eebf14610282578063e985e9c5146102a257600080fd5b80636352211e1461020857806370a082311461021b57806394cdf85f1461022e57806395d89b411461024157600080fd5b806323b872dd116100e957806323b872dd146101985780633e12b125146101ab5780633eaaf86b146101d957806342842e0e146101e257806352a2383b146101f557600080fd5b806301ffc9a71461011b57806306fdde0314610143578063081812fc14610158578063095ea7b314610183575b600080fd5b61012e610129366004611152565b6102de565b60405190151581526020015b60405180910390f35b61014b610330565b60405161013a91906111c7565b61016b6101663660046111da565b6103c2565b6040516001600160a01b03909116815260200161013a565b610196610191366004611208565b6103e9565b005b6101966101a6366004611234565b610521565b6101cb6101b93660046111da565b60086020526000908152604090205481565b60405190815260200161013a565b6101cb60025481565b6101966101f0366004611234565b610547565b61014b6102033660046111da565b610562565b61016b6102163660046111da565b6105fc565b6101cb610229366004611275565b6106b4565b61019661023c366004611292565b6107c0565b61014b610a3f565b610196610257366004611314565b610a4e565b61019661026a3660046113ea565b610a5d565b61014b61027d3660046111da565b610a95565b6101cb6102903660046111da565b60096020526000908152604090205481565b61012e6102b0366004611499565b6001600160a01b03918216600090815260066020908152604080832093909416825291909152205460ff1690565b60006001600160e01b031982166380ac58cd60e01b148061030f57506001600160e01b03198216635b5e139f60e01b145b8061032a57506301ffc9a760e01b6001600160e01b03198316145b92915050565b60606000805461033f906114c7565b80601f016020809104026020016040519081016040528092919081815260200182805461036b906114c7565b80156103b85780601f1061038d576101008083540402835291602001916103b8565b820191906000526020600020905b81548152906001019060200180831161039b57829003601f168201915b5050505050905090565b60006103cd82610b09565b506000908152600560205260409020546001600160a01b031690565b60006103f4826105fc565b9050806001600160a01b0316836001600160a01b031614156104725760405162461bcd60e51b815260206004820152602c60248201527f54616c656e744c617965725265766965773a20617070726f76616c20746f206360448201526b3ab93932b73a1037bbb732b960a11b60648201526084015b60405180910390fd5b336001600160a01b038216148061048e575061048e81336102b0565b6105125760405162461bcd60e51b815260206004820152604960248201527f54616c656e744c617965725265766965773a20617070726f76652063616c6c6560448201527f72206973206e6f7420746f6b656e206f776e6572206e6f7220617070726f76656064820152681908199bdc88185b1b60ba1b608482015260a401610469565b61051c8383610b37565b505050565b61052b3382610ba5565b61051c5760405162461bcd60e51b815260040161046990611502565b61051c83838360405180602001604052806000815250610a5d565b6007602052600090815260409020805461057b906114c7565b80601f01602080910402602001604051908101604052809291908181526020018280546105a7906114c7565b80156105f45780601f106105c9576101008083540402835291602001916105f4565b820191906000526020600020905b8154815290600101906020018083116105d757829003601f168201915b505050505081565b600a546000828152600360205260408082205490516331a9108f60e11b81526004810191909152909182916001600160a01b0390911690636352211e9060240160206040518083038186803b15801561065457600080fd5b505afa158015610668573d6000803e3d6000fd5b505050506040513d601f19601f8201168201806040525081019061068c919061155f565b90506001600160a01b03811661032a5760405162461bcd60e51b81526004016104699061157c565b60006001600160a01b0382166107275760405162461bcd60e51b815260206004820152603260248201527f54616c656e744c617965725265766965773a20746f6b656e207a65726f206973604482015271103737ba1030903b30b634b21037bbb732b960711b6064820152608401610469565b600a5460405162438b6360e81b81526001600160a01b038481166004808401919091529260009291169063438b63009060240160206040518083038186803b15801561077257600080fd5b505afa158015610786573d6000803e3d6000fd5b505050506040513d601f19601f820116820180604052508101906107aa91906115bf565b8152602001908152602001600020549050919050565b600b5460405163bf22c45760e01b8152600481018690526000916001600160a01b03169063bf22c4579060240160006040518083038186803b15801561080557600080fd5b505afa158015610819573d6000803e3d6000fd5b505050506040513d6000823e601f3d908101601f1916820160405261084191908101906115d8565b600a5460405162438b6360e81b81523360048201529192506000916001600160a01b039091169063438b63009060240160206040518083038186803b15801561088957600080fd5b505afa15801561089d573d6000803e3d6000fd5b505050506040513d601f19601f820116820180604052508101906108c191906115bf565b905081602001518114806108d85750816040015181145b6109245760405162461bcd60e51b815260206004820152601f60248201527f596f75277265206e6f7420616e206163746f72206f662074686973206a6f62006044820152606401610469565b600282516003811115610939576109396116b7565b146109865760405162461bcd60e51b815260206004820152601b60248201527f546865206a6f62206973206e6f742066696e69736865642079657400000000006044820152606401610469565b600082602001518214156109e057506040808301516000888152600860205291909120548214156109ca57604051633d36d72960e01b815260040160405180910390fd5b6000878152600860205260409020829055610a29565b5060208083015160008881526009909252604090912054821415610a1757604051633d36d72960e01b815260040160405180910390fd5b60008781526009602052604090208290555b610a368782868989610c24565b50505050505050565b60606001805461033f906114c7565b610a59338383610d95565b5050565b610a673383610ba5565b610a835760405162461bcd60e51b815260040161046990611502565b610a8f84848484610e70565b50505050565b6060610aa082610b09565b6000610ab760408051602081019091526000815290565b90506000815111610ad75760405180602001604052806000815250610b02565b80610ae184610e98565b604051602001610af29291906116cd565b6040516020818303038152906040525b9392505050565b600081815260036020526040902054610b345760405162461bcd60e51b81526004016104699061157c565b50565b600081815260056020526040902080546001600160a01b0319166001600160a01b0384169081179091558190610b6c826105fc565b6001600160a01b03167f8c5be1e5ebec7d5bd14f71427d1e84f3dd0314c0f7b2291e5b200ac8c7c3b92560405160405180910390a45050565b600080610bb1836105fc565b9050806001600160a01b0316846001600160a01b03161480610bf857506001600160a01b0380821660009081526006602090815260408083209388168352929052205460ff165b80610c1c5750836001600160a01b0316610c11846103c2565b6001600160a01b0316145b949350505050565b83610c845760405162461bcd60e51b815260206004820152602a60248201527f54616c656e744c617965725265766965773a206d696e7420746f20696e76616c6044820152696964206164647265737360b01b6064820152608401610469565b60058311158015610c93575060015b610ce95760405162461bcd60e51b815260206004820152602160248201527f54616c656e744c617965725265766965773a20696e76616c696420726174696e6044820152606760f81b6064820152608401610469565b6000848152600460205260408120805460019290610d08908490611712565b9091555050600280546000908152600360209081526040808320889055925482526007905220610d399083836110a3565b50600254610d48906001611712565b60028190555060025484867fc2c042b6adb2203938cfaca37c0a5aef6b304eff65efd5e9177e882162cebe38868686604051610d869392919061172a565b60405180910390a45050505050565b816001600160a01b0316836001600160a01b03161415610e035760405162461bcd60e51b8152602060048201526024808201527f54616c656e744c617965725265766965773a20617070726f766520746f206361604482015263363632b960e11b6064820152608401610469565b6001600160a01b03838116600081815260066020908152604080832094871680845294825291829020805460ff191686151590811790915591519182527f17307eab39ab6107e8899845ad3d59bd9653f200f220920489ca2b5937696c31910160405180910390a3505050565b610e7c84848484610f96565b610a8f5760405162461bcd60e51b815260040161046990611760565b606081610ebc5750506040805180820190915260018152600360fc1b602082015290565b8160005b8115610ee65780610ed0816117bd565b9150610edf9050600a836117ee565b9150610ec0565b60008167ffffffffffffffff811115610f0157610f01611352565b6040519080825280601f01601f191660200182016040528015610f2b576020820181803683370190505b5090505b8415610c1c57610f40600183611802565b9150610f4d600a86611819565b610f58906030611712565b60f81b818381518110610f6d57610f6d61182d565b60200101906001600160f81b031916908160001a905350610f8f600a866117ee565b9450610f2f565b60006001600160a01b0384163b1561109857604051630a85bd0160e11b81526001600160a01b0385169063150b7a0290610fda903390899088908890600401611843565b602060405180830381600087803b158015610ff457600080fd5b505af1925050508015611024575060408051601f3d908101601f1916820190925261102191810190611880565b60015b61107e573d808015611052576040519150601f19603f3d011682016040523d82523d6000602084013e611057565b606091505b5080516110765760405162461bcd60e51b815260040161046990611760565b805181602001fd5b6001600160e01b031916630a85bd0160e11b149050610c1c565b506001949350505050565b8280546110af906114c7565b90600052602060002090601f0160209004810192826110d15760008555611117565b82601f106110ea5782800160ff19823516178555611117565b82800160010185558215611117579182015b828111156111175782358255916020019190600101906110fc565b50611123929150611127565b5090565b5b808211156111235760008155600101611128565b6001600160e01b031981168114610b3457600080fd5b60006020828403121561116457600080fd5b8135610b028161113c565b60005b8381101561118a578181015183820152602001611172565b83811115610a8f5750506000910152565b600081518084526111b381602086016020860161116f565b601f01601f19169290920160200192915050565b602081526000610b02602083018461119b565b6000602082840312156111ec57600080fd5b5035919050565b6001600160a01b0381168114610b3457600080fd5b6000806040838503121561121b57600080fd5b8235611226816111f3565b946020939093013593505050565b60008060006060848603121561124957600080fd5b8335611254816111f3565b92506020840135611264816111f3565b929592945050506040919091013590565b60006020828403121561128757600080fd5b8135610b02816111f3565b600080600080606085870312156112a857600080fd5b84359350602085013567ffffffffffffffff808211156112c757600080fd5b818701915087601f8301126112db57600080fd5b8135818111156112ea57600080fd5b8860208285010111156112fc57600080fd5b95986020929092019750949560400135945092505050565b6000806040838503121561132757600080fd5b8235611332816111f3565b91506020830135801515811461134757600080fd5b809150509250929050565b634e487b7160e01b600052604160045260246000fd5b60405160a0810167ffffffffffffffff8111828210171561138b5761138b611352565b60405290565b604051601f8201601f1916810167ffffffffffffffff811182821017156113ba576113ba611352565b604052919050565b600067ffffffffffffffff8211156113dc576113dc611352565b50601f01601f191660200190565b6000806000806080858703121561140057600080fd5b843561140b816111f3565b9350602085013561141b816111f3565b925060408501359150606085013567ffffffffffffffff81111561143e57600080fd5b8501601f8101871361144f57600080fd5b803561146261145d826113c2565b611391565b81815288602083850101111561147757600080fd5b8160208401602083013760006020838301015280935050505092959194509250565b600080604083850312156114ac57600080fd5b82356114b7816111f3565b91506020830135611347816111f3565b600181811c908216806114db57607f821691505b602082108114156114fc57634e487b7160e01b600052602260045260246000fd5b50919050565b60208082526039908201527f54616c656e744c617965725265766965773a2063616c6c6572206973206e6f7460408201527f20746f6b656e206f776e6572206e6f7220617070726f76656400000000000000606082015260800190565b60006020828403121561157157600080fd5b8151610b02816111f3565b60208082526023908201527f54616c656e744c617965725265766965773a20696e76616c696420746f6b656e60408201526208125160ea1b606082015260800190565b6000602082840312156115d157600080fd5b5051919050565b600060208083850312156115eb57600080fd5b825167ffffffffffffffff8082111561160357600080fd5b9084019060a0828703121561161757600080fd5b61161f611368565b82516004811061162e57600080fd5b808252508383015184820152604083015160408201526060830151606082015260808301518281111561166057600080fd5b80840193505086601f84011261167557600080fd5b8251915061168561145d836113c2565b828152878584860101111561169957600080fd5b6116a88386830187870161116f565b60808201529695505050505050565b634e487b7160e01b600052602160045260246000fd5b600083516116df81846020880161116f565b8351908301906116f381836020880161116f565b01949350505050565b634e487b7160e01b600052601160045260246000fd5b60008219821115611725576117256116fc565b500190565b83815260406020820152816040820152818360608301376000818301606090810191909152601f909201601f1916010192915050565b6020808252603d908201527f54616c656e744c617965725265766965773a207472616e7366657220746f206e60408201527f6f6e20455243373231526563656976657220696d706c656d656e746572000000606082015260800190565b60006000198214156117d1576117d16116fc565b5060010190565b634e487b7160e01b600052601260045260246000fd5b6000826117fd576117fd6117d8565b500490565b600082821015611814576118146116fc565b500390565b600082611828576118286117d8565b500690565b634e487b7160e01b600052603260045260246000fd5b6001600160a01b03858116825284166020820152604081018390526080606082018190526000906118769083018461119b565b9695505050505050565b60006020828403121561189257600080fd5b8151610b028161113c56fea264697066735822122074ca7baac4a63bd325af9cd2f5b2d0c35127cdf3ef5ad47499adbc011ebd5b5964736f6c63430008090033",
  "linkReferences": {},
  "deployedLinkReferences": {}
}