{
  "_format": "hh-sol-artifact-1",
  "contractName": "TalentLayerEscrow",
  "sourceName": "contracts/TalentLayerEscrow.sol",
  "abi": [
    {
      "inputs": [],
      "stateMutability": "nonpayable",
      "type": "constructor"
    },
    {
      "anonymous": false,
      "inputs": [
        {
          "indexed": false,
          "internalType": "address",
          "name": "previousAdmin",
          "type": "address"
        },
        {
          "indexed": false,
          "internalType": "address",
          "name": "newAdmin",
          "type": "address"
        }
      ],
      "name": "AdminChanged",
      "type": "event"
    },
    {
      "anonymous": false,
      "inputs": [
        {
          "indexed": true,
          "internalType": "uint256",
          "name": "_transactionId",
          "type": "uint256"
        },
        {
          "indexed": false,
          "internalType": "enum TalentLayerEscrow.ArbitrationFeePaymentType",
          "name": "_paymentType",
          "type": "uint8"
        },
        {
          "indexed": false,
          "internalType": "enum TalentLayerEscrow.Party",
          "name": "_party",
          "type": "uint8"
        },
        {
          "indexed": false,
          "internalType": "uint256",
          "name": "_amount",
          "type": "uint256"
        }
      ],
      "name": "ArbitrationFeePayment",
      "type": "event"
    },
    {
      "anonymous": false,
      "inputs": [
        {
          "indexed": true,
          "internalType": "address",
          "name": "beacon",
          "type": "address"
        }
      ],
      "name": "BeaconUpgraded",
      "type": "event"
    },
    {
      "anonymous": false,
      "inputs": [
        {
          "indexed": true,
          "internalType": "contract Arbitrator",
          "name": "_arbitrator",
          "type": "address"
        },
        {
          "indexed": true,
          "internalType": "uint256",
          "name": "_disputeID",
          "type": "uint256"
        },
        {
          "indexed": false,
          "internalType": "uint256",
          "name": "_metaEvidenceID",
          "type": "uint256"
        },
        {
          "indexed": false,
          "internalType": "uint256",
          "name": "_evidenceGroupID",
          "type": "uint256"
        }
      ],
      "name": "Dispute",
      "type": "event"
    },
    {
      "anonymous": false,
      "inputs": [
        {
          "indexed": true,
          "internalType": "contract Arbitrator",
          "name": "_arbitrator",
          "type": "address"
        },
        {
          "indexed": true,
          "internalType": "uint256",
          "name": "_evidenceGroupID",
          "type": "uint256"
        },
        {
          "indexed": true,
          "internalType": "address",
          "name": "_party",
          "type": "address"
        },
        {
          "indexed": false,
          "internalType": "string",
          "name": "_evidence",
          "type": "string"
        }
      ],
      "name": "Evidence",
      "type": "event"
    },
    {
      "anonymous": false,
      "inputs": [
        {
          "indexed": true,
          "internalType": "uint256",
          "name": "_transactionId",
          "type": "uint256"
        },
        {
          "indexed": true,
          "internalType": "uint256",
          "name": "_partyId",
          "type": "uint256"
        },
        {
          "indexed": false,
          "internalType": "string",
          "name": "_evidenceUri",
          "type": "string"
        }
      ],
      "name": "EvidenceSubmitted",
      "type": "event"
    },
    {
      "anonymous": false,
      "inputs": [
        {
          "indexed": false,
          "internalType": "uint256",
          "name": "_platformId",
          "type": "uint256"
        },
        {
          "indexed": true,
          "internalType": "address",
          "name": "_token",
          "type": "address"
        },
        {
          "indexed": false,
          "internalType": "uint256",
          "name": "_amount",
          "type": "uint256"
        }
      ],
      "name": "FeesClaimed",
      "type": "event"
    },
    {
      "anonymous": false,
      "inputs": [
        {
          "indexed": true,
          "internalType": "uint256",
          "name": "_transactionId",
          "type": "uint256"
        },
        {
          "indexed": false,
          "internalType": "enum TalentLayerEscrow.Party",
          "name": "_party",
          "type": "uint8"
        }
      ],
      "name": "HasToPayFee",
      "type": "event"
    },
    {
      "anonymous": false,
      "inputs": [
        {
          "indexed": false,
          "internalType": "uint8",
          "name": "version",
          "type": "uint8"
        }
      ],
      "name": "Initialized",
      "type": "event"
    },
    {
      "anonymous": false,
      "inputs": [
        {
          "indexed": true,
          "internalType": "uint256",
          "name": "_metaEvidenceID",
          "type": "uint256"
        },
        {
          "indexed": false,
          "internalType": "string",
          "name": "_evidence",
          "type": "string"
        }
      ],
      "name": "MetaEvidence",
      "type": "event"
    },
    {
      "anonymous": false,
      "inputs": [
        {
          "indexed": false,
          "internalType": "uint256",
          "name": "_platformId",
          "type": "uint256"
        },
        {
          "indexed": false,
          "internalType": "uint256",
          "name": "_serviceId",
          "type": "uint256"
        },
        {
          "indexed": true,
          "internalType": "address",
          "name": "_token",
          "type": "address"
        },
        {
          "indexed": false,
          "internalType": "uint256",
          "name": "_amount",
          "type": "uint256"
        }
      ],
      "name": "OriginServiceFeeRateReleased",
      "type": "event"
    },
    {
      "anonymous": false,
      "inputs": [
        {
          "indexed": false,
          "internalType": "uint256",
          "name": "_platformId",
          "type": "uint256"
        },
        {
          "indexed": false,
          "internalType": "uint256",
          "name": "_serviceId",
          "type": "uint256"
        },
        {
          "indexed": true,
          "internalType": "address",
          "name": "_token",
          "type": "address"
        },
        {
          "indexed": false,
          "internalType": "uint256",
          "name": "_amount",
          "type": "uint256"
        }
      ],
      "name": "OriginValidatedProposalFeeRateReleased",
      "type": "event"
    },
    {
      "anonymous": false,
      "inputs": [
        {
          "indexed": true,
          "internalType": "address",
          "name": "previousOwner",
          "type": "address"
        },
        {
          "indexed": true,
          "internalType": "address",
          "name": "newOwner",
          "type": "address"
        }
      ],
      "name": "OwnershipTransferred",
      "type": "event"
    },
    {
      "anonymous": false,
      "inputs": [
        {
          "indexed": false,
          "internalType": "address",
          "name": "account",
          "type": "address"
        }
      ],
      "name": "Paused",
      "type": "event"
    },
    {
      "anonymous": false,
      "inputs": [
        {
          "indexed": false,
          "internalType": "uint256",
          "name": "_transactionId",
          "type": "uint256"
        },
        {
          "indexed": false,
          "internalType": "enum TalentLayerEscrow.PaymentType",
          "name": "_paymentType",
          "type": "uint8"
        },
        {
          "indexed": false,
          "internalType": "address",
          "name": "_token",
          "type": "address"
        },
        {
          "indexed": false,
          "internalType": "uint256",
          "name": "_amount",
          "type": "uint256"
        },
        {
          "indexed": false,
          "internalType": "uint256",
          "name": "_serviceId",
          "type": "uint256"
        }
      ],
      "name": "Payment",
      "type": "event"
    },
    {
      "anonymous": false,
      "inputs": [
        {
          "indexed": false,
          "internalType": "uint256",
          "name": "_serviceId",
          "type": "uint256"
        }
      ],
      "name": "PaymentCompleted",
      "type": "event"
    },
    {
      "anonymous": false,
      "inputs": [
        {
          "indexed": false,
          "internalType": "uint16",
          "name": "_protocolEscrowFeeRate",
          "type": "uint16"
        }
      ],
      "name": "ProtocolEscrowFeeRateUpdated",
      "type": "event"
    },
    {
      "anonymous": false,
      "inputs": [
        {
          "indexed": false,
          "internalType": "uint256",
          "name": "_referrerId",
          "type": "uint256"
        },
        {
          "indexed": true,
          "internalType": "address",
          "name": "_token",
          "type": "address"
        },
        {
          "indexed": false,
          "internalType": "uint256",
          "name": "_amount",
          "type": "uint256"
        }
      ],
      "name": "ReferralAmountClaimed",
      "type": "event"
    },
    {
      "anonymous": false,
      "inputs": [
        {
          "indexed": true,
          "internalType": "uint256",
          "name": "_referrerId",
          "type": "uint256"
        },
        {
          "indexed": false,
          "internalType": "uint256",
          "name": "_serviceId",
          "type": "uint256"
        },
        {
          "indexed": true,
          "internalType": "address",
          "name": "_token",
          "type": "address"
        },
        {
          "indexed": false,
          "internalType": "uint256",
          "name": "_amount",
          "type": "uint256"
        }
      ],
      "name": "ReferralAmountReleased",
      "type": "event"
    },
    {
      "anonymous": false,
      "inputs": [
        {
          "indexed": true,
          "internalType": "contract Arbitrator",
          "name": "_arbitrator",
          "type": "address"
        },
        {
          "indexed": true,
          "internalType": "uint256",
          "name": "_disputeID",
          "type": "uint256"
        },
        {
          "indexed": false,
          "internalType": "uint256",
          "name": "_ruling",
          "type": "uint256"
        }
      ],
      "name": "Ruling",
      "type": "event"
    },
    {
      "anonymous": false,
      "inputs": [
        {
          "indexed": true,
          "internalType": "uint256",
          "name": "_transactionId",
          "type": "uint256"
        },
        {
          "indexed": false,
          "internalType": "uint256",
          "name": "_ruling",
          "type": "uint256"
        }
      ],
      "name": "RulingExecuted",
      "type": "event"
    },
    {
      "anonymous": false,
      "inputs": [
        {
          "indexed": false,
          "internalType": "uint256",
          "name": "_transactionId",
          "type": "uint256"
        },
        {
          "indexed": false,
          "internalType": "uint256",
          "name": "_senderId",
          "type": "uint256"
        },
        {
          "indexed": false,
          "internalType": "uint256",
          "name": "_receiverId",
          "type": "uint256"
        },
        {
          "indexed": false,
          "internalType": "address",
          "name": "_token",
          "type": "address"
        },
        {
          "indexed": false,
          "internalType": "uint256",
          "name": "_amount",
          "type": "uint256"
        },
        {
          "indexed": false,
          "internalType": "uint256",
          "name": "_serviceId",
          "type": "uint256"
        },
        {
          "indexed": false,
          "internalType": "uint256",
          "name": "_proposalId",
          "type": "uint256"
        },
        {
          "indexed": false,
          "internalType": "uint16",
          "name": "_protocolEscrowFeeRate",
          "type": "uint16"
        },
        {
          "indexed": false,
          "internalType": "uint16",
          "name": "_originServiceFeeRate",
          "type": "uint16"
        },
        {
          "indexed": false,
          "internalType": "uint16",
          "name": "_originValidatedProposalFeeRate",
          "type": "uint16"
        },
        {
          "indexed": false,
          "internalType": "contract Arbitrator",
          "name": "_arbitrator",
          "type": "address"
        },
        {
          "indexed": false,
          "internalType": "bytes",
          "name": "_arbitratorExtraData",
          "type": "bytes"
        },
        {
          "indexed": false,
          "internalType": "uint256",
          "name": "_arbitrationFeeTimeout",
          "type": "uint256"
        }
      ],
      "name": "TransactionCreated",
      "type": "event"
    },
    {
      "anonymous": false,
      "inputs": [
        {
          "indexed": false,
          "internalType": "address",
          "name": "forwarder",
          "type": "address"
        }
      ],
      "name": "TrustedForwarderAdded",
      "type": "event"
    },
    {
      "anonymous": false,
      "inputs": [
        {
          "indexed": false,
          "internalType": "address",
          "name": "forwarder",
          "type": "address"
        }
      ],
      "name": "TrustedForwarderRemoved",
      "type": "event"
    },
    {
      "anonymous": false,
      "inputs": [
        {
          "indexed": false,
          "internalType": "address",
          "name": "account",
          "type": "address"
        }
      ],
      "name": "Unpaused",
      "type": "event"
    },
    {
      "anonymous": false,
      "inputs": [
        {
          "indexed": true,
          "internalType": "address",
          "name": "implementation",
          "type": "address"
        }
      ],
      "name": "Upgraded",
      "type": "event"
    },
    {
      "inputs": [
        {
          "internalType": "address",
          "name": "_forwarder",
          "type": "address"
        }
      ],
      "name": "addTrustedForwarder",
      "outputs": [],
      "stateMutability": "nonpayable",
      "type": "function"
    },
    {
      "inputs": [
        {
          "internalType": "uint256",
          "name": "_transactionId",
          "type": "uint256"
        }
      ],
      "name": "appeal",
      "outputs": [],
      "stateMutability": "payable",
      "type": "function"
    },
    {
      "inputs": [
        {
          "internalType": "uint256",
          "name": "_transactionId",
          "type": "uint256"
        }
      ],
      "name": "arbitrationFeeTimeout",
      "outputs": [],
      "stateMutability": "nonpayable",
      "type": "function"
    },
    {
      "inputs": [
        {
          "internalType": "uint256",
          "name": "_platformId",
          "type": "uint256"
        },
        {
          "internalType": "address",
          "name": "_tokenAddress",
          "type": "address"
        }
      ],
      "name": "claim",
      "outputs": [],
      "stateMutability": "nonpayable",
      "type": "function"
    },
    {
      "inputs": [
        {
          "internalType": "uint256",
          "name": "_referrerId",
          "type": "uint256"
        },
        {
          "internalType": "address",
          "name": "_tokenAddress",
          "type": "address"
        }
      ],
      "name": "claimReferralBalance",
      "outputs": [],
      "stateMutability": "nonpayable",
      "type": "function"
    },
    {
      "inputs": [
        {
          "internalType": "uint256",
          "name": "_serviceId",
          "type": "uint256"
        },
        {
          "internalType": "uint256",
          "name": "_proposalId",
          "type": "uint256"
        },
        {
          "internalType": "string",
          "name": "_metaEvidence",
          "type": "string"
        },
        {
          "internalType": "string",
          "name": "_originDataUri",
          "type": "string"
        }
      ],
      "name": "createTransaction",
      "outputs": [
        {
          "internalType": "uint256",
          "name": "",
          "type": "uint256"
        }
      ],
      "stateMutability": "payable",
      "type": "function"
    },
    {
      "inputs": [
        {
          "internalType": "uint256",
          "name": "",
          "type": "uint256"
        }
      ],
      "name": "disputeIDtoTransactionID",
      "outputs": [
        {
          "internalType": "uint256",
          "name": "",
          "type": "uint256"
        }
      ],
      "stateMutability": "view",
      "type": "function"
    },
    {
      "inputs": [
        {
          "internalType": "address",
          "name": "_token",
          "type": "address"
        }
      ],
      "name": "getClaimableFeeBalance",
      "outputs": [
        {
          "internalType": "uint256",
          "name": "balance",
          "type": "uint256"
        }
      ],
      "stateMutability": "view",
      "type": "function"
    },
    {
      "inputs": [
        {
          "internalType": "address",
          "name": "_token",
          "type": "address"
        }
      ],
      "name": "getClaimableReferralBalance",
      "outputs": [
        {
          "internalType": "uint256",
          "name": "balance",
          "type": "uint256"
        }
      ],
      "stateMutability": "view",
      "type": "function"
    },
    {
      "inputs": [
        {
          "internalType": "uint256",
          "name": "_transactionId",
          "type": "uint256"
        }
      ],
      "name": "getTransactionDetails",
      "outputs": [
        {
          "components": [
            {
              "internalType": "uint256",
              "name": "id",
              "type": "uint256"
            },
            {
              "internalType": "address",
              "name": "sender",
              "type": "address"
            },
            {
              "internalType": "address",
              "name": "receiver",
              "type": "address"
            },
            {
              "internalType": "address",
              "name": "token",
              "type": "address"
            },
            {
              "internalType": "uint256",
              "name": "amount",
              "type": "uint256"
            },
            {
              "internalType": "uint256",
              "name": "releasedAmount",
              "type": "uint256"
            },
            {
              "internalType": "uint256",
              "name": "serviceId",
              "type": "uint256"
            },
            {
              "internalType": "uint256",
              "name": "proposalId",
              "type": "uint256"
            },
            {
              "internalType": "uint16",
              "name": "protocolEscrowFeeRate",
              "type": "uint16"
            },
            {
              "internalType": "uint16",
              "name": "originServiceFeeRate",
              "type": "uint16"
            },
            {
              "internalType": "uint16",
              "name": "originValidatedProposalFeeRate",
              "type": "uint16"
            },
            {
              "internalType": "contract Arbitrator",
              "name": "arbitrator",
              "type": "address"
            },
            {
              "internalType": "enum TalentLayerEscrow.Status",
              "name": "status",
              "type": "uint8"
            },
            {
              "internalType": "uint256",
              "name": "disputeId",
              "type": "uint256"
            },
            {
              "internalType": "uint256",
              "name": "senderFee",
              "type": "uint256"
            },
            {
              "internalType": "uint256",
              "name": "receiverFee",
              "type": "uint256"
            },
            {
              "internalType": "uint256",
              "name": "lastInteraction",
              "type": "uint256"
            },
            {
              "internalType": "bytes",
              "name": "arbitratorExtraData",
              "type": "bytes"
            },
            {
              "internalType": "uint256",
              "name": "arbitrationFeeTimeout",
              "type": "uint256"
            },
            {
              "internalType": "uint256",
              "name": "referrerId",
              "type": "uint256"
            },
            {
              "internalType": "uint256",
              "name": "referralAmount",
              "type": "uint256"
            },
            {
              "internalType": "uint256",
              "name": "totalAmount",
              "type": "uint256"
            }
          ],
          "internalType": "struct TalentLayerEscrow.Transaction",
          "name": "",
          "type": "tuple"
        }
      ],
      "stateMutability": "view",
      "type": "function"
    },
    {
      "inputs": [
        {
          "internalType": "address",
          "name": "_talentLayerServiceAddress",
          "type": "address"
        },
        {
          "internalType": "address",
          "name": "_talentLayerIDAddress",
          "type": "address"
        },
        {
          "internalType": "address",
          "name": "_talentLayerPlatformIDAddress",
          "type": "address"
        },
        {
          "internalType": "address",
          "name": "_protocolWallet",
          "type": "address"
        }
      ],
      "name": "initialize",
      "outputs": [],
      "stateMutability": "nonpayable",
      "type": "function"
    },
    {
      "inputs": [
        {
          "internalType": "address",
          "name": "forwarder",
          "type": "address"
        }
      ],
      "name": "isTrustedForwarder",
      "outputs": [
        {
          "internalType": "bool",
          "name": "",
          "type": "bool"
        }
      ],
      "stateMutability": "view",
      "type": "function"
    },
    {
      "inputs": [],
      "name": "owner",
      "outputs": [
        {
          "internalType": "address",
          "name": "",
          "type": "address"
        }
      ],
      "stateMutability": "view",
      "type": "function"
    },
    {
      "inputs": [],
      "name": "pause",
      "outputs": [],
      "stateMutability": "nonpayable",
      "type": "function"
    },
    {
      "inputs": [],
      "name": "paused",
      "outputs": [
        {
          "internalType": "bool",
          "name": "",
          "type": "bool"
        }
      ],
      "stateMutability": "view",
      "type": "function"
    },
    {
      "inputs": [
        {
          "internalType": "uint256",
          "name": "_transactionId",
          "type": "uint256"
        }
      ],
      "name": "payArbitrationFeeByReceiver",
      "outputs": [],
      "stateMutability": "payable",
      "type": "function"
    },
    {
      "inputs": [
        {
          "internalType": "uint256",
          "name": "_transactionId",
          "type": "uint256"
        }
      ],
      "name": "payArbitrationFeeBySender",
      "outputs": [],
      "stateMutability": "payable",
      "type": "function"
    },
    {
      "inputs": [],
      "name": "protocolEscrowFeeRate",
      "outputs": [
        {
          "internalType": "uint16",
          "name": "",
          "type": "uint16"
        }
      ],
      "stateMutability": "view",
      "type": "function"
    },
    {
      "inputs": [],
      "name": "protocolWallet",
      "outputs": [
        {
          "internalType": "address payable",
          "name": "",
          "type": "address"
        }
      ],
      "stateMutability": "view",
      "type": "function"
    },
    {
      "inputs": [],
      "name": "proxiableUUID",
      "outputs": [
        {
          "internalType": "bytes32",
          "name": "",
          "type": "bytes32"
        }
      ],
      "stateMutability": "view",
      "type": "function"
    },
    {
      "inputs": [
        {
          "internalType": "uint256",
          "name": "_profileId",
          "type": "uint256"
        },
        {
          "internalType": "uint256",
          "name": "_transactionId",
          "type": "uint256"
        },
        {
          "internalType": "uint256",
          "name": "_amount",
          "type": "uint256"
        }
      ],
      "name": "reimburse",
      "outputs": [],
      "stateMutability": "nonpayable",
      "type": "function"
    },
    {
      "inputs": [
        {
          "internalType": "uint256",
          "name": "_profileId",
          "type": "uint256"
        },
        {
          "internalType": "uint256",
          "name": "_transactionId",
          "type": "uint256"
        },
        {
          "internalType": "uint256",
          "name": "_amount",
          "type": "uint256"
        }
      ],
      "name": "release",
      "outputs": [],
      "stateMutability": "nonpayable",
      "type": "function"
    },
    {
      "inputs": [
        {
          "internalType": "address",
          "name": "_forwarder",
          "type": "address"
        }
      ],
      "name": "removeTrustedForwarder",
      "outputs": [],
      "stateMutability": "nonpayable",
      "type": "function"
    },
    {
      "inputs": [],
      "name": "renounceOwnership",
      "outputs": [],
      "stateMutability": "nonpayable",
      "type": "function"
    },
    {
      "inputs": [
        {
          "internalType": "uint256",
          "name": "_disputeID",
          "type": "uint256"
        },
        {
          "internalType": "uint256",
          "name": "_ruling",
          "type": "uint256"
        }
      ],
      "name": "rule",
      "outputs": [],
      "stateMutability": "nonpayable",
      "type": "function"
    },
    {
      "inputs": [
        {
          "internalType": "uint256",
          "name": "_profileId",
          "type": "uint256"
        },
        {
          "internalType": "uint256",
          "name": "_transactionId",
          "type": "uint256"
        },
        {
          "internalType": "string",
          "name": "_evidence",
          "type": "string"
        }
      ],
      "name": "submitEvidence",
      "outputs": [],
      "stateMutability": "nonpayable",
      "type": "function"
    },
    {
      "inputs": [
        {
          "internalType": "address",
          "name": "newOwner",
          "type": "address"
        }
      ],
      "name": "transferOwnership",
      "outputs": [],
      "stateMutability": "nonpayable",
      "type": "function"
    },
    {
      "inputs": [],
      "name": "unpause",
      "outputs": [],
      "stateMutability": "nonpayable",
      "type": "function"
    },
    {
      "inputs": [
        {
          "internalType": "uint16",
          "name": "_protocolEscrowFeeRate",
          "type": "uint16"
        }
      ],
      "name": "updateProtocolEscrowFeeRate",
      "outputs": [],
      "stateMutability": "nonpayable",
      "type": "function"
    },
    {
      "inputs": [
        {
          "internalType": "address payable",
          "name": "_protocolWallet",
          "type": "address"
        }
      ],
      "name": "updateProtocolWallet",
      "outputs": [],
      "stateMutability": "nonpayable",
      "type": "function"
    },
    {
      "inputs": [
        {
          "internalType": "address",
          "name": "newImplementation",
          "type": "address"
        }
      ],
      "name": "upgradeTo",
      "outputs": [],
      "stateMutability": "nonpayable",
      "type": "function"
    },
    {
      "inputs": [
        {
          "internalType": "address",
          "name": "newImplementation",
          "type": "address"
        },
        {
          "internalType": "bytes",
          "name": "data",
          "type": "bytes"
        }
      ],
      "name": "upgradeToAndCall",
      "outputs": [],
      "stateMutability": "payable",
      "type": "function"
    }
  ],
  "bytecode": "0x60a0604052306080523480156200001557600080fd5b506200002062000026565b620000e8565b600054610100900460ff1615620000935760405162461bcd60e51b815260206004820152602760248201527f496e697469616c697a61626c653a20636f6e747261637420697320696e697469604482015266616c697a696e6760c81b606482015260840160405180910390fd5b60005460ff9081161015620000e6576000805460ff191660ff9081179091556040519081527f7f26b83ff96e1f2b6a682f133852f6798a09c465da95921460cefb38474024989060200160405180910390a15b565b60805161555e62000120600039600081816116390152818161167901528181611a4201528181611a820152611b11015261555e6000f3fe6080604052600436106101e35760003560e01c80635c0cd1e2116101025780638da5cb5b11610095578063e308a09911610064578063e308a09914610579578063eb63612d14610599578063f2fde38b146105b9578063f8c8765e146105d957600080fd5b80638da5cb5b146104fb5780639dcc5daf14610519578063d299630f14610539578063ddd5e1b21461055957600080fd5b80637b44cdb5116100d15780637b44cdb5146104a05780637e69b7b0146104b35780638456cb59146104c65780638b69fa0a146104db57600080fd5b80635c0cd1e2146104405780635c975abb146104605780636e72b45214610478578063715018a61461048b57600080fd5b80633751d89c1161017a5780634f1ef286116101495780634f1ef2861461039957806352d1902d146103ac578063572b6c05146103c15780635a34257a1461040a57600080fd5b80633751d89c146103245780633a1121cd146103445780633ab4a6a4146103645780633f4ba83a1461038457600080fd5b806326d00668116101b657806326d00668146102945780632fbe3b03146102b6578063311a6c56146102e45780633659cfe61461030457600080fd5b806306d6e63f146101e85780630a1a47d6146102265780630fa683d31461025457806315734fe714610281575b600080fd5b3480156101f457600080fd5b5061010154610209906001600160a01b031681565b6040516001600160a01b0390911681526020015b60405180910390f35b34801561023257600080fd5b506102466102413660046145fd565b6105f9565b60405190815260200161021d565b34801561026057600080fd5b5061027461026f36600461461a565b610765565b60405161021d91906146ad565b61024661028f36600461494a565b610ae6565b3480156102a057600080fd5b506102b46102af3660046145fd565b61145d565b005b3480156102c257600080fd5b506102466102d136600461461a565b6101026020526000908152604090205481565b3480156102f057600080fd5b506102b46102ff3660046149c1565b6114c0565b34801561031057600080fd5b506102b461031f3660046145fd565b61162f565b34801561033057600080fd5b506102b461033f3660046145fd565b61170e565b34801561035057600080fd5b506102b461035f3660046149e3565b611767565b34801561037057600080fd5b506102b461037f36600461461a565b611870565b34801561039057600080fd5b506102b4611a26565b6102b46103a7366004614a0f565b611a38565b3480156103b857600080fd5b50610246611b04565b3480156103cd57600080fd5b506103fa6103dc3660046145fd565b6001600160a01b031660009081526065602052604090205460ff1690565b604051901515815260200161021d565b34801561041657600080fd5b506101015461042d90600160a01b900461ffff1681565b60405161ffff909116815260200161021d565b34801561044c57600080fd5b5061024661045b3660046145fd565b611bb7565b34801561046c57600080fd5b5060665460ff166103fa565b6102b461048636600461461a565b611cc5565b34801561049757600080fd5b506102b4611f5e565b6102b46104ae36600461461a565b611f70565b6102b46104c136600461461a565b6121ea565b3480156104d257600080fd5b506102b46122a2565b3480156104e757600080fd5b506102b46104f6366004614a73565b6122b2565b34801561050757600080fd5b506033546001600160a01b0316610209565b34801561052557600080fd5b506102b46105343660046149e3565b612615565b34801561054557600080fd5b506102b4610554366004614ac3565b612703565b34801561056557600080fd5b506102b4610574366004614ac3565b6128b5565b34801561058557600080fd5b506102b46105943660046145fd565b612ac0565b3480156105a557600080fd5b506102b46105b4366004614b03565b612aeb565b3480156105c557600080fd5b506102b46105d43660046145fd565b612b44565b3480156105e557600080fd5b506102b46105f4366004614b20565b612bba565b600080610604612d3b565b9050806001600160a01b03166106226033546001600160a01b031690565b6001600160a01b03160361066c5750506001600160a01b031660009081527fc34a738ec333e394a3927794cadc6dd0eb7d9eed0999d1e55021ea223ac362cc602052604090205490565b61010054604051631847c06b60e01b81526001600160a01b0383811660048301526000921690631847c06b90602401602060405180830381865afa1580156106b8573d6000803e3d6000fd5b505050506040513d601f19601f820116820180604052508101906106dc9190614b7c565b6101005460405162f577a560e81b8152600481018390529192506001600160a01b03169063f577a5009060240160006040518083038186803b15801561072157600080fd5b505afa158015610735573d6000803e3d6000fd5b50505060009182525060fd602090815260408083206001600160a01b039096168352949052929092205492915050565b610814604080516102c081018252600080825260208201819052918101829052606081018290526080810182905260a0810182905260c0810182905260e0810182905261010081018290526101208101829052610140810182905261016081018290529061018082019081526020016000815260200160008152602001600081526020016000815260200160608152602001600081526020016000815260200160008152602001600081525090565b600082815260fc6020908152604080832081516102c0810183528154815260018201546001600160a01b039081169482019490945260028201548416928101929092526003810154831660608301526004808201546080840152600582015460a0840152600682015460c0840152600782015460e0840152600882015461ffff8082166101008601526201000082048116610120860152640100000000820416610140850152600160301b810490941661016084015291929091610180840191600160d01b900460ff16908111156108ee576108ee614633565b60048111156108ff576108ff614633565b815260200160098201548152602001600a8201548152602001600b8201548152602001600c8201548152602001600d8201805461093b90614b95565b80601f016020809104026020016040519081016040528092919081815260200182805461096790614b95565b80156109b45780601f10610989576101008083540402835291602001916109b4565b820191906000526020600020905b81548152906001019060200180831161099757829003601f168201915b50505050508152602001600e8201548152602001600f82015481526020016010820154815260200160118201548152505090506109f16101035490565b815110610a3e5760405162461bcd60e51b8152602060048201526016602482015275125b9d985b1a59081d1c985b9cd858dd1a5bdb881a5960521b60448201526064015b60405180910390fd5b6000610a48612d3b565b905081602001516001600160a01b0316816001600160a01b03161480610a83575081604001516001600160a01b0316816001600160a01b0316145b610adf5760405162461bcd60e51b815260206004820152602760248201527f596f7520617265206e6f742072656c6174656420746f2074686973207472616e60448201526639b0b1ba34b7b760c91b6064820152608401610a35565b5092915050565b6000610af0612d4a565b60fe5460405163353bb87f60e21b8152600481018790526024810186905260009182916001600160a01b039091169063d4eee1fc90604401600060405180830381865afa158015610b45573d6000803e3d6000fd5b505050506040513d6000823e601f3d908101601f19168201604052610b6d9190810190614cdf565b60ff54602083810151908301516040516303ef723760e61b81526004810192909252602482015292945090925060009182916001600160a01b03169063fbdc8dc0906044016040805180830381865afa158015610bce573d6000803e3d6000fd5b505050506040513d601f19601f82011682018060405250810190610bf29190614dbe565b6101005460a0870151604051630b7a459360e31b815260048101919091529294509092506000916001600160a01b0390911690635bd22c9890602401600060405180830381865afa158015610c4b573d6000803e3d6000fd5b505050506040513d6000823e601f3d908101601f19168201604052610c739190810190614df8565b9050600084608001518660a0015103610c8c5781610d09565b610100546080860151604051630b7a459360e31b81526001600160a01b0390921691635bd22c9891610cc49160040190815260200190565b600060405180830381865afa158015610ce1573d6000803e3d6000fd5b505050506040513d6000823e601f3d908101601f19168201604052610d099190810190614df8565b905060008560e00151600014610d23578660e00151610d26565b60005b90506000610d4287606001518560600151856080015185612d90565b60c08901519091506001600160a01b0316610da057803414610d9b5760405162461bcd60e51b81526020600482015260126024820152714e6f6e2d6d61746368696e672066756e647360701b6044820152606401610a35565b610de3565b3415610de35760405162461bcd60e51b81526020600482015260126024820152714e6f6e2d6d61746368696e672066756e647360701b6044820152606401610a35565b856001600160a01b0316610df5612d3b565b6001600160a01b031614610e1b5760405162461bcd60e51b8152600401610a3590614f24565b8b876020015114610e665760405162461bcd60e51b8152602060048201526015602482015274125b98dbdc9c9958dd081c1c9bdc1bdcd85b081251605a1b6044820152606401610a35565b428760c001511015610ead5760405162461bcd60e51b815260206004820152601060248201526f141c9bdc1bdcd85b08195e1c1a5c995960821b6044820152606401610a35565b600088516004811115610ec257610ec2614633565b14610f0f5760405162461bcd60e51b815260206004820152601760248201527f5365727669636520737461747573206e6f74206f70656e0000000000000000006044820152606401610a35565b600087516001811115610f2457610f24614633565b14610f715760405162461bcd60e51b815260206004820152601b60248201527f50726f706f73616c20737461747573206e6f742070656e64696e6700000000006044820152606401610a35565b8a51602e14610fb05760405162461bcd60e51b815260206004820152600b60248201526a125b9d985b1a590818da5960aa1b6044820152606401610a35565b89604051602001610fc19190614f4b565b604051602081830303815290604052805190602001208760a00151604051602001610fec9190614f4b565b604051602081830303815290604052805190602001201461104f5760405162461bcd60e51b815260206004820152601c60248201527f50726f706f73616c206461746155726920686173206368616e676564000000006044820152606401610a35565b600061105b6101035490565b9050604051806102c00160405280828152602001886001600160a01b03168152602001876001600160a01b031681526020018a60c001516001600160a01b0316815260200189606001518152602001600081526020018f81526020018e815260200161010160149054906101000a900461ffff1661ffff168152602001866060015161ffff168152602001856080015161ffff1681526020018660e001516001600160a01b031681526020016000600481111561111a5761111a614633565b8152602001600081526020016000815260200160008152602001428152602001866101000151815260200186610120015181526020018960e0015181526020018a60e001518152602001896060015181525060fc60008381526020019081526020016000206000820151816000015560208201518160010160006101000a8154816001600160a01b0302191690836001600160a01b0316021790555060408201518160020160006101000a8154816001600160a01b0302191690836001600160a01b0316021790555060608201518160030160006101000a8154816001600160a01b0302191690836001600160a01b031602179055506080820151816004015560a0820151816005015560c0820151816006015560e082015181600701556101008201518160080160006101000a81548161ffff021916908361ffff1602179055506101208201518160080160026101000a81548161ffff021916908361ffff1602179055506101408201518160080160046101000a81548161ffff021916908361ffff1602179055506101608201518160080160066101000a8154816001600160a01b0302191690836001600160a01b0316021790555061018082015181600801601a6101000a81548160ff021916908360048111156112fd576112fd614633565b02179055506101a082015160098201556101c0820151600a8201556101e0820151600b820155610200820151600c820155610220820151600d8201906113439082614fad565b50610240820151600e820155610260820151600f82015561028082015160108201556102a09091015160119091015561138161010380546001019055565b60fe60009054906101000a90046001600160a01b03166001600160a01b031663a7d5eaea8f8f846040518463ffffffff1660e01b81526004016113d7939291909283526020830191909152604082015260600190565b600060405180830381600087803b1580156113f157600080fd5b505af1158015611405573d6000803e3d6000fd5b5050505060c08901516001600160a01b0316156114365760c0890151611436906001600160a01b0316883085612e06565b61144a89602001518960200151838f612e66565b985050505050505050505b949350505050565b611465612f81565b6001600160a01b038116600081815260656020908152604091829020805460ff1916600117905590519182527f3ef8564460ada92419608d823c014975d98f8104d7d1e68c222967ac6814cd9791015b60405180910390a150565b60006114ca612d3b565b6000848152610102602090815260408083205480845260fc909252909120600881015492935090916001600160a01b03808516600160301b909204161461155d5760405162461bcd60e51b815260206004820152602160248201527f5468652063616c6c6572206d757374206265207468652061726269747261746f6044820152603960f91b6064820152608401610a35565b60036008820154600160d01b900460ff16600481111561157f5761157f614633565b146115da5760405162461bcd60e51b815260206004820152602560248201527f54686520646973707574652068617320616c7265616479206265656e207265736044820152641bdb1d995960da1b6064820152608401610a35565b84836001600160a01b03167f394027a5fa6e098a1191094d1719d6929b9abc535fcc0c8f448d6a4e756222768660405161161691815260200190565b60405180910390a36116288285612ffa565b5050505050565b6001600160a01b037f00000000000000000000000000000000000000000000000000000000000000001630036116775760405162461bcd60e51b8152600401610a359061506d565b7f00000000000000000000000000000000000000000000000000000000000000006001600160a01b03166116c06000805160206154c2833981519152546001600160a01b031690565b6001600160a01b0316146116e65760405162461bcd60e51b8152600401610a35906150b9565b6116ef81613284565b6040805160008082526020820190925261170b9183919061328c565b50565b611716612f81565b6001600160a01b038116600081815260656020908152604091829020805460ff1916905590519182527fd2d636efcad0cea42e170256f4c5d8b1cd81e47b855557edaf44014e6cc4cee691016114b5565b61176f612d4a565b60ff5483906001600160a01b0316632fa117e58261178b612d3b565b6040516001600160e01b031960e085901b16815260048101929092526001600160a01b03166024820152604401602060405180830381865afa1580156117d5573d6000803e3d6000fd5b505050506040513d601f19601f820116820180604052508101906117f99190615105565b6118155760405162461bcd60e51b8152600401610a3590615127565b61182283600086856133f7565b600083815260fc602052604081206004810180549192859261184590849061516c565b9250508190555082816005016000828254611860919061517f565b90915550611628905084846136e2565b600081815260fc60205260409020600e810154600c820154611892904261516c565b10156118e05760405162461bcd60e51b815260206004820152601f60248201527f54696d656f75742074696d6520686173206e6f742070617373656420796574006044820152606401610a35565b60016008820154600160d01b900460ff16600481111561190257611902614633565b0361198557600a8101541561197657600a81018054600091829055600183015460405191926001600160a01b0390911691839181818185875af1925050503d806000811461196c576040519150601f19603f3d011682016040523d82523d6000602084013e611971565b606091505b505050505b611981826002612ffa565b5050565b60026008820154600160d01b900460ff1660048111156119a7576119a7614633565b0361198157600b81015415611a1b57600b81018054600091829055600283015460405191926001600160a01b0390911691839181818185875af1925050503d8060008114611a11576040519150601f19603f3d011682016040523d82523d6000602084013e611a16565b606091505b505050505b611981826001612ffa565b611a2e612f81565b611a36613727565b565b6001600160a01b037f0000000000000000000000000000000000000000000000000000000000000000163003611a805760405162461bcd60e51b8152600401610a359061506d565b7f00000000000000000000000000000000000000000000000000000000000000006001600160a01b0316611ac96000805160206154c2833981519152546001600160a01b031690565b6001600160a01b031614611aef5760405162461bcd60e51b8152600401610a35906150b9565b611af882613284565b6119818282600161328c565b6000306001600160a01b037f00000000000000000000000000000000000000000000000000000000000000001614611ba45760405162461bcd60e51b815260206004820152603860248201527f555550535570677261646561626c653a206d757374206e6f742062652063616c60448201527f6c6564207468726f7567682064656c656761746563616c6c00000000000000006064820152608401610a35565b506000805160206154c283398151915290565b60ff5460009081906001600160a01b0316631847c06b611bd5612d3b565b6040516001600160e01b031960e084901b1681526001600160a01b039091166004820152602401602060405180830381865afa158015611c19573d6000803e3d6000fd5b505050506040513d601f19601f82011682018060405250810190611c3d9190614b7c565b60ff5460405162f577a560e81b8152600481018390529192506001600160a01b03169063f577a5009060240160006040518083038186803b158015611c8157600080fd5b505afa158015611c95573d6000803e3d6000fd5b505050600091825250610104602090815260408083206001600160a01b0390951683529390529190912054919050565b600081815260fc602052604090206008810154600160301b90046001600160a01b0316611d045760405162461bcd60e51b8152600401610a3590615192565b60036008820154600160d01b900460ff166004811115611d2657611d26614633565b10611d435760405162461bcd60e51b8152600401610a35906151be565b60028101546001600160a01b0316611d59612d3b565b6001600160a01b031614611daf5760405162461bcd60e51b815260206004820152601f60248201527f5468652063616c6c6572206d75737420626520746865207265636569766572006044820152606401610a35565b600881015460405163f7434ea960e01b8152600091600160301b90046001600160a01b03169063f7434ea990611dec90600d8601906004016152ae565b602060405180830381865afa158015611e09573d6000803e3d6000fd5b505050506040513d601f19601f82011682018060405250810190611e2d9190614b7c565b90503482600b016000828254611e43919061517f565b9091555050600b8201548114611eba5760405162461bcd60e51b815260206004820152603660248201527f54686520726563656976657220666565206d75737420626520657175616c20746044820152751bc81d1a1948185c989a5d1c985d1a5bdb8818dbdcdd60521b6064820152608401610a35565b42600c83015560405183906000805160206154e283398151915290611ee69060009060019034906152d1565b60405180910390a28082600a01541015611f4f5760088201805460ff60d01b1916600160d01b17905560405183907fc74b9f7dedf2887cd3c113b6d8da9cea19e55c1116e25f1f0e1b72d7543179b590611f42906000906152fb565b60405180910390a2505050565b611f59838261377f565b505050565b611f66612f81565b611a3660006139d2565b600081815260fc602052604090206008810154600160301b90046001600160a01b0316611faf5760405162461bcd60e51b8152600401610a3590615192565b60036008820154600160d01b900460ff166004811115611fd157611fd1614633565b10611fee5760405162461bcd60e51b8152600401610a35906151be565b60018101546001600160a01b0316612004612d3b565b6001600160a01b03161461205a5760405162461bcd60e51b815260206004820152601d60248201527f5468652063616c6c6572206d757374206265207468652073656e6465720000006044820152606401610a35565b600881015460405163f7434ea960e01b8152600091600160301b90046001600160a01b03169063f7434ea99061209790600d8601906004016152ae565b602060405180830381865afa1580156120b4573d6000803e3d6000fd5b505050506040513d601f19601f820116820180604052508101906120d89190614b7c565b90503482600a0160008282546120ee919061517f565b9091555050600a82015481146121635760405162461bcd60e51b815260206004820152603460248201527f5468652073656e64657220666565206d75737420626520657175616c20746f206044820152731d1a1948185c989a5d1c985d1a5bdb8818dbdcdd60621b6064820152608401610a35565b42600c83015560405183906000805160206154e28339815191529061218e90600090819034906152d1565b60405180910390a28082600b01541015611f4f5760088201805460ff60d01b1916600160d11b17905560405183907fc74b9f7dedf2887cd3c113b6d8da9cea19e55c1116e25f1f0e1b72d7543179b590611f42906001906152fb565b600081815260fc602052604090206008810154600160301b90046001600160a01b03166122295760405162461bcd60e51b8152600401610a3590615192565b6008810154600982015460405163093225f160e31b8152600160301b9092046001600160a01b0316916349912f8891349161226c9190600d87019060040161530e565b6000604051808303818588803b15801561228557600080fd5b505af1158015612299573d6000803e3d6000fd5b50505050505050565b6122aa612f81565b611a36613a24565b60ff5483906001600160a01b0316632fa117e5826122ce612d3b565b6040516001600160e01b031960e085901b16815260048101929092526001600160a01b03166024820152604401602060405180830381865afa158015612318573d6000803e3d6000fd5b505050506040513d601f19601f8201168201806040525081019061233c9190615105565b6123585760405162461bcd60e51b8152600401610a3590615127565b8151602e146123975760405162461bcd60e51b815260206004820152600b60248201526a125b9d985b1a590818da5960aa1b6044820152606401610a35565b600083815260fc602052604090206008810154600160301b90046001600160a01b03166123d65760405162461bcd60e51b8152600401610a3590615192565b60ff546040516331a9108f60e11b8152600481018790526000916001600160a01b031690636352211e90602401602060405180830381865afa158015612420573d6000803e3d6000fd5b505050506040513d601f19601f820116820180604052508101906124449190615327565b60018301549091506001600160a01b0380831691161480612474575060028201546001600160a01b038281169116145b6124e8576040805162461bcd60e51b81526020600482015260248101919091527f5468652063616c6c6572206d757374206265207468652073656e646572206f7260448201527f20746865207265636569766572206f722074686569722064656c6567617465736064820152608401610a35565b60046008830154600160d01b900460ff16600481111561250a5761250a614633565b106125715760405162461bcd60e51b815260206004820152603160248201527f4d757374206e6f742073656e642065766964656e6365206966207468652064696044820152701cdc1d5d19481a5cc81c995cdbdb1d9959607a1b6064820152608401610a35565b806001600160a01b0316858360080160069054906101000a90046001600160a01b03166001600160a01b03167fdccf2f8b2cc26eafcd61905cba744cff4b81d14740725f6376390dc6298a6a3c876040516125cc9190615344565b60405180910390a485857fd998ce0f89c38b0f93256f0b843a404a3a3c5055b75265623f7cb9c369a1dd62866040516126059190615344565b60405180910390a3505050505050565b61261d612d4a565b60ff5483906001600160a01b0316632fa117e582612639612d3b565b6040516001600160e01b031960e085901b16815260048101929092526001600160a01b03166024820152604401602060405180830381865afa158015612683573d6000803e3d6000fd5b505050506040513d601f19601f820116820180604052508101906126a79190615105565b6126c35760405162461bcd60e51b8152600401610a3590615127565b6126d083600186856133f7565b600083815260fc60205260408120600481018054919285926126f390849061516c565b9091555061162890508484613a62565b61270b612d4a565b60ff5460405162f577a560e81b8152600481018490526000916001600160a01b03169063f577a5009060240160006040518083038186803b15801561274f57600080fd5b505afa158015612763573d6000803e3d6000fd5b505060ff546040516331a9108f60e11b8152600481018790526001600160a01b039091169250636352211e9150602401602060405180830381865afa1580156127b0573d6000803e3d6000fd5b505050506040513d601f19601f820116820180604052508101906127d49190615327565b6000848152610104602090815260408083206001600160a01b03871684529091529020549091508061283b5760405162461bcd60e51b815260206004820152601060248201526f6e6f7468696e6720746f20636c61696d60801b6044820152606401610a35565b6000848152610104602090815260408083206001600160a01b038716845290915281205561286a828483613aff565b60408051858152602081018390526001600160a01b038516917ff7c8cc6f18f75645957886fe11026a08ce70f199ba95cbb33ddd4064aa85203991015b60405180910390a250505050565b6128bd612d4a565b60006128c7612d3b565b6001600160a01b03166128e26033546001600160a01b031690565b6001600160a01b03160361292157821561290e5760405162461bcd60e51b8152600401610a3590614f24565b50610101546001600160a01b03166129ee565b6101005460405162f577a560e81b8152600481018590526001600160a01b039091169063f577a5009060240160006040518083038186803b15801561296557600080fd5b505afa158015612979573d6000803e3d6000fd5b5050610100546040516331a9108f60e11b8152600481018790526001600160a01b039091169250636352211e9150602401602060405180830381865afa1580156129c7573d6000803e3d6000fd5b505050506040513d601f19601f820116820180604052508101906129eb9190615327565b90505b600083815260fd602090815260408083206001600160a01b038616845290915290205480612a515760405162461bcd60e51b815260206004820152601060248201526f6e6f7468696e6720746f20636c61696d60801b6044820152606401610a35565b600084815260fd602090815260408083206001600160a01b0387168452909152812055612a7f828483613aff565b60408051858152602081018390526001600160a01b038516917f2227733fc4c8a9034cb58087dcf6995128b9c0233b038b03366aaf30c92b92d691016128a7565b612ac8612f81565b61010180546001600160a01b0319166001600160a01b0392909216919091179055565b612af3612f81565b610101805461ffff60a01b1916600160a01b61ffff8416908102919091179091556040519081527f8339189e972f7fba792126e752aa8485af08710bce4a041c5bc3f9858acd7130906020016114b5565b612b4c612f81565b6001600160a01b038116612bb15760405162461bcd60e51b815260206004820152602660248201527f4f776e61626c653a206e6577206f776e657220697320746865207a65726f206160448201526564647265737360d01b6064820152608401610a35565b61170b816139d2565b600054610100900460ff1615808015612bda5750600054600160ff909116105b80612bf45750303b158015612bf4575060005460ff166001145b612c575760405162461bcd60e51b815260206004820152602e60248201527f496e697469616c697a61626c653a20636f6e747261637420697320616c72656160448201526d191e481a5b9a5d1a585b1a5e995960921b6064820152608401610a35565b6000805460ff191660011790558015612c7a576000805461ff0019166101001790555b612c82613bd9565b612c8a613c08565b60fe80546001600160a01b038088166001600160a01b03199283161790925560ff80548784169083161790556101008054868416908316179055610101805492851692909116919091179055612ce561010380546001019055565b612cef6064612aeb565b8015611628576000805461ff0019169055604051600181527f7f26b83ff96e1f2b6a682f133852f6798a09c465da95921460cefb38474024989060200160405180910390a15050505050565b6000612d45613c2f565b905090565b60665460ff1615611a365760405162461bcd60e51b815260206004820152601060248201526f14185d5cd8589b194e881c185d5cd95960821b6044820152606401610a35565b600081612710612da461ffff861688615357565b612db261ffff881689615357565b61010154612dcb90600160a01b900461ffff168a615357565b612dd5919061517f565b612ddf919061517f565b612de9919061536e565b612df3908761517f565b612dfd919061517f565b95945050505050565b604080516001600160a01b0385811660248301528416604482015260648082018490528251808303909101815260849091019091526020810180516001600160e01b03166323b872dd60e01b179052612e60908590613c68565b50505050565b600060fc600084815260200190815260200160002090507f8b4f0e94aa0aee74c276abd2d92a5e2737a493b055e19d5b2d4c0ac573242a158386868460030160009054906101000a90046001600160a01b031685600401548660060154876007015461010160149054906101000a900461ffff168960080160029054906101000a900461ffff168a60080160049054906101000a900461ffff168b60080160069054906101000a90046001600160a01b03168c600d018d600e0154604051612f3a9d9c9b9a99989796959493929190615390565b60405180910390a1827f61606860eb6c87306811e2695215385101daab53bd6ab4e9f9049aead9363c7d83604051612f729190615344565b60405180910390a25050505050565b612f89612d3b565b6001600160a01b0316612fa46033546001600160a01b031690565b6001600160a01b031614611a365760405162461bcd60e51b815260206004820181905260248201527f4f776e61626c653a2063616c6c6572206973206e6f7420746865206f776e65726044820152606401610a35565b600082815260fc60205260409020600282111561304a5760405162461bcd60e51b815260206004820152600e60248201526d496e76616c69642072756c696e6760901b6044820152606401610a35565b60018101546002820154600483018054600a85018054600b87018054600095869055928590559390935560088601805460ff60d01b1916600160d21b1790556001600160a01b0394851694909316929091906000198701613105576040516001600160a01b038616908390600081818185875af1925050503d80600081146130ee576040519150601f19603f3d011682016040523d82523d6000602084013e6130f3565b606091505b5050506131008884613a62565b613240565b6001198701613169576040516001600160a01b038516908290600081818185875af1925050503d8060008114613157576040519150601f19603f3d011682016040523d82523d6000602084013e61315c565b606091505b50505061310088846136e2565b600061317660028461536e565b9050600061318560028661536e565b90506131918a82613a62565b61319b8a826136e2565b6040516001600160a01b038816908390600081818185875af1925050503d80600081146131e4576040519150601f19603f3d011682016040523d82523d6000602084013e6131e9565b606091505b50506040516001600160a01b03881691508390600081818185875af1925050503d8060008114613235576040519150601f19603f3d011682016040523d82523d6000602084013e61323a565b606091505b50505050505b877f76b363d70472d47d20e4119f3625c05ed37ca51b1d9e1cd8b87d8c20530640f38860405161327291815260200190565b60405180910390a25050505050505050565b61170b612f81565b7f4910fdfa16fed3260ed0e7147f7cc6da11a60208b5b9406d12a635614ffd91435460ff16156132bf57611f5983613d3a565b826001600160a01b03166352d1902d6040518163ffffffff1660e01b8152600401602060405180830381865afa925050508015613319575060408051601f3d908101601f1916820190925261331691810190614b7c565b60015b61337c5760405162461bcd60e51b815260206004820152602e60248201527f45524331393637557067726164653a206e657720696d706c656d656e7461746960448201526d6f6e206973206e6f74205555505360901b6064820152608401610a35565b6000805160206154c283398151915281146133eb5760405162461bcd60e51b815260206004820152602960248201527f45524331393637557067726164653a20756e737570706f727465642070726f786044820152681a58589b195555525160ba1b6064820152608401610a35565b50611f59838383613dd6565b600084815260fc602052604081209084600181111561341857613418614633565b036134be5760ff546040516331a9108f60e11b8152600481018590526001600160a01b0390911690636352211e90602401602060405180830381865afa158015613466573d6000803e3d6000fd5b505050506040513d601f19601f8201168201806040525081019061348a9190615327565b60018201546001600160a01b039081169116146134b95760405162461bcd60e51b8152600401610a3590614f24565b613573565b60018460018111156134d2576134d2614633565b036135735760ff546040516331a9108f60e11b8152600481018590526001600160a01b0390911690636352211e90602401602060405180830381865afa158015613520573d6000803e3d6000fd5b505050506040513d601f19601f820116820180604052508101906135449190615327565b60028201546001600160a01b039081169116146135735760405162461bcd60e51b8152600401610a3590614f24565b610103548154106135bf5760405162461bcd60e51b8152602060048201526016602482015275125b9d985b1a59081d1c985b9cd858dd1a5bdb881a5960521b6044820152606401610a35565b60006008820154600160d01b900460ff1660048111156135e1576135e1614633565b1461363c5760405162461bcd60e51b815260206004820152602560248201527f546865207472616e73616374696f6e2073686f756c646e2774206265206469736044820152641c1d5d195960da1b6064820152608401610a35565b81816004015410156136855760405162461bcd60e51b8152602060048201526012602482015271496e73756666696369656e742066756e647360701b6044820152606401610a35565b612710821015806136a55750612710821080156136a55750806004015482145b6116285760405162461bcd60e51b815260206004820152600e60248201526d416d6f756e7420746f6f206c6f7760901b6044820152606401610a35565b6136ec8282613dfb565b600082815260fc602052604090206002810154600382015461371b916001600160a01b03908116911684613aff565b611f5983600084614164565b61372f614286565b6066805460ff191690557f5db9ee0a495bf2e6ff9c91a7834c1ba4fdd244a5e8aa4e537bd38aeae4b073aa613762612d3b565b6040516001600160a01b03909116815260200160405180910390a1565b600082815260fc60205260409081902060088101805460ff60d01b1916600360d01b1790819055915163c13517e160e01b81529091600160301b90046001600160a01b031690819063c13517e19085906137e390600290600d88019060040161541e565b60206040518083038185885af1158015613801573d6000803e3d6000fd5b50505050506040513d601f19601f820116820180604052508101906138269190614b7c565b600983018181556000918252610102602090815260409283902087905590548251878152918201879052916001600160a01b038416917f74baab670a4015ab2f1b467c5252a96141a2573f2908e58a92081e80d3cfde3d910160405180910390a38282600a015411156139325760008383600a01546138a5919061516c565b600a840185905560018401546040519192506001600160a01b0316908290600081818185875af1925050503d80600081146138fc576040519150601f19603f3d011682016040523d82523d6000602084013e613901565b606091505b505050846000805160206154e28339815191526001600034604051613928939291906152d1565b60405180910390a2505b8282600b01541115612e605760008383600b0154613950919061516c565b600b840185905560028401546040519192506001600160a01b0316908290600081818185875af1925050503d80600081146139a7576040519150601f19603f3d011682016040523d82523d6000602084013e6139ac565b606091505b505050846000805160206154e283398151915260018034604051612f72939291906152d1565b603380546001600160a01b038381166001600160a01b0319831681179093556040519116919082907f8be0079c531659141344cd1fd0a4f28419497f9722a3daafe3b4186f6b6457e090600090a35050565b613a2c612d4a565b6066805460ff191660011790557f62e78cea01bee320cd4e420270b5ea74000d11b0c9f74754ebdbfc544b05a258613762612d3b565b600082815260fc6020526040812060118101549091908103613a85576000613aa3565b60118201546010830154613a999085615357565b613aa3919061536e565b6008830154909150600090613acf90859061ffff62010000820481169164010000000090041685612d90565b60018401546003850154919250613af3916001600160a01b03918216911683613aff565b61162885600186614164565b6001600160a01b038216600003613b66576040516001600160a01b038416908290600081818185875af1925050503d8060008114613b59576040519150601f19603f3d011682016040523d82523d6000602084013e613b5e565b606091505b505050505050565b60405163a9059cbb60e01b81526001600160a01b0384811660048301526024820183905283169063a9059cbb906044016020604051808303816000875af1158015613bb5573d6000803e3d6000fd5b505050506040513d601f19601f82011682018060405250810190612e609190615105565b600054610100900460ff16613c005760405162461bcd60e51b8152600401610a359061543a565b611a366142cf565b600054610100900460ff16611a365760405162461bcd60e51b8152600401610a359061543a565b600060143610801590613c5157503360009081526065602052604090205460ff165b15613c63575060131936013560601c90565b503390565b6000613cbd826040518060400160405280602081526020017f5361666545524332303a206c6f772d6c6576656c2063616c6c206661696c6564815250856001600160a01b03166143069092919063ffffffff16565b805190915015611f595780806020019051810190613cdb9190615105565b611f595760405162461bcd60e51b815260206004820152602a60248201527f5361666545524332303a204552433230206f7065726174696f6e20646964206e6044820152691bdd081cdd58d8d9595960b21b6064820152608401610a35565b6001600160a01b0381163b613da75760405162461bcd60e51b815260206004820152602d60248201527f455243313936373a206e657720696d706c656d656e746174696f6e206973206e60448201526c1bdd08184818dbdb9d1c9858dd609a1b6064820152608401610a35565b6000805160206154c283398151915280546001600160a01b0319166001600160a01b0392909216919091179055565b613ddf8361431f565b600082511180613dec5750805b15611f5957612e60838361435f565b600082815260fc602052604080822060fe5460068201546007830154935163353bb87f60e21b81526004810191909152602481019390935290929182916001600160a01b03169063d4eee1fc90604401600060405180830381865afa158015613e68573d6000803e3d6000fd5b505050506040513d6000823e601f3d908101601f19168201604052613e909190810190614cdf565b60a0820151608082015160088701549395509193509160009061271090613ebc90899061ffff16615357565b613ec6919061536e565b600887015490915060009061271090613eea908a9062010000900461ffff16615357565b613ef4919061536e565b600888015490915060009061271090613f1a908b90640100000000900461ffff16615357565b613f24919061536e565b60038901546001600160a01b031660009081527fc34a738ec333e394a3927794cadc6dd0eb7d9eed0999d1e55021ea223ac362cc6020526040812080549293508592909190613f7490849061517f565b9091555050600085815260fd6020908152604080832060038c01546001600160a01b0316845290915281208054849290613faf90849061517f565b9091555050600084815260fd6020908152604080832060038c01546001600160a01b0316845290915281208054839290613fea90849061517f565b9091555050600f880154158015906140055750601088015415155b156140aa576000886011015489601001548b6140219190615357565b61402b919061536e565b600f8a01805460009081526101046020908152604080832060038f0180546001600160a01b039081168652918452938290208690559254935460068f015482519081529283018690529495509290911692917f7be8d1d5def43ba21be043f0d166965a1c479d40c0fac41f9a9fe18f1a9a2863910160405180910390a3505b6003880154600689015460408051888152602081019290925281018490526001600160a01b03909116907f17c48ab8e1617182f35ae77fd7da7f4e15dedf7018aa371a4481c20c790b65469060600160405180910390a26003880154600689015460408051878152602081019290925281018490526001600160a01b03909116907f3476ed3eea2cdac584273bc8830824c8ca42ca2a99e9f144a87a1cdbbf9dd15a9060600160405180910390a250505050505050505050565b600083815260fc602052604090819020805460038201546006830154935192937f2ab2a30b19f7bc6e386d4ee60aa21ed23c127ce9fe26903da97edd54bad0375a936141c1939288926001600160a01b0390911691889190615485565b60405180910390a18060040154600003612e605760fe5460068201546005830154604051635ab9ae0f60e11b8152600481019290925260248201526001600160a01b039091169063b5735c1e90604401600060405180830381600087803b15801561422b57600080fd5b505af115801561423f573d6000803e3d6000fd5b505050507f6bef1b5e95b741d6e665eb9b5c2d3e1203c46a771451055a9d41e0b8ff4510b7816006015460405161427891815260200190565b60405180910390a150505050565b60665460ff16611a365760405162461bcd60e51b815260206004820152601460248201527314185d5cd8589b194e881b9bdd081c185d5cd95960621b6044820152606401610a35565b600054610100900460ff166142f65760405162461bcd60e51b8152600401610a359061543a565b611a36614301612d3b565b6139d2565b60606143158484600085614455565b90505b9392505050565b61432881613d3a565b6040516001600160a01b038216907fbc7cd75a20ee27fd9adebab32041f755214dbc6bffa90cc0225b39da2e5c2d3b90600090a250565b60606001600160a01b0383163b6143c75760405162461bcd60e51b815260206004820152602660248201527f416464726573733a2064656c65676174652063616c6c20746f206e6f6e2d636f6044820152651b9d1c9858dd60d21b6064820152608401610a35565b600080846001600160a01b0316846040516143e29190614f4b565b600060405180830381855af49150503d806000811461441d576040519150601f19603f3d011682016040523d82523d6000602084013e614422565b606091505b509150915061444a828260405180606001604052806027815260200161550260279139614530565b925050505b92915050565b6060824710156144b65760405162461bcd60e51b815260206004820152602660248201527f416464726573733a20696e73756666696369656e742062616c616e636520666f6044820152651c8818d85b1b60d21b6064820152608401610a35565b600080866001600160a01b031685876040516144d29190614f4b565b60006040518083038185875af1925050503d806000811461450f576040519150601f19603f3d011682016040523d82523d6000602084013e614514565b606091505b509150915061452587838387614549565b979650505050505050565b6060831561453f575081614318565b61431883836145be565b606083156145b85782516000036145b1576001600160a01b0385163b6145b15760405162461bcd60e51b815260206004820152601d60248201527f416464726573733a2063616c6c20746f206e6f6e2d636f6e74726163740000006044820152606401610a35565b5081611455565b61145583835b8151156145ce5781518083602001fd5b8060405162461bcd60e51b8152600401610a359190615344565b6001600160a01b038116811461170b57600080fd5b60006020828403121561460f57600080fd5b8135614318816145e8565b60006020828403121561462c57600080fd5b5035919050565b634e487b7160e01b600052602160045260246000fd5b6005811061465957614659614633565b9052565b60005b83811015614678578181015183820152602001614660565b50506000910152565b6000815180845261469981602086016020860161465d565b601f01601f19169290920160200192915050565b6020815281516020820152600060208301516146d460408401826001600160a01b03169052565b5060408301516001600160a01b03811660608401525060608301516001600160a01b038116608084015250608083015160a083015260a083015160c083015260c083015160e083015260e08301516101008181850152808501519150506101206147438185018361ffff169052565b840151905061014061475a8482018361ffff169052565b84015190506101606147718482018361ffff169052565b840151905061018061478d848201836001600160a01b03169052565b84015190506101a06147a184820183614649565b8401516101c0848101919091528401516101e08085019190915284015161020080850191909152840151610220808501919091528401516102c0610240808601829052919250906147f66102e0860184614681565b9086015161026086810191909152860151610280808701919091528601516102a080870191909152909501519301929092525090919050565b634e487b7160e01b600052604160045260246000fd5b604051610100810167ffffffffffffffff811182821017156148695761486961482f565b60405290565b604051610160810167ffffffffffffffff811182821017156148695761486961482f565b604051601f8201601f1916810167ffffffffffffffff811182821017156148bc576148bc61482f565b604052919050565b600067ffffffffffffffff8211156148de576148de61482f565b50601f01601f191660200190565b60006148ff6148fa846148c4565b614893565b905082815283838301111561491357600080fd5b828260208301376000602084830101529392505050565b600082601f83011261493b57600080fd5b614318838335602085016148ec565b6000806000806080858703121561496057600080fd5b8435935060208501359250604085013567ffffffffffffffff8082111561498657600080fd5b6149928883890161492a565b935060608701359150808211156149a857600080fd5b506149b58782880161492a565b91505092959194509250565b600080604083850312156149d457600080fd5b50508035926020909101359150565b6000806000606084860312156149f857600080fd5b505081359360208301359350604090920135919050565b60008060408385031215614a2257600080fd5b8235614a2d816145e8565b9150602083013567ffffffffffffffff811115614a4957600080fd5b8301601f81018513614a5a57600080fd5b614a69858235602084016148ec565b9150509250929050565b600080600060608486031215614a8857600080fd5b8335925060208401359150604084013567ffffffffffffffff811115614aad57600080fd5b614ab98682870161492a565b9150509250925092565b60008060408385031215614ad657600080fd5b823591506020830135614ae8816145e8565b809150509250929050565b61ffff8116811461170b57600080fd5b600060208284031215614b1557600080fd5b813561431881614af3565b60008060008060808587031215614b3657600080fd5b8435614b41816145e8565b93506020850135614b51816145e8565b92506040850135614b61816145e8565b91506060850135614b71816145e8565b939692955090935050565b600060208284031215614b8e57600080fd5b5051919050565b600181811c90821680614ba957607f821691505b602082108103614bc957634e487b7160e01b600052602260045260246000fd5b50919050565b805160058110614bde57600080fd5b919050565b600082601f830112614bf457600080fd5b8151614c026148fa826148c4565b818152846020838601011115614c1757600080fd5b61145582602083016020870161465d565b8051614bde816145e8565b805160028110614bde57600080fd5b60006101008284031215614c5557600080fd5b614c5d614845565b9050614c6882614c33565b815260208201516020820152614c8060408301614c28565b6040820152606082015160608201526080820151608082015260a082015167ffffffffffffffff811115614cb357600080fd5b614cbf84828501614be3565b60a08301525060c082015160c082015260e082015160e082015292915050565b60008060408385031215614cf257600080fd5b825167ffffffffffffffff80821115614d0a57600080fd5b908401906101008287031215614d1f57600080fd5b614d27614845565b614d3083614bcf565b81526020830151602082015260408301516040820152606083015182811115614d5857600080fd5b614d6488828601614be3565b6060830152506080830151608082015260a083015160a0820152614d8a60c08401614c28565b60c082015260e083015160e0820152809450506020850151915080821115614db157600080fd5b50614a6985828601614c42565b60008060408385031215614dd157600080fd5b8251614ddc816145e8565b6020840151909250614ae8816145e8565b8051614bde81614af3565b600060208284031215614e0a57600080fd5b815167ffffffffffffffff80821115614e2257600080fd5b908301906101608286031215614e3757600080fd5b614e3f61486f565b82518152602083015182811115614e5557600080fd5b614e6187828601614be3565b602083015250604083015182811115614e7957600080fd5b614e8587828601614be3565b604083015250614e9760608401614ded565b6060820152614ea860808401614ded565b608082015260a083015160a082015260c083015160c0820152614ecd60e08401614c28565b60e08201526101008084015183811115614ee657600080fd5b614ef288828701614be3565b828401525050610120915081830151828201526101409150614f15828401614c28565b91810191909152949350505050565b6020808252600d908201526c1058d8d95cdcc819195b9a5959609a1b604082015260600190565b60008251614f5d81846020870161465d565b9190910192915050565b601f821115611f5957600081815260208120601f850160051c81016020861015614f8e5750805b601f850160051c820191505b81811015613b5e57828155600101614f9a565b815167ffffffffffffffff811115614fc757614fc761482f565b614fdb81614fd58454614b95565b84614f67565b602080601f8311600181146150105760008415614ff85750858301515b600019600386901b1c1916600185901b178555613b5e565b600085815260208120601f198616915b8281101561503f57888601518255948401946001909101908401615020565b508582101561505d5787850151600019600388901b60f8161c191681555b5050505050600190811b01905550565b6020808252602c908201527f46756e6374696f6e206d7573742062652063616c6c6564207468726f7567682060408201526b19195b1959d85d1958d85b1b60a21b606082015260800190565b6020808252602c908201527f46756e6374696f6e206d7573742062652063616c6c6564207468726f7567682060408201526b6163746976652070726f787960a01b606082015260800190565b60006020828403121561511757600080fd5b8151801515811461431857600080fd5b6020808252601590820152744e6f74206f776e6572206f722064656c656761746560581b604082015260600190565b634e487b7160e01b600052601160045260246000fd5b8181038181111561444f5761444f615156565b8082018082111561444f5761444f615156565b602080825260129082015271105c989a5d1c985d1bdc881b9bdd081cd95d60721b604082015260600190565b6020808252604d908201527f446973707574652068617320616c7265616479206265656e206372656174656460408201527f206f72206265636175736520746865207472616e73616374696f6e206861732060608201526c1899595b88195e1958dd5d1959609a1b608082015260a00190565b6000815461523e81614b95565b80855260206001838116801561525b5760018114615275576152a3565b60ff1985168884015283151560051b8801830195506152a3565b866000528260002060005b8581101561529b5781548a8201860152908301908401615280565b890184019650505b505050505092915050565b6020815260006143186020830184615231565b6002811061170b5761170b614633565b606081016152de856152c1565b8482526152ea846152c1565b602082019390935260400152919050565b60208101615308836152c1565b91905290565b8281526040602082015260006143156040830184615231565b60006020828403121561533957600080fd5b8151614318816145e8565b6020815260006143186020830184614681565b808202811582820484141761444f5761444f615156565b60008261538b57634e487b7160e01b600052601260045260246000fd5b500490565b8d8152602081018d9052604081018c90526001600160a01b038b81166060830152608082018b905260a082018a905260c0820189905261ffff88811660e08401528781166101008401528616610120830152841661014082015260006101a08061016084015261540281840186615231565b915050826101808301529e9d5050505050505050505050505050565b60ff831681526040602082015260006143156040830184615231565b6020808252602b908201527f496e697469616c697a61626c653a20636f6e7472616374206973206e6f74206960408201526a6e697469616c697a696e6760a81b606082015260800190565b85815260a08101615495866152c1565b60208201959095526001600160a01b03939093166040840152606083019190915260809091015291905056fe360894a13ba1a3210667c828492db98dca3e2076cc3735a920a3ca505d382bbc73e533bc8a993eccbc1023beebad0020f6b6c3639f83062f00fc194b4d1172ba416464726573733a206c6f772d6c6576656c2064656c65676174652063616c6c206661696c6564a2646970667358221220eba211d25d216f1e760dbe01ed4b8ecb7475053056a22e7db14686bdc76fd7b164736f6c63430008110033",
  "linkReferences": {},
  "deployedLinkReferences": {}
}