{
  "_format": "hh-sol-artifact-1",
  "contractName": "TalentLayerReview",
  "sourceName": "contracts/TalentLayerReview.sol",
  "abi": [
    {
      "inputs": [],
      "stateMutability": "nonpayable",
      "type": "constructor"
    },
    {
      "inputs": [],
      "name": "ReviewAlreadyMinted",
      "type": "error"
    },
    {
      "anonymous": false,
      "inputs": [
        {
          "indexed": false,
          "internalType": "address",
          "name": "previousAdmin",
          "type": "address"
        },
        {
          "indexed": false,
          "internalType": "address",
          "name": "newAdmin",
          "type": "address"
        }
      ],
      "name": "AdminChanged",
      "type": "event"
    },
    {
      "anonymous": false,
      "inputs": [
        {
          "indexed": true,
          "internalType": "address",
          "name": "owner",
          "type": "address"
        },
        {
          "indexed": true,
          "internalType": "address",
          "name": "approved",
          "type": "address"
        },
        {
          "indexed": true,
          "internalType": "uint256",
          "name": "tokenId",
          "type": "uint256"
        }
      ],
      "name": "Approval",
      "type": "event"
    },
    {
      "anonymous": false,
      "inputs": [
        {
          "indexed": true,
          "internalType": "address",
          "name": "owner",
          "type": "address"
        },
        {
          "indexed": true,
          "internalType": "address",
          "name": "operator",
          "type": "address"
        },
        {
          "indexed": false,
          "internalType": "bool",
          "name": "approved",
          "type": "bool"
        }
      ],
      "name": "ApprovalForAll",
      "type": "event"
    },
    {
      "anonymous": false,
      "inputs": [
        {
          "indexed": true,
          "internalType": "address",
          "name": "beacon",
          "type": "address"
        }
      ],
      "name": "BeaconUpgraded",
      "type": "event"
    },
    {
      "anonymous": false,
      "inputs": [
        {
          "indexed": false,
          "internalType": "uint8",
          "name": "version",
          "type": "uint8"
        }
      ],
      "name": "Initialized",
      "type": "event"
    },
    {
      "anonymous": false,
      "inputs": [
        {
          "indexed": true,
          "internalType": "uint256",
          "name": "_serviceId",
          "type": "uint256"
        },
        {
          "indexed": true,
          "internalType": "uint256",
          "name": "_toId",
          "type": "uint256"
        },
        {
          "indexed": true,
          "internalType": "uint256",
          "name": "_tokenId",
          "type": "uint256"
        },
        {
          "indexed": false,
          "internalType": "uint256",
          "name": "_rating",
          "type": "uint256"
        },
        {
          "indexed": false,
          "internalType": "string",
          "name": "_reviewUri",
          "type": "string"
        },
        {
          "indexed": false,
          "internalType": "uint256",
          "name": "_platformId",
          "type": "uint256"
        }
      ],
      "name": "Mint",
      "type": "event"
    },
    {
      "anonymous": false,
      "inputs": [
        {
          "indexed": true,
          "internalType": "address",
          "name": "previousOwner",
          "type": "address"
        },
        {
          "indexed": true,
          "internalType": "address",
          "name": "newOwner",
          "type": "address"
        }
      ],
      "name": "OwnershipTransferred",
      "type": "event"
    },
    {
      "anonymous": false,
      "inputs": [
        {
          "indexed": true,
          "internalType": "address",
          "name": "from",
          "type": "address"
        },
        {
          "indexed": true,
          "internalType": "address",
          "name": "to",
          "type": "address"
        },
        {
          "indexed": true,
          "internalType": "uint256",
          "name": "tokenId",
          "type": "uint256"
        }
      ],
      "name": "Transfer",
      "type": "event"
    },
    {
      "anonymous": false,
      "inputs": [
        {
          "indexed": false,
          "internalType": "address",
          "name": "forwarder",
          "type": "address"
        }
      ],
      "name": "TrustedForwarderAdded",
      "type": "event"
    },
    {
      "anonymous": false,
      "inputs": [
        {
          "indexed": false,
          "internalType": "address",
          "name": "forwarder",
          "type": "address"
        }
      ],
      "name": "TrustedForwarderRemoved",
      "type": "event"
    },
    {
      "anonymous": false,
      "inputs": [
        {
          "indexed": true,
          "internalType": "address",
          "name": "implementation",
          "type": "address"
        }
      ],
      "name": "Upgraded",
      "type": "event"
    },
    {
      "inputs": [],
      "name": "_totalSupply",
      "outputs": [
        {
          "internalType": "uint256",
          "name": "",
          "type": "uint256"
        }
      ],
      "stateMutability": "view",
      "type": "function"
    },
    {
      "inputs": [
        {
          "internalType": "uint256",
          "name": "_senderId",
          "type": "uint256"
        },
        {
          "internalType": "uint256",
          "name": "_serviceId",
          "type": "uint256"
        },
        {
          "internalType": "string",
          "name": "_reviewUri",
          "type": "string"
        },
        {
          "internalType": "uint256",
          "name": "_rating",
          "type": "uint256"
        },
        {
          "internalType": "uint256",
          "name": "_platformId",
          "type": "uint256"
        }
      ],
      "name": "addReview",
      "outputs": [],
      "stateMutability": "nonpayable",
      "type": "function"
    },
    {
      "inputs": [
        {
          "internalType": "address",
          "name": "_forwarder",
          "type": "address"
        }
      ],
      "name": "addTrustedForwarder",
      "outputs": [],
      "stateMutability": "nonpayable",
      "type": "function"
    },
    {
      "inputs": [
        {
          "internalType": "address",
          "name": "to",
          "type": "address"
        },
        {
          "internalType": "uint256",
          "name": "tokenId",
          "type": "uint256"
        }
      ],
      "name": "approve",
      "outputs": [],
      "stateMutability": "nonpayable",
      "type": "function"
    },
    {
      "inputs": [
        {
          "internalType": "address",
          "name": "owner",
          "type": "address"
        }
      ],
      "name": "balanceOf",
      "outputs": [
        {
          "internalType": "uint256",
          "name": "",
          "type": "uint256"
        }
      ],
      "stateMutability": "view",
      "type": "function"
    },
    {
      "inputs": [
        {
          "internalType": "uint256",
          "name": "_tokenId",
          "type": "uint256"
        }
      ],
      "name": "getApproved",
      "outputs": [
        {
          "internalType": "address",
          "name": "",
          "type": "address"
        }
      ],
      "stateMutability": "view",
      "type": "function"
    },
    {
      "inputs": [
        {
          "internalType": "uint256",
          "name": "_reviewId",
          "type": "uint256"
        }
      ],
      "name": "getReview",
      "outputs": [
        {
          "components": [
            {
              "internalType": "uint256",
              "name": "id",
              "type": "uint256"
            },
            {
              "internalType": "uint256",
              "name": "owner",
              "type": "uint256"
            },
            {
              "internalType": "string",
              "name": "dataUri",
              "type": "string"
            },
            {
              "internalType": "uint256",
              "name": "platformId",
              "type": "uint256"
            }
          ],
          "internalType": "struct TalentLayerReview.Review",
          "name": "",
          "type": "tuple"
        }
      ],
      "stateMutability": "view",
      "type": "function"
    },
    {
      "inputs": [
        {
          "internalType": "string",
          "name": "name_",
          "type": "string"
        },
        {
          "internalType": "string",
          "name": "symbol_",
          "type": "string"
        },
        {
          "internalType": "address",
          "name": "_talentLayerIdAddress",
          "type": "address"
        },
        {
          "internalType": "address",
          "name": "_serviceRegistryAddress",
          "type": "address"
        },
        {
          "internalType": "address",
          "name": "_talentLayerPlatformIdAddress",
          "type": "address"
        }
      ],
      "name": "initialize",
      "outputs": [],
      "stateMutability": "nonpayable",
      "type": "function"
    },
    {
      "inputs": [
        {
          "internalType": "address",
          "name": "owner",
          "type": "address"
        },
        {
          "internalType": "address",
          "name": "operator",
          "type": "address"
        }
      ],
      "name": "isApprovedForAll",
      "outputs": [
        {
          "internalType": "bool",
          "name": "",
          "type": "bool"
        }
      ],
      "stateMutability": "view",
      "type": "function"
    },
    {
      "inputs": [
        {
          "internalType": "address",
          "name": "forwarder",
          "type": "address"
        }
      ],
      "name": "isTrustedForwarder",
      "outputs": [
        {
          "internalType": "bool",
          "name": "",
          "type": "bool"
        }
      ],
      "stateMutability": "view",
      "type": "function"
    },
    {
      "inputs": [],
      "name": "name",
      "outputs": [
        {
          "internalType": "string",
          "name": "",
          "type": "string"
        }
      ],
      "stateMutability": "view",
      "type": "function"
    },
    {
      "inputs": [
        {
          "internalType": "uint256",
          "name": "",
          "type": "uint256"
        }
      ],
      "name": "nftMintedByServiceAndBuyerId",
      "outputs": [
        {
          "internalType": "uint256",
          "name": "",
          "type": "uint256"
        }
      ],
      "stateMutability": "view",
      "type": "function"
    },
    {
      "inputs": [
        {
          "internalType": "uint256",
          "name": "",
          "type": "uint256"
        }
      ],
      "name": "nftMintedByServiceAndSellerId",
      "outputs": [
        {
          "internalType": "uint256",
          "name": "",
          "type": "uint256"
        }
      ],
      "stateMutability": "view",
      "type": "function"
    },
    {
      "inputs": [],
      "name": "owner",
      "outputs": [
        {
          "internalType": "address",
          "name": "",
          "type": "address"
        }
      ],
      "stateMutability": "view",
      "type": "function"
    },
    {
      "inputs": [
        {
          "internalType": "uint256",
          "name": "tokenId",
          "type": "uint256"
        }
      ],
      "name": "ownerOf",
      "outputs": [
        {
          "internalType": "address",
          "name": "",
          "type": "address"
        }
      ],
      "stateMutability": "view",
      "type": "function"
    },
    {
      "inputs": [],
      "name": "proxiableUUID",
      "outputs": [
        {
          "internalType": "bytes32",
          "name": "",
          "type": "bytes32"
        }
      ],
      "stateMutability": "view",
      "type": "function"
    },
    {
      "inputs": [
        {
          "internalType": "address",
          "name": "_forwarder",
          "type": "address"
        }
      ],
      "name": "removeTrustedForwarder",
      "outputs": [],
      "stateMutability": "nonpayable",
      "type": "function"
    },
    {
      "inputs": [],
      "name": "renounceOwnership",
      "outputs": [],
      "stateMutability": "nonpayable",
      "type": "function"
    },
    {
      "inputs": [
        {
          "internalType": "uint256",
          "name": "",
          "type": "uint256"
        }
      ],
      "name": "reviews",
      "outputs": [
        {
          "internalType": "uint256",
          "name": "id",
          "type": "uint256"
        },
        {
          "internalType": "uint256",
          "name": "owner",
          "type": "uint256"
        },
        {
          "internalType": "string",
          "name": "dataUri",
          "type": "string"
        },
        {
          "internalType": "uint256",
          "name": "platformId",
          "type": "uint256"
        }
      ],
      "stateMutability": "view",
      "type": "function"
    },
    {
      "inputs": [
        {
          "internalType": "address",
          "name": "from",
          "type": "address"
        },
        {
          "internalType": "address",
          "name": "to",
          "type": "address"
        },
        {
          "internalType": "uint256",
          "name": "tokenId",
          "type": "uint256"
        }
      ],
      "name": "safeTransferFrom",
      "outputs": [],
      "stateMutability": "nonpayable",
      "type": "function"
    },
    {
      "inputs": [
        {
          "internalType": "address",
          "name": "from",
          "type": "address"
        },
        {
          "internalType": "address",
          "name": "to",
          "type": "address"
        },
        {
          "internalType": "uint256",
          "name": "tokenId",
          "type": "uint256"
        },
        {
          "internalType": "bytes",
          "name": "data",
          "type": "bytes"
        }
      ],
      "name": "safeTransferFrom",
      "outputs": [],
      "stateMutability": "nonpayable",
      "type": "function"
    },
    {
      "inputs": [
        {
          "internalType": "address",
          "name": "operator",
          "type": "address"
        },
        {
          "internalType": "bool",
          "name": "approved",
          "type": "bool"
        }
      ],
      "name": "setApprovalForAll",
      "outputs": [],
      "stateMutability": "nonpayable",
      "type": "function"
    },
    {
      "inputs": [
        {
          "internalType": "bytes4",
          "name": "interfaceId",
          "type": "bytes4"
        }
      ],
      "name": "supportsInterface",
      "outputs": [
        {
          "internalType": "bool",
          "name": "",
          "type": "bool"
        }
      ],
      "stateMutability": "view",
      "type": "function"
    },
    {
      "inputs": [],
      "name": "symbol",
      "outputs": [
        {
          "internalType": "string",
          "name": "",
          "type": "string"
        }
      ],
      "stateMutability": "view",
      "type": "function"
    },
    {
      "inputs": [],
      "name": "talentLayerPlatformIdContract",
      "outputs": [
        {
          "internalType": "contract ITalentLayerPlatformID",
          "name": "",
          "type": "address"
        }
      ],
      "stateMutability": "view",
      "type": "function"
    },
    {
      "inputs": [
        {
          "internalType": "uint256",
          "name": "tokenId",
          "type": "uint256"
        }
      ],
      "name": "tokenURI",
      "outputs": [
        {
          "internalType": "string",
          "name": "",
          "type": "string"
        }
      ],
      "stateMutability": "view",
      "type": "function"
    },
    {
      "inputs": [
        {
          "internalType": "address",
          "name": "from",
          "type": "address"
        },
        {
          "internalType": "address",
          "name": "to",
          "type": "address"
        },
        {
          "internalType": "uint256",
          "name": "tokenId",
          "type": "uint256"
        }
      ],
      "name": "transferFrom",
      "outputs": [],
      "stateMutability": "nonpayable",
      "type": "function"
    },
    {
      "inputs": [
        {
          "internalType": "address",
          "name": "newOwner",
          "type": "address"
        }
      ],
      "name": "transferOwnership",
      "outputs": [],
      "stateMutability": "nonpayable",
      "type": "function"
    },
    {
      "inputs": [
        {
          "internalType": "address",
          "name": "newImplementation",
          "type": "address"
        }
      ],
      "name": "upgradeTo",
      "outputs": [],
      "stateMutability": "nonpayable",
      "type": "function"
    },
    {
      "inputs": [
        {
          "internalType": "address",
          "name": "newImplementation",
          "type": "address"
        },
        {
          "internalType": "bytes",
          "name": "data",
          "type": "bytes"
        }
      ],
      "name": "upgradeToAndCall",
      "outputs": [],
      "stateMutability": "payable",
      "type": "function"
    }
  ],
  "bytecode": "0x60a0604052306080523480156200001557600080fd5b506200002062000026565b620000e8565b600054610100900460ff1615620000935760405162461bcd60e51b815260206004820152602760248201527f496e697469616c697a61626c653a20636f6e747261637420697320696e697469604482015266616c697a696e6760c81b606482015260840160405180910390fd5b60005460ff9081161015620000e6576000805460ff191660ff9081179091556040519081527f7f26b83ff96e1f2b6a682f133852f6798a09c465da95921460cefb38474024989060200160405180910390a15b565b608051612c2862000120600039600081816109140152818161095401528181610a6801528181610aa80152610b3b0152612c286000f3fe6080604052600436106101cd5760003560e01c806359777524116100f7578063a22cb46511610095578063e087f7d211610064578063e087f7d21461054c578063e83ddcea1461057a578063e985e9c5146105aa578063f2fde38b146105ca57600080fd5b8063a22cb465146104cc578063b88d4fde146104ec578063c87b56dd1461050c578063db0ed6a01461052c57600080fd5b8063715018a6116100d1578063715018a6146104575780638da5cb5b1461046c57806395d89b411461048a578063990581b61461049f57600080fd5b806359777524146103f75780636352211e1461041757806370a082311461043757600080fd5b80633659cfe61161016f57806342842e0e1161013e57806342842e0e146103765780634f1ef2861461039657806352d1902d146103a9578063572b6c05146103be57600080fd5b80633659cfe6146102e45780633751d89c146103045780633c7b2760146103245780633eaaf86b1461036057600080fd5b8063095ea7b3116101ab578063095ea7b3146102615780631499f9e61461028357806323b872dd146102a457806326d00668146102c457600080fd5b806301ffc9a7146101d257806306fdde0314610207578063081812fc14610229575b600080fd5b3480156101de57600080fd5b506101f26101ed366004612205565b6105ea565b60405190151581526020015b60405180910390f35b34801561021357600080fd5b5061021c61063c565b6040516101fe919061227a565b34801561023557600080fd5b5061024961024436600461228d565b6106ce565b6040516001600160a01b0390911681526020016101fe565b34801561026d57600080fd5b5061028161027c3660046122bb565b61072b565b005b34801561028f57600080fd5b5061010754610249906001600160a01b031681565b3480156102b057600080fd5b506102816102bf3660046122e7565b610874565b3480156102d057600080fd5b506102816102df366004612328565b6108a6565b3480156102f057600080fd5b506102816102ff366004612328565b610909565b34801561031057600080fd5b5061028161031f366004612328565b6109e9565b34801561033057600080fd5b5061035261033f36600461228d565b6101026020526000908152604090205481565b6040519081526020016101fe565b34801561036c57600080fd5b5061035260fe5481565b34801561038257600080fd5b506102816103913660046122e7565b610a42565b6102816103a4366004612434565b610a5d565b3480156103b557600080fd5b50610352610b2e565b3480156103ca57600080fd5b506101f26103d9366004612328565b6001600160a01b031660009081526065602052604090205460ff1690565b34801561040357600080fd5b50610281610412366004612484565b610be1565b34801561042357600080fd5b5061024961043236600461228d565b610f2e565b34801561044357600080fd5b50610352610452366004612328565b610fe7565b34801561046357600080fd5b506102816110f3565b34801561047857600080fd5b506033546001600160a01b0316610249565b34801561049657600080fd5b5061021c611107565b3480156104ab57600080fd5b506104bf6104ba36600461228d565b611116565b6040516101fe9190612516565b3480156104d857600080fd5b506102816104e736600461256a565b611216565b3480156104f857600080fd5b506102816105073660046125a3565b611228565b34801561051857600080fd5b5061021c61052736600461228d565b611261565b34801561053857600080fd5b5061028161054736600461260f565b6112e1565b34801561055857600080fd5b5061035261056736600461228d565b6101016020526000908152604090205481565b34801561058657600080fd5b5061059a61059536600461228d565b61146c565b6040516101fe94939291906126ad565b3480156105b657600080fd5b506101f26105c53660046126dd565b61151d565b3480156105d657600080fd5b506102816105e5366004612328565b61154c565b60006001600160e01b031982166380ac58cd60e01b148061061b57506001600160e01b03198216635b5e139f60e01b145b8061063657506301ffc9a760e01b6001600160e01b03198316145b92915050565b606060fc805461064b9061270b565b80601f01602080910402602001604051908101604052809291908181526020018280546106779061270b565b80156106c45780601f10610699576101008083540402835291602001916106c4565b820191906000526020600020905b8154815290600101906020018083116106a757829003601f168201915b5050505050905090565b600081815261010360205260409020546001600160a01b03168161070081600090815260ff6020526040902054151590565b6107255760405162461bcd60e51b815260040161071c90612740565b60405180910390fd5b50919050565b600061073682610f2e565b9050806001600160a01b0316836001600160a01b031614156107af5760405162461bcd60e51b815260206004820152602c60248201527f54616c656e744c617965725265766965773a20617070726f76616c20746f206360448201526b3ab93932b73a1037bbb732b960a11b606482015260840161071c565b60006107b96115c2565b9050816001600160a01b0316816001600160a01b031614806107e057506107e0828261151d565b6108645760405162461bcd60e51b815260206004820152604960248201527f54616c656e744c617965725265766965773a20617070726f76652063616c6c6560448201527f72206973206e6f7420746f6b656e206f776e6572206e6f7220617070726f76656064820152681908199bdc88185b1b60ba1b608482015260a40161071c565b61086e84846115fb565b50505050565b61088561087f6115c2565b8261166a565b6108a15760405162461bcd60e51b815260040161071c90612783565b505050565b6108ae6116c9565b6001600160a01b038116600081815260656020908152604091829020805460ff1916600117905590519182527f3ef8564460ada92419608d823c014975d98f8104d7d1e68c222967ac6814cd9791015b60405180910390a150565b306001600160a01b037f00000000000000000000000000000000000000000000000000000000000000001614156109525760405162461bcd60e51b815260040161071c906127e0565b7f00000000000000000000000000000000000000000000000000000000000000006001600160a01b031661099b600080516020612bac833981519152546001600160a01b031690565b6001600160a01b0316146109c15760405162461bcd60e51b815260040161071c9061282c565b6109ca81611742565b604080516000808252602082019092526109e69183919061174a565b50565b6109f16116c9565b6001600160a01b038116600081815260656020908152604091829020805460ff1916905590519182527fd2d636efcad0cea42e170256f4c5d8b1cd81e47b855557edaf44014e6cc4cee691016108fe565b6108a183838360405180602001604052806000815250611228565b306001600160a01b037f0000000000000000000000000000000000000000000000000000000000000000161415610aa65760405162461bcd60e51b815260040161071c906127e0565b7f00000000000000000000000000000000000000000000000000000000000000006001600160a01b0316610aef600080516020612bac833981519152546001600160a01b031690565b6001600160a01b031614610b155760405162461bcd60e51b815260040161071c9061282c565b610b1e82611742565b610b2a8282600161174a565b5050565b6000306001600160a01b037f00000000000000000000000000000000000000000000000000000000000000001614610bce5760405162461bcd60e51b815260206004820152603860248201527f555550535570677261646561626c653a206d757374206e6f742062652063616c60448201527f6c6564207468726f7567682064656c656761746563616c6c0000000000000000606482015260840161071c565b50600080516020612bac83398151915290565b6101055486906001600160a01b0316632fa117e582610bfe6115c2565b6040516001600160e01b031960e085901b16815260048101929092526001600160a01b0316602482015260440160206040518083038186803b158015610c4357600080fd5b505afa158015610c57573d6000803e3d6000fd5b505050506040513d601f19601f82011682018060405250810190610c7b9190612878565b610cbf5760405162461bcd60e51b81526020600482015260156024820152744e6f74206f776e6572206f722064656c656761746560581b604482015260640161071c565b6101065460405163ef0e239b60e01b8152600481018890526000916001600160a01b03169063ef0e239b9060240160006040518083038186803b158015610d0557600080fd5b505afa158015610d19573d6000803e3d6000fd5b505050506040513d6000823e601f3d908101601f19168201604052610d4191908101906128ee565b90508060200151881480610d585750806040015188145b610db05760405162461bcd60e51b815260206004820152602360248201527f596f75277265206e6f7420616e206163746f72206f662074686973207365727660448201526269636560e81b606482015260840161071c565b600281516004811115610dc557610dc56129ac565b14610e125760405162461bcd60e51b815260206004820152601f60248201527f5468652073657276696365206973206e6f742066696e69736865642079657400604482015260640161071c565b6101075460405162f577a560e81b8152600481018590526001600160a01b039091169063f577a5009060240160006040518083038186803b158015610e5657600080fd5b505afa158015610e6a573d6000803e3d6000fd5b5050505060008160200151891415610eca575060408082015160008981526101016020529190912054891415610eb357604051633d36d72960e01b815260040160405180910390fd5b600088815261010160205260409020899055610f15565b506020808201516000898152610102909252604090912054891415610f0257604051633d36d72960e01b815260040160405180910390fd5b6000888152610102602052604090208990555b610f238882878a8a896118c4565b505050505050505050565b61010554600082815260ff60205260408082205490516331a9108f60e11b81526004810191909152909182916001600160a01b0390911690636352211e9060240160206040518083038186803b158015610f8757600080fd5b505afa158015610f9b573d6000803e3d6000fd5b505050506040513d601f19601f82011682018060405250810190610fbf91906129c2565b90506001600160a01b0381166106365760405162461bcd60e51b815260040161071c90612740565b60006001600160a01b03821661105a5760405162461bcd60e51b815260206004820152603260248201527f54616c656e744c617965725265766965773a20746f6b656e207a65726f206973604482015271103737ba1030903b30b634b21037bbb732b960711b606482015260840161071c565b6101055460405162438b6360e81b81526001600160a01b0384811660048301526101009260009291169063438b63009060240160206040518083038186803b1580156110a557600080fd5b505afa1580156110b9573d6000803e3d6000fd5b505050506040513d601f19601f820116820180604052508101906110dd91906129df565b8152602001908152602001600020549050919050565b6110fb6116c9565b6111056000611aab565b565b606060fd805461064b9061270b565b6111416040518060800160405280600081526020016000815260200160608152602001600081525090565b60ff600083815260200190815260200160002060405180608001604052908160008201548152602001600182015481526020016002820180546111839061270b565b80601f01602080910402602001604051908101604052809291908181526020018280546111af9061270b565b80156111fc5780601f106111d1576101008083540402835291602001916111fc565b820191906000526020600020905b8154815290600101906020018083116111df57829003601f168201915b505050505081526020016003820154815250509050919050565b610b2a6112216115c2565b8383611afd565b6112396112336115c2565b8361166a565b6112555760405162461bcd60e51b815260040161071c90612783565b61086e84848484611bd9565b606081600061127b60408051602081019091526000815290565b9050600081511161129b57604051806020016040528060008152506112c6565b806112a585611c01565b6040516020016112b69291906129f8565b6040516020818303038152906040525b92505061070081600090815260ff6020526040902054151590565b600054610100900460ff16158080156113015750600054600160ff909116105b8061131b5750303b15801561131b575060005460ff166001145b61137e5760405162461bcd60e51b815260206004820152602e60248201527f496e697469616c697a61626c653a20636f6e747261637420697320616c72656160448201526d191e481a5b9a5d1a585b1a5e995960921b606482015260840161071c565b6000805460ff1916600117905580156113a1576000805461ff0019166101001790555b6113a9611c9e565b6113b1611cc5565b600060fe5585516113c99060fc906020890190612156565b5084516113dd9060fd906020880190612156565b5061010580546001600160a01b038087166001600160a01b03199283161790925561010680548684169083161790556101078054928516929091169190911790558015611464576000805461ff0019169055604051600181527f7f26b83ff96e1f2b6a682f133852f6798a09c465da95921460cefb38474024989060200160405180910390a15b505050505050565b60ff60205260009081526040902080546001820154600283018054929391926114949061270b565b80601f01602080910402602001604051908101604052809291908181526020018280546114c09061270b565b801561150d5780601f106114e25761010080835404028352916020019161150d565b820191906000526020600020905b8154815290600101906020018083116114f057829003601f168201915b5050505050908060030154905084565b6001600160a01b0391821660009081526101046020908152604080832093909416825291909152205460ff1690565b6115546116c9565b6001600160a01b0381166115b95760405162461bcd60e51b815260206004820152602660248201527f4f776e61626c653a206e6577206f776e657220697320746865207a65726f206160448201526564647265737360d01b606482015260840161071c565b6109e681611aab565b6000601436108015906115e457503360009081526065602052604090205460ff165b156115f6575060131936013560601c90565b503390565b60008181526101036020526040902080546001600160a01b0319166001600160a01b038416908117909155819061163182610f2e565b6001600160a01b03167f8c5be1e5ebec7d5bd14f71427d1e84f3dd0314c0f7b2291e5b200ac8c7c3b92560405160405180910390a45050565b60008061167683610f2e565b9050806001600160a01b0316846001600160a01b0316148061169d575061169d818561151d565b806116c15750836001600160a01b03166116b6846106ce565b6001600160a01b0316145b949350505050565b6116d16115c2565b6001600160a01b03166116ec6033546001600160a01b031690565b6001600160a01b0316146111055760405162461bcd60e51b815260206004820181905260248201527f4f776e61626c653a2063616c6c6572206973206e6f7420746865206f776e6572604482015260640161071c565b6109e66116c9565b7f4910fdfa16fed3260ed0e7147f7cc6da11a60208b5b9406d12a635614ffd91435460ff161561177d576108a183611cf4565b826001600160a01b03166352d1902d6040518163ffffffff1660e01b815260040160206040518083038186803b1580156117b657600080fd5b505afa9250505080156117e6575060408051601f3d908101601f191682019092526117e3918101906129df565b60015b6118495760405162461bcd60e51b815260206004820152602e60248201527f45524331393637557067726164653a206e657720696d706c656d656e7461746960448201526d6f6e206973206e6f74205555505360901b606482015260840161071c565b600080516020612bac83398151915281146118b85760405162461bcd60e51b815260206004820152602960248201527f45524331393637557067726164653a20756e737570706f727465642070726f786044820152681a58589b195555525160ba1b606482015260840161071c565b506108a1838383611d90565b846119245760405162461bcd60e51b815260206004820152602a60248201527f54616c656e744c617965725265766965773a206d696e7420746f20696e76616c6044820152696964206164647265737360b01b606482015260840161071c565b60058411158015611933575060015b6119895760405162461bcd60e51b815260206004820152602160248201527f54616c656e744c617965725265766965773a20696e76616c696420726174696e6044820152606760f81b606482015260840161071c565b6000858152610100602052604081208054600192906119a9908490612a27565b92505081905550604051806080016040528060fe54815260200186815260200184848080601f0160208091040260200160405190810160405280939291908181526020018383808284376000920182905250938552505050602091820184905260fe54815260ff8252604090819020835181558383015160018201559083015180519192611a3f92600285019290910190612156565b506060919091015160039091015560fe54611a5b906001612a27565b60fe8190555060fe5485877f1b4914b51c47432f333179cfae2f82cfeac795eb91cfac40a3e82e180748f2f587878787604051611a9b9493929190612a4d565b60405180910390a4505050505050565b603380546001600160a01b038381166001600160a01b0319831681179093556040519116919082907f8be0079c531659141344cd1fd0a4f28419497f9722a3daafe3b4186f6b6457e090600090a35050565b816001600160a01b0316836001600160a01b03161415611b6b5760405162461bcd60e51b8152602060048201526024808201527f54616c656e744c617965725265766965773a20617070726f766520746f206361604482015263363632b960e11b606482015260840161071c565b6001600160a01b0383811660008181526101046020908152604080832094871680845294825291829020805460ff191686151590811790915591519182527f17307eab39ab6107e8899845ad3d59bd9653f200f220920489ca2b5937696c31910160405180910390a3505050565b611be584848484611db5565b61086e5760405162461bcd60e51b815260040161071c90612a8d565b60606000611c0e83611ec9565b600101905060008167ffffffffffffffff811115611c2e57611c2e612345565b6040519080825280601f01601f191660200182016040528015611c58576020820181803683370190505b5090508181016020015b600019016f181899199a1a9b1b9c1cb0b131b232b360811b600a86061a8153600a8504945084611c9157611c96565b611c62565b509392505050565b600054610100900460ff166111055760405162461bcd60e51b815260040161071c90612aea565b600054610100900460ff16611cec5760405162461bcd60e51b815260040161071c90612aea565b611105611fa1565b6001600160a01b0381163b611d615760405162461bcd60e51b815260206004820152602d60248201527f455243313936373a206e657720696d706c656d656e746174696f6e206973206e60448201526c1bdd08184818dbdb9d1c9858dd609a1b606482015260840161071c565b600080516020612bac83398151915280546001600160a01b0319166001600160a01b0392909216919091179055565b611d9983611fd8565b600082511180611da65750805b156108a15761086e8383612018565b60006001600160a01b0384163b15611ebe57836001600160a01b031663150b7a02611dde6115c2565b8786866040518563ffffffff1660e01b8152600401611e009493929190612b35565b602060405180830381600087803b158015611e1a57600080fd5b505af1925050508015611e4a575060408051601f3d908101601f19168201909252611e4791810190612b72565b60015b611ea4573d808015611e78576040519150601f19603f3d011682016040523d82523d6000602084013e611e7d565b606091505b508051611e9c5760405162461bcd60e51b815260040161071c90612a8d565b805181602001fd5b6001600160e01b031916630a85bd0160e11b1490506116c1565b506001949350505050565b60008072184f03e93ff9f4daa797ed6e38ed64bf6a1f0160401b8310611f085772184f03e93ff9f4daa797ed6e38ed64bf6a1f0160401b830492506040015b6d04ee2d6d415b85acef81000000008310611f34576d04ee2d6d415b85acef8100000000830492506020015b662386f26fc100008310611f5257662386f26fc10000830492506010015b6305f5e1008310611f6a576305f5e100830492506008015b6127108310611f7e57612710830492506004015b60648310611f90576064830492506002015b600a83106106365760010192915050565b600054610100900460ff16611fc85760405162461bcd60e51b815260040161071c90612aea565b611105611fd36115c2565b611aab565b611fe181611cf4565b6040516001600160a01b038216907fbc7cd75a20ee27fd9adebab32041f755214dbc6bffa90cc0225b39da2e5c2d3b90600090a250565b60606001600160a01b0383163b6120805760405162461bcd60e51b815260206004820152602660248201527f416464726573733a2064656c65676174652063616c6c20746f206e6f6e2d636f6044820152651b9d1c9858dd60d21b606482015260840161071c565b600080846001600160a01b03168460405161209b9190612b8f565b600060405180830381855af49150503d80600081146120d6576040519150601f19603f3d011682016040523d82523d6000602084013e6120db565b606091505b50915091506121038282604051806060016040528060278152602001612bcc6027913961210c565b95945050505050565b6060831561211b575081612125565b612125838361212c565b9392505050565b81511561213c5781518083602001fd5b8060405162461bcd60e51b815260040161071c919061227a565b8280546121629061270b565b90600052602060002090601f01602090048101928261218457600085556121ca565b82601f1061219d57805160ff19168380011785556121ca565b828001600101855582156121ca579182015b828111156121ca5782518255916020019190600101906121af565b506121d69291506121da565b5090565b5b808211156121d657600081556001016121db565b6001600160e01b0319811681146109e657600080fd5b60006020828403121561221757600080fd5b8135612125816121ef565b60005b8381101561223d578181015183820152602001612225565b8381111561086e5750506000910152565b60008151808452612266816020860160208601612222565b601f01601f19169290920160200192915050565b602081526000612125602083018461224e565b60006020828403121561229f57600080fd5b5035919050565b6001600160a01b03811681146109e657600080fd5b600080604083850312156122ce57600080fd5b82356122d9816122a6565b946020939093013593505050565b6000806000606084860312156122fc57600080fd5b8335612307816122a6565b92506020840135612317816122a6565b929592945050506040919091013590565b60006020828403121561233a57600080fd5b8135612125816122a6565b634e487b7160e01b600052604160045260246000fd5b604051610100810167ffffffffffffffff8111828210171561237f5761237f612345565b60405290565b604051601f8201601f1916810167ffffffffffffffff811182821017156123ae576123ae612345565b604052919050565b600067ffffffffffffffff8211156123d0576123d0612345565b50601f01601f191660200190565b600082601f8301126123ef57600080fd5b81356124026123fd826123b6565b612385565b81815284602083860101111561241757600080fd5b816020850160208301376000918101602001919091529392505050565b6000806040838503121561244757600080fd5b8235612452816122a6565b9150602083013567ffffffffffffffff81111561246e57600080fd5b61247a858286016123de565b9150509250929050565b60008060008060008060a0878903121561249d57600080fd5b8635955060208701359450604087013567ffffffffffffffff808211156124c357600080fd5b818901915089601f8301126124d757600080fd5b8135818111156124e657600080fd5b8a60208285010111156124f857600080fd5b979a9699505060200196606081013595608090910135945092505050565b602081528151602082015260208201516040820152600060408301516080606084015261254660a084018261224e565b9050606084015160808401528091505092915050565b80151581146109e657600080fd5b6000806040838503121561257d57600080fd5b8235612588816122a6565b915060208301356125988161255c565b809150509250929050565b600080600080608085870312156125b957600080fd5b84356125c4816122a6565b935060208501356125d4816122a6565b925060408501359150606085013567ffffffffffffffff8111156125f757600080fd5b612603878288016123de565b91505092959194509250565b600080600080600060a0868803121561262757600080fd5b853567ffffffffffffffff8082111561263f57600080fd5b61264b89838a016123de565b9650602088013591508082111561266157600080fd5b5061266e888289016123de565b945050604086013561267f816122a6565b9250606086013561268f816122a6565b9150608086013561269f816122a6565b809150509295509295909350565b8481528360208201526080604082015260006126cc608083018561224e565b905082606083015295945050505050565b600080604083850312156126f057600080fd5b82356126fb816122a6565b91506020830135612598816122a6565b600181811c9082168061271f57607f821691505b6020821081141561072557634e487b7160e01b600052602260045260246000fd5b60208082526023908201527f54616c656e744c617965725265766965773a20696e76616c696420746f6b656e60408201526208125160ea1b606082015260800190565b60208082526039908201527f54616c656e744c617965725265766965773a2063616c6c6572206973206e6f7460408201527f20746f6b656e206f776e6572206e6f7220617070726f76656400000000000000606082015260800190565b6020808252602c908201527f46756e6374696f6e206d7573742062652063616c6c6564207468726f7567682060408201526b19195b1959d85d1958d85b1b60a21b606082015260800190565b6020808252602c908201527f46756e6374696f6e206d7573742062652063616c6c6564207468726f7567682060408201526b6163746976652070726f787960a01b606082015260800190565b60006020828403121561288a57600080fd5b81516121258161255c565b8051600581106128a457600080fd5b919050565b600082601f8301126128ba57600080fd5b81516128c86123fd826123b6565b8181528460208386010111156128dd57600080fd5b6116c1826020830160208701612222565b60006020828403121561290057600080fd5b815167ffffffffffffffff8082111561291857600080fd5b90830190610100828603121561292d57600080fd5b61293561235b565b61293e83612895565b815260208301516020820152604083015160408201526060830151606082015260808301518281111561297057600080fd5b61297c878286016128a9565b60808301525060a083015160a082015260c083015160c082015260e083015160e082015280935050505092915050565b634e487b7160e01b600052602160045260246000fd5b6000602082840312156129d457600080fd5b8151612125816122a6565b6000602082840312156129f157600080fd5b5051919050565b60008351612a0a818460208801612222565b835190830190612a1e818360208801612222565b01949350505050565b60008219821115612a4857634e487b7160e01b600052601160045260246000fd5b500190565b848152606060208201528260608201528284608083013760006080848301015260006080601f19601f860116830101905082604083015295945050505050565b6020808252603d908201527f54616c656e744c617965725265766965773a207472616e7366657220746f206e60408201527f6f6e20455243373231526563656976657220696d706c656d656e746572000000606082015260800190565b6020808252602b908201527f496e697469616c697a61626c653a20636f6e7472616374206973206e6f74206960408201526a6e697469616c697a696e6760a81b606082015260800190565b6001600160a01b0385811682528416602082015260408101839052608060608201819052600090612b689083018461224e565b9695505050505050565b600060208284031215612b8457600080fd5b8151612125816121ef565b60008251612ba1818460208701612222565b919091019291505056fe360894a13ba1a3210667c828492db98dca3e2076cc3735a920a3ca505d382bbc416464726573733a206c6f772d6c6576656c2064656c65676174652063616c6c206661696c6564a2646970667358221220d449fed73980896711f8af0dc955382d9ce1ecdfefacae8c77ae9235b6d1490c64736f6c63430008090033",
  "linkReferences": {},
  "deployedLinkReferences": {}
}