{
  "_format": "hh-sol-artifact-1",
  "contractName": "TalentLayerReview",
  "sourceName": "contracts/TalentLayerReview.sol",
  "abi": [
    {
      "inputs": [],
      "stateMutability": "nonpayable",
      "type": "constructor"
    },
    {
      "anonymous": false,
      "inputs": [
        {
          "indexed": false,
          "internalType": "address",
          "name": "previousAdmin",
          "type": "address"
        },
        {
          "indexed": false,
          "internalType": "address",
          "name": "newAdmin",
          "type": "address"
        }
      ],
      "name": "AdminChanged",
      "type": "event"
    },
    {
      "anonymous": false,
      "inputs": [
        {
          "indexed": true,
          "internalType": "address",
          "name": "owner",
          "type": "address"
        },
        {
          "indexed": true,
          "internalType": "address",
          "name": "approved",
          "type": "address"
        },
        {
          "indexed": true,
          "internalType": "uint256",
          "name": "tokenId",
          "type": "uint256"
        }
      ],
      "name": "Approval",
      "type": "event"
    },
    {
      "anonymous": false,
      "inputs": [
        {
          "indexed": true,
          "internalType": "address",
          "name": "owner",
          "type": "address"
        },
        {
          "indexed": true,
          "internalType": "address",
          "name": "operator",
          "type": "address"
        },
        {
          "indexed": false,
          "internalType": "bool",
          "name": "approved",
          "type": "bool"
        }
      ],
      "name": "ApprovalForAll",
      "type": "event"
    },
    {
      "anonymous": false,
      "inputs": [
        {
          "indexed": true,
          "internalType": "address",
          "name": "beacon",
          "type": "address"
        }
      ],
      "name": "BeaconUpgraded",
      "type": "event"
    },
    {
      "anonymous": false,
      "inputs": [
        {
          "indexed": false,
          "internalType": "uint8",
          "name": "version",
          "type": "uint8"
        }
      ],
      "name": "Initialized",
      "type": "event"
    },
    {
      "anonymous": false,
      "inputs": [
        {
          "indexed": true,
          "internalType": "uint256",
          "name": "_serviceId",
          "type": "uint256"
        },
        {
          "indexed": true,
          "internalType": "uint256",
          "name": "_toId",
          "type": "uint256"
        },
        {
          "indexed": true,
          "internalType": "uint256",
          "name": "_tokenId",
          "type": "uint256"
        },
        {
          "indexed": false,
          "internalType": "uint256",
          "name": "_rating",
          "type": "uint256"
        },
        {
          "indexed": false,
          "internalType": "string",
          "name": "_reviewUri",
          "type": "string"
        }
      ],
      "name": "Mint",
      "type": "event"
    },
    {
      "anonymous": false,
      "inputs": [
        {
          "indexed": true,
          "internalType": "address",
          "name": "previousOwner",
          "type": "address"
        },
        {
          "indexed": true,
          "internalType": "address",
          "name": "newOwner",
          "type": "address"
        }
      ],
      "name": "OwnershipTransferred",
      "type": "event"
    },
    {
      "anonymous": false,
      "inputs": [
        {
          "indexed": true,
          "internalType": "address",
          "name": "from",
          "type": "address"
        },
        {
          "indexed": true,
          "internalType": "address",
          "name": "to",
          "type": "address"
        },
        {
          "indexed": true,
          "internalType": "uint256",
          "name": "tokenId",
          "type": "uint256"
        }
      ],
      "name": "Transfer",
      "type": "event"
    },
    {
      "anonymous": false,
      "inputs": [
        {
          "indexed": false,
          "internalType": "address",
          "name": "forwarder",
          "type": "address"
        }
      ],
      "name": "TrustedForwarderAdded",
      "type": "event"
    },
    {
      "anonymous": false,
      "inputs": [
        {
          "indexed": false,
          "internalType": "address",
          "name": "forwarder",
          "type": "address"
        }
      ],
      "name": "TrustedForwarderRemoved",
      "type": "event"
    },
    {
      "anonymous": false,
      "inputs": [
        {
          "indexed": true,
          "internalType": "address",
          "name": "implementation",
          "type": "address"
        }
      ],
      "name": "Upgraded",
      "type": "event"
    },
    {
      "inputs": [
        {
          "internalType": "address",
          "name": "_forwarder",
          "type": "address"
        }
      ],
      "name": "addTrustedForwarder",
      "outputs": [],
      "stateMutability": "nonpayable",
      "type": "function"
    },
    {
      "inputs": [
        {
          "internalType": "address",
          "name": "to",
          "type": "address"
        },
        {
          "internalType": "uint256",
          "name": "tokenId",
          "type": "uint256"
        }
      ],
      "name": "approve",
      "outputs": [],
      "stateMutability": "nonpayable",
      "type": "function"
    },
    {
      "inputs": [
        {
          "internalType": "address",
          "name": "owner",
          "type": "address"
        }
      ],
      "name": "balanceOf",
      "outputs": [
        {
          "internalType": "uint256",
          "name": "",
          "type": "uint256"
        }
      ],
      "stateMutability": "view",
      "type": "function"
    },
    {
      "inputs": [
        {
          "internalType": "uint256",
          "name": "tokenId",
          "type": "uint256"
        }
      ],
      "name": "getApproved",
      "outputs": [
        {
          "internalType": "address",
          "name": "",
          "type": "address"
        }
      ],
      "stateMutability": "view",
      "type": "function"
    },
    {
      "inputs": [
        {
          "internalType": "uint256",
          "name": "_reviewId",
          "type": "uint256"
        }
      ],
      "name": "getReview",
      "outputs": [
        {
          "components": [
            {
              "internalType": "uint256",
              "name": "id",
              "type": "uint256"
            },
            {
              "internalType": "uint256",
              "name": "ownerId",
              "type": "uint256"
            },
            {
              "internalType": "string",
              "name": "dataUri",
              "type": "string"
            },
            {
              "internalType": "uint256",
              "name": "serviceId",
              "type": "uint256"
            },
            {
              "internalType": "uint256",
              "name": "rating",
              "type": "uint256"
            }
          ],
          "internalType": "struct TalentLayerReview.Review",
          "name": "",
          "type": "tuple"
        }
      ],
      "stateMutability": "view",
      "type": "function"
    },
    {
      "inputs": [
        {
          "internalType": "uint256",
          "name": "",
          "type": "uint256"
        }
      ],
      "name": "hasBuyerBeenReviewed",
      "outputs": [
        {
          "internalType": "bool",
          "name": "",
          "type": "bool"
        }
      ],
      "stateMutability": "view",
      "type": "function"
    },
    {
      "inputs": [
        {
          "internalType": "uint256",
          "name": "",
          "type": "uint256"
        }
      ],
      "name": "hasSellerBeenReviewed",
      "outputs": [
        {
          "internalType": "bool",
          "name": "",
          "type": "bool"
        }
      ],
      "stateMutability": "view",
      "type": "function"
    },
    {
      "inputs": [
        {
          "internalType": "address",
          "name": "_talentLayerIdAddress",
          "type": "address"
        },
        {
          "internalType": "address",
          "name": "_talentLayerServiceAddress",
          "type": "address"
        }
      ],
      "name": "initialize",
      "outputs": [],
      "stateMutability": "nonpayable",
      "type": "function"
    },
    {
      "inputs": [
        {
          "internalType": "address",
          "name": "owner",
          "type": "address"
        },
        {
          "internalType": "address",
          "name": "operator",
          "type": "address"
        }
      ],
      "name": "isApprovedForAll",
      "outputs": [
        {
          "internalType": "bool",
          "name": "",
          "type": "bool"
        }
      ],
      "stateMutability": "view",
      "type": "function"
    },
    {
      "inputs": [
        {
          "internalType": "address",
          "name": "forwarder",
          "type": "address"
        }
      ],
      "name": "isTrustedForwarder",
      "outputs": [
        {
          "internalType": "bool",
          "name": "",
          "type": "bool"
        }
      ],
      "stateMutability": "view",
      "type": "function"
    },
    {
      "inputs": [
        {
          "internalType": "uint256",
          "name": "_profileId",
          "type": "uint256"
        },
        {
          "internalType": "uint256",
          "name": "_serviceId",
          "type": "uint256"
        },
        {
          "internalType": "string",
          "name": "_reviewUri",
          "type": "string"
        },
        {
          "internalType": "uint256",
          "name": "_rating",
          "type": "uint256"
        }
      ],
      "name": "mint",
      "outputs": [
        {
          "internalType": "uint256",
          "name": "",
          "type": "uint256"
        }
      ],
      "stateMutability": "nonpayable",
      "type": "function"
    },
    {
      "inputs": [],
      "name": "name",
      "outputs": [
        {
          "internalType": "string",
          "name": "",
          "type": "string"
        }
      ],
      "stateMutability": "view",
      "type": "function"
    },
    {
      "inputs": [],
      "name": "owner",
      "outputs": [
        {
          "internalType": "address",
          "name": "",
          "type": "address"
        }
      ],
      "stateMutability": "view",
      "type": "function"
    },
    {
      "inputs": [
        {
          "internalType": "uint256",
          "name": "tokenId",
          "type": "uint256"
        }
      ],
      "name": "ownerOf",
      "outputs": [
        {
          "internalType": "address",
          "name": "",
          "type": "address"
        }
      ],
      "stateMutability": "view",
      "type": "function"
    },
    {
      "inputs": [],
      "name": "proxiableUUID",
      "outputs": [
        {
          "internalType": "bytes32",
          "name": "",
          "type": "bytes32"
        }
      ],
      "stateMutability": "view",
      "type": "function"
    },
    {
      "inputs": [
        {
          "internalType": "address",
          "name": "_forwarder",
          "type": "address"
        }
      ],
      "name": "removeTrustedForwarder",
      "outputs": [],
      "stateMutability": "nonpayable",
      "type": "function"
    },
    {
      "inputs": [],
      "name": "renounceOwnership",
      "outputs": [],
      "stateMutability": "nonpayable",
      "type": "function"
    },
    {
      "inputs": [
        {
          "internalType": "uint256",
          "name": "",
          "type": "uint256"
        }
      ],
      "name": "reviews",
      "outputs": [
        {
          "internalType": "uint256",
          "name": "id",
          "type": "uint256"
        },
        {
          "internalType": "uint256",
          "name": "ownerId",
          "type": "uint256"
        },
        {
          "internalType": "string",
          "name": "dataUri",
          "type": "string"
        },
        {
          "internalType": "uint256",
          "name": "serviceId",
          "type": "uint256"
        },
        {
          "internalType": "uint256",
          "name": "rating",
          "type": "uint256"
        }
      ],
      "stateMutability": "view",
      "type": "function"
    },
    {
      "inputs": [
        {
          "internalType": "address",
          "name": "",
          "type": "address"
        },
        {
          "internalType": "address",
          "name": "",
          "type": "address"
        },
        {
          "internalType": "uint256",
          "name": "",
          "type": "uint256"
        }
      ],
      "name": "safeTransferFrom",
      "outputs": [],
      "stateMutability": "nonpayable",
      "type": "function"
    },
    {
      "inputs": [
        {
          "internalType": "address",
          "name": "",
          "type": "address"
        },
        {
          "internalType": "address",
          "name": "",
          "type": "address"
        },
        {
          "internalType": "uint256",
          "name": "",
          "type": "uint256"
        },
        {
          "internalType": "bytes",
          "name": "",
          "type": "bytes"
        }
      ],
      "name": "safeTransferFrom",
      "outputs": [],
      "stateMutability": "nonpayable",
      "type": "function"
    },
    {
      "inputs": [
        {
          "internalType": "address",
          "name": "operator",
          "type": "address"
        },
        {
          "internalType": "bool",
          "name": "approved",
          "type": "bool"
        }
      ],
      "name": "setApprovalForAll",
      "outputs": [],
      "stateMutability": "nonpayable",
      "type": "function"
    },
    {
      "inputs": [
        {
          "internalType": "bytes4",
          "name": "interfaceId",
          "type": "bytes4"
        }
      ],
      "name": "supportsInterface",
      "outputs": [
        {
          "internalType": "bool",
          "name": "",
          "type": "bool"
        }
      ],
      "stateMutability": "view",
      "type": "function"
    },
    {
      "inputs": [],
      "name": "symbol",
      "outputs": [
        {
          "internalType": "string",
          "name": "",
          "type": "string"
        }
      ],
      "stateMutability": "view",
      "type": "function"
    },
    {
      "inputs": [
        {
          "internalType": "uint256",
          "name": "tokenId",
          "type": "uint256"
        }
      ],
      "name": "tokenURI",
      "outputs": [
        {
          "internalType": "string",
          "name": "",
          "type": "string"
        }
      ],
      "stateMutability": "view",
      "type": "function"
    },
    {
      "inputs": [],
      "name": "totalSupply",
      "outputs": [
        {
          "internalType": "uint256",
          "name": "",
          "type": "uint256"
        }
      ],
      "stateMutability": "view",
      "type": "function"
    },
    {
      "inputs": [
        {
          "internalType": "address",
          "name": "",
          "type": "address"
        },
        {
          "internalType": "address",
          "name": "",
          "type": "address"
        },
        {
          "internalType": "uint256",
          "name": "",
          "type": "uint256"
        }
      ],
      "name": "transferFrom",
      "outputs": [],
      "stateMutability": "nonpayable",
      "type": "function"
    },
    {
      "inputs": [
        {
          "internalType": "address",
          "name": "newOwner",
          "type": "address"
        }
      ],
      "name": "transferOwnership",
      "outputs": [],
      "stateMutability": "nonpayable",
      "type": "function"
    },
    {
      "inputs": [
        {
          "internalType": "address",
          "name": "newImplementation",
          "type": "address"
        }
      ],
      "name": "upgradeTo",
      "outputs": [],
      "stateMutability": "nonpayable",
      "type": "function"
    },
    {
      "inputs": [
        {
          "internalType": "address",
          "name": "newImplementation",
          "type": "address"
        },
        {
          "internalType": "bytes",
          "name": "data",
          "type": "bytes"
        }
      ],
      "name": "upgradeToAndCall",
      "outputs": [],
      "stateMutability": "payable",
      "type": "function"
    }
  ],
  "bytecode": "0x60a0604052306080523480156200001557600080fd5b506200002062000026565b620000e8565b600054610100900460ff1615620000935760405162461bcd60e51b815260206004820152602760248201527f496e697469616c697a61626c653a20636f6e747261637420697320696e697469604482015266616c697a696e6760c81b606482015260840160405180910390fd5b60005460ff9081161015620000e6576000805460ff191660ff9081179091556040519081527f7f26b83ff96e1f2b6a682f133852f6798a09c465da95921460cefb38474024989060200160405180910390a15b565b608051612c6e62000120600039600081816108d10152818161091101528181610bb201528181610bf20152610c850152612c6e6000f3fe6080604052600436106101c25760003560e01c8063572b6c05116100f7578063a22cb46511610095578063cf2ed32e11610064578063cf2ed32e1461050e578063e83ddcea1461052e578063e985e9c51461055f578063f2fde38b146105a857600080fd5b8063a22cb46514610482578063a267724d146104a2578063b88d4fde146104d3578063c87b56dd146104ee57600080fd5b8063715018a6116100d1578063715018a61461040d5780638da5cb5b1461042257806395d89b4114610440578063990581b61461045557600080fd5b8063572b6c05146103945780636352211e146103cd57806370a08231146103ed57600080fd5b80633659cfe61161016457806342842e0e1161013e57806342842e0e1461029b578063485cc9551461034c5780634f1ef2861461036c57806352d1902d1461037f57600080fd5b80633659cfe6146102db5780633751d89c146102fb578063404e9adc1461031b57600080fd5b8063095ea7b3116101a0578063095ea7b31461025657806318160ddd1461027857806323b872dd1461029b57806326d00668146102bb57600080fd5b806301ffc9a7146101c757806306fdde03146101fc578063081812fc1461021e575b600080fd5b3480156101d357600080fd5b506101e76101e2366004612250565b6105c8565b60405190151581526020015b60405180910390f35b34801561020857600080fd5b5061021161061a565b6040516101f391906122bd565b34801561022a57600080fd5b5061023e6102393660046122d0565b6106ac565b6040516001600160a01b0390911681526020016101f3565b34801561026257600080fd5b506102766102713660046122fe565b6106d3565b005b34801561028457600080fd5b5061028d6107ff565b6040519081526020016101f3565b3480156102a757600080fd5b506102766102b636600461232a565b61081c565b3480156102c757600080fd5b506102766102d636600461236b565b610864565b3480156102e757600080fd5b506102766102f636600461236b565b6108c7565b34801561030757600080fd5b5061027661031636600461236b565b6109a6565b34801561032757600080fd5b506101e76103363660046122d0565b6101306020526000908152604090205460ff1681565b34801561035857600080fd5b50610276610367366004612388565b6109ff565b61027661037a3660046124af565b610ba8565b34801561038b57600080fd5b5061028d610c78565b3480156103a057600080fd5b506101e76103af36600461236b565b6001600160a01b031660009081526065602052604090205460ff1690565b3480156103d957600080fd5b5061023e6103e83660046122d0565b610d2b565b3480156103f957600080fd5b5061028d61040836600461236b565b610d8b565b34801561041957600080fd5b50610276610e11565b34801561042e57600080fd5b506033546001600160a01b031661023e565b34801561044c57600080fd5b50610211610e25565b34801561046157600080fd5b506104756104703660046122d0565b610e34565b6040516101f391906124ff565b34801561048e57600080fd5b5061027661049d36600461255d565b610f8c565b3480156104ae57600080fd5b506101e76104bd3660046122d0565b6101316020526000908152604090205460ff1681565b3480156104df57600080fd5b506102766102b636600461258b565b3480156104fa57600080fd5b506102116105093660046122d0565b610f9e565b34801561051a57600080fd5b5061028d6105293660046125f7565b611012565b34801561053a57600080fd5b5061054e6105493660046122d0565b6113c9565b6040516101f395949392919061267f565b34801561056b57600080fd5b506101e761057a366004612388565b6001600160a01b039182166000908152609d6020908152604080832093909416825291909152205460ff1690565b3480156105b457600080fd5b506102766105c336600461236b565b611481565b60006001600160e01b031982166380ac58cd60e01b14806105f957506001600160e01b03198216635b5e139f60e01b145b8061061457506301ffc9a760e01b6001600160e01b03198316145b92915050565b606060988054610629906126b2565b80601f0160208091040260200160405190810160405280929190818152602001828054610655906126b2565b80156106a25780601f10610677576101008083540402835291602001916106a2565b820191906000526020600020905b81548152906001019060200180831161068557829003601f168201915b5050505050905090565b60006106b7826114f7565b506000908152609c60205260409020546001600160a01b031690565b60006106de82610d2b565b9050806001600160a01b0316836001600160a01b0316036107505760405162461bcd60e51b815260206004820152602160248201527f4552433732313a20617070726f76616c20746f2063757272656e74206f776e656044820152603960f91b60648201526084015b60405180910390fd5b806001600160a01b0316610762611556565b6001600160a01b0316148061077e575061077e8161057a611556565b6107f05760405162461bcd60e51b815260206004820152603d60248201527f4552433732313a20617070726f76652063616c6c6572206973206e6f7420746f60448201527f6b656e206f776e6572206f7220617070726f76656420666f7220616c6c0000006064820152608401610747565b6107fa8383611560565b505050565b6000600161080d61012e5490565b6108179190612702565b905090565b60405162461bcd60e51b815260206004820152601d60248201527f546f6b656e207472616e73666572206973206e6f7420616c6c6f7765640000006044820152606401610747565b61086c6115ce565b6001600160a01b038116600081815260656020908152604091829020805460ff1916600117905590519182527f3ef8564460ada92419608d823c014975d98f8104d7d1e68c222967ac6814cd9791015b60405180910390a150565b6001600160a01b037f000000000000000000000000000000000000000000000000000000000000000016300361090f5760405162461bcd60e51b815260040161074790612715565b7f00000000000000000000000000000000000000000000000000000000000000006001600160a01b0316610958600080516020612bf2833981519152546001600160a01b031690565b6001600160a01b03161461097e5760405162461bcd60e51b815260040161074790612761565b61098781611647565b604080516000808252602082019092526109a39183919061164f565b50565b6109ae6115ce565b6001600160a01b038116600081815260656020908152604091829020805460ff1916905590519182527fd2d636efcad0cea42e170256f4c5d8b1cd81e47b855557edaf44014e6cc4cee691016108bc565b600054610100900460ff1615808015610a1f5750600054600160ff909116105b80610a395750303b158015610a39575060005460ff166001145b610a9c5760405162461bcd60e51b815260206004820152602e60248201527f496e697469616c697a61626c653a20636f6e747261637420697320616c72656160448201526d191e481a5b9a5d1a585b1a5e995960921b6064820152608401610747565b6000805460ff191660011790558015610abf576000805461ff0019166101001790555b610b0d6040518060400160405280601181526020017054616c656e744c6179657252657669657760781b815250604051806040016040528060038152602001622a262960e91b8152506117ba565b610b156117eb565b610b1d611812565b61013280546001600160a01b038086166001600160a01b031992831617909255610133805492851692909116919091179055610b5e61012e80546001019055565b80156107fa576000805461ff0019169055604051600181527f7f26b83ff96e1f2b6a682f133852f6798a09c465da95921460cefb38474024989060200160405180910390a1505050565b6001600160a01b037f0000000000000000000000000000000000000000000000000000000000000000163003610bf05760405162461bcd60e51b815260040161074790612715565b7f00000000000000000000000000000000000000000000000000000000000000006001600160a01b0316610c39600080516020612bf2833981519152546001600160a01b031690565b6001600160a01b031614610c5f5760405162461bcd60e51b815260040161074790612761565b610c6882611647565b610c748282600161164f565b5050565b6000306001600160a01b037f00000000000000000000000000000000000000000000000000000000000000001614610d185760405162461bcd60e51b815260206004820152603860248201527f555550535570677261646561626c653a206d757374206e6f742062652063616c60448201527f6c6564207468726f7567682064656c656761746563616c6c00000000000000006064820152608401610747565b50600080516020612bf283398151915290565b6000818152609a60205260408120546001600160a01b0316806106145760405162461bcd60e51b8152602060048201526018602482015277115490cdcc8c4e881a5b9d985b1a59081d1bdad95b88125160421b6044820152606401610747565b60006001600160a01b038216610df55760405162461bcd60e51b815260206004820152602960248201527f4552433732313a2061646472657373207a65726f206973206e6f7420612076616044820152683634b21037bbb732b960b91b6064820152608401610747565b506001600160a01b03166000908152609b602052604090205490565b610e196115ce565b610e236000611841565b565b606060998054610629906126b2565b610e666040518060a0016040528060008152602001600081526020016060815260200160008152602001600081525090565b61012e548210610eac5760405162461bcd60e51b8152602060048201526011602482015270125b9d985b1a59081c995d9a595dc81251607a1b6044820152606401610747565b61012f60008381526020019081526020016000206040518060a00160405290816000820154815260200160018201548152602001600282018054610eef906126b2565b80601f0160208091040260200160405190810160405280929190818152602001828054610f1b906126b2565b8015610f685780601f10610f3d57610100808354040283529160200191610f68565b820191906000526020600020905b815481529060010190602001808311610f4b57829003601f168201915b50505050508152602001600382015481526020016004820154815250509050919050565b610c74610f97611556565b8383611893565b6060610fa9826114f7565b6000610fc060408051602081019091526000815290565b90506000815111610fe0576040518060200160405280600081525061100b565b80610fea84611961565b604051602001610ffb9291906127ad565b6040516020818303038152906040525b9392505050565b6101325460009086906001600160a01b0316632fa117e582611032611556565b6040516001600160e01b031960e085901b16815260048101929092526001600160a01b03166024820152604401602060405180830381865afa15801561107c573d6000803e3d6000fd5b505050506040513d601f19601f820116820180604052508101906110a091906127dc565b6110e45760405162461bcd60e51b81526020600482015260156024820152744e6f74206f776e6572206f722064656c656761746560581b6044820152606401610747565b6101335460405163ef0e239b60e01b8152600481018890526000916001600160a01b03169063ef0e239b90602401600060405180830381865afa15801561112f573d6000803e3d6000fd5b505050506040513d6000823e601f3d908101601f19168201604052611157919081019061283e565b9050806020015188148061116e5750806040015188145b6111c65760405162461bcd60e51b815260206004820152602360248201527f596f75277265206e6f7420616e206163746f72206f662074686973207365727660448201526269636560e81b6064820152608401610747565b6002815160038111156111db576111db6128ef565b146112285760405162461bcd60e51b815260206004820152601f60248201527f5468652073657276696365206973206e6f742066696e697368656420796574006044820152606401610747565b60058411158015611237575060015b6112745760405162461bcd60e51b815260206004820152600e60248201526d496e76616c696420726174696e6760901b6044820152606401610747565b6000816020015189036112d757506040808201516000898152610131602052919091205460ff16156112b85760405162461bcd60e51b815260040161074790612905565b600088815261013160205260409020805460ff1916600117905561132a565b50602080820151600089815261013090925260409091205460ff161561130f5760405162461bcd60e51b815260040161074790612905565b600088815261013060205260409020805460ff191660011790555b610132546040516331a9108f60e11b8152600481018390526000916001600160a01b031690636352211e90602401602060405180830381865afa158015611375573d6000803e3d6000fd5b505050506040513d601f19601f820116820180604052508101906113999190612951565b90506113ae816113a961012e5490565b6119f4565b6113bb8983888b8b611a0e565b9a9950505050505050505050565b61012f60205260009081526040902080546001820154600283018054929391926113f2906126b2565b80601f016020809104026020016040519081016040528092919081815260200182805461141e906126b2565b801561146b5780601f106114405761010080835404028352916020019161146b565b820191906000526020600020905b81548152906001019060200180831161144e57829003601f168201915b5050505050908060030154908060040154905085565b6114896115ce565b6001600160a01b0381166114ee5760405162461bcd60e51b815260206004820152602660248201527f4f776e61626c653a206e6577206f776e657220697320746865207a65726f206160448201526564647265737360d01b6064820152608401610747565b6109a381611841565b6000818152609a60205260409020546001600160a01b03166109a35760405162461bcd60e51b8152602060048201526018602482015277115490cdcc8c4e881a5b9d985b1a59081d1bdad95b88125160421b6044820152606401610747565b6000610817611b17565b6000818152609c6020526040902080546001600160a01b0319166001600160a01b038416908117909155819061159582610d2b565b6001600160a01b03167f8c5be1e5ebec7d5bd14f71427d1e84f3dd0314c0f7b2291e5b200ac8c7c3b92560405160405180910390a45050565b6115d6611556565b6001600160a01b03166115f16033546001600160a01b031690565b6001600160a01b031614610e235760405162461bcd60e51b815260206004820181905260248201527f4f776e61626c653a2063616c6c6572206973206e6f7420746865206f776e65726044820152606401610747565b6109a36115ce565b7f4910fdfa16fed3260ed0e7147f7cc6da11a60208b5b9406d12a635614ffd91435460ff1615611682576107fa83611b50565b826001600160a01b03166352d1902d6040518163ffffffff1660e01b8152600401602060405180830381865afa9250505080156116dc575060408051601f3d908101601f191682019092526116d99181019061296e565b60015b61173f5760405162461bcd60e51b815260206004820152602e60248201527f45524331393637557067726164653a206e657720696d706c656d656e7461746960448201526d6f6e206973206e6f74205555505360901b6064820152608401610747565b600080516020612bf283398151915281146117ae5760405162461bcd60e51b815260206004820152602960248201527f45524331393637557067726164653a20756e737570706f727465642070726f786044820152681a58589b195555525160ba1b6064820152608401610747565b506107fa838383611bec565b600054610100900460ff166117e15760405162461bcd60e51b815260040161074790612987565b610c748282611c17565b600054610100900460ff16610e235760405162461bcd60e51b815260040161074790612987565b600054610100900460ff166118395760405162461bcd60e51b815260040161074790612987565b610e23611c57565b603380546001600160a01b038381166001600160a01b0319831681179093556040519116919082907f8be0079c531659141344cd1fd0a4f28419497f9722a3daafe3b4186f6b6457e090600090a35050565b816001600160a01b0316836001600160a01b0316036118f45760405162461bcd60e51b815260206004820152601960248201527f4552433732313a20617070726f766520746f2063616c6c6572000000000000006044820152606401610747565b6001600160a01b038381166000818152609d6020908152604080832094871680845294825291829020805460ff191686151590811790915591519182527f17307eab39ab6107e8899845ad3d59bd9653f200f220920489ca2b5937696c31910160405180910390a3505050565b6060600061196e83611c8e565b600101905060008167ffffffffffffffff81111561198e5761198e6123c1565b6040519080825280601f01601f1916602001820160405280156119b8576020820181803683370190505b5090508181016020015b600019016f181899199a1a9b1b9c1cb0b131b232b360811b600a86061a8153600a85049450846119c257509392505050565b610c74828260405180602001604052806000815250611d66565b600080611a1b61012e5490565b9050611a2c61012e80546001019055565b6040518060a0016040528082815260200187815260200185858080601f016020809104026020016040519081016040528093929190818152602001838380828437600092018290525093855250505060208083018b9052604092830189905284825261012f81529082902083518155908301516001820155908201516002820190611ab79082612a20565b5060608201518160030155608082015181600401559050508086887fc2c042b6adb2203938cfaca37c0a5aef6b304eff65efd5e9177e882162cebe38888888604051611b0593929190612ae0565b60405180910390a49695505050505050565b600060143610801590611b3957503360009081526065602052604090205460ff165b15611b4b575060131936013560601c90565b503390565b6001600160a01b0381163b611bbd5760405162461bcd60e51b815260206004820152602d60248201527f455243313936373a206e657720696d706c656d656e746174696f6e206973206e60448201526c1bdd08184818dbdb9d1c9858dd609a1b6064820152608401610747565b600080516020612bf283398151915280546001600160a01b0319166001600160a01b0392909216919091179055565b611bf583611d99565b600082511180611c025750805b156107fa57611c118383611dd9565b50505050565b600054610100900460ff16611c3e5760405162461bcd60e51b815260040161074790612987565b6098611c4a8382612a20565b5060996107fa8282612a20565b600054610100900460ff16611c7e5760405162461bcd60e51b815260040161074790612987565b610e23611c89611556565b611841565b60008072184f03e93ff9f4daa797ed6e38ed64bf6a1f0160401b8310611ccd5772184f03e93ff9f4daa797ed6e38ed64bf6a1f0160401b830492506040015b6d04ee2d6d415b85acef81000000008310611cf9576d04ee2d6d415b85acef8100000000830492506020015b662386f26fc100008310611d1757662386f26fc10000830492506010015b6305f5e1008310611d2f576305f5e100830492506008015b6127108310611d4357612710830492506004015b60648310611d55576064830492506002015b600a83106106145760010192915050565b611d708383611ecd565b611d7d6000848484612066565b6107fa5760405162461bcd60e51b815260040161074790612b16565b611da281611b50565b6040516001600160a01b038216907fbc7cd75a20ee27fd9adebab32041f755214dbc6bffa90cc0225b39da2e5c2d3b90600090a250565b60606001600160a01b0383163b611e415760405162461bcd60e51b815260206004820152602660248201527f416464726573733a2064656c65676174652063616c6c20746f206e6f6e2d636f6044820152651b9d1c9858dd60d21b6064820152608401610747565b600080846001600160a01b031684604051611e5c9190612b68565b600060405180830381855af49150503d8060008114611e97576040519150601f19603f3d011682016040523d82523d6000602084013e611e9c565b606091505b5091509150611ec48282604051806060016040528060278152602001612c126027913961216f565b95945050505050565b6001600160a01b038216611f235760405162461bcd60e51b815260206004820181905260248201527f4552433732313a206d696e7420746f20746865207a65726f20616464726573736044820152606401610747565b6000818152609a60205260409020546001600160a01b031615611f885760405162461bcd60e51b815260206004820152601c60248201527f4552433732313a20746f6b656e20616c7265616479206d696e746564000000006044820152606401610747565b611f96600083836001612188565b6000818152609a60205260409020546001600160a01b031615611ffb5760405162461bcd60e51b815260206004820152601c60248201527f4552433732313a20746f6b656e20616c7265616479206d696e746564000000006044820152606401610747565b6001600160a01b0382166000818152609b6020908152604080832080546001019055848352609a90915280822080546001600160a01b0319168417905551839291907fddf252ad1be2c89b69c2b068fc378daa952ba7f163c4a11628f55a4df523b3ef908290a45050565b60006001600160a01b0384163b1561216357836001600160a01b031663150b7a0261208f611556565b8786866040518563ffffffff1660e01b81526004016120b19493929190612b84565b6020604051808303816000875af19250505080156120ec575060408051601f3d908101601f191682019092526120e991810190612bc1565b60015b612149573d80801561211a576040519150601f19603f3d011682016040523d82523d6000602084013e61211f565b606091505b5080516000036121415760405162461bcd60e51b815260040161074790612b16565b805181602001fd5b6001600160e01b031916630a85bd0160e11b149050612167565b5060015b949350505050565b6060831561217e57508161100b565b61100b8383612210565b6001811115611c11576001600160a01b038416156121ce576001600160a01b0384166000908152609b6020526040812080548392906121c8908490612702565b90915550505b6001600160a01b03831615611c11576001600160a01b0383166000908152609b602052604081208054839290612205908490612bde565b909155505050505050565b8151156122205781518083602001fd5b8060405162461bcd60e51b815260040161074791906122bd565b6001600160e01b0319811681146109a357600080fd5b60006020828403121561226257600080fd5b813561100b8161223a565b60005b83811015612288578181015183820152602001612270565b50506000910152565b600081518084526122a981602086016020860161226d565b601f01601f19169290920160200192915050565b60208152600061100b6020830184612291565b6000602082840312156122e257600080fd5b5035919050565b6001600160a01b03811681146109a357600080fd5b6000806040838503121561231157600080fd5b823561231c816122e9565b946020939093013593505050565b60008060006060848603121561233f57600080fd5b833561234a816122e9565b9250602084013561235a816122e9565b929592945050506040919091013590565b60006020828403121561237d57600080fd5b813561100b816122e9565b6000806040838503121561239b57600080fd5b82356123a6816122e9565b915060208301356123b6816122e9565b809150509250929050565b634e487b7160e01b600052604160045260246000fd5b60405160c0810167ffffffffffffffff811182821017156123fa576123fa6123c1565b60405290565b604051601f8201601f1916810167ffffffffffffffff81118282101715612429576124296123c1565b604052919050565b600067ffffffffffffffff82111561244b5761244b6123c1565b50601f01601f191660200190565b600082601f83011261246a57600080fd5b813561247d61247882612431565b612400565b81815284602083860101111561249257600080fd5b816020850160208301376000918101602001919091529392505050565b600080604083850312156124c257600080fd5b82356124cd816122e9565b9150602083013567ffffffffffffffff8111156124e957600080fd5b6124f585828601612459565b9150509250929050565b6020815281516020820152602082015160408201526000604083015160a0606084015261252f60c0840182612291565b905060608401516080840152608084015160a08401528091505092915050565b80151581146109a357600080fd5b6000806040838503121561257057600080fd5b823561257b816122e9565b915060208301356123b68161254f565b600080600080608085870312156125a157600080fd5b84356125ac816122e9565b935060208501356125bc816122e9565b925060408501359150606085013567ffffffffffffffff8111156125df57600080fd5b6125eb87828801612459565b91505092959194509250565b60008060008060006080868803121561260f57600080fd5b8535945060208601359350604086013567ffffffffffffffff8082111561263557600080fd5b818801915088601f83011261264957600080fd5b81358181111561265857600080fd5b89602082850101111561266a57600080fd5b96999598505060200195606001359392505050565b85815284602082015260a06040820152600061269e60a0830186612291565b606083019490945250608001529392505050565b600181811c908216806126c657607f821691505b6020821081036126e657634e487b7160e01b600052602260045260246000fd5b50919050565b634e487b7160e01b600052601160045260246000fd5b81810381811115610614576106146126ec565b6020808252602c908201527f46756e6374696f6e206d7573742062652063616c6c6564207468726f7567682060408201526b19195b1959d85d1958d85b1b60a21b606082015260800190565b6020808252602c908201527f46756e6374696f6e206d7573742062652063616c6c6564207468726f7567682060408201526b6163746976652070726f787960a01b606082015260800190565b600083516127bf81846020880161226d565b8351908301906127d381836020880161226d565b01949350505050565b6000602082840312156127ee57600080fd5b815161100b8161254f565b600082601f83011261280a57600080fd5b815161281861247882612431565b81815284602083860101111561282d57600080fd5b61216782602083016020870161226d565b60006020828403121561285057600080fd5b815167ffffffffffffffff8082111561286857600080fd5b9083019060c0828603121561287c57600080fd5b6128846123d7565b82516004811061289357600080fd5b8082525060208301516020820152604083015160408201526060830151828111156128bd57600080fd5b6128c9878286016127f9565b6060830152506080830151608082015260a083015160a082015280935050505092915050565b634e487b7160e01b600052602160045260246000fd5b6020808252602c908201527f596f7520616c7265616479206d696e74656420612072657669657720666f722060408201526b74686973207365727669636560a01b606082015260800190565b60006020828403121561296357600080fd5b815161100b816122e9565b60006020828403121561298057600080fd5b5051919050565b6020808252602b908201527f496e697469616c697a61626c653a20636f6e7472616374206973206e6f74206960408201526a6e697469616c697a696e6760a81b606082015260800190565b601f8211156107fa57600081815260208120601f850160051c810160208610156129f95750805b601f850160051c820191505b81811015612a1857828155600101612a05565b505050505050565b815167ffffffffffffffff811115612a3a57612a3a6123c1565b612a4e81612a4884546126b2565b846129d2565b602080601f831160018114612a835760008415612a6b5750858301515b600019600386901b1c1916600185901b178555612a18565b600085815260208120601f198616915b82811015612ab257888601518255948401946001909101908401612a93565b5085821015612ad05787850151600019600388901b60f8161c191681555b5050505050600190811b01905550565b83815260406020820152816040820152818360608301376000818301606090810191909152601f909201601f1916010192915050565b60208082526032908201527f4552433732313a207472616e7366657220746f206e6f6e20455243373231526560408201527131b2b4bb32b91034b6b83632b6b2b73a32b960711b606082015260800190565b60008251612b7a81846020870161226d565b9190910192915050565b6001600160a01b0385811682528416602082015260408101839052608060608201819052600090612bb790830184612291565b9695505050505050565b600060208284031215612bd357600080fd5b815161100b8161223a565b80820180821115610614576106146126ec56fe360894a13ba1a3210667c828492db98dca3e2076cc3735a920a3ca505d382bbc416464726573733a206c6f772d6c6576656c2064656c65676174652063616c6c206661696c6564a26469706673582212205bff2a2cd7f0a7919d7d9ba13d0eaab40075e7ac1c37f963afbdeea4bc10711764736f6c63430008110033",
  "linkReferences": {},
  "deployedLinkReferences": {}
}