{
  "_format": "hh-sol-artifact-1",
  "contractName": "TalentLayerID",
  "sourceName": "contracts/TalentLayerID.sol",
  "abi": [
    {
      "inputs": [
        {
          "internalType": "address",
          "name": "_talentLayerPlatformIdAddress",
          "type": "address"
        }
      ],
      "stateMutability": "nonpayable",
      "type": "constructor"
    },
    {
      "inputs": [],
      "name": "ApprovalCallerNotOwnerNorApproved",
      "type": "error"
    },
    {
      "inputs": [],
      "name": "ApprovalQueryForNonexistentToken",
      "type": "error"
    },
    {
      "inputs": [],
      "name": "ApproveToCaller",
      "type": "error"
    },
    {
      "inputs": [],
      "name": "BalanceQueryForZeroAddress",
      "type": "error"
    },
    {
      "inputs": [],
      "name": "MintERC2309QuantityExceedsLimit",
      "type": "error"
    },
    {
      "inputs": [],
      "name": "MintToZeroAddress",
      "type": "error"
    },
    {
      "inputs": [],
      "name": "MintZeroQuantity",
      "type": "error"
    },
    {
      "inputs": [],
      "name": "OwnerQueryForNonexistentToken",
      "type": "error"
    },
    {
      "inputs": [],
      "name": "OwnershipNotInitializedForExtraData",
      "type": "error"
    },
    {
      "inputs": [],
      "name": "TransferCallerNotOwnerNorApproved",
      "type": "error"
    },
    {
      "inputs": [],
      "name": "TransferFromIncorrectOwner",
      "type": "error"
    },
    {
      "inputs": [],
      "name": "TransferToNonERC721ReceiverImplementer",
      "type": "error"
    },
    {
      "inputs": [],
      "name": "TransferToZeroAddress",
      "type": "error"
    },
    {
      "inputs": [],
      "name": "URIQueryForNonexistentToken",
      "type": "error"
    },
    {
      "anonymous": false,
      "inputs": [
        {
          "indexed": true,
          "internalType": "address",
          "name": "_newAddress",
          "type": "address"
        },
        {
          "indexed": true,
          "internalType": "address",
          "name": "_oldAddress",
          "type": "address"
        },
        {
          "indexed": false,
          "internalType": "string",
          "name": "_handle",
          "type": "string"
        },
        {
          "indexed": false,
          "internalType": "uint256",
          "name": "_tokenId",
          "type": "uint256"
        }
      ],
      "name": "AccountRecovered",
      "type": "event"
    },
    {
      "anonymous": false,
      "inputs": [
        {
          "indexed": true,
          "internalType": "address",
          "name": "owner",
          "type": "address"
        },
        {
          "indexed": true,
          "internalType": "address",
          "name": "approved",
          "type": "address"
        },
        {
          "indexed": true,
          "internalType": "uint256",
          "name": "tokenId",
          "type": "uint256"
        }
      ],
      "name": "Approval",
      "type": "event"
    },
    {
      "anonymous": false,
      "inputs": [
        {
          "indexed": true,
          "internalType": "address",
          "name": "owner",
          "type": "address"
        },
        {
          "indexed": true,
          "internalType": "address",
          "name": "operator",
          "type": "address"
        },
        {
          "indexed": false,
          "internalType": "bool",
          "name": "approved",
          "type": "bool"
        }
      ],
      "name": "ApprovalForAll",
      "type": "event"
    },
    {
      "anonymous": false,
      "inputs": [
        {
          "indexed": true,
          "internalType": "uint256",
          "name": "_tokenId",
          "type": "uint256"
        },
        {
          "indexed": false,
          "internalType": "string",
          "name": "_newCid",
          "type": "string"
        }
      ],
      "name": "CidUpdated",
      "type": "event"
    },
    {
      "anonymous": false,
      "inputs": [
        {
          "indexed": true,
          "internalType": "uint256",
          "name": "fromTokenId",
          "type": "uint256"
        },
        {
          "indexed": false,
          "internalType": "uint256",
          "name": "toTokenId",
          "type": "uint256"
        },
        {
          "indexed": true,
          "internalType": "address",
          "name": "from",
          "type": "address"
        },
        {
          "indexed": true,
          "internalType": "address",
          "name": "to",
          "type": "address"
        }
      ],
      "name": "ConsecutiveTransfer",
      "type": "event"
    },
    {
      "anonymous": false,
      "inputs": [
        {
          "indexed": true,
          "internalType": "address",
          "name": "_user",
          "type": "address"
        },
        {
          "indexed": false,
          "internalType": "uint256",
          "name": "_tokenId",
          "type": "uint256"
        },
        {
          "indexed": false,
          "internalType": "string",
          "name": "_handle",
          "type": "string"
        },
        {
          "indexed": false,
          "internalType": "bool",
          "name": "_withPoh",
          "type": "bool"
        },
        {
          "indexed": false,
          "internalType": "uint256",
          "name": "_platformId",
          "type": "uint256"
        },
        {
          "indexed": false,
          "internalType": "uint256",
          "name": "_fee",
          "type": "uint256"
        }
      ],
      "name": "Mint",
      "type": "event"
    },
    {
      "anonymous": false,
      "inputs": [
        {
          "indexed": false,
          "internalType": "uint256",
          "name": "_mintFee",
          "type": "uint256"
        }
      ],
      "name": "MintFeeUpdated",
      "type": "event"
    },
    {
      "anonymous": false,
      "inputs": [
        {
          "indexed": true,
          "internalType": "address",
          "name": "previousOwner",
          "type": "address"
        },
        {
          "indexed": true,
          "internalType": "address",
          "name": "newOwner",
          "type": "address"
        }
      ],
      "name": "OwnershipTransferred",
      "type": "event"
    },
    {
      "anonymous": false,
      "inputs": [
        {
          "indexed": true,
          "internalType": "address",
          "name": "_user",
          "type": "address"
        },
        {
          "indexed": false,
          "internalType": "uint256",
          "name": "_tokenId",
          "type": "uint256"
        },
        {
          "indexed": false,
          "internalType": "string",
          "name": "_handle",
          "type": "string"
        }
      ],
      "name": "PohActivated",
      "type": "event"
    },
    {
      "anonymous": false,
      "inputs": [
        {
          "indexed": false,
          "internalType": "uint256",
          "name": "_tokenId",
          "type": "uint256"
        },
        {
          "indexed": false,
          "internalType": "uint256[]",
          "name": "_thirdPartiesStrategiesID",
          "type": "uint256[]"
        },
        {
          "indexed": false,
          "internalType": "bytes",
          "name": "thirdPartyId",
          "type": "bytes"
        }
      ],
      "name": "ThirdPartyLinked",
      "type": "event"
    },
    {
      "anonymous": false,
      "inputs": [
        {
          "indexed": true,
          "internalType": "address",
          "name": "from",
          "type": "address"
        },
        {
          "indexed": true,
          "internalType": "address",
          "name": "to",
          "type": "address"
        },
        {
          "indexed": true,
          "internalType": "uint256",
          "name": "tokenId",
          "type": "uint256"
        }
      ],
      "name": "Transfer",
      "type": "event"
    },
    {
      "inputs": [
        {
          "internalType": "address",
          "name": "to",
          "type": "address"
        },
        {
          "internalType": "uint256",
          "name": "tokenId",
          "type": "uint256"
        }
      ],
      "name": "approve",
      "outputs": [],
      "stateMutability": "nonpayable",
      "type": "function"
    },
    {
      "inputs": [
        {
          "internalType": "uint256",
          "name": "_profileId",
          "type": "uint256"
        },
        {
          "internalType": "uint256[]",
          "name": "_thirdPartiesStrategiesID",
          "type": "uint256[]"
        }
      ],
      "name": "associateThirdPartiesIDs",
      "outputs": [],
      "stateMutability": "nonpayable",
      "type": "function"
    },
    {
      "inputs": [
        {
          "internalType": "address",
          "name": "owner",
          "type": "address"
        }
      ],
      "name": "balanceOf",
      "outputs": [
        {
          "internalType": "uint256",
          "name": "",
          "type": "uint256"
        }
      ],
      "stateMutability": "view",
      "type": "function"
    },
    {
      "inputs": [
        {
          "internalType": "uint256",
          "name": "tokenId",
          "type": "uint256"
        }
      ],
      "name": "getApproved",
      "outputs": [
        {
          "internalType": "address",
          "name": "",
          "type": "address"
        }
      ],
      "stateMutability": "view",
      "type": "function"
    },
    {
      "inputs": [
        {
          "internalType": "address",
          "name": "_address",
          "type": "address"
        }
      ],
      "name": "getOriginatorPlatformIdByAddress",
      "outputs": [
        {
          "internalType": "uint256",
          "name": "",
          "type": "uint256"
        }
      ],
      "stateMutability": "view",
      "type": "function"
    },
    {
      "inputs": [
        {
          "internalType": "uint256",
          "name": "_profileId",
          "type": "uint256"
        }
      ],
      "name": "getProfile",
      "outputs": [
        {
          "components": [
            {
              "internalType": "uint256",
              "name": "id",
              "type": "uint256"
            },
            {
              "internalType": "string",
              "name": "handle",
              "type": "string"
            },
            {
              "internalType": "uint256",
              "name": "platformId",
              "type": "uint256"
            },
            {
              "internalType": "string",
              "name": "dataUri",
              "type": "string"
            }
          ],
          "internalType": "struct TalentLayerID.Profile",
          "name": "",
          "type": "tuple"
        }
      ],
      "stateMutability": "view",
      "type": "function"
    },
    {
      "inputs": [
        {
          "internalType": "uint256",
          "name": "_profileId",
          "type": "uint256"
        },
        {
          "internalType": "uint256",
          "name": "_strategyId",
          "type": "uint256"
        }
      ],
      "name": "getThirdPartyId",
      "outputs": [
        {
          "internalType": "bytes",
          "name": "",
          "type": "bytes"
        }
      ],
      "stateMutability": "view",
      "type": "function"
    },
    {
      "inputs": [
        {
          "internalType": "uint256",
          "name": "_thirdPartyStrategyId",
          "type": "uint256"
        }
      ],
      "name": "getThirdPartyStrategy",
      "outputs": [
        {
          "internalType": "address",
          "name": "",
          "type": "address"
        }
      ],
      "stateMutability": "view",
      "type": "function"
    },
    {
      "inputs": [
        {
          "internalType": "address",
          "name": "",
          "type": "address"
        }
      ],
      "name": "hasBeenRecovered",
      "outputs": [
        {
          "internalType": "bool",
          "name": "",
          "type": "bool"
        }
      ],
      "stateMutability": "view",
      "type": "function"
    },
    {
      "inputs": [
        {
          "internalType": "address",
          "name": "owner",
          "type": "address"
        },
        {
          "internalType": "address",
          "name": "operator",
          "type": "address"
        }
      ],
      "name": "isApprovedForAll",
      "outputs": [
        {
          "internalType": "bool",
          "name": "",
          "type": "bool"
        }
      ],
      "stateMutability": "view",
      "type": "function"
    },
    {
      "inputs": [
        {
          "internalType": "uint256",
          "name": "_tokenId",
          "type": "uint256"
        }
      ],
      "name": "isValid",
      "outputs": [],
      "stateMutability": "view",
      "type": "function"
    },
    {
      "inputs": [
        {
          "internalType": "uint256",
          "name": "_platformId",
          "type": "uint256"
        },
        {
          "internalType": "string",
          "name": "_handle",
          "type": "string"
        },
        {
          "internalType": "uint256[]",
          "name": "_thirdPartiesStrategiesID",
          "type": "uint256[]"
        }
      ],
      "name": "mint",
      "outputs": [],
      "stateMutability": "payable",
      "type": "function"
    },
    {
      "inputs": [],
      "name": "mintFee",
      "outputs": [
        {
          "internalType": "uint256",
          "name": "",
          "type": "uint256"
        }
      ],
      "stateMutability": "view",
      "type": "function"
    },
    {
      "inputs": [],
      "name": "name",
      "outputs": [
        {
          "internalType": "string",
          "name": "",
          "type": "string"
        }
      ],
      "stateMutability": "view",
      "type": "function"
    },
    {
      "inputs": [
        {
          "internalType": "address",
          "name": "_user",
          "type": "address"
        }
      ],
      "name": "numberMinted",
      "outputs": [
        {
          "internalType": "uint256",
          "name": "",
          "type": "uint256"
        }
      ],
      "stateMutability": "view",
      "type": "function"
    },
    {
      "inputs": [],
      "name": "owner",
      "outputs": [
        {
          "internalType": "address",
          "name": "",
          "type": "address"
        }
      ],
      "stateMutability": "view",
      "type": "function"
    },
    {
      "inputs": [
        {
          "internalType": "uint256",
          "name": "tokenId",
          "type": "uint256"
        }
      ],
      "name": "ownerOf",
      "outputs": [
        {
          "internalType": "address",
          "name": "",
          "type": "address"
        }
      ],
      "stateMutability": "view",
      "type": "function"
    },
    {
      "inputs": [
        {
          "internalType": "uint256",
          "name": "",
          "type": "uint256"
        },
        {
          "internalType": "uint256",
          "name": "",
          "type": "uint256"
        }
      ],
      "name": "profileIdToStrategyIdToThirdPartyId",
      "outputs": [
        {
          "internalType": "bytes",
          "name": "",
          "type": "bytes"
        }
      ],
      "stateMutability": "view",
      "type": "function"
    },
    {
      "inputs": [
        {
          "internalType": "uint256",
          "name": "",
          "type": "uint256"
        }
      ],
      "name": "profiles",
      "outputs": [
        {
          "internalType": "uint256",
          "name": "id",
          "type": "uint256"
        },
        {
          "internalType": "string",
          "name": "handle",
          "type": "string"
        },
        {
          "internalType": "uint256",
          "name": "platformId",
          "type": "uint256"
        },
        {
          "internalType": "string",
          "name": "dataUri",
          "type": "string"
        }
      ],
      "stateMutability": "view",
      "type": "function"
    },
    {
      "inputs": [
        {
          "internalType": "address",
          "name": "_oldAddress",
          "type": "address"
        },
        {
          "internalType": "uint256",
          "name": "_tokenId",
          "type": "uint256"
        },
        {
          "internalType": "uint256",
          "name": "_index",
          "type": "uint256"
        },
        {
          "internalType": "uint256",
          "name": "_recoveryKey",
          "type": "uint256"
        },
        {
          "internalType": "string",
          "name": "_handle",
          "type": "string"
        },
        {
          "internalType": "bytes32[]",
          "name": "_merkleProof",
          "type": "bytes32[]"
        }
      ],
      "name": "recoverAccount",
      "outputs": [],
      "stateMutability": "nonpayable",
      "type": "function"
    },
    {
      "inputs": [],
      "name": "recoveryRoot",
      "outputs": [
        {
          "internalType": "bytes32",
          "name": "",
          "type": "bytes32"
        }
      ],
      "stateMutability": "view",
      "type": "function"
    },
    {
      "inputs": [],
      "name": "renounceOwnership",
      "outputs": [],
      "stateMutability": "nonpayable",
      "type": "function"
    },
    {
      "inputs": [
        {
          "internalType": "address",
          "name": "from",
          "type": "address"
        },
        {
          "internalType": "address",
          "name": "to",
          "type": "address"
        },
        {
          "internalType": "uint256",
          "name": "tokenId",
          "type": "uint256"
        }
      ],
      "name": "safeTransferFrom",
      "outputs": [],
      "stateMutability": "nonpayable",
      "type": "function"
    },
    {
      "inputs": [
        {
          "internalType": "address",
          "name": "from",
          "type": "address"
        },
        {
          "internalType": "address",
          "name": "to",
          "type": "address"
        },
        {
          "internalType": "uint256",
          "name": "tokenId",
          "type": "uint256"
        },
        {
          "internalType": "bytes",
          "name": "_data",
          "type": "bytes"
        }
      ],
      "name": "safeTransferFrom",
      "outputs": [],
      "stateMutability": "nonpayable",
      "type": "function"
    },
    {
      "inputs": [
        {
          "internalType": "address",
          "name": "operator",
          "type": "address"
        },
        {
          "internalType": "bool",
          "name": "approved",
          "type": "bool"
        }
      ],
      "name": "setApprovalForAll",
      "outputs": [],
      "stateMutability": "nonpayable",
      "type": "function"
    },
    {
      "inputs": [
        {
          "internalType": "uint256",
          "name": "_thirdPartyStrategyId",
          "type": "uint256"
        },
        {
          "internalType": "address",
          "name": "_thirdStrategyPartyAddress",
          "type": "address"
        }
      ],
      "name": "setThirdPartyStrategy",
      "outputs": [],
      "stateMutability": "nonpayable",
      "type": "function"
    },
    {
      "inputs": [
        {
          "internalType": "bytes4",
          "name": "interfaceId",
          "type": "bytes4"
        }
      ],
      "name": "supportsInterface",
      "outputs": [
        {
          "internalType": "bool",
          "name": "",
          "type": "bool"
        }
      ],
      "stateMutability": "view",
      "type": "function"
    },
    {
      "inputs": [],
      "name": "symbol",
      "outputs": [
        {
          "internalType": "string",
          "name": "",
          "type": "string"
        }
      ],
      "stateMutability": "view",
      "type": "function"
    },
    {
      "inputs": [
        {
          "internalType": "string",
          "name": "",
          "type": "string"
        }
      ],
      "name": "takenHandles",
      "outputs": [
        {
          "internalType": "bool",
          "name": "",
          "type": "bool"
        }
      ],
      "stateMutability": "view",
      "type": "function"
    },
    {
      "inputs": [],
      "name": "talentLayerPlatformIdContract",
      "outputs": [
        {
          "internalType": "contract ITalentLayerPlatformID",
          "name": "",
          "type": "address"
        }
      ],
      "stateMutability": "view",
      "type": "function"
    },
    {
      "inputs": [
        {
          "internalType": "uint256",
          "name": "",
          "type": "uint256"
        }
      ],
      "name": "thirdPartiesIdStrategies",
      "outputs": [
        {
          "internalType": "address",
          "name": "",
          "type": "address"
        }
      ],
      "stateMutability": "view",
      "type": "function"
    },
    {
      "inputs": [
        {
          "internalType": "uint256",
          "name": "tokenId",
          "type": "uint256"
        }
      ],
      "name": "tokenURI",
      "outputs": [
        {
          "internalType": "string",
          "name": "",
          "type": "string"
        }
      ],
      "stateMutability": "view",
      "type": "function"
    },
    {
      "inputs": [],
      "name": "totalSupply",
      "outputs": [
        {
          "internalType": "uint256",
          "name": "",
          "type": "uint256"
        }
      ],
      "stateMutability": "view",
      "type": "function"
    },
    {
      "inputs": [
        {
          "internalType": "address",
          "name": "from",
          "type": "address"
        },
        {
          "internalType": "address",
          "name": "to",
          "type": "address"
        },
        {
          "internalType": "uint256",
          "name": "tokenId",
          "type": "uint256"
        }
      ],
      "name": "transferFrom",
      "outputs": [],
      "stateMutability": "nonpayable",
      "type": "function"
    },
    {
      "inputs": [
        {
          "internalType": "address",
          "name": "newOwner",
          "type": "address"
        }
      ],
      "name": "transferOwnership",
      "outputs": [],
      "stateMutability": "nonpayable",
      "type": "function"
    },
    {
      "inputs": [
        {
          "internalType": "uint256",
          "name": "_mintFee",
          "type": "uint256"
        }
      ],
      "name": "updateMintFee",
      "outputs": [],
      "stateMutability": "nonpayable",
      "type": "function"
    },
    {
      "inputs": [
        {
          "internalType": "uint256",
          "name": "_tokenId",
          "type": "uint256"
        },
        {
          "internalType": "string",
          "name": "_newCid",
          "type": "string"
        }
      ],
      "name": "updateProfileData",
      "outputs": [],
      "stateMutability": "nonpayable",
      "type": "function"
    },
    {
      "inputs": [
        {
          "internalType": "bytes32",
          "name": "_newRoot",
          "type": "bytes32"
        }
      ],
      "name": "updateRecoveryRoot",
      "outputs": [],
      "stateMutability": "nonpayable",
      "type": "function"
    },
    {
      "inputs": [
        {
          "internalType": "address",
          "name": "_owner",
          "type": "address"
        }
      ],
      "name": "walletOfOwner",
      "outputs": [
        {
          "internalType": "uint256",
          "name": "",
          "type": "uint256"
        }
      ],
      "stateMutability": "view",
      "type": "function"
    },
    {
      "inputs": [],
      "name": "withdraw",
      "outputs": [],
      "stateMutability": "nonpayable",
      "type": "function"
    }
  ],
  "bytecode": "0x60806040523480156200001157600080fd5b5060405162004dfb38038062004dfb8339810160408190526200003491620001d0565b604080518082018252600d81526c15185b195b9d13185e595c9251609a1b60208083019182528351808501909452600384526215125160ea1b90840152815191929162000084916002916200012a565b5080516200009a9060039060208401906200012a565b5050600160005550620000ad33620000d8565b600980546001600160a01b0319166001600160a01b03929092169190911790556000600b556200023f565b600880546001600160a01b038381166001600160a01b0319831681179093556040519116919082907f8be0079c531659141344cd1fd0a4f28419497f9722a3daafe3b4186f6b6457e090600090a35050565b828054620001389062000202565b90600052602060002090601f0160209004810192826200015c5760008555620001a7565b82601f106200017757805160ff1916838001178555620001a7565b82800160010185558215620001a7579182015b82811115620001a75782518255916020019190600101906200018a565b50620001b5929150620001b9565b5090565b5b80821115620001b55760008155600101620001ba565b600060208284031215620001e357600080fd5b81516001600160a01b0381168114620001fb57600080fd5b9392505050565b600181811c908216806200021757607f821691505b602082108114156200023957634e487b7160e01b600052602260045260246000fd5b50919050565b614bac806200024f6000396000f3fe60806040526004361061023b5760003560e01c806360fc48cc1161012e578063c36fe3d6116100ab578063e985e9c51161006f578063e985e9c5146106df578063f08f4f6414610728578063f160068f14610755578063f2fde38b14610775578063f577a5001461079557600080fd5b8063c36fe3d61461061f578063c87b56dd1461064f578063ce1b56671461066f578063dc33e6811461068f578063de829592146106af57600080fd5b80638da5cb5b116100f25780638da5cb5b1461058c57806395d89b41146105aa578063a22cb465146105bf578063aff6f3bf146105df578063b88d4fde146105ff57600080fd5b806360fc48cc146105045780636352211e1461051757806370a0823114610537578063715018a61461055757806384017e521461056c57600080fd5b806323b872dd116101bc578063438b630011610180578063438b63001461044e57806346f0f0521461046e57806351540e58146104a4578063530a1335146104c45780635c4b0348146104e457600080fd5b806323b872dd146103d95780632567c4c6146103f95780633ccfd60b146104195780633ce12f6d1461042e57806342842e0e146103d957600080fd5b806313966db51161020357806313966db5146103275780631499f9e61461034b57806318160ddd1461036b57806319aeca93146103885780632106beec1461039e57600080fd5b806301ffc9a71461024057806306fdde0314610275578063081812fc14610297578063095ea7b3146102cf5780630e8b2272146102f1575b600080fd5b34801561024c57600080fd5b5061026061025b3660046126ef565b6107b5565b60405190151581526020015b60405180910390f35b34801561028157600080fd5b5061028a610807565b60405161026c9190612764565b3480156102a357600080fd5b506102b76102b2366004612777565b610899565b6040516001600160a01b03909116815260200161026c565b3480156102db57600080fd5b506102ef6102ea3660046127ac565b6108dd565b005b3480156102fd57600080fd5b506102b761030c366004612777565b6000908152600e60205260409020546001600160a01b031690565b34801561033357600080fd5b5061033d600b5481565b60405190815260200161026c565b34801561035757600080fd5b506009546102b7906001600160a01b031681565b34801561037757600080fd5b50600154600054036000190161033d565b34801561039457600080fd5b5061033d600a5481565b3480156103aa57600080fd5b506102606103b93660046128a1565b8051602081830181018051600c8252928201919093012091525460ff1681565b3480156103e557600080fd5b506102ef6103f43660046128d5565b505050565b34801561040557600080fd5b506102ef61041436600461295c565b61097d565b34801561042557600080fd5b506102ef610dcc565b34801561043a57600080fd5b506102ef610449366004612777565b610e6f565b34801561045a57600080fd5b5061033d610469366004612a26565b610e7c565b34801561047a57600080fd5b506102b7610489366004612777565b600e602052600090815260409020546001600160a01b031681565b3480156104b057600080fd5b506102ef6104bf366004612a41565b610f05565b3480156104d057600080fd5b5061028a6104df366004612a6d565b610f91565b3480156104f057600080fd5b5061033d6104ff366004612a26565b6110d5565b6102ef610512366004612b0e565b6110fd565b34801561052357600080fd5b506102b7610532366004612777565b611333565b34801561054357600080fd5b5061033d610552366004612a26565b61133e565b34801561056357600080fd5b506102ef61138c565b34801561057857600080fd5b506102ef610587366004612777565b6113a0565b34801561059857600080fd5b506008546001600160a01b03166102b7565b3480156105b657600080fd5b5061028a6113e3565b3480156105cb57600080fd5b506102ef6105da366004612b88565b6113f2565b3480156105eb57600080fd5b5061028a6105fa366004612a6d565b611488565b34801561060b57600080fd5b506102ef61061a366004612bbf565b61152d565b34801561062b57600080fd5b5061063f61063a366004612777565b61156c565b60405161026c9493929190612c3a565b34801561065b57600080fd5b5061028a61066a366004612777565b6116a5565b34801561067b57600080fd5b506102ef61068a366004612c6b565b6116b0565b34801561069b57600080fd5b5061033d6106aa366004612a26565b6116db565b3480156106bb57600080fd5b506102606106ca366004612a26565b60106020526000908152604090205460ff1681565b3480156106eb57600080fd5b506102606106fa366004612cb1565b6001600160a01b03918216600090815260076020908152604080832093909416825291909152205460ff1690565b34801561073457600080fd5b50610748610743366004612777565b6116e6565b60405161026c9190612cdb565b34801561076157600080fd5b506102ef610770366004612d31565b611893565b34801561078157600080fd5b506102ef610790366004612a26565b611963565b3480156107a157600080fd5b506102ef6107b0366004612777565b6119d9565b60006301ffc9a760e01b6001600160e01b0319831614806107e657506380ac58cd60e01b6001600160e01b03198316145b806108015750635b5e139f60e01b6001600160e01b03198316145b92915050565b60606002805461081690612d6d565b80601f016020809104026020016040519081016040528092919081815260200182805461084290612d6d565b801561088f5780601f106108645761010080835404028352916020019161088f565b820191906000526020600020905b81548152906001019060200180831161087257829003601f168201915b5050505050905090565b60006108a482611a3f565b6108c1576040516333d1c03960e21b815260040160405180910390fd5b506000908152600660205260409020546001600160a01b031690565b60006108e882611333565b9050336001600160a01b038216146109215761090481336106fa565b610921576040516367d9dca160e11b815260040160405180910390fd5b60008281526006602052604080822080546001600160a01b0319166001600160a01b0387811691821790925591518593918516917f8c5be1e5ebec7d5bd14f71427d1e84f3dd0314c0f7b2291e5b200ac8c7c3b92591a4505050565b6001600160a01b03881660009081526010602052604081205460ff16156109fb5760405162461bcd60e51b815260206004820152602760248201527f5468697320616464726573732068617320616c7265616479206265656e20726560448201526618dbdd995c995960ca1b60648201526084015b60405180910390fd5b886001600160a01b0316610a0e89611333565b6001600160a01b031614610a705760405162461bcd60e51b815260206004820152602360248201527f596f7520617265206e6f7420746865206f776e6572206f66207468697320746f60448201526235b2b760e91b60648201526084016109f2565b610a79336116db565b15610ac65760405162461bcd60e51b815260206004820152601860248201527f596f7520616c72656164792068617665206120746f6b656e000000000000000060448201526064016109f2565b8484604051602001610ad9929190612da8565b60408051601f19818403018152828252805160209182012060008c8152600d8352929092209192610b0e926001019101612db8565b6040516020818303038152906040528051906020012014610b625760405162461bcd60e51b815260206004820152600e60248201526d496e76616c69642068616e646c6560901b60448201526064016109f2565b60405163c3c5a54760e01b815233600482015260009081906001600160a01b0384169063c3c5a5479060240160006040518083038186803b158015610ba657600080fd5b505afa158015610bba573d6000803e3d6000fd5b505050506040513d6000823e601f3d908101601f19168201604052610be29190810190612e54565b9150915081610c595760405162461bcd60e51b815260206004820152603a60248201527f596f75206e65656420746f2075736520616e206164647265737320726567697360448201527f7465726564206f6e2050726f6f66206f662048756d616e69747900000000000060648201526084016109f2565b6000898989898f604051602001610c74959493929190612ee0565b604051602081830303815290604052805190602001209050610ccd86868080602002602001604051908101604052809392919081815260200183836020028082843760009201919091525050600a549150849050611a74565b610d235760405162461bcd60e51b815260206004820152602160248201527f4d65726b6c654469737472696275746f723a20496e76616c69642070726f6f666044820152601760f91b60648201526084016109f2565b6001600160a01b038c166000908152601060209081526040808320805460ff191660019081179091558e8452600d909252909120610d63910189896125cc565b50610d6f8c338d611a8a565b8b6001600160a01b0316336001600160a01b03167fe27a76891cb9f3da59f6b7d03f64aee72f85a390754515a420a189491dc795de8a8a8f604051610db693929190612f1c565b60405180910390a3505050505050505050505050565b610dd4611b90565b604051600090339047908381818185875af1925050503d8060008114610e16576040519150601f19603f3d011682016040523d82523d6000602084013e610e1b565b606091505b5050905080610e6c5760405162461bcd60e51b815260206004820152601860248201527f4661696c656420746f207769746864726177204574686572000000000000000060448201526064016109f2565b50565b610e77611b90565b600a55565b6000806001815b60015460005403600019018211610efc576000610e9f83611bea565b90508060400151158015610ebc575080516001600160a01b031615155b15610ec657805191505b856001600160a01b0316826001600160a01b03161415610ee95782935050610efc565b82610ef381612f6b565b93505050610e83565b50909392505050565b610f0d611b90565b6001600160a01b038116610f635760405162461bcd60e51b815260206004820152601c60248201527f537472617465677920616464726573732063616e6e6f7420626520300000000060448201526064016109f2565b6000918252600e602052604090912080546001600160a01b0319166001600160a01b03909216919091179055565b6060610f9c83611a3f565b610fb85760405162461bcd60e51b81526004016109f290612f86565b6000828152600e60205260409020546001600160a01b031661102b5760405162461bcd60e51b815260206004820152602660248201527f54616c656e744c6179657249443a20537472617465677920646f6573206e6f7460448201526508195e1a5cdd60d21b60648201526084016109f2565b6000838152600f602090815260408083208584529091529020805461104f90612d6d565b80601f016020809104026020016040519081016040528092919081815260200182805461107b90612d6d565b80156110c85780601f1061109d576101008083540402835291602001916110c8565b820191906000526020600020905b8154815290600101906020018083116110ab57829003601f168201915b5050505050905092915050565b6000600d60006110e484610e7c565b8152602001908152602001600020600201549050919050565b8183600b54341461115c5760405162461bcd60e51b8152602060048201526024808201527f496e636f727265637420616d6f756e74206f662045544820666f72206d696e746044820152632066656560e01b60648201526084016109f2565b611165336116db565b156111b25760405162461bcd60e51b815260206004820181905260248201527f596f7520616c7265616479206861766520612054616c656e744c61796572494460448201526064016109f2565b6002825110156111f75760405162461bcd60e51b815260206004820152601060248201526f12185b991b19481d1bdbc81cda1bdc9d60821b60448201526064016109f2565b600a8251111561123b5760405162461bcd60e51b815260206004820152600f60248201526e48616e646c6520746f6f206c6f6e6760881b60448201526064016109f2565b600c8260405161124b9190612fe7565b9081526040519081900360200190205460ff16156112a25760405162461bcd60e51b81526020600482015260146024820152732430b73236329030b63932b0b23c903a30b5b2b760611b60448201526064016109f2565b60095460405162f577a560e81b8152600481018390526001600160a01b039091169063f577a5009060240160006040518083038186803b1580156112e557600080fd5b505afa1580156112f9573d6000803e3d6000fd5b50505050600061130860005490565b9050611315336001611c61565b61132185600088611c7b565b61132b8185611d3d565b505050505050565b600061080182611fb8565b60006001600160a01b038216611367576040516323d3ad8160e21b815260040160405180910390fd5b506001600160a01b03166000908152600560205260409020546001600160401b031690565b611394611b90565b61139e6000612028565b565b6113a8611b90565b600b8190556040518181527f38fbb1c8b109c430f0c030e7ed076cf5611a307773a4e8e365601e8f8bceaec69060200160405180910390a150565b60606003805461081690612d6d565b6001600160a01b03821633141561141c5760405163b06307db60e01b815260040160405180910390fd5b3360008181526007602090815260408083206001600160a01b03871680855290835292819020805460ff191686151590811790915590519081529192917f17307eab39ab6107e8899845ad3d59bd9653f200f220920489ca2b5937696c31910160405180910390a35050565b600f602090815260009283526040808420909152908252902080546114ac90612d6d565b80601f01602080910402602001604051908101604052809291908181526020018280546114d890612d6d565b80156115255780601f106114fa57610100808354040283529160200191611525565b820191906000526020600020905b81548152906001019060200180831161150857829003601f168201915b505050505081565b6001600160a01b0383163b15611566576115498484848461207a565b611566576040516368d2bf6b60e11b815260040160405180910390fd5b50505050565b600d602052600090815260409020805460018201805491929161158e90612d6d565b80601f01602080910402602001604051908101604052809291908181526020018280546115ba90612d6d565b80156116075780601f106115dc57610100808354040283529160200191611607565b820191906000526020600020905b8154815290600101906020018083116115ea57829003601f168201915b50505050509080600201549080600301805461162290612d6d565b80601f016020809104026020016040519081016040528092919081815260200182805461164e90612d6d565b801561169b5780601f106116705761010080835404028352916020019161169b565b820191906000526020600020905b81548152906001019060200180831161167e57829003601f168201915b5050505050905084565b606061080182612172565b336116ba83611333565b6001600160a01b0316146116cd57600080fd5b6116d78282611d3d565b5050565b60006108018261133e565b6117116040518060800160405280600081526020016060815260200160008152602001606081525090565b61171a82611a3f565b6117365760405162461bcd60e51b81526004016109f290612f86565b600d60008381526020019081526020016000206040518060800160405290816000820154815260200160018201805461176e90612d6d565b80601f016020809104026020016040519081016040528092919081815260200182805461179a90612d6d565b80156117e75780601f106117bc576101008083540402835291602001916117e7565b820191906000526020600020905b8154815290600101906020018083116117ca57829003601f168201915b505050505081526020016002820154815260200160038201805461180a90612d6d565b80601f016020809104026020016040519081016040528092919081815260200182805461183690612d6d565b80156118835780601f1061185857610100808354040283529160200191611883565b820191906000526020600020905b81548152906001019060200180831161186657829003601f168201915b5050505050815250509050919050565b3361189d83611333565b6001600160a01b0316146118b057600080fd5b60008151116119015760405162461bcd60e51b815260206004820152601f60248201527f53686f756c642070726f7669646520612076616c69642049504653205552490060448201526064016109f2565b6000828152600d60209081526040909120825161192692600390920191840190612650565b50817f613807bd6768f626264e7eb664a65ca99a0d930f8fd8a5b868491a592eb57f72826040516119579190612764565b60405180910390a25050565b61196b611b90565b6001600160a01b0381166119d05760405162461bcd60e51b815260206004820152602660248201527f4f776e61626c653a206e6577206f776e657220697320746865207a65726f206160448201526564647265737360d01b60648201526084016109f2565b610e6c81612028565b6000811180156119f3575060015460005403600019018111155b610e6c5760405162461bcd60e51b815260206004820152601f60248201527f596f7572204944206973206e6f7420612076616c696420746f6b656e2049440060448201526064016109f2565b600081600111158015611a53575060005482105b8015610801575050600090815260046020526040902054600160e01b161590565b600082611a81858461229c565b14949350505050565b6000611a9582611fb8565b90506001600160a01b038316611abe57604051633a954ecd60e21b815260040160405180910390fd5b6001600160a01b038481166000908152600560205260408082208054600019019055918516808252919020805460010190554260a01b17600160e11b17600083815260046020526040902055600160e11b8116611b495760018201600081815260046020526040902054611b47576000548114611b475760008181526004602052604090208290555b505b81836001600160a01b0316856001600160a01b03167fddf252ad1be2c89b69c2b068fc378daa952ba7f163c4a11628f55a4df523b3ef60405160405180910390a450505050565b6008546001600160a01b0316331461139e5760405162461bcd60e51b815260206004820181905260248201527f4f776e61626c653a2063616c6c6572206973206e6f7420746865206f776e657260448201526064016109f2565b604080516080810182526000808252602082018190529181018290526060810191909152610801611c1a83611fb8565b604080516080810182526001600160a01b038316815260a083901c6001600160401b03166020820152600160e01b831615159181019190915260e89190911c606082015290565b6116d78282604051806020016040528060008152506122e9565b60006001611c8860005490565b611c929190613003565b6000818152600d6020908152604090912060028101859055865192935091611cc291600184019190880190612650565b506001600c86604051611cd59190612fe7565b908152604051908190036020018120805492151560ff1990931692909217909155600b5433917fb04779a1cbc204eb57d83e8b7da4a89e2bb550e71807dfcb8f312ee4d73b5f6f91611d2e9186918a918a918a9161301a565b60405180910390a25050505050565b33611d4783611333565b6001600160a01b031614611d5a57600080fd5b6000805b82518110156115665760006001600160a01b0316611daa848381518110611d8757611d87613050565b60200260200101516000908152600e60205260409020546001600160a01b031690565b6001600160a01b03161415611df75760405162461bcd60e51b8152602060048201526013602482015272125b9d985b1a59081cdd1c985d1959de481251606a1b60448201526064016109f2565b611e0c838281518110611d8757611d87613050565b60405163c3c5a54760e01b815233600482015290925060009081906001600160a01b0385169063c3c5a5479060240160006040518083038186803b158015611e5357600080fd5b505afa158015611e67573d6000803e3d6000fd5b505050506040513d6000823e601f3d908101601f19168201604052611e8f9190810190612e54565b9150915081611f195760405162461bcd60e51b815260206004820152604a60248201527f596f75206e65656420746f2075736520616e206164647265737320726567697360448201527f7465726564206f6e207468652073656c656374656420746869726420706172746064820152697920706c6174666f726d60b01b608482015260a4016109f2565b6000868152600f602052604081208651839290889087908110611f3e57611f3e613050565b602002602001015181526020019081526020016000209080519060200190611f67929190612650565b507f517954f9b470c5693f1cbfdf4b6a725b19428c8f0ff92c8e287f727afaaf5fdc868683604051611f9b93929190613066565b60405180910390a150508080611fb090612f6b565b915050611d5e565b6000818060011161200f5760005481101561200f57600081815260046020526040902054600160e01b811661200d575b80612006575060001901600081815260046020526040902054611fe8565b9392505050565b505b604051636f96cda160e11b815260040160405180910390fd5b600880546001600160a01b038381166001600160a01b0319831681179093556040519116919082907f8be0079c531659141344cd1fd0a4f28419497f9722a3daafe3b4186f6b6457e090600090a35050565b604051630a85bd0160e11b81526000906001600160a01b0385169063150b7a02906120af9033908990889088906004016130c7565b602060405180830381600087803b1580156120c957600080fd5b505af19250505080156120f9575060408051601f3d908101601f191682019092526120f691810190613104565b60015b612154573d808015612127576040519150601f19603f3d011682016040523d82523d6000602084013e61212c565b606091505b50805161214c576040516368d2bf6b60e11b815260040160405180910390fd5b805181602001fd5b6001600160e01b031916630a85bd0160e11b1490505b949350505050565b6000818152600d602052604081206001018054606092919061219390612d6d565b80601f01602080910402602001604051908101604052809291908181526020018280546121bf90612d6d565b801561220c5780601f106121e15761010080835404028352916020019161220c565b820191906000526020600020905b8154815290600101906020018083116121ef57829003601f168201915b50505050509050600061223d826040516020016122299190613121565b604051602081830303815290604052612356565b60405160200161224d91906149c0565b60405160208183030381529060405290506122748282604051602001612229929190614a05565b6040516020016122849190614a98565b60405160208183030381529060405292505050919050565b600081815b84518110156122e1576122cd828683815181106122c0576122c0613050565b60200260200101516124a9565b9150806122d981612f6b565b9150506122a1565b509392505050565b6122f383836124d5565b6001600160a01b0383163b156103f4576000548281035b61231d600086838060010194508661207a565b61233a576040516368d2bf6b60e11b815260040160405180910390fd5b81811061230a57816000541461234f57600080fd5b5050505050565b606081516000141561237657505060408051602081019091526000815290565b6000604051806060016040528060408152602001614b3760409139905060006003845160026123a59190614add565b6123af9190614af5565b6123ba906004614b17565b6001600160401b038111156123d1576123d16127d6565b6040519080825280601f01601f1916602001820160405280156123fb576020820181803683370190505b509050600182016020820185865187015b80821015612467576003820191508151603f8160121c168501518453600184019350603f81600c1c168501518453600184019350603f8160061c168501518453600184019350603f811685015184535060018301925061240c565b505060038651066001811461248357600281146124965761249e565b603d6001830353603d600283035361249e565b603d60018303535b509195945050505050565b60008183106124c5576000828152602084905260409020612006565b5060009182526020526040902090565b600054816124f65760405163b562e8dd60e01b815260040160405180910390fd5b6001600160a01b03831660008181526005602090815260408083208054680100000000000000018802019055848352600490915281206001851460e11b4260a01b178317905582840190839083907fddf252ad1be2c89b69c2b068fc378daa952ba7f163c4a11628f55a4df523b3ef8180a4600183015b8181146125a557808360007fddf252ad1be2c89b69c2b068fc378daa952ba7f163c4a11628f55a4df523b3ef600080a460010161256d565b50816125c357604051622e076360e81b815260040160405180910390fd5b60005550505050565b8280546125d890612d6d565b90600052602060002090601f0160209004810192826125fa5760008555612640565b82601f106126135782800160ff19823516178555612640565b82800160010185558215612640579182015b82811115612640578235825591602001919060010190612625565b5061264c9291506126c4565b5090565b82805461265c90612d6d565b90600052602060002090601f01602090048101928261267e5760008555612640565b82601f1061269757805160ff1916838001178555612640565b82800160010185558215612640579182015b828111156126405782518255916020019190600101906126a9565b5b8082111561264c57600081556001016126c5565b6001600160e01b031981168114610e6c57600080fd5b60006020828403121561270157600080fd5b8135612006816126d9565b60005b8381101561272757818101518382015260200161270f565b838111156115665750506000910152565b6000815180845261275081602086016020860161270c565b601f01601f19169290920160200192915050565b6020815260006120066020830184612738565b60006020828403121561278957600080fd5b5035919050565b80356001600160a01b03811681146127a757600080fd5b919050565b600080604083850312156127bf57600080fd5b6127c883612790565b946020939093013593505050565b634e487b7160e01b600052604160045260246000fd5b604051601f8201601f191681016001600160401b0381118282101715612814576128146127d6565b604052919050565b60006001600160401b03821115612835576128356127d6565b50601f01601f191660200190565b60006128566128518461281c565b6127ec565b905082815283838301111561286a57600080fd5b828260208301376000602084830101529392505050565b600082601f83011261289257600080fd5b61200683833560208501612843565b6000602082840312156128b357600080fd5b81356001600160401b038111156128c957600080fd5b61216a84828501612881565b6000806000606084860312156128ea57600080fd5b6128f384612790565b925061290160208501612790565b9150604084013590509250925092565b60008083601f84011261292357600080fd5b5081356001600160401b0381111561293a57600080fd5b6020830191508360208260051b850101111561295557600080fd5b9250929050565b60008060008060008060008060c0898b03121561297857600080fd5b61298189612790565b975060208901359650604089013595506060890135945060808901356001600160401b03808211156129b257600080fd5b818b0191508b601f8301126129c657600080fd5b8135818111156129d557600080fd5b8c60208285010111156129e757600080fd5b6020830196508095505060a08b0135915080821115612a0557600080fd5b50612a128b828c01612911565b999c989b5096995094979396929594505050565b600060208284031215612a3857600080fd5b61200682612790565b60008060408385031215612a5457600080fd5b82359150612a6460208401612790565b90509250929050565b60008060408385031215612a8057600080fd5b50508035926020909101359150565b600082601f830112612aa057600080fd5b813560206001600160401b03821115612abb57612abb6127d6565b8160051b612aca8282016127ec565b9283528481018201928281019087851115612ae457600080fd5b83870192505b84831015612b0357823582529183019190830190612aea565b979650505050505050565b600080600060608486031215612b2357600080fd5b8335925060208401356001600160401b0380821115612b4157600080fd5b612b4d87838801612881565b93506040860135915080821115612b6357600080fd5b50612b7086828701612a8f565b9150509250925092565b8015158114610e6c57600080fd5b60008060408385031215612b9b57600080fd5b612ba483612790565b91506020830135612bb481612b7a565b809150509250929050565b60008060008060808587031215612bd557600080fd5b612bde85612790565b9350612bec60208601612790565b92506040850135915060608501356001600160401b03811115612c0e57600080fd5b8501601f81018713612c1f57600080fd5b612c2e87823560208401612843565b91505092959194509250565b848152608060208201526000612c536080830186612738565b8460408401528281036060840152612b038185612738565b60008060408385031215612c7e57600080fd5b8235915060208301356001600160401b03811115612c9b57600080fd5b612ca785828601612a8f565b9150509250929050565b60008060408385031215612cc457600080fd5b612ccd83612790565b9150612a6460208401612790565b60208152815160208201526000602083015160806040840152612d0160a0840182612738565b9050604084015160608401526060840151601f19848303016080850152612d288282612738565b95945050505050565b60008060408385031215612d4457600080fd5b8235915060208301356001600160401b03811115612d6157600080fd5b612ca785828601612881565b600181811c90821680612d8157607f821691505b60208210811415612da257634e487b7160e01b600052602260045260246000fd5b50919050565b8183823760009101908152919050565b600080835481600182811c915080831680612dd457607f831692505b6020808410821415612df457634e487b7160e01b86526022600452602486fd5b818015612e085760018114612e1957612e46565b60ff19861689528489019650612e46565b60008a81526020902060005b86811015612e3e5781548b820152908501908301612e25565b505084890196505b509498975050505050505050565b60008060408385031215612e6757600080fd5b8251612e7281612b7a565b60208401519092506001600160401b03811115612e8e57600080fd5b8301601f81018513612e9f57600080fd5b8051612ead6128518261281c565b818152866020838501011115612ec257600080fd5b612ed382602083016020860161270c565b8093505050509250929050565b8581528460208201528284604083013760609190911b6bffffffffffffffffffffffff1916604091909201908101919091526054019392505050565b604081528260408201528284606083013760006060848301015260006060601f19601f8601168301019050826020830152949350505050565b634e487b7160e01b600052601160045260246000fd5b6000600019821415612f7f57612f7f612f55565b5060010190565b60208082526025908201527f54616c656e744c6179657249443a2050726f66696c6520646f6573206e6f7420604082015264195e1a5cdd60da1b606082015260800190565b60008151612fdd81856020860161270c565b9290920192915050565b60008251612ff981846020870161270c565b9190910192915050565b60008282101561301557613015612f55565b500390565b85815260a06020820152600061303360a0830187612738565b941515604083015250606081019290925260809091015292915050565b634e487b7160e01b600052603260045260246000fd5b6000606082018583526020606081850152818651808452608086019150828801935060005b818110156130a75784518352938301939183019160010161308b565b505084810360408601526130bb8187612738565b98975050505050505050565b6001600160a01b03858116825284166020820152604081018390526080606082018190526000906130fa90830184612738565b9695505050505050565b60006020828403121561311657600080fd5b8151612006816126d9565b7f3c73766720786d6c6e733d22687474703a2f2f7777772e77332e6f72672f323081527f30302f737667222076696577426f783d223020302037323020373230223e3c6460208201527f6566733e3c6c696e6561724772616469656e742069643d2261222078313d223660408201527f372e3934222079313d223136392e3438222078323d223637302e39382220793260608201527f3d223536322e383622206772616469656e74556e6974733d227573657253706160808201527f63654f6e557365223e3c73746f70206f66667365743d2230222073746f702d6360a08201527f6f6c6f723d2223313761396332222f3e3c73746f70206f66667365743d222e3160c08201527f32222073746f702d636f6c6f723d2223316161396263222f3e3c73746f70206f60e08201527f66667365743d222e3239222073746f702d636f6c6f723d2223323561626162226101008201527f2f3e3c73746f70206f66667365743d222e3438222073746f702d636f6c6f723d6101208201527f2223333561643866222f3e3c73746f70206f66667365743d222e3634222073746101408201527f6f702d636f6c6f723d2223343862303732222f3e3c73746f70206f66667365746101608201527f3d222e3738222073746f702d636f6c6f723d2223353962323534222f3e3c73746101808201527f6f70206f66667365743d2231222073746f702d636f6c6f723d222337616237326101a08201527f30222f3e3c2f6c696e6561724772616469656e743e3c2f646566733e3c7061746101c08201527f68207374796c653d2266696c6c3a75726c282361292220643d224d30203068376101e08201527f32307637323048307a222f3e3c7061746820643d224d34372e30352039322e336102008201527f375635332e38344833332e32395634366833362e383576372e38344835362e346102208201527f317633382e3532682d392e33365a6d33352e37312d32332e33342d382e30372d6102408201527f312e3436632e39312d332e323520322e34372d352e363520342e36382d372e326102608201527f3120322e32312d312e353620352e352d322e333420392e38372d322e333420336102808201527f2e3936203020362e39322e343720382e383620312e343120312e39342e3934206102a08201527f332e333120322e313320342e3120332e353773312e313920342e3120312e31396102c08201527f20372e39366c2d2e312031302e3337633020322e39352e313420352e31332e346102e08201527f3320362e35332e323820312e342e383220322e393120312e3620342e3531682d6103008201527f382e3739632d2e32332d2e35392d2e35322d312e34372d2e38352d322e36332d6103208201527f2e31352d2e35332d2e32352d2e38382d2e33322d312e30342d312e353220312e6103408201527f34382d332e313420322e35382d342e383720332e3332732d332e353720312e316103608201527f312d352e353420312e3131632d332e343620302d362e31382d2e39342d382e316103808201527f382d322e38322d312e39392d312e38382d322e39392d342e32352d322e39392d6103a08201527f372e313220302d312e392e34352d332e353920312e33362d352e303873322e316103c08201527f382d322e363320332e38312d332e343220332e39392d312e343820372e30372d6103e08201527f322e303763342e31352d2e373820372e30332d312e353120382e36332d322e316104008201527f38762d2e383963302d312e37312d2e34322d322e39332d312e32372d332e36356104208201527f732d322e34342d312e30392d342e37382d312e3039632d312e353820302d322e6104408201527f38322e33312d332e372e39332d2e38392e36322d312e3620312e37312d322e316104608201527f3520332e32375a6d31312e383920372e3231632d312e31342e33382d322e39346104808201527f2e38332d352e343120312e33362d322e34372e35332d342e303820312e30342d6104a08201527f342e383420312e35352d312e31362e38322d312e373420312e38372d312e37346104c08201527f20332e3133732e343620322e333220312e333920332e3233632e39332e3931206104e08201527f322e313120312e333620332e353420312e333620312e36203020332e31332d2e6105008201527f353320342e35392d312e353820312e30382d2e3820312e37382d312e373820326105208201527f2e31322d322e39342e32332d2e37362e33352d322e322e33352d342e3333762d6105408201527f312e37375a6d31372e34392031362e313356343668382e38397634362e3337686105608201527f2d382e38395a6d33372e34352d31302e363920382e383620312e3439632d312e6105808201527f313420332e32352d322e393420352e37322d352e333920372e3432732d352e356105a08201527f3320322e35352d392e323220322e3535632d352e383420302d31302e31362d316105c08201527f2e39312d31322e39372d352e37322d322e32312d332e30362d332e33322d362e6105e08201527f39322d332e33322d31312e353820302d352e353720312e34362d392e393320346106008201527f2e33362d31332e303820322e39312d332e313520362e35392d342e37332031316106208201527f2e30342d342e37332035203020382e393420312e36352031312e383320342e396106408201527f3573342e323720382e333620342e31342031352e3137682d32322e3237632e306106608201527f3620322e36342e373820342e363920322e313520362e313520312e333720312e6106808201527f343720332e303820322e3220352e313220322e3220312e3339203020322e35366106a08201527f2d2e333820332e35312d312e31342e39352d2e373620312e36372d312e3938206106c08201527f322e31352d332e36375a6d2e35312d382e3938632d2e30362d322e35372d2e376106e08201527f332d342e35332d312e39392d352e38372d312e32372d312e33342d322e38312d6107008201527f322e30312d342e36322d322e30312d312e393420302d332e35342e37312d342e6107208201527f383120322e31322d312e323720312e34312d312e383920332e33332d312e38376107408201527f20352e37366831332e32385a6d34362e36322031392e3637682d382e383956376107608201527f352e323363302d332e36332d2e31392d352e39372d2e35372d372e30342d2e336107808201527f382d312e30362d312d312e38392d312e38352d322e3438732d312e38382d2e386107a08201527f392d332e30382d2e3839632d312e353420302d322e39322e34322d342e3134206107c08201527f312e3237732d322e303620312e39362d322e353120332e3335632d2e343520316107e08201527f2e33392d2e363820332e39362d2e363820372e37327631352e3231682d382e386108008201527f395635382e373868382e323676342e393363322e39332d332e3820362e36322d6108208201527f352e36392031312e30372d352e363920312e3936203020332e37352e333520356108408201527f2e333820312e303620312e36322e373120322e383520312e363120332e3638206108608201527f322e372e383320312e3120312e343120322e333420312e373420332e3733732e6108808201527f343920332e33382e343920352e39387632302e38385a6d32342e34322d33332e6108a08201527f353976372e3038682d362e30375637392e34633020322e37342e303620342e336108c08201527f342e313720342e37392e31322e34352e33382e38332e373920312e31322e34316108e08201527f2e332e39312e343420312e352e34342e3832203020322e30312d2e323820332e6109008201527f35372d2e38356c2e373620362e39632d322e30372e38392d342e343120312e336109208201527f332d372e303220312e33332d312e3620302d332e30352d2e32372d342e33332d6109408201527f2e38312d312e32392d2e35342d322e32332d312e32332d322e38332d322e30396109608201527f2d2e362d2e38352d312e30322d322e30312d312e32352d332e34362d2e31392d6109808201527f312e30332d2e32382d332e31322d2e32382d362e32365636352e3836682d342e6109a08201527f3038762d372e303868342e3038762d362e36376c382e39322d352e31397631316109c08201527f2e383668362e30375a6d362e32362033332e353956343668362e31347634302e6109e08201527f396832322e383476352e3437682d32382e39375a6d35372e34372d342e313463610a008201527f2d322e313120312e37392d342e313420332e30362d362e303920332e382d312e610a208201527f39352e37342d342e303420312e31312d362e323820312e31312d332e36392030610a408201527f2d362e35332d2e392d382e35312d322e372d312e39382d312e382d322e39372d610a608201527f342e31312d322e39372d362e393120302d312e36342e33372d332e313520312e610a808201527f31322d342e353173312e37332d322e343520322e39342d332e323763312e3231610aa08201527f2d2e383220322e35382d312e343420342e312d312e383720312e31322d2e3320610ac08201527f322e382d2e353820352e30362d2e383520342e362d2e353520372e39382d312e610ae08201527f322031302e31352d312e39362e30322d2e37382e30332d312e32382e30332d31610b008201527f2e343920302d322e33322d2e35342d332e39352d312e36312d342e392d312e34610b208201527f362d312e32392d332e36322d312e39332d362e34382d312e39332d322e363820610b408201527f302d342e36352e34372d352e393320312e3431732d322e323220322e362d322e610b608201527f383320342e39386c2d352e35372d2e3736632e35312d322e333820312e33342d610b808201527f342e333120322e352d352e373720312e31362d312e343720322e38342d322e35610ba08201527f3920352e30332d332e333820322e31392d2e373920342e37332d312e31392037610bc08201527f2e36322d312e313973352e322e333420362e393920312e303163312e37392e36610be08201527f3820332e313120312e353220332e393520322e35352e383420312e303220312e610c008201527f343320322e333120312e373720332e38382e31392e39372e323820322e37322e610c208201527f323820352e323576372e3539633020352e32392e313220382e36342e33362031610c408201527f302e30342e323420312e342e373220322e373520312e343420342e3033682d35610c608201527f2e3935632d2e35392d312e31382d2e39372d322e35362d312e31342d342e3134610c808201527f5a6d2d2e34372d31322e3732632d322e30372e38342d352e313720312e35362d610ca08201527f392e3320322e31352d322e33342e33342d34202e37322d342e393720312e3134610cc08201527f2d2e39372e34322d312e373220312e30342d322e323520312e3835732d2e3739610ce08201527f20312e37312d2e373920322e37633020312e35322e353720322e373820312e37610d008201527f3220332e3820312e313520312e303120322e383320312e353220352e30352031610d208201527f2e353273342e31342d2e343820352e38352d312e343420322e39362d322e3237610d408201527f20332e37362d332e3934632e36312d312e32392e39322d332e31382e39322d35610d608201527f2e3639762d322e30395a6d31342e33332032392e382d2e36332d352e33356331610d808201527f2e32342e333420322e33332e353120332e32362e353120312e3237203020322e610da08201527f32382d2e323120332e30342d2e363373312e33382d312e303120312e38372d31610dc08201527f2e3737632e33362d2e35372e39342d312e393820312e37342d342e32342e3131610de08201527f2d2e33322e32372d2e37382e35312d312e33396c2d31322e37352d33332e3635610e008201527f68362e31346c362e39392031392e3435632e393120322e343720312e37322035610e208201527f2e303620322e343420372e37382e36352d322e363120312e34332d352e313720610e408201527f322e33342d372e36356c372e31382d31392e353868352e36396c2d31322e3738610e608201527f2033342e3136632d312e333720332e36392d322e343420362e32332d332e3139610e808201527f20372e36322d312e303120312e38382d322e313720332e32352d332e34382034610ea08201527f2e31332d312e33312e38382d322e383720312e33312d342e363820312e33312d610ec08201527f312e3120302d322e33322d2e32332d332e36372d2e375a6d35352e36332d3233610ee08201527f2e373620352e38382e3733632d2e393320332e34342d322e363520362e312d35610f008201527f2e313620382d322e353120312e392d352e373120322e38352d392e363220322e610f208201527f38352d342e393120302d382e38312d312e35312d31312e36392d342e35342d32610f408201527f2e38382d332e30332d342e33322d372e32372d342e33322d31322e373373312e610f608201527f34362d31302e303420342e33362d31332e313663322e39312d332e313220362e610f808201527f36382d342e36382031312e33322d342e363873382e313620312e35332031312e610fa08201527f303120342e353963322e383520332e303620342e323720372e333620342e3237610fc08201527f2031322e39312030202e33342d2e30312e38342d2e303320312e3532682d3235610fe08201527f2e3035632e323120332e363920312e323520362e353220332e313320382e34386110008201527f20312e383820312e393620342e323220322e393420372e303220322e393420326110208201527f2e3039203020332e38372d2e353520352e33352d312e363420312e34382d312e6110408201527f3120322e36352d322e383520332e35312d352e32355a6d2d31382e36392d392e6110608201527f326831382e3736632d2e32352d322e38332d2e39372d342e39342d322e31352d6110808201527f362e33362d312e38312d322e31392d342e31372d332e32392d372e30352d332e6110a08201527f32392d322e363120302d342e38312e38382d362e3620322e3633732d322e37376110c08201527f20342e30392d322e393620372e30325a6d33312e36362032302e30325635382e6110e08201527f373868352e313276352e303963312e33312d322e333820322e35312d332e39356111008201527f20332e36322d342e373173322e33322d312e313420332e36352d312e313463316111208201527f2e3932203020332e38372e363120352e383520312e38336c2d312e393620352e6111408201527f3238632d312e33392d2e38322d322e37382d312e32332d342e31382d312e32336111608201527f2d312e323420302d322e33362e33372d332e333520312e31322d2e39392e37356111808201527f2d312e3720312e37392d322e313220332e31322d2e363320322e30322d2e39356111a08201527f20342e32342d2e393520362e36347631372e3539682d352e36395a6d32312e376111c08201527f39203056343668392e33367634362e3337682d392e33365a4d3430372e3337206111e08201527f34366831372e313163332e3836203020362e382e3320382e38332e383920322e6112008201527f37322e3820352e303520322e323220362e393920342e323720312e393420322e6112208201527f303520332e343220342e353520342e343320372e353120312e303120322e39366112408201527f20312e353220362e363220312e35322031302e3936203020332e38322d2e34376112608201527f20372e31312d312e343220392e38372d312e313620332e33372d322e383220366112808201527f2e312d342e393720382e31392d312e363220312e35382d332e383220322e38326112a08201527f2d362e353820332e372d322e30372e36352d342e38332e39382d382e32392e396112c08201527f38682d31372e36325634365a6d392e333620372e38347633302e373168362e396112e08201527f3963322e3631203020342e352d2e313520352e36362d2e343420312e35322d2e6113008201527f333820322e37382d312e303220332e37382d312e393320312d2e393120312e386113208201527f322d322e3420322e34352d342e34382e36332d322e30382e39352d342e39312e6113408201527f39352d382e3439732d2e33322d362e33342d2e39352d382e32362d312e35322d6113608201527f332e34322d322e36362d342e34392d322e35382d312e382d342e33332d322e316113808201527f38632d312e33312d2e332d332e38372d2e34342d372e36392d2e3434682d342e6113a08201527f32315a22207374796c653d2266696c6c3a23666666222f3e3c7465787420793d6113c08201527f223637302220783d22333022207374796c653d22666f6e743a373070782073616113e082015273373996b9b2b934b31db334b6361d11b33333111f60611b61140082015260006120066149a7611414840185612fcb565b6c1e17ba32bc3a1f1e17b9bb339f60991b8152600d0190565b7f646174613a696d6167652f7376672b786d6c3b6261736536342c0000000000008152600082516149f881601a85016020870161270c565b91909101601a0192915050565b683d913730b6b2911d1160b91b81528251600090614a2a81600985016020880161270c565b6b1116101134b6b0b3b2911d1160a11b6009918401918201528351614a5681601584016020880161270c565b7f222c20226465736372697074696f6e223a202254616c656e744c617965722049601592909101918201526244227d60e81b6035820152603801949350505050565b7f646174613a6170706c69636174696f6e2f6a736f6e3b6261736536342c000000815260008251614ad081601d85016020870161270c565b91909101601d0192915050565b60008219821115614af057614af0612f55565b500190565b600082614b1257634e487b7160e01b600052601260045260246000fd5b500490565b6000816000190483118215151615614b3157614b31612f55565b50029056fe4142434445464748494a4b4c4d4e4f505152535455565758595a6162636465666768696a6b6c6d6e6f707172737475767778797a303132333435363738392b2fa2646970667358221220b3af85ef410eac98f4313b26e1b611f431f08f705b00f731943e2bad4ef0454964736f6c63430008090033",
  "linkReferences": {},
  "deployedLinkReferences": {}
}