{
  "_format": "hh-sol-artifact-1",
  "contractName": "TalentLayerEscrow",
  "sourceName": "contracts/TalentLayerEscrow.sol",
  "abi": [
    {
      "inputs": [],
      "stateMutability": "nonpayable",
      "type": "constructor"
    },
    {
      "anonymous": false,
      "inputs": [
        {
          "indexed": false,
          "internalType": "address",
          "name": "previousAdmin",
          "type": "address"
        },
        {
          "indexed": false,
          "internalType": "address",
          "name": "newAdmin",
          "type": "address"
        }
      ],
      "name": "AdminChanged",
      "type": "event"
    },
    {
      "anonymous": false,
      "inputs": [
        {
          "indexed": true,
          "internalType": "uint256",
          "name": "_transactionId",
          "type": "uint256"
        },
        {
          "indexed": false,
          "internalType": "enum TalentLayerEscrow.ArbitrationFeePaymentType",
          "name": "_paymentType",
          "type": "uint8"
        },
        {
          "indexed": false,
          "internalType": "enum TalentLayerEscrow.Party",
          "name": "_party",
          "type": "uint8"
        },
        {
          "indexed": false,
          "internalType": "uint256",
          "name": "_amount",
          "type": "uint256"
        }
      ],
      "name": "ArbitrationFeePayment",
      "type": "event"
    },
    {
      "anonymous": false,
      "inputs": [
        {
          "indexed": true,
          "internalType": "address",
          "name": "beacon",
          "type": "address"
        }
      ],
      "name": "BeaconUpgraded",
      "type": "event"
    },
    {
      "anonymous": false,
      "inputs": [
        {
          "indexed": true,
          "internalType": "contract Arbitrator",
          "name": "_arbitrator",
          "type": "address"
        },
        {
          "indexed": true,
          "internalType": "uint256",
          "name": "_disputeID",
          "type": "uint256"
        },
        {
          "indexed": false,
          "internalType": "uint256",
          "name": "_metaEvidenceID",
          "type": "uint256"
        },
        {
          "indexed": false,
          "internalType": "uint256",
          "name": "_evidenceGroupID",
          "type": "uint256"
        }
      ],
      "name": "Dispute",
      "type": "event"
    },
    {
      "anonymous": false,
      "inputs": [
        {
          "indexed": true,
          "internalType": "contract Arbitrator",
          "name": "_arbitrator",
          "type": "address"
        },
        {
          "indexed": true,
          "internalType": "uint256",
          "name": "_evidenceGroupID",
          "type": "uint256"
        },
        {
          "indexed": true,
          "internalType": "address",
          "name": "_party",
          "type": "address"
        },
        {
          "indexed": false,
          "internalType": "string",
          "name": "_evidence",
          "type": "string"
        }
      ],
      "name": "Evidence",
      "type": "event"
    },
    {
      "anonymous": false,
      "inputs": [
        {
          "indexed": true,
          "internalType": "uint256",
          "name": "_transactionId",
          "type": "uint256"
        },
        {
          "indexed": true,
          "internalType": "uint256",
          "name": "_partyId",
          "type": "uint256"
        },
        {
          "indexed": false,
          "internalType": "string",
          "name": "_evidenceUri",
          "type": "string"
        }
      ],
      "name": "EvidenceSubmitted",
      "type": "event"
    },
    {
      "anonymous": false,
      "inputs": [
        {
          "indexed": false,
          "internalType": "uint256",
          "name": "_platformId",
          "type": "uint256"
        },
        {
          "indexed": true,
          "internalType": "address",
          "name": "_token",
          "type": "address"
        },
        {
          "indexed": false,
          "internalType": "uint256",
          "name": "_amount",
          "type": "uint256"
        }
      ],
      "name": "FeesClaimed",
      "type": "event"
    },
    {
      "anonymous": false,
      "inputs": [
        {
          "indexed": true,
          "internalType": "uint256",
          "name": "_transactionId",
          "type": "uint256"
        },
        {
          "indexed": false,
          "internalType": "enum TalentLayerEscrow.Party",
          "name": "_party",
          "type": "uint8"
        }
      ],
      "name": "HasToPayFee",
      "type": "event"
    },
    {
      "anonymous": false,
      "inputs": [
        {
          "indexed": false,
          "internalType": "uint8",
          "name": "version",
          "type": "uint8"
        }
      ],
      "name": "Initialized",
      "type": "event"
    },
    {
      "anonymous": false,
      "inputs": [
        {
          "indexed": true,
          "internalType": "uint256",
          "name": "_metaEvidenceID",
          "type": "uint256"
        },
        {
          "indexed": false,
          "internalType": "string",
          "name": "_evidence",
          "type": "string"
        }
      ],
      "name": "MetaEvidence",
      "type": "event"
    },
    {
      "anonymous": false,
      "inputs": [
        {
          "indexed": false,
          "internalType": "uint16",
          "name": "_originPlatformEscrowFeeRate",
          "type": "uint16"
        }
      ],
      "name": "OriginPlatformEscrowFeeRateUpdated",
      "type": "event"
    },
    {
      "anonymous": false,
      "inputs": [
        {
          "indexed": false,
          "internalType": "uint256",
          "name": "_platformId",
          "type": "uint256"
        },
        {
          "indexed": false,
          "internalType": "uint256",
          "name": "_serviceId",
          "type": "uint256"
        },
        {
          "indexed": true,
          "internalType": "address",
          "name": "_token",
          "type": "address"
        },
        {
          "indexed": false,
          "internalType": "uint256",
          "name": "_amount",
          "type": "uint256"
        }
      ],
      "name": "OriginPlatformFeeReleased",
      "type": "event"
    },
    {
      "anonymous": false,
      "inputs": [
        {
          "indexed": true,
          "internalType": "address",
          "name": "previousOwner",
          "type": "address"
        },
        {
          "indexed": true,
          "internalType": "address",
          "name": "newOwner",
          "type": "address"
        }
      ],
      "name": "OwnershipTransferred",
      "type": "event"
    },
    {
      "anonymous": false,
      "inputs": [
        {
          "indexed": false,
          "internalType": "uint256",
          "name": "_transactionId",
          "type": "uint256"
        },
        {
          "indexed": false,
          "internalType": "enum TalentLayerEscrow.PaymentType",
          "name": "_paymentType",
          "type": "uint8"
        },
        {
          "indexed": false,
          "internalType": "uint256",
          "name": "_amount",
          "type": "uint256"
        },
        {
          "indexed": false,
          "internalType": "address",
          "name": "_token",
          "type": "address"
        },
        {
          "indexed": false,
          "internalType": "uint256",
          "name": "_serviceId",
          "type": "uint256"
        }
      ],
      "name": "Payment",
      "type": "event"
    },
    {
      "anonymous": false,
      "inputs": [
        {
          "indexed": false,
          "internalType": "uint256",
          "name": "_serviceId",
          "type": "uint256"
        }
      ],
      "name": "PaymentCompleted",
      "type": "event"
    },
    {
      "anonymous": false,
      "inputs": [
        {
          "indexed": false,
          "internalType": "uint256",
          "name": "_platformId",
          "type": "uint256"
        },
        {
          "indexed": false,
          "internalType": "uint256",
          "name": "_serviceId",
          "type": "uint256"
        },
        {
          "indexed": true,
          "internalType": "address",
          "name": "_token",
          "type": "address"
        },
        {
          "indexed": false,
          "internalType": "uint256",
          "name": "_amount",
          "type": "uint256"
        }
      ],
      "name": "PlatformFeeReleased",
      "type": "event"
    },
    {
      "anonymous": false,
      "inputs": [
        {
          "indexed": false,
          "internalType": "uint16",
          "name": "_protocolEscrowFeeRate",
          "type": "uint16"
        }
      ],
      "name": "ProtocolEscrowFeeRateUpdated",
      "type": "event"
    },
    {
      "anonymous": false,
      "inputs": [
        {
          "indexed": true,
          "internalType": "contract Arbitrator",
          "name": "_arbitrator",
          "type": "address"
        },
        {
          "indexed": true,
          "internalType": "uint256",
          "name": "_disputeID",
          "type": "uint256"
        },
        {
          "indexed": false,
          "internalType": "uint256",
          "name": "_ruling",
          "type": "uint256"
        }
      ],
      "name": "Ruling",
      "type": "event"
    },
    {
      "anonymous": false,
      "inputs": [
        {
          "indexed": true,
          "internalType": "uint256",
          "name": "_transactionId",
          "type": "uint256"
        },
        {
          "indexed": false,
          "internalType": "uint256",
          "name": "_ruling",
          "type": "uint256"
        }
      ],
      "name": "RulingExecuted",
      "type": "event"
    },
    {
      "anonymous": false,
      "inputs": [
        {
          "indexed": false,
          "internalType": "uint256",
          "name": "serviceId",
          "type": "uint256"
        },
        {
          "indexed": false,
          "internalType": "uint256",
          "name": "sellerId",
          "type": "uint256"
        },
        {
          "indexed": false,
          "internalType": "uint256",
          "name": "transactionId",
          "type": "uint256"
        }
      ],
      "name": "ServiceProposalConfirmedWithDeposit",
      "type": "event"
    },
    {
      "anonymous": false,
      "inputs": [
        {
          "indexed": false,
          "internalType": "uint256",
          "name": "_transactionId",
          "type": "uint256"
        },
        {
          "indexed": false,
          "internalType": "uint256",
          "name": "_senderId",
          "type": "uint256"
        },
        {
          "indexed": false,
          "internalType": "uint256",
          "name": "_receiverId",
          "type": "uint256"
        },
        {
          "indexed": false,
          "internalType": "address",
          "name": "_token",
          "type": "address"
        },
        {
          "indexed": false,
          "internalType": "uint256",
          "name": "_amount",
          "type": "uint256"
        },
        {
          "indexed": false,
          "internalType": "uint256",
          "name": "_serviceId",
          "type": "uint256"
        },
        {
          "indexed": false,
          "internalType": "uint16",
          "name": "_protocolEscrowFeeRate",
          "type": "uint16"
        },
        {
          "indexed": false,
          "internalType": "uint16",
          "name": "_originPlatformEscrowFeeRate",
          "type": "uint16"
        },
        {
          "indexed": false,
          "internalType": "uint16",
          "name": "_platformEscrowFeeRate",
          "type": "uint16"
        },
        {
          "indexed": false,
          "internalType": "contract Arbitrator",
          "name": "_arbitrator",
          "type": "address"
        },
        {
          "indexed": false,
          "internalType": "bytes",
          "name": "_arbitratorExtraData",
          "type": "bytes"
        },
        {
          "indexed": false,
          "internalType": "uint256",
          "name": "_arbitrationFeeTimeout",
          "type": "uint256"
        }
      ],
      "name": "TransactionCreated",
      "type": "event"
    },
    {
      "anonymous": false,
      "inputs": [
        {
          "indexed": false,
          "internalType": "address",
          "name": "forwarder",
          "type": "address"
        }
      ],
      "name": "TrustedForwarderAdded",
      "type": "event"
    },
    {
      "anonymous": false,
      "inputs": [
        {
          "indexed": false,
          "internalType": "address",
          "name": "forwarder",
          "type": "address"
        }
      ],
      "name": "TrustedForwarderRemoved",
      "type": "event"
    },
    {
      "anonymous": false,
      "inputs": [
        {
          "indexed": true,
          "internalType": "address",
          "name": "implementation",
          "type": "address"
        }
      ],
      "name": "Upgraded",
      "type": "event"
    },
    {
      "inputs": [
        {
          "internalType": "address",
          "name": "_forwarder",
          "type": "address"
        }
      ],
      "name": "addTrustedForwarder",
      "outputs": [],
      "stateMutability": "nonpayable",
      "type": "function"
    },
    {
      "inputs": [
        {
          "internalType": "uint256",
          "name": "_transactionId",
          "type": "uint256"
        }
      ],
      "name": "appeal",
      "outputs": [],
      "stateMutability": "payable",
      "type": "function"
    },
    {
      "inputs": [
        {
          "internalType": "uint256",
          "name": "_platformId",
          "type": "uint256"
        },
        {
          "internalType": "address",
          "name": "_tokenAddress",
          "type": "address"
        }
      ],
      "name": "claim",
      "outputs": [],
      "stateMutability": "nonpayable",
      "type": "function"
    },
    {
      "inputs": [
        {
          "internalType": "uint256",
          "name": "_platformId",
          "type": "uint256"
        }
      ],
      "name": "claimAll",
      "outputs": [],
      "stateMutability": "nonpayable",
      "type": "function"
    },
    {
      "inputs": [
        {
          "internalType": "string",
          "name": "_metaEvidence",
          "type": "string"
        },
        {
          "internalType": "uint256",
          "name": "_serviceId",
          "type": "uint256"
        },
        {
          "internalType": "uint256",
          "name": "_proposalId",
          "type": "uint256"
        }
      ],
      "name": "createETHTransaction",
      "outputs": [
        {
          "internalType": "uint256",
          "name": "",
          "type": "uint256"
        }
      ],
      "stateMutability": "payable",
      "type": "function"
    },
    {
      "inputs": [
        {
          "internalType": "string",
          "name": "_metaEvidence",
          "type": "string"
        },
        {
          "internalType": "uint256",
          "name": "_serviceId",
          "type": "uint256"
        },
        {
          "internalType": "uint256",
          "name": "_proposalId",
          "type": "uint256"
        }
      ],
      "name": "createTokenTransaction",
      "outputs": [
        {
          "internalType": "uint256",
          "name": "",
          "type": "uint256"
        }
      ],
      "stateMutability": "nonpayable",
      "type": "function"
    },
    {
      "inputs": [
        {
          "internalType": "uint256",
          "name": "",
          "type": "uint256"
        }
      ],
      "name": "disputeIDtoTransactionID",
      "outputs": [
        {
          "internalType": "uint256",
          "name": "",
          "type": "uint256"
        }
      ],
      "stateMutability": "view",
      "type": "function"
    },
    {
      "inputs": [
        {
          "internalType": "address",
          "name": "_token",
          "type": "address"
        }
      ],
      "name": "getClaimableFeeBalance",
      "outputs": [
        {
          "internalType": "uint256",
          "name": "balance",
          "type": "uint256"
        }
      ],
      "stateMutability": "view",
      "type": "function"
    },
    {
      "inputs": [],
      "name": "getProtocolWallet",
      "outputs": [
        {
          "internalType": "address",
          "name": "",
          "type": "address"
        }
      ],
      "stateMutability": "view",
      "type": "function"
    },
    {
      "inputs": [
        {
          "internalType": "uint256",
          "name": "_transactionId",
          "type": "uint256"
        }
      ],
      "name": "getTransactionDetails",
      "outputs": [
        {
          "components": [
            {
              "internalType": "uint256",
              "name": "id",
              "type": "uint256"
            },
            {
              "internalType": "address",
              "name": "sender",
              "type": "address"
            },
            {
              "internalType": "address",
              "name": "receiver",
              "type": "address"
            },
            {
              "internalType": "address",
              "name": "token",
              "type": "address"
            },
            {
              "internalType": "uint256",
              "name": "amount",
              "type": "uint256"
            },
            {
              "internalType": "uint256",
              "name": "serviceId",
              "type": "uint256"
            },
            {
              "internalType": "uint16",
              "name": "protocolEscrowFeeRate",
              "type": "uint16"
            },
            {
              "internalType": "uint16",
              "name": "originPlatformEscrowFeeRate",
              "type": "uint16"
            },
            {
              "internalType": "uint16",
              "name": "platformEscrowFeeRate",
              "type": "uint16"
            },
            {
              "internalType": "uint256",
              "name": "disputeId",
              "type": "uint256"
            },
            {
              "internalType": "uint256",
              "name": "senderFee",
              "type": "uint256"
            },
            {
              "internalType": "uint256",
              "name": "receiverFee",
              "type": "uint256"
            },
            {
              "internalType": "uint256",
              "name": "lastInteraction",
              "type": "uint256"
            },
            {
              "internalType": "enum TalentLayerEscrow.Status",
              "name": "status",
              "type": "uint8"
            },
            {
              "internalType": "contract Arbitrator",
              "name": "arbitrator",
              "type": "address"
            },
            {
              "internalType": "bytes",
              "name": "arbitratorExtraData",
              "type": "bytes"
            },
            {
              "internalType": "uint256",
              "name": "arbitrationFeeTimeout",
              "type": "uint256"
            }
          ],
          "internalType": "struct TalentLayerEscrow.Transaction",
          "name": "transaction",
          "type": "tuple"
        }
      ],
      "stateMutability": "view",
      "type": "function"
    },
    {
      "inputs": [
        {
          "internalType": "address",
          "name": "_serviceRegistryAddress",
          "type": "address"
        },
        {
          "internalType": "address",
          "name": "_talentLayerIDAddress",
          "type": "address"
        },
        {
          "internalType": "address",
          "name": "_talentLayerPlatformIDAddress",
          "type": "address"
        },
        {
          "internalType": "address",
          "name": "_protocolWallet",
          "type": "address"
        }
      ],
      "name": "initialize",
      "outputs": [],
      "stateMutability": "nonpayable",
      "type": "function"
    },
    {
      "inputs": [
        {
          "internalType": "address",
          "name": "forwarder",
          "type": "address"
        }
      ],
      "name": "isTrustedForwarder",
      "outputs": [
        {
          "internalType": "bool",
          "name": "",
          "type": "bool"
        }
      ],
      "stateMutability": "view",
      "type": "function"
    },
    {
      "inputs": [],
      "name": "originPlatformEscrowFeeRate",
      "outputs": [
        {
          "internalType": "uint16",
          "name": "",
          "type": "uint16"
        }
      ],
      "stateMutability": "view",
      "type": "function"
    },
    {
      "inputs": [],
      "name": "owner",
      "outputs": [
        {
          "internalType": "address",
          "name": "",
          "type": "address"
        }
      ],
      "stateMutability": "view",
      "type": "function"
    },
    {
      "inputs": [
        {
          "internalType": "uint256",
          "name": "_transactionId",
          "type": "uint256"
        }
      ],
      "name": "payArbitrationFeeByReceiver",
      "outputs": [],
      "stateMutability": "payable",
      "type": "function"
    },
    {
      "inputs": [
        {
          "internalType": "uint256",
          "name": "_transactionId",
          "type": "uint256"
        }
      ],
      "name": "payArbitrationFeeBySender",
      "outputs": [],
      "stateMutability": "payable",
      "type": "function"
    },
    {
      "inputs": [],
      "name": "protocolEscrowFeeRate",
      "outputs": [
        {
          "internalType": "uint16",
          "name": "",
          "type": "uint16"
        }
      ],
      "stateMutability": "view",
      "type": "function"
    },
    {
      "inputs": [],
      "name": "proxiableUUID",
      "outputs": [
        {
          "internalType": "bytes32",
          "name": "",
          "type": "bytes32"
        }
      ],
      "stateMutability": "view",
      "type": "function"
    },
    {
      "inputs": [
        {
          "internalType": "uint256",
          "name": "_tokenId",
          "type": "uint256"
        },
        {
          "internalType": "uint256",
          "name": "_transactionId",
          "type": "uint256"
        },
        {
          "internalType": "uint256",
          "name": "_amount",
          "type": "uint256"
        }
      ],
      "name": "reimburse",
      "outputs": [],
      "stateMutability": "nonpayable",
      "type": "function"
    },
    {
      "inputs": [
        {
          "internalType": "uint256",
          "name": "_tokenId",
          "type": "uint256"
        },
        {
          "internalType": "uint256",
          "name": "_transactionId",
          "type": "uint256"
        },
        {
          "internalType": "uint256",
          "name": "_amount",
          "type": "uint256"
        }
      ],
      "name": "release",
      "outputs": [],
      "stateMutability": "nonpayable",
      "type": "function"
    },
    {
      "inputs": [
        {
          "internalType": "address",
          "name": "_forwarder",
          "type": "address"
        }
      ],
      "name": "removeTrustedForwarder",
      "outputs": [],
      "stateMutability": "nonpayable",
      "type": "function"
    },
    {
      "inputs": [],
      "name": "renounceOwnership",
      "outputs": [],
      "stateMutability": "nonpayable",
      "type": "function"
    },
    {
      "inputs": [
        {
          "internalType": "uint256",
          "name": "_disputeID",
          "type": "uint256"
        },
        {
          "internalType": "uint256",
          "name": "_ruling",
          "type": "uint256"
        }
      ],
      "name": "rule",
      "outputs": [],
      "stateMutability": "nonpayable",
      "type": "function"
    },
    {
      "inputs": [
        {
          "internalType": "uint256",
          "name": "_tokenId",
          "type": "uint256"
        },
        {
          "internalType": "uint256",
          "name": "_transactionId",
          "type": "uint256"
        },
        {
          "internalType": "string",
          "name": "_evidence",
          "type": "string"
        }
      ],
      "name": "submitEvidence",
      "outputs": [],
      "stateMutability": "nonpayable",
      "type": "function"
    },
    {
      "inputs": [
        {
          "internalType": "uint256",
          "name": "_transactionId",
          "type": "uint256"
        }
      ],
      "name": "timeOutByReceiver",
      "outputs": [],
      "stateMutability": "nonpayable",
      "type": "function"
    },
    {
      "inputs": [
        {
          "internalType": "uint256",
          "name": "_transactionId",
          "type": "uint256"
        }
      ],
      "name": "timeOutBySender",
      "outputs": [],
      "stateMutability": "nonpayable",
      "type": "function"
    },
    {
      "inputs": [
        {
          "internalType": "address",
          "name": "newOwner",
          "type": "address"
        }
      ],
      "name": "transferOwnership",
      "outputs": [],
      "stateMutability": "nonpayable",
      "type": "function"
    },
    {
      "inputs": [
        {
          "internalType": "uint16",
          "name": "_originPlatformEscrowFeeRate",
          "type": "uint16"
        }
      ],
      "name": "updateOriginPlatformEscrowFeeRate",
      "outputs": [],
      "stateMutability": "nonpayable",
      "type": "function"
    },
    {
      "inputs": [
        {
          "internalType": "uint16",
          "name": "_protocolEscrowFeeRate",
          "type": "uint16"
        }
      ],
      "name": "updateProtocolEscrowFeeRate",
      "outputs": [],
      "stateMutability": "nonpayable",
      "type": "function"
    },
    {
      "inputs": [
        {
          "internalType": "address payable",
          "name": "_protocolWallet",
          "type": "address"
        }
      ],
      "name": "updateProtocolWallet",
      "outputs": [],
      "stateMutability": "nonpayable",
      "type": "function"
    },
    {
      "inputs": [
        {
          "internalType": "address",
          "name": "newImplementation",
          "type": "address"
        }
      ],
      "name": "upgradeTo",
      "outputs": [],
      "stateMutability": "nonpayable",
      "type": "function"
    },
    {
      "inputs": [
        {
          "internalType": "address",
          "name": "newImplementation",
          "type": "address"
        },
        {
          "internalType": "bytes",
          "name": "data",
          "type": "bytes"
        }
      ],
      "name": "upgradeToAndCall",
      "outputs": [],
      "stateMutability": "payable",
      "type": "function"
    }
  ],
  "bytecode": "0x60a0604052306080523480156200001557600080fd5b506200002062000026565b620000e8565b600054610100900460ff1615620000935760405162461bcd60e51b815260206004820152602760248201527f496e697469616c697a61626c653a20636f6e747261637420697320696e697469604482015266616c697a696e6760c81b606482015260840160405180910390fd5b60005460ff9081161015620000e6576000805460ff191660ff9081179091556040519081527f7f26b83ff96e1f2b6a682f133852f6798a09c465da95921460cefb38474024989060200160405180910390a15b565b608051615c0a6200012060003960008181610cb101528181610cf1015281816116210152818161166101526116f00152615c0a6000f3fe6080604052600436106101e35760003560e01c80636e72b45211610102578063d0d3993b11610095578063eb63612d11610064578063eb63612d14610589578063f2fde38b146105a9578063f42cadc1146105c9578063f8c8765e146105e957600080fd5b8063d0d3993b14610507578063d9562b8614610527578063ddd5e1b214610549578063e308a0991461056957600080fd5b80638363def4116100d15780638363def4146104965780638b69fa0a146104a95780638da5cb5b146104c95780639dcc5daf146104e757600080fd5b80636e72b45214610448578063715018a61461045b5780637b44cdb5146104705780637e69b7b01461048357600080fd5b80633a1121cd1161017a57806352d1902d1161014957806352d1902d14610397578063572b6c05146103ac5780635a34257a146103f55780636930fd2a1461042a57600080fd5b80633a1121cd146103245780633de0c7ef14610344578063419f648f146103645780634f1ef2861461038457600080fd5b80632fbe3b03116101b65780632fbe3b0314610297578063311a6c56146102c45780633659cfe6146102e45780633751d89c1461030457600080fd5b80630a1a47d6146101e85780630fa683d31461021b578063117964341461024857806326d0066814610275575b600080fd5b3480156101f457600080fd5b50610208610203366004614d95565b610609565b6040519081526020015b60405180910390f35b34801561022757600080fd5b5061023b610236366004614db2565b610789565b6040516102129190614e4d565b34801561025457600080fd5b5061025d610a98565b6040516001600160a01b039091168152602001610212565b34801561028157600080fd5b50610295610290366004614d95565b610ab2565b005b3480156102a357600080fd5b506102086102b2366004614db2565b60d06020526000908152604090205481565b3480156102d057600080fd5b506102956102df366004614f8b565b610b15565b3480156102f057600080fd5b506102956102ff366004614d95565b610ca6565b34801561031057600080fd5b5061029561031f366004614d95565b610d83565b34801561033057600080fd5b5061029561033f366004614fad565b610ddc565b34801561035057600080fd5b5061029561035f366004614db2565b6111c4565b34801561037057600080fd5b5061020861037f366004615116565b611349565b610295610392366004615164565b611616565b3480156103a357600080fd5b506102086116e3565b3480156103b857600080fd5b506103e56103c7366004614d95565b6001600160a01b031660009081526065602052604090205460ff1690565b6040519015158152602001610212565b34801561040157600080fd5b5060ce5461041790600160a01b900461ffff1681565b60405161ffff9091168152602001610212565b34801561043657600080fd5b50610295610445366004614db2565b50565b610295610456366004614db2565b611796565b34801561046757600080fd5b50610295611a4f565b61029561047e366004614db2565b611a63565b610295610491366004614db2565b611cf7565b6102086104a4366004615116565b611dc6565b3480156104b557600080fd5b506102956104c43660046151c8565b612114565b3480156104d557600080fd5b506033546001600160a01b031661025d565b3480156104f357600080fd5b50610295610502366004614fad565b612471565b34801561051357600080fd5b50610295610522366004615228565b612859565b34801561053357600080fd5b5060ce5461041790600160b01b900461ffff1681565b34801561055557600080fd5b50610295610564366004615245565b6128b1565b34801561057557600080fd5b50610295610584366004614d95565b612a6b565b34801561059557600080fd5b506102956105a4366004615228565b612a95565b3480156105b557600080fd5b506102956105c4366004614d95565b612aed565b3480156105d557600080fd5b506102956105e4366004614db2565b612b63565b3480156105f557600080fd5b50610295610604366004615275565b612ce6565b600080610614612e60565b9050806001600160a01b03166106326033546001600160a01b031690565b6001600160a01b0316141561067d5750506001600160a01b031660009081527f4239c2c8c3d9b94feb214b0f54d7c869ce1ceb63517be57644336cda4967a468602052604090205490565b60ce5460405163aa44caaf60e01b81526001600160a01b038381166004830152600092169063aa44caaf9060240160206040518083038186803b1580156106c357600080fd5b505afa1580156106d7573d6000803e3d6000fd5b505050506040513d601f19601f820116820180604052508101906106fb91906152d1565b60ce5460405162f577a560e81b8152600481018390529192506001600160a01b03169063f577a5009060240160006040518083038186803b15801561073f57600080fd5b505afa158015610753573d6000803e3d6000fd5b50505060009182525060cb602090815260408083206001600160a01b039096168352949052929092205492915050565b50919050565b604080516102208101825260008082526020820181905291810182905260608082018390526080820183905260a0820183905260c0820183905260e08201839052610100820183905261012082018390526101408201839052610160820183905261018082018390526101a082018390526101c082018390526101e082015261020081019190915260ca54821061083b5760405162461bcd60e51b8152600401610832906152ea565b60405180910390fd5b600060ca838154811061085057610850615321565b90600052602060002090600e02019050600061086a612e60565b60018301549091506001600160a01b038083169116148061089a575060028201546001600160a01b038281169116145b6108f75760405162461bcd60e51b815260206004820152602860248201527f596f7520617265206e6f742072656c6174656420746f2074686973207472616e60448201526739b0b1ba34b7b71760c11b6064820152608401610832565b60408051610220810182528354815260018401546001600160a01b0390811660208301526002850154811692820192909252600384015490911660608201526004808401546080830152600584015460a0830152600684015461ffff80821660c0850152620100008204811660e0850152600160201b90910416610100830152600784015461012083015260088401546101408301526009840154610160830152600a840154610180830152600b84015484916101a084019160ff16908111156109c3576109c3614dcb565b60048111156109d4576109d4614dcb565b8152600b82015461010090046001600160a01b03166020820152600c82018054604090920191610a0390615337565b80601f0160208091040260200160405190810160405280929190818152602001828054610a2f90615337565b8015610a7c5780601f10610a5157610100808354040283529160200191610a7c565b820191906000526020600020905b815481529060010190602001808311610a5f57829003601f168201915b50505050508152602001600d8201548152505092505050919050565b6000610aa2612e99565b5060cf546001600160a01b031690565b610aba612e99565b6001600160a01b038116600081815260656020908152604091829020805460ff1916600117905590519182527f3ef8564460ada92419608d823c014975d98f8104d7d1e68c222967ac6814cd9791015b60405180910390a150565b6000610b1f612e60565b600084815260d0602052604081205460ca8054939450909283908110610b4757610b47615321565b90600052602060002090600e0201905080600b0160019054906101000a90046001600160a01b03166001600160a01b0316836001600160a01b031614610bda5760405162461bcd60e51b815260206004820152602260248201527f5468652063616c6c6572206d757374206265207468652061726269747261746f604482015261391760f11b6064820152608401610832565b6003600b82015460ff166004811115610bf557610bf5614dcb565b14610c515760405162461bcd60e51b815260206004820152602660248201527f54686520646973707574652068617320616c7265616479206265656e2072657360448201526537b63b32b21760d11b6064820152608401610832565b84836001600160a01b03167f394027a5fa6e098a1191094d1719d6929b9abc535fcc0c8f448d6a4e7562227686604051610c8d91815260200190565b60405180910390a3610c9f8285612f12565b5050505050565b306001600160a01b037f0000000000000000000000000000000000000000000000000000000000000000161415610cef5760405162461bcd60e51b81526004016108329061536c565b7f00000000000000000000000000000000000000000000000000000000000000006001600160a01b0316610d38600080516020615b6e833981519152546001600160a01b031690565b6001600160a01b031614610d5e5760405162461bcd60e51b8152600401610832906153b8565b610d6781613673565b604080516000808252602082019092526104459183919061367b565b610d8b612e99565b6001600160a01b038116600081815260656020908152604091829020805460ff1916905590519182527fd2d636efcad0cea42e170256f4c5d8b1cd81e47b855557edaf44014e6cc4cee69101610b0a565b60cd5483906001600160a01b0316632fa117e582610df8612e60565b6040516001600160e01b031960e085901b16815260048101929092526001600160a01b0316602482015260440160206040518083038186803b158015610e3d57600080fd5b505afa158015610e51573d6000803e3d6000fd5b505050506040513d601f19601f82011682018060405250810190610e759190615404565b610e915760405162461bcd60e51b815260040161083290615426565b60ca548310610eb25760405162461bcd60e51b8152600401610832906152ea565b600060ca8481548110610ec757610ec7615321565b6000918252602090912060cd546040516331a9108f60e11b815260048101899052600e90930290910192506001600160a01b031690636352211e9060240160206040518083038186803b158015610f1d57600080fd5b505afa158015610f31573d6000803e3d6000fd5b505050506040513d601f19601f82011682018060405250810190610f559190615455565b60018201546001600160a01b03908116911614610f845760405162461bcd60e51b815260040161083290615472565b6000600b82015460ff166004811115610f9f57610f9f614dcb565b14610fbc5760405162461bcd60e51b81526004016108329061549a565b82816004015410156110065760405162461bcd60e51b815260206004820152601360248201527224b739bab33334b1b4b2b73a10333ab732399760691b6044820152606401610832565b8281600401600082825461101a91906154f6565b909155505060408051610220810182528254815260018301546001600160a01b0390811660208301526002840154811692820192909252600383015490911660608201526004808301546080830152600583015460a0830152600683015461ffff80821660c0850152620100008204811660e0850152600160201b90910416610100830152600783015461012083015260088301546101408301526009830154610160830152600a830154610180830152600b830154610c9f929184916101a084019160ff909116908111156110f2576110f2614dcb565b600481111561110357611103614dcb565b8152600b82015461010090046001600160a01b03166020820152600c8201805460409092019161113290615337565b80601f016020809104026020016040519081016040528092919081815260200182805461115e90615337565b80156111ab5780601f10611180576101008083540402835291602001916111ab565b820191906000526020600020905b81548152906001019060200180831161118e57829003601f168201915b50505050508152602001600d82015481525050846137f5565b600060ca82815481106111d9576111d9615321565b60009182526020909120600e9091020190506001600b82015460ff16600481111561120657611206614dcb565b146112695760405162461bcd60e51b815260206004820152602d60248201527f546865207472616e73616374696f6e206973206e6f742077616974696e67206f60448201526c37103a34329039b2b73232b91760991b6064820152608401610832565b600d810154600a82015461127d90426154f6565b10156112cb5760405162461bcd60e51b815260206004820181905260248201527f54696d656f75742074696d6520686173206e6f7420706173736564207965742e6044820152606401610832565b60088101541561133a57600881018054600091829055600183015460405191926001600160a01b0390911691839181818185875af1925050503d8060008114611330576040519150601f19603f3d011682016040523d82523d6000602084013e611335565b606091505b505050505b611345826002612f12565b5050565b6000611353614c68565b61135b614ca1565b6000806113688787613b80565b60ce5460e0840151604051630b7a459360e31b8152600481019190915294985092965090945092506000916001600160a01b0390911690635bd22c989060240160006040518083038186803b1580156113c057600080fd5b505afa1580156113d4573d6000803e3d6000fd5b505050506040513d6000823e601f3d908101601f191682016040526113fc9190810190615575565b905060006114168660600151836060015161ffff16613cd8565b9050836001600160a01b031661142a612e60565b6001600160a01b0316146114505760405162461bcd60e51b815260040161083290615472565b60048551600481111561146557611465614dcb565b146114ad5760405162461bcd60e51b815260206004820152601860248201527729b2b93b34b1b29039ba30ba3ab9903737ba1037b832b71760411b6044820152606401610832565b6000865160028111156114c2576114c2614dcb565b1461150f5760405162461bcd60e51b815260206004820152601c60248201527f50726f706f73616c20737461747573206e6f742070656e64696e672e000000006044820152606401610832565b8786602001511461155b5760405162461bcd60e51b815260206004820152601660248201527524b731b7b93932b1ba10383937b837b9b0b61024a21760511b6044820152606401610832565b600061157b8a8a856060015186608001518760a001518860c00151613d3f565b60cc546040516353eaf57560e11b8152600481018d9052602481018c9052604481018390529192506001600160a01b03169063a7d5eaea90606401600060405180830381600087803b1580156115d057600080fd5b505af11580156115e4573d6000803e3d6000fd5b505050506115f785886040015184613feb565b611606818c89602001516140b8565b96505050505050505b9392505050565b306001600160a01b037f000000000000000000000000000000000000000000000000000000000000000016141561165f5760405162461bcd60e51b81526004016108329061536c565b7f00000000000000000000000000000000000000000000000000000000000000006001600160a01b03166116a8600080516020615b6e833981519152546001600160a01b031690565b6001600160a01b0316146116ce5760405162461bcd60e51b8152600401610832906153b8565b6116d782613673565b6113458282600161367b565b6000306001600160a01b037f000000000000000000000000000000000000000000000000000000000000000016146117835760405162461bcd60e51b815260206004820152603860248201527f555550535570677261646561626c653a206d757374206e6f742062652063616c60448201527f6c6564207468726f7567682064656c656761746563616c6c00000000000000006064820152608401610832565b50600080516020615b6e83398151915290565b600060ca82815481106117ab576117ab615321565b60009182526020909120600b600e909202019081015490915061010090046001600160a01b03166117ee5760405162461bcd60e51b815260040161083290615663565b6003600b82015460ff16600481111561180957611809614dcb565b106118265760405162461bcd60e51b815260040161083290615690565b60028101546001600160a01b031661183c612e60565b6001600160a01b0316146118925760405162461bcd60e51b815260206004820181905260248201527f5468652063616c6c6572206d757374206265207468652072656365697665722e6044820152606401610832565b600b81015460405163f7434ea960e01b815260009161010090046001600160a01b03169063f7434ea9906118cd90600c8601906004016157a4565b60206040518083038186803b1580156118e557600080fd5b505afa1580156118f9573d6000803e3d6000fd5b505050506040513d601f19601f8201168201806040525081019061191d91906152d1565b90503482600901600082825461193391906157b7565b9091555050600982015481146119b15760405162461bcd60e51b815260206004820152603760248201527f54686520726563656976657220666565206d75737420626520657175616c207460448201527f6f20746865206172626974726174696f6e20636f73742e0000000000000000006064820152608401610832565b42600a8301556040518390600080516020615b8e833981519152906119dd9060009060019034906157df565b60405180910390a28082600801541015611a4057600b8201805460ff1916600117905560405183907fc74b9f7dedf2887cd3c113b6d8da9cea19e55c1116e25f1f0e1b72d7543179b590611a3390600090615809565b60405180910390a2505050565b611a4a838261432a565b505050565b611a57612e99565b611a6160006145ac565b565b600060ca8281548110611a7857611a78615321565b60009182526020909120600b600e909202019081015490915061010090046001600160a01b0316611abb5760405162461bcd60e51b815260040161083290615663565b6003600b82015460ff166004811115611ad657611ad6614dcb565b10611af35760405162461bcd60e51b815260040161083290615690565b60018101546001600160a01b0316611b09612e60565b6001600160a01b031614611b5f5760405162461bcd60e51b815260206004820152601e60248201527f5468652063616c6c6572206d757374206265207468652073656e6465722e00006044820152606401610832565b600b81015460405163f7434ea960e01b815260009161010090046001600160a01b03169063f7434ea990611b9a90600c8601906004016157a4565b60206040518083038186803b158015611bb257600080fd5b505afa158015611bc6573d6000803e3d6000fd5b505050506040513d601f19601f82011682018060405250810190611bea91906152d1565b905034826008016000828254611c0091906157b7565b909155505060088201548114611c765760405162461bcd60e51b815260206004820152603560248201527f5468652073656e64657220666565206d75737420626520657175616c20746f206044820152743a34329030b93134ba3930ba34b7b71031b7b9ba1760591b6064820152608401610832565b42600a8301556040518390600080516020615b8e83398151915290611ca190600090819034906157df565b60405180910390a28082600901541015611a4057600b8201805460ff1916600217905560405183907fc74b9f7dedf2887cd3c113b6d8da9cea19e55c1116e25f1f0e1b72d7543179b590611a3390600190615809565b600060ca8281548110611d0c57611d0c615321565b60009182526020909120600b600e909202019081015490915061010090046001600160a01b0316611d4f5760405162461bcd60e51b815260040161083290615663565b600b810154600782015460405163093225f160e31b81526101009092046001600160a01b0316916349912f88913491611d909190600c87019060040161581c565b6000604051808303818588803b158015611da957600080fd5b505af1158015611dbd573d6000803e3d6000fd5b50505050505050565b6000611dd0614c68565b611dd8614ca1565b600080611de58787613b80565b60ce5460e0840151604051630b7a459360e31b8152600481019190915294985092965090945092506000916001600160a01b0390911690635bd22c989060240160006040518083038186803b158015611e3d57600080fd5b505afa158015611e51573d6000803e3d6000fd5b505050506040513d6000823e601f3d908101601f19168201604052611e799190810190615575565b90506000611e938660600151836060015161ffff16613cd8565b9050836001600160a01b0316611ea7612e60565b6001600160a01b031614611ecd5760405162461bcd60e51b815260040161083290615472565b803414611f125760405162461bcd60e51b81526020600482015260136024820152722737b716b6b0ba31b434b73390333ab732399760691b6044820152606401610832565b60408601516001600160a01b031615611f6d5760405162461bcd60e51b815260206004820152601760248201527f50726f706f73616c20746f6b656e206e6f74204554482e0000000000000000006044820152606401610832565b87866020015114611fb95760405162461bcd60e51b815260206004820152601660248201527524b731b7b93932b1ba10383937b837b9b0b61024a21760511b6044820152606401610832565b600485516004811115611fce57611fce614dcb565b146120165760405162461bcd60e51b815260206004820152601860248201527729b2b93b34b1b29039ba30ba3ab9903737ba1037b832b71760411b6044820152606401610832565b60008651600281111561202b5761202b614dcb565b146120785760405162461bcd60e51b815260206004820152601c60248201527f50726f706f73616c20737461747573206e6f742070656e64696e672e000000006044820152606401610832565b60006120988a8a856060015186608001518760a001518860c00151613d3f565b60cc546040516353eaf57560e11b8152600481018d9052602481018c9052604481018390529192506001600160a01b03169063a7d5eaea90606401600060405180830381600087803b1580156120ed57600080fd5b505af1158015612101573d6000803e3d6000fd5b50505050611606818c89602001516140b8565b60cd5483906001600160a01b0316632fa117e582612130612e60565b6040516001600160e01b031960e085901b16815260048101929092526001600160a01b0316602482015260440160206040518083038186803b15801561217557600080fd5b505afa158015612189573d6000803e3d6000fd5b505050506040513d601f19601f820116820180604052508101906121ad9190615404565b6121c95760405162461bcd60e51b815260040161083290615426565b600060ca84815481106121de576121de615321565b60009182526020909120600b600e909202019081015490915061010090046001600160a01b03166122215760405162461bcd60e51b815260040161083290615663565b60cd546040516331a9108f60e11b8152600481018790526000916001600160a01b031690636352211e9060240160206040518083038186803b15801561226657600080fd5b505afa15801561227a573d6000803e3d6000fd5b505050506040513d601f19601f8201168201806040525081019061229e9190615455565b60018301549091506001600160a01b03808316911614806122ce575060028201546001600160a01b038281169116145b61234a5760405162461bcd60e51b815260206004820152604160248201527f5468652063616c6c6572206d757374206265207468652073656e646572206f7260448201527f20746865207265636569766572206f722074686569722064656c6567617465736064820152601760f91b608482015260a401610832565b6004600b83015460ff16600481111561236557612365614dcb565b106123cd5760405162461bcd60e51b815260206004820152603260248201527f4d757374206e6f742073656e642065766964656e63652069662074686520646960448201527139b83aba329034b9903932b9b7b63b32b21760711b6064820152608401610832565b806001600160a01b03168583600b0160019054906101000a90046001600160a01b03166001600160a01b03167fdccf2f8b2cc26eafcd61905cba744cff4b81d14740725f6376390dc6298a6a3c876040516124289190615835565b60405180910390a485857fd998ce0f89c38b0f93256f0b843a404a3a3c5055b75265623f7cb9c369a1dd62866040516124619190615835565b60405180910390a3505050505050565b60cd5483906001600160a01b0316632fa117e58261248d612e60565b6040516001600160e01b031960e085901b16815260048101929092526001600160a01b0316602482015260440160206040518083038186803b1580156124d257600080fd5b505afa1580156124e6573d6000803e3d6000fd5b505050506040513d601f19601f8201168201806040525081019061250a9190615404565b6125265760405162461bcd60e51b815260040161083290615426565b60ca5483106125475760405162461bcd60e51b8152600401610832906152ea565b600060ca848154811061255c5761255c615321565b6000918252602090912060cd546040516331a9108f60e11b815260048101899052600e90930290910192506001600160a01b031690636352211e9060240160206040518083038186803b1580156125b257600080fd5b505afa1580156125c6573d6000803e3d6000fd5b505050506040513d601f19601f820116820180604052508101906125ea9190615455565b60028201546001600160a01b039081169116146126195760405162461bcd60e51b815260040161083290615472565b6000600b82015460ff16600481111561263457612634614dcb565b146126515760405162461bcd60e51b81526004016108329061549a565b828160040154101561269b5760405162461bcd60e51b815260206004820152601360248201527224b739bab33334b1b4b2b73a10333ab732399760691b6044820152606401610832565b828160040160008282546126af91906154f6565b909155505060408051610220810182528254815260018301546001600160a01b0390811660208301526002840154811692820192909252600383015490911660608201526004808301546080830152600583015460a0830152600683015461ffff80821660c0850152620100008204811660e0850152600160201b90910416610100830152600783015461012083015260088301546101408301526009830154610160830152600a830154610180830152600b830154610c9f929184916101a084019160ff9091169081111561278757612787614dcb565b600481111561279857612798614dcb565b8152600b82015461010090046001600160a01b03166020820152600c820180546040909201916127c790615337565b80601f01602080910402602001604051908101604052809291908181526020018280546127f390615337565b80156128405780601f1061281557610100808354040283529160200191612840565b820191906000526020600020905b81548152906001019060200180831161282357829003601f168201915b50505050508152602001600d82015481525050846145fe565b612861612e99565b60ce805461ffff60b01b1916600160b01b61ffff8416908102919091179091556040519081527f78767536bf48a9e89a8872ca83b572a79c615dac76748f6e47cd07f2e5e45f4e90602001610b0a565b60006128bb612e60565b6001600160a01b03166128d66033546001600160a01b031690565b6001600160a01b031614156129155782156129035760405162461bcd60e51b815260040161083290615472565b5060cf546001600160a01b03166129ef565b60ce5460405162f577a560e81b8152600481018590526001600160a01b039091169063f577a5009060240160006040518083038186803b15801561295857600080fd5b505afa15801561296c573d6000803e3d6000fd5b505060ce546040516331a9108f60e11b8152600481018790526001600160a01b039091169250636352211e915060240160206040518083038186803b1580156129b457600080fd5b505afa1580156129c8573d6000803e3d6000fd5b505050506040513d601f19601f820116820180604052508101906129ec9190615455565b90505b600083815260cb602090815260408083206001600160a01b038616845290915281208054919055612a218284836146c1565b60408051858152602081018390526001600160a01b038516917f2227733fc4c8a9034cb58087dcf6995128b9c0233b038b03366aaf30c92b92d6910160405180910390a250505050565b612a73612e99565b60cf80546001600160a01b0319166001600160a01b0392909216919091179055565b612a9d612e99565b60ce805461ffff60a01b1916600160a01b61ffff8416908102919091179091556040519081527f8339189e972f7fba792126e752aa8485af08710bce4a041c5bc3f9858acd713090602001610b0a565b612af5612e99565b6001600160a01b038116612b5a5760405162461bcd60e51b815260206004820152602660248201527f4f776e61626c653a206e6577206f776e657220697320746865207a65726f206160448201526564647265737360d01b6064820152608401610832565b610445816145ac565b600060ca8281548110612b7857612b78615321565b60009182526020909120600e9091020190506002600b82015460ff166004811115612ba557612ba5614dcb565b14612c0a5760405162461bcd60e51b815260206004820152602f60248201527f546865207472616e73616374696f6e206973206e6f742077616974696e67206f60448201526e37103a3432903932b1b2b4bb32b91760891b6064820152608401610832565b600d810154600a820154612c1e90426154f6565b1015612c6c5760405162461bcd60e51b815260206004820181905260248201527f54696d656f75742074696d6520686173206e6f7420706173736564207965742e6044820152606401610832565b600981015415612cdb57600981018054600091829055600283015460405191926001600160a01b0390911691839181818185875af1925050503d8060008114612cd1576040519150601f19603f3d011682016040523d82523d6000602084013e612cd6565b606091505b505050505b611345826001612f12565b600054610100900460ff1615808015612d065750600054600160ff909116105b80612d205750303b158015612d20575060005460ff166001145b612d835760405162461bcd60e51b815260206004820152602e60248201527f496e697469616c697a61626c653a20636f6e747261637420697320616c72656160448201526d191e481a5b9a5d1a585b1a5e995960921b6064820152608401610832565b6000805460ff191660011790558015612da6576000805461ff0019166101001790555b612dae614787565b612db66147b6565b60cc80546001600160a01b038088166001600160a01b03199283161790925560cd805487841690831617905560ce805486841690831617905560cf805492851692909116919091179055612e0a6064612a95565b612e1460c8612859565b8015610c9f576000805461ff0019169055604051600181527f7f26b83ff96e1f2b6a682f133852f6798a09c465da95921460cefb38474024989060200160405180910390a15050505050565b600060143610801590612e8257503360009081526065602052604090205460ff165b15612e94575060131936013560601c90565b503390565b612ea1612e60565b6001600160a01b0316612ebc6033546001600160a01b031690565b6001600160a01b031614611a615760405162461bcd60e51b815260206004820181905260248201527f4f776e61626c653a2063616c6c6572206973206e6f7420746865206f776e65726044820152606401610832565b600060ca8381548110612f2757612f27615321565b90600052602060002090600e02019050600260ff16821115612f7d5760405162461bcd60e51b815260206004820152600f60248201526e24b73b30b634b210393ab634b7339760891b6044820152606401610832565b6001818101546002830154600480850180546008870180546009890180546000958690559285905593909355600b8801805460ff19169094179093556001600160a01b039485169594909316939091908714156130fa576040516001600160a01b038616908390600081818185875af1925050503d806000811461301d576040519150601f19603f3d011682016040523d82523d6000602084013e613022565b606091505b505060408051610220810182528854815260018901546001600160a01b03908116602083015260028a0154811692820192909252600389015490911660608201526004808901546080830152600589015460a0830152600689015461ffff80821660c0850152620100008204811660e0850152600160201b90910416610100830152600789015461012083015260088901546101408301526009890154610160830152600a890154610180830152600b8901546130f5935089916101a084019160ff169081111561278757612787614dcb565b61362f565b6002871415613224576040516001600160a01b038516908290600081818185875af1925050503d806000811461314c576040519150601f19603f3d011682016040523d82523d6000602084013e613151565b606091505b505060408051610220810182528854815260018901546001600160a01b03908116602083015260028a0154811692820192909252600389015490911660608201526004808901546080830152600589015460a0830152600689015461ffff80821660c0850152620100008204811660e0850152600160201b90910416610100830152600789015461012083015260088901546101408301526009890154610160830152600a890154610180830152600b8901546130f5935089916101a084019160ff16908111156110f2576110f2614dcb565b6000613231600284615848565b90506000613240600286615848565b60408051610220810182528a54815260018b01546001600160a01b03908116602083015260028c015481169282019290925260038b015490911660608201526004808b0154608083015260058b015460a083015260068b015461ffff80821660c0850152620100008204811660e0850152600160201b9091041661010083015260078b015461012083015260088b015461014083015260098b0154610160830152600a8b0154610180830152600b8b01549293506133e5928b916101a084019160ff169081111561331357613313614dcb565b600481111561332457613324614dcb565b8152600b82015461010090046001600160a01b03166020820152600c8201805460409092019161335390615337565b80601f016020809104026020016040519081016040528092919081815260200182805461337f90615337565b80156133cc5780601f106133a1576101008083540402835291602001916133cc565b820191906000526020600020905b8154815290600101906020018083116133af57829003601f168201915b50505050508152602001600d82015481525050826145fe565b60408051610220810182528954815260018a01546001600160a01b03908116602083015260028b015481169282019290925260038a015490911660608201526004808a0154608083015260058a015460a083015260068a015461ffff80821660c0850152620100008204811660e0850152600160201b9091041661010083015260078a015461012083015260088a015461014083015260098a0154610160830152600a8a0154610180830152600b8a015461358a92918b916101a084019160ff909116908111156134b8576134b8614dcb565b60048111156134c9576134c9614dcb565b8152600b82015461010090046001600160a01b03166020820152600c820180546040909201916134f890615337565b80601f016020809104026020016040519081016040528092919081815260200182805461352490615337565b80156135715780601f1061354657610100808354040283529160200191613571565b820191906000526020600020905b81548152906001019060200180831161355457829003601f168201915b50505050508152602001600d82015481525050826137f5565b6040516001600160a01b038816908390600081818185875af1925050503d80600081146135d3576040519150601f19603f3d011682016040523d82523d6000602084013e6135d8565b606091505b50506040516001600160a01b03881691508390600081818185875af1925050503d8060008114613624576040519150601f19603f3d011682016040523d82523d6000602084013e613629565b606091505b50505050505b877f76b363d70472d47d20e4119f3625c05ed37ca51b1d9e1cd8b87d8c20530640f38860405161366191815260200190565b60405180910390a25050505050505050565b610445612e99565b7f4910fdfa16fed3260ed0e7147f7cc6da11a60208b5b9406d12a635614ffd91435460ff16156136ae57611a4a836147dd565b826001600160a01b03166352d1902d6040518163ffffffff1660e01b815260040160206040518083038186803b1580156136e757600080fd5b505afa925050508015613717575060408051601f3d908101601f19168201909252613714918101906152d1565b60015b61377a5760405162461bcd60e51b815260206004820152602e60248201527f45524331393637557067726164653a206e657720696d706c656d656e7461746960448201526d6f6e206973206e6f74205555505360901b6064820152608401610832565b600080516020615b6e83398151915281146137e95760405162461bcd60e51b815260206004820152602960248201527f45524331393637557067726164653a20756e737570706f727465642070726f786044820152681a58589b195555525160ba1b6064820152608401610832565b50611a4a838383614879565b60cc5460a083015160405163ef0e239b60e01b815260048101919091526000916001600160a01b03169063ef0e239b9060240160006040518083038186803b15801561384057600080fd5b505afa158015613854573d6000803e3d6000fd5b505050506040513d6000823e601f3d908101601f1916820160405261387c9190810190615879565b60cd546040858101519051630b89606960e31b81526001600160a01b039182166004820152929350600092911690635c4b03489060240160206040518083038186803b1580156138cb57600080fd5b505afa1580156138df573d6000803e3d6000fd5b505050506040513d601f19601f8201168201806040525081019061390391906152d1565b60e083015160c0860151919250906000906127109061392790879061ffff16615937565b6139319190615848565b9050600061271061ffff16868860e0015161ffff166139509190615937565b61395a9190615848565b9050600061271061ffff168789610100015161ffff1661397a9190615937565b6139849190615848565b600080805260cb602090815260608b01516001600160a01b031682527f4239c2c8c3d9b94feb214b0f54d7c869ce1ceb63517be57644336cda4967a468905260408120805492935085929091906139dc9084906157b7565b9091555050600085815260cb6020908152604080832060608c01516001600160a01b0316845290915281208054849290613a179084906157b7565b9091555050600084815260cb6020908152604080832060608c01516001600160a01b0316845290915281208054839290613a529084906157b7565b92505081905550613a6c886040015189606001518961489e565b60608089015160a08a015160408051898152602081019290925281018590526001600160a01b03909116917f4295737fccf6c9fdb5562d08f53f32ea89040cee8648445f14b63e74ef2340c8910160405180910390a260608089015160a08a015160408051888152602081019290925281018490526001600160a01b03909116917ffb0b45a94ba5e6f6a5787f24ec1cca93129f52cb56ee72ce395736266051152e910160405180910390a27f7eb4d07819d8300e8f1d0a2a11814657be694ee6dbfd0208fdabed36a19e954f88600001516000898b606001518c60a00151604051613b5c959493929190615956565b60405180910390a1613b768860a001518960800151614902565b5050505050505050565b613b88614c68565b613b90614ca1565b6000806000613b9f87876149a2565b90506000613bac88614a31565b60cd5460208201516040516331a9108f60e11b81529293506000926001600160a01b0390921691636352211e91613be99160040190815260200190565b60206040518083038186803b158015613c0157600080fd5b505afa158015613c15573d6000803e3d6000fd5b505050506040513d601f19601f82011682018060405250810190613c399190615455565b60cd5460208501516040516331a9108f60e11b81529293506000926001600160a01b0390921691636352211e91613c769160040190815260200190565b60206040518083038186803b158015613c8e57600080fd5b505afa158015613ca2573d6000803e3d6000fd5b505050506040513d601f19601f82011682018060405250810190613cc69190615455565b939a9299509097509195509350505050565b6000612710613ce78385615937565b60ce54613cff90600160b01b900461ffff1686615937565b60ce54613d1790600160a01b900461ffff1687615937565b613d2191906157b7565b613d2b91906157b7565b613d359190615848565b61160f90846157b7565b6000613d49614c68565b613d51614ca1565b600080613d5e8b8b613b80565b80945081955082965083975050505050600060ca80549050905060ca604051806102200160405280838152602001856001600160a01b03168152602001846001600160a01b0316815260200187604001516001600160a01b03168152602001876060015181526020018e815260200160ce60149054906101000a900461ffff1661ffff16815260200160ce60169054906101000a900461ffff1661ffff1681526020018c61ffff16815260200160008152602001600081526020016000815260200142815260200160006004811115613e3957613e39614dcb565b81526001600160a01b03808d1660208084019190915260408084018e905260609384018d90528554600181810188556000978852968390208651600e909202019081559185015182870180549185166001600160a01b03199283161790559085015160028301805491851691831691909117905592840151600382018054919093169316929092179055608082015160048083019190915560a0830151600583015560c083015160068301805460e086015161010087015161ffff908116600160201b0265ffff0000000019928216620100000263ffffffff1990941691909516179190911716919091179055610120830151600783015561014083015160088301556101608301516009830155610180830151600a8301556101a0830151600b83018054949593949193909260ff19909216918490811115613f7e57613f7e614dcb565b02179055506101c0820151600b820180546001600160a01b0390921661010002610100600160a81b03199092169190911790556101e08201518051613fcd91600c840191602090910190614ce7565b506102009190910151600d909101559b9a5050505050505050505050565b6040516323b872dd60e01b81526001600160a01b038481166004830152306024830152604482018390528316906323b872dd90606401602060405180830381600087803b15801561403b57600080fd5b505af115801561404f573d6000803e3d6000fd5b505050506040513d601f19601f820116820180604052508101906140739190615404565b611a4a5760405162461bcd60e51b8152602060048201526016602482015275151c985b9cd9995c881b5d5cdd081b9bdd0819985a5b60521b6044820152606401610832565b600060ca84815481106140cd576140cd615321565b60009182526020822060cd54600e9290920201600181015460405162438b6360e81b81526001600160a01b0391821660048201529194509091169063438b63009060240160206040518083038186803b15801561412957600080fd5b505afa15801561413d573d6000803e3d6000fd5b505050506040513d601f19601f8201168201806040525081019061416191906152d1565b60cd54600284015460405162438b6360e81b81526001600160a01b03918216600482015292935060009291169063438b63009060240160206040518083038186803b1580156141af57600080fd5b505afa1580156141c3573d6000803e3d6000fd5b505050506040513d601f19601f820116820180604052508101906141e791906152d1565b90507f1ccb16db9d1499f0b4e030d49bd6575a6ac51f3970af8752ac277fdf4505763b8683838660030160009054906101000a90046001600160a01b03168760040154886005015460ce60149054906101000a900461ffff1660ce60169054906101000a900461ffff168b60060160049054906101000a900461ffff168c600b0160019054906101000a90046001600160a01b03168d600c018e600d015460405161429d9c9b9a99989796959493929190615992565b60405180910390a1857f61606860eb6c87306811e2695215385101daab53bd6ab4e9f9049aead9363c7d866040516142d59190615835565b60405180910390a26005830154604080519182526020820186905281018790527fffc7643b52fc7134d23e37eac3c5c4bdad5cf04655528f24663504e15adc4a4a9060600160405180910390a1505050505050565b600060ca838154811061433f5761433f615321565b60009182526020909120600b600e90920201908101805460ff19166003179081905560405163c13517e160e01b81529192506001600160a01b036101009091041690819063c13517e190859061439f90600290600c880190600401615a19565b6020604051808303818588803b1580156143b857600080fd5b505af11580156143cc573d6000803e3d6000fd5b50505050506040513d601f19601f820116820180604052508101906143f191906152d1565b60078301818155600091825260d0602090815260409283902087905590548251878152918201879052916001600160a01b038416917f74baab670a4015ab2f1b467c5252a96141a2573f2908e58a92081e80d3cfde3d910160405180910390a382826008015411156144fc57600083836008015461446f91906154f6565b6008840185905560018401546040519192506001600160a01b0316908290600081818185875af1925050503d80600081146144c6576040519150601f19603f3d011682016040523d82523d6000602084013e6144cb565b606091505b50505084600080516020615b8e83398151915260016000346040516144f2939291906157df565b60405180910390a2505b82826009015411156145a657600083836009015461451a91906154f6565b6009840185905560028401546040519192506001600160a01b0316908290600081818185875af1925050503d8060008114614571576040519150601f19603f3d011682016040523d82523d6000602084013e614576565b606091505b50505084600080516020615b8e8339815191526001803460405161459c939291906157df565b60405180910390a2505b50505050565b603380546001600160a01b038381166001600160a01b0319831681179093556040519116919082907f8be0079c531659141344cd1fd0a4f28419497f9722a3daafe3b4186f6b6457e090600090a35050565b600061271061ffff16828461010001518560e001518660c001516146229190615a35565b61462c9190615a35565b61ffff1661463a9190615937565b6146449190615848565b61464e90836157b7565b9050614663836020015184606001518361489e565b7f7eb4d07819d8300e8f1d0a2a11814657be694ee6dbfd0208fdabed36a19e954f836000015160018486606001518760a001516040516146a7959493929190615956565b60405180910390a1611a4a8360a001518460800151614902565b6001600160a01b038216614705576040516001600160a01b0384169082156108fc029083906000818181858888f193505050501580156145a6573d6000803e3d6000fd5b60405163a9059cbb60e01b81526001600160a01b0384811660048301526024820183905283169063a9059cbb90604401602060405180830381600087803b15801561474f57600080fd5b505af1158015614763573d6000803e3d6000fd5b505050506040513d601f19601f820116820180604052508101906145a69190615404565b600054610100900460ff166147ae5760405162461bcd60e51b815260040161083290615a5b565b611a61614abf565b600054610100900460ff16611a615760405162461bcd60e51b815260040161083290615a5b565b6001600160a01b0381163b61484a5760405162461bcd60e51b815260206004820152602d60248201527f455243313936373a206e657720696d706c656d656e746174696f6e206973206e60448201526c1bdd08184818dbdb9d1c9858dd609a1b6064820152608401610832565b600080516020615b6e83398151915280546001600160a01b0319166001600160a01b0392909216919091179055565b61488283614af6565b60008251118061488f5750805b15611a4a576145a68383614b36565b6001600160a01b038216614705576040516001600160a01b038416908290600081818185875af1925050503d80600081146148f5576040519150601f19603f3d011682016040523d82523d6000602084013e6148fa565b606091505b505050505050565b806113455760cc54604051631271956760e21b8152600481018490526001600160a01b03909116906349c6559c90602401600060405180830381600087803b15801561494d57600080fd5b505af1158015614961573d6000803e3d6000fd5b505050507f6bef1b5e95b741d6e665eb9b5c2d3e1203c46a771451055a9d41e0b8ff4510b78260405161499691815260200190565b60405180910390a15050565b6149aa614c68565b60cc5460405163aba2100960e01b815260048101859052602481018490526001600160a01b039091169063aba210099060440160006040518083038186803b1580156149f557600080fd5b505afa158015614a09573d6000803e3d6000fd5b505050506040513d6000823e601f3d908101601f1916820160405261160f9190810190615aa6565b614a39614ca1565b60cc5460405163ef0e239b60e01b8152600481018490526001600160a01b039091169063ef0e239b9060240160006040518083038186803b158015614a7d57600080fd5b505afa158015614a91573d6000803e3d6000fd5b505050506040513d6000823e601f3d908101601f19168201604052614ab99190810190615879565b92915050565b600054610100900460ff16614ae65760405162461bcd60e51b815260040161083290615a5b565b611a61614af1612e60565b6145ac565b614aff816147dd565b6040516001600160a01b038216907fbc7cd75a20ee27fd9adebab32041f755214dbc6bffa90cc0225b39da2e5c2d3b90600090a250565b60606001600160a01b0383163b614b9e5760405162461bcd60e51b815260206004820152602660248201527f416464726573733a2064656c65676174652063616c6c20746f206e6f6e2d636f6044820152651b9d1c9858dd60d21b6064820152608401610832565b600080846001600160a01b031684604051614bb99190615b51565b600060405180830381855af49150503d8060008114614bf4576040519150601f19603f3d011682016040523d82523d6000602084013e614bf9565b606091505b5091509150614c218282604051806060016040528060278152602001615bae60279139614c2a565b95945050505050565b60608315614c3957508161160f565b61160f8383815115614c4e5781518083602001fd5b8060405162461bcd60e51b81526004016108329190615835565b6040805160a0810190915280600081526020016000815260200160006001600160a01b0316815260200160008152602001606081525090565b6040805161010081019091528060008152602001600081526020016000815260200160008152602001606081526020016000815260200160008152602001600081525090565b828054614cf390615337565b90600052602060002090601f016020900481019282614d155760008555614d5b565b82601f10614d2e57805160ff1916838001178555614d5b565b82800160010185558215614d5b579182015b82811115614d5b578251825591602001919060010190614d40565b50614d67929150614d6b565b5090565b5b80821115614d675760008155600101614d6c565b6001600160a01b038116811461044557600080fd5b600060208284031215614da757600080fd5b813561160f81614d80565b600060208284031215614dc457600080fd5b5035919050565b634e487b7160e01b600052602160045260246000fd5b60058110614df157614df1614dcb565b9052565b60005b83811015614e10578181015183820152602001614df8565b838111156145a65750506000910152565b60008151808452614e39816020860160208601614df5565b601f01601f19169290920160200192915050565b602081528151602082015260006020830151614e7460408401826001600160a01b03169052565b5060408301516001600160a01b03811660608401525060608301516001600160a01b038116608084015250608083015160a083015260a083015160c083015260c0830151614ec860e084018261ffff169052565b5060e0830151610100614ee08185018361ffff169052565b8401519050610120614ef78482018361ffff169052565b8401516101408481019190915284015161016080850191909152840151610180808501919091528401516101a08085019190915284015190506101c0614f3f81850183614de1565b84015190506101e0614f5b848201836001600160a01b03169052565b808501519150506102206102008181860152614f7b610240860184614e21565b9501519301929092525090919050565b60008060408385031215614f9e57600080fd5b50508035926020909101359150565b600080600060608486031215614fc257600080fd5b505081359360208301359350604090920135919050565b634e487b7160e01b600052604160045260246000fd5b60405160e0810167ffffffffffffffff8111828210171561501257615012614fd9565b60405290565b604051610100810167ffffffffffffffff8111828210171561501257615012614fd9565b60405160a0810167ffffffffffffffff8111828210171561501257615012614fd9565b604051601f8201601f1916810167ffffffffffffffff8111828210171561508857615088614fd9565b604052919050565b600067ffffffffffffffff8211156150aa576150aa614fd9565b50601f01601f191660200190565b60006150cb6150c684615090565b61505f565b90508281528383830111156150df57600080fd5b828260208301376000602084830101529392505050565b600082601f83011261510757600080fd5b61160f838335602085016150b8565b60008060006060848603121561512b57600080fd5b833567ffffffffffffffff81111561514257600080fd5b61514e868287016150f6565b9660208601359650604090950135949350505050565b6000806040838503121561517757600080fd5b823561518281614d80565b9150602083013567ffffffffffffffff81111561519e57600080fd5b8301601f810185136151af57600080fd5b6151be858235602084016150b8565b9150509250929050565b6000806000606084860312156151dd57600080fd5b8335925060208401359150604084013567ffffffffffffffff81111561520257600080fd5b61520e868287016150f6565b9150509250925092565b61ffff8116811461044557600080fd5b60006020828403121561523a57600080fd5b813561160f81615218565b6000806040838503121561525857600080fd5b82359150602083013561526a81614d80565b809150509250929050565b6000806000806080858703121561528b57600080fd5b843561529681614d80565b935060208501356152a681614d80565b925060408501356152b681614d80565b915060608501356152c681614d80565b939692955090935050565b6000602082840312156152e357600080fd5b5051919050565b6020808252601b908201527f4e6f7420612076616c6964207472616e73616374696f6e2069642e0000000000604082015260600190565b634e487b7160e01b600052603260045260246000fd5b600181811c9082168061534b57607f821691505b6020821081141561078357634e487b7160e01b600052602260045260246000fd5b6020808252602c908201527f46756e6374696f6e206d7573742062652063616c6c6564207468726f7567682060408201526b19195b1959d85d1958d85b1b60a21b606082015260800190565b6020808252602c908201527f46756e6374696f6e206d7573742062652063616c6c6564207468726f7567682060408201526b6163746976652070726f787960a01b606082015260800190565b60006020828403121561541657600080fd5b8151801515811461160f57600080fd5b6020808252601590820152744e6f74206f776e6572206f722064656c656761746560581b604082015260600190565b60006020828403121561546757600080fd5b815161160f81614d80565b6020808252600e908201526d20b1b1b2b9b9903232b734b2b21760911b604082015260600190565b60208082526026908201527f546865207472616e73616374696f6e2073686f756c646e277420626520646973604082015265383aba32b21760d11b606082015260800190565b634e487b7160e01b600052601160045260246000fd5b600082821015615508576155086154e0565b500390565b600082601f83011261551e57600080fd5b815161552c6150c682615090565b81815284602083860101111561554157600080fd5b615552826020830160208701614df5565b949350505050565b805161556581615218565b919050565b805161556581614d80565b60006020828403121561558757600080fd5b815167ffffffffffffffff8082111561559f57600080fd5b9083019060e082860312156155b357600080fd5b6155bb614fef565b825181526020830151828111156155d157600080fd5b6155dd8782860161550d565b6020830152506040830151828111156155f557600080fd5b6156018782860161550d565b6040830152506156136060840161555a565b60608201526156246080840161556a565b608082015260a08301518281111561563b57600080fd5b6156478782860161550d565b60a08301525060c083015160c082015280935050505092915050565b60208082526013908201527220b93134ba3930ba37b9103737ba1039b2ba1760691b604082015260600190565b6020808252604e908201527f446973707574652068617320616c7265616479206265656e206372656174656460408201527f206f72206265636175736520746865207472616e73616374696f6e206861732060608201526d3132b2b71032bc32b1baba32b21760911b608082015260a00190565b8054600090600181811c908083168061571e57607f831692505b602080841082141561574057634e487b7160e01b600052602260045260246000fd5b8388526020880182801561575b576001811461576c57615797565b60ff19871682528282019750615797565b60008981526020902060005b8781101561579157815484820152908601908401615778565b83019850505b5050505050505092915050565b60208152600061160f6020830184615704565b600082198211156157ca576157ca6154e0565b500190565b6002811061044557610445614dcb565b606081016157ec856157cf565b8482526157f8846157cf565b602082019390935260400152919050565b60208101615816836157cf565b91905290565b8281526040602082015260006155526040830184615704565b60208152600061160f6020830184614e21565b60008261586557634e487b7160e01b600052601260045260246000fd5b500490565b80516005811061556557600080fd5b60006020828403121561588b57600080fd5b815167ffffffffffffffff808211156158a357600080fd5b9083019061010082860312156158b857600080fd5b6158c0615018565b6158c98361586a565b81526020830151602082015260408301516040820152606083015160608201526080830151828111156158fb57600080fd5b6159078782860161550d565b60808301525060a083015160a082015260c083015160c082015260e083015160e082015280935050505092915050565b6000816000190483118215151615615951576159516154e0565b500290565b85815260a08101615966866157cf565b602082019590955260408101939093526001600160a01b03919091166060830152608090910152919050565b8c8152602081018c9052604081018b90526001600160a01b038a81166060830152608082018a905260a0820189905261ffff88811660c084015287811660e08401528616610100830152841661012082015261018061014082018190526000906159fe83820186615704565b915050826101608301529d9c50505050505050505050505050565b60ff831681526040602082015260006155526040830184615704565b600061ffff808316818516808303821115615a5257615a526154e0565b01949350505050565b6020808252602b908201527f496e697469616c697a61626c653a20636f6e7472616374206973206e6f74206960408201526a6e697469616c697a696e6760a81b606082015260800190565b600060208284031215615ab857600080fd5b815167ffffffffffffffff80821115615ad057600080fd5b9083019060a08286031215615ae457600080fd5b615aec61503c565b825160038110615afb57600080fd5b8152602083810151908201526040830151615b1581614d80565b604082015260608381015190820152608083015182811115615b3657600080fd5b615b428782860161550d565b60808301525095945050505050565b60008251615b63818460208701614df5565b919091019291505056fe360894a13ba1a3210667c828492db98dca3e2076cc3735a920a3ca505d382bbc73e533bc8a993eccbc1023beebad0020f6b6c3639f83062f00fc194b4d1172ba416464726573733a206c6f772d6c6576656c2064656c65676174652063616c6c206661696c6564a26469706673582212208f84b8719595d9b5fc6cf380c0d4f5822af5bed3117adf4a0b9a694e646b85ee64736f6c63430008090033",
  "linkReferences": {},
  "deployedLinkReferences": {}
}