{
  "_format": "hh-sol-artifact-1",
  "contractName": "TalentLayerReview",
  "sourceName": "contracts/TalentLayerReview.sol",
  "abi": [
    {
      "inputs": [
        {
          "internalType": "string",
          "name": "name_",
          "type": "string"
        },
        {
          "internalType": "string",
          "name": "symbol_",
          "type": "string"
        },
        {
          "internalType": "address",
          "name": "_talentLayerIdAddress",
          "type": "address"
        },
        {
          "internalType": "address",
          "name": "_jobRegistryAddress",
          "type": "address"
        }
      ],
      "stateMutability": "nonpayable",
      "type": "constructor"
    },
    {
      "inputs": [],
      "name": "ReviewAlreadyMinted",
      "type": "error"
    },
    {
      "anonymous": false,
      "inputs": [
        {
          "indexed": true,
          "internalType": "address",
          "name": "owner",
          "type": "address"
        },
        {
          "indexed": true,
          "internalType": "address",
          "name": "approved",
          "type": "address"
        },
        {
          "indexed": true,
          "internalType": "uint256",
          "name": "tokenId",
          "type": "uint256"
        }
      ],
      "name": "Approval",
      "type": "event"
    },
    {
      "anonymous": false,
      "inputs": [
        {
          "indexed": true,
          "internalType": "address",
          "name": "owner",
          "type": "address"
        },
        {
          "indexed": true,
          "internalType": "address",
          "name": "operator",
          "type": "address"
        },
        {
          "indexed": false,
          "internalType": "bool",
          "name": "approved",
          "type": "bool"
        }
      ],
      "name": "ApprovalForAll",
      "type": "event"
    },
    {
      "anonymous": false,
      "inputs": [
        {
          "indexed": true,
          "internalType": "uint256",
          "name": "_jobId",
          "type": "uint256"
        },
        {
          "indexed": true,
          "internalType": "uint256",
          "name": "_toId",
          "type": "uint256"
        },
        {
          "indexed": true,
          "internalType": "uint256",
          "name": "_tokenId",
          "type": "uint256"
        },
        {
          "indexed": false,
          "internalType": "uint256",
          "name": "_rating",
          "type": "uint256"
        },
        {
          "indexed": false,
          "internalType": "string",
          "name": "_reviewUri",
          "type": "string"
        },
        {
          "indexed": false,
          "internalType": "uint256",
          "name": "_platformId",
          "type": "uint256"
        }
      ],
      "name": "Mint",
      "type": "event"
    },
    {
      "anonymous": false,
      "inputs": [
        {
          "indexed": true,
          "internalType": "address",
          "name": "from",
          "type": "address"
        },
        {
          "indexed": true,
          "internalType": "address",
          "name": "to",
          "type": "address"
        },
        {
          "indexed": true,
          "internalType": "uint256",
          "name": "tokenId",
          "type": "uint256"
        }
      ],
      "name": "Transfer",
      "type": "event"
    },
    {
      "inputs": [],
      "name": "_totalSupply",
      "outputs": [
        {
          "internalType": "uint256",
          "name": "",
          "type": "uint256"
        }
      ],
      "stateMutability": "view",
      "type": "function"
    },
    {
      "inputs": [
        {
          "internalType": "uint256",
          "name": "_jobId",
          "type": "uint256"
        },
        {
          "internalType": "string",
          "name": "_reviewUri",
          "type": "string"
        },
        {
          "internalType": "uint256",
          "name": "_rating",
          "type": "uint256"
        },
        {
          "internalType": "uint256",
          "name": "_platformId",
          "type": "uint256"
        }
      ],
      "name": "addReview",
      "outputs": [],
      "stateMutability": "nonpayable",
      "type": "function"
    },
    {
      "inputs": [
        {
          "internalType": "address",
          "name": "to",
          "type": "address"
        },
        {
          "internalType": "uint256",
          "name": "tokenId",
          "type": "uint256"
        }
      ],
      "name": "approve",
      "outputs": [],
      "stateMutability": "nonpayable",
      "type": "function"
    },
    {
      "inputs": [
        {
          "internalType": "address",
          "name": "owner",
          "type": "address"
        }
      ],
      "name": "balanceOf",
      "outputs": [
        {
          "internalType": "uint256",
          "name": "",
          "type": "uint256"
        }
      ],
      "stateMutability": "view",
      "type": "function"
    },
    {
      "inputs": [
        {
          "internalType": "uint256",
          "name": "tokenId",
          "type": "uint256"
        }
      ],
      "name": "getApproved",
      "outputs": [
        {
          "internalType": "address",
          "name": "",
          "type": "address"
        }
      ],
      "stateMutability": "view",
      "type": "function"
    },
    {
      "inputs": [
        {
          "internalType": "address",
          "name": "owner",
          "type": "address"
        },
        {
          "internalType": "address",
          "name": "operator",
          "type": "address"
        }
      ],
      "name": "isApprovedForAll",
      "outputs": [
        {
          "internalType": "bool",
          "name": "",
          "type": "bool"
        }
      ],
      "stateMutability": "view",
      "type": "function"
    },
    {
      "inputs": [],
      "name": "name",
      "outputs": [
        {
          "internalType": "string",
          "name": "",
          "type": "string"
        }
      ],
      "stateMutability": "view",
      "type": "function"
    },
    {
      "inputs": [
        {
          "internalType": "uint256",
          "name": "",
          "type": "uint256"
        }
      ],
      "name": "nftMintedByJobAndemployeeId",
      "outputs": [
        {
          "internalType": "uint256",
          "name": "",
          "type": "uint256"
        }
      ],
      "stateMutability": "view",
      "type": "function"
    },
    {
      "inputs": [
        {
          "internalType": "uint256",
          "name": "",
          "type": "uint256"
        }
      ],
      "name": "nftMintedByJobAndemployerId",
      "outputs": [
        {
          "internalType": "uint256",
          "name": "",
          "type": "uint256"
        }
      ],
      "stateMutability": "view",
      "type": "function"
    },
    {
      "inputs": [
        {
          "internalType": "uint256",
          "name": "tokenId",
          "type": "uint256"
        }
      ],
      "name": "ownerOf",
      "outputs": [
        {
          "internalType": "address",
          "name": "",
          "type": "address"
        }
      ],
      "stateMutability": "view",
      "type": "function"
    },
    {
      "inputs": [
        {
          "internalType": "uint256",
          "name": "",
          "type": "uint256"
        }
      ],
      "name": "reviewDataUri",
      "outputs": [
        {
          "internalType": "string",
          "name": "",
          "type": "string"
        }
      ],
      "stateMutability": "view",
      "type": "function"
    },
    {
      "inputs": [
        {
          "internalType": "uint256",
          "name": "",
          "type": "uint256"
        }
      ],
      "name": "reviewIdToPlatformId",
      "outputs": [
        {
          "internalType": "uint256",
          "name": "",
          "type": "uint256"
        }
      ],
      "stateMutability": "view",
      "type": "function"
    },
    {
      "inputs": [
        {
          "internalType": "address",
          "name": "from",
          "type": "address"
        },
        {
          "internalType": "address",
          "name": "to",
          "type": "address"
        },
        {
          "internalType": "uint256",
          "name": "tokenId",
          "type": "uint256"
        }
      ],
      "name": "safeTransferFrom",
      "outputs": [],
      "stateMutability": "nonpayable",
      "type": "function"
    },
    {
      "inputs": [
        {
          "internalType": "address",
          "name": "from",
          "type": "address"
        },
        {
          "internalType": "address",
          "name": "to",
          "type": "address"
        },
        {
          "internalType": "uint256",
          "name": "tokenId",
          "type": "uint256"
        },
        {
          "internalType": "bytes",
          "name": "data",
          "type": "bytes"
        }
      ],
      "name": "safeTransferFrom",
      "outputs": [],
      "stateMutability": "nonpayable",
      "type": "function"
    },
    {
      "inputs": [
        {
          "internalType": "address",
          "name": "operator",
          "type": "address"
        },
        {
          "internalType": "bool",
          "name": "approved",
          "type": "bool"
        }
      ],
      "name": "setApprovalForAll",
      "outputs": [],
      "stateMutability": "nonpayable",
      "type": "function"
    },
    {
      "inputs": [
        {
          "internalType": "bytes4",
          "name": "interfaceId",
          "type": "bytes4"
        }
      ],
      "name": "supportsInterface",
      "outputs": [
        {
          "internalType": "bool",
          "name": "",
          "type": "bool"
        }
      ],
      "stateMutability": "view",
      "type": "function"
    },
    {
      "inputs": [],
      "name": "symbol",
      "outputs": [
        {
          "internalType": "string",
          "name": "",
          "type": "string"
        }
      ],
      "stateMutability": "view",
      "type": "function"
    },
    {
      "inputs": [
        {
          "internalType": "uint256",
          "name": "tokenId",
          "type": "uint256"
        }
      ],
      "name": "tokenURI",
      "outputs": [
        {
          "internalType": "string",
          "name": "",
          "type": "string"
        }
      ],
      "stateMutability": "view",
      "type": "function"
    },
    {
      "inputs": [
        {
          "internalType": "address",
          "name": "from",
          "type": "address"
        },
        {
          "internalType": "address",
          "name": "to",
          "type": "address"
        },
        {
          "internalType": "uint256",
          "name": "tokenId",
          "type": "uint256"
        }
      ],
      "name": "transferFrom",
      "outputs": [],
      "stateMutability": "nonpayable",
      "type": "function"
    }
  ],
  "bytecode": "0x608060405260006002553480156200001657600080fd5b5060405162001cc638038062001cc683398101604081905262000039916200022a565b83516200004e9060009060208701906200009a565b508251620000649060019060208601906200009a565b50600b80546001600160a01b039384166001600160a01b031991821617909155600c805492909316911617905550620002f69050565b828054620000a890620002b9565b90600052602060002090601f016020900481019282620000cc576000855562000117565b82601f10620000e757805160ff191683800117855562000117565b8280016001018555821562000117579182015b8281111562000117578251825591602001919060010190620000fa565b506200012592915062000129565b5090565b5b808211156200012557600081556001016200012a565b634e487b7160e01b600052604160045260246000fd5b600082601f8301126200016857600080fd5b81516001600160401b038082111562000185576200018562000140565b604051601f8301601f19908116603f01168101908282118183101715620001b057620001b062000140565b81604052838152602092508683858801011115620001cd57600080fd5b600091505b83821015620001f15785820183015181830184015290820190620001d2565b83821115620002035760008385830101525b9695505050505050565b80516001600160a01b03811681146200022557600080fd5b919050565b600080600080608085870312156200024157600080fd5b84516001600160401b03808211156200025957600080fd5b620002678883890162000156565b955060208701519150808211156200027e57600080fd5b506200028d8782880162000156565b9350506200029e604086016200020d565b9150620002ae606086016200020d565b905092959194509250565b600181811c90821680620002ce57607f821691505b60208210811415620002f057634e487b7160e01b600052602260045260246000fd5b50919050565b6119c080620003066000396000f3fe608060405234801561001057600080fd5b50600436106101215760003560e01c80636352211e116100ad578063c87b56dd11610071578063c87b56dd14610267578063d56e06d61461027a578063e490eebf1461029a578063e985e9c5146102ba578063f252ff3f146102f657600080fd5b80636352211e1461021357806370a082311461022657806395d89b4114610239578063a22cb46514610241578063b88d4fde1461025457600080fd5b806323b872dd116100f457806323b872dd146101a35780633e12b125146101b65780633eaaf86b146101e457806342842e0e146101ed57806352a2383b1461020057600080fd5b806301ffc9a71461012657806306fdde031461014e578063081812fc14610163578063095ea7b31461018e575b600080fd5b6101396101343660046111ff565b610309565b60405190151581526020015b60405180910390f35b61015661035b565b6040516101459190611274565b610176610171366004611287565b6103ed565b6040516001600160a01b039091168152602001610145565b6101a161019c3660046112b5565b610414565b005b6101a16101b13660046112e1565b61054c565b6101d66101c4366004611287565b60086020526000908152604090205481565b604051908152602001610145565b6101d660025481565b6101a16101fb3660046112e1565b610572565b61015661020e366004611287565b61058d565b610176610221366004611287565b610627565b6101d6610234366004611322565b6106df565b6101566107eb565b6101a161024f36600461133f565b6107fa565b6101a1610262366004611415565b610809565b610156610275366004611287565b610841565b6101d6610288366004611287565b600a6020526000908152604090205481565b6101d66102a8366004611287565b60096020526000908152604090205481565b6101396102c83660046114c4565b6001600160a01b03918216600090815260066020908152604080832093909416825291909152205460ff1690565b6101a16103043660046114f2565b6108b5565b60006001600160e01b031982166380ac58cd60e01b148061033a57506001600160e01b03198216635b5e139f60e01b145b8061035557506301ffc9a760e01b6001600160e01b03198316145b92915050565b60606000805461036a9061157d565b80601f01602080910402602001604051908101604052809291908181526020018280546103969061157d565b80156103e35780601f106103b8576101008083540402835291602001916103e3565b820191906000526020600020905b8154815290600101906020018083116103c657829003601f168201915b5050505050905090565b60006103f882610ba0565b506000908152600560205260409020546001600160a01b031690565b600061041f82610627565b9050806001600160a01b0316836001600160a01b0316141561049d5760405162461bcd60e51b815260206004820152602c60248201527f54616c656e744c617965725265766965773a20617070726f76616c20746f206360448201526b3ab93932b73a1037bbb732b960a11b60648201526084015b60405180910390fd5b336001600160a01b03821614806104b957506104b981336102c8565b61053d5760405162461bcd60e51b815260206004820152604960248201527f54616c656e744c617965725265766965773a20617070726f76652063616c6c6560448201527f72206973206e6f7420746f6b656e206f776e6572206e6f7220617070726f76656064820152681908199bdc88185b1b60ba1b608482015260a401610494565b6105478383610bce565b505050565b6105563382610c3c565b6105475760405162461bcd60e51b8152600401610494906115b8565b61054783838360405180602001604052806000815250610809565b600760205260009081526040902080546105a69061157d565b80601f01602080910402602001604051908101604052809291908181526020018280546105d29061157d565b801561061f5780601f106105f45761010080835404028352916020019161061f565b820191906000526020600020905b81548152906001019060200180831161060257829003601f168201915b505050505081565b600b546000828152600360205260408082205490516331a9108f60e11b81526004810191909152909182916001600160a01b0390911690636352211e9060240160206040518083038186803b15801561067f57600080fd5b505afa158015610693573d6000803e3d6000fd5b505050506040513d601f19601f820116820180604052508101906106b79190611615565b90506001600160a01b0381166103555760405162461bcd60e51b815260040161049490611632565b60006001600160a01b0382166107525760405162461bcd60e51b815260206004820152603260248201527f54616c656e744c617965725265766965773a20746f6b656e207a65726f206973604482015271103737ba1030903b30b634b21037bbb732b960711b6064820152608401610494565b600b5460405162438b6360e81b81526001600160a01b038481166004808401919091529260009291169063438b63009060240160206040518083038186803b15801561079d57600080fd5b505afa1580156107b1573d6000803e3d6000fd5b505050506040513d601f19601f820116820180604052508101906107d59190611675565b8152602001908152602001600020549050919050565b60606001805461036a9061157d565b610805338383610cbb565b5050565b6108133383610c3c565b61082f5760405162461bcd60e51b8152600401610494906115b8565b61083b84848484610d96565b50505050565b606061084c82610ba0565b600061086360408051602081019091526000815290565b9050600081511161088357604051806020016040528060008152506108ae565b8061088d84610dbe565b60405160200161089e92919061168e565b6040516020818303038152906040525b9392505050565b600c5460405163bf22c45760e01b8152600481018790526000916001600160a01b03169063bf22c4579060240160006040518083038186803b1580156108fa57600080fd5b505afa15801561090e573d6000803e3d6000fd5b505050506040513d6000823e601f3d908101601f191682016040526109369190810190611716565b600b5460405162438b6360e81b81523360048201529192506000916001600160a01b039091169063438b63009060240160206040518083038186803b15801561097e57600080fd5b505afa158015610992573d6000803e3d6000fd5b505050506040513d601f19601f820116820180604052508101906109b69190611675565b905081602001518114806109cd5750816040015181145b610a195760405162461bcd60e51b815260206004820152601f60248201527f596f75277265206e6f7420616e206163746f72206f662074686973206a6f62006044820152606401610494565b600282516004811115610a2e57610a2e6117c9565b14610a7b5760405162461bcd60e51b815260206004820152601b60248201527f546865206a6f62206973206e6f742066696e69736865642079657400000000006044820152606401610494565b60008311610ae55760405162461bcd60e51b815260206004820152603160248201527f506c6174666f726d2030206973206e6f7420612076616c69642054616c656e7460448201527013185e595c88141b185d199bdc9b481251607a1b6064820152608401610494565b60008260200151821415610b3f5750604080830151600089815260086020529190912054821415610b2957604051633d36d72960e01b815260040160405180910390fd5b6000888152600860205260409020829055610b88565b5060208083015160008981526009909252604090912054821415610b7657604051633d36d72960e01b815260040160405180910390fd5b60008881526009602052604090208290555b610b968882878a8a89610ebc565b5050505050505050565b600081815260036020526040902054610bcb5760405162461bcd60e51b815260040161049490611632565b50565b600081815260056020526040902080546001600160a01b0319166001600160a01b0384169081179091558190610c0382610627565b6001600160a01b03167f8c5be1e5ebec7d5bd14f71427d1e84f3dd0314c0f7b2291e5b200ac8c7c3b92560405160405180910390a45050565b600080610c4883610627565b9050806001600160a01b0316846001600160a01b03161480610c8f57506001600160a01b0380821660009081526006602090815260408083209388168352929052205460ff165b80610cb35750836001600160a01b0316610ca8846103ed565b6001600160a01b0316145b949350505050565b816001600160a01b0316836001600160a01b03161415610d295760405162461bcd60e51b8152602060048201526024808201527f54616c656e744c617965725265766965773a20617070726f766520746f206361604482015263363632b960e11b6064820152608401610494565b6001600160a01b03838116600081815260066020908152604080832094871680845294825291829020805460ff191686151590811790915591519182527f17307eab39ab6107e8899845ad3d59bd9653f200f220920489ca2b5937696c31910160405180910390a3505050565b610da284848484611043565b61083b5760405162461bcd60e51b8152600401610494906117df565b606081610de25750506040805180820190915260018152600360fc1b602082015290565b8160005b8115610e0c5780610df681611852565b9150610e059050600a83611883565b9150610de6565b60008167ffffffffffffffff811115610e2757610e2761137d565b6040519080825280601f01601f191660200182016040528015610e51576020820181803683370190505b5090505b8415610cb357610e66600183611897565b9150610e73600a866118ae565b610e7e9060306118c2565b60f81b818381518110610e9357610e936118da565b60200101906001600160f81b031916908160001a905350610eb5600a86611883565b9450610e55565b84610f1c5760405162461bcd60e51b815260206004820152602a60248201527f54616c656e744c617965725265766965773a206d696e7420746f20696e76616c6044820152696964206164647265737360b01b6064820152608401610494565b60058411158015610f2b575060015b610f815760405162461bcd60e51b815260206004820152602160248201527f54616c656e744c617965725265766965773a20696e76616c696420726174696e6044820152606760f81b6064820152608401610494565b6000858152600460205260408120805460019290610fa09084906118c2565b9091555050600280546000908152600360209081526040808320899055925482526007905220610fd1908484611150565b50600280546000908152600a6020526040902082905554610ff39060016118c2565b60028190555060025485877f1b4914b51c47432f333179cfae2f82cfeac795eb91cfac40a3e82e180748f2f58787878760405161103394939291906118f0565b60405180910390a4505050505050565b60006001600160a01b0384163b1561114557604051630a85bd0160e11b81526001600160a01b0385169063150b7a0290611087903390899088908890600401611930565b602060405180830381600087803b1580156110a157600080fd5b505af19250505080156110d1575060408051601f3d908101601f191682019092526110ce9181019061196d565b60015b61112b573d8080156110ff576040519150601f19603f3d011682016040523d82523d6000602084013e611104565b606091505b5080516111235760405162461bcd60e51b8152600401610494906117df565b805181602001fd5b6001600160e01b031916630a85bd0160e11b149050610cb3565b506001949350505050565b82805461115c9061157d565b90600052602060002090601f01602090048101928261117e57600085556111c4565b82601f106111975782800160ff198235161785556111c4565b828001600101855582156111c4579182015b828111156111c45782358255916020019190600101906111a9565b506111d09291506111d4565b5090565b5b808211156111d057600081556001016111d5565b6001600160e01b031981168114610bcb57600080fd5b60006020828403121561121157600080fd5b81356108ae816111e9565b60005b8381101561123757818101518382015260200161121f565b8381111561083b5750506000910152565b6000815180845261126081602086016020860161121c565b601f01601f19169290920160200192915050565b6020815260006108ae6020830184611248565b60006020828403121561129957600080fd5b5035919050565b6001600160a01b0381168114610bcb57600080fd5b600080604083850312156112c857600080fd5b82356112d3816112a0565b946020939093013593505050565b6000806000606084860312156112f657600080fd5b8335611301816112a0565b92506020840135611311816112a0565b929592945050506040919091013590565b60006020828403121561133457600080fd5b81356108ae816112a0565b6000806040838503121561135257600080fd5b823561135d816112a0565b91506020830135801515811461137257600080fd5b809150509250929050565b634e487b7160e01b600052604160045260246000fd5b60405160e0810167ffffffffffffffff811182821017156113b6576113b661137d565b60405290565b604051601f8201601f1916810167ffffffffffffffff811182821017156113e5576113e561137d565b604052919050565b600067ffffffffffffffff8211156114075761140761137d565b50601f01601f191660200190565b6000806000806080858703121561142b57600080fd5b8435611436816112a0565b93506020850135611446816112a0565b925060408501359150606085013567ffffffffffffffff81111561146957600080fd5b8501601f8101871361147a57600080fd5b803561148d611488826113ed565b6113bc565b8181528860208385010111156114a257600080fd5b8160208401602083013760006020838301015280935050505092959194509250565b600080604083850312156114d757600080fd5b82356114e2816112a0565b91506020830135611372816112a0565b60008060008060006080868803121561150a57600080fd5b85359450602086013567ffffffffffffffff8082111561152957600080fd5b818801915088601f83011261153d57600080fd5b81358181111561154c57600080fd5b89602082850101111561155e57600080fd5b9699602092909201985095966040810135965060600135945092505050565b600181811c9082168061159157607f821691505b602082108114156115b257634e487b7160e01b600052602260045260246000fd5b50919050565b60208082526039908201527f54616c656e744c617965725265766965773a2063616c6c6572206973206e6f7460408201527f20746f6b656e206f776e6572206e6f7220617070726f76656400000000000000606082015260800190565b60006020828403121561162757600080fd5b81516108ae816112a0565b60208082526023908201527f54616c656e744c617965725265766965773a20696e76616c696420746f6b656e60408201526208125160ea1b606082015260800190565b60006020828403121561168757600080fd5b5051919050565b600083516116a081846020880161121c565b8351908301906116b481836020880161121c565b01949350505050565b8051600581106116cc57600080fd5b919050565b600082601f8301126116e257600080fd5b81516116f0611488826113ed565b81815284602083860101111561170557600080fd5b610cb382602083016020870161121c565b60006020828403121561172857600080fd5b815167ffffffffffffffff8082111561174057600080fd5b9083019060e0828603121561175457600080fd5b61175c611393565b611765836116bd565b815260208301516020820152604083015160408201526060830151606082015260808301518281111561179757600080fd5b6117a3878286016116d1565b60808301525060a083015160a082015260c083015160c082015280935050505092915050565b634e487b7160e01b600052602160045260246000fd5b6020808252603d908201527f54616c656e744c617965725265766965773a207472616e7366657220746f206e60408201527f6f6e20455243373231526563656976657220696d706c656d656e746572000000606082015260800190565b634e487b7160e01b600052601160045260246000fd5b60006000198214156118665761186661183c565b5060010190565b634e487b7160e01b600052601260045260246000fd5b6000826118925761189261186d565b500490565b6000828210156118a9576118a961183c565b500390565b6000826118bd576118bd61186d565b500690565b600082198211156118d5576118d561183c565b500190565b634e487b7160e01b600052603260045260246000fd5b848152606060208201528260608201528284608083013760006080848301015260006080601f19601f860116830101905082604083015295945050505050565b6001600160a01b038581168252841660208201526040810183905260806060820181905260009061196390830184611248565b9695505050505050565b60006020828403121561197f57600080fd5b81516108ae816111e956fea2646970667358221220983dde19441bdbbd83500d2d9ea5db16a66d74a8145e183e960984b667d82c7b64736f6c63430008090033",
  "linkReferences": {},
  "deployedLinkReferences": {}
}