{
  "_format": "hh-sol-artifact-1",
  "contractName": "TalentLayerEscrow",
  "sourceName": "contracts/TalentLayerEscrow.sol",
  "abi": [
    {
      "inputs": [],
      "stateMutability": "nonpayable",
      "type": "constructor"
    },
    {
      "anonymous": false,
      "inputs": [
        {
          "indexed": false,
          "internalType": "address",
          "name": "previousAdmin",
          "type": "address"
        },
        {
          "indexed": false,
          "internalType": "address",
          "name": "newAdmin",
          "type": "address"
        }
      ],
      "name": "AdminChanged",
      "type": "event"
    },
    {
      "anonymous": false,
      "inputs": [
        {
          "indexed": true,
          "internalType": "uint256",
          "name": "_transactionId",
          "type": "uint256"
        },
        {
          "indexed": false,
          "internalType": "enum TalentLayerEscrow.ArbitrationFeePaymentType",
          "name": "_paymentType",
          "type": "uint8"
        },
        {
          "indexed": false,
          "internalType": "enum TalentLayerEscrow.Party",
          "name": "_party",
          "type": "uint8"
        },
        {
          "indexed": false,
          "internalType": "uint256",
          "name": "_amount",
          "type": "uint256"
        }
      ],
      "name": "ArbitrationFeePayment",
      "type": "event"
    },
    {
      "anonymous": false,
      "inputs": [
        {
          "indexed": true,
          "internalType": "address",
          "name": "beacon",
          "type": "address"
        }
      ],
      "name": "BeaconUpgraded",
      "type": "event"
    },
    {
      "anonymous": false,
      "inputs": [
        {
          "indexed": true,
          "internalType": "contract Arbitrator",
          "name": "_arbitrator",
          "type": "address"
        },
        {
          "indexed": true,
          "internalType": "uint256",
          "name": "_disputeID",
          "type": "uint256"
        },
        {
          "indexed": false,
          "internalType": "uint256",
          "name": "_metaEvidenceID",
          "type": "uint256"
        },
        {
          "indexed": false,
          "internalType": "uint256",
          "name": "_evidenceGroupID",
          "type": "uint256"
        }
      ],
      "name": "Dispute",
      "type": "event"
    },
    {
      "anonymous": false,
      "inputs": [
        {
          "indexed": true,
          "internalType": "contract Arbitrator",
          "name": "_arbitrator",
          "type": "address"
        },
        {
          "indexed": true,
          "internalType": "uint256",
          "name": "_evidenceGroupID",
          "type": "uint256"
        },
        {
          "indexed": true,
          "internalType": "address",
          "name": "_party",
          "type": "address"
        },
        {
          "indexed": false,
          "internalType": "string",
          "name": "_evidence",
          "type": "string"
        }
      ],
      "name": "Evidence",
      "type": "event"
    },
    {
      "anonymous": false,
      "inputs": [
        {
          "indexed": true,
          "internalType": "uint256",
          "name": "_transactionId",
          "type": "uint256"
        },
        {
          "indexed": true,
          "internalType": "uint256",
          "name": "_partyId",
          "type": "uint256"
        },
        {
          "indexed": false,
          "internalType": "string",
          "name": "_evidenceUri",
          "type": "string"
        }
      ],
      "name": "EvidenceSubmitted",
      "type": "event"
    },
    {
      "anonymous": false,
      "inputs": [
        {
          "indexed": false,
          "internalType": "uint256",
          "name": "_platformId",
          "type": "uint256"
        },
        {
          "indexed": true,
          "internalType": "address",
          "name": "_token",
          "type": "address"
        },
        {
          "indexed": false,
          "internalType": "uint256",
          "name": "_amount",
          "type": "uint256"
        }
      ],
      "name": "FeesClaimed",
      "type": "event"
    },
    {
      "anonymous": false,
      "inputs": [
        {
          "indexed": true,
          "internalType": "uint256",
          "name": "_transactionId",
          "type": "uint256"
        },
        {
          "indexed": false,
          "internalType": "enum TalentLayerEscrow.Party",
          "name": "_party",
          "type": "uint8"
        }
      ],
      "name": "HasToPayFee",
      "type": "event"
    },
    {
      "anonymous": false,
      "inputs": [
        {
          "indexed": false,
          "internalType": "uint8",
          "name": "version",
          "type": "uint8"
        }
      ],
      "name": "Initialized",
      "type": "event"
    },
    {
      "anonymous": false,
      "inputs": [
        {
          "indexed": true,
          "internalType": "uint256",
          "name": "_metaEvidenceID",
          "type": "uint256"
        },
        {
          "indexed": false,
          "internalType": "string",
          "name": "_evidence",
          "type": "string"
        }
      ],
      "name": "MetaEvidence",
      "type": "event"
    },
    {
      "anonymous": false,
      "inputs": [
        {
          "indexed": false,
          "internalType": "uint256",
          "name": "_platformId",
          "type": "uint256"
        },
        {
          "indexed": false,
          "internalType": "uint256",
          "name": "_serviceId",
          "type": "uint256"
        },
        {
          "indexed": true,
          "internalType": "address",
          "name": "_token",
          "type": "address"
        },
        {
          "indexed": false,
          "internalType": "uint256",
          "name": "_amount",
          "type": "uint256"
        }
      ],
      "name": "OriginProposalValidationFeeRateReleased",
      "type": "event"
    },
    {
      "anonymous": false,
      "inputs": [
        {
          "indexed": false,
          "internalType": "uint256",
          "name": "_platformId",
          "type": "uint256"
        },
        {
          "indexed": false,
          "internalType": "uint256",
          "name": "_serviceId",
          "type": "uint256"
        },
        {
          "indexed": true,
          "internalType": "address",
          "name": "_token",
          "type": "address"
        },
        {
          "indexed": false,
          "internalType": "uint256",
          "name": "_amount",
          "type": "uint256"
        }
      ],
      "name": "OriginServiceFeeRateReleased",
      "type": "event"
    },
    {
      "anonymous": false,
      "inputs": [
        {
          "indexed": true,
          "internalType": "address",
          "name": "previousOwner",
          "type": "address"
        },
        {
          "indexed": true,
          "internalType": "address",
          "name": "newOwner",
          "type": "address"
        }
      ],
      "name": "OwnershipTransferred",
      "type": "event"
    },
    {
      "anonymous": false,
      "inputs": [
        {
          "indexed": false,
          "internalType": "uint256",
          "name": "_transactionId",
          "type": "uint256"
        },
        {
          "indexed": false,
          "internalType": "enum TalentLayerEscrow.PaymentType",
          "name": "_paymentType",
          "type": "uint8"
        },
        {
          "indexed": false,
          "internalType": "uint256",
          "name": "_amount",
          "type": "uint256"
        },
        {
          "indexed": false,
          "internalType": "address",
          "name": "_token",
          "type": "address"
        },
        {
          "indexed": false,
          "internalType": "uint256",
          "name": "_serviceId",
          "type": "uint256"
        }
      ],
      "name": "Payment",
      "type": "event"
    },
    {
      "anonymous": false,
      "inputs": [
        {
          "indexed": false,
          "internalType": "uint256",
          "name": "_serviceId",
          "type": "uint256"
        }
      ],
      "name": "PaymentCompleted",
      "type": "event"
    },
    {
      "anonymous": false,
      "inputs": [
        {
          "indexed": false,
          "internalType": "uint16",
          "name": "_protocolEscrowFeeRate",
          "type": "uint16"
        }
      ],
      "name": "ProtocolEscrowFeeRateUpdated",
      "type": "event"
    },
    {
      "anonymous": false,
      "inputs": [
        {
          "indexed": true,
          "internalType": "contract Arbitrator",
          "name": "_arbitrator",
          "type": "address"
        },
        {
          "indexed": true,
          "internalType": "uint256",
          "name": "_disputeID",
          "type": "uint256"
        },
        {
          "indexed": false,
          "internalType": "uint256",
          "name": "_ruling",
          "type": "uint256"
        }
      ],
      "name": "Ruling",
      "type": "event"
    },
    {
      "anonymous": false,
      "inputs": [
        {
          "indexed": true,
          "internalType": "uint256",
          "name": "_transactionId",
          "type": "uint256"
        },
        {
          "indexed": false,
          "internalType": "uint256",
          "name": "_ruling",
          "type": "uint256"
        }
      ],
      "name": "RulingExecuted",
      "type": "event"
    },
    {
      "anonymous": false,
      "inputs": [
        {
          "indexed": false,
          "internalType": "uint256",
          "name": "serviceId",
          "type": "uint256"
        },
        {
          "indexed": false,
          "internalType": "uint256",
          "name": "sellerId",
          "type": "uint256"
        },
        {
          "indexed": false,
          "internalType": "uint256",
          "name": "transactionId",
          "type": "uint256"
        }
      ],
      "name": "ServiceProposalConfirmedWithDeposit",
      "type": "event"
    },
    {
      "anonymous": false,
      "inputs": [
        {
          "indexed": false,
          "internalType": "uint256",
          "name": "_transactionId",
          "type": "uint256"
        },
        {
          "indexed": false,
          "internalType": "uint256",
          "name": "_senderId",
          "type": "uint256"
        },
        {
          "indexed": false,
          "internalType": "uint256",
          "name": "_receiverId",
          "type": "uint256"
        },
        {
          "indexed": false,
          "internalType": "address",
          "name": "_token",
          "type": "address"
        },
        {
          "indexed": false,
          "internalType": "uint256",
          "name": "_amount",
          "type": "uint256"
        },
        {
          "indexed": false,
          "internalType": "uint256",
          "name": "_serviceId",
          "type": "uint256"
        },
        {
          "indexed": false,
          "internalType": "uint16",
          "name": "_protocolEscrowFeeRate",
          "type": "uint16"
        },
        {
          "indexed": false,
          "internalType": "uint16",
          "name": "_originServiceFeeRate",
          "type": "uint16"
        },
        {
          "indexed": false,
          "internalType": "uint16",
          "name": "_originValidatedProposalFeeRate",
          "type": "uint16"
        },
        {
          "indexed": false,
          "internalType": "contract Arbitrator",
          "name": "_arbitrator",
          "type": "address"
        },
        {
          "indexed": false,
          "internalType": "bytes",
          "name": "_arbitratorExtraData",
          "type": "bytes"
        },
        {
          "indexed": false,
          "internalType": "uint256",
          "name": "_arbitrationFeeTimeout",
          "type": "uint256"
        }
      ],
      "name": "TransactionCreated",
      "type": "event"
    },
    {
      "anonymous": false,
      "inputs": [
        {
          "indexed": true,
          "internalType": "address",
          "name": "implementation",
          "type": "address"
        }
      ],
      "name": "Upgraded",
      "type": "event"
    },
    {
      "inputs": [
        {
          "internalType": "uint256",
          "name": "_transactionId",
          "type": "uint256"
        }
      ],
      "name": "appeal",
      "outputs": [],
      "stateMutability": "payable",
      "type": "function"
    },
    {
      "inputs": [
        {
          "internalType": "uint256",
          "name": "_platformId",
          "type": "uint256"
        },
        {
          "internalType": "address",
          "name": "_tokenAddress",
          "type": "address"
        }
      ],
      "name": "claim",
      "outputs": [],
      "stateMutability": "nonpayable",
      "type": "function"
    },
    {
      "inputs": [
        {
          "internalType": "uint256",
          "name": "_platformId",
          "type": "uint256"
        }
      ],
      "name": "claimAll",
      "outputs": [],
      "stateMutability": "nonpayable",
      "type": "function"
    },
    {
      "inputs": [
        {
          "internalType": "string",
          "name": "_metaEvidence",
          "type": "string"
        },
        {
          "internalType": "uint256",
          "name": "_serviceId",
          "type": "uint256"
        },
        {
          "internalType": "uint256",
          "name": "_proposalId",
          "type": "uint256"
        }
      ],
      "name": "createETHTransaction",
      "outputs": [
        {
          "internalType": "uint256",
          "name": "",
          "type": "uint256"
        }
      ],
      "stateMutability": "payable",
      "type": "function"
    },
    {
      "inputs": [
        {
          "internalType": "string",
          "name": "_metaEvidence",
          "type": "string"
        },
        {
          "internalType": "uint256",
          "name": "_serviceId",
          "type": "uint256"
        },
        {
          "internalType": "uint256",
          "name": "_proposalId",
          "type": "uint256"
        }
      ],
      "name": "createTokenTransaction",
      "outputs": [
        {
          "internalType": "uint256",
          "name": "",
          "type": "uint256"
        }
      ],
      "stateMutability": "nonpayable",
      "type": "function"
    },
    {
      "inputs": [
        {
          "internalType": "uint256",
          "name": "",
          "type": "uint256"
        }
      ],
      "name": "disputeIDtoTransactionID",
      "outputs": [
        {
          "internalType": "uint256",
          "name": "",
          "type": "uint256"
        }
      ],
      "stateMutability": "view",
      "type": "function"
    },
    {
      "inputs": [
        {
          "internalType": "address",
          "name": "_token",
          "type": "address"
        }
      ],
      "name": "getClaimableFeeBalance",
      "outputs": [
        {
          "internalType": "uint256",
          "name": "balance",
          "type": "uint256"
        }
      ],
      "stateMutability": "view",
      "type": "function"
    },
    {
      "inputs": [],
      "name": "getProtocolWallet",
      "outputs": [
        {
          "internalType": "address",
          "name": "",
          "type": "address"
        }
      ],
      "stateMutability": "view",
      "type": "function"
    },
    {
      "inputs": [
        {
          "internalType": "uint256",
          "name": "_transactionId",
          "type": "uint256"
        }
      ],
      "name": "getTransactionDetails",
      "outputs": [
        {
          "components": [
            {
              "internalType": "uint256",
              "name": "id",
              "type": "uint256"
            },
            {
              "internalType": "uint256",
              "name": "proposalId",
              "type": "uint256"
            },
            {
              "internalType": "address",
              "name": "sender",
              "type": "address"
            },
            {
              "internalType": "address",
              "name": "receiver",
              "type": "address"
            },
            {
              "internalType": "address",
              "name": "token",
              "type": "address"
            },
            {
              "internalType": "uint256",
              "name": "amount",
              "type": "uint256"
            },
            {
              "internalType": "uint256",
              "name": "serviceId",
              "type": "uint256"
            },
            {
              "internalType": "uint16",
              "name": "protocolEscrowFeeRate",
              "type": "uint16"
            },
            {
              "internalType": "uint16",
              "name": "originServiceFeeRate",
              "type": "uint16"
            },
            {
              "internalType": "uint16",
              "name": "originValidatedProposalFeeRate",
              "type": "uint16"
            },
            {
              "internalType": "uint256",
              "name": "disputeId",
              "type": "uint256"
            },
            {
              "internalType": "uint256",
              "name": "senderFee",
              "type": "uint256"
            },
            {
              "internalType": "uint256",
              "name": "receiverFee",
              "type": "uint256"
            },
            {
              "internalType": "uint256",
              "name": "lastInteraction",
              "type": "uint256"
            },
            {
              "internalType": "enum TalentLayerEscrow.Status",
              "name": "status",
              "type": "uint8"
            },
            {
              "internalType": "contract Arbitrator",
              "name": "arbitrator",
              "type": "address"
            },
            {
              "internalType": "bytes",
              "name": "arbitratorExtraData",
              "type": "bytes"
            },
            {
              "internalType": "uint256",
              "name": "arbitrationFeeTimeout",
              "type": "uint256"
            }
          ],
          "internalType": "struct TalentLayerEscrow.Transaction",
          "name": "transaction",
          "type": "tuple"
        }
      ],
      "stateMutability": "view",
      "type": "function"
    },
    {
      "inputs": [
        {
          "internalType": "address",
          "name": "_serviceRegistryAddress",
          "type": "address"
        },
        {
          "internalType": "address",
          "name": "_talentLayerIDAddress",
          "type": "address"
        },
        {
          "internalType": "address",
          "name": "_talentLayerPlatformIDAddress",
          "type": "address"
        }
      ],
      "name": "initialize",
      "outputs": [],
      "stateMutability": "nonpayable",
      "type": "function"
    },
    {
      "inputs": [],
      "name": "owner",
      "outputs": [
        {
          "internalType": "address",
          "name": "",
          "type": "address"
        }
      ],
      "stateMutability": "view",
      "type": "function"
    },
    {
      "inputs": [
        {
          "internalType": "uint256",
          "name": "_transactionId",
          "type": "uint256"
        }
      ],
      "name": "payArbitrationFeeByReceiver",
      "outputs": [],
      "stateMutability": "payable",
      "type": "function"
    },
    {
      "inputs": [
        {
          "internalType": "uint256",
          "name": "_transactionId",
          "type": "uint256"
        }
      ],
      "name": "payArbitrationFeeBySender",
      "outputs": [],
      "stateMutability": "payable",
      "type": "function"
    },
    {
      "inputs": [],
      "name": "protocolEscrowFeeRate",
      "outputs": [
        {
          "internalType": "uint16",
          "name": "",
          "type": "uint16"
        }
      ],
      "stateMutability": "view",
      "type": "function"
    },
    {
      "inputs": [],
      "name": "proxiableUUID",
      "outputs": [
        {
          "internalType": "bytes32",
          "name": "",
          "type": "bytes32"
        }
      ],
      "stateMutability": "view",
      "type": "function"
    },
    {
      "inputs": [
        {
          "internalType": "uint256",
          "name": "_transactionId",
          "type": "uint256"
        },
        {
          "internalType": "uint256",
          "name": "_amount",
          "type": "uint256"
        }
      ],
      "name": "reimburse",
      "outputs": [],
      "stateMutability": "nonpayable",
      "type": "function"
    },
    {
      "inputs": [
        {
          "internalType": "uint256",
          "name": "_transactionId",
          "type": "uint256"
        },
        {
          "internalType": "uint256",
          "name": "_amount",
          "type": "uint256"
        }
      ],
      "name": "release",
      "outputs": [],
      "stateMutability": "nonpayable",
      "type": "function"
    },
    {
      "inputs": [],
      "name": "renounceOwnership",
      "outputs": [],
      "stateMutability": "nonpayable",
      "type": "function"
    },
    {
      "inputs": [
        {
          "internalType": "uint256",
          "name": "_disputeID",
          "type": "uint256"
        },
        {
          "internalType": "uint256",
          "name": "_ruling",
          "type": "uint256"
        }
      ],
      "name": "rule",
      "outputs": [],
      "stateMutability": "nonpayable",
      "type": "function"
    },
    {
      "inputs": [
        {
          "internalType": "uint256",
          "name": "_transactionId",
          "type": "uint256"
        },
        {
          "internalType": "string",
          "name": "_evidence",
          "type": "string"
        }
      ],
      "name": "submitEvidence",
      "outputs": [],
      "stateMutability": "nonpayable",
      "type": "function"
    },
    {
      "inputs": [
        {
          "internalType": "uint256",
          "name": "_transactionId",
          "type": "uint256"
        }
      ],
      "name": "timeOutByReceiver",
      "outputs": [],
      "stateMutability": "nonpayable",
      "type": "function"
    },
    {
      "inputs": [
        {
          "internalType": "uint256",
          "name": "_transactionId",
          "type": "uint256"
        }
      ],
      "name": "timeOutBySender",
      "outputs": [],
      "stateMutability": "nonpayable",
      "type": "function"
    },
    {
      "inputs": [
        {
          "internalType": "address",
          "name": "newOwner",
          "type": "address"
        }
      ],
      "name": "transferOwnership",
      "outputs": [],
      "stateMutability": "nonpayable",
      "type": "function"
    },
    {
      "inputs": [
        {
          "internalType": "uint16",
          "name": "_protocolEscrowFeeRate",
          "type": "uint16"
        }
      ],
      "name": "updateProtocolEscrowFeeRate",
      "outputs": [],
      "stateMutability": "nonpayable",
      "type": "function"
    },
    {
      "inputs": [
        {
          "internalType": "address payable",
          "name": "_protocolWallet",
          "type": "address"
        }
      ],
      "name": "updateProtocolWallet",
      "outputs": [],
      "stateMutability": "nonpayable",
      "type": "function"
    },
    {
      "inputs": [
        {
          "internalType": "address",
          "name": "newImplementation",
          "type": "address"
        }
      ],
      "name": "upgradeTo",
      "outputs": [],
      "stateMutability": "nonpayable",
      "type": "function"
    },
    {
      "inputs": [
        {
          "internalType": "address",
          "name": "newImplementation",
          "type": "address"
        },
        {
          "internalType": "bytes",
          "name": "data",
          "type": "bytes"
        }
      ],
      "name": "upgradeToAndCall",
      "outputs": [],
      "stateMutability": "payable",
      "type": "function"
    }
  ],
  "bytecode": "0x60a0604052306080523480156200001557600080fd5b506200002062000026565b620000e8565b600054610100900460ff1615620000935760405162461bcd60e51b815260206004820152602760248201527f496e697469616c697a61626c653a20636f6e747261637420697320696e697469604482015266616c697a696e6760c81b606482015260840160405180910390fd5b60005460ff9081161015620000e6576000805460ff191660ff9081179091556040519081527f7f26b83ff96e1f2b6a682f133852f6798a09c465da95921460cefb38474024989060200160405180910390a15b565b6080516158bd6200012060003960008181610a8701528181610ac7015281816113010152818161134101526113d001526158bd6000f3fe60806040526004361061019c5760003560e01c80636e72b452116100ec578063c0c53b8b1161008a578063eb63612d11610064578063eb63612d14610477578063f2fde38b14610497578063f42cadc1146104b7578063fe43a992146104d757600080fd5b8063c0c53b8b14610417578063ddd5e1b214610437578063e308a0991461045757600080fd5b80637e69b7b0116100c65780637e69b7b0146103b35780638363def4146103c65780638da5cb5b146103d9578063a6a7f0eb146103f757600080fd5b80636e72b45214610378578063715018a61461038b5780637b44cdb5146103a057600080fd5b8063366a4120116101595780634f1ef286116101335780634f1ef286146102fd57806352d1902d146103105780635a34257a146103255780636930fd2a1461035a57600080fd5b8063366a41201461029d5780633de0c7ef146102bd578063419f648f146102dd57600080fd5b80630a1a47d6146101a15780630fa683d3146101d457806311796434146102015780632fbe3b031461022e578063311a6c561461025b5780633659cfe61461027d575b600080fd5b3480156101ad57600080fd5b506101c16101bc366004614ac5565b6104f7565b6040519081526020015b60405180910390f35b3480156101e057600080fd5b506101f46101ef366004614ae2565b61065e565b6040516101cb9190614b7d565b34801561020d57600080fd5b506102166108eb565b6040516001600160a01b0390911681526020016101cb565b34801561023a57600080fd5b506101c1610249366004614ae2565b60cf6020526000908152604090205481565b34801561026757600080fd5b5061027b610276366004614cc6565b610905565b005b34801561028957600080fd5b5061027b610298366004614ac5565b610a7c565b3480156102a957600080fd5b5061027b6102b8366004614cc6565b610b59565b3480156102c957600080fd5b5061027b6102d8366004614ae2565b610e1e565b3480156102e957600080fd5b506101c16102f8366004614e02565b610fa3565b61027b61030b366004614e50565b6112f6565b34801561031c57600080fd5b506101c16113c3565b34801561033157600080fd5b5060cd5461034790600160a01b900461ffff1681565b60405161ffff90911681526020016101cb565b34801561036657600080fd5b5061027b610375366004614ae2565b50565b61027b610386366004614ae2565b611476565b34801561039757600080fd5b5061027b61171a565b61027b6103ae366004614ae2565b61172e565b61027b6103c1366004614ae2565b6119b2565b6101c16103d4366004614e02565b611a81565b3480156103e557600080fd5b506097546001600160a01b0316610216565b34801561040357600080fd5b5061027b610412366004614eb4565b611e54565b34801561042357600080fd5b5061027b610432366004614ef1565b6120c6565b34801561044357600080fd5b5061027b610452366004614f3c565b612235565b34801561046357600080fd5b5061027b610472366004614ac5565b6123df565b34801561048357600080fd5b5061027b610492366004614f7c565b612409565b3480156104a357600080fd5b5061027b6104b2366004614ac5565b612467565b3480156104c357600080fd5b5061027b6104d2366004614ae2565b6124dd565b3480156104e357600080fd5b5061027b6104f2366004614cc6565b612660565b60003361050c6097546001600160a01b031690565b6001600160a01b0316141561055657506001600160a01b031660009081527f992e0e3e7050db88ec37ec33505f46a9813ea5551fe17ef58dc201344bcbaf93602052604090205490565b60cd5460405163aa44caaf60e01b81523360048201526000916001600160a01b03169063aa44caaf9060240160206040518083038186803b15801561059a57600080fd5b505afa1580156105ae573d6000803e3d6000fd5b505050506040513d601f19601f820116820180604052508101906105d29190614f99565b60cd5460405162f577a560e81b8152600481018390529192506001600160a01b03169063f577a5009060240160006040518083038186803b15801561061657600080fd5b505afa15801561062a573d6000803e3d6000fd5b50505060009182525060ca602090815260408083206001600160a01b0390951683529390529190912054919050565b919050565b6106666148c1565b60c95482106106905760405162461bcd60e51b815260040161068790614fb2565b60405180910390fd5b600060c983815481106106a5576106a5614fe9565b60009182526020909120600f9091020160028101549091506001600160a01b03163314806106df575060038101546001600160a01b031633145b61073c5760405162461bcd60e51b815260206004820152602860248201527f596f7520617265206e6f742072656c6174656420746f2074686973207472616e60448201526739b0b1ba34b7b71760c11b6064820152608401610687565b6040805161024081018252825481526001830154602082015260028301546001600160a01b03908116928201929092526003830154821660608201526004808401549092166080820152600583015460a0820152600683015460c0820152600783015461ffff80821660e08401526201000082048116610100840152600160201b9091041661012082015260088301546101408201526009830154610160820152600a830154610180820152600b8301546101a0820152600c830154909183916101c084019160ff9091169081111561081757610817614afb565b600481111561082857610828614afb565b8152600c82015461010090046001600160a01b03166020820152600d8201805460409092019161085790614fff565b80601f016020809104026020016040519081016040528092919081815260200182805461088390614fff565b80156108d05780601f106108a5576101008083540402835291602001916108d0565b820191906000526020600020905b8154815290600101906020018083116108b357829003601f168201915b50505050508152602001600e82015481525050915050919050565b60006108f5612920565b5060ce546001600160a01b031690565b600082815260cf602052604081205460c980549192918390811061092b5761092b614fe9565b90600052602060002090600f0201905080600c0160019054906101000a90046001600160a01b03166001600160a01b0316336001600160a01b0316146109be5760405162461bcd60e51b815260206004820152602260248201527f5468652063616c6c6572206d757374206265207468652061726269747261746f604482015261391760f11b6064820152608401610687565b6003600c82015460ff1660048111156109d9576109d9614afb565b14610a355760405162461bcd60e51b815260206004820152602660248201527f54686520646973707574652068617320616c7265616479206265656e2072657360448201526537b63b32b21760d11b6064820152608401610687565b604051838152849033907f394027a5fa6e098a1191094d1719d6929b9abc535fcc0c8f448d6a4e756222769060200160405180910390a3610a76828461297a565b50505050565b306001600160a01b037f0000000000000000000000000000000000000000000000000000000000000000161415610ac55760405162461bcd60e51b81526004016106879061503a565b7f00000000000000000000000000000000000000000000000000000000000000006001600160a01b0316610b0e600080516020615821833981519152546001600160a01b031690565b6001600160a01b031614610b345760405162461bcd60e51b815260040161068790615086565b610b3d816132b4565b60408051600080825260208201909252610375918391906132bc565b60c9548210610b7a5760405162461bcd60e51b815260040161068790614fb2565b600060c98381548110610b8f57610b8f614fe9565b600091825260209091206002600f90920201908101549091506001600160a01b03163314610bcf5760405162461bcd60e51b8152600401610687906150d2565b6000600c82015460ff166004811115610bea57610bea614afb565b14610c075760405162461bcd60e51b8152600401610687906150fa565b8181600501541015610c515760405162461bcd60e51b815260206004820152601360248201527224b739bab33334b1b4b2b73a10333ab732399760691b6044820152606401610687565b81816005016000828254610c659190615156565b90915550506040805161024081018252825481526001830154602082015260028301546001600160a01b03908116928201929092526003830154821660608201526004808401549092166080820152600583015460a0820152600683015460c0820152600783015461ffff80821660e08401526201000082048116610100840152600160201b9091041661012082015260088301546101408201526009830154610160820152600a830154610180820152600b8301546101a0820152600c830154610e199284916101c084019160ff90911690811115610d4757610d47614afb565b6004811115610d5857610d58614afb565b8152600c82015461010090046001600160a01b03166020820152600d82018054604090920191610d8790614fff565b80601f0160208091040260200160405190810160405280929190818152602001828054610db390614fff565b8015610e005780601f10610dd557610100808354040283529160200191610e00565b820191906000526020600020905b815481529060010190602001808311610de357829003601f168201915b50505050508152602001600e8201548152505083613436565b505050565b600060c98281548110610e3357610e33614fe9565b60009182526020909120600f9091020190506001600c82015460ff166004811115610e6057610e60614afb565b14610ec35760405162461bcd60e51b815260206004820152602d60248201527f546865207472616e73616374696f6e206973206e6f742077616974696e67206f60448201526c37103a34329039b2b73232b91760991b6064820152608401610687565b600e810154600b820154610ed79042615156565b1015610f255760405162461bcd60e51b815260206004820181905260248201527f54696d656f75742074696d6520686173206e6f7420706173736564207965742e6044820152606401610687565b600981015415610f9457600981018054600091829055600283015460405191926001600160a01b0390911691839181818185875af1925050503d8060008114610f8a576040519150601f19603f3d011682016040523d82523d6000602084013e610f8f565b606091505b505050505b610f9f82600261297a565b5050565b6000610fad61498d565b610fb56149d1565b600080610fc287876137dd565b60cd5460e0840151604051630b7a459360e31b8152600481019190915294985092965090945092506000916001600160a01b0390911690635bd22c989060240160006040518083038186803b15801561101a57600080fd5b505afa15801561102e573d6000803e3d6000fd5b505050506040513d6000823e601f3d908101601f1916820160405261105691908101906151c8565b60cd546080870151604051630b7a459360e31b815261ffff90911660048201529192506000916001600160a01b0390911690635bd22c989060240160006040518083038186803b1580156110a957600080fd5b505afa1580156110bd573d6000803e3d6000fd5b505050506040513d6000823e601f3d908101601f191682016040526110e591908101906151c8565b90506000611100876060015184606001518460800151613935565b9050336001600160a01b0386161461112a5760405162461bcd60e51b8152600401610687906150d2565b60048651600481111561113f5761113f614afb565b146111875760405162461bcd60e51b815260206004820152601860248201527729b2b93b34b1b29039ba30ba3ab9903737ba1037b832b71760411b6044820152606401610687565b60008751600281111561119c5761119c614afb565b146111e95760405162461bcd60e51b815260206004820152601c60248201527f50726f706f73616c20737461747573206e6f742070656e64696e672e000000006044820152606401610687565b888760200151146112355760405162461bcd60e51b815260206004820152601660248201527524b731b7b93932b1ba10383937b837b9b0b61024a21760511b6044820152606401610687565b600061125a8b8b866060015186608001518860a001518960c001518a60e0015161399e565b60cb546040516353eaf57560e11b8152600481018e9052602481018d9052604481018390529192506001600160a01b03169063a7d5eaea90606401600060405180830381600087803b1580156112af57600080fd5b505af11580156112c3573d6000803e3d6000fd5b505050506112d686896040015184613c49565b6112e5818d8a60200151613d16565b9750505050505050505b9392505050565b306001600160a01b037f000000000000000000000000000000000000000000000000000000000000000016141561133f5760405162461bcd60e51b81526004016106879061503a565b7f00000000000000000000000000000000000000000000000000000000000000006001600160a01b0316611388600080516020615821833981519152546001600160a01b031690565b6001600160a01b0316146113ae5760405162461bcd60e51b815260040161068790615086565b6113b7826132b4565b610f9f828260016132bc565b6000306001600160a01b037f000000000000000000000000000000000000000000000000000000000000000016146114635760405162461bcd60e51b815260206004820152603860248201527f555550535570677261646561626c653a206d757374206e6f742062652063616c60448201527f6c6564207468726f7567682064656c656761746563616c6c00000000000000006064820152608401610687565b5060008051602061582183398151915290565b600060c9828154811061148b5761148b614fe9565b60009182526020909120600c600f909202019081015490915061010090046001600160a01b03166114ce5760405162461bcd60e51b8152600401610687906152c8565b6003600c82015460ff1660048111156114e9576114e9614afb565b106115065760405162461bcd60e51b8152600401610687906152f5565b60038101546001600160a01b031633146115625760405162461bcd60e51b815260206004820181905260248201527f5468652063616c6c6572206d757374206265207468652072656365697665722e6044820152606401610687565b600c81015460405163f7434ea960e01b815260009161010090046001600160a01b03169063f7434ea99061159d90600d860190600401615409565b60206040518083038186803b1580156115b557600080fd5b505afa1580156115c9573d6000803e3d6000fd5b505050506040513d601f19601f820116820180604052508101906115ed9190614f99565b90503482600a016000828254611603919061541c565b9091555050600a82015481146116815760405162461bcd60e51b815260206004820152603760248201527f54686520726563656976657220666565206d75737420626520657175616c207460448201527f6f20746865206172626974726174696f6e20636f73742e0000000000000000006064820152608401610687565b42600b8301556040518390600080516020615841833981519152906116ad906000906001903490615444565b60405180910390a2808260090154101561171057600c8201805460ff1916600117905560405183907fc74b9f7dedf2887cd3c113b6d8da9cea19e55c1116e25f1f0e1b72d7543179b5906117039060009061546e565b60405180910390a2505050565b610e198382613f8a565b611722612920565b61172c600061420b565b565b600060c9828154811061174357611743614fe9565b60009182526020909120600c600f909202019081015490915061010090046001600160a01b03166117865760405162461bcd60e51b8152600401610687906152c8565b6003600c82015460ff1660048111156117a1576117a1614afb565b106117be5760405162461bcd60e51b8152600401610687906152f5565b60028101546001600160a01b0316331461181a5760405162461bcd60e51b815260206004820152601e60248201527f5468652063616c6c6572206d757374206265207468652073656e6465722e00006044820152606401610687565b600c81015460405163f7434ea960e01b815260009161010090046001600160a01b03169063f7434ea99061185590600d860190600401615409565b60206040518083038186803b15801561186d57600080fd5b505afa158015611881573d6000803e3d6000fd5b505050506040513d601f19601f820116820180604052508101906118a59190614f99565b9050348260090160008282546118bb919061541c565b9091555050600982015481146119315760405162461bcd60e51b815260206004820152603560248201527f5468652073656e64657220666565206d75737420626520657175616c20746f206044820152743a34329030b93134ba3930ba34b7b71031b7b9ba1760591b6064820152608401610687565b42600b83015560405183906000805160206158418339815191529061195c9060009081903490615444565b60405180910390a28082600a0154101561171057600c8201805460ff1916600217905560405183907fc74b9f7dedf2887cd3c113b6d8da9cea19e55c1116e25f1f0e1b72d7543179b5906117039060019061546e565b600060c982815481106119c7576119c7614fe9565b60009182526020909120600c600f909202019081015490915061010090046001600160a01b0316611a0a5760405162461bcd60e51b8152600401610687906152c8565b600c810154600882015460405163093225f160e31b81526101009092046001600160a01b0316916349912f88913491611a4b9190600d870190600401615481565b6000604051808303818588803b158015611a6457600080fd5b505af1158015611a78573d6000803e3d6000fd5b50505050505050565b6000611a8b61498d565b611a936149d1565b600080611aa087876137dd565b60cd5460e0840151604051630b7a459360e31b8152600481019190915294985092965090945092506000916001600160a01b0390911690635bd22c989060240160006040518083038186803b158015611af857600080fd5b505afa158015611b0c573d6000803e3d6000fd5b505050506040513d6000823e601f3d908101601f19168201604052611b3491908101906151c8565b60cd546080870151604051630b7a459360e31b815261ffff90911660048201529192506000916001600160a01b0390911690635bd22c989060240160006040518083038186803b158015611b8757600080fd5b505afa158015611b9b573d6000803e3d6000fd5b505050506040513d6000823e601f3d908101601f19168201604052611bc391908101906151c8565b90506000611bde876060015184606001518460800151613935565b9050336001600160a01b03861614611c085760405162461bcd60e51b8152600401610687906150d2565b803414611c4d5760405162461bcd60e51b81526020600482015260136024820152722737b716b6b0ba31b434b73390333ab732399760691b6044820152606401610687565b60408701516001600160a01b031615611ca85760405162461bcd60e51b815260206004820152601760248201527f50726f706f73616c20746f6b656e206e6f74204554482e0000000000000000006044820152606401610687565b88876020015114611cf45760405162461bcd60e51b815260206004820152601660248201527524b731b7b93932b1ba10383937b837b9b0b61024a21760511b6044820152606401610687565b600486516004811115611d0957611d09614afb565b14611d515760405162461bcd60e51b815260206004820152601860248201527729b2b93b34b1b29039ba30ba3ab9903737ba1037b832b71760411b6044820152606401610687565b600087516002811115611d6657611d66614afb565b14611db35760405162461bcd60e51b815260206004820152601c60248201527f50726f706f73616c20737461747573206e6f742070656e64696e672e000000006044820152606401610687565b6000611dd88b8b866060015186608001518860a001518960c001518a60e0015161399e565b60cb546040516353eaf57560e11b8152600481018e9052602481018d9052604481018390529192506001600160a01b03169063a7d5eaea90606401600060405180830381600087803b158015611e2d57600080fd5b505af1158015611e41573d6000803e3d6000fd5b505050506112e5818d8a60200151613d16565b600060c98381548110611e6957611e69614fe9565b60009182526020909120600c600f909202019081015490915061010090046001600160a01b0316611eac5760405162461bcd60e51b8152600401610687906152c8565b60028101546001600160a01b0316331480611ed3575060038101546001600160a01b031633145b611f365760405162461bcd60e51b815260206004820152602e60248201527f5468652063616c6c6572206d757374206265207468652073656e646572206f7260448201526d103a3432903932b1b2b4bb32b91760911b6064820152608401610687565b6004600c82015460ff166004811115611f5157611f51614afb565b10611fb95760405162461bcd60e51b815260206004820152603260248201527f4d757374206e6f742073656e642065766964656e63652069662074686520646960448201527139b83aba329034b9903932b9b7b63b32b21760711b6064820152608401610687565b600c810154604051339185916101009091046001600160a01b0316907fdccf2f8b2cc26eafcd61905cba744cff4b81d14740725f6376390dc6298a6a3c9061200290879061549a565b60405180910390a460cc5460405162438b6360e81b81523360048201526000916001600160a01b03169063438b63009060240160206040518083038186803b15801561204d57600080fd5b505afa158015612061573d6000803e3d6000fd5b505050506040513d601f19601f820116820180604052508101906120859190614f99565b905080847fd998ce0f89c38b0f93256f0b843a404a3a3c5055b75265623f7cb9c369a1dd62856040516120b8919061549a565b60405180910390a350505050565b600054610100900460ff16158080156120e65750600054600160ff909116105b806121005750303b158015612100575060005460ff166001145b6121635760405162461bcd60e51b815260206004820152602e60248201527f496e697469616c697a61626c653a20636f6e747261637420697320616c72656160448201526d191e481a5b9a5d1a585b1a5e995960921b6064820152608401610687565b6000805460ff191660011790558015612186576000805461ff0019166101001790555b61218e61425d565b61219661428c565b60cb80546001600160a01b03199081166001600160a01b038781169190911790925560cc8054821686841617905560cd8054821685841617905560975460ce80549190931691161790556121ea6064612409565b8015610a76576000805461ff0019169055604051600181527f7f26b83ff96e1f2b6a682f133852f6798a09c465da95921460cefb38474024989060200160405180910390a150505050565b60003361224a6097546001600160a01b031690565b6001600160a01b031614156122895782156122775760405162461bcd60e51b8152600401610687906150d2565b5060ce546001600160a01b0316612363565b60cd5460405162f577a560e81b8152600481018590526001600160a01b039091169063f577a5009060240160006040518083038186803b1580156122cc57600080fd5b505afa1580156122e0573d6000803e3d6000fd5b505060cd546040516331a9108f60e11b8152600481018790526001600160a01b039091169250636352211e915060240160206040518083038186803b15801561232857600080fd5b505afa15801561233c573d6000803e3d6000fd5b505050506040513d601f19601f8201168201806040525081019061236091906154ad565b90505b600083815260ca602090815260408083206001600160a01b0386168452909152812080549190556123958284836142b3565b60408051858152602081018390526001600160a01b038516917f2227733fc4c8a9034cb58087dcf6995128b9c0233b038b03366aaf30c92b92d6910160405180910390a250505050565b6123e7612920565b60ce80546001600160a01b0319166001600160a01b0392909216919091179055565b612411612920565b60cd805461ffff60a01b1916600160a01b61ffff8416908102919091179091556040519081527f8339189e972f7fba792126e752aa8485af08710bce4a041c5bc3f9858acd71309060200160405180910390a150565b61246f612920565b6001600160a01b0381166124d45760405162461bcd60e51b815260206004820152602660248201527f4f776e61626c653a206e6577206f776e657220697320746865207a65726f206160448201526564647265737360d01b6064820152608401610687565b6103758161420b565b600060c982815481106124f2576124f2614fe9565b60009182526020909120600f9091020190506002600c82015460ff16600481111561251f5761251f614afb565b146125845760405162461bcd60e51b815260206004820152602f60248201527f546865207472616e73616374696f6e206973206e6f742077616974696e67206f60448201526e37103a3432903932b1b2b4bb32b91760891b6064820152608401610687565b600e810154600b8201546125989042615156565b10156125e65760405162461bcd60e51b815260206004820181905260248201527f54696d656f75742074696d6520686173206e6f7420706173736564207965742e6044820152606401610687565b600a8101541561265557600a81018054600091829055600383015460405191926001600160a01b0390911691839181818185875af1925050503d806000811461264b576040519150601f19603f3d011682016040523d82523d6000602084013e612650565b606091505b505050505b610f9f82600161297a565b60c95482106126815760405162461bcd60e51b815260040161068790614fb2565b600060c9838154811061269657612696614fe9565b600091825260209091206003600f90920201908101549091506001600160a01b031633146126d65760405162461bcd60e51b8152600401610687906150d2565b6000600c82015460ff1660048111156126f1576126f1614afb565b1461270e5760405162461bcd60e51b8152600401610687906150fa565b81816005015410156127585760405162461bcd60e51b815260206004820152601360248201527224b739bab33334b1b4b2b73a10333ab732399760691b6044820152606401610687565b8181600501600082825461276c9190615156565b90915550506040805161024081018252825481526001830154602082015260028301546001600160a01b03908116928201929092526003830154821660608201526004808401549092166080820152600583015460a0820152600683015460c0820152600783015461ffff80821660e08401526201000082048116610100840152600160201b9091041661012082015260088301546101408201526009830154610160820152600a830154610180820152600b8301546101a0820152600c830154610e199284916101c084019160ff9091169081111561284e5761284e614afb565b600481111561285f5761285f614afb565b8152600c82015461010090046001600160a01b03166020820152600d8201805460409092019161288e90614fff565b80601f01602080910402602001604051908101604052809291908181526020018280546128ba90614fff565b80156129075780601f106128dc57610100808354040283529160200191612907565b820191906000526020600020905b8154815290600101906020018083116128ea57829003601f168201915b50505050508152602001600e8201548152505083614379565b6097546001600160a01b0316331461172c5760405162461bcd60e51b815260206004820181905260248201527f4f776e61626c653a2063616c6c6572206973206e6f7420746865206f776e65726044820152606401610687565b600060c9838154811061298f5761298f614fe9565b90600052602060002090600f02019050600260ff168211156129e55760405162461bcd60e51b815260206004820152600f60248201526e24b73b30b634b210393ab634b7339760891b6044820152606401610687565b60028101546003820154600583018054600985018054600a870180546000958690559285905593909355600c8601805460ff191660041790556001600160a01b0394851694909316929091906001871415612c41576040516001600160a01b038616908390600081818185875af1925050503d8060008114612a83576040519150601f19603f3d011682016040523d82523d6000602084013e612a88565b606091505b50506040805161024081018252885481526001890154602082015260028901546001600160a01b03908116928201929092526003890154821660608201526004808a01549092166080820152600589015460a0820152600689015460c0820152600789015461ffff80821660e08401526201000082048116610100840152600160201b9091041661012082015260088901546101408201526009890154610160820152600a890154610180820152600b8901546101a0820152600c890154612c3c9350909189916101c084019160ff90911690811115612b6a57612b6a614afb565b6004811115612b7b57612b7b614afb565b8152600c82015461010090046001600160a01b03166020820152600d82018054604090920191612baa90614fff565b80601f0160208091040260200160405190810160405280929190818152602001828054612bd690614fff565b8015612c235780601f10612bf857610100808354040283529160200191612c23565b820191906000526020600020905b815481529060010190602001808311612c0657829003601f168201915b50505050508152602001600e8201548152505084614379565b613270565b6002871415612e4c576040516001600160a01b038516908290600081818185875af1925050503d8060008114612c93576040519150601f19603f3d011682016040523d82523d6000602084013e612c98565b606091505b50506040805161024081018252885481526001890154602082015260028901546001600160a01b03908116928201929092526003890154821660608201526004808a01549092166080820152600589015460a0820152600689015460c0820152600789015461ffff80821660e08401526201000082048116610100840152600160201b9091041661012082015260088901546101408201526009890154610160820152600a890154610180820152600b8901546101a0820152600c890154612c3c9350909189916101c084019160ff90911690811115612d7a57612d7a614afb565b6004811115612d8b57612d8b614afb565b8152600c82015461010090046001600160a01b03166020820152600d82018054604090920191612dba90614fff565b80601f0160208091040260200160405190810160405280929190818152602001828054612de690614fff565b8015612e335780601f10612e0857610100808354040283529160200191612e33565b820191906000526020600020905b815481529060010190602001808311612e1657829003601f168201915b50505050508152602001600e8201548152505084613436565b6000612e596002846154ca565b90506000612e686002866154ca565b60408051610240810182528a54815260018b0154602082015260028b01546001600160a01b039081169282019290925260038b0154821660608201526004808c0154909216608082015260058b015460a082015260068b015460c082015260078b015461ffff80821660e08401526201000082048116610100840152600160201b9091041661012082015260088b015461014082015260098b0154610160820152600a8b0154610180820152600b8b01546101a0820152600c8b015492935061301c9290918b916101c084019160ff90911690811115612f4a57612f4a614afb565b6004811115612f5b57612f5b614afb565b8152600c82015461010090046001600160a01b03166020820152600d82018054604090920191612f8a90614fff565b80601f0160208091040260200160405190810160405280929190818152602001828054612fb690614fff565b80156130035780601f10612fd857610100808354040283529160200191613003565b820191906000526020600020905b815481529060010190602001808311612fe657829003601f168201915b50505050508152602001600e8201548152505082614379565b60408051610240810182528954815260018a0154602082015260028a01546001600160a01b039081169282019290925260038a0154821660608201526004808b0154909216608082015260058a015460a082015260068a015460c082015260078a015461ffff80821660e08401526201000082048116610100840152600160201b9091041661012082015260088a015461014082015260098a0154610160820152600a8a0154610180820152600b8a01546101a0820152600c8a01546131cb928b916101c084019160ff909116908111156130f9576130f9614afb565b600481111561310a5761310a614afb565b8152600c82015461010090046001600160a01b03166020820152600d8201805460409092019161313990614fff565b80601f016020809104026020016040519081016040528092919081815260200182805461316590614fff565b80156131b25780601f10613187576101008083540402835291602001916131b2565b820191906000526020600020905b81548152906001019060200180831161319557829003601f168201915b50505050508152602001600e8201548152505082613436565b6040516001600160a01b038816908390600081818185875af1925050503d8060008114613214576040519150601f19603f3d011682016040523d82523d6000602084013e613219565b606091505b50506040516001600160a01b03881691508390600081818185875af1925050503d8060008114613265576040519150601f19603f3d011682016040523d82523d6000602084013e61326a565b606091505b50505050505b877f76b363d70472d47d20e4119f3625c05ed37ca51b1d9e1cd8b87d8c20530640f3886040516132a291815260200190565b60405180910390a25050505050505050565b610375612920565b7f4910fdfa16fed3260ed0e7147f7cc6da11a60208b5b9406d12a635614ffd91435460ff16156132ef57610e198361443d565b826001600160a01b03166352d1902d6040518163ffffffff1660e01b815260040160206040518083038186803b15801561332857600080fd5b505afa925050508015613358575060408051601f3d908101601f1916820190925261335591810190614f99565b60015b6133bb5760405162461bcd60e51b815260206004820152602e60248201527f45524331393637557067726164653a206e657720696d706c656d656e7461746960448201526d6f6e206973206e6f74205555505360901b6064820152608401610687565b600080516020615821833981519152811461342a5760405162461bcd60e51b815260206004820152602960248201527f45524331393637557067726164653a20756e737570706f727465642070726f786044820152681a58589b195555525160ba1b6064820152608401610687565b50610e198383836144d9565b60cb5460c083015160405163ef0e239b60e01b815260048101919091526000916001600160a01b03169063ef0e239b9060240160006040518083038186803b15801561348157600080fd5b505afa158015613495573d6000803e3d6000fd5b505050506040513d6000823e601f3d908101601f191682016040526134bd91908101906154fb565b60cb5460c0850151602086015160405163aba2100960e01b8152600481019290925260248201529192506000916001600160a01b039091169063aba210099060440160006040518083038186803b15801561351757600080fd5b505afa15801561352b573d6000803e3d6000fd5b505050506040513d6000823e601f3d908101601f1916820160405261355391908101906155b9565b60e0808401516080830151918701519293509161ffff918216916000916127109161358091899116615673565b61358a91906154ca565b9050600061271061ffff168789610100015161ffff166135aa9190615673565b6135b491906154ca565b9050600061271061ffff16888a610120015161ffff166135d49190615673565b6135de91906154ca565b600080805260ca602090815260808c01516001600160a01b031682527f992e0e3e7050db88ec37ec33505f46a9813ea5551fe17ef58dc201344bcbaf939052604081208054929350859290919061363690849061541c565b9091555050600085815260ca6020908152604080832060808d01516001600160a01b031684529091528120805484929061367190849061541c565b9091555050600084815260ca6020908152604080832060808d01516001600160a01b03168452909152812080548392906136ac90849061541c565b925050819055506136c689606001518a608001518a6144fe565b608089015160c08a015160408051888152602081019290925281018490526001600160a01b03909116907f17c48ab8e1617182f35ae77fd7da7f4e15dedf7018aa371a4481c20c790b65469060600160405180910390a2608089015160c08a015160408051888152602081019290925281018490526001600160a01b03909116907f66ed009f46dad952e7a30be88a6008667ddcf4dab7195aa5b94b1ec56b17e0079060600160405180910390a27f7eb4d07819d8300e8f1d0a2a11814657be694ee6dbfd0208fdabed36a19e954f896000015160008a8c608001518d60c001516040516137b8959493929190615692565b60405180910390a16137d28960c001518a60a00151614562565b505050505050505050565b6137e561498d565b6137ed6149d1565b60008060006137fc8787614602565b9050600061380988614691565b60cc5460208201516040516331a9108f60e11b81529293506000926001600160a01b0390921691636352211e916138469160040190815260200190565b60206040518083038186803b15801561385e57600080fd5b505afa158015613872573d6000803e3d6000fd5b505050506040513d601f19601f8201168201806040525081019061389691906154ad565b60cc5460208501516040516331a9108f60e11b81529293506000926001600160a01b0390921691636352211e916138d39160040190815260200190565b60206040518083038186803b1580156138eb57600080fd5b505afa1580156138ff573d6000803e3d6000fd5b505050506040513d601f19601f8201168201806040525081019061392391906154ad565b939a9299509097509195509350505050565b600061271061394861ffff841686615673565b61395661ffff861687615673565b60cd5461396e90600160a01b900461ffff1688615673565b613978919061541c565b613982919061541c565b61398c91906154ca565b613996908561541c565b949350505050565b60006139a861498d565b6139b06149d1565b6000806139bd8c8c6137dd565b80945081955082965083975050505050600060c980549050905060c96040518061024001604052808381526020018e8152602001856001600160a01b03168152602001846001600160a01b0316815260200187604001516001600160a01b03168152602001876060015181526020018f815260200160cd60149054906101000a900461ffff1661ffff1681526020018d61ffff1681526020018c61ffff16815260200160008152602001600081526020016000815260200142815260200160006004811115613a8e57613a8e614afb565b81526001600160a01b03808d1660208084019190915260408084018e905260609384018d90528554600181810188556000978852968390208651600f9092020190815591850151828701558401516002820180549184166001600160a01b03199283161790559284015160038201805491841691851691909117905560808401516004808301805492909416919094161790915560a0830151600582015560c0830151600682015560e083015160078201805461010086015161012087015161ffff908116600160201b0265ffff0000000019928216620100000263ffffffff199094169190951617919091171691909117905561014083015160088201556101608301516009820155610180830151600a8201556101a0830151600b8201556101c0830151600c82018054949592949193909260ff1990921691908490811115613bdb57613bdb614afb565b02179055506101e0820151600c820180546001600160a01b0390921661010002610100600160a81b03199092169190911790556102008201518051613c2a91600d840191602090910190614a17565b506102209190910151600e909101559c9b505050505050505050505050565b6040516323b872dd60e01b81526001600160a01b038481166004830152306024830152604482018390528316906323b872dd90606401602060405180830381600087803b158015613c9957600080fd5b505af1158015613cad573d6000803e3d6000fd5b505050506040513d601f19601f82011682018060405250810190613cd191906156ce565b610e195760405162461bcd60e51b8152602060048201526016602482015275151c985b9cd9995c881b5d5cdd081b9bdd0819985a5b60521b6044820152606401610687565b600060c98481548110613d2b57613d2b614fe9565b60009182526020822060cc54600f9290920201600281015460405162438b6360e81b81526001600160a01b0391821660048201529194509091169063438b63009060240160206040518083038186803b158015613d8757600080fd5b505afa158015613d9b573d6000803e3d6000fd5b505050506040513d601f19601f82011682018060405250810190613dbf9190614f99565b60cc54600384015460405162438b6360e81b81526001600160a01b03918216600482015292935060009291169063438b63009060240160206040518083038186803b158015613e0d57600080fd5b505afa158015613e21573d6000803e3d6000fd5b505050506040513d601f19601f82011682018060405250810190613e459190614f99565b90507f1ccb16db9d1499f0b4e030d49bd6575a6ac51f3970af8752ac277fdf4505763b8683838660040160009054906101000a90046001600160a01b03168760050154886006015460cd60149054906101000a900461ffff168a60070160029054906101000a900461ffff168b60070160049054906101000a900461ffff168c600c0160019054906101000a90046001600160a01b03168d600d018e600e0154604051613efd9c9b9a999897969594939291906156f0565b60405180910390a1857f61606860eb6c87306811e2695215385101daab53bd6ab4e9f9049aead9363c7d86604051613f35919061549a565b60405180910390a26006830154604080519182526020820186905281018790527fffc7643b52fc7134d23e37eac3c5c4bdad5cf04655528f24663504e15adc4a4a9060600160405180910390a1505050505050565b600060c98381548110613f9f57613f9f614fe9565b60009182526020909120600c600f90920201908101805460ff19166003179081905560405163c13517e160e01b81529192506001600160a01b036101009091041690819063c13517e1908590613fff90600290600d880190600401615777565b6020604051808303818588803b15801561401857600080fd5b505af115801561402c573d6000803e3d6000fd5b50505050506040513d601f19601f820116820180604052508101906140519190614f99565b60088301818155600091825260cf602090815260409283902087905590548251878152918201879052916001600160a01b038416917f74baab670a4015ab2f1b467c5252a96141a2573f2908e58a92081e80d3cfde3d910160405180910390a3828260090154111561415c5760008383600901546140cf9190615156565b6009840185905560028401546040519192506001600160a01b0316908290600081818185875af1925050503d8060008114614126576040519150601f19603f3d011682016040523d82523d6000602084013e61412b565b606091505b50505084600080516020615841833981519152600160003460405161415293929190615444565b60405180910390a2505b8282600a01541115610a765760008383600a015461417a9190615156565b600a840185905560038401546040519192506001600160a01b0316908290600081818185875af1925050503d80600081146141d1576040519150601f19603f3d011682016040523d82523d6000602084013e6141d6565b606091505b50505084600080516020615841833981519152600180346040516141fc93929190615444565b60405180910390a25050505050565b609780546001600160a01b038381166001600160a01b0319831681179093556040519116919082907f8be0079c531659141344cd1fd0a4f28419497f9722a3daafe3b4186f6b6457e090600090a35050565b600054610100900460ff166142845760405162461bcd60e51b815260040161068790615793565b61172c61471f565b600054610100900460ff1661172c5760405162461bcd60e51b815260040161068790615793565b6001600160a01b0382166142f7576040516001600160a01b0384169082156108fc029083906000818181858888f19350505050158015610a76573d6000803e3d6000fd5b60405163a9059cbb60e01b81526001600160a01b0384811660048301526024820183905283169063a9059cbb90604401602060405180830381600087803b15801561434157600080fd5b505af1158015614355573d6000803e3d6000fd5b505050506040513d601f19601f82011682018060405250810190610a7691906156ce565b600061271061ffff16828461010001518561012001518660e0015161439e91906157de565b6143a891906157de565b61ffff166143b69190615673565b6143c091906154ca565b6143ca908361541c565b90506143df83604001518460800151836144fe565b7f7eb4d07819d8300e8f1d0a2a11814657be694ee6dbfd0208fdabed36a19e954f836000015160018486608001518760c00151604051614423959493929190615692565b60405180910390a1610e198360c001518460a00151614562565b6001600160a01b0381163b6144aa5760405162461bcd60e51b815260206004820152602d60248201527f455243313936373a206e657720696d706c656d656e746174696f6e206973206e60448201526c1bdd08184818dbdb9d1c9858dd609a1b6064820152608401610687565b60008051602061582183398151915280546001600160a01b0319166001600160a01b0392909216919091179055565b6144e28361474f565b6000825111806144ef5750805b15610e1957610a76838361478f565b6001600160a01b0382166142f7576040516001600160a01b038416908290600081818185875af1925050503d8060008114614555576040519150601f19603f3d011682016040523d82523d6000602084013e61455a565b606091505b505050505050565b80610f9f5760cb54604051631271956760e21b8152600481018490526001600160a01b03909116906349c6559c90602401600060405180830381600087803b1580156145ad57600080fd5b505af11580156145c1573d6000803e3d6000fd5b505050507f6bef1b5e95b741d6e665eb9b5c2d3e1203c46a771451055a9d41e0b8ff4510b7826040516145f691815260200190565b60405180910390a15050565b61460a61498d565b60cb5460405163aba2100960e01b815260048101859052602481018490526001600160a01b039091169063aba210099060440160006040518083038186803b15801561465557600080fd5b505afa158015614669573d6000803e3d6000fd5b505050506040513d6000823e601f3d908101601f191682016040526112ef91908101906155b9565b6146996149d1565b60cb5460405163ef0e239b60e01b8152600481018490526001600160a01b039091169063ef0e239b9060240160006040518083038186803b1580156146dd57600080fd5b505afa1580156146f1573d6000803e3d6000fd5b505050506040513d6000823e601f3d908101601f1916820160405261471991908101906154fb565b92915050565b600054610100900460ff166147465760405162461bcd60e51b815260040161068790615793565b61172c3361420b565b6147588161443d565b6040516001600160a01b038216907fbc7cd75a20ee27fd9adebab32041f755214dbc6bffa90cc0225b39da2e5c2d3b90600090a250565b60606001600160a01b0383163b6147f75760405162461bcd60e51b815260206004820152602660248201527f416464726573733a2064656c65676174652063616c6c20746f206e6f6e2d636f6044820152651b9d1c9858dd60d21b6064820152608401610687565b600080846001600160a01b0316846040516148129190615804565b600060405180830381855af49150503d806000811461484d576040519150601f19603f3d011682016040523d82523d6000602084013e614852565b606091505b509150915061487a828260405180606001604052806027815260200161586160279139614883565b95945050505050565b606083156148925750816112ef565b6112ef83838151156148a75781518083602001fd5b8060405162461bcd60e51b8152600401610687919061549a565b604051806102400160405280600081526020016000815260200160006001600160a01b0316815260200160006001600160a01b0316815260200160006001600160a01b031681526020016000815260200160008152602001600061ffff168152602001600061ffff168152602001600061ffff168152602001600081526020016000815260200160008152602001600081526020016000600481111561496957614969614afb565b815260200160006001600160a01b0316815260200160608152602001600081525090565b6040805160c0810190915280600081526020016000815260200160006001600160a01b0316815260200160008152602001600061ffff168152602001606081525090565b6040805161010081019091528060008152602001600081526020016000815260200160008152602001606081526020016000815260200160008152602001600081525090565b828054614a2390614fff565b90600052602060002090601f016020900481019282614a455760008555614a8b565b82601f10614a5e57805160ff1916838001178555614a8b565b82800160010185558215614a8b579182015b82811115614a8b578251825591602001919060010190614a70565b50614a97929150614a9b565b5090565b5b80821115614a975760008155600101614a9c565b6001600160a01b038116811461037557600080fd5b600060208284031215614ad757600080fd5b81356112ef81614ab0565b600060208284031215614af457600080fd5b5035919050565b634e487b7160e01b600052602160045260246000fd5b60058110614b2157614b21614afb565b9052565b60005b83811015614b40578181015183820152602001614b28565b83811115610a765750506000910152565b60008151808452614b69816020860160208601614b25565b601f01601f19169290920160200192915050565b60208152815160208201526020820151604082015260006040830151614bae60608401826001600160a01b03169052565b5060608301516001600160a01b03811660808401525060808301516001600160a01b03811660a08401525060a083015160c083015260c083015160e083015260e0830151610100614c048185018361ffff169052565b8401519050610120614c1b8482018361ffff169052565b8401519050610140614c328482018361ffff169052565b84015161016084810191909152840151610180808501919091528401516101a0808501919091528401516101c08085019190915284015190506101e0614c7a81850183614b11565b8401519050610200614c96848201836001600160a01b03169052565b808501519150506102406102208181860152614cb6610260860184614b51565b9501519301929092525090919050565b60008060408385031215614cd957600080fd5b50508035926020909101359150565b634e487b7160e01b600052604160045260246000fd5b604051610100810167ffffffffffffffff81118282101715614d2257614d22614ce8565b60405290565b60405160c0810167ffffffffffffffff81118282101715614d2257614d22614ce8565b604051601f8201601f1916810167ffffffffffffffff81118282101715614d7457614d74614ce8565b604052919050565b600067ffffffffffffffff821115614d9657614d96614ce8565b50601f01601f191660200190565b6000614db7614db284614d7c565b614d4b565b9050828152838383011115614dcb57600080fd5b828260208301376000602084830101529392505050565b600082601f830112614df357600080fd5b6112ef83833560208501614da4565b600080600060608486031215614e1757600080fd5b833567ffffffffffffffff811115614e2e57600080fd5b614e3a86828701614de2565b9660208601359650604090950135949350505050565b60008060408385031215614e6357600080fd5b8235614e6e81614ab0565b9150602083013567ffffffffffffffff811115614e8a57600080fd5b8301601f81018513614e9b57600080fd5b614eaa85823560208401614da4565b9150509250929050565b60008060408385031215614ec757600080fd5b82359150602083013567ffffffffffffffff811115614ee557600080fd5b614eaa85828601614de2565b600080600060608486031215614f0657600080fd5b8335614f1181614ab0565b92506020840135614f2181614ab0565b91506040840135614f3181614ab0565b809150509250925092565b60008060408385031215614f4f57600080fd5b823591506020830135614f6181614ab0565b809150509250929050565b61ffff8116811461037557600080fd5b600060208284031215614f8e57600080fd5b81356112ef81614f6c565b600060208284031215614fab57600080fd5b5051919050565b6020808252601b908201527f4e6f7420612076616c6964207472616e73616374696f6e2069642e0000000000604082015260600190565b634e487b7160e01b600052603260045260246000fd5b600181811c9082168061501357607f821691505b6020821081141561503457634e487b7160e01b600052602260045260246000fd5b50919050565b6020808252602c908201527f46756e6374696f6e206d7573742062652063616c6c6564207468726f7567682060408201526b19195b1959d85d1958d85b1b60a21b606082015260800190565b6020808252602c908201527f46756e6374696f6e206d7573742062652063616c6c6564207468726f7567682060408201526b6163746976652070726f787960a01b606082015260800190565b6020808252600e908201526d20b1b1b2b9b9903232b734b2b21760911b604082015260600190565b60208082526026908201527f546865207472616e73616374696f6e2073686f756c646e277420626520646973604082015265383aba32b21760d11b606082015260800190565b634e487b7160e01b600052601160045260246000fd5b60008282101561516857615168615140565b500390565b600082601f83011261517e57600080fd5b815161518c614db282614d7c565b8181528460208386010111156151a157600080fd5b613996826020830160208701614b25565b805161065981614f6c565b805161065981614ab0565b6000602082840312156151da57600080fd5b815167ffffffffffffffff808211156151f257600080fd5b90830190610100828603121561520757600080fd5b61520f614cfe565b8251815260208301518281111561522557600080fd5b6152318782860161516d565b60208301525060408301518281111561524957600080fd5b6152558782860161516d565b604083015250615267606084016151b2565b6060820152615278608084016151b2565b608082015261528960a084016151bd565b60a082015260c0830151828111156152a057600080fd5b6152ac8782860161516d565b60c08301525060e083015160e082015280935050505092915050565b60208082526013908201527220b93134ba3930ba37b9103737ba1039b2ba1760691b604082015260600190565b6020808252604e908201527f446973707574652068617320616c7265616479206265656e206372656174656460408201527f206f72206265636175736520746865207472616e73616374696f6e206861732060608201526d3132b2b71032bc32b1baba32b21760911b608082015260a00190565b8054600090600181811c908083168061538357607f831692505b60208084108214156153a557634e487b7160e01b600052602260045260246000fd5b838852602088018280156153c057600181146153d1576153fc565b60ff198716825282820197506153fc565b60008981526020902060005b878110156153f6578154848201529086019084016153dd565b83019850505b5050505050505092915050565b6020815260006112ef6020830184615369565b6000821982111561542f5761542f615140565b500190565b6002811061037557610375614afb565b6060810161545185615434565b84825261545d84615434565b602082019390935260400152919050565b6020810161547b83615434565b91905290565b8281526040602082015260006139966040830184615369565b6020815260006112ef6020830184614b51565b6000602082840312156154bf57600080fd5b81516112ef81614ab0565b6000826154e757634e487b7160e01b600052601260045260246000fd5b500490565b80516005811061065957600080fd5b60006020828403121561550d57600080fd5b815167ffffffffffffffff8082111561552557600080fd5b90830190610100828603121561553a57600080fd5b615542614cfe565b61554b836154ec565b815260208301516020820152604083015160408201526060830151606082015260808301518281111561557d57600080fd5b6155898782860161516d565b60808301525060a083015160a082015260c083015160c082015260e083015160e082015280935050505092915050565b6000602082840312156155cb57600080fd5b815167ffffffffffffffff808211156155e357600080fd5b9083019060c082860312156155f757600080fd5b6155ff614d28565b82516003811061560e57600080fd5b815260208381015190820152615626604084016151bd565b604082015260608301516060820152615641608084016151b2565b608082015260a08301518281111561565857600080fd5b6156648782860161516d565b60a08301525095945050505050565b600081600019048311821515161561568d5761568d615140565b500290565b85815260a081016156a286615434565b602082019590955260408101939093526001600160a01b03919091166060830152608090910152919050565b6000602082840312156156e057600080fd5b815180151581146112ef57600080fd5b8c8152602081018c9052604081018b90526001600160a01b038a81166060830152608082018a905260a0820189905261ffff88811660c084015287811660e084015286166101008301528416610120820152610180610140820181905260009061575c83820186615369565b915050826101608301529d9c50505050505050505050505050565b60ff831681526040602082015260006139966040830184615369565b6020808252602b908201527f496e697469616c697a61626c653a20636f6e7472616374206973206e6f74206960408201526a6e697469616c697a696e6760a81b606082015260800190565b600061ffff8083168185168083038211156157fb576157fb615140565b01949350505050565b60008251615816818460208701614b25565b919091019291505056fe360894a13ba1a3210667c828492db98dca3e2076cc3735a920a3ca505d382bbc73e533bc8a993eccbc1023beebad0020f6b6c3639f83062f00fc194b4d1172ba416464726573733a206c6f772d6c6576656c2064656c65676174652063616c6c206661696c6564a26469706673582212201820d76078eb26fcaab6a66940be891745cad2c83ca0413c499518d5bfadf95564736f6c63430008090033",
  "linkReferences": {},
  "deployedLinkReferences": {}
}