{
  "_format": "hh-sol-artifact-1",
  "contractName": "TalentLayerID",
  "sourceName": "contracts/TalentLayerID.sol",
  "abi": [
    {
      "inputs": [],
      "stateMutability": "nonpayable",
      "type": "constructor"
    },
    {
      "anonymous": false,
      "inputs": [
        {
          "indexed": false,
          "internalType": "address",
          "name": "previousAdmin",
          "type": "address"
        },
        {
          "indexed": false,
          "internalType": "address",
          "name": "newAdmin",
          "type": "address"
        }
      ],
      "name": "AdminChanged",
      "type": "event"
    },
    {
      "anonymous": false,
      "inputs": [
        {
          "indexed": true,
          "internalType": "address",
          "name": "owner",
          "type": "address"
        },
        {
          "indexed": true,
          "internalType": "address",
          "name": "approved",
          "type": "address"
        },
        {
          "indexed": true,
          "internalType": "uint256",
          "name": "tokenId",
          "type": "uint256"
        }
      ],
      "name": "Approval",
      "type": "event"
    },
    {
      "anonymous": false,
      "inputs": [
        {
          "indexed": true,
          "internalType": "address",
          "name": "owner",
          "type": "address"
        },
        {
          "indexed": true,
          "internalType": "address",
          "name": "operator",
          "type": "address"
        },
        {
          "indexed": false,
          "internalType": "bool",
          "name": "approved",
          "type": "bool"
        }
      ],
      "name": "ApprovalForAll",
      "type": "event"
    },
    {
      "anonymous": false,
      "inputs": [
        {
          "indexed": true,
          "internalType": "address",
          "name": "beacon",
          "type": "address"
        }
      ],
      "name": "BeaconUpgraded",
      "type": "event"
    },
    {
      "anonymous": false,
      "inputs": [
        {
          "indexed": true,
          "internalType": "uint256",
          "name": "_profileId",
          "type": "uint256"
        },
        {
          "indexed": false,
          "internalType": "string",
          "name": "_newCid",
          "type": "string"
        }
      ],
      "name": "CidUpdated",
      "type": "event"
    },
    {
      "anonymous": false,
      "inputs": [
        {
          "indexed": false,
          "internalType": "uint256",
          "name": "_profileId",
          "type": "uint256"
        },
        {
          "indexed": false,
          "internalType": "address",
          "name": "_delegate",
          "type": "address"
        }
      ],
      "name": "DelegateAdded",
      "type": "event"
    },
    {
      "anonymous": false,
      "inputs": [
        {
          "indexed": false,
          "internalType": "uint256",
          "name": "_profileId",
          "type": "uint256"
        },
        {
          "indexed": false,
          "internalType": "address",
          "name": "_delegate",
          "type": "address"
        }
      ],
      "name": "DelegateRemoved",
      "type": "event"
    },
    {
      "anonymous": false,
      "inputs": [
        {
          "indexed": false,
          "internalType": "uint8",
          "name": "version",
          "type": "uint8"
        }
      ],
      "name": "Initialized",
      "type": "event"
    },
    {
      "anonymous": false,
      "inputs": [
        {
          "indexed": true,
          "internalType": "address",
          "name": "_user",
          "type": "address"
        },
        {
          "indexed": false,
          "internalType": "uint256",
          "name": "_profileId",
          "type": "uint256"
        },
        {
          "indexed": false,
          "internalType": "string",
          "name": "_handle",
          "type": "string"
        },
        {
          "indexed": false,
          "internalType": "uint256",
          "name": "_platformId",
          "type": "uint256"
        },
        {
          "indexed": false,
          "internalType": "uint256",
          "name": "_fee",
          "type": "uint256"
        }
      ],
      "name": "Mint",
      "type": "event"
    },
    {
      "anonymous": false,
      "inputs": [
        {
          "indexed": false,
          "internalType": "uint256",
          "name": "_mintFee",
          "type": "uint256"
        }
      ],
      "name": "MintFeeUpdated",
      "type": "event"
    },
    {
      "anonymous": false,
      "inputs": [
        {
          "indexed": true,
          "internalType": "address",
          "name": "previousOwner",
          "type": "address"
        },
        {
          "indexed": true,
          "internalType": "address",
          "name": "newOwner",
          "type": "address"
        }
      ],
      "name": "OwnershipTransferred",
      "type": "event"
    },
    {
      "anonymous": false,
      "inputs": [
        {
          "indexed": true,
          "internalType": "address",
          "name": "from",
          "type": "address"
        },
        {
          "indexed": true,
          "internalType": "address",
          "name": "to",
          "type": "address"
        },
        {
          "indexed": true,
          "internalType": "uint256",
          "name": "tokenId",
          "type": "uint256"
        }
      ],
      "name": "Transfer",
      "type": "event"
    },
    {
      "anonymous": false,
      "inputs": [
        {
          "indexed": false,
          "internalType": "address",
          "name": "forwarder",
          "type": "address"
        }
      ],
      "name": "TrustedForwarderAdded",
      "type": "event"
    },
    {
      "anonymous": false,
      "inputs": [
        {
          "indexed": false,
          "internalType": "address",
          "name": "forwarder",
          "type": "address"
        }
      ],
      "name": "TrustedForwarderRemoved",
      "type": "event"
    },
    {
      "anonymous": false,
      "inputs": [
        {
          "indexed": true,
          "internalType": "address",
          "name": "implementation",
          "type": "address"
        }
      ],
      "name": "Upgraded",
      "type": "event"
    },
    {
      "inputs": [
        {
          "internalType": "uint256",
          "name": "_profileId",
          "type": "uint256"
        },
        {
          "internalType": "address",
          "name": "_delegate",
          "type": "address"
        }
      ],
      "name": "addDelegate",
      "outputs": [],
      "stateMutability": "nonpayable",
      "type": "function"
    },
    {
      "inputs": [
        {
          "internalType": "address",
          "name": "_forwarder",
          "type": "address"
        }
      ],
      "name": "addTrustedForwarder",
      "outputs": [],
      "stateMutability": "nonpayable",
      "type": "function"
    },
    {
      "inputs": [
        {
          "internalType": "address",
          "name": "to",
          "type": "address"
        },
        {
          "internalType": "uint256",
          "name": "tokenId",
          "type": "uint256"
        }
      ],
      "name": "approve",
      "outputs": [],
      "stateMutability": "nonpayable",
      "type": "function"
    },
    {
      "inputs": [
        {
          "internalType": "address",
          "name": "owner",
          "type": "address"
        }
      ],
      "name": "balanceOf",
      "outputs": [
        {
          "internalType": "uint256",
          "name": "",
          "type": "uint256"
        }
      ],
      "stateMutability": "view",
      "type": "function"
    },
    {
      "inputs": [
        {
          "internalType": "uint256",
          "name": "_platformId",
          "type": "uint256"
        },
        {
          "internalType": "address",
          "name": "_userAddress",
          "type": "address"
        },
        {
          "internalType": "string",
          "name": "_handle",
          "type": "string"
        }
      ],
      "name": "freeMint",
      "outputs": [],
      "stateMutability": "nonpayable",
      "type": "function"
    },
    {
      "inputs": [
        {
          "internalType": "uint256",
          "name": "tokenId",
          "type": "uint256"
        }
      ],
      "name": "getApproved",
      "outputs": [
        {
          "internalType": "address",
          "name": "",
          "type": "address"
        }
      ],
      "stateMutability": "view",
      "type": "function"
    },
    {
      "inputs": [
        {
          "internalType": "address",
          "name": "_address",
          "type": "address"
        }
      ],
      "name": "getOriginatorPlatformIdByAddress",
      "outputs": [
        {
          "internalType": "uint256",
          "name": "",
          "type": "uint256"
        }
      ],
      "stateMutability": "view",
      "type": "function"
    },
    {
      "inputs": [
        {
          "internalType": "uint256",
          "name": "_profileId",
          "type": "uint256"
        }
      ],
      "name": "getProfile",
      "outputs": [
        {
          "components": [
            {
              "internalType": "uint256",
              "name": "id",
              "type": "uint256"
            },
            {
              "internalType": "string",
              "name": "handle",
              "type": "string"
            },
            {
              "internalType": "uint256",
              "name": "platformId",
              "type": "uint256"
            },
            {
              "internalType": "string",
              "name": "dataUri",
              "type": "string"
            }
          ],
          "internalType": "struct TalentLayerID.Profile",
          "name": "",
          "type": "tuple"
        }
      ],
      "stateMutability": "view",
      "type": "function"
    },
    {
      "inputs": [
        {
          "internalType": "address",
          "name": "",
          "type": "address"
        }
      ],
      "name": "ids",
      "outputs": [
        {
          "internalType": "uint256",
          "name": "",
          "type": "uint256"
        }
      ],
      "stateMutability": "view",
      "type": "function"
    },
    {
      "inputs": [
        {
          "internalType": "address",
          "name": "_talentLayerPlatformIdAddress",
          "type": "address"
        }
      ],
      "name": "initialize",
      "outputs": [],
      "stateMutability": "nonpayable",
      "type": "function"
    },
    {
      "inputs": [
        {
          "internalType": "address",
          "name": "owner",
          "type": "address"
        },
        {
          "internalType": "address",
          "name": "operator",
          "type": "address"
        }
      ],
      "name": "isApprovedForAll",
      "outputs": [
        {
          "internalType": "bool",
          "name": "",
          "type": "bool"
        }
      ],
      "stateMutability": "view",
      "type": "function"
    },
    {
      "inputs": [
        {
          "internalType": "uint256",
          "name": "_profileId",
          "type": "uint256"
        },
        {
          "internalType": "address",
          "name": "_address",
          "type": "address"
        }
      ],
      "name": "isDelegate",
      "outputs": [
        {
          "internalType": "bool",
          "name": "",
          "type": "bool"
        }
      ],
      "stateMutability": "view",
      "type": "function"
    },
    {
      "inputs": [
        {
          "internalType": "uint256",
          "name": "_profileId",
          "type": "uint256"
        },
        {
          "internalType": "address",
          "name": "_address",
          "type": "address"
        }
      ],
      "name": "isOwnerOrDelegate",
      "outputs": [
        {
          "internalType": "bool",
          "name": "",
          "type": "bool"
        }
      ],
      "stateMutability": "view",
      "type": "function"
    },
    {
      "inputs": [
        {
          "internalType": "address",
          "name": "forwarder",
          "type": "address"
        }
      ],
      "name": "isTrustedForwarder",
      "outputs": [
        {
          "internalType": "bool",
          "name": "",
          "type": "bool"
        }
      ],
      "stateMutability": "view",
      "type": "function"
    },
    {
      "inputs": [
        {
          "internalType": "uint256",
          "name": "_profileId",
          "type": "uint256"
        }
      ],
      "name": "isValid",
      "outputs": [],
      "stateMutability": "view",
      "type": "function"
    },
    {
      "inputs": [
        {
          "internalType": "uint256",
          "name": "_platformId",
          "type": "uint256"
        },
        {
          "internalType": "string",
          "name": "_handle",
          "type": "string"
        }
      ],
      "name": "mint",
      "outputs": [],
      "stateMutability": "payable",
      "type": "function"
    },
    {
      "inputs": [],
      "name": "mintFee",
      "outputs": [
        {
          "internalType": "uint256",
          "name": "",
          "type": "uint256"
        }
      ],
      "stateMutability": "view",
      "type": "function"
    },
    {
      "inputs": [],
      "name": "name",
      "outputs": [
        {
          "internalType": "string",
          "name": "",
          "type": "string"
        }
      ],
      "stateMutability": "view",
      "type": "function"
    },
    {
      "inputs": [
        {
          "internalType": "address",
          "name": "_user",
          "type": "address"
        }
      ],
      "name": "numberMinted",
      "outputs": [
        {
          "internalType": "uint256",
          "name": "",
          "type": "uint256"
        }
      ],
      "stateMutability": "view",
      "type": "function"
    },
    {
      "inputs": [],
      "name": "owner",
      "outputs": [
        {
          "internalType": "address",
          "name": "",
          "type": "address"
        }
      ],
      "stateMutability": "view",
      "type": "function"
    },
    {
      "inputs": [
        {
          "internalType": "uint256",
          "name": "tokenId",
          "type": "uint256"
        }
      ],
      "name": "ownerOf",
      "outputs": [
        {
          "internalType": "address",
          "name": "",
          "type": "address"
        }
      ],
      "stateMutability": "view",
      "type": "function"
    },
    {
      "inputs": [
        {
          "internalType": "uint256",
          "name": "",
          "type": "uint256"
        }
      ],
      "name": "profiles",
      "outputs": [
        {
          "internalType": "uint256",
          "name": "id",
          "type": "uint256"
        },
        {
          "internalType": "string",
          "name": "handle",
          "type": "string"
        },
        {
          "internalType": "uint256",
          "name": "platformId",
          "type": "uint256"
        },
        {
          "internalType": "string",
          "name": "dataUri",
          "type": "string"
        }
      ],
      "stateMutability": "view",
      "type": "function"
    },
    {
      "inputs": [],
      "name": "proxiableUUID",
      "outputs": [
        {
          "internalType": "bytes32",
          "name": "",
          "type": "bytes32"
        }
      ],
      "stateMutability": "view",
      "type": "function"
    },
    {
      "inputs": [
        {
          "internalType": "uint256",
          "name": "_profileId",
          "type": "uint256"
        },
        {
          "internalType": "address",
          "name": "_delegate",
          "type": "address"
        }
      ],
      "name": "removeDelegate",
      "outputs": [],
      "stateMutability": "nonpayable",
      "type": "function"
    },
    {
      "inputs": [
        {
          "internalType": "address",
          "name": "_forwarder",
          "type": "address"
        }
      ],
      "name": "removeTrustedForwarder",
      "outputs": [],
      "stateMutability": "nonpayable",
      "type": "function"
    },
    {
      "inputs": [],
      "name": "renounceOwnership",
      "outputs": [],
      "stateMutability": "nonpayable",
      "type": "function"
    },
    {
      "inputs": [
        {
          "internalType": "address",
          "name": "from",
          "type": "address"
        },
        {
          "internalType": "address",
          "name": "to",
          "type": "address"
        },
        {
          "internalType": "uint256",
          "name": "tokenId",
          "type": "uint256"
        }
      ],
      "name": "safeTransferFrom",
      "outputs": [],
      "stateMutability": "nonpayable",
      "type": "function"
    },
    {
      "inputs": [
        {
          "internalType": "address",
          "name": "from",
          "type": "address"
        },
        {
          "internalType": "address",
          "name": "to",
          "type": "address"
        },
        {
          "internalType": "uint256",
          "name": "tokenId",
          "type": "uint256"
        },
        {
          "internalType": "bytes",
          "name": "data",
          "type": "bytes"
        }
      ],
      "name": "safeTransferFrom",
      "outputs": [],
      "stateMutability": "nonpayable",
      "type": "function"
    },
    {
      "inputs": [
        {
          "internalType": "address",
          "name": "operator",
          "type": "address"
        },
        {
          "internalType": "bool",
          "name": "approved",
          "type": "bool"
        }
      ],
      "name": "setApprovalForAll",
      "outputs": [],
      "stateMutability": "nonpayable",
      "type": "function"
    },
    {
      "inputs": [
        {
          "internalType": "bytes4",
          "name": "interfaceId",
          "type": "bytes4"
        }
      ],
      "name": "supportsInterface",
      "outputs": [
        {
          "internalType": "bool",
          "name": "",
          "type": "bool"
        }
      ],
      "stateMutability": "view",
      "type": "function"
    },
    {
      "inputs": [],
      "name": "symbol",
      "outputs": [
        {
          "internalType": "string",
          "name": "",
          "type": "string"
        }
      ],
      "stateMutability": "view",
      "type": "function"
    },
    {
      "inputs": [
        {
          "internalType": "string",
          "name": "",
          "type": "string"
        }
      ],
      "name": "takenHandles",
      "outputs": [
        {
          "internalType": "bool",
          "name": "",
          "type": "bool"
        }
      ],
      "stateMutability": "view",
      "type": "function"
    },
    {
      "inputs": [],
      "name": "talentLayerPlatformIdContract",
      "outputs": [
        {
          "internalType": "contract ITalentLayerPlatformID",
          "name": "",
          "type": "address"
        }
      ],
      "stateMutability": "view",
      "type": "function"
    },
    {
      "inputs": [
        {
          "internalType": "uint256",
          "name": "tokenId",
          "type": "uint256"
        }
      ],
      "name": "tokenURI",
      "outputs": [
        {
          "internalType": "string",
          "name": "",
          "type": "string"
        }
      ],
      "stateMutability": "view",
      "type": "function"
    },
    {
      "inputs": [],
      "name": "totalSupply",
      "outputs": [
        {
          "internalType": "uint256",
          "name": "",
          "type": "uint256"
        }
      ],
      "stateMutability": "view",
      "type": "function"
    },
    {
      "inputs": [
        {
          "internalType": "address",
          "name": "from",
          "type": "address"
        },
        {
          "internalType": "address",
          "name": "to",
          "type": "address"
        },
        {
          "internalType": "uint256",
          "name": "tokenId",
          "type": "uint256"
        }
      ],
      "name": "transferFrom",
      "outputs": [],
      "stateMutability": "nonpayable",
      "type": "function"
    },
    {
      "inputs": [
        {
          "internalType": "address",
          "name": "newOwner",
          "type": "address"
        }
      ],
      "name": "transferOwnership",
      "outputs": [],
      "stateMutability": "nonpayable",
      "type": "function"
    },
    {
      "inputs": [
        {
          "internalType": "uint256",
          "name": "_mintFee",
          "type": "uint256"
        }
      ],
      "name": "updateMintFee",
      "outputs": [],
      "stateMutability": "nonpayable",
      "type": "function"
    },
    {
      "inputs": [
        {
          "internalType": "uint256",
          "name": "_profileId",
          "type": "uint256"
        },
        {
          "internalType": "string",
          "name": "_newCid",
          "type": "string"
        }
      ],
      "name": "updateProfileData",
      "outputs": [],
      "stateMutability": "nonpayable",
      "type": "function"
    },
    {
      "inputs": [
        {
          "internalType": "address",
          "name": "newImplementation",
          "type": "address"
        }
      ],
      "name": "upgradeTo",
      "outputs": [],
      "stateMutability": "nonpayable",
      "type": "function"
    },
    {
      "inputs": [
        {
          "internalType": "address",
          "name": "newImplementation",
          "type": "address"
        },
        {
          "internalType": "bytes",
          "name": "data",
          "type": "bytes"
        }
      ],
      "name": "upgradeToAndCall",
      "outputs": [],
      "stateMutability": "payable",
      "type": "function"
    },
    {
      "inputs": [],
      "name": "withdraw",
      "outputs": [],
      "stateMutability": "nonpayable",
      "type": "function"
    }
  ],
  "bytecode": "0x60a0604052306080523480156200001557600080fd5b506200002062000026565b620000e8565b600054610100900460ff1615620000935760405162461bcd60e51b815260206004820152602760248201527f496e697469616c697a61626c653a20636f6e747261637420697320696e697469604482015266616c697a696e6760c81b606482015260840160405180910390fd5b60005460ff9081161015620000e6576000805460ff191660ff9081179091556040519081527f7f26b83ff96e1f2b6a682f133852f6798a09c465da95921460cefb38474024989060200160405180910390a15b565b608051613ae76200012060003960008181610c1f01528181610c5f01528181610e0901528181610e490152610edc0152613ae76000f3fe6080604052600436106102515760003560e01c80636352211e11610139578063b88d4fde116100b6578063e985e9c51161007a578063e985e9c514610715578063eab5d4261461075e578063f08f4f64146107a5578063f160068f146107d2578063f2fde38b146107f2578063f577a5001461081257600080fd5b8063b88d4fde14610665578063c36fe3d614610685578063c4d66de8146106b5578063c87b56dd146106d5578063dc33e681146106f557600080fd5b806384017e52116100fd57806384017e52146105d257806389c1694c146105f25780638da5cb5b1461061257806395d89b4114610630578063a22cb4651461064557600080fd5b80636352211e1461054a57806370a082311461056a57806370e703dd1461058a578063715018a6146105aa57806377097fc8146105bf57600080fd5b806323b872dd116101d25780633ccfd60b116101965780633ccfd60b1461048c57806342842e0e146103ec5780634f1ef286146104a157806352d1902d146104b4578063572b6c05146104c95780635c4b03481461050257600080fd5b806323b872dd146103ec57806326d006681461040c5780632fa117e51461042c5780633659cfe61461044c5780633751d89c1461046c57600080fd5b80631499f9e6116102195780631499f9e61461032c57806318160ddd1461034d5780631847c06b146103625780631cf6239b146103905780632106beec146103b057600080fd5b806301ffc9a71461025657806306fdde031461028b578063081812fc146102ad578063095ea7b3146102e557806313966db514610307575b600080fd5b34801561026257600080fd5b50610276610271366004612d34565b610832565b60405190151581526020015b60405180910390f35b34801561029757600080fd5b506102a0610884565b6040516102829190612da1565b3480156102b957600080fd5b506102cd6102c8366004612db4565b610916565b6040516001600160a01b039091168152602001610282565b3480156102f157600080fd5b50610305610300366004612de9565b61093d565b005b34801561031357600080fd5b5061031e6101325481565b604051908152602001610282565b34801561033857600080fd5b5061012e546102cd906001600160a01b031681565b34801561035957600080fd5b5061031e610a64565b34801561036e57600080fd5b5061031e61037d366004612e13565b6101316020526000908152604090205481565b34801561039c57600080fd5b506103056103ab366004612e2e565b610a81565b3480156103bc57600080fd5b506102766103cb366004612efd565b805160208183018101805161012f8252928201919093012091525460ff1681565b3480156103f857600080fd5b50610305610407366004612f32565b505050565b34801561041857600080fd5b50610305610427366004612e13565b610b5e565b34801561043857600080fd5b50610276610447366004612e2e565b610bc1565b34801561045857600080fd5b50610305610467366004612e13565b610c15565b34801561047857600080fd5b50610305610487366004612e13565b610cf4565b34801561049857600080fd5b50610305610d4d565b6103056104af366004612f6e565b610dff565b3480156104c057600080fd5b5061031e610ecf565b3480156104d557600080fd5b506102766104e4366004612e13565b6001600160a01b031660009081526065602052604090205460ff1690565b34801561050e57600080fd5b5061031e61051d366004612e13565b6001600160a01b031660009081526101316020908152604080832054835261013090915290206002015490565b34801561055657600080fd5b506102cd610565366004612db4565b610f82565b34801561057657600080fd5b5061031e610585366004612e13565b610fe2565b34801561059657600080fd5b506103056105a5366004612e2e565b611068565b3480156105b657600080fd5b5061030561113a565b6103056105cd366004612fbc565b61114e565b3480156105de57600080fd5b506103056105ed366004612db4565b61138d565b3480156105fe57600080fd5b5061030561060d366004612fed565b6113cb565b34801561061e57600080fd5b506033546001600160a01b03166102cd565b34801561063c57600080fd5b506102a0611594565b34801561065157600080fd5b50610305610660366004613044565b6115a3565b34801561067157600080fd5b50610305610680366004613080565b6115b5565b34801561069157600080fd5b506106a56106a0366004612db4565b61163a565b60405161028294939291906130e8565b3480156106c157600080fd5b506103056106d0366004612e13565b611774565b3480156106e157600080fd5b506102a06106f0366004612db4565b6118f6565b34801561070157600080fd5b5061031e610710366004612e13565b611901565b34801561072157600080fd5b50610276610730366004613124565b6001600160a01b039182166000908152609d6020908152604080832093909416825291909152205460ff1690565b34801561076a57600080fd5b50610276610779366004612e2e565b6000918252610134602090815260408084206001600160a01b0393909316845291905290205460ff1690565b3480156107b157600080fd5b506107c56107c0366004612db4565b61190c565b604051610282919061314e565b3480156107de57600080fd5b506103056107ed366004612fbc565b611b07565b3480156107fe57600080fd5b5061030561080d366004612e13565b611c03565b34801561081e57600080fd5b5061030561082d366004612db4565b611c79565b60006001600160e01b031982166380ac58cd60e01b148061086357506001600160e01b03198216635b5e139f60e01b145b8061087e57506301ffc9a760e01b6001600160e01b03198316145b92915050565b6060609880546108939061319b565b80601f01602080910402602001604051908101604052809291908181526020018280546108bf9061319b565b801561090c5780601f106108e15761010080835404028352916020019161090c565b820191906000526020600020905b8154815290600101906020018083116108ef57829003601f168201915b5050505050905090565b600061092182611ce5565b506000908152609c60205260409020546001600160a01b031690565b600061094882610f82565b9050806001600160a01b0316836001600160a01b0316036109ba5760405162461bcd60e51b815260206004820152602160248201527f4552433732313a20617070726f76616c20746f2063757272656e74206f776e656044820152603960f91b60648201526084015b60405180910390fd5b806001600160a01b03166109cc611d44565b6001600160a01b031614806109e857506109e881610730611d44565b610a5a5760405162461bcd60e51b815260206004820152603d60248201527f4552433732313a20617070726f76652063616c6c6572206973206e6f7420746f60448201527f6b656e206f776e6572206f7220617070726f76656420666f7220616c6c00000060648201526084016109b1565b6104078383611d4e565b60006001610a726101335490565b610a7c91906131eb565b905090565b610a89611d44565b6001600160a01b0316610a9b83610f82565b6001600160a01b031614610af15760405162461bcd60e51b815260206004820152601c60248201527f4f6e6c79206f776e65722063616e206164642064656c6567617465730000000060448201526064016109b1565b6000828152610134602090815260408083206001600160a01b03851680855290835292819020805460ff191660011790558051858152918201929092527f2d678d15460f6ef62d6d85bfaf6a46d9d0d6498a0fd6ecd92d42bc2ab018103991015b60405180910390a15050565b610b66611dbc565b6001600160a01b038116600081815260656020908152604091829020805460ff1916600117905590519182527f3ef8564460ada92419608d823c014975d98f8104d7d1e68c222967ac6814cd9791015b60405180910390a150565b6000816001600160a01b0316610bd684610f82565b6001600160a01b03161480610c0e57506000838152610134602090815260408083206001600160a01b038616845290915290205460ff165b9392505050565b6001600160a01b037f0000000000000000000000000000000000000000000000000000000000000000163003610c5d5760405162461bcd60e51b81526004016109b1906131fe565b7f00000000000000000000000000000000000000000000000000000000000000006001600160a01b0316610ca6600080516020613a2b833981519152546001600160a01b031690565b6001600160a01b031614610ccc5760405162461bcd60e51b81526004016109b19061324a565b610cd581611e35565b60408051600080825260208201909252610cf191839190611e3d565b50565b610cfc611dbc565b6001600160a01b038116600081815260656020908152604091829020805460ff1916905590519182527fd2d636efcad0cea42e170256f4c5d8b1cd81e47b855557edaf44014e6cc4cee69101610bb6565b610d55611dbc565b6000610d5f611d44565b6001600160a01b03164760405160006040518083038185875af1925050503d8060008114610da9576040519150601f19603f3d011682016040523d82523d6000602084013e610dae565b606091505b5050905080610cf15760405162461bcd60e51b815260206004820152601860248201527f4661696c656420746f207769746864726177204574686572000000000000000060448201526064016109b1565b6001600160a01b037f0000000000000000000000000000000000000000000000000000000000000000163003610e475760405162461bcd60e51b81526004016109b1906131fe565b7f00000000000000000000000000000000000000000000000000000000000000006001600160a01b0316610e90600080516020613a2b833981519152546001600160a01b031690565b6001600160a01b031614610eb65760405162461bcd60e51b81526004016109b19061324a565b610ebf82611e35565b610ecb82826001611e3d565b5050565b6000306001600160a01b037f00000000000000000000000000000000000000000000000000000000000000001614610f6f5760405162461bcd60e51b815260206004820152603860248201527f555550535570677261646561626c653a206d757374206e6f742062652063616c60448201527f6c6564207468726f7567682064656c656761746563616c6c000000000000000060648201526084016109b1565b50600080516020613a2b83398151915290565b6000818152609a60205260408120546001600160a01b03168061087e5760405162461bcd60e51b8152602060048201526018602482015277115490cdcc8c4e881a5b9d985b1a59081d1bdad95b88125160421b60448201526064016109b1565b60006001600160a01b03821661104c5760405162461bcd60e51b815260206004820152602960248201527f4552433732313a2061646472657373207a65726f206973206e6f7420612076616044820152683634b21037bbb732b960b91b60648201526084016109b1565b506001600160a01b03166000908152609b602052604090205490565b611070611d44565b6001600160a01b031661108283610f82565b6001600160a01b0316146110d85760405162461bcd60e51b815260206004820152601f60248201527f4f6e6c79206f776e65722063616e2072656d6f76652064656c6567617465730060448201526064016109b1565b6000828152610134602090815260408083206001600160a01b03851680855290835292819020805460ff191690558051858152918201929092527f09f87139523b83583b15f476015dd9a27fae3a03f17202cdf77d063bef5d21c29101610b52565b611142611dbc565b61114c6000611fa8565b565b6101325434146111ac5760405162461bcd60e51b8152602060048201526024808201527f496e636f727265637420616d6f756e74206f662045544820666f72206d696e746044820152632066656560e01b60648201526084016109b1565b6111b4611d44565b81836111bf83611901565b1561120c5760405162461bcd60e51b815260206004820181905260248201527f596f7520616c7265616479206861766520612054616c656e744c61796572494460448201526064016109b1565b6002825110156112515760405162461bcd60e51b815260206004820152601060248201526f12185b991b19481d1bdbc81cda1bdc9d60821b60448201526064016109b1565b6014825111156112955760405162461bcd60e51b815260206004820152600f60248201526e48616e646c6520746f6f206c6f6e6760881b60448201526064016109b1565b61012f826040516112a691906132b2565b9081526040519081900360200190205460ff16156112fd5760405162461bcd60e51b81526020600482015260146024820152732430b73236329030b63932b0b23c903a30b5b2b760611b60448201526064016109b1565b61012e5460405162f577a560e81b8152600481018390526001600160a01b039091169063f577a5009060240160006040518083038186803b15801561134157600080fd5b505afa158015611355573d6000803e3d6000fd5b505050506000611363611d44565b9050611378816113736101335490565b611ffa565b61138481868834612014565b50505050505050565b611395611dbc565b6101328190556040518181527f38fbb1c8b109c430f0c030e7ed076cf5611a307773a4e8e365601e8f8bceaec690602001610bb6565b8181846113d783611901565b156114245760405162461bcd60e51b815260206004820181905260248201527f596f7520616c7265616479206861766520612054616c656e744c61796572494460448201526064016109b1565b6002825110156114695760405162461bcd60e51b815260206004820152601060248201526f12185b991b19481d1bdbc81cda1bdc9d60821b60448201526064016109b1565b6014825111156114ad5760405162461bcd60e51b815260206004820152600f60248201526e48616e646c6520746f6f206c6f6e6760881b60448201526064016109b1565b61012f826040516114be91906132b2565b9081526040519081900360200190205460ff16156115155760405162461bcd60e51b81526020600482015260146024820152732430b73236329030b63932b0b23c903a30b5b2b760611b60448201526064016109b1565b61012e5460405162f577a560e81b8152600481018390526001600160a01b039091169063f577a5009060240160006040518083038186803b15801561155957600080fd5b505afa15801561156d573d6000803e3d6000fd5b50505050611579611dbc565b611587856113736101335490565b6113848585886000612014565b6060609980546108939061319b565b610ecb6115ae611d44565b83836120ed565b6115c66115c0611d44565b836121bb565b6116285760405162461bcd60e51b815260206004820152602d60248201527f4552433732313a2063616c6c6572206973206e6f7420746f6b656e206f776e6560448201526c1c881bdc88185c1c1c9bdd9959609a1b60648201526084016109b1565b61163484848484612239565b50505050565b610130602052600090815260409020805460018201805491929161165d9061319b565b80601f01602080910402602001604051908101604052809291908181526020018280546116899061319b565b80156116d65780601f106116ab576101008083540402835291602001916116d6565b820191906000526020600020905b8154815290600101906020018083116116b957829003601f168201915b5050505050908060020154908060030180546116f19061319b565b80601f016020809104026020016040519081016040528092919081815260200182805461171d9061319b565b801561176a5780601f1061173f5761010080835404028352916020019161176a565b820191906000526020600020905b81548152906001019060200180831161174d57829003601f168201915b5050505050905084565b600054610100900460ff16158080156117945750600054600160ff909116105b806117ae5750303b1580156117ae575060005460ff166001145b6118115760405162461bcd60e51b815260206004820152602e60248201527f496e697469616c697a61626c653a20636f6e747261637420697320616c72656160448201526d191e481a5b9a5d1a585b1a5e995960921b60648201526084016109b1565b6000805460ff191660011790558015611834576000805461ff0019166101001790555b61183c61226c565b6118866040518060400160405280600d81526020016c15185b195b9d13185e595c9251609a1b8152506040518060400160405280600381526020016215125160ea1b81525061229b565b61188e6122cc565b61012e80546001600160a01b0319166001600160a01b038416179055610133805460010190558015610ecb576000805461ff0019169055604051600181527f7f26b83ff96e1f2b6a682f133852f6798a09c465da95921460cefb384740249890602001610b52565b606061087e826122f3565b600061087e82610fe2565b6119376040518060800160405280600081526020016060815260200160008152602001606081525090565b6000828152609a60205260409020546001600160a01b03166119a95760405162461bcd60e51b815260206004820152602560248201527f54616c656e744c6179657249443a2050726f66696c6520646f6573206e6f7420604482015264195e1a5cdd60da1b60648201526084016109b1565b6101306000838152602001908152602001600020604051806080016040529081600082015481526020016001820180546119e29061319b565b80601f0160208091040260200160405190810160405280929190818152602001828054611a0e9061319b565b8015611a5b5780601f10611a3057610100808354040283529160200191611a5b565b820191906000526020600020905b815481529060010190602001808311611a3e57829003601f168201915b5050505050815260200160028201548152602001600382018054611a7e9061319b565b80601f0160208091040260200160405190810160405280929190818152602001828054611aaa9061319b565b8015611af75780601f10611acc57610100808354040283529160200191611af7565b820191906000526020600020905b815481529060010190602001808311611ada57829003601f168201915b5050505050815250509050919050565b81611b1481610447611d44565b611b585760405162461bcd60e51b81526020600482015260156024820152744e6f74206f776e6572206f722064656c656761746560581b60448201526064016109b1565b6000825111611ba95760405162461bcd60e51b815260206004820152601f60248201527f53686f756c642070726f7669646520612076616c69642049504653205552490060448201526064016109b1565b600083815261013060205260409020600301611bc5838261331c565b50827f613807bd6768f626264e7eb664a65ca99a0d930f8fd8a5b868491a592eb57f7283604051611bf69190612da1565b60405180910390a2505050565b611c0b611dbc565b6001600160a01b038116611c705760405162461bcd60e51b815260206004820152602660248201527f4f776e61626c653a206e6577206f776e657220697320746865207a65726f206160448201526564647265737360d01b60648201526084016109b1565b610cf181611fa8565b600081118015611c8b57506101335481105b610cf15760405162461bcd60e51b815260206004820152602560248201527f596f7572204944206973206e6f7420612076616c69642054616c656e744c6179604482015264195c88125160da1b60648201526084016109b1565b6000818152609a60205260409020546001600160a01b0316610cf15760405162461bcd60e51b8152602060048201526018602482015277115490cdcc8c4e881a5b9d985b1a59081d1bdad95b88125160421b60448201526064016109b1565b6000610a7c61241e565b6000818152609c6020526040902080546001600160a01b0319166001600160a01b0384169081179091558190611d8382610f82565b6001600160a01b03167f8c5be1e5ebec7d5bd14f71427d1e84f3dd0314c0f7b2291e5b200ac8c7c3b92560405160405180910390a45050565b611dc4611d44565b6001600160a01b0316611ddf6033546001600160a01b031690565b6001600160a01b03161461114c5760405162461bcd60e51b815260206004820181905260248201527f4f776e61626c653a2063616c6c6572206973206e6f7420746865206f776e657260448201526064016109b1565b610cf1611dbc565b7f4910fdfa16fed3260ed0e7147f7cc6da11a60208b5b9406d12a635614ffd91435460ff1615611e705761040783612457565b826001600160a01b03166352d1902d6040518163ffffffff1660e01b8152600401602060405180830381865afa925050508015611eca575060408051601f3d908101601f19168201909252611ec7918101906133dc565b60015b611f2d5760405162461bcd60e51b815260206004820152602e60248201527f45524331393637557067726164653a206e657720696d706c656d656e7461746960448201526d6f6e206973206e6f74205555505360901b60648201526084016109b1565b600080516020613a2b8339815191528114611f9c5760405162461bcd60e51b815260206004820152602960248201527f45524331393637557067726164653a20756e737570706f727465642070726f786044820152681a58589b195555525160ba1b60648201526084016109b1565b506104078383836124f3565b603380546001600160a01b038381166001600160a01b0319831681179093556040519116919082907f8be0079c531659141344cd1fd0a4f28419497f9722a3daafe3b4186f6b6457e090600090a35050565b610ecb828260405180602001604052806000815250612518565b6000806120216101335490565b905061203261013380546001019055565b6000818152610130602052604090206002810185905560018101612056878261331c565b50600161012f8760405161206a91906132b2565b9081526040805160209281900383018120805460ff1916941515949094179093556001600160a01b038a1660008181526101319093529120849055907f8475f1ba3b06c1e11c870cbbf9753ca9a8292ea0b203262f682de476dc268f8c906120d99085908a908a908a906133f5565b60405180910390a25090505b949350505050565b816001600160a01b0316836001600160a01b03160361214e5760405162461bcd60e51b815260206004820152601960248201527f4552433732313a20617070726f766520746f2063616c6c65720000000000000060448201526064016109b1565b6001600160a01b038381166000818152609d6020908152604080832094871680845294825291829020805460ff191686151590811790915591519182527f17307eab39ab6107e8899845ad3d59bd9653f200f220920489ca2b5937696c31910160405180910390a3505050565b6000806121c783610f82565b9050806001600160a01b0316846001600160a01b0316148061220e57506001600160a01b038082166000908152609d602090815260408083209388168352929052205460ff165b806120e55750836001600160a01b031661222784610916565b6001600160a01b031614949350505050565b61224484848461254b565b612250848484846126bc565b6116345760405162461bcd60e51b81526004016109b190613421565b600054610100900460ff166122935760405162461bcd60e51b81526004016109b190613473565b61114c6127c1565b600054610100900460ff166122c25760405162461bcd60e51b81526004016109b190613473565b610ecb82826127f8565b600054610100900460ff1661114c5760405162461bcd60e51b81526004016109b190613473565b600081815261013060205260408120600101805460609291906123159061319b565b80601f01602080910402602001604051908101604052809291908181526020018280546123419061319b565b801561238e5780601f106123635761010080835404028352916020019161238e565b820191906000526020600020905b81548152906001019060200180831161237157829003601f168201915b5050505050905060006123bf826040516020016123ab91906134be565b604051602081830303815290604052612838565b6040516020016123cf9190613822565b60405160208183030381529060405290506123f682826040516020016123ab929190613867565b60405160200161240691906138fa565b60405160208183030381529060405292505050919050565b60006014361080159061244057503360009081526065602052604090205460ff165b15612452575060131936013560601c90565b503390565b6001600160a01b0381163b6124c45760405162461bcd60e51b815260206004820152602d60248201527f455243313936373a206e657720696d706c656d656e746174696f6e206973206e60448201526c1bdd08184818dbdb9d1c9858dd609a1b60648201526084016109b1565b600080516020613a2b83398151915280546001600160a01b0319166001600160a01b0392909216919091179055565b6124fc8361298b565b6000825111806125095750805b156104075761163483836129cb565b6125228383612abf565b61252f60008484846126bc565b6104075760405162461bcd60e51b81526004016109b190613421565b826001600160a01b031661255e82610f82565b6001600160a01b0316146125845760405162461bcd60e51b81526004016109b19061393f565b6001600160a01b0382166125e65760405162461bcd60e51b8152602060048201526024808201527f4552433732313a207472616e7366657220746f20746865207a65726f206164646044820152637265737360e01b60648201526084016109b1565b6125f38383836001612c58565b826001600160a01b031661260682610f82565b6001600160a01b03161461262c5760405162461bcd60e51b81526004016109b19061393f565b6000818152609c6020908152604080832080546001600160a01b03199081169091556001600160a01b03878116808652609b8552838620805460001901905590871680865283862080546001019055868652609a90945282852080549092168417909155905184937fddf252ad1be2c89b69c2b068fc378daa952ba7f163c4a11628f55a4df523b3ef91a4505050565b60006001600160a01b0384163b156127b957836001600160a01b031663150b7a026126e5611d44565b8786866040518563ffffffff1660e01b81526004016127079493929190613984565b6020604051808303816000875af1925050508015612742575060408051601f3d908101601f1916820190925261273f918101906139c1565b60015b61279f573d808015612770576040519150601f19603f3d011682016040523d82523d6000602084013e612775565b606091505b5080516000036127975760405162461bcd60e51b81526004016109b190613421565b805181602001fd5b6001600160e01b031916630a85bd0160e11b1490506120e5565b5060016120e5565b600054610100900460ff166127e85760405162461bcd60e51b81526004016109b190613473565b61114c6127f3611d44565b611fa8565b600054610100900460ff1661281f5760405162461bcd60e51b81526004016109b190613473565b609861282b838261331c565b506099610407828261331c565b6060815160000361285757505060408051602081019091526000815290565b6000604051806060016040528060408152602001613a4b604091399050600060038451600261288691906139de565b61289091906139f1565b61289b906004613a13565b67ffffffffffffffff8111156128b3576128b3612e5a565b6040519080825280601f01601f1916602001820160405280156128dd576020820181803683370190505b509050600182016020820185865187015b80821015612949576003820191508151603f8160121c168501518453600184019350603f81600c1c168501518453600184019350603f8160061c168501518453600184019350603f81168501518453506001830192506128ee565b5050600386510660018114612965576002811461297857612980565b603d6001830353603d6002830353612980565b603d60018303535b509195945050505050565b61299481612457565b6040516001600160a01b038216907fbc7cd75a20ee27fd9adebab32041f755214dbc6bffa90cc0225b39da2e5c2d3b90600090a250565b60606001600160a01b0383163b612a335760405162461bcd60e51b815260206004820152602660248201527f416464726573733a2064656c65676174652063616c6c20746f206e6f6e2d636f6044820152651b9d1c9858dd60d21b60648201526084016109b1565b600080846001600160a01b031684604051612a4e91906132b2565b600060405180830381855af49150503d8060008114612a89576040519150601f19603f3d011682016040523d82523d6000602084013e612a8e565b606091505b5091509150612ab68282604051806060016040528060278152602001613a8b60279139612ce0565b95945050505050565b6001600160a01b038216612b155760405162461bcd60e51b815260206004820181905260248201527f4552433732313a206d696e7420746f20746865207a65726f206164647265737360448201526064016109b1565b6000818152609a60205260409020546001600160a01b031615612b7a5760405162461bcd60e51b815260206004820152601c60248201527f4552433732313a20746f6b656e20616c7265616479206d696e7465640000000060448201526064016109b1565b612b88600083836001612c58565b6000818152609a60205260409020546001600160a01b031615612bed5760405162461bcd60e51b815260206004820152601c60248201527f4552433732313a20746f6b656e20616c7265616479206d696e7465640000000060448201526064016109b1565b6001600160a01b0382166000818152609b6020908152604080832080546001019055848352609a90915280822080546001600160a01b0319168417905551839291907fddf252ad1be2c89b69c2b068fc378daa952ba7f163c4a11628f55a4df523b3ef908290a45050565b6001811115611634576001600160a01b03841615612c9e576001600160a01b0384166000908152609b602052604081208054839290612c989084906131eb565b90915550505b6001600160a01b03831615611634576001600160a01b0383166000908152609b602052604081208054839290612cd59084906139de565b909155505050505050565b60608315612cef575081610c0e565b610c0e8383815115612d045781518083602001fd5b8060405162461bcd60e51b81526004016109b19190612da1565b6001600160e01b031981168114610cf157600080fd5b600060208284031215612d4657600080fd5b8135610c0e81612d1e565b60005b83811015612d6c578181015183820152602001612d54565b50506000910152565b60008151808452612d8d816020860160208601612d51565b601f01601f19169290920160200192915050565b602081526000610c0e6020830184612d75565b600060208284031215612dc657600080fd5b5035919050565b80356001600160a01b0381168114612de457600080fd5b919050565b60008060408385031215612dfc57600080fd5b612e0583612dcd565b946020939093013593505050565b600060208284031215612e2557600080fd5b610c0e82612dcd565b60008060408385031215612e4157600080fd5b82359150612e5160208401612dcd565b90509250929050565b634e487b7160e01b600052604160045260246000fd5b600082601f830112612e8157600080fd5b813567ffffffffffffffff80821115612e9c57612e9c612e5a565b604051601f8301601f19908116603f01168101908282118183101715612ec457612ec4612e5a565b81604052838152866020858801011115612edd57600080fd5b836020870160208301376000602085830101528094505050505092915050565b600060208284031215612f0f57600080fd5b813567ffffffffffffffff811115612f2657600080fd5b6120e584828501612e70565b600080600060608486031215612f4757600080fd5b612f5084612dcd565b9250612f5e60208501612dcd565b9150604084013590509250925092565b60008060408385031215612f8157600080fd5b612f8a83612dcd565b9150602083013567ffffffffffffffff811115612fa657600080fd5b612fb285828601612e70565b9150509250929050565b60008060408385031215612fcf57600080fd5b82359150602083013567ffffffffffffffff811115612fa657600080fd5b60008060006060848603121561300257600080fd5b8335925061301260208501612dcd565b9150604084013567ffffffffffffffff81111561302e57600080fd5b61303a86828701612e70565b9150509250925092565b6000806040838503121561305757600080fd5b61306083612dcd565b91506020830135801515811461307557600080fd5b809150509250929050565b6000806000806080858703121561309657600080fd5b61309f85612dcd565b93506130ad60208601612dcd565b925060408501359150606085013567ffffffffffffffff8111156130d057600080fd5b6130dc87828801612e70565b91505092959194509250565b8481526080602082015260006131016080830186612d75565b84604084015282810360608401526131198185612d75565b979650505050505050565b6000806040838503121561313757600080fd5b61314083612dcd565b9150612e5160208401612dcd565b6020815281516020820152600060208301516080604084015261317460a0840182612d75565b9050604084015160608401526060840151601f19848303016080850152612ab68282612d75565b600181811c908216806131af57607f821691505b6020821081036131cf57634e487b7160e01b600052602260045260246000fd5b50919050565b634e487b7160e01b600052601160045260246000fd5b8181038181111561087e5761087e6131d5565b6020808252602c908201527f46756e6374696f6e206d7573742062652063616c6c6564207468726f7567682060408201526b19195b1959d85d1958d85b1b60a21b606082015260800190565b6020808252602c908201527f46756e6374696f6e206d7573742062652063616c6c6564207468726f7567682060408201526b6163746976652070726f787960a01b606082015260800190565b600081516132a8818560208601612d51565b9290920192915050565b600082516132c4818460208701612d51565b9190910192915050565b601f82111561040757600081815260208120601f850160051c810160208610156132f55750805b601f850160051c820191505b8181101561331457828155600101613301565b505050505050565b815167ffffffffffffffff81111561333657613336612e5a565b61334a81613344845461319b565b846132ce565b602080601f83116001811461337f57600084156133675750858301515b600019600386901b1c1916600185901b178555613314565b600085815260208120601f198616915b828110156133ae5788860151825594840194600190910190840161338f565b50858210156133cc5787850151600019600388901b60f8161c191681555b5050505050600190811b01905550565b6000602082840312156133ee57600080fd5b5051919050565b84815260806020820152600061340e6080830186612d75565b6040830194909452506060015292915050565b60208082526032908201527f4552433732313a207472616e7366657220746f206e6f6e20455243373231526560408201527131b2b4bb32b91034b6b83632b6b2b73a32b960711b606082015260800190565b6020808252602b908201527f496e697469616c697a61626c653a20636f6e7472616374206973206e6f74206960408201526a6e697469616c697a696e6760a81b606082015260800190565b7f3c73766720786d6c6e733d22687474703a2f2f7777772e77332e6f72672f323081527f30302f737667222077696474683d2237323022206865696768743d223732302260208201527f3e3c726563742077696474683d223130302522206865696768743d223130302560408201527f222f3e3c73766720786d6c6e733d22687474703a2f2f7777772e77332e6f726760608201527f2f323030302f737667222077696474683d2231353022206865696768743d223160808201527f3530222076657273696f6e3d22312e32222076696577426f783d222d3230302060a08201527f2d353020313030302031303030223e3c706174682066696c6c3d22234646464660c08201527f46462220643d224d3236342e35203139302e3563302d31332e382031312e322d60e08201527f32352032352d3235483536386331332e3820302032352031312e3220323520326101008201527f357634393063302031332e382d31312e322032352d3235203235483238392e356101208201527f632d31332e3820302d32352d31312e322d32352d32357a222f3e3c70617468206101408201527f66696c6c3d22234646464646462220643d224d3236352036323463302d31332e6101608201527f382031312e322d32352032352d3235683534336331332e3820302032352031316101808201527f2e322032352032357635362e3563302031332e382d31312e322032352d3235206101a08201527f323548323930632d31332e3820302d32352d31312e322d32352d32357a222f3e6101c08201527f3c706174682066696c6c3d22234646464646462220643d224d30203139302e356101e08201527f63302d31332e382031312e322d32352032352d3235683534336331332e3820306102008201527f2032352031312e322032352032355632343763302031332e382d31312e3220326102208201527f352d3235203235483235632d31332e3820302d32352d31312e322d32352d32356102408201527f7a222f3e3c2f7376673e3c7465787420783d2233302220793d223637302220736102608201527f74796c653d22666f6e743a363070782073616e732d73657269663b66696c6c3a6102808201526511b33333111f60d11b6102a08201526000610c0e6138096102a6840185613296565b6c1e17ba32bc3a1f1e17b9bb339f60991b8152600d0190565b7f646174613a696d6167652f7376672b786d6c3b6261736536342c00000000000081526000825161385a81601a850160208701612d51565b91909101601a0192915050565b683d913730b6b2911d1160b91b8152825160009061388c816009850160208801612d51565b6b1116101134b6b0b3b2911d1160a11b60099184019182015283516138b8816015840160208801612d51565b7f222c20226465736372697074696f6e223a202254616c656e744c617965722049601592909101918201526244227d60e81b6035820152603801949350505050565b7f646174613a6170706c69636174696f6e2f6a736f6e3b6261736536342c00000081526000825161393281601d850160208701612d51565b91909101601d0192915050565b60208082526025908201527f4552433732313a207472616e736665722066726f6d20696e636f72726563742060408201526437bbb732b960d91b606082015260800190565b6001600160a01b03858116825284166020820152604081018390526080606082018190526000906139b790830184612d75565b9695505050505050565b6000602082840312156139d357600080fd5b8151610c0e81612d1e565b8082018082111561087e5761087e6131d5565b600082613a0e57634e487b7160e01b600052601260045260246000fd5b500490565b808202811582820484141761087e5761087e6131d556fe360894a13ba1a3210667c828492db98dca3e2076cc3735a920a3ca505d382bbc4142434445464748494a4b4c4d4e4f505152535455565758595a6162636465666768696a6b6c6d6e6f707172737475767778797a303132333435363738392b2f416464726573733a206c6f772d6c6576656c2064656c65676174652063616c6c206661696c6564a26469706673582212204b6d60c4cc90643cc274c96a7295ae7d64385718aa63d620c247b3c844b3a57464736f6c63430008110033",
  "linkReferences": {},
  "deployedLinkReferences": {}
}