{
  "_format": "hh-sol-artifact-1",
  "contractName": "TalentLayerID",
  "sourceName": "contracts/TalentLayerID.sol",
  "abi": [
    {
      "inputs": [],
      "stateMutability": "nonpayable",
      "type": "constructor"
    },
    {
      "anonymous": false,
      "inputs": [
        {
          "indexed": false,
          "internalType": "address",
          "name": "previousAdmin",
          "type": "address"
        },
        {
          "indexed": false,
          "internalType": "address",
          "name": "newAdmin",
          "type": "address"
        }
      ],
      "name": "AdminChanged",
      "type": "event"
    },
    {
      "anonymous": false,
      "inputs": [
        {
          "indexed": true,
          "internalType": "address",
          "name": "owner",
          "type": "address"
        },
        {
          "indexed": true,
          "internalType": "address",
          "name": "approved",
          "type": "address"
        },
        {
          "indexed": true,
          "internalType": "uint256",
          "name": "tokenId",
          "type": "uint256"
        }
      ],
      "name": "Approval",
      "type": "event"
    },
    {
      "anonymous": false,
      "inputs": [
        {
          "indexed": true,
          "internalType": "address",
          "name": "owner",
          "type": "address"
        },
        {
          "indexed": true,
          "internalType": "address",
          "name": "operator",
          "type": "address"
        },
        {
          "indexed": false,
          "internalType": "bool",
          "name": "approved",
          "type": "bool"
        }
      ],
      "name": "ApprovalForAll",
      "type": "event"
    },
    {
      "anonymous": false,
      "inputs": [
        {
          "indexed": true,
          "internalType": "address",
          "name": "beacon",
          "type": "address"
        }
      ],
      "name": "BeaconUpgraded",
      "type": "event"
    },
    {
      "anonymous": false,
      "inputs": [
        {
          "indexed": true,
          "internalType": "uint256",
          "name": "_tokenId",
          "type": "uint256"
        },
        {
          "indexed": false,
          "internalType": "string",
          "name": "_newCid",
          "type": "string"
        }
      ],
      "name": "CidUpdated",
      "type": "event"
    },
    {
      "anonymous": false,
      "inputs": [
        {
          "indexed": false,
          "internalType": "uint256",
          "name": "_tokenId",
          "type": "uint256"
        },
        {
          "indexed": false,
          "internalType": "address",
          "name": "_delegate",
          "type": "address"
        }
      ],
      "name": "DelegateAdded",
      "type": "event"
    },
    {
      "anonymous": false,
      "inputs": [
        {
          "indexed": false,
          "internalType": "uint256",
          "name": "_tokenId",
          "type": "uint256"
        },
        {
          "indexed": false,
          "internalType": "address",
          "name": "_delegate",
          "type": "address"
        }
      ],
      "name": "DelegateRemoved",
      "type": "event"
    },
    {
      "anonymous": false,
      "inputs": [
        {
          "indexed": false,
          "internalType": "uint8",
          "name": "version",
          "type": "uint8"
        }
      ],
      "name": "Initialized",
      "type": "event"
    },
    {
      "anonymous": false,
      "inputs": [
        {
          "indexed": true,
          "internalType": "address",
          "name": "_user",
          "type": "address"
        },
        {
          "indexed": false,
          "internalType": "uint256",
          "name": "_tokenId",
          "type": "uint256"
        },
        {
          "indexed": false,
          "internalType": "string",
          "name": "_handle",
          "type": "string"
        },
        {
          "indexed": false,
          "internalType": "uint256",
          "name": "_platformId",
          "type": "uint256"
        },
        {
          "indexed": false,
          "internalType": "uint256",
          "name": "_fee",
          "type": "uint256"
        }
      ],
      "name": "Mint",
      "type": "event"
    },
    {
      "anonymous": false,
      "inputs": [
        {
          "indexed": false,
          "internalType": "uint256",
          "name": "_mintFee",
          "type": "uint256"
        }
      ],
      "name": "MintFeeUpdated",
      "type": "event"
    },
    {
      "anonymous": false,
      "inputs": [
        {
          "indexed": true,
          "internalType": "address",
          "name": "previousOwner",
          "type": "address"
        },
        {
          "indexed": true,
          "internalType": "address",
          "name": "newOwner",
          "type": "address"
        }
      ],
      "name": "OwnershipTransferred",
      "type": "event"
    },
    {
      "anonymous": false,
      "inputs": [
        {
          "indexed": true,
          "internalType": "address",
          "name": "from",
          "type": "address"
        },
        {
          "indexed": true,
          "internalType": "address",
          "name": "to",
          "type": "address"
        },
        {
          "indexed": true,
          "internalType": "uint256",
          "name": "tokenId",
          "type": "uint256"
        }
      ],
      "name": "Transfer",
      "type": "event"
    },
    {
      "anonymous": false,
      "inputs": [
        {
          "indexed": false,
          "internalType": "address",
          "name": "forwarder",
          "type": "address"
        }
      ],
      "name": "TrustedForwarderAdded",
      "type": "event"
    },
    {
      "anonymous": false,
      "inputs": [
        {
          "indexed": false,
          "internalType": "address",
          "name": "forwarder",
          "type": "address"
        }
      ],
      "name": "TrustedForwarderRemoved",
      "type": "event"
    },
    {
      "anonymous": false,
      "inputs": [
        {
          "indexed": true,
          "internalType": "address",
          "name": "implementation",
          "type": "address"
        }
      ],
      "name": "Upgraded",
      "type": "event"
    },
    {
      "inputs": [
        {
          "internalType": "uint256",
          "name": "_tokenId",
          "type": "uint256"
        },
        {
          "internalType": "address",
          "name": "_delegate",
          "type": "address"
        }
      ],
      "name": "addDelegate",
      "outputs": [],
      "stateMutability": "nonpayable",
      "type": "function"
    },
    {
      "inputs": [
        {
          "internalType": "address",
          "name": "_forwarder",
          "type": "address"
        }
      ],
      "name": "addTrustedForwarder",
      "outputs": [],
      "stateMutability": "nonpayable",
      "type": "function"
    },
    {
      "inputs": [
        {
          "internalType": "address",
          "name": "to",
          "type": "address"
        },
        {
          "internalType": "uint256",
          "name": "tokenId",
          "type": "uint256"
        }
      ],
      "name": "approve",
      "outputs": [],
      "stateMutability": "nonpayable",
      "type": "function"
    },
    {
      "inputs": [
        {
          "internalType": "address",
          "name": "owner",
          "type": "address"
        }
      ],
      "name": "balanceOf",
      "outputs": [
        {
          "internalType": "uint256",
          "name": "",
          "type": "uint256"
        }
      ],
      "stateMutability": "view",
      "type": "function"
    },
    {
      "inputs": [
        {
          "internalType": "uint256",
          "name": "_platformId",
          "type": "uint256"
        },
        {
          "internalType": "address",
          "name": "_userAddress",
          "type": "address"
        },
        {
          "internalType": "string",
          "name": "_handle",
          "type": "string"
        }
      ],
      "name": "freeMint",
      "outputs": [],
      "stateMutability": "nonpayable",
      "type": "function"
    },
    {
      "inputs": [
        {
          "internalType": "uint256",
          "name": "tokenId",
          "type": "uint256"
        }
      ],
      "name": "getApproved",
      "outputs": [
        {
          "internalType": "address",
          "name": "",
          "type": "address"
        }
      ],
      "stateMutability": "view",
      "type": "function"
    },
    {
      "inputs": [
        {
          "internalType": "address",
          "name": "_address",
          "type": "address"
        }
      ],
      "name": "getOriginatorPlatformIdByAddress",
      "outputs": [
        {
          "internalType": "uint256",
          "name": "",
          "type": "uint256"
        }
      ],
      "stateMutability": "view",
      "type": "function"
    },
    {
      "inputs": [
        {
          "internalType": "uint256",
          "name": "_profileId",
          "type": "uint256"
        }
      ],
      "name": "getProfile",
      "outputs": [
        {
          "components": [
            {
              "internalType": "uint256",
              "name": "id",
              "type": "uint256"
            },
            {
              "internalType": "string",
              "name": "handle",
              "type": "string"
            },
            {
              "internalType": "uint256",
              "name": "platformId",
              "type": "uint256"
            },
            {
              "internalType": "string",
              "name": "dataUri",
              "type": "string"
            }
          ],
          "internalType": "struct TalentLayerID.Profile",
          "name": "",
          "type": "tuple"
        }
      ],
      "stateMutability": "view",
      "type": "function"
    },
    {
      "inputs": [
        {
          "internalType": "address",
          "name": "_talentLayerPlatformIdAddress",
          "type": "address"
        }
      ],
      "name": "initialize",
      "outputs": [],
      "stateMutability": "nonpayable",
      "type": "function"
    },
    {
      "inputs": [
        {
          "internalType": "address",
          "name": "owner",
          "type": "address"
        },
        {
          "internalType": "address",
          "name": "operator",
          "type": "address"
        }
      ],
      "name": "isApprovedForAll",
      "outputs": [
        {
          "internalType": "bool",
          "name": "",
          "type": "bool"
        }
      ],
      "stateMutability": "view",
      "type": "function"
    },
    {
      "inputs": [
        {
          "internalType": "uint256",
          "name": "_tokenId",
          "type": "uint256"
        },
        {
          "internalType": "address",
          "name": "_address",
          "type": "address"
        }
      ],
      "name": "isDelegate",
      "outputs": [
        {
          "internalType": "bool",
          "name": "",
          "type": "bool"
        }
      ],
      "stateMutability": "view",
      "type": "function"
    },
    {
      "inputs": [
        {
          "internalType": "uint256",
          "name": "_tokenId",
          "type": "uint256"
        },
        {
          "internalType": "address",
          "name": "_address",
          "type": "address"
        }
      ],
      "name": "isOwnerOrDelegate",
      "outputs": [
        {
          "internalType": "bool",
          "name": "",
          "type": "bool"
        }
      ],
      "stateMutability": "view",
      "type": "function"
    },
    {
      "inputs": [
        {
          "internalType": "address",
          "name": "forwarder",
          "type": "address"
        }
      ],
      "name": "isTrustedForwarder",
      "outputs": [
        {
          "internalType": "bool",
          "name": "",
          "type": "bool"
        }
      ],
      "stateMutability": "view",
      "type": "function"
    },
    {
      "inputs": [
        {
          "internalType": "uint256",
          "name": "_tokenId",
          "type": "uint256"
        }
      ],
      "name": "isValid",
      "outputs": [],
      "stateMutability": "view",
      "type": "function"
    },
    {
      "inputs": [
        {
          "internalType": "uint256",
          "name": "_platformId",
          "type": "uint256"
        },
        {
          "internalType": "string",
          "name": "_handle",
          "type": "string"
        }
      ],
      "name": "mint",
      "outputs": [],
      "stateMutability": "payable",
      "type": "function"
    },
    {
      "inputs": [],
      "name": "mintFee",
      "outputs": [
        {
          "internalType": "uint256",
          "name": "",
          "type": "uint256"
        }
      ],
      "stateMutability": "view",
      "type": "function"
    },
    {
      "inputs": [],
      "name": "name",
      "outputs": [
        {
          "internalType": "string",
          "name": "",
          "type": "string"
        }
      ],
      "stateMutability": "view",
      "type": "function"
    },
    {
      "inputs": [
        {
          "internalType": "address",
          "name": "_user",
          "type": "address"
        }
      ],
      "name": "numberMinted",
      "outputs": [
        {
          "internalType": "uint256",
          "name": "",
          "type": "uint256"
        }
      ],
      "stateMutability": "view",
      "type": "function"
    },
    {
      "inputs": [],
      "name": "owner",
      "outputs": [
        {
          "internalType": "address",
          "name": "",
          "type": "address"
        }
      ],
      "stateMutability": "view",
      "type": "function"
    },
    {
      "inputs": [
        {
          "internalType": "uint256",
          "name": "tokenId",
          "type": "uint256"
        }
      ],
      "name": "ownerOf",
      "outputs": [
        {
          "internalType": "address",
          "name": "",
          "type": "address"
        }
      ],
      "stateMutability": "view",
      "type": "function"
    },
    {
      "inputs": [
        {
          "internalType": "uint256",
          "name": "",
          "type": "uint256"
        }
      ],
      "name": "profiles",
      "outputs": [
        {
          "internalType": "uint256",
          "name": "id",
          "type": "uint256"
        },
        {
          "internalType": "string",
          "name": "handle",
          "type": "string"
        },
        {
          "internalType": "uint256",
          "name": "platformId",
          "type": "uint256"
        },
        {
          "internalType": "string",
          "name": "dataUri",
          "type": "string"
        }
      ],
      "stateMutability": "view",
      "type": "function"
    },
    {
      "inputs": [],
      "name": "proxiableUUID",
      "outputs": [
        {
          "internalType": "bytes32",
          "name": "",
          "type": "bytes32"
        }
      ],
      "stateMutability": "view",
      "type": "function"
    },
    {
      "inputs": [
        {
          "internalType": "uint256",
          "name": "_tokenId",
          "type": "uint256"
        },
        {
          "internalType": "address",
          "name": "_delegate",
          "type": "address"
        }
      ],
      "name": "removeDelegate",
      "outputs": [],
      "stateMutability": "nonpayable",
      "type": "function"
    },
    {
      "inputs": [
        {
          "internalType": "address",
          "name": "_forwarder",
          "type": "address"
        }
      ],
      "name": "removeTrustedForwarder",
      "outputs": [],
      "stateMutability": "nonpayable",
      "type": "function"
    },
    {
      "inputs": [],
      "name": "renounceOwnership",
      "outputs": [],
      "stateMutability": "nonpayable",
      "type": "function"
    },
    {
      "inputs": [
        {
          "internalType": "address",
          "name": "from",
          "type": "address"
        },
        {
          "internalType": "address",
          "name": "to",
          "type": "address"
        },
        {
          "internalType": "uint256",
          "name": "tokenId",
          "type": "uint256"
        }
      ],
      "name": "safeTransferFrom",
      "outputs": [],
      "stateMutability": "nonpayable",
      "type": "function"
    },
    {
      "inputs": [
        {
          "internalType": "address",
          "name": "from",
          "type": "address"
        },
        {
          "internalType": "address",
          "name": "to",
          "type": "address"
        },
        {
          "internalType": "uint256",
          "name": "tokenId",
          "type": "uint256"
        },
        {
          "internalType": "bytes",
          "name": "data",
          "type": "bytes"
        }
      ],
      "name": "safeTransferFrom",
      "outputs": [],
      "stateMutability": "nonpayable",
      "type": "function"
    },
    {
      "inputs": [
        {
          "internalType": "address",
          "name": "operator",
          "type": "address"
        },
        {
          "internalType": "bool",
          "name": "approved",
          "type": "bool"
        }
      ],
      "name": "setApprovalForAll",
      "outputs": [],
      "stateMutability": "nonpayable",
      "type": "function"
    },
    {
      "inputs": [
        {
          "internalType": "bytes4",
          "name": "interfaceId",
          "type": "bytes4"
        }
      ],
      "name": "supportsInterface",
      "outputs": [
        {
          "internalType": "bool",
          "name": "",
          "type": "bool"
        }
      ],
      "stateMutability": "view",
      "type": "function"
    },
    {
      "inputs": [],
      "name": "symbol",
      "outputs": [
        {
          "internalType": "string",
          "name": "",
          "type": "string"
        }
      ],
      "stateMutability": "view",
      "type": "function"
    },
    {
      "inputs": [
        {
          "internalType": "string",
          "name": "",
          "type": "string"
        }
      ],
      "name": "takenHandles",
      "outputs": [
        {
          "internalType": "bool",
          "name": "",
          "type": "bool"
        }
      ],
      "stateMutability": "view",
      "type": "function"
    },
    {
      "inputs": [],
      "name": "talentLayerPlatformIdContract",
      "outputs": [
        {
          "internalType": "contract ITalentLayerPlatformID",
          "name": "",
          "type": "address"
        }
      ],
      "stateMutability": "view",
      "type": "function"
    },
    {
      "inputs": [
        {
          "internalType": "uint256",
          "name": "tokenId",
          "type": "uint256"
        }
      ],
      "name": "tokenURI",
      "outputs": [
        {
          "internalType": "string",
          "name": "",
          "type": "string"
        }
      ],
      "stateMutability": "view",
      "type": "function"
    },
    {
      "inputs": [],
      "name": "totalSupply",
      "outputs": [
        {
          "internalType": "uint256",
          "name": "",
          "type": "uint256"
        }
      ],
      "stateMutability": "view",
      "type": "function"
    },
    {
      "inputs": [
        {
          "internalType": "address",
          "name": "from",
          "type": "address"
        },
        {
          "internalType": "address",
          "name": "to",
          "type": "address"
        },
        {
          "internalType": "uint256",
          "name": "tokenId",
          "type": "uint256"
        }
      ],
      "name": "transferFrom",
      "outputs": [],
      "stateMutability": "nonpayable",
      "type": "function"
    },
    {
      "inputs": [
        {
          "internalType": "address",
          "name": "newOwner",
          "type": "address"
        }
      ],
      "name": "transferOwnership",
      "outputs": [],
      "stateMutability": "nonpayable",
      "type": "function"
    },
    {
      "inputs": [
        {
          "internalType": "uint256",
          "name": "_mintFee",
          "type": "uint256"
        }
      ],
      "name": "updateMintFee",
      "outputs": [],
      "stateMutability": "nonpayable",
      "type": "function"
    },
    {
      "inputs": [
        {
          "internalType": "uint256",
          "name": "_tokenId",
          "type": "uint256"
        },
        {
          "internalType": "string",
          "name": "_newCid",
          "type": "string"
        }
      ],
      "name": "updateProfileData",
      "outputs": [],
      "stateMutability": "nonpayable",
      "type": "function"
    },
    {
      "inputs": [
        {
          "internalType": "address",
          "name": "newImplementation",
          "type": "address"
        }
      ],
      "name": "upgradeTo",
      "outputs": [],
      "stateMutability": "nonpayable",
      "type": "function"
    },
    {
      "inputs": [
        {
          "internalType": "address",
          "name": "newImplementation",
          "type": "address"
        },
        {
          "internalType": "bytes",
          "name": "data",
          "type": "bytes"
        }
      ],
      "name": "upgradeToAndCall",
      "outputs": [],
      "stateMutability": "payable",
      "type": "function"
    },
    {
      "inputs": [
        {
          "internalType": "address",
          "name": "_owner",
          "type": "address"
        }
      ],
      "name": "walletOfOwner",
      "outputs": [
        {
          "internalType": "uint256",
          "name": "",
          "type": "uint256"
        }
      ],
      "stateMutability": "view",
      "type": "function"
    },
    {
      "inputs": [],
      "name": "withdraw",
      "outputs": [],
      "stateMutability": "nonpayable",
      "type": "function"
    }
  ],
  "bytecode": "0x60a0604052306080523480156200001557600080fd5b506200002062000026565b620000e8565b600054610100900460ff1615620000935760405162461bcd60e51b815260206004820152602760248201527f496e697469616c697a61626c653a20636f6e747261637420697320696e697469604482015266616c697a696e6760c81b606482015260840160405180910390fd5b60005460ff9081161015620000e6576000805460ff191660ff9081179091556040519081527f7f26b83ff96e1f2b6a682f133852f6798a09c465da95921460cefb38474024989060200160405180910390a15b565b60805161504a6200012060003960008181610beb01528181610c2b01528181610e2901528181610e690152610efc015261504a6000f3fe6080604052600436106102515760003560e01c80636352211e11610139578063b88d4fde116100b6578063e985e9c51161007a578063e985e9c5146106df578063eab5d42614610728578063f08f4f641461076f578063f160068f1461079c578063f2fde38b146107bc578063f577a500146107dc57600080fd5b8063b88d4fde1461062f578063c36fe3d61461064f578063c4d66de81461067f578063c87b56dd1461069f578063dc33e681146106bf57600080fd5b806384017e52116100fd57806384017e521461059c57806389c1694c146105bc5780638da5cb5b146105dc57806395d89b41146105fa578063a22cb4651461060f57600080fd5b80636352211e1461051457806370a082311461053457806370e703dd14610554578063715018a61461057457806377097fc81461058957600080fd5b806326d00668116101d257806342842e0e1161019657806342842e0e146103be578063438b6300146104735780634f1ef2861461049357806352d1902d146104a6578063572b6c05146104bb5780635c4b0348146104f457600080fd5b806326d00668146103de5780632fa117e5146103fe5780633659cfe61461041e5780633751d89c1461043e5780633ccfd60b1461045e57600080fd5b80631499f9e6116102195780631499f9e61461032c57806318160ddd1461034d5780631cf6239b146103625780632106beec1461038257806323b872dd146103be57600080fd5b806301ffc9a71461025657806306fdde031461028b578063081812fc146102ad578063095ea7b3146102e557806313966db514610307575b600080fd5b34801561026257600080fd5b50610276610271366004612e35565b6107fc565b60405190151581526020015b60405180910390f35b34801561029757600080fd5b506102a061084e565b6040516102829190612eaa565b3480156102b957600080fd5b506102cd6102c8366004612ebd565b6108e0565b6040516001600160a01b039091168152602001610282565b3480156102f157600080fd5b50610305610300366004612ef2565b610907565b005b34801561031357600080fd5b5061031e6101315481565b604051908152602001610282565b34801561033857600080fd5b5061012e546102cd906001600160a01b031681565b34801561035957600080fd5b5061031e610a2f565b34801561036e57600080fd5b5061030561037d366004612f1c565b610a4c565b34801561038e57600080fd5b5061027661039d366004612feb565b805160208183018101805161012f8252928201919093012091525460ff1681565b3480156103ca57600080fd5b506103056103d9366004613020565b505050565b3480156103ea57600080fd5b506103056103f936600461305c565b610b29565b34801561040a57600080fd5b50610276610419366004612f1c565b610b8c565b34801561042a57600080fd5b5061030561043936600461305c565b610be0565b34801561044a57600080fd5b5061030561045936600461305c565b610cc0565b34801561046a57600080fd5b50610305610d19565b34801561047f57600080fd5b5061031e61048e36600461305c565b610dcb565b6103056104a1366004613077565b610e1e565b3480156104b257600080fd5b5061031e610eef565b3480156104c757600080fd5b506102766104d636600461305c565b6001600160a01b031660009081526065602052604090205460ff1690565b34801561050057600080fd5b5061031e61050f36600461305c565b610fa2565b34801561052057600080fd5b506102cd61052f366004612ebd565b610fcb565b34801561054057600080fd5b5061031e61054f36600461305c565b61102b565b34801561056057600080fd5b5061030561056f366004612f1c565b6110b1565b34801561058057600080fd5b50610305611183565b6103056105973660046130c5565b611197565b3480156105a857600080fd5b506103056105b7366004612ebd565b6113d5565b3480156105c857600080fd5b506103056105d73660046130f6565b611413565b3480156105e857600080fd5b506033546001600160a01b03166102cd565b34801561060657600080fd5b506102a06115dc565b34801561061b57600080fd5b5061030561062a36600461314d565b6115eb565b34801561063b57600080fd5b5061030561064a366004613189565b6115fd565b34801561065b57600080fd5b5061066f61066a366004612ebd565b611682565b60405161028294939291906131f1565b34801561068b57600080fd5b5061030561069a36600461305c565b6117bc565b3480156106ab57600080fd5b506102a06106ba366004612ebd565b61193e565b3480156106cb57600080fd5b5061031e6106da36600461305c565b611949565b3480156106eb57600080fd5b506102766106fa36600461322d565b6001600160a01b039182166000908152609d6020908152604080832093909416825291909152205460ff1690565b34801561073457600080fd5b50610276610743366004612f1c565b6000918252610133602090815260408084206001600160a01b0393909316845291905290205460ff1690565b34801561077b57600080fd5b5061078f61078a366004612ebd565b611954565b6040516102829190613257565b3480156107a857600080fd5b506103056107b73660046130c5565b611b4f565b3480156107c857600080fd5b506103056107d736600461305c565b611c55565b3480156107e857600080fd5b506103056107f7366004612ebd565b611ccb565b60006001600160e01b031982166380ac58cd60e01b148061082d57506001600160e01b03198216635b5e139f60e01b145b8061084857506301ffc9a760e01b6001600160e01b03198316145b92915050565b60606098805461085d906132a4565b80601f0160208091040260200160405190810160405280929190818152602001828054610889906132a4565b80156108d65780601f106108ab576101008083540402835291602001916108d6565b820191906000526020600020905b8154815290600101906020018083116108b957829003601f168201915b5050505050905090565b60006108eb82611d29565b506000908152609c60205260409020546001600160a01b031690565b600061091282610fcb565b9050806001600160a01b0316836001600160a01b031614156109855760405162461bcd60e51b815260206004820152602160248201527f4552433732313a20617070726f76616c20746f2063757272656e74206f776e656044820152603960f91b60648201526084015b60405180910390fd5b806001600160a01b0316610997611d88565b6001600160a01b031614806109b357506109b3816106fa611d88565b610a255760405162461bcd60e51b815260206004820152603d60248201527f4552433732313a20617070726f76652063616c6c6572206973206e6f7420746f60448201527f6b656e206f776e6572206f7220617070726f76656420666f7220616c6c000000606482015260840161097c565b6103d98383611d92565b60006001610a3d6101325490565b610a4791906132f5565b905090565b610a54611d88565b6001600160a01b0316610a6683610fcb565b6001600160a01b031614610abc5760405162461bcd60e51b815260206004820152601c60248201527f4f6e6c79206f776e65722063616e206164642064656c65676174657300000000604482015260640161097c565b6000828152610133602090815260408083206001600160a01b03851680855290835292819020805460ff191660011790558051858152918201929092527f2d678d15460f6ef62d6d85bfaf6a46d9d0d6498a0fd6ecd92d42bc2ab018103991015b60405180910390a15050565b610b31611e00565b6001600160a01b038116600081815260656020908152604091829020805460ff1916600117905590519182527f3ef8564460ada92419608d823c014975d98f8104d7d1e68c222967ac6814cd9791015b60405180910390a150565b6000816001600160a01b0316610ba184610fcb565b6001600160a01b03161480610bd957506000838152610133602090815260408083206001600160a01b038616845290915290205460ff165b9392505050565b306001600160a01b037f0000000000000000000000000000000000000000000000000000000000000000161415610c295760405162461bcd60e51b815260040161097c9061330c565b7f00000000000000000000000000000000000000000000000000000000000000006001600160a01b0316610c72600080516020614f8e833981519152546001600160a01b031690565b6001600160a01b031614610c985760405162461bcd60e51b815260040161097c90613358565b610ca181611e79565b60408051600080825260208201909252610cbd91839190611e81565b50565b610cc8611e00565b6001600160a01b038116600081815260656020908152604091829020805460ff1916905590519182527fd2d636efcad0cea42e170256f4c5d8b1cd81e47b855557edaf44014e6cc4cee69101610b81565b610d21611e00565b6000610d2b611d88565b6001600160a01b03164760405160006040518083038185875af1925050503d8060008114610d75576040519150601f19603f3d011682016040523d82523d6000602084013e610d7a565b606091505b5050905080610cbd5760405162461bcd60e51b815260206004820152601860248201527f4661696c656420746f2077697468647261772045746865720000000000000000604482015260640161097c565b600060015b61013254811015610e15576000818152609a60205260409020546001600160a01b0384811691161415610e035792915050565b80610e0d816133a4565b915050610dd0565b50600092915050565b306001600160a01b037f0000000000000000000000000000000000000000000000000000000000000000161415610e675760405162461bcd60e51b815260040161097c9061330c565b7f00000000000000000000000000000000000000000000000000000000000000006001600160a01b0316610eb0600080516020614f8e833981519152546001600160a01b031690565b6001600160a01b031614610ed65760405162461bcd60e51b815260040161097c90613358565b610edf82611e79565b610eeb82826001611e81565b5050565b6000306001600160a01b037f00000000000000000000000000000000000000000000000000000000000000001614610f8f5760405162461bcd60e51b815260206004820152603860248201527f555550535570677261646561626c653a206d757374206e6f742062652063616c60448201527f6c6564207468726f7567682064656c656761746563616c6c0000000000000000606482015260840161097c565b50600080516020614f8e83398151915290565b60006101306000610fb284610dcb565b8152602001908152602001600020600201549050919050565b6000818152609a60205260408120546001600160a01b0316806108485760405162461bcd60e51b8152602060048201526018602482015277115490cdcc8c4e881a5b9d985b1a59081d1bdad95b88125160421b604482015260640161097c565b60006001600160a01b0382166110955760405162461bcd60e51b815260206004820152602960248201527f4552433732313a2061646472657373207a65726f206973206e6f7420612076616044820152683634b21037bbb732b960b91b606482015260840161097c565b506001600160a01b03166000908152609b602052604090205490565b6110b9611d88565b6001600160a01b03166110cb83610fcb565b6001600160a01b0316146111215760405162461bcd60e51b815260206004820152601f60248201527f4f6e6c79206f776e65722063616e2072656d6f76652064656c65676174657300604482015260640161097c565b6000828152610133602090815260408083206001600160a01b03851680855290835292819020805460ff191690558051858152918201929092527f09f87139523b83583b15f476015dd9a27fae3a03f17202cdf77d063bef5d21c29101610b1d565b61118b611e00565b6111956000611ffb565b565b6101315434146111f55760405162461bcd60e51b8152602060048201526024808201527f496e636f727265637420616d6f756e74206f662045544820666f72206d696e746044820152632066656560e01b606482015260840161097c565b6111fd611d88565b818361120883611949565b156112555760405162461bcd60e51b815260206004820181905260248201527f596f7520616c7265616479206861766520612054616c656e744c617965724944604482015260640161097c565b60028251101561129a5760405162461bcd60e51b815260206004820152601060248201526f12185b991b19481d1bdbc81cda1bdc9d60821b604482015260640161097c565b6014825111156112de5760405162461bcd60e51b815260206004820152600f60248201526e48616e646c6520746f6f206c6f6e6760881b604482015260640161097c565b61012f826040516112ef91906133db565b9081526040519081900360200190205460ff16156113465760405162461bcd60e51b81526020600482015260146024820152732430b73236329030b63932b0b23c903a30b5b2b760611b604482015260640161097c565b61012e5460405162f577a560e81b8152600481018390526001600160a01b039091169063f577a5009060240160006040518083038186803b15801561138a57600080fd5b505afa15801561139e573d6000803e3d6000fd5b5050505060006113ac611d88565b90506113c1816113bc6101325490565b61204d565b6113cd81868834612067565b505050505050565b6113dd611e00565b6101318190556040518181527f38fbb1c8b109c430f0c030e7ed076cf5611a307773a4e8e365601e8f8bceaec690602001610b81565b81818461141f83611949565b1561146c5760405162461bcd60e51b815260206004820181905260248201527f596f7520616c7265616479206861766520612054616c656e744c617965724944604482015260640161097c565b6002825110156114b15760405162461bcd60e51b815260206004820152601060248201526f12185b991b19481d1bdbc81cda1bdc9d60821b604482015260640161097c565b6014825111156114f55760405162461bcd60e51b815260206004820152600f60248201526e48616e646c6520746f6f206c6f6e6760881b604482015260640161097c565b61012f8260405161150691906133db565b9081526040519081900360200190205460ff161561155d5760405162461bcd60e51b81526020600482015260146024820152732430b73236329030b63932b0b23c903a30b5b2b760611b604482015260640161097c565b61012e5460405162f577a560e81b8152600481018390526001600160a01b039091169063f577a5009060240160006040518083038186803b1580156115a157600080fd5b505afa1580156115b5573d6000803e3d6000fd5b505050506115c1611e00565b6115cf856113bc6101325490565b6113cd8585886000612067565b60606099805461085d906132a4565b610eeb6115f6611d88565b8383612135565b61160e611608611d88565b83612204565b6116705760405162461bcd60e51b815260206004820152602d60248201527f4552433732313a2063616c6c6572206973206e6f7420746f6b656e206f776e6560448201526c1c881bdc88185c1c1c9bdd9959609a1b606482015260840161097c565b61167c84848484612283565b50505050565b61013060205260009081526040902080546001820180549192916116a5906132a4565b80601f01602080910402602001604051908101604052809291908181526020018280546116d1906132a4565b801561171e5780601f106116f35761010080835404028352916020019161171e565b820191906000526020600020905b81548152906001019060200180831161170157829003601f168201915b505050505090806002015490806003018054611739906132a4565b80601f0160208091040260200160405190810160405280929190818152602001828054611765906132a4565b80156117b25780601f10611787576101008083540402835291602001916117b2565b820191906000526020600020905b81548152906001019060200180831161179557829003601f168201915b5050505050905084565b600054610100900460ff16158080156117dc5750600054600160ff909116105b806117f65750303b1580156117f6575060005460ff166001145b6118595760405162461bcd60e51b815260206004820152602e60248201527f496e697469616c697a61626c653a20636f6e747261637420697320616c72656160448201526d191e481a5b9a5d1a585b1a5e995960921b606482015260840161097c565b6000805460ff19166001179055801561187c576000805461ff0019166101001790555b6118846122b6565b6118ce6040518060400160405280600d81526020016c15185b195b9d13185e595c9251609a1b8152506040518060400160405280600381526020016215125160ea1b8152506122e5565b6118d6612316565b61012e80546001600160a01b0319166001600160a01b038416179055610132805460010190558015610eeb576000805461ff0019169055604051600181527f7f26b83ff96e1f2b6a682f133852f6798a09c465da95921460cefb384740249890602001610b1d565b60606108488261233d565b60006108488261102b565b61197f6040518060800160405280600081526020016060815260200160008152602001606081525090565b6000828152609a60205260409020546001600160a01b03166119f15760405162461bcd60e51b815260206004820152602560248201527f54616c656e744c6179657249443a2050726f66696c6520646f6573206e6f7420604482015264195e1a5cdd60da1b606482015260840161097c565b610130600083815260200190815260200160002060405180608001604052908160008201548152602001600182018054611a2a906132a4565b80601f0160208091040260200160405190810160405280929190818152602001828054611a56906132a4565b8015611aa35780601f10611a7857610100808354040283529160200191611aa3565b820191906000526020600020905b815481529060010190602001808311611a8657829003601f168201915b5050505050815260200160028201548152602001600382018054611ac6906132a4565b80601f0160208091040260200160405190810160405280929190818152602001828054611af2906132a4565b8015611b3f5780601f10611b1457610100808354040283529160200191611b3f565b820191906000526020600020905b815481529060010190602001808311611b2257829003601f168201915b5050505050815250509050919050565b81611b5c81610419611d88565b611ba05760405162461bcd60e51b81526020600482015260156024820152744e6f74206f776e6572206f722064656c656761746560581b604482015260640161097c565b6000825111611bf15760405162461bcd60e51b815260206004820152601f60248201527f53686f756c642070726f7669646520612076616c696420495046532055524900604482015260640161097c565b6000838152610130602090815260409091208351611c1792600390920191850190612d86565b50827f613807bd6768f626264e7eb664a65ca99a0d930f8fd8a5b868491a592eb57f7283604051611c489190612eaa565b60405180910390a2505050565b611c5d611e00565b6001600160a01b038116611cc25760405162461bcd60e51b815260206004820152602660248201527f4f776e61626c653a206e6577206f776e657220697320746865207a65726f206160448201526564647265737360d01b606482015260840161097c565b610cbd81611ffb565b600081118015611cdd57506101325481105b610cbd5760405162461bcd60e51b815260206004820152601f60248201527f596f7572204944206973206e6f7420612076616c696420746f6b656e20494400604482015260640161097c565b6000818152609a60205260409020546001600160a01b0316610cbd5760405162461bcd60e51b8152602060048201526018602482015277115490cdcc8c4e881a5b9d985b1a59081d1bdad95b88125160421b604482015260640161097c565b6000610a47612468565b6000818152609c6020526040902080546001600160a01b0319166001600160a01b0384169081179091558190611dc782610fcb565b6001600160a01b03167f8c5be1e5ebec7d5bd14f71427d1e84f3dd0314c0f7b2291e5b200ac8c7c3b92560405160405180910390a45050565b611e08611d88565b6001600160a01b0316611e236033546001600160a01b031690565b6001600160a01b0316146111955760405162461bcd60e51b815260206004820181905260248201527f4f776e61626c653a2063616c6c6572206973206e6f7420746865206f776e6572604482015260640161097c565b610cbd611e00565b7f4910fdfa16fed3260ed0e7147f7cc6da11a60208b5b9406d12a635614ffd91435460ff1615611eb4576103d9836124a1565b826001600160a01b03166352d1902d6040518163ffffffff1660e01b815260040160206040518083038186803b158015611eed57600080fd5b505afa925050508015611f1d575060408051601f3d908101601f19168201909252611f1a918101906133f7565b60015b611f805760405162461bcd60e51b815260206004820152602e60248201527f45524331393637557067726164653a206e657720696d706c656d656e7461746960448201526d6f6e206973206e6f74205555505360901b606482015260840161097c565b600080516020614f8e8339815191528114611fef5760405162461bcd60e51b815260206004820152602960248201527f45524331393637557067726164653a20756e737570706f727465642070726f786044820152681a58589b195555525160ba1b606482015260840161097c565b506103d983838361253d565b603380546001600160a01b038381166001600160a01b0319831681179093556040519116919082907f8be0079c531659141344cd1fd0a4f28419497f9722a3daafe3b4186f6b6457e090600090a35050565b610eeb828260405180602001604052806000815250612562565b60006120736101325490565b905061208461013280546001019055565b60008181526101306020908152604090912060028101859055855190916120b2916001840191880190612d86565b50600161012f866040516120c691906133db565b908152604051908190036020018120805492151560ff19909316929092179091556001600160a01b038716907f8475f1ba3b06c1e11c870cbbf9753ca9a8292ea0b203262f682de476dc268f8c90612125908590899089908990613410565b60405180910390a2505050505050565b816001600160a01b0316836001600160a01b031614156121975760405162461bcd60e51b815260206004820152601960248201527f4552433732313a20617070726f766520746f2063616c6c657200000000000000604482015260640161097c565b6001600160a01b038381166000818152609d6020908152604080832094871680845294825291829020805460ff191686151590811790915591519182527f17307eab39ab6107e8899845ad3d59bd9653f200f220920489ca2b5937696c31910160405180910390a3505050565b60008061221083610fcb565b9050806001600160a01b0316846001600160a01b0316148061225757506001600160a01b038082166000908152609d602090815260408083209388168352929052205460ff165b8061227b5750836001600160a01b0316612270846108e0565b6001600160a01b0316145b949350505050565b61228e848484612595565b61229a84848484612706565b61167c5760405162461bcd60e51b815260040161097c9061343c565b600054610100900460ff166122dd5760405162461bcd60e51b815260040161097c9061348e565b61119561281a565b600054610100900460ff1661230c5760405162461bcd60e51b815260040161097c9061348e565b610eeb8282612851565b600054610100900460ff166111955760405162461bcd60e51b815260040161097c9061348e565b6000818152610130602052604081206001018054606092919061235f906132a4565b80601f016020809104026020016040519081016040528092919081815260200182805461238b906132a4565b80156123d85780601f106123ad576101008083540402835291602001916123d8565b820191906000526020600020905b8154815290600101906020018083116123bb57829003601f168201915b505050505090506000612409826040516020016123f591906134d9565b60405160208183030381529060405261289f565b6040516020016124199190614d78565b604051602081830303815290604052905061244082826040516020016123f5929190614dbd565b6040516020016124509190614e50565b60405160208183030381529060405292505050919050565b60006014361080159061248a57503360009081526065602052604090205460ff165b1561249c575060131936013560601c90565b503390565b6001600160a01b0381163b61250e5760405162461bcd60e51b815260206004820152602d60248201527f455243313936373a206e657720696d706c656d656e746174696f6e206973206e60448201526c1bdd08184818dbdb9d1c9858dd609a1b606482015260840161097c565b600080516020614f8e83398151915280546001600160a01b0319166001600160a01b0392909216919091179055565b612546836129f3565b6000825111806125535750805b156103d95761167c8383612a33565b61256c8383612b27565b6125796000848484612706565b6103d95760405162461bcd60e51b815260040161097c9061343c565b826001600160a01b03166125a882610fcb565b6001600160a01b0316146125ce5760405162461bcd60e51b815260040161097c90614e95565b6001600160a01b0382166126305760405162461bcd60e51b8152602060048201526024808201527f4552433732313a207472616e7366657220746f20746865207a65726f206164646044820152637265737360e01b606482015260840161097c565b61263d8383836001612cc0565b826001600160a01b031661265082610fcb565b6001600160a01b0316146126765760405162461bcd60e51b815260040161097c90614e95565b6000818152609c6020908152604080832080546001600160a01b03199081169091556001600160a01b03878116808652609b8552838620805460001901905590871680865283862080546001019055868652609a90945282852080549092168417909155905184937fddf252ad1be2c89b69c2b068fc378daa952ba7f163c4a11628f55a4df523b3ef91a4505050565b60006001600160a01b0384163b1561280f57836001600160a01b031663150b7a0261272f611d88565b8786866040518563ffffffff1660e01b81526004016127519493929190614eda565b602060405180830381600087803b15801561276b57600080fd5b505af192505050801561279b575060408051601f3d908101601f1916820190925261279891810190614f17565b60015b6127f5573d8080156127c9576040519150601f19603f3d011682016040523d82523d6000602084013e6127ce565b606091505b5080516127ed5760405162461bcd60e51b815260040161097c9061343c565b805181602001fd5b6001600160e01b031916630a85bd0160e11b14905061227b565b506001949350505050565b600054610100900460ff166128415760405162461bcd60e51b815260040161097c9061348e565b61119561284c611d88565b611ffb565b600054610100900460ff166128785760405162461bcd60e51b815260040161097c9061348e565b815161288b906098906020850190612d86565b5080516103d9906099906020840190612d86565b60608151600014156128bf57505060408051602081019091526000815290565b6000604051806060016040528060408152602001614fae60409139905060006003845160026128ee9190614f34565b6128f89190614f4c565b612903906004614f6e565b67ffffffffffffffff81111561291b5761291b612f48565b6040519080825280601f01601f191660200182016040528015612945576020820181803683370190505b509050600182016020820185865187015b808210156129b1576003820191508151603f8160121c168501518453600184019350603f81600c1c168501518453600184019350603f8160061c168501518453600184019350603f8116850151845350600183019250612956565b50506003865106600181146129cd57600281146129e0576129e8565b603d6001830353603d60028303536129e8565b603d60018303535b509195945050505050565b6129fc816124a1565b6040516001600160a01b038216907fbc7cd75a20ee27fd9adebab32041f755214dbc6bffa90cc0225b39da2e5c2d3b90600090a250565b60606001600160a01b0383163b612a9b5760405162461bcd60e51b815260206004820152602660248201527f416464726573733a2064656c65676174652063616c6c20746f206e6f6e2d636f6044820152651b9d1c9858dd60d21b606482015260840161097c565b600080846001600160a01b031684604051612ab691906133db565b600060405180830381855af49150503d8060008114612af1576040519150601f19603f3d011682016040523d82523d6000602084013e612af6565b606091505b5091509150612b1e8282604051806060016040528060278152602001614fee60279139612d48565b95945050505050565b6001600160a01b038216612b7d5760405162461bcd60e51b815260206004820181905260248201527f4552433732313a206d696e7420746f20746865207a65726f2061646472657373604482015260640161097c565b6000818152609a60205260409020546001600160a01b031615612be25760405162461bcd60e51b815260206004820152601c60248201527f4552433732313a20746f6b656e20616c7265616479206d696e74656400000000604482015260640161097c565b612bf0600083836001612cc0565b6000818152609a60205260409020546001600160a01b031615612c555760405162461bcd60e51b815260206004820152601c60248201527f4552433732313a20746f6b656e20616c7265616479206d696e74656400000000604482015260640161097c565b6001600160a01b0382166000818152609b6020908152604080832080546001019055848352609a90915280822080546001600160a01b0319168417905551839291907fddf252ad1be2c89b69c2b068fc378daa952ba7f163c4a11628f55a4df523b3ef908290a45050565b600181111561167c576001600160a01b03841615612d06576001600160a01b0384166000908152609b602052604081208054839290612d009084906132f5565b90915550505b6001600160a01b0383161561167c576001600160a01b0383166000908152609b602052604081208054839290612d3d908490614f34565b909155505050505050565b60608315612d57575081610bd9565b610bd98383815115612d6c5781518083602001fd5b8060405162461bcd60e51b815260040161097c9190612eaa565b828054612d92906132a4565b90600052602060002090601f016020900481019282612db45760008555612dfa565b82601f10612dcd57805160ff1916838001178555612dfa565b82800160010185558215612dfa579182015b82811115612dfa578251825591602001919060010190612ddf565b50612e06929150612e0a565b5090565b5b80821115612e065760008155600101612e0b565b6001600160e01b031981168114610cbd57600080fd5b600060208284031215612e4757600080fd5b8135610bd981612e1f565b60005b83811015612e6d578181015183820152602001612e55565b8381111561167c5750506000910152565b60008151808452612e96816020860160208601612e52565b601f01601f19169290920160200192915050565b602081526000610bd96020830184612e7e565b600060208284031215612ecf57600080fd5b5035919050565b80356001600160a01b0381168114612eed57600080fd5b919050565b60008060408385031215612f0557600080fd5b612f0e83612ed6565b946020939093013593505050565b60008060408385031215612f2f57600080fd5b82359150612f3f60208401612ed6565b90509250929050565b634e487b7160e01b600052604160045260246000fd5b600082601f830112612f6f57600080fd5b813567ffffffffffffffff80821115612f8a57612f8a612f48565b604051601f8301601f19908116603f01168101908282118183101715612fb257612fb2612f48565b81604052838152866020858801011115612fcb57600080fd5b836020870160208301376000602085830101528094505050505092915050565b600060208284031215612ffd57600080fd5b813567ffffffffffffffff81111561301457600080fd5b61227b84828501612f5e565b60008060006060848603121561303557600080fd5b61303e84612ed6565b925061304c60208501612ed6565b9150604084013590509250925092565b60006020828403121561306e57600080fd5b610bd982612ed6565b6000806040838503121561308a57600080fd5b61309383612ed6565b9150602083013567ffffffffffffffff8111156130af57600080fd5b6130bb85828601612f5e565b9150509250929050565b600080604083850312156130d857600080fd5b82359150602083013567ffffffffffffffff8111156130af57600080fd5b60008060006060848603121561310b57600080fd5b8335925061311b60208501612ed6565b9150604084013567ffffffffffffffff81111561313757600080fd5b61314386828701612f5e565b9150509250925092565b6000806040838503121561316057600080fd5b61316983612ed6565b91506020830135801515811461317e57600080fd5b809150509250929050565b6000806000806080858703121561319f57600080fd5b6131a885612ed6565b93506131b660208601612ed6565b925060408501359150606085013567ffffffffffffffff8111156131d957600080fd5b6131e587828801612f5e565b91505092959194509250565b84815260806020820152600061320a6080830186612e7e565b84604084015282810360608401526132228185612e7e565b979650505050505050565b6000806040838503121561324057600080fd5b61324983612ed6565b9150612f3f60208401612ed6565b6020815281516020820152600060208301516080604084015261327d60a0840182612e7e565b9050604084015160608401526060840151601f19848303016080850152612b1e8282612e7e565b600181811c908216806132b857607f821691505b602082108114156132d957634e487b7160e01b600052602260045260246000fd5b50919050565b634e487b7160e01b600052601160045260246000fd5b600082821015613307576133076132df565b500390565b6020808252602c908201527f46756e6374696f6e206d7573742062652063616c6c6564207468726f7567682060408201526b19195b1959d85d1958d85b1b60a21b606082015260800190565b6020808252602c908201527f46756e6374696f6e206d7573742062652063616c6c6564207468726f7567682060408201526b6163746976652070726f787960a01b606082015260800190565b60006000198214156133b8576133b86132df565b5060010190565b600081516133d1818560208601612e52565b9290920192915050565b600082516133ed818460208701612e52565b9190910192915050565b60006020828403121561340957600080fd5b5051919050565b8481526080602082015260006134296080830186612e7e565b6040830194909452506060015292915050565b60208082526032908201527f4552433732313a207472616e7366657220746f206e6f6e20455243373231526560408201527131b2b4bb32b91034b6b83632b6b2b73a32b960711b606082015260800190565b6020808252602b908201527f496e697469616c697a61626c653a20636f6e7472616374206973206e6f74206960408201526a6e697469616c697a696e6760a81b606082015260800190565b7f3c73766720786d6c6e733d22687474703a2f2f7777772e77332e6f72672f323081527f30302f737667222076696577426f783d223020302037323020373230223e3c6460208201527f6566733e3c6c696e6561724772616469656e742069643d2261222078313d223660408201527f372e3934222079313d223136392e3438222078323d223637302e39382220793260608201527f3d223536322e383622206772616469656e74556e6974733d227573657253706160808201527f63654f6e557365223e3c73746f70206f66667365743d2230222073746f702d6360a08201527f6f6c6f723d2223313761396332222f3e3c73746f70206f66667365743d222e3160c08201527f32222073746f702d636f6c6f723d2223316161396263222f3e3c73746f70206f60e08201527f66667365743d222e3239222073746f702d636f6c6f723d2223323561626162226101008201527f2f3e3c73746f70206f66667365743d222e3438222073746f702d636f6c6f723d6101208201527f2223333561643866222f3e3c73746f70206f66667365743d222e3634222073746101408201527f6f702d636f6c6f723d2223343862303732222f3e3c73746f70206f66667365746101608201527f3d222e3738222073746f702d636f6c6f723d2223353962323534222f3e3c73746101808201527f6f70206f66667365743d2231222073746f702d636f6c6f723d222337616237326101a08201527f30222f3e3c2f6c696e6561724772616469656e743e3c2f646566733e3c7061746101c08201527f68207374796c653d2266696c6c3a75726c282361292220643d224d30203068376101e08201527f32307637323048307a222f3e3c7061746820643d224d34372e30352039322e336102008201527f375635332e38344833332e32395634366833362e383576372e38344835362e346102208201527f317633382e3532682d392e33365a6d33352e37312d32332e33342d382e30372d6102408201527f312e3436632e39312d332e323520322e34372d352e363520342e36382d372e326102608201527f3120322e32312d312e353620352e352d322e333420392e38372d322e333420336102808201527f2e3936203020362e39322e343720382e383620312e343120312e39342e3934206102a08201527f332e333120322e313320342e3120332e353773312e313920342e3120312e31396102c08201527f20372e39366c2d2e312031302e3337633020322e39352e313420352e31332e346102e08201527f3320362e35332e323820312e342e383220322e393120312e3620342e3531682d6103008201527f382e3739632d2e32332d2e35392d2e35322d312e34372d2e38352d322e36332d6103208201527f2e31352d2e35332d2e32352d2e38382d2e33322d312e30342d312e353220312e6103408201527f34382d332e313420322e35382d342e383720332e3332732d332e353720312e316103608201527f312d352e353420312e3131632d332e343620302d362e31382d2e39342d382e316103808201527f382d322e38322d312e39392d312e38382d322e39392d342e32352d322e39392d6103a08201527f372e313220302d312e392e34352d332e353920312e33362d352e303873322e316103c08201527f382d322e363320332e38312d332e343220332e39392d312e343820372e30372d6103e08201527f322e303763342e31352d2e373820372e30332d312e353120382e36332d322e316104008201527f38762d2e383963302d312e37312d2e34322d322e39332d312e32372d332e36356104208201527f732d322e34342d312e30392d342e37382d312e3039632d312e353820302d322e6104408201527f38322e33312d332e372e39332d2e38392e36322d312e3620312e37312d322e316104608201527f3520332e32375a6d31312e383920372e3231632d312e31342e33382d322e39346104808201527f2e38332d352e343120312e33362d322e34372e35332d342e303820312e30342d6104a08201527f342e383420312e35352d312e31362e38322d312e373420312e38372d312e37346104c08201527f20332e3133732e343620322e333220312e333920332e3233632e39332e3931206104e08201527f322e313120312e333620332e353420312e333620312e36203020332e31332d2e6105008201527f353320342e35392d312e353820312e30382d2e3820312e37382d312e373820326105208201527f2e31322d322e39342e32332d2e37362e33352d322e322e33352d342e3333762d6105408201527f312e37375a6d31372e34392031362e313356343668382e38397634362e3337686105608201527f2d382e38395a6d33372e34352d31302e363920382e383620312e3439632d312e6105808201527f313420332e32352d322e393420352e37322d352e333920372e3432732d352e356105a08201527f3320322e35352d392e323220322e3535632d352e383420302d31302e31362d316105c08201527f2e39312d31322e39372d352e37322d322e32312d332e30362d332e33322d362e6105e08201527f39322d332e33322d31312e353820302d352e353720312e34362d392e393320346106008201527f2e33362d31332e303820322e39312d332e313520362e35392d342e37332031316106208201527f2e30342d342e37332035203020382e393420312e36352031312e383320342e396106408201527f3573342e323720382e333620342e31342031352e3137682d32322e3237632e306106608201527f3620322e36342e373820342e363920322e313520362e313520312e333720312e6106808201527f343720332e303820322e3220352e313220322e3220312e3339203020322e35366106a08201527f2d2e333820332e35312d312e31342e39352d2e373620312e36372d312e3938206106c08201527f322e31352d332e36375a6d2e35312d382e3938632d2e30362d322e35372d2e376106e08201527f332d342e35332d312e39392d352e38372d312e32372d312e33342d322e38312d6107008201527f322e30312d342e36322d322e30312d312e393420302d332e35342e37312d342e6107208201527f383120322e31322d312e323720312e34312d312e383920332e33332d312e38376107408201527f20352e37366831332e32385a6d34362e36322031392e3637682d382e383956376107608201527f352e323363302d332e36332d2e31392d352e39372d2e35372d372e30342d2e336107808201527f382d312e30362d312d312e38392d312e38352d322e3438732d312e38382d2e386107a08201527f392d332e30382d2e3839632d312e353420302d322e39322e34322d342e3134206107c08201527f312e3237732d322e303620312e39362d322e353120332e3335632d2e343520316107e08201527f2e33392d2e363820332e39362d2e363820372e37327631352e3231682d382e386108008201527f395635382e373868382e323676342e393363322e39332d332e3820362e36322d6108208201527f352e36392031312e30372d352e363920312e3936203020332e37352e333520356108408201527f2e333820312e303620312e36322e373120322e383520312e363120332e3638206108608201527f322e372e383320312e3120312e343120322e333420312e373420332e3733732e6108808201527f343920332e33382e343920352e39387632302e38385a6d32342e34322d33332e6108a08201527f353976372e3038682d362e30375637392e34633020322e37342e303620342e336108c08201527f342e313720342e37392e31322e34352e33382e38332e373920312e31322e34316108e08201527f2e332e39312e343420312e352e34342e3832203020322e30312d2e323820332e6109008201527f35372d2e38356c2e373620362e39632d322e30372e38392d342e343120312e336109208201527f332d372e303220312e33332d312e3620302d332e30352d2e32372d342e33332d6109408201527f2e38312d312e32392d2e35342d322e32332d312e32332d322e38332d322e30396109608201527f2d2e362d2e38352d312e30322d322e30312d312e32352d332e34362d2e31392d6109808201527f312e30332d2e32382d332e31322d2e32382d362e32365636352e3836682d342e6109a08201527f3038762d372e303868342e3038762d362e36376c382e39322d352e31397631316109c08201527f2e383668362e30375a6d362e32362033332e353956343668362e31347634302e6109e08201527f396832322e383476352e3437682d32382e39375a6d35372e34372d342e313463610a008201527f2d322e313120312e37392d342e313420332e30362d362e303920332e382d312e610a208201527f39352e37342d342e303420312e31312d362e323820312e31312d332e36392030610a408201527f2d362e35332d2e392d382e35312d322e372d312e39382d312e382d322e39372d610a608201527f342e31312d322e39372d362e393120302d312e36342e33372d332e313520312e610a808201527f31322d342e353173312e37332d322e343520322e39342d332e323763312e3231610aa08201527f2d2e383220322e35382d312e343420342e312d312e383720312e31322d2e3320610ac08201527f322e382d2e353820352e30362d2e383520342e362d2e353520372e39382d312e610ae08201527f322031302e31352d312e39362e30322d2e37382e30332d312e32382e30332d31610b008201527f2e343920302d322e33322d2e35342d332e39352d312e36312d342e392d312e34610b208201527f362d312e32392d332e36322d312e39332d362e34382d312e39332d322e363820610b408201527f302d342e36352e34372d352e393320312e3431732d322e323220322e362d322e610b608201527f383320342e39386c2d352e35372d2e3736632e35312d322e333820312e33342d610b808201527f342e333120322e352d352e373720312e31362d312e343720322e38342d322e35610ba08201527f3920352e30332d332e333820322e31392d2e373920342e37332d312e31392037610bc08201527f2e36322d312e313973352e322e333420362e393920312e303163312e37392e36610be08201527f3820332e313120312e353220332e393520322e35352e383420312e303220312e610c008201527f343320322e333120312e373720332e38382e31392e39372e323820322e37322e610c208201527f323820352e323576372e3539633020352e32392e313220382e36342e33362031610c408201527f302e30342e323420312e342e373220322e373520312e343420342e3033682d35610c608201527f2e3935632d2e35392d312e31382d2e39372d322e35362d312e31342d342e3134610c808201527f5a6d2d2e34372d31322e3732632d322e30372e38342d352e313720312e35362d610ca08201527f392e3320322e31352d322e33342e33342d34202e37322d342e393720312e3134610cc08201527f2d2e39372e34322d312e373220312e30342d322e323520312e3835732d2e3739610ce08201527f20312e37312d2e373920322e37633020312e35322e353720322e373820312e37610d008201527f3220332e3820312e313520312e303120322e383320312e353220352e30352031610d208201527f2e353273342e31342d2e343820352e38352d312e343420322e39362d322e3237610d408201527f20332e37362d332e3934632e36312d312e32392e39322d332e31382e39322d35610d608201527f2e3639762d322e30395a6d31342e33332032392e382d2e36332d352e33356331610d808201527f2e32342e333420322e33332e353120332e32362e353120312e3237203020322e610da08201527f32382d2e323120332e30342d2e363373312e33382d312e303120312e38372d31610dc08201527f2e3737632e33362d2e35372e39342d312e393820312e37342d342e32342e3131610de08201527f2d2e33322e32372d2e37382e35312d312e33396c2d31322e37352d33332e3635610e008201527f68362e31346c362e39392031392e3435632e393120322e343720312e37322035610e208201527f2e303620322e343420372e37382e36352d322e363120312e34332d352e313720610e408201527f322e33342d372e36356c372e31382d31392e353868352e36396c2d31322e3738610e608201527f2033342e3136632d312e333720332e36392d322e343420362e32332d332e3139610e808201527f20372e36322d312e303120312e38382d322e313720332e32352d332e34382034610ea08201527f2e31332d312e33312e38382d322e383720312e33312d342e363820312e33312d610ec08201527f312e3120302d322e33322d2e32332d332e36372d2e375a6d35352e36332d3233610ee08201527f2e373620352e38382e3733632d2e393320332e34342d322e363520362e312d35610f008201527f2e313620382d322e353120312e392d352e373120322e38352d392e363220322e610f208201527f38352d342e393120302d382e38312d312e35312d31312e36392d342e35342d32610f408201527f2e38382d332e30332d342e33322d372e32372d342e33322d31322e373373312e610f608201527f34362d31302e303420342e33362d31332e313663322e39312d332e313220362e610f808201527f36382d342e36382031312e33322d342e363873382e313620312e35332031312e610fa08201527f303120342e353963322e383520332e303620342e323720372e333620342e3237610fc08201527f2031322e39312030202e33342d2e30312e38342d2e303320312e3532682d3235610fe08201527f2e3035632e323120332e363920312e323520362e353220332e313320382e34386110008201527f20312e383820312e393620342e323220322e393420372e303220322e393420326110208201527f2e3039203020332e38372d2e353520352e33352d312e363420312e34382d312e6110408201527f3120322e36352d322e383520332e35312d352e32355a6d2d31382e36392d392e6110608201527f326831382e3736632d2e32352d322e38332d2e39372d342e39342d322e31352d6110808201527f362e33362d312e38312d322e31392d342e31372d332e32392d372e30352d332e6110a08201527f32392d322e363120302d342e38312e38382d362e3620322e3633732d322e37376110c08201527f20342e30392d322e393620372e30325a6d33312e36362032302e30325635382e6110e08201527f373868352e313276352e303963312e33312d322e333820322e35312d332e39356111008201527f20332e36322d342e373173322e33322d312e313420332e36352d312e313463316111208201527f2e3932203020332e38372e363120352e383520312e38336c2d312e393620352e6111408201527f3238632d312e33392d2e38322d322e37382d312e32332d342e31382d312e32336111608201527f2d312e323420302d322e33362e33372d332e333520312e31322d2e39392e37356111808201527f2d312e3720312e37392d322e313220332e31322d2e363320322e30322d2e39356111a08201527f20342e32342d2e393520362e36347631372e3539682d352e36395a6d32312e376111c08201527f39203056343668392e33367634362e3337682d392e33365a4d3430372e3337206111e08201527f34366831372e313163332e3836203020362e382e3320382e38332e383920322e6112008201527f37322e3820352e303520322e323220362e393920342e323720312e393420322e6112208201527f303520332e343220342e353520342e343320372e353120312e303120322e39366112408201527f20312e353220362e363220312e35322031302e3936203020332e38322d2e34376112608201527f20372e31312d312e343220392e38372d312e313620332e33372d322e383220366112808201527f2e312d342e393720382e31392d312e363220312e35382d332e383220322e38326112a08201527f2d362e353820332e372d322e30372e36352d342e38332e39382d382e32392e396112c08201527f38682d31372e36325634365a6d392e333620372e38347633302e373168362e396112e08201527f3963322e3631203020342e352d2e313520352e36362d2e343420312e35322d2e6113008201527f333820322e37382d312e303220332e37382d312e393320312d2e393120312e386113208201527f322d322e3420322e34352d342e34382e36332d322e30382e39352d342e39312e6113408201527f39352d382e3439732d2e33322d362e33342d2e39352d382e32362d312e35322d6113608201527f332e34322d322e36362d342e34392d322e35382d312e382d342e33332d322e316113808201527f38632d312e33312d2e332d332e38372d2e34342d372e36392d2e3434682d342e6113a08201527f32315a22207374796c653d2266696c6c3a23666666222f3e3c7465787420793d6113c08201527f223637302220783d22333022207374796c653d22666f6e743a373070782073616113e082015273373996b9b2b934b31db334b6361d11b33333111f60611b6114008201526000610bd9614d5f6114148401856133bf565b6c1e17ba32bc3a1f1e17b9bb339f60991b8152600d0190565b7f646174613a696d6167652f7376672b786d6c3b6261736536342c000000000000815260008251614db081601a850160208701612e52565b91909101601a0192915050565b683d913730b6b2911d1160b91b81528251600090614de2816009850160208801612e52565b6b1116101134b6b0b3b2911d1160a11b6009918401918201528351614e0e816015840160208801612e52565b7f222c20226465736372697074696f6e223a202254616c656e744c617965722049601592909101918201526244227d60e81b6035820152603801949350505050565b7f646174613a6170706c69636174696f6e2f6a736f6e3b6261736536342c000000815260008251614e8881601d850160208701612e52565b91909101601d0192915050565b60208082526025908201527f4552433732313a207472616e736665722066726f6d20696e636f72726563742060408201526437bbb732b960d91b606082015260800190565b6001600160a01b0385811682528416602082015260408101839052608060608201819052600090614f0d90830184612e7e565b9695505050505050565b600060208284031215614f2957600080fd5b8151610bd981612e1f565b60008219821115614f4757614f476132df565b500190565b600082614f6957634e487b7160e01b600052601260045260246000fd5b500490565b6000816000190483118215151615614f8857614f886132df565b50029056fe360894a13ba1a3210667c828492db98dca3e2076cc3735a920a3ca505d382bbc4142434445464748494a4b4c4d4e4f505152535455565758595a6162636465666768696a6b6c6d6e6f707172737475767778797a303132333435363738392b2f416464726573733a206c6f772d6c6576656c2064656c65676174652063616c6c206661696c6564a26469706673582212201c8d9bff962abe2786d134d61c65df8db5bd10beff48cc9aaf9dc347545471f464736f6c63430008090033",
  "linkReferences": {},
  "deployedLinkReferences": {}
}