{
  "_format": "hh-sol-artifact-1",
  "contractName": "TalentLayerService",
  "sourceName": "contracts/TalentLayerService.sol",
  "abi": [
    {
      "inputs": [],
      "stateMutability": "nonpayable",
      "type": "constructor"
    },
    {
      "anonymous": false,
      "inputs": [
        {
          "indexed": false,
          "internalType": "address",
          "name": "previousAdmin",
          "type": "address"
        },
        {
          "indexed": false,
          "internalType": "address",
          "name": "newAdmin",
          "type": "address"
        }
      ],
      "name": "AdminChanged",
      "type": "event"
    },
    {
      "anonymous": false,
      "inputs": [
        {
          "indexed": false,
          "internalType": "address",
          "name": "_tokenAddress",
          "type": "address"
        },
        {
          "indexed": false,
          "internalType": "bool",
          "name": "_status",
          "type": "bool"
        },
        {
          "indexed": false,
          "internalType": "uint256",
          "name": "_minimumTransactionAmount",
          "type": "uint256"
        }
      ],
      "name": "AllowedTokenListUpdated",
      "type": "event"
    },
    {
      "anonymous": false,
      "inputs": [
        {
          "indexed": true,
          "internalType": "address",
          "name": "beacon",
          "type": "address"
        }
      ],
      "name": "BeaconUpgraded",
      "type": "event"
    },
    {
      "anonymous": false,
      "inputs": [
        {
          "indexed": false,
          "internalType": "uint8",
          "name": "version",
          "type": "uint8"
        }
      ],
      "name": "Initialized",
      "type": "event"
    },
    {
      "anonymous": false,
      "inputs": [
        {
          "indexed": false,
          "internalType": "uint256",
          "name": "_minCompletionPercentage",
          "type": "uint256"
        }
      ],
      "name": "MinCompletionPercentageUpdated",
      "type": "event"
    },
    {
      "anonymous": false,
      "inputs": [
        {
          "indexed": true,
          "internalType": "address",
          "name": "previousOwner",
          "type": "address"
        },
        {
          "indexed": true,
          "internalType": "address",
          "name": "newOwner",
          "type": "address"
        }
      ],
      "name": "OwnershipTransferred",
      "type": "event"
    },
    {
      "anonymous": false,
      "inputs": [
        {
          "indexed": false,
          "internalType": "uint256",
          "name": "serviceId",
          "type": "uint256"
        },
        {
          "indexed": false,
          "internalType": "uint256",
          "name": "ownerId",
          "type": "uint256"
        },
        {
          "indexed": false,
          "internalType": "string",
          "name": "dataUri",
          "type": "string"
        },
        {
          "indexed": false,
          "internalType": "enum TalentLayerService.ProposalStatus",
          "name": "status",
          "type": "uint8"
        },
        {
          "indexed": false,
          "internalType": "address",
          "name": "rateToken",
          "type": "address"
        },
        {
          "indexed": false,
          "internalType": "uint256",
          "name": "rateAmount",
          "type": "uint256"
        },
        {
          "indexed": false,
          "internalType": "uint16",
          "name": "platformId",
          "type": "uint16"
        },
        {
          "indexed": false,
          "internalType": "uint256",
          "name": "expirationDate",
          "type": "uint256"
        }
      ],
      "name": "ProposalCreated",
      "type": "event"
    },
    {
      "anonymous": false,
      "inputs": [
        {
          "indexed": false,
          "internalType": "uint256",
          "name": "serviceId",
          "type": "uint256"
        },
        {
          "indexed": false,
          "internalType": "uint256",
          "name": "ownerId",
          "type": "uint256"
        },
        {
          "indexed": false,
          "internalType": "string",
          "name": "dataUri",
          "type": "string"
        },
        {
          "indexed": false,
          "internalType": "address",
          "name": "rateToken",
          "type": "address"
        },
        {
          "indexed": false,
          "internalType": "uint256",
          "name": "rateAmount",
          "type": "uint256"
        },
        {
          "indexed": false,
          "internalType": "uint256",
          "name": "_expirationDate",
          "type": "uint256"
        }
      ],
      "name": "ProposalUpdated",
      "type": "event"
    },
    {
      "anonymous": false,
      "inputs": [
        {
          "indexed": true,
          "internalType": "bytes32",
          "name": "role",
          "type": "bytes32"
        },
        {
          "indexed": true,
          "internalType": "bytes32",
          "name": "previousAdminRole",
          "type": "bytes32"
        },
        {
          "indexed": true,
          "internalType": "bytes32",
          "name": "newAdminRole",
          "type": "bytes32"
        }
      ],
      "name": "RoleAdminChanged",
      "type": "event"
    },
    {
      "anonymous": false,
      "inputs": [
        {
          "indexed": true,
          "internalType": "bytes32",
          "name": "role",
          "type": "bytes32"
        },
        {
          "indexed": true,
          "internalType": "address",
          "name": "account",
          "type": "address"
        },
        {
          "indexed": true,
          "internalType": "address",
          "name": "sender",
          "type": "address"
        }
      ],
      "name": "RoleGranted",
      "type": "event"
    },
    {
      "anonymous": false,
      "inputs": [
        {
          "indexed": true,
          "internalType": "bytes32",
          "name": "role",
          "type": "bytes32"
        },
        {
          "indexed": true,
          "internalType": "address",
          "name": "account",
          "type": "address"
        },
        {
          "indexed": true,
          "internalType": "address",
          "name": "sender",
          "type": "address"
        }
      ],
      "name": "RoleRevoked",
      "type": "event"
    },
    {
      "anonymous": false,
      "inputs": [
        {
          "indexed": false,
          "internalType": "uint256",
          "name": "id",
          "type": "uint256"
        }
      ],
      "name": "ServiceCancelled",
      "type": "event"
    },
    {
      "anonymous": false,
      "inputs": [
        {
          "indexed": false,
          "internalType": "uint256",
          "name": "id",
          "type": "uint256"
        },
        {
          "indexed": false,
          "internalType": "uint256",
          "name": "ownerId",
          "type": "uint256"
        },
        {
          "indexed": false,
          "internalType": "uint256",
          "name": "platformId",
          "type": "uint256"
        },
        {
          "indexed": false,
          "internalType": "string",
          "name": "dataUri",
          "type": "string"
        }
      ],
      "name": "ServiceCreated",
      "type": "event"
    },
    {
      "anonymous": false,
      "inputs": [
        {
          "indexed": true,
          "internalType": "uint256",
          "name": "id",
          "type": "uint256"
        },
        {
          "indexed": false,
          "internalType": "string",
          "name": "dataUri",
          "type": "string"
        }
      ],
      "name": "ServiceDetailedUpdated",
      "type": "event"
    },
    {
      "anonymous": false,
      "inputs": [
        {
          "indexed": false,
          "internalType": "address",
          "name": "forwarder",
          "type": "address"
        }
      ],
      "name": "TrustedForwarderAdded",
      "type": "event"
    },
    {
      "anonymous": false,
      "inputs": [
        {
          "indexed": false,
          "internalType": "address",
          "name": "forwarder",
          "type": "address"
        }
      ],
      "name": "TrustedForwarderRemoved",
      "type": "event"
    },
    {
      "anonymous": false,
      "inputs": [
        {
          "indexed": true,
          "internalType": "address",
          "name": "implementation",
          "type": "address"
        }
      ],
      "name": "Upgraded",
      "type": "event"
    },
    {
      "inputs": [],
      "name": "DEFAULT_ADMIN_ROLE",
      "outputs": [
        {
          "internalType": "bytes32",
          "name": "",
          "type": "bytes32"
        }
      ],
      "stateMutability": "view",
      "type": "function"
    },
    {
      "inputs": [],
      "name": "ESCROW_ROLE",
      "outputs": [
        {
          "internalType": "bytes32",
          "name": "",
          "type": "bytes32"
        }
      ],
      "stateMutability": "view",
      "type": "function"
    },
    {
      "inputs": [],
      "name": "OWNER_ROLE",
      "outputs": [
        {
          "internalType": "bytes32",
          "name": "",
          "type": "bytes32"
        }
      ],
      "stateMutability": "view",
      "type": "function"
    },
    {
      "inputs": [
        {
          "internalType": "address",
          "name": "_forwarder",
          "type": "address"
        }
      ],
      "name": "addTrustedForwarder",
      "outputs": [],
      "stateMutability": "nonpayable",
      "type": "function"
    },
    {
      "inputs": [
        {
          "internalType": "uint256",
          "name": "_serviceId",
          "type": "uint256"
        },
        {
          "internalType": "uint256",
          "name": "_proposalId",
          "type": "uint256"
        },
        {
          "internalType": "uint256",
          "name": "_transactionId",
          "type": "uint256"
        }
      ],
      "name": "afterDeposit",
      "outputs": [],
      "stateMutability": "nonpayable",
      "type": "function"
    },
    {
      "inputs": [
        {
          "internalType": "uint256",
          "name": "_serviceId",
          "type": "uint256"
        },
        {
          "internalType": "uint256",
          "name": "_releasedAmount",
          "type": "uint256"
        }
      ],
      "name": "afterFullPayment",
      "outputs": [],
      "stateMutability": "nonpayable",
      "type": "function"
    },
    {
      "inputs": [
        {
          "internalType": "address",
          "name": "",
          "type": "address"
        }
      ],
      "name": "allowedTokenList",
      "outputs": [
        {
          "internalType": "bool",
          "name": "isWhitelisted",
          "type": "bool"
        },
        {
          "internalType": "uint256",
          "name": "minimumTransactionAmount",
          "type": "uint256"
        }
      ],
      "stateMutability": "view",
      "type": "function"
    },
    {
      "inputs": [
        {
          "internalType": "uint256",
          "name": "_profileId",
          "type": "uint256"
        },
        {
          "internalType": "uint256",
          "name": "_serviceId",
          "type": "uint256"
        }
      ],
      "name": "cancelService",
      "outputs": [],
      "stateMutability": "nonpayable",
      "type": "function"
    },
    {
      "inputs": [
        {
          "internalType": "uint256",
          "name": "_profileId",
          "type": "uint256"
        },
        {
          "internalType": "uint256",
          "name": "_serviceId",
          "type": "uint256"
        },
        {
          "internalType": "address",
          "name": "_rateToken",
          "type": "address"
        },
        {
          "internalType": "uint256",
          "name": "_rateAmount",
          "type": "uint256"
        },
        {
          "internalType": "uint16",
          "name": "_platformId",
          "type": "uint16"
        },
        {
          "internalType": "string",
          "name": "_dataUri",
          "type": "string"
        },
        {
          "internalType": "uint256",
          "name": "_expirationDate",
          "type": "uint256"
        },
        {
          "internalType": "bytes",
          "name": "_signature",
          "type": "bytes"
        }
      ],
      "name": "createProposal",
      "outputs": [],
      "stateMutability": "payable",
      "type": "function"
    },
    {
      "inputs": [
        {
          "internalType": "uint256",
          "name": "_profileId",
          "type": "uint256"
        },
        {
          "internalType": "uint256",
          "name": "_platformId",
          "type": "uint256"
        },
        {
          "internalType": "string",
          "name": "_dataUri",
          "type": "string"
        },
        {
          "internalType": "bytes",
          "name": "_signature",
          "type": "bytes"
        }
      ],
      "name": "createService",
      "outputs": [
        {
          "internalType": "uint256",
          "name": "",
          "type": "uint256"
        }
      ],
      "stateMutability": "payable",
      "type": "function"
    },
    {
      "inputs": [
        {
          "internalType": "uint256",
          "name": "_serviceId",
          "type": "uint256"
        },
        {
          "internalType": "uint256",
          "name": "_proposalId",
          "type": "uint256"
        }
      ],
      "name": "getProposal",
      "outputs": [
        {
          "components": [
            {
              "internalType": "enum TalentLayerService.ProposalStatus",
              "name": "status",
              "type": "uint8"
            },
            {
              "internalType": "uint256",
              "name": "ownerId",
              "type": "uint256"
            },
            {
              "internalType": "address",
              "name": "rateToken",
              "type": "address"
            },
            {
              "internalType": "uint256",
              "name": "rateAmount",
              "type": "uint256"
            },
            {
              "internalType": "uint16",
              "name": "platformId",
              "type": "uint16"
            },
            {
              "internalType": "string",
              "name": "dataUri",
              "type": "string"
            },
            {
              "internalType": "uint256",
              "name": "expirationDate",
              "type": "uint256"
            }
          ],
          "internalType": "struct TalentLayerService.Proposal",
          "name": "",
          "type": "tuple"
        }
      ],
      "stateMutability": "view",
      "type": "function"
    },
    {
      "inputs": [
        {
          "internalType": "bytes32",
          "name": "role",
          "type": "bytes32"
        }
      ],
      "name": "getRoleAdmin",
      "outputs": [
        {
          "internalType": "bytes32",
          "name": "",
          "type": "bytes32"
        }
      ],
      "stateMutability": "view",
      "type": "function"
    },
    {
      "inputs": [
        {
          "internalType": "uint256",
          "name": "_serviceId",
          "type": "uint256"
        }
      ],
      "name": "getService",
      "outputs": [
        {
          "components": [
            {
              "internalType": "enum TalentLayerService.Status",
              "name": "status",
              "type": "uint8"
            },
            {
              "internalType": "uint256",
              "name": "ownerId",
              "type": "uint256"
            },
            {
              "internalType": "uint256",
              "name": "acceptedProposalId",
              "type": "uint256"
            },
            {
              "internalType": "string",
              "name": "dataUri",
              "type": "string"
            },
            {
              "internalType": "uint256",
              "name": "transactionId",
              "type": "uint256"
            },
            {
              "internalType": "uint256",
              "name": "platformId",
              "type": "uint256"
            }
          ],
          "internalType": "struct TalentLayerService.Service",
          "name": "",
          "type": "tuple"
        }
      ],
      "stateMutability": "view",
      "type": "function"
    },
    {
      "inputs": [
        {
          "internalType": "bytes32",
          "name": "role",
          "type": "bytes32"
        },
        {
          "internalType": "address",
          "name": "account",
          "type": "address"
        }
      ],
      "name": "grantRole",
      "outputs": [],
      "stateMutability": "nonpayable",
      "type": "function"
    },
    {
      "inputs": [
        {
          "internalType": "bytes32",
          "name": "role",
          "type": "bytes32"
        },
        {
          "internalType": "address",
          "name": "account",
          "type": "address"
        }
      ],
      "name": "hasRole",
      "outputs": [
        {
          "internalType": "bool",
          "name": "",
          "type": "bool"
        }
      ],
      "stateMutability": "view",
      "type": "function"
    },
    {
      "inputs": [
        {
          "internalType": "address",
          "name": "_talentLayerIdAddress",
          "type": "address"
        },
        {
          "internalType": "address",
          "name": "_talentLayerPlatformIdAddress",
          "type": "address"
        }
      ],
      "name": "initialize",
      "outputs": [],
      "stateMutability": "nonpayable",
      "type": "function"
    },
    {
      "inputs": [
        {
          "internalType": "address",
          "name": "_tokenAddress",
          "type": "address"
        }
      ],
      "name": "isTokenAllowed",
      "outputs": [
        {
          "internalType": "bool",
          "name": "",
          "type": "bool"
        }
      ],
      "stateMutability": "view",
      "type": "function"
    },
    {
      "inputs": [
        {
          "internalType": "address",
          "name": "forwarder",
          "type": "address"
        }
      ],
      "name": "isTrustedForwarder",
      "outputs": [
        {
          "internalType": "bool",
          "name": "",
          "type": "bool"
        }
      ],
      "stateMutability": "view",
      "type": "function"
    },
    {
      "inputs": [],
      "name": "minCompletionPercentage",
      "outputs": [
        {
          "internalType": "uint256",
          "name": "",
          "type": "uint256"
        }
      ],
      "stateMutability": "view",
      "type": "function"
    },
    {
      "inputs": [],
      "name": "nextServiceId",
      "outputs": [
        {
          "internalType": "uint256",
          "name": "",
          "type": "uint256"
        }
      ],
      "stateMutability": "view",
      "type": "function"
    },
    {
      "inputs": [
        {
          "internalType": "uint256",
          "name": "",
          "type": "uint256"
        }
      ],
      "name": "nonce",
      "outputs": [
        {
          "internalType": "uint256",
          "name": "",
          "type": "uint256"
        }
      ],
      "stateMutability": "view",
      "type": "function"
    },
    {
      "inputs": [],
      "name": "owner",
      "outputs": [
        {
          "internalType": "address",
          "name": "",
          "type": "address"
        }
      ],
      "stateMutability": "view",
      "type": "function"
    },
    {
      "inputs": [
        {
          "internalType": "uint256",
          "name": "",
          "type": "uint256"
        },
        {
          "internalType": "uint256",
          "name": "",
          "type": "uint256"
        }
      ],
      "name": "proposals",
      "outputs": [
        {
          "internalType": "enum TalentLayerService.ProposalStatus",
          "name": "status",
          "type": "uint8"
        },
        {
          "internalType": "uint256",
          "name": "ownerId",
          "type": "uint256"
        },
        {
          "internalType": "address",
          "name": "rateToken",
          "type": "address"
        },
        {
          "internalType": "uint256",
          "name": "rateAmount",
          "type": "uint256"
        },
        {
          "internalType": "uint16",
          "name": "platformId",
          "type": "uint16"
        },
        {
          "internalType": "string",
          "name": "dataUri",
          "type": "string"
        },
        {
          "internalType": "uint256",
          "name": "expirationDate",
          "type": "uint256"
        }
      ],
      "stateMutability": "view",
      "type": "function"
    },
    {
      "inputs": [],
      "name": "proxiableUUID",
      "outputs": [
        {
          "internalType": "bytes32",
          "name": "",
          "type": "bytes32"
        }
      ],
      "stateMutability": "view",
      "type": "function"
    },
    {
      "inputs": [
        {
          "internalType": "address",
          "name": "_forwarder",
          "type": "address"
        }
      ],
      "name": "removeTrustedForwarder",
      "outputs": [],
      "stateMutability": "nonpayable",
      "type": "function"
    },
    {
      "inputs": [],
      "name": "renounceOwnership",
      "outputs": [],
      "stateMutability": "nonpayable",
      "type": "function"
    },
    {
      "inputs": [
        {
          "internalType": "bytes32",
          "name": "role",
          "type": "bytes32"
        },
        {
          "internalType": "address",
          "name": "account",
          "type": "address"
        }
      ],
      "name": "renounceRole",
      "outputs": [],
      "stateMutability": "nonpayable",
      "type": "function"
    },
    {
      "inputs": [
        {
          "internalType": "bytes32",
          "name": "role",
          "type": "bytes32"
        },
        {
          "internalType": "address",
          "name": "account",
          "type": "address"
        }
      ],
      "name": "revokeRole",
      "outputs": [],
      "stateMutability": "nonpayable",
      "type": "function"
    },
    {
      "inputs": [
        {
          "internalType": "uint256",
          "name": "",
          "type": "uint256"
        }
      ],
      "name": "services",
      "outputs": [
        {
          "internalType": "enum TalentLayerService.Status",
          "name": "status",
          "type": "uint8"
        },
        {
          "internalType": "uint256",
          "name": "ownerId",
          "type": "uint256"
        },
        {
          "internalType": "uint256",
          "name": "acceptedProposalId",
          "type": "uint256"
        },
        {
          "internalType": "string",
          "name": "dataUri",
          "type": "string"
        },
        {
          "internalType": "uint256",
          "name": "transactionId",
          "type": "uint256"
        },
        {
          "internalType": "uint256",
          "name": "platformId",
          "type": "uint256"
        }
      ],
      "stateMutability": "view",
      "type": "function"
    },
    {
      "inputs": [
        {
          "internalType": "bytes4",
          "name": "interfaceId",
          "type": "bytes4"
        }
      ],
      "name": "supportsInterface",
      "outputs": [
        {
          "internalType": "bool",
          "name": "",
          "type": "bool"
        }
      ],
      "stateMutability": "view",
      "type": "function"
    },
    {
      "inputs": [],
      "name": "talentLayerPlatformIdContract",
      "outputs": [
        {
          "internalType": "contract ITalentLayerPlatformID",
          "name": "",
          "type": "address"
        }
      ],
      "stateMutability": "view",
      "type": "function"
    },
    {
      "inputs": [
        {
          "internalType": "address",
          "name": "newOwner",
          "type": "address"
        }
      ],
      "name": "transferOwnership",
      "outputs": [],
      "stateMutability": "nonpayable",
      "type": "function"
    },
    {
      "inputs": [
        {
          "internalType": "address",
          "name": "_tokenAddress",
          "type": "address"
        },
        {
          "internalType": "bool",
          "name": "_status",
          "type": "bool"
        },
        {
          "internalType": "uint256",
          "name": "_minimumTransactionAmount",
          "type": "uint256"
        }
      ],
      "name": "updateAllowedTokenList",
      "outputs": [],
      "stateMutability": "nonpayable",
      "type": "function"
    },
    {
      "inputs": [
        {
          "internalType": "uint256",
          "name": "_minCompletionPercentage",
          "type": "uint256"
        }
      ],
      "name": "updateMinCompletionPercentage",
      "outputs": [],
      "stateMutability": "nonpayable",
      "type": "function"
    },
    {
      "inputs": [
        {
          "internalType": "uint256",
          "name": "_profileId",
          "type": "uint256"
        },
        {
          "internalType": "uint256",
          "name": "_serviceId",
          "type": "uint256"
        },
        {
          "internalType": "address",
          "name": "_rateToken",
          "type": "address"
        },
        {
          "internalType": "uint256",
          "name": "_rateAmount",
          "type": "uint256"
        },
        {
          "internalType": "string",
          "name": "_dataUri",
          "type": "string"
        },
        {
          "internalType": "uint256",
          "name": "_expirationDate",
          "type": "uint256"
        }
      ],
      "name": "updateProposal",
      "outputs": [],
      "stateMutability": "nonpayable",
      "type": "function"
    },
    {
      "inputs": [
        {
          "internalType": "uint256",
          "name": "_profileId",
          "type": "uint256"
        },
        {
          "internalType": "uint256",
          "name": "_serviceId",
          "type": "uint256"
        },
        {
          "internalType": "string",
          "name": "_dataUri",
          "type": "string"
        }
      ],
      "name": "updateServiceData",
      "outputs": [],
      "stateMutability": "nonpayable",
      "type": "function"
    },
    {
      "inputs": [
        {
          "internalType": "address",
          "name": "newImplementation",
          "type": "address"
        }
      ],
      "name": "upgradeTo",
      "outputs": [],
      "stateMutability": "nonpayable",
      "type": "function"
    },
    {
      "inputs": [
        {
          "internalType": "address",
          "name": "newImplementation",
          "type": "address"
        },
        {
          "internalType": "bytes",
          "name": "data",
          "type": "bytes"
        }
      ],
      "name": "upgradeToAndCall",
      "outputs": [],
      "stateMutability": "payable",
      "type": "function"
    }
  ],
  "bytecode": "0x60a0604052306080523480156200001557600080fd5b506200002062000026565b620000e8565b600054610100900460ff1615620000935760405162461bcd60e51b815260206004820152602760248201527f496e697469616c697a61626c653a20636f6e747261637420697320696e697469604482015266616c697a696e6760c81b606482015260840160405180910390fd5b60005460ff9081161015620000e6576000805460ff191660ff9081179091556040519081527f7f26b83ff96e1f2b6a682f133852f6798a09c465da95921460cefb38474024989060200160405180910390a15b565b608051613de36200012060003960008181610f1801528181610f580152818161120f0152818161124f01526112de0152613de36000f3fe6080604052600436106102255760003560e01c806371da85f911610123578063c2cfee27116100ab578063e58378bb1161006f578063e58378bb146106e4578063ef0e239b14610718578063f2fde38b14610745578063f6c53d9b14610765578063f9eaee0d1461077c57600080fd5b8063c2cfee2714610630578063c75858d514610663578063ce03fdab14610683578063d338ec9a146106b1578063d547741f146106c457600080fd5b8063a217fddf116100f2578063a217fddf1461057c578063a7d5eaea14610591578063aba21009146105b1578063b5735c1e146105de578063c22c4f43146105fe57600080fd5b806371da85f9146104cc5780637c5a72cd1461051e5780638da5cb5b1461053e57806391d148541461055c57600080fd5b806336568abe116101b15780634f1ef286116101755780634f1ef2861461042257806352d1902d14610435578063572b6c051461044a5780636ce76f3014610483578063715018a6146104b757600080fd5b806336568abe146103825780633659cfe6146103a25780633751d89c146103c25780633ca2ad6f146103e2578063485cc9551461040257600080fd5b8063156b39aa116101f8578063156b39aa146102da578063248a9ca3146102ff5780632579c1c61461032f57806326d00668146103425780632f2ff15d1461036257600080fd5b806301ffc9a71461022a578063089b7c731461025f5780630e066025146102815780631499f9e6146102a1575b600080fd5b34801561023657600080fd5b5061024a610245366004613071565b6107b6565b60405190151581526020015b60405180910390f35b34801561026b57600080fd5b5061027f61027a36600461309b565b6107ed565b005b34801561028d57600080fd5b5061027f61029c3660046130ff565b6109d2565b3480156102ad57600080fd5b50610130546102c2906001600160a01b031681565b6040516001600160a01b039091168152602001610256565b3480156102e657600080fd5b506102f16101355481565b604051908152602001610256565b34801561030b57600080fd5b506102f161031a366004613152565b600090815260fc602052604090206001015490565b61027f61033d366004613187565b610bc0565b34801561034e57600080fd5b5061027f61035d36600461324b565b610df3565b34801561036e57600080fd5b5061027f61037d366004613266565b610e56565b34801561038e57600080fd5b5061027f61039d366004613266565b610e80565b3480156103ae57600080fd5b5061027f6103bd36600461324b565b610f0e565b3480156103ce57600080fd5b5061027f6103dd36600461324b565b610fed565b3480156103ee57600080fd5b5061027f6103fd366004613152565b611046565b34801561040e57600080fd5b5061027f61041d366004613292565b61108e565b61027f6104303660046132d2565b611205565b34801561044157600080fd5b506102f16112d1565b34801561045657600080fd5b5061024a61046536600461324b565b6001600160a01b031660009081526065602052604090205460ff1690565b34801561048f57600080fd5b506102f17f2fdac322ee704ce09f0773f7f3f92eb98d5e7c836ee9c056cccd5f61041e5e3f81565b3480156104c357600080fd5b5061027f611384565b3480156104d857600080fd5b506105076104e736600461324b565b610134602052600090815260409020805460019091015460ff9091169082565b604080519215158352602083019190915201610256565b34801561052a57600080fd5b5061027f6105393660046133a2565b611398565b34801561054a57600080fd5b506033546001600160a01b03166102c2565b34801561056857600080fd5b5061024a610577366004613266565b61146d565b34801561058857600080fd5b506102f1600081565b34801561059d57600080fd5b5061027f6105ac3660046133e1565b611498565b3480156105bd57600080fd5b506105d16105cc36600461309b565b61151a565b6040516102569190613487565b3480156105ea57600080fd5b5061027f6105f936600461309b565b61167b565b34801561060a57600080fd5b5061061e610619366004613152565b611720565b6040516102569695949392919061350f565b34801561063c57600080fd5b5061065061064b36600461309b565b6117e4565b6040516102569796959493929190613550565b34801561066f57600080fd5b5061027f61067e3660046135a8565b6118ca565b34801561068f57600080fd5b506102f161069e366004613152565b6101336020526000908152604090205481565b6102f16106bf366004613622565b611c10565b3480156106d057600080fd5b5061027f6106df366004613266565b611d81565b3480156106f057600080fd5b506102f17fb19546dff01e856fb3f010c267a7b1c60363cf8a4664e21cc89c26224620214e81565b34801561072457600080fd5b50610738610733366004613152565b611da6565b60405161025691906136a5565b34801561075157600080fd5b5061027f61076036600461324b565b611f3a565b34801561077157600080fd5b506102f161012e5481565b34801561078857600080fd5b5061024a61079736600461324b565b6001600160a01b03166000908152610134602052604090205460ff1690565b60006001600160e01b03198216637965db0b60e01b14806107e757506301ffc9a760e01b6001600160e01b03198316145b92915050565b61012f5482906001600160a01b0316632fa117e58261080a611fb0565b6040516001600160e01b031960e085901b16815260048101929092526001600160a01b03166024820152604401602060405180830381865afa158015610854573d6000803e3d6000fd5b505050506040513d601f19601f820116820180604052508101906108789190613706565b61089d5760405162461bcd60e51b815260040161089490613723565b60405180910390fd5b6000828152610131602052604090206001810154841461090d5760405162461bcd60e51b815260206004820152602560248201527f4f6e6c7920746865206f776e65722063616e2063616e63656c20746865207365604482015264727669636560d81b6064820152608401610894565b6000815460ff1660048111156109255761092561340d565b1461098e5760405162461bcd60e51b815260206004820152603360248201527f4f6e6c79207365727669636573207769746820746865206f70656e20737461746044820152721d5cc818d85b8818994818d85b98d95b1b1959606a1b6064820152608401610894565b805460ff191660031781556040518381527f853aa4be1ac86f37acfc91d42b57f1fe895205aa6f8f9b7caa77ca257049ab1a9060200160405180910390a150505050565b61012f5484906001600160a01b0316632fa117e5826109ef611fb0565b6040516001600160e01b031960e085901b16815260048101929092526001600160a01b03166024820152604401602060405180830381865afa158015610a39573d6000803e3d6000fd5b505050506040513d601f19601f82011682018060405250810190610a5d9190613706565b610a795760405162461bcd60e51b815260040161089490613723565b60008481526101316020526040902060018101548614610ae95760405162461bcd60e51b815260206004820152602560248201527f4f6e6c7920746865206f776e65722063616e2075706461746520746865207365604482015264727669636560d81b6064820152608401610894565b6000815460ff166004811115610b0157610b0161340d565b14610b4e5760405162461bcd60e51b815260206004820152601f60248201527f53657276696365207374617475732073686f756c64206265206f70656e6564006044820152606401610894565b602e8314610b6e5760405162461bcd60e51b815260040161089490613752565b60038101610b7d8486836137f7565b50847f1cae99404f615a4039d85b1009cb70622aae6d64f671e8b1b191d9269847d43e8585604051610bb09291906138e1565b60405180910390a2505050505050565b61012f548a906001600160a01b0316632fa117e582610bdd611fb0565b6040516001600160e01b031960e085901b16815260048101929092526001600160a01b03166024820152604401602060405180830381865afa158015610c27573d6000803e3d6000fd5b505050506040513d601f19601f82011682018060405250810190610c4b9190613706565b610c675760405162461bcd60e51b815260040161089490613723565b610c788b8b8b8b8b8b8b8a8a611fbf565b6040805160e0810190915280600081526020018c81526020018a6001600160a01b031681526020018981526020018861ffff16815260200187878080601f016020809104026020016040519081016040528093929190818152602001838380828437600092018290525093855250505060209182018790528c8152610132825260408082208f83529092522081518154829060ff191660018381811115610d2157610d2161340d565b02179055506020820151600182015560408201516002820180546001600160a01b0319166001600160a01b0390921691909117905560608201516003820155608082015160048201805461ffff191661ffff90921691909117905560a08201516005820190610d9090826138fd565b5060c082015181600601559050507f1681c3e69e3dbb90d91fbd7df6e21e11a35daef0f91f6a6a0e2968999b5d100e8a8c888860008e8e8e8c604051610dde999897969594939291906139bd565b60405180910390a15050505050505050505050565b610dfb612308565b6001600160a01b038116600081815260656020908152604091829020805460ff1916600117905590519182527f3ef8564460ada92419608d823c014975d98f8104d7d1e68c222967ac6814cd9791015b60405180910390a150565b600082815260fc6020526040902060010154610e7181612381565b610e7b8383612392565b505050565b610e88611fb0565b6001600160a01b0316816001600160a01b031614610f005760405162461bcd60e51b815260206004820152602f60248201527f416363657373436f6e74726f6c3a2063616e206f6e6c792072656e6f756e636560448201526e103937b632b9903337b91039b2b63360891b6064820152608401610894565b610f0a8282612419565b5050565b6001600160a01b037f0000000000000000000000000000000000000000000000000000000000000000163003610f565760405162461bcd60e51b815260040161089490613a22565b7f00000000000000000000000000000000000000000000000000000000000000006001600160a01b0316610f9f600080516020613d67833981519152546001600160a01b031690565b6001600160a01b031614610fc55760405162461bcd60e51b815260040161089490613a6e565b610fce8161249e565b60408051600080825260208201909252610fea918391906124a6565b50565b610ff5612308565b6001600160a01b038116600081815260656020908152604091829020805460ff1916905590519182527fd2d636efcad0cea42e170256f4c5d8b1cd81e47b855557edaf44014e6cc4cee69101610e4b565b600061105181612381565b6101358290556040518281527f577d7afcf67637a2f602cba220bbb292c1d715380dd011bfec748c3f641b2fd29060200160405180910390a15050565b600054610100900460ff16158080156110ae5750600054600160ff909116105b806110c85750303b1580156110c8575060005460ff166001145b61112b5760405162461bcd60e51b815260206004820152602e60248201527f496e697469616c697a61626c653a20636f6e747261637420697320616c72656160448201526d191e481a5b9a5d1a585b1a5e995960921b6064820152608401610894565b6000805460ff19166001179055801561114e576000805461ff0019166101001790555b611156612611565b61115e612640565b611166612640565b6111786000611173611fb0565b612667565b61012f80546001600160a01b038086166001600160a01b031992831617909255610130805492851692909116919091179055600161012e556111ba601e611046565b8015610e7b576000805461ff0019169055604051600181527f7f26b83ff96e1f2b6a682f133852f6798a09c465da95921460cefb3847402498906020015b60405180910390a1505050565b6001600160a01b037f000000000000000000000000000000000000000000000000000000000000000016300361124d5760405162461bcd60e51b815260040161089490613a22565b7f00000000000000000000000000000000000000000000000000000000000000006001600160a01b0316611296600080516020613d67833981519152546001600160a01b031690565b6001600160a01b0316146112bc5760405162461bcd60e51b815260040161089490613a6e565b6112c58261249e565b610f0a828260016124a6565b6000306001600160a01b037f000000000000000000000000000000000000000000000000000000000000000016146113715760405162461bcd60e51b815260206004820152603860248201527f555550535570677261646561626c653a206d757374206e6f742062652063616c60448201527f6c6564207468726f7567682064656c656761746563616c6c00000000000000006064820152608401610894565b50600080516020613d6783398151915290565b61138c612308565b6113966000612671565b565b6113a0612308565b6001600160a01b0383161580156113b5575081155b156114025760405162461bcd60e51b815260206004820152601d60248201527f4f776e65722063616e27742072656d6f7665204f7820616464726573730000006044820152606401610894565b6001600160a01b03831660008181526101346020908152604091829020805460ff19168615159081178255600190910185905582519384529083015281018290527f42b585a1da1cff4b571e7a78aea1b4601b1d128de41a0feebd8a77aaf48b9d88906060016111f8565b600091825260fc602090815260408084206001600160a01b0393909316845291905290205460ff1690565b7f2fdac322ee704ce09f0773f7f3f92eb98d5e7c836ee9c056cccd5f61041e5e3f6114c281612381565b60008481526101316020908152604080832061013283528184208785529092529091208154600160ff1991821681178455808301546002850155600484018690558254909183911682805b0217905550505050505050565b6040805160e080820183526000808352602080840182905283850182905260608085018390526080850183905260a085015260c08401829052868252610132815284822086835290528390208351918201909352825491929091829060ff16600181111561158a5761158a61340d565b600181111561159b5761159b61340d565b81526001820154602082015260028201546001600160a01b0316604082015260038201546060820152600482015461ffff16608082015260058201805460a0909201916115e790613777565b80601f016020809104026020016040519081016040528092919081815260200182805461161390613777565b80156116605780601f1061163557610100808354040283529160200191611660565b820191906000526020600020905b81548152906001019060200180831161164357829003601f168201915b50505050508152602001600682015481525050905092915050565b7f2fdac322ee704ce09f0773f7f3f92eb98d5e7c836ee9c056cccd5f61041e5e3f6116a581612381565b60008381526101316020908152604080832061013283528184206002820154855290925282206003810154919290916116df866064613ad0565b6116e99190613ae7565b905061013554811061170557825460ff19166002178355611718565b8254600490849060ff191660018361150d565b505050505050565b61013160205260009081526040902080546001820154600283015460038401805460ff90941694929391929161175590613777565b80601f016020809104026020016040519081016040528092919081815260200182805461178190613777565b80156117ce5780601f106117a3576101008083540402835291602001916117ce565b820191906000526020600020905b8154815290600101906020018083116117b157829003601f168201915b5050505050908060040154908060050154905086565b61013260209081526000928352604080842090915290825290208054600182015460028301546003840154600485015460058601805460ff9096169694956001600160a01b0390941694929361ffff909216929161184190613777565b80601f016020809104026020016040519081016040528092919081815260200182805461186d90613777565b80156118ba5780601f1061188f576101008083540402835291602001916118ba565b820191906000526020600020905b81548152906001019060200180831161189d57829003601f168201915b5050505050908060060154905087565b61012f5487906001600160a01b0316632fa117e5826118e7611fb0565b6040516001600160e01b031960e085901b16815260048101929092526001600160a01b03166024820152604401602060405180830381865afa158015611931573d6000803e3d6000fd5b505050506040513d601f19601f820116820180604052508101906119559190613706565b6119715760405162461bcd60e51b815260040161089490613723565b6001600160a01b0386166000908152610134602052604090205460ff166119d65760405162461bcd60e51b8152602060048201526019602482015278151a1a5cc81d1bdad95b881a5cc81b9bdd08185b1b1bddd959603a1b6044820152606401610894565b60008781526101316020908152604080832061013283528184208c855290925282209091825460ff166004811115611a1057611a1061340d565b14611a555760405162461bcd60e51b815260206004820152601560248201527414d95c9d9a58d9481a5cc81b9bdd081bdc195b9959605a1b6044820152606401610894565b89816001015414611aa85760405162461bcd60e51b815260206004820152601f60248201527f546869732070726f706f73616c20646f65736e277420657869737420796574006044820152606401610894565b602e8514611ac85760405162461bcd60e51b815260040161089490613752565b6001815460ff166001811115611ae057611ae061340d565b03611b2d5760405162461bcd60e51b815260206004820181905260248201527f546869732070726f706f73616c20697320616c726561647920757064617465646044820152606401610894565b6001600160a01b03881660009081526101346020526040902060010154871015611b8d5760405162461bcd60e51b8152602060048201526011602482015270416d6f756e7420697320746f6f206c6f7760781b6044820152606401610894565b6002810180546001600160a01b0319166001600160a01b038a161790556003810187905560058101611bc08688836137f7565b507f0f68ab04ab4935c8598d30f2c12ec34265575059bb4cae481b4d632cc43db81e898b88888c8c8a604051611bfc9796959493929190613b09565b60405180910390a150505050505050505050565b61012f5460009087906001600160a01b0316632fa117e582611c30611fb0565b6040516001600160e01b031960e085901b16815260048101929092526001600160a01b03166024820152604401602060405180830381865afa158015611c7a573d6000803e3d6000fd5b505050506040513d601f19601f82011682018060405250810190611c9e9190613706565b611cba5760405162461bcd60e51b815260040161089490613723565b611cc88888888888886126c3565b61012e80549081906000611cdb83613b51565b9091555050600081815261013160205260409020805460ff19168155600181018a905560038101611d0d888a836137f7565b506005810189905560008a815261013360205260408120805491611d3083613b51565b91905055507f8f3fc1086abc1020f602edd700a9ae5801b250c9d110af9e54022d7cc5df7bee828b8b8b8b604051611d6c959493929190613b6a565b60405180910390a15098975050505050505050565b600082815260fc6020526040902060010154611d9c81612381565b610e7b8383612419565b611de06040805160c08101909152806000815260200160008152602001600081526020016060815260200160008152602001600081525090565b61012e548210611e325760405162461bcd60e51b815260206004820152601a60248201527f54686973207365727669636520646f65736e27742065786973740000000000006044820152606401610894565b6000828152610131602052604090819020815160c081019092528054829060ff166004811115611e6457611e6461340d565b6004811115611e7557611e7561340d565b81526020016001820154815260200160028201548152602001600382018054611e9d90613777565b80601f0160208091040260200160405190810160405280929190818152602001828054611ec990613777565b8015611f165780601f10611eeb57610100808354040283529160200191611f16565b820191906000526020600020905b815481529060010190602001808311611ef957829003601f168201915b50505050508152602001600482015481526020016005820154815250509050919050565b611f42612308565b6001600160a01b038116611fa75760405162461bcd60e51b815260206004820152602660248201527f4f776e61626c653a206e6577206f776e657220697320746865207a65726f206160448201526564647265737360d01b6064820152608401610894565b610fea81612671565b6000611fba6127ec565b905090565b6001600160a01b0387166000908152610134602052604090205460ff166120245760405162461bcd60e51b8152602060048201526019602482015278151a1a5cc81d1bdad95b881a5cc81b9bdd08185b1b1bddd959603a1b6044820152606401610894565b61013054604051634a7ab1d560e01b815261ffff871660048201526000916001600160a01b031690634a7ab1d590602401602060405180830381865afa158015612072573d6000803e3d6000fd5b505050506040513d601f19601f820116820180604052508101906120969190613b9b565b90508034146120dc5760405162461bcd60e51b81526020600482015260126024820152714e6f6e2d6d61746368696e672066756e647360701b6044820152606401610894565b6001600160a01b0388166000908152610134602052604090206001015487101561213c5760405162461bcd60e51b8152602060048201526011602482015270416d6f756e7420697320746f6f206c6f7760781b6044820152606401610894565b60008981526101316020526040812090815460ff1660048111156121625761216261340d565b146121a75760405162461bcd60e51b815260206004820152601560248201527414d95c9d9a58d9481a5cc81b9bdd081bdc195b9959605a1b6044820152606401610894565b60008a8152610132602090815260408083208e84529091529020600101548b900361222c5760405162461bcd60e51b815260206004820152602f60248201527f596f7520616c7265616479206372656174656420612070726f706f73616c206660448201526e6f722074686973207365727669636560881b6064820152608401610894565b8a8160010154036122995760405162461bcd60e51b815260206004820152603160248201527f596f7520636f756c646e2774206372656174652070726f706f73616c20666f7260448201527020796f7572206f776e207365727669636560781b6064820152608401610894565b602e85146122b95760405162461bcd60e51b815260040161089490613752565b60008b8b88886040516020016122d29493929190613bb4565b6040516020818303038152906040528051906020012090506122fa8585838b61ffff16612825565b505050505050505050505050565b612310611fb0565b6001600160a01b031661232b6033546001600160a01b031690565b6001600160a01b0316146113965760405162461bcd60e51b815260206004820181905260248201527f4f776e61626c653a2063616c6c6572206973206e6f7420746865206f776e65726044820152606401610894565b610fea8161238d611fb0565b612977565b61239c828261146d565b610f0a57600082815260fc602090815260408083206001600160a01b03851684529091529020805460ff191660011790556123d5611fb0565b6001600160a01b0316816001600160a01b0316837f2f8788117e7eff1d82e926ec794901d17c78024a50270940304540a733656f0d60405160405180910390a45050565b612423828261146d565b15610f0a57600082815260fc602090815260408083206001600160a01b03851684529091529020805460ff1916905561245a611fb0565b6001600160a01b0316816001600160a01b0316837ff6391f5c32d9c69d2a47ea670b442974b53935d1edc7fd64eb21e047a839171b60405160405180910390a45050565b610fea612308565b7f4910fdfa16fed3260ed0e7147f7cc6da11a60208b5b9406d12a635614ffd91435460ff16156124d957610e7b836129d0565b826001600160a01b03166352d1902d6040518163ffffffff1660e01b8152600401602060405180830381865afa925050508015612533575060408051601f3d908101601f1916820190925261253091810190613b9b565b60015b6125965760405162461bcd60e51b815260206004820152602e60248201527f45524331393637557067726164653a206e657720696d706c656d656e7461746960448201526d6f6e206973206e6f74205555505360901b6064820152608401610894565b600080516020613d6783398151915281146126055760405162461bcd60e51b815260206004820152602960248201527f45524331393637557067726164653a20756e737570706f727465642070726f786044820152681a58589b195555525160ba1b6064820152608401610894565b50610e7b838383612a6c565b600054610100900460ff166126385760405162461bcd60e51b815260040161089490613bf6565b611396612a97565b600054610100900460ff166113965760405162461bcd60e51b815260040161089490613bf6565b610f0a8282612392565b603380546001600160a01b038381166001600160a01b0319831681179093556040519116919082907f8be0079c531659141344cd1fd0a4f28419497f9722a3daafe3b4186f6b6457e090600090a35050565b61013054604051638a98636360e01b8152600481018790526000916001600160a01b031690638a98636390602401602060405180830381865afa15801561270e573d6000803e3d6000fd5b505050506040513d601f19601f820116820180604052508101906127329190613b9b565b90508034146127785760405162461bcd60e51b81526020600482015260126024820152714e6f6e2d6d61746368696e672066756e647360701b6044820152606401610894565b602e84146127985760405162461bcd60e51b815260040161089490613752565b6000878152610133602090815260408083205490516127be928b92918a918a9101613c41565b6040516020818303038152906040528051906020012090506127e28484838a612825565b5050505050505050565b60006014361080159061280e57503360009081526065602052604090205460ff165b15612820575060131936013560601c90565b503390565b600061287e836040517f19457468657265756d205369676e6564204d6573736167653a0a3332000000006020820152603c8101829052600090605c01604051602081830303815290604052805190602001209050919050565b905060006128c28287878080601f016020809104026020016040519081016040528093929190818152602001838380828437600092019190915250612ace92505050565b61013054604051631847c06b60e01b81526001600160a01b038084166004830152929350859290911690631847c06b90602401602060405180830381865afa158015612912573d6000803e3d6000fd5b505050506040513d601f19601f820116820180604052508101906129369190613b9b565b146117185760405162461bcd60e51b8152602060048201526011602482015270696e76616c6964207369676e617475726560781b6044820152606401610894565b612981828261146d565b610f0a5761298e81612af2565b612999836020612b04565b6040516020016129aa929190613c82565b60408051601f198184030181529082905262461bcd60e51b825261089491600401613cf7565b6001600160a01b0381163b612a3d5760405162461bcd60e51b815260206004820152602d60248201527f455243313936373a206e657720696d706c656d656e746174696f6e206973206e60448201526c1bdd08184818dbdb9d1c9858dd609a1b6064820152608401610894565b600080516020613d6783398151915280546001600160a01b0319166001600160a01b0392909216919091179055565b612a7583612ca7565b600082511180612a825750805b15610e7b57612a918383612ce7565b50505050565b600054610100900460ff16612abe5760405162461bcd60e51b815260040161089490613bf6565b611396612ac9611fb0565b612671565b6000806000612add8585612ddb565b91509150612aea81612e20565b509392505050565b60606107e76001600160a01b03831660145b60606000612b13836002613ad0565b612b1e906002613d0a565b67ffffffffffffffff811115612b3657612b366132bc565b6040519080825280601f01601f191660200182016040528015612b60576020820181803683370190505b509050600360fc1b81600081518110612b7b57612b7b613d1d565b60200101906001600160f81b031916908160001a905350600f60fb1b81600181518110612baa57612baa613d1d565b60200101906001600160f81b031916908160001a9053506000612bce846002613ad0565b612bd9906001613d0a565b90505b6001811115612c51576f181899199a1a9b1b9c1cb0b131b232b360811b85600f1660108110612c0d57612c0d613d1d565b1a60f81b828281518110612c2357612c23613d1d565b60200101906001600160f81b031916908160001a90535060049490941c93612c4a81613d33565b9050612bdc565b508315612ca05760405162461bcd60e51b815260206004820181905260248201527f537472696e67733a20686578206c656e67746820696e73756666696369656e746044820152606401610894565b9392505050565b612cb0816129d0565b6040516001600160a01b038216907fbc7cd75a20ee27fd9adebab32041f755214dbc6bffa90cc0225b39da2e5c2d3b90600090a250565b60606001600160a01b0383163b612d4f5760405162461bcd60e51b815260206004820152602660248201527f416464726573733a2064656c65676174652063616c6c20746f206e6f6e2d636f6044820152651b9d1c9858dd60d21b6064820152608401610894565b600080846001600160a01b031684604051612d6a9190613d4a565b600060405180830381855af49150503d8060008114612da5576040519150601f19603f3d011682016040523d82523d6000602084013e612daa565b606091505b5091509150612dd28282604051806060016040528060278152602001613d8760279139612f6a565b95945050505050565b6000808251604103612e115760208301516040840151606085015160001a612e0587828585612f83565b94509450505050612e19565b506000905060025b9250929050565b6000816004811115612e3457612e3461340d565b03612e3c5750565b6001816004811115612e5057612e5061340d565b03612e9d5760405162461bcd60e51b815260206004820152601860248201527f45434453413a20696e76616c6964207369676e617475726500000000000000006044820152606401610894565b6002816004811115612eb157612eb161340d565b03612efe5760405162461bcd60e51b815260206004820152601f60248201527f45434453413a20696e76616c6964207369676e6174757265206c656e677468006044820152606401610894565b6003816004811115612f1257612f1261340d565b03610fea5760405162461bcd60e51b815260206004820152602260248201527f45434453413a20696e76616c6964207369676e6174757265202773272076616c604482015261756560f01b6064820152608401610894565b60608315612f79575081612ca0565b612ca08383613047565b6000807f7fffffffffffffffffffffffffffffff5d576e7357a4501ddfe92f46681b20a0831115612fba575060009050600361303e565b6040805160008082526020820180845289905260ff881692820192909252606081018690526080810185905260019060a0016020604051602081039080840390855afa15801561300e573d6000803e3d6000fd5b5050604051601f1901519150506001600160a01b0381166130375760006001925092505061303e565b9150600090505b94509492505050565b8151156130575781518083602001fd5b8060405162461bcd60e51b81526004016108949190613cf7565b60006020828403121561308357600080fd5b81356001600160e01b031981168114612ca057600080fd5b600080604083850312156130ae57600080fd5b50508035926020909101359150565b60008083601f8401126130cf57600080fd5b50813567ffffffffffffffff8111156130e757600080fd5b602083019150836020828501011115612e1957600080fd5b6000806000806060858703121561311557600080fd5b8435935060208501359250604085013567ffffffffffffffff81111561313a57600080fd5b613146878288016130bd565b95989497509550505050565b60006020828403121561316457600080fd5b5035919050565b80356001600160a01b038116811461318257600080fd5b919050565b6000806000806000806000806000806101008b8d0312156131a757600080fd5b8a35995060208b013598506131be60408c0161316b565b975060608b0135965060808b013561ffff811681146131dc57600080fd5b955060a08b013567ffffffffffffffff808211156131f957600080fd5b6132058e838f016130bd565b909750955060c08d0135945060e08d013591508082111561322557600080fd5b506132328d828e016130bd565b915080935050809150509295989b9194979a5092959850565b60006020828403121561325d57600080fd5b612ca08261316b565b6000806040838503121561327957600080fd5b823591506132896020840161316b565b90509250929050565b600080604083850312156132a557600080fd5b6132ae8361316b565b91506132896020840161316b565b634e487b7160e01b600052604160045260246000fd5b600080604083850312156132e557600080fd5b6132ee8361316b565b9150602083013567ffffffffffffffff8082111561330b57600080fd5b818501915085601f83011261331f57600080fd5b813581811115613331576133316132bc565b604051601f8201601f19908116603f01168101908382118183101715613359576133596132bc565b8160405282815288602084870101111561337257600080fd5b8260208601602083013760006020848301015280955050505050509250929050565b8015158114610fea57600080fd5b6000806000606084860312156133b757600080fd5b6133c08461316b565b925060208401356133d081613394565b929592945050506040919091013590565b6000806000606084860312156133f657600080fd5b505081359360208301359350604090920135919050565b634e487b7160e01b600052602160045260246000fd5b600281106134335761343361340d565b9052565b60005b8381101561345257818101518382015260200161343a565b50506000910152565b60008151808452613473816020860160208601613437565b601f01601f19169290920160200192915050565b60208152613499602082018351613423565b6020820151604082015260018060a01b0360408301511660608201526060820151608082015261ffff60808301511660a0820152600060a083015160e060c08401526134e961010084018261345b565b905060c084015160e08401528091505092915050565b600581106134335761343361340d565b61351981886134ff565b85602082015284604082015260c06060820152600061353b60c083018661345b565b60808301949094525060a00152949350505050565b61355a8189613423565b86602082015260018060a01b038616604082015284606082015261ffff8416608082015260e060a0820152600061359460e083018561345b565b90508260c083015298975050505050505050565b600080600080600080600060c0888a0312156135c357600080fd5b87359650602088013595506135da6040890161316b565b945060608801359350608088013567ffffffffffffffff8111156135fd57600080fd5b6136098a828b016130bd565b989b979a5095989497959660a090950135949350505050565b6000806000806000806080878903121561363b57600080fd5b8635955060208701359450604087013567ffffffffffffffff8082111561366157600080fd5b61366d8a838b016130bd565b9096509450606089013591508082111561368657600080fd5b5061369389828a016130bd565b979a9699509497509295939492505050565b602081526136b76020820183516134ff565b60208201516040820152604082015160608201526000606083015160c060808401526136e660e084018261345b565b9050608084015160a084015260a084015160c08401528091505092915050565b60006020828403121561371857600080fd5b8151612ca081613394565b6020808252601590820152744e6f74206f776e6572206f722064656c656761746560581b604082015260600190565b6020808252600b908201526a125b9d985b1a590818da5960aa1b604082015260600190565b600181811c9082168061378b57607f821691505b6020821081036137ab57634e487b7160e01b600052602260045260246000fd5b50919050565b601f821115610e7b57600081815260208120601f850160051c810160208610156137d85750805b601f850160051c820191505b81811015611718578281556001016137e4565b67ffffffffffffffff83111561380f5761380f6132bc565b6138238361381d8354613777565b836137b1565b6000601f841160018114613857576000851561383f5750838201355b600019600387901b1c1916600186901b1783556138b1565b600083815260209020601f19861690835b828110156138885786850135825560209485019460019092019101613868565b50868210156138a55760001960f88860031b161c19848701351681555b505060018560011b0183555b5050505050565b81835281816020850137506000828201602090810191909152601f909101601f19169091010190565b6020815260006138f56020830184866138b8565b949350505050565b815167ffffffffffffffff811115613917576139176132bc565b61392b816139258454613777565b846137b1565b602080601f83116001811461396057600084156139485750858301515b600019600386901b1c1916600185901b178555611718565b600085815260208120601f198616915b8281101561398f57888601518255948401946001909101908401613970565b50858210156139ad5787850151600019600388901b60f8161c191681555b5050505050600190811b01905550565b60006101008b83528a60208401528060408401526139de8184018a8c6138b8565b9150506139ee6060830188613423565b6001600160a01b0395909516608082015260a081019390935261ffff9190911660c083015260e09091015295945050505050565b6020808252602c908201527f46756e6374696f6e206d7573742062652063616c6c6564207468726f7567682060408201526b19195b1959d85d1958d85b1b60a21b606082015260800190565b6020808252602c908201527f46756e6374696f6e206d7573742062652063616c6c6564207468726f7567682060408201526b6163746976652070726f787960a01b606082015260800190565b634e487b7160e01b600052601160045260246000fd5b80820281158282048414176107e7576107e7613aba565b600082613b0457634e487b7160e01b600052601260045260246000fd5b500490565b87815286602082015260c060408201526000613b2960c0830187896138b8565b6001600160a01b0395909516606083015250608081019290925260a090910152949350505050565b600060018201613b6357613b63613aba565b5060010190565b858152846020820152836040820152608060608201526000613b906080830184866138b8565b979650505050505050565b600060208284031215613bad57600080fd5b5051919050565b6d18dc99585d19541c9bdc1bdcd85b60921b815284600e820152603b60f81b602e82015283602f8201528183604f83013760009101604f019081529392505050565b6020808252602b908201527f496e697469616c697a61626c653a20636f6e7472616374206973206e6f74206960408201526a6e697469616c697a696e6760a81b606082015260800190565b6c6372656174655365727669636560981b815284600d820152603b60f81b602d82015283602e8201528183604e83013760009101604e019081529392505050565b7f416363657373436f6e74726f6c3a206163636f756e7420000000000000000000815260008351613cba816017850160208801613437565b7001034b99036b4b9b9b4b733903937b6329607d1b6017918401918201528351613ceb816028840160208801613437565b01602801949350505050565b602081526000612ca0602083018461345b565b808201808211156107e7576107e7613aba565b634e487b7160e01b600052603260045260246000fd5b600081613d4257613d42613aba565b506000190190565b60008251613d5c818460208701613437565b919091019291505056fe360894a13ba1a3210667c828492db98dca3e2076cc3735a920a3ca505d382bbc416464726573733a206c6f772d6c6576656c2064656c65676174652063616c6c206661696c6564a26469706673582212200e558ff6d5c3ea4be3c4a558107c92d3c5c5b3acf4973d128ed3a1e8def564e264736f6c63430008110033",
  "linkReferences": {},
  "deployedLinkReferences": {}
}