{
  "_format": "hh-sol-artifact-1",
  "contractName": "TalentLayerPlatformID",
  "sourceName": "contracts/TalentLayerPlatformID.sol",
  "abi": [
    {
      "inputs": [],
      "stateMutability": "nonpayable",
      "type": "constructor"
    },
    {
      "anonymous": false,
      "inputs": [
        {
          "indexed": false,
          "internalType": "address",
          "name": "previousAdmin",
          "type": "address"
        },
        {
          "indexed": false,
          "internalType": "address",
          "name": "newAdmin",
          "type": "address"
        }
      ],
      "name": "AdminChanged",
      "type": "event"
    },
    {
      "anonymous": false,
      "inputs": [
        {
          "indexed": true,
          "internalType": "address",
          "name": "owner",
          "type": "address"
        },
        {
          "indexed": true,
          "internalType": "address",
          "name": "approved",
          "type": "address"
        },
        {
          "indexed": true,
          "internalType": "uint256",
          "name": "tokenId",
          "type": "uint256"
        }
      ],
      "name": "Approval",
      "type": "event"
    },
    {
      "anonymous": false,
      "inputs": [
        {
          "indexed": true,
          "internalType": "address",
          "name": "owner",
          "type": "address"
        },
        {
          "indexed": true,
          "internalType": "address",
          "name": "operator",
          "type": "address"
        },
        {
          "indexed": false,
          "internalType": "bool",
          "name": "approved",
          "type": "bool"
        }
      ],
      "name": "ApprovalForAll",
      "type": "event"
    },
    {
      "anonymous": false,
      "inputs": [
        {
          "indexed": false,
          "internalType": "uint256",
          "name": "_platformId",
          "type": "uint256"
        },
        {
          "indexed": false,
          "internalType": "uint256",
          "name": "_arbitrationFeeTimeout",
          "type": "uint256"
        }
      ],
      "name": "ArbitrationFeeTimeoutUpdated",
      "type": "event"
    },
    {
      "anonymous": false,
      "inputs": [
        {
          "indexed": false,
          "internalType": "uint256",
          "name": "_platformId",
          "type": "uint256"
        },
        {
          "indexed": false,
          "internalType": "contract Arbitrator",
          "name": "_arbitrator",
          "type": "address"
        },
        {
          "indexed": false,
          "internalType": "bytes",
          "name": "_extraData",
          "type": "bytes"
        }
      ],
      "name": "ArbitratorUpdated",
      "type": "event"
    },
    {
      "anonymous": false,
      "inputs": [
        {
          "indexed": true,
          "internalType": "address",
          "name": "beacon",
          "type": "address"
        }
      ],
      "name": "BeaconUpgraded",
      "type": "event"
    },
    {
      "anonymous": false,
      "inputs": [
        {
          "indexed": true,
          "internalType": "uint256",
          "name": "_tokenId",
          "type": "uint256"
        },
        {
          "indexed": false,
          "internalType": "string",
          "name": "_newCid",
          "type": "string"
        }
      ],
      "name": "CidUpdated",
      "type": "event"
    },
    {
      "anonymous": false,
      "inputs": [
        {
          "indexed": false,
          "internalType": "uint8",
          "name": "version",
          "type": "uint8"
        }
      ],
      "name": "Initialized",
      "type": "event"
    },
    {
      "anonymous": false,
      "inputs": [
        {
          "indexed": false,
          "internalType": "uint256",
          "name": "_minArbitrationFeeTimeout",
          "type": "uint256"
        }
      ],
      "name": "MinArbitrationFeeTimeoutUpdated",
      "type": "event"
    },
    {
      "anonymous": false,
      "inputs": [
        {
          "indexed": true,
          "internalType": "address",
          "name": "_platformOwnerAddress",
          "type": "address"
        },
        {
          "indexed": false,
          "internalType": "uint256",
          "name": "_tokenId",
          "type": "uint256"
        },
        {
          "indexed": false,
          "internalType": "string",
          "name": "_platformName",
          "type": "string"
        },
        {
          "indexed": false,
          "internalType": "uint256",
          "name": "_fee",
          "type": "uint256"
        },
        {
          "indexed": false,
          "internalType": "uint256",
          "name": "_arbitrationFeeTimeout",
          "type": "uint256"
        }
      ],
      "name": "Mint",
      "type": "event"
    },
    {
      "anonymous": false,
      "inputs": [
        {
          "indexed": false,
          "internalType": "uint256",
          "name": "_mintFee",
          "type": "uint256"
        }
      ],
      "name": "MintFeeUpdated",
      "type": "event"
    },
    {
      "anonymous": false,
      "inputs": [
        {
          "indexed": false,
          "internalType": "uint256",
          "name": "_platformId",
          "type": "uint256"
        },
        {
          "indexed": false,
          "internalType": "uint16",
          "name": "_originServiceFeeRate",
          "type": "uint16"
        }
      ],
      "name": "OriginServiceFeeRateUpdated",
      "type": "event"
    },
    {
      "anonymous": false,
      "inputs": [
        {
          "indexed": false,
          "internalType": "uint256",
          "name": "_platformId",
          "type": "uint256"
        },
        {
          "indexed": false,
          "internalType": "uint16",
          "name": "_originValidatedProposalFeeRate",
          "type": "uint16"
        }
      ],
      "name": "OriginValidatedProposalFeeRateUpdated",
      "type": "event"
    },
    {
      "anonymous": false,
      "inputs": [
        {
          "indexed": true,
          "internalType": "bytes32",
          "name": "role",
          "type": "bytes32"
        },
        {
          "indexed": true,
          "internalType": "bytes32",
          "name": "previousAdminRole",
          "type": "bytes32"
        },
        {
          "indexed": true,
          "internalType": "bytes32",
          "name": "newAdminRole",
          "type": "bytes32"
        }
      ],
      "name": "RoleAdminChanged",
      "type": "event"
    },
    {
      "anonymous": false,
      "inputs": [
        {
          "indexed": true,
          "internalType": "bytes32",
          "name": "role",
          "type": "bytes32"
        },
        {
          "indexed": true,
          "internalType": "address",
          "name": "account",
          "type": "address"
        },
        {
          "indexed": true,
          "internalType": "address",
          "name": "sender",
          "type": "address"
        }
      ],
      "name": "RoleGranted",
      "type": "event"
    },
    {
      "anonymous": false,
      "inputs": [
        {
          "indexed": true,
          "internalType": "bytes32",
          "name": "role",
          "type": "bytes32"
        },
        {
          "indexed": true,
          "internalType": "address",
          "name": "account",
          "type": "address"
        },
        {
          "indexed": true,
          "internalType": "address",
          "name": "sender",
          "type": "address"
        }
      ],
      "name": "RoleRevoked",
      "type": "event"
    },
    {
      "anonymous": false,
      "inputs": [
        {
          "indexed": true,
          "internalType": "address",
          "name": "from",
          "type": "address"
        },
        {
          "indexed": true,
          "internalType": "address",
          "name": "to",
          "type": "address"
        },
        {
          "indexed": true,
          "internalType": "uint256",
          "name": "tokenId",
          "type": "uint256"
        }
      ],
      "name": "Transfer",
      "type": "event"
    },
    {
      "anonymous": false,
      "inputs": [
        {
          "indexed": true,
          "internalType": "address",
          "name": "implementation",
          "type": "address"
        }
      ],
      "name": "Upgraded",
      "type": "event"
    },
    {
      "inputs": [],
      "name": "DEFAULT_ADMIN_ROLE",
      "outputs": [
        {
          "internalType": "bytes32",
          "name": "",
          "type": "bytes32"
        }
      ],
      "stateMutability": "view",
      "type": "function"
    },
    {
      "inputs": [],
      "name": "MINT_ROLE",
      "outputs": [
        {
          "internalType": "bytes32",
          "name": "",
          "type": "bytes32"
        }
      ],
      "stateMutability": "view",
      "type": "function"
    },
    {
      "inputs": [],
      "name": "OWNER_ROLE",
      "outputs": [
        {
          "internalType": "bytes32",
          "name": "",
          "type": "bytes32"
        }
      ],
      "stateMutability": "view",
      "type": "function"
    },
    {
      "inputs": [
        {
          "internalType": "address",
          "name": "_arbitrator",
          "type": "address"
        },
        {
          "internalType": "bool",
          "name": "_isInternal",
          "type": "bool"
        }
      ],
      "name": "addArbitrator",
      "outputs": [],
      "stateMutability": "nonpayable",
      "type": "function"
    },
    {
      "inputs": [
        {
          "internalType": "address",
          "name": "to",
          "type": "address"
        },
        {
          "internalType": "uint256",
          "name": "tokenId",
          "type": "uint256"
        }
      ],
      "name": "approve",
      "outputs": [],
      "stateMutability": "nonpayable",
      "type": "function"
    },
    {
      "inputs": [
        {
          "internalType": "address",
          "name": "owner",
          "type": "address"
        }
      ],
      "name": "balanceOf",
      "outputs": [
        {
          "internalType": "uint256",
          "name": "",
          "type": "uint256"
        }
      ],
      "stateMutability": "view",
      "type": "function"
    },
    {
      "inputs": [
        {
          "internalType": "uint256",
          "name": "tokenId",
          "type": "uint256"
        }
      ],
      "name": "getApproved",
      "outputs": [
        {
          "internalType": "address",
          "name": "",
          "type": "address"
        }
      ],
      "stateMutability": "view",
      "type": "function"
    },
    {
      "inputs": [
        {
          "internalType": "uint256",
          "name": "_platformId",
          "type": "uint256"
        }
      ],
      "name": "getOriginServiceFeeRate",
      "outputs": [
        {
          "internalType": "uint16",
          "name": "",
          "type": "uint16"
        }
      ],
      "stateMutability": "view",
      "type": "function"
    },
    {
      "inputs": [
        {
          "internalType": "uint256",
          "name": "_platformId",
          "type": "uint256"
        }
      ],
      "name": "getOriginValidatedProposalFeeRate",
      "outputs": [
        {
          "internalType": "uint16",
          "name": "",
          "type": "uint16"
        }
      ],
      "stateMutability": "view",
      "type": "function"
    },
    {
      "inputs": [
        {
          "internalType": "uint256",
          "name": "_platformId",
          "type": "uint256"
        }
      ],
      "name": "getPlatform",
      "outputs": [
        {
          "components": [
            {
              "internalType": "uint256",
              "name": "id",
              "type": "uint256"
            },
            {
              "internalType": "string",
              "name": "name",
              "type": "string"
            },
            {
              "internalType": "string",
              "name": "dataUri",
              "type": "string"
            },
            {
              "internalType": "uint16",
              "name": "originServiceFeeRate",
              "type": "uint16"
            },
            {
              "internalType": "uint16",
              "name": "originValidatedProposalFeeRate",
              "type": "uint16"
            },
            {
              "internalType": "contract Arbitrator",
              "name": "arbitrator",
              "type": "address"
            },
            {
              "internalType": "bytes",
              "name": "arbitratorExtraData",
              "type": "bytes"
            },
            {
              "internalType": "uint256",
              "name": "arbitrationFeeTimeout",
              "type": "uint256"
            }
          ],
          "internalType": "struct TalentLayerPlatformID.Platform",
          "name": "",
          "type": "tuple"
        }
      ],
      "stateMutability": "view",
      "type": "function"
    },
    {
      "inputs": [
        {
          "internalType": "address",
          "name": "_owner",
          "type": "address"
        }
      ],
      "name": "getPlatformIdFromAddress",
      "outputs": [
        {
          "internalType": "uint256",
          "name": "",
          "type": "uint256"
        }
      ],
      "stateMutability": "view",
      "type": "function"
    },
    {
      "inputs": [
        {
          "internalType": "bytes32",
          "name": "role",
          "type": "bytes32"
        }
      ],
      "name": "getRoleAdmin",
      "outputs": [
        {
          "internalType": "bytes32",
          "name": "",
          "type": "bytes32"
        }
      ],
      "stateMutability": "view",
      "type": "function"
    },
    {
      "inputs": [
        {
          "internalType": "bytes32",
          "name": "role",
          "type": "bytes32"
        },
        {
          "internalType": "address",
          "name": "account",
          "type": "address"
        }
      ],
      "name": "grantRole",
      "outputs": [],
      "stateMutability": "nonpayable",
      "type": "function"
    },
    {
      "inputs": [
        {
          "internalType": "address",
          "name": "",
          "type": "address"
        }
      ],
      "name": "hasBeenRecovered",
      "outputs": [
        {
          "internalType": "bool",
          "name": "",
          "type": "bool"
        }
      ],
      "stateMutability": "view",
      "type": "function"
    },
    {
      "inputs": [
        {
          "internalType": "bytes32",
          "name": "role",
          "type": "bytes32"
        },
        {
          "internalType": "address",
          "name": "account",
          "type": "address"
        }
      ],
      "name": "hasRole",
      "outputs": [
        {
          "internalType": "bool",
          "name": "",
          "type": "bool"
        }
      ],
      "stateMutability": "view",
      "type": "function"
    },
    {
      "inputs": [],
      "name": "initialize",
      "outputs": [],
      "stateMutability": "nonpayable",
      "type": "function"
    },
    {
      "inputs": [
        {
          "internalType": "address",
          "name": "",
          "type": "address"
        }
      ],
      "name": "internalArbitrators",
      "outputs": [
        {
          "internalType": "bool",
          "name": "",
          "type": "bool"
        }
      ],
      "stateMutability": "view",
      "type": "function"
    },
    {
      "inputs": [
        {
          "internalType": "address",
          "name": "owner",
          "type": "address"
        },
        {
          "internalType": "address",
          "name": "operator",
          "type": "address"
        }
      ],
      "name": "isApprovedForAll",
      "outputs": [
        {
          "internalType": "bool",
          "name": "",
          "type": "bool"
        }
      ],
      "stateMutability": "view",
      "type": "function"
    },
    {
      "inputs": [
        {
          "internalType": "uint256",
          "name": "_platformId",
          "type": "uint256"
        }
      ],
      "name": "isValid",
      "outputs": [],
      "stateMutability": "view",
      "type": "function"
    },
    {
      "inputs": [],
      "name": "minArbitrationFeeTimeout",
      "outputs": [
        {
          "internalType": "uint256",
          "name": "",
          "type": "uint256"
        }
      ],
      "stateMutability": "view",
      "type": "function"
    },
    {
      "inputs": [
        {
          "internalType": "string",
          "name": "_platformName",
          "type": "string"
        }
      ],
      "name": "mint",
      "outputs": [],
      "stateMutability": "payable",
      "type": "function"
    },
    {
      "inputs": [],
      "name": "mintFee",
      "outputs": [
        {
          "internalType": "uint256",
          "name": "",
          "type": "uint256"
        }
      ],
      "stateMutability": "view",
      "type": "function"
    },
    {
      "inputs": [
        {
          "internalType": "string",
          "name": "_platformName",
          "type": "string"
        },
        {
          "internalType": "address",
          "name": "_platformAddress",
          "type": "address"
        }
      ],
      "name": "mintForAddress",
      "outputs": [],
      "stateMutability": "payable",
      "type": "function"
    },
    {
      "inputs": [],
      "name": "name",
      "outputs": [
        {
          "internalType": "string",
          "name": "",
          "type": "string"
        }
      ],
      "stateMutability": "view",
      "type": "function"
    },
    {
      "inputs": [
        {
          "internalType": "address",
          "name": "_platformAddress",
          "type": "address"
        }
      ],
      "name": "numberMinted",
      "outputs": [
        {
          "internalType": "uint256",
          "name": "",
          "type": "uint256"
        }
      ],
      "stateMutability": "view",
      "type": "function"
    },
    {
      "inputs": [
        {
          "internalType": "uint256",
          "name": "tokenId",
          "type": "uint256"
        }
      ],
      "name": "ownerOf",
      "outputs": [
        {
          "internalType": "address",
          "name": "",
          "type": "address"
        }
      ],
      "stateMutability": "view",
      "type": "function"
    },
    {
      "inputs": [
        {
          "internalType": "uint256",
          "name": "",
          "type": "uint256"
        }
      ],
      "name": "platforms",
      "outputs": [
        {
          "internalType": "uint256",
          "name": "id",
          "type": "uint256"
        },
        {
          "internalType": "string",
          "name": "name",
          "type": "string"
        },
        {
          "internalType": "string",
          "name": "dataUri",
          "type": "string"
        },
        {
          "internalType": "uint16",
          "name": "originServiceFeeRate",
          "type": "uint16"
        },
        {
          "internalType": "uint16",
          "name": "originValidatedProposalFeeRate",
          "type": "uint16"
        },
        {
          "internalType": "contract Arbitrator",
          "name": "arbitrator",
          "type": "address"
        },
        {
          "internalType": "bytes",
          "name": "arbitratorExtraData",
          "type": "bytes"
        },
        {
          "internalType": "uint256",
          "name": "arbitrationFeeTimeout",
          "type": "uint256"
        }
      ],
      "stateMutability": "view",
      "type": "function"
    },
    {
      "inputs": [],
      "name": "proxiableUUID",
      "outputs": [
        {
          "internalType": "bytes32",
          "name": "",
          "type": "bytes32"
        }
      ],
      "stateMutability": "view",
      "type": "function"
    },
    {
      "inputs": [],
      "name": "recoveryRoot",
      "outputs": [
        {
          "internalType": "bytes32",
          "name": "",
          "type": "bytes32"
        }
      ],
      "stateMutability": "view",
      "type": "function"
    },
    {
      "inputs": [
        {
          "internalType": "address",
          "name": "_arbitrator",
          "type": "address"
        }
      ],
      "name": "removeArbitrator",
      "outputs": [],
      "stateMutability": "nonpayable",
      "type": "function"
    },
    {
      "inputs": [
        {
          "internalType": "bytes32",
          "name": "role",
          "type": "bytes32"
        },
        {
          "internalType": "address",
          "name": "account",
          "type": "address"
        }
      ],
      "name": "renounceRole",
      "outputs": [],
      "stateMutability": "nonpayable",
      "type": "function"
    },
    {
      "inputs": [
        {
          "internalType": "bytes32",
          "name": "role",
          "type": "bytes32"
        },
        {
          "internalType": "address",
          "name": "account",
          "type": "address"
        }
      ],
      "name": "revokeRole",
      "outputs": [],
      "stateMutability": "nonpayable",
      "type": "function"
    },
    {
      "inputs": [
        {
          "internalType": "address",
          "name": "from",
          "type": "address"
        },
        {
          "internalType": "address",
          "name": "to",
          "type": "address"
        },
        {
          "internalType": "uint256",
          "name": "tokenId",
          "type": "uint256"
        }
      ],
      "name": "safeTransferFrom",
      "outputs": [],
      "stateMutability": "nonpayable",
      "type": "function"
    },
    {
      "inputs": [
        {
          "internalType": "address",
          "name": "from",
          "type": "address"
        },
        {
          "internalType": "address",
          "name": "to",
          "type": "address"
        },
        {
          "internalType": "uint256",
          "name": "tokenId",
          "type": "uint256"
        },
        {
          "internalType": "bytes",
          "name": "data",
          "type": "bytes"
        }
      ],
      "name": "safeTransferFrom",
      "outputs": [],
      "stateMutability": "nonpayable",
      "type": "function"
    },
    {
      "inputs": [
        {
          "internalType": "address",
          "name": "operator",
          "type": "address"
        },
        {
          "internalType": "bool",
          "name": "approved",
          "type": "bool"
        }
      ],
      "name": "setApprovalForAll",
      "outputs": [],
      "stateMutability": "nonpayable",
      "type": "function"
    },
    {
      "inputs": [
        {
          "internalType": "bytes4",
          "name": "interfaceId",
          "type": "bytes4"
        }
      ],
      "name": "supportsInterface",
      "outputs": [
        {
          "internalType": "bool",
          "name": "",
          "type": "bool"
        }
      ],
      "stateMutability": "view",
      "type": "function"
    },
    {
      "inputs": [],
      "name": "symbol",
      "outputs": [
        {
          "internalType": "string",
          "name": "",
          "type": "string"
        }
      ],
      "stateMutability": "view",
      "type": "function"
    },
    {
      "inputs": [
        {
          "internalType": "string",
          "name": "",
          "type": "string"
        }
      ],
      "name": "takenNames",
      "outputs": [
        {
          "internalType": "bool",
          "name": "",
          "type": "bool"
        }
      ],
      "stateMutability": "view",
      "type": "function"
    },
    {
      "inputs": [
        {
          "internalType": "uint256",
          "name": "tokenId",
          "type": "uint256"
        }
      ],
      "name": "tokenURI",
      "outputs": [
        {
          "internalType": "string",
          "name": "",
          "type": "string"
        }
      ],
      "stateMutability": "view",
      "type": "function"
    },
    {
      "inputs": [],
      "name": "totalSupply",
      "outputs": [
        {
          "internalType": "uint256",
          "name": "",
          "type": "uint256"
        }
      ],
      "stateMutability": "view",
      "type": "function"
    },
    {
      "inputs": [
        {
          "internalType": "address",
          "name": "from",
          "type": "address"
        },
        {
          "internalType": "address",
          "name": "to",
          "type": "address"
        },
        {
          "internalType": "uint256",
          "name": "tokenId",
          "type": "uint256"
        }
      ],
      "name": "transferFrom",
      "outputs": [],
      "stateMutability": "nonpayable",
      "type": "function"
    },
    {
      "inputs": [
        {
          "internalType": "uint256",
          "name": "_platformId",
          "type": "uint256"
        },
        {
          "internalType": "uint256",
          "name": "_arbitrationFeeTimeout",
          "type": "uint256"
        }
      ],
      "name": "updateArbitrationFeeTimeout",
      "outputs": [],
      "stateMutability": "nonpayable",
      "type": "function"
    },
    {
      "inputs": [
        {
          "internalType": "uint256",
          "name": "_platformId",
          "type": "uint256"
        },
        {
          "internalType": "contract Arbitrator",
          "name": "_arbitrator",
          "type": "address"
        },
        {
          "internalType": "bytes",
          "name": "_extraData",
          "type": "bytes"
        }
      ],
      "name": "updateArbitrator",
      "outputs": [],
      "stateMutability": "nonpayable",
      "type": "function"
    },
    {
      "inputs": [
        {
          "internalType": "uint256",
          "name": "_minArbitrationFeeTimeout",
          "type": "uint256"
        }
      ],
      "name": "updateMinArbitrationFeeTimeout",
      "outputs": [],
      "stateMutability": "nonpayable",
      "type": "function"
    },
    {
      "inputs": [
        {
          "internalType": "uint256",
          "name": "_mintFee",
          "type": "uint256"
        }
      ],
      "name": "updateMintFee",
      "outputs": [],
      "stateMutability": "nonpayable",
      "type": "function"
    },
    {
      "inputs": [
        {
          "internalType": "uint256",
          "name": "_platformId",
          "type": "uint256"
        },
        {
          "internalType": "uint16",
          "name": "_originServiceFeeRate",
          "type": "uint16"
        }
      ],
      "name": "updateOriginServiceFeeRate",
      "outputs": [],
      "stateMutability": "nonpayable",
      "type": "function"
    },
    {
      "inputs": [
        {
          "internalType": "uint256",
          "name": "_platformId",
          "type": "uint256"
        },
        {
          "internalType": "uint16",
          "name": "_originValidatedProposalFeeRate",
          "type": "uint16"
        }
      ],
      "name": "updateOriginValidatedProposalFeeRate",
      "outputs": [],
      "stateMutability": "nonpayable",
      "type": "function"
    },
    {
      "inputs": [
        {
          "internalType": "uint256",
          "name": "_platformId",
          "type": "uint256"
        },
        {
          "internalType": "string",
          "name": "_newCid",
          "type": "string"
        }
      ],
      "name": "updateProfileData",
      "outputs": [],
      "stateMutability": "nonpayable",
      "type": "function"
    },
    {
      "inputs": [
        {
          "internalType": "bytes32",
          "name": "_newRoot",
          "type": "bytes32"
        }
      ],
      "name": "updateRecoveryRoot",
      "outputs": [],
      "stateMutability": "nonpayable",
      "type": "function"
    },
    {
      "inputs": [
        {
          "internalType": "address",
          "name": "newImplementation",
          "type": "address"
        }
      ],
      "name": "upgradeTo",
      "outputs": [],
      "stateMutability": "nonpayable",
      "type": "function"
    },
    {
      "inputs": [
        {
          "internalType": "address",
          "name": "newImplementation",
          "type": "address"
        },
        {
          "internalType": "bytes",
          "name": "data",
          "type": "bytes"
        }
      ],
      "name": "upgradeToAndCall",
      "outputs": [],
      "stateMutability": "payable",
      "type": "function"
    },
    {
      "inputs": [
        {
          "internalType": "address",
          "name": "",
          "type": "address"
        }
      ],
      "name": "validArbitrators",
      "outputs": [
        {
          "internalType": "bool",
          "name": "",
          "type": "bool"
        }
      ],
      "stateMutability": "view",
      "type": "function"
    },
    {
      "inputs": [],
      "name": "withdraw",
      "outputs": [],
      "stateMutability": "nonpayable",
      "type": "function"
    }
  ],
  "bytecode": "0x60a0604052306080523480156200001557600080fd5b506200002062000026565b620000e8565b600054610100900460ff1615620000935760405162461bcd60e51b815260206004820152602760248201527f496e697469616c697a61626c653a20636f6e747261637420697320696e697469604482015266616c697a696e6760c81b606482015260840160405180910390fd5b60005460ff9081161015620000e6576000805460ff191660ff9081179091556040519081527f7f26b83ff96e1f2b6a682f133852f6798a09c465da95921460cefb38474024989060200160405180910390a15b565b608051615b9b6200012060003960008181610dab01528181610deb015281816111520152818161119201526112210152615b9b6000f3fe60806040526004361061031a5760003560e01c806384017e52116101ab578063c37e154e116100f7578063e58378bb11610095578063f160068f1161006f578063f160068f146109a1578063f577a500146109c1578063f6f37844146109e1578063faa992d3146109f857600080fd5b8063e58378bb14610902578063e985e9c514610936578063e9a9c8501461097f57600080fd5b8063d547741f116100d1578063d547741f1461087e578063d85d3d271461089e578063dc33e681146108b1578063de829592146108d157600080fd5b8063c37e154e1461082b578063c87b56dd1461083e578063cb8faafa1461085e57600080fd5b8063a217fddf11610164578063a4f524a91161013e578063a4f524a91461079a578063aa44caaf146107ba578063acd63f1b146107da578063b88d4fde1461080b57600080fd5b8063a217fddf14610729578063a22cb4651461073e578063a383c6921461075e57600080fd5b806384017e52146106745780638e6e53971461069457806391d14854146106b457806395d89b41146106d4578063973ad270146106e957806399ded4441461070957600080fd5b80633659cfe61161026a57806348203b30116102235780635bd22c98116101fd5780635bd22c98146105f25780636352211e1461061f57806370a082311461063f5780638129fc1c1461065f57600080fd5b806348203b30146105995780634f1ef286146105ca57806352d1902d146105dd57600080fd5b80633659cfe6146105045780633ccfd60b146105245780633ce12f6d146105395780633d459389146105595780633e6acfe01461057957806342842e0e1461047457600080fd5b806313966db5116102d757806323b872dd116102b157806323b872dd14610474578063248a9ca3146104945780632f2ff15d146104c457806336568abe146104e457600080fd5b806313966db51461042357806318160ddd1461044857806319aeca931461045d57600080fd5b806301c32c851461031f57806301ffc9a71461034157806306fdde0314610376578063081812fc14610398578063095ea7b3146103d057806311f82192146103f0575b600080fd5b34801561032b57600080fd5b5061033f61033a3660046135a4565b610a2c565b005b34801561034d57600080fd5b5061036161035c3660046135d3565b610a75565b60405190151581526020015b60405180910390f35b34801561038257600080fd5b5061038b610a95565b60405161036d9190613648565b3480156103a457600080fd5b506103b86103b33660046135a4565b610b27565b6040516001600160a01b03909116815260200161036d565b3480156103dc57600080fd5b5061033f6103eb366004613670565b610b4e565b3480156103fc57600080fd5b5061041061040b3660046135a4565b610c69565b60405161ffff909116815260200161036d565b34801561042f57600080fd5b5061043a6101335481565b60405190815260200161036d565b34801561045457600080fd5b5061043a610cb3565b34801561046957600080fd5b5061043a61012d5481565b34801561048057600080fd5b5061033f61048f36600461369c565b610cc7565b3480156104a057600080fd5b5061043a6104af3660046135a4565b60009081526097602052604090206001015490565b3480156104d057600080fd5b5061033f6104df3660046136dd565b610cfd565b3480156104f057600080fd5b5061033f6104ff3660046136dd565b610d22565b34801561051057600080fd5b5061033f61051f36600461370d565b610da0565b34801561053057600080fd5b5061033f610e80565b34801561054557600080fd5b5061033f6105543660046135a4565b610f23565b34801561056557600080fd5b506104106105743660046135a4565b610f35565b34801561058557600080fd5b5061033f6105943660046137cd565b610f85565b3480156105a557600080fd5b506103616105b436600461370d565b6101316020526000908152604090205460ff1681565b61033f6105d8366004613826565b611147565b3480156105e957600080fd5b5061043a611214565b3480156105fe57600080fd5b5061061261060d3660046135a4565b6112c7565b60405161036d9190613876565b34801561062b57600080fd5b506103b861063a3660046135a4565b611575565b34801561064b57600080fd5b5061043a61065a36600461370d565b6115d5565b34801561066b57600080fd5b5061033f61165b565b34801561068057600080fd5b5061033f61068f3660046135a4565b61186a565b3480156106a057600080fd5b5061033f6106af366004613930565b6118ab565b3480156106c057600080fd5b506103616106cf3660046136dd565b611934565b3480156106e057600080fd5b5061038b61195f565b3480156106f557600080fd5b5061033f61070436600461370d565b61196e565b34801561071557600080fd5b5061033f610724366004613930565b6119b2565b34801561073557600080fd5b5061043a600081565b34801561074a57600080fd5b5061033f61075936600461395c565b611a45565b34801561076a57600080fd5b5061036161077936600461398f565b805160208183018101805161012e8252928201919093012091525460ff1681565b3480156107a657600080fd5b5061033f6107b53660046139c4565b611a50565b3480156107c657600080fd5b5061043a6107d536600461370d565b611b3c565b3480156107e657600080fd5b506103616107f536600461370d565b6101326020526000908152604090205460ff1681565b34801561081757600080fd5b5061033f6108263660046139e6565b611b8f565b61033f610839366004613a52565b611c0d565b34801561084a57600080fd5b5061038b6108593660046135a4565b611d7e565b34801561086a57600080fd5b5061033f61087936600461395c565b611d89565b34801561088a57600080fd5b5061033f6108993660046136dd565b611dda565b61033f6108ac36600461398f565b611dff565b3480156108bd57600080fd5b5061043a6108cc36600461370d565b611f64565b3480156108dd57600080fd5b506103616108ec36600461370d565b6101306020526000908152604090205460ff1681565b34801561090e57600080fd5b5061043a7fb19546dff01e856fb3f010c267a7b1c60363cf8a4664e21cc89c26224620214e81565b34801561094257600080fd5b50610361610951366004613a99565b6001600160a01b039182166000908152606a6020908152604080832093909416825291909152205460ff1690565b34801561098b57600080fd5b5061043a600080516020615b1f83398151915281565b3480156109ad57600080fd5b5061033f6109bc366004613ac7565b611f6f565b3480156109cd57600080fd5b5061033f6109dc3660046135a4565b612053565b3480156109ed57600080fd5b5061043a6101345481565b348015610a0457600080fd5b50610a18610a133660046135a4565b612081565b60405161036d989796959493929190613af8565b6000610a3781612276565b6101348290556040518281527fa39eb462f98ec2e2a17ca5c7f2a0a247d212213bf0c78a6e2a3df704911ef601906020015b60405180910390a15050565b6000610a8082612280565b80610a8f5750610a8f826122d0565b92915050565b606060658054610aa490613b71565b80601f0160208091040260200160405190810160405280929190818152602001828054610ad090613b71565b8015610b1d5780601f10610af257610100808354040283529160200191610b1d565b820191906000526020600020905b815481529060010190602001808311610b0057829003601f168201915b5050505050905090565b6000610b32826122f5565b506000908152606960205260409020546001600160a01b031690565b6000610b5982611575565b9050806001600160a01b0316836001600160a01b03161415610bcc5760405162461bcd60e51b815260206004820152602160248201527f4552433732313a20617070726f76616c20746f2063757272656e74206f776e656044820152603960f91b60648201526084015b60405180910390fd5b336001600160a01b0382161480610be85750610be88133610951565b610c5a5760405162461bcd60e51b815260206004820152603d60248201527f4552433732313a20617070726f76652063616c6c6572206973206e6f7420746f60448201527f6b656e206f776e6572206f7220617070726f76656420666f7220616c6c0000006064820152608401610bc3565b610c648383612354565b505050565b60008082118015610c7c57506101355482105b610c985760405162461bcd60e51b8152600401610bc390613bac565b50600090815261012f602052604090206003015461ffff1690565b60006001610cc16101355490565b03905090565b60405162461bcd60e51b815260206004820152600b60248201526a139bdd08185b1b1bddd95960aa1b6044820152606401610bc3565b600082815260976020526040902060010154610d1881612276565b610c6483836123c2565b6001600160a01b0381163314610d925760405162461bcd60e51b815260206004820152602f60248201527f416363657373436f6e74726f6c3a2063616e206f6e6c792072656e6f756e636560448201526e103937b632b9903337b91039b2b63360891b6064820152608401610bc3565b610d9c8282612448565b5050565b306001600160a01b037f0000000000000000000000000000000000000000000000000000000000000000161415610de95760405162461bcd60e51b8152600401610bc390613bd9565b7f00000000000000000000000000000000000000000000000000000000000000006001600160a01b0316610e32600080516020615abf833981519152546001600160a01b031690565b6001600160a01b031614610e585760405162461bcd60e51b8152600401610bc390613c25565b610e61816124af565b60408051600080825260208201909252610e7d918391906124d9565b50565b6000610e8b81612276565b604051600090339047908381818185875af1925050503d8060008114610ecd576040519150601f19603f3d011682016040523d82523d6000602084013e610ed2565b606091505b5050905080610d9c5760405162461bcd60e51b815260206004820152601860248201527f4661696c656420746f20776974686472617720457468657200000000000000006044820152606401610bc3565b6000610f2e81612276565b5061012d55565b60008082118015610f4857506101355482105b610f645760405162461bcd60e51b8152600401610bc390613bac565b50600090815261012f602052604090206003015462010000900461ffff1690565b33610f8f84611575565b6001600160a01b031614610fb55760405162461bcd60e51b8152600401610bc390613c71565b6001600160a01b0382166000908152610131602052604090205460ff166110305760405162461bcd60e51b815260206004820152602960248201527f5468652061646472657373206d757374206265206f6620612076616c69642061604482015268393134ba3930ba37b960b91b6064820152608401610bc3565b600083815261012f602090815260408083206003018054640100000000600160c01b0319166401000000006001600160a01b03881690810291909117909155835261013290915290205460ff16156110c95760408051602081018590520160408051601f19818403018152918152600085815261012f602090815291902082516110c3936004909201929091019061350b565b506110f1565b600083815261012f6020908152604090912082516110ef9260049092019184019061350b565b505b7f4f1d179d53629f07a3ca3cde19840349df6dadc8fc11ac201c272ec77b8673d2838361012f600087815260200190815260200160002060040160405161113a93929190613cb6565b60405180910390a1505050565b306001600160a01b037f00000000000000000000000000000000000000000000000000000000000000001614156111905760405162461bcd60e51b8152600401610bc390613bd9565b7f00000000000000000000000000000000000000000000000000000000000000006001600160a01b03166111d9600080516020615abf833981519152546001600160a01b031690565b6001600160a01b0316146111ff5760405162461bcd60e51b8152600401610bc390613c25565b611208826124af565b610d9c828260016124d9565b6000306001600160a01b037f000000000000000000000000000000000000000000000000000000000000000016146112b45760405162461bcd60e51b815260206004820152603860248201527f555550535570677261646561626c653a206d757374206e6f742062652063616c60448201527f6c6564207468726f7567682064656c656761746563616c6c00000000000000006064820152608401610bc3565b50600080516020615abf83398151915290565b611320604051806101000160405280600081526020016060815260200160608152602001600061ffff168152602001600061ffff16815260200160006001600160a01b0316815260200160608152602001600081525090565b60008211801561133257506101355482105b61134e5760405162461bcd60e51b8152600401610bc390613bac565b61012f6000838152602001908152602001600020604051806101000160405290816000820154815260200160018201805461138890613b71565b80601f01602080910402602001604051908101604052809291908181526020018280546113b490613b71565b80156114015780601f106113d657610100808354040283529160200191611401565b820191906000526020600020905b8154815290600101906020018083116113e457829003601f168201915b5050505050815260200160028201805461141a90613b71565b80601f016020809104026020016040519081016040528092919081815260200182805461144690613b71565b80156114935780601f1061146857610100808354040283529160200191611493565b820191906000526020600020905b81548152906001019060200180831161147657829003601f168201915b5050509183525050600382015461ffff808216602084015262010000820416604083015264010000000090046001600160a01b031660608201526004820180546080909201916114e290613b71565b80601f016020809104026020016040519081016040528092919081815260200182805461150e90613b71565b801561155b5780601f106115305761010080835404028352916020019161155b565b820191906000526020600020905b81548152906001019060200180831161153e57829003601f168201915b505050505081526020016005820154815250509050919050565b6000818152606760205260408120546001600160a01b031680610a8f5760405162461bcd60e51b8152602060048201526018602482015277115490cdcc8c4e881a5b9d985b1a59081d1bdad95b88125160421b6044820152606401610bc3565b60006001600160a01b03821661163f5760405162461bcd60e51b815260206004820152602960248201527f4552433732313a2061646472657373207a65726f206973206e6f7420612076616044820152683634b21037bbb732b960b91b6064820152608401610bc3565b506001600160a01b031660009081526068602052604090205490565b600054610100900460ff161580801561167b5750600054600160ff909116105b806116955750303b158015611695575060005460ff166001145b6116f85760405162461bcd60e51b815260206004820152602e60248201527f496e697469616c697a61626c653a20636f6e747261637420697320616c72656160448201526d191e481a5b9a5d1a585b1a5e995960921b6064820152608401610bc3565b6000805460ff19166001179055801561171b576000805461ff0019166101001790555b61176e6040518060400160405280601581526020017415185b195b9d13185e595c941b185d199bdc9b5251605a1b815250604051806040016040528060048152602001631514125160e21b815250612653565b611776612684565b61177e612684565b6117896000336126ad565b6117a1600080516020615b1f833981519152336126ad565b6117cb7fb19546dff01e856fb3f010c267a7b1c60363cf8a4664e21cc89c26224620214e336126ad565b600061013381905580526101316020527fc89e058731e12d86caa7d1a92ed6ad81add9251da5be3f2f275c9cf1739b2fa3805460ff1916600117905561181362015180610a2c565b61182261013580546001019055565b8015610e7d576000805461ff0019169055604051600181527f7f26b83ff96e1f2b6a682f133852f6798a09c465da95921460cefb38474024989060200160405180910390a150565b600061187581612276565b6101338290556040518281527f38fbb1c8b109c430f0c030e7ed076cf5611a307773a4e8e365601e8f8bceaec690602001610a69565b336118b583611575565b6001600160a01b0316146118db5760405162461bcd60e51b8152600401610bc390613c71565b600082815261012f6020908152604091829020600301805461ffff191661ffff85169081179091558251858152918201527f03c3aa7c7830e29d1571bfe33dc72a8b8e0297dd6fdf26ef720dee976e21125a9101610a69565b60009182526097602090815260408084206001600160a01b0393909316845291905290205460ff1690565b606060668054610aa490613b71565b600061197981612276565b506001600160a01b0316600090815261013160209081526040808320805460ff1990811690915561013290925290912080549091169055565b336119bc83611575565b6001600160a01b0316146119e25760405162461bcd60e51b8152600401610bc390613c71565b600082815261012f6020908152604091829020600301805463ffff000019166201000061ffff8616908102919091179091558251858152918201527fffeae29561efc186d4d5241d242f7e2b4a76f114ea5de0db37fbd19c3b1913a59101610a69565b610d9c3383836126b7565b33611a5a83611575565b6001600160a01b031614611a805760405162461bcd60e51b8152600401610bc390613c71565b61013454811015611af05760405162461bcd60e51b815260206004820152603460248201527f5468652074696d656f7574206d7573742062652067726561746572207468616e604482015273081d1a19481b5a5b9a5b5d5b481d1a5b595bdd5d60621b6064820152608401610bc3565b600082815261012f602090815260409182902060050183905581518481529081018390527face552c85eed7b5cf46330833e6f28b1f5ce696a4532e483192b5a64e4565e599101610a69565b600060015b61013554811015611b86576000818152606760205260409020546001600160a01b0384811691161415611b745792915050565b80611b7e81613d8c565b915050611b41565b50600092915050565b611b993383612786565b611bfb5760405162461bcd60e51b815260206004820152602d60248201527f4552433732313a2063616c6c6572206973206e6f7420746f6b656e206f776e6560448201526c1c881bdc88185c1c1c9bdd9959609a1b6064820152608401610bc3565b611c0784848484612805565b50505050565b8181610133543414611c315760405162461bcd60e51b8152600401610bc390613da7565b611c3a81611f64565b15611c575760405162461bcd60e51b8152600401610bc390613deb565b600282511015611c9a5760405162461bcd60e51b815260206004820152600e60248201526d13985b59481d1bdbc81cda1bdc9d60921b6044820152606401610bc3565b600a82511115611cdc5760405162461bcd60e51b815260206004820152600d60248201526c4e616d6520746f6f206c6f6e6760981b6044820152606401610bc3565b61012e82604051611ced9190613e49565b9081526040519081900360200190205460ff1615611d425760405162461bcd60e51b81526020600482015260126024820152712730b6b29030b63932b0b23c903a30b5b2b760711b6044820152606401610bc3565b600080516020615b1f833981519152611d5a81612276565b611d6d84611d686101355490565b612838565b611d778585612852565b5050505050565b6060610a8f8261292b565b6000611d9481612276565b506001600160a01b03909116600090815261013160209081526040808320805460ff19908116600117909155610132909252909120805492151592909116919091179055565b600082815260976020526040902060010154611df581612276565b610c648383612448565b8033610133543414611e235760405162461bcd60e51b8152600401610bc390613da7565b611e2c81611f64565b15611e495760405162461bcd60e51b8152600401610bc390613deb565b600282511015611e8c5760405162461bcd60e51b815260206004820152600e60248201526d13985b59481d1bdbc81cda1bdc9d60921b6044820152606401610bc3565b600a82511115611ece5760405162461bcd60e51b815260206004820152600d60248201526c4e616d6520746f6f206c6f6e6760981b6044820152606401610bc3565b61012e82604051611edf9190613e49565b9081526040519081900360200190205460ff1615611f345760405162461bcd60e51b81526020600482015260126024820152712730b6b29030b63932b0b23c903a30b5b2b760711b6044820152606401610bc3565b600080516020615b1f833981519152611f4c81612276565b611f5a33611d686101355490565b611c078433612852565b6000610a8f826115d5565b33611f7983611575565b6001600160a01b031614611f9f5760405162461bcd60e51b8152600401610bc390613c71565b6000815111611ff05760405162461bcd60e51b815260206004820152601f60248201527f53686f756c642070726f7669646520612076616c6964204950465320555249006044820152606401610bc3565b600082815261012f6020908152604090912082516120169260029092019184019061350b565b50817f613807bd6768f626264e7eb664a65ca99a0d930f8fd8a5b868491a592eb57f72826040516120479190613648565b60405180910390a25050565b60008111801561206557506101355481105b610e7d5760405162461bcd60e51b8152600401610bc390613bac565b61012f60205260009081526040902080546001820180549192916120a490613b71565b80601f01602080910402602001604051908101604052809291908181526020018280546120d090613b71565b801561211d5780601f106120f25761010080835404028352916020019161211d565b820191906000526020600020905b81548152906001019060200180831161210057829003601f168201915b50505050509080600201805461213290613b71565b80601f016020809104026020016040519081016040528092919081815260200182805461215e90613b71565b80156121ab5780601f10612180576101008083540402835291602001916121ab565b820191906000526020600020905b81548152906001019060200180831161218e57829003601f168201915b505050506003830154600484018054939461ffff8084169562010000850490911694506401000000009093046001600160a01b0316929091906121ed90613b71565b80601f016020809104026020016040519081016040528092919081815260200182805461221990613b71565b80156122665780601f1061223b57610100808354040283529160200191612266565b820191906000526020600020905b81548152906001019060200180831161224957829003601f168201915b5050505050908060050154905088565b610e7d8133612a56565b60006001600160e01b031982166380ac58cd60e01b14806122b157506001600160e01b03198216635b5e139f60e01b145b80610a8f57506301ffc9a760e01b6001600160e01b0319831614610a8f565b60006001600160e01b03198216637965db0b60e01b1480610a8f5750610a8f82612280565b6000818152606760205260409020546001600160a01b0316610e7d5760405162461bcd60e51b8152602060048201526018602482015277115490cdcc8c4e881a5b9d985b1a59081d1bdad95b88125160421b6044820152606401610bc3565b600081815260696020526040902080546001600160a01b0319166001600160a01b038416908117909155819061238982611575565b6001600160a01b03167f8c5be1e5ebec7d5bd14f71427d1e84f3dd0314c0f7b2291e5b200ac8c7c3b92560405160405180910390a45050565b6123cc8282611934565b610d9c5760008281526097602090815260408083206001600160a01b03851684529091529020805460ff191660011790556124043390565b6001600160a01b0316816001600160a01b0316837f2f8788117e7eff1d82e926ec794901d17c78024a50270940304540a733656f0d60405160405180910390a45050565b6124528282611934565b15610d9c5760008281526097602090815260408083206001600160a01b0385168085529252808320805460ff1916905551339285917ff6391f5c32d9c69d2a47ea670b442974b53935d1edc7fd64eb21e047a839171b9190a45050565b7fb19546dff01e856fb3f010c267a7b1c60363cf8a4664e21cc89c26224620214e610d9c81612276565b7f4910fdfa16fed3260ed0e7147f7cc6da11a60208b5b9406d12a635614ffd91435460ff161561250c57610c6483612aaf565b826001600160a01b03166352d1902d6040518163ffffffff1660e01b815260040160206040518083038186803b15801561254557600080fd5b505afa925050508015612575575060408051601f3d908101601f1916820190925261257291810190613e65565b60015b6125d85760405162461bcd60e51b815260206004820152602e60248201527f45524331393637557067726164653a206e657720696d706c656d656e7461746960448201526d6f6e206973206e6f74205555505360901b6064820152608401610bc3565b600080516020615abf83398151915281146126475760405162461bcd60e51b815260206004820152602960248201527f45524331393637557067726164653a20756e737570706f727465642070726f786044820152681a58589b195555525160ba1b6064820152608401610bc3565b50610c64838383612b4b565b600054610100900460ff1661267a5760405162461bcd60e51b8152600401610bc390613e7e565b610d9c8282612b70565b600054610100900460ff166126ab5760405162461bcd60e51b8152600401610bc390613e7e565b565b610d9c82826123c2565b816001600160a01b0316836001600160a01b031614156127195760405162461bcd60e51b815260206004820152601960248201527f4552433732313a20617070726f766520746f2063616c6c6572000000000000006044820152606401610bc3565b6001600160a01b038381166000818152606a6020908152604080832094871680845294825291829020805460ff191686151590811790915591519182527f17307eab39ab6107e8899845ad3d59bd9653f200f220920489ca2b5937696c31910160405180910390a3505050565b60008061279283611575565b9050806001600160a01b0316846001600160a01b031614806127d957506001600160a01b038082166000908152606a602090815260408083209388168352929052205460ff165b806127fd5750836001600160a01b03166127f284610b27565b6001600160a01b0316145b949350505050565b612810848484612bbe565b61281c84848484612d2f565b611c075760405162461bcd60e51b8152600401610bc390613ec9565b610d9c828260405180602001604052806000815250612e3c565b600061285e6101355490565b905061286f61013580546001019055565b600081815261012f602090815260409091208451909161289691600184019187019061350b565b5081815561013454600582015560405160019061012e906128b8908790613e49565b908152604051908190036020018120805492151560ff199093169290921790915561013354610134546001600160a01b038616927f8475f1ba3b06c1e11c870cbbf9753ca9a8292ea0b203262f682de476dc268f8c9261291d9287928a929190613f1b565b60405180910390a250505050565b600081815261012f602052604081206001018054606092919061294d90613b71565b80601f016020809104026020016040519081016040528092919081815260200182805461297990613b71565b80156129c65780601f1061299b576101008083540402835291602001916129c6565b820191906000526020600020905b8154815290600101906020018083116129a957829003601f168201915b5050505050905060006129f7826040516020016129e39190613f47565b604051602081830303815290604052612e6f565b604051602001612a0791906157e6565b6040516020818303038152906040529050612a2e82826040516020016129e392919061582b565b604051602001612a3e91906158c8565b60405160208183030381529060405292505050919050565b612a608282611934565b610d9c57612a6d81612fc3565b612a78836020612fd5565b604051602001612a8992919061590d565b60408051601f198184030181529082905262461bcd60e51b8252610bc391600401613648565b6001600160a01b0381163b612b1c5760405162461bcd60e51b815260206004820152602d60248201527f455243313936373a206e657720696d706c656d656e746174696f6e206973206e60448201526c1bdd08184818dbdb9d1c9858dd609a1b6064820152608401610bc3565b600080516020615abf83398151915280546001600160a01b0319166001600160a01b0392909216919091179055565b612b5483613178565b600082511180612b615750805b15610c6457611c0783836131b8565b600054610100900460ff16612b975760405162461bcd60e51b8152600401610bc390613e7e565b8151612baa90606590602085019061350b565b508051610c6490606690602084019061350b565b826001600160a01b0316612bd182611575565b6001600160a01b031614612bf75760405162461bcd60e51b8152600401610bc390615982565b6001600160a01b038216612c595760405162461bcd60e51b8152602060048201526024808201527f4552433732313a207472616e7366657220746f20746865207a65726f206164646044820152637265737360e01b6064820152608401610bc3565b612c6683838360016132ac565b826001600160a01b0316612c7982611575565b6001600160a01b031614612c9f5760405162461bcd60e51b8152600401610bc390615982565b600081815260696020908152604080832080546001600160a01b03199081169091556001600160a01b0387811680865260688552838620805460001901905590871680865283862080546001019055868652606790945282852080549092168417909155905184937fddf252ad1be2c89b69c2b068fc378daa952ba7f163c4a11628f55a4df523b3ef91a4505050565b60006001600160a01b0384163b15612e3157604051630a85bd0160e11b81526001600160a01b0385169063150b7a0290612d739033908990889088906004016159c7565b602060405180830381600087803b158015612d8d57600080fd5b505af1925050508015612dbd575060408051601f3d908101601f19168201909252612dba91810190615a04565b60015b612e17573d808015612deb576040519150601f19603f3d011682016040523d82523d6000602084013e612df0565b606091505b508051612e0f5760405162461bcd60e51b8152600401610bc390613ec9565b805181602001fd5b6001600160e01b031916630a85bd0160e11b1490506127fd565b506001949350505050565b612e468383613334565b612e536000848484612d2f565b610c645760405162461bcd60e51b8152600401610bc390613ec9565b6060815160001415612e8f57505060408051602081019091526000815290565b6000604051806060016040528060408152602001615adf6040913990506000600384516002612ebe9190615a21565b612ec89190615a39565b612ed3906004615a5b565b67ffffffffffffffff811115612eeb57612eeb61372a565b6040519080825280601f01601f191660200182016040528015612f15576020820181803683370190505b509050600182016020820185865187015b80821015612f81576003820191508151603f8160121c168501518453600184019350603f81600c1c168501518453600184019350603f8160061c168501518453600184019350603f8116850151845350600183019250612f26565b5050600386510660018114612f9d5760028114612fb057612fb8565b603d6001830353603d6002830353612fb8565b603d60018303535b509195945050505050565b6060610a8f6001600160a01b03831660145b60606000612fe4836002615a5b565b612fef906002615a21565b67ffffffffffffffff8111156130075761300761372a565b6040519080825280601f01601f191660200182016040528015613031576020820181803683370190505b509050600360fc1b8160008151811061304c5761304c615a7a565b60200101906001600160f81b031916908160001a905350600f60fb1b8160018151811061307b5761307b615a7a565b60200101906001600160f81b031916908160001a905350600061309f846002615a5b565b6130aa906001615a21565b90505b6001811115613122576f181899199a1a9b1b9c1cb0b131b232b360811b85600f16601081106130de576130de615a7a565b1a60f81b8282815181106130f4576130f4615a7a565b60200101906001600160f81b031916908160001a90535060049490941c9361311b81615a90565b90506130ad565b5083156131715760405162461bcd60e51b815260206004820181905260248201527f537472696e67733a20686578206c656e67746820696e73756666696369656e746044820152606401610bc3565b9392505050565b61318181612aaf565b6040516001600160a01b038216907fbc7cd75a20ee27fd9adebab32041f755214dbc6bffa90cc0225b39da2e5c2d3b90600090a250565b60606001600160a01b0383163b6132205760405162461bcd60e51b815260206004820152602660248201527f416464726573733a2064656c65676174652063616c6c20746f206e6f6e2d636f6044820152651b9d1c9858dd60d21b6064820152608401610bc3565b600080846001600160a01b03168460405161323b9190613e49565b600060405180830381855af49150503d8060008114613276576040519150601f19603f3d011682016040523d82523d6000602084013e61327b565b606091505b50915091506132a38282604051806060016040528060278152602001615b3f602791396134cd565b95945050505050565b6001811115611c07576001600160a01b038416156132f2576001600160a01b038416600090815260686020526040812080548392906132ec908490615aa7565b90915550505b6001600160a01b03831615611c07576001600160a01b03831660009081526068602052604081208054839290613329908490615a21565b909155505050505050565b6001600160a01b03821661338a5760405162461bcd60e51b815260206004820181905260248201527f4552433732313a206d696e7420746f20746865207a65726f20616464726573736044820152606401610bc3565b6000818152606760205260409020546001600160a01b0316156133ef5760405162461bcd60e51b815260206004820152601c60248201527f4552433732313a20746f6b656e20616c7265616479206d696e746564000000006044820152606401610bc3565b6133fd6000838360016132ac565b6000818152606760205260409020546001600160a01b0316156134625760405162461bcd60e51b815260206004820152601c60248201527f4552433732313a20746f6b656e20616c7265616479206d696e746564000000006044820152606401610bc3565b6001600160a01b038216600081815260686020908152604080832080546001019055848352606790915280822080546001600160a01b0319168417905551839291907fddf252ad1be2c89b69c2b068fc378daa952ba7f163c4a11628f55a4df523b3ef908290a45050565b606083156134dc575081613171565b61317183838151156134f15781518083602001fd5b8060405162461bcd60e51b8152600401610bc39190613648565b82805461351790613b71565b90600052602060002090601f016020900481019282613539576000855561357f565b82601f1061355257805160ff191683800117855561357f565b8280016001018555821561357f579182015b8281111561357f578251825591602001919060010190613564565b5061358b92915061358f565b5090565b5b8082111561358b5760008155600101613590565b6000602082840312156135b657600080fd5b5035919050565b6001600160e01b031981168114610e7d57600080fd5b6000602082840312156135e557600080fd5b8135613171816135bd565b60005b8381101561360b5781810151838201526020016135f3565b83811115611c075750506000910152565b600081518084526136348160208601602086016135f0565b601f01601f19169290920160200192915050565b602081526000613171602083018461361c565b6001600160a01b0381168114610e7d57600080fd5b6000806040838503121561368357600080fd5b823561368e8161365b565b946020939093013593505050565b6000806000606084860312156136b157600080fd5b83356136bc8161365b565b925060208401356136cc8161365b565b929592945050506040919091013590565b600080604083850312156136f057600080fd5b8235915060208301356137028161365b565b809150509250929050565b60006020828403121561371f57600080fd5b81356131718161365b565b634e487b7160e01b600052604160045260246000fd5b600082601f83011261375157600080fd5b813567ffffffffffffffff8082111561376c5761376c61372a565b604051601f8301601f19908116603f011681019082821181831017156137945761379461372a565b816040528381528660208588010111156137ad57600080fd5b836020870160208301376000602085830101528094505050505092915050565b6000806000606084860312156137e257600080fd5b8335925060208401356137f48161365b565b9150604084013567ffffffffffffffff81111561381057600080fd5b61381c86828701613740565b9150509250925092565b6000806040838503121561383957600080fd5b82356138448161365b565b9150602083013567ffffffffffffffff81111561386057600080fd5b61386c85828601613740565b9150509250929050565b60208152815160208201526000602083015161010080604085015261389f61012085018361361c565b91506040850151601f19808685030160608701526138bd848361361c565b9350606087015191506138d6608087018361ffff169052565b608087015161ffff811660a0880152915060a08701516001600160a01b03811660c0880152915060c08701519150808685030160e087015250613919838261361c565b92505060e085015181850152508091505092915050565b6000806040838503121561394357600080fd5b82359150602083013561ffff8116811461370257600080fd5b6000806040838503121561396f57600080fd5b823561397a8161365b565b91506020830135801515811461370257600080fd5b6000602082840312156139a157600080fd5b813567ffffffffffffffff8111156139b857600080fd5b6127fd84828501613740565b600080604083850312156139d757600080fd5b50508035926020909101359150565b600080600080608085870312156139fc57600080fd5b8435613a078161365b565b93506020850135613a178161365b565b925060408501359150606085013567ffffffffffffffff811115613a3a57600080fd5b613a4687828801613740565b91505092959194509250565b60008060408385031215613a6557600080fd5b823567ffffffffffffffff811115613a7c57600080fd5b613a8885828601613740565b92505060208301356137028161365b565b60008060408385031215613aac57600080fd5b8235613ab78161365b565b915060208301356137028161365b565b60008060408385031215613ada57600080fd5b82359150602083013567ffffffffffffffff81111561386057600080fd5b60006101008a8352806020840152613b128184018b61361c565b90508281036040840152613b26818a61361c565b61ffff8981166060860152881660808501526001600160a01b03871660a085015283810360c08501529050613b5b818661361c565b9150508260e08301529998505050505050505050565b600181811c90821680613b8557607f821691505b60208210811415613ba657634e487b7160e01b600052602260045260246000fd5b50919050565b602080825260139082015272125b9d985b1a59081c1b185d199bdc9b481251606a1b604082015260600190565b6020808252602c908201527f46756e6374696f6e206d7573742062652063616c6c6564207468726f7567682060408201526b19195b1959d85d1958d85b1b60a21b606082015260800190565b6020808252602c908201527f46756e6374696f6e206d7573742062652063616c6c6564207468726f7567682060408201526b6163746976652070726f787960a01b606082015260800190565b60208082526025908201527f596f75277265206e6f7420746865206f776e6572206f66207468697320706c6160408201526474666f726d60d81b606082015260800190565b8381526000602060018060a01b03851681840152606060408401526000845481600182811c915080831680613cec57607f831692505b858310811415613d0a57634e487b7160e01b85526022600452602485fd5b6060880183905260808801818015613d295760018114613d3a57613d65565b60ff19861682528782019650613d65565b60008b81526020902060005b86811015613d5f57815484820152908501908901613d46565b83019750505b50949b9a5050505050505050505050565b634e487b7160e01b600052601160045260246000fd5b6000600019821415613da057613da0613d76565b5060010190565b60208082526024908201527f496e636f727265637420616d6f756e74206f662045544820666f72206d696e746040820152632066656560e01b606082015260800190565b60208082526022908201527f506c6174666f726d20616c726561647920686173206120506c6174666f726d20604082015261125160f21b606082015260800190565b60008151613e3f8185602086016135f0565b9290920192915050565b60008251613e5b8184602087016135f0565b9190910192915050565b600060208284031215613e7757600080fd5b5051919050565b6020808252602b908201527f496e697469616c697a61626c653a20636f6e7472616374206973206e6f74206960408201526a6e697469616c697a696e6760a81b606082015260800190565b60208082526032908201527f4552433732313a207472616e7366657220746f206e6f6e20455243373231526560408201527131b2b4bb32b91034b6b83632b6b2b73a32b960711b606082015260800190565b848152608060208201526000613f34608083018661361c565b6040830194909452506060015292915050565b7f3c73766720786d6c6e733d22687474703a2f2f7777772e77332e6f72672f323081527f30302f737667222076696577426f783d223020302037323020373230223e3c6460208201527f6566733e3c6c696e6561724772616469656e742069643d2261222078313d223660408201527f372e3934222079313d223136392e3438222078323d223637302e39382220793260608201527f3d223536322e383622206772616469656e74556e6974733d227573657253706160808201527f63654f6e557365223e3c73746f70206f66667365743d2230222073746f702d6360a08201527f6f6c6f723d2223313761396332222f3e3c73746f70206f66667365743d222e3160c08201527f32222073746f702d636f6c6f723d2223316161396263222f3e3c73746f70206f60e08201527f66667365743d222e3239222073746f702d636f6c6f723d2223323561626162226101008201527f2f3e3c73746f70206f66667365743d222e3438222073746f702d636f6c6f723d6101208201527f2223333561643866222f3e3c73746f70206f66667365743d222e3634222073746101408201527f6f702d636f6c6f723d2223343862303732222f3e3c73746f70206f66667365746101608201527f3d222e3738222073746f702d636f6c6f723d2223353962323534222f3e3c73746101808201527f6f70206f66667365743d2231222073746f702d636f6c6f723d222337616237326101a08201527f30222f3e3c2f6c696e6561724772616469656e743e3c2f646566733e3c7061746101c08201527f68207374796c653d2266696c6c3a75726c282361292220643d224d30203068376101e08201527f32307637323048307a222f3e3c7061746820643d224d34372e30352039322e336102008201527f375635332e38344833332e32395634366833362e383576372e38344835362e346102208201527f317633382e3532682d392e33365a6d33352e37312d32332e33342d382e30372d6102408201527f312e3436632e39312d332e323520322e34372d352e363520342e36382d372e326102608201527f3120322e32312d312e353620352e352d322e333420392e38372d322e333420336102808201527f2e3936203020362e39322e343720382e383620312e343120312e39342e3934206102a08201527f332e333120322e313320342e3120332e353773312e313920342e3120312e31396102c08201527f20372e39366c2d2e312031302e3337633020322e39352e313420352e31332e346102e08201527f3320362e35332e323820312e342e383220322e393120312e3620342e3531682d6103008201527f382e3739632d2e32332d2e35392d2e35322d312e34372d2e38352d322e36332d6103208201527f2e31352d2e35332d2e32352d2e38382d2e33322d312e30342d312e353220312e6103408201527f34382d332e313420322e35382d342e383720332e3332732d332e353720312e316103608201527f312d352e353420312e3131632d332e343620302d362e31382d2e39342d382e316103808201527f382d322e38322d312e39392d312e38382d322e39392d342e32352d322e39392d6103a08201527f372e313220302d312e392e34352d332e353920312e33362d352e303873322e316103c08201527f382d322e363320332e38312d332e343220332e39392d312e343820372e30372d6103e08201527f322e303763342e31352d2e373820372e30332d312e353120382e36332d322e316104008201527f38762d2e383963302d312e37312d2e34322d322e39332d312e32372d332e36356104208201527f732d322e34342d312e30392d342e37382d312e3039632d312e353820302d322e6104408201527f38322e33312d332e372e39332d2e38392e36322d312e3620312e37312d322e316104608201527f3520332e32375a6d31312e383920372e3231632d312e31342e33382d322e39346104808201527f2e38332d352e343120312e33362d322e34372e35332d342e303820312e30342d6104a08201527f342e383420312e35352d312e31362e38322d312e373420312e38372d312e37346104c08201527f20332e3133732e343620322e333220312e333920332e3233632e39332e3931206104e08201527f322e313120312e333620332e353420312e333620312e36203020332e31332d2e6105008201527f353320342e35392d312e353820312e30382d2e3820312e37382d312e373820326105208201527f2e31322d322e39342e32332d2e37362e33352d322e322e33352d342e3333762d6105408201527f312e37375a6d31372e34392031362e313356343668382e38397634362e3337686105608201527f2d382e38395a6d33372e34352d31302e363920382e383620312e3439632d312e6105808201527f313420332e32352d322e393420352e37322d352e333920372e3432732d352e356105a08201527f3320322e35352d392e323220322e3535632d352e383420302d31302e31362d316105c08201527f2e39312d31322e39372d352e37322d322e32312d332e30362d332e33322d362e6105e08201527f39322d332e33322d31312e353820302d352e353720312e34362d392e393320346106008201527f2e33362d31332e303820322e39312d332e313520362e35392d342e37332031316106208201527f2e30342d342e37332035203020382e393420312e36352031312e383320342e396106408201527f3573342e323720382e333620342e31342031352e3137682d32322e3237632e306106608201527f3620322e36342e373820342e363920322e313520362e313520312e333720312e6106808201527f343720332e303820322e3220352e313220322e3220312e3339203020322e35366106a08201527f2d2e333820332e35312d312e31342e39352d2e373620312e36372d312e3938206106c08201527f322e31352d332e36375a6d2e35312d382e3938632d2e30362d322e35372d2e376106e08201527f332d342e35332d312e39392d352e38372d312e32372d312e33342d322e38312d6107008201527f322e30312d342e36322d322e30312d312e393420302d332e35342e37312d342e6107208201527f383120322e31322d312e323720312e34312d312e383920332e33332d312e38376107408201527f20352e37366831332e32385a6d34362e36322031392e3637682d382e383956376107608201527f352e323363302d332e36332d2e31392d352e39372d2e35372d372e30342d2e336107808201527f382d312e30362d312d312e38392d312e38352d322e3438732d312e38382d2e386107a08201527f392d332e30382d2e3839632d312e353420302d322e39322e34322d342e3134206107c08201527f312e3237732d322e303620312e39362d322e353120332e3335632d2e343520316107e08201527f2e33392d2e363820332e39362d2e363820372e37327631352e3231682d382e386108008201527f395635382e373868382e323676342e393363322e39332d332e3820362e36322d6108208201527f352e36392031312e30372d352e363920312e3936203020332e37352e333520356108408201527f2e333820312e303620312e36322e373120322e383520312e363120332e3638206108608201527f322e372e383320312e3120312e343120322e333420312e373420332e3733732e6108808201527f343920332e33382e343920352e39387632302e38385a6d32342e34322d33332e6108a08201527f353976372e3038682d362e30375637392e34633020322e37342e303620342e336108c08201527f342e313720342e37392e31322e34352e33382e38332e373920312e31322e34316108e08201527f2e332e39312e343420312e352e34342e3832203020322e30312d2e323820332e6109008201527f35372d2e38356c2e373620362e39632d322e30372e38392d342e343120312e336109208201527f332d372e303220312e33332d312e3620302d332e30352d2e32372d342e33332d6109408201527f2e38312d312e32392d2e35342d322e32332d312e32332d322e38332d322e30396109608201527f2d2e362d2e38352d312e30322d322e30312d312e32352d332e34362d2e31392d6109808201527f312e30332d2e32382d332e31322d2e32382d362e32365636352e3836682d342e6109a08201527f3038762d372e303868342e3038762d362e36376c382e39322d352e31397631316109c08201527f2e383668362e30375a6d362e32362033332e353956343668362e31347634302e6109e08201527f396832322e383476352e3437682d32382e39375a6d35372e34372d342e313463610a008201527f2d322e313120312e37392d342e313420332e30362d362e303920332e382d312e610a208201527f39352e37342d342e303420312e31312d362e323820312e31312d332e36392030610a408201527f2d362e35332d2e392d382e35312d322e372d312e39382d312e382d322e39372d610a608201527f342e31312d322e39372d362e393120302d312e36342e33372d332e313520312e610a808201527f31322d342e353173312e37332d322e343520322e39342d332e323763312e3231610aa08201527f2d2e383220322e35382d312e343420342e312d312e383720312e31322d2e3320610ac08201527f322e382d2e353820352e30362d2e383520342e362d2e353520372e39382d312e610ae08201527f322031302e31352d312e39362e30322d2e37382e30332d312e32382e30332d31610b008201527f2e343920302d322e33322d2e35342d332e39352d312e36312d342e392d312e34610b208201527f362d312e32392d332e36322d312e39332d362e34382d312e39332d322e363820610b408201527f302d342e36352e34372d352e393320312e3431732d322e323220322e362d322e610b608201527f383320342e39386c2d352e35372d2e3736632e35312d322e333820312e33342d610b808201527f342e333120322e352d352e373720312e31362d312e343720322e38342d322e35610ba08201527f3920352e30332d332e333820322e31392d2e373920342e37332d312e31392037610bc08201527f2e36322d312e313973352e322e333420362e393920312e303163312e37392e36610be08201527f3820332e313120312e353220332e393520322e35352e383420312e303220312e610c008201527f343320322e333120312e373720332e38382e31392e39372e323820322e37322e610c208201527f323820352e323576372e3539633020352e32392e313220382e36342e33362031610c408201527f302e30342e323420312e342e373220322e373520312e343420342e3033682d35610c608201527f2e3935632d2e35392d312e31382d2e39372d322e35362d312e31342d342e3134610c808201527f5a6d2d2e34372d31322e3732632d322e30372e38342d352e313720312e35362d610ca08201527f392e3320322e31352d322e33342e33342d34202e37322d342e393720312e3134610cc08201527f2d2e39372e34322d312e373220312e30342d322e323520312e3835732d2e3739610ce08201527f20312e37312d2e373920322e37633020312e35322e353720322e373820312e37610d008201527f3220332e3820312e313520312e303120322e383320312e353220352e30352031610d208201527f2e353273342e31342d2e343820352e38352d312e343420322e39362d322e3237610d408201527f20332e37362d332e3934632e36312d312e32392e39322d332e31382e39322d35610d608201527f2e3639762d322e30395a6d31342e33332032392e382d2e36332d352e33356331610d808201527f2e32342e333420322e33332e353120332e32362e353120312e3237203020322e610da08201527f32382d2e323120332e30342d2e363373312e33382d312e303120312e38372d31610dc08201527f2e3737632e33362d2e35372e39342d312e393820312e37342d342e32342e3131610de08201527f2d2e33322e32372d2e37382e35312d312e33396c2d31322e37352d33332e3635610e008201527f68362e31346c362e39392031392e3435632e393120322e343720312e37322035610e208201527f2e303620322e343420372e37382e36352d322e363120312e34332d352e313720610e408201527f322e33342d372e36356c372e31382d31392e353868352e36396c2d31322e3738610e608201527f2033342e3136632d312e333720332e36392d322e343420362e32332d332e3139610e808201527f20372e36322d312e303120312e38382d322e313720332e32352d332e34382034610ea08201527f2e31332d312e33312e38382d322e383720312e33312d342e363820312e33312d610ec08201527f312e3120302d322e33322d2e32332d332e36372d2e375a6d35352e36332d3233610ee08201527f2e373620352e38382e3733632d2e393320332e34342d322e363520362e312d35610f008201527f2e313620382d322e353120312e392d352e373120322e38352d392e363220322e610f208201527f38352d342e393120302d382e38312d312e35312d31312e36392d342e35342d32610f408201527f2e38382d332e30332d342e33322d372e32372d342e33322d31322e373373312e610f608201527f34362d31302e303420342e33362d31332e313663322e39312d332e313220362e610f808201527f36382d342e36382031312e33322d342e363873382e313620312e35332031312e610fa08201527f303120342e353963322e383520332e303620342e323720372e333620342e3237610fc08201527f2031322e39312030202e33342d2e30312e38342d2e303320312e3532682d3235610fe08201527f2e3035632e323120332e363920312e323520362e353220332e313320382e34386110008201527f20312e383820312e393620342e323220322e393420372e303220322e393420326110208201527f2e3039203020332e38372d2e353520352e33352d312e363420312e34382d312e6110408201527f3120322e36352d322e383520332e35312d352e32355a6d2d31382e36392d392e6110608201527f326831382e3736632d2e32352d322e38332d2e39372d342e39342d322e31352d6110808201527f362e33362d312e38312d322e31392d342e31372d332e32392d372e30352d332e6110a08201527f32392d322e363120302d342e38312e38382d362e3620322e3633732d322e37376110c08201527f20342e30392d322e393620372e30325a6d33312e36362032302e30325635382e6110e08201527f373868352e313276352e303963312e33312d322e333820322e35312d332e39356111008201527f20332e36322d342e373173322e33322d312e313420332e36352d312e313463316111208201527f2e3932203020332e38372e363120352e383520312e38336c2d312e393620352e6111408201527f3238632d312e33392d2e38322d322e37382d312e32332d342e31382d312e32336111608201527f2d312e323420302d322e33362e33372d332e333520312e31322d2e39392e37356111808201527f2d312e3720312e37392d322e313220332e31322d2e363320322e30322d2e39356111a08201527f20342e32342d2e393520362e36347631372e3539682d352e36395a6d32312e376111c08201527f39203056343668392e33367634362e3337682d392e33365a4d3430372e3337206111e08201527f34366831372e313163332e3836203020362e382e3320382e38332e383920322e6112008201527f37322e3820352e303520322e323220362e393920342e323720312e393420322e6112208201527f303520332e343220342e353520342e343320372e353120312e303120322e39366112408201527f20312e353220362e363220312e35322031302e3936203020332e38322d2e34376112608201527f20372e31312d312e343220392e38372d312e313620332e33372d322e383220366112808201527f2e312d342e393720382e31392d312e363220312e35382d332e383220322e38326112a08201527f2d362e353820332e372d322e30372e36352d342e38332e39382d382e32392e396112c08201527f38682d31372e36325634365a6d392e333620372e38347633302e373168362e396112e08201527f3963322e3631203020342e352d2e313520352e36362d2e343420312e35322d2e6113008201527f333820322e37382d312e303220332e37382d312e393320312d2e393120312e386113208201527f322d322e3420322e34352d342e34382e36332d322e30382e39352d342e39312e6113408201527f39352d382e3439732d2e33322d362e33342d2e39352d382e32362d312e35322d6113608201527f332e34322d322e36362d342e34392d322e35382d312e382d342e33332d322e316113808201527f38632d312e33312d2e332d332e38372d2e34342d372e36392d2e3434682d342e6113a08201527f32315a22207374796c653d2266696c6c3a23666666222f3e3c7465787420793d6113c08201527f223637302220783d22333022207374796c653d22666f6e743a373070782073616113e082015273373996b9b2b934b31db334b6361d11b33333111f60611b61140082015260006131716157cd611414840185613e2d565b6c1e17ba32bc3a1f1e17b9bb339f60991b8152600d0190565b7f646174613a696d6167652f7376672b786d6c3b6261736536342c00000000000081526000825161581e81601a8501602087016135f0565b91909101601a0192915050565b683d913730b6b2911d1160b91b815282516000906158508160098501602088016135f0565b6b1116101134b6b0b3b2911d1160a11b600991840191820152835161587c8160158401602088016135f0565b7f222c20226465736372697074696f6e223a202254616c656e74204c6179657220601592909101918201526c506c6174666f726d204944227d60981b6035820152604201949350505050565b7f646174613a6170706c69636174696f6e2f6a736f6e3b6261736536342c00000081526000825161590081601d8501602087016135f0565b91909101601d0192915050565b7f416363657373436f6e74726f6c3a206163636f756e74200000000000000000008152600083516159458160178501602088016135f0565b7001034b99036b4b9b9b4b733903937b6329607d1b60179184019182015283516159768160288401602088016135f0565b01602801949350505050565b60208082526025908201527f4552433732313a207472616e736665722066726f6d20696e636f72726563742060408201526437bbb732b960d91b606082015260800190565b6001600160a01b03858116825284166020820152604081018390526080606082018190526000906159fa9083018461361c565b9695505050505050565b600060208284031215615a1657600080fd5b8151613171816135bd565b60008219821115615a3457615a34613d76565b500190565b600082615a5657634e487b7160e01b600052601260045260246000fd5b500490565b6000816000190483118215151615615a7557615a75613d76565b500290565b634e487b7160e01b600052603260045260246000fd5b600081615a9f57615a9f613d76565b506000190190565b600082821015615ab957615ab9613d76565b50039056fe360894a13ba1a3210667c828492db98dca3e2076cc3735a920a3ca505d382bbc4142434445464748494a4b4c4d4e4f505152535455565758595a6162636465666768696a6b6c6d6e6f707172737475767778797a303132333435363738392b2f154c00819833dac601ee5ddded6fda79d9d8b506b911b3dbd54cdb95fe6c3686416464726573733a206c6f772d6c6576656c2064656c65676174652063616c6c206661696c6564a264697066735822122096c01219cefa3b4b44b4c52849cb4021354ffffe98febd3848ee733bb279c50664736f6c63430008090033",
  "linkReferences": {},
  "deployedLinkReferences": {}
}