{
  "_format": "hh-sol-artifact-1",
  "contractName": "TalentLayerEscrow",
  "sourceName": "contracts/TalentLayerEscrow.sol",
  "abi": [
    {
      "inputs": [],
      "stateMutability": "nonpayable",
      "type": "constructor"
    },
    {
      "anonymous": false,
      "inputs": [
        {
          "indexed": false,
          "internalType": "address",
          "name": "previousAdmin",
          "type": "address"
        },
        {
          "indexed": false,
          "internalType": "address",
          "name": "newAdmin",
          "type": "address"
        }
      ],
      "name": "AdminChanged",
      "type": "event"
    },
    {
      "anonymous": false,
      "inputs": [
        {
          "indexed": true,
          "internalType": "uint256",
          "name": "_transactionId",
          "type": "uint256"
        },
        {
          "indexed": false,
          "internalType": "enum TalentLayerEscrow.ArbitrationFeePaymentType",
          "name": "_paymentType",
          "type": "uint8"
        },
        {
          "indexed": false,
          "internalType": "enum TalentLayerEscrow.Party",
          "name": "_party",
          "type": "uint8"
        },
        {
          "indexed": false,
          "internalType": "uint256",
          "name": "_amount",
          "type": "uint256"
        }
      ],
      "name": "ArbitrationFeePayment",
      "type": "event"
    },
    {
      "anonymous": false,
      "inputs": [
        {
          "indexed": true,
          "internalType": "address",
          "name": "beacon",
          "type": "address"
        }
      ],
      "name": "BeaconUpgraded",
      "type": "event"
    },
    {
      "anonymous": false,
      "inputs": [
        {
          "indexed": true,
          "internalType": "contract Arbitrator",
          "name": "_arbitrator",
          "type": "address"
        },
        {
          "indexed": true,
          "internalType": "uint256",
          "name": "_disputeID",
          "type": "uint256"
        },
        {
          "indexed": false,
          "internalType": "uint256",
          "name": "_metaEvidenceID",
          "type": "uint256"
        },
        {
          "indexed": false,
          "internalType": "uint256",
          "name": "_evidenceGroupID",
          "type": "uint256"
        }
      ],
      "name": "Dispute",
      "type": "event"
    },
    {
      "anonymous": false,
      "inputs": [
        {
          "indexed": true,
          "internalType": "contract Arbitrator",
          "name": "_arbitrator",
          "type": "address"
        },
        {
          "indexed": true,
          "internalType": "uint256",
          "name": "_evidenceGroupID",
          "type": "uint256"
        },
        {
          "indexed": true,
          "internalType": "address",
          "name": "_party",
          "type": "address"
        },
        {
          "indexed": false,
          "internalType": "string",
          "name": "_evidence",
          "type": "string"
        }
      ],
      "name": "Evidence",
      "type": "event"
    },
    {
      "anonymous": false,
      "inputs": [
        {
          "indexed": true,
          "internalType": "uint256",
          "name": "_transactionId",
          "type": "uint256"
        },
        {
          "indexed": true,
          "internalType": "uint256",
          "name": "_partyId",
          "type": "uint256"
        },
        {
          "indexed": false,
          "internalType": "string",
          "name": "_evidenceUri",
          "type": "string"
        }
      ],
      "name": "EvidenceSubmitted",
      "type": "event"
    },
    {
      "anonymous": false,
      "inputs": [
        {
          "indexed": false,
          "internalType": "uint256",
          "name": "_platformId",
          "type": "uint256"
        },
        {
          "indexed": true,
          "internalType": "address",
          "name": "_token",
          "type": "address"
        },
        {
          "indexed": false,
          "internalType": "uint256",
          "name": "_amount",
          "type": "uint256"
        }
      ],
      "name": "FeesClaimed",
      "type": "event"
    },
    {
      "anonymous": false,
      "inputs": [
        {
          "indexed": true,
          "internalType": "uint256",
          "name": "_transactionId",
          "type": "uint256"
        },
        {
          "indexed": false,
          "internalType": "enum TalentLayerEscrow.Party",
          "name": "_party",
          "type": "uint8"
        }
      ],
      "name": "HasToPayFee",
      "type": "event"
    },
    {
      "anonymous": false,
      "inputs": [
        {
          "indexed": false,
          "internalType": "uint8",
          "name": "version",
          "type": "uint8"
        }
      ],
      "name": "Initialized",
      "type": "event"
    },
    {
      "anonymous": false,
      "inputs": [
        {
          "indexed": true,
          "internalType": "uint256",
          "name": "_metaEvidenceID",
          "type": "uint256"
        },
        {
          "indexed": false,
          "internalType": "string",
          "name": "_evidence",
          "type": "string"
        }
      ],
      "name": "MetaEvidence",
      "type": "event"
    },
    {
      "anonymous": false,
      "inputs": [
        {
          "indexed": false,
          "internalType": "uint256",
          "name": "_platformId",
          "type": "uint256"
        },
        {
          "indexed": false,
          "internalType": "uint256",
          "name": "_serviceId",
          "type": "uint256"
        },
        {
          "indexed": true,
          "internalType": "address",
          "name": "_token",
          "type": "address"
        },
        {
          "indexed": false,
          "internalType": "uint256",
          "name": "_amount",
          "type": "uint256"
        }
      ],
      "name": "OriginServiceFeeRateReleased",
      "type": "event"
    },
    {
      "anonymous": false,
      "inputs": [
        {
          "indexed": false,
          "internalType": "uint256",
          "name": "_platformId",
          "type": "uint256"
        },
        {
          "indexed": false,
          "internalType": "uint256",
          "name": "_serviceId",
          "type": "uint256"
        },
        {
          "indexed": true,
          "internalType": "address",
          "name": "_token",
          "type": "address"
        },
        {
          "indexed": false,
          "internalType": "uint256",
          "name": "_amount",
          "type": "uint256"
        }
      ],
      "name": "OriginValidatedProposalFeeRateReleased",
      "type": "event"
    },
    {
      "anonymous": false,
      "inputs": [
        {
          "indexed": true,
          "internalType": "address",
          "name": "previousOwner",
          "type": "address"
        },
        {
          "indexed": true,
          "internalType": "address",
          "name": "newOwner",
          "type": "address"
        }
      ],
      "name": "OwnershipTransferred",
      "type": "event"
    },
    {
      "anonymous": false,
      "inputs": [
        {
          "indexed": false,
          "internalType": "uint256",
          "name": "_transactionId",
          "type": "uint256"
        },
        {
          "indexed": false,
          "internalType": "enum TalentLayerEscrow.PaymentType",
          "name": "_paymentType",
          "type": "uint8"
        },
        {
          "indexed": false,
          "internalType": "address",
          "name": "_token",
          "type": "address"
        },
        {
          "indexed": false,
          "internalType": "uint256",
          "name": "_amount",
          "type": "uint256"
        },
        {
          "indexed": false,
          "internalType": "uint256",
          "name": "_serviceId",
          "type": "uint256"
        }
      ],
      "name": "Payment",
      "type": "event"
    },
    {
      "anonymous": false,
      "inputs": [
        {
          "indexed": false,
          "internalType": "uint256",
          "name": "_serviceId",
          "type": "uint256"
        }
      ],
      "name": "PaymentCompleted",
      "type": "event"
    },
    {
      "anonymous": false,
      "inputs": [
        {
          "indexed": false,
          "internalType": "uint16",
          "name": "_protocolEscrowFeeRate",
          "type": "uint16"
        }
      ],
      "name": "ProtocolEscrowFeeRateUpdated",
      "type": "event"
    },
    {
      "anonymous": false,
      "inputs": [
        {
          "indexed": true,
          "internalType": "contract Arbitrator",
          "name": "_arbitrator",
          "type": "address"
        },
        {
          "indexed": true,
          "internalType": "uint256",
          "name": "_disputeID",
          "type": "uint256"
        },
        {
          "indexed": false,
          "internalType": "uint256",
          "name": "_ruling",
          "type": "uint256"
        }
      ],
      "name": "Ruling",
      "type": "event"
    },
    {
      "anonymous": false,
      "inputs": [
        {
          "indexed": true,
          "internalType": "uint256",
          "name": "_transactionId",
          "type": "uint256"
        },
        {
          "indexed": false,
          "internalType": "uint256",
          "name": "_ruling",
          "type": "uint256"
        }
      ],
      "name": "RulingExecuted",
      "type": "event"
    },
    {
      "anonymous": false,
      "inputs": [
        {
          "indexed": false,
          "internalType": "uint256",
          "name": "_transactionId",
          "type": "uint256"
        },
        {
          "indexed": false,
          "internalType": "uint256",
          "name": "_senderId",
          "type": "uint256"
        },
        {
          "indexed": false,
          "internalType": "uint256",
          "name": "_receiverId",
          "type": "uint256"
        },
        {
          "indexed": false,
          "internalType": "address",
          "name": "_token",
          "type": "address"
        },
        {
          "indexed": false,
          "internalType": "uint256",
          "name": "_amount",
          "type": "uint256"
        },
        {
          "indexed": false,
          "internalType": "uint256",
          "name": "_serviceId",
          "type": "uint256"
        },
        {
          "indexed": false,
          "internalType": "uint256",
          "name": "_proposalId",
          "type": "uint256"
        },
        {
          "indexed": false,
          "internalType": "uint16",
          "name": "_protocolEscrowFeeRate",
          "type": "uint16"
        },
        {
          "indexed": false,
          "internalType": "uint16",
          "name": "_originServiceFeeRate",
          "type": "uint16"
        },
        {
          "indexed": false,
          "internalType": "uint16",
          "name": "_originValidatedProposalFeeRate",
          "type": "uint16"
        },
        {
          "indexed": false,
          "internalType": "contract Arbitrator",
          "name": "_arbitrator",
          "type": "address"
        },
        {
          "indexed": false,
          "internalType": "bytes",
          "name": "_arbitratorExtraData",
          "type": "bytes"
        },
        {
          "indexed": false,
          "internalType": "uint256",
          "name": "_arbitrationFeeTimeout",
          "type": "uint256"
        }
      ],
      "name": "TransactionCreated",
      "type": "event"
    },
    {
      "anonymous": false,
      "inputs": [
        {
          "indexed": false,
          "internalType": "address",
          "name": "forwarder",
          "type": "address"
        }
      ],
      "name": "TrustedForwarderAdded",
      "type": "event"
    },
    {
      "anonymous": false,
      "inputs": [
        {
          "indexed": false,
          "internalType": "address",
          "name": "forwarder",
          "type": "address"
        }
      ],
      "name": "TrustedForwarderRemoved",
      "type": "event"
    },
    {
      "anonymous": false,
      "inputs": [
        {
          "indexed": true,
          "internalType": "address",
          "name": "implementation",
          "type": "address"
        }
      ],
      "name": "Upgraded",
      "type": "event"
    },
    {
      "inputs": [
        {
          "internalType": "address",
          "name": "_forwarder",
          "type": "address"
        }
      ],
      "name": "addTrustedForwarder",
      "outputs": [],
      "stateMutability": "nonpayable",
      "type": "function"
    },
    {
      "inputs": [
        {
          "internalType": "uint256",
          "name": "_transactionId",
          "type": "uint256"
        }
      ],
      "name": "appeal",
      "outputs": [],
      "stateMutability": "payable",
      "type": "function"
    },
    {
      "inputs": [
        {
          "internalType": "uint256",
          "name": "_transactionId",
          "type": "uint256"
        }
      ],
      "name": "arbitrationFeeTimeout",
      "outputs": [],
      "stateMutability": "nonpayable",
      "type": "function"
    },
    {
      "inputs": [
        {
          "internalType": "uint256",
          "name": "_platformId",
          "type": "uint256"
        },
        {
          "internalType": "address",
          "name": "_tokenAddress",
          "type": "address"
        }
      ],
      "name": "claim",
      "outputs": [],
      "stateMutability": "nonpayable",
      "type": "function"
    },
    {
      "inputs": [
        {
          "internalType": "uint256",
          "name": "_platformId",
          "type": "uint256"
        }
      ],
      "name": "claimAll",
      "outputs": [],
      "stateMutability": "nonpayable",
      "type": "function"
    },
    {
      "inputs": [
        {
          "internalType": "uint256",
          "name": "_serviceId",
          "type": "uint256"
        },
        {
          "internalType": "uint256",
          "name": "_proposalId",
          "type": "uint256"
        },
        {
          "internalType": "string",
          "name": "_metaEvidence",
          "type": "string"
        },
        {
          "internalType": "string",
          "name": "_originDataUri",
          "type": "string"
        }
      ],
      "name": "createTransaction",
      "outputs": [
        {
          "internalType": "uint256",
          "name": "",
          "type": "uint256"
        }
      ],
      "stateMutability": "payable",
      "type": "function"
    },
    {
      "inputs": [
        {
          "internalType": "uint256",
          "name": "",
          "type": "uint256"
        }
      ],
      "name": "disputeIDtoTransactionID",
      "outputs": [
        {
          "internalType": "uint256",
          "name": "",
          "type": "uint256"
        }
      ],
      "stateMutability": "view",
      "type": "function"
    },
    {
      "inputs": [
        {
          "internalType": "address",
          "name": "_token",
          "type": "address"
        }
      ],
      "name": "getClaimableFeeBalance",
      "outputs": [
        {
          "internalType": "uint256",
          "name": "balance",
          "type": "uint256"
        }
      ],
      "stateMutability": "view",
      "type": "function"
    },
    {
      "inputs": [
        {
          "internalType": "uint256",
          "name": "_transactionId",
          "type": "uint256"
        }
      ],
      "name": "getTransactionDetails",
      "outputs": [
        {
          "components": [
            {
              "internalType": "uint256",
              "name": "id",
              "type": "uint256"
            },
            {
              "internalType": "address",
              "name": "sender",
              "type": "address"
            },
            {
              "internalType": "address",
              "name": "receiver",
              "type": "address"
            },
            {
              "internalType": "address",
              "name": "token",
              "type": "address"
            },
            {
              "internalType": "uint256",
              "name": "amount",
              "type": "uint256"
            },
            {
              "internalType": "uint256",
              "name": "serviceId",
              "type": "uint256"
            },
            {
              "internalType": "uint256",
              "name": "proposalId",
              "type": "uint256"
            },
            {
              "internalType": "uint16",
              "name": "protocolEscrowFeeRate",
              "type": "uint16"
            },
            {
              "internalType": "uint16",
              "name": "originServiceFeeRate",
              "type": "uint16"
            },
            {
              "internalType": "uint16",
              "name": "originValidatedProposalFeeRate",
              "type": "uint16"
            },
            {
              "internalType": "contract Arbitrator",
              "name": "arbitrator",
              "type": "address"
            },
            {
              "internalType": "enum TalentLayerEscrow.Status",
              "name": "status",
              "type": "uint8"
            },
            {
              "internalType": "uint256",
              "name": "disputeId",
              "type": "uint256"
            },
            {
              "internalType": "uint256",
              "name": "senderFee",
              "type": "uint256"
            },
            {
              "internalType": "uint256",
              "name": "receiverFee",
              "type": "uint256"
            },
            {
              "internalType": "uint256",
              "name": "lastInteraction",
              "type": "uint256"
            },
            {
              "internalType": "bytes",
              "name": "arbitratorExtraData",
              "type": "bytes"
            },
            {
              "internalType": "uint256",
              "name": "arbitrationFeeTimeout",
              "type": "uint256"
            }
          ],
          "internalType": "struct TalentLayerEscrow.Transaction",
          "name": "",
          "type": "tuple"
        }
      ],
      "stateMutability": "view",
      "type": "function"
    },
    {
      "inputs": [
        {
          "internalType": "address",
          "name": "_talentLayerServiceAddress",
          "type": "address"
        },
        {
          "internalType": "address",
          "name": "_talentLayerIDAddress",
          "type": "address"
        },
        {
          "internalType": "address",
          "name": "_talentLayerPlatformIDAddress",
          "type": "address"
        },
        {
          "internalType": "address",
          "name": "_protocolWallet",
          "type": "address"
        }
      ],
      "name": "initialize",
      "outputs": [],
      "stateMutability": "nonpayable",
      "type": "function"
    },
    {
      "inputs": [
        {
          "internalType": "address",
          "name": "forwarder",
          "type": "address"
        }
      ],
      "name": "isTrustedForwarder",
      "outputs": [
        {
          "internalType": "bool",
          "name": "",
          "type": "bool"
        }
      ],
      "stateMutability": "view",
      "type": "function"
    },
    {
      "inputs": [],
      "name": "owner",
      "outputs": [
        {
          "internalType": "address",
          "name": "",
          "type": "address"
        }
      ],
      "stateMutability": "view",
      "type": "function"
    },
    {
      "inputs": [
        {
          "internalType": "uint256",
          "name": "_transactionId",
          "type": "uint256"
        }
      ],
      "name": "payArbitrationFeeByReceiver",
      "outputs": [],
      "stateMutability": "payable",
      "type": "function"
    },
    {
      "inputs": [
        {
          "internalType": "uint256",
          "name": "_transactionId",
          "type": "uint256"
        }
      ],
      "name": "payArbitrationFeeBySender",
      "outputs": [],
      "stateMutability": "payable",
      "type": "function"
    },
    {
      "inputs": [],
      "name": "protocolEscrowFeeRate",
      "outputs": [
        {
          "internalType": "uint16",
          "name": "",
          "type": "uint16"
        }
      ],
      "stateMutability": "view",
      "type": "function"
    },
    {
      "inputs": [],
      "name": "protocolWallet",
      "outputs": [
        {
          "internalType": "address payable",
          "name": "",
          "type": "address"
        }
      ],
      "stateMutability": "view",
      "type": "function"
    },
    {
      "inputs": [],
      "name": "proxiableUUID",
      "outputs": [
        {
          "internalType": "bytes32",
          "name": "",
          "type": "bytes32"
        }
      ],
      "stateMutability": "view",
      "type": "function"
    },
    {
      "inputs": [
        {
          "internalType": "uint256",
          "name": "_profileId",
          "type": "uint256"
        },
        {
          "internalType": "uint256",
          "name": "_transactionId",
          "type": "uint256"
        },
        {
          "internalType": "uint256",
          "name": "_amount",
          "type": "uint256"
        }
      ],
      "name": "reimburse",
      "outputs": [],
      "stateMutability": "nonpayable",
      "type": "function"
    },
    {
      "inputs": [
        {
          "internalType": "uint256",
          "name": "_profileId",
          "type": "uint256"
        },
        {
          "internalType": "uint256",
          "name": "_transactionId",
          "type": "uint256"
        },
        {
          "internalType": "uint256",
          "name": "_amount",
          "type": "uint256"
        }
      ],
      "name": "release",
      "outputs": [],
      "stateMutability": "nonpayable",
      "type": "function"
    },
    {
      "inputs": [
        {
          "internalType": "address",
          "name": "_forwarder",
          "type": "address"
        }
      ],
      "name": "removeTrustedForwarder",
      "outputs": [],
      "stateMutability": "nonpayable",
      "type": "function"
    },
    {
      "inputs": [],
      "name": "renounceOwnership",
      "outputs": [],
      "stateMutability": "nonpayable",
      "type": "function"
    },
    {
      "inputs": [
        {
          "internalType": "uint256",
          "name": "_disputeID",
          "type": "uint256"
        },
        {
          "internalType": "uint256",
          "name": "_ruling",
          "type": "uint256"
        }
      ],
      "name": "rule",
      "outputs": [],
      "stateMutability": "nonpayable",
      "type": "function"
    },
    {
      "inputs": [
        {
          "internalType": "uint256",
          "name": "_profileId",
          "type": "uint256"
        },
        {
          "internalType": "uint256",
          "name": "_transactionId",
          "type": "uint256"
        },
        {
          "internalType": "string",
          "name": "_evidence",
          "type": "string"
        }
      ],
      "name": "submitEvidence",
      "outputs": [],
      "stateMutability": "nonpayable",
      "type": "function"
    },
    {
      "inputs": [
        {
          "internalType": "address",
          "name": "newOwner",
          "type": "address"
        }
      ],
      "name": "transferOwnership",
      "outputs": [],
      "stateMutability": "nonpayable",
      "type": "function"
    },
    {
      "inputs": [
        {
          "internalType": "uint16",
          "name": "_protocolEscrowFeeRate",
          "type": "uint16"
        }
      ],
      "name": "updateProtocolEscrowFeeRate",
      "outputs": [],
      "stateMutability": "nonpayable",
      "type": "function"
    },
    {
      "inputs": [
        {
          "internalType": "address payable",
          "name": "_protocolWallet",
          "type": "address"
        }
      ],
      "name": "updateProtocolWallet",
      "outputs": [],
      "stateMutability": "nonpayable",
      "type": "function"
    },
    {
      "inputs": [
        {
          "internalType": "address",
          "name": "newImplementation",
          "type": "address"
        }
      ],
      "name": "upgradeTo",
      "outputs": [],
      "stateMutability": "nonpayable",
      "type": "function"
    },
    {
      "inputs": [
        {
          "internalType": "address",
          "name": "newImplementation",
          "type": "address"
        },
        {
          "internalType": "bytes",
          "name": "data",
          "type": "bytes"
        }
      ],
      "name": "upgradeToAndCall",
      "outputs": [],
      "stateMutability": "payable",
      "type": "function"
    }
  ],
  "bytecode": "0x60a0604052306080523480156200001557600080fd5b506200002062000026565b620000e8565b600054610100900460ff1615620000935760405162461bcd60e51b815260206004820152602760248201527f496e697469616c697a61626c653a20636f6e747261637420697320696e697469604482015266616c697a696e6760c81b606482015260840160405180910390fd5b60005460ff9081161015620000e6576000805460ff191660ff9081179091556040519081527f7f26b83ff96e1f2b6a682f133852f6798a09c465da95921460cefb38474024989060200160405180910390a15b565b608051614d45620001206000396000818161160601528181611646015281816119d701528181611a170152611aa60152614d456000f3fe6080604052600436106101b75760003560e01c80635a34257a116100ec5780638da5cb5b1161008a578063e308a09911610064578063e308a099146104e6578063eb63612d14610506578063f2fde38b14610526578063f8c8765e1461054657600080fd5b80638da5cb5b146104885780639dcc5daf146104a6578063ddd5e1b2146104c657600080fd5b8063715018a6116100c6578063715018a61461042d5780637b44cdb5146104425780637e69b7b0146104555780638b69fa0a1461046857600080fd5b80635a34257a146103c75780636930fd2a146103fc5780636e72b4521461041a57600080fd5b80633659cfe6116101595780633ab4a6a4116101335780633ab4a6a4146103365780634f1ef2861461035657806352d1902d14610369578063572b6c051461037e57600080fd5b80633659cfe6146102d65780633751d89c146102f65780633a1121cd1461031657600080fd5b806315734fe71161019557806315734fe71461025457806326d00668146102675780632fbe3b0314610289578063311a6c56146102b657600080fd5b806306d6e63f146101bc5780630a1a47d6146101f95780630fa683d314610227575b600080fd5b3480156101c857600080fd5b5060cf546101dc906001600160a01b031681565b6040516001600160a01b0390911681526020015b60405180910390f35b34801561020557600080fd5b50610219610214366004613e4e565b610566565b6040519081526020016101f0565b34801561023357600080fd5b50610247610242366004613e6b565b6106d0565b6040516101f09190613efe565b610219610262366004614185565b610a0a565b34801561027357600080fd5b50610287610282366004613e4e565b61142b565b005b34801561029557600080fd5b506102196102a4366004613e6b565b60d06020526000908152604090205481565b3480156102c257600080fd5b506102876102d13660046141fc565b61148e565b3480156102e257600080fd5b506102876102f1366004613e4e565b6115fc565b34801561030257600080fd5b50610287610311366004613e4e565b6116d8565b34801561032257600080fd5b5061028761033136600461421e565b611731565b34801561034257600080fd5b50610287610351366004613e6b565b611817565b61028761036436600461424a565b6119cd565b34801561037557600080fd5b50610219611a99565b34801561038a57600080fd5b506103b7610399366004613e4e565b6001600160a01b031660009081526065602052604090205460ff1690565b60405190151581526020016101f0565b3480156103d357600080fd5b5060cf546103e990600160a01b900461ffff1681565b60405161ffff90911681526020016101f0565b34801561040857600080fd5b50610287610417366004613e6b565b50565b610287610428366004613e6b565b611b4c565b34801561043957600080fd5b50610287611de5565b610287610450366004613e6b565b611df9565b610287610463366004613e6b565b612073565b34801561047457600080fd5b506102876104833660046142ae565b61212b565b34801561049457600080fd5b506033546001600160a01b03166101dc565b3480156104b257600080fd5b506102876104c136600461421e565b61248e565b3480156104d257600080fd5b506102876104e13660046142fe565b612574565b3480156104f257600080fd5b50610287610501366004613e4e565b61277d565b34801561051257600080fd5b5061028761052136600461433e565b6127a7565b34801561053257600080fd5b50610287610541366004613e4e565b6127ff565b34801561055257600080fd5b5061028761056136600461435b565b612875565b6000806105716129f3565b9050806001600160a01b031661058f6033546001600160a01b031690565b6001600160a01b0316036105d95750506001600160a01b031660009081527f4239c2c8c3d9b94feb214b0f54d7c869ce1ceb63517be57644336cda4967a468602052604090205490565b60ce54604051631847c06b60e01b81526001600160a01b0383811660048301526000921690631847c06b90602401602060405180830381865afa158015610624573d6000803e3d6000fd5b505050506040513d601f19601f8201168201806040525081019061064891906143b7565b60ce5460405162f577a560e81b8152600481018390529192506001600160a01b03169063f577a5009060240160006040518083038186803b15801561068c57600080fd5b505afa1580156106a0573d6000803e3d6000fd5b50505060009182525060cb602090815260408083206001600160a01b039096168352949052929092205492915050565b6107626040805161024081018252600080825260208201819052918101829052606081018290526080810182905260a0810182905260c0810182905260e081018290526101008101829052610120810182905261014081018290529061016082019081526020016000815260200160008152602001600081526020016000815260200160608152602001600081525090565b600082815260ca602090815260408083208151610240810183528154815260018201546001600160a01b039081169482019490945260028201548416928101929092526003810154831660608301526004808201546080840152600582015460a0840152600682015460c0840152600782015461ffff80821660e08601526201000082048116610100860152640100000000820416610120850152600160301b810490941661014084015291929091610160840191600160d01b900460ff169081111561083157610831613e84565b600481111561084257610842613e84565b81526020016008820154815260200160098201548152602001600a8201548152602001600b8201548152602001600c8201805461087e906143d0565b80601f01602080910402602001604051908101604052809291908181526020018280546108aa906143d0565b80156108f75780601f106108cc576101008083540402835291602001916108f7565b820191906000526020600020905b8154815290600101906020018083116108da57829003601f168201915b50505050508152602001600d82015481525050905061091560d15490565b8151106109625760405162461bcd60e51b8152602060048201526016602482015275125b9d985b1a59081d1c985b9cd858dd1a5bdb881a5960521b60448201526064015b60405180910390fd5b600061096c6129f3565b905081602001516001600160a01b0316816001600160a01b031614806109a7575081604001516001600160a01b0316816001600160a01b0316145b610a035760405162461bcd60e51b815260206004820152602760248201527f596f7520617265206e6f742072656c6174656420746f2074686973207472616e60448201526639b0b1ba34b7b760c91b6064820152608401610959565b5092915050565b60cc5460405163ef0e239b60e01b81526004810186905260009182916001600160a01b039091169063ef0e239b90602401600060405180830381865afa158015610a58573d6000803e3d6000fd5b505050506040513d6000823e601f3d908101601f19168201604052610a809190810190614457565b60cc5460405163aba2100960e01b815260048101899052602481018890529192506000916001600160a01b039091169063aba2100990604401600060405180830381865afa158015610ad6573d6000803e3d6000fd5b505050506040513d6000823e601f3d908101601f19168201604052610afe9190810190614532565b60cd5460208401516040516331a9108f60e11b81529293506000926001600160a01b0390921691636352211e91610b3b9160040190815260200190565b602060405180830381865afa158015610b58573d6000803e3d6000fd5b505050506040513d601f19601f82011682018060405250810190610b7c91906145f3565b60cd5460208401516040516331a9108f60e11b81529293506000926001600160a01b0390921691636352211e91610bb99160040190815260200190565b602060405180830381865afa158015610bd6573d6000803e3d6000fd5b505050506040513d601f19601f82011682018060405250810190610bfa91906145f3565b60ce5460a0860151604051630b7a459360e31b81529293506000926001600160a01b0390921691635bd22c9891610c379160040190815260200190565b600060405180830381865afa158015610c54573d6000803e3d6000fd5b505050506040513d6000823e601f3d908101601f19168201604052610c7c9190810190614610565b90506000846080015161ffff168660a0015103610c995781610d13565b60ce546080860151604051630b7a459360e31b815261ffff90911660048201526001600160a01b0390911690635bd22c9890602401600060405180830381865afa158015610ceb573d6000803e3d6000fd5b505050506040513d6000823e601f3d908101601f19168201604052610d139190810190614610565b90506000610d2e866060015184606001518460800151612a2c565b60408701519091506001600160a01b0316610d8c57803414610d875760405162461bcd60e51b81526020600482015260126024820152714e6f6e2d6d61746368696e672066756e647360701b6044820152606401610959565b610dcf565b3415610dcf5760405162461bcd60e51b81526020600482015260126024820152714e6f6e2d6d61746368696e672066756e647360701b6044820152606401610959565b846001600160a01b0316610de16129f3565b6001600160a01b031614610e075760405162461bcd60e51b815260040161095990614728565b8a866020015114610e525760405162461bcd60e51b8152602060048201526015602482015274125b98dbdc9c9958dd081c1c9bdc1bdcd85b081251605a1b6044820152606401610959565b428660c001511015610e995760405162461bcd60e51b815260206004820152601060248201526f141c9bdc1bdcd85b08195e1c1a5c995960821b6044820152606401610959565b600087516003811115610eae57610eae613e84565b14610efb5760405162461bcd60e51b815260206004820152601760248201527f5365727669636520737461747573206e6f74206f70656e0000000000000000006044820152606401610959565b600086516001811115610f1057610f10613e84565b14610f5d5760405162461bcd60e51b815260206004820152601b60248201527f50726f706f73616c20737461747573206e6f742070656e64696e6700000000006044820152606401610959565b8951602e14610f9c5760405162461bcd60e51b815260206004820152600b60248201526a125b9d985b1a590818da5960aa1b6044820152606401610959565b88604051602001610fad919061474f565b604051602081830303815290604052805190602001208660a00151604051602001610fd8919061474f565b604051602081830303815290604052805190602001201461103b5760405162461bcd60e51b815260206004820152601c60248201527f50726f706f73616c206461746155726920686173206368616e676564000000006044820152606401610959565b600061104660d15490565b9050604051806102400160405280828152602001876001600160a01b03168152602001866001600160a01b0316815260200188604001516001600160a01b03168152602001886060015181526020018e81526020018d815260200160cf60149054906101000a900461ffff1661ffff168152602001856060015161ffff168152602001846080015161ffff1681526020018560e001516001600160a01b03168152602001600060048111156110fd576110fd613e84565b8152600060208083018290526040808401839052606080850184905242608080870191909152610100808c015160a080890191909152610120808e015160c0998a01528a885260ca87529685902089518155958901516001870180546001600160a01b039283166001600160a01b031991821617909155958a01516002880180549183169188169190911790559389015160038701805491861691909616179094559087015160048086019190915592870151600585015594860151600684015560e08601516007840180549688015195880151610140890151909316600160301b026601000000000000600160d01b031961ffff9485166401000000000216640100000000600160d01b0319978516620100000263ffffffff199099169490931693909317969096179490941693909317929092178084556101608501519193919260ff60d01b1990911690600160d01b90849081111561126157611261613e84565b021790555061018082015160088201556101a082015160098201556101c0820151600a8201556101e0820151600b820155610200820151600c8201906112a790826147b1565b5061022082015181600d01559050506112c460d180546001019055565b60cc546040516353eaf57560e11b8152600481018f9052602481018e9052604481018390526001600160a01b039091169063a7d5eaea90606401600060405180830381600087803b15801561131857600080fd5b505af115801561132c573d6000803e3d6000fd5b5050505060408701516001600160a01b0316156114075760408088015190516323b872dd60e01b81526001600160a01b03888116600483015230602483015260448201859052909116906323b872dd906064016020604051808303816000875af115801561139e573d6000803e3d6000fd5b505050506040513d601f19601f820116820180604052508101906113c29190614871565b6114075760405162461bcd60e51b8152602060048201526016602482015275151c985b9cd9995c881b5d5cdd081b9bdd0819985a5b60521b6044820152606401610959565b61141b88602001518860200151838e612a97565b9c9b505050505050505050505050565b611433612bb1565b6001600160a01b038116600081815260656020908152604091829020805460ff1916600117905590519182527f3ef8564460ada92419608d823c014975d98f8104d7d1e68c222967ac6814cd9791015b60405180910390a150565b60006114986129f3565b600084815260d0602090815260408083205480845260ca909252909120600781015492935090916001600160a01b03808516600160301b909204161461152a5760405162461bcd60e51b815260206004820152602160248201527f5468652063616c6c6572206d757374206265207468652061726269747261746f6044820152603960f91b6064820152608401610959565b60036007820154600160d01b900460ff16600481111561154c5761154c613e84565b146115a75760405162461bcd60e51b815260206004820152602560248201527f54686520646973707574652068617320616c7265616479206265656e207265736044820152641bdb1d995960da1b6064820152608401610959565b84836001600160a01b03167f394027a5fa6e098a1191094d1719d6929b9abc535fcc0c8f448d6a4e75622276866040516115e391815260200190565b60405180910390a36115f58285612c2a565b5050505050565b6001600160a01b037f00000000000000000000000000000000000000000000000000000000000000001630036116445760405162461bcd60e51b815260040161095990614893565b7f00000000000000000000000000000000000000000000000000000000000000006001600160a01b031661168d600080516020614ca9833981519152546001600160a01b031690565b6001600160a01b0316146116b35760405162461bcd60e51b8152600401610959906148df565b6116bc81612eb4565b6040805160008082526020820190925261041791839190612ebc565b6116e0612bb1565b6001600160a01b038116600081815260656020908152604091829020805460ff1916905590519182527fd2d636efcad0cea42e170256f4c5d8b1cd81e47b855557edaf44014e6cc4cee69101611483565b60cd5483906001600160a01b0316632fa117e58261174d6129f3565b6040516001600160e01b031960e085901b16815260048101929092526001600160a01b03166024820152604401602060405180830381865afa158015611797573d6000803e3d6000fd5b505050506040513d601f19601f820116820180604052508101906117bb9190614871565b6117d75760405162461bcd60e51b81526004016109599061492b565b6117e48360008685613027565b600083815260ca6020526040812060048101805491928592611807908490614970565b909155506115f590508484613311565b600081815260ca60205260409020600d810154600b8201546118399042614970565b10156118875760405162461bcd60e51b815260206004820152601f60248201527f54696d656f75742074696d6520686173206e6f742070617373656420796574006044820152606401610959565b60016007820154600160d01b900460ff1660048111156118a9576118a9613e84565b0361192c5760098101541561191d57600981018054600091829055600183015460405191926001600160a01b0390911691839181818185875af1925050503d8060008114611913576040519150601f19603f3d011682016040523d82523d6000602084013e611918565b606091505b505050505b611928826002612c2a565b5050565b60026007820154600160d01b900460ff16600481111561194e5761194e613e84565b0361192857600a810154156119c257600a81018054600091829055600283015460405191926001600160a01b0390911691839181818185875af1925050503d80600081146119b8576040519150601f19603f3d011682016040523d82523d6000602084013e6119bd565b606091505b505050505b611928826001612c2a565b6001600160a01b037f0000000000000000000000000000000000000000000000000000000000000000163003611a155760405162461bcd60e51b815260040161095990614893565b7f00000000000000000000000000000000000000000000000000000000000000006001600160a01b0316611a5e600080516020614ca9833981519152546001600160a01b031690565b6001600160a01b031614611a845760405162461bcd60e51b8152600401610959906148df565b611a8d82612eb4565b61192882826001612ebc565b6000306001600160a01b037f00000000000000000000000000000000000000000000000000000000000000001614611b395760405162461bcd60e51b815260206004820152603860248201527f555550535570677261646561626c653a206d757374206e6f742062652063616c60448201527f6c6564207468726f7567682064656c656761746563616c6c00000000000000006064820152608401610959565b50600080516020614ca983398151915290565b600081815260ca602052604090206007810154600160301b90046001600160a01b0316611b8b5760405162461bcd60e51b815260040161095990614983565b60036007820154600160d01b900460ff166004811115611bad57611bad613e84565b10611bca5760405162461bcd60e51b8152600401610959906149af565b60028101546001600160a01b0316611be06129f3565b6001600160a01b031614611c365760405162461bcd60e51b815260206004820152601f60248201527f5468652063616c6c6572206d75737420626520746865207265636569766572006044820152606401610959565b600781015460405163f7434ea960e01b8152600091600160301b90046001600160a01b03169063f7434ea990611c7390600c860190600401614a9f565b602060405180830381865afa158015611c90573d6000803e3d6000fd5b505050506040513d601f19601f82011682018060405250810190611cb491906143b7565b90503482600a016000828254611cca9190614ab2565b9091555050600a8201548114611d415760405162461bcd60e51b815260206004820152603660248201527f54686520726563656976657220666565206d75737420626520657175616c20746044820152751bc81d1a1948185c989a5d1c985d1a5bdb8818dbdcdd60521b6064820152608401610959565b42600b8301556040518390600080516020614cc983398151915290611d6d906000906001903490614ad5565b60405180910390a28082600901541015611dd65760078201805460ff60d01b1916600160d01b17905560405183907fc74b9f7dedf2887cd3c113b6d8da9cea19e55c1116e25f1f0e1b72d7543179b590611dc990600090614aff565b60405180910390a2505050565b611de08382613356565b505050565b611ded612bb1565b611df760006135ae565b565b600081815260ca602052604090206007810154600160301b90046001600160a01b0316611e385760405162461bcd60e51b815260040161095990614983565b60036007820154600160d01b900460ff166004811115611e5a57611e5a613e84565b10611e775760405162461bcd60e51b8152600401610959906149af565b60018101546001600160a01b0316611e8d6129f3565b6001600160a01b031614611ee35760405162461bcd60e51b815260206004820152601d60248201527f5468652063616c6c6572206d757374206265207468652073656e6465720000006044820152606401610959565b600781015460405163f7434ea960e01b8152600091600160301b90046001600160a01b03169063f7434ea990611f2090600c860190600401614a9f565b602060405180830381865afa158015611f3d573d6000803e3d6000fd5b505050506040513d601f19601f82011682018060405250810190611f6191906143b7565b905034826009016000828254611f779190614ab2565b909155505060098201548114611fec5760405162461bcd60e51b815260206004820152603460248201527f5468652073656e64657220666565206d75737420626520657175616c20746f206044820152731d1a1948185c989a5d1c985d1a5bdb8818dbdcdd60621b6064820152608401610959565b42600b8301556040518390600080516020614cc9833981519152906120179060009081903490614ad5565b60405180910390a28082600a01541015611dd65760078201805460ff60d01b1916600160d11b17905560405183907fc74b9f7dedf2887cd3c113b6d8da9cea19e55c1116e25f1f0e1b72d7543179b590611dc990600190614aff565b600081815260ca602052604090206007810154600160301b90046001600160a01b03166120b25760405162461bcd60e51b815260040161095990614983565b6007810154600882015460405163093225f160e31b8152600160301b9092046001600160a01b0316916349912f889134916120f59190600c870190600401614b12565b6000604051808303818588803b15801561210e57600080fd5b505af1158015612122573d6000803e3d6000fd5b50505050505050565b60cd5483906001600160a01b0316632fa117e5826121476129f3565b6040516001600160e01b031960e085901b16815260048101929092526001600160a01b03166024820152604401602060405180830381865afa158015612191573d6000803e3d6000fd5b505050506040513d601f19601f820116820180604052508101906121b59190614871565b6121d15760405162461bcd60e51b81526004016109599061492b565b8151602e146122105760405162461bcd60e51b815260206004820152600b60248201526a125b9d985b1a590818da5960aa1b6044820152606401610959565b600083815260ca602052604090206007810154600160301b90046001600160a01b031661224f5760405162461bcd60e51b815260040161095990614983565b60cd546040516331a9108f60e11b8152600481018790526000916001600160a01b031690636352211e90602401602060405180830381865afa158015612299573d6000803e3d6000fd5b505050506040513d601f19601f820116820180604052508101906122bd91906145f3565b60018301549091506001600160a01b03808316911614806122ed575060028201546001600160a01b038281169116145b612361576040805162461bcd60e51b81526020600482015260248101919091527f5468652063616c6c6572206d757374206265207468652073656e646572206f7260448201527f20746865207265636569766572206f722074686569722064656c6567617465736064820152608401610959565b60046007830154600160d01b900460ff16600481111561238357612383613e84565b106123ea5760405162461bcd60e51b815260206004820152603160248201527f4d757374206e6f742073656e642065766964656e6365206966207468652064696044820152701cdc1d5d19481a5cc81c995cdbdb1d9959607a1b6064820152608401610959565b806001600160a01b0316858360070160069054906101000a90046001600160a01b03166001600160a01b03167fdccf2f8b2cc26eafcd61905cba744cff4b81d14740725f6376390dc6298a6a3c876040516124459190614b2b565b60405180910390a485857fd998ce0f89c38b0f93256f0b843a404a3a3c5055b75265623f7cb9c369a1dd628660405161247e9190614b2b565b60405180910390a3505050505050565b60cd5483906001600160a01b0316632fa117e5826124aa6129f3565b6040516001600160e01b031960e085901b16815260048101929092526001600160a01b03166024820152604401602060405180830381865afa1580156124f4573d6000803e3d6000fd5b505050506040513d601f19601f820116820180604052508101906125189190614871565b6125345760405162461bcd60e51b81526004016109599061492b565b6125418360018685613027565b600083815260ca6020526040812060048101805491928592612564908490614970565b909155506115f590508484613600565b600061257e6129f3565b6001600160a01b03166125996033546001600160a01b031690565b6001600160a01b0316036125d75782156125c55760405162461bcd60e51b815260040161095990614728565b5060cf546001600160a01b03166126a2565b60ce5460405162f577a560e81b8152600481018590526001600160a01b039091169063f577a5009060240160006040518083038186803b15801561261a57600080fd5b505afa15801561262e573d6000803e3d6000fd5b505060ce546040516331a9108f60e11b8152600481018790526001600160a01b039091169250636352211e9150602401602060405180830381865afa15801561267b573d6000803e3d6000fd5b505050506040513d601f19601f8201168201806040525081019061269f91906145f3565b90505b600083815260cb602090815260408083206001600160a01b0386168452909152902054806127055760405162461bcd60e51b815260206004820152601060248201526f6e6f7468696e6720746f20636c61696d60801b6044820152606401610959565b600084815260cb602090815260408083206001600160a01b0387168452909152812055612733828483613666565b60408051858152602081018390526001600160a01b038516917f2227733fc4c8a9034cb58087dcf6995128b9c0233b038b03366aaf30c92b92d6910160405180910390a250505050565b612785612bb1565b60cf80546001600160a01b0319166001600160a01b0392909216919091179055565b6127af612bb1565b60cf805461ffff60a01b1916600160a01b61ffff8416908102919091179091556040519081527f8339189e972f7fba792126e752aa8485af08710bce4a041c5bc3f9858acd713090602001611483565b612807612bb1565b6001600160a01b03811661286c5760405162461bcd60e51b815260206004820152602660248201527f4f776e61626c653a206e6577206f776e657220697320746865207a65726f206160448201526564647265737360d01b6064820152608401610959565b610417816135ae565b600054610100900460ff16158080156128955750600054600160ff909116105b806128af5750303b1580156128af575060005460ff166001145b6129125760405162461bcd60e51b815260206004820152602e60248201527f496e697469616c697a61626c653a20636f6e747261637420697320616c72656160448201526d191e481a5b9a5d1a585b1a5e995960921b6064820152608401610959565b6000805460ff191660011790558015612935576000805461ff0019166101001790555b61293d613740565b61294561376f565b60cc80546001600160a01b038088166001600160a01b03199283161790925560cd805487841690831617905560ce805486841690831617905560cf80549285169290911691909117905561299d60d180546001019055565b6129a760646127a7565b80156115f5576000805461ff0019169055604051600181527f7f26b83ff96e1f2b6a682f133852f6798a09c465da95921460cefb38474024989060200160405180910390a15050505050565b600060143610801590612a1557503360009081526065602052604090205460ff165b15612a27575060131936013560601c90565b503390565b6000612710612a3f61ffff841686614b3e565b612a4d61ffff861687614b3e565b60cf54612a6590600160a01b900461ffff1688614b3e565b612a6f9190614ab2565b612a799190614ab2565b612a839190614b55565b612a8d9085614ab2565b90505b9392505050565b600060ca600084815260200190815260200160002090507f8b4f0e94aa0aee74c276abd2d92a5e2737a493b055e19d5b2d4c0ac573242a158386868460030160009054906101000a90046001600160a01b031685600401548660050154876006015460cf60149054906101000a900461ffff168960070160029054906101000a900461ffff168a60070160049054906101000a900461ffff168b60070160069054906101000a90046001600160a01b03168c600c018d600d0154604051612b6a9d9c9b9a99989796959493929190614b77565b60405180910390a1827f61606860eb6c87306811e2695215385101daab53bd6ab4e9f9049aead9363c7d83604051612ba29190614b2b565b60405180910390a25050505050565b612bb96129f3565b6001600160a01b0316612bd46033546001600160a01b031690565b6001600160a01b031614611df75760405162461bcd60e51b815260206004820181905260248201527f4f776e61626c653a2063616c6c6572206973206e6f7420746865206f776e65726044820152606401610959565b600082815260ca602052604090206002821115612c7a5760405162461bcd60e51b815260206004820152600e60248201526d496e76616c69642072756c696e6760901b6044820152606401610959565b60018101546002820154600483018054600985018054600a87018054600095869055928590559390935560078601805460ff60d01b1916600160d21b1790556001600160a01b0394851694909316929091906000198701612d35576040516001600160a01b038616908390600081818185875af1925050503d8060008114612d1e576040519150601f19603f3d011682016040523d82523d6000602084013e612d23565b606091505b505050612d308884613600565b612e70565b6001198701612d99576040516001600160a01b038516908290600081818185875af1925050503d8060008114612d87576040519150601f19603f3d011682016040523d82523d6000602084013e612d8c565b606091505b505050612d308884613311565b6000612da6600284614b55565b90506000612db5600286614b55565b9050612dc18a82613600565b612dcb8a82613311565b6040516001600160a01b038816908390600081818185875af1925050503d8060008114612e14576040519150601f19603f3d011682016040523d82523d6000602084013e612e19565b606091505b50506040516001600160a01b03881691508390600081818185875af1925050503d8060008114612e65576040519150601f19603f3d011682016040523d82523d6000602084013e612e6a565b606091505b50505050505b877f76b363d70472d47d20e4119f3625c05ed37ca51b1d9e1cd8b87d8c20530640f388604051612ea291815260200190565b60405180910390a25050505050505050565b610417612bb1565b7f4910fdfa16fed3260ed0e7147f7cc6da11a60208b5b9406d12a635614ffd91435460ff1615612eef57611de083613796565b826001600160a01b03166352d1902d6040518163ffffffff1660e01b8152600401602060405180830381865afa925050508015612f49575060408051601f3d908101601f19168201909252612f46918101906143b7565b60015b612fac5760405162461bcd60e51b815260206004820152602e60248201527f45524331393637557067726164653a206e657720696d706c656d656e7461746960448201526d6f6e206973206e6f74205555505360901b6064820152608401610959565b600080516020614ca9833981519152811461301b5760405162461bcd60e51b815260206004820152602960248201527f45524331393637557067726164653a20756e737570706f727465642070726f786044820152681a58589b195555525160ba1b6064820152608401610959565b50611de0838383613832565b600084815260ca602052604081209084600181111561304857613048613e84565b036130ee5760cd546040516331a9108f60e11b8152600481018590526001600160a01b0390911690636352211e90602401602060405180830381865afa158015613096573d6000803e3d6000fd5b505050506040513d601f19601f820116820180604052508101906130ba91906145f3565b60018201546001600160a01b039081169116146130e95760405162461bcd60e51b815260040161095990614728565b6131a3565b600184600181111561310257613102613e84565b036131a35760cd546040516331a9108f60e11b8152600481018590526001600160a01b0390911690636352211e90602401602060405180830381865afa158015613150573d6000803e3d6000fd5b505050506040513d601f19601f8201168201806040525081019061317491906145f3565b60028201546001600160a01b039081169116146131a35760405162461bcd60e51b815260040161095990614728565b60d1548154106131ee5760405162461bcd60e51b8152602060048201526016602482015275125b9d985b1a59081d1c985b9cd858dd1a5bdb881a5960521b6044820152606401610959565b60006007820154600160d01b900460ff16600481111561321057613210613e84565b1461326b5760405162461bcd60e51b815260206004820152602560248201527f546865207472616e73616374696f6e2073686f756c646e2774206265206469736044820152641c1d5d195960da1b6064820152608401610959565b81816004015410156132b45760405162461bcd60e51b8152602060048201526012602482015271496e73756666696369656e742066756e647360701b6044820152606401610959565b612710821015806132d45750612710821080156132d45750806004015482145b6115f55760405162461bcd60e51b815260206004820152600e60248201526d416d6f756e7420746f6f206c6f7760901b6044820152606401610959565b61331b8282613857565b600082815260ca602052604090206002810154600382015461334a916001600160a01b03908116911684613666565b611de083600084613b71565b600082815260ca60205260409081902060078101805460ff60d01b1916600360d01b1790819055915163c13517e160e01b81529091600160301b90046001600160a01b031690819063c13517e19085906133ba90600290600c880190600401614c05565b60206040518083038185885af11580156133d8573d6000803e3d6000fd5b50505050506040513d601f19601f820116820180604052508101906133fd91906143b7565b60088301818155600091825260d0602090815260409283902087905590548251878152918201879052916001600160a01b038416917f74baab670a4015ab2f1b467c5252a96141a2573f2908e58a92081e80d3cfde3d910160405180910390a3828260090154111561350857600083836009015461347b9190614970565b6009840185905560018401546040519192506001600160a01b0316908290600081818185875af1925050503d80600081146134d2576040519150601f19603f3d011682016040523d82523d6000602084013e6134d7565b606091505b50505084600080516020614cc983398151915260016000346040516134fe93929190614ad5565b60405180910390a2505b8282600a015411156135a85760008383600a01546135269190614970565b600a840185905560028401546040519192506001600160a01b0316908290600081818185875af1925050503d806000811461357d576040519150601f19603f3d011682016040523d82523d6000602084013e613582565b606091505b50505084600080516020614cc983398151915260018034604051612ba293929190614ad5565b50505050565b603380546001600160a01b038381166001600160a01b0319831681179093556040519116919082907f8be0079c531659141344cd1fd0a4f28419497f9722a3daafe3b4186f6b6457e090600090a35050565b600082815260ca60205260408120600781015490919061363690849061ffff620100008204811691640100000000900416612a2c565b6001830154600384015491925061365a916001600160a01b03918216911683613666565b6135a884600185613b71565b6001600160a01b0382166000036136cd576040516001600160a01b038416908290600081818185875af1925050503d80600081146136c0576040519150601f19603f3d011682016040523d82523d6000602084013e6136c5565b606091505b505050505050565b60405163a9059cbb60e01b81526001600160a01b0384811660048301526024820183905283169063a9059cbb906044016020604051808303816000875af115801561371c573d6000803e3d6000fd5b505050506040513d601f19601f820116820180604052508101906135a89190614871565b600054610100900460ff166137675760405162461bcd60e51b815260040161095990614c21565b611df7613c8e565b600054610100900460ff16611df75760405162461bcd60e51b815260040161095990614c21565b6001600160a01b0381163b6138035760405162461bcd60e51b815260206004820152602d60248201527f455243313936373a206e657720696d706c656d656e746174696f6e206973206e60448201526c1bdd08184818dbdb9d1c9858dd609a1b6064820152608401610959565b600080516020614ca983398151915280546001600160a01b0319166001600160a01b0392909216919091179055565b61383b83613cc5565b6000825111806138485750805b15611de0576135a88383613d05565b600082815260ca602052604080822060cc546005820154925163ef0e239b60e01b81529193926001600160a01b039091169163ef0e239b9161389f9160040190815260200190565b600060405180830381865afa1580156138bc573d6000803e3d6000fd5b505050506040513d6000823e601f3d908101601f191682016040526138e49190810190614457565b60a0015160cc546005840154600685015460405163aba2100960e01b8152600481019290925260248201529192506000916001600160a01b039091169063aba2100990604401600060405180830381865afa158015613947573d6000803e3d6000fd5b505050506040513d6000823e601f3d908101601f1916820160405261396f9190810190614532565b60800151600784015461ffff91821692506000916127109161399391889116614b3e565b61399d9190614b55565b6007850154909150600090612710906139c190889062010000900461ffff16614b3e565b6139cb9190614b55565b6007860154909150600090612710906139f1908990640100000000900461ffff16614b3e565b6139fb9190614b55565b60038701546001600160a01b031660009081527f4239c2c8c3d9b94feb214b0f54d7c869ce1ceb63517be57644336cda4967a4686020526040812080549293508592909190613a4b908490614ab2565b9091555050600085815260cb6020908152604080832060038a01546001600160a01b0316845290915281208054849290613a86908490614ab2565b9091555050600084815260cb6020908152604080832060038a01546001600160a01b0316845290915281208054839290613ac1908490614ab2565b90915550506003860154600587015460408051888152602081019290925281018490526001600160a01b03909116907f17c48ab8e1617182f35ae77fd7da7f4e15dedf7018aa371a4481c20c790b65469060600160405180910390a26003860154600587015460408051878152602081019290925281018490526001600160a01b03909116907f3476ed3eea2cdac584273bc8830824c8ca42ca2a99e9f144a87a1cdbbf9dd15a90606001612ea2565b600083815260ca602052604090819020805460038201546005830154935192937f2ab2a30b19f7bc6e386d4ee60aa21ed23c127ce9fe26903da97edd54bad0375a93613bce939288926001600160a01b0390911691889190614c6c565b60405180910390a180600401546000036135a85760cc546005820154604051631271956760e21b81526001600160a01b03909216916349c6559c91613c199160040190815260200190565b600060405180830381600087803b158015613c3357600080fd5b505af1158015613c47573d6000803e3d6000fd5b505050507f6bef1b5e95b741d6e665eb9b5c2d3e1203c46a771451055a9d41e0b8ff4510b78160050154604051613c8091815260200190565b60405180910390a150505050565b600054610100900460ff16613cb55760405162461bcd60e51b815260040161095990614c21565b611df7613cc06129f3565b6135ae565b613cce81613796565b6040516001600160a01b038216907fbc7cd75a20ee27fd9adebab32041f755214dbc6bffa90cc0225b39da2e5c2d3b90600090a250565b60606001600160a01b0383163b613d6d5760405162461bcd60e51b815260206004820152602660248201527f416464726573733a2064656c65676174652063616c6c20746f206e6f6e2d636f6044820152651b9d1c9858dd60d21b6064820152608401610959565b600080846001600160a01b031684604051613d88919061474f565b600060405180830381855af49150503d8060008114613dc3576040519150601f19603f3d011682016040523d82523d6000602084013e613dc8565b606091505b5091509150613df08282604051806060016040528060278152602001614ce960279139613dfb565b925050505b92915050565b60608315613e0a575081612a90565b612a908383815115613e1f5781518083602001fd5b8060405162461bcd60e51b81526004016109599190614b2b565b6001600160a01b038116811461041757600080fd5b600060208284031215613e6057600080fd5b8135612a9081613e39565b600060208284031215613e7d57600080fd5b5035919050565b634e487b7160e01b600052602160045260246000fd5b60058110613eaa57613eaa613e84565b9052565b60005b83811015613ec9578181015183820152602001613eb1565b50506000910152565b60008151808452613eea816020860160208601613eae565b601f01601f19169290920160200192915050565b602081528151602082015260006020830151613f2560408401826001600160a01b03169052565b5060408301516001600160a01b03811660608401525060608301516001600160a01b038116608084015250608083015160a083015260a083015160c083015260c083015160e083015260e0830151610100613f858185018361ffff169052565b8401519050610120613f9c8482018361ffff169052565b8401519050610140613fb38482018361ffff169052565b8401519050610160613fcf848201836001600160a01b03169052565b8401519050610180613fe384820183613e9a565b8401516101a0848101919091528401516101c0808501919091528401516101e0808501919091528401516102008085019190915284015161024061022080860182905291925090614038610260860184613ed2565b9501519301929092525090919050565b634e487b7160e01b600052604160045260246000fd5b60405160c0810167ffffffffffffffff8111828210171561408157614081614048565b60405290565b60405160e0810167ffffffffffffffff8111828210171561408157614081614048565b604051610140810167ffffffffffffffff8111828210171561408157614081614048565b604051601f8201601f1916810167ffffffffffffffff811182821017156140f7576140f7614048565b604052919050565b600067ffffffffffffffff82111561411957614119614048565b50601f01601f191660200190565b600061413a614135846140ff565b6140ce565b905082815283838301111561414e57600080fd5b828260208301376000602084830101529392505050565b600082601f83011261417657600080fd5b612a9083833560208501614127565b6000806000806080858703121561419b57600080fd5b8435935060208501359250604085013567ffffffffffffffff808211156141c157600080fd5b6141cd88838901614165565b935060608701359150808211156141e357600080fd5b506141f087828801614165565b91505092959194509250565b6000806040838503121561420f57600080fd5b50508035926020909101359150565b60008060006060848603121561423357600080fd5b505081359360208301359350604090920135919050565b6000806040838503121561425d57600080fd5b823561426881613e39565b9150602083013567ffffffffffffffff81111561428457600080fd5b8301601f8101851361429557600080fd5b6142a485823560208401614127565b9150509250929050565b6000806000606084860312156142c357600080fd5b8335925060208401359150604084013567ffffffffffffffff8111156142e857600080fd5b6142f486828701614165565b9150509250925092565b6000806040838503121561431157600080fd5b82359150602083013561432381613e39565b809150509250929050565b61ffff8116811461041757600080fd5b60006020828403121561435057600080fd5b8135612a908161432e565b6000806000806080858703121561437157600080fd5b843561437c81613e39565b9350602085013561438c81613e39565b9250604085013561439c81613e39565b915060608501356143ac81613e39565b939692955090935050565b6000602082840312156143c957600080fd5b5051919050565b600181811c908216806143e457607f821691505b60208210810361440457634e487b7160e01b600052602260045260246000fd5b50919050565b600082601f83011261441b57600080fd5b8151614429614135826140ff565b81815284602083860101111561443e57600080fd5b61444f826020830160208701613eae565b949350505050565b60006020828403121561446957600080fd5b815167ffffffffffffffff8082111561448157600080fd5b9083019060c0828603121561449557600080fd5b61449d61405e565b8251600481106144ac57600080fd5b8082525060208301516020820152604083015160408201526060830151828111156144d657600080fd5b6144e28782860161440a565b6060830152506080830151608082015260a083015160a082015280935050505092915050565b80516002811061451757600080fd5b919050565b805161451781613e39565b80516145178161432e565b60006020828403121561454457600080fd5b815167ffffffffffffffff8082111561455c57600080fd5b9083019060e0828603121561457057600080fd5b614578614087565b61458183614508565b8152602083015160208201526145996040840161451c565b6040820152606083015160608201526145b460808401614527565b608082015260a0830151828111156145cb57600080fd5b6145d78782860161440a565b60a08301525060c083015160c082015280935050505092915050565b60006020828403121561460557600080fd5b8151612a9081613e39565b60006020828403121561462257600080fd5b815167ffffffffffffffff8082111561463a57600080fd5b90830190610140828603121561464f57600080fd5b6146576140aa565b8251815260208301518281111561466d57600080fd5b6146798782860161440a565b60208301525060408301518281111561469157600080fd5b61469d8782860161440a565b6040830152506146af60608401614527565b60608201526146c060808401614527565b608082015260a083015160a082015260c083015160c08201526146e560e0840161451c565b60e082015261010080840151838111156146fe57600080fd5b61470a8882870161440a565b91830191909152506101209283015192810192909252509392505050565b6020808252600d908201526c1058d8d95cdcc819195b9a5959609a1b604082015260600190565b60008251614761818460208701613eae565b9190910192915050565b601f821115611de057600081815260208120601f850160051c810160208610156147925750805b601f850160051c820191505b818110156136c55782815560010161479e565b815167ffffffffffffffff8111156147cb576147cb614048565b6147df816147d984546143d0565b8461476b565b602080601f83116001811461481457600084156147fc5750858301515b600019600386901b1c1916600185901b1785556136c5565b600085815260208120601f198616915b8281101561484357888601518255948401946001909101908401614824565b50858210156148615787850151600019600388901b60f8161c191681555b5050505050600190811b01905550565b60006020828403121561488357600080fd5b81518015158114612a9057600080fd5b6020808252602c908201527f46756e6374696f6e206d7573742062652063616c6c6564207468726f7567682060408201526b19195b1959d85d1958d85b1b60a21b606082015260800190565b6020808252602c908201527f46756e6374696f6e206d7573742062652063616c6c6564207468726f7567682060408201526b6163746976652070726f787960a01b606082015260800190565b6020808252601590820152744e6f74206f776e6572206f722064656c656761746560581b604082015260600190565b634e487b7160e01b600052601160045260246000fd5b81810381811115613df557613df561495a565b602080825260129082015271105c989a5d1c985d1bdc881b9bdd081cd95d60721b604082015260600190565b6020808252604d908201527f446973707574652068617320616c7265616479206265656e206372656174656460408201527f206f72206265636175736520746865207472616e73616374696f6e206861732060608201526c1899595b88195e1958dd5d1959609a1b608082015260a00190565b60008154614a2f816143d0565b808552602060018381168015614a4c5760018114614a6657614a94565b60ff1985168884015283151560051b880183019550614a94565b866000528260002060005b85811015614a8c5781548a8201860152908301908401614a71565b890184019650505b505050505092915050565b602081526000612a906020830184614a22565b80820180821115613df557613df561495a565b6002811061041757610417613e84565b60608101614ae285614ac5565b848252614aee84614ac5565b602082019390935260400152919050565b60208101614b0c83614ac5565b91905290565b828152604060208201526000612a8d6040830184614a22565b602081526000612a906020830184613ed2565b8082028115828204841417613df557613df561495a565b600082614b7257634e487b7160e01b600052601260045260246000fd5b500490565b8d8152602081018d9052604081018c90526001600160a01b038b81166060830152608082018b905260a082018a905260c0820189905261ffff88811660e08401528781166101008401528616610120830152841661014082015260006101a080610160840152614be981840186614a22565b915050826101808301529e9d5050505050505050505050505050565b60ff83168152604060208201526000612a8d6040830184614a22565b6020808252602b908201527f496e697469616c697a61626c653a20636f6e7472616374206973206e6f74206960408201526a6e697469616c697a696e6760a81b606082015260800190565b85815260a08101614c7c86614ac5565b60208201959095526001600160a01b03939093166040840152606083019190915260809091015291905056fe360894a13ba1a3210667c828492db98dca3e2076cc3735a920a3ca505d382bbc73e533bc8a993eccbc1023beebad0020f6b6c3639f83062f00fc194b4d1172ba416464726573733a206c6f772d6c6576656c2064656c65676174652063616c6c206661696c6564a2646970667358221220f89b7c4ea395f1cadec8c3c5ed1552a891e734dd7e3d912abfbb3e698083d97d64736f6c63430008110033",
  "linkReferences": {},
  "deployedLinkReferences": {}
}