{
  "_format": "hh-sol-artifact-1",
  "contractName": "TalentLayerReview",
  "sourceName": "contracts/TalentLayerReview.sol",
  "abi": [
    {
      "inputs": [
        {
          "internalType": "string",
          "name": "name_",
          "type": "string"
        },
        {
          "internalType": "string",
          "name": "symbol_",
          "type": "string"
        },
        {
          "internalType": "address",
          "name": "_talentLayerIdAddress",
          "type": "address"
        },
        {
          "internalType": "address",
          "name": "_jobRegistryAddress",
          "type": "address"
        }
      ],
      "stateMutability": "nonpayable",
      "type": "constructor"
    },
    {
      "inputs": [],
      "name": "ReviewAlreadyMinted",
      "type": "error"
    },
    {
      "anonymous": false,
      "inputs": [
        {
          "indexed": true,
          "internalType": "address",
          "name": "owner",
          "type": "address"
        },
        {
          "indexed": true,
          "internalType": "address",
          "name": "approved",
          "type": "address"
        },
        {
          "indexed": true,
          "internalType": "uint256",
          "name": "tokenId",
          "type": "uint256"
        }
      ],
      "name": "Approval",
      "type": "event"
    },
    {
      "anonymous": false,
      "inputs": [
        {
          "indexed": true,
          "internalType": "address",
          "name": "owner",
          "type": "address"
        },
        {
          "indexed": true,
          "internalType": "address",
          "name": "operator",
          "type": "address"
        },
        {
          "indexed": false,
          "internalType": "bool",
          "name": "approved",
          "type": "bool"
        }
      ],
      "name": "ApprovalForAll",
      "type": "event"
    },
    {
      "anonymous": false,
      "inputs": [
        {
          "indexed": true,
          "internalType": "uint256",
          "name": "_jobId",
          "type": "uint256"
        },
        {
          "indexed": true,
          "internalType": "uint256",
          "name": "_toId",
          "type": "uint256"
        },
        {
          "indexed": true,
          "internalType": "uint256",
          "name": "_tokenId",
          "type": "uint256"
        },
        {
          "indexed": false,
          "internalType": "string",
          "name": "_reviewUri",
          "type": "string"
        }
      ],
      "name": "Mint",
      "type": "event"
    },
    {
      "anonymous": false,
      "inputs": [
        {
          "indexed": true,
          "internalType": "address",
          "name": "from",
          "type": "address"
        },
        {
          "indexed": true,
          "internalType": "address",
          "name": "to",
          "type": "address"
        },
        {
          "indexed": true,
          "internalType": "uint256",
          "name": "tokenId",
          "type": "uint256"
        }
      ],
      "name": "Transfer",
      "type": "event"
    },
    {
      "inputs": [
        {
          "internalType": "uint256",
          "name": "_jobId",
          "type": "uint256"
        },
        {
          "internalType": "uint256",
          "name": "_tokenId",
          "type": "uint256"
        },
        {
          "internalType": "string",
          "name": "_reviewUri",
          "type": "string"
        }
      ],
      "name": "addReview",
      "outputs": [],
      "stateMutability": "nonpayable",
      "type": "function"
    },
    {
      "inputs": [
        {
          "internalType": "address",
          "name": "to",
          "type": "address"
        },
        {
          "internalType": "uint256",
          "name": "tokenId",
          "type": "uint256"
        }
      ],
      "name": "approve",
      "outputs": [],
      "stateMutability": "nonpayable",
      "type": "function"
    },
    {
      "inputs": [
        {
          "internalType": "address",
          "name": "owner",
          "type": "address"
        }
      ],
      "name": "balanceOf",
      "outputs": [
        {
          "internalType": "uint256",
          "name": "",
          "type": "uint256"
        }
      ],
      "stateMutability": "view",
      "type": "function"
    },
    {
      "inputs": [
        {
          "internalType": "uint256",
          "name": "tokenId",
          "type": "uint256"
        }
      ],
      "name": "getApproved",
      "outputs": [
        {
          "internalType": "address",
          "name": "",
          "type": "address"
        }
      ],
      "stateMutability": "view",
      "type": "function"
    },
    {
      "inputs": [
        {
          "internalType": "address",
          "name": "owner",
          "type": "address"
        },
        {
          "internalType": "address",
          "name": "operator",
          "type": "address"
        }
      ],
      "name": "isApprovedForAll",
      "outputs": [
        {
          "internalType": "bool",
          "name": "",
          "type": "bool"
        }
      ],
      "stateMutability": "view",
      "type": "function"
    },
    {
      "inputs": [],
      "name": "name",
      "outputs": [
        {
          "internalType": "string",
          "name": "",
          "type": "string"
        }
      ],
      "stateMutability": "view",
      "type": "function"
    },
    {
      "inputs": [
        {
          "internalType": "uint256",
          "name": "",
          "type": "uint256"
        }
      ],
      "name": "nftMintedByJobAndemployeeId",
      "outputs": [
        {
          "internalType": "uint256",
          "name": "",
          "type": "uint256"
        }
      ],
      "stateMutability": "view",
      "type": "function"
    },
    {
      "inputs": [
        {
          "internalType": "uint256",
          "name": "",
          "type": "uint256"
        }
      ],
      "name": "nftMintedByJobAndemployerId",
      "outputs": [
        {
          "internalType": "uint256",
          "name": "",
          "type": "uint256"
        }
      ],
      "stateMutability": "view",
      "type": "function"
    },
    {
      "inputs": [
        {
          "internalType": "uint256",
          "name": "tokenId",
          "type": "uint256"
        }
      ],
      "name": "ownerOf",
      "outputs": [
        {
          "internalType": "address",
          "name": "",
          "type": "address"
        }
      ],
      "stateMutability": "view",
      "type": "function"
    },
    {
      "inputs": [
        {
          "internalType": "uint256",
          "name": "",
          "type": "uint256"
        }
      ],
      "name": "reviewDataUri",
      "outputs": [
        {
          "internalType": "string",
          "name": "",
          "type": "string"
        }
      ],
      "stateMutability": "view",
      "type": "function"
    },
    {
      "inputs": [
        {
          "internalType": "address",
          "name": "from",
          "type": "address"
        },
        {
          "internalType": "address",
          "name": "to",
          "type": "address"
        },
        {
          "internalType": "uint256",
          "name": "tokenId",
          "type": "uint256"
        }
      ],
      "name": "safeTransferFrom",
      "outputs": [],
      "stateMutability": "nonpayable",
      "type": "function"
    },
    {
      "inputs": [
        {
          "internalType": "address",
          "name": "from",
          "type": "address"
        },
        {
          "internalType": "address",
          "name": "to",
          "type": "address"
        },
        {
          "internalType": "uint256",
          "name": "tokenId",
          "type": "uint256"
        },
        {
          "internalType": "bytes",
          "name": "data",
          "type": "bytes"
        }
      ],
      "name": "safeTransferFrom",
      "outputs": [],
      "stateMutability": "nonpayable",
      "type": "function"
    },
    {
      "inputs": [
        {
          "internalType": "address",
          "name": "operator",
          "type": "address"
        },
        {
          "internalType": "bool",
          "name": "approved",
          "type": "bool"
        }
      ],
      "name": "setApprovalForAll",
      "outputs": [],
      "stateMutability": "nonpayable",
      "type": "function"
    },
    {
      "inputs": [
        {
          "internalType": "bytes4",
          "name": "interfaceId",
          "type": "bytes4"
        }
      ],
      "name": "supportsInterface",
      "outputs": [
        {
          "internalType": "bool",
          "name": "",
          "type": "bool"
        }
      ],
      "stateMutability": "view",
      "type": "function"
    },
    {
      "inputs": [],
      "name": "symbol",
      "outputs": [
        {
          "internalType": "string",
          "name": "",
          "type": "string"
        }
      ],
      "stateMutability": "view",
      "type": "function"
    },
    {
      "inputs": [
        {
          "internalType": "uint256",
          "name": "tokenId",
          "type": "uint256"
        }
      ],
      "name": "tokenURI",
      "outputs": [
        {
          "internalType": "string",
          "name": "",
          "type": "string"
        }
      ],
      "stateMutability": "view",
      "type": "function"
    },
    {
      "inputs": [
        {
          "internalType": "address",
          "name": "from",
          "type": "address"
        },
        {
          "internalType": "address",
          "name": "to",
          "type": "address"
        },
        {
          "internalType": "uint256",
          "name": "tokenId",
          "type": "uint256"
        }
      ],
      "name": "transferFrom",
      "outputs": [],
      "stateMutability": "nonpayable",
      "type": "function"
    }
  ],
  "bytecode": "0x60806040523480156200001157600080fd5b5060405162001b9e38038062001b9e833981016040819052620000349162000225565b83516200004990600090602087019062000095565b5082516200005f90600190602086019062000095565b50600980546001600160a01b039384166001600160a01b031991821617909155600a805492909316911617905550620002f19050565b828054620000a390620002b4565b90600052602060002090601f016020900481019282620000c7576000855562000112565b82601f10620000e257805160ff191683800117855562000112565b8280016001018555821562000112579182015b8281111562000112578251825591602001919060010190620000f5565b506200012092915062000124565b5090565b5b8082111562000120576000815560010162000125565b634e487b7160e01b600052604160045260246000fd5b600082601f8301126200016357600080fd5b81516001600160401b03808211156200018057620001806200013b565b604051601f8301601f19908116603f01168101908282118183101715620001ab57620001ab6200013b565b81604052838152602092508683858801011115620001c857600080fd5b600091505b83821015620001ec5785820183015181830184015290820190620001cd565b83821115620001fe5760008385830101525b9695505050505050565b80516001600160a01b03811681146200022057600080fd5b919050565b600080600080608085870312156200023c57600080fd5b84516001600160401b03808211156200025457600080fd5b620002628883890162000151565b955060208701519150808211156200027957600080fd5b50620002888782880162000151565b935050620002996040860162000208565b9150620002a96060860162000208565b905092959194509250565b600181811c90821680620002c957607f821691505b60208210811415620002eb57634e487b7160e01b600052602260045260246000fd5b50919050565b61189d80620003016000396000f3fe608060405234801561001057600080fd5b506004361061010b5760003560e01c806352a2383b116100a2578063a22cb46511610071578063a22cb46514610235578063b88d4fde14610248578063c87b56dd1461025b578063e490eebf1461026e578063e985e9c51461028e57600080fd5b806352a2383b146101f45780636352211e1461020757806370a082311461021a57806395d89b411461022d57600080fd5b806323b872dd116100de57806323b872dd1461018d5780633e12b125146101a05780633e9e27aa146101ce57806342842e0e146101e157600080fd5b806301ffc9a71461011057806306fdde0314610138578063081812fc1461014d578063095ea7b314610178575b600080fd5b61012361011e366004611125565b6102ca565b60405190151581526020015b60405180910390f35b61014061031c565b60405161012f919061119a565b61016061015b3660046111ad565b6103ae565b6040516001600160a01b03909116815260200161012f565b61018b6101863660046111db565b6103d5565b005b61018b61019b366004611207565b61050d565b6101c06101ae3660046111ad565b60076020526000908152604090205481565b60405190815260200161012f565b61018b6101dc366004611248565b610533565b61018b6101ef366004611207565b6107b2565b6101406102023660046111ad565b6107cd565b6101606102153660046111ad565b610867565b6101c06102283660046112c8565b61091f565b610140610a29565b61018b6102433660046112e5565b610a38565b61018b6102563660046113bb565b610a47565b6101406102693660046111ad565b610a7f565b6101c061027c3660046111ad565b60086020526000908152604090205481565b61012361029c36600461146a565b6001600160a01b03918216600090815260056020908152604080832093909416825291909152205460ff1690565b60006001600160e01b031982166380ac58cd60e01b14806102fb57506001600160e01b03198216635b5e139f60e01b145b8061031657506301ffc9a760e01b6001600160e01b03198316145b92915050565b60606000805461032b90611498565b80601f016020809104026020016040519081016040528092919081815260200182805461035790611498565b80156103a45780601f10610379576101008083540402835291602001916103a4565b820191906000526020600020905b81548152906001019060200180831161038757829003601f168201915b5050505050905090565b60006103b982610af3565b506000908152600460205260409020546001600160a01b031690565b60006103e082610867565b9050806001600160a01b0316836001600160a01b0316141561045e5760405162461bcd60e51b815260206004820152602c60248201527f54616c656e744c617965725265766965773a20617070726f76616c20746f206360448201526b3ab93932b73a1037bbb732b960a11b60648201526084015b60405180910390fd5b336001600160a01b038216148061047a575061047a813361029c565b6104fe5760405162461bcd60e51b815260206004820152604960248201527f54616c656e744c617965725265766965773a20617070726f76652063616c6c6560448201527f72206973206e6f7420746f6b656e206f776e6572206e6f7220617070726f76656064820152681908199bdc88185b1b60ba1b608482015260a401610455565b6105088383610b21565b505050565b6105173382610b8f565b6105085760405162461bcd60e51b8152600401610455906114d3565b600a5460405163bf22c45760e01b8152600481018690526000916001600160a01b03169063bf22c4579060240160006040518083038186803b15801561057857600080fd5b505afa15801561058c573d6000803e3d6000fd5b505050506040513d6000823e601f3d908101601f191682016040526105b49190810190611530565b60095460405162438b6360e81b81523360048201529192506000916001600160a01b039091169063438b63009060240160206040518083038186803b1580156105fc57600080fd5b505afa158015610610573d6000803e3d6000fd5b505050506040513d601f19601f82011682018060405250810190610634919061160f565b9050816020015181148061064b5750816040015181145b6106975760405162461bcd60e51b815260206004820152601f60248201527f596f75277265206e6f7420616e206163746f72206f662074686973206a6f62006044820152606401610455565b6002825160038111156106ac576106ac611628565b146106f95760405162461bcd60e51b815260206004820152601b60248201527f546865206a6f62206973206e6f742066696e69736865642079657400000000006044820152606401610455565b60008260200151821415610753575060408083015160008881526007602052919091205482141561073d57604051633d36d72960e01b815260040160405180910390fd5b600087815260076020526040902082905561079c565b506020808301516000888152600890925260409091205482141561078a57604051633d36d72960e01b815260040160405180910390fd5b60008781526008602052604090208290555b6107a98782888888610c0e565b50505050505050565b61050883838360405180602001604052806000815250610a47565b600660205260009081526040902080546107e690611498565b80601f016020809104026020016040519081016040528092919081815260200182805461081290611498565b801561085f5780601f106108345761010080835404028352916020019161085f565b820191906000526020600020905b81548152906001019060200180831161084257829003601f168201915b505050505081565b6009546000828152600260205260408082205490516331a9108f60e11b81526004810191909152909182916001600160a01b0390911690636352211e9060240160206040518083038186803b1580156108bf57600080fd5b505afa1580156108d3573d6000803e3d6000fd5b505050506040513d601f19601f820116820180604052508101906108f7919061163e565b90506001600160a01b0381166103165760405162461bcd60e51b81526004016104559061165b565b60006001600160a01b0382166109925760405162461bcd60e51b815260206004820152603260248201527f54616c656e744c617965725265766965773a20746f6b656e207a65726f206973604482015271103737ba1030903b30b634b21037bbb732b960711b6064820152608401610455565b60095460405162438b6360e81b81526001600160a01b03848116600483015260039260009291169063438b63009060240160206040518083038186803b1580156109db57600080fd5b505afa1580156109ef573d6000803e3d6000fd5b505050506040513d601f19601f82011682018060405250810190610a13919061160f565b8152602001908152602001600020549050919050565b60606001805461032b90611498565b610a43338383610d68565b5050565b610a513383610b8f565b610a6d5760405162461bcd60e51b8152600401610455906114d3565b610a7984848484610e43565b50505050565b6060610a8a82610af3565b6000610aa160408051602081019091526000815290565b90506000815111610ac15760405180602001604052806000815250610aec565b80610acb84610e6b565b604051602001610adc92919061169e565b6040516020818303038152906040525b9392505050565b600081815260026020526040902054610b1e5760405162461bcd60e51b81526004016104559061165b565b50565b600081815260046020526040902080546001600160a01b0319166001600160a01b0384169081179091558190610b5682610867565b6001600160a01b03167f8c5be1e5ebec7d5bd14f71427d1e84f3dd0314c0f7b2291e5b200ac8c7c3b92560405160405180910390a45050565b600080610b9b83610867565b9050806001600160a01b0316846001600160a01b03161480610be257506001600160a01b0380821660009081526005602090815260408083209388168352929052205460ff165b80610c065750836001600160a01b0316610bfb846103ae565b6001600160a01b0316145b949350505050565b83610c6e5760405162461bcd60e51b815260206004820152602a60248201527f54616c656e744c617965725265766965773a206d696e7420746f20696e76616c6044820152696964206164647265737360b01b6064820152608401610455565b60008381526002602052604090205415610cda5760405162461bcd60e51b815260206004820152602760248201527f54616c656e744c617965725265766965773a20746f6b656e20616c7265616479604482015266081b5a5b9d195960ca1b6064820152608401610455565b6000848152600360205260408120805460019290610cf99084906116e3565b9091555050600083815260026020908152604080832087905560069091529020610d24908383611076565b508284867f41ceeaff1edf8efbe8da5c98f09d54602d342b6b8a6049878d6a60a07136f8128585604051610d599291906116fb565b60405180910390a45050505050565b816001600160a01b0316836001600160a01b03161415610dd65760405162461bcd60e51b8152602060048201526024808201527f54616c656e744c617965725265766965773a20617070726f766520746f206361604482015263363632b960e11b6064820152608401610455565b6001600160a01b03838116600081815260056020908152604080832094871680845294825291829020805460ff191686151590811790915591519182527f17307eab39ab6107e8899845ad3d59bd9653f200f220920489ca2b5937696c31910160405180910390a3505050565b610e4f84848484610f69565b610a795760405162461bcd60e51b81526004016104559061172a565b606081610e8f5750506040805180820190915260018152600360fc1b602082015290565b8160005b8115610eb95780610ea381611787565b9150610eb29050600a836117b8565b9150610e93565b60008167ffffffffffffffff811115610ed457610ed4611323565b6040519080825280601f01601f191660200182016040528015610efe576020820181803683370190505b5090505b8415610c0657610f136001836117cc565b9150610f20600a866117e3565b610f2b9060306116e3565b60f81b818381518110610f4057610f406117f7565b60200101906001600160f81b031916908160001a905350610f62600a866117b8565b9450610f02565b60006001600160a01b0384163b1561106b57604051630a85bd0160e11b81526001600160a01b0385169063150b7a0290610fad90339089908890889060040161180d565b602060405180830381600087803b158015610fc757600080fd5b505af1925050508015610ff7575060408051601f3d908101601f19168201909252610ff49181019061184a565b60015b611051573d808015611025576040519150601f19603f3d011682016040523d82523d6000602084013e61102a565b606091505b5080516110495760405162461bcd60e51b81526004016104559061172a565b805181602001fd5b6001600160e01b031916630a85bd0160e11b149050610c06565b506001949350505050565b82805461108290611498565b90600052602060002090601f0160209004810192826110a457600085556110ea565b82601f106110bd5782800160ff198235161785556110ea565b828001600101855582156110ea579182015b828111156110ea5782358255916020019190600101906110cf565b506110f69291506110fa565b5090565b5b808211156110f657600081556001016110fb565b6001600160e01b031981168114610b1e57600080fd5b60006020828403121561113757600080fd5b8135610aec8161110f565b60005b8381101561115d578181015183820152602001611145565b83811115610a795750506000910152565b60008151808452611186816020860160208601611142565b601f01601f19169290920160200192915050565b602081526000610aec602083018461116e565b6000602082840312156111bf57600080fd5b5035919050565b6001600160a01b0381168114610b1e57600080fd5b600080604083850312156111ee57600080fd5b82356111f9816111c6565b946020939093013593505050565b60008060006060848603121561121c57600080fd5b8335611227816111c6565b92506020840135611237816111c6565b929592945050506040919091013590565b6000806000806060858703121561125e57600080fd5b8435935060208501359250604085013567ffffffffffffffff8082111561128457600080fd5b818701915087601f83011261129857600080fd5b8135818111156112a757600080fd5b8860208285010111156112b957600080fd5b95989497505060200194505050565b6000602082840312156112da57600080fd5b8135610aec816111c6565b600080604083850312156112f857600080fd5b8235611303816111c6565b91506020830135801515811461131857600080fd5b809150509250929050565b634e487b7160e01b600052604160045260246000fd5b60405160a0810167ffffffffffffffff8111828210171561135c5761135c611323565b60405290565b604051601f8201601f1916810167ffffffffffffffff8111828210171561138b5761138b611323565b604052919050565b600067ffffffffffffffff8211156113ad576113ad611323565b50601f01601f191660200190565b600080600080608085870312156113d157600080fd5b84356113dc816111c6565b935060208501356113ec816111c6565b925060408501359150606085013567ffffffffffffffff81111561140f57600080fd5b8501601f8101871361142057600080fd5b803561143361142e82611393565b611362565b81815288602083850101111561144857600080fd5b8160208401602083013760006020838301015280935050505092959194509250565b6000806040838503121561147d57600080fd5b8235611488816111c6565b91506020830135611318816111c6565b600181811c908216806114ac57607f821691505b602082108114156114cd57634e487b7160e01b600052602260045260246000fd5b50919050565b60208082526039908201527f54616c656e744c617965725265766965773a2063616c6c6572206973206e6f7460408201527f20746f6b656e206f776e6572206e6f7220617070726f76656400000000000000606082015260800190565b6000602080838503121561154357600080fd5b825167ffffffffffffffff8082111561155b57600080fd5b9084019060a0828703121561156f57600080fd5b611577611339565b82516004811061158657600080fd5b80825250838301518482015260408301516040820152606083015160608201526080830151828111156115b857600080fd5b80840193505086601f8401126115cd57600080fd5b825191506115dd61142e83611393565b82815287858486010111156115f157600080fd5b61160083868301878701611142565b60808201529695505050505050565b60006020828403121561162157600080fd5b5051919050565b634e487b7160e01b600052602160045260246000fd5b60006020828403121561165057600080fd5b8151610aec816111c6565b60208082526023908201527f54616c656e744c617965725265766965773a20696e76616c696420746f6b656e60408201526208125160ea1b606082015260800190565b600083516116b0818460208801611142565b8351908301906116c4818360208801611142565b01949350505050565b634e487b7160e01b600052601160045260246000fd5b600082198211156116f6576116f66116cd565b500190565b60208152816020820152818360408301376000818301604090810191909152601f909201601f19160101919050565b6020808252603d908201527f54616c656e744c617965725265766965773a207472616e7366657220746f206e60408201527f6f6e20455243373231526563656976657220696d706c656d656e746572000000606082015260800190565b600060001982141561179b5761179b6116cd565b5060010190565b634e487b7160e01b600052601260045260246000fd5b6000826117c7576117c76117a2565b500490565b6000828210156117de576117de6116cd565b500390565b6000826117f2576117f26117a2565b500690565b634e487b7160e01b600052603260045260246000fd5b6001600160a01b03858116825284166020820152604081018390526080606082018190526000906118409083018461116e565b9695505050505050565b60006020828403121561185c57600080fd5b8151610aec8161110f56fea2646970667358221220827f5499e399dafe5f2acb332068941020d0e689d3b63d43dd633b16fae9858364736f6c63430008090033",
  "linkReferences": {},
  "deployedLinkReferences": {}
}