{
  "_format": "hh-sol-artifact-1",
  "contractName": "TalentLayerEscrow",
  "sourceName": "contracts/TalentLayerEscrow.sol",
  "abi": [
    {
      "inputs": [],
      "stateMutability": "nonpayable",
      "type": "constructor"
    },
    {
      "anonymous": false,
      "inputs": [
        {
          "indexed": false,
          "internalType": "address",
          "name": "previousAdmin",
          "type": "address"
        },
        {
          "indexed": false,
          "internalType": "address",
          "name": "newAdmin",
          "type": "address"
        }
      ],
      "name": "AdminChanged",
      "type": "event"
    },
    {
      "anonymous": false,
      "inputs": [
        {
          "indexed": true,
          "internalType": "uint256",
          "name": "_transactionId",
          "type": "uint256"
        },
        {
          "indexed": false,
          "internalType": "enum TalentLayerEscrow.ArbitrationFeePaymentType",
          "name": "_paymentType",
          "type": "uint8"
        },
        {
          "indexed": false,
          "internalType": "enum TalentLayerEscrow.Party",
          "name": "_party",
          "type": "uint8"
        },
        {
          "indexed": false,
          "internalType": "uint256",
          "name": "_amount",
          "type": "uint256"
        }
      ],
      "name": "ArbitrationFeePayment",
      "type": "event"
    },
    {
      "anonymous": false,
      "inputs": [
        {
          "indexed": true,
          "internalType": "address",
          "name": "beacon",
          "type": "address"
        }
      ],
      "name": "BeaconUpgraded",
      "type": "event"
    },
    {
      "anonymous": false,
      "inputs": [
        {
          "indexed": true,
          "internalType": "contract Arbitrator",
          "name": "_arbitrator",
          "type": "address"
        },
        {
          "indexed": true,
          "internalType": "uint256",
          "name": "_disputeID",
          "type": "uint256"
        },
        {
          "indexed": false,
          "internalType": "uint256",
          "name": "_metaEvidenceID",
          "type": "uint256"
        },
        {
          "indexed": false,
          "internalType": "uint256",
          "name": "_evidenceGroupID",
          "type": "uint256"
        }
      ],
      "name": "Dispute",
      "type": "event"
    },
    {
      "anonymous": false,
      "inputs": [
        {
          "indexed": true,
          "internalType": "contract Arbitrator",
          "name": "_arbitrator",
          "type": "address"
        },
        {
          "indexed": true,
          "internalType": "uint256",
          "name": "_evidenceGroupID",
          "type": "uint256"
        },
        {
          "indexed": true,
          "internalType": "address",
          "name": "_party",
          "type": "address"
        },
        {
          "indexed": false,
          "internalType": "string",
          "name": "_evidence",
          "type": "string"
        }
      ],
      "name": "Evidence",
      "type": "event"
    },
    {
      "anonymous": false,
      "inputs": [
        {
          "indexed": true,
          "internalType": "uint256",
          "name": "_transactionId",
          "type": "uint256"
        },
        {
          "indexed": true,
          "internalType": "uint256",
          "name": "_partyId",
          "type": "uint256"
        },
        {
          "indexed": false,
          "internalType": "string",
          "name": "_evidenceUri",
          "type": "string"
        }
      ],
      "name": "EvidenceSubmitted",
      "type": "event"
    },
    {
      "anonymous": false,
      "inputs": [
        {
          "indexed": false,
          "internalType": "uint256",
          "name": "_platformId",
          "type": "uint256"
        },
        {
          "indexed": true,
          "internalType": "address",
          "name": "_token",
          "type": "address"
        },
        {
          "indexed": false,
          "internalType": "uint256",
          "name": "_amount",
          "type": "uint256"
        }
      ],
      "name": "FeesClaimed",
      "type": "event"
    },
    {
      "anonymous": false,
      "inputs": [
        {
          "indexed": true,
          "internalType": "uint256",
          "name": "_transactionId",
          "type": "uint256"
        },
        {
          "indexed": false,
          "internalType": "enum TalentLayerEscrow.Party",
          "name": "_party",
          "type": "uint8"
        }
      ],
      "name": "HasToPayFee",
      "type": "event"
    },
    {
      "anonymous": false,
      "inputs": [
        {
          "indexed": false,
          "internalType": "uint8",
          "name": "version",
          "type": "uint8"
        }
      ],
      "name": "Initialized",
      "type": "event"
    },
    {
      "anonymous": false,
      "inputs": [
        {
          "indexed": true,
          "internalType": "uint256",
          "name": "_metaEvidenceID",
          "type": "uint256"
        },
        {
          "indexed": false,
          "internalType": "string",
          "name": "_evidence",
          "type": "string"
        }
      ],
      "name": "MetaEvidence",
      "type": "event"
    },
    {
      "anonymous": false,
      "inputs": [
        {
          "indexed": false,
          "internalType": "uint256",
          "name": "_platformId",
          "type": "uint256"
        },
        {
          "indexed": false,
          "internalType": "uint256",
          "name": "_serviceId",
          "type": "uint256"
        },
        {
          "indexed": true,
          "internalType": "address",
          "name": "_token",
          "type": "address"
        },
        {
          "indexed": false,
          "internalType": "uint256",
          "name": "_amount",
          "type": "uint256"
        }
      ],
      "name": "OriginServiceFeeRateReleased",
      "type": "event"
    },
    {
      "anonymous": false,
      "inputs": [
        {
          "indexed": false,
          "internalType": "uint256",
          "name": "_platformId",
          "type": "uint256"
        },
        {
          "indexed": false,
          "internalType": "uint256",
          "name": "_serviceId",
          "type": "uint256"
        },
        {
          "indexed": true,
          "internalType": "address",
          "name": "_token",
          "type": "address"
        },
        {
          "indexed": false,
          "internalType": "uint256",
          "name": "_amount",
          "type": "uint256"
        }
      ],
      "name": "OriginValidatedProposalFeeRateReleased",
      "type": "event"
    },
    {
      "anonymous": false,
      "inputs": [
        {
          "indexed": true,
          "internalType": "address",
          "name": "previousOwner",
          "type": "address"
        },
        {
          "indexed": true,
          "internalType": "address",
          "name": "newOwner",
          "type": "address"
        }
      ],
      "name": "OwnershipTransferred",
      "type": "event"
    },
    {
      "anonymous": false,
      "inputs": [
        {
          "indexed": false,
          "internalType": "uint256",
          "name": "_transactionId",
          "type": "uint256"
        },
        {
          "indexed": false,
          "internalType": "enum TalentLayerEscrow.PaymentType",
          "name": "_paymentType",
          "type": "uint8"
        },
        {
          "indexed": false,
          "internalType": "uint256",
          "name": "_amount",
          "type": "uint256"
        },
        {
          "indexed": false,
          "internalType": "address",
          "name": "_token",
          "type": "address"
        },
        {
          "indexed": false,
          "internalType": "uint256",
          "name": "_serviceId",
          "type": "uint256"
        }
      ],
      "name": "Payment",
      "type": "event"
    },
    {
      "anonymous": false,
      "inputs": [
        {
          "indexed": false,
          "internalType": "uint256",
          "name": "_serviceId",
          "type": "uint256"
        }
      ],
      "name": "PaymentCompleted",
      "type": "event"
    },
    {
      "anonymous": false,
      "inputs": [
        {
          "indexed": false,
          "internalType": "uint16",
          "name": "_protocolEscrowFeeRate",
          "type": "uint16"
        }
      ],
      "name": "ProtocolEscrowFeeRateUpdated",
      "type": "event"
    },
    {
      "anonymous": false,
      "inputs": [
        {
          "indexed": true,
          "internalType": "contract Arbitrator",
          "name": "_arbitrator",
          "type": "address"
        },
        {
          "indexed": true,
          "internalType": "uint256",
          "name": "_disputeID",
          "type": "uint256"
        },
        {
          "indexed": false,
          "internalType": "uint256",
          "name": "_ruling",
          "type": "uint256"
        }
      ],
      "name": "Ruling",
      "type": "event"
    },
    {
      "anonymous": false,
      "inputs": [
        {
          "indexed": true,
          "internalType": "uint256",
          "name": "_transactionId",
          "type": "uint256"
        },
        {
          "indexed": false,
          "internalType": "uint256",
          "name": "_ruling",
          "type": "uint256"
        }
      ],
      "name": "RulingExecuted",
      "type": "event"
    },
    {
      "anonymous": false,
      "inputs": [
        {
          "indexed": false,
          "internalType": "uint256",
          "name": "serviceId",
          "type": "uint256"
        },
        {
          "indexed": false,
          "internalType": "uint256",
          "name": "proposalId",
          "type": "uint256"
        },
        {
          "indexed": false,
          "internalType": "uint256",
          "name": "transactionId",
          "type": "uint256"
        }
      ],
      "name": "ServiceProposalConfirmedWithDeposit",
      "type": "event"
    },
    {
      "anonymous": false,
      "inputs": [
        {
          "indexed": false,
          "internalType": "uint256",
          "name": "_transactionId",
          "type": "uint256"
        },
        {
          "indexed": false,
          "internalType": "uint256",
          "name": "_senderId",
          "type": "uint256"
        },
        {
          "indexed": false,
          "internalType": "uint256",
          "name": "_receiverId",
          "type": "uint256"
        },
        {
          "indexed": false,
          "internalType": "address",
          "name": "_token",
          "type": "address"
        },
        {
          "indexed": false,
          "internalType": "uint256",
          "name": "_amount",
          "type": "uint256"
        },
        {
          "indexed": false,
          "internalType": "uint256",
          "name": "_serviceId",
          "type": "uint256"
        },
        {
          "indexed": false,
          "internalType": "uint16",
          "name": "_protocolEscrowFeeRate",
          "type": "uint16"
        },
        {
          "indexed": false,
          "internalType": "uint16",
          "name": "_originServiceFeeRate",
          "type": "uint16"
        },
        {
          "indexed": false,
          "internalType": "uint16",
          "name": "_originValidatedProposalFeeRate",
          "type": "uint16"
        },
        {
          "indexed": false,
          "internalType": "contract Arbitrator",
          "name": "_arbitrator",
          "type": "address"
        },
        {
          "indexed": false,
          "internalType": "bytes",
          "name": "_arbitratorExtraData",
          "type": "bytes"
        },
        {
          "indexed": false,
          "internalType": "uint256",
          "name": "_arbitrationFeeTimeout",
          "type": "uint256"
        }
      ],
      "name": "TransactionCreated",
      "type": "event"
    },
    {
      "anonymous": false,
      "inputs": [
        {
          "indexed": false,
          "internalType": "address",
          "name": "forwarder",
          "type": "address"
        }
      ],
      "name": "TrustedForwarderAdded",
      "type": "event"
    },
    {
      "anonymous": false,
      "inputs": [
        {
          "indexed": false,
          "internalType": "address",
          "name": "forwarder",
          "type": "address"
        }
      ],
      "name": "TrustedForwarderRemoved",
      "type": "event"
    },
    {
      "anonymous": false,
      "inputs": [
        {
          "indexed": true,
          "internalType": "address",
          "name": "implementation",
          "type": "address"
        }
      ],
      "name": "Upgraded",
      "type": "event"
    },
    {
      "inputs": [
        {
          "internalType": "address",
          "name": "_forwarder",
          "type": "address"
        }
      ],
      "name": "addTrustedForwarder",
      "outputs": [],
      "stateMutability": "nonpayable",
      "type": "function"
    },
    {
      "inputs": [
        {
          "internalType": "uint256",
          "name": "_transactionId",
          "type": "uint256"
        }
      ],
      "name": "appeal",
      "outputs": [],
      "stateMutability": "payable",
      "type": "function"
    },
    {
      "inputs": [
        {
          "internalType": "uint256",
          "name": "_platformId",
          "type": "uint256"
        },
        {
          "internalType": "address",
          "name": "_tokenAddress",
          "type": "address"
        }
      ],
      "name": "claim",
      "outputs": [],
      "stateMutability": "nonpayable",
      "type": "function"
    },
    {
      "inputs": [
        {
          "internalType": "uint256",
          "name": "_platformId",
          "type": "uint256"
        }
      ],
      "name": "claimAll",
      "outputs": [],
      "stateMutability": "nonpayable",
      "type": "function"
    },
    {
      "inputs": [
        {
          "internalType": "string",
          "name": "_metaEvidence",
          "type": "string"
        },
        {
          "internalType": "uint256",
          "name": "_serviceId",
          "type": "uint256"
        },
        {
          "internalType": "uint256",
          "name": "_proposalId",
          "type": "uint256"
        }
      ],
      "name": "createETHTransaction",
      "outputs": [
        {
          "internalType": "uint256",
          "name": "",
          "type": "uint256"
        }
      ],
      "stateMutability": "payable",
      "type": "function"
    },
    {
      "inputs": [
        {
          "internalType": "string",
          "name": "_metaEvidence",
          "type": "string"
        },
        {
          "internalType": "uint256",
          "name": "_serviceId",
          "type": "uint256"
        },
        {
          "internalType": "uint256",
          "name": "_proposalId",
          "type": "uint256"
        }
      ],
      "name": "createTokenTransaction",
      "outputs": [
        {
          "internalType": "uint256",
          "name": "",
          "type": "uint256"
        }
      ],
      "stateMutability": "nonpayable",
      "type": "function"
    },
    {
      "inputs": [
        {
          "internalType": "uint256",
          "name": "",
          "type": "uint256"
        }
      ],
      "name": "disputeIDtoTransactionID",
      "outputs": [
        {
          "internalType": "uint256",
          "name": "",
          "type": "uint256"
        }
      ],
      "stateMutability": "view",
      "type": "function"
    },
    {
      "inputs": [
        {
          "internalType": "address",
          "name": "_token",
          "type": "address"
        }
      ],
      "name": "getClaimableFeeBalance",
      "outputs": [
        {
          "internalType": "uint256",
          "name": "balance",
          "type": "uint256"
        }
      ],
      "stateMutability": "view",
      "type": "function"
    },
    {
      "inputs": [],
      "name": "getProtocolWallet",
      "outputs": [
        {
          "internalType": "address",
          "name": "",
          "type": "address"
        }
      ],
      "stateMutability": "view",
      "type": "function"
    },
    {
      "inputs": [
        {
          "internalType": "uint256",
          "name": "_transactionId",
          "type": "uint256"
        }
      ],
      "name": "getTransactionDetails",
      "outputs": [
        {
          "components": [
            {
              "internalType": "uint256",
              "name": "id",
              "type": "uint256"
            },
            {
              "internalType": "address",
              "name": "sender",
              "type": "address"
            },
            {
              "internalType": "address",
              "name": "receiver",
              "type": "address"
            },
            {
              "internalType": "address",
              "name": "token",
              "type": "address"
            },
            {
              "internalType": "uint256",
              "name": "amount",
              "type": "uint256"
            },
            {
              "internalType": "uint256",
              "name": "serviceId",
              "type": "uint256"
            },
            {
              "internalType": "uint256",
              "name": "proposalId",
              "type": "uint256"
            },
            {
              "internalType": "uint16",
              "name": "protocolEscrowFeeRate",
              "type": "uint16"
            },
            {
              "internalType": "uint16",
              "name": "originServiceFeeRate",
              "type": "uint16"
            },
            {
              "internalType": "uint16",
              "name": "originValidatedProposalFeeRate",
              "type": "uint16"
            },
            {
              "internalType": "uint256",
              "name": "disputeId",
              "type": "uint256"
            },
            {
              "internalType": "uint256",
              "name": "senderFee",
              "type": "uint256"
            },
            {
              "internalType": "uint256",
              "name": "receiverFee",
              "type": "uint256"
            },
            {
              "internalType": "uint256",
              "name": "lastInteraction",
              "type": "uint256"
            },
            {
              "internalType": "enum TalentLayerEscrow.Status",
              "name": "status",
              "type": "uint8"
            },
            {
              "internalType": "contract Arbitrator",
              "name": "arbitrator",
              "type": "address"
            },
            {
              "internalType": "bytes",
              "name": "arbitratorExtraData",
              "type": "bytes"
            },
            {
              "internalType": "uint256",
              "name": "arbitrationFeeTimeout",
              "type": "uint256"
            }
          ],
          "internalType": "struct TalentLayerEscrow.Transaction",
          "name": "",
          "type": "tuple"
        }
      ],
      "stateMutability": "view",
      "type": "function"
    },
    {
      "inputs": [
        {
          "internalType": "address",
          "name": "_talentLayerServiceAddress",
          "type": "address"
        },
        {
          "internalType": "address",
          "name": "_talentLayerIDAddress",
          "type": "address"
        },
        {
          "internalType": "address",
          "name": "_talentLayerPlatformIDAddress",
          "type": "address"
        },
        {
          "internalType": "address",
          "name": "_protocolWallet",
          "type": "address"
        }
      ],
      "name": "initialize",
      "outputs": [],
      "stateMutability": "nonpayable",
      "type": "function"
    },
    {
      "inputs": [
        {
          "internalType": "address",
          "name": "forwarder",
          "type": "address"
        }
      ],
      "name": "isTrustedForwarder",
      "outputs": [
        {
          "internalType": "bool",
          "name": "",
          "type": "bool"
        }
      ],
      "stateMutability": "view",
      "type": "function"
    },
    {
      "inputs": [],
      "name": "owner",
      "outputs": [
        {
          "internalType": "address",
          "name": "",
          "type": "address"
        }
      ],
      "stateMutability": "view",
      "type": "function"
    },
    {
      "inputs": [
        {
          "internalType": "uint256",
          "name": "_transactionId",
          "type": "uint256"
        }
      ],
      "name": "payArbitrationFeeByReceiver",
      "outputs": [],
      "stateMutability": "payable",
      "type": "function"
    },
    {
      "inputs": [
        {
          "internalType": "uint256",
          "name": "_transactionId",
          "type": "uint256"
        }
      ],
      "name": "payArbitrationFeeBySender",
      "outputs": [],
      "stateMutability": "payable",
      "type": "function"
    },
    {
      "inputs": [],
      "name": "protocolEscrowFeeRate",
      "outputs": [
        {
          "internalType": "uint16",
          "name": "",
          "type": "uint16"
        }
      ],
      "stateMutability": "view",
      "type": "function"
    },
    {
      "inputs": [],
      "name": "proxiableUUID",
      "outputs": [
        {
          "internalType": "bytes32",
          "name": "",
          "type": "bytes32"
        }
      ],
      "stateMutability": "view",
      "type": "function"
    },
    {
      "inputs": [
        {
          "internalType": "uint256",
          "name": "_profileId",
          "type": "uint256"
        },
        {
          "internalType": "uint256",
          "name": "_transactionId",
          "type": "uint256"
        },
        {
          "internalType": "uint256",
          "name": "_amount",
          "type": "uint256"
        }
      ],
      "name": "reimburse",
      "outputs": [],
      "stateMutability": "nonpayable",
      "type": "function"
    },
    {
      "inputs": [
        {
          "internalType": "uint256",
          "name": "_profileId",
          "type": "uint256"
        },
        {
          "internalType": "uint256",
          "name": "_transactionId",
          "type": "uint256"
        },
        {
          "internalType": "uint256",
          "name": "_amount",
          "type": "uint256"
        }
      ],
      "name": "release",
      "outputs": [],
      "stateMutability": "nonpayable",
      "type": "function"
    },
    {
      "inputs": [
        {
          "internalType": "address",
          "name": "_forwarder",
          "type": "address"
        }
      ],
      "name": "removeTrustedForwarder",
      "outputs": [],
      "stateMutability": "nonpayable",
      "type": "function"
    },
    {
      "inputs": [],
      "name": "renounceOwnership",
      "outputs": [],
      "stateMutability": "nonpayable",
      "type": "function"
    },
    {
      "inputs": [
        {
          "internalType": "uint256",
          "name": "_disputeID",
          "type": "uint256"
        },
        {
          "internalType": "uint256",
          "name": "_ruling",
          "type": "uint256"
        }
      ],
      "name": "rule",
      "outputs": [],
      "stateMutability": "nonpayable",
      "type": "function"
    },
    {
      "inputs": [
        {
          "internalType": "uint256",
          "name": "_profileId",
          "type": "uint256"
        },
        {
          "internalType": "uint256",
          "name": "_transactionId",
          "type": "uint256"
        },
        {
          "internalType": "string",
          "name": "_evidence",
          "type": "string"
        }
      ],
      "name": "submitEvidence",
      "outputs": [],
      "stateMutability": "nonpayable",
      "type": "function"
    },
    {
      "inputs": [
        {
          "internalType": "uint256",
          "name": "_transactionId",
          "type": "uint256"
        }
      ],
      "name": "timeOutByReceiver",
      "outputs": [],
      "stateMutability": "nonpayable",
      "type": "function"
    },
    {
      "inputs": [
        {
          "internalType": "uint256",
          "name": "_transactionId",
          "type": "uint256"
        }
      ],
      "name": "timeOutBySender",
      "outputs": [],
      "stateMutability": "nonpayable",
      "type": "function"
    },
    {
      "inputs": [
        {
          "internalType": "address",
          "name": "newOwner",
          "type": "address"
        }
      ],
      "name": "transferOwnership",
      "outputs": [],
      "stateMutability": "nonpayable",
      "type": "function"
    },
    {
      "inputs": [
        {
          "internalType": "uint16",
          "name": "_protocolEscrowFeeRate",
          "type": "uint16"
        }
      ],
      "name": "updateProtocolEscrowFeeRate",
      "outputs": [],
      "stateMutability": "nonpayable",
      "type": "function"
    },
    {
      "inputs": [
        {
          "internalType": "address payable",
          "name": "_protocolWallet",
          "type": "address"
        }
      ],
      "name": "updateProtocolWallet",
      "outputs": [],
      "stateMutability": "nonpayable",
      "type": "function"
    },
    {
      "inputs": [
        {
          "internalType": "address",
          "name": "newImplementation",
          "type": "address"
        }
      ],
      "name": "upgradeTo",
      "outputs": [],
      "stateMutability": "nonpayable",
      "type": "function"
    },
    {
      "inputs": [
        {
          "internalType": "address",
          "name": "newImplementation",
          "type": "address"
        },
        {
          "internalType": "bytes",
          "name": "data",
          "type": "bytes"
        }
      ],
      "name": "upgradeToAndCall",
      "outputs": [],
      "stateMutability": "payable",
      "type": "function"
    }
  ],
  "bytecode": "0x60a0604052306080523480156200001557600080fd5b506200002062000026565b620000e8565b600054610100900460ff1615620000935760405162461bcd60e51b815260206004820152602760248201527f496e697469616c697a61626c653a20636f6e747261637420697320696e697469604482015266616c697a696e6760c81b606482015260840160405180910390fd5b60005460ff9081161015620000e6576000805460ff191660ff9081179091556040519081527f7f26b83ff96e1f2b6a682f133852f6798a09c465da95921460cefb38474024989060200160405180910390a15b565b608051615c166200012060003960008181610be601528181610c26015281816115da0152818161161a01526116a90152615c166000f3fe6080604052600436106101cd5760003560e01c80636930fd2a116100f75780638da5cb5b11610095578063eb63612d11610064578063eb63612d14610531578063f2fde38b14610551578063f42cadc114610571578063f8c8765e1461059157600080fd5b80638da5cb5b146104b35780639dcc5daf146104d1578063ddd5e1b2146104f1578063e308a0991461051157600080fd5b80637b44cdb5116100d15780637b44cdb51461045a5780637e69b7b01461046d5780638363def4146104805780638b69fa0a1461049357600080fd5b80636930fd2a146104145780636e72b45214610432578063715018a61461044557600080fd5b80633751d89c1161016f5780634f1ef2861161013e5780634f1ef2861461036e57806352d1902d14610381578063572b6c05146103965780635a34257a146103df57600080fd5b80633751d89c146102ee5780633a1121cd1461030e5780633de0c7ef1461032e578063419f648f1461034e57600080fd5b806326d00668116101ab57806326d006681461025f5780632fbe3b0314610281578063311a6c56146102ae5780633659cfe6146102ce57600080fd5b80630a1a47d6146101d25780630fa683d3146102055780631179643414610232575b600080fd5b3480156101de57600080fd5b506101f26101ed366004614ce6565b6105b1565b6040519081526020015b60405180910390f35b34801561021157600080fd5b50610225610220366004614d03565b610721565b6040516101fc9190614d96565b34801561023e57600080fd5b506102476109ce565b6040516001600160a01b0390911681526020016101fc565b34801561026b57600080fd5b5061027f61027a366004614ce6565b6109e8565b005b34801561028d57600080fd5b506101f261029c366004614d03565b60d06020526000908152604090205481565b3480156102ba57600080fd5b5061027f6102c9366004614edf565b610a4b565b3480156102da57600080fd5b5061027f6102e9366004614ce6565b610bdc565b3480156102fa57600080fd5b5061027f610309366004614ce6565b610cb8565b34801561031a57600080fd5b5061027f610329366004614f01565b610d11565b34801561033a57600080fd5b5061027f610349366004614d03565b6110e6565b34801561035a57600080fd5b506101f2610369366004615047565b61126b565b61027f61037c366004615095565b6115d0565b34801561038d57600080fd5b506101f261169c565b3480156103a257600080fd5b506103cf6103b1366004614ce6565b6001600160a01b031660009081526065602052604090205460ff1690565b60405190151581526020016101fc565b3480156103eb57600080fd5b5060ce5461040190600160a01b900461ffff1681565b60405161ffff90911681526020016101fc565b34801561042057600080fd5b5061027f61042f366004614d03565b50565b61027f610440366004614d03565b61174f565b34801561045157600080fd5b5061027f6119f9565b61027f610468366004614d03565b611a0d565b61027f61047b366004614d03565b611c92565b6101f261048e366004615047565b611d61565b34801561049f57600080fd5b5061027f6104ae3660046150f9565b612145565b3480156104bf57600080fd5b506033546001600160a01b0316610247565b3480156104dd57600080fd5b5061027f6104ec366004614f01565b612484565b3480156104fd57600080fd5b5061027f61050c366004615149565b612859565b34801561051d57600080fd5b5061027f61052c366004614ce6565b612a03565b34801561053d57600080fd5b5061027f61054c366004615189565b612a2d565b34801561055d57600080fd5b5061027f61056c366004614ce6565b612a85565b34801561057d57600080fd5b5061027f61058c366004614d03565b612afb565b34801561059d57600080fd5b5061027f6105ac3660046151a6565b612c82565b6000806105bc612df2565b9050806001600160a01b03166105da6033546001600160a01b031690565b6001600160a01b0316036106245750506001600160a01b031660009081527f4239c2c8c3d9b94feb214b0f54d7c869ce1ceb63517be57644336cda4967a468602052604090205490565b60ce54604051631847c06b60e01b81526001600160a01b0383811660048301526000921690631847c06b90602401602060405180830381865afa15801561066f573d6000803e3d6000fd5b505050506040513d601f19601f820116820180604052508101906106939190615202565b60ce5460405162f577a560e81b8152600481018390529192506001600160a01b03169063f577a5009060240160006040518083038186803b1580156106d757600080fd5b505afa1580156106eb573d6000803e3d6000fd5b50505060009182525060cb602090815260408083206001600160a01b039096168352949052929092205492915050565b50919050565b610729614b8a565b60ca5482106107535760405162461bcd60e51b815260040161074a9061521b565b60405180910390fd5b600060ca838154811061076857610768615252565b60009182526020918290206040805161024081018252600f9093029091018054835260018101546001600160a01b03908116948401949094526002810154841691830191909152600381015490921660608201526004808301546080830152600583015460a0830152600683015460c0830152600783015461ffff80821660e08501526201000082048116610100850152600160201b9091041661012083015260088301546101408301526009830154610160830152600a830154610180830152600b8301546101a0830152600c8301549192916101c084019160ff9091169081111561085757610857614d1c565b600481111561086857610868614d1c565b8152600c82015461010090046001600160a01b03166020820152600d8201805460409092019161089790615268565b80601f01602080910402602001604051908101604052809291908181526020018280546108c390615268565b80156109105780601f106108e557610100808354040283529160200191610910565b820191906000526020600020905b8154815290600101906020018083116108f357829003601f168201915b50505050508152602001600e820154815250509050600061092f612df2565b905081602001516001600160a01b0316816001600160a01b0316148061096a575081604001516001600160a01b0316816001600160a01b0316145b6109c75760405162461bcd60e51b815260206004820152602860248201527f596f7520617265206e6f742072656c6174656420746f2074686973207472616e60448201526739b0b1ba34b7b71760c11b606482015260840161074a565b5092915050565b60006109d8612e2b565b5060cf546001600160a01b031690565b6109f0612e2b565b6001600160a01b038116600081815260656020908152604091829020805460ff1916600117905590519182527f3ef8564460ada92419608d823c014975d98f8104d7d1e68c222967ac6814cd9791015b60405180910390a150565b6000610a55612df2565b600084815260d0602052604081205460ca8054939450909283908110610a7d57610a7d615252565b90600052602060002090600f0201905080600c0160019054906101000a90046001600160a01b03166001600160a01b0316836001600160a01b031614610b105760405162461bcd60e51b815260206004820152602260248201527f5468652063616c6c6572206d757374206265207468652061726269747261746f604482015261391760f11b606482015260840161074a565b6003600c82015460ff166004811115610b2b57610b2b614d1c565b14610b875760405162461bcd60e51b815260206004820152602660248201527f54686520646973707574652068617320616c7265616479206265656e2072657360448201526537b63b32b21760d11b606482015260840161074a565b84836001600160a01b03167f394027a5fa6e098a1191094d1719d6929b9abc535fcc0c8f448d6a4e7562227686604051610bc391815260200190565b60405180910390a3610bd58285612ea4565b5050505050565b6001600160a01b037f0000000000000000000000000000000000000000000000000000000000000000163003610c245760405162461bcd60e51b815260040161074a9061529c565b7f00000000000000000000000000000000000000000000000000000000000000006001600160a01b0316610c6d600080516020615b7a833981519152546001600160a01b031690565b6001600160a01b031614610c935760405162461bcd60e51b815260040161074a906152e8565b610c9c8161362f565b6040805160008082526020820190925261042f91839190613637565b610cc0612e2b565b6001600160a01b038116600081815260656020908152604091829020805460ff1916905590519182527fd2d636efcad0cea42e170256f4c5d8b1cd81e47b855557edaf44014e6cc4cee69101610a40565b60cd5483906001600160a01b0316632fa117e582610d2d612df2565b6040516001600160e01b031960e085901b16815260048101929092526001600160a01b03166024820152604401602060405180830381865afa158015610d77573d6000803e3d6000fd5b505050506040513d601f19601f82011682018060405250810190610d9b9190615334565b610db75760405162461bcd60e51b815260040161074a90615356565b60ca548310610dd85760405162461bcd60e51b815260040161074a9061521b565b600060ca8481548110610ded57610ded615252565b6000918252602090912060cd546040516331a9108f60e11b815260048101899052600f90930290910192506001600160a01b031690636352211e90602401602060405180830381865afa158015610e48573d6000803e3d6000fd5b505050506040513d601f19601f82011682018060405250810190610e6c9190615395565b60018201546001600160a01b03908116911614610e9b5760405162461bcd60e51b815260040161074a906153b2565b6000600c82015460ff166004811115610eb657610eb6614d1c565b14610ed35760405162461bcd60e51b815260040161074a906153da565b8281600401541015610f1d5760405162461bcd60e51b815260206004820152601360248201527224b739bab33334b1b4b2b73a10333ab732399760691b604482015260640161074a565b82816004016000828254610f319190615436565b909155505060408051610240810182528254815260018301546001600160a01b0390811660208301526002840154811692820192909252600383015490911660608201526004808301546080830152600583015460a0830152600683015460c0830152600783015461ffff80821660e08501526201000082048116610100850152600160201b9091041661012083015260088301546101408301526009830154610160830152600a830154610180830152600b8301546101a0830152600c830154610bd5929184916101c084019160ff9091169081111561101457611014614d1c565b600481111561102557611025614d1c565b8152600c82015461010090046001600160a01b03166020820152600d8201805460409092019161105490615268565b80601f016020809104026020016040519081016040528092919081815260200182805461108090615268565b80156110cd5780601f106110a2576101008083540402835291602001916110cd565b820191906000526020600020905b8154815290600101906020018083116110b057829003601f168201915b50505050508152602001600e82015481525050846137a2565b600060ca82815481106110fb576110fb615252565b60009182526020909120600f9091020190506001600c82015460ff16600481111561112857611128614d1c565b1461118b5760405162461bcd60e51b815260206004820152602d60248201527f546865207472616e73616374696f6e206973206e6f742077616974696e67206f60448201526c37103a34329039b2b73232b91760991b606482015260840161074a565b600e810154600b82015461119f9042615436565b10156111ed5760405162461bcd60e51b815260206004820181905260248201527f54696d656f75742074696d6520686173206e6f7420706173736564207965742e604482015260640161074a565b60098101541561125c57600981018054600091829055600183015460405191926001600160a01b0390911691839181818185875af1925050503d8060008114611252576040519150601f19603f3d011682016040523d82523d6000602084013e611257565b606091505b505050505b611267826002612ea4565b5050565b6000611275614c56565b61127d614c9a565b60008060008061128d8989613b1b565b60ce5460a0840151604051630b7a459360e31b81526004810191909152949a5092985090965094506000916001600160a01b0390911690635bd22c9890602401600060405180830381865afa1580156112ea573d6000803e3d6000fd5b505050506040513d6000823e601f3d908101601f191682016040526113129190810190615499565b905080606001519250866080015161ffff168660a00151146113b65760ce546080880151604051630b7a459360e31b815261ffff90911660048201526000916001600160a01b031690635bd22c9890602401600060405180830381865afa158015611381573d6000803e3d6000fd5b505050506040513d6000823e601f3d908101601f191682016040526113a99190810190615499565b6080015192506113be9050565b806080015191505b60006113cf88606001518585613c55565b9050856001600160a01b03166113e3612df2565b6001600160a01b0316146114095760405162461bcd60e51b815260040161074a906153b2565b60048751600481111561141e5761141e614d1c565b146114665760405162461bcd60e51b815260206004820152601860248201527729b2b93b34b1b29039ba30ba3ab9903737ba1037b832b71760411b604482015260640161074a565b60008851600181111561147b5761147b614d1c565b146114c85760405162461bcd60e51b815260206004820152601c60248201527f50726f706f73616c20737461747573206e6f742070656e64696e672e00000000604482015260640161074a565b898860200151146115145760405162461bcd60e51b815260206004820152601660248201527524b731b7b93932b1ba10383937b837b9b0b61024a21760511b604482015260640161074a565b60006115338c8c87878760e00151886101000151896101200151613cbe565b60cc546040516353eaf57560e11b8152600481018f9052602481018e9052604481018390529192506001600160a01b03169063a7d5eaea90606401600060405180830381600087803b15801561158857600080fd5b505af115801561159c573d6000803e3d6000fd5b505050506115af878a6040015184613f65565b6115be818e8b60200151614023565b985050505050505050505b9392505050565b6001600160a01b037f00000000000000000000000000000000000000000000000000000000000000001630036116185760405162461bcd60e51b815260040161074a9061529c565b7f00000000000000000000000000000000000000000000000000000000000000006001600160a01b0316611661600080516020615b7a833981519152546001600160a01b031690565b6001600160a01b0316146116875760405162461bcd60e51b815260040161074a906152e8565b6116908261362f565b61126782826001613637565b6000306001600160a01b037f0000000000000000000000000000000000000000000000000000000000000000161461173c5760405162461bcd60e51b815260206004820152603860248201527f555550535570677261646561626c653a206d757374206e6f742062652063616c60448201527f6c6564207468726f7567682064656c656761746563616c6c0000000000000000606482015260840161074a565b50600080516020615b7a83398151915290565b600060ca828154811061176457611764615252565b60009182526020909120600c600f909202019081015490915061010090046001600160a01b03166117a75760405162461bcd60e51b815260040161074a906155b1565b6003600c82015460ff1660048111156117c2576117c2614d1c565b106117df5760405162461bcd60e51b815260040161074a906155de565b60028101546001600160a01b03166117f5612df2565b6001600160a01b03161461184b5760405162461bcd60e51b815260206004820181905260248201527f5468652063616c6c6572206d757374206265207468652072656365697665722e604482015260640161074a565b600c81015460405163f7434ea960e01b815260009161010090046001600160a01b03169063f7434ea99061188690600d8601906004016156cf565b602060405180830381865afa1580156118a3573d6000803e3d6000fd5b505050506040513d601f19601f820116820180604052508101906118c79190615202565b90503482600a0160008282546118dd91906156e2565b9091555050600a820154811461195b5760405162461bcd60e51b815260206004820152603760248201527f54686520726563656976657220666565206d75737420626520657175616c207460448201527f6f20746865206172626974726174696f6e20636f73742e000000000000000000606482015260840161074a565b42600b8301556040518390600080516020615b9a83398151915290611987906000906001903490615705565b60405180910390a280826009015410156119ea57600c8201805460ff1916600117905560405183907fc74b9f7dedf2887cd3c113b6d8da9cea19e55c1116e25f1f0e1b72d7543179b5906119dd9060009061572f565b60405180910390a2505050565b6119f4838261427b565b505050565b611a01612e2b565b611a0b60006144ee565b565b600060ca8281548110611a2257611a22615252565b60009182526020909120600c600f909202019081015490915061010090046001600160a01b0316611a655760405162461bcd60e51b815260040161074a906155b1565b6003600c82015460ff166004811115611a8057611a80614d1c565b10611a9d5760405162461bcd60e51b815260040161074a906155de565b60018101546001600160a01b0316611ab3612df2565b6001600160a01b031614611b095760405162461bcd60e51b815260206004820152601e60248201527f5468652063616c6c6572206d757374206265207468652073656e6465722e0000604482015260640161074a565b600c81015460405163f7434ea960e01b815260009161010090046001600160a01b03169063f7434ea990611b4490600d8601906004016156cf565b602060405180830381865afa158015611b61573d6000803e3d6000fd5b505050506040513d601f19601f82011682018060405250810190611b859190615202565b905034826009016000828254611b9b91906156e2565b909155505060098201548114611c115760405162461bcd60e51b815260206004820152603560248201527f5468652073656e64657220666565206d75737420626520657175616c20746f206044820152743a34329030b93134ba3930ba34b7b71031b7b9ba1760591b606482015260840161074a565b42600b8301556040518390600080516020615b9a83398151915290611c3c9060009081903490615705565b60405180910390a28082600a015410156119ea57600c8201805460ff1916600217905560405183907fc74b9f7dedf2887cd3c113b6d8da9cea19e55c1116e25f1f0e1b72d7543179b5906119dd9060019061572f565b600060ca8281548110611ca757611ca7615252565b60009182526020909120600c600f909202019081015490915061010090046001600160a01b0316611cea5760405162461bcd60e51b815260040161074a906155b1565b600c810154600882015460405163093225f160e31b81526101009092046001600160a01b0316916349912f88913491611d2b9190600d870190600401615742565b6000604051808303818588803b158015611d4457600080fd5b505af1158015611d58573d6000803e3d6000fd5b50505050505050565b6000611d6b614c56565b611d73614c9a565b600080600080611d838989613b1b565b60ce5460a0840151604051630b7a459360e31b81526004810191909152949a5092985090965094506000916001600160a01b0390911690635bd22c9890602401600060405180830381865afa158015611de0573d6000803e3d6000fd5b505050506040513d6000823e601f3d908101601f19168201604052611e089190810190615499565b905080606001519250866080015161ffff168660a0015114611eac5760ce546080880151604051630b7a459360e31b815261ffff90911660048201526000916001600160a01b031690635bd22c9890602401600060405180830381865afa158015611e77573d6000803e3d6000fd5b505050506040513d6000823e601f3d908101601f19168201604052611e9f9190810190615499565b608001519250611eb49050565b806080015191505b6000611ec588606001518585613c55565b9050856001600160a01b0316611ed9612df2565b6001600160a01b031614611eff5760405162461bcd60e51b815260040161074a906153b2565b803414611f445760405162461bcd60e51b81526020600482015260136024820152722737b716b6b0ba31b434b73390333ab732399760691b604482015260640161074a565b60408801516001600160a01b031615611f9f5760405162461bcd60e51b815260206004820152601760248201527f50726f706f73616c20746f6b656e206e6f74204554482e000000000000000000604482015260640161074a565b89886020015114611feb5760405162461bcd60e51b815260206004820152601660248201527524b731b7b93932b1ba10383937b837b9b0b61024a21760511b604482015260640161074a565b60048751600481111561200057612000614d1c565b146120485760405162461bcd60e51b815260206004820152601860248201527729b2b93b34b1b29039ba30ba3ab9903737ba1037b832b71760411b604482015260640161074a565b60008851600181111561205d5761205d614d1c565b146120aa5760405162461bcd60e51b815260206004820152601c60248201527f50726f706f73616c20737461747573206e6f742070656e64696e672e00000000604482015260640161074a565b60006120c98c8c87878760e00151886101000151896101200151613cbe565b60cc546040516353eaf57560e11b8152600481018f9052602481018e9052604481018390529192506001600160a01b03169063a7d5eaea90606401600060405180830381600087803b15801561211e57600080fd5b505af1158015612132573d6000803e3d6000fd5b505050506115be818e8b60200151614023565b60cd5483906001600160a01b0316632fa117e582612161612df2565b6040516001600160e01b031960e085901b16815260048101929092526001600160a01b03166024820152604401602060405180830381865afa1580156121ab573d6000803e3d6000fd5b505050506040513d601f19601f820116820180604052508101906121cf9190615334565b6121eb5760405162461bcd60e51b815260040161074a90615356565b600060ca848154811061220057612200615252565b60009182526020909120600c600f909202019081015490915061010090046001600160a01b03166122435760405162461bcd60e51b815260040161074a906155b1565b60cd546040516331a9108f60e11b8152600481018790526000916001600160a01b031690636352211e90602401602060405180830381865afa15801561228d573d6000803e3d6000fd5b505050506040513d601f19601f820116820180604052508101906122b19190615395565b60018301549091506001600160a01b03808316911614806122e1575060028201546001600160a01b038281169116145b61235d5760405162461bcd60e51b815260206004820152604160248201527f5468652063616c6c6572206d757374206265207468652073656e646572206f7260448201527f20746865207265636569766572206f722074686569722064656c6567617465736064820152601760f91b608482015260a40161074a565b6004600c83015460ff16600481111561237857612378614d1c565b106123e05760405162461bcd60e51b815260206004820152603260248201527f4d757374206e6f742073656e642065766964656e63652069662074686520646960448201527139b83aba329034b9903932b9b7b63b32b21760711b606482015260840161074a565b806001600160a01b03168583600c0160019054906101000a90046001600160a01b03166001600160a01b03167fdccf2f8b2cc26eafcd61905cba744cff4b81d14740725f6376390dc6298a6a3c8760405161243b919061575b565b60405180910390a485857fd998ce0f89c38b0f93256f0b843a404a3a3c5055b75265623f7cb9c369a1dd6286604051612474919061575b565b60405180910390a3505050505050565b60cd5483906001600160a01b0316632fa117e5826124a0612df2565b6040516001600160e01b031960e085901b16815260048101929092526001600160a01b03166024820152604401602060405180830381865afa1580156124ea573d6000803e3d6000fd5b505050506040513d601f19601f8201168201806040525081019061250e9190615334565b61252a5760405162461bcd60e51b815260040161074a90615356565b60ca54831061254b5760405162461bcd60e51b815260040161074a9061521b565b600060ca848154811061256057612560615252565b6000918252602090912060cd546040516331a9108f60e11b815260048101899052600f90930290910192506001600160a01b031690636352211e90602401602060405180830381865afa1580156125bb573d6000803e3d6000fd5b505050506040513d601f19601f820116820180604052508101906125df9190615395565b60028201546001600160a01b0390811691161461260e5760405162461bcd60e51b815260040161074a906153b2565b6000600c82015460ff16600481111561262957612629614d1c565b146126465760405162461bcd60e51b815260040161074a906153da565b82816004015410156126905760405162461bcd60e51b815260206004820152601360248201527224b739bab33334b1b4b2b73a10333ab732399760691b604482015260640161074a565b828160040160008282546126a49190615436565b909155505060408051610240810182528254815260018301546001600160a01b0390811660208301526002840154811692820192909252600383015490911660608201526004808301546080830152600583015460a0830152600683015460c0830152600783015461ffff80821660e08501526201000082048116610100850152600160201b9091041661012083015260088301546101408301526009830154610160830152600a830154610180830152600b8301546101a0830152600c830154610bd5929184916101c084019160ff9091169081111561278757612787614d1c565b600481111561279857612798614d1c565b8152600c82015461010090046001600160a01b03166020820152600d820180546040909201916127c790615268565b80601f01602080910402602001604051908101604052809291908181526020018280546127f390615268565b80156128405780601f1061281557610100808354040283529160200191612840565b820191906000526020600020905b81548152906001019060200180831161282357829003601f168201915b50505050508152602001600e8201548152505084614540565b6000612863612df2565b6001600160a01b031661287e6033546001600160a01b031690565b6001600160a01b0316036128bc5782156128aa5760405162461bcd60e51b815260040161074a906153b2565b5060cf546001600160a01b0316612987565b60ce5460405162f577a560e81b8152600481018590526001600160a01b039091169063f577a5009060240160006040518083038186803b1580156128ff57600080fd5b505afa158015612913573d6000803e3d6000fd5b505060ce546040516331a9108f60e11b8152600481018790526001600160a01b039091169250636352211e9150602401602060405180830381865afa158015612960573d6000803e3d6000fd5b505050506040513d601f19601f820116820180604052508101906129849190615395565b90505b600083815260cb602090815260408083206001600160a01b0386168452909152812080549190556129b9828483614604565b60408051858152602081018390526001600160a01b038516917f2227733fc4c8a9034cb58087dcf6995128b9c0233b038b03366aaf30c92b92d6910160405180910390a250505050565b612a0b612e2b565b60cf80546001600160a01b0319166001600160a01b0392909216919091179055565b612a35612e2b565b60ce805461ffff60a01b1916600160a01b61ffff8416908102919091179091556040519081527f8339189e972f7fba792126e752aa8485af08710bce4a041c5bc3f9858acd713090602001610a40565b612a8d612e2b565b6001600160a01b038116612af25760405162461bcd60e51b815260206004820152602660248201527f4f776e61626c653a206e6577206f776e657220697320746865207a65726f206160448201526564647265737360d01b606482015260840161074a565b61042f816144ee565b600060ca8281548110612b1057612b10615252565b60009182526020909120600f9091020190506002600c82015460ff166004811115612b3d57612b3d614d1c565b14612ba25760405162461bcd60e51b815260206004820152602f60248201527f546865207472616e73616374696f6e206973206e6f742077616974696e67206f60448201526e37103a3432903932b1b2b4bb32b91760891b606482015260840161074a565b600e810154600b820154612bb69042615436565b1015612c045760405162461bcd60e51b815260206004820181905260248201527f54696d656f75742074696d6520686173206e6f7420706173736564207965742e604482015260640161074a565b600081600a0154600014612c775750600a81018054600091829055600283015460405191926001600160a01b0390911691839181818185875af1925050503d8060008114612c6e576040519150601f19603f3d011682016040523d82523d6000602084013e612c73565b606091505b5050505b6119f4836001612ea4565b600054610100900460ff1615808015612ca25750600054600160ff909116105b80612cbc5750303b158015612cbc575060005460ff166001145b612d1f5760405162461bcd60e51b815260206004820152602e60248201527f496e697469616c697a61626c653a20636f6e747261637420697320616c72656160448201526d191e481a5b9a5d1a585b1a5e995960921b606482015260840161074a565b6000805460ff191660011790558015612d42576000805461ff0019166101001790555b612d4a6146be565b612d526146ed565b60cc80546001600160a01b038088166001600160a01b03199283161790925560cd805487841690831617905560ce805486841690831617905560cf805492851692909116919091179055612da66064612a2d565b8015610bd5576000805461ff0019169055604051600181527f7f26b83ff96e1f2b6a682f133852f6798a09c465da95921460cefb38474024989060200160405180910390a15050505050565b600060143610801590612e1457503360009081526065602052604090205460ff165b15612e26575060131936013560601c90565b503390565b612e33612df2565b6001600160a01b0316612e4e6033546001600160a01b031690565b6001600160a01b031614611a0b5760405162461bcd60e51b815260206004820181905260248201527f4f776e61626c653a2063616c6c6572206973206e6f7420746865206f776e6572604482015260640161074a565b600060ca8381548110612eb957612eb9615252565b90600052602060002090600f02019050600260ff16821115612f0f5760405162461bcd60e51b815260206004820152600f60248201526e24b73b30b634b210393ab634b7339760891b604482015260640161074a565b6001810154600282015460048084018054600986018054600a880180546000958690559285905593909355600c8701805460ff19169094179093556001600160a01b039485169490931692916000198701613095576040516001600160a01b038616908390600081818185875af1925050503d8060008114612fad576040519150601f19603f3d011682016040523d82523d6000602084013e612fb2565b606091505b505060408051610240810182528854815260018901546001600160a01b03908116602083015260028a0154811692820192909252600389015490911660608201526004808901546080830152600589015460a0830152600689015460c0830152600789015461ffff80821660e08501526201000082048116610100850152600160201b9091041661012083015260088901546101408301526009890154610160830152600a890154610180830152600b8901546101a0830152600c890154613090935089916101c084019160ff169081111561278757612787614d1c565b6135eb565b60011987016131ca576040516001600160a01b038516908290600081818185875af1925050503d80600081146130e7576040519150601f19603f3d011682016040523d82523d6000602084013e6130ec565b606091505b505060408051610240810182528854815260018901546001600160a01b03908116602083015260028a0154811692820192909252600389015490911660608201526004808901546080830152600589015460a0830152600689015460c0830152600789015461ffff80821660e08501526201000082048116610100850152600160201b9091041661012083015260088901546101408301526009890154610160830152600a890154610180830152600b8901546101a0830152600c890154613090935089916101c084019160ff169081111561101457611014614d1c565b60006131d760028461576e565b905060006131e660028661576e565b60408051610240810182528a54815260018b01546001600160a01b03908116602083015260028c015481169282019290925260038b015490911660608201526004808b0154608083015260058b015460a083015260068b015460c083015260078b015461ffff80821660e08501526201000082048116610100850152600160201b9091041661012083015260088b015461014083015260098b0154610160830152600a8b0154610180830152600b8b01546101a0830152600c8b0154929350613396928b916101c084019160ff16908111156132c4576132c4614d1c565b60048111156132d5576132d5614d1c565b8152600c82015461010090046001600160a01b03166020820152600d8201805460409092019161330490615268565b80601f016020809104026020016040519081016040528092919081815260200182805461333090615268565b801561337d5780601f106133525761010080835404028352916020019161337d565b820191906000526020600020905b81548152906001019060200180831161336057829003601f168201915b50505050508152602001600e8201548152505082614540565b60408051610240810182528954815260018a01546001600160a01b03908116602083015260028b015481169282019290925260038a015490911660608201526004808a0154608083015260058a015460a083015260068a015460c083015260078a015461ffff80821660e08501526201000082048116610100850152600160201b9091041661012083015260088a015461014083015260098a0154610160830152600a8a0154610180830152600b8a01546101a0830152600c8a015461354692918b916101c084019160ff9091169081111561347457613474614d1c565b600481111561348557613485614d1c565b8152600c82015461010090046001600160a01b03166020820152600d820180546040909201916134b490615268565b80601f01602080910402602001604051908101604052809291908181526020018280546134e090615268565b801561352d5780601f106135025761010080835404028352916020019161352d565b820191906000526020600020905b81548152906001019060200180831161351057829003601f168201915b50505050508152602001600e82015481525050826137a2565b6040516001600160a01b038816908390600081818185875af1925050503d806000811461358f576040519150601f19603f3d011682016040523d82523d6000602084013e613594565b606091505b50506040516001600160a01b03881691508390600081818185875af1925050503d80600081146135e0576040519150601f19603f3d011682016040523d82523d6000602084013e6135e5565b606091505b50505050505b877f76b363d70472d47d20e4119f3625c05ed37ca51b1d9e1cd8b87d8c20530640f38860405161361d91815260200190565b60405180910390a25050505050505050565b61042f612e2b565b7f4910fdfa16fed3260ed0e7147f7cc6da11a60208b5b9406d12a635614ffd91435460ff161561366a576119f483614714565b826001600160a01b03166352d1902d6040518163ffffffff1660e01b8152600401602060405180830381865afa9250505080156136c4575060408051601f3d908101601f191682019092526136c191810190615202565b60015b6137275760405162461bcd60e51b815260206004820152602e60248201527f45524331393637557067726164653a206e657720696d706c656d656e7461746960448201526d6f6e206973206e6f74205555505360901b606482015260840161074a565b600080516020615b7a83398151915281146137965760405162461bcd60e51b815260206004820152602960248201527f45524331393637557067726164653a20756e737570706f727465642070726f786044820152681a58589b195555525160ba1b606482015260840161074a565b506119f48383836147b0565b60cc5460a083015160405163ef0e239b60e01b815260048101919091526000916001600160a01b03169063ef0e239b90602401600060405180830381865afa1580156137f2573d6000803e3d6000fd5b505050506040513d6000823e601f3d908101601f1916820160405261381a9190810190615790565b60a09081015160cc549185015160c086015160405163aba2100960e01b8152600481019290925260248201529092506000916001600160a01b03169063aba2100990604401600060405180830381865afa15801561387c573d6000803e3d6000fd5b505050506040513d6000823e601f3d908101601f191682016040526138a49190810190615841565b6080015161ffff169050600061271061ffff16848660e0015161ffff166138cb91906158fb565b6138d5919061576e565b9050600061271061ffff168587610100015161ffff166138f591906158fb565b6138ff919061576e565b9050600061271061ffff168688610120015161ffff1661391f91906158fb565b613929919061576e565b600080805260cb602090815260608a01516001600160a01b031682527f4239c2c8c3d9b94feb214b0f54d7c869ce1ceb63517be57644336cda4967a468905260408120805492935085929091906139819084906156e2565b9091555050600085815260cb6020908152604080832060608b01516001600160a01b03168452909152812080548492906139bc9084906156e2565b9091555050600084815260cb6020908152604080832060608b01516001600160a01b03168452909152812080548392906139f79084906156e2565b92505081905550613a1187604001518860600151886147d5565b60608088015160a089015160408051898152602081019290925281018590526001600160a01b03909116917f17c48ab8e1617182f35ae77fd7da7f4e15dedf7018aa371a4481c20c790b6546910160405180910390a260608088015160a089015160408051888152602081019290925281018590526001600160a01b03909116917f3476ed3eea2cdac584273bc8830824c8ca42ca2a99e9f144a87a1cdbbf9dd15a910160405180910390a27f7eb4d07819d8300e8f1d0a2a11814657be694ee6dbfd0208fdabed36a19e954f87600001516000888a606001518b60a00151604051613b01959493929190615912565b60405180910390a1611d588760a00151886080015161483c565b613b23614c56565b613b2b614c9a565b6000806000613b3a87876148df565b90506000613b4788614968565b60cd5460208201516040516331a9108f60e11b81529293506000926001600160a01b0390921691636352211e91613b849160040190815260200190565b602060405180830381865afa158015613ba1573d6000803e3d6000fd5b505050506040513d601f19601f82011682018060405250810190613bc59190615395565b60cd5460208501516040516331a9108f60e11b81529293506000926001600160a01b0390921691636352211e91613c029160040190815260200190565b602060405180830381865afa158015613c1f573d6000803e3d6000fd5b505050506040513d601f19601f82011682018060405250810190613c439190615395565b939a9299509097509195509350505050565b6000612710613c6861ffff8416866158fb565b613c7661ffff8616876158fb565b60ce54613c8e90600160a01b900461ffff16886158fb565b613c9891906156e2565b613ca291906156e2565b613cac919061576e565b613cb690856156e2565b949350505050565b6000613cc8614c56565b613cd0614c9a565b600080613cdd8c8c613b1b565b80945081955082965083975050505050600060ca80549050905060ca604051806102400160405280838152602001856001600160a01b03168152602001846001600160a01b0316815260200187604001516001600160a01b03168152602001876060015181526020018f81526020018e815260200160ce60149054906101000a900461ffff1661ffff1681526020018d61ffff1681526020018c61ffff16815260200160008152602001600081526020016000815260200142815260200160006004811115613dae57613dae614d1c565b81526001600160a01b03808d1660208084019190915260408084018e905260609384018d90528554600181810188556000978852968390208651600f909202019081559185015182870180549185166001600160a01b03199283161790559085015160028301805491851691831691909117905592840151600382018054919093169316929092179055608082015160048083019190915560a0830151600583015560c0830151600683015560e083015160078301805461010086015161012087015161ffff908116600160201b0265ffff0000000019928216620100000263ffffffff199094169190951617919091171691909117905561014083015160088301556101608301516009830155610180830151600a8301556101a0830151600b8301556101c0830151600c83018054949593949193909260ff19909216918490811115613efe57613efe614d1c565b02179055506101e0820151600c820180546001600160a01b0390921661010002610100600160a81b0319909216919091179055610200820151600d820190613f469082615994565b506102209190910151600e909101559c9b505050505050505050505050565b6040516323b872dd60e01b81526001600160a01b038481166004830152306024830152604482018390528316906323b872dd906064016020604051808303816000875af1158015613fba573d6000803e3d6000fd5b505050506040513d601f19601f82011682018060405250810190613fde9190615334565b6119f45760405162461bcd60e51b8152602060048201526016602482015275151c985b9cd9995c881b5d5cdd081b9bdd0819985a5b60521b604482015260640161074a565b600060ca848154811061403857614038615252565b60009182526020822060cd54600f92909202016001810154604051631847c06b60e01b81526001600160a01b03918216600482015291945090911690631847c06b90602401602060405180830381865afa15801561409a573d6000803e3d6000fd5b505050506040513d601f19601f820116820180604052508101906140be9190615202565b60cd546002840154604051631847c06b60e01b81526001600160a01b039182166004820152929350600092911690631847c06b90602401602060405180830381865afa158015614112573d6000803e3d6000fd5b505050506040513d601f19601f820116820180604052508101906141369190615202565b90507f1ccb16db9d1499f0b4e030d49bd6575a6ac51f3970af8752ac277fdf4505763b8683838660030160009054906101000a90046001600160a01b03168760040154886005015460ce60149054906101000a900461ffff168a60070160029054906101000a900461ffff168b60070160049054906101000a900461ffff168c600c0160019054906101000a90046001600160a01b03168d600d018e600e01546040516141ee9c9b9a99989796959493929190615a54565b60405180910390a1857f61606860eb6c87306811e2695215385101daab53bd6ab4e9f9049aead9363c7d86604051614226919061575b565b60405180910390a26005830154604080519182526020820186905281018790527fffc7643b52fc7134d23e37eac3c5c4bdad5cf04655528f24663504e15adc4a4a9060600160405180910390a1505050505050565b600060ca838154811061429057614290615252565b60009182526020909120600c600f90920201908101805460ff19166003179081905560405163c13517e160e01b81529192506001600160a01b036101009091041690819063c13517e19085906142f090600290600d880190600401615adb565b60206040518083038185885af115801561430e573d6000803e3d6000fd5b50505050506040513d601f19601f820116820180604052508101906143339190615202565b60088301818155600091825260d0602090815260409283902087905590548251878152918201879052916001600160a01b038416917f74baab670a4015ab2f1b467c5252a96141a2573f2908e58a92081e80d3cfde3d910160405180910390a3828260090154111561443e5760008383600901546143b19190615436565b6009840185905560018401546040519192506001600160a01b0316908290600081818185875af1925050503d8060008114614408576040519150601f19603f3d011682016040523d82523d6000602084013e61440d565b606091505b50505084600080516020615b9a833981519152600160003460405161443493929190615705565b60405180910390a2505b8282600a015411156144e85760008383600a015461445c9190615436565b600a840185905560028401546040519192506001600160a01b0316908290600081818185875af1925050503d80600081146144b3576040519150601f19603f3d011682016040523d82523d6000602084013e6144b8565b606091505b50505084600080516020615b9a833981519152600180346040516144de93929190615705565b60405180910390a2505b50505050565b603380546001600160a01b038381166001600160a01b0319831681179093556040519116919082907f8be0079c531659141344cd1fd0a4f28419497f9722a3daafe3b4186f6b6457e090600090a35050565b600061271061ffff16828461010001518561012001518660e001516145659190615af7565b61456f9190615af7565b61ffff1661457d91906158fb565b614587919061576e565b61459190836156e2565b90506145a683602001518460600151836147d5565b7f7eb4d07819d8300e8f1d0a2a11814657be694ee6dbfd0208fdabed36a19e954f836000015160018486606001518760a001516040516145ea959493929190615912565b60405180910390a16119f48360a00151846080015161483c565b6001600160a01b03821660000361464b576040516001600160a01b0384169082156108fc029083906000818181858888f193505050501580156144e8573d6000803e3d6000fd5b60405163a9059cbb60e01b81526001600160a01b0384811660048301526024820183905283169063a9059cbb906044016020604051808303816000875af115801561469a573d6000803e3d6000fd5b505050506040513d601f19601f820116820180604052508101906144e89190615334565b600054610100900460ff166146e55760405162461bcd60e51b815260040161074a90615b12565b611a0b6149e1565b600054610100900460ff16611a0b5760405162461bcd60e51b815260040161074a90615b12565b6001600160a01b0381163b6147815760405162461bcd60e51b815260206004820152602d60248201527f455243313936373a206e657720696d706c656d656e746174696f6e206973206e60448201526c1bdd08184818dbdb9d1c9858dd609a1b606482015260840161074a565b600080516020615b7a83398151915280546001600160a01b0319166001600160a01b0392909216919091179055565b6147b983614a18565b6000825111806147c65750805b156119f4576144e88383614a58565b6001600160a01b03821660000361464b576040516001600160a01b038416908290600081818185875af1925050503d806000811461482f576040519150601f19603f3d011682016040523d82523d6000602084013e614834565b606091505b505050505050565b806000036112675760cc54604051631271956760e21b8152600481018490526001600160a01b03909116906349c6559c90602401600060405180830381600087803b15801561488a57600080fd5b505af115801561489e573d6000803e3d6000fd5b505050507f6bef1b5e95b741d6e665eb9b5c2d3e1203c46a771451055a9d41e0b8ff4510b7826040516148d391815260200190565b60405180910390a15050565b6148e7614c56565b60cc5460405163aba2100960e01b815260048101859052602481018490526001600160a01b039091169063aba2100990604401600060405180830381865afa158015614937573d6000803e3d6000fd5b505050506040513d6000823e601f3d908101601f1916820160405261495f9190810190615841565b90505b92915050565b614970614c9a565b60cc5460405163ef0e239b60e01b8152600481018490526001600160a01b039091169063ef0e239b90602401600060405180830381865afa1580156149b9573d6000803e3d6000fd5b505050506040513d6000823e601f3d908101601f191682016040526149629190810190615790565b600054610100900460ff16614a085760405162461bcd60e51b815260040161074a90615b12565b611a0b614a13612df2565b6144ee565b614a2181614714565b6040516001600160a01b038216907fbc7cd75a20ee27fd9adebab32041f755214dbc6bffa90cc0225b39da2e5c2d3b90600090a250565b60606001600160a01b0383163b614ac05760405162461bcd60e51b815260206004820152602660248201527f416464726573733a2064656c65676174652063616c6c20746f206e6f6e2d636f6044820152651b9d1c9858dd60d21b606482015260840161074a565b600080846001600160a01b031684604051614adb9190615b5d565b600060405180830381855af49150503d8060008114614b16576040519150601f19603f3d011682016040523d82523d6000602084013e614b1b565b606091505b5091509150614b438282604051806060016040528060278152602001615bba60279139614b4c565b95945050505050565b60608315614b5b5750816115c9565b6115c98383815115614b705781518083602001fd5b8060405162461bcd60e51b815260040161074a919061575b565b6040518061024001604052806000815260200160006001600160a01b0316815260200160006001600160a01b0316815260200160006001600160a01b03168152602001600081526020016000815260200160008152602001600061ffff168152602001600061ffff168152602001600061ffff1681526020016000815260200160008152602001600081526020016000815260200160006004811115614c3257614c32614d1c565b815260200160006001600160a01b0316815260200160608152602001600081525090565b6040805160c0810190915280600081526020016000815260200160006001600160a01b0316815260200160008152602001600061ffff168152602001606081525090565b6040805160c08101909152806000815260200160008152602001600081526020016060815260200160008152602001600081525090565b6001600160a01b038116811461042f57600080fd5b600060208284031215614cf857600080fd5b81356115c981614cd1565b600060208284031215614d1557600080fd5b5035919050565b634e487b7160e01b600052602160045260246000fd5b60058110614d4257614d42614d1c565b9052565b60005b83811015614d61578181015183820152602001614d49565b50506000910152565b60008151808452614d82816020860160208601614d46565b601f01601f19169290920160200192915050565b602081528151602082015260006020830151614dbd60408401826001600160a01b03169052565b5060408301516001600160a01b03811660608401525060608301516001600160a01b038116608084015250608083015160a083015260a083015160c083015260c083015160e083015260e0830151610100614e1d8185018361ffff169052565b8401519050610120614e348482018361ffff169052565b8401519050610140614e4b8482018361ffff169052565b84015161016084810191909152840151610180808501919091528401516101a0808501919091528401516101c08085019190915284015190506101e0614e9381850183614d32565b8401519050610200614eaf848201836001600160a01b03169052565b808501519150506102406102208181860152614ecf610260860184614d6a565b9501519301929092525090919050565b60008060408385031215614ef257600080fd5b50508035926020909101359150565b600080600060608486031215614f1657600080fd5b505081359360208301359350604090920135919050565b634e487b7160e01b600052604160045260246000fd5b604051610140810167ffffffffffffffff81118282101715614f6757614f67614f2d565b60405290565b60405160c0810167ffffffffffffffff81118282101715614f6757614f67614f2d565b604051601f8201601f1916810167ffffffffffffffff81118282101715614fb957614fb9614f2d565b604052919050565b600067ffffffffffffffff821115614fdb57614fdb614f2d565b50601f01601f191660200190565b6000614ffc614ff784614fc1565b614f90565b905082815283838301111561501057600080fd5b828260208301376000602084830101529392505050565b600082601f83011261503857600080fd5b61495f83833560208501614fe9565b60008060006060848603121561505c57600080fd5b833567ffffffffffffffff81111561507357600080fd5b61507f86828701615027565b9660208601359650604090950135949350505050565b600080604083850312156150a857600080fd5b82356150b381614cd1565b9150602083013567ffffffffffffffff8111156150cf57600080fd5b8301601f810185136150e057600080fd5b6150ef85823560208401614fe9565b9150509250929050565b60008060006060848603121561510e57600080fd5b8335925060208401359150604084013567ffffffffffffffff81111561513357600080fd5b61513f86828701615027565b9150509250925092565b6000806040838503121561515c57600080fd5b82359150602083013561516e81614cd1565b809150509250929050565b61ffff8116811461042f57600080fd5b60006020828403121561519b57600080fd5b81356115c981615179565b600080600080608085870312156151bc57600080fd5b84356151c781614cd1565b935060208501356151d781614cd1565b925060408501356151e781614cd1565b915060608501356151f781614cd1565b939692955090935050565b60006020828403121561521457600080fd5b5051919050565b6020808252601b908201527f4e6f7420612076616c6964207472616e73616374696f6e2069642e0000000000604082015260600190565b634e487b7160e01b600052603260045260246000fd5b600181811c9082168061527c57607f821691505b60208210810361071b57634e487b7160e01b600052602260045260246000fd5b6020808252602c908201527f46756e6374696f6e206d7573742062652063616c6c6564207468726f7567682060408201526b19195b1959d85d1958d85b1b60a21b606082015260800190565b6020808252602c908201527f46756e6374696f6e206d7573742062652063616c6c6564207468726f7567682060408201526b6163746976652070726f787960a01b606082015260800190565b60006020828403121561534657600080fd5b815180151581146115c957600080fd5b6020808252601590820152744e6f74206f776e6572206f722064656c656761746560581b604082015260600190565b805161539081614cd1565b919050565b6000602082840312156153a757600080fd5b81516115c981614cd1565b6020808252600e908201526d20b1b1b2b9b9903232b734b2b21760911b604082015260600190565b60208082526026908201527f546865207472616e73616374696f6e2073686f756c646e277420626520646973604082015265383aba32b21760d11b606082015260800190565b634e487b7160e01b600052601160045260246000fd5b8181038181111561496257614962615420565b600082601f83011261545a57600080fd5b8151615468614ff782614fc1565b81815284602083860101111561547d57600080fd5b613cb6826020830160208701614d46565b805161539081615179565b6000602082840312156154ab57600080fd5b815167ffffffffffffffff808211156154c357600080fd5b9083019061014082860312156154d857600080fd5b6154e0614f43565b825181526020830151828111156154f657600080fd5b61550287828601615449565b60208301525060408301518281111561551a57600080fd5b61552687828601615449565b6040830152506155386060840161548e565b60608201526155496080840161548e565b608082015260a083015160a082015260c083015160c082015261556e60e08401615385565b60e0820152610100808401518381111561558757600080fd5b61559388828701615449565b91830191909152506101209283015192810192909252509392505050565b60208082526013908201527220b93134ba3930ba37b9103737ba1039b2ba1760691b604082015260600190565b6020808252604e908201527f446973707574652068617320616c7265616479206265656e206372656174656460408201527f206f72206265636175736520746865207472616e73616374696f6e206861732060608201526d3132b2b71032bc32b1baba32b21760911b608082015260a00190565b6000815461565f81615268565b80855260206001838116801561567c5760018114615696576156c4565b60ff1985168884015283151560051b8801830195506156c4565b866000528260002060005b858110156156bc5781548a82018601529083019084016156a1565b890184019650505b505050505092915050565b60208152600061495f6020830184615652565b8082018082111561496257614962615420565b6002811061042f5761042f614d1c565b60608101615712856156f5565b84825261571e846156f5565b602082019390935260400152919050565b6020810161573c836156f5565b91905290565b828152604060208201526000613cb66040830184615652565b60208152600061495f6020830184614d6a565b60008261578b57634e487b7160e01b600052601260045260246000fd5b500490565b6000602082840312156157a257600080fd5b815167ffffffffffffffff808211156157ba57600080fd5b9083019060c082860312156157ce57600080fd5b6157d6614f6d565b8251600581106157e557600080fd5b80825250602083015160208201526040830151604082015260608301518281111561580f57600080fd5b61581b87828601615449565b6060830152506080830151608082015260a083015160a082015280935050505092915050565b60006020828403121561585357600080fd5b815167ffffffffffffffff8082111561586b57600080fd5b9083019060c0828603121561587f57600080fd5b615887614f6d565b82516002811061589657600080fd5b8152602083810151908201526158ae60408401615385565b6040820152606083015160608201526158c96080840161548e565b608082015260a0830151828111156158e057600080fd5b6158ec87828601615449565b60a08301525095945050505050565b808202811582820484141761496257614962615420565b85815260a08101615922866156f5565b602082019590955260408101939093526001600160a01b03919091166060830152608090910152919050565b601f8211156119f457600081815260208120601f850160051c810160208610156159755750805b601f850160051c820191505b8181101561483457828155600101615981565b815167ffffffffffffffff8111156159ae576159ae614f2d565b6159c2816159bc8454615268565b8461594e565b602080601f8311600181146159f757600084156159df5750858301515b600019600386901b1c1916600185901b178555614834565b600085815260208120601f198616915b82811015615a2657888601518255948401946001909101908401615a07565b5085821015615a445787850151600019600388901b60f8161c191681555b5050505050600190811b01905550565b8c8152602081018c9052604081018b90526001600160a01b038a81166060830152608082018a905260a0820189905261ffff88811660c084015287811660e0840152861661010083015284166101208201526101806101408201819052600090615ac083820186615652565b915050826101608301529d9c50505050505050505050505050565b60ff83168152604060208201526000613cb66040830184615652565b61ffff8181168382160190808211156109c7576109c7615420565b6020808252602b908201527f496e697469616c697a61626c653a20636f6e7472616374206973206e6f74206960408201526a6e697469616c697a696e6760a81b606082015260800190565b60008251615b6f818460208701614d46565b919091019291505056fe360894a13ba1a3210667c828492db98dca3e2076cc3735a920a3ca505d382bbc73e533bc8a993eccbc1023beebad0020f6b6c3639f83062f00fc194b4d1172ba416464726573733a206c6f772d6c6576656c2064656c65676174652063616c6c206661696c6564a2646970667358221220d418a1dbb7891605342e07c6851d614273a5524d05a784e354609451e11757f964736f6c63430008110033",
  "linkReferences": {},
  "deployedLinkReferences": {}
}