{
  "_format": "hh-sol-artifact-1",
  "contractName": "TalentLayerID",
  "sourceName": "contracts/TalentLayerID.sol",
  "abi": [
    {
      "inputs": [],
      "stateMutability": "nonpayable",
      "type": "constructor"
    },
    {
      "anonymous": false,
      "inputs": [
        {
          "indexed": false,
          "internalType": "address",
          "name": "previousAdmin",
          "type": "address"
        },
        {
          "indexed": false,
          "internalType": "address",
          "name": "newAdmin",
          "type": "address"
        }
      ],
      "name": "AdminChanged",
      "type": "event"
    },
    {
      "anonymous": false,
      "inputs": [
        {
          "indexed": true,
          "internalType": "address",
          "name": "owner",
          "type": "address"
        },
        {
          "indexed": true,
          "internalType": "address",
          "name": "approved",
          "type": "address"
        },
        {
          "indexed": true,
          "internalType": "uint256",
          "name": "tokenId",
          "type": "uint256"
        }
      ],
      "name": "Approval",
      "type": "event"
    },
    {
      "anonymous": false,
      "inputs": [
        {
          "indexed": true,
          "internalType": "address",
          "name": "owner",
          "type": "address"
        },
        {
          "indexed": true,
          "internalType": "address",
          "name": "operator",
          "type": "address"
        },
        {
          "indexed": false,
          "internalType": "bool",
          "name": "approved",
          "type": "bool"
        }
      ],
      "name": "ApprovalForAll",
      "type": "event"
    },
    {
      "anonymous": false,
      "inputs": [
        {
          "indexed": true,
          "internalType": "address",
          "name": "beacon",
          "type": "address"
        }
      ],
      "name": "BeaconUpgraded",
      "type": "event"
    },
    {
      "anonymous": false,
      "inputs": [
        {
          "indexed": true,
          "internalType": "uint256",
          "name": "_tokenId",
          "type": "uint256"
        },
        {
          "indexed": false,
          "internalType": "string",
          "name": "_newCid",
          "type": "string"
        }
      ],
      "name": "CidUpdated",
      "type": "event"
    },
    {
      "anonymous": false,
      "inputs": [
        {
          "indexed": false,
          "internalType": "uint256",
          "name": "_tokenId",
          "type": "uint256"
        },
        {
          "indexed": false,
          "internalType": "address",
          "name": "_delegate",
          "type": "address"
        }
      ],
      "name": "DelegateAdded",
      "type": "event"
    },
    {
      "anonymous": false,
      "inputs": [
        {
          "indexed": false,
          "internalType": "uint256",
          "name": "_tokenId",
          "type": "uint256"
        },
        {
          "indexed": false,
          "internalType": "address",
          "name": "_delegate",
          "type": "address"
        }
      ],
      "name": "DelegateRemoved",
      "type": "event"
    },
    {
      "anonymous": false,
      "inputs": [
        {
          "indexed": false,
          "internalType": "uint8",
          "name": "version",
          "type": "uint8"
        }
      ],
      "name": "Initialized",
      "type": "event"
    },
    {
      "anonymous": false,
      "inputs": [
        {
          "indexed": true,
          "internalType": "address",
          "name": "_user",
          "type": "address"
        },
        {
          "indexed": false,
          "internalType": "uint256",
          "name": "_tokenId",
          "type": "uint256"
        },
        {
          "indexed": false,
          "internalType": "string",
          "name": "_handle",
          "type": "string"
        },
        {
          "indexed": false,
          "internalType": "uint256",
          "name": "_platformId",
          "type": "uint256"
        },
        {
          "indexed": false,
          "internalType": "uint256",
          "name": "_fee",
          "type": "uint256"
        }
      ],
      "name": "Mint",
      "type": "event"
    },
    {
      "anonymous": false,
      "inputs": [
        {
          "indexed": false,
          "internalType": "uint256",
          "name": "_mintFee",
          "type": "uint256"
        }
      ],
      "name": "MintFeeUpdated",
      "type": "event"
    },
    {
      "anonymous": false,
      "inputs": [
        {
          "indexed": true,
          "internalType": "address",
          "name": "previousOwner",
          "type": "address"
        },
        {
          "indexed": true,
          "internalType": "address",
          "name": "newOwner",
          "type": "address"
        }
      ],
      "name": "OwnershipTransferred",
      "type": "event"
    },
    {
      "anonymous": false,
      "inputs": [
        {
          "indexed": true,
          "internalType": "address",
          "name": "from",
          "type": "address"
        },
        {
          "indexed": true,
          "internalType": "address",
          "name": "to",
          "type": "address"
        },
        {
          "indexed": true,
          "internalType": "uint256",
          "name": "tokenId",
          "type": "uint256"
        }
      ],
      "name": "Transfer",
      "type": "event"
    },
    {
      "anonymous": false,
      "inputs": [
        {
          "indexed": false,
          "internalType": "address",
          "name": "forwarder",
          "type": "address"
        }
      ],
      "name": "TrustedForwarderAdded",
      "type": "event"
    },
    {
      "anonymous": false,
      "inputs": [
        {
          "indexed": false,
          "internalType": "address",
          "name": "forwarder",
          "type": "address"
        }
      ],
      "name": "TrustedForwarderRemoved",
      "type": "event"
    },
    {
      "anonymous": false,
      "inputs": [
        {
          "indexed": true,
          "internalType": "address",
          "name": "implementation",
          "type": "address"
        }
      ],
      "name": "Upgraded",
      "type": "event"
    },
    {
      "inputs": [
        {
          "internalType": "uint256",
          "name": "_tokenId",
          "type": "uint256"
        },
        {
          "internalType": "address",
          "name": "_delegate",
          "type": "address"
        }
      ],
      "name": "addDelegate",
      "outputs": [],
      "stateMutability": "nonpayable",
      "type": "function"
    },
    {
      "inputs": [
        {
          "internalType": "address",
          "name": "_forwarder",
          "type": "address"
        }
      ],
      "name": "addTrustedForwarder",
      "outputs": [],
      "stateMutability": "nonpayable",
      "type": "function"
    },
    {
      "inputs": [
        {
          "internalType": "address",
          "name": "to",
          "type": "address"
        },
        {
          "internalType": "uint256",
          "name": "tokenId",
          "type": "uint256"
        }
      ],
      "name": "approve",
      "outputs": [],
      "stateMutability": "nonpayable",
      "type": "function"
    },
    {
      "inputs": [
        {
          "internalType": "address",
          "name": "owner",
          "type": "address"
        }
      ],
      "name": "balanceOf",
      "outputs": [
        {
          "internalType": "uint256",
          "name": "",
          "type": "uint256"
        }
      ],
      "stateMutability": "view",
      "type": "function"
    },
    {
      "inputs": [
        {
          "internalType": "uint256",
          "name": "_platformId",
          "type": "uint256"
        },
        {
          "internalType": "address",
          "name": "_userAddress",
          "type": "address"
        },
        {
          "internalType": "string",
          "name": "_handle",
          "type": "string"
        }
      ],
      "name": "freeMint",
      "outputs": [],
      "stateMutability": "nonpayable",
      "type": "function"
    },
    {
      "inputs": [
        {
          "internalType": "uint256",
          "name": "tokenId",
          "type": "uint256"
        }
      ],
      "name": "getApproved",
      "outputs": [
        {
          "internalType": "address",
          "name": "",
          "type": "address"
        }
      ],
      "stateMutability": "view",
      "type": "function"
    },
    {
      "inputs": [
        {
          "internalType": "address",
          "name": "_address",
          "type": "address"
        }
      ],
      "name": "getOriginatorPlatformIdByAddress",
      "outputs": [
        {
          "internalType": "uint256",
          "name": "",
          "type": "uint256"
        }
      ],
      "stateMutability": "view",
      "type": "function"
    },
    {
      "inputs": [
        {
          "internalType": "uint256",
          "name": "_profileId",
          "type": "uint256"
        }
      ],
      "name": "getProfile",
      "outputs": [
        {
          "components": [
            {
              "internalType": "uint256",
              "name": "id",
              "type": "uint256"
            },
            {
              "internalType": "string",
              "name": "handle",
              "type": "string"
            },
            {
              "internalType": "uint256",
              "name": "platformId",
              "type": "uint256"
            },
            {
              "internalType": "string",
              "name": "dataUri",
              "type": "string"
            }
          ],
          "internalType": "struct TalentLayerID.Profile",
          "name": "",
          "type": "tuple"
        }
      ],
      "stateMutability": "view",
      "type": "function"
    },
    {
      "inputs": [
        {
          "internalType": "address",
          "name": "_talentLayerPlatformIdAddress",
          "type": "address"
        }
      ],
      "name": "initialize",
      "outputs": [],
      "stateMutability": "nonpayable",
      "type": "function"
    },
    {
      "inputs": [
        {
          "internalType": "address",
          "name": "owner",
          "type": "address"
        },
        {
          "internalType": "address",
          "name": "operator",
          "type": "address"
        }
      ],
      "name": "isApprovedForAll",
      "outputs": [
        {
          "internalType": "bool",
          "name": "",
          "type": "bool"
        }
      ],
      "stateMutability": "view",
      "type": "function"
    },
    {
      "inputs": [
        {
          "internalType": "uint256",
          "name": "_tokenId",
          "type": "uint256"
        },
        {
          "internalType": "address",
          "name": "_address",
          "type": "address"
        }
      ],
      "name": "isDelegate",
      "outputs": [
        {
          "internalType": "bool",
          "name": "",
          "type": "bool"
        }
      ],
      "stateMutability": "view",
      "type": "function"
    },
    {
      "inputs": [
        {
          "internalType": "uint256",
          "name": "_tokenId",
          "type": "uint256"
        },
        {
          "internalType": "address",
          "name": "_address",
          "type": "address"
        }
      ],
      "name": "isOwnerOrDelegate",
      "outputs": [
        {
          "internalType": "bool",
          "name": "",
          "type": "bool"
        }
      ],
      "stateMutability": "view",
      "type": "function"
    },
    {
      "inputs": [
        {
          "internalType": "address",
          "name": "forwarder",
          "type": "address"
        }
      ],
      "name": "isTrustedForwarder",
      "outputs": [
        {
          "internalType": "bool",
          "name": "",
          "type": "bool"
        }
      ],
      "stateMutability": "view",
      "type": "function"
    },
    {
      "inputs": [
        {
          "internalType": "uint256",
          "name": "_tokenId",
          "type": "uint256"
        }
      ],
      "name": "isValid",
      "outputs": [],
      "stateMutability": "view",
      "type": "function"
    },
    {
      "inputs": [
        {
          "internalType": "uint256",
          "name": "_platformId",
          "type": "uint256"
        },
        {
          "internalType": "string",
          "name": "_handle",
          "type": "string"
        }
      ],
      "name": "mint",
      "outputs": [],
      "stateMutability": "payable",
      "type": "function"
    },
    {
      "inputs": [],
      "name": "mintFee",
      "outputs": [
        {
          "internalType": "uint256",
          "name": "",
          "type": "uint256"
        }
      ],
      "stateMutability": "view",
      "type": "function"
    },
    {
      "inputs": [],
      "name": "name",
      "outputs": [
        {
          "internalType": "string",
          "name": "",
          "type": "string"
        }
      ],
      "stateMutability": "view",
      "type": "function"
    },
    {
      "inputs": [
        {
          "internalType": "address",
          "name": "_user",
          "type": "address"
        }
      ],
      "name": "numberMinted",
      "outputs": [
        {
          "internalType": "uint256",
          "name": "",
          "type": "uint256"
        }
      ],
      "stateMutability": "view",
      "type": "function"
    },
    {
      "inputs": [],
      "name": "owner",
      "outputs": [
        {
          "internalType": "address",
          "name": "",
          "type": "address"
        }
      ],
      "stateMutability": "view",
      "type": "function"
    },
    {
      "inputs": [
        {
          "internalType": "uint256",
          "name": "tokenId",
          "type": "uint256"
        }
      ],
      "name": "ownerOf",
      "outputs": [
        {
          "internalType": "address",
          "name": "",
          "type": "address"
        }
      ],
      "stateMutability": "view",
      "type": "function"
    },
    {
      "inputs": [
        {
          "internalType": "uint256",
          "name": "",
          "type": "uint256"
        }
      ],
      "name": "profiles",
      "outputs": [
        {
          "internalType": "uint256",
          "name": "id",
          "type": "uint256"
        },
        {
          "internalType": "string",
          "name": "handle",
          "type": "string"
        },
        {
          "internalType": "uint256",
          "name": "platformId",
          "type": "uint256"
        },
        {
          "internalType": "string",
          "name": "dataUri",
          "type": "string"
        }
      ],
      "stateMutability": "view",
      "type": "function"
    },
    {
      "inputs": [],
      "name": "proxiableUUID",
      "outputs": [
        {
          "internalType": "bytes32",
          "name": "",
          "type": "bytes32"
        }
      ],
      "stateMutability": "view",
      "type": "function"
    },
    {
      "inputs": [
        {
          "internalType": "uint256",
          "name": "_tokenId",
          "type": "uint256"
        },
        {
          "internalType": "address",
          "name": "_delegate",
          "type": "address"
        }
      ],
      "name": "removeDelegate",
      "outputs": [],
      "stateMutability": "nonpayable",
      "type": "function"
    },
    {
      "inputs": [
        {
          "internalType": "address",
          "name": "_forwarder",
          "type": "address"
        }
      ],
      "name": "removeTrustedForwarder",
      "outputs": [],
      "stateMutability": "nonpayable",
      "type": "function"
    },
    {
      "inputs": [],
      "name": "renounceOwnership",
      "outputs": [],
      "stateMutability": "nonpayable",
      "type": "function"
    },
    {
      "inputs": [
        {
          "internalType": "address",
          "name": "from",
          "type": "address"
        },
        {
          "internalType": "address",
          "name": "to",
          "type": "address"
        },
        {
          "internalType": "uint256",
          "name": "tokenId",
          "type": "uint256"
        }
      ],
      "name": "safeTransferFrom",
      "outputs": [],
      "stateMutability": "nonpayable",
      "type": "function"
    },
    {
      "inputs": [
        {
          "internalType": "address",
          "name": "from",
          "type": "address"
        },
        {
          "internalType": "address",
          "name": "to",
          "type": "address"
        },
        {
          "internalType": "uint256",
          "name": "tokenId",
          "type": "uint256"
        },
        {
          "internalType": "bytes",
          "name": "data",
          "type": "bytes"
        }
      ],
      "name": "safeTransferFrom",
      "outputs": [],
      "stateMutability": "nonpayable",
      "type": "function"
    },
    {
      "inputs": [
        {
          "internalType": "address",
          "name": "operator",
          "type": "address"
        },
        {
          "internalType": "bool",
          "name": "approved",
          "type": "bool"
        }
      ],
      "name": "setApprovalForAll",
      "outputs": [],
      "stateMutability": "nonpayable",
      "type": "function"
    },
    {
      "inputs": [
        {
          "internalType": "bytes4",
          "name": "interfaceId",
          "type": "bytes4"
        }
      ],
      "name": "supportsInterface",
      "outputs": [
        {
          "internalType": "bool",
          "name": "",
          "type": "bool"
        }
      ],
      "stateMutability": "view",
      "type": "function"
    },
    {
      "inputs": [],
      "name": "symbol",
      "outputs": [
        {
          "internalType": "string",
          "name": "",
          "type": "string"
        }
      ],
      "stateMutability": "view",
      "type": "function"
    },
    {
      "inputs": [
        {
          "internalType": "string",
          "name": "",
          "type": "string"
        }
      ],
      "name": "takenHandles",
      "outputs": [
        {
          "internalType": "bool",
          "name": "",
          "type": "bool"
        }
      ],
      "stateMutability": "view",
      "type": "function"
    },
    {
      "inputs": [],
      "name": "talentLayerPlatformIdContract",
      "outputs": [
        {
          "internalType": "contract ITalentLayerPlatformID",
          "name": "",
          "type": "address"
        }
      ],
      "stateMutability": "view",
      "type": "function"
    },
    {
      "inputs": [
        {
          "internalType": "uint256",
          "name": "tokenId",
          "type": "uint256"
        }
      ],
      "name": "tokenURI",
      "outputs": [
        {
          "internalType": "string",
          "name": "",
          "type": "string"
        }
      ],
      "stateMutability": "view",
      "type": "function"
    },
    {
      "inputs": [],
      "name": "totalSupply",
      "outputs": [
        {
          "internalType": "uint256",
          "name": "",
          "type": "uint256"
        }
      ],
      "stateMutability": "view",
      "type": "function"
    },
    {
      "inputs": [
        {
          "internalType": "address",
          "name": "from",
          "type": "address"
        },
        {
          "internalType": "address",
          "name": "to",
          "type": "address"
        },
        {
          "internalType": "uint256",
          "name": "tokenId",
          "type": "uint256"
        }
      ],
      "name": "transferFrom",
      "outputs": [],
      "stateMutability": "nonpayable",
      "type": "function"
    },
    {
      "inputs": [
        {
          "internalType": "address",
          "name": "newOwner",
          "type": "address"
        }
      ],
      "name": "transferOwnership",
      "outputs": [],
      "stateMutability": "nonpayable",
      "type": "function"
    },
    {
      "inputs": [
        {
          "internalType": "uint256",
          "name": "_mintFee",
          "type": "uint256"
        }
      ],
      "name": "updateMintFee",
      "outputs": [],
      "stateMutability": "nonpayable",
      "type": "function"
    },
    {
      "inputs": [
        {
          "internalType": "uint256",
          "name": "_tokenId",
          "type": "uint256"
        },
        {
          "internalType": "string",
          "name": "_newCid",
          "type": "string"
        }
      ],
      "name": "updateProfileData",
      "outputs": [],
      "stateMutability": "nonpayable",
      "type": "function"
    },
    {
      "inputs": [
        {
          "internalType": "address",
          "name": "newImplementation",
          "type": "address"
        }
      ],
      "name": "upgradeTo",
      "outputs": [],
      "stateMutability": "nonpayable",
      "type": "function"
    },
    {
      "inputs": [
        {
          "internalType": "address",
          "name": "newImplementation",
          "type": "address"
        },
        {
          "internalType": "bytes",
          "name": "data",
          "type": "bytes"
        }
      ],
      "name": "upgradeToAndCall",
      "outputs": [],
      "stateMutability": "payable",
      "type": "function"
    },
    {
      "inputs": [
        {
          "internalType": "address",
          "name": "_owner",
          "type": "address"
        }
      ],
      "name": "walletOfOwner",
      "outputs": [
        {
          "internalType": "uint256",
          "name": "",
          "type": "uint256"
        }
      ],
      "stateMutability": "view",
      "type": "function"
    },
    {
      "inputs": [],
      "name": "withdraw",
      "outputs": [],
      "stateMutability": "nonpayable",
      "type": "function"
    }
  ],
  "bytecode": "0x60a0604052306080523480156200001557600080fd5b506200002062000026565b620000e8565b600054610100900460ff1615620000935760405162461bcd60e51b815260206004820152602760248201527f496e697469616c697a61626c653a20636f6e747261637420697320696e697469604482015266616c697a696e6760c81b606482015260840160405180910390fd5b60005460ff9081161015620000e6576000805460ff191660ff9081179091556040519081527f7f26b83ff96e1f2b6a682f133852f6798a09c465da95921460cefb38474024989060200160405180910390a15b565b608051613b0f6200012060003960008181610beb01528181610c2b01528181610e2901528181610e690152610efc0152613b0f6000f3fe6080604052600436106102515760003560e01c80636352211e11610139578063b88d4fde116100b6578063e985e9c51161007a578063e985e9c5146106df578063eab5d42614610728578063f08f4f641461076f578063f160068f1461079c578063f2fde38b146107bc578063f577a500146107dc57600080fd5b8063b88d4fde1461062f578063c36fe3d61461064f578063c4d66de81461067f578063c87b56dd1461069f578063dc33e681146106bf57600080fd5b806384017e52116100fd57806384017e521461059c57806389c1694c146105bc5780638da5cb5b146105dc57806395d89b41146105fa578063a22cb4651461060f57600080fd5b80636352211e1461051457806370a082311461053457806370e703dd14610554578063715018a61461057457806377097fc81461058957600080fd5b806326d00668116101d257806342842e0e1161019657806342842e0e146103be578063438b6300146104735780634f1ef2861461049357806352d1902d146104a6578063572b6c05146104bb5780635c4b0348146104f457600080fd5b806326d00668146103de5780632fa117e5146103fe5780633659cfe61461041e5780633751d89c1461043e5780633ccfd60b1461045e57600080fd5b80631499f9e6116102195780631499f9e61461032c57806318160ddd1461034d5780631cf6239b146103625780632106beec1461038257806323b872dd146103be57600080fd5b806301ffc9a71461025657806306fdde031461028b578063081812fc146102ad578063095ea7b3146102e557806313966db514610307575b600080fd5b34801561026257600080fd5b50610276610271366004612e35565b6107fc565b60405190151581526020015b60405180910390f35b34801561029757600080fd5b506102a061084e565b6040516102829190612eaa565b3480156102b957600080fd5b506102cd6102c8366004612ebd565b6108e0565b6040516001600160a01b039091168152602001610282565b3480156102f157600080fd5b50610305610300366004612ef2565b610907565b005b34801561031357600080fd5b5061031e6101315481565b604051908152602001610282565b34801561033857600080fd5b5061012e546102cd906001600160a01b031681565b34801561035957600080fd5b5061031e610a2f565b34801561036e57600080fd5b5061030561037d366004612f1c565b610a4c565b34801561038e57600080fd5b5061027661039d366004612feb565b805160208183018101805161012f8252928201919093012091525460ff1681565b3480156103ca57600080fd5b506103056103d9366004613020565b505050565b3480156103ea57600080fd5b506103056103f936600461305c565b610b29565b34801561040a57600080fd5b50610276610419366004612f1c565b610b8c565b34801561042a57600080fd5b5061030561043936600461305c565b610be0565b34801561044a57600080fd5b5061030561045936600461305c565b610cc0565b34801561046a57600080fd5b50610305610d19565b34801561047f57600080fd5b5061031e61048e36600461305c565b610dcb565b6103056104a1366004613077565b610e1e565b3480156104b257600080fd5b5061031e610eef565b3480156104c757600080fd5b506102766104d636600461305c565b6001600160a01b031660009081526065602052604090205460ff1690565b34801561050057600080fd5b5061031e61050f36600461305c565b610fa2565b34801561052057600080fd5b506102cd61052f366004612ebd565b610fcb565b34801561054057600080fd5b5061031e61054f36600461305c565b61102b565b34801561056057600080fd5b5061030561056f366004612f1c565b6110b1565b34801561058057600080fd5b50610305611183565b6103056105973660046130c5565b611197565b3480156105a857600080fd5b506103056105b7366004612ebd565b6113d5565b3480156105c857600080fd5b506103056105d73660046130f6565b611413565b3480156105e857600080fd5b506033546001600160a01b03166102cd565b34801561060657600080fd5b506102a06115dc565b34801561061b57600080fd5b5061030561062a36600461314d565b6115eb565b34801561063b57600080fd5b5061030561064a366004613189565b6115fd565b34801561065b57600080fd5b5061066f61066a366004612ebd565b611682565b60405161028294939291906131f1565b34801561068b57600080fd5b5061030561069a36600461305c565b6117bc565b3480156106ab57600080fd5b506102a06106ba366004612ebd565b61193e565b3480156106cb57600080fd5b5061031e6106da36600461305c565b611949565b3480156106eb57600080fd5b506102766106fa36600461322d565b6001600160a01b039182166000908152609d6020908152604080832093909416825291909152205460ff1690565b34801561073457600080fd5b50610276610743366004612f1c565b6000918252610133602090815260408084206001600160a01b0393909316845291905290205460ff1690565b34801561077b57600080fd5b5061078f61078a366004612ebd565b611954565b6040516102829190613257565b3480156107a857600080fd5b506103056107b73660046130c5565b611b4f565b3480156107c857600080fd5b506103056107d736600461305c565b611c55565b3480156107e857600080fd5b506103056107f7366004612ebd565b611ccb565b60006001600160e01b031982166380ac58cd60e01b148061082d57506001600160e01b03198216635b5e139f60e01b145b8061084857506301ffc9a760e01b6001600160e01b03198316145b92915050565b60606098805461085d906132a4565b80601f0160208091040260200160405190810160405280929190818152602001828054610889906132a4565b80156108d65780601f106108ab576101008083540402835291602001916108d6565b820191906000526020600020905b8154815290600101906020018083116108b957829003601f168201915b5050505050905090565b60006108eb82611d29565b506000908152609c60205260409020546001600160a01b031690565b600061091282610fcb565b9050806001600160a01b0316836001600160a01b031614156109855760405162461bcd60e51b815260206004820152602160248201527f4552433732313a20617070726f76616c20746f2063757272656e74206f776e656044820152603960f91b60648201526084015b60405180910390fd5b806001600160a01b0316610997611d88565b6001600160a01b031614806109b357506109b3816106fa611d88565b610a255760405162461bcd60e51b815260206004820152603d60248201527f4552433732313a20617070726f76652063616c6c6572206973206e6f7420746f60448201527f6b656e206f776e6572206f7220617070726f76656420666f7220616c6c000000606482015260840161097c565b6103d98383611d92565b60006001610a3d6101325490565b610a4791906132f5565b905090565b610a54611d88565b6001600160a01b0316610a6683610fcb565b6001600160a01b031614610abc5760405162461bcd60e51b815260206004820152601c60248201527f4f6e6c79206f776e65722063616e206164642064656c65676174657300000000604482015260640161097c565b6000828152610133602090815260408083206001600160a01b03851680855290835292819020805460ff191660011790558051858152918201929092527f2d678d15460f6ef62d6d85bfaf6a46d9d0d6498a0fd6ecd92d42bc2ab018103991015b60405180910390a15050565b610b31611e00565b6001600160a01b038116600081815260656020908152604091829020805460ff1916600117905590519182527f3ef8564460ada92419608d823c014975d98f8104d7d1e68c222967ac6814cd9791015b60405180910390a150565b6000816001600160a01b0316610ba184610fcb565b6001600160a01b03161480610bd957506000838152610133602090815260408083206001600160a01b038616845290915290205460ff165b9392505050565b306001600160a01b037f0000000000000000000000000000000000000000000000000000000000000000161415610c295760405162461bcd60e51b815260040161097c9061330c565b7f00000000000000000000000000000000000000000000000000000000000000006001600160a01b0316610c72600080516020613a53833981519152546001600160a01b031690565b6001600160a01b031614610c985760405162461bcd60e51b815260040161097c90613358565b610ca181611e79565b60408051600080825260208201909252610cbd91839190611e81565b50565b610cc8611e00565b6001600160a01b038116600081815260656020908152604091829020805460ff1916905590519182527fd2d636efcad0cea42e170256f4c5d8b1cd81e47b855557edaf44014e6cc4cee69101610b81565b610d21611e00565b6000610d2b611d88565b6001600160a01b03164760405160006040518083038185875af1925050503d8060008114610d75576040519150601f19603f3d011682016040523d82523d6000602084013e610d7a565b606091505b5050905080610cbd5760405162461bcd60e51b815260206004820152601860248201527f4661696c656420746f2077697468647261772045746865720000000000000000604482015260640161097c565b600060015b61013254811015610e15576000818152609a60205260409020546001600160a01b0384811691161415610e035792915050565b80610e0d816133a4565b915050610dd0565b50600092915050565b306001600160a01b037f0000000000000000000000000000000000000000000000000000000000000000161415610e675760405162461bcd60e51b815260040161097c9061330c565b7f00000000000000000000000000000000000000000000000000000000000000006001600160a01b0316610eb0600080516020613a53833981519152546001600160a01b031690565b6001600160a01b031614610ed65760405162461bcd60e51b815260040161097c90613358565b610edf82611e79565b610eeb82826001611e81565b5050565b6000306001600160a01b037f00000000000000000000000000000000000000000000000000000000000000001614610f8f5760405162461bcd60e51b815260206004820152603860248201527f555550535570677261646561626c653a206d757374206e6f742062652063616c60448201527f6c6564207468726f7567682064656c656761746563616c6c0000000000000000606482015260840161097c565b50600080516020613a5383398151915290565b60006101306000610fb284610dcb565b8152602001908152602001600020600201549050919050565b6000818152609a60205260408120546001600160a01b0316806108485760405162461bcd60e51b8152602060048201526018602482015277115490cdcc8c4e881a5b9d985b1a59081d1bdad95b88125160421b604482015260640161097c565b60006001600160a01b0382166110955760405162461bcd60e51b815260206004820152602960248201527f4552433732313a2061646472657373207a65726f206973206e6f7420612076616044820152683634b21037bbb732b960b91b606482015260840161097c565b506001600160a01b03166000908152609b602052604090205490565b6110b9611d88565b6001600160a01b03166110cb83610fcb565b6001600160a01b0316146111215760405162461bcd60e51b815260206004820152601f60248201527f4f6e6c79206f776e65722063616e2072656d6f76652064656c65676174657300604482015260640161097c565b6000828152610133602090815260408083206001600160a01b03851680855290835292819020805460ff191690558051858152918201929092527f09f87139523b83583b15f476015dd9a27fae3a03f17202cdf77d063bef5d21c29101610b1d565b61118b611e00565b6111956000611ffb565b565b6101315434146111f55760405162461bcd60e51b8152602060048201526024808201527f496e636f727265637420616d6f756e74206f662045544820666f72206d696e746044820152632066656560e01b606482015260840161097c565b6111fd611d88565b818361120883611949565b156112555760405162461bcd60e51b815260206004820181905260248201527f596f7520616c7265616479206861766520612054616c656e744c617965724944604482015260640161097c565b60028251101561129a5760405162461bcd60e51b815260206004820152601060248201526f12185b991b19481d1bdbc81cda1bdc9d60821b604482015260640161097c565b6014825111156112de5760405162461bcd60e51b815260206004820152600f60248201526e48616e646c6520746f6f206c6f6e6760881b604482015260640161097c565b61012f826040516112ef91906133db565b9081526040519081900360200190205460ff16156113465760405162461bcd60e51b81526020600482015260146024820152732430b73236329030b63932b0b23c903a30b5b2b760611b604482015260640161097c565b61012e5460405162f577a560e81b8152600481018390526001600160a01b039091169063f577a5009060240160006040518083038186803b15801561138a57600080fd5b505afa15801561139e573d6000803e3d6000fd5b5050505060006113ac611d88565b90506113c1816113bc6101325490565b61204d565b6113cd81868834612067565b505050505050565b6113dd611e00565b6101318190556040518181527f38fbb1c8b109c430f0c030e7ed076cf5611a307773a4e8e365601e8f8bceaec690602001610b81565b81818461141f83611949565b1561146c5760405162461bcd60e51b815260206004820181905260248201527f596f7520616c7265616479206861766520612054616c656e744c617965724944604482015260640161097c565b6002825110156114b15760405162461bcd60e51b815260206004820152601060248201526f12185b991b19481d1bdbc81cda1bdc9d60821b604482015260640161097c565b6014825111156114f55760405162461bcd60e51b815260206004820152600f60248201526e48616e646c6520746f6f206c6f6e6760881b604482015260640161097c565b61012f8260405161150691906133db565b9081526040519081900360200190205460ff161561155d5760405162461bcd60e51b81526020600482015260146024820152732430b73236329030b63932b0b23c903a30b5b2b760611b604482015260640161097c565b61012e5460405162f577a560e81b8152600481018390526001600160a01b039091169063f577a5009060240160006040518083038186803b1580156115a157600080fd5b505afa1580156115b5573d6000803e3d6000fd5b505050506115c1611e00565b6115cf856113bc6101325490565b6113cd8585886000612067565b60606099805461085d906132a4565b610eeb6115f6611d88565b8383612135565b61160e611608611d88565b83612204565b6116705760405162461bcd60e51b815260206004820152602d60248201527f4552433732313a2063616c6c6572206973206e6f7420746f6b656e206f776e6560448201526c1c881bdc88185c1c1c9bdd9959609a1b606482015260840161097c565b61167c84848484612283565b50505050565b61013060205260009081526040902080546001820180549192916116a5906132a4565b80601f01602080910402602001604051908101604052809291908181526020018280546116d1906132a4565b801561171e5780601f106116f35761010080835404028352916020019161171e565b820191906000526020600020905b81548152906001019060200180831161170157829003601f168201915b505050505090806002015490806003018054611739906132a4565b80601f0160208091040260200160405190810160405280929190818152602001828054611765906132a4565b80156117b25780601f10611787576101008083540402835291602001916117b2565b820191906000526020600020905b81548152906001019060200180831161179557829003601f168201915b5050505050905084565b600054610100900460ff16158080156117dc5750600054600160ff909116105b806117f65750303b1580156117f6575060005460ff166001145b6118595760405162461bcd60e51b815260206004820152602e60248201527f496e697469616c697a61626c653a20636f6e747261637420697320616c72656160448201526d191e481a5b9a5d1a585b1a5e995960921b606482015260840161097c565b6000805460ff19166001179055801561187c576000805461ff0019166101001790555b6118846122b6565b6118ce6040518060400160405280600d81526020016c15185b195b9d13185e595c9251609a1b8152506040518060400160405280600381526020016215125160ea1b8152506122e5565b6118d6612316565b61012e80546001600160a01b0319166001600160a01b038416179055610132805460010190558015610eeb576000805461ff0019169055604051600181527f7f26b83ff96e1f2b6a682f133852f6798a09c465da95921460cefb384740249890602001610b1d565b60606108488261233d565b60006108488261102b565b61197f6040518060800160405280600081526020016060815260200160008152602001606081525090565b6000828152609a60205260409020546001600160a01b03166119f15760405162461bcd60e51b815260206004820152602560248201527f54616c656e744c6179657249443a2050726f66696c6520646f6573206e6f7420604482015264195e1a5cdd60da1b606482015260840161097c565b610130600083815260200190815260200160002060405180608001604052908160008201548152602001600182018054611a2a906132a4565b80601f0160208091040260200160405190810160405280929190818152602001828054611a56906132a4565b8015611aa35780601f10611a7857610100808354040283529160200191611aa3565b820191906000526020600020905b815481529060010190602001808311611a8657829003601f168201915b5050505050815260200160028201548152602001600382018054611ac6906132a4565b80601f0160208091040260200160405190810160405280929190818152602001828054611af2906132a4565b8015611b3f5780601f10611b1457610100808354040283529160200191611b3f565b820191906000526020600020905b815481529060010190602001808311611b2257829003601f168201915b5050505050815250509050919050565b81611b5c81610419611d88565b611ba05760405162461bcd60e51b81526020600482015260156024820152744e6f74206f776e6572206f722064656c656761746560581b604482015260640161097c565b6000825111611bf15760405162461bcd60e51b815260206004820152601f60248201527f53686f756c642070726f7669646520612076616c696420495046532055524900604482015260640161097c565b6000838152610130602090815260409091208351611c1792600390920191850190612d86565b50827f613807bd6768f626264e7eb664a65ca99a0d930f8fd8a5b868491a592eb57f7283604051611c489190612eaa565b60405180910390a2505050565b611c5d611e00565b6001600160a01b038116611cc25760405162461bcd60e51b815260206004820152602660248201527f4f776e61626c653a206e6577206f776e657220697320746865207a65726f206160448201526564647265737360d01b606482015260840161097c565b610cbd81611ffb565b600081118015611cdd57506101325481105b610cbd5760405162461bcd60e51b815260206004820152601f60248201527f596f7572204944206973206e6f7420612076616c696420746f6b656e20494400604482015260640161097c565b6000818152609a60205260409020546001600160a01b0316610cbd5760405162461bcd60e51b8152602060048201526018602482015277115490cdcc8c4e881a5b9d985b1a59081d1bdad95b88125160421b604482015260640161097c565b6000610a47612468565b6000818152609c6020526040902080546001600160a01b0319166001600160a01b0384169081179091558190611dc782610fcb565b6001600160a01b03167f8c5be1e5ebec7d5bd14f71427d1e84f3dd0314c0f7b2291e5b200ac8c7c3b92560405160405180910390a45050565b611e08611d88565b6001600160a01b0316611e236033546001600160a01b031690565b6001600160a01b0316146111955760405162461bcd60e51b815260206004820181905260248201527f4f776e61626c653a2063616c6c6572206973206e6f7420746865206f776e6572604482015260640161097c565b610cbd611e00565b7f4910fdfa16fed3260ed0e7147f7cc6da11a60208b5b9406d12a635614ffd91435460ff1615611eb4576103d9836124a1565b826001600160a01b03166352d1902d6040518163ffffffff1660e01b815260040160206040518083038186803b158015611eed57600080fd5b505afa925050508015611f1d575060408051601f3d908101601f19168201909252611f1a918101906133f7565b60015b611f805760405162461bcd60e51b815260206004820152602e60248201527f45524331393637557067726164653a206e657720696d706c656d656e7461746960448201526d6f6e206973206e6f74205555505360901b606482015260840161097c565b600080516020613a538339815191528114611fef5760405162461bcd60e51b815260206004820152602960248201527f45524331393637557067726164653a20756e737570706f727465642070726f786044820152681a58589b195555525160ba1b606482015260840161097c565b506103d983838361253d565b603380546001600160a01b038381166001600160a01b0319831681179093556040519116919082907f8be0079c531659141344cd1fd0a4f28419497f9722a3daafe3b4186f6b6457e090600090a35050565b610eeb828260405180602001604052806000815250612562565b60006120736101325490565b905061208461013280546001019055565b60008181526101306020908152604090912060028101859055855190916120b2916001840191880190612d86565b50600161012f866040516120c691906133db565b908152604051908190036020018120805492151560ff19909316929092179091556001600160a01b038716907f8475f1ba3b06c1e11c870cbbf9753ca9a8292ea0b203262f682de476dc268f8c90612125908590899089908990613410565b60405180910390a2505050505050565b816001600160a01b0316836001600160a01b031614156121975760405162461bcd60e51b815260206004820152601960248201527f4552433732313a20617070726f766520746f2063616c6c657200000000000000604482015260640161097c565b6001600160a01b038381166000818152609d6020908152604080832094871680845294825291829020805460ff191686151590811790915591519182527f17307eab39ab6107e8899845ad3d59bd9653f200f220920489ca2b5937696c31910160405180910390a3505050565b60008061221083610fcb565b9050806001600160a01b0316846001600160a01b0316148061225757506001600160a01b038082166000908152609d602090815260408083209388168352929052205460ff165b8061227b5750836001600160a01b0316612270846108e0565b6001600160a01b0316145b949350505050565b61228e848484612595565b61229a84848484612706565b61167c5760405162461bcd60e51b815260040161097c9061343c565b600054610100900460ff166122dd5760405162461bcd60e51b815260040161097c9061348e565b61119561281a565b600054610100900460ff1661230c5760405162461bcd60e51b815260040161097c9061348e565b610eeb8282612851565b600054610100900460ff166111955760405162461bcd60e51b815260040161097c9061348e565b6000818152610130602052604081206001018054606092919061235f906132a4565b80601f016020809104026020016040519081016040528092919081815260200182805461238b906132a4565b80156123d85780601f106123ad576101008083540402835291602001916123d8565b820191906000526020600020905b8154815290600101906020018083116123bb57829003601f168201915b505050505090506000612409826040516020016123f591906134d9565b60405160208183030381529060405261289f565b604051602001612419919061383d565b604051602081830303815290604052905061244082826040516020016123f5929190613882565b6040516020016124509190613915565b60405160208183030381529060405292505050919050565b60006014361080159061248a57503360009081526065602052604090205460ff165b1561249c575060131936013560601c90565b503390565b6001600160a01b0381163b61250e5760405162461bcd60e51b815260206004820152602d60248201527f455243313936373a206e657720696d706c656d656e746174696f6e206973206e60448201526c1bdd08184818dbdb9d1c9858dd609a1b606482015260840161097c565b600080516020613a5383398151915280546001600160a01b0319166001600160a01b0392909216919091179055565b612546836129f3565b6000825111806125535750805b156103d95761167c8383612a33565b61256c8383612b27565b6125796000848484612706565b6103d95760405162461bcd60e51b815260040161097c9061343c565b826001600160a01b03166125a882610fcb565b6001600160a01b0316146125ce5760405162461bcd60e51b815260040161097c9061395a565b6001600160a01b0382166126305760405162461bcd60e51b8152602060048201526024808201527f4552433732313a207472616e7366657220746f20746865207a65726f206164646044820152637265737360e01b606482015260840161097c565b61263d8383836001612cc0565b826001600160a01b031661265082610fcb565b6001600160a01b0316146126765760405162461bcd60e51b815260040161097c9061395a565b6000818152609c6020908152604080832080546001600160a01b03199081169091556001600160a01b03878116808652609b8552838620805460001901905590871680865283862080546001019055868652609a90945282852080549092168417909155905184937fddf252ad1be2c89b69c2b068fc378daa952ba7f163c4a11628f55a4df523b3ef91a4505050565b60006001600160a01b0384163b1561280f57836001600160a01b031663150b7a0261272f611d88565b8786866040518563ffffffff1660e01b8152600401612751949392919061399f565b602060405180830381600087803b15801561276b57600080fd5b505af192505050801561279b575060408051601f3d908101601f19168201909252612798918101906139dc565b60015b6127f5573d8080156127c9576040519150601f19603f3d011682016040523d82523d6000602084013e6127ce565b606091505b5080516127ed5760405162461bcd60e51b815260040161097c9061343c565b805181602001fd5b6001600160e01b031916630a85bd0160e11b14905061227b565b506001949350505050565b600054610100900460ff166128415760405162461bcd60e51b815260040161097c9061348e565b61119561284c611d88565b611ffb565b600054610100900460ff166128785760405162461bcd60e51b815260040161097c9061348e565b815161288b906098906020850190612d86565b5080516103d9906099906020840190612d86565b60608151600014156128bf57505060408051602081019091526000815290565b6000604051806060016040528060408152602001613a7360409139905060006003845160026128ee91906139f9565b6128f89190613a11565b612903906004613a33565b67ffffffffffffffff81111561291b5761291b612f48565b6040519080825280601f01601f191660200182016040528015612945576020820181803683370190505b509050600182016020820185865187015b808210156129b1576003820191508151603f8160121c168501518453600184019350603f81600c1c168501518453600184019350603f8160061c168501518453600184019350603f8116850151845350600183019250612956565b50506003865106600181146129cd57600281146129e0576129e8565b603d6001830353603d60028303536129e8565b603d60018303535b509195945050505050565b6129fc816124a1565b6040516001600160a01b038216907fbc7cd75a20ee27fd9adebab32041f755214dbc6bffa90cc0225b39da2e5c2d3b90600090a250565b60606001600160a01b0383163b612a9b5760405162461bcd60e51b815260206004820152602660248201527f416464726573733a2064656c65676174652063616c6c20746f206e6f6e2d636f6044820152651b9d1c9858dd60d21b606482015260840161097c565b600080846001600160a01b031684604051612ab691906133db565b600060405180830381855af49150503d8060008114612af1576040519150601f19603f3d011682016040523d82523d6000602084013e612af6565b606091505b5091509150612b1e8282604051806060016040528060278152602001613ab360279139612d48565b95945050505050565b6001600160a01b038216612b7d5760405162461bcd60e51b815260206004820181905260248201527f4552433732313a206d696e7420746f20746865207a65726f2061646472657373604482015260640161097c565b6000818152609a60205260409020546001600160a01b031615612be25760405162461bcd60e51b815260206004820152601c60248201527f4552433732313a20746f6b656e20616c7265616479206d696e74656400000000604482015260640161097c565b612bf0600083836001612cc0565b6000818152609a60205260409020546001600160a01b031615612c555760405162461bcd60e51b815260206004820152601c60248201527f4552433732313a20746f6b656e20616c7265616479206d696e74656400000000604482015260640161097c565b6001600160a01b0382166000818152609b6020908152604080832080546001019055848352609a90915280822080546001600160a01b0319168417905551839291907fddf252ad1be2c89b69c2b068fc378daa952ba7f163c4a11628f55a4df523b3ef908290a45050565b600181111561167c576001600160a01b03841615612d06576001600160a01b0384166000908152609b602052604081208054839290612d009084906132f5565b90915550505b6001600160a01b0383161561167c576001600160a01b0383166000908152609b602052604081208054839290612d3d9084906139f9565b909155505050505050565b60608315612d57575081610bd9565b610bd98383815115612d6c5781518083602001fd5b8060405162461bcd60e51b815260040161097c9190612eaa565b828054612d92906132a4565b90600052602060002090601f016020900481019282612db45760008555612dfa565b82601f10612dcd57805160ff1916838001178555612dfa565b82800160010185558215612dfa579182015b82811115612dfa578251825591602001919060010190612ddf565b50612e06929150612e0a565b5090565b5b80821115612e065760008155600101612e0b565b6001600160e01b031981168114610cbd57600080fd5b600060208284031215612e4757600080fd5b8135610bd981612e1f565b60005b83811015612e6d578181015183820152602001612e55565b8381111561167c5750506000910152565b60008151808452612e96816020860160208601612e52565b601f01601f19169290920160200192915050565b602081526000610bd96020830184612e7e565b600060208284031215612ecf57600080fd5b5035919050565b80356001600160a01b0381168114612eed57600080fd5b919050565b60008060408385031215612f0557600080fd5b612f0e83612ed6565b946020939093013593505050565b60008060408385031215612f2f57600080fd5b82359150612f3f60208401612ed6565b90509250929050565b634e487b7160e01b600052604160045260246000fd5b600082601f830112612f6f57600080fd5b813567ffffffffffffffff80821115612f8a57612f8a612f48565b604051601f8301601f19908116603f01168101908282118183101715612fb257612fb2612f48565b81604052838152866020858801011115612fcb57600080fd5b836020870160208301376000602085830101528094505050505092915050565b600060208284031215612ffd57600080fd5b813567ffffffffffffffff81111561301457600080fd5b61227b84828501612f5e565b60008060006060848603121561303557600080fd5b61303e84612ed6565b925061304c60208501612ed6565b9150604084013590509250925092565b60006020828403121561306e57600080fd5b610bd982612ed6565b6000806040838503121561308a57600080fd5b61309383612ed6565b9150602083013567ffffffffffffffff8111156130af57600080fd5b6130bb85828601612f5e565b9150509250929050565b600080604083850312156130d857600080fd5b82359150602083013567ffffffffffffffff8111156130af57600080fd5b60008060006060848603121561310b57600080fd5b8335925061311b60208501612ed6565b9150604084013567ffffffffffffffff81111561313757600080fd5b61314386828701612f5e565b9150509250925092565b6000806040838503121561316057600080fd5b61316983612ed6565b91506020830135801515811461317e57600080fd5b809150509250929050565b6000806000806080858703121561319f57600080fd5b6131a885612ed6565b93506131b660208601612ed6565b925060408501359150606085013567ffffffffffffffff8111156131d957600080fd5b6131e587828801612f5e565b91505092959194509250565b84815260806020820152600061320a6080830186612e7e565b84604084015282810360608401526132228185612e7e565b979650505050505050565b6000806040838503121561324057600080fd5b61324983612ed6565b9150612f3f60208401612ed6565b6020815281516020820152600060208301516080604084015261327d60a0840182612e7e565b9050604084015160608401526060840151601f19848303016080850152612b1e8282612e7e565b600181811c908216806132b857607f821691505b602082108114156132d957634e487b7160e01b600052602260045260246000fd5b50919050565b634e487b7160e01b600052601160045260246000fd5b600082821015613307576133076132df565b500390565b6020808252602c908201527f46756e6374696f6e206d7573742062652063616c6c6564207468726f7567682060408201526b19195b1959d85d1958d85b1b60a21b606082015260800190565b6020808252602c908201527f46756e6374696f6e206d7573742062652063616c6c6564207468726f7567682060408201526b6163746976652070726f787960a01b606082015260800190565b60006000198214156133b8576133b86132df565b5060010190565b600081516133d1818560208601612e52565b9290920192915050565b600082516133ed818460208701612e52565b9190910192915050565b60006020828403121561340957600080fd5b5051919050565b8481526080602082015260006134296080830186612e7e565b6040830194909452506060015292915050565b60208082526032908201527f4552433732313a207472616e7366657220746f206e6f6e20455243373231526560408201527131b2b4bb32b91034b6b83632b6b2b73a32b960711b606082015260800190565b6020808252602b908201527f496e697469616c697a61626c653a20636f6e7472616374206973206e6f74206960408201526a6e697469616c697a696e6760a81b606082015260800190565b7f3c73766720786d6c6e733d22687474703a2f2f7777772e77332e6f72672f323081527f30302f737667222077696474683d2237323022206865696768743d223732302260208201527f3e3c726563742077696474683d223130302522206865696768743d223130302560408201527f222f3e3c73766720786d6c6e733d22687474703a2f2f7777772e77332e6f726760608201527f2f323030302f737667222077696474683d2231353022206865696768743d223160808201527f3530222076657273696f6e3d22312e32222076696577426f783d222d3230302060a08201527f2d353020313030302031303030223e3c706174682066696c6c3d22234646464660c08201527f46462220643d224d3236342e35203139302e3563302d31332e382031312e322d60e08201527f32352032352d3235483536386331332e3820302032352031312e3220323520326101008201527f357634393063302031332e382d31312e322032352d3235203235483238392e356101208201527f632d31332e3820302d32352d31312e322d32352d32357a222f3e3c70617468206101408201527f66696c6c3d22234646464646462220643d224d3236352036323463302d31332e6101608201527f382031312e322d32352032352d3235683534336331332e3820302032352031316101808201527f2e322032352032357635362e3563302031332e382d31312e322032352d3235206101a08201527f323548323930632d31332e3820302d32352d31312e322d32352d32357a222f3e6101c08201527f3c706174682066696c6c3d22234646464646462220643d224d30203139302e356101e08201527f63302d31332e382031312e322d32352032352d3235683534336331332e3820306102008201527f2032352031312e322032352032355632343763302031332e382d31312e3220326102208201527f352d3235203235483235632d31332e3820302d32352d31312e322d32352d32356102408201527f7a222f3e3c2f7376673e3c7465787420783d2233302220793d223637302220736102608201527f74796c653d22666f6e743a363070782073616e732d73657269663b66696c6c3a6102808201526511b33333111f60d11b6102a08201526000610bd96138246102a68401856133bf565b6c1e17ba32bc3a1f1e17b9bb339f60991b8152600d0190565b7f646174613a696d6167652f7376672b786d6c3b6261736536342c00000000000081526000825161387581601a850160208701612e52565b91909101601a0192915050565b683d913730b6b2911d1160b91b815282516000906138a7816009850160208801612e52565b6b1116101134b6b0b3b2911d1160a11b60099184019182015283516138d3816015840160208801612e52565b7f222c20226465736372697074696f6e223a202254616c656e744c617965722049601592909101918201526244227d60e81b6035820152603801949350505050565b7f646174613a6170706c69636174696f6e2f6a736f6e3b6261736536342c00000081526000825161394d81601d850160208701612e52565b91909101601d0192915050565b60208082526025908201527f4552433732313a207472616e736665722066726f6d20696e636f72726563742060408201526437bbb732b960d91b606082015260800190565b6001600160a01b03858116825284166020820152604081018390526080606082018190526000906139d290830184612e7e565b9695505050505050565b6000602082840312156139ee57600080fd5b8151610bd981612e1f565b60008219821115613a0c57613a0c6132df565b500190565b600082613a2e57634e487b7160e01b600052601260045260246000fd5b500490565b6000816000190483118215151615613a4d57613a4d6132df565b50029056fe360894a13ba1a3210667c828492db98dca3e2076cc3735a920a3ca505d382bbc4142434445464748494a4b4c4d4e4f505152535455565758595a6162636465666768696a6b6c6d6e6f707172737475767778797a303132333435363738392b2f416464726573733a206c6f772d6c6576656c2064656c65676174652063616c6c206661696c6564a264697066735822122023fd7a5987dc371943d5889eaf15f67ee135b2e6ac83e291e7e8dfaa808ddd6564736f6c63430008090033",
  "linkReferences": {},
  "deployedLinkReferences": {}
}