{
  "_format": "hh-sol-artifact-1",
  "contractName": "TalentLayerPlatformID",
  "sourceName": "contracts/TalentLayerPlatformID.sol",
  "abi": [
    {
      "inputs": [],
      "stateMutability": "nonpayable",
      "type": "constructor"
    },
    {
      "anonymous": false,
      "inputs": [
        {
          "indexed": false,
          "internalType": "address",
          "name": "previousAdmin",
          "type": "address"
        },
        {
          "indexed": false,
          "internalType": "address",
          "name": "newAdmin",
          "type": "address"
        }
      ],
      "name": "AdminChanged",
      "type": "event"
    },
    {
      "anonymous": false,
      "inputs": [
        {
          "indexed": true,
          "internalType": "address",
          "name": "owner",
          "type": "address"
        },
        {
          "indexed": true,
          "internalType": "address",
          "name": "approved",
          "type": "address"
        },
        {
          "indexed": true,
          "internalType": "uint256",
          "name": "tokenId",
          "type": "uint256"
        }
      ],
      "name": "Approval",
      "type": "event"
    },
    {
      "anonymous": false,
      "inputs": [
        {
          "indexed": true,
          "internalType": "address",
          "name": "owner",
          "type": "address"
        },
        {
          "indexed": true,
          "internalType": "address",
          "name": "operator",
          "type": "address"
        },
        {
          "indexed": false,
          "internalType": "bool",
          "name": "approved",
          "type": "bool"
        }
      ],
      "name": "ApprovalForAll",
      "type": "event"
    },
    {
      "anonymous": false,
      "inputs": [
        {
          "indexed": false,
          "internalType": "uint256",
          "name": "_platformId",
          "type": "uint256"
        },
        {
          "indexed": false,
          "internalType": "uint256",
          "name": "_arbitrationFeeTimeout",
          "type": "uint256"
        }
      ],
      "name": "ArbitrationFeeTimeoutUpdated",
      "type": "event"
    },
    {
      "anonymous": false,
      "inputs": [
        {
          "indexed": false,
          "internalType": "uint256",
          "name": "_platformId",
          "type": "uint256"
        },
        {
          "indexed": false,
          "internalType": "contract Arbitrator",
          "name": "_arbitrator",
          "type": "address"
        },
        {
          "indexed": false,
          "internalType": "bytes",
          "name": "_extraData",
          "type": "bytes"
        }
      ],
      "name": "ArbitratorUpdated",
      "type": "event"
    },
    {
      "anonymous": false,
      "inputs": [
        {
          "indexed": true,
          "internalType": "address",
          "name": "beacon",
          "type": "address"
        }
      ],
      "name": "BeaconUpgraded",
      "type": "event"
    },
    {
      "anonymous": false,
      "inputs": [
        {
          "indexed": true,
          "internalType": "uint256",
          "name": "_tokenId",
          "type": "uint256"
        },
        {
          "indexed": false,
          "internalType": "string",
          "name": "_newCid",
          "type": "string"
        }
      ],
      "name": "CidUpdated",
      "type": "event"
    },
    {
      "anonymous": false,
      "inputs": [
        {
          "indexed": false,
          "internalType": "uint8",
          "name": "version",
          "type": "uint8"
        }
      ],
      "name": "Initialized",
      "type": "event"
    },
    {
      "anonymous": false,
      "inputs": [
        {
          "indexed": false,
          "internalType": "uint256",
          "name": "_minArbitrationFeeTimeout",
          "type": "uint256"
        }
      ],
      "name": "MinArbitrationFeeTimeoutUpdated",
      "type": "event"
    },
    {
      "anonymous": false,
      "inputs": [
        {
          "indexed": true,
          "internalType": "address",
          "name": "_platformOwnerAddress",
          "type": "address"
        },
        {
          "indexed": false,
          "internalType": "uint256",
          "name": "_tokenId",
          "type": "uint256"
        },
        {
          "indexed": false,
          "internalType": "string",
          "name": "_platformName",
          "type": "string"
        },
        {
          "indexed": false,
          "internalType": "uint256",
          "name": "_fee",
          "type": "uint256"
        },
        {
          "indexed": false,
          "internalType": "uint256",
          "name": "_arbitrationFeeTimeout",
          "type": "uint256"
        }
      ],
      "name": "Mint",
      "type": "event"
    },
    {
      "anonymous": false,
      "inputs": [
        {
          "indexed": false,
          "internalType": "uint256",
          "name": "_mintFee",
          "type": "uint256"
        }
      ],
      "name": "MintFeeUpdated",
      "type": "event"
    },
    {
      "anonymous": false,
      "inputs": [
        {
          "indexed": false,
          "internalType": "uint256",
          "name": "_platformId",
          "type": "uint256"
        },
        {
          "indexed": false,
          "internalType": "uint16",
          "name": "_originServiceFeeRate",
          "type": "uint16"
        }
      ],
      "name": "OriginServiceFeeRateUpdated",
      "type": "event"
    },
    {
      "anonymous": false,
      "inputs": [
        {
          "indexed": false,
          "internalType": "uint256",
          "name": "_platformId",
          "type": "uint256"
        },
        {
          "indexed": false,
          "internalType": "uint16",
          "name": "_originValidatedProposalFeeRate",
          "type": "uint16"
        }
      ],
      "name": "OriginValidatedProposalFeeRateUpdated",
      "type": "event"
    },
    {
      "anonymous": false,
      "inputs": [
        {
          "indexed": false,
          "internalType": "uint256",
          "name": "_platformId",
          "type": "uint256"
        },
        {
          "indexed": false,
          "internalType": "uint256",
          "name": "_proposalPostingFee",
          "type": "uint256"
        }
      ],
      "name": "ProposalPostingFeeUpdated",
      "type": "event"
    },
    {
      "anonymous": false,
      "inputs": [
        {
          "indexed": true,
          "internalType": "bytes32",
          "name": "role",
          "type": "bytes32"
        },
        {
          "indexed": true,
          "internalType": "bytes32",
          "name": "previousAdminRole",
          "type": "bytes32"
        },
        {
          "indexed": true,
          "internalType": "bytes32",
          "name": "newAdminRole",
          "type": "bytes32"
        }
      ],
      "name": "RoleAdminChanged",
      "type": "event"
    },
    {
      "anonymous": false,
      "inputs": [
        {
          "indexed": true,
          "internalType": "bytes32",
          "name": "role",
          "type": "bytes32"
        },
        {
          "indexed": true,
          "internalType": "address",
          "name": "account",
          "type": "address"
        },
        {
          "indexed": true,
          "internalType": "address",
          "name": "sender",
          "type": "address"
        }
      ],
      "name": "RoleGranted",
      "type": "event"
    },
    {
      "anonymous": false,
      "inputs": [
        {
          "indexed": true,
          "internalType": "bytes32",
          "name": "role",
          "type": "bytes32"
        },
        {
          "indexed": true,
          "internalType": "address",
          "name": "account",
          "type": "address"
        },
        {
          "indexed": true,
          "internalType": "address",
          "name": "sender",
          "type": "address"
        }
      ],
      "name": "RoleRevoked",
      "type": "event"
    },
    {
      "anonymous": false,
      "inputs": [
        {
          "indexed": false,
          "internalType": "uint256",
          "name": "_platformId",
          "type": "uint256"
        },
        {
          "indexed": false,
          "internalType": "uint256",
          "name": "_servicePostingFee",
          "type": "uint256"
        }
      ],
      "name": "ServicePostingFeeUpdated",
      "type": "event"
    },
    {
      "anonymous": false,
      "inputs": [
        {
          "indexed": true,
          "internalType": "address",
          "name": "from",
          "type": "address"
        },
        {
          "indexed": true,
          "internalType": "address",
          "name": "to",
          "type": "address"
        },
        {
          "indexed": true,
          "internalType": "uint256",
          "name": "tokenId",
          "type": "uint256"
        }
      ],
      "name": "Transfer",
      "type": "event"
    },
    {
      "anonymous": false,
      "inputs": [
        {
          "indexed": true,
          "internalType": "address",
          "name": "implementation",
          "type": "address"
        }
      ],
      "name": "Upgraded",
      "type": "event"
    },
    {
      "inputs": [],
      "name": "DEFAULT_ADMIN_ROLE",
      "outputs": [
        {
          "internalType": "bytes32",
          "name": "",
          "type": "bytes32"
        }
      ],
      "stateMutability": "view",
      "type": "function"
    },
    {
      "inputs": [],
      "name": "MINT_ROLE",
      "outputs": [
        {
          "internalType": "bytes32",
          "name": "",
          "type": "bytes32"
        }
      ],
      "stateMutability": "view",
      "type": "function"
    },
    {
      "inputs": [],
      "name": "OWNER_ROLE",
      "outputs": [
        {
          "internalType": "bytes32",
          "name": "",
          "type": "bytes32"
        }
      ],
      "stateMutability": "view",
      "type": "function"
    },
    {
      "inputs": [
        {
          "internalType": "address",
          "name": "_arbitrator",
          "type": "address"
        },
        {
          "internalType": "bool",
          "name": "_isInternal",
          "type": "bool"
        }
      ],
      "name": "addArbitrator",
      "outputs": [],
      "stateMutability": "nonpayable",
      "type": "function"
    },
    {
      "inputs": [
        {
          "internalType": "address",
          "name": "to",
          "type": "address"
        },
        {
          "internalType": "uint256",
          "name": "tokenId",
          "type": "uint256"
        }
      ],
      "name": "approve",
      "outputs": [],
      "stateMutability": "nonpayable",
      "type": "function"
    },
    {
      "inputs": [
        {
          "internalType": "address",
          "name": "owner",
          "type": "address"
        }
      ],
      "name": "balanceOf",
      "outputs": [
        {
          "internalType": "uint256",
          "name": "",
          "type": "uint256"
        }
      ],
      "stateMutability": "view",
      "type": "function"
    },
    {
      "inputs": [
        {
          "internalType": "uint256",
          "name": "tokenId",
          "type": "uint256"
        }
      ],
      "name": "getApproved",
      "outputs": [
        {
          "internalType": "address",
          "name": "",
          "type": "address"
        }
      ],
      "stateMutability": "view",
      "type": "function"
    },
    {
      "inputs": [
        {
          "internalType": "uint256",
          "name": "_platformId",
          "type": "uint256"
        }
      ],
      "name": "getOriginServiceFeeRate",
      "outputs": [
        {
          "internalType": "uint16",
          "name": "",
          "type": "uint16"
        }
      ],
      "stateMutability": "view",
      "type": "function"
    },
    {
      "inputs": [
        {
          "internalType": "uint256",
          "name": "_platformId",
          "type": "uint256"
        }
      ],
      "name": "getOriginValidatedProposalFeeRate",
      "outputs": [
        {
          "internalType": "uint16",
          "name": "",
          "type": "uint16"
        }
      ],
      "stateMutability": "view",
      "type": "function"
    },
    {
      "inputs": [
        {
          "internalType": "uint256",
          "name": "_platformId",
          "type": "uint256"
        }
      ],
      "name": "getPlatform",
      "outputs": [
        {
          "components": [
            {
              "internalType": "uint256",
              "name": "id",
              "type": "uint256"
            },
            {
              "internalType": "string",
              "name": "name",
              "type": "string"
            },
            {
              "internalType": "string",
              "name": "dataUri",
              "type": "string"
            },
            {
              "internalType": "uint16",
              "name": "originServiceFeeRate",
              "type": "uint16"
            },
            {
              "internalType": "uint16",
              "name": "originValidatedProposalFeeRate",
              "type": "uint16"
            },
            {
              "internalType": "uint256",
              "name": "servicePostingFee",
              "type": "uint256"
            },
            {
              "internalType": "uint256",
              "name": "proposalPostingFee",
              "type": "uint256"
            },
            {
              "internalType": "contract Arbitrator",
              "name": "arbitrator",
              "type": "address"
            },
            {
              "internalType": "bytes",
              "name": "arbitratorExtraData",
              "type": "bytes"
            },
            {
              "internalType": "uint256",
              "name": "arbitrationFeeTimeout",
              "type": "uint256"
            }
          ],
          "internalType": "struct TalentLayerPlatformID.Platform",
          "name": "",
          "type": "tuple"
        }
      ],
      "stateMutability": "view",
      "type": "function"
    },
    {
      "inputs": [
        {
          "internalType": "address",
          "name": "_owner",
          "type": "address"
        }
      ],
      "name": "getPlatformIdFromAddress",
      "outputs": [
        {
          "internalType": "uint256",
          "name": "",
          "type": "uint256"
        }
      ],
      "stateMutability": "view",
      "type": "function"
    },
    {
      "inputs": [
        {
          "internalType": "uint256",
          "name": "_platformId",
          "type": "uint256"
        }
      ],
      "name": "getProposalPostingFee",
      "outputs": [
        {
          "internalType": "uint256",
          "name": "",
          "type": "uint256"
        }
      ],
      "stateMutability": "view",
      "type": "function"
    },
    {
      "inputs": [
        {
          "internalType": "bytes32",
          "name": "role",
          "type": "bytes32"
        }
      ],
      "name": "getRoleAdmin",
      "outputs": [
        {
          "internalType": "bytes32",
          "name": "",
          "type": "bytes32"
        }
      ],
      "stateMutability": "view",
      "type": "function"
    },
    {
      "inputs": [
        {
          "internalType": "uint256",
          "name": "_platformId",
          "type": "uint256"
        }
      ],
      "name": "getServicePostingFee",
      "outputs": [
        {
          "internalType": "uint256",
          "name": "",
          "type": "uint256"
        }
      ],
      "stateMutability": "view",
      "type": "function"
    },
    {
      "inputs": [
        {
          "internalType": "bytes32",
          "name": "role",
          "type": "bytes32"
        },
        {
          "internalType": "address",
          "name": "account",
          "type": "address"
        }
      ],
      "name": "grantRole",
      "outputs": [],
      "stateMutability": "nonpayable",
      "type": "function"
    },
    {
      "inputs": [
        {
          "internalType": "bytes32",
          "name": "role",
          "type": "bytes32"
        },
        {
          "internalType": "address",
          "name": "account",
          "type": "address"
        }
      ],
      "name": "hasRole",
      "outputs": [
        {
          "internalType": "bool",
          "name": "",
          "type": "bool"
        }
      ],
      "stateMutability": "view",
      "type": "function"
    },
    {
      "inputs": [],
      "name": "initialize",
      "outputs": [],
      "stateMutability": "nonpayable",
      "type": "function"
    },
    {
      "inputs": [
        {
          "internalType": "address",
          "name": "",
          "type": "address"
        }
      ],
      "name": "internalArbitrators",
      "outputs": [
        {
          "internalType": "bool",
          "name": "",
          "type": "bool"
        }
      ],
      "stateMutability": "view",
      "type": "function"
    },
    {
      "inputs": [
        {
          "internalType": "address",
          "name": "owner",
          "type": "address"
        },
        {
          "internalType": "address",
          "name": "operator",
          "type": "address"
        }
      ],
      "name": "isApprovedForAll",
      "outputs": [
        {
          "internalType": "bool",
          "name": "",
          "type": "bool"
        }
      ],
      "stateMutability": "view",
      "type": "function"
    },
    {
      "inputs": [
        {
          "internalType": "uint256",
          "name": "_platformId",
          "type": "uint256"
        }
      ],
      "name": "isValid",
      "outputs": [],
      "stateMutability": "view",
      "type": "function"
    },
    {
      "inputs": [],
      "name": "minArbitrationFeeTimeout",
      "outputs": [
        {
          "internalType": "uint256",
          "name": "",
          "type": "uint256"
        }
      ],
      "stateMutability": "view",
      "type": "function"
    },
    {
      "inputs": [
        {
          "internalType": "string",
          "name": "_platformName",
          "type": "string"
        }
      ],
      "name": "mint",
      "outputs": [],
      "stateMutability": "payable",
      "type": "function"
    },
    {
      "inputs": [],
      "name": "mintFee",
      "outputs": [
        {
          "internalType": "uint256",
          "name": "",
          "type": "uint256"
        }
      ],
      "stateMutability": "view",
      "type": "function"
    },
    {
      "inputs": [
        {
          "internalType": "string",
          "name": "_platformName",
          "type": "string"
        },
        {
          "internalType": "address",
          "name": "_platformAddress",
          "type": "address"
        }
      ],
      "name": "mintForAddress",
      "outputs": [],
      "stateMutability": "payable",
      "type": "function"
    },
    {
      "inputs": [],
      "name": "name",
      "outputs": [
        {
          "internalType": "string",
          "name": "",
          "type": "string"
        }
      ],
      "stateMutability": "view",
      "type": "function"
    },
    {
      "inputs": [
        {
          "internalType": "address",
          "name": "_platformAddress",
          "type": "address"
        }
      ],
      "name": "numberMinted",
      "outputs": [
        {
          "internalType": "uint256",
          "name": "",
          "type": "uint256"
        }
      ],
      "stateMutability": "view",
      "type": "function"
    },
    {
      "inputs": [
        {
          "internalType": "uint256",
          "name": "tokenId",
          "type": "uint256"
        }
      ],
      "name": "ownerOf",
      "outputs": [
        {
          "internalType": "address",
          "name": "",
          "type": "address"
        }
      ],
      "stateMutability": "view",
      "type": "function"
    },
    {
      "inputs": [
        {
          "internalType": "uint256",
          "name": "",
          "type": "uint256"
        }
      ],
      "name": "platforms",
      "outputs": [
        {
          "internalType": "uint256",
          "name": "id",
          "type": "uint256"
        },
        {
          "internalType": "string",
          "name": "name",
          "type": "string"
        },
        {
          "internalType": "string",
          "name": "dataUri",
          "type": "string"
        },
        {
          "internalType": "uint16",
          "name": "originServiceFeeRate",
          "type": "uint16"
        },
        {
          "internalType": "uint16",
          "name": "originValidatedProposalFeeRate",
          "type": "uint16"
        },
        {
          "internalType": "uint256",
          "name": "servicePostingFee",
          "type": "uint256"
        },
        {
          "internalType": "uint256",
          "name": "proposalPostingFee",
          "type": "uint256"
        },
        {
          "internalType": "contract Arbitrator",
          "name": "arbitrator",
          "type": "address"
        },
        {
          "internalType": "bytes",
          "name": "arbitratorExtraData",
          "type": "bytes"
        },
        {
          "internalType": "uint256",
          "name": "arbitrationFeeTimeout",
          "type": "uint256"
        }
      ],
      "stateMutability": "view",
      "type": "function"
    },
    {
      "inputs": [],
      "name": "proxiableUUID",
      "outputs": [
        {
          "internalType": "bytes32",
          "name": "",
          "type": "bytes32"
        }
      ],
      "stateMutability": "view",
      "type": "function"
    },
    {
      "inputs": [
        {
          "internalType": "address",
          "name": "_arbitrator",
          "type": "address"
        }
      ],
      "name": "removeArbitrator",
      "outputs": [],
      "stateMutability": "nonpayable",
      "type": "function"
    },
    {
      "inputs": [
        {
          "internalType": "bytes32",
          "name": "role",
          "type": "bytes32"
        },
        {
          "internalType": "address",
          "name": "account",
          "type": "address"
        }
      ],
      "name": "renounceRole",
      "outputs": [],
      "stateMutability": "nonpayable",
      "type": "function"
    },
    {
      "inputs": [
        {
          "internalType": "bytes32",
          "name": "role",
          "type": "bytes32"
        },
        {
          "internalType": "address",
          "name": "account",
          "type": "address"
        }
      ],
      "name": "revokeRole",
      "outputs": [],
      "stateMutability": "nonpayable",
      "type": "function"
    },
    {
      "inputs": [
        {
          "internalType": "address",
          "name": "from",
          "type": "address"
        },
        {
          "internalType": "address",
          "name": "to",
          "type": "address"
        },
        {
          "internalType": "uint256",
          "name": "tokenId",
          "type": "uint256"
        }
      ],
      "name": "safeTransferFrom",
      "outputs": [],
      "stateMutability": "nonpayable",
      "type": "function"
    },
    {
      "inputs": [
        {
          "internalType": "address",
          "name": "from",
          "type": "address"
        },
        {
          "internalType": "address",
          "name": "to",
          "type": "address"
        },
        {
          "internalType": "uint256",
          "name": "tokenId",
          "type": "uint256"
        },
        {
          "internalType": "bytes",
          "name": "data",
          "type": "bytes"
        }
      ],
      "name": "safeTransferFrom",
      "outputs": [],
      "stateMutability": "nonpayable",
      "type": "function"
    },
    {
      "inputs": [
        {
          "internalType": "address",
          "name": "operator",
          "type": "address"
        },
        {
          "internalType": "bool",
          "name": "approved",
          "type": "bool"
        }
      ],
      "name": "setApprovalForAll",
      "outputs": [],
      "stateMutability": "nonpayable",
      "type": "function"
    },
    {
      "inputs": [
        {
          "internalType": "bytes4",
          "name": "interfaceId",
          "type": "bytes4"
        }
      ],
      "name": "supportsInterface",
      "outputs": [
        {
          "internalType": "bool",
          "name": "",
          "type": "bool"
        }
      ],
      "stateMutability": "view",
      "type": "function"
    },
    {
      "inputs": [],
      "name": "symbol",
      "outputs": [
        {
          "internalType": "string",
          "name": "",
          "type": "string"
        }
      ],
      "stateMutability": "view",
      "type": "function"
    },
    {
      "inputs": [
        {
          "internalType": "string",
          "name": "",
          "type": "string"
        }
      ],
      "name": "takenNames",
      "outputs": [
        {
          "internalType": "bool",
          "name": "",
          "type": "bool"
        }
      ],
      "stateMutability": "view",
      "type": "function"
    },
    {
      "inputs": [
        {
          "internalType": "uint256",
          "name": "tokenId",
          "type": "uint256"
        }
      ],
      "name": "tokenURI",
      "outputs": [
        {
          "internalType": "string",
          "name": "",
          "type": "string"
        }
      ],
      "stateMutability": "view",
      "type": "function"
    },
    {
      "inputs": [],
      "name": "totalSupply",
      "outputs": [
        {
          "internalType": "uint256",
          "name": "",
          "type": "uint256"
        }
      ],
      "stateMutability": "view",
      "type": "function"
    },
    {
      "inputs": [
        {
          "internalType": "address",
          "name": "from",
          "type": "address"
        },
        {
          "internalType": "address",
          "name": "to",
          "type": "address"
        },
        {
          "internalType": "uint256",
          "name": "tokenId",
          "type": "uint256"
        }
      ],
      "name": "transferFrom",
      "outputs": [],
      "stateMutability": "nonpayable",
      "type": "function"
    },
    {
      "inputs": [
        {
          "internalType": "uint256",
          "name": "_platformId",
          "type": "uint256"
        },
        {
          "internalType": "uint256",
          "name": "_arbitrationFeeTimeout",
          "type": "uint256"
        }
      ],
      "name": "updateArbitrationFeeTimeout",
      "outputs": [],
      "stateMutability": "nonpayable",
      "type": "function"
    },
    {
      "inputs": [
        {
          "internalType": "uint256",
          "name": "_platformId",
          "type": "uint256"
        },
        {
          "internalType": "contract Arbitrator",
          "name": "_arbitrator",
          "type": "address"
        },
        {
          "internalType": "bytes",
          "name": "_extraData",
          "type": "bytes"
        }
      ],
      "name": "updateArbitrator",
      "outputs": [],
      "stateMutability": "nonpayable",
      "type": "function"
    },
    {
      "inputs": [
        {
          "internalType": "uint256",
          "name": "_minArbitrationFeeTimeout",
          "type": "uint256"
        }
      ],
      "name": "updateMinArbitrationFeeTimeout",
      "outputs": [],
      "stateMutability": "nonpayable",
      "type": "function"
    },
    {
      "inputs": [
        {
          "internalType": "uint256",
          "name": "_mintFee",
          "type": "uint256"
        }
      ],
      "name": "updateMintFee",
      "outputs": [],
      "stateMutability": "nonpayable",
      "type": "function"
    },
    {
      "inputs": [
        {
          "internalType": "uint256",
          "name": "_platformId",
          "type": "uint256"
        },
        {
          "internalType": "uint16",
          "name": "_originServiceFeeRate",
          "type": "uint16"
        }
      ],
      "name": "updateOriginServiceFeeRate",
      "outputs": [],
      "stateMutability": "nonpayable",
      "type": "function"
    },
    {
      "inputs": [
        {
          "internalType": "uint256",
          "name": "_platformId",
          "type": "uint256"
        },
        {
          "internalType": "uint16",
          "name": "_originValidatedProposalFeeRate",
          "type": "uint16"
        }
      ],
      "name": "updateOriginValidatedProposalFeeRate",
      "outputs": [],
      "stateMutability": "nonpayable",
      "type": "function"
    },
    {
      "inputs": [
        {
          "internalType": "uint256",
          "name": "_platformId",
          "type": "uint256"
        },
        {
          "internalType": "string",
          "name": "_newCid",
          "type": "string"
        }
      ],
      "name": "updateProfileData",
      "outputs": [],
      "stateMutability": "nonpayable",
      "type": "function"
    },
    {
      "inputs": [
        {
          "internalType": "uint256",
          "name": "_platformId",
          "type": "uint256"
        },
        {
          "internalType": "uint256",
          "name": "_proposalPostingFee",
          "type": "uint256"
        }
      ],
      "name": "updateProposalPostingFee",
      "outputs": [],
      "stateMutability": "nonpayable",
      "type": "function"
    },
    {
      "inputs": [
        {
          "internalType": "uint256",
          "name": "_platformId",
          "type": "uint256"
        },
        {
          "internalType": "uint256",
          "name": "_servicePostingFee",
          "type": "uint256"
        }
      ],
      "name": "updateServicePostingFee",
      "outputs": [],
      "stateMutability": "nonpayable",
      "type": "function"
    },
    {
      "inputs": [
        {
          "internalType": "address",
          "name": "newImplementation",
          "type": "address"
        }
      ],
      "name": "upgradeTo",
      "outputs": [],
      "stateMutability": "nonpayable",
      "type": "function"
    },
    {
      "inputs": [
        {
          "internalType": "address",
          "name": "newImplementation",
          "type": "address"
        },
        {
          "internalType": "bytes",
          "name": "data",
          "type": "bytes"
        }
      ],
      "name": "upgradeToAndCall",
      "outputs": [],
      "stateMutability": "payable",
      "type": "function"
    },
    {
      "inputs": [
        {
          "internalType": "address",
          "name": "",
          "type": "address"
        }
      ],
      "name": "validArbitrators",
      "outputs": [
        {
          "internalType": "bool",
          "name": "",
          "type": "bool"
        }
      ],
      "stateMutability": "view",
      "type": "function"
    },
    {
      "inputs": [],
      "name": "withdraw",
      "outputs": [],
      "stateMutability": "nonpayable",
      "type": "function"
    }
  ],
  "bytecode": "0x60a0604052306080523480156200001557600080fd5b506200002062000026565b620000e8565b600054610100900460ff1615620000935760405162461bcd60e51b815260206004820152602760248201527f496e697469616c697a61626c653a20636f6e747261637420697320696e697469604482015266616c697a696e6760c81b606482015260840160405180910390fd5b60005460ff9081161015620000e6576000805460ff191660ff9081179091556040519081527f7f26b83ff96e1f2b6a682f133852f6798a09c465da95921460cefb38474024989060200160405180910390a15b565b6080516148566200012060003960008181610de901528181610e29015281816111b6015281816111f6015261128501526148566000f3fe6080604052600436106103355760003560e01c80638e6e5397116101ab578063c6bf01ce116100f7578063e58378bb11610095578063f160068f1161006f578063f160068f146109d4578063f577a500146109f4578063f6f3784414610a14578063faa992d314610a2b57600080fd5b8063e58378bb14610935578063e985e9c514610969578063e9a9c850146109b257600080fd5b8063d547741f116100d1578063d547741f146108c2578063d85d3d27146108e2578063dc33e681146108f5578063dce226381461091557600080fd5b8063c6bf01ce14610862578063c87b56dd14610882578063cb8faafa146108a257600080fd5b8063a22cb46511610164578063aa44caaf1161013e578063aa44caaf146107de578063acd63f1b146107fe578063b88d4fde1461082f578063c37e154e1461084f57600080fd5b8063a22cb46514610762578063a383c69214610782578063a4f524a9146107be57600080fd5b80638e6e5397146106b857806391d14854146106d857806395d89b41146106f8578063973ad2701461070d57806399ded4441461072d578063a217fddf1461074d57600080fd5b80633ccfd60b1161028557806352d1902d1161022357806370a08231116101fd57806370a08231146106435780638129fc1c1461066357806384017e52146106785780638a9863631461069857600080fd5b806352d1902d146105e15780635bd22c98146105f65780636352211e1461062357600080fd5b806342842e0e1161025f57806342842e0e1461047857806348203b301461057d5780634a7ab1d5146105ae5780634f1ef286146105ce57600080fd5b80633ccfd60b146105285780633d4593891461053d5780633e6acfe01461055d57600080fd5b806313966db5116102f2578063248a9ca3116102cc578063248a9ca3146104985780632f2ff15d146104c857806336568abe146104e85780633659cfe61461050857600080fd5b806313966db51461043e57806318160ddd1461046357806323b872dd1461047857600080fd5b806301c32c851461033a57806301ffc9a71461035c57806306fdde0314610391578063081812fc146103b3578063095ea7b3146103eb57806311f821921461040b575b600080fd5b34801561034657600080fd5b5061035a61035536600461376e565b610a61565b005b34801561036857600080fd5b5061037c61037736600461379d565b610aaa565b60405190151581526020015b60405180910390f35b34801561039d57600080fd5b506103a6610aca565b6040516103889190613812565b3480156103bf57600080fd5b506103d36103ce36600461376e565b610b5c565b6040516001600160a01b039091168152602001610388565b3480156103f757600080fd5b5061035a61040636600461383a565b610b83565b34801561041757600080fd5b5061042b61042636600461376e565b610c9e565b60405161ffff9091168152602001610388565b34801561044a57600080fd5b506104556101315481565b604051908152602001610388565b34801561046f57600080fd5b50610455610ce8565b34801561048457600080fd5b5061035a610493366004613866565b610d05565b3480156104a457600080fd5b506104556104b336600461376e565b60009081526097602052604090206001015490565b3480156104d457600080fd5b5061035a6104e33660046138a7565b610d3b565b3480156104f457600080fd5b5061035a6105033660046138a7565b610d60565b34801561051457600080fd5b5061035a6105233660046138d7565b610dde565b34801561053457600080fd5b5061035a610ebe565b34801561054957600080fd5b5061042b61055836600461376e565b610f61565b34801561056957600080fd5b5061035a610578366004613997565b610fb1565b34801561058957600080fd5b5061037c6105983660046138d7565b61012f6020526000908152604090205460ff1681565b3480156105ba57600080fd5b506104556105c936600461376e565b611165565b61035a6105dc3660046139f0565b6111ab565b3480156105ed57600080fd5b50610455611278565b34801561060257600080fd5b5061061661061136600461376e565b61132b565b6040516103889190613a40565b34801561062f57600080fd5b506103d361063e36600461376e565b6115f9565b34801561064f57600080fd5b5061045561065e3660046138d7565b611659565b34801561066f57600080fd5b5061035a6116df565b34801561068457600080fd5b5061035a61069336600461376e565b6118ee565b3480156106a457600080fd5b506104556106b336600461376e565b61192f565b3480156106c457600080fd5b5061035a6106d3366004613b14565b611975565b3480156106e457600080fd5b5061037c6106f33660046138a7565b6119fe565b34801561070457600080fd5b506103a6611a29565b34801561071957600080fd5b5061035a6107283660046138d7565b611a38565b34801561073957600080fd5b5061035a610748366004613b14565b611a7c565b34801561075957600080fd5b50610455600081565b34801561076e57600080fd5b5061035a61077d366004613b40565b611b0f565b34801561078e57600080fd5b5061037c61079d366004613b73565b805160208183018101805161012d8252928201919093012091525460ff1681565b3480156107ca57600080fd5b5061035a6107d9366004613ba8565b611b1a565b3480156107ea57600080fd5b506104556107f93660046138d7565b611c06565b34801561080a57600080fd5b5061037c6108193660046138d7565b6101306020526000908152604090205460ff1681565b34801561083b57600080fd5b5061035a61084a366004613bca565b611c59565b61035a61085d366004613c36565b611cd7565b34801561086e57600080fd5b5061035a61087d366004613ba8565b611e48565b34801561088e57600080fd5b506103a661089d36600461376e565b611ec4565b3480156108ae57600080fd5b5061035a6108bd366004613b40565b611ecf565b3480156108ce57600080fd5b5061035a6108dd3660046138a7565b611f20565b61035a6108f0366004613b73565b611f45565b34801561090157600080fd5b506104556109103660046138d7565b6120aa565b34801561092157600080fd5b5061035a610930366004613ba8565b6120b5565b34801561094157600080fd5b506104557fb19546dff01e856fb3f010c267a7b1c60363cf8a4664e21cc89c26224620214e81565b34801561097557600080fd5b5061037c610984366004613c7d565b6001600160a01b039182166000908152606a6020908152604080832093909416825291909152205460ff1690565b3480156109be57600080fd5b506104556000805160206147da83398151915281565b3480156109e057600080fd5b5061035a6109ef366004613cab565b612131565b348015610a0057600080fd5b5061035a610a0f36600461376e565b612215565b348015610a2057600080fd5b506104556101325481565b348015610a3757600080fd5b50610a4b610a4636600461376e565b612243565b6040516103889a99989796959493929190613cdc565b6000610a6c81612440565b6101328290556040518281527fa39eb462f98ec2e2a17ca5c7f2a0a247d212213bf0c78a6e2a3df704911ef601906020015b60405180910390a15050565b6000610ab58261244a565b80610ac45750610ac48261249a565b92915050565b606060658054610ad990613d67565b80601f0160208091040260200160405190810160405280929190818152602001828054610b0590613d67565b8015610b525780601f10610b2757610100808354040283529160200191610b52565b820191906000526020600020905b815481529060010190602001808311610b3557829003601f168201915b5050505050905090565b6000610b67826124bf565b506000908152606960205260409020546001600160a01b031690565b6000610b8e826115f9565b9050806001600160a01b0316836001600160a01b03161415610c015760405162461bcd60e51b815260206004820152602160248201527f4552433732313a20617070726f76616c20746f2063757272656e74206f776e656044820152603960f91b60648201526084015b60405180910390fd5b336001600160a01b0382161480610c1d5750610c1d8133610984565b610c8f5760405162461bcd60e51b815260206004820152603d60248201527f4552433732313a20617070726f76652063616c6c6572206973206e6f7420746f60448201527f6b656e206f776e6572206f7220617070726f76656420666f7220616c6c0000006064820152608401610bf8565b610c99838361251e565b505050565b60008082118015610cb157506101335482105b610ccd5760405162461bcd60e51b8152600401610bf890613da2565b50600090815261012e602052604090206003015461ffff1690565b60006001610cf66101335490565b610d009190613de5565b905090565b60405162461bcd60e51b815260206004820152600b60248201526a139bdd08185b1b1bddd95960aa1b6044820152606401610bf8565b600082815260976020526040902060010154610d5681612440565b610c99838361258c565b6001600160a01b0381163314610dd05760405162461bcd60e51b815260206004820152602f60248201527f416363657373436f6e74726f6c3a2063616e206f6e6c792072656e6f756e636560448201526e103937b632b9903337b91039b2b63360891b6064820152608401610bf8565b610dda8282612612565b5050565b306001600160a01b037f0000000000000000000000000000000000000000000000000000000000000000161415610e275760405162461bcd60e51b8152600401610bf890613dfc565b7f00000000000000000000000000000000000000000000000000000000000000006001600160a01b0316610e7060008051602061477a833981519152546001600160a01b031690565b6001600160a01b031614610e965760405162461bcd60e51b8152600401610bf890613e48565b610e9f81612679565b60408051600080825260208201909252610ebb918391906126a3565b50565b6000610ec981612440565b604051600090339047908381818185875af1925050503d8060008114610f0b576040519150601f19603f3d011682016040523d82523d6000602084013e610f10565b606091505b5050905080610dda5760405162461bcd60e51b815260206004820152601860248201527f4661696c656420746f20776974686472617720457468657200000000000000006044820152606401610bf8565b60008082118015610f7457506101335482105b610f905760405162461bcd60e51b8152600401610bf890613da2565b50600090815261012e602052604090206003015462010000900461ffff1690565b33610fbb846115f9565b6001600160a01b031614610fe15760405162461bcd60e51b8152600401610bf890613e94565b6001600160a01b038216600090815261012f602052604090205460ff1661105c5760405162461bcd60e51b815260206004820152602960248201527f5468652061646472657373206d757374206265206f6620612076616c69642061604482015268393134ba3930ba37b960b91b6064820152608401610bf8565b600083815261012e6020908152604080832060060180546001600160a01b0319166001600160a01b038716908117909155835261013090915290205460ff16156110e75760408051602081018590520160408051601f19818403018152918152600085815261012e602090815291902082516110e193600790920192909101906136d5565b5061110f565b600083815261012e60209081526040909120825161110d926007909201918401906136d5565b505b7f4f1d179d53629f07a3ca3cde19840349df6dadc8fc11ac201c272ec77b8673d2838361012e600087815260200190815260200160002060070160405161115893929190613ed9565b60405180910390a1505050565b6000808211801561117857506101335482105b6111945760405162461bcd60e51b8152600401610bf890613da2565b50600090815261012e602052604090206005015490565b306001600160a01b037f00000000000000000000000000000000000000000000000000000000000000001614156111f45760405162461bcd60e51b8152600401610bf890613dfc565b7f00000000000000000000000000000000000000000000000000000000000000006001600160a01b031661123d60008051602061477a833981519152546001600160a01b031690565b6001600160a01b0316146112635760405162461bcd60e51b8152600401610bf890613e48565b61126c82612679565b610dda828260016126a3565b6000306001600160a01b037f000000000000000000000000000000000000000000000000000000000000000016146113185760405162461bcd60e51b815260206004820152603860248201527f555550535570677261646561626c653a206d757374206e6f742062652063616c60448201527f6c6564207468726f7567682064656c656761746563616c6c00000000000000006064820152608401610bf8565b5060008051602061477a83398151915290565b611392604051806101400160405280600081526020016060815260200160608152602001600061ffff168152602001600061ffff168152602001600081526020016000815260200160006001600160a01b0316815260200160608152602001600081525090565b6000821180156113a457506101335482105b6113c05760405162461bcd60e51b8152600401610bf890613da2565b61012e600083815260200190815260200160002060405180610140016040529081600082015481526020016001820180546113fa90613d67565b80601f016020809104026020016040519081016040528092919081815260200182805461142690613d67565b80156114735780601f1061144857610100808354040283529160200191611473565b820191906000526020600020905b81548152906001019060200180831161145657829003601f168201915b5050505050815260200160028201805461148c90613d67565b80601f01602080910402602001604051908101604052809291908181526020018280546114b890613d67565b80156115055780601f106114da57610100808354040283529160200191611505565b820191906000526020600020905b8154815290600101906020018083116114e857829003601f168201915b5050509183525050600382015461ffff808216602084015262010000909104166040820152600482015460608201526005820154608082015260068201546001600160a01b031660a082015260078201805460c09092019161156690613d67565b80601f016020809104026020016040519081016040528092919081815260200182805461159290613d67565b80156115df5780601f106115b4576101008083540402835291602001916115df565b820191906000526020600020905b8154815290600101906020018083116115c257829003601f168201915b505050505081526020016008820154815250509050919050565b6000818152606760205260408120546001600160a01b031680610ac45760405162461bcd60e51b8152602060048201526018602482015277115490cdcc8c4e881a5b9d985b1a59081d1bdad95b88125160421b6044820152606401610bf8565b60006001600160a01b0382166116c35760405162461bcd60e51b815260206004820152602960248201527f4552433732313a2061646472657373207a65726f206973206e6f7420612076616044820152683634b21037bbb732b960b91b6064820152608401610bf8565b506001600160a01b031660009081526068602052604090205490565b600054610100900460ff16158080156116ff5750600054600160ff909116105b806117195750303b158015611719575060005460ff166001145b61177c5760405162461bcd60e51b815260206004820152602e60248201527f496e697469616c697a61626c653a20636f6e747261637420697320616c72656160448201526d191e481a5b9a5d1a585b1a5e995960921b6064820152608401610bf8565b6000805460ff19166001179055801561179f576000805461ff0019166101001790555b6117f26040518060400160405280601581526020017415185b195b9d13185e595c941b185d199bdc9b5251605a1b815250604051806040016040528060048152602001631514125160e21b81525061281d565b6117fa61284e565b61180261284e565b61180d600033612877565b6118256000805160206147da83398151915233612877565b61184f7fb19546dff01e856fb3f010c267a7b1c60363cf8a4664e21cc89c26224620214e33612877565b6000610131819055805261012f6020527fe9104285c6851efcbc5e0e70440200efbdcab556a1c8784776780f8bb44f2931805460ff1916600117905561189762015180610a61565b6118a661013380546001019055565b8015610ebb576000805461ff0019169055604051600181527f7f26b83ff96e1f2b6a682f133852f6798a09c465da95921460cefb38474024989060200160405180910390a150565b60006118f981612440565b6101318290556040518281527f38fbb1c8b109c430f0c030e7ed076cf5611a307773a4e8e365601e8f8bceaec690602001610a9e565b6000808211801561194257506101335482105b61195e5760405162461bcd60e51b8152600401610bf890613da2565b50600090815261012e602052604090206004015490565b3361197f836115f9565b6001600160a01b0316146119a55760405162461bcd60e51b8152600401610bf890613e94565b600082815261012e6020908152604091829020600301805461ffff191661ffff85169081179091558251858152918201527f03c3aa7c7830e29d1571bfe33dc72a8b8e0297dd6fdf26ef720dee976e21125a9101610a9e565b60009182526097602090815260408084206001600160a01b0393909316845291905290205460ff1690565b606060668054610ad990613d67565b6000611a4381612440565b506001600160a01b0316600090815261012f60209081526040808320805460ff1990811690915561013090925290912080549091169055565b33611a86836115f9565b6001600160a01b031614611aac5760405162461bcd60e51b8152600401610bf890613e94565b600082815261012e6020908152604091829020600301805463ffff000019166201000061ffff8616908102919091179091558251858152918201527fffeae29561efc186d4d5241d242f7e2b4a76f114ea5de0db37fbd19c3b1913a59101610a9e565b610dda338383612881565b33611b24836115f9565b6001600160a01b031614611b4a5760405162461bcd60e51b8152600401610bf890613e94565b61013254811015611bba5760405162461bcd60e51b815260206004820152603460248201527f5468652074696d656f7574206d7573742062652067726561746572207468616e604482015273081d1a19481b5a5b9a5b5d5b481d1a5b595bdd5d60621b6064820152608401610bf8565b600082815261012e602090815260409182902060080183905581518481529081018390527face552c85eed7b5cf46330833e6f28b1f5ce696a4532e483192b5a64e4565e599101610a9e565b600060015b61013354811015611c50576000818152606760205260409020546001600160a01b0384811691161415611c3e5792915050565b80611c4881613f99565b915050611c0b565b50600092915050565b611c633383612950565b611cc55760405162461bcd60e51b815260206004820152602d60248201527f4552433732313a2063616c6c6572206973206e6f7420746f6b656e206f776e6560448201526c1c881bdc88185c1c1c9bdd9959609a1b6064820152608401610bf8565b611cd1848484846129cf565b50505050565b8181610131543414611cfb5760405162461bcd60e51b8152600401610bf890613fb4565b611d04816120aa565b15611d215760405162461bcd60e51b8152600401610bf890613ff8565b600282511015611d645760405162461bcd60e51b815260206004820152600e60248201526d13985b59481d1bdbc81cda1bdc9d60921b6044820152606401610bf8565b601482511115611da65760405162461bcd60e51b815260206004820152600d60248201526c4e616d6520746f6f206c6f6e6760981b6044820152606401610bf8565b61012d82604051611db79190614056565b9081526040519081900360200190205460ff1615611e0c5760405162461bcd60e51b81526020600482015260126024820152712730b6b29030b63932b0b23c903a30b5b2b760711b6044820152606401610bf8565b6000805160206147da833981519152611e2481612440565b611e3784611e326101335490565b612a02565b611e418585612a1c565b5050505050565b33611e52836115f9565b6001600160a01b031614611e785760405162461bcd60e51b8152600401610bf890613e94565b600082815261012e602090815260409182902060050183905581518481529081018390527f5cea455bfd7800a5b219f99906f1402cf18c09764b07b36821dc7285b86a77329101610a9e565b6060610ac482612af5565b6000611eda81612440565b506001600160a01b03909116600090815261012f60209081526040808320805460ff19908116600117909155610130909252909120805492151592909116919091179055565b600082815260976020526040902060010154611f3b81612440565b610c998383612612565b8033610131543414611f695760405162461bcd60e51b8152600401610bf890613fb4565b611f72816120aa565b15611f8f5760405162461bcd60e51b8152600401610bf890613ff8565b600282511015611fd25760405162461bcd60e51b815260206004820152600e60248201526d13985b59481d1bdbc81cda1bdc9d60921b6044820152606401610bf8565b6014825111156120145760405162461bcd60e51b815260206004820152600d60248201526c4e616d6520746f6f206c6f6e6760981b6044820152606401610bf8565b61012d826040516120259190614056565b9081526040519081900360200190205460ff161561207a5760405162461bcd60e51b81526020600482015260126024820152712730b6b29030b63932b0b23c903a30b5b2b760711b6044820152606401610bf8565b6000805160206147da83398151915261209281612440565b6120a033611e326101335490565b611cd18433612a1c565b6000610ac482611659565b336120bf836115f9565b6001600160a01b0316146120e55760405162461bcd60e51b8152600401610bf890613e94565b600082815261012e602090815260409182902060040183905581518481529081018390527fccc64c8fc3688d9eb2c0bb58ff0dfef1a8528bcc06528d991da400c83835838d9101610a9e565b3361213b836115f9565b6001600160a01b0316146121615760405162461bcd60e51b8152600401610bf890613e94565b60008151116121b25760405162461bcd60e51b815260206004820152601f60248201527f53686f756c642070726f7669646520612076616c6964204950465320555249006044820152606401610bf8565b600082815261012e6020908152604090912082516121d8926002909201918401906136d5565b50817f613807bd6768f626264e7eb664a65ca99a0d930f8fd8a5b868491a592eb57f72826040516122099190613812565b60405180910390a25050565b60008111801561222757506101335481105b610ebb5760405162461bcd60e51b8152600401610bf890613da2565b61012e602052600090815260409020805460018201805491929161226690613d67565b80601f016020809104026020016040519081016040528092919081815260200182805461229290613d67565b80156122df5780601f106122b4576101008083540402835291602001916122df565b820191906000526020600020905b8154815290600101906020018083116122c257829003601f168201915b5050505050908060020180546122f490613d67565b80601f016020809104026020016040519081016040528092919081815260200182805461232090613d67565b801561236d5780601f106123425761010080835404028352916020019161236d565b820191906000526020600020905b81548152906001019060200180831161235057829003601f168201915b505050506003830154600484015460058501546006860154600787018054969761ffff8087169862010000909704169650939492936001600160a01b03909216926123b790613d67565b80601f01602080910402602001604051908101604052809291908181526020018280546123e390613d67565b80156124305780601f1061240557610100808354040283529160200191612430565b820191906000526020600020905b81548152906001019060200180831161241357829003601f168201915b505050505090806008015490508a565b610ebb8133612c20565b60006001600160e01b031982166380ac58cd60e01b148061247b57506001600160e01b03198216635b5e139f60e01b145b80610ac457506301ffc9a760e01b6001600160e01b0319831614610ac4565b60006001600160e01b03198216637965db0b60e01b1480610ac45750610ac48261244a565b6000818152606760205260409020546001600160a01b0316610ebb5760405162461bcd60e51b8152602060048201526018602482015277115490cdcc8c4e881a5b9d985b1a59081d1bdad95b88125160421b6044820152606401610bf8565b600081815260696020526040902080546001600160a01b0319166001600160a01b0384169081179091558190612553826115f9565b6001600160a01b03167f8c5be1e5ebec7d5bd14f71427d1e84f3dd0314c0f7b2291e5b200ac8c7c3b92560405160405180910390a45050565b61259682826119fe565b610dda5760008281526097602090815260408083206001600160a01b03851684529091529020805460ff191660011790556125ce3390565b6001600160a01b0316816001600160a01b0316837f2f8788117e7eff1d82e926ec794901d17c78024a50270940304540a733656f0d60405160405180910390a45050565b61261c82826119fe565b15610dda5760008281526097602090815260408083206001600160a01b0385168085529252808320805460ff1916905551339285917ff6391f5c32d9c69d2a47ea670b442974b53935d1edc7fd64eb21e047a839171b9190a45050565b7fb19546dff01e856fb3f010c267a7b1c60363cf8a4664e21cc89c26224620214e610dda81612440565b7f4910fdfa16fed3260ed0e7147f7cc6da11a60208b5b9406d12a635614ffd91435460ff16156126d657610c9983612c79565b826001600160a01b03166352d1902d6040518163ffffffff1660e01b815260040160206040518083038186803b15801561270f57600080fd5b505afa92505050801561273f575060408051601f3d908101601f1916820190925261273c91810190614072565b60015b6127a25760405162461bcd60e51b815260206004820152602e60248201527f45524331393637557067726164653a206e657720696d706c656d656e7461746960448201526d6f6e206973206e6f74205555505360901b6064820152608401610bf8565b60008051602061477a83398151915281146128115760405162461bcd60e51b815260206004820152602960248201527f45524331393637557067726164653a20756e737570706f727465642070726f786044820152681a58589b195555525160ba1b6064820152608401610bf8565b50610c99838383612d15565b600054610100900460ff166128445760405162461bcd60e51b8152600401610bf89061408b565b610dda8282612d3a565b600054610100900460ff166128755760405162461bcd60e51b8152600401610bf89061408b565b565b610dda828261258c565b816001600160a01b0316836001600160a01b031614156128e35760405162461bcd60e51b815260206004820152601960248201527f4552433732313a20617070726f766520746f2063616c6c6572000000000000006044820152606401610bf8565b6001600160a01b038381166000818152606a6020908152604080832094871680845294825291829020805460ff191686151590811790915591519182527f17307eab39ab6107e8899845ad3d59bd9653f200f220920489ca2b5937696c31910160405180910390a3505050565b60008061295c836115f9565b9050806001600160a01b0316846001600160a01b031614806129a357506001600160a01b038082166000908152606a602090815260408083209388168352929052205460ff165b806129c75750836001600160a01b03166129bc84610b5c565b6001600160a01b0316145b949350505050565b6129da848484612d88565b6129e684848484612ef9565b611cd15760405162461bcd60e51b8152600401610bf8906140d6565b610dda828260405180602001604052806000815250613006565b6000612a286101335490565b9050612a3961013380546001019055565b600081815261012e6020908152604090912084519091612a609160018401918701906136d5565b5081815561013254600882015560405160019061012d90612a82908790614056565b908152604051908190036020018120805492151560ff199093169290921790915561013154610132546001600160a01b038616927f8475f1ba3b06c1e11c870cbbf9753ca9a8292ea0b203262f682de476dc268f8c92612ae79287928a929190614128565b60405180910390a250505050565b600081815261012e6020526040812060010180546060929190612b1790613d67565b80601f0160208091040260200160405190810160405280929190818152602001828054612b4390613d67565b8015612b905780601f10612b6557610100808354040283529160200191612b90565b820191906000526020600020905b815481529060010190602001808311612b7357829003601f168201915b505050505090506000612bc182604051602001612bad9190614154565b604051602081830303815290604052613039565b604051602001612bd191906144b8565b6040516020818303038152906040529050612bf88282604051602001612bad9291906144fd565b604051602001612c08919061459a565b60405160208183030381529060405292505050919050565b612c2a82826119fe565b610dda57612c378161318d565b612c4283602061319f565b604051602001612c539291906145df565b60408051601f198184030181529082905262461bcd60e51b8252610bf891600401613812565b6001600160a01b0381163b612ce65760405162461bcd60e51b815260206004820152602d60248201527f455243313936373a206e657720696d706c656d656e746174696f6e206973206e60448201526c1bdd08184818dbdb9d1c9858dd609a1b6064820152608401610bf8565b60008051602061477a83398151915280546001600160a01b0319166001600160a01b0392909216919091179055565b612d1e83613342565b600082511180612d2b5750805b15610c9957611cd18383613382565b600054610100900460ff16612d615760405162461bcd60e51b8152600401610bf89061408b565b8151612d749060659060208501906136d5565b508051610c999060669060208401906136d5565b826001600160a01b0316612d9b826115f9565b6001600160a01b031614612dc15760405162461bcd60e51b8152600401610bf890614654565b6001600160a01b038216612e235760405162461bcd60e51b8152602060048201526024808201527f4552433732313a207472616e7366657220746f20746865207a65726f206164646044820152637265737360e01b6064820152608401610bf8565b612e308383836001613476565b826001600160a01b0316612e43826115f9565b6001600160a01b031614612e695760405162461bcd60e51b8152600401610bf890614654565b600081815260696020908152604080832080546001600160a01b03199081169091556001600160a01b0387811680865260688552838620805460001901905590871680865283862080546001019055868652606790945282852080549092168417909155905184937fddf252ad1be2c89b69c2b068fc378daa952ba7f163c4a11628f55a4df523b3ef91a4505050565b60006001600160a01b0384163b15612ffb57604051630a85bd0160e11b81526001600160a01b0385169063150b7a0290612f3d903390899088908890600401614699565b602060405180830381600087803b158015612f5757600080fd5b505af1925050508015612f87575060408051601f3d908101601f19168201909252612f84918101906146d6565b60015b612fe1573d808015612fb5576040519150601f19603f3d011682016040523d82523d6000602084013e612fba565b606091505b508051612fd95760405162461bcd60e51b8152600401610bf8906140d6565b805181602001fd5b6001600160e01b031916630a85bd0160e11b1490506129c7565b506001949350505050565b61301083836134fe565b61301d6000848484612ef9565b610c995760405162461bcd60e51b8152600401610bf8906140d6565b606081516000141561305957505060408051602081019091526000815290565b600060405180606001604052806040815260200161479a604091399050600060038451600261308891906146f3565b613092919061470b565b61309d90600461472d565b67ffffffffffffffff8111156130b5576130b56138f4565b6040519080825280601f01601f1916602001820160405280156130df576020820181803683370190505b509050600182016020820185865187015b8082101561314b576003820191508151603f8160121c168501518453600184019350603f81600c1c168501518453600184019350603f8160061c168501518453600184019350603f81168501518453506001830192506130f0565b5050600386510660018114613167576002811461317a57613182565b603d6001830353603d6002830353613182565b603d60018303535b509195945050505050565b6060610ac46001600160a01b03831660145b606060006131ae83600261472d565b6131b99060026146f3565b67ffffffffffffffff8111156131d1576131d16138f4565b6040519080825280601f01601f1916602001820160405280156131fb576020820181803683370190505b509050600360fc1b816000815181106132165761321661474c565b60200101906001600160f81b031916908160001a905350600f60fb1b816001815181106132455761324561474c565b60200101906001600160f81b031916908160001a905350600061326984600261472d565b6132749060016146f3565b90505b60018111156132ec576f181899199a1a9b1b9c1cb0b131b232b360811b85600f16601081106132a8576132a861474c565b1a60f81b8282815181106132be576132be61474c565b60200101906001600160f81b031916908160001a90535060049490941c936132e581614762565b9050613277565b50831561333b5760405162461bcd60e51b815260206004820181905260248201527f537472696e67733a20686578206c656e67746820696e73756666696369656e746044820152606401610bf8565b9392505050565b61334b81612c79565b6040516001600160a01b038216907fbc7cd75a20ee27fd9adebab32041f755214dbc6bffa90cc0225b39da2e5c2d3b90600090a250565b60606001600160a01b0383163b6133ea5760405162461bcd60e51b815260206004820152602660248201527f416464726573733a2064656c65676174652063616c6c20746f206e6f6e2d636f6044820152651b9d1c9858dd60d21b6064820152608401610bf8565b600080846001600160a01b0316846040516134059190614056565b600060405180830381855af49150503d8060008114613440576040519150601f19603f3d011682016040523d82523d6000602084013e613445565b606091505b509150915061346d82826040518060600160405280602781526020016147fa60279139613697565b95945050505050565b6001811115611cd1576001600160a01b038416156134bc576001600160a01b038416600090815260686020526040812080548392906134b6908490613de5565b90915550505b6001600160a01b03831615611cd1576001600160a01b038316600090815260686020526040812080548392906134f39084906146f3565b909155505050505050565b6001600160a01b0382166135545760405162461bcd60e51b815260206004820181905260248201527f4552433732313a206d696e7420746f20746865207a65726f20616464726573736044820152606401610bf8565b6000818152606760205260409020546001600160a01b0316156135b95760405162461bcd60e51b815260206004820152601c60248201527f4552433732313a20746f6b656e20616c7265616479206d696e746564000000006044820152606401610bf8565b6135c7600083836001613476565b6000818152606760205260409020546001600160a01b03161561362c5760405162461bcd60e51b815260206004820152601c60248201527f4552433732313a20746f6b656e20616c7265616479206d696e746564000000006044820152606401610bf8565b6001600160a01b038216600081815260686020908152604080832080546001019055848352606790915280822080546001600160a01b0319168417905551839291907fddf252ad1be2c89b69c2b068fc378daa952ba7f163c4a11628f55a4df523b3ef908290a45050565b606083156136a657508161333b565b61333b83838151156136bb5781518083602001fd5b8060405162461bcd60e51b8152600401610bf89190613812565b8280546136e190613d67565b90600052602060002090601f0160209004810192826137035760008555613749565b82601f1061371c57805160ff1916838001178555613749565b82800160010185558215613749579182015b8281111561374957825182559160200191906001019061372e565b50613755929150613759565b5090565b5b80821115613755576000815560010161375a565b60006020828403121561378057600080fd5b5035919050565b6001600160e01b031981168114610ebb57600080fd5b6000602082840312156137af57600080fd5b813561333b81613787565b60005b838110156137d55781810151838201526020016137bd565b83811115611cd15750506000910152565b600081518084526137fe8160208601602086016137ba565b601f01601f19169290920160200192915050565b60208152600061333b60208301846137e6565b6001600160a01b0381168114610ebb57600080fd5b6000806040838503121561384d57600080fd5b823561385881613825565b946020939093013593505050565b60008060006060848603121561387b57600080fd5b833561388681613825565b9250602084013561389681613825565b929592945050506040919091013590565b600080604083850312156138ba57600080fd5b8235915060208301356138cc81613825565b809150509250929050565b6000602082840312156138e957600080fd5b813561333b81613825565b634e487b7160e01b600052604160045260246000fd5b600082601f83011261391b57600080fd5b813567ffffffffffffffff80821115613936576139366138f4565b604051601f8301601f19908116603f0116810190828211818310171561395e5761395e6138f4565b8160405283815286602085880101111561397757600080fd5b836020870160208301376000602085830101528094505050505092915050565b6000806000606084860312156139ac57600080fd5b8335925060208401356139be81613825565b9150604084013567ffffffffffffffff8111156139da57600080fd5b6139e68682870161390a565b9150509250925092565b60008060408385031215613a0357600080fd5b8235613a0e81613825565b9150602083013567ffffffffffffffff811115613a2a57600080fd5b613a368582860161390a565b9150509250929050565b602081528151602082015260006020830151610140806040850152613a696101608501836137e6565b91506040850151601f1980868503016060870152613a8784836137e6565b935060608701519150613aa0608087018361ffff169052565b608087015161ffff811660a0880152915060a087015160c087015260c087015160e087015260e08701519150610100613ae3818801846001600160a01b03169052565b80880151925050610120818786030181880152613b0085846137e6565b970151959092019490945250929392505050565b60008060408385031215613b2757600080fd5b82359150602083013561ffff811681146138cc57600080fd5b60008060408385031215613b5357600080fd5b8235613b5e81613825565b9150602083013580151581146138cc57600080fd5b600060208284031215613b8557600080fd5b813567ffffffffffffffff811115613b9c57600080fd5b6129c78482850161390a565b60008060408385031215613bbb57600080fd5b50508035926020909101359150565b60008060008060808587031215613be057600080fd5b8435613beb81613825565b93506020850135613bfb81613825565b925060408501359150606085013567ffffffffffffffff811115613c1e57600080fd5b613c2a8782880161390a565b91505092959194509250565b60008060408385031215613c4957600080fd5b823567ffffffffffffffff811115613c6057600080fd5b613c6c8582860161390a565b92505060208301356138cc81613825565b60008060408385031215613c9057600080fd5b8235613c9b81613825565b915060208301356138cc81613825565b60008060408385031215613cbe57600080fd5b82359150602083013567ffffffffffffffff811115613a2a57600080fd5b60006101408c8352806020840152613cf68184018d6137e6565b90508281036040840152613d0a818c6137e6565b61ffff8b811660608601528a16608085015260a0840189905260c084018890526001600160a01b03871660e08501528381036101008501529050613d4e81866137e6565b915050826101208301529b9a5050505050505050505050565b600181811c90821680613d7b57607f821691505b60208210811415613d9c57634e487b7160e01b600052602260045260246000fd5b50919050565b602080825260139082015272125b9d985b1a59081c1b185d199bdc9b481251606a1b604082015260600190565b634e487b7160e01b600052601160045260246000fd5b600082821015613df757613df7613dcf565b500390565b6020808252602c908201527f46756e6374696f6e206d7573742062652063616c6c6564207468726f7567682060408201526b19195b1959d85d1958d85b1b60a21b606082015260800190565b6020808252602c908201527f46756e6374696f6e206d7573742062652063616c6c6564207468726f7567682060408201526b6163746976652070726f787960a01b606082015260800190565b60208082526025908201527f596f75277265206e6f7420746865206f776e6572206f66207468697320706c6160408201526474666f726d60d81b606082015260800190565b8381526000602060018060a01b03851681840152606060408401526000845481600182811c915080831680613f0f57607f831692505b858310811415613f2d57634e487b7160e01b85526022600452602485fd5b6060880183905260808801818015613f4c5760018114613f5d57613f88565b60ff19861682528782019650613f88565b60008b81526020902060005b86811015613f8257815484820152908501908901613f69565b83019750505b50949b9a5050505050505050505050565b6000600019821415613fad57613fad613dcf565b5060010190565b60208082526024908201527f496e636f727265637420616d6f756e74206f662045544820666f72206d696e746040820152632066656560e01b606082015260800190565b60208082526022908201527f506c6174666f726d20616c726561647920686173206120506c6174666f726d20604082015261125160f21b606082015260800190565b6000815161404c8185602086016137ba565b9290920192915050565b600082516140688184602087016137ba565b9190910192915050565b60006020828403121561408457600080fd5b5051919050565b6020808252602b908201527f496e697469616c697a61626c653a20636f6e7472616374206973206e6f74206960408201526a6e697469616c697a696e6760a81b606082015260800190565b60208082526032908201527f4552433732313a207472616e7366657220746f206e6f6e20455243373231526560408201527131b2b4bb32b91034b6b83632b6b2b73a32b960711b606082015260800190565b84815260806020820152600061414160808301866137e6565b6040830194909452506060015292915050565b7f3c73766720786d6c6e733d22687474703a2f2f7777772e77332e6f72672f323081527f30302f737667222077696474683d2237323022206865696768743d223732302260208201527f3e3c726563742077696474683d223130302522206865696768743d223130302560408201527f222f3e3c73766720786d6c6e733d22687474703a2f2f7777772e77332e6f726760608201527f2f323030302f737667222077696474683d2231353022206865696768743d223160808201527f3530222076657273696f6e3d22312e32222076696577426f783d222d3230302060a08201527f2d353020313030302031303030223e3c706174682066696c6c3d22234646464660c08201527f46462220643d224d3236342e35203139302e3563302d31332e382031312e322d60e08201527f32352032352d3235483536386331332e3820302032352031312e3220323520326101008201527f357634393063302031332e382d31312e322032352d3235203235483238392e356101208201527f632d31332e3820302d32352d31312e322d32352d32357a222f3e3c70617468206101408201527f66696c6c3d22234646464646462220643d224d3236352036323463302d31332e6101608201527f382031312e322d32352032352d3235683534336331332e3820302032352031316101808201527f2e322032352032357635362e3563302031332e382d31312e322032352d3235206101a08201527f323548323930632d31332e3820302d32352d31312e322d32352d32357a222f3e6101c08201527f3c706174682066696c6c3d22234646464646462220643d224d30203139302e356101e08201527f63302d31332e382031312e322d32352032352d3235683534336331332e3820306102008201527f2032352031312e322032352032355632343763302031332e382d31312e3220326102208201527f352d3235203235483235632d31332e3820302d32352d31312e322d32352d32356102408201527f7a222f3e3c2f7376673e3c7465787420783d2233302220793d223637302220736102608201527f74796c653d22666f6e743a363070782073616e732d73657269663b66696c6c3a6102808201526511b33333111f60d11b6102a0820152600061333b61449f6102a684018561403a565b6c1e17ba32bc3a1f1e17b9bb339f60991b8152600d0190565b7f646174613a696d6167652f7376672b786d6c3b6261736536342c0000000000008152600082516144f081601a8501602087016137ba565b91909101601a0192915050565b683d913730b6b2911d1160b91b815282516000906145228160098501602088016137ba565b6b1116101134b6b0b3b2911d1160a11b600991840191820152835161454e8160158401602088016137ba565b7f222c20226465736372697074696f6e223a202254616c656e74204c6179657220601592909101918201526c506c6174666f726d204944227d60981b6035820152604201949350505050565b7f646174613a6170706c69636174696f6e2f6a736f6e3b6261736536342c0000008152600082516145d281601d8501602087016137ba565b91909101601d0192915050565b7f416363657373436f6e74726f6c3a206163636f756e74200000000000000000008152600083516146178160178501602088016137ba565b7001034b99036b4b9b9b4b733903937b6329607d1b60179184019182015283516146488160288401602088016137ba565b01602801949350505050565b60208082526025908201527f4552433732313a207472616e736665722066726f6d20696e636f72726563742060408201526437bbb732b960d91b606082015260800190565b6001600160a01b03858116825284166020820152604081018390526080606082018190526000906146cc908301846137e6565b9695505050505050565b6000602082840312156146e857600080fd5b815161333b81613787565b6000821982111561470657614706613dcf565b500190565b60008261472857634e487b7160e01b600052601260045260246000fd5b500490565b600081600019048311821515161561474757614747613dcf565b500290565b634e487b7160e01b600052603260045260246000fd5b60008161477157614771613dcf565b50600019019056fe360894a13ba1a3210667c828492db98dca3e2076cc3735a920a3ca505d382bbc4142434445464748494a4b4c4d4e4f505152535455565758595a6162636465666768696a6b6c6d6e6f707172737475767778797a303132333435363738392b2f154c00819833dac601ee5ddded6fda79d9d8b506b911b3dbd54cdb95fe6c3686416464726573733a206c6f772d6c6576656c2064656c65676174652063616c6c206661696c6564a2646970667358221220c728a766722571ba170463ec0727ebfe0e4ec71a6a3415ea373a97e9927d0fb664736f6c63430008090033",
  "linkReferences": {},
  "deployedLinkReferences": {}
}