{
  "_format": "hh-sol-artifact-1",
  "contractName": "TalentLayerID",
  "sourceName": "contracts/TalentLayerID.sol",
  "abi": [
    {
      "inputs": [],
      "stateMutability": "nonpayable",
      "type": "constructor"
    },
    {
      "anonymous": false,
      "inputs": [
        {
          "indexed": false,
          "internalType": "address",
          "name": "previousAdmin",
          "type": "address"
        },
        {
          "indexed": false,
          "internalType": "address",
          "name": "newAdmin",
          "type": "address"
        }
      ],
      "name": "AdminChanged",
      "type": "event"
    },
    {
      "anonymous": false,
      "inputs": [
        {
          "indexed": true,
          "internalType": "address",
          "name": "owner",
          "type": "address"
        },
        {
          "indexed": true,
          "internalType": "address",
          "name": "approved",
          "type": "address"
        },
        {
          "indexed": true,
          "internalType": "uint256",
          "name": "tokenId",
          "type": "uint256"
        }
      ],
      "name": "Approval",
      "type": "event"
    },
    {
      "anonymous": false,
      "inputs": [
        {
          "indexed": true,
          "internalType": "address",
          "name": "owner",
          "type": "address"
        },
        {
          "indexed": true,
          "internalType": "address",
          "name": "operator",
          "type": "address"
        },
        {
          "indexed": false,
          "internalType": "bool",
          "name": "approved",
          "type": "bool"
        }
      ],
      "name": "ApprovalForAll",
      "type": "event"
    },
    {
      "anonymous": false,
      "inputs": [
        {
          "indexed": true,
          "internalType": "address",
          "name": "beacon",
          "type": "address"
        }
      ],
      "name": "BeaconUpgraded",
      "type": "event"
    },
    {
      "anonymous": false,
      "inputs": [
        {
          "indexed": true,
          "internalType": "uint256",
          "name": "_tokenId",
          "type": "uint256"
        },
        {
          "indexed": false,
          "internalType": "string",
          "name": "_newCid",
          "type": "string"
        }
      ],
      "name": "CidUpdated",
      "type": "event"
    },
    {
      "anonymous": false,
      "inputs": [
        {
          "indexed": false,
          "internalType": "uint8",
          "name": "version",
          "type": "uint8"
        }
      ],
      "name": "Initialized",
      "type": "event"
    },
    {
      "anonymous": false,
      "inputs": [
        {
          "indexed": true,
          "internalType": "address",
          "name": "_user",
          "type": "address"
        },
        {
          "indexed": false,
          "internalType": "uint256",
          "name": "_tokenId",
          "type": "uint256"
        },
        {
          "indexed": false,
          "internalType": "string",
          "name": "_handle",
          "type": "string"
        },
        {
          "indexed": false,
          "internalType": "uint256",
          "name": "_platformId",
          "type": "uint256"
        },
        {
          "indexed": false,
          "internalType": "uint256",
          "name": "_fee",
          "type": "uint256"
        }
      ],
      "name": "Mint",
      "type": "event"
    },
    {
      "anonymous": false,
      "inputs": [
        {
          "indexed": false,
          "internalType": "uint256",
          "name": "_mintFee",
          "type": "uint256"
        }
      ],
      "name": "MintFeeUpdated",
      "type": "event"
    },
    {
      "anonymous": false,
      "inputs": [
        {
          "indexed": true,
          "internalType": "address",
          "name": "previousOwner",
          "type": "address"
        },
        {
          "indexed": true,
          "internalType": "address",
          "name": "newOwner",
          "type": "address"
        }
      ],
      "name": "OwnershipTransferred",
      "type": "event"
    },
    {
      "anonymous": false,
      "inputs": [
        {
          "indexed": true,
          "internalType": "address",
          "name": "from",
          "type": "address"
        },
        {
          "indexed": true,
          "internalType": "address",
          "name": "to",
          "type": "address"
        },
        {
          "indexed": true,
          "internalType": "uint256",
          "name": "tokenId",
          "type": "uint256"
        }
      ],
      "name": "Transfer",
      "type": "event"
    },
    {
      "anonymous": false,
      "inputs": [
        {
          "indexed": false,
          "internalType": "address",
          "name": "forwarder",
          "type": "address"
        }
      ],
      "name": "TrustedForwarderAdded",
      "type": "event"
    },
    {
      "anonymous": false,
      "inputs": [
        {
          "indexed": false,
          "internalType": "address",
          "name": "forwarder",
          "type": "address"
        }
      ],
      "name": "TrustedForwarderRemoved",
      "type": "event"
    },
    {
      "anonymous": false,
      "inputs": [
        {
          "indexed": true,
          "internalType": "address",
          "name": "implementation",
          "type": "address"
        }
      ],
      "name": "Upgraded",
      "type": "event"
    },
    {
      "inputs": [
        {
          "internalType": "address",
          "name": "_forwarder",
          "type": "address"
        }
      ],
      "name": "addTrustedForwarder",
      "outputs": [],
      "stateMutability": "nonpayable",
      "type": "function"
    },
    {
      "inputs": [
        {
          "internalType": "address",
          "name": "to",
          "type": "address"
        },
        {
          "internalType": "uint256",
          "name": "tokenId",
          "type": "uint256"
        }
      ],
      "name": "approve",
      "outputs": [],
      "stateMutability": "nonpayable",
      "type": "function"
    },
    {
      "inputs": [
        {
          "internalType": "address",
          "name": "owner",
          "type": "address"
        }
      ],
      "name": "balanceOf",
      "outputs": [
        {
          "internalType": "uint256",
          "name": "",
          "type": "uint256"
        }
      ],
      "stateMutability": "view",
      "type": "function"
    },
    {
      "inputs": [
        {
          "internalType": "uint256",
          "name": "_platformId",
          "type": "uint256"
        },
        {
          "internalType": "address",
          "name": "_userAddress",
          "type": "address"
        },
        {
          "internalType": "string",
          "name": "_handle",
          "type": "string"
        }
      ],
      "name": "freeMint",
      "outputs": [],
      "stateMutability": "nonpayable",
      "type": "function"
    },
    {
      "inputs": [
        {
          "internalType": "uint256",
          "name": "tokenId",
          "type": "uint256"
        }
      ],
      "name": "getApproved",
      "outputs": [
        {
          "internalType": "address",
          "name": "",
          "type": "address"
        }
      ],
      "stateMutability": "view",
      "type": "function"
    },
    {
      "inputs": [
        {
          "internalType": "address",
          "name": "_address",
          "type": "address"
        }
      ],
      "name": "getOriginatorPlatformIdByAddress",
      "outputs": [
        {
          "internalType": "uint256",
          "name": "",
          "type": "uint256"
        }
      ],
      "stateMutability": "view",
      "type": "function"
    },
    {
      "inputs": [
        {
          "internalType": "uint256",
          "name": "_profileId",
          "type": "uint256"
        }
      ],
      "name": "getProfile",
      "outputs": [
        {
          "components": [
            {
              "internalType": "uint256",
              "name": "id",
              "type": "uint256"
            },
            {
              "internalType": "string",
              "name": "handle",
              "type": "string"
            },
            {
              "internalType": "uint256",
              "name": "platformId",
              "type": "uint256"
            },
            {
              "internalType": "string",
              "name": "dataUri",
              "type": "string"
            }
          ],
          "internalType": "struct TalentLayerID.Profile",
          "name": "",
          "type": "tuple"
        }
      ],
      "stateMutability": "view",
      "type": "function"
    },
    {
      "inputs": [
        {
          "internalType": "address",
          "name": "_talentLayerPlatformIdAddress",
          "type": "address"
        }
      ],
      "name": "initialize",
      "outputs": [],
      "stateMutability": "nonpayable",
      "type": "function"
    },
    {
      "inputs": [
        {
          "internalType": "address",
          "name": "owner",
          "type": "address"
        },
        {
          "internalType": "address",
          "name": "operator",
          "type": "address"
        }
      ],
      "name": "isApprovedForAll",
      "outputs": [
        {
          "internalType": "bool",
          "name": "",
          "type": "bool"
        }
      ],
      "stateMutability": "view",
      "type": "function"
    },
    {
      "inputs": [
        {
          "internalType": "address",
          "name": "forwarder",
          "type": "address"
        }
      ],
      "name": "isTrustedForwarder",
      "outputs": [
        {
          "internalType": "bool",
          "name": "",
          "type": "bool"
        }
      ],
      "stateMutability": "view",
      "type": "function"
    },
    {
      "inputs": [
        {
          "internalType": "uint256",
          "name": "_tokenId",
          "type": "uint256"
        }
      ],
      "name": "isValid",
      "outputs": [],
      "stateMutability": "view",
      "type": "function"
    },
    {
      "inputs": [
        {
          "internalType": "uint256",
          "name": "_platformId",
          "type": "uint256"
        },
        {
          "internalType": "string",
          "name": "_handle",
          "type": "string"
        }
      ],
      "name": "mint",
      "outputs": [],
      "stateMutability": "payable",
      "type": "function"
    },
    {
      "inputs": [],
      "name": "mintFee",
      "outputs": [
        {
          "internalType": "uint256",
          "name": "",
          "type": "uint256"
        }
      ],
      "stateMutability": "view",
      "type": "function"
    },
    {
      "inputs": [],
      "name": "name",
      "outputs": [
        {
          "internalType": "string",
          "name": "",
          "type": "string"
        }
      ],
      "stateMutability": "view",
      "type": "function"
    },
    {
      "inputs": [
        {
          "internalType": "address",
          "name": "_user",
          "type": "address"
        }
      ],
      "name": "numberMinted",
      "outputs": [
        {
          "internalType": "uint256",
          "name": "",
          "type": "uint256"
        }
      ],
      "stateMutability": "view",
      "type": "function"
    },
    {
      "inputs": [],
      "name": "owner",
      "outputs": [
        {
          "internalType": "address",
          "name": "",
          "type": "address"
        }
      ],
      "stateMutability": "view",
      "type": "function"
    },
    {
      "inputs": [
        {
          "internalType": "uint256",
          "name": "tokenId",
          "type": "uint256"
        }
      ],
      "name": "ownerOf",
      "outputs": [
        {
          "internalType": "address",
          "name": "",
          "type": "address"
        }
      ],
      "stateMutability": "view",
      "type": "function"
    },
    {
      "inputs": [
        {
          "internalType": "uint256",
          "name": "",
          "type": "uint256"
        }
      ],
      "name": "profiles",
      "outputs": [
        {
          "internalType": "uint256",
          "name": "id",
          "type": "uint256"
        },
        {
          "internalType": "string",
          "name": "handle",
          "type": "string"
        },
        {
          "internalType": "uint256",
          "name": "platformId",
          "type": "uint256"
        },
        {
          "internalType": "string",
          "name": "dataUri",
          "type": "string"
        }
      ],
      "stateMutability": "view",
      "type": "function"
    },
    {
      "inputs": [],
      "name": "proxiableUUID",
      "outputs": [
        {
          "internalType": "bytes32",
          "name": "",
          "type": "bytes32"
        }
      ],
      "stateMutability": "view",
      "type": "function"
    },
    {
      "inputs": [
        {
          "internalType": "address",
          "name": "_forwarder",
          "type": "address"
        }
      ],
      "name": "removeTrustedForwarder",
      "outputs": [],
      "stateMutability": "nonpayable",
      "type": "function"
    },
    {
      "inputs": [],
      "name": "renounceOwnership",
      "outputs": [],
      "stateMutability": "nonpayable",
      "type": "function"
    },
    {
      "inputs": [
        {
          "internalType": "address",
          "name": "from",
          "type": "address"
        },
        {
          "internalType": "address",
          "name": "to",
          "type": "address"
        },
        {
          "internalType": "uint256",
          "name": "tokenId",
          "type": "uint256"
        }
      ],
      "name": "safeTransferFrom",
      "outputs": [],
      "stateMutability": "nonpayable",
      "type": "function"
    },
    {
      "inputs": [
        {
          "internalType": "address",
          "name": "from",
          "type": "address"
        },
        {
          "internalType": "address",
          "name": "to",
          "type": "address"
        },
        {
          "internalType": "uint256",
          "name": "tokenId",
          "type": "uint256"
        },
        {
          "internalType": "bytes",
          "name": "data",
          "type": "bytes"
        }
      ],
      "name": "safeTransferFrom",
      "outputs": [],
      "stateMutability": "nonpayable",
      "type": "function"
    },
    {
      "inputs": [
        {
          "internalType": "address",
          "name": "operator",
          "type": "address"
        },
        {
          "internalType": "bool",
          "name": "approved",
          "type": "bool"
        }
      ],
      "name": "setApprovalForAll",
      "outputs": [],
      "stateMutability": "nonpayable",
      "type": "function"
    },
    {
      "inputs": [
        {
          "internalType": "bytes4",
          "name": "interfaceId",
          "type": "bytes4"
        }
      ],
      "name": "supportsInterface",
      "outputs": [
        {
          "internalType": "bool",
          "name": "",
          "type": "bool"
        }
      ],
      "stateMutability": "view",
      "type": "function"
    },
    {
      "inputs": [],
      "name": "symbol",
      "outputs": [
        {
          "internalType": "string",
          "name": "",
          "type": "string"
        }
      ],
      "stateMutability": "view",
      "type": "function"
    },
    {
      "inputs": [
        {
          "internalType": "string",
          "name": "",
          "type": "string"
        }
      ],
      "name": "takenHandles",
      "outputs": [
        {
          "internalType": "bool",
          "name": "",
          "type": "bool"
        }
      ],
      "stateMutability": "view",
      "type": "function"
    },
    {
      "inputs": [],
      "name": "talentLayerPlatformIdContract",
      "outputs": [
        {
          "internalType": "contract ITalentLayerPlatformID",
          "name": "",
          "type": "address"
        }
      ],
      "stateMutability": "view",
      "type": "function"
    },
    {
      "inputs": [
        {
          "internalType": "uint256",
          "name": "tokenId",
          "type": "uint256"
        }
      ],
      "name": "tokenURI",
      "outputs": [
        {
          "internalType": "string",
          "name": "",
          "type": "string"
        }
      ],
      "stateMutability": "view",
      "type": "function"
    },
    {
      "inputs": [],
      "name": "totalSupply",
      "outputs": [
        {
          "internalType": "uint256",
          "name": "",
          "type": "uint256"
        }
      ],
      "stateMutability": "view",
      "type": "function"
    },
    {
      "inputs": [
        {
          "internalType": "address",
          "name": "from",
          "type": "address"
        },
        {
          "internalType": "address",
          "name": "to",
          "type": "address"
        },
        {
          "internalType": "uint256",
          "name": "tokenId",
          "type": "uint256"
        }
      ],
      "name": "transferFrom",
      "outputs": [],
      "stateMutability": "nonpayable",
      "type": "function"
    },
    {
      "inputs": [
        {
          "internalType": "address",
          "name": "newOwner",
          "type": "address"
        }
      ],
      "name": "transferOwnership",
      "outputs": [],
      "stateMutability": "nonpayable",
      "type": "function"
    },
    {
      "inputs": [
        {
          "internalType": "uint256",
          "name": "_mintFee",
          "type": "uint256"
        }
      ],
      "name": "updateMintFee",
      "outputs": [],
      "stateMutability": "nonpayable",
      "type": "function"
    },
    {
      "inputs": [
        {
          "internalType": "uint256",
          "name": "_tokenId",
          "type": "uint256"
        },
        {
          "internalType": "string",
          "name": "_newCid",
          "type": "string"
        }
      ],
      "name": "updateProfileData",
      "outputs": [],
      "stateMutability": "nonpayable",
      "type": "function"
    },
    {
      "inputs": [
        {
          "internalType": "address",
          "name": "newImplementation",
          "type": "address"
        }
      ],
      "name": "upgradeTo",
      "outputs": [],
      "stateMutability": "nonpayable",
      "type": "function"
    },
    {
      "inputs": [
        {
          "internalType": "address",
          "name": "newImplementation",
          "type": "address"
        },
        {
          "internalType": "bytes",
          "name": "data",
          "type": "bytes"
        }
      ],
      "name": "upgradeToAndCall",
      "outputs": [],
      "stateMutability": "payable",
      "type": "function"
    },
    {
      "inputs": [
        {
          "internalType": "address",
          "name": "_owner",
          "type": "address"
        }
      ],
      "name": "walletOfOwner",
      "outputs": [
        {
          "internalType": "uint256",
          "name": "",
          "type": "uint256"
        }
      ],
      "stateMutability": "view",
      "type": "function"
    },
    {
      "inputs": [],
      "name": "withdraw",
      "outputs": [],
      "stateMutability": "nonpayable",
      "type": "function"
    }
  ],
  "bytecode": "0x60a0604052306080523480156200001557600080fd5b506200002062000026565b620000e8565b600054610100900460ff1615620000935760405162461bcd60e51b815260206004820152602760248201527f496e697469616c697a61626c653a20636f6e747261637420697320696e697469604482015266616c697a696e6760c81b606482015260840160405180910390fd5b60005460ff9081161015620000e6576000805460ff191660ff9081179091556040519081527f7f26b83ff96e1f2b6a682f133852f6798a09c465da95921460cefb38474024989060200160405180910390a15b565b608051614d3f62000120600039600081816109de01528181610a1e01528181610c2001528181610c600152610cf30152614d3f6000f3fe6080604052600436106102255760003560e01c80636352211e11610123578063b88d4fde116100ab578063e985e9c51161006f578063e985e9c514610653578063f08f4f641461069c578063f160068f146106c9578063f2fde38b146106e9578063f577a5001461070957600080fd5b8063b88d4fde146105a3578063c36fe3d6146105c3578063c4d66de8146105f3578063c87b56dd14610613578063dc33e6811461063357600080fd5b806384017e52116100f257806384017e521461051057806389c1694c146105305780638da5cb5b1461055057806395d89b411461056e578063a22cb4651461058357600080fd5b80636352211e146104a857806370a08231146104c8578063715018a6146104e857806377097fc8146104fd57600080fd5b806326d00668116101b1578063438b630011610175578063438b6300146104075780634f1ef2861461042757806352d1902d1461043a578063572b6c051461044f5780635c4b03481461048857600080fd5b806326d00668146103925780633659cfe6146103b25780633751d89c146103d25780633ccfd60b146103f257806342842e0e1461037257600080fd5b806313966db5116101f857806313966db5146102db5780631499f9e61461030057806318160ddd146103215780632106beec1461033657806323b872dd1461037257600080fd5b806301ffc9a71461022a57806306fdde031461025f578063081812fc14610281578063095ea7b3146102b9575b600080fd5b34801561023657600080fd5b5061024a610245366004612b4d565b610729565b60405190151581526020015b60405180910390f35b34801561026b57600080fd5b5061027461077b565b6040516102569190612bc2565b34801561028d57600080fd5b506102a161029c366004612bd5565b61080d565b6040516001600160a01b039091168152602001610256565b3480156102c557600080fd5b506102d96102d4366004612c0a565b610834565b005b3480156102e757600080fd5b506102f26101315481565b604051908152602001610256565b34801561030c57600080fd5b5061012e546102a1906001600160a01b031681565b34801561032d57600080fd5b506102f261095c565b34801561034257600080fd5b5061024a610351366004612cd7565b805160208183018101805161012f8252928201919093012091525460ff1681565b34801561037e57600080fd5b506102d961038d366004612d0c565b505050565b34801561039e57600080fd5b506102d96103ad366004612d48565b610970565b3480156103be57600080fd5b506102d96103cd366004612d48565b6109d3565b3480156103de57600080fd5b506102d96103ed366004612d48565b610ab3565b3480156103fe57600080fd5b506102d9610b0c565b34801561041357600080fd5b506102f2610422366004612d48565b610bbe565b6102d9610435366004612d63565b610c15565b34801561044657600080fd5b506102f2610ce6565b34801561045b57600080fd5b5061024a61046a366004612d48565b6001600160a01b031660009081526065602052604090205460ff1690565b34801561049457600080fd5b506102f26104a3366004612d48565b610d99565b3480156104b457600080fd5b506102a16104c3366004612bd5565b610dc2565b3480156104d457600080fd5b506102f26104e3366004612d48565b610e22565b3480156104f457600080fd5b506102d9610ea8565b6102d961050b366004612db1565b610ebc565b34801561051c57600080fd5b506102d961052b366004612bd5565b6110fa565b34801561053c57600080fd5b506102d961054b366004612de2565b611138565b34801561055c57600080fd5b506033546001600160a01b03166102a1565b34801561057a57600080fd5b50610274611301565b34801561058f57600080fd5b506102d961059e366004612e39565b611310565b3480156105af57600080fd5b506102d96105be366004612e75565b611322565b3480156105cf57600080fd5b506105e36105de366004612bd5565b6113a7565b6040516102569493929190612edd565b3480156105ff57600080fd5b506102d961060e366004612d48565b6114e1565b34801561061f57600080fd5b5061027461062e366004612bd5565b61166a565b34801561063f57600080fd5b506102f261064e366004612d48565b611675565b34801561065f57600080fd5b5061024a61066e366004612f19565b6001600160a01b039182166000908152609d6020908152604080832093909416825291909152205460ff1690565b3480156106a857600080fd5b506106bc6106b7366004612bd5565b611680565b6040516102569190612f4c565b3480156106d557600080fd5b506102d96106e4366004612db1565b61187b565b3480156106f557600080fd5b506102d9610704366004612d48565b61195c565b34801561071557600080fd5b506102d9610724366004612bd5565b6119d2565b60006001600160e01b031982166380ac58cd60e01b148061075a57506001600160e01b03198216635b5e139f60e01b145b8061077557506301ffc9a760e01b6001600160e01b03198316145b92915050565b60606098805461078a90612f99565b80601f01602080910402602001604051908101604052809291908181526020018280546107b690612f99565b80156108035780601f106107d857610100808354040283529160200191610803565b820191906000526020600020905b8154815290600101906020018083116107e657829003601f168201915b5050505050905090565b600061081882611a30565b506000908152609c60205260409020546001600160a01b031690565b600061083f82610dc2565b9050806001600160a01b0316836001600160a01b031614156108b25760405162461bcd60e51b815260206004820152602160248201527f4552433732313a20617070726f76616c20746f2063757272656e74206f776e656044820152603960f91b60648201526084015b60405180910390fd5b806001600160a01b03166108c4611a8f565b6001600160a01b031614806108e057506108e08161066e611a8f565b6109525760405162461bcd60e51b815260206004820152603d60248201527f4552433732313a20617070726f76652063616c6c6572206973206e6f7420746f60448201527f6b656e206f776e6572206f7220617070726f76656420666f7220616c6c00000060648201526084016108a9565b61038d8383611a9e565b6000600161096a6101325490565b03905090565b610978611b0c565b6001600160a01b038116600081815260656020908152604091829020805460ff1916600117905590519182527f3ef8564460ada92419608d823c014975d98f8104d7d1e68c222967ac6814cd9791015b60405180910390a150565b306001600160a01b037f0000000000000000000000000000000000000000000000000000000000000000161415610a1c5760405162461bcd60e51b81526004016108a990612fd4565b7f00000000000000000000000000000000000000000000000000000000000000006001600160a01b0316610a65600080516020614c83833981519152546001600160a01b031690565b6001600160a01b031614610a8b5760405162461bcd60e51b81526004016108a990613020565b610a9481611b85565b60408051600080825260208201909252610ab091839190611b8d565b50565b610abb611b0c565b6001600160a01b038116600081815260656020908152604091829020805460ff1916905590519182527fd2d636efcad0cea42e170256f4c5d8b1cd81e47b855557edaf44014e6cc4cee691016109c8565b610b14611b0c565b6000610b1e611a8f565b6001600160a01b03164760405160006040518083038185875af1925050503d8060008114610b68576040519150601f19603f3d011682016040523d82523d6000602084013e610b6d565b606091505b5050905080610ab05760405162461bcd60e51b815260206004820152601860248201527f4661696c656420746f207769746864726177204574686572000000000000000060448201526064016108a9565b600060015b61013254811015610c0c576000818152609a60205260409020546001600160a01b03908116908416811415610bf9575092915050565b81610c0381613082565b92505050610bc3565b50600092915050565b306001600160a01b037f0000000000000000000000000000000000000000000000000000000000000000161415610c5e5760405162461bcd60e51b81526004016108a990612fd4565b7f00000000000000000000000000000000000000000000000000000000000000006001600160a01b0316610ca7600080516020614c83833981519152546001600160a01b031690565b6001600160a01b031614610ccd5760405162461bcd60e51b81526004016108a990613020565b610cd682611b85565b610ce282826001611b8d565b5050565b6000306001600160a01b037f00000000000000000000000000000000000000000000000000000000000000001614610d865760405162461bcd60e51b815260206004820152603860248201527f555550535570677261646561626c653a206d757374206e6f742062652063616c60448201527f6c6564207468726f7567682064656c656761746563616c6c000000000000000060648201526084016108a9565b50600080516020614c8383398151915290565b60006101306000610da984610bbe565b8152602001908152602001600020600201549050919050565b6000818152609a60205260408120546001600160a01b0316806107755760405162461bcd60e51b8152602060048201526018602482015277115490cdcc8c4e881a5b9d985b1a59081d1bdad95b88125160421b60448201526064016108a9565b60006001600160a01b038216610e8c5760405162461bcd60e51b815260206004820152602960248201527f4552433732313a2061646472657373207a65726f206973206e6f7420612076616044820152683634b21037bbb732b960b91b60648201526084016108a9565b506001600160a01b03166000908152609b602052604090205490565b610eb0611b0c565b610eba6000611d07565b565b610131543414610f1a5760405162461bcd60e51b8152602060048201526024808201527f496e636f727265637420616d6f756e74206f662045544820666f72206d696e746044820152632066656560e01b60648201526084016108a9565b610f22611a8f565b8183610f2d83611675565b15610f7a5760405162461bcd60e51b815260206004820181905260248201527f596f7520616c7265616479206861766520612054616c656e744c61796572494460448201526064016108a9565b600282511015610fbf5760405162461bcd60e51b815260206004820152601060248201526f12185b991b19481d1bdbc81cda1bdc9d60821b60448201526064016108a9565b600a825111156110035760405162461bcd60e51b815260206004820152600f60248201526e48616e646c6520746f6f206c6f6e6760881b60448201526064016108a9565b61012f8260405161101491906130b9565b9081526040519081900360200190205460ff161561106b5760405162461bcd60e51b81526020600482015260146024820152732430b73236329030b63932b0b23c903a30b5b2b760611b60448201526064016108a9565b61012e5460405162f577a560e81b8152600481018390526001600160a01b039091169063f577a5009060240160006040518083038186803b1580156110af57600080fd5b505afa1580156110c3573d6000803e3d6000fd5b5050505060006110d1611a8f565b90506110e6816110e16101325490565b611d59565b6110f281868834611d73565b505050505050565b611102611b0c565b6101318190556040518181527f38fbb1c8b109c430f0c030e7ed076cf5611a307773a4e8e365601e8f8bceaec6906020016109c8565b81818461114483611675565b156111915760405162461bcd60e51b815260206004820181905260248201527f596f7520616c7265616479206861766520612054616c656e744c61796572494460448201526064016108a9565b6002825110156111d65760405162461bcd60e51b815260206004820152601060248201526f12185b991b19481d1bdbc81cda1bdc9d60821b60448201526064016108a9565b600a8251111561121a5760405162461bcd60e51b815260206004820152600f60248201526e48616e646c6520746f6f206c6f6e6760881b60448201526064016108a9565b61012f8260405161122b91906130b9565b9081526040519081900360200190205460ff16156112825760405162461bcd60e51b81526020600482015260146024820152732430b73236329030b63932b0b23c903a30b5b2b760611b60448201526064016108a9565b61012e5460405162f577a560e81b8152600481018390526001600160a01b039091169063f577a5009060240160006040518083038186803b1580156112c657600080fd5b505afa1580156112da573d6000803e3d6000fd5b505050506112e6611b0c565b6112f4856110e16101325490565b6110f28585886000611d73565b60606099805461078a90612f99565b610ce261131b611a8f565b8383611e41565b61133361132d611a8f565b83611f10565b6113955760405162461bcd60e51b815260206004820152602d60248201527f4552433732313a2063616c6c6572206973206e6f7420746f6b656e206f776e6560448201526c1c881bdc88185c1c1c9bdd9959609a1b60648201526084016108a9565b6113a184848484611f8f565b50505050565b61013060205260009081526040902080546001820180549192916113ca90612f99565b80601f01602080910402602001604051908101604052809291908181526020018280546113f690612f99565b80156114435780601f1061141857610100808354040283529160200191611443565b820191906000526020600020905b81548152906001019060200180831161142657829003601f168201915b50505050509080600201549080600301805461145e90612f99565b80601f016020809104026020016040519081016040528092919081815260200182805461148a90612f99565b80156114d75780601f106114ac576101008083540402835291602001916114d7565b820191906000526020600020905b8154815290600101906020018083116114ba57829003601f168201915b5050505050905084565b600054610100900460ff16158080156115015750600054600160ff909116105b8061151b5750303b15801561151b575060005460ff166001145b61157e5760405162461bcd60e51b815260206004820152602e60248201527f496e697469616c697a61626c653a20636f6e747261637420697320616c72656160448201526d191e481a5b9a5d1a585b1a5e995960921b60648201526084016108a9565b6000805460ff1916600117905580156115a1576000805461ff0019166101001790555b6115a9611fc2565b6115f36040518060400160405280600d81526020016c15185b195b9d13185e595c9251609a1b8152506040518060400160405280600381526020016215125160ea1b815250611ff1565b6115fb612022565b61012e80546001600160a01b0319166001600160a01b038416179055610132805460010190558015610ce2576000805461ff0019169055604051600181527f7f26b83ff96e1f2b6a682f133852f6798a09c465da95921460cefb38474024989060200160405180910390a15050565b606061077582612049565b600061077582610e22565b6116ab6040518060800160405280600081526020016060815260200160008152602001606081525090565b6000828152609a60205260409020546001600160a01b031661171d5760405162461bcd60e51b815260206004820152602560248201527f54616c656e744c6179657249443a2050726f66696c6520646f6573206e6f7420604482015264195e1a5cdd60da1b60648201526084016108a9565b61013060008381526020019081526020016000206040518060800160405290816000820154815260200160018201805461175690612f99565b80601f016020809104026020016040519081016040528092919081815260200182805461178290612f99565b80156117cf5780601f106117a4576101008083540402835291602001916117cf565b820191906000526020600020905b8154815290600101906020018083116117b257829003601f168201915b50505050508152602001600282015481526020016003820180546117f290612f99565b80601f016020809104026020016040519081016040528092919081815260200182805461181e90612f99565b801561186b5780601f106118405761010080835404028352916020019161186b565b820191906000526020600020905b81548152906001019060200180831161184e57829003601f168201915b5050505050815250509050919050565b611883611a8f565b6001600160a01b031661189583610dc2565b6001600160a01b0316146118a857600080fd5b60008151116118f95760405162461bcd60e51b815260206004820152601f60248201527f53686f756c642070726f7669646520612076616c69642049504653205552490060448201526064016108a9565b600082815261013060209081526040909120825161191f92600390920191840190612a9e565b50817f613807bd6768f626264e7eb664a65ca99a0d930f8fd8a5b868491a592eb57f72826040516119509190612bc2565b60405180910390a25050565b611964611b0c565b6001600160a01b0381166119c95760405162461bcd60e51b815260206004820152602660248201527f4f776e61626c653a206e6577206f776e657220697320746865207a65726f206160448201526564647265737360d01b60648201526084016108a9565b610ab081611d07565b6000811180156119e457506101325481105b610ab05760405162461bcd60e51b815260206004820152601f60248201527f596f7572204944206973206e6f7420612076616c696420746f6b656e2049440060448201526064016108a9565b6000818152609a60205260409020546001600160a01b0316610ab05760405162461bcd60e51b8152602060048201526018602482015277115490cdcc8c4e881a5b9d985b1a59081d1bdad95b88125160421b60448201526064016108a9565b6000611a99612174565b905090565b6000818152609c6020526040902080546001600160a01b0319166001600160a01b0384169081179091558190611ad382610dc2565b6001600160a01b03167f8c5be1e5ebec7d5bd14f71427d1e84f3dd0314c0f7b2291e5b200ac8c7c3b92560405160405180910390a45050565b611b14611a8f565b6001600160a01b0316611b2f6033546001600160a01b031690565b6001600160a01b031614610eba5760405162461bcd60e51b815260206004820181905260248201527f4f776e61626c653a2063616c6c6572206973206e6f7420746865206f776e657260448201526064016108a9565b610ab0611b0c565b7f4910fdfa16fed3260ed0e7147f7cc6da11a60208b5b9406d12a635614ffd91435460ff1615611bc05761038d836121ad565b826001600160a01b03166352d1902d6040518163ffffffff1660e01b815260040160206040518083038186803b158015611bf957600080fd5b505afa925050508015611c29575060408051601f3d908101601f19168201909252611c26918101906130d5565b60015b611c8c5760405162461bcd60e51b815260206004820152602e60248201527f45524331393637557067726164653a206e657720696d706c656d656e7461746960448201526d6f6e206973206e6f74205555505360901b60648201526084016108a9565b600080516020614c838339815191528114611cfb5760405162461bcd60e51b815260206004820152602960248201527f45524331393637557067726164653a20756e737570706f727465642070726f786044820152681a58589b195555525160ba1b60648201526084016108a9565b5061038d838383612249565b603380546001600160a01b038381166001600160a01b0319831681179093556040519116919082907f8be0079c531659141344cd1fd0a4f28419497f9722a3daafe3b4186f6b6457e090600090a35050565b610ce282826040518060200160405280600081525061226e565b6000611d7f6101325490565b9050611d9061013280546001019055565b6000818152610130602090815260409091206002810185905585519091611dbe916001840191880190612a9e565b50600161012f86604051611dd291906130b9565b908152604051908190036020018120805492151560ff19909316929092179091556001600160a01b038716907f8475f1ba3b06c1e11c870cbbf9753ca9a8292ea0b203262f682de476dc268f8c90611e319085908990899089906130ee565b60405180910390a2505050505050565b816001600160a01b0316836001600160a01b03161415611ea35760405162461bcd60e51b815260206004820152601960248201527f4552433732313a20617070726f766520746f2063616c6c65720000000000000060448201526064016108a9565b6001600160a01b038381166000818152609d6020908152604080832094871680845294825291829020805460ff191686151590811790915591519182527f17307eab39ab6107e8899845ad3d59bd9653f200f220920489ca2b5937696c31910160405180910390a3505050565b600080611f1c83610dc2565b9050806001600160a01b0316846001600160a01b03161480611f6357506001600160a01b038082166000908152609d602090815260408083209388168352929052205460ff165b80611f875750836001600160a01b0316611f7c8461080d565b6001600160a01b0316145b949350505050565b611f9a8484846122a1565b611fa684848484612412565b6113a15760405162461bcd60e51b81526004016108a99061311a565b600054610100900460ff16611fe95760405162461bcd60e51b81526004016108a99061316c565b610eba612526565b600054610100900460ff166120185760405162461bcd60e51b81526004016108a99061316c565b610ce2828261255d565b600054610100900460ff16610eba5760405162461bcd60e51b81526004016108a99061316c565b6000818152610130602052604081206001018054606092919061206b90612f99565b80601f016020809104026020016040519081016040528092919081815260200182805461209790612f99565b80156120e45780601f106120b9576101008083540402835291602001916120e4565b820191906000526020600020905b8154815290600101906020018083116120c757829003601f168201915b5050505050905060006121158260405160200161210191906131b7565b6040516020818303038152906040526125ab565b6040516020016121259190614a56565b604051602081830303815290604052905061214c8282604051602001612101929190614a9b565b60405160200161215c9190614b2e565b60405160208183030381529060405292505050919050565b60006014361080159061219657503360009081526065602052604090205460ff165b156121a8575060131936013560601c90565b503390565b6001600160a01b0381163b61221a5760405162461bcd60e51b815260206004820152602d60248201527f455243313936373a206e657720696d706c656d656e746174696f6e206973206e60448201526c1bdd08184818dbdb9d1c9858dd609a1b60648201526084016108a9565b600080516020614c8383398151915280546001600160a01b0319166001600160a01b0392909216919091179055565b612252836126ff565b60008251118061225f5750805b1561038d576113a1838361273f565b6122788383612833565b6122856000848484612412565b61038d5760405162461bcd60e51b81526004016108a99061311a565b826001600160a01b03166122b482610dc2565b6001600160a01b0316146122da5760405162461bcd60e51b81526004016108a990614b73565b6001600160a01b03821661233c5760405162461bcd60e51b8152602060048201526024808201527f4552433732313a207472616e7366657220746f20746865207a65726f206164646044820152637265737360e01b60648201526084016108a9565b61234983838360016129cc565b826001600160a01b031661235c82610dc2565b6001600160a01b0316146123825760405162461bcd60e51b81526004016108a990614b73565b6000818152609c6020908152604080832080546001600160a01b03199081169091556001600160a01b03878116808652609b8552838620805460001901905590871680865283862080546001019055868652609a90945282852080549092168417909155905184937fddf252ad1be2c89b69c2b068fc378daa952ba7f163c4a11628f55a4df523b3ef91a4505050565b60006001600160a01b0384163b1561251b57836001600160a01b031663150b7a0261243b611a8f565b8786866040518563ffffffff1660e01b815260040161245d9493929190614bb8565b602060405180830381600087803b15801561247757600080fd5b505af19250505080156124a7575060408051601f3d908101601f191682019092526124a491810190614bf5565b60015b612501573d8080156124d5576040519150601f19603f3d011682016040523d82523d6000602084013e6124da565b606091505b5080516124f95760405162461bcd60e51b81526004016108a99061311a565b805181602001fd5b6001600160e01b031916630a85bd0160e11b149050611f87565b506001949350505050565b600054610100900460ff1661254d5760405162461bcd60e51b81526004016108a99061316c565b610eba612558611a8f565b611d07565b600054610100900460ff166125845760405162461bcd60e51b81526004016108a99061316c565b8151612597906098906020850190612a9e565b50805161038d906099906020840190612a9e565b60608151600014156125cb57505060408051602081019091526000815290565b6000604051806060016040528060408152602001614ca360409139905060006003845160026125fa9190614c12565b6126049190614c2a565b61260f906004614c4c565b67ffffffffffffffff81111561262757612627612c34565b6040519080825280601f01601f191660200182016040528015612651576020820181803683370190505b509050600182016020820185865187015b808210156126bd576003820191508151603f8160121c168501518453600184019350603f81600c1c168501518453600184019350603f8160061c168501518453600184019350603f8116850151845350600183019250612662565b50506003865106600181146126d957600281146126ec576126f4565b603d6001830353603d60028303536126f4565b603d60018303535b509195945050505050565b612708816121ad565b6040516001600160a01b038216907fbc7cd75a20ee27fd9adebab32041f755214dbc6bffa90cc0225b39da2e5c2d3b90600090a250565b60606001600160a01b0383163b6127a75760405162461bcd60e51b815260206004820152602660248201527f416464726573733a2064656c65676174652063616c6c20746f206e6f6e2d636f6044820152651b9d1c9858dd60d21b60648201526084016108a9565b600080846001600160a01b0316846040516127c291906130b9565b600060405180830381855af49150503d80600081146127fd576040519150601f19603f3d011682016040523d82523d6000602084013e612802565b606091505b509150915061282a8282604051806060016040528060278152602001614ce360279139612a54565b95945050505050565b6001600160a01b0382166128895760405162461bcd60e51b815260206004820181905260248201527f4552433732313a206d696e7420746f20746865207a65726f206164647265737360448201526064016108a9565b6000818152609a60205260409020546001600160a01b0316156128ee5760405162461bcd60e51b815260206004820152601c60248201527f4552433732313a20746f6b656e20616c7265616479206d696e7465640000000060448201526064016108a9565b6128fc6000838360016129cc565b6000818152609a60205260409020546001600160a01b0316156129615760405162461bcd60e51b815260206004820152601c60248201527f4552433732313a20746f6b656e20616c7265616479206d696e7465640000000060448201526064016108a9565b6001600160a01b0382166000818152609b6020908152604080832080546001019055848352609a90915280822080546001600160a01b0319168417905551839291907fddf252ad1be2c89b69c2b068fc378daa952ba7f163c4a11628f55a4df523b3ef908290a45050565b60018111156113a1576001600160a01b03841615612a12576001600160a01b0384166000908152609b602052604081208054839290612a0c908490614c6b565b90915550505b6001600160a01b038316156113a1576001600160a01b0383166000908152609b602052604081208054839290612a49908490614c12565b909155505050505050565b60608315612a63575081612a6d565b612a6d8383612a74565b9392505050565b815115612a845781518083602001fd5b8060405162461bcd60e51b81526004016108a99190612bc2565b828054612aaa90612f99565b90600052602060002090601f016020900481019282612acc5760008555612b12565b82601f10612ae557805160ff1916838001178555612b12565b82800160010185558215612b12579182015b82811115612b12578251825591602001919060010190612af7565b50612b1e929150612b22565b5090565b5b80821115612b1e5760008155600101612b23565b6001600160e01b031981168114610ab057600080fd5b600060208284031215612b5f57600080fd5b8135612a6d81612b37565b60005b83811015612b85578181015183820152602001612b6d565b838111156113a15750506000910152565b60008151808452612bae816020860160208601612b6a565b601f01601f19169290920160200192915050565b602081526000612a6d6020830184612b96565b600060208284031215612be757600080fd5b5035919050565b80356001600160a01b0381168114612c0557600080fd5b919050565b60008060408385031215612c1d57600080fd5b612c2683612bee565b946020939093013593505050565b634e487b7160e01b600052604160045260246000fd5b600082601f830112612c5b57600080fd5b813567ffffffffffffffff80821115612c7657612c76612c34565b604051601f8301601f19908116603f01168101908282118183101715612c9e57612c9e612c34565b81604052838152866020858801011115612cb757600080fd5b836020870160208301376000602085830101528094505050505092915050565b600060208284031215612ce957600080fd5b813567ffffffffffffffff811115612d0057600080fd5b611f8784828501612c4a565b600080600060608486031215612d2157600080fd5b612d2a84612bee565b9250612d3860208501612bee565b9150604084013590509250925092565b600060208284031215612d5a57600080fd5b612a6d82612bee565b60008060408385031215612d7657600080fd5b612d7f83612bee565b9150602083013567ffffffffffffffff811115612d9b57600080fd5b612da785828601612c4a565b9150509250929050565b60008060408385031215612dc457600080fd5b82359150602083013567ffffffffffffffff811115612d9b57600080fd5b600080600060608486031215612df757600080fd5b83359250612e0760208501612bee565b9150604084013567ffffffffffffffff811115612e2357600080fd5b612e2f86828701612c4a565b9150509250925092565b60008060408385031215612e4c57600080fd5b612e5583612bee565b915060208301358015158114612e6a57600080fd5b809150509250929050565b60008060008060808587031215612e8b57600080fd5b612e9485612bee565b9350612ea260208601612bee565b925060408501359150606085013567ffffffffffffffff811115612ec557600080fd5b612ed187828801612c4a565b91505092959194509250565b848152608060208201526000612ef66080830186612b96565b8460408401528281036060840152612f0e8185612b96565b979650505050505050565b60008060408385031215612f2c57600080fd5b612f3583612bee565b9150612f4360208401612bee565b90509250929050565b60208152815160208201526000602083015160806040840152612f7260a0840182612b96565b9050604084015160608401526060840151601f1984830301608085015261282a8282612b96565b600181811c90821680612fad57607f821691505b60208210811415612fce57634e487b7160e01b600052602260045260246000fd5b50919050565b6020808252602c908201527f46756e6374696f6e206d7573742062652063616c6c6564207468726f7567682060408201526b19195b1959d85d1958d85b1b60a21b606082015260800190565b6020808252602c908201527f46756e6374696f6e206d7573742062652063616c6c6564207468726f7567682060408201526b6163746976652070726f787960a01b606082015260800190565b634e487b7160e01b600052601160045260246000fd5b60006000198214156130965761309661306c565b5060010190565b600081516130af818560208601612b6a565b9290920192915050565b600082516130cb818460208701612b6a565b9190910192915050565b6000602082840312156130e757600080fd5b5051919050565b8481526080602082015260006131076080830186612b96565b6040830194909452506060015292915050565b60208082526032908201527f4552433732313a207472616e7366657220746f206e6f6e20455243373231526560408201527131b2b4bb32b91034b6b83632b6b2b73a32b960711b606082015260800190565b6020808252602b908201527f496e697469616c697a61626c653a20636f6e7472616374206973206e6f74206960408201526a6e697469616c697a696e6760a81b606082015260800190565b7f3c73766720786d6c6e733d22687474703a2f2f7777772e77332e6f72672f323081527f30302f737667222076696577426f783d223020302037323020373230223e3c6460208201527f6566733e3c6c696e6561724772616469656e742069643d2261222078313d223660408201527f372e3934222079313d223136392e3438222078323d223637302e39382220793260608201527f3d223536322e383622206772616469656e74556e6974733d227573657253706160808201527f63654f6e557365223e3c73746f70206f66667365743d2230222073746f702d6360a08201527f6f6c6f723d2223313761396332222f3e3c73746f70206f66667365743d222e3160c08201527f32222073746f702d636f6c6f723d2223316161396263222f3e3c73746f70206f60e08201527f66667365743d222e3239222073746f702d636f6c6f723d2223323561626162226101008201527f2f3e3c73746f70206f66667365743d222e3438222073746f702d636f6c6f723d6101208201527f2223333561643866222f3e3c73746f70206f66667365743d222e3634222073746101408201527f6f702d636f6c6f723d2223343862303732222f3e3c73746f70206f66667365746101608201527f3d222e3738222073746f702d636f6c6f723d2223353962323534222f3e3c73746101808201527f6f70206f66667365743d2231222073746f702d636f6c6f723d222337616237326101a08201527f30222f3e3c2f6c696e6561724772616469656e743e3c2f646566733e3c7061746101c08201527f68207374796c653d2266696c6c3a75726c282361292220643d224d30203068376101e08201527f32307637323048307a222f3e3c7061746820643d224d34372e30352039322e336102008201527f375635332e38344833332e32395634366833362e383576372e38344835362e346102208201527f317633382e3532682d392e33365a6d33352e37312d32332e33342d382e30372d6102408201527f312e3436632e39312d332e323520322e34372d352e363520342e36382d372e326102608201527f3120322e32312d312e353620352e352d322e333420392e38372d322e333420336102808201527f2e3936203020362e39322e343720382e383620312e343120312e39342e3934206102a08201527f332e333120322e313320342e3120332e353773312e313920342e3120312e31396102c08201527f20372e39366c2d2e312031302e3337633020322e39352e313420352e31332e346102e08201527f3320362e35332e323820312e342e383220322e393120312e3620342e3531682d6103008201527f382e3739632d2e32332d2e35392d2e35322d312e34372d2e38352d322e36332d6103208201527f2e31352d2e35332d2e32352d2e38382d2e33322d312e30342d312e353220312e6103408201527f34382d332e313420322e35382d342e383720332e3332732d332e353720312e316103608201527f312d352e353420312e3131632d332e343620302d362e31382d2e39342d382e316103808201527f382d322e38322d312e39392d312e38382d322e39392d342e32352d322e39392d6103a08201527f372e313220302d312e392e34352d332e353920312e33362d352e303873322e316103c08201527f382d322e363320332e38312d332e343220332e39392d312e343820372e30372d6103e08201527f322e303763342e31352d2e373820372e30332d312e353120382e36332d322e316104008201527f38762d2e383963302d312e37312d2e34322d322e39332d312e32372d332e36356104208201527f732d322e34342d312e30392d342e37382d312e3039632d312e353820302d322e6104408201527f38322e33312d332e372e39332d2e38392e36322d312e3620312e37312d322e316104608201527f3520332e32375a6d31312e383920372e3231632d312e31342e33382d322e39346104808201527f2e38332d352e343120312e33362d322e34372e35332d342e303820312e30342d6104a08201527f342e383420312e35352d312e31362e38322d312e373420312e38372d312e37346104c08201527f20332e3133732e343620322e333220312e333920332e3233632e39332e3931206104e08201527f322e313120312e333620332e353420312e333620312e36203020332e31332d2e6105008201527f353320342e35392d312e353820312e30382d2e3820312e37382d312e373820326105208201527f2e31322d322e39342e32332d2e37362e33352d322e322e33352d342e3333762d6105408201527f312e37375a6d31372e34392031362e313356343668382e38397634362e3337686105608201527f2d382e38395a6d33372e34352d31302e363920382e383620312e3439632d312e6105808201527f313420332e32352d322e393420352e37322d352e333920372e3432732d352e356105a08201527f3320322e35352d392e323220322e3535632d352e383420302d31302e31362d316105c08201527f2e39312d31322e39372d352e37322d322e32312d332e30362d332e33322d362e6105e08201527f39322d332e33322d31312e353820302d352e353720312e34362d392e393320346106008201527f2e33362d31332e303820322e39312d332e313520362e35392d342e37332031316106208201527f2e30342d342e37332035203020382e393420312e36352031312e383320342e396106408201527f3573342e323720382e333620342e31342031352e3137682d32322e3237632e306106608201527f3620322e36342e373820342e363920322e313520362e313520312e333720312e6106808201527f343720332e303820322e3220352e313220322e3220312e3339203020322e35366106a08201527f2d2e333820332e35312d312e31342e39352d2e373620312e36372d312e3938206106c08201527f322e31352d332e36375a6d2e35312d382e3938632d2e30362d322e35372d2e376106e08201527f332d342e35332d312e39392d352e38372d312e32372d312e33342d322e38312d6107008201527f322e30312d342e36322d322e30312d312e393420302d332e35342e37312d342e6107208201527f383120322e31322d312e323720312e34312d312e383920332e33332d312e38376107408201527f20352e37366831332e32385a6d34362e36322031392e3637682d382e383956376107608201527f352e323363302d332e36332d2e31392d352e39372d2e35372d372e30342d2e336107808201527f382d312e30362d312d312e38392d312e38352d322e3438732d312e38382d2e386107a08201527f392d332e30382d2e3839632d312e353420302d322e39322e34322d342e3134206107c08201527f312e3237732d322e303620312e39362d322e353120332e3335632d2e343520316107e08201527f2e33392d2e363820332e39362d2e363820372e37327631352e3231682d382e386108008201527f395635382e373868382e323676342e393363322e39332d332e3820362e36322d6108208201527f352e36392031312e30372d352e363920312e3936203020332e37352e333520356108408201527f2e333820312e303620312e36322e373120322e383520312e363120332e3638206108608201527f322e372e383320312e3120312e343120322e333420312e373420332e3733732e6108808201527f343920332e33382e343920352e39387632302e38385a6d32342e34322d33332e6108a08201527f353976372e3038682d362e30375637392e34633020322e37342e303620342e336108c08201527f342e313720342e37392e31322e34352e33382e38332e373920312e31322e34316108e08201527f2e332e39312e343420312e352e34342e3832203020322e30312d2e323820332e6109008201527f35372d2e38356c2e373620362e39632d322e30372e38392d342e343120312e336109208201527f332d372e303220312e33332d312e3620302d332e30352d2e32372d342e33332d6109408201527f2e38312d312e32392d2e35342d322e32332d312e32332d322e38332d322e30396109608201527f2d2e362d2e38352d312e30322d322e30312d312e32352d332e34362d2e31392d6109808201527f312e30332d2e32382d332e31322d2e32382d362e32365636352e3836682d342e6109a08201527f3038762d372e303868342e3038762d362e36376c382e39322d352e31397631316109c08201527f2e383668362e30375a6d362e32362033332e353956343668362e31347634302e6109e08201527f396832322e383476352e3437682d32382e39375a6d35372e34372d342e313463610a008201527f2d322e313120312e37392d342e313420332e30362d362e303920332e382d312e610a208201527f39352e37342d342e303420312e31312d362e323820312e31312d332e36392030610a408201527f2d362e35332d2e392d382e35312d322e372d312e39382d312e382d322e39372d610a608201527f342e31312d322e39372d362e393120302d312e36342e33372d332e313520312e610a808201527f31322d342e353173312e37332d322e343520322e39342d332e323763312e3231610aa08201527f2d2e383220322e35382d312e343420342e312d312e383720312e31322d2e3320610ac08201527f322e382d2e353820352e30362d2e383520342e362d2e353520372e39382d312e610ae08201527f322031302e31352d312e39362e30322d2e37382e30332d312e32382e30332d31610b008201527f2e343920302d322e33322d2e35342d332e39352d312e36312d342e392d312e34610b208201527f362d312e32392d332e36322d312e39332d362e34382d312e39332d322e363820610b408201527f302d342e36352e34372d352e393320312e3431732d322e323220322e362d322e610b608201527f383320342e39386c2d352e35372d2e3736632e35312d322e333820312e33342d610b808201527f342e333120322e352d352e373720312e31362d312e343720322e38342d322e35610ba08201527f3920352e30332d332e333820322e31392d2e373920342e37332d312e31392037610bc08201527f2e36322d312e313973352e322e333420362e393920312e303163312e37392e36610be08201527f3820332e313120312e353220332e393520322e35352e383420312e303220312e610c008201527f343320322e333120312e373720332e38382e31392e39372e323820322e37322e610c208201527f323820352e323576372e3539633020352e32392e313220382e36342e33362031610c408201527f302e30342e323420312e342e373220322e373520312e343420342e3033682d35610c608201527f2e3935632d2e35392d312e31382d2e39372d322e35362d312e31342d342e3134610c808201527f5a6d2d2e34372d31322e3732632d322e30372e38342d352e313720312e35362d610ca08201527f392e3320322e31352d322e33342e33342d34202e37322d342e393720312e3134610cc08201527f2d2e39372e34322d312e373220312e30342d322e323520312e3835732d2e3739610ce08201527f20312e37312d2e373920322e37633020312e35322e353720322e373820312e37610d008201527f3220332e3820312e313520312e303120322e383320312e353220352e30352031610d208201527f2e353273342e31342d2e343820352e38352d312e343420322e39362d322e3237610d408201527f20332e37362d332e3934632e36312d312e32392e39322d332e31382e39322d35610d608201527f2e3639762d322e30395a6d31342e33332032392e382d2e36332d352e33356331610d808201527f2e32342e333420322e33332e353120332e32362e353120312e3237203020322e610da08201527f32382d2e323120332e30342d2e363373312e33382d312e303120312e38372d31610dc08201527f2e3737632e33362d2e35372e39342d312e393820312e37342d342e32342e3131610de08201527f2d2e33322e32372d2e37382e35312d312e33396c2d31322e37352d33332e3635610e008201527f68362e31346c362e39392031392e3435632e393120322e343720312e37322035610e208201527f2e303620322e343420372e37382e36352d322e363120312e34332d352e313720610e408201527f322e33342d372e36356c372e31382d31392e353868352e36396c2d31322e3738610e608201527f2033342e3136632d312e333720332e36392d322e343420362e32332d332e3139610e808201527f20372e36322d312e303120312e38382d322e313720332e32352d332e34382034610ea08201527f2e31332d312e33312e38382d322e383720312e33312d342e363820312e33312d610ec08201527f312e3120302d322e33322d2e32332d332e36372d2e375a6d35352e36332d3233610ee08201527f2e373620352e38382e3733632d2e393320332e34342d322e363520362e312d35610f008201527f2e313620382d322e353120312e392d352e373120322e38352d392e363220322e610f208201527f38352d342e393120302d382e38312d312e35312d31312e36392d342e35342d32610f408201527f2e38382d332e30332d342e33322d372e32372d342e33322d31322e373373312e610f608201527f34362d31302e303420342e33362d31332e313663322e39312d332e313220362e610f808201527f36382d342e36382031312e33322d342e363873382e313620312e35332031312e610fa08201527f303120342e353963322e383520332e303620342e323720372e333620342e3237610fc08201527f2031322e39312030202e33342d2e30312e38342d2e303320312e3532682d3235610fe08201527f2e3035632e323120332e363920312e323520362e353220332e313320382e34386110008201527f20312e383820312e393620342e323220322e393420372e303220322e393420326110208201527f2e3039203020332e38372d2e353520352e33352d312e363420312e34382d312e6110408201527f3120322e36352d322e383520332e35312d352e32355a6d2d31382e36392d392e6110608201527f326831382e3736632d2e32352d322e38332d2e39372d342e39342d322e31352d6110808201527f362e33362d312e38312d322e31392d342e31372d332e32392d372e30352d332e6110a08201527f32392d322e363120302d342e38312e38382d362e3620322e3633732d322e37376110c08201527f20342e30392d322e393620372e30325a6d33312e36362032302e30325635382e6110e08201527f373868352e313276352e303963312e33312d322e333820322e35312d332e39356111008201527f20332e36322d342e373173322e33322d312e313420332e36352d312e313463316111208201527f2e3932203020332e38372e363120352e383520312e38336c2d312e393620352e6111408201527f3238632d312e33392d2e38322d322e37382d312e32332d342e31382d312e32336111608201527f2d312e323420302d322e33362e33372d332e333520312e31322d2e39392e37356111808201527f2d312e3720312e37392d322e313220332e31322d2e363320322e30322d2e39356111a08201527f20342e32342d2e393520362e36347631372e3539682d352e36395a6d32312e376111c08201527f39203056343668392e33367634362e3337682d392e33365a4d3430372e3337206111e08201527f34366831372e313163332e3836203020362e382e3320382e38332e383920322e6112008201527f37322e3820352e303520322e323220362e393920342e323720312e393420322e6112208201527f303520332e343220342e353520342e343320372e353120312e303120322e39366112408201527f20312e353220362e363220312e35322031302e3936203020332e38322d2e34376112608201527f20372e31312d312e343220392e38372d312e313620332e33372d322e383220366112808201527f2e312d342e393720382e31392d312e363220312e35382d332e383220322e38326112a08201527f2d362e353820332e372d322e30372e36352d342e38332e39382d382e32392e396112c08201527f38682d31372e36325634365a6d392e333620372e38347633302e373168362e396112e08201527f3963322e3631203020342e352d2e313520352e36362d2e343420312e35322d2e6113008201527f333820322e37382d312e303220332e37382d312e393320312d2e393120312e386113208201527f322d322e3420322e34352d342e34382e36332d322e30382e39352d342e39312e6113408201527f39352d382e3439732d2e33322d362e33342d2e39352d382e32362d312e35322d6113608201527f332e34322d322e36362d342e34392d322e35382d312e382d342e33332d322e316113808201527f38632d312e33312d2e332d332e38372d2e34342d372e36392d2e3434682d342e6113a08201527f32315a22207374796c653d2266696c6c3a23666666222f3e3c7465787420793d6113c08201527f223637302220783d22333022207374796c653d22666f6e743a373070782073616113e082015273373996b9b2b934b31db334b6361d11b33333111f60611b6114008201526000612a6d614a3d61141484018561309d565b6c1e17ba32bc3a1f1e17b9bb339f60991b8152600d0190565b7f646174613a696d6167652f7376672b786d6c3b6261736536342c000000000000815260008251614a8e81601a850160208701612b6a565b91909101601a0192915050565b683d913730b6b2911d1160b91b81528251600090614ac0816009850160208801612b6a565b6b1116101134b6b0b3b2911d1160a11b6009918401918201528351614aec816015840160208801612b6a565b7f222c20226465736372697074696f6e223a202254616c656e744c617965722049601592909101918201526244227d60e81b6035820152603801949350505050565b7f646174613a6170706c69636174696f6e2f6a736f6e3b6261736536342c000000815260008251614b6681601d850160208701612b6a565b91909101601d0192915050565b60208082526025908201527f4552433732313a207472616e736665722066726f6d20696e636f72726563742060408201526437bbb732b960d91b606082015260800190565b6001600160a01b0385811682528416602082015260408101839052608060608201819052600090614beb90830184612b96565b9695505050505050565b600060208284031215614c0757600080fd5b8151612a6d81612b37565b60008219821115614c2557614c2561306c565b500190565b600082614c4757634e487b7160e01b600052601260045260246000fd5b500490565b6000816000190483118215151615614c6657614c6661306c565b500290565b600082821015614c7d57614c7d61306c565b50039056fe360894a13ba1a3210667c828492db98dca3e2076cc3735a920a3ca505d382bbc4142434445464748494a4b4c4d4e4f505152535455565758595a6162636465666768696a6b6c6d6e6f707172737475767778797a303132333435363738392b2f416464726573733a206c6f772d6c6576656c2064656c65676174652063616c6c206661696c6564a26469706673582212207f79bec29fb52ed080332888efa32d4f2f2d1a3c1ff6aae47653a27349e2984b64736f6c63430008090033",
  "linkReferences": {},
  "deployedLinkReferences": {}
}